{
  "_format": "hh-sol-artifact-1",
  "contractName": "V3DexSwapWethDepositAdapter",
  "sourceName": "src/operational/V3DexSwapWethDepositAdapter.sol",
  "abi": [
    {
      "inputs": [
        {
          "internalType": "address",
          "name": "_router",
          "type": "address"
        },
        {
          "internalType": "address",
          "name": "_wethToken",
          "type": "address"
        },
        {
          "internalType": "address",
          "name": "_lineaToken",
          "type": "address"
        },
        {
          "internalType": "int24",
          "name": "_poolTickSpacing",
          "type": "int24"
        }
      ],
      "stateMutability": "nonpayable",
      "type": "constructor"
    },
    {
      "inputs": [],
      "name": "DeadlineInThePast",
      "type": "error"
    },
    {
      "inputs": [
        {
          "internalType": "uint256",
          "name": "expectedMinimum",
          "type": "uint256"
        },
        {
          "internalType": "uint256",
          "name": "actualReceived",
          "type": "uint256"
        }
      ],
      "name": "InsufficientLineaTokensReceived",
      "type": "error"
    },
    {
      "inputs": [],
      "name": "NoEthSent",
      "type": "error"
    },
    {
      "inputs": [],
      "name": "ZeroAddressNotAllowed",
      "type": "error"
    },
    {
      "inputs": [],
      "name": "ZeroMinLineaOutNotAllowed",
      "type": "error"
    },
    {
      "inputs": [],
      "name": "ZeroTickSpacingNotAllowed",
      "type": "error"
    },
    {
      "anonymous": false,
      "inputs": [
        {
          "indexed": false,
          "internalType": "address",
          "name": "router",
          "type": "address"
        },
        {
          "indexed": false,
          "internalType": "address",
          "name": "wethToken",
          "type": "address"
        },
        {
          "indexed": false,
          "internalType": "address",
          "name": "lineaToken",
          "type": "address"
        },
        {
          "indexed": false,
          "internalType": "int24",
          "name": "poolTickSpacing",
          "type": "int24"
        }
      ],
      "name": "V3DexSwapAdapterInitialized",
      "type": "event"
    },
    {
      "inputs": [],
      "name": "LINEA_TOKEN",
      "outputs": [
        {
          "internalType": "address",
          "name": "",
          "type": "address"
        }
      ],
      "stateMutability": "view",
      "type": "function"
    },
    {
      "inputs": [],
      "name": "POOL_TICK_SPACING",
      "outputs": [
        {
          "internalType": "int24",
          "name": "",
          "type": "int24"
        }
      ],
      "stateMutability": "view",
      "type": "function"
    },
    {
      "inputs": [],
      "name": "ROUTER",
      "outputs": [
        {
          "internalType": "address",
          "name": "",
          "type": "address"
        }
      ],
      "stateMutability": "view",
      "type": "function"
    },
    {
      "inputs": [],
      "name": "WETH_TOKEN",
      "outputs": [
        {
          "internalType": "address",
          "name": "",
          "type": "address"
        }
      ],
      "stateMutability": "view",
      "type": "function"
    },
    {
      "inputs": [
        {
          "internalType": "uint256",
          "name": "_minLineaOut",
          "type": "uint256"
        },
        {
          "internalType": "uint256",
          "name": "_deadline",
          "type": "uint256"
        }
      ],
      "name": "swap",
      "outputs": [
        {
          "internalType": "uint256",
          "name": "amountOut",
          "type": "uint256"
        }
      ],
      "stateMutability": "payable",
      "type": "function"
    }
  ],
  "bytecode": "0x610100604052348015610010575f5ffd5b50604051610a51380380610a5183398101604081905261002f9161015b565b6001600160a01b038416610056576040516342bcdf7f60e11b815260040160405180910390fd5b6001600160a01b03831661007d576040516342bcdf7f60e11b815260040160405180910390fd5b6001600160a01b0382166100a4576040516342bcdf7f60e11b815260040160405180910390fd5b5f8160020b136100c757604051630e28ef2d60e31b815260040160405180910390fd5b6001600160a01b0384811660a081905284821660c081905291841660e0819052600284900b60808181526040805194855260208501959095529383019190915260608201527ff0e73d1ea8d2f535901495f0d8fb7eb0e37dbee344097b5719b838b6fdf0383a910160405180910390a1505050506101b3565b80516001600160a01b0381168114610156575f5ffd5b919050565b5f5f5f5f6080858703121561016e575f5ffd5b61017785610140565b935061018560208601610140565b925061019360408601610140565b915060608501518060020b81146101a8575f5ffd5b939692955090935050565b60805160a05160c05160e05161082f6102225f395f8181610164015281816103b70152818161047c01526105d301525f818160ca0152818161023501528181610318015261045701525f8181606d015281816102ea015261051401525f818160fd01526104a4015261082f5ff3fe608060405260043610610058575f3560e01c80637381527f116100415780637381527f146100ec578063d96073cf14610132578063fc57bb5114610153575f5ffd5b806332fe7b261461005c57806337d277d4146100b9575b5f5ffd5b348015610067575f5ffd5b5061008f7f000000000000000000000000000000000000000000000000000000000000000081565b60405173ffffffffffffffffffffffffffffffffffffffff90911681526020015b60405180910390f35b3480156100c4575f5ffd5b5061008f7f000000000000000000000000000000000000000000000000000000000000000081565b3480156100f7575f5ffd5b5061011f7f000000000000000000000000000000000000000000000000000000000000000081565b60405160029190910b81526020016100b0565b61014561014036600461069b565b610186565b6040519081526020016100b0565b34801561015e575f5ffd5b5061008f7f000000000000000000000000000000000000000000000000000000000000000081565b5f5f34116101c0576040517f717e6b7b00000000000000000000000000000000000000000000000000000000815260040160405180910390fd5b428210156101fa576040517fff1e986400000000000000000000000000000000000000000000000000000000815260040160405180910390fd5b5f8311610233576040517fee600fe600000000000000000000000000000000000000000000000000000000815260040160405180910390fd5b7f000000000000000000000000000000000000000000000000000000000000000073ffffffffffffffffffffffffffffffffffffffff1663d0e30db0346040518263ffffffff1660e01b81526004015f604051808303818588803b158015610299575f5ffd5b505af11580156102ab573d5f5f3e3d5ffd5b50506040517f095ea7b300000000000000000000000000000000000000000000000000000000815273ffffffffffffffffffffffffffffffffffffffff7f0000000000000000000000000000000000000000000000000000000000000000811660048301523460248301527f000000000000000000000000000000000000000000000000000000000000000016935063095ea7b3925060440190506020604051808303815f875af1158015610362573d5f5f3e3d5ffd5b505050506040513d601f19601f8201168201806040525081019061038691906106bb565b506040517f70a082310000000000000000000000000000000000000000000000000000000081523360048201525f907f000000000000000000000000000000000000000000000000000000000000000073ffffffffffffffffffffffffffffffffffffffff16906370a0823190602401602060405180830381865afa158015610411573d5f5f3e3d5ffd5b505050506040513d601f19601f8201168201806040525081019061043591906106e1565b604080516101008101825273ffffffffffffffffffffffffffffffffffffffff7f0000000000000000000000000000000000000000000000000000000000000000811682527f0000000000000000000000000000000000000000000000000000000000000000811660208301527f000000000000000000000000000000000000000000000000000000000000000060020b82840152336060830152608082018790523460a083015260c082018890525f60e083015291517fa026383e0000000000000000000000000000000000000000000000000000000081529293507f00000000000000000000000000000000000000000000000000000000000000009091169163a026383e91610549916004016106f8565b6020604051808303815f875af1158015610565573d5f5f3e3d5ffd5b505050506040513d601f19601f8201168201806040525081019061058991906106e1565b6040517f70a082310000000000000000000000000000000000000000000000000000000081523360048201529092505f90829073ffffffffffffffffffffffffffffffffffffffff7f000000000000000000000000000000000000000000000000000000000000000016906370a0823190602401602060405180830381865afa158015610618573d5f5f3e3d5ffd5b505050506040513d601f19601f8201168201806040525081019061063c91906106e1565b61064691906107bb565b9050848181811015610691576040517fece3d3580000000000000000000000000000000000000000000000000000000081526004810192909252602482015260440160405180910390fd5b5050505092915050565b5f5f604083850312156106ac575f5ffd5b50508035926020909101359150565b5f602082840312156106cb575f5ffd5b815180151581146106da575f5ffd5b9392505050565b5f602082840312156106f1575f5ffd5b5051919050565b5f6101008201905073ffffffffffffffffffffffffffffffffffffffff835116825273ffffffffffffffffffffffffffffffffffffffff6020840151166020830152604083015160020b6040830152606083015161076e606084018273ffffffffffffffffffffffffffffffffffffffff169052565b506080830151608083015260a083015160a083015260c083015160c083015260e08301516107b460e084018273ffffffffffffffffffffffffffffffffffffffff169052565b5092915050565b818103818111156107f3577f4e487b71000000000000000000000000000000000000000000000000000000005f52601160045260245ffd5b9291505056fea2646970667358221220d1c99c77975bf1307a1f7ea7c4a7120b5a273af86ee7bae476ef9b7b448845d264736f6c634300081e0033",
  "linkReferences": {},
  "deployedLinkReferences": {}
}