{
  "_format": "hh-sol-artifact-1",
  "contractName": "IntegrationTestTrueVerifier",
  "sourceName": "src/_testing/integration/IntegrationTestTrueVerifier.sol",
  "abi": [
    {
      "inputs": [],
      "name": "ChainConfigurationNotProvided",
      "type": "error"
    },
    {
      "anonymous": false,
      "inputs": [
        {
          "indexed": false,
          "internalType": "bytes32",
          "name": "chainConfigurationHash",
          "type": "bytes32"
        },
        {
          "components": [
            {
              "internalType": "bytes32",
              "name": "value",
              "type": "bytes32"
            },
            {
              "internalType": "string",
              "name": "name",
              "type": "string"
            }
          ],
          "indexed": false,
          "internalType": "struct IPlonkVerifier.ChainConfigurationParameter[]",
          "name": "parameters",
          "type": "tuple[]"
        }
      ],
      "name": "ChainConfigurationSet",
      "type": "event"
    },
    {
      "inputs": [
        {
          "internalType": "bytes",
          "name": "",
          "type": "bytes"
        },
        {
          "internalType": "uint256[]",
          "name": "",
          "type": "uint256[]"
        }
      ],
      "name": "Verify",
      "outputs": [
        {
          "internalType": "bool",
          "name": "",
          "type": "bool"
        }
      ],
      "stateMutability": "pure",
      "type": "function"
    },
    {
      "inputs": [],
      "name": "getChainConfiguration",
      "outputs": [
        {
          "internalType": "bytes32",
          "name": "",
          "type": "bytes32"
        }
      ],
      "stateMutability": "pure",
      "type": "function"
    }
  ],
  "bytecode": "0x6080604052348015600e575f5ffd5b506101718061001c5f395ff3fe608060405234801561000f575f5ffd5b5060043610610034575f3560e01c80637e4f7a8a14610038578063b02384ad14610065575b5f5ffd5b610050610046366004610073565b6001949350505050565b60405190151581526020015b60405180910390f35b6040515f815260200161005c565b5f5f5f5f60408587031215610086575f5ffd5b843567ffffffffffffffff81111561009c575f5ffd5b8501601f810187136100ac575f5ffd5b803567ffffffffffffffff8111156100c2575f5ffd5b8760208284010111156100d3575f5ffd5b60209182019550935085013567ffffffffffffffff8111156100f3575f5ffd5b8501601f81018713610103575f5ffd5b803567ffffffffffffffff811115610119575f5ffd5b8760208260051b840101111561012d575f5ffd5b94979396506020019450505056fea2646970667358221220dc17dfde9c272683b396a1822a4bfbe280e45cbd359fd912f18953d6117406b264736f6c63430008210033",
  "linkReferences": {},
  "deployedLinkReferences": {}
}