{
  "_format": "hh-sol-artifact-1",
  "contractName": "L2MessageService",
  "sourceName": "contracts/messageService/l2/L2MessageService.sol",
  "abi": [
    {
      "inputs": [],
      "stateMutability": "nonpayable",
      "type": "constructor"
    },
    {
      "inputs": [],
      "name": "ArrayLengthsDoNotMatch",
      "type": "error"
    },
    {
      "inputs": [
        {
          "internalType": "address",
          "name": "recipient",
          "type": "address"
        }
      ],
      "name": "FeePaymentFailed",
      "type": "error"
    },
    {
      "inputs": [],
      "name": "FeeTooLow",
      "type": "error"
    },
    {
      "inputs": [],
      "name": "FinalRollingHashIsZero",
      "type": "error"
    },
    {
      "inputs": [
        {
          "internalType": "enum IPauseManager.PauseType",
          "name": "pauseType",
          "type": "uint8"
        }
      ],
      "name": "IsNotPaused",
      "type": "error"
    },
    {
      "inputs": [
        {
          "internalType": "enum IPauseManager.PauseType",
          "name": "pauseType",
          "type": "uint8"
        }
      ],
      "name": "IsPaused",
      "type": "error"
    },
    {
      "inputs": [
        {
          "internalType": "uint256",
          "name": "expected",
          "type": "uint256"
        },
        {
          "internalType": "uint256",
          "name": "found",
          "type": "uint256"
        }
      ],
      "name": "L1MessageNumberSynchronizationWrong",
      "type": "error"
    },
    {
      "inputs": [
        {
          "internalType": "bytes32",
          "name": "expected",
          "type": "bytes32"
        },
        {
          "internalType": "bytes32",
          "name": "found",
          "type": "bytes32"
        }
      ],
      "name": "L1RollingHashSynchronizationWrong",
      "type": "error"
    },
    {
      "inputs": [],
      "name": "LimitIsZero",
      "type": "error"
    },
    {
      "inputs": [
        {
          "internalType": "bytes32",
          "name": "messageHash",
          "type": "bytes32"
        }
      ],
      "name": "MessageDoesNotExistOrHasAlreadyBeenClaimed",
      "type": "error"
    },
    {
      "inputs": [
        {
          "internalType": "uint256",
          "name": "length",
          "type": "uint256"
        }
      ],
      "name": "MessageHashesListLengthHigherThanOneHundred",
      "type": "error"
    },
    {
      "inputs": [],
      "name": "MessageHashesListLengthIsZero",
      "type": "error"
    },
    {
      "inputs": [
        {
          "internalType": "address",
          "name": "destination",
          "type": "address"
        }
      ],
      "name": "MessageSendingFailed",
      "type": "error"
    },
    {
      "inputs": [],
      "name": "PeriodIsZero",
      "type": "error"
    },
    {
      "inputs": [],
      "name": "RateLimitExceeded",
      "type": "error"
    },
    {
      "inputs": [],
      "name": "ValueSentTooLow",
      "type": "error"
    },
    {
      "inputs": [],
      "name": "ZeroAddressNotAllowed",
      "type": "error"
    },
    {
      "inputs": [],
      "name": "ZeroHashNotAllowed",
      "type": "error"
    },
    {
      "anonymous": false,
      "inputs": [
        {
          "indexed": true,
          "internalType": "address",
          "name": "resettingAddress",
          "type": "address"
        }
      ],
      "name": "AmountUsedInPeriodReset",
      "type": "event"
    },
    {
      "anonymous": false,
      "inputs": [
        {
          "indexed": false,
          "internalType": "uint8",
          "name": "version",
          "type": "uint8"
        }
      ],
      "name": "Initialized",
      "type": "event"
    },
    {
      "anonymous": false,
      "inputs": [
        {
          "indexed": false,
          "internalType": "bytes32[]",
          "name": "messageHashes",
          "type": "bytes32[]"
        }
      ],
      "name": "L1L2MessageHashesAddedToInbox",
      "type": "event"
    },
    {
      "anonymous": false,
      "inputs": [
        {
          "indexed": true,
          "internalType": "address",
          "name": "amountChangeBy",
          "type": "address"
        },
        {
          "indexed": false,
          "internalType": "uint256",
          "name": "amount",
          "type": "uint256"
        },
        {
          "indexed": false,
          "internalType": "bool",
          "name": "amountUsedLoweredToLimit",
          "type": "bool"
        },
        {
          "indexed": false,
          "internalType": "bool",
          "name": "usedAmountResetToZero",
          "type": "bool"
        }
      ],
      "name": "LimitAmountChanged",
      "type": "event"
    },
    {
      "anonymous": false,
      "inputs": [
        {
          "indexed": true,
          "internalType": "bytes32",
          "name": "_messageHash",
          "type": "bytes32"
        }
      ],
      "name": "MessageClaimed",
      "type": "event"
    },
    {
      "anonymous": false,
      "inputs": [
        {
          "indexed": true,
          "internalType": "address",
          "name": "_from",
          "type": "address"
        },
        {
          "indexed": true,
          "internalType": "address",
          "name": "_to",
          "type": "address"
        },
        {
          "indexed": false,
          "internalType": "uint256",
          "name": "_fee",
          "type": "uint256"
        },
        {
          "indexed": false,
          "internalType": "uint256",
          "name": "_value",
          "type": "uint256"
        },
        {
          "indexed": false,
          "internalType": "uint256",
          "name": "_nonce",
          "type": "uint256"
        },
        {
          "indexed": false,
          "internalType": "bytes",
          "name": "_calldata",
          "type": "bytes"
        },
        {
          "indexed": true,
          "internalType": "bytes32",
          "name": "_messageHash",
          "type": "bytes32"
        }
      ],
      "name": "MessageSent",
      "type": "event"
    },
    {
      "anonymous": false,
      "inputs": [
        {
          "indexed": false,
          "internalType": "uint256",
          "name": "previousMinimumFee",
          "type": "uint256"
        },
        {
          "indexed": false,
          "internalType": "uint256",
          "name": "newMinimumFee",
          "type": "uint256"
        },
        {
          "indexed": true,
          "internalType": "address",
          "name": "calledBy",
          "type": "address"
        }
      ],
      "name": "MinimumFeeChanged",
      "type": "event"
    },
    {
      "anonymous": false,
      "inputs": [
        {
          "indexed": false,
          "internalType": "enum IPauseManager.PauseType",
          "name": "pauseType",
          "type": "uint8"
        },
        {
          "indexed": false,
          "internalType": "bytes32",
          "name": "role",
          "type": "bytes32"
        }
      ],
      "name": "PauseTypeRoleSet",
      "type": "event"
    },
    {
      "anonymous": false,
      "inputs": [
        {
          "indexed": false,
          "internalType": "address",
          "name": "messageSender",
          "type": "address"
        },
        {
          "indexed": true,
          "internalType": "enum IPauseManager.PauseType",
          "name": "pauseType",
          "type": "uint8"
        }
      ],
      "name": "Paused",
      "type": "event"
    },
    {
      "anonymous": false,
      "inputs": [
        {
          "indexed": false,
          "internalType": "uint256",
          "name": "periodInSeconds",
          "type": "uint256"
        },
        {
          "indexed": false,
          "internalType": "uint256",
          "name": "limitInWei",
          "type": "uint256"
        },
        {
          "indexed": false,
          "internalType": "uint256",
          "name": "currentPeriodEnd",
          "type": "uint256"
        }
      ],
      "name": "RateLimitInitialized",
      "type": "event"
    },
    {
      "anonymous": false,
      "inputs": [
        {
          "indexed": true,
          "internalType": "bytes32",
          "name": "role",
          "type": "bytes32"
        },
        {
          "indexed": true,
          "internalType": "bytes32",
          "name": "previousAdminRole",
          "type": "bytes32"
        },
        {
          "indexed": true,
          "internalType": "bytes32",
          "name": "newAdminRole",
          "type": "bytes32"
        }
      ],
      "name": "RoleAdminChanged",
      "type": "event"
    },
    {
      "anonymous": false,
      "inputs": [
        {
          "indexed": true,
          "internalType": "bytes32",
          "name": "role",
          "type": "bytes32"
        },
        {
          "indexed": true,
          "internalType": "address",
          "name": "account",
          "type": "address"
        },
        {
          "indexed": true,
          "internalType": "address",
          "name": "sender",
          "type": "address"
        }
      ],
      "name": "RoleGranted",
      "type": "event"
    },
    {
      "anonymous": false,
      "inputs": [
        {
          "indexed": true,
          "internalType": "bytes32",
          "name": "role",
          "type": "bytes32"
        },
        {
          "indexed": true,
          "internalType": "address",
          "name": "account",
          "type": "address"
        },
        {
          "indexed": true,
          "internalType": "address",
          "name": "sender",
          "type": "address"
        }
      ],
      "name": "RoleRevoked",
      "type": "event"
    },
    {
      "anonymous": false,
      "inputs": [
        {
          "indexed": true,
          "internalType": "uint256",
          "name": "messageNumber",
          "type": "uint256"
        },
        {
          "indexed": true,
          "internalType": "bytes32",
          "name": "rollingHash",
          "type": "bytes32"
        }
      ],
      "name": "RollingHashUpdated",
      "type": "event"
    },
    {
      "anonymous": false,
      "inputs": [
        {
          "indexed": true,
          "internalType": "uint256",
          "name": "version",
          "type": "uint256"
        }
      ],
      "name": "ServiceVersionMigrated",
      "type": "event"
    },
    {
      "anonymous": false,
      "inputs": [
        {
          "indexed": false,
          "internalType": "enum IPauseManager.PauseType",
          "name": "unPauseType",
          "type": "uint8"
        },
        {
          "indexed": false,
          "internalType": "bytes32",
          "name": "role",
          "type": "bytes32"
        }
      ],
      "name": "UnPauseTypeRoleSet",
      "type": "event"
    },
    {
      "anonymous": false,
      "inputs": [
        {
          "indexed": false,
          "internalType": "address",
          "name": "messageSender",
          "type": "address"
        },
        {
          "indexed": true,
          "internalType": "enum IPauseManager.PauseType",
          "name": "pauseType",
          "type": "uint8"
        }
      ],
      "name": "UnPaused",
      "type": "event"
    },
    {
      "inputs": [],
      "name": "CONTRACT_VERSION",
      "outputs": [
        {
          "internalType": "string",
          "name": "",
          "type": "string"
        }
      ],
      "stateMutability": "view",
      "type": "function"
    },
    {
      "inputs": [],
      "name": "DEFAULT_ADMIN_ROLE",
      "outputs": [
        {
          "internalType": "bytes32",
          "name": "",
          "type": "bytes32"
        }
      ],
      "stateMutability": "view",
      "type": "function"
    },
    {
      "inputs": [],
      "name": "INBOX_STATUS_CLAIMED",
      "outputs": [
        {
          "internalType": "uint8",
          "name": "",
          "type": "uint8"
        }
      ],
      "stateMutability": "view",
      "type": "function"
    },
    {
      "inputs": [],
      "name": "INBOX_STATUS_RECEIVED",
      "outputs": [
        {
          "internalType": "uint8",
          "name": "",
          "type": "uint8"
        }
      ],
      "stateMutability": "view",
      "type": "function"
    },
    {
      "inputs": [],
      "name": "INBOX_STATUS_UNKNOWN",
      "outputs": [
        {
          "internalType": "uint8",
          "name": "",
          "type": "uint8"
        }
      ],
      "stateMutability": "view",
      "type": "function"
    },
    {
      "inputs": [],
      "name": "L1_L2_MESSAGE_SETTER_ROLE",
      "outputs": [
        {
          "internalType": "bytes32",
          "name": "",
          "type": "bytes32"
        }
      ],
      "stateMutability": "view",
      "type": "function"
    },
    {
      "inputs": [],
      "name": "MINIMUM_FEE_SETTER_ROLE",
      "outputs": [
        {
          "internalType": "bytes32",
          "name": "",
          "type": "bytes32"
        }
      ],
      "stateMutability": "view",
      "type": "function"
    },
    {
      "inputs": [],
      "name": "PAUSE_ALL_ROLE",
      "outputs": [
        {
          "internalType": "bytes32",
          "name": "",
          "type": "bytes32"
        }
      ],
      "stateMutability": "view",
      "type": "function"
    },
    {
      "inputs": [],
      "name": "PAUSE_L1_L2_ROLE",
      "outputs": [
        {
          "internalType": "bytes32",
          "name": "",
          "type": "bytes32"
        }
      ],
      "stateMutability": "view",
      "type": "function"
    },
    {
      "inputs": [],
      "name": "PAUSE_L2_L1_ROLE",
      "outputs": [
        {
          "internalType": "bytes32",
          "name": "",
          "type": "bytes32"
        }
      ],
      "stateMutability": "view",
      "type": "function"
    },
    {
      "inputs": [],
      "name": "RATE_LIMIT_SETTER_ROLE",
      "outputs": [
        {
          "internalType": "bytes32",
          "name": "",
          "type": "bytes32"
        }
      ],
      "stateMutability": "view",
      "type": "function"
    },
    {
      "inputs": [],
      "name": "UNPAUSE_ALL_ROLE",
      "outputs": [
        {
          "internalType": "bytes32",
          "name": "",
          "type": "bytes32"
        }
      ],
      "stateMutability": "view",
      "type": "function"
    },
    {
      "inputs": [],
      "name": "UNPAUSE_L1_L2_ROLE",
      "outputs": [
        {
          "internalType": "bytes32",
          "name": "",
          "type": "bytes32"
        }
      ],
      "stateMutability": "view",
      "type": "function"
    },
    {
      "inputs": [],
      "name": "UNPAUSE_L2_L1_ROLE",
      "outputs": [
        {
          "internalType": "bytes32",
          "name": "",
          "type": "bytes32"
        }
      ],
      "stateMutability": "view",
      "type": "function"
    },
    {
      "inputs": [],
      "name": "USED_RATE_LIMIT_RESETTER_ROLE",
      "outputs": [
        {
          "internalType": "bytes32",
          "name": "",
          "type": "bytes32"
        }
      ],
      "stateMutability": "view",
      "type": "function"
    },
    {
      "inputs": [
        {
          "internalType": "bytes32[]",
          "name": "_messageHashes",
          "type": "bytes32[]"
        },
        {
          "internalType": "uint256",
          "name": "_startingMessageNumber",
          "type": "uint256"
        },
        {
          "internalType": "uint256",
          "name": "_finalMessageNumber",
          "type": "uint256"
        },
        {
          "internalType": "bytes32",
          "name": "_finalRollingHash",
          "type": "bytes32"
        }
      ],
      "name": "anchorL1L2MessageHashes",
      "outputs": [],
      "stateMutability": "nonpayable",
      "type": "function"
    },
    {
      "inputs": [
        {
          "internalType": "address",
          "name": "_from",
          "type": "address"
        },
        {
          "internalType": "address",
          "name": "_to",
          "type": "address"
        },
        {
          "internalType": "uint256",
          "name": "_fee",
          "type": "uint256"
        },
        {
          "internalType": "uint256",
          "name": "_value",
          "type": "uint256"
        },
        {
          "internalType": "address payable",
          "name": "_feeRecipient",
          "type": "address"
        },
        {
          "internalType": "bytes",
          "name": "_calldata",
          "type": "bytes"
        },
        {
          "internalType": "uint256",
          "name": "_nonce",
          "type": "uint256"
        }
      ],
      "name": "claimMessage",
      "outputs": [],
      "stateMutability": "nonpayable",
      "type": "function"
    },
    {
      "inputs": [],
      "name": "currentPeriodAmountInWei",
      "outputs": [
        {
          "internalType": "uint256",
          "name": "",
          "type": "uint256"
        }
      ],
      "stateMutability": "view",
      "type": "function"
    },
    {
      "inputs": [],
      "name": "currentPeriodEnd",
      "outputs": [
        {
          "internalType": "uint256",
          "name": "",
          "type": "uint256"
        }
      ],
      "stateMutability": "view",
      "type": "function"
    },
    {
      "inputs": [
        {
          "internalType": "bytes32",
          "name": "role",
          "type": "bytes32"
        }
      ],
      "name": "getRoleAdmin",
      "outputs": [
        {
          "internalType": "bytes32",
          "name": "",
          "type": "bytes32"
        }
      ],
      "stateMutability": "view",
      "type": "function"
    },
    {
      "inputs": [
        {
          "internalType": "bytes32",
          "name": "role",
          "type": "bytes32"
        },
        {
          "internalType": "address",
          "name": "account",
          "type": "address"
        }
      ],
      "name": "grantRole",
      "outputs": [],
      "stateMutability": "nonpayable",
      "type": "function"
    },
    {
      "inputs": [
        {
          "internalType": "bytes32",
          "name": "role",
          "type": "bytes32"
        },
        {
          "internalType": "address",
          "name": "account",
          "type": "address"
        }
      ],
      "name": "hasRole",
      "outputs": [
        {
          "internalType": "bool",
          "name": "",
          "type": "bool"
        }
      ],
      "stateMutability": "view",
      "type": "function"
    },
    {
      "inputs": [
        {
          "internalType": "bytes32",
          "name": "messageHash",
          "type": "bytes32"
        }
      ],
      "name": "inboxL1L2MessageStatus",
      "outputs": [
        {
          "internalType": "uint256",
          "name": "messageStatus",
          "type": "uint256"
        }
      ],
      "stateMutability": "view",
      "type": "function"
    },
    {
      "inputs": [
        {
          "internalType": "uint256",
          "name": "_rateLimitPeriod",
          "type": "uint256"
        },
        {
          "internalType": "uint256",
          "name": "_rateLimitAmount",
          "type": "uint256"
        },
        {
          "internalType": "address",
          "name": "_defaultAdmin",
          "type": "address"
        },
        {
          "components": [
            {
              "internalType": "address",
              "name": "addressWithRole",
              "type": "address"
            },
            {
              "internalType": "bytes32",
              "name": "role",
              "type": "bytes32"
            }
          ],
          "internalType": "struct IPermissionsManager.RoleAddress[]",
          "name": "_roleAddresses",
          "type": "tuple[]"
        },
        {
          "components": [
            {
              "internalType": "enum IPauseManager.PauseType",
              "name": "pauseType",
              "type": "uint8"
            },
            {
              "internalType": "bytes32",
              "name": "role",
              "type": "bytes32"
            }
          ],
          "internalType": "struct IPauseManager.PauseTypeRole[]",
          "name": "_pauseTypeRoles",
          "type": "tuple[]"
        },
        {
          "components": [
            {
              "internalType": "enum IPauseManager.PauseType",
              "name": "pauseType",
              "type": "uint8"
            },
            {
              "internalType": "bytes32",
              "name": "role",
              "type": "bytes32"
            }
          ],
          "internalType": "struct IPauseManager.PauseTypeRole[]",
          "name": "_unpauseTypeRoles",
          "type": "tuple[]"
        }
      ],
      "name": "initialize",
      "outputs": [],
      "stateMutability": "nonpayable",
      "type": "function"
    },
    {
      "inputs": [
        {
          "internalType": "enum IPauseManager.PauseType",
          "name": "_pauseType",
          "type": "uint8"
        }
      ],
      "name": "isPaused",
      "outputs": [
        {
          "internalType": "bool",
          "name": "",
          "type": "bool"
        }
      ],
      "stateMutability": "view",
      "type": "function"
    },
    {
      "inputs": [
        {
          "internalType": "uint256",
          "name": "messageNumber",
          "type": "uint256"
        }
      ],
      "name": "l1RollingHashes",
      "outputs": [
        {
          "internalType": "bytes32",
          "name": "rollingHash",
          "type": "bytes32"
        }
      ],
      "stateMutability": "view",
      "type": "function"
    },
    {
      "inputs": [],
      "name": "lastAnchoredL1MessageNumber",
      "outputs": [
        {
          "internalType": "uint256",
          "name": "",
          "type": "uint256"
        }
      ],
      "stateMutability": "view",
      "type": "function"
    },
    {
      "inputs": [],
      "name": "limitInWei",
      "outputs": [
        {
          "internalType": "uint256",
          "name": "",
          "type": "uint256"
        }
      ],
      "stateMutability": "view",
      "type": "function"
    },
    {
      "inputs": [],
      "name": "minimumFeeInWei",
      "outputs": [
        {
          "internalType": "uint256",
          "name": "",
          "type": "uint256"
        }
      ],
      "stateMutability": "view",
      "type": "function"
    },
    {
      "inputs": [],
      "name": "nextMessageNumber",
      "outputs": [
        {
          "internalType": "uint256",
          "name": "",
          "type": "uint256"
        }
      ],
      "stateMutability": "view",
      "type": "function"
    },
    {
      "inputs": [
        {
          "internalType": "enum IPauseManager.PauseType",
          "name": "_pauseType",
          "type": "uint8"
        }
      ],
      "name": "pauseByType",
      "outputs": [],
      "stateMutability": "nonpayable",
      "type": "function"
    },
    {
      "inputs": [
        {
          "internalType": "bytes32",
          "name": "pauseType",
          "type": "bytes32"
        }
      ],
      "name": "pauseTypeStatuses",
      "outputs": [
        {
          "internalType": "bool",
          "name": "pauseStatus",
          "type": "bool"
        }
      ],
      "stateMutability": "view",
      "type": "function"
    },
    {
      "inputs": [],
      "name": "periodInSeconds",
      "outputs": [
        {
          "internalType": "uint256",
          "name": "",
          "type": "uint256"
        }
      ],
      "stateMutability": "view",
      "type": "function"
    },
    {
      "inputs": [
        {
          "components": [
            {
              "internalType": "address",
              "name": "addressWithRole",
              "type": "address"
            },
            {
              "internalType": "bytes32",
              "name": "role",
              "type": "bytes32"
            }
          ],
          "internalType": "struct IPermissionsManager.RoleAddress[]",
          "name": "_roleAddresses",
          "type": "tuple[]"
        },
        {
          "components": [
            {
              "internalType": "enum IPauseManager.PauseType",
              "name": "pauseType",
              "type": "uint8"
            },
            {
              "internalType": "bytes32",
              "name": "role",
              "type": "bytes32"
            }
          ],
          "internalType": "struct IPauseManager.PauseTypeRole[]",
          "name": "_pauseTypeRoles",
          "type": "tuple[]"
        },
        {
          "components": [
            {
              "internalType": "enum IPauseManager.PauseType",
              "name": "pauseType",
              "type": "uint8"
            },
            {
              "internalType": "bytes32",
              "name": "role",
              "type": "bytes32"
            }
          ],
          "internalType": "struct IPauseManager.PauseTypeRole[]",
          "name": "_unpauseTypeRoles",
          "type": "tuple[]"
        }
      ],
      "name": "reinitializePauseTypesAndPermissions",
      "outputs": [],
      "stateMutability": "nonpayable",
      "type": "function"
    },
    {
      "inputs": [
        {
          "internalType": "bytes32",
          "name": "role",
          "type": "bytes32"
        },
        {
          "internalType": "address",
          "name": "account",
          "type": "address"
        }
      ],
      "name": "renounceRole",
      "outputs": [],
      "stateMutability": "nonpayable",
      "type": "function"
    },
    {
      "inputs": [],
      "name": "resetAmountUsedInPeriod",
      "outputs": [],
      "stateMutability": "nonpayable",
      "type": "function"
    },
    {
      "inputs": [
        {
          "internalType": "uint256",
          "name": "_amount",
          "type": "uint256"
        }
      ],
      "name": "resetRateLimitAmount",
      "outputs": [],
      "stateMutability": "nonpayable",
      "type": "function"
    },
    {
      "inputs": [
        {
          "internalType": "bytes32",
          "name": "role",
          "type": "bytes32"
        },
        {
          "internalType": "address",
          "name": "account",
          "type": "address"
        }
      ],
      "name": "revokeRole",
      "outputs": [],
      "stateMutability": "nonpayable",
      "type": "function"
    },
    {
      "inputs": [
        {
          "internalType": "address",
          "name": "_to",
          "type": "address"
        },
        {
          "internalType": "uint256",
          "name": "_fee",
          "type": "uint256"
        },
        {
          "internalType": "bytes",
          "name": "_calldata",
          "type": "bytes"
        }
      ],
      "name": "sendMessage",
      "outputs": [],
      "stateMutability": "payable",
      "type": "function"
    },
    {
      "inputs": [],
      "name": "sender",
      "outputs": [
        {
          "internalType": "address",
          "name": "",
          "type": "address"
        }
      ],
      "stateMutability": "view",
      "type": "function"
    },
    {
      "inputs": [
        {
          "internalType": "uint256",
          "name": "_feeInWei",
          "type": "uint256"
        }
      ],
      "name": "setMinimumFee",
      "outputs": [],
      "stateMutability": "nonpayable",
      "type": "function"
    },
    {
      "inputs": [
        {
          "internalType": "bytes4",
          "name": "interfaceId",
          "type": "bytes4"
        }
      ],
      "name": "supportsInterface",
      "outputs": [
        {
          "internalType": "bool",
          "name": "",
          "type": "bool"
        }
      ],
      "stateMutability": "view",
      "type": "function"
    },
    {
      "inputs": [
        {
          "internalType": "enum IPauseManager.PauseType",
          "name": "_pauseType",
          "type": "uint8"
        }
      ],
      "name": "unPauseByType",
      "outputs": [],
      "stateMutability": "nonpayable",
      "type": "function"
    }
  ],
  "bytecode": "0x60806040523480156200001157600080fd5b506200001c6200002c565b620000266200002c565b620000ed565b600054610100900460ff1615620000995760405162461bcd60e51b815260206004820152602760248201527f496e697469616c697a61626c653a20636f6e747261637420697320696e697469604482015266616c697a696e6760c81b606482015260840160405180910390fd5b60005460ff90811614620000eb576000805460ff191660ff9081179091556040519081527f7f26b83ff96e1f2b6a682f133852f6798a09c465da95921460cefb38474024989060200160405180910390a15b565b61319180620000fd6000396000f3fe6080604052600436106102dc5760003560e01c80638994588311610184578063b9174ba3116100d6578063c1dc0f071161008a578063d547741f11610064578063d547741f14610913578063e196fb5d14610933578063f866aa131461095357600080fd5b8063c1dc0f0714610899578063cc5782f6146108af578063cc6f7251146108df57600080fd5b8063bcbd6fcd116100bb578063bcbd6fcd1461081b578063bf3e75051461084f578063c0729ab11461088357600080fd5b8063b9174ba3146107c7578063bc61e733146107fb57600080fd5b80639ac25d0811610138578063ad422ff011610112578063ad422ff014610785578063aea4f7451461079b578063b837dbe9146107b057600080fd5b80639ac25d08146107295780639f3ce55a1461075d578063a217fddf1461077057600080fd5b806391d148541161016957806391d14854146106aa57806391f7b901146106fd5780639340a1d11461071257600080fd5b8063899458831461065f5780638de494871461067657600080fd5b806348922ab71161023d57806367e404ce116101f157806374377a34116101cb57806374377a34146105e85780637d1e8c551461061c5780637fe335d31461063157600080fd5b806367e404ce1461055e578063687a6fe0146105945780636a906b80146105b457600080fd5b80635230eef2116102225780635230eef2146104f4578063557eac7314610528578063587944561461054857600080fd5b806348922ab7146104ad578063491e0936146104d457600080fd5b80632f2ff15d1161029457806338b903331161027957806338b90333146104035780633b12eccb146104595780633c3621461461048d57600080fd5b80632f2ff15d146103c357806336568abe146103e357600080fd5b80631065a399116102c55780631065a39914610351578063182a750614610373578063248a9ca31461039357600080fd5b806301ffc9a7146102e15780630f6893ca14610316575b600080fd5b3480156102ed57600080fd5b506103016102fc366004612985565b610973565b60405190151581526020015b60405180910390f35b34801561032257600080fd5b506103436103313660046129c7565b60b06020526000908152604090205481565b60405190815260200161030d565b34801561035d57600080fd5b5061037161036c3660046129e0565b610a0c565b005b34801561037f57600080fd5b5061037161038e3660046129c7565b610b17565b34801561039f57600080fd5b506103436103ae3660046129c7565b60009081526065602052604090206001015490565b3480156103cf57600080fd5b506103716103de366004612a23565b610b8a565b3480156103ef57600080fd5b506103716103fe366004612a23565b610bb4565b34801561040f57600080fd5b5061044c6040518060400160405280600381526020017f312e30000000000000000000000000000000000000000000000000000000000081525081565b60405161030d9190612a77565b34801561046557600080fd5b506103437fb6cc65f42901ed602aec1619cc1ead29d487cd489094a37615153eaeb991d77081565b34801561049957600080fd5b506103716104a8366004612ac8565b610c67565b3480156104b957600080fd5b506104c2600181565b60405160ff909116815260200161030d565b3480156104e057600080fd5b506103716104ef366004612b9c565b610f64565b34801561050057600080fd5b506103437f0cf0d2deb70d7bdac2fa48c4ac99bc558170be0ce5fcb994caefa4bf7b96edf981565b34801561053457600080fd5b506103716105433660046129c7565b61126d565b34801561055457600080fd5b5061034360995481565b34801561056a57600080fd5b506101155460405173ffffffffffffffffffffffffffffffffffffffff909116815260200161030d565b3480156105a057600080fd5b506103716105af366004612c77565b611335565b3480156105c057600080fd5b506103437fd8b4c34c2ec1f3194471108c64ad2beda340c0337ee4ca35592f9ef270f4228b81565b3480156105f457600080fd5b506103437f4705265620026983c754c5288b65446d794a03174326ec6d7c0b5c7f1fd6741581565b34801561062857600080fd5b506104c2600081565b34801561063d57600080fd5b5061034361064c3660046129c7565b6101196020526000908152604090205481565b34801561066b57600080fd5b506103436101175481565b34801561068257600080fd5b506103437fe1fce82838dd7a42cfe783f60dc6233c8aa2c4fc66e77817805e767ec5e349b681565b3480156106b657600080fd5b506103016106c5366004612a23565b600091825260656020908152604080842073ffffffffffffffffffffffffffffffffffffffff93909316845291905290205460ff1690565b34801561070957600080fd5b506104c2600281565b34801561071e57600080fd5b506103436101185481565b34801561073557600080fd5b506103437f56bdc3c9ec86cb7db110a7699b2ade72f0b8819727d9f7d906b012641505fa7781565b61037161076b366004612d39565b611553565b34801561077c57600080fd5b50610343600081565b34801561079157600080fd5b5061034360985481565b3480156107a757600080fd5b5061037161176e565b3480156107bc57600080fd5b506103436101165481565b3480156107d357600080fd5b506103437f430a7f0cb00b5ebbe63cecc96e82cf959a883e7c13a95110854f1fa6b3fbf59881565b34801561080757600080fd5b506103016108163660046129e0565b6117ca565b34801561082757600080fd5b506103437fcc6ce8bb749b4b07d2f635ce95747506096d0737f9abf10cc8f4a14384603ba281565b34801561085b57600080fd5b506103437f1185e52d62bfbbea270e57d3d09733d221b53ab7a18bae82bb3c6c74bab16d8281565b34801561088f57600080fd5b50610343609a5481565b3480156108a557600080fd5b5061034360975481565b3480156108bb57600080fd5b506103016108ca3660046129c7565b60a56020526000908152604090205460ff1681565b3480156108eb57600080fd5b506103437fe8cb6172fcf5cbaae022b7c910224a4f0c20d53227e630056efff182155a5abc81565b34801561091f57600080fd5b5061037161092e366004612a23565b6117ef565b34801561093f57600080fd5b5061037161094e3660046129e0565b611814565b34801561095f57600080fd5b5061037161096e366004612d95565b6118ee565b60007fffffffff0000000000000000000000000000000000000000000000000000000082167f7965db0b000000000000000000000000000000000000000000000000000000001480610a0657507f01ffc9a7000000000000000000000000000000000000000000000000000000007fffffffff000000000000000000000000000000000000000000000000000000008316145b92915050565b60a86000826008811115610a2257610a22612e2f565b6008811115610a3357610a33612e2f565b815260200190815260200160002054610a4b81611a4a565b610a54826117ca565b610a9557816040517f18659654000000000000000000000000000000000000000000000000000000008152600401610a8c9190612e99565b60405180910390fd5b816008811115610aa757610aa7612e2f565b60a68054600190921b199091169055816008811115610ac857610ac8612e2f565b7fd071d2b85dec4489435b541d2f0e2570db09b09db9efd8703948d44a433df65a335b60405173ffffffffffffffffffffffffffffffffffffffff909116815260200160405180910390a25050565b7fcc6ce8bb749b4b07d2f635ce95747506096d0737f9abf10cc8f4a14384603ba2610b4181611a4a565b610117805490839055604080518281526020810185905233917f6d8040017e56a6d91bb242def14af5d7eae1eaff7475e45c678dac5d49d35498910160405180910390a2505050565b600082815260656020526040902060010154610ba581611a4a565b610baf8383611a57565b505050565b73ffffffffffffffffffffffffffffffffffffffff81163314610c59576040517f08c379a000000000000000000000000000000000000000000000000000000000815260206004820152602f60248201527f416363657373436f6e74726f6c3a2063616e206f6e6c792072656e6f756e636560448201527f20726f6c657320666f722073656c6600000000000000000000000000000000006064820152608401610a8c565b610c638282611b4b565b5050565b6001610c7281611c06565b7f4705265620026983c754c5288b65446d794a03174326ec6d7c0b5c7f1fd67415610c9c81611a4a565b856000819003610cd8576040517f6446cc9c00000000000000000000000000000000000000000000000000000000815260040160405180910390fd5b6064811115610d16576040517f3b17443400000000000000000000000000000000000000000000000000000000815260048101829052602401610a8c565b6000849003610d51576040517f36a4bb9400000000000000000000000000000000000000000000000000000000815260040160405180910390fd5b6101185480610d61600189612ed6565b14610dae57610d71600188612ed6565b6040517fd39e75f9000000000000000000000000000000000000000000000000000000008152600481019190915260248101829052604401610a8c565b6000818152610119602052604081205490805b84811015610e46578b8b82818110610ddb57610ddb612ee9565b905060200201359150600060ff1660b060008481526020019081526020016000205403610e3657600082815260b06020526040902060019055610e28838360009182526020526040902090565b9250610e3384612f18565b93505b610e3f81612f18565b9050610dc1565b50878314610e8a576040517fd39e75f90000000000000000000000000000000000000000000000000000000081526004810189905260248101849052604401610a8c565b818714610ecd576040517f7557a60a0000000000000000000000000000000000000000000000000000000081526004810188905260248101839052604401610a8c565b610118548314610f57576101188390556000838152610119602052604090819020839055517f9995fb3da0c2de4012f2b814b6fc29ce7507571dcb20b8d0bd38621a842df1eb90610f21908d908d90612f50565b60405180910390a1604051829084907f99b65a4301b38c09fb6a5f27052d73e8372bbe8f6779d678bfe8a41b66cce7ac90600090a35b5050505050505050505050565b610f6c611c48565b858784848760005a9050610f806002611cbb565b6000610f918f8f8f8f8c8f8f611d4d565b9050610f9c81611da8565b8e61011560006101000a81548173ffffffffffffffffffffffffffffffffffffffff021916908373ffffffffffffffffffffffffffffffffffffffff1602179055506000808f73ffffffffffffffffffffffffffffffffffffffff168e8d8d604051611009929190612fa2565b60006040518083038185875af1925050503d8060008114611046576040519150601f19603f3d011682016040523d82523d6000602084013e61104b565b606091505b5091509150816110b5578051156110655780518082602001fd5b8f6040517f54613443000000000000000000000000000000000000000000000000000000008152600401610a8c919073ffffffffffffffffffffffffffffffffffffffff91909116815260200190565b61011580547fffffffffffffffffffffffff00000000000000000000000000000000000000001663075bcd1517905560405183907fa4c827e719e911e8f19393ccdb85b5102f08f0910604d340ba38390b7ff2ab0e90600090a25050861590506112535785600084900361119f57853b15801561119d573a5a61113a61ae3486612fb2565b6111449190612ed6565b61114e9190612fc5565b9150818811156111995773ffffffffffffffffffffffffffffffffffffffff87166108fc61117c848b612ed6565b6040518115909202916000818181858888f193505050505061119d565b8791505b505b600073ffffffffffffffffffffffffffffffffffffffff8416156111c357836111c5565b335b905060008173ffffffffffffffffffffffffffffffffffffffff166108fc849081150290604051600060405180830381858888f1935050505090508061124f576040517fa57c4df400000000000000000000000000000000000000000000000000000000815273ffffffffffffffffffffffffffffffffffffffff83166004820152602401610a8c565b5050505b505050505050611263600160b155565b5050505050505050565b7f1185e52d62bfbbea270e57d3d09733d221b53ab7a18bae82bb3c6c74bab16d8261129781611a4a565b60008060004260995410156112be576097546112b39042612fb2565b6099555060016112d0565b609a548510156112d057849250600191505b609885905580806112de5750815b156112e957609a8390555b60408051868152831515602082015282151581830152905133917fbc3dc0cb5c15c51c81316450d44048838bb478b9809447d01c766a06f3e9f2c8919081900360600190a25050505050565b600054610100900460ff16158080156113555750600054600160ff909116105b8061136f5750303b15801561136f575060005460ff166001145b6113fb576040517f08c379a000000000000000000000000000000000000000000000000000000000815260206004820152602e60248201527f496e697469616c697a61626c653a20636f6e747261637420697320616c72656160448201527f647920696e697469616c697a65640000000000000000000000000000000000006064820152608401610a8c565b600080547fffffffffffffffffffffffffffffffffffffffffffffffffffffffffffffff00166001179055801561145957600080547fffffffffffffffffffffffffffffffffffffffffffffffffffffffffffff00ff166101001790555b611461611e0e565b611469611e0e565b611471611e0e565b61147b8a8a611ea7565b611483612017565b61148f858585856120b6565b61149a600089611a57565b6114a48787612380565b60016101165561011580547fffffffffffffffffffffffff00000000000000000000000000000000000000001663075bcd15179055655af3107a400061011755801561154757600080547fffffffffffffffffffffffffffffffffffffffffffffffffffffffffffff00ff169055604051600181527f7f26b83ff96e1f2b6a682f133852f6798a09c465da95921460cefb38474024989060200160405180910390a15b50505050505050505050565b61155d6003611cbb565b73ffffffffffffffffffffffffffffffffffffffff84166115aa576040517f8579befe00000000000000000000000000000000000000000000000000000000815260040160405180910390fd5b348311156115e4576040517fb03b693200000000000000000000000000000000000000000000000000000000815260040160405180910390fd5b6101175480841015611622576040517f732f941300000000000000000000000000000000000000000000000000000000815260040160405180910390fd5b60008061162f8387612ed6565b915061163b8634612ed6565b6101168054919250600091908261165183612f18565b9091555090506116696116648484612fb2565b612555565b600061167a338a8686868c8c611d4d565b9050808973ffffffffffffffffffffffffffffffffffffffff163373ffffffffffffffffffffffffffffffffffffffff167fe856c2b8bd4eb0027ce32eeaf595c21b0b6b4644b326e5b7bd80a1cf8db72e6c8787878d8d6040516116e2959493929190612fdc565b60405180910390a4604051600090419087908381818185875af1925050503d806000811461172c576040519150601f19603f3d011682016040523d82523d6000602084013e611731565b606091505b5050905080611547576040517fa57c4df4000000000000000000000000000000000000000000000000000000008152416004820152602401610a8c565b7f0cf0d2deb70d7bdac2fa48c4ac99bc558170be0ce5fcb994caefa4bf7b96edf961179881611a4a565b6000609a81905560405133917fba88c025b0cbb77022c0c487beef24f759f1e4be2f51a205bc427cee19c2eaa691a250565b60008160088111156117de576117de612e2f565b60a654600190911b16151592915050565b60008281526065602052604090206001015461180a81611a4a565b610baf8383611b4b565b60a7600082600881111561182a5761182a612e2f565b600881111561183b5761183b612e2f565b81526020019081526020016000205461185381611a4a565b61185c826117ca565b1561189557816040517fc0a71b58000000000000000000000000000000000000000000000000000000008152600401610a8c9190612e99565b8160088111156118a7576118a7612e2f565b60a68054600190921b90911790558160088111156118c7576118c7612e2f565b7f534f879afd40abb4e39f8e1b77a316be4c8e3521d9cf5a3a3db8959d574d455933610aeb565b600054600690610100900460ff16158015611910575060005460ff8083169116105b61199c576040517f08c379a000000000000000000000000000000000000000000000000000000000815260206004820152602e60248201527f496e697469616c697a61626c653a20636f6e747261637420697320616c72656160448201527f647920696e697469616c697a65640000000000000000000000000000000000006064820152608401610a8c565b600080547fffffffffffffffffffffffffffffffffffffffffffffffffffffffffffff00001660ff8316176101001790556119d78787612380565b6119e3858585856120b6565b600080547fffffffffffffffffffffffffffffffffffffffffffffffffffffffffffff00ff16905560405160ff821681527f7f26b83ff96e1f2b6a682f133852f6798a09c465da95921460cefb38474024989060200160405180910390a150505050505050565b611a5481336125cb565b50565b600082815260656020908152604080832073ffffffffffffffffffffffffffffffffffffffff8516845290915290205460ff16610c6357600082815260656020908152604080832073ffffffffffffffffffffffffffffffffffffffff85168452909152902080547fffffffffffffffffffffffffffffffffffffffffffffffffffffffffffffff00166001179055611aed3390565b73ffffffffffffffffffffffffffffffffffffffff168173ffffffffffffffffffffffffffffffffffffffff16837f2f8788117e7eff1d82e926ec794901d17c78024a50270940304540a733656f0d60405160405180910390a45050565b600082815260656020908152604080832073ffffffffffffffffffffffffffffffffffffffff8516845290915290205460ff1615610c6357600082815260656020908152604080832073ffffffffffffffffffffffffffffffffffffffff8516808552925280832080547fffffffffffffffffffffffffffffffffffffffffffffffffffffffffffffff0016905551339285917ff6391f5c32d9c69d2a47ea670b442974b53935d1edc7fd64eb21e047a839171b9190a45050565b611c0f816117ca565b15611a5457806040517fc0a71b58000000000000000000000000000000000000000000000000000000008152600401610a8c9190612e99565b600260b15403611cb4576040517f08c379a000000000000000000000000000000000000000000000000000000000815260206004820152601f60248201527f5265656e7472616e637947756172643a207265656e7472616e742063616c6c006044820152606401610a8c565b600260b155565b60a654816008811115611cd057611cd0612e2f565b6001901b811615611d0f57816040517fc0a71b58000000000000000000000000000000000000000000000000000000008152600401610a8c9190612e99565b6002811615610c635760016040517fc0a71b58000000000000000000000000000000000000000000000000000000008152600401610a8c9190612e99565b600060405188815287602082015286604082015285606082015284608082015260c060a08201528260c08201526020830660008115611d8d578160200390505b848660e085013790930160e001902098975050505050505050565b600081815260b06020526040902054600114611df3576040517f992d87c300000000000000000000000000000000000000000000000000000000815260048101829052602401610a8c565b600090815260b06020526040902060029055565b600160b155565b600054610100900460ff16611ea5576040517f08c379a000000000000000000000000000000000000000000000000000000000815260206004820152602b60248201527f496e697469616c697a61626c653a20636f6e7472616374206973206e6f74206960448201527f6e697469616c697a696e670000000000000000000000000000000000000000006064820152608401610a8c565b565b600054610100900460ff16611f3e576040517f08c379a000000000000000000000000000000000000000000000000000000000815260206004820152602b60248201527f496e697469616c697a61626c653a20636f6e7472616374206973206e6f74206960448201527f6e697469616c697a696e670000000000000000000000000000000000000000006064820152608401610a8c565b81600003611f78576040517fb5ed5a3b00000000000000000000000000000000000000000000000000000000815260040160405180910390fd5b80600003611fb2576040517fd10d72bb00000000000000000000000000000000000000000000000000000000815260040160405180910390fd5b60978290556098819055611fc68242612fb2565b60998190556097546098546040805192835260208301919091528101919091527f8f805c372b66240792580418b7328c0c554ae235f0932475c51b026887fe26a99060600160405180910390a15050565b600054610100900460ff166120ae576040517f08c379a000000000000000000000000000000000000000000000000000000000815260206004820152602b60248201527f496e697469616c697a61626c653a20636f6e7472616374206973206e6f74206960448201527f6e697469616c697a696e670000000000000000000000000000000000000000006064820152608401610a8c565b611ea5612685565b600054610100900460ff1661214d576040517f08c379a000000000000000000000000000000000000000000000000000000000815260206004820152602b60248201527f496e697469616c697a61626c653a20636f6e7472616374206973206e6f74206960448201527f6e697469616c697a696e670000000000000000000000000000000000000000006064820152608401610a8c565b8260005b818110156122615785858281811061216b5761216b612ee9565b9050604002016020013560a7600088888581811061218b5761218b612ee9565b6121a192602060409092020190810191506129e0565b60088111156121b2576121b2612e2f565b60088111156121c3576121c3612e2f565b81526020810191909152604001600020557f33aa8fd1ce49e1761bc8d27fd53414bfefc45d690feed0ce55019d7d3aec609186868381811061220757612207612ee9565b61221d92602060409092020190810191506129e0565b87878481811061222f5761222f612ee9565b9050604002016020013560405161224792919061303e565b60405180910390a18061225981612f18565b915050612151565b5081905060005b818110156123785783838281811061228257612282612ee9565b9050604002016020013560a860008686858181106122a2576122a2612ee9565b6122b892602060409092020190810191506129e0565b60088111156122c9576122c9612e2f565b60088111156122da576122da612e2f565b81526020810191909152604001600020557fe7bf4b8dc0c17a52dc9e52323a3ab61cb2079db35f969125b1f8a3d984c6f6c284848381811061231e5761231e612ee9565b61233492602060409092020190810191506129e0565b85858481811061234657612346612ee9565b9050604002016020013560405161235e92919061303e565b60405180910390a18061237081612f18565b915050612268565b505050505050565b600054610100900460ff16612417576040517f08c379a000000000000000000000000000000000000000000000000000000000815260206004820152602b60248201527f496e697469616c697a61626c653a20636f6e7472616374206973206e6f74206960448201527f6e697469616c697a696e670000000000000000000000000000000000000000006064820152608401610a8c565b8060005b8181101561254f57600084848381811061243757612437612ee9565b61244d9260206040909202019081019150613059565b73ffffffffffffffffffffffffffffffffffffffff160361249a576040517f8579befe00000000000000000000000000000000000000000000000000000000815260040160405180910390fd5b8383828181106124ac576124ac612ee9565b905060400201602001356000801b036124f1576040517f0742d05300000000000000000000000000000000000000000000000000000000815260040160405180910390fd5b61253d84848381811061250657612506612ee9565b9050604002016020013585858481811061252257612522612ee9565b6125389260206040909202019081019150613059565b611a57565b8061254781612f18565b91505061241b565b50505050565b8015611a545742609954101561257a576097546125729042612fb2565b60995561258a565b609a546125879082612fb2565b90505b6098548111156125c6576040517fa74c1c5f00000000000000000000000000000000000000000000000000000000815260040160405180910390fd5b609a55565b600082815260656020908152604080832073ffffffffffffffffffffffffffffffffffffffff8516845290915290205460ff16610c635761260b8161271c565b61261683602061273b565b604051602001612627929190613076565b604080517fffffffffffffffffffffffffffffffffffffffffffffffffffffffffffffffe0818403018152908290527f08c379a0000000000000000000000000000000000000000000000000000000008252610a8c91600401612a77565b600054610100900460ff16611e07576040517f08c379a000000000000000000000000000000000000000000000000000000000815260206004820152602b60248201527f496e697469616c697a61626c653a20636f6e7472616374206973206e6f74206960448201527f6e697469616c697a696e670000000000000000000000000000000000000000006064820152608401610a8c565b6060610a0673ffffffffffffffffffffffffffffffffffffffff831660145b6060600061274a836002612fc5565b612755906002612fb2565b67ffffffffffffffff81111561276d5761276d6130f7565b6040519080825280601f01601f191660200182016040528015612797576020820181803683370190505b5090507f3000000000000000000000000000000000000000000000000000000000000000816000815181106127ce576127ce612ee9565b60200101907effffffffffffffffffffffffffffffffffffffffffffffffffffffffffffff1916908160001a9053507f78000000000000000000000000000000000000000000000000000000000000008160018151811061283157612831612ee9565b60200101907effffffffffffffffffffffffffffffffffffffffffffffffffffffffffffff1916908160001a905350600061286d846002612fc5565b612878906001612fb2565b90505b6001811115612915577f303132333435363738396162636465660000000000000000000000000000000085600f16601081106128b9576128b9612ee9565b1a60f81b8282815181106128cf576128cf612ee9565b60200101907effffffffffffffffffffffffffffffffffffffffffffffffffffffffffffff1916908160001a90535060049490941c9361290e81613126565b905061287b565b50831561297e576040517f08c379a000000000000000000000000000000000000000000000000000000000815260206004820181905260248201527f537472696e67733a20686578206c656e67746820696e73756666696369656e746044820152606401610a8c565b9392505050565b60006020828403121561299757600080fd5b81357fffffffff000000000000000000000000000000000000000000000000000000008116811461297e57600080fd5b6000602082840312156129d957600080fd5b5035919050565b6000602082840312156129f257600080fd5b81356009811061297e57600080fd5b73ffffffffffffffffffffffffffffffffffffffff81168114611a5457600080fd5b60008060408385031215612a3657600080fd5b823591506020830135612a4881612a01565b809150509250929050565b60005b83811015612a6e578181015183820152602001612a56565b50506000910152565b6020815260008251806020840152612a96816040850160208701612a53565b601f017fffffffffffffffffffffffffffffffffffffffffffffffffffffffffffffffe0169190910160400192915050565b600080600080600060808688031215612ae057600080fd5b853567ffffffffffffffff80821115612af857600080fd5b818801915088601f830112612b0c57600080fd5b813581811115612b1b57600080fd5b8960208260051b8501011115612b3057600080fd5b60209283019a909950918801359760408101359750606001359550909350505050565b60008083601f840112612b6557600080fd5b50813567ffffffffffffffff811115612b7d57600080fd5b602083019150836020828501011115612b9557600080fd5b9250929050565b60008060008060008060008060e0898b031215612bb857600080fd5b8835612bc381612a01565b97506020890135612bd381612a01565b965060408901359550606089013594506080890135612bf181612a01565b935060a089013567ffffffffffffffff811115612c0d57600080fd5b612c198b828c01612b53565b999c989b50969995989497949560c00135949350505050565b60008083601f840112612c4457600080fd5b50813567ffffffffffffffff811115612c5c57600080fd5b6020830191508360208260061b8501011115612b9557600080fd5b600080600080600080600080600060c08a8c031215612c9557600080fd5b8935985060208a0135975060408a0135612cae81612a01565b965060608a013567ffffffffffffffff80821115612ccb57600080fd5b612cd78d838e01612c32565b909850965060808c0135915080821115612cf057600080fd5b612cfc8d838e01612c32565b909650945060a08c0135915080821115612d1557600080fd5b50612d228c828d01612c32565b915080935050809150509295985092959850929598565b60008060008060608587031215612d4f57600080fd5b8435612d5a81612a01565b935060208501359250604085013567ffffffffffffffff811115612d7d57600080fd5b612d8987828801612b53565b95989497509550505050565b60008060008060008060608789031215612dae57600080fd5b863567ffffffffffffffff80821115612dc657600080fd5b612dd28a838b01612c32565b90985096506020890135915080821115612deb57600080fd5b612df78a838b01612c32565b90965094506040890135915080821115612e1057600080fd5b50612e1d89828a01612c32565b979a9699509497509295939492505050565b7f4e487b7100000000000000000000000000000000000000000000000000000000600052602160045260246000fd5b60098110612e95577f4e487b7100000000000000000000000000000000000000000000000000000000600052602160045260246000fd5b9052565b60208101610a068284612e5e565b7f4e487b7100000000000000000000000000000000000000000000000000000000600052601160045260246000fd5b81810381811115610a0657610a06612ea7565b7f4e487b7100000000000000000000000000000000000000000000000000000000600052603260045260246000fd5b60007fffffffffffffffffffffffffffffffffffffffffffffffffffffffffffffffff8203612f4957612f49612ea7565b5060010190565b6020815281602082015260007f07ffffffffffffffffffffffffffffffffffffffffffffffffffffffffffffff831115612f8957600080fd5b8260051b80856040850137919091016040019392505050565b8183823760009101908152919050565b80820180821115610a0657610a06612ea7565b8082028115828204841417610a0657610a06612ea7565b85815284602082015283604082015260806060820152816080820152818360a0830137600081830160a090810191909152601f9092017fffffffffffffffffffffffffffffffffffffffffffffffffffffffffffffffe0160101949350505050565b6040810161304c8285612e5e565b8260208301529392505050565b60006020828403121561306b57600080fd5b813561297e81612a01565b7f416363657373436f6e74726f6c3a206163636f756e74200000000000000000008152600083516130ae816017850160208801612a53565b7f206973206d697373696e6720726f6c652000000000000000000000000000000060179184019182015283516130eb816028840160208801612a53565b01602801949350505050565b7f4e487b7100000000000000000000000000000000000000000000000000000000600052604160045260246000fd5b60008161313557613135612ea7565b507fffffffffffffffffffffffffffffffffffffffffffffffffffffffffffffffff019056fea2646970667358221220470c39572685968d6ec85d8e7d7ed38ca849845528f9e12455980a8581d1854164736f6c63430008130033",
  "linkReferences": {},
  "deployedLinkReferences": {}
}