{
  "_format": "hh-sol-artifact-1",
  "contractName": "LineaRollup",
  "sourceName": "contracts/LineaRollup.sol",
  "abi": [
    {
      "inputs": [],
      "stateMutability": "nonpayable",
      "type": "constructor"
    },
    {
      "inputs": [],
      "name": "ArrayLengthsDoNotMatch",
      "type": "error"
    },
    {
      "inputs": [
        {
          "internalType": "uint256",
          "name": "emptyBlobIndex",
          "type": "uint256"
        }
      ],
      "name": "BlobSubmissionDataEmpty",
      "type": "error"
    },
    {
      "inputs": [],
      "name": "BlobSubmissionDataIsMissing",
      "type": "error"
    },
    {
      "inputs": [],
      "name": "BytesLengthNotMultipleOf32",
      "type": "error"
    },
    {
      "inputs": [
        {
          "internalType": "uint256",
          "name": "bytesLength",
          "type": "uint256"
        }
      ],
      "name": "BytesLengthNotMultipleOfTwo",
      "type": "error"
    },
    {
      "inputs": [
        {
          "internalType": "bytes32",
          "name": "currentDataHash",
          "type": "bytes32"
        }
      ],
      "name": "DataAlreadySubmitted",
      "type": "error"
    },
    {
      "inputs": [
        {
          "internalType": "uint256",
          "name": "index",
          "type": "uint256"
        }
      ],
      "name": "EmptyBlobDataAtIndex",
      "type": "error"
    },
    {
      "inputs": [],
      "name": "EmptySubmissionData",
      "type": "error"
    },
    {
      "inputs": [
        {
          "internalType": "address",
          "name": "recipient",
          "type": "address"
        }
      ],
      "name": "FeePaymentFailed",
      "type": "error"
    },
    {
      "inputs": [],
      "name": "FeeTooLow",
      "type": "error"
    },
    {
      "inputs": [
        {
          "internalType": "uint256",
          "name": "finalBlockNumber",
          "type": "uint256"
        },
        {
          "internalType": "uint256",
          "name": "lastFinalizedBlock",
          "type": "uint256"
        }
      ],
      "name": "FinalBlockNumberLessThanOrEqualToLastFinalizedBlock",
      "type": "error"
    },
    {
      "inputs": [],
      "name": "FinalBlockStateEqualsZeroHash",
      "type": "error"
    },
    {
      "inputs": [
        {
          "internalType": "bytes32",
          "name": "expected",
          "type": "bytes32"
        },
        {
          "internalType": "bytes32",
          "name": "value",
          "type": "bytes32"
        }
      ],
      "name": "FinalShnarfWrong",
      "type": "error"
    },
    {
      "inputs": [
        {
          "internalType": "uint256",
          "name": "l2BlockTimestamp",
          "type": "uint256"
        },
        {
          "internalType": "uint256",
          "name": "currentBlockTimestamp",
          "type": "uint256"
        }
      ],
      "name": "FinalizationInTheFuture",
      "type": "error"
    },
    {
      "inputs": [
        {
          "internalType": "bytes32",
          "name": "expected",
          "type": "bytes32"
        },
        {
          "internalType": "bytes32",
          "name": "value",
          "type": "bytes32"
        }
      ],
      "name": "FinalizationStateIncorrect",
      "type": "error"
    },
    {
      "inputs": [],
      "name": "FirstByteIsNotZero",
      "type": "error"
    },
    {
      "inputs": [],
      "name": "InvalidMerkleProof",
      "type": "error"
    },
    {
      "inputs": [],
      "name": "InvalidProof",
      "type": "error"
    },
    {
      "inputs": [
        {
          "internalType": "string",
          "name": "errorReason",
          "type": "string"
        }
      ],
      "name": "InvalidProofOrProofVerificationRanOutOfGas",
      "type": "error"
    },
    {
      "inputs": [],
      "name": "InvalidProofType",
      "type": "error"
    },
    {
      "inputs": [
        {
          "internalType": "enum IPauseManager.PauseType",
          "name": "pauseType",
          "type": "uint8"
        }
      ],
      "name": "IsNotPaused",
      "type": "error"
    },
    {
      "inputs": [
        {
          "internalType": "enum IPauseManager.PauseType",
          "name": "pauseType",
          "type": "uint8"
        }
      ],
      "name": "IsPaused",
      "type": "error"
    },
    {
      "inputs": [
        {
          "internalType": "uint256",
          "name": "messageNumber",
          "type": "uint256"
        },
        {
          "internalType": "bytes32",
          "name": "rollingHash",
          "type": "bytes32"
        }
      ],
      "name": "L1RollingHashDoesNotExistOnL1",
      "type": "error"
    },
    {
      "inputs": [
        {
          "internalType": "bytes32",
          "name": "merkleRoot",
          "type": "bytes32"
        }
      ],
      "name": "L2MerkleRootAlreadyAnchored",
      "type": "error"
    },
    {
      "inputs": [],
      "name": "L2MerkleRootDoesNotExist",
      "type": "error"
    },
    {
      "inputs": [],
      "name": "LastFinalizationTimeNotLapsed",
      "type": "error"
    },
    {
      "inputs": [
        {
          "internalType": "uint32",
          "name": "leafIndex",
          "type": "uint32"
        },
        {
          "internalType": "uint32",
          "name": "maxAllowedIndex",
          "type": "uint32"
        }
      ],
      "name": "LeafIndexOutOfBounds",
      "type": "error"
    },
    {
      "inputs": [],
      "name": "LimitIsZero",
      "type": "error"
    },
    {
      "inputs": [
        {
          "internalType": "uint256",
          "name": "messageIndex",
          "type": "uint256"
        }
      ],
      "name": "MessageAlreadyClaimed",
      "type": "error"
    },
    {
      "inputs": [
        {
          "internalType": "bytes32",
          "name": "messageHash",
          "type": "bytes32"
        }
      ],
      "name": "MessageDoesNotExistOrHasAlreadyBeenClaimed",
      "type": "error"
    },
    {
      "inputs": [
        {
          "internalType": "address",
          "name": "destination",
          "type": "address"
        }
      ],
      "name": "MessageSendingFailed",
      "type": "error"
    },
    {
      "inputs": [
        {
          "internalType": "bytes32",
          "name": "rollingHash",
          "type": "bytes32"
        }
      ],
      "name": "MissingMessageNumberForRollingHash",
      "type": "error"
    },
    {
      "inputs": [
        {
          "internalType": "uint256",
          "name": "messageNumber",
          "type": "uint256"
        }
      ],
      "name": "MissingRollingHashForMessageNumber",
      "type": "error"
    },
    {
      "inputs": [
        {
          "internalType": "bytes32",
          "name": "shnarf",
          "type": "bytes32"
        }
      ],
      "name": "ParentBlobNotSubmitted",
      "type": "error"
    },
    {
      "inputs": [],
      "name": "PeriodIsZero",
      "type": "error"
    },
    {
      "inputs": [],
      "name": "PointEvaluationFailed",
      "type": "error"
    },
    {
      "inputs": [
        {
          "internalType": "uint256",
          "name": "fieldElements",
          "type": "uint256"
        },
        {
          "internalType": "uint256",
          "name": "blsCurveModulus",
          "type": "uint256"
        }
      ],
      "name": "PointEvaluationResponseInvalid",
      "type": "error"
    },
    {
      "inputs": [
        {
          "internalType": "uint256",
          "name": "expected",
          "type": "uint256"
        },
        {
          "internalType": "uint256",
          "name": "actual",
          "type": "uint256"
        }
      ],
      "name": "PrecompileReturnDataLengthWrong",
      "type": "error"
    },
    {
      "inputs": [],
      "name": "ProofIsEmpty",
      "type": "error"
    },
    {
      "inputs": [
        {
          "internalType": "uint256",
          "name": "actual",
          "type": "uint256"
        },
        {
          "internalType": "uint256",
          "name": "expected",
          "type": "uint256"
        }
      ],
      "name": "ProofLengthDifferentThanMerkleDepth",
      "type": "error"
    },
    {
      "inputs": [],
      "name": "RateLimitExceeded",
      "type": "error"
    },
    {
      "inputs": [],
      "name": "ReentrantCall",
      "type": "error"
    },
    {
      "inputs": [],
      "name": "StartingRootHashDoesNotMatch",
      "type": "error"
    },
    {
      "inputs": [],
      "name": "ValueSentTooLow",
      "type": "error"
    },
    {
      "inputs": [],
      "name": "ZeroAddressNotAllowed",
      "type": "error"
    },
    {
      "inputs": [],
      "name": "ZeroHashNotAllowed",
      "type": "error"
    },
    {
      "anonymous": false,
      "inputs": [
        {
          "indexed": true,
          "internalType": "address",
          "name": "resettingAddress",
          "type": "address"
        }
      ],
      "name": "AmountUsedInPeriodReset",
      "type": "event"
    },
    {
      "anonymous": false,
      "inputs": [
        {
          "indexed": true,
          "internalType": "uint256",
          "name": "startBlockNumber",
          "type": "uint256"
        },
        {
          "indexed": true,
          "internalType": "uint256",
          "name": "endBlockNumber",
          "type": "uint256"
        },
        {
          "indexed": true,
          "internalType": "bytes32",
          "name": "shnarf",
          "type": "bytes32"
        },
        {
          "indexed": false,
          "internalType": "bytes32",
          "name": "parentStateRootHash",
          "type": "bytes32"
        },
        {
          "indexed": false,
          "internalType": "bytes32",
          "name": "finalStateRootHash",
          "type": "bytes32"
        }
      ],
      "name": "DataFinalizedV3",
      "type": "event"
    },
    {
      "anonymous": false,
      "inputs": [
        {
          "indexed": false,
          "internalType": "bytes32",
          "name": "parentShnarf",
          "type": "bytes32"
        },
        {
          "indexed": true,
          "internalType": "bytes32",
          "name": "shnarf",
          "type": "bytes32"
        },
        {
          "indexed": false,
          "internalType": "bytes32",
          "name": "finalStateRootHash",
          "type": "bytes32"
        }
      ],
      "name": "DataSubmittedV3",
      "type": "event"
    },
    {
      "anonymous": false,
      "inputs": [
        {
          "indexed": true,
          "internalType": "address",
          "name": "caller",
          "type": "address"
        },
        {
          "indexed": true,
          "internalType": "address",
          "name": "fallbackOperator",
          "type": "address"
        }
      ],
      "name": "FallbackOperatorAddressSet",
      "type": "event"
    },
    {
      "anonymous": false,
      "inputs": [
        {
          "indexed": true,
          "internalType": "address",
          "name": "caller",
          "type": "address"
        },
        {
          "indexed": true,
          "internalType": "address",
          "name": "fallbackOperator",
          "type": "address"
        }
      ],
      "name": "FallbackOperatorRoleGranted",
      "type": "event"
    },
    {
      "anonymous": false,
      "inputs": [
        {
          "indexed": false,
          "internalType": "uint8",
          "name": "version",
          "type": "uint8"
        }
      ],
      "name": "Initialized",
      "type": "event"
    },
    {
      "anonymous": false,
      "inputs": [
        {
          "indexed": true,
          "internalType": "bytes32",
          "name": "l2MerkleRoot",
          "type": "bytes32"
        },
        {
          "indexed": true,
          "internalType": "uint256",
          "name": "treeDepth",
          "type": "uint256"
        }
      ],
      "name": "L2MerkleRootAdded",
      "type": "event"
    },
    {
      "anonymous": false,
      "inputs": [
        {
          "indexed": true,
          "internalType": "uint256",
          "name": "l2Block",
          "type": "uint256"
        }
      ],
      "name": "L2MessagingBlockAnchored",
      "type": "event"
    },
    {
      "anonymous": false,
      "inputs": [
        {
          "indexed": true,
          "internalType": "address",
          "name": "amountChangeBy",
          "type": "address"
        },
        {
          "indexed": false,
          "internalType": "uint256",
          "name": "amount",
          "type": "uint256"
        },
        {
          "indexed": false,
          "internalType": "bool",
          "name": "amountUsedLoweredToLimit",
          "type": "bool"
        },
        {
          "indexed": false,
          "internalType": "bool",
          "name": "usedAmountResetToZero",
          "type": "bool"
        }
      ],
      "name": "LimitAmountChanged",
      "type": "event"
    },
    {
      "anonymous": false,
      "inputs": [
        {
          "indexed": true,
          "internalType": "bytes8",
          "name": "previousVersion",
          "type": "bytes8"
        },
        {
          "indexed": true,
          "internalType": "bytes8",
          "name": "newVersion",
          "type": "bytes8"
        }
      ],
      "name": "LineaRollupVersionChanged",
      "type": "event"
    },
    {
      "anonymous": false,
      "inputs": [
        {
          "indexed": true,
          "internalType": "bytes32",
          "name": "_messageHash",
          "type": "bytes32"
        }
      ],
      "name": "MessageClaimed",
      "type": "event"
    },
    {
      "anonymous": false,
      "inputs": [
        {
          "indexed": true,
          "internalType": "address",
          "name": "_from",
          "type": "address"
        },
        {
          "indexed": true,
          "internalType": "address",
          "name": "_to",
          "type": "address"
        },
        {
          "indexed": false,
          "internalType": "uint256",
          "name": "_fee",
          "type": "uint256"
        },
        {
          "indexed": false,
          "internalType": "uint256",
          "name": "_value",
          "type": "uint256"
        },
        {
          "indexed": false,
          "internalType": "uint256",
          "name": "_nonce",
          "type": "uint256"
        },
        {
          "indexed": false,
          "internalType": "bytes",
          "name": "_calldata",
          "type": "bytes"
        },
        {
          "indexed": true,
          "internalType": "bytes32",
          "name": "_messageHash",
          "type": "bytes32"
        }
      ],
      "name": "MessageSent",
      "type": "event"
    },
    {
      "anonymous": false,
      "inputs": [
        {
          "indexed": false,
          "internalType": "enum IPauseManager.PauseType",
          "name": "pauseType",
          "type": "uint8"
        },
        {
          "indexed": false,
          "internalType": "bytes32",
          "name": "role",
          "type": "bytes32"
        }
      ],
      "name": "PauseTypeRoleSet",
      "type": "event"
    },
    {
      "anonymous": false,
      "inputs": [
        {
          "indexed": false,
          "internalType": "address",
          "name": "messageSender",
          "type": "address"
        },
        {
          "indexed": true,
          "internalType": "enum IPauseManager.PauseType",
          "name": "pauseType",
          "type": "uint8"
        }
      ],
      "name": "Paused",
      "type": "event"
    },
    {
      "anonymous": false,
      "inputs": [
        {
          "indexed": false,
          "internalType": "uint256",
          "name": "periodInSeconds",
          "type": "uint256"
        },
        {
          "indexed": false,
          "internalType": "uint256",
          "name": "limitInWei",
          "type": "uint256"
        },
        {
          "indexed": false,
          "internalType": "uint256",
          "name": "currentPeriodEnd",
          "type": "uint256"
        }
      ],
      "name": "RateLimitInitialized",
      "type": "event"
    },
    {
      "anonymous": false,
      "inputs": [
        {
          "indexed": true,
          "internalType": "bytes32",
          "name": "role",
          "type": "bytes32"
        },
        {
          "indexed": true,
          "internalType": "bytes32",
          "name": "previousAdminRole",
          "type": "bytes32"
        },
        {
          "indexed": true,
          "internalType": "bytes32",
          "name": "newAdminRole",
          "type": "bytes32"
        }
      ],
      "name": "RoleAdminChanged",
      "type": "event"
    },
    {
      "anonymous": false,
      "inputs": [
        {
          "indexed": true,
          "internalType": "bytes32",
          "name": "role",
          "type": "bytes32"
        },
        {
          "indexed": true,
          "internalType": "address",
          "name": "account",
          "type": "address"
        },
        {
          "indexed": true,
          "internalType": "address",
          "name": "sender",
          "type": "address"
        }
      ],
      "name": "RoleGranted",
      "type": "event"
    },
    {
      "anonymous": false,
      "inputs": [
        {
          "indexed": true,
          "internalType": "bytes32",
          "name": "role",
          "type": "bytes32"
        },
        {
          "indexed": true,
          "internalType": "address",
          "name": "account",
          "type": "address"
        },
        {
          "indexed": true,
          "internalType": "address",
          "name": "sender",
          "type": "address"
        }
      ],
      "name": "RoleRevoked",
      "type": "event"
    },
    {
      "anonymous": false,
      "inputs": [
        {
          "indexed": true,
          "internalType": "uint256",
          "name": "messageNumber",
          "type": "uint256"
        },
        {
          "indexed": true,
          "internalType": "bytes32",
          "name": "rollingHash",
          "type": "bytes32"
        },
        {
          "indexed": true,
          "internalType": "bytes32",
          "name": "messageHash",
          "type": "bytes32"
        }
      ],
      "name": "RollingHashUpdated",
      "type": "event"
    },
    {
      "anonymous": false,
      "inputs": [
        {
          "indexed": false,
          "internalType": "enum IPauseManager.PauseType",
          "name": "unPauseType",
          "type": "uint8"
        },
        {
          "indexed": false,
          "internalType": "bytes32",
          "name": "role",
          "type": "bytes32"
        }
      ],
      "name": "UnPauseTypeRoleSet",
      "type": "event"
    },
    {
      "anonymous": false,
      "inputs": [
        {
          "indexed": false,
          "internalType": "address",
          "name": "messageSender",
          "type": "address"
        },
        {
          "indexed": true,
          "internalType": "enum IPauseManager.PauseType",
          "name": "pauseType",
          "type": "uint8"
        }
      ],
      "name": "UnPaused",
      "type": "event"
    },
    {
      "anonymous": false,
      "inputs": [
        {
          "indexed": true,
          "internalType": "address",
          "name": "verifierAddress",
          "type": "address"
        },
        {
          "indexed": true,
          "internalType": "uint256",
          "name": "proofType",
          "type": "uint256"
        },
        {
          "indexed": true,
          "internalType": "address",
          "name": "verifierSetBy",
          "type": "address"
        },
        {
          "indexed": false,
          "internalType": "address",
          "name": "oldVerifierAddress",
          "type": "address"
        }
      ],
      "name": "VerifierAddressChanged",
      "type": "event"
    },
    {
      "inputs": [],
      "name": "CONTRACT_VERSION",
      "outputs": [
        {
          "internalType": "string",
          "name": "",
          "type": "string"
        }
      ],
      "stateMutability": "view",
      "type": "function"
    },
    {
      "inputs": [],
      "name": "DEFAULT_ADMIN_ROLE",
      "outputs": [
        {
          "internalType": "bytes32",
          "name": "",
          "type": "bytes32"
        }
      ],
      "stateMutability": "view",
      "type": "function"
    },
    {
      "inputs": [],
      "name": "GENESIS_SHNARF",
      "outputs": [
        {
          "internalType": "bytes32",
          "name": "",
          "type": "bytes32"
        }
      ],
      "stateMutability": "view",
      "type": "function"
    },
    {
      "inputs": [],
      "name": "INBOX_STATUS_RECEIVED",
      "outputs": [
        {
          "internalType": "uint8",
          "name": "",
          "type": "uint8"
        }
      ],
      "stateMutability": "view",
      "type": "function"
    },
    {
      "inputs": [],
      "name": "INBOX_STATUS_UNKNOWN",
      "outputs": [
        {
          "internalType": "uint8",
          "name": "",
          "type": "uint8"
        }
      ],
      "stateMutability": "view",
      "type": "function"
    },
    {
      "inputs": [],
      "name": "OPERATOR_ROLE",
      "outputs": [
        {
          "internalType": "bytes32",
          "name": "",
          "type": "bytes32"
        }
      ],
      "stateMutability": "view",
      "type": "function"
    },
    {
      "inputs": [],
      "name": "OUTBOX_STATUS_RECEIVED",
      "outputs": [
        {
          "internalType": "uint8",
          "name": "",
          "type": "uint8"
        }
      ],
      "stateMutability": "view",
      "type": "function"
    },
    {
      "inputs": [],
      "name": "OUTBOX_STATUS_SENT",
      "outputs": [
        {
          "internalType": "uint8",
          "name": "",
          "type": "uint8"
        }
      ],
      "stateMutability": "view",
      "type": "function"
    },
    {
      "inputs": [],
      "name": "OUTBOX_STATUS_UNKNOWN",
      "outputs": [
        {
          "internalType": "uint8",
          "name": "",
          "type": "uint8"
        }
      ],
      "stateMutability": "view",
      "type": "function"
    },
    {
      "inputs": [],
      "name": "PAUSE_ALL_ROLE",
      "outputs": [
        {
          "internalType": "bytes32",
          "name": "",
          "type": "bytes32"
        }
      ],
      "stateMutability": "view",
      "type": "function"
    },
    {
      "inputs": [],
      "name": "PAUSE_BLOB_SUBMISSION_ROLE",
      "outputs": [
        {
          "internalType": "bytes32",
          "name": "",
          "type": "bytes32"
        }
      ],
      "stateMutability": "view",
      "type": "function"
    },
    {
      "inputs": [],
      "name": "PAUSE_FINALIZATION_ROLE",
      "outputs": [
        {
          "internalType": "bytes32",
          "name": "",
          "type": "bytes32"
        }
      ],
      "stateMutability": "view",
      "type": "function"
    },
    {
      "inputs": [],
      "name": "PAUSE_L1_L2_ROLE",
      "outputs": [
        {
          "internalType": "bytes32",
          "name": "",
          "type": "bytes32"
        }
      ],
      "stateMutability": "view",
      "type": "function"
    },
    {
      "inputs": [],
      "name": "PAUSE_L2_L1_ROLE",
      "outputs": [
        {
          "internalType": "bytes32",
          "name": "",
          "type": "bytes32"
        }
      ],
      "stateMutability": "view",
      "type": "function"
    },
    {
      "inputs": [],
      "name": "RATE_LIMIT_SETTER_ROLE",
      "outputs": [
        {
          "internalType": "bytes32",
          "name": "",
          "type": "bytes32"
        }
      ],
      "stateMutability": "view",
      "type": "function"
    },
    {
      "inputs": [],
      "name": "UNPAUSE_ALL_ROLE",
      "outputs": [
        {
          "internalType": "bytes32",
          "name": "",
          "type": "bytes32"
        }
      ],
      "stateMutability": "view",
      "type": "function"
    },
    {
      "inputs": [],
      "name": "UNPAUSE_BLOB_SUBMISSION_ROLE",
      "outputs": [
        {
          "internalType": "bytes32",
          "name": "",
          "type": "bytes32"
        }
      ],
      "stateMutability": "view",
      "type": "function"
    },
    {
      "inputs": [],
      "name": "UNPAUSE_FINALIZATION_ROLE",
      "outputs": [
        {
          "internalType": "bytes32",
          "name": "",
          "type": "bytes32"
        }
      ],
      "stateMutability": "view",
      "type": "function"
    },
    {
      "inputs": [],
      "name": "UNPAUSE_L1_L2_ROLE",
      "outputs": [
        {
          "internalType": "bytes32",
          "name": "",
          "type": "bytes32"
        }
      ],
      "stateMutability": "view",
      "type": "function"
    },
    {
      "inputs": [],
      "name": "UNPAUSE_L2_L1_ROLE",
      "outputs": [
        {
          "internalType": "bytes32",
          "name": "",
          "type": "bytes32"
        }
      ],
      "stateMutability": "view",
      "type": "function"
    },
    {
      "inputs": [],
      "name": "USED_RATE_LIMIT_RESETTER_ROLE",
      "outputs": [
        {
          "internalType": "bytes32",
          "name": "",
          "type": "bytes32"
        }
      ],
      "stateMutability": "view",
      "type": "function"
    },
    {
      "inputs": [],
      "name": "VERIFIER_SETTER_ROLE",
      "outputs": [
        {
          "internalType": "bytes32",
          "name": "",
          "type": "bytes32"
        }
      ],
      "stateMutability": "view",
      "type": "function"
    },
    {
      "inputs": [],
      "name": "VERIFIER_UNSETTER_ROLE",
      "outputs": [
        {
          "internalType": "bytes32",
          "name": "",
          "type": "bytes32"
        }
      ],
      "stateMutability": "view",
      "type": "function"
    },
    {
      "inputs": [
        {
          "internalType": "bytes32",
          "name": "shnarf",
          "type": "bytes32"
        }
      ],
      "name": "blobShnarfExists",
      "outputs": [
        {
          "internalType": "uint256",
          "name": "exists",
          "type": "uint256"
        }
      ],
      "stateMutability": "view",
      "type": "function"
    },
    {
      "inputs": [
        {
          "internalType": "address",
          "name": "_from",
          "type": "address"
        },
        {
          "internalType": "address",
          "name": "_to",
          "type": "address"
        },
        {
          "internalType": "uint256",
          "name": "_fee",
          "type": "uint256"
        },
        {
          "internalType": "uint256",
          "name": "_value",
          "type": "uint256"
        },
        {
          "internalType": "address payable",
          "name": "_feeRecipient",
          "type": "address"
        },
        {
          "internalType": "bytes",
          "name": "_calldata",
          "type": "bytes"
        },
        {
          "internalType": "uint256",
          "name": "_nonce",
          "type": "uint256"
        }
      ],
      "name": "claimMessage",
      "outputs": [],
      "stateMutability": "nonpayable",
      "type": "function"
    },
    {
      "inputs": [
        {
          "components": [
            {
              "internalType": "bytes32[]",
              "name": "proof",
              "type": "bytes32[]"
            },
            {
              "internalType": "uint256",
              "name": "messageNumber",
              "type": "uint256"
            },
            {
              "internalType": "uint32",
              "name": "leafIndex",
              "type": "uint32"
            },
            {
              "internalType": "address",
              "name": "from",
              "type": "address"
            },
            {
              "internalType": "address",
              "name": "to",
              "type": "address"
            },
            {
              "internalType": "uint256",
              "name": "fee",
              "type": "uint256"
            },
            {
              "internalType": "uint256",
              "name": "value",
              "type": "uint256"
            },
            {
              "internalType": "address payable",
              "name": "feeRecipient",
              "type": "address"
            },
            {
              "internalType": "bytes32",
              "name": "merkleRoot",
              "type": "bytes32"
            },
            {
              "internalType": "bytes",
              "name": "data",
              "type": "bytes"
            }
          ],
          "internalType": "struct IL1MessageService.ClaimMessageWithProofParams",
          "name": "_params",
          "type": "tuple"
        }
      ],
      "name": "claimMessageWithProof",
      "outputs": [],
      "stateMutability": "nonpayable",
      "type": "function"
    },
    {
      "inputs": [],
      "name": "currentFinalizedShnarf",
      "outputs": [
        {
          "internalType": "bytes32",
          "name": "",
          "type": "bytes32"
        }
      ],
      "stateMutability": "view",
      "type": "function"
    },
    {
      "inputs": [],
      "name": "currentFinalizedState",
      "outputs": [
        {
          "internalType": "bytes32",
          "name": "",
          "type": "bytes32"
        }
      ],
      "stateMutability": "view",
      "type": "function"
    },
    {
      "inputs": [],
      "name": "currentL2BlockNumber",
      "outputs": [
        {
          "internalType": "uint256",
          "name": "",
          "type": "uint256"
        }
      ],
      "stateMutability": "view",
      "type": "function"
    },
    {
      "inputs": [],
      "name": "currentL2StoredL1MessageNumber",
      "outputs": [
        {
          "internalType": "uint256",
          "name": "",
          "type": "uint256"
        }
      ],
      "stateMutability": "view",
      "type": "function"
    },
    {
      "inputs": [],
      "name": "currentL2StoredL1RollingHash",
      "outputs": [
        {
          "internalType": "bytes32",
          "name": "",
          "type": "bytes32"
        }
      ],
      "stateMutability": "view",
      "type": "function"
    },
    {
      "inputs": [],
      "name": "currentPeriodAmountInWei",
      "outputs": [
        {
          "internalType": "uint256",
          "name": "",
          "type": "uint256"
        }
      ],
      "stateMutability": "view",
      "type": "function"
    },
    {
      "inputs": [],
      "name": "currentPeriodEnd",
      "outputs": [
        {
          "internalType": "uint256",
          "name": "",
          "type": "uint256"
        }
      ],
      "stateMutability": "view",
      "type": "function"
    },
    {
      "inputs": [],
      "name": "currentTimestamp",
      "outputs": [
        {
          "internalType": "uint256",
          "name": "",
          "type": "uint256"
        }
      ],
      "stateMutability": "view",
      "type": "function"
    },
    {
      "inputs": [
        {
          "internalType": "bytes32",
          "name": "dataHash",
          "type": "bytes32"
        }
      ],
      "name": "dataEndingBlock",
      "outputs": [
        {
          "internalType": "uint256",
          "name": "endingBlock",
          "type": "uint256"
        }
      ],
      "stateMutability": "view",
      "type": "function"
    },
    {
      "inputs": [
        {
          "internalType": "bytes32",
          "name": "dataHash",
          "type": "bytes32"
        }
      ],
      "name": "dataFinalStateRootHashes",
      "outputs": [
        {
          "internalType": "bytes32",
          "name": "finalStateRootHash",
          "type": "bytes32"
        }
      ],
      "stateMutability": "view",
      "type": "function"
    },
    {
      "inputs": [
        {
          "internalType": "bytes32",
          "name": "dataHash",
          "type": "bytes32"
        }
      ],
      "name": "dataParents",
      "outputs": [
        {
          "internalType": "bytes32",
          "name": "parentHash",
          "type": "bytes32"
        }
      ],
      "stateMutability": "view",
      "type": "function"
    },
    {
      "inputs": [
        {
          "internalType": "bytes32",
          "name": "dataHash",
          "type": "bytes32"
        }
      ],
      "name": "dataShnarfHashes",
      "outputs": [
        {
          "internalType": "bytes32",
          "name": "shnarfHash",
          "type": "bytes32"
        }
      ],
      "stateMutability": "view",
      "type": "function"
    },
    {
      "inputs": [
        {
          "internalType": "bytes32",
          "name": "dataHash",
          "type": "bytes32"
        }
      ],
      "name": "dataStartingBlock",
      "outputs": [
        {
          "internalType": "uint256",
          "name": "startingBlock",
          "type": "uint256"
        }
      ],
      "stateMutability": "view",
      "type": "function"
    },
    {
      "inputs": [],
      "name": "fallbackOperator",
      "outputs": [
        {
          "internalType": "address",
          "name": "",
          "type": "address"
        }
      ],
      "stateMutability": "view",
      "type": "function"
    },
    {
      "inputs": [
        {
          "internalType": "bytes",
          "name": "_aggregatedProof",
          "type": "bytes"
        },
        {
          "internalType": "uint256",
          "name": "_proofType",
          "type": "uint256"
        },
        {
          "components": [
            {
              "internalType": "bytes32",
              "name": "parentStateRootHash",
              "type": "bytes32"
            },
            {
              "internalType": "uint256",
              "name": "endBlockNumber",
              "type": "uint256"
            },
            {
              "components": [
                {
                  "internalType": "bytes32",
                  "name": "parentShnarf",
                  "type": "bytes32"
                },
                {
                  "internalType": "bytes32",
                  "name": "snarkHash",
                  "type": "bytes32"
                },
                {
                  "internalType": "bytes32",
                  "name": "finalStateRootHash",
                  "type": "bytes32"
                },
                {
                  "internalType": "bytes32",
                  "name": "dataEvaluationPoint",
                  "type": "bytes32"
                },
                {
                  "internalType": "bytes32",
                  "name": "dataEvaluationClaim",
                  "type": "bytes32"
                }
              ],
              "internalType": "struct ILineaRollup.ShnarfData",
              "name": "shnarfData",
              "type": "tuple"
            },
            {
              "internalType": "uint256",
              "name": "lastFinalizedTimestamp",
              "type": "uint256"
            },
            {
              "internalType": "uint256",
              "name": "finalTimestamp",
              "type": "uint256"
            },
            {
              "internalType": "bytes32",
              "name": "lastFinalizedL1RollingHash",
              "type": "bytes32"
            },
            {
              "internalType": "bytes32",
              "name": "l1RollingHash",
              "type": "bytes32"
            },
            {
              "internalType": "uint256",
              "name": "lastFinalizedL1RollingHashMessageNumber",
              "type": "uint256"
            },
            {
              "internalType": "uint256",
              "name": "l1RollingHashMessageNumber",
              "type": "uint256"
            },
            {
              "internalType": "uint256",
              "name": "l2MerkleTreesDepth",
              "type": "uint256"
            },
            {
              "internalType": "bytes32[]",
              "name": "l2MerkleRoots",
              "type": "bytes32[]"
            },
            {
              "internalType": "bytes",
              "name": "l2MessagingBlocksOffsets",
              "type": "bytes"
            }
          ],
          "internalType": "struct ILineaRollup.FinalizationDataV3",
          "name": "_finalizationData",
          "type": "tuple"
        }
      ],
      "name": "finalizeBlocks",
      "outputs": [],
      "stateMutability": "nonpayable",
      "type": "function"
    },
    {
      "inputs": [
        {
          "internalType": "bytes32",
          "name": "role",
          "type": "bytes32"
        }
      ],
      "name": "getRoleAdmin",
      "outputs": [
        {
          "internalType": "bytes32",
          "name": "",
          "type": "bytes32"
        }
      ],
      "stateMutability": "view",
      "type": "function"
    },
    {
      "inputs": [
        {
          "internalType": "bytes32",
          "name": "role",
          "type": "bytes32"
        },
        {
          "internalType": "address",
          "name": "account",
          "type": "address"
        }
      ],
      "name": "grantRole",
      "outputs": [],
      "stateMutability": "nonpayable",
      "type": "function"
    },
    {
      "inputs": [
        {
          "internalType": "bytes32",
          "name": "role",
          "type": "bytes32"
        },
        {
          "internalType": "address",
          "name": "account",
          "type": "address"
        }
      ],
      "name": "hasRole",
      "outputs": [
        {
          "internalType": "bool",
          "name": "",
          "type": "bool"
        }
      ],
      "stateMutability": "view",
      "type": "function"
    },
    {
      "inputs": [
        {
          "internalType": "bytes32",
          "name": "messageHash",
          "type": "bytes32"
        }
      ],
      "name": "inboxL2L1MessageStatus",
      "outputs": [
        {
          "internalType": "uint256",
          "name": "messageStatus",
          "type": "uint256"
        }
      ],
      "stateMutability": "view",
      "type": "function"
    },
    {
      "inputs": [
        {
          "components": [
            {
              "internalType": "bytes32",
              "name": "initialStateRootHash",
              "type": "bytes32"
            },
            {
              "internalType": "uint256",
              "name": "initialL2BlockNumber",
              "type": "uint256"
            },
            {
              "internalType": "uint256",
              "name": "genesisTimestamp",
              "type": "uint256"
            },
            {
              "internalType": "address",
              "name": "defaultVerifier",
              "type": "address"
            },
            {
              "internalType": "uint256",
              "name": "rateLimitPeriodInSeconds",
              "type": "uint256"
            },
            {
              "internalType": "uint256",
              "name": "rateLimitAmountInWei",
              "type": "uint256"
            },
            {
              "components": [
                {
                  "internalType": "address",
                  "name": "addressWithRole",
                  "type": "address"
                },
                {
                  "internalType": "bytes32",
                  "name": "role",
                  "type": "bytes32"
                }
              ],
              "internalType": "struct IPermissionsManager.RoleAddress[]",
              "name": "roleAddresses",
              "type": "tuple[]"
            },
            {
              "components": [
                {
                  "internalType": "enum IPauseManager.PauseType",
                  "name": "pauseType",
                  "type": "uint8"
                },
                {
                  "internalType": "bytes32",
                  "name": "role",
                  "type": "bytes32"
                }
              ],
              "internalType": "struct IPauseManager.PauseTypeRole[]",
              "name": "pauseTypeRoles",
              "type": "tuple[]"
            },
            {
              "components": [
                {
                  "internalType": "enum IPauseManager.PauseType",
                  "name": "pauseType",
                  "type": "uint8"
                },
                {
                  "internalType": "bytes32",
                  "name": "role",
                  "type": "bytes32"
                }
              ],
              "internalType": "struct IPauseManager.PauseTypeRole[]",
              "name": "unpauseTypeRoles",
              "type": "tuple[]"
            },
            {
              "internalType": "address",
              "name": "fallbackOperator",
              "type": "address"
            },
            {
              "internalType": "address",
              "name": "defaultAdmin",
              "type": "address"
            }
          ],
          "internalType": "struct ILineaRollup.InitializationData",
          "name": "_initializationData",
          "type": "tuple"
        }
      ],
      "name": "initialize",
      "outputs": [],
      "stateMutability": "nonpayable",
      "type": "function"
    },
    {
      "inputs": [
        {
          "internalType": "uint256",
          "name": "_messageNumber",
          "type": "uint256"
        }
      ],
      "name": "isMessageClaimed",
      "outputs": [
        {
          "internalType": "bool",
          "name": "",
          "type": "bool"
        }
      ],
      "stateMutability": "view",
      "type": "function"
    },
    {
      "inputs": [
        {
          "internalType": "enum IPauseManager.PauseType",
          "name": "_pauseType",
          "type": "uint8"
        }
      ],
      "name": "isPaused",
      "outputs": [
        {
          "internalType": "bool",
          "name": "",
          "type": "bool"
        }
      ],
      "stateMutability": "view",
      "type": "function"
    },
    {
      "inputs": [
        {
          "internalType": "bytes32",
          "name": "merkleRoot",
          "type": "bytes32"
        }
      ],
      "name": "l2MerkleRootsDepths",
      "outputs": [
        {
          "internalType": "uint256",
          "name": "treeDepth",
          "type": "uint256"
        }
      ],
      "stateMutability": "view",
      "type": "function"
    },
    {
      "inputs": [],
      "name": "limitInWei",
      "outputs": [
        {
          "internalType": "uint256",
          "name": "",
          "type": "uint256"
        }
      ],
      "stateMutability": "view",
      "type": "function"
    },
    {
      "inputs": [],
      "name": "nextMessageNumber",
      "outputs": [
        {
          "internalType": "uint256",
          "name": "",
          "type": "uint256"
        }
      ],
      "stateMutability": "view",
      "type": "function"
    },
    {
      "inputs": [
        {
          "internalType": "bytes32",
          "name": "messageHash",
          "type": "bytes32"
        }
      ],
      "name": "outboxL1L2MessageStatus",
      "outputs": [
        {
          "internalType": "uint256",
          "name": "messageStatus",
          "type": "uint256"
        }
      ],
      "stateMutability": "view",
      "type": "function"
    },
    {
      "inputs": [
        {
          "internalType": "enum IPauseManager.PauseType",
          "name": "_pauseType",
          "type": "uint8"
        }
      ],
      "name": "pauseByType",
      "outputs": [],
      "stateMutability": "nonpayable",
      "type": "function"
    },
    {
      "inputs": [
        {
          "internalType": "bytes32",
          "name": "pauseType",
          "type": "bytes32"
        }
      ],
      "name": "pauseTypeStatuses",
      "outputs": [
        {
          "internalType": "bool",
          "name": "pauseStatus",
          "type": "bool"
        }
      ],
      "stateMutability": "view",
      "type": "function"
    },
    {
      "inputs": [],
      "name": "periodInSeconds",
      "outputs": [
        {
          "internalType": "uint256",
          "name": "",
          "type": "uint256"
        }
      ],
      "stateMutability": "view",
      "type": "function"
    },
    {
      "inputs": [
        {
          "components": [
            {
              "internalType": "address",
              "name": "addressWithRole",
              "type": "address"
            },
            {
              "internalType": "bytes32",
              "name": "role",
              "type": "bytes32"
            }
          ],
          "internalType": "struct IPermissionsManager.RoleAddress[]",
          "name": "_roleAddresses",
          "type": "tuple[]"
        },
        {
          "components": [
            {
              "internalType": "enum IPauseManager.PauseType",
              "name": "pauseType",
              "type": "uint8"
            },
            {
              "internalType": "bytes32",
              "name": "role",
              "type": "bytes32"
            }
          ],
          "internalType": "struct IPauseManager.PauseTypeRole[]",
          "name": "_pauseTypeRoles",
          "type": "tuple[]"
        },
        {
          "components": [
            {
              "internalType": "enum IPauseManager.PauseType",
              "name": "pauseType",
              "type": "uint8"
            },
            {
              "internalType": "bytes32",
              "name": "role",
              "type": "bytes32"
            }
          ],
          "internalType": "struct IPauseManager.PauseTypeRole[]",
          "name": "_unpauseTypeRoles",
          "type": "tuple[]"
        },
        {
          "internalType": "address",
          "name": "_fallbackOperator",
          "type": "address"
        }
      ],
      "name": "reinitializeLineaRollupV6",
      "outputs": [],
      "stateMutability": "nonpayable",
      "type": "function"
    },
    {
      "inputs": [
        {
          "internalType": "bytes32",
          "name": "role",
          "type": "bytes32"
        },
        {
          "internalType": "address",
          "name": "account",
          "type": "address"
        }
      ],
      "name": "renounceRole",
      "outputs": [],
      "stateMutability": "nonpayable",
      "type": "function"
    },
    {
      "inputs": [],
      "name": "resetAmountUsedInPeriod",
      "outputs": [],
      "stateMutability": "nonpayable",
      "type": "function"
    },
    {
      "inputs": [
        {
          "internalType": "uint256",
          "name": "_amount",
          "type": "uint256"
        }
      ],
      "name": "resetRateLimitAmount",
      "outputs": [],
      "stateMutability": "nonpayable",
      "type": "function"
    },
    {
      "inputs": [
        {
          "internalType": "bytes32",
          "name": "role",
          "type": "bytes32"
        },
        {
          "internalType": "address",
          "name": "account",
          "type": "address"
        }
      ],
      "name": "revokeRole",
      "outputs": [],
      "stateMutability": "nonpayable",
      "type": "function"
    },
    {
      "inputs": [
        {
          "internalType": "uint256",
          "name": "messageNumber",
          "type": "uint256"
        }
      ],
      "name": "rollingHashes",
      "outputs": [
        {
          "internalType": "bytes32",
          "name": "rollingHash",
          "type": "bytes32"
        }
      ],
      "stateMutability": "view",
      "type": "function"
    },
    {
      "inputs": [
        {
          "internalType": "address",
          "name": "_to",
          "type": "address"
        },
        {
          "internalType": "uint256",
          "name": "_fee",
          "type": "uint256"
        },
        {
          "internalType": "bytes",
          "name": "_calldata",
          "type": "bytes"
        }
      ],
      "name": "sendMessage",
      "outputs": [],
      "stateMutability": "payable",
      "type": "function"
    },
    {
      "inputs": [],
      "name": "sender",
      "outputs": [
        {
          "internalType": "address",
          "name": "addr",
          "type": "address"
        }
      ],
      "stateMutability": "view",
      "type": "function"
    },
    {
      "inputs": [
        {
          "internalType": "uint256",
          "name": "_messageNumber",
          "type": "uint256"
        },
        {
          "internalType": "bytes32",
          "name": "_rollingHash",
          "type": "bytes32"
        },
        {
          "internalType": "uint256",
          "name": "_lastFinalizedTimestamp",
          "type": "uint256"
        }
      ],
      "name": "setFallbackOperator",
      "outputs": [],
      "stateMutability": "nonpayable",
      "type": "function"
    },
    {
      "inputs": [
        {
          "internalType": "address",
          "name": "_newVerifierAddress",
          "type": "address"
        },
        {
          "internalType": "uint256",
          "name": "_proofType",
          "type": "uint256"
        }
      ],
      "name": "setVerifierAddress",
      "outputs": [],
      "stateMutability": "nonpayable",
      "type": "function"
    },
    {
      "inputs": [
        {
          "internalType": "uint256",
          "name": "blockNumber",
          "type": "uint256"
        }
      ],
      "name": "stateRootHashes",
      "outputs": [
        {
          "internalType": "bytes32",
          "name": "stateRootHash",
          "type": "bytes32"
        }
      ],
      "stateMutability": "view",
      "type": "function"
    },
    {
      "inputs": [
        {
          "components": [
            {
              "internalType": "uint256",
              "name": "dataEvaluationClaim",
              "type": "uint256"
            },
            {
              "internalType": "bytes",
              "name": "kzgCommitment",
              "type": "bytes"
            },
            {
              "internalType": "bytes",
              "name": "kzgProof",
              "type": "bytes"
            },
            {
              "internalType": "bytes32",
              "name": "finalStateRootHash",
              "type": "bytes32"
            },
            {
              "internalType": "bytes32",
              "name": "snarkHash",
              "type": "bytes32"
            }
          ],
          "internalType": "struct ILineaRollup.BlobSubmission[]",
          "name": "_blobSubmissions",
          "type": "tuple[]"
        },
        {
          "internalType": "bytes32",
          "name": "_parentShnarf",
          "type": "bytes32"
        },
        {
          "internalType": "bytes32",
          "name": "_finalBlobShnarf",
          "type": "bytes32"
        }
      ],
      "name": "submitBlobs",
      "outputs": [],
      "stateMutability": "nonpayable",
      "type": "function"
    },
    {
      "inputs": [
        {
          "components": [
            {
              "internalType": "bytes32",
              "name": "finalStateRootHash",
              "type": "bytes32"
            },
            {
              "internalType": "bytes32",
              "name": "snarkHash",
              "type": "bytes32"
            },
            {
              "internalType": "bytes",
              "name": "compressedData",
              "type": "bytes"
            }
          ],
          "internalType": "struct ILineaRollup.CompressedCalldataSubmission",
          "name": "_submission",
          "type": "tuple"
        },
        {
          "internalType": "bytes32",
          "name": "_parentShnarf",
          "type": "bytes32"
        },
        {
          "internalType": "bytes32",
          "name": "_expectedShnarf",
          "type": "bytes32"
        }
      ],
      "name": "submitDataAsCalldata",
      "outputs": [],
      "stateMutability": "nonpayable",
      "type": "function"
    },
    {
      "inputs": [
        {
          "internalType": "bytes4",
          "name": "interfaceId",
          "type": "bytes4"
        }
      ],
      "name": "supportsInterface",
      "outputs": [
        {
          "internalType": "bool",
          "name": "",
          "type": "bool"
        }
      ],
      "stateMutability": "view",
      "type": "function"
    },
    {
      "inputs": [],
      "name": "systemMigrationBlock",
      "outputs": [
        {
          "internalType": "uint256",
          "name": "",
          "type": "uint256"
        }
      ],
      "stateMutability": "view",
      "type": "function"
    },
    {
      "inputs": [
        {
          "internalType": "enum IPauseManager.PauseType",
          "name": "_pauseType",
          "type": "uint8"
        }
      ],
      "name": "unPauseByType",
      "outputs": [],
      "stateMutability": "nonpayable",
      "type": "function"
    },
    {
      "inputs": [
        {
          "internalType": "uint256",
          "name": "_proofType",
          "type": "uint256"
        }
      ],
      "name": "unsetVerifierAddress",
      "outputs": [],
      "stateMutability": "nonpayable",
      "type": "function"
    },
    {
      "inputs": [
        {
          "internalType": "uint256",
          "name": "proofType",
          "type": "uint256"
        }
      ],
      "name": "verifiers",
      "outputs": [
        {
          "internalType": "address",
          "name": "verifierAddress",
          "type": "address"
        }
      ],
      "stateMutability": "view",
      "type": "function"
    }
  ],
  "bytecode": "0x6080604052348015600e575f80fd5b5060156019565b60d3565b5f54610100900460ff161560835760405162461bcd60e51b815260206004820152602760248201527f496e697469616c697a61626c653a20636f6e747261637420697320696e697469604482015266616c697a696e6760c81b606482015260840160405180910390fd5b5f5460ff9081161460d1575f805460ff191660ff9081179091556040519081527f7f26b83ff96e1f2b6a682f133852f6798a09c465da95921460cefb38474024989060200160405180910390a15b565b615619806100e05f395ff3fe60806040526004361061049d575f3560e01c806373bd07b71161026b578063b837dbe911610156578063cc5782f6116100d1578063d5d4b83511610087578063e196fb5d1161006d578063e196fb5d14610ed4578063e97a1e9e14610ef3578063f5b541a614610f65575f80fd5b8063d5d4b83514610e8b578063d722bbfc14610ea1575f80fd5b8063cd9b9e9a116100b7578063cd9b9e9a14610e29578063cf5b276414610e3f578063d547741f14610e6c575f80fd5b8063cc5782f614610dc8578063cc6f725114610df6575f80fd5b8063bf3e750511610126578063c0c4e5841161010c578063c0c4e58414610d75578063c1dc0f0714610d94578063c211697414610da9575f80fd5b8063bf3e750514610d2d578063c0729ab114610d60575f80fd5b8063b837dbe914610ca7578063b9174ba314610cbc578063bc61e73314610cef578063bcc3003d14610d0e575f80fd5b80639ac25d08116101e6578063a98e773d116101b6578063ad422ff01161019c578063ad422ff014610c4b578063aea4f74514610c60578063b59faa6014610c74575f80fd5b8063a98e773d14610bea578063ac1eff6814610c09575f80fd5b80639ac25d0814610b725780639ee8b21114610ba55780639f3ce55a14610bc4578063a217fddf14610bd7575f80fd5b8063914e57eb1161023b578063921b278e11610221578063921b278e14610b3d578063986fcddd14610a4e57806399467a3514610b53575f80fd5b8063914e57eb14610ac057806391d1485414610aec575f80fd5b806373bd07b714610a3a5780637d1e8c5514610a4e5780638be745d114610a615780638de4948714610a8d575f80fd5b80634cdd389b1161038b57806360e83cf31161030657806367e404ce116102d6578063695378f5116102bc578063695378f5146109be5780636a906b80146109d45780636e67384314610a07575f80fd5b806367e404ce146109665780636854f6bc1461099f575f80fd5b806360e83cf3146108bc57806363213155146108e85780636463fb2a1461091b57806366f96e981461093a575f80fd5b8063587944561161035b5780635c721a0c116103415780635c721a0c146108395780635ed73ceb146108645780636078bfd814610890575f80fd5b806358794456146108245780635b7eb4bd14610742575f80fd5b80634cdd389b146107875780635230eef2146107b3578063557eac73146107e65780635603c65f14610805575f80fd5b8063289581741161041b57806338b90333116103eb5780633fc08b65116103d15780633fc08b651461071757806348922ab714610742578063491e093614610768575f80fd5b806338b903331461068f5780633b12eccb146106e4575f80fd5b8063289581741461061c5780632c70645c1461063b5780632f2ff15d1461065157806336568abe14610670575f80fd5b806312d3fa9a116104705780631f443da0116104565780631f443da0146105965780632130d812146105c2578063248a9ca3146105ee575f80fd5b806312d3fa9a1461054d5780631e2ff94f14610580575f80fd5b806301ffc9a7146104a157806303134d1d146104d557806305861180146105165780631065a3991461052c575b5f80fd5b3480156104ac575f80fd5b506104c06104bb3660046148d2565b610f98565b60405190151581526020015b60405180910390f35b3480156104e0575f80fd5b506105087f1ab87f7458c0e3d07e9881c14ee67f0141703614fd48ea5b15ed987e5f4b030e81565b6040519081526020016104cc565b348015610521575f80fd5b506105086101bb5481565b348015610537575f80fd5b5061054b610546366004614911565b611030565b005b348015610558575f80fd5b506105087f67c2dca7476ee0fe1dd3cba13428c6760bfe2599a6dfe26a9ad7ef27317c6e7781565b34801561058b575f80fd5b506105086101185481565b3480156105a1575f80fd5b506105086105b036600461492f565b6101b96020525f908152604090205481565b3480156105cd575f80fd5b506105086105dc36600461492f565b6101be6020525f908152604090205481565b3480156105f9575f80fd5b5061050861060836600461492f565b5f9081526065602052604090206001015490565b348015610627575f80fd5b5061054b61063636600461492f565b611139565b348015610646575f80fd5b506105086101835481565b34801561065c575f80fd5b5061054b61066b366004614967565b6111f9565b34801561067b575f80fd5b5061054b61068a366004614967565b611222565b34801561069a575f80fd5b506106d76040518060400160405280600381526020017f362e30000000000000000000000000000000000000000000000000000000000081525081565b6040516104cc9190614995565b3480156106ef575f80fd5b506105087fb6cc65f42901ed602aec1619cc1ead29d487cd489094a37615153eaeb991d77081565b348015610722575f80fd5b5061050861073136600461492f565b60a56020525f908152604090205481565b34801561074d575f80fd5b50610756600181565b60405160ff90911681526020016104cc565b348015610773575f80fd5b5061054b610782366004614a2d565b6112d5565b348015610792575f80fd5b506105086107a136600461492f565b6101b76020525f908152604090205481565b3480156107be575f80fd5b506105087f0cf0d2deb70d7bdac2fa48c4ac99bc558170be0ce5fcb994caefa4bf7b96edf981565b3480156107f1575f80fd5b5061054b61080036600461492f565b6115d9565b348015610810575f80fd5b5061054b61081f366004614abd565b61169f565b34801561082f575f80fd5b5061050860995481565b348015610844575f80fd5b5061050861085336600461492f565b60a66020525f908152604090205481565b34801561086f575f80fd5b5061050861087e36600461492f565b6101ba6020525f908152604090205481565b34801561089b575f80fd5b506105086108aa36600461492f565b6101b66020525f908152604090205481565b3480156108c7575f80fd5b506105086108d636600461492f565b6101506020525f908152604090205481565b3480156108f3575f80fd5b506105087fe37c272ea30e2bb381ad7cf89ae754b49153250609f36d0cbdad8b64c184bb5c81565b348015610926575f80fd5b5061054b610935366004614b35565b611797565b348015610945575f80fd5b5061050861095436600461492f565b6101b86020525f908152604090205481565b348015610971575f80fd5b5061097a611c3e565b60405173ffffffffffffffffffffffffffffffffffffffff90911681526020016104cc565b3480156109aa575f80fd5b5061054b6109b9366004614b6d565b611c76565b3480156109c9575f80fd5b506105086101195481565b3480156109df575f80fd5b506105087fd8b4c34c2ec1f3194471108c64ad2beda340c0337ee4ca35592f9ef270f4228b81565b348015610a12575f80fd5b506105087f32937fd5162e282df7e9a14a5073a2425321c7966eaf70ed6c838a1006d84c4c81565b348015610a45575f80fd5b50610756600281565b348015610a59575f80fd5b506107565f81565b348015610a6c575f80fd5b50610508610a7b36600461492f565b61011a6020525f908152604090205481565b348015610a98575f80fd5b506105087fe1fce82838dd7a42cfe783f60dc6233c8aa2c4fc66e77817805e767ec5e349b681565b348015610acb575f80fd5b50610508610ada36600461492f565b61014e6020525f908152604090205481565b348015610af7575f80fd5b506104c0610b06366004614967565b5f91825260656020908152604080842073ffffffffffffffffffffffffffffffffffffffff93909316845291905290205460ff1690565b348015610b48575f80fd5b506105086101bf5481565b348015610b5e575f80fd5b5061054b610b6d366004614bbb565b611e6c565b348015610b7d575f80fd5b506105087f56bdc3c9ec86cb7db110a7699b2ade72f0b8819727d9f7d906b012641505fa7781565b348015610bb0575f80fd5b506104c0610bbf36600461492f565b612152565b61054b610bd2366004614c38565b612175565b348015610be2575f80fd5b506105085f81565b348015610bf5575f80fd5b5061054b610c04366004614c90565b6122be565b348015610c14575f80fd5b5061097a610c2336600461492f565b61011b6020525f908152604090205473ffffffffffffffffffffffffffffffffffffffff1681565b348015610c56575f80fd5b5061050860985481565b348015610c6b575f80fd5b5061054b612731565b348015610c7f575f80fd5b506105087fe4831f9e4316ac2c65117d1f602fbf56d38128a9973d5e3fdbc5b77265c18d4081565b348015610cb2575f80fd5b5061050860e45481565b348015610cc7575f80fd5b506105087f430a7f0cb00b5ebbe63cecc96e82cf959a883e7c13a95110854f1fa6b3fbf59881565b348015610cfa575f80fd5b506104c0610d09366004614911565b61278c565b348015610d19575f80fd5b5061054b610d28366004614cc8565b6127b0565b348015610d38575f80fd5b506105087f1185e52d62bfbbea270e57d3d09733d221b53ab7a18bae82bb3c6c74bab16d8281565b348015610d6b575f80fd5b50610508609a5481565b348015610d80575f80fd5b5061054b610d8f366004614d32565b6128fa565b348015610d9f575f80fd5b5061050860975481565b348015610db4575f80fd5b5061054b610dc3366004614de4565b612b2d565b348015610dd3575f80fd5b506104c0610de236600461492f565b60d96020525f908152604090205460ff1681565b348015610e01575f80fd5b506105087fe8cb6172fcf5cbaae022b7c910224a4f0c20d53227e630056efff182155a5abc81565b348015610e34575f80fd5b506105086101bd5481565b348015610e4a575f80fd5b506101c05461097a9073ffffffffffffffffffffffffffffffffffffffff1681565b348015610e77575f80fd5b5061054b610e86366004614967565b612c5a565b348015610e96575f80fd5b506105086101bc5481565b348015610eac575f80fd5b506105087f6b5661ddfbd1fbd525c902a513e0f47d9c74f1c1ee8a2d4f1937ad305fb8f41a81565b348015610edf575f80fd5b5061054b610eee366004614911565b612c7e565b348015610efe575f80fd5b50610508604080515f602082018190529181018290527f072ead6777750dc20232d1cee8dc9a395c2d350df4bbaa5096c6f59b214dcecd60608201526080810182905260a081019190915260c0016040516020818303038152906040528051906020012081565b348015610f70575f80fd5b506105087f97667070c54ef182b0f5858b034beac1b6f3089aa2d3188bb1e8929f4fa9b92981565b5f7fffffffff0000000000000000000000000000000000000000000000000000000082167f7965db0b00000000000000000000000000000000000000000000000000000000148061102a57507f01ffc9a7000000000000000000000000000000000000000000000000000000007fffffffff000000000000000000000000000000000000000000000000000000008316145b92915050565b60dc5f82600881111561104557611045614e0e565b600881111561105657611056614e0e565b81526020019081526020015f205461106d81612d56565b6110768261278c565b6110b757816040517f186596540000000000000000000000000000000000000000000000000000000081526004016110ae9190614e74565b60405180910390fd5b8160088111156110c9576110c9614e0e565b60da8054600190921b1990911690558160088111156110ea576110ea614e0e565b7fd071d2b85dec4489435b541d2f0e2570db09b09db9efd8703948d44a433df65a335b60405173ffffffffffffffffffffffffffffffffffffffff909116815260200160405180910390a25050565b7f6b5661ddfbd1fbd525c902a513e0f47d9c74f1c1ee8a2d4f1937ad305fb8f41a61116381612d56565b5f82815261011b6020908152604080832054905173ffffffffffffffffffffffffffffffffffffffff90911681523392859290917f4a29db3fc6b42bda201e4b4d69ce8d575eeeba5f153509c0d0a342af0f1bd021910160405180910390a4505f90815261011b6020526040902080547fffffffffffffffffffffffff0000000000000000000000000000000000000000169055565b5f8281526065602052604090206001015461121381612d56565b61121d8383612d60565b505050565b73ffffffffffffffffffffffffffffffffffffffff811633146112c7576040517f08c379a000000000000000000000000000000000000000000000000000000000815260206004820152602f60248201527f416363657373436f6e74726f6c3a2063616e206f6e6c792072656e6f756e636560448201527f20726f6c657320666f722073656c66000000000000000000000000000000000060648201526084016110ae565b6112d18282612e52565b5050565b6112dd612f0b565b85878484875f5a90506112f06003612fa8565b61132461131e60017f3095e8dc547eeb8bf90020768c67e29e974614469d8f71638ac29f39b96e4893614eaf565b8f61303a565b5f6113348f8f8f8f8c8f8f613041565b905061133f8161309a565b61135161134c8d8f614ec2565b6130f4565b5f808f73ffffffffffffffffffffffffffffffffffffffff168e8d8d60405161137b929190614ed5565b5f6040518083038185875af1925050503d805f81146113b5576040519150601f19603f3d011682016040523d82523d5f602084013e6113ba565b606091505b509150915081611424578051156113d45780518082602001fd5b8f6040517f546134430000000000000000000000000000000000000000000000000000000081526004016110ae919073ffffffffffffffffffffffffffffffffffffffff91909116815260200190565b61145861145260017f3095e8dc547eeb8bf90020768c67e29e974614469d8f71638ac29f39b96e4893614eaf565b5f61303a565b60405183907fa4c827e719e911e8f19393ccdb85b5102f08f0910604d340ba38390b7ff2ab0e905f90a25050861590506115c157855f84900361151057853b15801561150e573a5a6114ac61bc7c86614ec2565b6114b69190614eaf565b6114c09190614ee4565b91508188111561150a5773ffffffffffffffffffffffffffffffffffffffff87166108fc6114ee848b614eaf565b6040518115909202915f818181858888f193505050505061150e565b8791505b505b5f73ffffffffffffffffffffffffffffffffffffffff8416156115335783611535565b335b90505f8173ffffffffffffffffffffffffffffffffffffffff166108fc8490811502906040515f60405180830381858888f193505050509050806115bd576040517fa57c4df400000000000000000000000000000000000000000000000000000000815273ffffffffffffffffffffffffffffffffffffffff831660048201526024016110ae565b5050505b5050505050506115cf61316a565b5050505050505050565b7f1185e52d62bfbbea270e57d3d09733d221b53ab7a18bae82bb3c6c74bab16d8261160381612d56565b5f805f4260995410156116285760975461161d9042614ec2565b60995550600161163a565b609a5485101561163a57849250600191505b609885905580806116485750815b1561165357609a8390555b60408051868152831515602082015282151581830152905133917fbc3dc0cb5c15c51c81316450d44048838bb478b9809447d01c766a06f3e9f2c8919081900360600190a25050505050565b60066116aa81612fa8565b7f97667070c54ef182b0f5858b034beac1b6f3089aa2d3188bb1e8929f4fa9b9296116d481612d56565b5f85900361170e576040517f7907d79b00000000000000000000000000000000000000000000000000000000815260040160405180910390fd5b610119545f81815261011a602052604090205484351461175a576040517fead4c30e00000000000000000000000000000000000000000000000000000000815260040160405180910390fd5b6101bd545f6117698684613198565b90505f61177d878484878b6020013561343b565b905061178b81898c8c6134be565b50505050505050505050565b61179f612f0b565b60a081018035906117b39060808401614efb565b6117c1610120840184614f16565b6117d2610100860160e08701614efb565b5f5a90506117e06003612fa8565b6101008701355f90815261015060205260408120549081900361182f576040517f4e68667500000000000000000000000000000000000000000000000000000000815260040160405180910390fd5b6118398880614f77565b90508114611888578061184c8980614f77565b6040517f5e3fd6ad00000000000000000000000000000000000000000000000000000000815260048101939093526024830152506044016110ae565b611895886020013561375a565b6118aa61134c60c08a013560a08b0135614ec2565b5f6118f36118be60808b0160608c01614efb565b6118ce60a08c0160808d01614efb565b8b60a001358c60c001358d602001358e8061012001906118ee9190614f16565b613041565b905061191e816119038b80614f77565b61191360608e0160408f01614fdb565b8d61010001356137d2565b611954576040517fb05e92fa00000000000000000000000000000000000000000000000000000000815260040160405180910390fd5b61199761198260017f3095e8dc547eeb8bf90020768c67e29e974614469d8f71638ac29f39b96e4893614eaf565b61199260808c0160608d01614efb565b61303a565b5f806119a960a08c0160808d01614efb565b73ffffffffffffffffffffffffffffffffffffffff1660c08c01356119d26101208e018e614f16565b6040516119e0929190614ed5565b5f6040518083038185875af1925050503d805f8114611a1a576040519150601f19603f3d011682016040523d82523d5f602084013e611a1f565b606091505b509150915081611a9457805115611a395780518082602001fd5b611a4960a08c0160808d01614efb565b6040517f5461344300000000000000000000000000000000000000000000000000000000815273ffffffffffffffffffffffffffffffffffffffff90911660048201526024016110ae565b611ac261145260017f3095e8dc547eeb8bf90020768c67e29e974614469d8f71638ac29f39b96e4893614eaf565b60405183907fa4c827e719e911e8f19393ccdb85b5102f08f0910604d340ba38390b7ff2ab0e905f90a2505050505f861115611c2d57855f849003611b7c57853b158015611b7a573a5a611b1861bc7c86614ec2565b611b229190614eaf565b611b2c9190614ee4565b915081881115611b765773ffffffffffffffffffffffffffffffffffffffff87166108fc611b5a848b614eaf565b6040518115909202915f818181858888f1935050505050611b7a565b8791505b505b5f73ffffffffffffffffffffffffffffffffffffffff841615611b9f5783611ba1565b335b90505f8173ffffffffffffffffffffffffffffffffffffffff166108fc8490811502906040515f60405180830381858888f19350505050905080611c29576040517fa57c4df400000000000000000000000000000000000000000000000000000000815273ffffffffffffffffffffffffffffffffffffffff831660048201526024016110ae565b5050505b505050505050611c3b61316a565b50565b5f611c71611c6d60017f3095e8dc547eeb8bf90020768c67e29e974614469d8f71638ac29f39b96e4893614eaf565b5c90565b905090565b6005611c8181612fa8565b7f97667070c54ef182b0f5858b034beac1b6f3089aa2d3188bb1e8929f4fa9b929611cab81612d56565b611cb86040860186614f16565b90505f03611cf2576040517fc01eab5600000000000000000000000000000000000000000000000000000000815260040160405180910390fd5b5f611d006040870187614f16565b604051611d0e929190614ed5565b604051809103902090505f611d308760200135835f9182526020526040902090565b90505f611d7c8760208a01358a3585611d55611d4f60408f018f614f16565b896138d7565b604080519586526020860194909452928401919091526060830152608082015260a0902090565b9050808614611dc1576040517fd3664fb300000000000000000000000000000000000000000000000000000000815260048101879052602481018290526044016110ae565b5f8181526101be602052604090205415611e0a576040517f0f06cd15000000000000000000000000000000000000000000000000000000008152600481018290526024016110ae565b5f8181526101be602052604090819020600190555181907f55f4c645c36aa5cd3f443d6be44d7a7a5df9d2100d7139dfc69d4289ee07231990611e5a908a908c3590918252602082015260400190565b60405180910390a25050505050505050565b6004611e7781612fa8565b7f97667070c54ef182b0f5858b034beac1b6f3089aa2d3188bb1e8929f4fa9b929611ea181612d56565b845f819003611edc576040517fb1504a5f00000000000000000000000000000000000000000000000000000000815260040160405180910390fd5b804915611f18576040517f8019aff7000000000000000000000000000000000000000000000000000000008152600481018290526024016110ae565b6040805160a0810182525f8082526060602083018190529282018390529181018290526080810182905281905f8881526101be60205260408120549003611f8e576040517f6e5424c2000000000000000000000000000000000000000000000000000000008152600481018990526024016110ae565b875f5b85811015612067578b8b82818110611fab57611fab614ffe565b9050602002810190611fbd919061502b565b611fc690615166565b81499450925083612006576040517fc0e41e1d000000000000000000000000000000000000000000000000000000008152600481018290526024016110ae565b60808301515f818152602086905260409020955061203485875f1c865f0151876020015188604001516139d8565b6060848101518551604080519687526020870194909452928501528301869052608083015260a090912090600101611f91565b508088146120ab576040517fd3664fb300000000000000000000000000000000000000000000000000000000815260048101899052602481018290526044016110ae565b5f8181526101be6020526040902054156120f4576040517f0f06cd15000000000000000000000000000000000000000000000000000000008152600481018290526024016110ae565b5f8181526101be602090815260409182902060019055606084015182518c81529182015282917f55f4c645c36aa5cd3f443d6be44d7a7a5df9d2100d7139dfc69d4289ee072319910160405180910390a25050505050505050505050565b600881901c5f90815261014f6020526040812054600160ff84161b16151561102a565b600261218081612fa8565b73ffffffffffffffffffffffffffffffffffffffff85166121cd576040517f8579befe00000000000000000000000000000000000000000000000000000000815260040160405180910390fd5b34841115612207576040517fb03b693200000000000000000000000000000000000000000000000000000000815260040160405180910390fd5b60e480545f9182612217836151f3565b9091555090505f6122288634614eaf565b90505f61223a33898985878b8b613041565b90506122468382613ba5565b808873ffffffffffffffffffffffffffffffffffffffff163373ffffffffffffffffffffffffffffffffffffffff167fe856c2b8bd4eb0027ce32eeaf595c21b0b6b4644b326e5b7bd80a1cf8db72e6c8a86888c8c6040516122ac959493929190615271565b60405180910390a45050505050505050565b5f54610100900460ff16158080156122dc57505f54600160ff909116105b806122f55750303b1580156122f557505f5460ff166001145b612381576040517f08c379a000000000000000000000000000000000000000000000000000000000815260206004820152602e60248201527f496e697469616c697a61626c653a20636f6e747261637420697320616c72656160448201527f647920696e697469616c697a656400000000000000000000000000000000000060648201526084016110ae565b5f80547fffffffffffffffffffffffffffffffffffffffffffffffffffffffffffffff0016600117905580156123dd575f80547fffffffffffffffffffffffffffffffffffffffffffffffffffffffffffff00ff166101001790555b5f6123ee6080840160608501614efb565b73ffffffffffffffffffffffffffffffffffffffff160361243b576040517f8579befe00000000000000000000000000000000000000000000000000000000815260040160405180910390fd5b61245e61244b60e08401846152a1565b6124596101008601866152a1565b613c21565b61247082608001358360a00135613ed0565b61248b5f61248661016085016101408601614efb565b612d60565b6124a061249b60c08401846152a1565b613f91565b6124b06080830160608401614efb565b5f805261011b6020527f033d11f27e62ab919708ec716731da80d261a6e4253259b7acde9bf89d28ec1880547fffffffffffffffffffffffff00000000000000000000000000000000000000001673ffffffffffffffffffffffffffffffffffffffff9290921691909117905561252f61014083016101208401614efb565b6101c080547fffffffffffffffffffffffff00000000000000000000000000000000000000001673ffffffffffffffffffffffffffffffffffffffff9290921691909117905561258761014083016101208401614efb565b73ffffffffffffffffffffffffffffffffffffffff163373ffffffffffffffffffffffffffffffffffffffff167f1f82add12d98b5eaed4d6a6d5f74cfc7a85e5c90c335ab5562f77f220ed45d5f60405160405180910390a36020828101356101198190555f90815261011a825260408082208535905580518084018390528082018390527f072ead6777750dc20232d1cee8dc9a395c2d350df4bbaa5096c6f59b214dcecd60608083018290526080830185905260a08084018690528451808503909101815260c08401855280519087012085526101be86528385206001905560e0830185905261010083018590526101208301919091526101408201849052610160808301859052835180840390910181526101808301808552815191909601206101bd558385526101a0820193909352908501356101c09091015290206101bf5580156112d1575f80547fffffffffffffffffffffffffffffffffffffffffffffffffffffffffffff00ff169055604051600181527f7f26b83ff96e1f2b6a682f133852f6798a09c465da95921460cefb3847402498906020015b60405180910390a15050565b7f0cf0d2deb70d7bdac2fa48c4ac99bc558170be0ce5fcb994caefa4bf7b96edf961275b81612d56565b5f609a81905560405133917fba88c025b0cbb77022c0c487beef24f759f1e4be2f51a205bc427cee19c2eaa691a250565b5f81600881111561279f5761279f614e0e565b60da54600190911b16151592915050565b6127bd62f099c082614ec2565b4210156127f6576040517f4306cbb100000000000000000000000000000000000000000000000000000000815260040160405180910390fd5b6040805184815260208101849052908101829052606090206101bf541461286e576101bf546040805185815260208101859052908101839052606090206040517fbc5aad11000000000000000000000000000000000000000000000000000000008152600481019290925260248201526044016110ae565b6101c05473ffffffffffffffffffffffffffffffffffffffff166128b27f97667070c54ef182b0f5858b034beac1b6f3089aa2d3188bb1e8929f4fa9b92982612d60565b60405173ffffffffffffffffffffffffffffffffffffffff82169033907f9fc8868f8577b31b805ee65bb52325782b5e2708dbdb7f04c7467c6785fccb30905f90a350505050565b5f54600690610100900460ff1615801561291a57505f5460ff8083169116105b6129a6576040517f08c379a000000000000000000000000000000000000000000000000000000000815260206004820152602e60248201527f496e697469616c697a61626c653a20636f6e747261637420697320616c72656160448201527f647920696e697469616c697a656400000000000000000000000000000000000060648201526084016110ae565b5f80547fffffffffffffffffffffffffffffffffffffffffffffffffffffffffffff00001660ff8316176101001790556129e08888613f91565b6129ec86868686613c21565b6101c080547fffffffffffffffffffffffff00000000000000000000000000000000000000001673ffffffffffffffffffffffffffffffffffffffff841690811790915560405133907f1f82add12d98b5eaed4d6a6d5f74cfc7a85e5c90c335ab5562f77f220ed45d5f905f90a36040517f362e300000000000000000000000000000000000000000000000000000000000907f352e300000000000000000000000000000000000000000000000000000000000907f2f8492a7a430cf917798dfb60bc5af634f68e6c40287947df0ea6f7ec0669bd8905f90a35f80547fffffffffffffffffffffffffffffffffffffffffffffffffffffffffffff00ff16905560405160ff821681527f7f26b83ff96e1f2b6a682f133852f6798a09c465da95921460cefb38474024989060200160405180910390a15050505050505050565b7f32937fd5162e282df7e9a14a5073a2425321c7966eaf70ed6c838a1006d84c4c612b5781612d56565b73ffffffffffffffffffffffffffffffffffffffff8316612ba4576040517f8579befe00000000000000000000000000000000000000000000000000000000815260040160405180910390fd5b5f82815261011b602090815260409182902054915173ffffffffffffffffffffffffffffffffffffffff928316815233928592908716917f4a29db3fc6b42bda201e4b4d69ce8d575eeeba5f153509c0d0a342af0f1bd021910160405180910390a4505f90815261011b6020526040902080547fffffffffffffffffffffffff00000000000000000000000000000000000000001673ffffffffffffffffffffffffffffffffffffffff92909216919091179055565b5f82815260656020526040902060010154612c7481612d56565b61121d8383612e52565b60db5f826008811115612c9357612c93614e0e565b6008811115612ca457612ca4614e0e565b81526020019081526020015f2054612cbb81612d56565b612cc48261278c565b15612cfd57816040517fc0a71b580000000000000000000000000000000000000000000000000000000081526004016110ae9190614e74565b816008811115612d0f57612d0f614e0e565b60da8054600190921b9091179055816008811115612d2f57612d2f614e0e565b7f534f879afd40abb4e39f8e1b77a316be4c8e3521d9cf5a3a3db8959d574d45593361110d565b611c3b8133614153565b5f82815260656020908152604080832073ffffffffffffffffffffffffffffffffffffffff8516845290915290205460ff166112d1575f82815260656020908152604080832073ffffffffffffffffffffffffffffffffffffffff85168452909152902080547fffffffffffffffffffffffffffffffffffffffffffffffffffffffffffffff00166001179055612df43390565b73ffffffffffffffffffffffffffffffffffffffff168173ffffffffffffffffffffffffffffffffffffffff16837f2f8788117e7eff1d82e926ec794901d17c78024a50270940304540a733656f0d60405160405180910390a45050565b5f82815260656020908152604080832073ffffffffffffffffffffffffffffffffffffffff8516845290915290205460ff16156112d1575f82815260656020908152604080832073ffffffffffffffffffffffffffffffffffffffff8516808552925280832080547fffffffffffffffffffffffffffffffffffffffffffffffffffffffffffffff0016905551339285917ff6391f5c32d9c69d2a47ea670b442974b53935d1edc7fd64eb21e047a839171b9190a45050565b5f612f3a611c6d60017f084edf88d5959696dcc7aab5c8674a33a1ef78f37dda21b782ed03bddb22ade5614eaf565b14612f71576040517f37ed32e800000000000000000000000000000000000000000000000000000000815260040160405180910390fd5b612fa6612f9f60017f084edf88d5959696dcc7aab5c8674a33a1ef78f37dda21b782ed03bddb22ade5614eaf565b600161303a565b565b60da54816008811115612fbd57612fbd614e0e565b6001901b811615612ffc57816040517fc0a71b580000000000000000000000000000000000000000000000000000000081526004016110ae9190614e74565b60028116156112d15760016040517fc0a71b580000000000000000000000000000000000000000000000000000000081526004016110ae9190614e74565b80825d5050565b5f60405188815287602082015286604082015285606082015284608082015260c060a08201528260c0820152602083065f811561307f578160200390505b848660e085013790930160e001902098975050505050505050565b5f81815260a660205260409020546001146130e4576040517f992d87c3000000000000000000000000000000000000000000000000000000008152600481018290526024016110ae565b5f90815260a66020526040812055565b8015611c3b57426099541015613119576097546131119042614ec2565b609955613129565b609a546131269082614ec2565b90505b609854811115613165576040517fa74c1c5f00000000000000000000000000000000000000000000000000000000815260040160405180910390fd5b609a55565b612fa661145260017f084edf88d5959696dcc7aab5c8674a33a1ef78f37dda21b782ed03bddb22ade5614eaf565b5f818360200135116131e3576040517f7061440500000000000000000000000000000000000000000000000000000000815260208401356004820152602481018390526044016110ae565b6131f783610180013584610140013561420c565b6101bf54604080516101608601358152610120860135602082015260e086013591810191909152606090201461328d57604080516101608501358152610120850135602082015260e085013591810191909152606090206101bf546040517fbc5aad11000000000000000000000000000000000000000000000000000000008152600481019290925260248201526044016110ae565b42836101000135106132d8576040517fbf81c6e000000000000000000000000000000000000000000000000000000000815261010084013560048201524260248201526044016110ae565b6080830135613313576040517f2898482a00000000000000000000000000000000000000000000000000000000815260040160405180910390fd5b61335660408401356060850135608086013560a087013560c0880135604080519586526020860194909452928401919091526060830152608082015260a0902090565b90506133746133696101c0850185614f77565b856101a001356142d9565b61338b6133856101e0850185614f16565b846143df565b6020808401355f81815261011a909252604090912060808501359055610119556101bd8190556133e0610180840135610140850135610100860135604080519384526020840192909252908201526060902090565b6101bf558060208401356133f3846151f3565b60408051873581526080880135602082015291955085917fa0262dc79e4ccb71ceac8574ae906311ae338aa4a2044fd4ec4b99fad5ab60cb910160405180910390a492915050565b5f604051858152846020820152604060e0880160408301378360808201528260a082015260a0610120880160c08301376101808101610200880135602081026102208a018337602002902061016082015261018090207f30644e72e131a029b85045b68181585d2833e84879b9709143e1f593f000000190069695505050505050565b6040805160018082528183019092525f916020808301908036833701905050905084815f815181106134f2576134f2614ffe565b6020908102919091018101919091525f85815261011b909152604090205473ffffffffffffffffffffffffffffffffffffffff168061355d576040517f69ed70ab00000000000000000000000000000000000000000000000000000000815260040160405180910390fd5b5f808273ffffffffffffffffffffffffffffffffffffffff16637e4f7a8a60e01b87878760405160240161359393929190615305565b604080517fffffffffffffffffffffffffffffffffffffffffffffffffffffffffffffffe08184030181529181526020820180517bffffffffffffffffffffffffffffffffffffffffffffffffffffffff167fffffffff0000000000000000000000000000000000000000000000000000000090941693909317909252905161361c9190615376565b5f604051808303815f865af19150503d805f8114613655576040519150601f19603f3d011682016040523d82523d5f602084013e61365a565b606091505b5091509150816137015780511561369f57602081017bffffffffffffffffffffffffffffffffffffffffffffffffffffffff81511663ca389c4460e01b178152815181fd5b6040517fca389c4400000000000000000000000000000000000000000000000000000000815260206004820152600760248201527f556e6b6e6f776e0000000000000000000000000000000000000000000000000060448201526064016110ae565b5f818060200190518101906137169190615381565b90508061374f576040517f09bde33900000000000000000000000000000000000000000000000000000000815260040160405180910390fd5b505050505050505050565b600881901c5f90815261014f6020526040902054600160ff83161b16156137b0576040517f335a4a90000000000000000000000000000000000000000000000000000000008152600481018290526024016110ae565b600881901c5f90815261014f602052604090208054600160ff84161b17905550565b5f8060016137e18660026154c1565b6137eb9190614eaf565b90508063ffffffff168463ffffffff161115613843576040517ff7ec909700000000000000000000000000000000000000000000000000000000815263ffffffff8086166004830152821660248201526044016110ae565b865f5b868110156138c957600163ffffffff8716821c811690036138935761388c88888381811061387657613876614ffe565b90506020020135835f9182526020526040902090565b91506138c1565b6138be828989848181106138a9576138a9614ffe565b905060200201355f9182526020526040902090565b91505b600101613846565b509092149695505050505050565b5f6138e36020846154cc565b1561391a576040517f6426c6c500000000000000000000000000000000000000000000000000000000815260040160405180910390fd5b7f729eebce00000000000000000000000000000000000000000000000000000000835b80156139cf57602081039050808601357fff0000000000000000000000000000000000000000000000000000000000000081161561398057604051838152600481fd5b7f73eda753299d7d483339d80809a1d80553bda402fffe5bfeffffffff00000001817f73eda753299d7d483339d80809a1d80553bda402fffe5bfeffffffff000000018787090893505061393d565b50509392505050565b7f73eda753299d7d483339d80809a1d80553bda402fffe5bfeffffffff00000001840693505f80600a73ffffffffffffffffffffffffffffffffffffffff168787878787604051602001613a30959493929190615504565b604080517fffffffffffffffffffffffffffffffffffffffffffffffffffffffffffffffe081840301815290829052613a6891615376565b5f60405180830381855afa9150503d805f8114613aa0576040519150601f19603f3d011682016040523d82523d5f602084013e613aa5565b606091505b509150915081613ae1576040517fa71194af00000000000000000000000000000000000000000000000000000000815260040160405180910390fd5b6040815114613b29578051604080517ff75db3810000000000000000000000000000000000000000000000000000000081526110ae9290600401918252602082015260400190565b6020810151604082015161100082141580613b6457507f73eda753299d7d483339d80809a1d80553bda402fffe5bfeffffffff000000018114155b1561374f576040517f68dcad5f00000000000000000000000000000000000000000000000000000000815260048101839052602481018290526044016110ae565b7fffffffffffffffffffffffffffffffffffffffffffffffffffffffffffffffff82015f90815261014e60208181526040808420548452848252808420868552929091528083208290555190918391839186917fea3b023b4c8680d4b4824f0143132c95476359a2bb70a81d6c5a36f6918f63399190a4505050565b5f54610100900460ff16613cb7576040517f08c379a000000000000000000000000000000000000000000000000000000000815260206004820152602b60248201527f496e697469616c697a61626c653a20636f6e7472616374206973206e6f74206960448201527f6e697469616c697a696e6700000000000000000000000000000000000000000060648201526084016110ae565b825f5b81811015613dbe57858582818110613cd457613cd4614ffe565b9050604002016020013560db5f888885818110613cf357613cf3614ffe565b613d099260206040909202019081019150614911565b6008811115613d1a57613d1a614e0e565b6008811115613d2b57613d2b614e0e565b815260208101919091526040015f20557f33aa8fd1ce49e1761bc8d27fd53414bfefc45d690feed0ce55019d7d3aec6091868683818110613d6e57613d6e614ffe565b613d849260206040909202019081019150614911565b878784818110613d9657613d96614ffe565b90506040020160200135604051613dae92919061552a565b60405180910390a1600101613cba565b508190505f5b81811015613ec857838382818110613dde57613dde614ffe565b9050604002016020013560dc5f868685818110613dfd57613dfd614ffe565b613e139260206040909202019081019150614911565b6008811115613e2457613e24614e0e565b6008811115613e3557613e35614e0e565b815260208101919091526040015f20557fe7bf4b8dc0c17a52dc9e52323a3ab61cb2079db35f969125b1f8a3d984c6f6c2848483818110613e7857613e78614ffe565b613e8e9260206040909202019081019150614911565b858584818110613ea057613ea0614ffe565b90506040020160200135604051613eb892919061552a565b60405180910390a1600101613dc4565b505050505050565b5f54610100900460ff16613f66576040517f08c379a000000000000000000000000000000000000000000000000000000000815260206004820152602b60248201527f496e697469616c697a61626c653a20636f6e7472616374206973206e6f74206960448201527f6e697469616c697a696e6700000000000000000000000000000000000000000060648201526084016110ae565b613f6e614473565b613f76614473565b613f7e614473565b613f888282614509565b5050600160e455565b5f54610100900460ff16614027576040517f08c379a000000000000000000000000000000000000000000000000000000000815260206004820152602b60248201527f496e697469616c697a61626c653a20636f6e7472616374206973206e6f74206960448201527f6e697469616c697a696e6700000000000000000000000000000000000000000060648201526084016110ae565b805f5b8181101561414d575f84848381811061404557614045614ffe565b61405b9260206040909202019081019150614efb565b73ffffffffffffffffffffffffffffffffffffffff16036140a8576040517f8579befe00000000000000000000000000000000000000000000000000000000815260040160405180910390fd5b8383828181106140ba576140ba614ffe565b905060400201602001355f801b036140fe576040517f0742d05300000000000000000000000000000000000000000000000000000000815260040160405180910390fd5b61414584848381811061411357614113614ffe565b9050604002016020013585858481811061412f5761412f614ffe565b6124869260206040909202019081019150614efb565b60010161402a565b50505050565b5f82815260656020908152604080832073ffffffffffffffffffffffffffffffffffffffff8516845290915290205460ff166112d1576141928161466f565b61419d83602061468e565b6040516020016141ae929190615545565b604080517fffffffffffffffffffffffffffffffffffffffffffffffffffffffffffffffe0818403018152908290527f08c379a00000000000000000000000000000000000000000000000000000000082526110ae91600401614995565b815f0361424e5780156112d1576040517f0c256592000000000000000000000000000000000000000000000000000000008152600481018290526024016110ae565b80614288576040517f5228f4c8000000000000000000000000000000000000000000000000000000008152600481018390526024016110ae565b5f82815261014e602052604090205481146112d1576040517f36459fa000000000000000000000000000000000000000000000000000000000815260048101839052602481018290526044016110ae565b5f5b8281101561414d576101505f8585848181106142f9576142f9614ffe565b9050602002013581526020019081526020015f20545f146143625783838281811061432657614326614ffe565b905060200201356040517fe5d144250000000000000000000000000000000000000000000000000000000081526004016110ae91815260200190565b816101505f86868581811061437957614379614ffe565b9050602002013581526020019081526020015f2081905550818484838181106143a4576143a4614ffe565b905060200201357f300e6f978eee6a4b0bba78dd8400dc64fd5652dbfc868a2258e16d0977be222b60405160405180910390a36001016142db565b6143ea6002836154cc565b15614424576040517f0c91d776000000000000000000000000000000000000000000000000000000008152600481018390526024016110ae565b5f805b8381101561446c576040518582013560f01c9250838301907f3c116827db9db3a30c1a25db8b0ee4bab9d2b223560209cfd839601b621c726d905f90a2600201614427565b5050505050565b5f54610100900460ff16612fa6576040517f08c379a000000000000000000000000000000000000000000000000000000000815260206004820152602b60248201527f496e697469616c697a61626c653a20636f6e7472616374206973206e6f74206960448201527f6e697469616c697a696e6700000000000000000000000000000000000000000060648201526084016110ae565b5f54610100900460ff1661459f576040517f08c379a000000000000000000000000000000000000000000000000000000000815260206004820152602b60248201527f496e697469616c697a61626c653a20636f6e7472616374206973206e6f74206960448201527f6e697469616c697a696e6700000000000000000000000000000000000000000060648201526084016110ae565b815f036145d8576040517fb5ed5a3b00000000000000000000000000000000000000000000000000000000815260040160405180910390fd5b805f03614611576040517fd10d72bb00000000000000000000000000000000000000000000000000000000815260040160405180910390fd5b609782905560988190556146258242614ec2565b60998190556097546098546040805192835260208301919091528101919091527f8f805c372b66240792580418b7328c0c554ae235f0932475c51b026887fe26a990606001612725565b606061102a73ffffffffffffffffffffffffffffffffffffffff831660145b60605f61469c836002614ee4565b6146a7906002614ec2565b67ffffffffffffffff8111156146bf576146bf615067565b6040519080825280601f01601f1916602001820160405280156146e9576020820181803683370190505b5090507f3000000000000000000000000000000000000000000000000000000000000000815f8151811061471f5761471f614ffe565b60200101907effffffffffffffffffffffffffffffffffffffffffffffffffffffffffffff191690815f1a9053507f78000000000000000000000000000000000000000000000000000000000000008160018151811061478157614781614ffe565b60200101907effffffffffffffffffffffffffffffffffffffffffffffffffffffffffffff191690815f1a9053505f6147bb846002614ee4565b6147c6906001614ec2565b90505b6001811115614862577f303132333435363738396162636465660000000000000000000000000000000085600f166010811061480757614807614ffe565b1a60f81b82828151811061481d5761481d614ffe565b60200101907effffffffffffffffffffffffffffffffffffffffffffffffffffffffffffff191690815f1a90535060049490941c9361485b816155af565b90506147c9565b5083156148cb576040517f08c379a000000000000000000000000000000000000000000000000000000000815260206004820181905260248201527f537472696e67733a20686578206c656e67746820696e73756666696369656e7460448201526064016110ae565b9392505050565b5f602082840312156148e2575f80fd5b81357fffffffff00000000000000000000000000000000000000000000000000000000811681146148cb575f80fd5b5f60208284031215614921575f80fd5b8135600981106148cb575f80fd5b5f6020828403121561493f575f80fd5b5035919050565b73ffffffffffffffffffffffffffffffffffffffff81168114611c3b575f80fd5b5f8060408385031215614978575f80fd5b82359150602083013561498a81614946565b809150509250929050565b602081525f82518060208401528060208501604085015e5f6040828501015260407fffffffffffffffffffffffffffffffffffffffffffffffffffffffffffffffe0601f83011684010191505092915050565b5f8083601f8401126149f8575f80fd5b50813567ffffffffffffffff811115614a0f575f80fd5b602083019150836020828501011115614a26575f80fd5b9250929050565b5f805f805f805f8060e0898b031215614a44575f80fd5b8835614a4f81614946565b97506020890135614a5f81614946565b965060408901359550606089013594506080890135614a7d81614946565b935060a089013567ffffffffffffffff811115614a98575f80fd5b614aa48b828c016149e8565b999c989b50969995989497949560c00135949350505050565b5f805f8060608587031215614ad0575f80fd5b843567ffffffffffffffff811115614ae6575f80fd5b614af2878288016149e8565b90955093505060208501359150604085013567ffffffffffffffff811115614b18575f80fd5b85016102008188031215614b2a575f80fd5b939692955090935050565b5f60208284031215614b45575f80fd5b813567ffffffffffffffff811115614b5b575f80fd5b820161014081850312156148cb575f80fd5b5f805f60608486031215614b7f575f80fd5b833567ffffffffffffffff811115614b95575f80fd5b840160608187031215614ba6575f80fd5b95602085013595506040909401359392505050565b5f805f8060608587031215614bce575f80fd5b843567ffffffffffffffff811115614be4575f80fd5b8501601f81018713614bf4575f80fd5b803567ffffffffffffffff811115614c0a575f80fd5b8760208260051b8401011115614c1e575f80fd5b602091820198909750908601359560400135945092505050565b5f805f8060608587031215614c4b575f80fd5b8435614c5681614946565b935060208501359250604085013567ffffffffffffffff811115614c78575f80fd5b614c84878288016149e8565b95989497509550505050565b5f60208284031215614ca0575f80fd5b813567ffffffffffffffff811115614cb6575f80fd5b820161016081850312156148cb575f80fd5b5f805f60608486031215614cda575f80fd5b505081359360208301359350604090920135919050565b5f8083601f840112614d01575f80fd5b50813567ffffffffffffffff811115614d18575f80fd5b6020830191508360208260061b8501011115614a26575f80fd5b5f805f805f805f6080888a031215614d48575f80fd5b873567ffffffffffffffff811115614d5e575f80fd5b614d6a8a828b01614cf1565b909850965050602088013567ffffffffffffffff811115614d89575f80fd5b614d958a828b01614cf1565b909650945050604088013567ffffffffffffffff811115614db4575f80fd5b614dc08a828b01614cf1565b9094509250506060880135614dd481614946565b8091505092959891949750929550565b5f8060408385031215614df5575f80fd5b8235614e0081614946565b946020939093013593505050565b7f4e487b71000000000000000000000000000000000000000000000000000000005f52602160045260245ffd5b60098110614e70577f4e487b71000000000000000000000000000000000000000000000000000000005f52602160045260245ffd5b9052565b6020810161102a8284614e3b565b7f4e487b71000000000000000000000000000000000000000000000000000000005f52601160045260245ffd5b8181038181111561102a5761102a614e82565b8082018082111561102a5761102a614e82565b818382375f9101908152919050565b808202811582820484141761102a5761102a614e82565b5f60208284031215614f0b575f80fd5b81356148cb81614946565b5f8083357fffffffffffffffffffffffffffffffffffffffffffffffffffffffffffffffe1843603018112614f49575f80fd5b83018035915067ffffffffffffffff821115614f63575f80fd5b602001915036819003821315614a26575f80fd5b5f8083357fffffffffffffffffffffffffffffffffffffffffffffffffffffffffffffffe1843603018112614faa575f80fd5b83018035915067ffffffffffffffff821115614fc4575f80fd5b6020019150600581901b3603821315614a26575f80fd5b5f60208284031215614feb575f80fd5b813563ffffffff811681146148cb575f80fd5b7f4e487b71000000000000000000000000000000000000000000000000000000005f52603260045260245ffd5b5f82357fffffffffffffffffffffffffffffffffffffffffffffffffffffffffffffff6183360301811261505d575f80fd5b9190910192915050565b7f4e487b71000000000000000000000000000000000000000000000000000000005f52604160045260245ffd5b60405160a0810167ffffffffffffffff811182821017156150b7576150b7615067565b60405290565b5f82601f8301126150cc575f80fd5b813567ffffffffffffffff8111156150e6576150e6615067565b604051601f82017fffffffffffffffffffffffffffffffffffffffffffffffffffffffffffffffe0908116603f0116810167ffffffffffffffff8111828210171561513357615133615067565b60405281815283820160200185101561514a575f80fd5b816020850160208301375f918101602001919091529392505050565b5f60a08236031215615176575f80fd5b61517e615094565b82358152602083013567ffffffffffffffff81111561519b575f80fd5b6151a7368286016150bd565b602083015250604083013567ffffffffffffffff8111156151c6575f80fd5b6151d2368286016150bd565b60408301525060608381013590820152608092830135928101929092525090565b5f7fffffffffffffffffffffffffffffffffffffffffffffffffffffffffffffffff820361522357615223614e82565b5060010190565b81835281816020850137505f602082840101525f60207fffffffffffffffffffffffffffffffffffffffffffffffffffffffffffffffe0601f840116840101905092915050565b858152846020820152836040820152608060608201525f61529660808301848661522a565b979650505050505050565b5f8083357fffffffffffffffffffffffffffffffffffffffffffffffffffffffffffffffe18436030181126152d4575f80fd5b83018035915067ffffffffffffffff8211156152ee575f80fd5b6020019150600681901b3603821315614a26575f80fd5b604081525f61531860408301858761522a565b82810360208401528084518083526020830191506020860192505f5b81811015615352578351835260209384019390920191600101615334565b5090979650505050505050565b5f81518060208401855e5f93019283525090919050565b5f6148cb828461535f565b5f60208284031215615391575f80fd5b815180151581146148cb575f80fd5b6001815b60018411156153db578085048111156153bf576153bf614e82565b60018416156153cd57908102905b60019390931c9280026153a4565b935093915050565b5f826153f15750600161102a565b816153fd57505f61102a565b8160018114615413576002811461541d57615439565b600191505061102a565b60ff84111561542e5761542e614e82565b50506001821b61102a565b5060208310610133831016604e8410600b841016171561545c575081810a61102a565b6154877fffffffffffffffffffffffffffffffffffffffffffffffffffffffffffffffff84846153a0565b807fffffffffffffffffffffffffffffffffffffffffffffffffffffffffffffffff048211156154b9576154b9614e82565b029392505050565b5f6148cb83836153e3565b5f826154ff577f4e487b71000000000000000000000000000000000000000000000000000000005f52601260045260245ffd5b500690565b8581528460208201528360408201525f615296615524606084018661535f565b8461535f565b604081016155388285614e3b565b8260208301529392505050565b7f416363657373436f6e74726f6c3a206163636f756e742000000000000000000081525f615576601783018561535f565b7f206973206d697373696e6720726f6c652000000000000000000000000000000081526155a6601182018561535f565b95945050505050565b5f816155bd576155bd614e82565b507fffffffffffffffffffffffffffffffffffffffffffffffffffffffffffffffff019056fea264697066735822122093c0899fafcb326651661ea44d0d07175683e620b7aad7944aa1dbdd20f50bf064736f6c634300081a0033",
  "linkReferences": {},
  "deployedLinkReferences": {}
}