{
  "_format": "hh-sol-artifact-1",
  "contractName": "LineaRollup",
  "sourceName": "contracts/LineaRollup.sol",
  "abi": [
    {
      "inputs": [],
      "stateMutability": "nonpayable",
      "type": "constructor"
    },
    {
      "inputs": [],
      "name": "ArrayLengthsDoNotMatch",
      "type": "error"
    },
    {
      "inputs": [
        {
          "internalType": "uint256",
          "name": "emptyBlobIndex",
          "type": "uint256"
        }
      ],
      "name": "BlobSubmissionDataEmpty",
      "type": "error"
    },
    {
      "inputs": [],
      "name": "BlobSubmissionDataIsMissing",
      "type": "error"
    },
    {
      "inputs": [],
      "name": "BytesLengthNotMultipleOf32",
      "type": "error"
    },
    {
      "inputs": [
        {
          "internalType": "uint256",
          "name": "bytesLength",
          "type": "uint256"
        }
      ],
      "name": "BytesLengthNotMultipleOfTwo",
      "type": "error"
    },
    {
      "inputs": [
        {
          "internalType": "bytes32",
          "name": "currentDataHash",
          "type": "bytes32"
        }
      ],
      "name": "DataAlreadySubmitted",
      "type": "error"
    },
    {
      "inputs": [
        {
          "internalType": "uint256",
          "name": "index",
          "type": "uint256"
        }
      ],
      "name": "EmptyBlobDataAtIndex",
      "type": "error"
    },
    {
      "inputs": [],
      "name": "EmptySubmissionData",
      "type": "error"
    },
    {
      "inputs": [
        {
          "internalType": "address",
          "name": "recipient",
          "type": "address"
        }
      ],
      "name": "FeePaymentFailed",
      "type": "error"
    },
    {
      "inputs": [],
      "name": "FeeTooLow",
      "type": "error"
    },
    {
      "inputs": [
        {
          "internalType": "bytes32",
          "name": "shnarf",
          "type": "bytes32"
        }
      ],
      "name": "FinalBlobNotSubmitted",
      "type": "error"
    },
    {
      "inputs": [
        {
          "internalType": "uint256",
          "name": "finalBlockNumber",
          "type": "uint256"
        },
        {
          "internalType": "uint256",
          "name": "lastFinalizedBlock",
          "type": "uint256"
        }
      ],
      "name": "FinalBlockNumberLessThanOrEqualToLastFinalizedBlock",
      "type": "error"
    },
    {
      "inputs": [],
      "name": "FinalBlockStateEqualsZeroHash",
      "type": "error"
    },
    {
      "inputs": [
        {
          "internalType": "bytes32",
          "name": "expected",
          "type": "bytes32"
        },
        {
          "internalType": "bytes32",
          "name": "value",
          "type": "bytes32"
        }
      ],
      "name": "FinalShnarfWrong",
      "type": "error"
    },
    {
      "inputs": [
        {
          "internalType": "uint256",
          "name": "l2BlockTimestamp",
          "type": "uint256"
        },
        {
          "internalType": "uint256",
          "name": "currentBlockTimestamp",
          "type": "uint256"
        }
      ],
      "name": "FinalizationInTheFuture",
      "type": "error"
    },
    {
      "inputs": [
        {
          "internalType": "bytes32",
          "name": "expected",
          "type": "bytes32"
        },
        {
          "internalType": "bytes32",
          "name": "value",
          "type": "bytes32"
        }
      ],
      "name": "FinalizationStateIncorrect",
      "type": "error"
    },
    {
      "inputs": [],
      "name": "FirstByteIsNotZero",
      "type": "error"
    },
    {
      "inputs": [],
      "name": "InvalidMerkleProof",
      "type": "error"
    },
    {
      "inputs": [],
      "name": "InvalidProof",
      "type": "error"
    },
    {
      "inputs": [
        {
          "internalType": "string",
          "name": "errorReason",
          "type": "string"
        }
      ],
      "name": "InvalidProofOrProofVerificationRanOutOfGas",
      "type": "error"
    },
    {
      "inputs": [],
      "name": "InvalidProofType",
      "type": "error"
    },
    {
      "inputs": [
        {
          "internalType": "enum IPauseManager.PauseType",
          "name": "pauseType",
          "type": "uint8"
        }
      ],
      "name": "IsNotPaused",
      "type": "error"
    },
    {
      "inputs": [
        {
          "internalType": "enum IPauseManager.PauseType",
          "name": "pauseType",
          "type": "uint8"
        }
      ],
      "name": "IsPaused",
      "type": "error"
    },
    {
      "inputs": [
        {
          "internalType": "uint256",
          "name": "messageNumber",
          "type": "uint256"
        },
        {
          "internalType": "bytes32",
          "name": "rollingHash",
          "type": "bytes32"
        }
      ],
      "name": "L1RollingHashDoesNotExistOnL1",
      "type": "error"
    },
    {
      "inputs": [
        {
          "internalType": "bytes32",
          "name": "merkleRoot",
          "type": "bytes32"
        }
      ],
      "name": "L2MerkleRootAlreadyAnchored",
      "type": "error"
    },
    {
      "inputs": [],
      "name": "L2MerkleRootDoesNotExist",
      "type": "error"
    },
    {
      "inputs": [],
      "name": "LastFinalizationTimeNotLapsed",
      "type": "error"
    },
    {
      "inputs": [
        {
          "internalType": "uint32",
          "name": "leafIndex",
          "type": "uint32"
        },
        {
          "internalType": "uint32",
          "name": "maxAllowedIndex",
          "type": "uint32"
        }
      ],
      "name": "LeafIndexOutOfBounds",
      "type": "error"
    },
    {
      "inputs": [],
      "name": "LimitIsZero",
      "type": "error"
    },
    {
      "inputs": [
        {
          "internalType": "uint256",
          "name": "messageIndex",
          "type": "uint256"
        }
      ],
      "name": "MessageAlreadyClaimed",
      "type": "error"
    },
    {
      "inputs": [
        {
          "internalType": "bytes32",
          "name": "messageHash",
          "type": "bytes32"
        }
      ],
      "name": "MessageDoesNotExistOrHasAlreadyBeenClaimed",
      "type": "error"
    },
    {
      "inputs": [
        {
          "internalType": "address",
          "name": "destination",
          "type": "address"
        }
      ],
      "name": "MessageSendingFailed",
      "type": "error"
    },
    {
      "inputs": [
        {
          "internalType": "bytes32",
          "name": "rollingHash",
          "type": "bytes32"
        }
      ],
      "name": "MissingMessageNumberForRollingHash",
      "type": "error"
    },
    {
      "inputs": [
        {
          "internalType": "uint256",
          "name": "messageNumber",
          "type": "uint256"
        }
      ],
      "name": "MissingRollingHashForMessageNumber",
      "type": "error"
    },
    {
      "inputs": [],
      "name": "OnlyNonFallbackOperator",
      "type": "error"
    },
    {
      "inputs": [
        {
          "internalType": "bytes32",
          "name": "shnarf",
          "type": "bytes32"
        }
      ],
      "name": "ParentBlobNotSubmitted",
      "type": "error"
    },
    {
      "inputs": [],
      "name": "PeriodIsZero",
      "type": "error"
    },
    {
      "inputs": [],
      "name": "PointEvaluationFailed",
      "type": "error"
    },
    {
      "inputs": [
        {
          "internalType": "uint256",
          "name": "fieldElements",
          "type": "uint256"
        },
        {
          "internalType": "uint256",
          "name": "blsCurveModulus",
          "type": "uint256"
        }
      ],
      "name": "PointEvaluationResponseInvalid",
      "type": "error"
    },
    {
      "inputs": [
        {
          "internalType": "uint256",
          "name": "expected",
          "type": "uint256"
        },
        {
          "internalType": "uint256",
          "name": "actual",
          "type": "uint256"
        }
      ],
      "name": "PrecompileReturnDataLengthWrong",
      "type": "error"
    },
    {
      "inputs": [],
      "name": "ProofIsEmpty",
      "type": "error"
    },
    {
      "inputs": [
        {
          "internalType": "uint256",
          "name": "actual",
          "type": "uint256"
        },
        {
          "internalType": "uint256",
          "name": "expected",
          "type": "uint256"
        }
      ],
      "name": "ProofLengthDifferentThanMerkleDepth",
      "type": "error"
    },
    {
      "inputs": [],
      "name": "RateLimitExceeded",
      "type": "error"
    },
    {
      "inputs": [],
      "name": "ReentrantCall",
      "type": "error"
    },
    {
      "inputs": [
        {
          "internalType": "uint8",
          "name": "bits",
          "type": "uint8"
        },
        {
          "internalType": "uint256",
          "name": "value",
          "type": "uint256"
        }
      ],
      "name": "SafeCastOverflowedUintDowncast",
      "type": "error"
    },
    {
      "inputs": [],
      "name": "StartingRootHashDoesNotMatch",
      "type": "error"
    },
    {
      "inputs": [],
      "name": "ValueSentTooLow",
      "type": "error"
    },
    {
      "inputs": [],
      "name": "ZeroAddressNotAllowed",
      "type": "error"
    },
    {
      "inputs": [],
      "name": "ZeroHashNotAllowed",
      "type": "error"
    },
    {
      "anonymous": false,
      "inputs": [
        {
          "indexed": true,
          "internalType": "address",
          "name": "resettingAddress",
          "type": "address"
        }
      ],
      "name": "AmountUsedInPeriodReset",
      "type": "event"
    },
    {
      "anonymous": false,
      "inputs": [
        {
          "indexed": true,
          "internalType": "uint256",
          "name": "startBlockNumber",
          "type": "uint256"
        },
        {
          "indexed": true,
          "internalType": "uint256",
          "name": "endBlockNumber",
          "type": "uint256"
        },
        {
          "indexed": true,
          "internalType": "bytes32",
          "name": "shnarf",
          "type": "bytes32"
        },
        {
          "indexed": false,
          "internalType": "bytes32",
          "name": "parentStateRootHash",
          "type": "bytes32"
        },
        {
          "indexed": false,
          "internalType": "bytes32",
          "name": "finalStateRootHash",
          "type": "bytes32"
        }
      ],
      "name": "DataFinalizedV3",
      "type": "event"
    },
    {
      "anonymous": false,
      "inputs": [
        {
          "indexed": false,
          "internalType": "bytes32",
          "name": "parentShnarf",
          "type": "bytes32"
        },
        {
          "indexed": true,
          "internalType": "bytes32",
          "name": "shnarf",
          "type": "bytes32"
        },
        {
          "indexed": false,
          "internalType": "bytes32",
          "name": "finalStateRootHash",
          "type": "bytes32"
        }
      ],
      "name": "DataSubmittedV3",
      "type": "event"
    },
    {
      "anonymous": false,
      "inputs": [
        {
          "indexed": true,
          "internalType": "address",
          "name": "caller",
          "type": "address"
        },
        {
          "indexed": true,
          "internalType": "address",
          "name": "fallbackOperator",
          "type": "address"
        }
      ],
      "name": "FallbackOperatorAddressSet",
      "type": "event"
    },
    {
      "anonymous": false,
      "inputs": [
        {
          "indexed": true,
          "internalType": "address",
          "name": "caller",
          "type": "address"
        },
        {
          "indexed": true,
          "internalType": "address",
          "name": "fallbackOperator",
          "type": "address"
        }
      ],
      "name": "FallbackOperatorRoleGranted",
      "type": "event"
    },
    {
      "anonymous": false,
      "inputs": [
        {
          "indexed": false,
          "internalType": "uint8",
          "name": "version",
          "type": "uint8"
        }
      ],
      "name": "Initialized",
      "type": "event"
    },
    {
      "anonymous": false,
      "inputs": [
        {
          "indexed": true,
          "internalType": "bytes32",
          "name": "l2MerkleRoot",
          "type": "bytes32"
        },
        {
          "indexed": true,
          "internalType": "uint256",
          "name": "treeDepth",
          "type": "uint256"
        }
      ],
      "name": "L2MerkleRootAdded",
      "type": "event"
    },
    {
      "anonymous": false,
      "inputs": [
        {
          "indexed": true,
          "internalType": "uint256",
          "name": "l2Block",
          "type": "uint256"
        }
      ],
      "name": "L2MessagingBlockAnchored",
      "type": "event"
    },
    {
      "anonymous": false,
      "inputs": [
        {
          "indexed": true,
          "internalType": "address",
          "name": "amountChangeBy",
          "type": "address"
        },
        {
          "indexed": false,
          "internalType": "uint256",
          "name": "amount",
          "type": "uint256"
        },
        {
          "indexed": false,
          "internalType": "bool",
          "name": "amountUsedLoweredToLimit",
          "type": "bool"
        },
        {
          "indexed": false,
          "internalType": "bool",
          "name": "usedAmountResetToZero",
          "type": "bool"
        }
      ],
      "name": "LimitAmountChanged",
      "type": "event"
    },
    {
      "anonymous": false,
      "inputs": [
        {
          "indexed": true,
          "internalType": "bytes8",
          "name": "previousVersion",
          "type": "bytes8"
        },
        {
          "indexed": true,
          "internalType": "bytes8",
          "name": "newVersion",
          "type": "bytes8"
        }
      ],
      "name": "LineaRollupVersionChanged",
      "type": "event"
    },
    {
      "anonymous": false,
      "inputs": [
        {
          "indexed": true,
          "internalType": "bytes32",
          "name": "_messageHash",
          "type": "bytes32"
        }
      ],
      "name": "MessageClaimed",
      "type": "event"
    },
    {
      "anonymous": false,
      "inputs": [
        {
          "indexed": true,
          "internalType": "address",
          "name": "_from",
          "type": "address"
        },
        {
          "indexed": true,
          "internalType": "address",
          "name": "_to",
          "type": "address"
        },
        {
          "indexed": false,
          "internalType": "uint256",
          "name": "_fee",
          "type": "uint256"
        },
        {
          "indexed": false,
          "internalType": "uint256",
          "name": "_value",
          "type": "uint256"
        },
        {
          "indexed": false,
          "internalType": "uint256",
          "name": "_nonce",
          "type": "uint256"
        },
        {
          "indexed": false,
          "internalType": "bytes",
          "name": "_calldata",
          "type": "bytes"
        },
        {
          "indexed": true,
          "internalType": "bytes32",
          "name": "_messageHash",
          "type": "bytes32"
        }
      ],
      "name": "MessageSent",
      "type": "event"
    },
    {
      "anonymous": false,
      "inputs": [
        {
          "indexed": true,
          "internalType": "enum IPauseManager.PauseType",
          "name": "pauseType",
          "type": "uint8"
        },
        {
          "indexed": true,
          "internalType": "bytes32",
          "name": "role",
          "type": "bytes32"
        }
      ],
      "name": "PauseTypeRoleSet",
      "type": "event"
    },
    {
      "anonymous": false,
      "inputs": [
        {
          "indexed": false,
          "internalType": "address",
          "name": "messageSender",
          "type": "address"
        },
        {
          "indexed": true,
          "internalType": "enum IPauseManager.PauseType",
          "name": "pauseType",
          "type": "uint8"
        }
      ],
      "name": "Paused",
      "type": "event"
    },
    {
      "anonymous": false,
      "inputs": [
        {
          "indexed": false,
          "internalType": "uint256",
          "name": "periodInSeconds",
          "type": "uint256"
        },
        {
          "indexed": false,
          "internalType": "uint256",
          "name": "limitInWei",
          "type": "uint256"
        },
        {
          "indexed": false,
          "internalType": "uint256",
          "name": "currentPeriodEnd",
          "type": "uint256"
        }
      ],
      "name": "RateLimitInitialized",
      "type": "event"
    },
    {
      "anonymous": false,
      "inputs": [
        {
          "indexed": true,
          "internalType": "bytes32",
          "name": "role",
          "type": "bytes32"
        },
        {
          "indexed": true,
          "internalType": "bytes32",
          "name": "previousAdminRole",
          "type": "bytes32"
        },
        {
          "indexed": true,
          "internalType": "bytes32",
          "name": "newAdminRole",
          "type": "bytes32"
        }
      ],
      "name": "RoleAdminChanged",
      "type": "event"
    },
    {
      "anonymous": false,
      "inputs": [
        {
          "indexed": true,
          "internalType": "bytes32",
          "name": "role",
          "type": "bytes32"
        },
        {
          "indexed": true,
          "internalType": "address",
          "name": "account",
          "type": "address"
        },
        {
          "indexed": true,
          "internalType": "address",
          "name": "sender",
          "type": "address"
        }
      ],
      "name": "RoleGranted",
      "type": "event"
    },
    {
      "anonymous": false,
      "inputs": [
        {
          "indexed": true,
          "internalType": "bytes32",
          "name": "role",
          "type": "bytes32"
        },
        {
          "indexed": true,
          "internalType": "address",
          "name": "account",
          "type": "address"
        },
        {
          "indexed": true,
          "internalType": "address",
          "name": "sender",
          "type": "address"
        }
      ],
      "name": "RoleRevoked",
      "type": "event"
    },
    {
      "anonymous": false,
      "inputs": [
        {
          "indexed": true,
          "internalType": "uint256",
          "name": "messageNumber",
          "type": "uint256"
        },
        {
          "indexed": true,
          "internalType": "bytes32",
          "name": "rollingHash",
          "type": "bytes32"
        },
        {
          "indexed": true,
          "internalType": "bytes32",
          "name": "messageHash",
          "type": "bytes32"
        }
      ],
      "name": "RollingHashUpdated",
      "type": "event"
    },
    {
      "anonymous": false,
      "inputs": [
        {
          "indexed": true,
          "internalType": "enum IPauseManager.PauseType",
          "name": "unPauseType",
          "type": "uint8"
        },
        {
          "indexed": true,
          "internalType": "bytes32",
          "name": "role",
          "type": "bytes32"
        }
      ],
      "name": "UnPauseTypeRoleSet",
      "type": "event"
    },
    {
      "anonymous": false,
      "inputs": [
        {
          "indexed": false,
          "internalType": "address",
          "name": "messageSender",
          "type": "address"
        },
        {
          "indexed": true,
          "internalType": "enum IPauseManager.PauseType",
          "name": "pauseType",
          "type": "uint8"
        }
      ],
      "name": "UnPaused",
      "type": "event"
    },
    {
      "anonymous": false,
      "inputs": [
        {
          "indexed": true,
          "internalType": "address",
          "name": "verifierAddress",
          "type": "address"
        },
        {
          "indexed": true,
          "internalType": "uint256",
          "name": "proofType",
          "type": "uint256"
        },
        {
          "indexed": true,
          "internalType": "address",
          "name": "verifierSetBy",
          "type": "address"
        },
        {
          "indexed": false,
          "internalType": "address",
          "name": "oldVerifierAddress",
          "type": "address"
        }
      ],
      "name": "VerifierAddressChanged",
      "type": "event"
    },
    {
      "inputs": [],
      "name": "CONTRACT_VERSION",
      "outputs": [
        {
          "internalType": "string",
          "name": "",
          "type": "string"
        }
      ],
      "stateMutability": "view",
      "type": "function"
    },
    {
      "inputs": [],
      "name": "DEFAULT_ADMIN_ROLE",
      "outputs": [
        {
          "internalType": "bytes32",
          "name": "",
          "type": "bytes32"
        }
      ],
      "stateMutability": "view",
      "type": "function"
    },
    {
      "inputs": [],
      "name": "INBOX_STATUS_RECEIVED",
      "outputs": [
        {
          "internalType": "uint8",
          "name": "",
          "type": "uint8"
        }
      ],
      "stateMutability": "view",
      "type": "function"
    },
    {
      "inputs": [],
      "name": "INBOX_STATUS_UNKNOWN",
      "outputs": [
        {
          "internalType": "uint8",
          "name": "",
          "type": "uint8"
        }
      ],
      "stateMutability": "view",
      "type": "function"
    },
    {
      "inputs": [],
      "name": "OPERATOR_ROLE",
      "outputs": [
        {
          "internalType": "bytes32",
          "name": "",
          "type": "bytes32"
        }
      ],
      "stateMutability": "view",
      "type": "function"
    },
    {
      "inputs": [],
      "name": "OUTBOX_STATUS_RECEIVED",
      "outputs": [
        {
          "internalType": "uint8",
          "name": "",
          "type": "uint8"
        }
      ],
      "stateMutability": "view",
      "type": "function"
    },
    {
      "inputs": [],
      "name": "OUTBOX_STATUS_SENT",
      "outputs": [
        {
          "internalType": "uint8",
          "name": "",
          "type": "uint8"
        }
      ],
      "stateMutability": "view",
      "type": "function"
    },
    {
      "inputs": [],
      "name": "OUTBOX_STATUS_UNKNOWN",
      "outputs": [
        {
          "internalType": "uint8",
          "name": "",
          "type": "uint8"
        }
      ],
      "stateMutability": "view",
      "type": "function"
    },
    {
      "inputs": [],
      "name": "PAUSE_ALL_ROLE",
      "outputs": [
        {
          "internalType": "bytes32",
          "name": "",
          "type": "bytes32"
        }
      ],
      "stateMutability": "view",
      "type": "function"
    },
    {
      "inputs": [],
      "name": "PAUSE_BLOB_SUBMISSION_ROLE",
      "outputs": [
        {
          "internalType": "bytes32",
          "name": "",
          "type": "bytes32"
        }
      ],
      "stateMutability": "view",
      "type": "function"
    },
    {
      "inputs": [],
      "name": "PAUSE_FINALIZATION_ROLE",
      "outputs": [
        {
          "internalType": "bytes32",
          "name": "",
          "type": "bytes32"
        }
      ],
      "stateMutability": "view",
      "type": "function"
    },
    {
      "inputs": [],
      "name": "PAUSE_L1_L2_ROLE",
      "outputs": [
        {
          "internalType": "bytes32",
          "name": "",
          "type": "bytes32"
        }
      ],
      "stateMutability": "view",
      "type": "function"
    },
    {
      "inputs": [],
      "name": "PAUSE_L2_L1_ROLE",
      "outputs": [
        {
          "internalType": "bytes32",
          "name": "",
          "type": "bytes32"
        }
      ],
      "stateMutability": "view",
      "type": "function"
    },
    {
      "inputs": [],
      "name": "RATE_LIMIT_SETTER_ROLE",
      "outputs": [
        {
          "internalType": "bytes32",
          "name": "",
          "type": "bytes32"
        }
      ],
      "stateMutability": "view",
      "type": "function"
    },
    {
      "inputs": [],
      "name": "UNPAUSE_ALL_ROLE",
      "outputs": [
        {
          "internalType": "bytes32",
          "name": "",
          "type": "bytes32"
        }
      ],
      "stateMutability": "view",
      "type": "function"
    },
    {
      "inputs": [],
      "name": "UNPAUSE_BLOB_SUBMISSION_ROLE",
      "outputs": [
        {
          "internalType": "bytes32",
          "name": "",
          "type": "bytes32"
        }
      ],
      "stateMutability": "view",
      "type": "function"
    },
    {
      "inputs": [],
      "name": "UNPAUSE_FINALIZATION_ROLE",
      "outputs": [
        {
          "internalType": "bytes32",
          "name": "",
          "type": "bytes32"
        }
      ],
      "stateMutability": "view",
      "type": "function"
    },
    {
      "inputs": [],
      "name": "UNPAUSE_L1_L2_ROLE",
      "outputs": [
        {
          "internalType": "bytes32",
          "name": "",
          "type": "bytes32"
        }
      ],
      "stateMutability": "view",
      "type": "function"
    },
    {
      "inputs": [],
      "name": "UNPAUSE_L2_L1_ROLE",
      "outputs": [
        {
          "internalType": "bytes32",
          "name": "",
          "type": "bytes32"
        }
      ],
      "stateMutability": "view",
      "type": "function"
    },
    {
      "inputs": [],
      "name": "USED_RATE_LIMIT_RESETTER_ROLE",
      "outputs": [
        {
          "internalType": "bytes32",
          "name": "",
          "type": "bytes32"
        }
      ],
      "stateMutability": "view",
      "type": "function"
    },
    {
      "inputs": [],
      "name": "VERIFIER_SETTER_ROLE",
      "outputs": [
        {
          "internalType": "bytes32",
          "name": "",
          "type": "bytes32"
        }
      ],
      "stateMutability": "view",
      "type": "function"
    },
    {
      "inputs": [],
      "name": "VERIFIER_UNSETTER_ROLE",
      "outputs": [
        {
          "internalType": "bytes32",
          "name": "",
          "type": "bytes32"
        }
      ],
      "stateMutability": "view",
      "type": "function"
    },
    {
      "inputs": [
        {
          "internalType": "bytes32",
          "name": "shnarf",
          "type": "bytes32"
        }
      ],
      "name": "blobShnarfExists",
      "outputs": [
        {
          "internalType": "uint256",
          "name": "exists",
          "type": "uint256"
        }
      ],
      "stateMutability": "view",
      "type": "function"
    },
    {
      "inputs": [
        {
          "internalType": "address",
          "name": "_from",
          "type": "address"
        },
        {
          "internalType": "address",
          "name": "_to",
          "type": "address"
        },
        {
          "internalType": "uint256",
          "name": "_fee",
          "type": "uint256"
        },
        {
          "internalType": "uint256",
          "name": "_value",
          "type": "uint256"
        },
        {
          "internalType": "address payable",
          "name": "_feeRecipient",
          "type": "address"
        },
        {
          "internalType": "bytes",
          "name": "_calldata",
          "type": "bytes"
        },
        {
          "internalType": "uint256",
          "name": "_nonce",
          "type": "uint256"
        }
      ],
      "name": "claimMessage",
      "outputs": [],
      "stateMutability": "nonpayable",
      "type": "function"
    },
    {
      "inputs": [
        {
          "components": [
            {
              "internalType": "bytes32[]",
              "name": "proof",
              "type": "bytes32[]"
            },
            {
              "internalType": "uint256",
              "name": "messageNumber",
              "type": "uint256"
            },
            {
              "internalType": "uint32",
              "name": "leafIndex",
              "type": "uint32"
            },
            {
              "internalType": "address",
              "name": "from",
              "type": "address"
            },
            {
              "internalType": "address",
              "name": "to",
              "type": "address"
            },
            {
              "internalType": "uint256",
              "name": "fee",
              "type": "uint256"
            },
            {
              "internalType": "uint256",
              "name": "value",
              "type": "uint256"
            },
            {
              "internalType": "address payable",
              "name": "feeRecipient",
              "type": "address"
            },
            {
              "internalType": "bytes32",
              "name": "merkleRoot",
              "type": "bytes32"
            },
            {
              "internalType": "bytes",
              "name": "data",
              "type": "bytes"
            }
          ],
          "internalType": "struct IL1MessageService.ClaimMessageWithProofParams",
          "name": "_params",
          "type": "tuple"
        }
      ],
      "name": "claimMessageWithProof",
      "outputs": [],
      "stateMutability": "nonpayable",
      "type": "function"
    },
    {
      "inputs": [],
      "name": "currentFinalizedShnarf",
      "outputs": [
        {
          "internalType": "bytes32",
          "name": "",
          "type": "bytes32"
        }
      ],
      "stateMutability": "view",
      "type": "function"
    },
    {
      "inputs": [],
      "name": "currentFinalizedState",
      "outputs": [
        {
          "internalType": "bytes32",
          "name": "",
          "type": "bytes32"
        }
      ],
      "stateMutability": "view",
      "type": "function"
    },
    {
      "inputs": [],
      "name": "currentL2BlockNumber",
      "outputs": [
        {
          "internalType": "uint256",
          "name": "",
          "type": "uint256"
        }
      ],
      "stateMutability": "view",
      "type": "function"
    },
    {
      "inputs": [],
      "name": "currentL2StoredL1MessageNumber",
      "outputs": [
        {
          "internalType": "uint256",
          "name": "",
          "type": "uint256"
        }
      ],
      "stateMutability": "view",
      "type": "function"
    },
    {
      "inputs": [],
      "name": "currentL2StoredL1RollingHash",
      "outputs": [
        {
          "internalType": "bytes32",
          "name": "",
          "type": "bytes32"
        }
      ],
      "stateMutability": "view",
      "type": "function"
    },
    {
      "inputs": [],
      "name": "currentPeriodAmountInWei",
      "outputs": [
        {
          "internalType": "uint256",
          "name": "",
          "type": "uint256"
        }
      ],
      "stateMutability": "view",
      "type": "function"
    },
    {
      "inputs": [],
      "name": "currentPeriodEnd",
      "outputs": [
        {
          "internalType": "uint256",
          "name": "",
          "type": "uint256"
        }
      ],
      "stateMutability": "view",
      "type": "function"
    },
    {
      "inputs": [],
      "name": "currentTimestamp",
      "outputs": [
        {
          "internalType": "uint256",
          "name": "",
          "type": "uint256"
        }
      ],
      "stateMutability": "view",
      "type": "function"
    },
    {
      "inputs": [
        {
          "internalType": "bytes32",
          "name": "dataHash",
          "type": "bytes32"
        }
      ],
      "name": "dataEndingBlock",
      "outputs": [
        {
          "internalType": "uint256",
          "name": "endingBlock",
          "type": "uint256"
        }
      ],
      "stateMutability": "view",
      "type": "function"
    },
    {
      "inputs": [
        {
          "internalType": "bytes32",
          "name": "dataHash",
          "type": "bytes32"
        }
      ],
      "name": "dataFinalStateRootHashes",
      "outputs": [
        {
          "internalType": "bytes32",
          "name": "finalStateRootHash",
          "type": "bytes32"
        }
      ],
      "stateMutability": "view",
      "type": "function"
    },
    {
      "inputs": [
        {
          "internalType": "bytes32",
          "name": "dataHash",
          "type": "bytes32"
        }
      ],
      "name": "dataParents",
      "outputs": [
        {
          "internalType": "bytes32",
          "name": "parentHash",
          "type": "bytes32"
        }
      ],
      "stateMutability": "view",
      "type": "function"
    },
    {
      "inputs": [
        {
          "internalType": "bytes32",
          "name": "dataHash",
          "type": "bytes32"
        }
      ],
      "name": "dataShnarfHashes",
      "outputs": [
        {
          "internalType": "bytes32",
          "name": "shnarfHash",
          "type": "bytes32"
        }
      ],
      "stateMutability": "view",
      "type": "function"
    },
    {
      "inputs": [
        {
          "internalType": "bytes32",
          "name": "dataHash",
          "type": "bytes32"
        }
      ],
      "name": "dataStartingBlock",
      "outputs": [
        {
          "internalType": "uint256",
          "name": "startingBlock",
          "type": "uint256"
        }
      ],
      "stateMutability": "view",
      "type": "function"
    },
    {
      "inputs": [],
      "name": "fallbackOperator",
      "outputs": [
        {
          "internalType": "address",
          "name": "",
          "type": "address"
        }
      ],
      "stateMutability": "view",
      "type": "function"
    },
    {
      "inputs": [
        {
          "internalType": "bytes",
          "name": "_aggregatedProof",
          "type": "bytes"
        },
        {
          "internalType": "uint256",
          "name": "_proofType",
          "type": "uint256"
        },
        {
          "components": [
            {
              "internalType": "bytes32",
              "name": "parentStateRootHash",
              "type": "bytes32"
            },
            {
              "internalType": "uint256",
              "name": "endBlockNumber",
              "type": "uint256"
            },
            {
              "components": [
                {
                  "internalType": "bytes32",
                  "name": "parentShnarf",
                  "type": "bytes32"
                },
                {
                  "internalType": "bytes32",
                  "name": "snarkHash",
                  "type": "bytes32"
                },
                {
                  "internalType": "bytes32",
                  "name": "finalStateRootHash",
                  "type": "bytes32"
                },
                {
                  "internalType": "bytes32",
                  "name": "dataEvaluationPoint",
                  "type": "bytes32"
                },
                {
                  "internalType": "bytes32",
                  "name": "dataEvaluationClaim",
                  "type": "bytes32"
                }
              ],
              "internalType": "struct ILineaRollup.ShnarfData",
              "name": "shnarfData",
              "type": "tuple"
            },
            {
              "internalType": "uint256",
              "name": "lastFinalizedTimestamp",
              "type": "uint256"
            },
            {
              "internalType": "uint256",
              "name": "finalTimestamp",
              "type": "uint256"
            },
            {
              "internalType": "bytes32",
              "name": "lastFinalizedL1RollingHash",
              "type": "bytes32"
            },
            {
              "internalType": "bytes32",
              "name": "l1RollingHash",
              "type": "bytes32"
            },
            {
              "internalType": "uint256",
              "name": "lastFinalizedL1RollingHashMessageNumber",
              "type": "uint256"
            },
            {
              "internalType": "uint256",
              "name": "l1RollingHashMessageNumber",
              "type": "uint256"
            },
            {
              "internalType": "uint256",
              "name": "l2MerkleTreesDepth",
              "type": "uint256"
            },
            {
              "internalType": "bytes32[]",
              "name": "l2MerkleRoots",
              "type": "bytes32[]"
            },
            {
              "internalType": "bytes",
              "name": "l2MessagingBlocksOffsets",
              "type": "bytes"
            }
          ],
          "internalType": "struct ILineaRollup.FinalizationDataV3",
          "name": "_finalizationData",
          "type": "tuple"
        }
      ],
      "name": "finalizeBlocks",
      "outputs": [],
      "stateMutability": "nonpayable",
      "type": "function"
    },
    {
      "inputs": [
        {
          "internalType": "bytes32",
          "name": "role",
          "type": "bytes32"
        }
      ],
      "name": "getRoleAdmin",
      "outputs": [
        {
          "internalType": "bytes32",
          "name": "",
          "type": "bytes32"
        }
      ],
      "stateMutability": "view",
      "type": "function"
    },
    {
      "inputs": [
        {
          "internalType": "bytes32",
          "name": "role",
          "type": "bytes32"
        },
        {
          "internalType": "address",
          "name": "account",
          "type": "address"
        }
      ],
      "name": "grantRole",
      "outputs": [],
      "stateMutability": "nonpayable",
      "type": "function"
    },
    {
      "inputs": [
        {
          "internalType": "bytes32",
          "name": "role",
          "type": "bytes32"
        },
        {
          "internalType": "address",
          "name": "account",
          "type": "address"
        }
      ],
      "name": "hasRole",
      "outputs": [
        {
          "internalType": "bool",
          "name": "",
          "type": "bool"
        }
      ],
      "stateMutability": "view",
      "type": "function"
    },
    {
      "inputs": [
        {
          "internalType": "bytes32",
          "name": "messageHash",
          "type": "bytes32"
        }
      ],
      "name": "inboxL2L1MessageStatus",
      "outputs": [
        {
          "internalType": "uint256",
          "name": "messageStatus",
          "type": "uint256"
        }
      ],
      "stateMutability": "view",
      "type": "function"
    },
    {
      "inputs": [
        {
          "components": [
            {
              "internalType": "bytes32",
              "name": "initialStateRootHash",
              "type": "bytes32"
            },
            {
              "internalType": "uint256",
              "name": "initialL2BlockNumber",
              "type": "uint256"
            },
            {
              "internalType": "uint256",
              "name": "genesisTimestamp",
              "type": "uint256"
            },
            {
              "internalType": "address",
              "name": "defaultVerifier",
              "type": "address"
            },
            {
              "internalType": "uint256",
              "name": "rateLimitPeriodInSeconds",
              "type": "uint256"
            },
            {
              "internalType": "uint256",
              "name": "rateLimitAmountInWei",
              "type": "uint256"
            },
            {
              "components": [
                {
                  "internalType": "address",
                  "name": "addressWithRole",
                  "type": "address"
                },
                {
                  "internalType": "bytes32",
                  "name": "role",
                  "type": "bytes32"
                }
              ],
              "internalType": "struct IPermissionsManager.RoleAddress[]",
              "name": "roleAddresses",
              "type": "tuple[]"
            },
            {
              "components": [
                {
                  "internalType": "enum IPauseManager.PauseType",
                  "name": "pauseType",
                  "type": "uint8"
                },
                {
                  "internalType": "bytes32",
                  "name": "role",
                  "type": "bytes32"
                }
              ],
              "internalType": "struct IPauseManager.PauseTypeRole[]",
              "name": "pauseTypeRoles",
              "type": "tuple[]"
            },
            {
              "components": [
                {
                  "internalType": "enum IPauseManager.PauseType",
                  "name": "pauseType",
                  "type": "uint8"
                },
                {
                  "internalType": "bytes32",
                  "name": "role",
                  "type": "bytes32"
                }
              ],
              "internalType": "struct IPauseManager.PauseTypeRole[]",
              "name": "unpauseTypeRoles",
              "type": "tuple[]"
            },
            {
              "internalType": "address",
              "name": "fallbackOperator",
              "type": "address"
            },
            {
              "internalType": "address",
              "name": "defaultAdmin",
              "type": "address"
            }
          ],
          "internalType": "struct ILineaRollup.InitializationData",
          "name": "_initializationData",
          "type": "tuple"
        }
      ],
      "name": "initialize",
      "outputs": [],
      "stateMutability": "nonpayable",
      "type": "function"
    },
    {
      "inputs": [
        {
          "internalType": "uint256",
          "name": "_messageNumber",
          "type": "uint256"
        }
      ],
      "name": "isMessageClaimed",
      "outputs": [
        {
          "internalType": "bool",
          "name": "isClaimed",
          "type": "bool"
        }
      ],
      "stateMutability": "view",
      "type": "function"
    },
    {
      "inputs": [
        {
          "internalType": "enum IPauseManager.PauseType",
          "name": "_pauseType",
          "type": "uint8"
        }
      ],
      "name": "isPaused",
      "outputs": [
        {
          "internalType": "bool",
          "name": "pauseTypeIsPaused",
          "type": "bool"
        }
      ],
      "stateMutability": "view",
      "type": "function"
    },
    {
      "inputs": [
        {
          "internalType": "bytes32",
          "name": "merkleRoot",
          "type": "bytes32"
        }
      ],
      "name": "l2MerkleRootsDepths",
      "outputs": [
        {
          "internalType": "uint256",
          "name": "treeDepth",
          "type": "uint256"
        }
      ],
      "stateMutability": "view",
      "type": "function"
    },
    {
      "inputs": [],
      "name": "limitInWei",
      "outputs": [
        {
          "internalType": "uint256",
          "name": "",
          "type": "uint256"
        }
      ],
      "stateMutability": "view",
      "type": "function"
    },
    {
      "inputs": [],
      "name": "nextMessageNumber",
      "outputs": [
        {
          "internalType": "uint256",
          "name": "",
          "type": "uint256"
        }
      ],
      "stateMutability": "view",
      "type": "function"
    },
    {
      "inputs": [
        {
          "internalType": "bytes32",
          "name": "messageHash",
          "type": "bytes32"
        }
      ],
      "name": "outboxL1L2MessageStatus",
      "outputs": [
        {
          "internalType": "uint256",
          "name": "messageStatus",
          "type": "uint256"
        }
      ],
      "stateMutability": "view",
      "type": "function"
    },
    {
      "inputs": [
        {
          "internalType": "enum IPauseManager.PauseType",
          "name": "_pauseType",
          "type": "uint8"
        }
      ],
      "name": "pauseByType",
      "outputs": [],
      "stateMutability": "nonpayable",
      "type": "function"
    },
    {
      "inputs": [
        {
          "internalType": "bytes32",
          "name": "pauseType",
          "type": "bytes32"
        }
      ],
      "name": "pauseTypeStatuses",
      "outputs": [
        {
          "internalType": "bool",
          "name": "pauseStatus",
          "type": "bool"
        }
      ],
      "stateMutability": "view",
      "type": "function"
    },
    {
      "inputs": [],
      "name": "periodInSeconds",
      "outputs": [
        {
          "internalType": "uint256",
          "name": "",
          "type": "uint256"
        }
      ],
      "stateMutability": "view",
      "type": "function"
    },
    {
      "inputs": [
        {
          "components": [
            {
              "internalType": "address",
              "name": "addressWithRole",
              "type": "address"
            },
            {
              "internalType": "bytes32",
              "name": "role",
              "type": "bytes32"
            }
          ],
          "internalType": "struct IPermissionsManager.RoleAddress[]",
          "name": "_roleAddresses",
          "type": "tuple[]"
        },
        {
          "components": [
            {
              "internalType": "enum IPauseManager.PauseType",
              "name": "pauseType",
              "type": "uint8"
            },
            {
              "internalType": "bytes32",
              "name": "role",
              "type": "bytes32"
            }
          ],
          "internalType": "struct IPauseManager.PauseTypeRole[]",
          "name": "_pauseTypeRoles",
          "type": "tuple[]"
        },
        {
          "components": [
            {
              "internalType": "enum IPauseManager.PauseType",
              "name": "pauseType",
              "type": "uint8"
            },
            {
              "internalType": "bytes32",
              "name": "role",
              "type": "bytes32"
            }
          ],
          "internalType": "struct IPauseManager.PauseTypeRole[]",
          "name": "_unpauseTypeRoles",
          "type": "tuple[]"
        },
        {
          "internalType": "address",
          "name": "_fallbackOperator",
          "type": "address"
        }
      ],
      "name": "reinitializeLineaRollupV6",
      "outputs": [],
      "stateMutability": "nonpayable",
      "type": "function"
    },
    {
      "inputs": [
        {
          "internalType": "bytes32",
          "name": "_role",
          "type": "bytes32"
        },
        {
          "internalType": "address",
          "name": "_account",
          "type": "address"
        }
      ],
      "name": "renounceRole",
      "outputs": [],
      "stateMutability": "nonpayable",
      "type": "function"
    },
    {
      "inputs": [],
      "name": "resetAmountUsedInPeriod",
      "outputs": [],
      "stateMutability": "nonpayable",
      "type": "function"
    },
    {
      "inputs": [
        {
          "internalType": "uint256",
          "name": "_amount",
          "type": "uint256"
        }
      ],
      "name": "resetRateLimitAmount",
      "outputs": [],
      "stateMutability": "nonpayable",
      "type": "function"
    },
    {
      "inputs": [
        {
          "internalType": "bytes32",
          "name": "role",
          "type": "bytes32"
        },
        {
          "internalType": "address",
          "name": "account",
          "type": "address"
        }
      ],
      "name": "revokeRole",
      "outputs": [],
      "stateMutability": "nonpayable",
      "type": "function"
    },
    {
      "inputs": [
        {
          "internalType": "uint256",
          "name": "messageNumber",
          "type": "uint256"
        }
      ],
      "name": "rollingHashes",
      "outputs": [
        {
          "internalType": "bytes32",
          "name": "rollingHash",
          "type": "bytes32"
        }
      ],
      "stateMutability": "view",
      "type": "function"
    },
    {
      "inputs": [
        {
          "internalType": "address",
          "name": "_to",
          "type": "address"
        },
        {
          "internalType": "uint256",
          "name": "_fee",
          "type": "uint256"
        },
        {
          "internalType": "bytes",
          "name": "_calldata",
          "type": "bytes"
        }
      ],
      "name": "sendMessage",
      "outputs": [],
      "stateMutability": "payable",
      "type": "function"
    },
    {
      "inputs": [],
      "name": "sender",
      "outputs": [
        {
          "internalType": "address",
          "name": "originalSender",
          "type": "address"
        }
      ],
      "stateMutability": "view",
      "type": "function"
    },
    {
      "inputs": [
        {
          "internalType": "uint256",
          "name": "_messageNumber",
          "type": "uint256"
        },
        {
          "internalType": "bytes32",
          "name": "_rollingHash",
          "type": "bytes32"
        },
        {
          "internalType": "uint256",
          "name": "_lastFinalizedTimestamp",
          "type": "uint256"
        }
      ],
      "name": "setFallbackOperator",
      "outputs": [],
      "stateMutability": "nonpayable",
      "type": "function"
    },
    {
      "inputs": [
        {
          "internalType": "address",
          "name": "_newVerifierAddress",
          "type": "address"
        },
        {
          "internalType": "uint256",
          "name": "_proofType",
          "type": "uint256"
        }
      ],
      "name": "setVerifierAddress",
      "outputs": [],
      "stateMutability": "nonpayable",
      "type": "function"
    },
    {
      "inputs": [
        {
          "internalType": "uint256",
          "name": "blockNumber",
          "type": "uint256"
        }
      ],
      "name": "stateRootHashes",
      "outputs": [
        {
          "internalType": "bytes32",
          "name": "stateRootHash",
          "type": "bytes32"
        }
      ],
      "stateMutability": "view",
      "type": "function"
    },
    {
      "inputs": [
        {
          "components": [
            {
              "internalType": "uint256",
              "name": "dataEvaluationClaim",
              "type": "uint256"
            },
            {
              "internalType": "bytes",
              "name": "kzgCommitment",
              "type": "bytes"
            },
            {
              "internalType": "bytes",
              "name": "kzgProof",
              "type": "bytes"
            },
            {
              "internalType": "bytes32",
              "name": "finalStateRootHash",
              "type": "bytes32"
            },
            {
              "internalType": "bytes32",
              "name": "snarkHash",
              "type": "bytes32"
            }
          ],
          "internalType": "struct ILineaRollup.BlobSubmission[]",
          "name": "_blobSubmissions",
          "type": "tuple[]"
        },
        {
          "internalType": "bytes32",
          "name": "_parentShnarf",
          "type": "bytes32"
        },
        {
          "internalType": "bytes32",
          "name": "_finalBlobShnarf",
          "type": "bytes32"
        }
      ],
      "name": "submitBlobs",
      "outputs": [],
      "stateMutability": "nonpayable",
      "type": "function"
    },
    {
      "inputs": [
        {
          "components": [
            {
              "internalType": "bytes32",
              "name": "finalStateRootHash",
              "type": "bytes32"
            },
            {
              "internalType": "bytes32",
              "name": "snarkHash",
              "type": "bytes32"
            },
            {
              "internalType": "bytes",
              "name": "compressedData",
              "type": "bytes"
            }
          ],
          "internalType": "struct ILineaRollup.CompressedCalldataSubmission",
          "name": "_submission",
          "type": "tuple"
        },
        {
          "internalType": "bytes32",
          "name": "_parentShnarf",
          "type": "bytes32"
        },
        {
          "internalType": "bytes32",
          "name": "_expectedShnarf",
          "type": "bytes32"
        }
      ],
      "name": "submitDataAsCalldata",
      "outputs": [],
      "stateMutability": "nonpayable",
      "type": "function"
    },
    {
      "inputs": [
        {
          "internalType": "bytes4",
          "name": "interfaceId",
          "type": "bytes4"
        }
      ],
      "name": "supportsInterface",
      "outputs": [
        {
          "internalType": "bool",
          "name": "",
          "type": "bool"
        }
      ],
      "stateMutability": "view",
      "type": "function"
    },
    {
      "inputs": [],
      "name": "systemMigrationBlock",
      "outputs": [
        {
          "internalType": "uint256",
          "name": "",
          "type": "uint256"
        }
      ],
      "stateMutability": "view",
      "type": "function"
    },
    {
      "inputs": [
        {
          "internalType": "enum IPauseManager.PauseType",
          "name": "_pauseType",
          "type": "uint8"
        }
      ],
      "name": "unPauseByType",
      "outputs": [],
      "stateMutability": "nonpayable",
      "type": "function"
    },
    {
      "inputs": [
        {
          "internalType": "uint256",
          "name": "_proofType",
          "type": "uint256"
        }
      ],
      "name": "unsetVerifierAddress",
      "outputs": [],
      "stateMutability": "nonpayable",
      "type": "function"
    },
    {
      "inputs": [
        {
          "internalType": "uint256",
          "name": "proofType",
          "type": "uint256"
        }
      ],
      "name": "verifiers",
      "outputs": [
        {
          "internalType": "address",
          "name": "verifierAddress",
          "type": "address"
        }
      ],
      "stateMutability": "view",
      "type": "function"
    }
  ],
  "bytecode": "0x6080604052348015600e575f80fd5b5060156019565b60d3565b5f54610100900460ff161560835760405162461bcd60e51b815260206004820152602760248201527f496e697469616c697a61626c653a20636f6e747261637420697320696e697469604482015266616c697a696e6760c81b606482015260840160405180910390fd5b5f5460ff9081161460d1575f805460ff191660ff9081179091556040519081527f7f26b83ff96e1f2b6a682f133852f6798a09c465da95921460cefb38474024989060200160405180910390a15b565b61535e806100e05f395ff3fe608060405260043610610483575f3560e01c806373bd07b711610251578063b837dbe91161013c578063cc5782f6116100b7578063d547741f11610087578063d722bbfc1161006d578063d722bbfc14610e53578063e196fb5d14610e86578063f5b541a614610ea5575f80fd5b8063d547741f14610e1e578063d5d4b83514610e3d575f80fd5b8063cc5782f614610d87578063cc6f725114610db5578063cd9b9e9a14610de8578063cf5b276414610dfe575f80fd5b8063bf3e75051161010c578063c0c4e584116100f2578063c0c4e58414610d34578063c1dc0f0714610d53578063c211697414610d68575f80fd5b8063bf3e750514610cec578063c0729ab114610d1f575f80fd5b8063b837dbe914610c66578063b9174ba314610c7b578063bc61e73314610cae578063bcc3003d14610ccd575f80fd5b80639ac25d08116101cc578063a98e773d1161019c578063ad422ff011610182578063ad422ff014610c0a578063aea4f74514610c1f578063b59faa6014610c33575f80fd5b8063a98e773d14610bb6578063ac1eff6814610bd5575f80fd5b80639ac25d0814610b3e5780639ee8b21114610b715780639f3ce55a14610b90578063a217fddf14610ba3575f80fd5b8063914e57eb11610221578063921b278e11610207578063921b278e14610b09578063986fcddd14610a2757806399467a3514610b1f575f80fd5b8063914e57eb14610a9957806391d1485414610ac5575f80fd5b806373bd07b714610a135780637d1e8c5514610a275780638be745d114610a3a5780638de4948714610a66575f80fd5b80634cdd389b1161037157806360e83cf3116102ec57806367e404ce116102bc578063695378f5116102a2578063695378f5146109975780636a906b80146109ad5780636e673843146109e0575f80fd5b806367e404ce1461094c5780636854f6bc14610978575f80fd5b806360e83cf3146108a257806363213155146108ce5780636463fb2a1461090157806366f96e9814610920575f80fd5b806358794456116103415780635c721a0c116103275780635c721a0c1461081f5780635ed73ceb1461084a5780636078bfd814610876575f80fd5b8063587944561461080a5780635b7eb4bd14610728575f80fd5b80634cdd389b1461076d5780635230eef214610799578063557eac73146107cc5780635603c65f146107eb575f80fd5b8063289581741161040157806338b90333116103d15780633fc08b65116103b75780633fc08b65146106fd57806348922ab714610728578063491e09361461074e575f80fd5b806338b90333146106755780633b12eccb146106ca575f80fd5b806328958174146106025780632c70645c146106215780632f2ff15d1461063757806336568abe14610656575f80fd5b806312d3fa9a116104565780631f443da01161043c5780631f443da01461057c5780632130d812146105a8578063248a9ca3146105d4575f80fd5b806312d3fa9a146105335780631e2ff94f14610566575f80fd5b806301ffc9a71461048757806303134d1d146104bb57806305861180146104fc5780631065a39914610512575b5f80fd5b348015610492575f80fd5b506104a66104a13660046146a1565b610ed8565b60405190151581526020015b60405180910390f35b3480156104c6575f80fd5b506104ee7f1ab87f7458c0e3d07e9881c14ee67f0141703614fd48ea5b15ed987e5f4b030e81565b6040519081526020016104b2565b348015610507575f80fd5b506104ee6101bb5481565b34801561051d575f80fd5b5061053161052c3660046146e0565b610f70565b005b34801561053e575f80fd5b506104ee7f67c2dca7476ee0fe1dd3cba13428c6760bfe2599a6dfe26a9ad7ef27317c6e7781565b348015610571575f80fd5b506104ee6101185481565b348015610587575f80fd5b506104ee6105963660046146fe565b6101b96020525f908152604090205481565b3480156105b3575f80fd5b506104ee6105c23660046146fe565b6101be6020525f908152604090205481565b3480156105df575f80fd5b506104ee6105ee3660046146fe565b5f9081526065602052604090206001015490565b34801561060d575f80fd5b5061053161061c3660046146fe565b61106c565b34801561062c575f80fd5b506104ee6101835481565b348015610642575f80fd5b50610531610651366004614729565b61111f565b348015610661575f80fd5b50610531610670366004614729565b611148565b348015610680575f80fd5b506106bd6040518060400160405280600381526020017f362e30000000000000000000000000000000000000000000000000000000000081525081565b6040516104b29190614757565b3480156106d5575f80fd5b506104ee7fb6cc65f42901ed602aec1619cc1ead29d487cd489094a37615153eaeb991d77081565b348015610708575f80fd5b506104ee6107173660046146fe565b60a56020525f908152604090205481565b348015610733575f80fd5b5061073c600181565b60405160ff90911681526020016104b2565b348015610759575f80fd5b506105316107683660046147d1565b61119f565b348015610778575f80fd5b506104ee6107873660046146fe565b6101b76020525f908152604090205481565b3480156107a4575f80fd5b506104ee7f0cf0d2deb70d7bdac2fa48c4ac99bc558170be0ce5fcb994caefa4bf7b96edf981565b3480156107d7575f80fd5b506105316107e63660046146fe565b611455565b3480156107f6575f80fd5b50610531610805366004614861565b61151b565b348015610815575f80fd5b506104ee60995481565b34801561082a575f80fd5b506104ee6108393660046146fe565b60a66020525f908152604090205481565b348015610855575f80fd5b506104ee6108643660046146fe565b6101ba6020525f908152604090205481565b348015610881575f80fd5b506104ee6108903660046146fe565b6101b66020525f908152604090205481565b3480156108ad575f80fd5b506104ee6108bc3660046146fe565b6101506020525f908152604090205481565b3480156108d9575f80fd5b506104ee7fe37c272ea30e2bb381ad7cf89ae754b49153250609f36d0cbdad8b64c184bb5c81565b34801561090c575f80fd5b5061053161091b3660046148d9565b611613565b34801561092b575f80fd5b506104ee61093a3660046146fe565b6101b86020525f908152604090205481565b348015610957575f80fd5b50610960611a6c565b6040516001600160a01b0390911681526020016104b2565b348015610983575f80fd5b50610531610992366004614911565b611aa4565b3480156109a2575f80fd5b506104ee6101195481565b3480156109b8575f80fd5b506104ee7fd8b4c34c2ec1f3194471108c64ad2beda340c0337ee4ca35592f9ef270f4228b81565b3480156109eb575f80fd5b506104ee7f32937fd5162e282df7e9a14a5073a2425321c7966eaf70ed6c838a1006d84c4c81565b348015610a1e575f80fd5b5061073c600281565b348015610a32575f80fd5b5061073c5f81565b348015610a45575f80fd5b506104ee610a543660046146fe565b61011a6020525f908152604090205481565b348015610a71575f80fd5b506104ee7fe1fce82838dd7a42cfe783f60dc6233c8aa2c4fc66e77817805e767ec5e349b681565b348015610aa4575f80fd5b506104ee610ab33660046146fe565b61014e6020525f908152604090205481565b348015610ad0575f80fd5b506104a6610adf366004614729565b5f9182526065602090815260408084206001600160a01b0393909316845291905290205460ff1690565b348015610b14575f80fd5b506104ee6101bf5481565b348015610b2a575f80fd5b50610531610b3936600461495f565b611ce4565b348015610b49575f80fd5b506104ee7f56bdc3c9ec86cb7db110a7699b2ade72f0b8819727d9f7d906b012641505fa7781565b348015610b7c575f80fd5b506104a6610b8b3660046146fe565b611fc8565b610531610b9e3660046149dc565b611feb565b348015610bae575f80fd5b506104ee5f81565b348015610bc1575f80fd5b50610531610bd0366004614a34565b61210d565b348015610be0575f80fd5b50610960610bef3660046146fe565b61011b6020525f90815260409020546001600160a01b031681565b348015610c15575f80fd5b506104ee60985481565b348015610c2a575f80fd5b506105316124c7565b348015610c3e575f80fd5b506104ee7fe4831f9e4316ac2c65117d1f602fbf56d38128a9973d5e3fdbc5b77265c18d4081565b348015610c71575f80fd5b506104ee60e45481565b348015610c86575f80fd5b506104ee7f430a7f0cb00b5ebbe63cecc96e82cf959a883e7c13a95110854f1fa6b3fbf59881565b348015610cb9575f80fd5b506104a6610cc83660046146e0565b612522565b348015610cd8575f80fd5b50610531610ce7366004614a6c565b612546565b348015610cf7575f80fd5b506104ee7f1185e52d62bfbbea270e57d3d09733d221b53ab7a18bae82bb3c6c74bab16d8281565b348015610d2a575f80fd5b506104ee609a5481565b348015610d3f575f80fd5b50610531610d4e366004614ad6565b612676565b348015610d5e575f80fd5b506104ee60975481565b348015610d73575f80fd5b50610531610d82366004614b88565b6128dc565b348015610d92575f80fd5b506104a6610da13660046146fe565b60d96020525f908152604090205460ff1681565b348015610dc0575f80fd5b506104ee7fe8cb6172fcf5cbaae022b7c910224a4f0c20d53227e630056efff182155a5abc81565b348015610df3575f80fd5b506104ee6101bd5481565b348015610e09575f80fd5b506101c054610960906001600160a01b031681565b348015610e29575f80fd5b50610531610e38366004614729565b6129e2565b348015610e48575f80fd5b506104ee6101bc5481565b348015610e5e575f80fd5b506104ee7f6b5661ddfbd1fbd525c902a513e0f47d9c74f1c1ee8a2d4f1937ad305fb8f41a81565b348015610e91575f80fd5b50610531610ea03660046146e0565b612a06565b348015610eb0575f80fd5b506104ee7f97667070c54ef182b0f5858b034beac1b6f3089aa2d3188bb1e8929f4fa9b92981565b5f7fffffffff0000000000000000000000000000000000000000000000000000000082167f7965db0b000000000000000000000000000000000000000000000000000000001480610f6a57507f01ffc9a7000000000000000000000000000000000000000000000000000000007fffffffff000000000000000000000000000000000000000000000000000000008316145b92915050565b60dc5f826008811115610f8557610f85614bb2565b6008811115610f9657610f96614bb2565b81526020019081526020015f2054610fad81612ade565b610fb682612522565b610ff757816040517f18659654000000000000000000000000000000000000000000000000000000008152600401610fee9190614bdf565b60405180910390fd5b81600881111561100957611009614bb2565b60da8054600190921b19909116905581600881111561102a5761102a614bb2565b7fd071d2b85dec4489435b541d2f0e2570db09b09db9efd8703948d44a433df65a335b6040516001600160a01b03909116815260200160405180910390a25050565b7f6b5661ddfbd1fbd525c902a513e0f47d9c74f1c1ee8a2d4f1937ad305fb8f41a61109681612ade565b5f82815261011b602090815260408083205490516001600160a01b0390911681523392859290917f4a29db3fc6b42bda201e4b4d69ce8d575eeeba5f153509c0d0a342af0f1bd021910160405180910390a4505f90815261011b6020526040902080547fffffffffffffffffffffffff0000000000000000000000000000000000000000169055565b5f8281526065602052604090206001015461113981612ade565b6111438383612ae8565b505050565b6101c0546001600160a01b0390811690821603611191576040517f7f7497e900000000000000000000000000000000000000000000000000000000815260040160405180910390fd5b61119b8282612ba6565b5050565b6111a7612c48565b85878484875f5a90506111ba6003612ce5565b6111ee6111e860017f3095e8dc547eeb8bf90020768c67e29e974614469d8f71638ac29f39b96e4893614c4b565b8f612d77565b5f6111fe8f8f8f8f8c8f8f612d7e565b905061120981612dd7565b61121b6112168d8f614c5e565b612e31565b5f808f6001600160a01b03168e8d8d604051611238929190614c71565b5f6040518083038185875af1925050503d805f8114611272576040519150601f19603f3d011682016040523d82523d5f602084013e611277565b606091505b5091509150816112d4578051156112915780518082602001fd5b8f6040517f54613443000000000000000000000000000000000000000000000000000000008152600401610fee91906001600160a01b0391909116815260200190565b61130861130260017f3095e8dc547eeb8bf90020768c67e29e974614469d8f71638ac29f39b96e4893614c4b565b5f612d77565b60405183907fa4c827e719e911e8f19393ccdb85b5102f08f0910604d340ba38390b7ff2ab0e905f90a250508615905061143d57855f8490036113b357853b1580156113b1573a5a61135c61bc7c86614c5e565b6113669190614c4b565b6113709190614c80565b9150818811156113ad576001600160a01b0387166108fc611391848b614c4b565b6040518115909202915f818181858888f19350505050506113b1565b8791505b505b5f6001600160a01b038416156113c957836113cb565b335b90505f816001600160a01b03166108fc8490811502906040515f60405180830381858888f19350505050905080611439576040517fa57c4df40000000000000000000000000000000000000000000000000000000081526001600160a01b0383166004820152602401610fee565b5050505b50505050505061144b612ea7565b5050505050505050565b7f1185e52d62bfbbea270e57d3d09733d221b53ab7a18bae82bb3c6c74bab16d8261147f81612ade565b5f805f4260995410156114a4576097546114999042614c5e565b6099555060016114b6565b609a548510156114b657849250600191505b609885905580806114c45750815b156114cf57609a8390555b60408051868152831515602082015282151581830152905133917fbc3dc0cb5c15c51c81316450d44048838bb478b9809447d01c766a06f3e9f2c8919081900360600190a25050505050565b600661152681612ce5565b7f97667070c54ef182b0f5858b034beac1b6f3089aa2d3188bb1e8929f4fa9b92961155081612ade565b5f85900361158a576040517f7907d79b00000000000000000000000000000000000000000000000000000000815260040160405180910390fd5b610119545f81815261011a60205260409020548435146115d6576040517fead4c30e00000000000000000000000000000000000000000000000000000000815260040160405180910390fd5b6101bd545f6115e58684612ed5565b90505f6115f9878484878b602001356131c2565b905061160781898c8c61324a565b50505050505050505050565b61161b612c48565b60a0810180359061162f9060808401614c97565b61163d610120840184614cb2565b61164e610100860160e08701614c97565b5f5a905061165c6003612ce5565b6101008701355f9081526101506020526040812054908190036116ab576040517f4e68667500000000000000000000000000000000000000000000000000000000815260040160405180910390fd5b6116b58880614d13565b9050811461170457806116c88980614d13565b6040517f5e3fd6ad0000000000000000000000000000000000000000000000000000000081526004810193909352602483015250604401610fee565b61171188602001356134ae565b61172661121660c08a013560a08b0135614c5e565b5f61176f61173a60808b0160608c01614c97565b61174a60a08c0160808d01614c97565b8b60a001358c60c001358d602001358e80610120019061176a9190614cb2565b612d7e565b905061179a8161177f8b80614d13565b61178f60608e0160408f01614d77565b8d6101000135613526565b6117d0576040517fb05e92fa00000000000000000000000000000000000000000000000000000000815260040160405180910390fd5b6118136117fe60017f3095e8dc547eeb8bf90020768c67e29e974614469d8f71638ac29f39b96e4893614c4b565b61180e60808c0160608d01614c97565b612d77565b5f8061182560a08c0160808d01614c97565b6001600160a01b031660c08c01356118416101208e018e614cb2565b60405161184f929190614c71565b5f6040518083038185875af1925050503d805f8114611889576040519150601f19603f3d011682016040523d82523d5f602084013e61188e565b606091505b5091509150816118f6578051156118a85780518082602001fd5b6118b860a08c0160808d01614c97565b6040517f546134430000000000000000000000000000000000000000000000000000000081526001600160a01b039091166004820152602401610fee565b61192461130260017f3095e8dc547eeb8bf90020768c67e29e974614469d8f71638ac29f39b96e4893614c4b565b60405183907fa4c827e719e911e8f19393ccdb85b5102f08f0910604d340ba38390b7ff2ab0e905f90a2505050505f861115611a5b57855f8490036119d157853b1580156119cf573a5a61197a61bc7c86614c5e565b6119849190614c4b565b61198e9190614c80565b9150818811156119cb576001600160a01b0387166108fc6119af848b614c4b565b6040518115909202915f818181858888f19350505050506119cf565b8791505b505b5f6001600160a01b038416156119e757836119e9565b335b90505f816001600160a01b03166108fc8490811502906040515f60405180830381858888f19350505050905080611a57576040517fa57c4df40000000000000000000000000000000000000000000000000000000081526001600160a01b0383166004820152602401610fee565b5050505b505050505050611a69612ea7565b50565b5f611a9f611a9b60017f3095e8dc547eeb8bf90020768c67e29e974614469d8f71638ac29f39b96e4893614c4b565b5c90565b905090565b6005611aaf81612ce5565b7f97667070c54ef182b0f5858b034beac1b6f3089aa2d3188bb1e8929f4fa9b929611ad981612ade565b611ae66040860186614cb2565b90505f03611b20576040517fc01eab5600000000000000000000000000000000000000000000000000000000815260040160405180910390fd5b5f8381526101be602052604090205415611b69576040517f0f06cd1500000000000000000000000000000000000000000000000000000000815260048101849052602401610fee565b5f8481526101be60205260408120549003611bb3576040517f6e5424c200000000000000000000000000000000000000000000000000000000815260048101859052602401610fee565b5f611bc16040870187614cb2565b604051611bcf929190614c71565b604051809103902090505f611bf18760200135835f9182526020526040902090565b90505f611c3d8760208a01358a3585611c16611c1060408f018f614cb2565b89613633565b604080519586526020860194909452928401919091526060830152608082015260a0902090565b9050808614611c82576040517fd3664fb30000000000000000000000000000000000000000000000000000000081526004810187905260248101829052604401610fee565b5f8181526101be602052604090819020600190555181907f55f4c645c36aa5cd3f443d6be44d7a7a5df9d2100d7139dfc69d4289ee07231990611cd2908a908c3590918252602082015260400190565b60405180910390a25050505050505050565b6004611cef81612ce5565b7f97667070c54ef182b0f5858b034beac1b6f3089aa2d3188bb1e8929f4fa9b929611d1981612ade565b5f859003611d53576040517fb1504a5f00000000000000000000000000000000000000000000000000000000815260040160405180910390fd5b844915611d8f576040517f8019aff700000000000000000000000000000000000000000000000000000000815260048101869052602401610fee565b5f8481526101be60205260408120549003611dd9576040517f6e5424c200000000000000000000000000000000000000000000000000000000815260048101859052602401610fee565b5f8381526101be602052604090205415611e22576040517f0f06cd1500000000000000000000000000000000000000000000000000000000815260048101849052602401610fee565b6040805160a0810182525f808252606060208301819052928201839052918101829052608081018290528190865f5b89811015611f27578a8a82818110611e6b57611e6b614d9a565b9050602002810190611e7d9190614dc7565b611e8690614ee4565b81499450925083611ec6576040517fc0e41e1d00000000000000000000000000000000000000000000000000000000815260048101829052602401610fee565b60808301515f8181526020869052604090209550611ef485875f1c865f015187602001518860400151613734565b6060848101518551604080519687526020870194909452928501528301869052608083015260a090912090600101611e51565b50808714611f6b576040517fd3664fb30000000000000000000000000000000000000000000000000000000081526004810188905260248101829052604401610fee565b5f8181526101be602090815260409182902060019055606084015182518b81529182015282917f55f4c645c36aa5cd3f443d6be44d7a7a5df9d2100d7139dfc69d4289ee072319910160405180910390a250505050505050505050565b600881901c5f90815261014f6020526040812054600160ff84161b161515610f6a565b6002611ff681612ce5565b6001600160a01b038516612036576040517f8579befe00000000000000000000000000000000000000000000000000000000815260040160405180910390fd5b34841115612070576040517fb03b693200000000000000000000000000000000000000000000000000000000815260040160405180910390fd5b60e480545f918261208083614f71565b9091555090505f6120918634614c4b565b90505f6120a333898985878b8b612d7e565b90506120af83826138d6565b80886001600160a01b0316336001600160a01b03167fe856c2b8bd4eb0027ce32eeaf595c21b0b6b4644b326e5b7bd80a1cf8db72e6c8a86888c8c6040516120fb959493929190614fd1565b60405180910390a45050505050505050565b5f54610100900460ff161580801561212b57505f54600160ff909116105b806121445750303b15801561214457505f5460ff166001145b6121d0576040517f08c379a000000000000000000000000000000000000000000000000000000000815260206004820152602e60248201527f496e697469616c697a61626c653a20636f6e747261637420697320616c72656160448201527f647920696e697469616c697a65640000000000000000000000000000000000006064820152608401610fee565b5f80547fffffffffffffffffffffffffffffffffffffffffffffffffffffffffffffff00166001179055801561222c575f80547fffffffffffffffffffffffffffffffffffffffffffffffffffffffffffff00ff166101001790555b5f61223d6080840160608501614c97565b6001600160a01b03160361227d576040517f8579befe00000000000000000000000000000000000000000000000000000000815260040160405180910390fd5b6122a061228d60e0840184615001565b61229b610100860186615001565b613952565b6122b282608001358360a00135613c00565b6122cd5f6122c861016085016101408601614c97565b612ae8565b6122e26122dd60c0840184615001565b613cc1565b6122f26080830160608401614c97565b5f805261011b6020527f033d11f27e62ab919708ec716731da80d261a6e4253259b7acde9bf89d28ec1880547fffffffffffffffffffffffff0000000000000000000000000000000000000000166001600160a01b039290921691909117905561236461014083016101208401614c97565b6101c080547fffffffffffffffffffffffff0000000000000000000000000000000000000000166001600160a01b03929092169190911790556123af61014083016101208401614c97565b6001600160a01b0316336001600160a01b03167f1f82add12d98b5eaed4d6a6d5f74cfc7a85e5c90c335ab5562f77f220ed45d5f60405160405180910390a36020828101356101198190555f90815261011a8252604080822085359081905581518381528085018490528083019190915260608082018490526080820184905260a09091208084526101be8552828420600190556101bd55815183815293840192909252808501359083015290206101bf55801561119b575f80547fffffffffffffffffffffffffffffffffffffffffffffffffffffffffffff00ff169055604051600181527f7f26b83ff96e1f2b6a682f133852f6798a09c465da95921460cefb3847402498906020015b60405180910390a15050565b7f0cf0d2deb70d7bdac2fa48c4ac99bc558170be0ce5fcb994caefa4bf7b96edf96124f181612ade565b5f609a81905560405133917fba88c025b0cbb77022c0c487beef24f759f1e4be2f51a205bc427cee19c2eaa691a250565b5f81600881111561253557612535614bb2565b60da54600190911b16151592915050565b61255362f099c082614c5e565b42101561258c576040517f4306cbb100000000000000000000000000000000000000000000000000000000815260040160405180910390fd5b6040805184815260208101849052908101829052606090206101bf5414612604576101bf546040805185815260208101859052908101839052606090206040517fbc5aad1100000000000000000000000000000000000000000000000000000000815260048101929092526024820152604401610fee565b6101c0546001600160a01b031661263b7f97667070c54ef182b0f5858b034beac1b6f3089aa2d3188bb1e8929f4fa9b92982612ae8565b6040516001600160a01b0382169033907f9fc8868f8577b31b805ee65bb52325782b5e2708dbdb7f04c7467c6785fccb30905f90a350505050565b5f54600690610100900460ff1615801561269657505f5460ff8083169116105b612722576040517f08c379a000000000000000000000000000000000000000000000000000000000815260206004820152602e60248201527f496e697469616c697a61626c653a20636f6e747261637420697320616c72656160448201527f647920696e697469616c697a65640000000000000000000000000000000000006064820152608401610fee565b5f80547fffffffffffffffffffffffffffffffffffffffffffffffffffffffffffff00001660ff83161761010017905561275c8888613cc1565b61276886868686613952565b6001600160a01b0382166127a8576040517f8579befe00000000000000000000000000000000000000000000000000000000815260040160405180910390fd5b6101c080547fffffffffffffffffffffffff0000000000000000000000000000000000000000166001600160a01b03841690811790915560405133907f1f82add12d98b5eaed4d6a6d5f74cfc7a85e5c90c335ab5562f77f220ed45d5f905f90a36040517f362e300000000000000000000000000000000000000000000000000000000000907f352e300000000000000000000000000000000000000000000000000000000000907f2f8492a7a430cf917798dfb60bc5af634f68e6c40287947df0ea6f7ec0669bd8905f90a35f80547fffffffffffffffffffffffffffffffffffffffffffffffffffffffffffff00ff16905560405160ff821681527f7f26b83ff96e1f2b6a682f133852f6798a09c465da95921460cefb38474024989060200160405180910390a15050505050505050565b7f32937fd5162e282df7e9a14a5073a2425321c7966eaf70ed6c838a1006d84c4c61290681612ade565b6001600160a01b038316612946576040517f8579befe00000000000000000000000000000000000000000000000000000000815260040160405180910390fd5b5f82815261011b60209081526040918290205491516001600160a01b03928316815233928592908716917f4a29db3fc6b42bda201e4b4d69ce8d575eeeba5f153509c0d0a342af0f1bd021910160405180910390a4505f90815261011b6020526040902080547fffffffffffffffffffffffff0000000000000000000000000000000000000000166001600160a01b0392909216919091179055565b5f828152606560205260409020600101546129fc81612ade565b6111438383613e6f565b60db5f826008811115612a1b57612a1b614bb2565b6008811115612a2c57612a2c614bb2565b81526020019081526020015f2054612a4381612ade565b612a4c82612522565b15612a8557816040517fc0a71b58000000000000000000000000000000000000000000000000000000008152600401610fee9190614bdf565b816008811115612a9757612a97614bb2565b60da8054600190921b9091179055816008811115612ab757612ab7614bb2565b7f534f879afd40abb4e39f8e1b77a316be4c8e3521d9cf5a3a3db8959d574d45593361104d565b611a698133613f0e565b5f8281526065602090815260408083206001600160a01b038516845290915290205460ff1661119b575f8281526065602090815260408083206001600160a01b0385168452909152902080547fffffffffffffffffffffffffffffffffffffffffffffffffffffffffffffff00166001179055612b623390565b6001600160a01b0316816001600160a01b0316837f2f8788117e7eff1d82e926ec794901d17c78024a50270940304540a733656f0d60405160405180910390a45050565b6001600160a01b0381163314612c3e576040517f08c379a000000000000000000000000000000000000000000000000000000000815260206004820152602f60248201527f416363657373436f6e74726f6c3a2063616e206f6e6c792072656e6f756e636560448201527f20726f6c657320666f722073656c6600000000000000000000000000000000006064820152608401610fee565b61119b8282613e6f565b5f612c77611a9b60017f084edf88d5959696dcc7aab5c8674a33a1ef78f37dda21b782ed03bddb22ade5614c4b565b14612cae576040517f37ed32e800000000000000000000000000000000000000000000000000000000815260040160405180910390fd5b612ce3612cdc60017f084edf88d5959696dcc7aab5c8674a33a1ef78f37dda21b782ed03bddb22ade5614c4b565b6001612d77565b565b60da54816008811115612cfa57612cfa614bb2565b6001901b811615612d3957816040517fc0a71b58000000000000000000000000000000000000000000000000000000008152600401610fee9190614bdf565b600281161561119b5760016040517fc0a71b58000000000000000000000000000000000000000000000000000000008152600401610fee9190614bdf565b80825d5050565b5f60405188815287602082015286604082015285606082015284608082015260c060a08201528260c0820152602083065f8115612dbc578160200390505b848660e085013790930160e001902098975050505050505050565b5f81815260a66020526040902054600114612e21576040517f992d87c300000000000000000000000000000000000000000000000000000000815260048101829052602401610fee565b5f90815260a66020526040812055565b8015611a6957426099541015612e5657609754612e4e9042614c5e565b609955612e66565b609a54612e639082614c5e565b90505b609854811115612ea2576040517fa74c1c5f00000000000000000000000000000000000000000000000000000000815260040160405180910390fd5b609a55565b612ce361130260017f084edf88d5959696dcc7aab5c8674a33a1ef78f37dda21b782ed03bddb22ade5614c4b565b5f81836020013511612f20576040517f706144050000000000000000000000000000000000000000000000000000000081526020840135600482015260248101839052604401610fee565b612f34836101800135846101400135613f9c565b6101bf54604080516101608601358152610120860135602082015260e0860135918101919091526060902014612fca57604080516101608501358152610120850135602082015260e085013591810191909152606090206101bf546040517fbc5aad1100000000000000000000000000000000000000000000000000000000815260048101929092526024820152604401610fee565b4283610100013510613015576040517fbf81c6e00000000000000000000000000000000000000000000000000000000081526101008401356004820152426024820152604401610fee565b6080830135613050576040517f2898482a00000000000000000000000000000000000000000000000000000000815260040160405180910390fd5b61309360408401356060850135608086013560a087013560c0880135604080519586526020860194909452928401919091526060830152608082015260a0902090565b5f8181526101be6020526040812054919250036130df576040517fedeae83c00000000000000000000000000000000000000000000000000000000815260048101829052602401610fee565b6130fb6130f06101c0850185614d13565b856101a00135614069565b61311261310c6101e0850185614cb2565b84614175565b6020808401355f81815261011a909252604090912060808501359055610119556101bd819055613167610180840135610140850135610100860135604080519384526020840192909252908201526060902090565b6101bf5580602084013561317a84614f71565b60408051873581526080880135602082015291955085917fa0262dc79e4ccb71ceac8574ae906311ae338aa4a2044fd4ec4b99fad5ab60cb910160405180910390a492915050565b5f604051858152846020820152604060e0880160408301378360808201528260a082015260a0610120880160c083013761018081016101c088013588018035602081026020830184376020029091206101608301525061018090207f30644e72e131a029b85045b68181585d2833e84879b9709143e1f593f000000190069695505050505050565b6040805160018082528183019092525f916020808301908036833701905050905084815f8151811061327e5761327e614d9a565b6020908102919091018101919091525f85815261011b90915260409020546001600160a01b0316806132dc576040517f69ed70ab00000000000000000000000000000000000000000000000000000000815260040160405180910390fd5b5f80826001600160a01b0316637e4f7a8a60e01b87878760405160240161330593929190615065565b60408051601f198184030181529181526020820180517bffffffffffffffffffffffffffffffffffffffffffffffffffffffff167fffffffff0000000000000000000000000000000000000000000000000000000090941693909317909252905161337091906150d6565b5f604051808303815f865af19150503d805f81146133a9576040519150601f19603f3d011682016040523d82523d5f602084013e6133ae565b606091505b509150915081613455578051156133f357602081017bffffffffffffffffffffffffffffffffffffffffffffffffffffffff81511663ca389c4460e01b178152815181fd5b6040517fca389c4400000000000000000000000000000000000000000000000000000000815260206004820152600760248201527f556e6b6e6f776e000000000000000000000000000000000000000000000000006044820152606401610fee565b5f8180602001905181019061346a91906150e1565b9050806134a3576040517f09bde33900000000000000000000000000000000000000000000000000000000815260040160405180910390fd5b505050505050505050565b600881901c5f90815261014f6020526040902054600160ff83161b1615613504576040517f335a4a9000000000000000000000000000000000000000000000000000000000815260048101829052602401610fee565b600881901c5f90815261014f602052604090208054600160ff84161b17905550565b5f806135476001613538876002615221565b6135429190614c4b565b614202565b90508063ffffffff168463ffffffff16111561359f576040517ff7ec909700000000000000000000000000000000000000000000000000000000815263ffffffff808616600483015282166024820152604401610fee565b865f5b8681101561362557600163ffffffff8716821c811690036135ef576135e88888838181106135d2576135d2614d9a565b90506020020135835f9182526020526040902090565b915061361d565b61361a8289898481811061360557613605614d9a565b905060200201355f9182526020526040902090565b91505b6001016135a2565b509092149695505050505050565b5f61363f60208461522c565b15613676576040517f6426c6c500000000000000000000000000000000000000000000000000000000815260040160405180910390fd5b7f729eebce00000000000000000000000000000000000000000000000000000000835b801561372b57602081039050808601357fff000000000000000000000000000000000000000000000000000000000000008116156136dc57604051838152600481fd5b7f73eda753299d7d483339d80809a1d80553bda402fffe5bfeffffffff00000001817f73eda753299d7d483339d80809a1d80553bda402fffe5bfeffffffff0000000187870908935050613699565b50509392505050565b7f73eda753299d7d483339d80809a1d80553bda402fffe5bfeffffffff00000001840693505f80600a6001600160a01b0316878787878760405160200161377f959493929190615264565b60408051601f1981840301815290829052613799916150d6565b5f60405180830381855afa9150503d805f81146137d1576040519150601f19603f3d011682016040523d82523d5f602084013e6137d6565b606091505b509150915081613812576040517fa71194af00000000000000000000000000000000000000000000000000000000815260040160405180910390fd5b604081511461385a578051604080517ff75db381000000000000000000000000000000000000000000000000000000008152610fee9290600401918252602082015260400190565b602081015160408201516110008214158061389557507f73eda753299d7d483339d80809a1d80553bda402fffe5bfeffffffff000000018114155b156134a3576040517f68dcad5f0000000000000000000000000000000000000000000000000000000081526004810183905260248101829052604401610fee565b7fffffffffffffffffffffffffffffffffffffffffffffffffffffffffffffffff82015f90815261014e60208181526040808420548452848252808420868552929091528083208290555190918391839186917fea3b023b4c8680d4b4824f0143132c95476359a2bb70a81d6c5a36f6918f63399190a4505050565b5f54610100900460ff166139e8576040517f08c379a000000000000000000000000000000000000000000000000000000000815260206004820152602b60248201527f496e697469616c697a61626c653a20636f6e7472616374206973206e6f74206960448201527f6e697469616c697a696e670000000000000000000000000000000000000000006064820152608401610fee565b5f5b83811015613af057848482818110613a0457613a04614d9a565b9050604002016020013560db5f878785818110613a2357613a23614d9a565b613a3992602060409092020190810191506146e0565b6008811115613a4a57613a4a614bb2565b6008811115613a5b57613a5b614bb2565b815260208101919091526040015f2055848482818110613a7d57613a7d614d9a565b90506040020160200135858583818110613a9957613a99614d9a565b613aaf92602060409092020190810191506146e0565b6008811115613ac057613ac0614bb2565b6040517f33aa8fd1ce49e1761bc8d27fd53414bfefc45d690feed0ce55019d7d3aec6091905f90a36001016139ea565b505f5b81811015613bf957828282818110613b0d57613b0d614d9a565b9050604002016020013560dc5f858585818110613b2c57613b2c614d9a565b613b4292602060409092020190810191506146e0565b6008811115613b5357613b53614bb2565b6008811115613b6457613b64614bb2565b815260208101919091526040015f2055828282818110613b8657613b86614d9a565b90506040020160200135838383818110613ba257613ba2614d9a565b613bb892602060409092020190810191506146e0565b6008811115613bc957613bc9614bb2565b6040517fe7bf4b8dc0c17a52dc9e52323a3ab61cb2079db35f969125b1f8a3d984c6f6c2905f90a3600101613af3565b5050505050565b5f54610100900460ff16613c96576040517f08c379a000000000000000000000000000000000000000000000000000000000815260206004820152602b60248201527f496e697469616c697a61626c653a20636f6e7472616374206973206e6f74206960448201527f6e697469616c697a696e670000000000000000000000000000000000000000006064820152608401610fee565b613c9e61424f565b613ca661424f565b613cae61424f565b613cb882826142e5565b5050600160e455565b5f54610100900460ff16613d57576040517f08c379a000000000000000000000000000000000000000000000000000000000815260206004820152602b60248201527f496e697469616c697a61626c653a20636f6e7472616374206973206e6f74206960448201527f6e697469616c697a696e670000000000000000000000000000000000000000006064820152608401610fee565b5f5b81811015611143575f838383818110613d7457613d74614d9a565b613d8a9260206040909202019081019150614c97565b6001600160a01b031603613dca576040517f8579befe00000000000000000000000000000000000000000000000000000000815260040160405180910390fd5b828282818110613ddc57613ddc614d9a565b905060400201602001355f801b03613e20576040517f0742d05300000000000000000000000000000000000000000000000000000000815260040160405180910390fd5b613e67838383818110613e3557613e35614d9a565b90506040020160200135848484818110613e5157613e51614d9a565b6122c89260206040909202019081019150614c97565b600101613d59565b5f8281526065602090815260408083206001600160a01b038516845290915290205460ff161561119b575f8281526065602090815260408083206001600160a01b038516808552925280832080547fffffffffffffffffffffffffffffffffffffffffffffffffffffffffffffff0016905551339285917ff6391f5c32d9c69d2a47ea670b442974b53935d1edc7fd64eb21e047a839171b9190a45050565b5f8281526065602090815260408083206001600160a01b038516845290915290205460ff1661119b57613f408161444b565b613f4b83602061445d565b604051602001613f5c92919061528a565b60408051601f19818403018152908290527f08c379a0000000000000000000000000000000000000000000000000000000008252610fee91600401614757565b815f03613fde57801561119b576040517f0c25659200000000000000000000000000000000000000000000000000000000815260048101829052602401610fee565b80614018576040517f5228f4c800000000000000000000000000000000000000000000000000000000815260048101839052602401610fee565b5f82815261014e6020526040902054811461119b576040517f36459fa00000000000000000000000000000000000000000000000000000000081526004810183905260248101829052604401610fee565b5f5b8281101561416f576101505f85858481811061408957614089614d9a565b9050602002013581526020019081526020015f20545f146140f2578383828181106140b6576140b6614d9a565b905060200201356040517fe5d14425000000000000000000000000000000000000000000000000000000008152600401610fee91815260200190565b816101505f86868581811061410957614109614d9a565b9050602002013581526020019081526020015f20819055508184848381811061413457614134614d9a565b905060200201357f300e6f978eee6a4b0bba78dd8400dc64fd5652dbfc868a2258e16d0977be222b60405160405180910390a360010161406b565b50505050565b61418060028361522c565b156141ba576040517f0c91d77600000000000000000000000000000000000000000000000000000000815260048101839052602401610fee565b5f805b83811015613bf9576040518582013560f01c9250838301907f3c116827db9db3a30c1a25db8b0ee4bab9d2b223560209cfd839601b621c726d905f90a26002016141bd565b5f63ffffffff82111561424b576040517f6dfcc6500000000000000000000000000000000000000000000000000000000081526020600482015260248101839052604401610fee565b5090565b5f54610100900460ff16612ce3576040517f08c379a000000000000000000000000000000000000000000000000000000000815260206004820152602b60248201527f496e697469616c697a61626c653a20636f6e7472616374206973206e6f74206960448201527f6e697469616c697a696e670000000000000000000000000000000000000000006064820152608401610fee565b5f54610100900460ff1661437b576040517f08c379a000000000000000000000000000000000000000000000000000000000815260206004820152602b60248201527f496e697469616c697a61626c653a20636f6e7472616374206973206e6f74206960448201527f6e697469616c697a696e670000000000000000000000000000000000000000006064820152608401610fee565b815f036143b4576040517fb5ed5a3b00000000000000000000000000000000000000000000000000000000815260040160405180910390fd5b805f036143ed576040517fd10d72bb00000000000000000000000000000000000000000000000000000000815260040160405180910390fd5b609782905560988190556144018242614c5e565b60998190556097546098546040805192835260208301919091528101919091527f8f805c372b66240792580418b7328c0c554ae235f0932475c51b026887fe26a9906060016124bb565b6060610f6a6001600160a01b03831660145b60605f61446b836002614c80565b614476906002614c5e565b67ffffffffffffffff81111561448e5761448e614e03565b6040519080825280601f01601f1916602001820160405280156144b8576020820181803683370190505b5090507f3000000000000000000000000000000000000000000000000000000000000000815f815181106144ee576144ee614d9a565b60200101907effffffffffffffffffffffffffffffffffffffffffffffffffffffffffffff191690815f1a9053507f78000000000000000000000000000000000000000000000000000000000000008160018151811061455057614550614d9a565b60200101907effffffffffffffffffffffffffffffffffffffffffffffffffffffffffffff191690815f1a9053505f61458a846002614c80565b614595906001614c5e565b90505b6001811115614631577f303132333435363738396162636465660000000000000000000000000000000085600f16601081106145d6576145d6614d9a565b1a60f81b8282815181106145ec576145ec614d9a565b60200101907effffffffffffffffffffffffffffffffffffffffffffffffffffffffffffff191690815f1a90535060049490941c9361462a816152f4565b9050614598565b50831561469a576040517f08c379a000000000000000000000000000000000000000000000000000000000815260206004820181905260248201527f537472696e67733a20686578206c656e67746820696e73756666696369656e746044820152606401610fee565b9392505050565b5f602082840312156146b1575f80fd5b81357fffffffff000000000000000000000000000000000000000000000000000000008116811461469a575f80fd5b5f602082840312156146f0575f80fd5b81356009811061469a575f80fd5b5f6020828403121561470e575f80fd5b5035919050565b6001600160a01b0381168114611a69575f80fd5b5f806040838503121561473a575f80fd5b82359150602083013561474c81614715565b809150509250929050565b602081525f82518060208401528060208501604085015e5f604082850101526040601f19601f83011684010191505092915050565b5f8083601f84011261479c575f80fd5b50813567ffffffffffffffff8111156147b3575f80fd5b6020830191508360208285010111156147ca575f80fd5b9250929050565b5f805f805f805f8060e0898b0312156147e8575f80fd5b88356147f381614715565b9750602089013561480381614715565b96506040890135955060608901359450608089013561482181614715565b935060a089013567ffffffffffffffff81111561483c575f80fd5b6148488b828c0161478c565b999c989b50969995989497949560c00135949350505050565b5f805f8060608587031215614874575f80fd5b843567ffffffffffffffff81111561488a575f80fd5b6148968782880161478c565b90955093505060208501359150604085013567ffffffffffffffff8111156148bc575f80fd5b850161020081880312156148ce575f80fd5b939692955090935050565b5f602082840312156148e9575f80fd5b813567ffffffffffffffff8111156148ff575f80fd5b8201610140818503121561469a575f80fd5b5f805f60608486031215614923575f80fd5b833567ffffffffffffffff811115614939575f80fd5b84016060818703121561494a575f80fd5b95602085013595506040909401359392505050565b5f805f8060608587031215614972575f80fd5b843567ffffffffffffffff811115614988575f80fd5b8501601f81018713614998575f80fd5b803567ffffffffffffffff8111156149ae575f80fd5b8760208260051b84010111156149c2575f80fd5b602091820198909750908601359560400135945092505050565b5f805f80606085870312156149ef575f80fd5b84356149fa81614715565b935060208501359250604085013567ffffffffffffffff811115614a1c575f80fd5b614a288782880161478c565b95989497509550505050565b5f60208284031215614a44575f80fd5b813567ffffffffffffffff811115614a5a575f80fd5b8201610160818503121561469a575f80fd5b5f805f60608486031215614a7e575f80fd5b505081359360208301359350604090920135919050565b5f8083601f840112614aa5575f80fd5b50813567ffffffffffffffff811115614abc575f80fd5b6020830191508360208260061b85010111156147ca575f80fd5b5f805f805f805f6080888a031215614aec575f80fd5b873567ffffffffffffffff811115614b02575f80fd5b614b0e8a828b01614a95565b909850965050602088013567ffffffffffffffff811115614b2d575f80fd5b614b398a828b01614a95565b909650945050604088013567ffffffffffffffff811115614b58575f80fd5b614b648a828b01614a95565b9094509250506060880135614b7881614715565b8091505092959891949750929550565b5f8060408385031215614b99575f80fd5b8235614ba481614715565b946020939093013593505050565b7f4e487b71000000000000000000000000000000000000000000000000000000005f52602160045260245ffd5b6020810160098310614c18577f4e487b71000000000000000000000000000000000000000000000000000000005f52602160045260245ffd5b91905290565b7f4e487b71000000000000000000000000000000000000000000000000000000005f52601160045260245ffd5b81810381811115610f6a57610f6a614c1e565b80820180821115610f6a57610f6a614c1e565b818382375f9101908152919050565b8082028115828204841417610f6a57610f6a614c1e565b5f60208284031215614ca7575f80fd5b813561469a81614715565b5f8083357fffffffffffffffffffffffffffffffffffffffffffffffffffffffffffffffe1843603018112614ce5575f80fd5b83018035915067ffffffffffffffff821115614cff575f80fd5b6020019150368190038213156147ca575f80fd5b5f8083357fffffffffffffffffffffffffffffffffffffffffffffffffffffffffffffffe1843603018112614d46575f80fd5b83018035915067ffffffffffffffff821115614d60575f80fd5b6020019150600581901b36038213156147ca575f80fd5b5f60208284031215614d87575f80fd5b813563ffffffff8116811461469a575f80fd5b7f4e487b71000000000000000000000000000000000000000000000000000000005f52603260045260245ffd5b5f82357fffffffffffffffffffffffffffffffffffffffffffffffffffffffffffffff61833603018112614df9575f80fd5b9190910192915050565b7f4e487b71000000000000000000000000000000000000000000000000000000005f52604160045260245ffd5b60405160a0810167ffffffffffffffff81118282101715614e5357614e53614e03565b60405290565b5f82601f830112614e68575f80fd5b813567ffffffffffffffff811115614e8257614e82614e03565b604051601f8201601f19908116603f0116810167ffffffffffffffff81118282101715614eb157614eb1614e03565b604052818152838201602001851015614ec8575f80fd5b816020850160208301375f918101602001919091529392505050565b5f60a08236031215614ef4575f80fd5b614efc614e30565b82358152602083013567ffffffffffffffff811115614f19575f80fd5b614f2536828601614e59565b602083015250604083013567ffffffffffffffff811115614f44575f80fd5b614f5036828601614e59565b60408301525060608381013590820152608092830135928101929092525090565b5f7fffffffffffffffffffffffffffffffffffffffffffffffffffffffffffffffff8203614fa157614fa1614c1e565b5060010190565b81835281816020850137505f602082840101525f6020601f19601f840116840101905092915050565b858152846020820152836040820152608060608201525f614ff6608083018486614fa8565b979650505050505050565b5f8083357fffffffffffffffffffffffffffffffffffffffffffffffffffffffffffffffe1843603018112615034575f80fd5b83018035915067ffffffffffffffff82111561504e575f80fd5b6020019150600681901b36038213156147ca575f80fd5b604081525f615078604083018587614fa8565b82810360208401528084518083526020830191506020860192505f5b818110156150b2578351835260209384019390920191600101615094565b5090979650505050505050565b5f81518060208401855e5f93019283525090919050565b5f61469a82846150bf565b5f602082840312156150f1575f80fd5b8151801515811461469a575f80fd5b6001815b600184111561513b5780850481111561511f5761511f614c1e565b600184161561512d57908102905b60019390931c928002615104565b935093915050565b5f8261515157506001610f6a565b8161515d57505f610f6a565b8160018114615173576002811461517d57615199565b6001915050610f6a565b60ff84111561518e5761518e614c1e565b50506001821b610f6a565b5060208310610133831016604e8410600b84101617156151bc575081810a610f6a565b6151e77fffffffffffffffffffffffffffffffffffffffffffffffffffffffffffffffff8484615100565b807fffffffffffffffffffffffffffffffffffffffffffffffffffffffffffffffff0482111561521957615219614c1e565b029392505050565b5f61469a8383615143565b5f8261525f577f4e487b71000000000000000000000000000000000000000000000000000000005f52601260045260245ffd5b500690565b8581528460208201528360408201525f614ff661528460608401866150bf565b846150bf565b7f416363657373436f6e74726f6c3a206163636f756e742000000000000000000081525f6152bb60178301856150bf565b7f206973206d697373696e6720726f6c652000000000000000000000000000000081526152eb60118201856150bf565b95945050505050565b5f8161530257615302614c1e565b507fffffffffffffffffffffffffffffffffffffffffffffffffffffffffffffffff019056fea2646970667358221220f37ab9d49b246192cc1f4c0273d18fcd431dc83c67e6b7fb35993ccad3328d4e64736f6c634300081a0033",
  "linkReferences": {},
  "deployedLinkReferences": {}
}