{
    "_format": "hh-sol-artifact-1",
    "contractName": "LineaRollup",
    "sourceName": "src/rollup/LineaRollup.sol",
    "abi": [
        {
            "inputs": [],
            "stateMutability": "nonpayable",
            "type": "constructor"
        },
        {
            "inputs": [
                {
                    "internalType": "uint256",
                    "name": "emptyBlobIndex",
                    "type": "uint256"
                }
            ],
            "name": "BlobSubmissionDataEmpty",
            "type": "error"
        },
        {
            "inputs": [],
            "name": "BlobSubmissionDataIsMissing",
            "type": "error"
        },
        {
            "inputs": [
                {
                    "internalType": "uint256",
                    "name": "bytesLength",
                    "type": "uint256"
                }
            ],
            "name": "BytesLengthNotMultipleOfTwo",
            "type": "error"
        },
        {
            "inputs": [],
            "name": "CallerNotProxyAdmin",
            "type": "error"
        },
        {
            "inputs": [
                {
                    "internalType": "uint256",
                    "name": "index",
                    "type": "uint256"
                }
            ],
            "name": "EmptyBlobDataAtIndex",
            "type": "error"
        },
        {
            "inputs": [
                {
                    "internalType": "address",
                    "name": "recipient",
                    "type": "address"
                }
            ],
            "name": "FeePaymentFailed",
            "type": "error"
        },
        {
            "inputs": [],
            "name": "FeeTooLow",
            "type": "error"
        },
        {
            "inputs": [],
            "name": "FinalBlockStateEqualsZeroHash",
            "type": "error"
        },
        {
            "inputs": [
                {
                    "internalType": "bytes32",
                    "name": "shnarf",
                    "type": "bytes32"
                }
            ],
            "name": "FinalShnarfNotSubmitted",
            "type": "error"
        },
        {
            "inputs": [
                {
                    "internalType": "bytes32",
                    "name": "expected",
                    "type": "bytes32"
                },
                {
                    "internalType": "bytes32",
                    "name": "value",
                    "type": "bytes32"
                }
            ],
            "name": "FinalShnarfWrong",
            "type": "error"
        },
        {
            "inputs": [],
            "name": "FinalStateRootHashIsZeroHash",
            "type": "error"
        },
        {
            "inputs": [
                {
                    "internalType": "uint256",
                    "name": "l2BlockTimestamp",
                    "type": "uint256"
                },
                {
                    "internalType": "uint256",
                    "name": "currentBlockTimestamp",
                    "type": "uint256"
                }
            ],
            "name": "FinalizationInTheFuture",
            "type": "error"
        },
        {
            "inputs": [
                {
                    "internalType": "bytes32",
                    "name": "expected",
                    "type": "bytes32"
                },
                {
                    "internalType": "bytes32",
                    "name": "value",
                    "type": "bytes32"
                }
            ],
            "name": "FinalizationStateIncorrect",
            "type": "error"
        },
        {
            "inputs": [],
            "name": "InvalidMerkleProof",
            "type": "error"
        },
        {
            "inputs": [],
            "name": "InvalidProof",
            "type": "error"
        },
        {
            "inputs": [
                {
                    "internalType": "string",
                    "name": "errorReason",
                    "type": "string"
                }
            ],
            "name": "InvalidProofOrProofVerificationRanOutOfGas",
            "type": "error"
        },
        {
            "inputs": [],
            "name": "InvalidProofType",
            "type": "error"
        },
        {
            "inputs": [
                {
                    "internalType": "enum IPauseManager.PauseType",
                    "name": "pauseType",
                    "type": "uint8"
                }
            ],
            "name": "IsNotPaused",
            "type": "error"
        },
        {
            "inputs": [
                {
                    "internalType": "enum IPauseManager.PauseType",
                    "name": "pauseType",
                    "type": "uint8"
                }
            ],
            "name": "IsPaused",
            "type": "error"
        },
        {
            "inputs": [
                {
                    "internalType": "uint256",
                    "name": "messageNumber",
                    "type": "uint256"
                },
                {
                    "internalType": "bytes32",
                    "name": "rollingHash",
                    "type": "bytes32"
                }
            ],
            "name": "L1RollingHashDoesNotExistOnL1",
            "type": "error"
        },
        {
            "inputs": [
                {
                    "internalType": "bytes32",
                    "name": "merkleRoot",
                    "type": "bytes32"
                }
            ],
            "name": "L2MerkleRootAlreadyAnchored",
            "type": "error"
        },
        {
            "inputs": [],
            "name": "L2MerkleRootDoesNotExist",
            "type": "error"
        },
        {
            "inputs": [],
            "name": "LastFinalizationTimeNotLapsed",
            "type": "error"
        },
        {
            "inputs": [
                {
                    "internalType": "uint32",
                    "name": "leafIndex",
                    "type": "uint32"
                },
                {
                    "internalType": "uint32",
                    "name": "maxAllowedIndex",
                    "type": "uint32"
                }
            ],
            "name": "LeafIndexOutOfBounds",
            "type": "error"
        },
        {
            "inputs": [],
            "name": "LimitIsZero",
            "type": "error"
        },
        {
            "inputs": [
                {
                    "internalType": "uint256",
                    "name": "messageIndex",
                    "type": "uint256"
                }
            ],
            "name": "MessageAlreadyClaimed",
            "type": "error"
        },
        {
            "inputs": [
                {
                    "internalType": "bytes32",
                    "name": "messageHash",
                    "type": "bytes32"
                }
            ],
            "name": "MessageDoesNotExistOrHasAlreadyBeenClaimed",
            "type": "error"
        },
        {
            "inputs": [
                {
                    "internalType": "address",
                    "name": "destination",
                    "type": "address"
                }
            ],
            "name": "MessageSendingFailed",
            "type": "error"
        },
        {
            "inputs": [
                {
                    "internalType": "bytes32",
                    "name": "rollingHash",
                    "type": "bytes32"
                }
            ],
            "name": "MissingMessageNumberForRollingHash",
            "type": "error"
        },
        {
            "inputs": [
                {
                    "internalType": "uint256",
                    "name": "messageNumber",
                    "type": "uint256"
                }
            ],
            "name": "MissingRollingHashForMessageNumber",
            "type": "error"
        },
        {
            "inputs": [],
            "name": "OnlyNonLivenessRecoveryOperator",
            "type": "error"
        },
        {
            "inputs": [
                {
                    "internalType": "bytes32",
                    "name": "shnarf",
                    "type": "bytes32"
                }
            ],
            "name": "ParentShnarfNotSubmitted",
            "type": "error"
        },
        {
            "inputs": [
                {
                    "internalType": "uint256",
                    "name": "expiryEnd",
                    "type": "uint256"
                }
            ],
            "name": "PauseNotExpired",
            "type": "error"
        },
        {
            "inputs": [],
            "name": "PauseTypeNotUsed",
            "type": "error"
        },
        {
            "inputs": [
                {
                    "internalType": "uint256",
                    "name": "cooldownEnd",
                    "type": "uint256"
                }
            ],
            "name": "PauseUnavailableDueToCooldown",
            "type": "error"
        },
        {
            "inputs": [],
            "name": "PeriodIsZero",
            "type": "error"
        },
        {
            "inputs": [],
            "name": "PointEvaluationFailed",
            "type": "error"
        },
        {
            "inputs": [
                {
                    "internalType": "uint256",
                    "name": "fieldElements",
                    "type": "uint256"
                },
                {
                    "internalType": "uint256",
                    "name": "blsCurveModulus",
                    "type": "uint256"
                }
            ],
            "name": "PointEvaluationResponseInvalid",
            "type": "error"
        },
        {
            "inputs": [
                {
                    "internalType": "uint256",
                    "name": "expected",
                    "type": "uint256"
                },
                {
                    "internalType": "uint256",
                    "name": "actual",
                    "type": "uint256"
                }
            ],
            "name": "PrecompileReturnDataLengthWrong",
            "type": "error"
        },
        {
            "inputs": [],
            "name": "ProofIsEmpty",
            "type": "error"
        },
        {
            "inputs": [
                {
                    "internalType": "uint256",
                    "name": "actual",
                    "type": "uint256"
                },
                {
                    "internalType": "uint256",
                    "name": "expected",
                    "type": "uint256"
                }
            ],
            "name": "ProofLengthDifferentThanMerkleDepth",
            "type": "error"
        },
        {
            "inputs": [],
            "name": "RateLimitExceeded",
            "type": "error"
        },
        {
            "inputs": [],
            "name": "ReentrantCall",
            "type": "error"
        },
        {
            "inputs": [],
            "name": "RolesNotDifferent",
            "type": "error"
        },
        {
            "inputs": [
                {
                    "internalType": "uint8",
                    "name": "bits",
                    "type": "uint8"
                },
                {
                    "internalType": "uint256",
                    "name": "value",
                    "type": "uint256"
                }
            ],
            "name": "SafeCastOverflowedUintDowncast",
            "type": "error"
        },
        {
            "inputs": [
                {
                    "internalType": "bytes32",
                    "name": "shnarf",
                    "type": "bytes32"
                }
            ],
            "name": "ShnarfAlreadySubmitted",
            "type": "error"
        },
        {
            "inputs": [],
            "name": "ShnarfSubmissionIsZeroHash",
            "type": "error"
        },
        {
            "inputs": [],
            "name": "StartingRootHashDoesNotMatch",
            "type": "error"
        },
        {
            "inputs": [],
            "name": "ValueSentTooLow",
            "type": "error"
        },
        {
            "inputs": [],
            "name": "ZeroAddressNotAllowed",
            "type": "error"
        },
        {
            "inputs": [],
            "name": "ZeroHashNotAllowed",
            "type": "error"
        },
        {
            "anonymous": false,
            "inputs": [
                {
                    "indexed": true,
                    "internalType": "address",
                    "name": "resettingAddress",
                    "type": "address"
                }
            ],
            "name": "AmountUsedInPeriodReset",
            "type": "event"
        },
        {
            "anonymous": false,
            "inputs": [
                {
                    "indexed": true,
                    "internalType": "uint256",
                    "name": "startBlockNumber",
                    "type": "uint256"
                },
                {
                    "indexed": true,
                    "internalType": "uint256",
                    "name": "endBlockNumber",
                    "type": "uint256"
                },
                {
                    "indexed": true,
                    "internalType": "bytes32",
                    "name": "shnarf",
                    "type": "bytes32"
                },
                {
                    "indexed": false,
                    "internalType": "bytes32",
                    "name": "parentStateRootHash",
                    "type": "bytes32"
                },
                {
                    "indexed": false,
                    "internalType": "bytes32",
                    "name": "finalStateRootHash",
                    "type": "bytes32"
                }
            ],
            "name": "DataFinalizedV3",
            "type": "event"
        },
        {
            "anonymous": false,
            "inputs": [
                {
                    "indexed": false,
                    "internalType": "bytes32",
                    "name": "parentShnarf",
                    "type": "bytes32"
                },
                {
                    "indexed": true,
                    "internalType": "bytes32",
                    "name": "shnarf",
                    "type": "bytes32"
                },
                {
                    "indexed": false,
                    "internalType": "bytes32",
                    "name": "finalStateRootHash",
                    "type": "bytes32"
                }
            ],
            "name": "DataSubmittedV3",
            "type": "event"
        },
        {
            "anonymous": false,
            "inputs": [
                {
                    "indexed": false,
                    "internalType": "uint8",
                    "name": "version",
                    "type": "uint8"
                }
            ],
            "name": "Initialized",
            "type": "event"
        },
        {
            "anonymous": false,
            "inputs": [
                {
                    "indexed": true,
                    "internalType": "bytes32",
                    "name": "l2MerkleRoot",
                    "type": "bytes32"
                },
                {
                    "indexed": true,
                    "internalType": "uint256",
                    "name": "treeDepth",
                    "type": "uint256"
                }
            ],
            "name": "L2MerkleRootAdded",
            "type": "event"
        },
        {
            "anonymous": false,
            "inputs": [
                {
                    "indexed": true,
                    "internalType": "uint256",
                    "name": "l2Block",
                    "type": "uint256"
                }
            ],
            "name": "L2MessagingBlockAnchored",
            "type": "event"
        },
        {
            "anonymous": false,
            "inputs": [
                {
                    "indexed": true,
                    "internalType": "address",
                    "name": "amountChangeBy",
                    "type": "address"
                },
                {
                    "indexed": false,
                    "internalType": "uint256",
                    "name": "amount",
                    "type": "uint256"
                },
                {
                    "indexed": false,
                    "internalType": "bool",
                    "name": "amountUsedLoweredToLimit",
                    "type": "bool"
                },
                {
                    "indexed": false,
                    "internalType": "bool",
                    "name": "usedAmountResetToZero",
                    "type": "bool"
                }
            ],
            "name": "LimitAmountChanged",
            "type": "event"
        },
        {
            "anonymous": false,
            "inputs": [
                {
                    "components": [
                        {
                            "internalType": "bytes32",
                            "name": "initialStateRootHash",
                            "type": "bytes32"
                        },
                        {
                            "internalType": "uint256",
                            "name": "initialL2BlockNumber",
                            "type": "uint256"
                        },
                        {
                            "internalType": "uint256",
                            "name": "genesisTimestamp",
                            "type": "uint256"
                        },
                        {
                            "internalType": "address",
                            "name": "defaultVerifier",
                            "type": "address"
                        },
                        {
                            "internalType": "uint256",
                            "name": "rateLimitPeriodInSeconds",
                            "type": "uint256"
                        },
                        {
                            "internalType": "uint256",
                            "name": "rateLimitAmountInWei",
                            "type": "uint256"
                        },
                        {
                            "components": [
                                {
                                    "internalType": "address",
                                    "name": "addressWithRole",
                                    "type": "address"
                                },
                                {
                                    "internalType": "bytes32",
                                    "name": "role",
                                    "type": "bytes32"
                                }
                            ],
                            "internalType": "struct IPermissionsManager.RoleAddress[]",
                            "name": "roleAddresses",
                            "type": "tuple[]"
                        },
                        {
                            "components": [
                                {
                                    "internalType": "enum IPauseManager.PauseType",
                                    "name": "pauseType",
                                    "type": "uint8"
                                },
                                {
                                    "internalType": "bytes32",
                                    "name": "role",
                                    "type": "bytes32"
                                }
                            ],
                            "internalType": "struct IPauseManager.PauseTypeRole[]",
                            "name": "pauseTypeRoles",
                            "type": "tuple[]"
                        },
                        {
                            "components": [
                                {
                                    "internalType": "enum IPauseManager.PauseType",
                                    "name": "pauseType",
                                    "type": "uint8"
                                },
                                {
                                    "internalType": "bytes32",
                                    "name": "role",
                                    "type": "bytes32"
                                }
                            ],
                            "internalType": "struct IPauseManager.PauseTypeRole[]",
                            "name": "unpauseTypeRoles",
                            "type": "tuple[]"
                        },
                        {
                            "internalType": "address",
                            "name": "defaultAdmin",
                            "type": "address"
                        },
                        {
                            "internalType": "address",
                            "name": "shnarfProvider",
                            "type": "address"
                        }
                    ],
                    "indexed": false,
                    "internalType": "struct ILineaRollupBase.BaseInitializationData",
                    "name": "InitializationData",
                    "type": "tuple"
                }
            ],
            "name": "LineaRollupBaseInitialized",
            "type": "event"
        },
        {
            "anonymous": false,
            "inputs": [
                {
                    "indexed": true,
                    "internalType": "bytes8",
                    "name": "previousVersion",
                    "type": "bytes8"
                },
                {
                    "indexed": true,
                    "internalType": "bytes8",
                    "name": "newVersion",
                    "type": "bytes8"
                }
            ],
            "name": "LineaRollupVersionChanged",
            "type": "event"
        },
        {
            "anonymous": false,
            "inputs": [
                {
                    "indexed": true,
                    "internalType": "address",
                    "name": "caller",
                    "type": "address"
                },
                {
                    "indexed": true,
                    "internalType": "address",
                    "name": "livenessRecoveryOperator",
                    "type": "address"
                }
            ],
            "name": "LivenessRecoveryOperatorAddressSet",
            "type": "event"
        },
        {
            "anonymous": false,
            "inputs": [
                {
                    "indexed": true,
                    "internalType": "address",
                    "name": "caller",
                    "type": "address"
                },
                {
                    "indexed": true,
                    "internalType": "address",
                    "name": "livenessRecoveryOperator",
                    "type": "address"
                }
            ],
            "name": "LivenessRecoveryOperatorRoleGranted",
            "type": "event"
        },
        {
            "anonymous": false,
            "inputs": [
                {
                    "indexed": true,
                    "internalType": "bytes32",
                    "name": "_messageHash",
                    "type": "bytes32"
                }
            ],
            "name": "MessageClaimed",
            "type": "event"
        },
        {
            "anonymous": false,
            "inputs": [
                {
                    "indexed": true,
                    "internalType": "address",
                    "name": "_from",
                    "type": "address"
                },
                {
                    "indexed": true,
                    "internalType": "address",
                    "name": "_to",
                    "type": "address"
                },
                {
                    "indexed": false,
                    "internalType": "uint256",
                    "name": "_fee",
                    "type": "uint256"
                },
                {
                    "indexed": false,
                    "internalType": "uint256",
                    "name": "_value",
                    "type": "uint256"
                },
                {
                    "indexed": false,
                    "internalType": "uint256",
                    "name": "_nonce",
                    "type": "uint256"
                },
                {
                    "indexed": false,
                    "internalType": "bytes",
                    "name": "_calldata",
                    "type": "bytes"
                },
                {
                    "indexed": true,
                    "internalType": "bytes32",
                    "name": "_messageHash",
                    "type": "bytes32"
                }
            ],
            "name": "MessageSent",
            "type": "event"
        },
        {
            "anonymous": false,
            "inputs": [
                {
                    "indexed": true,
                    "internalType": "enum IPauseManager.PauseType",
                    "name": "pauseType",
                    "type": "uint8"
                },
                {
                    "indexed": true,
                    "internalType": "bytes32",
                    "name": "role",
                    "type": "bytes32"
                }
            ],
            "name": "PauseTypeRoleSet",
            "type": "event"
        },
        {
            "anonymous": false,
            "inputs": [
                {
                    "indexed": true,
                    "internalType": "enum IPauseManager.PauseType",
                    "name": "pauseType",
                    "type": "uint8"
                },
                {
                    "indexed": true,
                    "internalType": "bytes32",
                    "name": "role",
                    "type": "bytes32"
                },
                {
                    "indexed": true,
                    "internalType": "bytes32",
                    "name": "previousRole",
                    "type": "bytes32"
                }
            ],
            "name": "PauseTypeRoleUpdated",
            "type": "event"
        },
        {
            "anonymous": false,
            "inputs": [
                {
                    "indexed": false,
                    "internalType": "address",
                    "name": "messageSender",
                    "type": "address"
                },
                {
                    "indexed": true,
                    "internalType": "enum IPauseManager.PauseType",
                    "name": "pauseType",
                    "type": "uint8"
                }
            ],
            "name": "Paused",
            "type": "event"
        },
        {
            "anonymous": false,
            "inputs": [
                {
                    "indexed": false,
                    "internalType": "uint256",
                    "name": "periodInSeconds",
                    "type": "uint256"
                },
                {
                    "indexed": false,
                    "internalType": "uint256",
                    "name": "limitInWei",
                    "type": "uint256"
                },
                {
                    "indexed": false,
                    "internalType": "uint256",
                    "name": "currentPeriodEnd",
                    "type": "uint256"
                }
            ],
            "name": "RateLimitInitialized",
            "type": "event"
        },
        {
            "anonymous": false,
            "inputs": [
                {
                    "indexed": true,
                    "internalType": "bytes32",
                    "name": "role",
                    "type": "bytes32"
                },
                {
                    "indexed": true,
                    "internalType": "bytes32",
                    "name": "previousAdminRole",
                    "type": "bytes32"
                },
                {
                    "indexed": true,
                    "internalType": "bytes32",
                    "name": "newAdminRole",
                    "type": "bytes32"
                }
            ],
            "name": "RoleAdminChanged",
            "type": "event"
        },
        {
            "anonymous": false,
            "inputs": [
                {
                    "indexed": true,
                    "internalType": "bytes32",
                    "name": "role",
                    "type": "bytes32"
                },
                {
                    "indexed": true,
                    "internalType": "address",
                    "name": "account",
                    "type": "address"
                },
                {
                    "indexed": true,
                    "internalType": "address",
                    "name": "sender",
                    "type": "address"
                }
            ],
            "name": "RoleGranted",
            "type": "event"
        },
        {
            "anonymous": false,
            "inputs": [
                {
                    "indexed": true,
                    "internalType": "bytes32",
                    "name": "role",
                    "type": "bytes32"
                },
                {
                    "indexed": true,
                    "internalType": "address",
                    "name": "account",
                    "type": "address"
                },
                {
                    "indexed": true,
                    "internalType": "address",
                    "name": "sender",
                    "type": "address"
                }
            ],
            "name": "RoleRevoked",
            "type": "event"
        },
        {
            "anonymous": false,
            "inputs": [
                {
                    "indexed": true,
                    "internalType": "uint256",
                    "name": "messageNumber",
                    "type": "uint256"
                },
                {
                    "indexed": true,
                    "internalType": "bytes32",
                    "name": "rollingHash",
                    "type": "bytes32"
                },
                {
                    "indexed": true,
                    "internalType": "bytes32",
                    "name": "messageHash",
                    "type": "bytes32"
                }
            ],
            "name": "RollingHashUpdated",
            "type": "event"
        },
        {
            "anonymous": false,
            "inputs": [
                {
                    "indexed": true,
                    "internalType": "enum IPauseManager.PauseType",
                    "name": "unPauseType",
                    "type": "uint8"
                },
                {
                    "indexed": true,
                    "internalType": "bytes32",
                    "name": "role",
                    "type": "bytes32"
                }
            ],
            "name": "UnPauseTypeRoleSet",
            "type": "event"
        },
        {
            "anonymous": false,
            "inputs": [
                {
                    "indexed": true,
                    "internalType": "enum IPauseManager.PauseType",
                    "name": "unPauseType",
                    "type": "uint8"
                },
                {
                    "indexed": true,
                    "internalType": "bytes32",
                    "name": "role",
                    "type": "bytes32"
                },
                {
                    "indexed": true,
                    "internalType": "bytes32",
                    "name": "previousRole",
                    "type": "bytes32"
                }
            ],
            "name": "UnPauseTypeRoleUpdated",
            "type": "event"
        },
        {
            "anonymous": false,
            "inputs": [
                {
                    "indexed": false,
                    "internalType": "address",
                    "name": "messageSender",
                    "type": "address"
                },
                {
                    "indexed": true,
                    "internalType": "enum IPauseManager.PauseType",
                    "name": "pauseType",
                    "type": "uint8"
                }
            ],
            "name": "UnPaused",
            "type": "event"
        },
        {
            "anonymous": false,
            "inputs": [
                {
                    "indexed": false,
                    "internalType": "enum IPauseManager.PauseType",
                    "name": "pauseType",
                    "type": "uint8"
                }
            ],
            "name": "UnPausedDueToExpiry",
            "type": "event"
        },
        {
            "anonymous": false,
            "inputs": [
                {
                    "indexed": true,
                    "internalType": "address",
                    "name": "verifierAddress",
                    "type": "address"
                },
                {
                    "indexed": true,
                    "internalType": "uint256",
                    "name": "proofType",
                    "type": "uint256"
                },
                {
                    "indexed": true,
                    "internalType": "address",
                    "name": "verifierSetBy",
                    "type": "address"
                },
                {
                    "indexed": false,
                    "internalType": "address",
                    "name": "oldVerifierAddress",
                    "type": "address"
                }
            ],
            "name": "VerifierAddressChanged",
            "type": "event"
        },
        {
            "inputs": [],
            "name": "CONTRACT_VERSION",
            "outputs": [
                {
                    "internalType": "string",
                    "name": "contractVersion",
                    "type": "string"
                }
            ],
            "stateMutability": "view",
            "type": "function"
        },
        {
            "inputs": [],
            "name": "COOLDOWN_DURATION",
            "outputs": [
                {
                    "internalType": "uint256",
                    "name": "",
                    "type": "uint256"
                }
            ],
            "stateMutability": "view",
            "type": "function"
        },
        {
            "inputs": [],
            "name": "DEFAULT_ADMIN_ROLE",
            "outputs": [
                {
                    "internalType": "bytes32",
                    "name": "",
                    "type": "bytes32"
                }
            ],
            "stateMutability": "view",
            "type": "function"
        },
        {
            "inputs": [],
            "name": "INBOX_STATUS_RECEIVED",
            "outputs": [
                {
                    "internalType": "uint8",
                    "name": "",
                    "type": "uint8"
                }
            ],
            "stateMutability": "view",
            "type": "function"
        },
        {
            "inputs": [],
            "name": "INBOX_STATUS_UNKNOWN",
            "outputs": [
                {
                    "internalType": "uint8",
                    "name": "",
                    "type": "uint8"
                }
            ],
            "stateMutability": "view",
            "type": "function"
        },
        {
            "inputs": [],
            "name": "OPERATOR_ROLE",
            "outputs": [
                {
                    "internalType": "bytes32",
                    "name": "",
                    "type": "bytes32"
                }
            ],
            "stateMutability": "view",
            "type": "function"
        },
        {
            "inputs": [],
            "name": "OUTBOX_STATUS_RECEIVED",
            "outputs": [
                {
                    "internalType": "uint8",
                    "name": "",
                    "type": "uint8"
                }
            ],
            "stateMutability": "view",
            "type": "function"
        },
        {
            "inputs": [],
            "name": "OUTBOX_STATUS_SENT",
            "outputs": [
                {
                    "internalType": "uint8",
                    "name": "",
                    "type": "uint8"
                }
            ],
            "stateMutability": "view",
            "type": "function"
        },
        {
            "inputs": [],
            "name": "OUTBOX_STATUS_UNKNOWN",
            "outputs": [
                {
                    "internalType": "uint8",
                    "name": "",
                    "type": "uint8"
                }
            ],
            "stateMutability": "view",
            "type": "function"
        },
        {
            "inputs": [],
            "name": "PAUSE_ALL_ROLE",
            "outputs": [
                {
                    "internalType": "bytes32",
                    "name": "",
                    "type": "bytes32"
                }
            ],
            "stateMutability": "view",
            "type": "function"
        },
        {
            "inputs": [],
            "name": "PAUSE_DURATION",
            "outputs": [
                {
                    "internalType": "uint256",
                    "name": "",
                    "type": "uint256"
                }
            ],
            "stateMutability": "view",
            "type": "function"
        },
        {
            "inputs": [],
            "name": "PAUSE_FINALIZATION_ROLE",
            "outputs": [
                {
                    "internalType": "bytes32",
                    "name": "",
                    "type": "bytes32"
                }
            ],
            "stateMutability": "view",
            "type": "function"
        },
        {
            "inputs": [],
            "name": "PAUSE_L1_L2_ROLE",
            "outputs": [
                {
                    "internalType": "bytes32",
                    "name": "",
                    "type": "bytes32"
                }
            ],
            "stateMutability": "view",
            "type": "function"
        },
        {
            "inputs": [],
            "name": "PAUSE_L2_L1_ROLE",
            "outputs": [
                {
                    "internalType": "bytes32",
                    "name": "",
                    "type": "bytes32"
                }
            ],
            "stateMutability": "view",
            "type": "function"
        },
        {
            "inputs": [],
            "name": "PAUSE_STATE_DATA_SUBMISSION_ROLE",
            "outputs": [
                {
                    "internalType": "bytes32",
                    "name": "",
                    "type": "bytes32"
                }
            ],
            "stateMutability": "view",
            "type": "function"
        },
        {
            "inputs": [],
            "name": "RATE_LIMIT_SETTER_ROLE",
            "outputs": [
                {
                    "internalType": "bytes32",
                    "name": "",
                    "type": "bytes32"
                }
            ],
            "stateMutability": "view",
            "type": "function"
        },
        {
            "inputs": [],
            "name": "SECURITY_COUNCIL_ROLE",
            "outputs": [
                {
                    "internalType": "bytes32",
                    "name": "",
                    "type": "bytes32"
                }
            ],
            "stateMutability": "view",
            "type": "function"
        },
        {
            "inputs": [],
            "name": "UNPAUSE_ALL_ROLE",
            "outputs": [
                {
                    "internalType": "bytes32",
                    "name": "",
                    "type": "bytes32"
                }
            ],
            "stateMutability": "view",
            "type": "function"
        },
        {
            "inputs": [],
            "name": "UNPAUSE_FINALIZATION_ROLE",
            "outputs": [
                {
                    "internalType": "bytes32",
                    "name": "",
                    "type": "bytes32"
                }
            ],
            "stateMutability": "view",
            "type": "function"
        },
        {
            "inputs": [],
            "name": "UNPAUSE_L1_L2_ROLE",
            "outputs": [
                {
                    "internalType": "bytes32",
                    "name": "",
                    "type": "bytes32"
                }
            ],
            "stateMutability": "view",
            "type": "function"
        },
        {
            "inputs": [],
            "name": "UNPAUSE_L2_L1_ROLE",
            "outputs": [
                {
                    "internalType": "bytes32",
                    "name": "",
                    "type": "bytes32"
                }
            ],
            "stateMutability": "view",
            "type": "function"
        },
        {
            "inputs": [],
            "name": "UNPAUSE_STATE_DATA_SUBMISSION_ROLE",
            "outputs": [
                {
                    "internalType": "bytes32",
                    "name": "",
                    "type": "bytes32"
                }
            ],
            "stateMutability": "view",
            "type": "function"
        },
        {
            "inputs": [],
            "name": "USED_RATE_LIMIT_RESETTER_ROLE",
            "outputs": [
                {
                    "internalType": "bytes32",
                    "name": "",
                    "type": "bytes32"
                }
            ],
            "stateMutability": "view",
            "type": "function"
        },
        {
            "inputs": [],
            "name": "VERIFIER_SETTER_ROLE",
            "outputs": [
                {
                    "internalType": "bytes32",
                    "name": "",
                    "type": "bytes32"
                }
            ],
            "stateMutability": "view",
            "type": "function"
        },
        {
            "inputs": [],
            "name": "VERIFIER_UNSETTER_ROLE",
            "outputs": [
                {
                    "internalType": "bytes32",
                    "name": "",
                    "type": "bytes32"
                }
            ],
            "stateMutability": "view",
            "type": "function"
        },
        {
            "inputs": [
                {
                    "internalType": "bytes32",
                    "name": "_shnarf",
                    "type": "bytes32"
                }
            ],
            "name": "blobShnarfExists",
            "outputs": [
                {
                    "internalType": "uint256",
                    "name": "shnarfExists",
                    "type": "uint256"
                }
            ],
            "stateMutability": "view",
            "type": "function"
        },
        {
            "inputs": [
                {
                    "internalType": "address",
                    "name": "_from",
                    "type": "address"
                },
                {
                    "internalType": "address",
                    "name": "_to",
                    "type": "address"
                },
                {
                    "internalType": "uint256",
                    "name": "_fee",
                    "type": "uint256"
                },
                {
                    "internalType": "uint256",
                    "name": "_value",
                    "type": "uint256"
                },
                {
                    "internalType": "address payable",
                    "name": "_feeRecipient",
                    "type": "address"
                },
                {
                    "internalType": "bytes",
                    "name": "_calldata",
                    "type": "bytes"
                },
                {
                    "internalType": "uint256",
                    "name": "_nonce",
                    "type": "uint256"
                }
            ],
            "name": "claimMessage",
            "outputs": [],
            "stateMutability": "nonpayable",
            "type": "function"
        },
        {
            "inputs": [
                {
                    "components": [
                        {
                            "internalType": "bytes32[]",
                            "name": "proof",
                            "type": "bytes32[]"
                        },
                        {
                            "internalType": "uint256",
                            "name": "messageNumber",
                            "type": "uint256"
                        },
                        {
                            "internalType": "uint32",
                            "name": "leafIndex",
                            "type": "uint32"
                        },
                        {
                            "internalType": "address",
                            "name": "from",
                            "type": "address"
                        },
                        {
                            "internalType": "address",
                            "name": "to",
                            "type": "address"
                        },
                        {
                            "internalType": "uint256",
                            "name": "fee",
                            "type": "uint256"
                        },
                        {
                            "internalType": "uint256",
                            "name": "value",
                            "type": "uint256"
                        },
                        {
                            "internalType": "address payable",
                            "name": "feeRecipient",
                            "type": "address"
                        },
                        {
                            "internalType": "bytes32",
                            "name": "merkleRoot",
                            "type": "bytes32"
                        },
                        {
                            "internalType": "bytes",
                            "name": "data",
                            "type": "bytes"
                        }
                    ],
                    "internalType": "struct IL1MessageService.ClaimMessageWithProofParams",
                    "name": "_params",
                    "type": "tuple"
                }
            ],
            "name": "claimMessageWithProof",
            "outputs": [],
            "stateMutability": "nonpayable",
            "type": "function"
        },
        {
            "inputs": [],
            "name": "currentFinalizedShnarf",
            "outputs": [
                {
                    "internalType": "bytes32",
                    "name": "",
                    "type": "bytes32"
                }
            ],
            "stateMutability": "view",
            "type": "function"
        },
        {
            "inputs": [],
            "name": "currentFinalizedState",
            "outputs": [
                {
                    "internalType": "bytes32",
                    "name": "",
                    "type": "bytes32"
                }
            ],
            "stateMutability": "view",
            "type": "function"
        },
        {
            "inputs": [],
            "name": "currentL2BlockNumber",
            "outputs": [
                {
                    "internalType": "uint256",
                    "name": "",
                    "type": "uint256"
                }
            ],
            "stateMutability": "view",
            "type": "function"
        },
        {
            "inputs": [],
            "name": "currentPeriodAmountInWei",
            "outputs": [
                {
                    "internalType": "uint256",
                    "name": "",
                    "type": "uint256"
                }
            ],
            "stateMutability": "view",
            "type": "function"
        },
        {
            "inputs": [],
            "name": "currentPeriodEnd",
            "outputs": [
                {
                    "internalType": "uint256",
                    "name": "",
                    "type": "uint256"
                }
            ],
            "stateMutability": "view",
            "type": "function"
        },
        {
            "inputs": [
                {
                    "internalType": "bytes",
                    "name": "_aggregatedProof",
                    "type": "bytes"
                },
                {
                    "internalType": "uint256",
                    "name": "_proofType",
                    "type": "uint256"
                },
                {
                    "components": [
                        {
                            "internalType": "bytes32",
                            "name": "parentStateRootHash",
                            "type": "bytes32"
                        },
                        {
                            "internalType": "uint256",
                            "name": "endBlockNumber",
                            "type": "uint256"
                        },
                        {
                            "components": [
                                {
                                    "internalType": "bytes32",
                                    "name": "parentShnarf",
                                    "type": "bytes32"
                                },
                                {
                                    "internalType": "bytes32",
                                    "name": "snarkHash",
                                    "type": "bytes32"
                                },
                                {
                                    "internalType": "bytes32",
                                    "name": "finalStateRootHash",
                                    "type": "bytes32"
                                },
                                {
                                    "internalType": "bytes32",
                                    "name": "dataEvaluationPoint",
                                    "type": "bytes32"
                                },
                                {
                                    "internalType": "bytes32",
                                    "name": "dataEvaluationClaim",
                                    "type": "bytes32"
                                }
                            ],
                            "internalType": "struct ILineaRollupBase.ShnarfData",
                            "name": "shnarfData",
                            "type": "tuple"
                        },
                        {
                            "internalType": "uint256",
                            "name": "lastFinalizedTimestamp",
                            "type": "uint256"
                        },
                        {
                            "internalType": "uint256",
                            "name": "finalTimestamp",
                            "type": "uint256"
                        },
                        {
                            "internalType": "bytes32",
                            "name": "lastFinalizedL1RollingHash",
                            "type": "bytes32"
                        },
                        {
                            "internalType": "bytes32",
                            "name": "l1RollingHash",
                            "type": "bytes32"
                        },
                        {
                            "internalType": "uint256",
                            "name": "lastFinalizedL1RollingHashMessageNumber",
                            "type": "uint256"
                        },
                        {
                            "internalType": "uint256",
                            "name": "l1RollingHashMessageNumber",
                            "type": "uint256"
                        },
                        {
                            "internalType": "uint256",
                            "name": "l2MerkleTreesDepth",
                            "type": "uint256"
                        },
                        {
                            "internalType": "bytes32[]",
                            "name": "l2MerkleRoots",
                            "type": "bytes32[]"
                        },
                        {
                            "internalType": "bytes",
                            "name": "l2MessagingBlocksOffsets",
                            "type": "bytes"
                        }
                    ],
                    "internalType": "struct ILineaRollupBase.FinalizationDataV3",
                    "name": "_finalizationData",
                    "type": "tuple"
                }
            ],
            "name": "finalizeBlocks",
            "outputs": [],
            "stateMutability": "nonpayable",
            "type": "function"
        },
        {
            "inputs": [
                {
                    "internalType": "bytes32",
                    "name": "role",
                    "type": "bytes32"
                }
            ],
            "name": "getRoleAdmin",
            "outputs": [
                {
                    "internalType": "bytes32",
                    "name": "",
                    "type": "bytes32"
                }
            ],
            "stateMutability": "view",
            "type": "function"
        },
        {
            "inputs": [
                {
                    "internalType": "bytes32",
                    "name": "role",
                    "type": "bytes32"
                },
                {
                    "internalType": "address",
                    "name": "account",
                    "type": "address"
                }
            ],
            "name": "grantRole",
            "outputs": [],
            "stateMutability": "nonpayable",
            "type": "function"
        },
        {
            "inputs": [
                {
                    "internalType": "bytes32",
                    "name": "role",
                    "type": "bytes32"
                },
                {
                    "internalType": "address",
                    "name": "account",
                    "type": "address"
                }
            ],
            "name": "hasRole",
            "outputs": [
                {
                    "internalType": "bool",
                    "name": "",
                    "type": "bool"
                }
            ],
            "stateMutability": "view",
            "type": "function"
        },
        {
            "inputs": [
                {
                    "internalType": "bytes32",
                    "name": "messageHash",
                    "type": "bytes32"
                }
            ],
            "name": "inboxL2L1MessageStatus",
            "outputs": [
                {
                    "internalType": "uint256",
                    "name": "messageStatus",
                    "type": "uint256"
                }
            ],
            "stateMutability": "view",
            "type": "function"
        },
        {
            "inputs": [
                {
                    "components": [
                        {
                            "internalType": "bytes32",
                            "name": "initialStateRootHash",
                            "type": "bytes32"
                        },
                        {
                            "internalType": "uint256",
                            "name": "initialL2BlockNumber",
                            "type": "uint256"
                        },
                        {
                            "internalType": "uint256",
                            "name": "genesisTimestamp",
                            "type": "uint256"
                        },
                        {
                            "internalType": "address",
                            "name": "defaultVerifier",
                            "type": "address"
                        },
                        {
                            "internalType": "uint256",
                            "name": "rateLimitPeriodInSeconds",
                            "type": "uint256"
                        },
                        {
                            "internalType": "uint256",
                            "name": "rateLimitAmountInWei",
                            "type": "uint256"
                        },
                        {
                            "components": [
                                {
                                    "internalType": "address",
                                    "name": "addressWithRole",
                                    "type": "address"
                                },
                                {
                                    "internalType": "bytes32",
                                    "name": "role",
                                    "type": "bytes32"
                                }
                            ],
                            "internalType": "struct IPermissionsManager.RoleAddress[]",
                            "name": "roleAddresses",
                            "type": "tuple[]"
                        },
                        {
                            "components": [
                                {
                                    "internalType": "enum IPauseManager.PauseType",
                                    "name": "pauseType",
                                    "type": "uint8"
                                },
                                {
                                    "internalType": "bytes32",
                                    "name": "role",
                                    "type": "bytes32"
                                }
                            ],
                            "internalType": "struct IPauseManager.PauseTypeRole[]",
                            "name": "pauseTypeRoles",
                            "type": "tuple[]"
                        },
                        {
                            "components": [
                                {
                                    "internalType": "enum IPauseManager.PauseType",
                                    "name": "pauseType",
                                    "type": "uint8"
                                },
                                {
                                    "internalType": "bytes32",
                                    "name": "role",
                                    "type": "bytes32"
                                }
                            ],
                            "internalType": "struct IPauseManager.PauseTypeRole[]",
                            "name": "unpauseTypeRoles",
                            "type": "tuple[]"
                        },
                        {
                            "internalType": "address",
                            "name": "defaultAdmin",
                            "type": "address"
                        },
                        {
                            "internalType": "address",
                            "name": "shnarfProvider",
                            "type": "address"
                        }
                    ],
                    "internalType": "struct ILineaRollupBase.BaseInitializationData",
                    "name": "_initializationData",
                    "type": "tuple"
                },
                {
                    "internalType": "address",
                    "name": "_livenessRecoveryOperator",
                    "type": "address"
                }
            ],
            "name": "initialize",
            "outputs": [],
            "stateMutability": "nonpayable",
            "type": "function"
        },
        {
            "inputs": [
                {
                    "internalType": "uint256",
                    "name": "_messageNumber",
                    "type": "uint256"
                }
            ],
            "name": "isMessageClaimed",
            "outputs": [
                {
                    "internalType": "bool",
                    "name": "isClaimed",
                    "type": "bool"
                }
            ],
            "stateMutability": "view",
            "type": "function"
        },
        {
            "inputs": [
                {
                    "internalType": "enum IPauseManager.PauseType",
                    "name": "_pauseType",
                    "type": "uint8"
                }
            ],
            "name": "isPaused",
            "outputs": [
                {
                    "internalType": "bool",
                    "name": "pauseTypeIsPaused",
                    "type": "bool"
                }
            ],
            "stateMutability": "view",
            "type": "function"
        },
        {
            "inputs": [
                {
                    "internalType": "bytes32",
                    "name": "merkleRoot",
                    "type": "bytes32"
                }
            ],
            "name": "l2MerkleRootsDepths",
            "outputs": [
                {
                    "internalType": "uint256",
                    "name": "treeDepth",
                    "type": "uint256"
                }
            ],
            "stateMutability": "view",
            "type": "function"
        },
        {
            "inputs": [],
            "name": "limitInWei",
            "outputs": [
                {
                    "internalType": "uint256",
                    "name": "",
                    "type": "uint256"
                }
            ],
            "stateMutability": "view",
            "type": "function"
        },
        {
            "inputs": [],
            "name": "livenessRecoveryOperator",
            "outputs": [
                {
                    "internalType": "address",
                    "name": "",
                    "type": "address"
                }
            ],
            "stateMutability": "view",
            "type": "function"
        },
        {
            "inputs": [],
            "name": "nextMessageNumber",
            "outputs": [
                {
                    "internalType": "uint256",
                    "name": "",
                    "type": "uint256"
                }
            ],
            "stateMutability": "view",
            "type": "function"
        },
        {
            "inputs": [
                {
                    "internalType": "bytes32",
                    "name": "messageHash",
                    "type": "bytes32"
                }
            ],
            "name": "outboxL1L2MessageStatus",
            "outputs": [
                {
                    "internalType": "uint256",
                    "name": "messageStatus",
                    "type": "uint256"
                }
            ],
            "stateMutability": "view",
            "type": "function"
        },
        {
            "inputs": [
                {
                    "internalType": "enum IPauseManager.PauseType",
                    "name": "_pauseType",
                    "type": "uint8"
                }
            ],
            "name": "pauseByType",
            "outputs": [],
            "stateMutability": "nonpayable",
            "type": "function"
        },
        {
            "inputs": [],
            "name": "pauseExpiryTimestamp",
            "outputs": [
                {
                    "internalType": "uint256",
                    "name": "",
                    "type": "uint256"
                }
            ],
            "stateMutability": "view",
            "type": "function"
        },
        {
            "inputs": [],
            "name": "periodInSeconds",
            "outputs": [
                {
                    "internalType": "uint256",
                    "name": "",
                    "type": "uint256"
                }
            ],
            "stateMutability": "view",
            "type": "function"
        },
        {
            "inputs": [
                {
                    "components": [
                        {
                            "internalType": "address",
                            "name": "addressWithRole",
                            "type": "address"
                        },
                        {
                            "internalType": "bytes32",
                            "name": "role",
                            "type": "bytes32"
                        }
                    ],
                    "internalType": "struct IPermissionsManager.RoleAddress[]",
                    "name": "_roleAddresses",
                    "type": "tuple[]"
                },
                {
                    "components": [
                        {
                            "internalType": "enum IPauseManager.PauseType",
                            "name": "pauseType",
                            "type": "uint8"
                        },
                        {
                            "internalType": "bytes32",
                            "name": "role",
                            "type": "bytes32"
                        }
                    ],
                    "internalType": "struct IPauseManager.PauseTypeRole[]",
                    "name": "_pauseTypeRoles",
                    "type": "tuple[]"
                },
                {
                    "components": [
                        {
                            "internalType": "enum IPauseManager.PauseType",
                            "name": "pauseType",
                            "type": "uint8"
                        },
                        {
                            "internalType": "bytes32",
                            "name": "role",
                            "type": "bytes32"
                        }
                    ],
                    "internalType": "struct IPauseManager.PauseTypeRole[]",
                    "name": "_unpauseTypeRoles",
                    "type": "tuple[]"
                }
            ],
            "name": "reinitializeV8",
            "outputs": [],
            "stateMutability": "nonpayable",
            "type": "function"
        },
        {
            "inputs": [
                {
                    "internalType": "bytes32",
                    "name": "_role",
                    "type": "bytes32"
                },
                {
                    "internalType": "address",
                    "name": "_account",
                    "type": "address"
                }
            ],
            "name": "renounceRole",
            "outputs": [],
            "stateMutability": "nonpayable",
            "type": "function"
        },
        {
            "inputs": [],
            "name": "resetAmountUsedInPeriod",
            "outputs": [],
            "stateMutability": "nonpayable",
            "type": "function"
        },
        {
            "inputs": [
                {
                    "internalType": "uint256",
                    "name": "_amount",
                    "type": "uint256"
                }
            ],
            "name": "resetRateLimitAmount",
            "outputs": [],
            "stateMutability": "nonpayable",
            "type": "function"
        },
        {
            "inputs": [
                {
                    "internalType": "bytes32",
                    "name": "role",
                    "type": "bytes32"
                },
                {
                    "internalType": "address",
                    "name": "account",
                    "type": "address"
                }
            ],
            "name": "revokeRole",
            "outputs": [],
            "stateMutability": "nonpayable",
            "type": "function"
        },
        {
            "inputs": [
                {
                    "internalType": "uint256",
                    "name": "messageNumber",
                    "type": "uint256"
                }
            ],
            "name": "rollingHashes",
            "outputs": [
                {
                    "internalType": "bytes32",
                    "name": "rollingHash",
                    "type": "bytes32"
                }
            ],
            "stateMutability": "view",
            "type": "function"
        },
        {
            "inputs": [
                {
                    "internalType": "address",
                    "name": "_to",
                    "type": "address"
                },
                {
                    "internalType": "uint256",
                    "name": "_fee",
                    "type": "uint256"
                },
                {
                    "internalType": "bytes",
                    "name": "_calldata",
                    "type": "bytes"
                }
            ],
            "name": "sendMessage",
            "outputs": [],
            "stateMutability": "payable",
            "type": "function"
        },
        {
            "inputs": [],
            "name": "sender",
            "outputs": [
                {
                    "internalType": "address",
                    "name": "originalSender",
                    "type": "address"
                }
            ],
            "stateMutability": "view",
            "type": "function"
        },
        {
            "inputs": [
                {
                    "internalType": "uint256",
                    "name": "_messageNumber",
                    "type": "uint256"
                },
                {
                    "internalType": "bytes32",
                    "name": "_rollingHash",
                    "type": "bytes32"
                },
                {
                    "internalType": "uint256",
                    "name": "_lastFinalizedTimestamp",
                    "type": "uint256"
                }
            ],
            "name": "setLivenessRecoveryOperator",
            "outputs": [],
            "stateMutability": "nonpayable",
            "type": "function"
        },
        {
            "inputs": [
                {
                    "internalType": "address",
                    "name": "_newVerifierAddress",
                    "type": "address"
                },
                {
                    "internalType": "uint256",
                    "name": "_proofType",
                    "type": "uint256"
                }
            ],
            "name": "setVerifierAddress",
            "outputs": [],
            "stateMutability": "nonpayable",
            "type": "function"
        },
        {
            "inputs": [],
            "name": "shnarfProvider",
            "outputs": [
                {
                    "internalType": "contract IProvideShnarf",
                    "name": "",
                    "type": "address"
                }
            ],
            "stateMutability": "view",
            "type": "function"
        },
        {
            "inputs": [
                {
                    "internalType": "uint256",
                    "name": "blockNumber",
                    "type": "uint256"
                }
            ],
            "name": "stateRootHashes",
            "outputs": [
                {
                    "internalType": "bytes32",
                    "name": "stateRootHash",
                    "type": "bytes32"
                }
            ],
            "stateMutability": "view",
            "type": "function"
        },
        {
            "inputs": [
                {
                    "components": [
                        {
                            "internalType": "uint256",
                            "name": "dataEvaluationClaim",
                            "type": "uint256"
                        },
                        {
                            "internalType": "bytes",
                            "name": "kzgCommitment",
                            "type": "bytes"
                        },
                        {
                            "internalType": "bytes",
                            "name": "kzgProof",
                            "type": "bytes"
                        },
                        {
                            "internalType": "bytes32",
                            "name": "finalStateRootHash",
                            "type": "bytes32"
                        },
                        {
                            "internalType": "bytes32",
                            "name": "snarkHash",
                            "type": "bytes32"
                        }
                    ],
                    "internalType": "struct IAcceptEip4844Blobs.BlobSubmission[]",
                    "name": "_blobSubmissions",
                    "type": "tuple[]"
                },
                {
                    "internalType": "bytes32",
                    "name": "_parentShnarf",
                    "type": "bytes32"
                },
                {
                    "internalType": "bytes32",
                    "name": "_finalBlobShnarf",
                    "type": "bytes32"
                }
            ],
            "name": "submitBlobs",
            "outputs": [],
            "stateMutability": "nonpayable",
            "type": "function"
        },
        {
            "inputs": [
                {
                    "internalType": "bytes4",
                    "name": "interfaceId",
                    "type": "bytes4"
                }
            ],
            "name": "supportsInterface",
            "outputs": [
                {
                    "internalType": "bool",
                    "name": "",
                    "type": "bool"
                }
            ],
            "stateMutability": "view",
            "type": "function"
        },
        {
            "inputs": [],
            "name": "systemMigrationBlock",
            "outputs": [
                {
                    "internalType": "uint256",
                    "name": "",
                    "type": "uint256"
                }
            ],
            "stateMutability": "view",
            "type": "function"
        },
        {
            "inputs": [
                {
                    "internalType": "enum IPauseManager.PauseType",
                    "name": "_pauseType",
                    "type": "uint8"
                }
            ],
            "name": "unPauseByExpiredType",
            "outputs": [],
            "stateMutability": "nonpayable",
            "type": "function"
        },
        {
            "inputs": [
                {
                    "internalType": "enum IPauseManager.PauseType",
                    "name": "_pauseType",
                    "type": "uint8"
                }
            ],
            "name": "unPauseByType",
            "outputs": [],
            "stateMutability": "nonpayable",
            "type": "function"
        },
        {
            "inputs": [
                {
                    "internalType": "uint256",
                    "name": "_proofType",
                    "type": "uint256"
                }
            ],
            "name": "unsetVerifierAddress",
            "outputs": [],
            "stateMutability": "nonpayable",
            "type": "function"
        },
        {
            "inputs": [
                {
                    "internalType": "enum IPauseManager.PauseType",
                    "name": "_pauseType",
                    "type": "uint8"
                },
                {
                    "internalType": "bytes32",
                    "name": "_newRole",
                    "type": "bytes32"
                }
            ],
            "name": "updatePauseTypeRole",
            "outputs": [],
            "stateMutability": "nonpayable",
            "type": "function"
        },
        {
            "inputs": [
                {
                    "internalType": "enum IPauseManager.PauseType",
                    "name": "_pauseType",
                    "type": "uint8"
                },
                {
                    "internalType": "bytes32",
                    "name": "_newRole",
                    "type": "bytes32"
                }
            ],
            "name": "updateUnpauseTypeRole",
            "outputs": [],
            "stateMutability": "nonpayable",
            "type": "function"
        },
        {
            "inputs": [
                {
                    "internalType": "uint256",
                    "name": "proofType",
                    "type": "uint256"
                }
            ],
            "name": "verifiers",
            "outputs": [
                {
                    "internalType": "address",
                    "name": "verifierAddress",
                    "type": "address"
                }
            ],
            "stateMutability": "view",
            "type": "function"
        }
    ],
    "bytecode": "0x6080604052348015600e575f5ffd5b506015601f565b601b601f565b60d9565b5f54610100900460ff161560895760405162461bcd60e51b815260206004820152602760248201527f496e697469616c697a61626c653a20636f6e747261637420697320696e697469604482015266616c697a696e6760c81b606482015260840160405180910390fd5b5f5460ff9081161460d7575f805460ff191660ff9081179091556040519081527f7f26b83ff96e1f2b6a682f133852f6798a09c465da95921460cefb38474024989060200160405180910390a15b565b61574d806100e65f395ff3fe60806040526004361061044f575f3560e01c806373bd07b711610237578063ac1eff681161013c578063c1dc0f07116100b7578063d547741f11610087578063dd342d331161006d578063dd342d3314610db8578063e196fb5d14610dd7578063f5b541a614610df6575f5ffd5b8063d547741f14610d66578063d722bbfc14610d85575f5ffd5b8063c1dc0f0714610ce9578063c211697414610cfe578063cc6f725114610d1d578063cd9b9e9a14610d50575f5ffd5b8063b9174ba31161010c578063bc61e733116100f2578063bc61e73314610c82578063bf3e750514610ca1578063c0729ab114610cd4575f5ffd5b8063b9174ba314610c1c578063b9fe5cf714610c4f575f5ffd5b8063ac1eff6814610ba9578063ad422ff014610bde578063aea4f74514610bf3578063b837dbe914610c07575f5ffd5b806392fa129a116101cc5780639ac25d081161019c5780639f3ce55a116101825780639f3ce55a14610b50578063a217fddf14610b63578063a505925f14610b76575f5ffd5b80639ac25d0814610afe5780639ee8b21114610b31575f5ffd5b806392fa129a14610aab57806395ba81fa14610ac0578063986fcddd146109b357806399467a3514610adf575f5ffd5b80638de49487116102075780638de49487146109f2578063914e57eb14610a2557806391d1485414610a51578063921b278e14610a95575f5ffd5b806373bd07b71461096c57806378ea198a146109805780637d1e8c55146109b35780638be745d1146109c6575f5ffd5b80633fc08b65116103575780635c721a0c116102d25780636463fb2a116102a2578063695378f511610288578063695378f5146108f05780636a906b80146109065780636e67384314610939575f5ffd5b80636463fb2a146108b457806367e404ce146108d3575f5ffd5b80635c721a0c146108145780635ec775b01461083f57806360e83cf3146108555780636321315514610881575f5ffd5b806352abf32d116103275780635603c65f1161030d5780635603c65f146107e057806358794456146107ff5780635b7eb4bd1461072a575f5ffd5b806352abf32d146107a2578063557eac73146107c1575f5ffd5b80633fc08b65146106ff57806348922ab71461072a578063491e0936146107505780635230eef21461076f575f5ffd5b80632c70645c116103e757806338b90333116103b75780633b12eccb1161039d5780633b12eccb1461068d5780633c0f20fc146106c05780633e9ebfc2146106e0575f5ffd5b806338b90333146106235780633a4c25551461066e575f5ffd5b80632c70645c146105b05780632f2ff15d146105c6578063335f2e38146105e557806336568abe14610604575f5ffd5b806321b4deee1161042257806321b4deee14610515578063248a9ca31461052b57806328958174146105595780632acc8df914610578575f5ffd5b806301ffc9a71461045357806303134d1d146104875780631065a399146104c85780632130d812146104e9575b5f5ffd5b34801561045e575f5ffd5b5061047261046d3660046148fd565b610e29565b60405190151581526020015b60405180910390f35b348015610492575f5ffd5b506104ba7f1ab87f7458c0e3d07e9881c14ee67f0141703614fd48ea5b15ed987e5f4b030e81565b60405190815260200161047e565b3480156104d3575f5ffd5b506104e76104e236600461494f565b610ec1565b005b3480156104f4575f5ffd5b506104ba610503366004614968565b5f9081526101be602052604090205490565b348015610520575f5ffd5b506104ba6203f48081565b348015610536575f5ffd5b506104ba610545366004614968565b5f9081526065602052604090206001015490565b348015610564575f5ffd5b506104e7610573366004614968565b611051565b348015610583575f5ffd5b506101c054610598906001600160a01b031681565b6040516001600160a01b03909116815260200161047e565b3480156105bb575f5ffd5b506104ba6101835481565b3480156105d1575f5ffd5b506104e76105e036600461499e565b611104565b3480156105f0575f5ffd5b506104e76105ff366004614a14565b61112d565b34801561060f575f5ffd5b506104e761061e36600461499e565b611381565b34801561062e575f5ffd5b50604080518082018252600381527f372e3100000000000000000000000000000000000000000000000000000000006020820152905161047e9190614ab3565b348015610679575f5ffd5b506104e7610688366004614ae8565b61138f565b348015610698575f5ffd5b506104ba7fb6cc65f42901ed602aec1619cc1ead29d487cd489094a37615153eaeb991d77081565b3480156106cb575f5ffd5b506101c154610598906001600160a01b031681565b3480156106eb575f5ffd5b506104e76106fa366004614b11565b6114bf565b34801561070a575f5ffd5b506104ba610719366004614968565b60a56020525f908152604090205481565b348015610735575f5ffd5b5061073e600181565b60405160ff909116815260200161047e565b34801561075b575f5ffd5b506104e761076a366004614b77565b61161e565b34801561077a575f5ffd5b506104ba7f0cf0d2deb70d7bdac2fa48c4ac99bc558170be0ce5fcb994caefa4bf7b96edf981565b3480156107ad575f5ffd5b506104e76107bc366004614b11565b611902565b3480156107cc575f5ffd5b506104e76107db366004614968565b611a61565b3480156107eb575f5ffd5b506104e76107fa366004614c07565b611b27565b34801561080a575f5ffd5b506104ba60995481565b34801561081f575f5ffd5b506104ba61082e366004614968565b60a66020525f908152604090205481565b34801561084a575f5ffd5b506104ba6201518081565b348015610860575f5ffd5b506104ba61086f366004614968565b6101506020525f908152604090205481565b34801561088c575f5ffd5b506104ba7fe37c272ea30e2bb381ad7cf89ae754b49153250609f36d0cbdad8b64c184bb5c81565b3480156108bf575f5ffd5b506104e76108ce366004614c7f565b611cc0565b3480156108de575f5ffd5b5060015c6001600160a01b0316610598565b3480156108fb575f5ffd5b506104ba6101195481565b348015610911575f5ffd5b506104ba7fd8b4c34c2ec1f3194471108c64ad2beda340c0337ee4ca35592f9ef270f4228b81565b348015610944575f5ffd5b506104ba7f32937fd5162e282df7e9a14a5073a2425321c7966eaf70ed6c838a1006d84c4c81565b348015610977575f5ffd5b5061073e600281565b34801561098b575f5ffd5b506104ba7f4df33217c89b6f12af38ba46035cb312b5e88de78d22279286830fe079b642cd81565b3480156109be575f5ffd5b5061073e5f81565b3480156109d1575f5ffd5b506104ba6109e0366004614968565b61011a6020525f908152604090205481565b3480156109fd575f5ffd5b506104ba7fe1fce82838dd7a42cfe783f60dc6233c8aa2c4fc66e77817805e767ec5e349b681565b348015610a30575f5ffd5b506104ba610a3f366004614968565b61014e6020525f908152604090205481565b348015610a5c575f5ffd5b50610472610a6b36600461499e565b5f9182526065602090815260408084206001600160a01b0393909316845291905290205460ff1690565b348015610aa0575f5ffd5b506104ba6101bf5481565b348015610ab6575f5ffd5b506104ba60dd5481565b348015610acb575f5ffd5b506104e7610ada36600461494f565b611e57565b348015610aea575f5ffd5b506104e7610af9366004614cb7565b611f82565b348015610b09575f5ffd5b506104ba7f56bdc3c9ec86cb7db110a7699b2ade72f0b8819727d9f7d906b012641505fa7781565b348015610b3c575f5ffd5b50610472610b4b366004614968565b611fcb565b6104e7610b5e366004614d34565b611fee565b348015610b6e575f5ffd5b506104ba5f81565b348015610b81575f5ffd5b506104ba7f21aba2dd4535739d4ca4cddb3c024036bfcc88cfce067cb0847e7ad0f9cfaa5581565b348015610bb4575f5ffd5b50610598610bc3366004614968565b61011b6020525f90815260409020546001600160a01b031681565b348015610be9575f5ffd5b506104ba60985481565b348015610bfe575f5ffd5b506104e761200c565b348015610c12575f5ffd5b506104ba60e45481565b348015610c27575f5ffd5b506104ba7f430a7f0cb00b5ebbe63cecc96e82cf959a883e7c13a95110854f1fa6b3fbf59881565b348015610c5a575f5ffd5b506104ba7f1453a531db80c85f2d944d498709d84959bc5bf839eefe9acb784571e5a3211881565b348015610c8d575f5ffd5b50610472610c9c36600461494f565b612067565b348015610cac575f5ffd5b506104ba7f1185e52d62bfbbea270e57d3d09733d221b53ab7a18bae82bb3c6c74bab16d8281565b348015610cdf575f5ffd5b506104ba609a5481565b348015610cf4575f5ffd5b506104ba60975481565b348015610d09575f5ffd5b506104e7610d18366004614d8c565b61208b565b348015610d28575f5ffd5b506104ba7fe8cb6172fcf5cbaae022b7c910224a4f0c20d53227e630056efff182155a5abc81565b348015610d5b575f5ffd5b506104ba6101bd5481565b348015610d71575f5ffd5b506104e7610d8036600461499e565b612191565b348015610d90575f5ffd5b506104ba7f6b5661ddfbd1fbd525c902a513e0f47d9c74f1c1ee8a2d4f1937ad305fb8f41a81565b348015610dc3575f5ffd5b506104e7610dd2366004614da8565b6121b5565b348015610de2575f5ffd5b506104e7610df136600461494f565b612389565b348015610e01575f5ffd5b506104ba7f97667070c54ef182b0f5858b034beac1b6f3089aa2d3188bb1e8929f4fa9b92981565b5f7fffffffff0000000000000000000000000000000000000000000000000000000082167f7965db0b000000000000000000000000000000000000000000000000000000001480610ebb57507f01ffc9a7000000000000000000000000000000000000000000000000000000007fffffffff000000000000000000000000000000000000000000000000000000008316145b92915050565b805f816009811115610ed557610ed5614df1565b03610f0c576040517f85994c7700000000000000000000000000000000000000000000000000000000815260040160405180910390fd5b60dc5f836009811115610f2157610f21614df1565b6009811115610f3257610f32614df1565b81526020019081526020015f2054610f4981612561565b610f5283612067565b610f9357826040517f18659654000000000000000000000000000000000000000000000000000000008152600401610f8a9190614e57565b60405180910390fd5b335f9081527f74a8627e7e8109f70747bbdf2c891159d40f925b9c8f09259a497b8c31b3780b602052604090205460ff1615610fda57610fd66201518042614e92565b60dd555b826009811115610fec57610fec614df1565b60da8054600190921b19909116905582600981111561100d5761100d614df1565b7fd071d2b85dec4489435b541d2f0e2570db09b09db9efd8703948d44a433df65a335b6040516001600160a01b0390911681526020015b60405180910390a2505050565b7f6b5661ddfbd1fbd525c902a513e0f47d9c74f1c1ee8a2d4f1937ad305fb8f41a61107b81612561565b5f82815261011b602090815260408083205490516001600160a01b0390911681523392859290917f4a29db3fc6b42bda201e4b4d69ce8d575eeeba5f153509c0d0a342af0f1bd021910160405180910390a4505f90815261011b6020526040902080547fffffffffffffffffffffffff0000000000000000000000000000000000000000169055565b5f8281526065602052604090206001015461111e81612561565b611128838361256e565b505050565b5f54600890610100900460ff1615801561114d57505f5460ff8083169116105b6111d9576040517f08c379a000000000000000000000000000000000000000000000000000000000815260206004820152602e60248201527f496e697469616c697a61626c653a20636f6e747261637420697320616c72656160448201527f647920696e697469616c697a65640000000000000000000000000000000000006064820152608401610f8a565b5f80547fffffffffffffffffffffffffffffffffffffffffffffffffffffffffffff00001660ff8316176101001790557fb53127684a568b3173ae13b9f8a6016e243e63b6e8ee1178d6a717850b5d610354336001600160a01b0382161461126d576040517feca393e800000000000000000000000000000000000000000000000000000000815260040160405180910390fd5b6112798686868661262c565b61128388886128d3565b6101c180547fffffffffffffffffffffffff000000000000000000000000000000000000000016301790556040517f372e310000000000000000000000000000000000000000000000000000000000907f372e300000000000000000000000000000000000000000000000000000000000907f2f8492a7a430cf917798dfb60bc5af634f68e6c40287947df0ea6f7ec0669bd8905f90a3505f80547fffffffffffffffffffffffffffffffffffffffffffffffffffffffffffff00ff16905560405160ff821681527f7f26b83ff96e1f2b6a682f133852f6798a09c465da95921460cefb38474024989060200160405180910390a150505050505050565b61138b8282612a86565b5050565b61139c62f099c082614ea5565b4210156113d5576040517f4306cbb100000000000000000000000000000000000000000000000000000000815260040160405180910390fd5b6040805184815260208101849052908101829052606090206101bf541461144d576101bf546040805185815260208101859052908101839052606090206040517fbc5aad1100000000000000000000000000000000000000000000000000000000815260048101929092526024820152604401610f8a565b6101c0546001600160a01b03166114847f97667070c54ef182b0f5858b034beac1b6f3089aa2d3188bb1e8929f4fa9b9298261256e565b6040516001600160a01b0382169033907f6cfaf6b76ea493a8e88b6b95f7b34cdaae196c4ed737b32e72c5d9e8d0a18518905f90a350505050565b815f8160098111156114d3576114d3614df1565b0361150a576040517f85994c7700000000000000000000000000000000000000000000000000000000815260040160405180910390fd5b7f1453a531db80c85f2d944d498709d84959bc5bf839eefe9acb784571e5a3211861153481612561565b5f60db5f86600981111561154a5761154a614df1565b600981111561155b5761155b614df1565b81526020019081526020015f205490508381036115a4576040517f1b807f5500000000000000000000000000000000000000000000000000000000815260040160405180910390fd5b8360db5f8760098111156115ba576115ba614df1565b60098111156115cb576115cb614df1565b815260208101919091526040015f205580848660098111156115ef576115ef614df1565b6040517f074bfc3728ef1e98bde10bcb5bd8cde59cff190c2bfda5d22f879f865a07bac5905f90a45050505050565b60015f5c03611659576040517f37ed32e800000000000000000000000000000000000000000000000000000000815260040160405180910390fd5b6001805f5d5085878484875f5a90506116726003612ad9565b8d6001805c7fffffffffffffffffffffffff0000000000000000000000000000000000000000166001600160a01b03831617905d505f6116b78f8f8f8f8c8f8f612b6b565b90506116c281612bc4565b6116d46116cf8d8f614ea5565b612c1e565b5f5f8f6001600160a01b03168e8d8d6040516116f1929190614eb8565b5f6040518083038185875af1925050503d805f811461172b576040519150601f19603f3d011682016040523d82523d5f602084013e611730565b606091505b50915091508161178d5780511561174a5780518082602001fd5b8f6040517f54613443000000000000000000000000000000000000000000000000000000008152600401610f8a91906001600160a01b0391909116815260200190565b5f6001805c7fffffffffffffffffffffffff000000000000000000000000000000000000000016905d5060405183907fa4c827e719e911e8f19393ccdb85b5102f08f0910604d340ba38390b7ff2ab0e905f90a25050861590506118ec57855f84900361186257853b158015611860573a5a61180b61bc7c86614ea5565b6118159190614e92565b61181f9190614ec7565b91508188111561185c576001600160a01b0387166108fc611840848b614e92565b6040518115909202915f818181858888f1935050505050611860565b8791505b505b5f6001600160a01b03841615611878578361187a565b335b90505f816001600160a01b03166108fc8490811502906040515f60405180830381858888f193505050509050806118e8576040517fa57c4df40000000000000000000000000000000000000000000000000000000081526001600160a01b0383166004820152602401610f8a565b5050505b5050505050505f5f81905d505050505050505050565b815f81600981111561191657611916614df1565b0361194d576040517f85994c7700000000000000000000000000000000000000000000000000000000815260040160405180910390fd5b7f1453a531db80c85f2d944d498709d84959bc5bf839eefe9acb784571e5a3211861197781612561565b5f60dc5f86600981111561198d5761198d614df1565b600981111561199e5761199e614df1565b81526020019081526020015f205490508381036119e7576040517f1b807f5500000000000000000000000000000000000000000000000000000000815260040160405180910390fd5b8360dc5f8760098111156119fd576119fd614df1565b6009811115611a0e57611a0e614df1565b815260208101919091526040015f20558084866009811115611a3257611a32614df1565b6040517ff8ef9f1cde7c2c0d3aeb696678f76d7c1c3e13c3b79ea3c5160a2d9eaa821cfd905f90a45050505050565b7f1185e52d62bfbbea270e57d3d09733d221b53ab7a18bae82bb3c6c74bab16d82611a8b81612561565b5f5f5f426099541015611ab057609754611aa59042614ea5565b609955506001611ac2565b609a54851015611ac257849250600191505b60988590558080611ad05750815b15611adb57609a8390555b60408051868152831515602082015282151581830152905133917fbc3dc0cb5c15c51c81316450d44048838bb478b9809447d01c766a06f3e9f2c8919081900360600190a25050505050565b6006611b3281612ad9565b7f97667070c54ef182b0f5858b034beac1b6f3089aa2d3188bb1e8929f4fa9b929611b5c81612561565b5f859003611b96576040517f7907d79b00000000000000000000000000000000000000000000000000000000815260040160405180910390fd5b610119545f81815261011a6020526040902054843514611be2576040517fead4c30e00000000000000000000000000000000000000000000000000000000815260040160405180910390fd5b6101bd545f86815261011b60205260409020546001600160a01b031680611c35576040517f69ed70ab00000000000000000000000000000000000000000000000000000000815260040160405180910390fd5b611cb5611cad8784611c478a88612c94565b87866001600160a01b031663b02384ad6040518163ffffffff1660e01b8152600401602060405180830381865afa158015611c84573d5f5f3e3d5ffd5b505050506040513d601f19601f82011682018060405250810190611ca89190614ede565b612fac565b828b8b613040565b505050505050505050565b60015f5c03611cfb576040517f37ed32e800000000000000000000000000000000000000000000000000000000815260040160405180910390fd5b6001805f5d5060a08101803590611d159060808401614ef5565b611d23610120840184614f10565b611d34610100860160e08701614ef5565b5f5a9050611d4187613241565b8515611e4857855f849003611dbe57853b158015611dbc573a5a611d6761bc7c86614ea5565b611d719190614e92565b611d7b9190614ec7565b915081881115611db8576001600160a01b0387166108fc611d9c848b614e92565b6040518115909202915f818181858888f1935050505050611dbc565b8791505b505b5f6001600160a01b03841615611dd45783611dd6565b335b90505f816001600160a01b03166108fc8490811502906040515f60405180830381858888f19350505050905080611e44576040517fa57c4df40000000000000000000000000000000000000000000000000000000081526001600160a01b0383166004820152602401610f8a565b5050505b5050505050505f5f81905d5050565b805f816009811115611e6b57611e6b614df1565b03611ea2576040517f85994c7700000000000000000000000000000000000000000000000000000000815260040160405180910390fd5b611eab82612067565b611ee357816040517f18659654000000000000000000000000000000000000000000000000000000008152600401610f8a9190614e57565b60dd54421015611f255760dd546040517fcfd8aa6f000000000000000000000000000000000000000000000000000000008152600401610f8a91815260200190565b816009811115611f3757611f37614df1565b60da8054600190921b1990911690556040517f3ddaeb19197ed3b5334f4c1cd5716f663d0f6dce30c52800bd1674da0b88e87a90611f76908490614e57565b60405180910390a15050565b6009611f8d81612ad9565b7f97667070c54ef182b0f5858b034beac1b6f3089aa2d3188bb1e8929f4fa9b929611fb781612561565b611fc38686868661353e565b505050505050565b600881901c5f90815261014f6020526040812054600160ff84161b161515610ebb565b6002611ff981612ad9565b61200585858585613711565b5050505050565b7f0cf0d2deb70d7bdac2fa48c4ac99bc558170be0ce5fcb994caefa4bf7b96edf961203681612561565b5f609a81905560405133917fba88c025b0cbb77022c0c487beef24f759f1e4be2f51a205bc427cee19c2eaa691a250565b5f81600981111561207a5761207a614df1565b60da54600190911b16151592915050565b7f32937fd5162e282df7e9a14a5073a2425321c7966eaf70ed6c838a1006d84c4c6120b581612561565b6001600160a01b0383166120f5576040517f8579befe00000000000000000000000000000000000000000000000000000000815260040160405180910390fd5b5f82815261011b60209081526040918290205491516001600160a01b03928316815233928592908716917f4a29db3fc6b42bda201e4b4d69ce8d575eeeba5f153509c0d0a342af0f1bd021910160405180910390a4505f90815261011b6020526040902080547fffffffffffffffffffffffff0000000000000000000000000000000000000000166001600160a01b0392909216919091179055565b5f828152606560205260409020600101546121ab81612561565b6111288383613827565b5f54610100900460ff16158080156121d357505f54600160ff909116105b806121ec5750303b1580156121ec57505f5460ff166001145b612278576040517f08c379a000000000000000000000000000000000000000000000000000000000815260206004820152602e60248201527f496e697469616c697a61626c653a20636f6e747261637420697320616c72656160448201527f647920696e697469616c697a65640000000000000000000000000000000000006064820152608401610f8a565b5f80547fffffffffffffffffffffffffffffffffffffffffffffffffffffffffffffff0016600117905580156122d4575f80547fffffffffffffffffffffffffffffffffffffffffffffffffffffffffffff00ff166101001790555b604080515f8082526020808301829052863583850152606083018290526080830182905260a09092208082526101be909252919091206001905561231884826138c6565b61232183613afb565b508015611128575f80547fffffffffffffffffffffffffffffffffffffffffffffffffffffffffffff00ff169055604051600181527f7f26b83ff96e1f2b6a682f133852f6798a09c465da95921460cefb3847402498906020015b60405180910390a1505050565b805f81600981111561239d5761239d614df1565b036123d4576040517f85994c7700000000000000000000000000000000000000000000000000000000815260040160405180910390fd5b60db5f8360098111156123e9576123e9614df1565b60098111156123fa576123fa614df1565b81526020019081526020015f205461241181612561565b61241a83612067565b1561245357826040517fc0a71b58000000000000000000000000000000000000000000000000000000008152600401610f8a9190614e57565b335f9081527f74a8627e7e8109f70747bbdf2c891159d40f925b9c8f09259a497b8c31b3780b602052604090205460ff16156124b2577ffffffffffffffffffffffffffffffffffffffffffffffffffffffffffffeae7f60dd55612508565b6201518060dd54014210156124fe576201518060dd54016040517fc04205ee000000000000000000000000000000000000000000000000000000008152600401610f8a91815260200190565b426203f4800160dd555b82600981111561251a5761251a614df1565b60da8054600190921b909117905582600981111561253a5761253a614df1565b7f534f879afd40abb4e39f8e1b77a316be4c8e3521d9cf5a3a3db8959d574d455933611030565b61256b8133613b9f565b50565b5f8281526065602090815260408083206001600160a01b038516845290915290205460ff1661138b575f8281526065602090815260408083206001600160a01b0385168452909152902080547fffffffffffffffffffffffffffffffffffffffffffffffffffffffffffffff001660011790556125e83390565b6001600160a01b0316816001600160a01b0316837f2f8788117e7eff1d82e926ec794901d17c78024a50270940304540a733656f0d60405160405180910390a45050565b5f54610100900460ff166126c2576040517f08c379a000000000000000000000000000000000000000000000000000000000815260206004820152602b60248201527f496e697469616c697a61626c653a20636f6e7472616374206973206e6f74206960448201527f6e697469616c697a696e670000000000000000000000000000000000000000006064820152608401610f8a565b5f5b838110156127ca578484828181106126de576126de614f71565b9050604002016020013560db5f8787858181106126fd576126fd614f71565b612713926020604090920201908101915061494f565b600981111561272457612724614df1565b600981111561273557612735614df1565b815260208101919091526040015f205584848281811061275757612757614f71565b9050604002016020013585858381811061277357612773614f71565b612789926020604090920201908101915061494f565b600981111561279a5761279a614df1565b6040517f33aa8fd1ce49e1761bc8d27fd53414bfefc45d690feed0ce55019d7d3aec6091905f90a36001016126c4565b505f5b81811015612005578282828181106127e7576127e7614f71565b9050604002016020013560dc5f85858581811061280657612806614f71565b61281c926020604090920201908101915061494f565b600981111561282d5761282d614df1565b600981111561283e5761283e614df1565b815260208101919091526040015f205582828281811061286057612860614f71565b9050604002016020013583838381811061287c5761287c614f71565b612892926020604090920201908101915061494f565b60098111156128a3576128a3614df1565b6040517fe7bf4b8dc0c17a52dc9e52323a3ab61cb2079db35f969125b1f8a3d984c6f6c2905f90a36001016127cd565b5f54610100900460ff16612969576040517f08c379a000000000000000000000000000000000000000000000000000000000815260206004820152602b60248201527f496e697469616c697a61626c653a20636f6e7472616374206973206e6f74206960448201527f6e697469616c697a696e670000000000000000000000000000000000000000006064820152608401610f8a565b5f5b81811015611128575f83838381811061298657612986614f71565b61299c9260206040909202019081019150614ef5565b6001600160a01b0316036129dc576040517f8579befe00000000000000000000000000000000000000000000000000000000815260040160405180910390fd5b8282828181106129ee576129ee614f71565b905060400201602001355f5f1b03612a32576040517f0742d05300000000000000000000000000000000000000000000000000000000815260040160405180910390fd5b612a7e838383818110612a4757612a47614f71565b90506040020160200135848484818110612a6357612a63614f71565b612a799260206040909202019081019150614ef5565b61256e565b60010161296b565b6101c0546001600160a01b0390811690821603612acf576040517f9395197f00000000000000000000000000000000000000000000000000000000815260040160405180910390fd5b61138b8282613c2d565b60da54816009811115612aee57612aee614df1565b6001901b811615612b2d57816040517fc0a71b58000000000000000000000000000000000000000000000000000000008152600401610f8a9190614e57565b600281161561138b5760016040517fc0a71b58000000000000000000000000000000000000000000000000000000008152600401610f8a9190614e57565b5f60405188815287602082015286604082015285606082015284608082015260c060a08201528260c0820152602083065f8115612ba9578160200390505b848660e085013790930160e001902098975050505050505050565b5f81815260a66020526040902054600114612c0e576040517f992d87c300000000000000000000000000000000000000000000000000000000815260048101829052602401610f8a565b5f90815260a66020526040812055565b801561256b57426099541015612c4357609754612c3b9042614ea5565b609955612c53565b609a54612c509082614ea5565b90505b609854811115612c8f576040517fa74c1c5f00000000000000000000000000000000000000000000000000000000815260040160405180910390fd5b609a55565b5f612ca9836101800135846101400135613ccf565b6101bf54604080516101608601358152610120860135602082015260e0860135918101919091526060902014612d3f57604080516101608501358152610120850135602082015260e085013591810191909152606090206101bf546040517fbc5aad1100000000000000000000000000000000000000000000000000000000815260048101929092526024820152604401610f8a565b4283610100013510612d8a576040517fbf81c6e00000000000000000000000000000000000000000000000000000000081526101008401356004820152426024820152604401610f8a565b6080830135612dc5576040517f2898482a00000000000000000000000000000000000000000000000000000000815260040160405180910390fd5b612e0860408401356060850135608086013560a087013560c0880135604080519586526020860194909452928401919091526060830152608082015260a0902090565b6101c1546040517f2130d812000000000000000000000000000000000000000000000000000000008152600481018390529192506001600160a01b031690632130d81290602401602060405180830381865afa158015612e6a573d5f5f3e3d5ffd5b505050506040513d601f19601f82011682018060405250810190612e8e9190614ede565b5f03612ec9576040517fd35bb1d100000000000000000000000000000000000000000000000000000000815260048101829052602401610f8a565b612ee5612eda6101c0850185614f9e565b856101a00135613d9c565b612efc612ef66101e0850185614f10565b84613ea8565b6020808401355f81815261011a909252604090912060808501359055610119556101bd819055612f51610180840135610140850135610100860135604080519384526020840192909252908201526060902090565b6101bf55806020840135612f6484615002565b60408051873581526080880135602082015291955085917fa0262dc79e4ccb71ceac8574ae906311ae338aa4a2044fd4ec4b99fad5ab60cb910160405180910390a492915050565b5f604051858152846020820152604060e088016040830137836080820152602080880160a083013760a0610120880160c083013761018081016101c0880135880180356020810260208301843760200290912061016083015250610180810192909252506101a090207f30644e72e131a029b85045b68181585d2833e84879b9709143e1f593f00000019006949350505050565b6040805160018082528183019092525f916020808301908036833701905050905084815f8151811061307457613074614f71565b6020026020010181815250505f5f856001600160a01b03168585856040516024016130a193929190615070565b60408051601f198184030181529181526020820180517bffffffffffffffffffffffffffffffffffffffffffffffffffffffff167f7e4f7a8a000000000000000000000000000000000000000000000000000000001790525161310491906150e1565b5f604051808303815f865af19150503d805f811461313d576040519150601f19603f3d011682016040523d82523d5f602084013e613142565b606091505b5091509150816131e95780511561318757602081017bffffffffffffffffffffffffffffffffffffffffffffffffffffffff81511663ca389c4460e01b178152815181fd5b6040517fca389c4400000000000000000000000000000000000000000000000000000000815260206004820152600760248201527f556e6b6e6f776e000000000000000000000000000000000000000000000000006044820152606401610f8a565b5f818060200190518101906131fe91906150ec565b905080613237576040517f09bde33900000000000000000000000000000000000000000000000000000000815260040160405180910390fd5b5050505050505050565b61324b6003612ad9565b6101008101355f90815261015060205260408120549081900361329a576040517f4e68667500000000000000000000000000000000000000000000000000000000815260040160405180910390fd5b6132a48280614f9e565b905081146132f357806132b78380614f9e565b6040517f5e3fd6ad0000000000000000000000000000000000000000000000000000000081526004810193909352602483015250604401610f8a565b6133008260200135613f35565b6133156116cf60c084013560a0850135614ea5565b5f61335b6133296080850160608601614ef5565b61333960a0860160808701614ef5565b60a086013560c087013560208801356133566101208a018a614f10565b612b6b565b90506133868161336b8580614f9e565b61337b606088016040890161510b565b876101000135613fad565b6133bc576040517fb05e92fa00000000000000000000000000000000000000000000000000000000815260040160405180910390fd5b6133cc6080840160608501614ef5565b6001805c7fffffffffffffffffffffffff0000000000000000000000000000000000000000166001600160a01b03831617905d505f8061341260a0860160808701614ef5565b6001600160a01b031660c086013561342e610120880188614f10565b60405161343c929190614eb8565b5f6040518083038185875af1925050503d805f8114613476576040519150601f19603f3d011682016040523d82523d5f602084013e61347b565b606091505b5091509150816134e3578051156134955780518082602001fd5b6134a560a0860160808701614ef5565b6040517f546134430000000000000000000000000000000000000000000000000000000081526001600160a01b039091166004820152602401610f8a565b5f6001805c7fffffffffffffffffffffffff000000000000000000000000000000000000000016905d5060405183907fa4c827e719e911e8f19393ccdb85b5102f08f0910604d340ba38390b7ff2ab0e905f90a25050505050565b5f839003613578576040517fb1504a5f00000000000000000000000000000000000000000000000000000000815260040160405180910390fd5b8249156135b4576040517f8019aff700000000000000000000000000000000000000000000000000000000815260048101849052602401610f8a565b5f5f6135e56040518060a001604052805f815260200160608152602001606081526020015f81526020015f81525090565b845f5b878110156136be5788888281811061360257613602614f71565b9050602002810190613614919061512e565b61361d9061521e565b8149945092508361365d576040517fc0e41e1d00000000000000000000000000000000000000000000000000000000815260048101829052602401610f8a565b60808301515f818152602086905260409020955061368b85875f1c865f0151876020015188604001516140ba565b6060848101518551604080519687526020870194909452928501528301869052608083015260a0909120906001016135e8565b506136ce8686846060015161425c565b808514613237576040517fd3664fb30000000000000000000000000000000000000000000000000000000081526004810186905260248101829052604401610f8a565b6001600160a01b038416613751576040517f8579befe00000000000000000000000000000000000000000000000000000000815260040160405180910390fd5b3483111561378b576040517fb03b693200000000000000000000000000000000000000000000000000000000815260040160405180910390fd5b60e480545f918261379b83615002565b9091555090505f6137ac8534614e92565b90505f6137be33888885878a8a612b6b565b90506137ca838261433e565b80876001600160a01b0316336001600160a01b03167fe856c2b8bd4eb0027ce32eeaf595c21b0b6b4644b326e5b7bd80a1cf8db72e6c8986888b8b6040516138169594939291906152ab565b60405180910390a450505050505050565b5f8281526065602090815260408083206001600160a01b038516845290915290205460ff161561138b575f8281526065602090815260408083206001600160a01b038516808552925280832080547fffffffffffffffffffffffffffffffffffffffffffffffffffffffffffffff0016905551339285917ff6391f5c32d9c69d2a47ea670b442974b53935d1edc7fd64eb21e047a839171b9190a45050565b5f6138d76080840160608501614ef5565b6001600160a01b031603613917576040517f8579befe00000000000000000000000000000000000000000000000000000000815260040160405180910390fd5b61393a61392760e08401846152db565b6139356101008601866152db565b61262c565b61394c82608001358360a0013561439b565b5f61395f61014084016101208501614ef5565b6001600160a01b03160361399f576040517f8579befe00000000000000000000000000000000000000000000000000000000815260040160405180910390fd5b6139b55f612a7961014085016101208601614ef5565b6139ca6139c560c08401846152db565b6128d3565b6139da6080830160608401614ef5565b7f033d11f27e62ab919708ec716731da80d261a6e4253259b7acde9bf89d28ec1880547fffffffffffffffffffffffff0000000000000000000000000000000000000000166001600160a01b03929092169190911790556020828101356101198190555f90815261011a82526040808220853590556101bd8490558051828152928301919091528084013590820152606090206101bf555f613a8461016084016101408501614ef5565b90506001600160a01b038116613a975750305b6101c180547fffffffffffffffffffffffff0000000000000000000000000000000000000000166001600160a01b0383161790556040517f58455261cac6af8cd1bcaa46dfff758169d70684c30d7bd8d6ffde05d4c75f599061237c908590615436565b6001600160a01b038116613b3b576040517f8579befe00000000000000000000000000000000000000000000000000000000815260040160405180910390fd5b6101c080547fffffffffffffffffffffffff0000000000000000000000000000000000000000166001600160a01b03831690811790915560405133907fb341a9e6d33f272cb7b5a20b337763606cbb6c728e7a34cbd3191cdfa0f0cd07905f90a350565b5f8281526065602090815260408083206001600160a01b038516845290915290205460ff1661138b57613bd18161445c565b613bdc83602061446e565b604051602001613bed92919061554c565b60408051601f19818403018152908290527f08c379a0000000000000000000000000000000000000000000000000000000008252610f8a91600401614ab3565b6001600160a01b0381163314613cc5576040517f08c379a000000000000000000000000000000000000000000000000000000000815260206004820152602f60248201527f416363657373436f6e74726f6c3a2063616e206f6e6c792072656e6f756e636560448201527f20726f6c657320666f722073656c6600000000000000000000000000000000006064820152608401610f8a565b61138b8282613827565b815f03613d1157801561138b576040517f0c25659200000000000000000000000000000000000000000000000000000000815260048101829052602401610f8a565b80613d4b576040517f5228f4c800000000000000000000000000000000000000000000000000000000815260048101839052602401610f8a565b5f82815261014e6020526040902054811461138b576040517f36459fa00000000000000000000000000000000000000000000000000000000081526004810183905260248101829052604401610f8a565b5f5b82811015613ea2576101505f858584818110613dbc57613dbc614f71565b9050602002013581526020019081526020015f20545f14613e2557838382818110613de957613de9614f71565b905060200201356040517fe5d14425000000000000000000000000000000000000000000000000000000008152600401610f8a91815260200190565b816101505f868685818110613e3c57613e3c614f71565b9050602002013581526020019081526020015f208190555081848483818110613e6757613e67614f71565b905060200201357f300e6f978eee6a4b0bba78dd8400dc64fd5652dbfc868a2258e16d0977be222b60405160405180910390a3600101613d9e565b50505050565b613eb36002836155b6565b15613eed576040517f0c91d77600000000000000000000000000000000000000000000000000000000815260048101839052602401610f8a565b5f5f5b83811015612005576040518582013560f01c9250838301907f3c116827db9db3a30c1a25db8b0ee4bab9d2b223560209cfd839601b621c726d905f90a2600201613ef0565b600881901c5f90815261014f6020526040902054600160ff83161b1615613f8b576040517f335a4a9000000000000000000000000000000000000000000000000000000000815260048101829052602401610f8a565b600881901c5f90815261014f602052604090208054600160ff84161b17905550565b5f80613fce6001613fbf8760026156d1565b613fc99190614e92565b6146b2565b90508063ffffffff168463ffffffff161115614026576040517ff7ec909700000000000000000000000000000000000000000000000000000000815263ffffffff808616600483015282166024820152604401610f8a565b865f5b868110156140ac57600163ffffffff8716821c811690036140765761406f88888381811061405957614059614f71565b90506020020135835f9182526020526040902090565b91506140a4565b6140a18289898481811061408c5761408c614f71565b905060200201355f9182526020526040902090565b91505b600101614029565b509092149695505050505050565b7f73eda753299d7d483339d80809a1d80553bda402fffe5bfeffffffff00000001840693505f5f600a6001600160a01b031687878787876040516020016141059594939291906156dc565b60408051601f198184030181529082905261411f916150e1565b5f60405180830381855afa9150503d805f8114614157576040519150601f19603f3d011682016040523d82523d5f602084013e61415c565b606091505b509150915081614198576040517fa71194af00000000000000000000000000000000000000000000000000000000815260040160405180910390fd5b60408151146141e0578051604080517ff75db381000000000000000000000000000000000000000000000000000000008152610f8a9290600401918252602082015260400190565b602081015160408201516110008214158061421b57507f73eda753299d7d483339d80809a1d80553bda402fffe5bfeffffffff000000018114155b15611cb5576040517f68dcad5f0000000000000000000000000000000000000000000000000000000081526004810183905260248101829052604401610f8a565b5f8381526101be602052604090205483906142a6576040517fc77b964c000000000000000000000000000000000000000000000000000000008152600401610f8a91815260200190565b505f8281526101be60205260409020548290156142f2576040517fe69adeca000000000000000000000000000000000000000000000000000000008152600401610f8a91815260200190565b505f8281526101be602090815260409182902060019055815185815290810183905283917f55f4c645c36aa5cd3f443d6be44d7a7a5df9d2100d7139dfc69d4289ee0723199101611044565b5f1982015f90815261014e60208181526040808420548452848252808420868552929091528083208290555190918391839186917fea3b023b4c8680d4b4824f0143132c95476359a2bb70a81d6c5a36f6918f63399190a4505050565b5f54610100900460ff16614431576040517f08c379a000000000000000000000000000000000000000000000000000000000815260206004820152602b60248201527f496e697469616c697a61626c653a20636f6e7472616374206973206e6f74206960448201527f6e697469616c697a696e670000000000000000000000000000000000000000006064820152608401610f8a565b6144396146ff565b6144416146ff565b6144496146ff565b6144538282614797565b5050600160e455565b6060610ebb6001600160a01b03831660145b60605f61447c836002614ec7565b614487906002614ea5565b67ffffffffffffffff81111561449f5761449f61501a565b6040519080825280601f01601f1916602001820160405280156144c9576020820181803683370190505b5090507f3000000000000000000000000000000000000000000000000000000000000000815f815181106144ff576144ff614f71565b60200101907effffffffffffffffffffffffffffffffffffffffffffffffffffffffffffff191690815f1a9053507f78000000000000000000000000000000000000000000000000000000000000008160018151811061456157614561614f71565b60200101907effffffffffffffffffffffffffffffffffffffffffffffffffffffffffffff191690815f1a9053505f61459b846002614ec7565b6145a6906001614ea5565b90505b6001811115614642577f303132333435363738396162636465660000000000000000000000000000000085600f16601081106145e7576145e7614f71565b1a60f81b8282815181106145fd576145fd614f71565b60200101907effffffffffffffffffffffffffffffffffffffffffffffffffffffffffffff191690815f1a90535060049490941c9361463b81615702565b90506145a9565b5083156146ab576040517f08c379a000000000000000000000000000000000000000000000000000000000815260206004820181905260248201527f537472696e67733a20686578206c656e67746820696e73756666696369656e746044820152606401610f8a565b9392505050565b5f63ffffffff8211156146fb576040517f6dfcc6500000000000000000000000000000000000000000000000000000000081526020600482015260248101839052604401610f8a565b5090565b5f54610100900460ff16614795576040517f08c379a000000000000000000000000000000000000000000000000000000000815260206004820152602b60248201527f496e697469616c697a61626c653a20636f6e7472616374206973206e6f74206960448201527f6e697469616c697a696e670000000000000000000000000000000000000000006064820152608401610f8a565b565b5f54610100900460ff1661482d576040517f08c379a000000000000000000000000000000000000000000000000000000000815260206004820152602b60248201527f496e697469616c697a61626c653a20636f6e7472616374206973206e6f74206960448201527f6e697469616c697a696e670000000000000000000000000000000000000000006064820152608401610f8a565b815f03614866576040517fb5ed5a3b00000000000000000000000000000000000000000000000000000000815260040160405180910390fd5b805f0361489f576040517fd10d72bb00000000000000000000000000000000000000000000000000000000815260040160405180910390fd5b609782905560988190556148b38242614ea5565b60998190556097546098546040805192835260208301919091528101919091527f8f805c372b66240792580418b7328c0c554ae235f0932475c51b026887fe26a990606001611f76565b5f6020828403121561490d575f5ffd5b81357fffffffff00000000000000000000000000000000000000000000000000000000811681146146ab575f5ffd5b8035600a811061494a575f5ffd5b919050565b5f6020828403121561495f575f5ffd5b6146ab8261493c565b5f60208284031215614978575f5ffd5b5035919050565b6001600160a01b038116811461256b575f5ffd5b803561494a8161497f565b5f5f604083850312156149af575f5ffd5b8235915060208301356149c18161497f565b809150509250929050565b5f5f83601f8401126149dc575f5ffd5b50813567ffffffffffffffff8111156149f3575f5ffd5b6020830191508360208260061b8501011115614a0d575f5ffd5b9250929050565b5f5f5f5f5f5f60608789031215614a29575f5ffd5b863567ffffffffffffffff811115614a3f575f5ffd5b614a4b89828a016149cc565b909750955050602087013567ffffffffffffffff811115614a6a575f5ffd5b614a7689828a016149cc565b909550935050604087013567ffffffffffffffff811115614a95575f5ffd5b614aa189828a016149cc565b979a9699509497509295939492505050565b602081525f82518060208401528060208501604085015e5f604082850101526040601f19601f83011684010191505092915050565b5f5f5f60608486031215614afa575f5ffd5b505081359360208301359350604090920135919050565b5f5f60408385031215614b22575f5ffd5b614b2b8361493c565b946020939093013593505050565b5f5f83601f840112614b49575f5ffd5b50813567ffffffffffffffff811115614b60575f5ffd5b602083019150836020828501011115614a0d575f5ffd5b5f5f5f5f5f5f5f5f60e0898b031215614b8e575f5ffd5b8835614b998161497f565b97506020890135614ba98161497f565b965060408901359550606089013594506080890135614bc78161497f565b935060a089013567ffffffffffffffff811115614be2575f5ffd5b614bee8b828c01614b39565b999c989b50969995989497949560c00135949350505050565b5f5f5f5f60608587031215614c1a575f5ffd5b843567ffffffffffffffff811115614c30575f5ffd5b614c3c87828801614b39565b90955093505060208501359150604085013567ffffffffffffffff811115614c62575f5ffd5b85016102008188031215614c74575f5ffd5b939692955090935050565b5f60208284031215614c8f575f5ffd5b813567ffffffffffffffff811115614ca5575f5ffd5b820161014081850312156146ab575f5ffd5b5f5f5f5f60608587031215614cca575f5ffd5b843567ffffffffffffffff811115614ce0575f5ffd5b8501601f81018713614cf0575f5ffd5b803567ffffffffffffffff811115614d06575f5ffd5b8760208260051b8401011115614d1a575f5ffd5b602091820198909750908601359560400135945092505050565b5f5f5f5f60608587031215614d47575f5ffd5b8435614d528161497f565b935060208501359250604085013567ffffffffffffffff811115614d74575f5ffd5b614d8087828801614b39565b95989497509550505050565b5f5f60408385031215614d9d575f5ffd5b8235614b2b8161497f565b5f5f60408385031215614db9575f5ffd5b823567ffffffffffffffff811115614dcf575f5ffd5b83016101608186031215614de1575f5ffd5b915060208301356149c18161497f565b7f4e487b71000000000000000000000000000000000000000000000000000000005f52602160045260245ffd5b600a8110614e53577f4e487b71000000000000000000000000000000000000000000000000000000005f52602160045260245ffd5b9052565b60208101610ebb8284614e1e565b7f4e487b71000000000000000000000000000000000000000000000000000000005f52601160045260245ffd5b81810381811115610ebb57610ebb614e65565b80820180821115610ebb57610ebb614e65565b818382375f9101908152919050565b8082028115828204841417610ebb57610ebb614e65565b5f60208284031215614eee575f5ffd5b5051919050565b5f60208284031215614f05575f5ffd5b81356146ab8161497f565b5f5f83357fffffffffffffffffffffffffffffffffffffffffffffffffffffffffffffffe1843603018112614f43575f5ffd5b83018035915067ffffffffffffffff821115614f5d575f5ffd5b602001915036819003821315614a0d575f5ffd5b7f4e487b71000000000000000000000000000000000000000000000000000000005f52603260045260245ffd5b5f5f83357fffffffffffffffffffffffffffffffffffffffffffffffffffffffffffffffe1843603018112614fd1575f5ffd5b83018035915067ffffffffffffffff821115614feb575f5ffd5b6020019150600581901b3603821315614a0d575f5ffd5b5f5f19820361501357615013614e65565b5060010190565b7f4e487b71000000000000000000000000000000000000000000000000000000005f52604160045260245ffd5b81835281816020850137505f602082840101525f6020601f19601f840116840101905092915050565b604081525f615083604083018587615047565b82810360208401528084518083526020830191506020860192505f5b818110156150bd57835183526020938401939092019160010161509f565b5090979650505050505050565b5f81518060208401855e5f93019283525090919050565b5f6146ab82846150ca565b5f602082840312156150fc575f5ffd5b815180151581146146ab575f5ffd5b5f6020828403121561511b575f5ffd5b813563ffffffff811681146146ab575f5ffd5b5f82357fffffffffffffffffffffffffffffffffffffffffffffffffffffffffffffff61833603018112615160575f5ffd5b9190910192915050565b60405160a0810167ffffffffffffffff8111828210171561518d5761518d61501a565b60405290565b5f82601f8301126151a2575f5ffd5b813567ffffffffffffffff8111156151bc576151bc61501a565b604051601f8201601f19908116603f0116810167ffffffffffffffff811182821017156151eb576151eb61501a565b604052818152838201602001851015615202575f5ffd5b816020850160208301375f918101602001919091529392505050565b5f60a0823603121561522e575f5ffd5b61523661516a565b82358152602083013567ffffffffffffffff811115615253575f5ffd5b61525f36828601615193565b602083015250604083013567ffffffffffffffff81111561527e575f5ffd5b61528a36828601615193565b60408301525060608381013590820152608092830135928101929092525090565b858152846020820152836040820152608060608201525f6152d0608083018486615047565b979650505050505050565b5f5f83357fffffffffffffffffffffffffffffffffffffffffffffffffffffffffffffffe184360301811261530e575f5ffd5b83018035915067ffffffffffffffff821115615328575f5ffd5b6020019150600681901b3603821315614a0d575f5ffd5b5f5f83357fffffffffffffffffffffffffffffffffffffffffffffffffffffffffffffffe1843603018112615372575f5ffd5b830160208101925035905067ffffffffffffffff811115615391575f5ffd5b8060061b3603821315614a0d575f5ffd5b8183526020830192505f815f5b848110156153e95781356153c28161497f565b6001600160a01b0316865260208281013590870152604095860195909101906001016153af565b5093949350505050565b8183526020830192505f815f5b848110156153e95761541a866154158461493c565b614e1e565b6020828101359087015260409586019590910190600101615400565b60208082528235828201528201356040808301919091528201356060808301919091525f90615466908401614993565b6001600160a01b038116608084015250608083013560a08381019190915283013560c08084019190915261549c9084018461533f565b61016060e08501526154b3610180850182846153a2565b9150506154c360e085018561533f565b601f19858403016101008601526154db8382846153f3565b925050506154ed61010085018561533f565b601f19858403016101208601526155058382846153f3565b925050506155166101208501614993565b6001600160a01b038116610140850152506155346101408501614993565b6001600160a01b038116610160850152509392505050565b7f416363657373436f6e74726f6c3a206163636f756e742000000000000000000081525f61557d60178301856150ca565b7f206973206d697373696e6720726f6c652000000000000000000000000000000081526155ad60118201856150ca565b95945050505050565b5f826155e9577f4e487b71000000000000000000000000000000000000000000000000000000005f52601260045260245ffd5b500690565b6001815b60018411156156295780850481111561560d5761560d614e65565b600184161561561b57908102905b60019390931c9280026155f2565b935093915050565b5f8261563f57506001610ebb565b8161564b57505f610ebb565b8160018114615661576002811461566b57615687565b6001915050610ebb565b60ff84111561567c5761567c614e65565b50506001821b610ebb565b5060208310610133831016604e8410600b84101617156156aa575081810a610ebb565b6156b65f1984846155ee565b805f19048211156156c9576156c9614e65565b029392505050565b5f6146ab8383615631565b8581528460208201528360408201525f6152d06156fc60608401866150ca565b846150ca565b5f8161571057615710614e65565b505f19019056fea264697066735822122047a1a0baa4d2dfd1ae732e4b91dceb35c9a655ef91e21ac6891654a2ff05baf864736f6c634300081e0033",
    "linkReferences": {},
    "deployedLinkReferences": {}
}