{
  "_format": "hh-sol-artifact-1",
  "contractName": "LineaRollup",
  "sourceName": "src/rollup/LineaRollup.sol",
  "abi": [
    {
      "inputs": [],
      "stateMutability": "nonpayable",
      "type": "constructor"
    },
    {
      "inputs": [
        {
          "internalType": "address",
          "name": "addressNotFiltered",
          "type": "address"
        }
      ],
      "name": "AddressIsNotFiltered",
      "type": "error"
    },
    {
      "inputs": [
        {
          "internalType": "uint256",
          "name": "emptyBlobIndex",
          "type": "uint256"
        }
      ],
      "name": "BlobSubmissionDataEmpty",
      "type": "error"
    },
    {
      "inputs": [],
      "name": "BlobSubmissionDataIsMissing",
      "type": "error"
    },
    {
      "inputs": [
        {
          "internalType": "uint256",
          "name": "bytesLength",
          "type": "uint256"
        }
      ],
      "name": "BytesLengthNotMultipleOfTwo",
      "type": "error"
    },
    {
      "inputs": [],
      "name": "CallerIsNotYieldManager",
      "type": "error"
    },
    {
      "inputs": [],
      "name": "CallerNotLSTWithdrawalRecipient",
      "type": "error"
    },
    {
      "inputs": [],
      "name": "CallerNotProxyAdmin",
      "type": "error"
    },
    {
      "inputs": [
        {
          "internalType": "uint256",
          "name": "index",
          "type": "uint256"
        }
      ],
      "name": "EmptyBlobDataAtIndex",
      "type": "error"
    },
    {
      "inputs": [
        {
          "internalType": "address",
          "name": "recipient",
          "type": "address"
        }
      ],
      "name": "FeePaymentFailed",
      "type": "error"
    },
    {
      "inputs": [],
      "name": "FeeTooLow",
      "type": "error"
    },
    {
      "inputs": [],
      "name": "FinalBlockStateEqualsZeroHash",
      "type": "error"
    },
    {
      "inputs": [
        {
          "internalType": "bytes32",
          "name": "shnarf",
          "type": "bytes32"
        }
      ],
      "name": "FinalShnarfNotSubmitted",
      "type": "error"
    },
    {
      "inputs": [
        {
          "internalType": "bytes32",
          "name": "expected",
          "type": "bytes32"
        },
        {
          "internalType": "bytes32",
          "name": "value",
          "type": "bytes32"
        }
      ],
      "name": "FinalShnarfWrong",
      "type": "error"
    },
    {
      "inputs": [],
      "name": "FinalStateRootHashIsZeroHash",
      "type": "error"
    },
    {
      "inputs": [
        {
          "internalType": "uint256",
          "name": "nextForcedTransactionNumber",
          "type": "uint256"
        }
      ],
      "name": "FinalizationDataMissingForcedTransaction",
      "type": "error"
    },
    {
      "inputs": [
        {
          "internalType": "uint256",
          "name": "l2BlockTimestamp",
          "type": "uint256"
        },
        {
          "internalType": "uint256",
          "name": "currentBlockTimestamp",
          "type": "uint256"
        }
      ],
      "name": "FinalizationInTheFuture",
      "type": "error"
    },
    {
      "inputs": [
        {
          "internalType": "bytes32",
          "name": "expected",
          "type": "bytes32"
        },
        {
          "internalType": "bytes32",
          "name": "value",
          "type": "bytes32"
        }
      ],
      "name": "FinalizationStateIncorrect",
      "type": "error"
    },
    {
      "inputs": [
        {
          "internalType": "uint256",
          "name": "blockNumber",
          "type": "uint256"
        }
      ],
      "name": "ForcedTransactionExistsForBlockOrIsTooLow",
      "type": "error"
    },
    {
      "inputs": [],
      "name": "InvalidMerkleProof",
      "type": "error"
    },
    {
      "inputs": [],
      "name": "InvalidProof",
      "type": "error"
    },
    {
      "inputs": [
        {
          "internalType": "string",
          "name": "errorReason",
          "type": "string"
        }
      ],
      "name": "InvalidProofOrProofVerificationRanOutOfGas",
      "type": "error"
    },
    {
      "inputs": [],
      "name": "InvalidProofType",
      "type": "error"
    },
    {
      "inputs": [
        {
          "internalType": "enum IPauseManager.PauseType",
          "name": "pauseType",
          "type": "uint8"
        }
      ],
      "name": "IsNotPaused",
      "type": "error"
    },
    {
      "inputs": [
        {
          "internalType": "enum IPauseManager.PauseType",
          "name": "pauseType",
          "type": "uint8"
        }
      ],
      "name": "IsPaused",
      "type": "error"
    },
    {
      "inputs": [
        {
          "internalType": "uint256",
          "name": "messageNumber",
          "type": "uint256"
        },
        {
          "internalType": "bytes32",
          "name": "rollingHash",
          "type": "bytes32"
        }
      ],
      "name": "L1RollingHashDoesNotExistOnL1",
      "type": "error"
    },
    {
      "inputs": [
        {
          "internalType": "bytes32",
          "name": "merkleRoot",
          "type": "bytes32"
        }
      ],
      "name": "L2MerkleRootAlreadyAnchored",
      "type": "error"
    },
    {
      "inputs": [],
      "name": "L2MerkleRootDoesNotExist",
      "type": "error"
    },
    {
      "inputs": [],
      "name": "LSTWithdrawalRequiresDeficit",
      "type": "error"
    },
    {
      "inputs": [],
      "name": "LastFinalizationTimeNotLapsed",
      "type": "error"
    },
    {
      "inputs": [
        {
          "internalType": "uint32",
          "name": "leafIndex",
          "type": "uint32"
        },
        {
          "internalType": "uint32",
          "name": "maxAllowedIndex",
          "type": "uint32"
        }
      ],
      "name": "LeafIndexOutOfBounds",
      "type": "error"
    },
    {
      "inputs": [],
      "name": "LimitIsZero",
      "type": "error"
    },
    {
      "inputs": [
        {
          "internalType": "uint256",
          "name": "messageIndex",
          "type": "uint256"
        }
      ],
      "name": "MessageAlreadyClaimed",
      "type": "error"
    },
    {
      "inputs": [
        {
          "internalType": "bytes32",
          "name": "messageHash",
          "type": "bytes32"
        }
      ],
      "name": "MessageDoesNotExistOrHasAlreadyBeenClaimed",
      "type": "error"
    },
    {
      "inputs": [
        {
          "internalType": "address",
          "name": "destination",
          "type": "address"
        }
      ],
      "name": "MessageSendingFailed",
      "type": "error"
    },
    {
      "inputs": [
        {
          "internalType": "bytes32",
          "name": "rollingHash",
          "type": "bytes32"
        }
      ],
      "name": "MissingMessageNumberForRollingHash",
      "type": "error"
    },
    {
      "inputs": [
        {
          "internalType": "uint256",
          "name": "messageNumber",
          "type": "uint256"
        }
      ],
      "name": "MissingRollingHashForMessageNumber",
      "type": "error"
    },
    {
      "inputs": [],
      "name": "NoEthSent",
      "type": "error"
    },
    {
      "inputs": [],
      "name": "OnlyNonLivenessRecoveryOperator",
      "type": "error"
    },
    {
      "inputs": [
        {
          "internalType": "bytes32",
          "name": "shnarf",
          "type": "bytes32"
        }
      ],
      "name": "ParentShnarfNotSubmitted",
      "type": "error"
    },
    {
      "inputs": [
        {
          "internalType": "uint256",
          "name": "expiryEnd",
          "type": "uint256"
        }
      ],
      "name": "PauseNotExpired",
      "type": "error"
    },
    {
      "inputs": [],
      "name": "PauseTypeNotUsed",
      "type": "error"
    },
    {
      "inputs": [
        {
          "internalType": "uint256",
          "name": "cooldownEnd",
          "type": "uint256"
        }
      ],
      "name": "PauseUnavailableDueToCooldown",
      "type": "error"
    },
    {
      "inputs": [],
      "name": "PeriodIsZero",
      "type": "error"
    },
    {
      "inputs": [],
      "name": "PointEvaluationFailed",
      "type": "error"
    },
    {
      "inputs": [
        {
          "internalType": "uint256",
          "name": "fieldElements",
          "type": "uint256"
        },
        {
          "internalType": "uint256",
          "name": "blsCurveModulus",
          "type": "uint256"
        }
      ],
      "name": "PointEvaluationResponseInvalid",
      "type": "error"
    },
    {
      "inputs": [
        {
          "internalType": "uint256",
          "name": "expected",
          "type": "uint256"
        },
        {
          "internalType": "uint256",
          "name": "actual",
          "type": "uint256"
        }
      ],
      "name": "PrecompileReturnDataLengthWrong",
      "type": "error"
    },
    {
      "inputs": [],
      "name": "ProofIsEmpty",
      "type": "error"
    },
    {
      "inputs": [
        {
          "internalType": "uint256",
          "name": "actual",
          "type": "uint256"
        },
        {
          "internalType": "uint256",
          "name": "expected",
          "type": "uint256"
        }
      ],
      "name": "ProofLengthDifferentThanMerkleDepth",
      "type": "error"
    },
    {
      "inputs": [],
      "name": "RateLimitExceeded",
      "type": "error"
    },
    {
      "inputs": [],
      "name": "ReentrantCall",
      "type": "error"
    },
    {
      "inputs": [],
      "name": "RolesNotDifferent",
      "type": "error"
    },
    {
      "inputs": [
        {
          "internalType": "uint8",
          "name": "bits",
          "type": "uint8"
        },
        {
          "internalType": "uint256",
          "name": "value",
          "type": "uint256"
        }
      ],
      "name": "SafeCastOverflowedUintDowncast",
      "type": "error"
    },
    {
      "inputs": [
        {
          "internalType": "bytes32",
          "name": "shnarf",
          "type": "bytes32"
        }
      ],
      "name": "ShnarfAlreadySubmitted",
      "type": "error"
    },
    {
      "inputs": [],
      "name": "ShnarfSubmissionIsZeroHash",
      "type": "error"
    },
    {
      "inputs": [],
      "name": "StartingRootHashDoesNotMatch",
      "type": "error"
    },
    {
      "inputs": [],
      "name": "ValueSentTooLow",
      "type": "error"
    },
    {
      "inputs": [],
      "name": "ZeroAddressNotAllowed",
      "type": "error"
    },
    {
      "inputs": [],
      "name": "ZeroHashNotAllowed",
      "type": "error"
    },
    {
      "inputs": [],
      "name": "ZeroLengthNotAllowed",
      "type": "error"
    },
    {
      "inputs": [],
      "name": "ZeroValueNotAllowed",
      "type": "error"
    },
    {
      "anonymous": false,
      "inputs": [
        {
          "indexed": false,
          "internalType": "address",
          "name": "oldAddressFilter",
          "type": "address"
        },
        {
          "indexed": false,
          "internalType": "address",
          "name": "newAddressFilter",
          "type": "address"
        }
      ],
      "name": "AddressFilterChanged",
      "type": "event"
    },
    {
      "anonymous": false,
      "inputs": [
        {
          "indexed": true,
          "internalType": "address",
          "name": "resettingAddress",
          "type": "address"
        }
      ],
      "name": "AmountUsedInPeriodReset",
      "type": "event"
    },
    {
      "anonymous": false,
      "inputs": [
        {
          "indexed": true,
          "internalType": "uint256",
          "name": "startBlockNumber",
          "type": "uint256"
        },
        {
          "indexed": true,
          "internalType": "uint256",
          "name": "endBlockNumber",
          "type": "uint256"
        },
        {
          "indexed": true,
          "internalType": "bytes32",
          "name": "shnarf",
          "type": "bytes32"
        },
        {
          "indexed": false,
          "internalType": "bytes32",
          "name": "parentStateRootHash",
          "type": "bytes32"
        },
        {
          "indexed": false,
          "internalType": "bytes32",
          "name": "finalStateRootHash",
          "type": "bytes32"
        }
      ],
      "name": "DataFinalizedV3",
      "type": "event"
    },
    {
      "anonymous": false,
      "inputs": [
        {
          "indexed": false,
          "internalType": "bytes32",
          "name": "parentShnarf",
          "type": "bytes32"
        },
        {
          "indexed": true,
          "internalType": "bytes32",
          "name": "shnarf",
          "type": "bytes32"
        },
        {
          "indexed": false,
          "internalType": "bytes32",
          "name": "finalStateRootHash",
          "type": "bytes32"
        }
      ],
      "name": "DataSubmittedV3",
      "type": "event"
    },
    {
      "anonymous": false,
      "inputs": [
        {
          "indexed": true,
          "internalType": "uint256",
          "name": "blockNumber",
          "type": "uint256"
        },
        {
          "indexed": false,
          "internalType": "uint256",
          "name": "timestamp",
          "type": "uint256"
        },
        {
          "indexed": false,
          "internalType": "uint256",
          "name": "messageNumber",
          "type": "uint256"
        },
        {
          "indexed": false,
          "internalType": "uint256",
          "name": "forcedTransactionNumber",
          "type": "uint256"
        }
      ],
      "name": "FinalizedStateUpdated",
      "type": "event"
    },
    {
      "anonymous": false,
      "inputs": [
        {
          "indexed": true,
          "internalType": "uint256",
          "name": "forcedTransactionNumber",
          "type": "uint256"
        },
        {
          "indexed": true,
          "internalType": "address",
          "name": "from",
          "type": "address"
        },
        {
          "indexed": false,
          "internalType": "uint256",
          "name": "blockNumberDeadline",
          "type": "uint256"
        },
        {
          "indexed": false,
          "internalType": "bytes32",
          "name": "forcedTransactionRollingHash",
          "type": "bytes32"
        },
        {
          "indexed": false,
          "internalType": "bytes",
          "name": "rlpEncodedSignedTransaction",
          "type": "bytes"
        }
      ],
      "name": "ForcedTransactionAdded",
      "type": "event"
    },
    {
      "anonymous": false,
      "inputs": [
        {
          "indexed": false,
          "internalType": "uint256",
          "name": "forcedTransactionFeeInWei",
          "type": "uint256"
        }
      ],
      "name": "ForcedTransactionFeeSet",
      "type": "event"
    },
    {
      "anonymous": false,
      "inputs": [
        {
          "indexed": false,
          "internalType": "uint256",
          "name": "amount",
          "type": "uint256"
        }
      ],
      "name": "FundingReceived",
      "type": "event"
    },
    {
      "anonymous": false,
      "inputs": [
        {
          "indexed": false,
          "internalType": "uint8",
          "name": "version",
          "type": "uint8"
        }
      ],
      "name": "Initialized",
      "type": "event"
    },
    {
      "anonymous": false,
      "inputs": [
        {
          "indexed": true,
          "internalType": "bytes32",
          "name": "l2MerkleRoot",
          "type": "bytes32"
        },
        {
          "indexed": true,
          "internalType": "uint256",
          "name": "treeDepth",
          "type": "uint256"
        }
      ],
      "name": "L2MerkleRootAdded",
      "type": "event"
    },
    {
      "anonymous": false,
      "inputs": [
        {
          "indexed": true,
          "internalType": "uint256",
          "name": "l2Block",
          "type": "uint256"
        }
      ],
      "name": "L2MessagingBlockAnchored",
      "type": "event"
    },
    {
      "anonymous": false,
      "inputs": [
        {
          "indexed": true,
          "internalType": "address",
          "name": "amountChangeBy",
          "type": "address"
        },
        {
          "indexed": false,
          "internalType": "uint256",
          "name": "amount",
          "type": "uint256"
        },
        {
          "indexed": false,
          "internalType": "bool",
          "name": "amountUsedLoweredToLimit",
          "type": "bool"
        },
        {
          "indexed": false,
          "internalType": "bool",
          "name": "usedAmountResetToZero",
          "type": "bool"
        }
      ],
      "name": "LimitAmountChanged",
      "type": "event"
    },
    {
      "anonymous": false,
      "inputs": [
        {
          "components": [
            {
              "internalType": "bytes32",
              "name": "initialStateRootHash",
              "type": "bytes32"
            },
            {
              "internalType": "uint256",
              "name": "initialL2BlockNumber",
              "type": "uint256"
            },
            {
              "internalType": "uint256",
              "name": "genesisTimestamp",
              "type": "uint256"
            },
            {
              "internalType": "address",
              "name": "defaultVerifier",
              "type": "address"
            },
            {
              "internalType": "uint256",
              "name": "rateLimitPeriodInSeconds",
              "type": "uint256"
            },
            {
              "internalType": "uint256",
              "name": "rateLimitAmountInWei",
              "type": "uint256"
            },
            {
              "components": [
                {
                  "internalType": "address",
                  "name": "addressWithRole",
                  "type": "address"
                },
                {
                  "internalType": "bytes32",
                  "name": "role",
                  "type": "bytes32"
                }
              ],
              "internalType": "struct IPermissionsManager.RoleAddress[]",
              "name": "roleAddresses",
              "type": "tuple[]"
            },
            {
              "components": [
                {
                  "internalType": "enum IPauseManager.PauseType",
                  "name": "pauseType",
                  "type": "uint8"
                },
                {
                  "internalType": "bytes32",
                  "name": "role",
                  "type": "bytes32"
                }
              ],
              "internalType": "struct IPauseManager.PauseTypeRole[]",
              "name": "pauseTypeRoles",
              "type": "tuple[]"
            },
            {
              "components": [
                {
                  "internalType": "enum IPauseManager.PauseType",
                  "name": "pauseType",
                  "type": "uint8"
                },
                {
                  "internalType": "bytes32",
                  "name": "role",
                  "type": "bytes32"
                }
              ],
              "internalType": "struct IPauseManager.PauseTypeRole[]",
              "name": "unpauseTypeRoles",
              "type": "tuple[]"
            },
            {
              "internalType": "address",
              "name": "defaultAdmin",
              "type": "address"
            },
            {
              "internalType": "address",
              "name": "shnarfProvider",
              "type": "address"
            },
            {
              "internalType": "address",
              "name": "addressFilter",
              "type": "address"
            }
          ],
          "indexed": false,
          "internalType": "struct ILineaRollupBase.BaseInitializationData",
          "name": "InitializationData",
          "type": "tuple"
        }
      ],
      "name": "LineaRollupBaseInitialized",
      "type": "event"
    },
    {
      "anonymous": false,
      "inputs": [
        {
          "indexed": true,
          "internalType": "bytes8",
          "name": "previousVersion",
          "type": "bytes8"
        },
        {
          "indexed": true,
          "internalType": "bytes8",
          "name": "newVersion",
          "type": "bytes8"
        }
      ],
      "name": "LineaRollupVersionChanged",
      "type": "event"
    },
    {
      "anonymous": false,
      "inputs": [
        {
          "indexed": true,
          "internalType": "address",
          "name": "caller",
          "type": "address"
        },
        {
          "indexed": true,
          "internalType": "address",
          "name": "livenessRecoveryOperator",
          "type": "address"
        }
      ],
      "name": "LivenessRecoveryOperatorAddressSet",
      "type": "event"
    },
    {
      "anonymous": false,
      "inputs": [
        {
          "indexed": true,
          "internalType": "address",
          "name": "caller",
          "type": "address"
        },
        {
          "indexed": true,
          "internalType": "address",
          "name": "livenessRecoveryOperator",
          "type": "address"
        }
      ],
      "name": "LivenessRecoveryOperatorRoleGranted",
      "type": "event"
    },
    {
      "anonymous": false,
      "inputs": [
        {
          "indexed": true,
          "internalType": "bytes32",
          "name": "_messageHash",
          "type": "bytes32"
        }
      ],
      "name": "MessageClaimed",
      "type": "event"
    },
    {
      "anonymous": false,
      "inputs": [
        {
          "indexed": true,
          "internalType": "address",
          "name": "_from",
          "type": "address"
        },
        {
          "indexed": true,
          "internalType": "address",
          "name": "_to",
          "type": "address"
        },
        {
          "indexed": false,
          "internalType": "uint256",
          "name": "_fee",
          "type": "uint256"
        },
        {
          "indexed": false,
          "internalType": "uint256",
          "name": "_value",
          "type": "uint256"
        },
        {
          "indexed": false,
          "internalType": "uint256",
          "name": "_nonce",
          "type": "uint256"
        },
        {
          "indexed": false,
          "internalType": "bytes",
          "name": "_calldata",
          "type": "bytes"
        },
        {
          "indexed": true,
          "internalType": "bytes32",
          "name": "_messageHash",
          "type": "bytes32"
        }
      ],
      "name": "MessageSent",
      "type": "event"
    },
    {
      "anonymous": false,
      "inputs": [
        {
          "indexed": true,
          "internalType": "enum IPauseManager.PauseType",
          "name": "pauseType",
          "type": "uint8"
        },
        {
          "indexed": true,
          "internalType": "bytes32",
          "name": "role",
          "type": "bytes32"
        }
      ],
      "name": "PauseTypeRoleSet",
      "type": "event"
    },
    {
      "anonymous": false,
      "inputs": [
        {
          "indexed": true,
          "internalType": "enum IPauseManager.PauseType",
          "name": "pauseType",
          "type": "uint8"
        },
        {
          "indexed": true,
          "internalType": "bytes32",
          "name": "role",
          "type": "bytes32"
        },
        {
          "indexed": true,
          "internalType": "bytes32",
          "name": "previousRole",
          "type": "bytes32"
        }
      ],
      "name": "PauseTypeRoleUpdated",
      "type": "event"
    },
    {
      "anonymous": false,
      "inputs": [
        {
          "indexed": false,
          "internalType": "address",
          "name": "messageSender",
          "type": "address"
        },
        {
          "indexed": true,
          "internalType": "enum IPauseManager.PauseType",
          "name": "pauseType",
          "type": "uint8"
        }
      ],
      "name": "Paused",
      "type": "event"
    },
    {
      "anonymous": false,
      "inputs": [
        {
          "indexed": false,
          "internalType": "uint256",
          "name": "periodInSeconds",
          "type": "uint256"
        },
        {
          "indexed": false,
          "internalType": "uint256",
          "name": "limitInWei",
          "type": "uint256"
        },
        {
          "indexed": false,
          "internalType": "uint256",
          "name": "currentPeriodEnd",
          "type": "uint256"
        }
      ],
      "name": "RateLimitInitialized",
      "type": "event"
    },
    {
      "anonymous": false,
      "inputs": [
        {
          "indexed": true,
          "internalType": "bytes32",
          "name": "role",
          "type": "bytes32"
        },
        {
          "indexed": true,
          "internalType": "bytes32",
          "name": "previousAdminRole",
          "type": "bytes32"
        },
        {
          "indexed": true,
          "internalType": "bytes32",
          "name": "newAdminRole",
          "type": "bytes32"
        }
      ],
      "name": "RoleAdminChanged",
      "type": "event"
    },
    {
      "anonymous": false,
      "inputs": [
        {
          "indexed": true,
          "internalType": "bytes32",
          "name": "role",
          "type": "bytes32"
        },
        {
          "indexed": true,
          "internalType": "address",
          "name": "account",
          "type": "address"
        },
        {
          "indexed": true,
          "internalType": "address",
          "name": "sender",
          "type": "address"
        }
      ],
      "name": "RoleGranted",
      "type": "event"
    },
    {
      "anonymous": false,
      "inputs": [
        {
          "indexed": true,
          "internalType": "bytes32",
          "name": "role",
          "type": "bytes32"
        },
        {
          "indexed": true,
          "internalType": "address",
          "name": "account",
          "type": "address"
        },
        {
          "indexed": true,
          "internalType": "address",
          "name": "sender",
          "type": "address"
        }
      ],
      "name": "RoleRevoked",
      "type": "event"
    },
    {
      "anonymous": false,
      "inputs": [
        {
          "indexed": true,
          "internalType": "uint256",
          "name": "messageNumber",
          "type": "uint256"
        },
        {
          "indexed": true,
          "internalType": "bytes32",
          "name": "rollingHash",
          "type": "bytes32"
        },
        {
          "indexed": true,
          "internalType": "bytes32",
          "name": "messageHash",
          "type": "bytes32"
        }
      ],
      "name": "RollingHashUpdated",
      "type": "event"
    },
    {
      "anonymous": false,
      "inputs": [
        {
          "indexed": true,
          "internalType": "enum IPauseManager.PauseType",
          "name": "unPauseType",
          "type": "uint8"
        },
        {
          "indexed": true,
          "internalType": "bytes32",
          "name": "role",
          "type": "bytes32"
        }
      ],
      "name": "UnPauseTypeRoleSet",
      "type": "event"
    },
    {
      "anonymous": false,
      "inputs": [
        {
          "indexed": true,
          "internalType": "enum IPauseManager.PauseType",
          "name": "unPauseType",
          "type": "uint8"
        },
        {
          "indexed": true,
          "internalType": "bytes32",
          "name": "role",
          "type": "bytes32"
        },
        {
          "indexed": true,
          "internalType": "bytes32",
          "name": "previousRole",
          "type": "bytes32"
        }
      ],
      "name": "UnPauseTypeRoleUpdated",
      "type": "event"
    },
    {
      "anonymous": false,
      "inputs": [
        {
          "indexed": false,
          "internalType": "address",
          "name": "messageSender",
          "type": "address"
        },
        {
          "indexed": true,
          "internalType": "enum IPauseManager.PauseType",
          "name": "pauseType",
          "type": "uint8"
        }
      ],
      "name": "UnPaused",
      "type": "event"
    },
    {
      "anonymous": false,
      "inputs": [
        {
          "indexed": false,
          "internalType": "enum IPauseManager.PauseType",
          "name": "pauseType",
          "type": "uint8"
        }
      ],
      "name": "UnPausedDueToExpiry",
      "type": "event"
    },
    {
      "anonymous": false,
      "inputs": [
        {
          "indexed": true,
          "internalType": "address",
          "name": "verifierAddress",
          "type": "address"
        },
        {
          "indexed": true,
          "internalType": "uint256",
          "name": "proofType",
          "type": "uint256"
        },
        {
          "indexed": true,
          "internalType": "address",
          "name": "verifierSetBy",
          "type": "address"
        },
        {
          "indexed": false,
          "internalType": "address",
          "name": "oldVerifierAddress",
          "type": "address"
        }
      ],
      "name": "VerifierAddressChanged",
      "type": "event"
    },
    {
      "anonymous": false,
      "inputs": [
        {
          "indexed": false,
          "internalType": "address",
          "name": "oldYieldManagerAddress",
          "type": "address"
        },
        {
          "indexed": false,
          "internalType": "address",
          "name": "newYieldManagerAddress",
          "type": "address"
        }
      ],
      "name": "YieldManagerChanged",
      "type": "event"
    },
    {
      "inputs": [],
      "name": "CONTRACT_VERSION",
      "outputs": [
        {
          "internalType": "string",
          "name": "contractVersion",
          "type": "string"
        }
      ],
      "stateMutability": "view",
      "type": "function"
    },
    {
      "inputs": [],
      "name": "COOLDOWN_DURATION",
      "outputs": [
        {
          "internalType": "uint256",
          "name": "",
          "type": "uint256"
        }
      ],
      "stateMutability": "view",
      "type": "function"
    },
    {
      "inputs": [],
      "name": "DEFAULT_ADMIN_ROLE",
      "outputs": [
        {
          "internalType": "bytes32",
          "name": "",
          "type": "bytes32"
        }
      ],
      "stateMutability": "view",
      "type": "function"
    },
    {
      "inputs": [],
      "name": "FORCED_TRANSACTION_FEE_SETTER_ROLE",
      "outputs": [
        {
          "internalType": "bytes32",
          "name": "",
          "type": "bytes32"
        }
      ],
      "stateMutability": "view",
      "type": "function"
    },
    {
      "inputs": [],
      "name": "FORCED_TRANSACTION_SENDER_ROLE",
      "outputs": [
        {
          "internalType": "bytes32",
          "name": "",
          "type": "bytes32"
        }
      ],
      "stateMutability": "view",
      "type": "function"
    },
    {
      "inputs": [],
      "name": "INBOX_STATUS_RECEIVED",
      "outputs": [
        {
          "internalType": "uint8",
          "name": "",
          "type": "uint8"
        }
      ],
      "stateMutability": "view",
      "type": "function"
    },
    {
      "inputs": [],
      "name": "INBOX_STATUS_UNKNOWN",
      "outputs": [
        {
          "internalType": "uint8",
          "name": "",
          "type": "uint8"
        }
      ],
      "stateMutability": "view",
      "type": "function"
    },
    {
      "inputs": [],
      "name": "OPERATOR_ROLE",
      "outputs": [
        {
          "internalType": "bytes32",
          "name": "",
          "type": "bytes32"
        }
      ],
      "stateMutability": "view",
      "type": "function"
    },
    {
      "inputs": [],
      "name": "OUTBOX_STATUS_RECEIVED",
      "outputs": [
        {
          "internalType": "uint8",
          "name": "",
          "type": "uint8"
        }
      ],
      "stateMutability": "view",
      "type": "function"
    },
    {
      "inputs": [],
      "name": "OUTBOX_STATUS_SENT",
      "outputs": [
        {
          "internalType": "uint8",
          "name": "",
          "type": "uint8"
        }
      ],
      "stateMutability": "view",
      "type": "function"
    },
    {
      "inputs": [],
      "name": "OUTBOX_STATUS_UNKNOWN",
      "outputs": [
        {
          "internalType": "uint8",
          "name": "",
          "type": "uint8"
        }
      ],
      "stateMutability": "view",
      "type": "function"
    },
    {
      "inputs": [],
      "name": "PAUSE_ALL_ROLE",
      "outputs": [
        {
          "internalType": "bytes32",
          "name": "",
          "type": "bytes32"
        }
      ],
      "stateMutability": "view",
      "type": "function"
    },
    {
      "inputs": [],
      "name": "PAUSE_DURATION",
      "outputs": [
        {
          "internalType": "uint256",
          "name": "",
          "type": "uint256"
        }
      ],
      "stateMutability": "view",
      "type": "function"
    },
    {
      "inputs": [],
      "name": "PAUSE_FINALIZATION_ROLE",
      "outputs": [
        {
          "internalType": "bytes32",
          "name": "",
          "type": "bytes32"
        }
      ],
      "stateMutability": "view",
      "type": "function"
    },
    {
      "inputs": [],
      "name": "PAUSE_L1_L2_ROLE",
      "outputs": [
        {
          "internalType": "bytes32",
          "name": "",
          "type": "bytes32"
        }
      ],
      "stateMutability": "view",
      "type": "function"
    },
    {
      "inputs": [],
      "name": "PAUSE_L2_L1_ROLE",
      "outputs": [
        {
          "internalType": "bytes32",
          "name": "",
          "type": "bytes32"
        }
      ],
      "stateMutability": "view",
      "type": "function"
    },
    {
      "inputs": [],
      "name": "PAUSE_NATIVE_YIELD_STAKING_ROLE",
      "outputs": [
        {
          "internalType": "bytes32",
          "name": "",
          "type": "bytes32"
        }
      ],
      "stateMutability": "view",
      "type": "function"
    },
    {
      "inputs": [],
      "name": "PAUSE_STATE_DATA_SUBMISSION_ROLE",
      "outputs": [
        {
          "internalType": "bytes32",
          "name": "",
          "type": "bytes32"
        }
      ],
      "stateMutability": "view",
      "type": "function"
    },
    {
      "inputs": [],
      "name": "RATE_LIMIT_SETTER_ROLE",
      "outputs": [
        {
          "internalType": "bytes32",
          "name": "",
          "type": "bytes32"
        }
      ],
      "stateMutability": "view",
      "type": "function"
    },
    {
      "inputs": [],
      "name": "SECURITY_COUNCIL_ROLE",
      "outputs": [
        {
          "internalType": "bytes32",
          "name": "",
          "type": "bytes32"
        }
      ],
      "stateMutability": "view",
      "type": "function"
    },
    {
      "inputs": [],
      "name": "SET_ADDRESS_FILTER_ROLE",
      "outputs": [
        {
          "internalType": "bytes32",
          "name": "",
          "type": "bytes32"
        }
      ],
      "stateMutability": "view",
      "type": "function"
    },
    {
      "inputs": [],
      "name": "SET_YIELD_MANAGER_ROLE",
      "outputs": [
        {
          "internalType": "bytes32",
          "name": "",
          "type": "bytes32"
        }
      ],
      "stateMutability": "view",
      "type": "function"
    },
    {
      "inputs": [],
      "name": "UNPAUSE_ALL_ROLE",
      "outputs": [
        {
          "internalType": "bytes32",
          "name": "",
          "type": "bytes32"
        }
      ],
      "stateMutability": "view",
      "type": "function"
    },
    {
      "inputs": [],
      "name": "UNPAUSE_FINALIZATION_ROLE",
      "outputs": [
        {
          "internalType": "bytes32",
          "name": "",
          "type": "bytes32"
        }
      ],
      "stateMutability": "view",
      "type": "function"
    },
    {
      "inputs": [],
      "name": "UNPAUSE_L1_L2_ROLE",
      "outputs": [
        {
          "internalType": "bytes32",
          "name": "",
          "type": "bytes32"
        }
      ],
      "stateMutability": "view",
      "type": "function"
    },
    {
      "inputs": [],
      "name": "UNPAUSE_L2_L1_ROLE",
      "outputs": [
        {
          "internalType": "bytes32",
          "name": "",
          "type": "bytes32"
        }
      ],
      "stateMutability": "view",
      "type": "function"
    },
    {
      "inputs": [],
      "name": "UNPAUSE_NATIVE_YIELD_STAKING_ROLE",
      "outputs": [
        {
          "internalType": "bytes32",
          "name": "",
          "type": "bytes32"
        }
      ],
      "stateMutability": "view",
      "type": "function"
    },
    {
      "inputs": [],
      "name": "UNPAUSE_STATE_DATA_SUBMISSION_ROLE",
      "outputs": [
        {
          "internalType": "bytes32",
          "name": "",
          "type": "bytes32"
        }
      ],
      "stateMutability": "view",
      "type": "function"
    },
    {
      "inputs": [],
      "name": "USED_RATE_LIMIT_RESETTER_ROLE",
      "outputs": [
        {
          "internalType": "bytes32",
          "name": "",
          "type": "bytes32"
        }
      ],
      "stateMutability": "view",
      "type": "function"
    },
    {
      "inputs": [],
      "name": "VERIFIER_SETTER_ROLE",
      "outputs": [
        {
          "internalType": "bytes32",
          "name": "",
          "type": "bytes32"
        }
      ],
      "stateMutability": "view",
      "type": "function"
    },
    {
      "inputs": [],
      "name": "VERIFIER_UNSETTER_ROLE",
      "outputs": [
        {
          "internalType": "bytes32",
          "name": "",
          "type": "bytes32"
        }
      ],
      "stateMutability": "view",
      "type": "function"
    },
    {
      "inputs": [],
      "name": "YIELD_PROVIDER_STAKING_ROLE",
      "outputs": [
        {
          "internalType": "bytes32",
          "name": "",
          "type": "bytes32"
        }
      ],
      "stateMutability": "view",
      "type": "function"
    },
    {
      "inputs": [],
      "name": "addressFilter",
      "outputs": [
        {
          "internalType": "contract IAddressFilter",
          "name": "",
          "type": "address"
        }
      ],
      "stateMutability": "view",
      "type": "function"
    },
    {
      "inputs": [
        {
          "internalType": "bytes32",
          "name": "_shnarf",
          "type": "bytes32"
        }
      ],
      "name": "blobShnarfExists",
      "outputs": [
        {
          "internalType": "uint256",
          "name": "shnarfExists",
          "type": "uint256"
        }
      ],
      "stateMutability": "view",
      "type": "function"
    },
    {
      "inputs": [
        {
          "internalType": "address",
          "name": "_from",
          "type": "address"
        },
        {
          "internalType": "address",
          "name": "_to",
          "type": "address"
        },
        {
          "internalType": "uint256",
          "name": "_fee",
          "type": "uint256"
        },
        {
          "internalType": "uint256",
          "name": "_value",
          "type": "uint256"
        },
        {
          "internalType": "address payable",
          "name": "_feeRecipient",
          "type": "address"
        },
        {
          "internalType": "bytes",
          "name": "_calldata",
          "type": "bytes"
        },
        {
          "internalType": "uint256",
          "name": "_nonce",
          "type": "uint256"
        }
      ],
      "name": "claimMessage",
      "outputs": [],
      "stateMutability": "nonpayable",
      "type": "function"
    },
    {
      "inputs": [
        {
          "components": [
            {
              "internalType": "bytes32[]",
              "name": "proof",
              "type": "bytes32[]"
            },
            {
              "internalType": "uint256",
              "name": "messageNumber",
              "type": "uint256"
            },
            {
              "internalType": "uint32",
              "name": "leafIndex",
              "type": "uint32"
            },
            {
              "internalType": "address",
              "name": "from",
              "type": "address"
            },
            {
              "internalType": "address",
              "name": "to",
              "type": "address"
            },
            {
              "internalType": "uint256",
              "name": "fee",
              "type": "uint256"
            },
            {
              "internalType": "uint256",
              "name": "value",
              "type": "uint256"
            },
            {
              "internalType": "address payable",
              "name": "feeRecipient",
              "type": "address"
            },
            {
              "internalType": "bytes32",
              "name": "merkleRoot",
              "type": "bytes32"
            },
            {
              "internalType": "bytes",
              "name": "data",
              "type": "bytes"
            }
          ],
          "internalType": "struct IL1MessageService.ClaimMessageWithProofParams",
          "name": "_params",
          "type": "tuple"
        }
      ],
      "name": "claimMessageWithProof",
      "outputs": [],
      "stateMutability": "nonpayable",
      "type": "function"
    },
    {
      "inputs": [
        {
          "components": [
            {
              "internalType": "bytes32[]",
              "name": "proof",
              "type": "bytes32[]"
            },
            {
              "internalType": "uint256",
              "name": "messageNumber",
              "type": "uint256"
            },
            {
              "internalType": "uint32",
              "name": "leafIndex",
              "type": "uint32"
            },
            {
              "internalType": "address",
              "name": "from",
              "type": "address"
            },
            {
              "internalType": "address",
              "name": "to",
              "type": "address"
            },
            {
              "internalType": "uint256",
              "name": "fee",
              "type": "uint256"
            },
            {
              "internalType": "uint256",
              "name": "value",
              "type": "uint256"
            },
            {
              "internalType": "address payable",
              "name": "feeRecipient",
              "type": "address"
            },
            {
              "internalType": "bytes32",
              "name": "merkleRoot",
              "type": "bytes32"
            },
            {
              "internalType": "bytes",
              "name": "data",
              "type": "bytes"
            }
          ],
          "internalType": "struct IL1MessageService.ClaimMessageWithProofParams",
          "name": "_params",
          "type": "tuple"
        },
        {
          "internalType": "address",
          "name": "_yieldProvider",
          "type": "address"
        }
      ],
      "name": "claimMessageWithProofAndWithdrawLST",
      "outputs": [],
      "stateMutability": "nonpayable",
      "type": "function"
    },
    {
      "inputs": [],
      "name": "currentFinalizedShnarf",
      "outputs": [
        {
          "internalType": "bytes32",
          "name": "",
          "type": "bytes32"
        }
      ],
      "stateMutability": "view",
      "type": "function"
    },
    {
      "inputs": [],
      "name": "currentFinalizedState",
      "outputs": [
        {
          "internalType": "bytes32",
          "name": "",
          "type": "bytes32"
        }
      ],
      "stateMutability": "view",
      "type": "function"
    },
    {
      "inputs": [],
      "name": "currentL2BlockNumber",
      "outputs": [
        {
          "internalType": "uint256",
          "name": "",
          "type": "uint256"
        }
      ],
      "stateMutability": "view",
      "type": "function"
    },
    {
      "inputs": [],
      "name": "currentPeriodAmountInWei",
      "outputs": [
        {
          "internalType": "uint256",
          "name": "",
          "type": "uint256"
        }
      ],
      "stateMutability": "view",
      "type": "function"
    },
    {
      "inputs": [],
      "name": "currentPeriodEnd",
      "outputs": [
        {
          "internalType": "uint256",
          "name": "",
          "type": "uint256"
        }
      ],
      "stateMutability": "view",
      "type": "function"
    },
    {
      "inputs": [
        {
          "internalType": "bytes",
          "name": "_aggregatedProof",
          "type": "bytes"
        },
        {
          "internalType": "uint256",
          "name": "_proofType",
          "type": "uint256"
        },
        {
          "components": [
            {
              "internalType": "bytes32",
              "name": "parentStateRootHash",
              "type": "bytes32"
            },
            {
              "internalType": "uint256",
              "name": "endBlockNumber",
              "type": "uint256"
            },
            {
              "components": [
                {
                  "internalType": "bytes32",
                  "name": "parentShnarf",
                  "type": "bytes32"
                },
                {
                  "internalType": "bytes32",
                  "name": "snarkHash",
                  "type": "bytes32"
                },
                {
                  "internalType": "bytes32",
                  "name": "finalStateRootHash",
                  "type": "bytes32"
                },
                {
                  "internalType": "bytes32",
                  "name": "dataEvaluationPoint",
                  "type": "bytes32"
                },
                {
                  "internalType": "bytes32",
                  "name": "dataEvaluationClaim",
                  "type": "bytes32"
                }
              ],
              "internalType": "struct ILineaRollupBase.ShnarfData",
              "name": "shnarfData",
              "type": "tuple"
            },
            {
              "internalType": "uint256",
              "name": "lastFinalizedTimestamp",
              "type": "uint256"
            },
            {
              "internalType": "uint256",
              "name": "finalTimestamp",
              "type": "uint256"
            },
            {
              "internalType": "bytes32",
              "name": "lastFinalizedL1RollingHash",
              "type": "bytes32"
            },
            {
              "internalType": "bytes32",
              "name": "l1RollingHash",
              "type": "bytes32"
            },
            {
              "internalType": "uint256",
              "name": "lastFinalizedL1RollingHashMessageNumber",
              "type": "uint256"
            },
            {
              "internalType": "uint256",
              "name": "l1RollingHashMessageNumber",
              "type": "uint256"
            },
            {
              "internalType": "uint256",
              "name": "l2MerkleTreesDepth",
              "type": "uint256"
            },
            {
              "internalType": "uint256",
              "name": "lastFinalizedForcedTransactionNumber",
              "type": "uint256"
            },
            {
              "internalType": "uint256",
              "name": "finalForcedTransactionNumber",
              "type": "uint256"
            },
            {
              "internalType": "bytes32",
              "name": "lastFinalizedForcedTransactionRollingHash",
              "type": "bytes32"
            },
            {
              "internalType": "bytes32[]",
              "name": "l2MerkleRoots",
              "type": "bytes32[]"
            },
            {
              "internalType": "address[]",
              "name": "filteredAddresses",
              "type": "address[]"
            },
            {
              "internalType": "bytes",
              "name": "l2MessagingBlocksOffsets",
              "type": "bytes"
            }
          ],
          "internalType": "struct ILineaRollupBase.FinalizationDataV4",
          "name": "_finalizationData",
          "type": "tuple"
        }
      ],
      "name": "finalizeBlocks",
      "outputs": [],
      "stateMutability": "nonpayable",
      "type": "function"
    },
    {
      "inputs": [],
      "name": "forcedTransactionFeeInWei",
      "outputs": [
        {
          "internalType": "uint256",
          "name": "",
          "type": "uint256"
        }
      ],
      "stateMutability": "view",
      "type": "function"
    },
    {
      "inputs": [
        {
          "internalType": "uint256",
          "name": "forcedTransactionNumber",
          "type": "uint256"
        }
      ],
      "name": "forcedTransactionL2BlockNumbers",
      "outputs": [
        {
          "internalType": "uint256",
          "name": "l2BlockNumber",
          "type": "uint256"
        }
      ],
      "stateMutability": "view",
      "type": "function"
    },
    {
      "inputs": [
        {
          "internalType": "uint256",
          "name": "forcedTransactionNumber",
          "type": "uint256"
        }
      ],
      "name": "forcedTransactionRollingHashes",
      "outputs": [
        {
          "internalType": "bytes32",
          "name": "rollingHash",
          "type": "bytes32"
        }
      ],
      "stateMutability": "view",
      "type": "function"
    },
    {
      "inputs": [],
      "name": "fund",
      "outputs": [],
      "stateMutability": "payable",
      "type": "function"
    },
    {
      "inputs": [],
      "name": "getRequiredForcedTransactionFields",
      "outputs": [
        {
          "internalType": "bytes32",
          "name": "finalizedState",
          "type": "bytes32"
        },
        {
          "internalType": "bytes32",
          "name": "previousForcedTransactionRollingHash",
          "type": "bytes32"
        },
        {
          "internalType": "uint256",
          "name": "currentFinalizedL2BlockNumber",
          "type": "uint256"
        },
        {
          "internalType": "uint256",
          "name": "forcedTransactionFeeAmount",
          "type": "uint256"
        }
      ],
      "stateMutability": "view",
      "type": "function"
    },
    {
      "inputs": [
        {
          "internalType": "bytes32",
          "name": "role",
          "type": "bytes32"
        }
      ],
      "name": "getRoleAdmin",
      "outputs": [
        {
          "internalType": "bytes32",
          "name": "",
          "type": "bytes32"
        }
      ],
      "stateMutability": "view",
      "type": "function"
    },
    {
      "inputs": [
        {
          "internalType": "bytes32",
          "name": "role",
          "type": "bytes32"
        },
        {
          "internalType": "address",
          "name": "account",
          "type": "address"
        }
      ],
      "name": "grantRole",
      "outputs": [],
      "stateMutability": "nonpayable",
      "type": "function"
    },
    {
      "inputs": [
        {
          "internalType": "bytes32",
          "name": "role",
          "type": "bytes32"
        },
        {
          "internalType": "address",
          "name": "account",
          "type": "address"
        }
      ],
      "name": "hasRole",
      "outputs": [
        {
          "internalType": "bool",
          "name": "",
          "type": "bool"
        }
      ],
      "stateMutability": "view",
      "type": "function"
    },
    {
      "inputs": [
        {
          "internalType": "bytes32",
          "name": "messageHash",
          "type": "bytes32"
        }
      ],
      "name": "inboxL2L1MessageStatus",
      "outputs": [
        {
          "internalType": "uint256",
          "name": "messageStatus",
          "type": "uint256"
        }
      ],
      "stateMutability": "view",
      "type": "function"
    },
    {
      "inputs": [
        {
          "components": [
            {
              "internalType": "bytes32",
              "name": "initialStateRootHash",
              "type": "bytes32"
            },
            {
              "internalType": "uint256",
              "name": "initialL2BlockNumber",
              "type": "uint256"
            },
            {
              "internalType": "uint256",
              "name": "genesisTimestamp",
              "type": "uint256"
            },
            {
              "internalType": "address",
              "name": "defaultVerifier",
              "type": "address"
            },
            {
              "internalType": "uint256",
              "name": "rateLimitPeriodInSeconds",
              "type": "uint256"
            },
            {
              "internalType": "uint256",
              "name": "rateLimitAmountInWei",
              "type": "uint256"
            },
            {
              "components": [
                {
                  "internalType": "address",
                  "name": "addressWithRole",
                  "type": "address"
                },
                {
                  "internalType": "bytes32",
                  "name": "role",
                  "type": "bytes32"
                }
              ],
              "internalType": "struct IPermissionsManager.RoleAddress[]",
              "name": "roleAddresses",
              "type": "tuple[]"
            },
            {
              "components": [
                {
                  "internalType": "enum IPauseManager.PauseType",
                  "name": "pauseType",
                  "type": "uint8"
                },
                {
                  "internalType": "bytes32",
                  "name": "role",
                  "type": "bytes32"
                }
              ],
              "internalType": "struct IPauseManager.PauseTypeRole[]",
              "name": "pauseTypeRoles",
              "type": "tuple[]"
            },
            {
              "components": [
                {
                  "internalType": "enum IPauseManager.PauseType",
                  "name": "pauseType",
                  "type": "uint8"
                },
                {
                  "internalType": "bytes32",
                  "name": "role",
                  "type": "bytes32"
                }
              ],
              "internalType": "struct IPauseManager.PauseTypeRole[]",
              "name": "unpauseTypeRoles",
              "type": "tuple[]"
            },
            {
              "internalType": "address",
              "name": "defaultAdmin",
              "type": "address"
            },
            {
              "internalType": "address",
              "name": "shnarfProvider",
              "type": "address"
            },
            {
              "internalType": "address",
              "name": "addressFilter",
              "type": "address"
            }
          ],
          "internalType": "struct ILineaRollupBase.BaseInitializationData",
          "name": "_initializationData",
          "type": "tuple"
        },
        {
          "internalType": "address",
          "name": "_livenessRecoveryOperator",
          "type": "address"
        },
        {
          "internalType": "address",
          "name": "_yieldManager",
          "type": "address"
        }
      ],
      "name": "initialize",
      "outputs": [],
      "stateMutability": "nonpayable",
      "type": "function"
    },
    {
      "inputs": [
        {
          "internalType": "uint256",
          "name": "_messageNumber",
          "type": "uint256"
        }
      ],
      "name": "isMessageClaimed",
      "outputs": [
        {
          "internalType": "bool",
          "name": "isClaimed",
          "type": "bool"
        }
      ],
      "stateMutability": "view",
      "type": "function"
    },
    {
      "inputs": [
        {
          "internalType": "enum IPauseManager.PauseType",
          "name": "_pauseType",
          "type": "uint8"
        }
      ],
      "name": "isPaused",
      "outputs": [
        {
          "internalType": "bool",
          "name": "pauseTypeIsPaused",
          "type": "bool"
        }
      ],
      "stateMutability": "view",
      "type": "function"
    },
    {
      "inputs": [],
      "name": "isWithdrawLSTAllowed",
      "outputs": [
        {
          "internalType": "bool",
          "name": "",
          "type": "bool"
        }
      ],
      "stateMutability": "view",
      "type": "function"
    },
    {
      "inputs": [
        {
          "internalType": "bytes32",
          "name": "merkleRoot",
          "type": "bytes32"
        }
      ],
      "name": "l2MerkleRootsDepths",
      "outputs": [
        {
          "internalType": "uint256",
          "name": "treeDepth",
          "type": "uint256"
        }
      ],
      "stateMutability": "view",
      "type": "function"
    },
    {
      "inputs": [],
      "name": "limitInWei",
      "outputs": [
        {
          "internalType": "uint256",
          "name": "",
          "type": "uint256"
        }
      ],
      "stateMutability": "view",
      "type": "function"
    },
    {
      "inputs": [],
      "name": "livenessRecoveryOperator",
      "outputs": [
        {
          "internalType": "address",
          "name": "",
          "type": "address"
        }
      ],
      "stateMutability": "view",
      "type": "function"
    },
    {
      "inputs": [],
      "name": "nextForcedTransactionNumber",
      "outputs": [
        {
          "internalType": "uint256",
          "name": "",
          "type": "uint256"
        }
      ],
      "stateMutability": "view",
      "type": "function"
    },
    {
      "inputs": [],
      "name": "nextMessageNumber",
      "outputs": [
        {
          "internalType": "uint256",
          "name": "",
          "type": "uint256"
        }
      ],
      "stateMutability": "view",
      "type": "function"
    },
    {
      "inputs": [
        {
          "internalType": "bytes32",
          "name": "messageHash",
          "type": "bytes32"
        }
      ],
      "name": "outboxL1L2MessageStatus",
      "outputs": [
        {
          "internalType": "uint256",
          "name": "messageStatus",
          "type": "uint256"
        }
      ],
      "stateMutability": "view",
      "type": "function"
    },
    {
      "inputs": [
        {
          "internalType": "enum IPauseManager.PauseType",
          "name": "_pauseType",
          "type": "uint8"
        }
      ],
      "name": "pauseByType",
      "outputs": [],
      "stateMutability": "nonpayable",
      "type": "function"
    },
    {
      "inputs": [],
      "name": "pauseExpiryTimestamp",
      "outputs": [
        {
          "internalType": "uint256",
          "name": "",
          "type": "uint256"
        }
      ],
      "stateMutability": "view",
      "type": "function"
    },
    {
      "inputs": [],
      "name": "periodInSeconds",
      "outputs": [
        {
          "internalType": "uint256",
          "name": "",
          "type": "uint256"
        }
      ],
      "stateMutability": "view",
      "type": "function"
    },
    {
      "inputs": [
        {
          "internalType": "uint256",
          "name": "_forcedTransactionFeeInWei",
          "type": "uint256"
        },
        {
          "internalType": "address",
          "name": "_addressFilter",
          "type": "address"
        }
      ],
      "name": "reinitializeLineaRollupV9",
      "outputs": [],
      "stateMutability": "nonpayable",
      "type": "function"
    },
    {
      "inputs": [
        {
          "internalType": "bytes32",
          "name": "_role",
          "type": "bytes32"
        },
        {
          "internalType": "address",
          "name": "_account",
          "type": "address"
        }
      ],
      "name": "renounceRole",
      "outputs": [],
      "stateMutability": "nonpayable",
      "type": "function"
    },
    {
      "inputs": [
        {
          "internalType": "uint256",
          "name": "_amount",
          "type": "uint256"
        },
        {
          "internalType": "address",
          "name": "_l2YieldRecipient",
          "type": "address"
        }
      ],
      "name": "reportNativeYield",
      "outputs": [],
      "stateMutability": "nonpayable",
      "type": "function"
    },
    {
      "inputs": [],
      "name": "resetAmountUsedInPeriod",
      "outputs": [],
      "stateMutability": "nonpayable",
      "type": "function"
    },
    {
      "inputs": [
        {
          "internalType": "uint256",
          "name": "_amount",
          "type": "uint256"
        }
      ],
      "name": "resetRateLimitAmount",
      "outputs": [],
      "stateMutability": "nonpayable",
      "type": "function"
    },
    {
      "inputs": [
        {
          "internalType": "bytes32",
          "name": "role",
          "type": "bytes32"
        },
        {
          "internalType": "address",
          "name": "account",
          "type": "address"
        }
      ],
      "name": "revokeRole",
      "outputs": [],
      "stateMutability": "nonpayable",
      "type": "function"
    },
    {
      "inputs": [
        {
          "internalType": "uint256",
          "name": "messageNumber",
          "type": "uint256"
        }
      ],
      "name": "rollingHashes",
      "outputs": [
        {
          "internalType": "bytes32",
          "name": "rollingHash",
          "type": "bytes32"
        }
      ],
      "stateMutability": "view",
      "type": "function"
    },
    {
      "inputs": [
        {
          "internalType": "address",
          "name": "_to",
          "type": "address"
        },
        {
          "internalType": "uint256",
          "name": "_fee",
          "type": "uint256"
        },
        {
          "internalType": "bytes",
          "name": "_calldata",
          "type": "bytes"
        }
      ],
      "name": "sendMessage",
      "outputs": [],
      "stateMutability": "payable",
      "type": "function"
    },
    {
      "inputs": [],
      "name": "sender",
      "outputs": [
        {
          "internalType": "address",
          "name": "originalSender",
          "type": "address"
        }
      ],
      "stateMutability": "view",
      "type": "function"
    },
    {
      "inputs": [
        {
          "internalType": "address",
          "name": "_addressFilter",
          "type": "address"
        }
      ],
      "name": "setAddressFilter",
      "outputs": [],
      "stateMutability": "nonpayable",
      "type": "function"
    },
    {
      "inputs": [
        {
          "internalType": "uint256",
          "name": "_forcedTransactionFeeInWei",
          "type": "uint256"
        }
      ],
      "name": "setForcedTransactionFee",
      "outputs": [],
      "stateMutability": "nonpayable",
      "type": "function"
    },
    {
      "inputs": [
        {
          "internalType": "uint256",
          "name": "_messageNumber",
          "type": "uint256"
        },
        {
          "internalType": "bytes32",
          "name": "_rollingHash",
          "type": "bytes32"
        },
        {
          "internalType": "uint256",
          "name": "_lastFinalizedForcedTransactionNumber",
          "type": "uint256"
        },
        {
          "internalType": "bytes32",
          "name": "_lastFinalizedForcedTransactionRollingHash",
          "type": "bytes32"
        },
        {
          "internalType": "uint256",
          "name": "_lastFinalizedTimestamp",
          "type": "uint256"
        }
      ],
      "name": "setLivenessRecoveryOperator",
      "outputs": [],
      "stateMutability": "nonpayable",
      "type": "function"
    },
    {
      "inputs": [
        {
          "internalType": "address",
          "name": "_newVerifierAddress",
          "type": "address"
        },
        {
          "internalType": "uint256",
          "name": "_proofType",
          "type": "uint256"
        }
      ],
      "name": "setVerifierAddress",
      "outputs": [],
      "stateMutability": "nonpayable",
      "type": "function"
    },
    {
      "inputs": [
        {
          "internalType": "address",
          "name": "_newYieldManager",
          "type": "address"
        }
      ],
      "name": "setYieldManager",
      "outputs": [],
      "stateMutability": "nonpayable",
      "type": "function"
    },
    {
      "inputs": [],
      "name": "shnarfProvider",
      "outputs": [
        {
          "internalType": "contract IProvideShnarf",
          "name": "",
          "type": "address"
        }
      ],
      "stateMutability": "view",
      "type": "function"
    },
    {
      "inputs": [
        {
          "internalType": "uint256",
          "name": "blockNumber",
          "type": "uint256"
        }
      ],
      "name": "stateRootHashes",
      "outputs": [
        {
          "internalType": "bytes32",
          "name": "stateRootHash",
          "type": "bytes32"
        }
      ],
      "stateMutability": "view",
      "type": "function"
    },
    {
      "inputs": [
        {
          "internalType": "bytes32",
          "name": "_forcedTransactionRollingHash",
          "type": "bytes32"
        },
        {
          "internalType": "address",
          "name": "_from",
          "type": "address"
        },
        {
          "internalType": "uint256",
          "name": "_blockNumberDeadline",
          "type": "uint256"
        },
        {
          "internalType": "bytes",
          "name": "_rlpEncodedSignedTransaction",
          "type": "bytes"
        }
      ],
      "name": "storeForcedTransaction",
      "outputs": [],
      "stateMutability": "payable",
      "type": "function"
    },
    {
      "inputs": [
        {
          "components": [
            {
              "internalType": "uint256",
              "name": "dataEvaluationClaim",
              "type": "uint256"
            },
            {
              "internalType": "bytes",
              "name": "kzgCommitment",
              "type": "bytes"
            },
            {
              "internalType": "bytes",
              "name": "kzgProof",
              "type": "bytes"
            },
            {
              "internalType": "bytes32",
              "name": "finalStateRootHash",
              "type": "bytes32"
            },
            {
              "internalType": "bytes32",
              "name": "snarkHash",
              "type": "bytes32"
            }
          ],
          "internalType": "struct IAcceptEip4844Blobs.BlobSubmission[]",
          "name": "_blobSubmissions",
          "type": "tuple[]"
        },
        {
          "internalType": "bytes32",
          "name": "_parentShnarf",
          "type": "bytes32"
        },
        {
          "internalType": "bytes32",
          "name": "_finalBlobShnarf",
          "type": "bytes32"
        }
      ],
      "name": "submitBlobs",
      "outputs": [],
      "stateMutability": "nonpayable",
      "type": "function"
    },
    {
      "inputs": [
        {
          "internalType": "bytes4",
          "name": "interfaceId",
          "type": "bytes4"
        }
      ],
      "name": "supportsInterface",
      "outputs": [
        {
          "internalType": "bool",
          "name": "",
          "type": "bool"
        }
      ],
      "stateMutability": "view",
      "type": "function"
    },
    {
      "inputs": [],
      "name": "systemMigrationBlock",
      "outputs": [
        {
          "internalType": "uint256",
          "name": "",
          "type": "uint256"
        }
      ],
      "stateMutability": "view",
      "type": "function"
    },
    {
      "inputs": [
        {
          "internalType": "uint256",
          "name": "_amount",
          "type": "uint256"
        }
      ],
      "name": "transferFundsForNativeYield",
      "outputs": [],
      "stateMutability": "nonpayable",
      "type": "function"
    },
    {
      "inputs": [
        {
          "internalType": "enum IPauseManager.PauseType",
          "name": "_pauseType",
          "type": "uint8"
        }
      ],
      "name": "unPauseByExpiredType",
      "outputs": [],
      "stateMutability": "nonpayable",
      "type": "function"
    },
    {
      "inputs": [
        {
          "internalType": "enum IPauseManager.PauseType",
          "name": "_pauseType",
          "type": "uint8"
        }
      ],
      "name": "unPauseByType",
      "outputs": [],
      "stateMutability": "nonpayable",
      "type": "function"
    },
    {
      "inputs": [
        {
          "internalType": "uint256",
          "name": "_proofType",
          "type": "uint256"
        }
      ],
      "name": "unsetVerifierAddress",
      "outputs": [],
      "stateMutability": "nonpayable",
      "type": "function"
    },
    {
      "inputs": [
        {
          "internalType": "enum IPauseManager.PauseType",
          "name": "_pauseType",
          "type": "uint8"
        },
        {
          "internalType": "bytes32",
          "name": "_newRole",
          "type": "bytes32"
        }
      ],
      "name": "updatePauseTypeRole",
      "outputs": [],
      "stateMutability": "nonpayable",
      "type": "function"
    },
    {
      "inputs": [
        {
          "internalType": "enum IPauseManager.PauseType",
          "name": "_pauseType",
          "type": "uint8"
        },
        {
          "internalType": "bytes32",
          "name": "_newRole",
          "type": "bytes32"
        }
      ],
      "name": "updateUnpauseTypeRole",
      "outputs": [],
      "stateMutability": "nonpayable",
      "type": "function"
    },
    {
      "inputs": [
        {
          "internalType": "uint256",
          "name": "proofType",
          "type": "uint256"
        }
      ],
      "name": "verifiers",
      "outputs": [
        {
          "internalType": "address",
          "name": "verifierAddress",
          "type": "address"
        }
      ],
      "stateMutability": "view",
      "type": "function"
    },
    {
      "inputs": [],
      "name": "yieldManager",
      "outputs": [
        {
          "internalType": "address",
          "name": "",
          "type": "address"
        }
      ],
      "stateMutability": "view",
      "type": "function"
    }
  ],
  "bytecode": "0x6080604052348015600e575f5ffd5b506015601f565b601b601f565b60d9565b5f54610100900460ff161560895760405162461bcd60e51b815260206004820152602760248201527f496e697469616c697a61626c653a20636f6e747261637420697320696e697469604482015266616c697a696e6760c81b606482015260840160405180910390fd5b5f5460ff9081161460d7575f805460ff191660ff9081179091556040519081527f7f26b83ff96e1f2b6a682f133852f6798a09c465da95921460cefb38474024989060200160405180910390a15b565b615d49806100e65f395ff3fe6080604052600436106105e2575f3560e01c806374ce962c11610306578063ac1eff681161019c578063c1dc0f07116100e7578063d722bbfc11610092578063e66c2a931161006d578063e66c2a9314611287578063ee828920146112a6578063f5b541a6146112f4575f5ffd5b8063d722bbfc14611216578063dd9be3e714611249578063e196fb5d14611268575f5ffd5b8063cc6f7251116100c2578063cc6f7251146111ae578063cd9b9e9a146111e1578063d547741f146111f7575f5ffd5b8063c1dc0f071461115a578063c21169741461116f578063c294c9181461118e575f5ffd5b8063b837dbe911610147578063bc61e73311610122578063bc61e733146110f3578063bf3e750514611112578063c0729ab114611145575f5ffd5b8063b837dbe914611078578063b9174ba31461108d578063b9fe5cf7146110c0575f5ffd5b8063ae15ceae11610177578063ae15ceae14611029578063aea4f7451461105c578063b60d428814611070575f5ffd5b8063ac1eff6814610fb3578063ad422ff014610fe8578063add9137a14610ffd575f5ffd5b8063923fe8941161025c5780639ac25d0811610207578063a217fddf116101e2578063a217fddf14610f57578063a4c4cef714610f6a578063a505925f14610f80575f5ffd5b80639ac25d0814610ef25780639ee8b21114610f255780639f3ce55a14610f44575f5ffd5b806395ba81fa1161023757806395ba81fa14610eb4578063986fcddd14610ced57806399467a3514610ed3575f5ffd5b8063923fe89414610e4057806392dd3f8714610e7357806392fa129a14610e9f575f5ffd5b80638be745d1116102bc578063914e57eb11610297578063914e57eb14610dba57806391d1485414610de6578063921b278e14610e2a575f5ffd5b80638be745d114610d3c5780638c7c363a14610d685780638de4948714610d87575f5ffd5b806378ea198a116102ec57806378ea198a14610cba5780637d1e8c5514610ced57806380b7af1814610d00575f5ffd5b806374ce962c14610c7c578063755bc62f14610c9b575f5ffd5b806348922ab71161047b5780635c721a0c116103d1578063695378f51161037c5780636e673843116103575780636e67384314610c025780637174c55914610c3557806373bd07b714610c68575f5ffd5b8063695378f514610b9a5780636a906b8014610bb05780636b78317214610be3575f5ffd5b806363213155116103ac5780636321315514610b2b5780636463fb2a14610b5e57806367e404ce14610b7d575f5ffd5b80635c721a0c14610abe5780635ec775b014610ae957806360e83cf314610aff575f5ffd5b806352abf32d11610431578063557eac731161040c578063557eac7314610a8a5780635879445614610aa95780635b7eb4bd1461096c575f5ffd5b806352abf32d14610a3657806352e576bb14610a555780635334b7e614610a6b575f5ffd5b80634bb97413116104615780634bb97413146109b1578063516f1a44146109d05780635230eef214610a03575f5ffd5b806348922ab71461096c578063491e093614610992575f5ffd5b80632c3c67d01161053b5780633b12eccb116104e65780633fc08b65116104c15780633fc08b65146108ef578063411aa28c1461091a57806342277d7014610939575f5ffd5b80633b12eccb1461087d5780633c0f20fc146108b05780633e9ebfc2146108d0575f5ffd5b80632fe35274116105165780632fe352741461081057806336568abe1461082d57806338b903331461084c575f5ffd5b80632c3c67d0146107bc5780632c70645c146107db5780632f2ff15d146107f1575f5ffd5b80632130d8121161059b578063248c612611610576578063248c61261461075257806328958174146107655780632acc8df914610784575f5ffd5b80632130d812146106e257806321b4deee1461070e578063248a9ca314610724575f5ffd5b8063085b1c6f116105cb578063085b1c6f1461065b5780631065a3991461068e578063198330f8146106af575f5ffd5b806301ffc9a7146105e657806303134d1d1461061a575b5f5ffd5b3480156105f1575f5ffd5b50610605610600366004614fb0565b611327565b60405190151581526020015b60405180910390f35b348015610625575f5ffd5b5061064d7f1ab87f7458c0e3d07e9881c14ee67f0141703614fd48ea5b15ed987e5f4b030e81565b604051908152602001610611565b348015610666575f5ffd5b5061064d7f220bd22ef7c53d75fe3eac0a09e90815a0c5ba4f9e8da8b039542cd3db34725881565b348015610699575f5ffd5b506106ad6106a8366004614fea565b61135d565b005b3480156106ba575f5ffd5b5061064d7f76ef52a5344b10ed112c1d48c7c06f51e919518ea6fb005f9b25b359b955e3be81565b3480156106ed575f5ffd5b5061064d6106fc366004615003565b5f9081526101be602052604090205490565b348015610719575f5ffd5b5061064d6203f48081565b34801561072f575f5ffd5b5061064d61073e366004615003565b5f9081526065602052604090206001015490565b6106ad61076036600461507e565b6114bb565b348015610770575f5ffd5b506106ad61077f366004615003565b61161f565b34801561078f575f5ffd5b506101c0546107a4906001600160a01b031681565b6040516001600160a01b039091168152602001610611565b3480156107c7575f5ffd5b506106ad6107d63660046150e3565b6116ba565b3480156107e6575f5ffd5b5061064d6101835481565b3480156107fc575f5ffd5b506106ad61080b36600461511a565b6117d7565b34801561081b575f5ffd5b50600160a01b60015c0460ff16610605565b348015610838575f5ffd5b506106ad61084736600461511a565b611800565b348015610857575f5ffd5b5060408051808201825260038152620382e360ec1b602082015290516106119190615148565b348015610888575f5ffd5b5061064d7fb6cc65f42901ed602aec1619cc1ead29d487cd489094a37615153eaeb991d77081565b3480156108bb575f5ffd5b506101c1546107a4906001600160a01b031681565b3480156108db575f5ffd5b506106ad6108ea36600461517d565b61180e565b3480156108fa575f5ffd5b5061064d610909366004615003565b60a56020525f908152604090205481565b348015610925575f5ffd5b506106ad61093436600461511a565b61193b565b348015610944575f5ffd5b5061064d7f012c76ef7f96cd7eb95acbdc250ad5696bbe3fd2fcf0207571939fa40c2e016781565b348015610977575f5ffd5b50610980600181565b60405160ff9091168152602001610611565b34801561099d575f5ffd5b506106ad6109ac3660046151a5565b611b7e565b3480156109bc575f5ffd5b506106ad6109cb36600461511a565b611de7565b3480156109db575f5ffd5b5061064d7fb63b70db607c764adad98a6745fc4efcea212ebc7b501d5753c57d675f377a6681565b348015610a0e575f5ffd5b5061064d7f0cf0d2deb70d7bdac2fa48c4ac99bc558170be0ce5fcb994caefa4bf7b96edf981565b348015610a41575f5ffd5b506106ad610a5036600461517d565b611f1e565b348015610a60575f5ffd5b5061064d6101c55481565b348015610a76575f5ffd5b506106ad610a85366004615003565b61204b565b348015610a95575f5ffd5b506106ad610aa4366004615003565b6120d3565b348015610ab4575f5ffd5b5061064d60995481565b348015610ac9575f5ffd5b5061064d610ad8366004615003565b60a66020525f908152604090205481565b348015610af4575f5ffd5b5061064d6201518081565b348015610b0a575f5ffd5b5061064d610b19366004615003565b6101506020525f908152604090205481565b348015610b36575f5ffd5b5061064d7fe37c272ea30e2bb381ad7cf89ae754b49153250609f36d0cbdad8b64c184bb5c81565b348015610b69575f5ffd5b506106ad610b78366004615246565b612199565b348015610b88575f5ffd5b5060015c6001600160a01b03166107a4565b348015610ba5575f5ffd5b5061064d6101195481565b348015610bbb575f5ffd5b5061064d7fd8b4c34c2ec1f3194471108c64ad2beda340c0337ee4ca35592f9ef270f4228b81565b348015610bee575f5ffd5b506106ad610bfd366004615280565b6122fe565b348015610c0d575f5ffd5b5061064d7f32937fd5162e282df7e9a14a5073a2425321c7966eaf70ed6c838a1006d84c4c81565b348015610c40575f5ffd5b5061064d7f4b4665d8754e6ea0608430ef3e91c1b45c72aafe8800e289cd35f38d8536185881565b348015610c73575f5ffd5b50610980600281565b348015610c87575f5ffd5b506106ad610c963660046152c4565b612499565b348015610ca6575f5ffd5b506106ad610cb53660046152df565b6124cc565b348015610cc5575f5ffd5b5061064d7f4df33217c89b6f12af38ba46035cb312b5e88de78d22279286830fe079b642cd81565b348015610cf8575f5ffd5b506109805f81565b348015610d0b575f5ffd5b507f594904a11ae10ad7613c91ac3c92c7c3bba397934d377ce6d3e0aaffbc17df00546001600160a01b03166107a4565b348015610d47575f5ffd5b5061064d610d56366004615003565b61011a6020525f908152604090205481565b348015610d73575f5ffd5b506106ad610d823660046152c4565b612632565b348015610d92575f5ffd5b5061064d7fe1fce82838dd7a42cfe783f60dc6233c8aa2c4fc66e77817805e767ec5e349b681565b348015610dc5575f5ffd5b5061064d610dd4366004615003565b61014e6020525f908152604090205481565b348015610df1575f5ffd5b50610605610e0036600461511a565b5f9182526065602090815260408084206001600160a01b0393909316845291905290205460ff1690565b348015610e35575f5ffd5b5061064d6101bf5481565b348015610e4b575f5ffd5b5061064d7fcc10d6eec3c757d645e27b3f3001a3ba52f692da0bce25fabf58c6ecaf37645081565b348015610e7e575f5ffd5b5061064d610e8d366004615003565b6101c36020525f908152604090205481565b348015610eaa575f5ffd5b5061064d60dd5481565b348015610ebf575f5ffd5b506106ad610ece366004614fea565b6126f4565b348015610ede575f5ffd5b506106ad610eed366004615357565b6127c8565b348015610efd575f5ffd5b5061064d7f56bdc3c9ec86cb7db110a7699b2ade72f0b8819727d9f7d906b012641505fa7781565b348015610f30575f5ffd5b50610605610f3f366004615003565b612811565b6106ad610f523660046153d4565b612834565b348015610f62575f5ffd5b5061064d5f81565b348015610f75575f5ffd5b5061064d6101c25481565b348015610f8b575f5ffd5b5061064d7f21aba2dd4535739d4ca4cddb3c024036bfcc88cfce067cb0847e7ad0f9cfaa5581565b348015610fbe575f5ffd5b506107a4610fcd366004615003565b61011b6020525f90815260409020546001600160a01b031681565b348015610ff3575f5ffd5b5061064d60985481565b348015611008575f5ffd5b5061064d611017366004615003565b6101c46020525f908152604090205481565b348015611034575f5ffd5b5061064d7fdaafd36d8da81d5104d4fd21e3ccc58683c62ba08cd23875bcfbc0583a3f49dd81565b348015611067575f5ffd5b506106ad612852565b6106ad6128ad565b348015611083575f5ffd5b5061064d60e45481565b348015611098575f5ffd5b5061064d7f430a7f0cb00b5ebbe63cecc96e82cf959a883e7c13a95110854f1fa6b3fbf59881565b3480156110cb575f5ffd5b5061064d7f1453a531db80c85f2d944d498709d84959bc5bf839eefe9acb784571e5a3211881565b3480156110fe575f5ffd5b5061060561110d366004614fea565b612902565b34801561111d575f5ffd5b5061064d7f1185e52d62bfbbea270e57d3d09733d221b53ab7a18bae82bb3c6c74bab16d8281565b348015611150575f5ffd5b5061064d609a5481565b348015611165575f5ffd5b5061064d60975481565b34801561117a575f5ffd5b506106ad61118936600461542c565b612926565b348015611199575f5ffd5b506101c6546107a4906001600160a01b031681565b3480156111b9575f5ffd5b5061064d7fe8cb6172fcf5cbaae022b7c910224a4f0c20d53227e630056efff182155a5abc81565b3480156111ec575f5ffd5b5061064d6101bd5481565b348015611202575f5ffd5b506106ad61121136600461511a565b6129fb565b348015611221575f5ffd5b5061064d7f6b5661ddfbd1fbd525c902a513e0f47d9c74f1c1ee8a2d4f1937ad305fb8f41a81565b348015611254575f5ffd5b506106ad611263366004615448565b612a1f565b348015611273575f5ffd5b506106ad611282366004614fea565b612b7c565b348015611292575f5ffd5b506106ad6112a1366004615003565b612ced565b3480156112b1575f5ffd5b506101bf546101c2545f19015f9081526101c46020526040902054610119546101c554604080519485526020850193909352918301526060820152608001610611565b3480156112ff575f5ffd5b5061064d7f97667070c54ef182b0f5858b034beac1b6f3089aa2d3188bb1e8929f4fa9b92981565b5f6001600160e01b03198216637965db0b60e01b148061135757506301ffc9a760e01b6001600160e01b03198316145b92915050565b805f81600d811115611371576113716154ad565b0361138f576040516385994c7760e01b815260040160405180910390fd5b60dc5f83600d8111156113a4576113a46154ad565b600d8111156113b5576113b56154ad565b81526020019081526020015f20546113cc81612da1565b6113d583612902565b6113fd5782604051630619659560e21b81526004016113f491906154e1565b60405180910390fd5b335f9081527f74a8627e7e8109f70747bbdf2c891159d40f925b9c8f09259a497b8c31b3780b602052604090205460ff1615611444576114406201518042615503565b60dd555b82600d811115611456576114566154ad565b60da8054600190921b19909116905582600d811115611477576114776154ad565b7fd071d2b85dec4489435b541d2f0e2570db09b09db9efd8703948d44a433df65a335b6040516001600160a01b0390911681526020015b60405180910390a2505050565b7fb63b70db607c764adad98a6745fc4efcea212ebc7b501d5753c57d675f377a666114e581612da1565b816115035760405163afd51dbf60e01b815260040160405180910390fd5b5f84116115235760405163273e150360e21b815260040160405180910390fd5b6001600160a01b03851661154a576040516342bcdf7f60e11b815260040160405180910390fd5b8561156857604051630742d05360e01b815260040160405180910390fd5b6101c28054600181019091555f1981015f9081526101c36020526040902054859081116115ab576040516317d6372960e31b81526004016113f491815260200190565b505f8181526101c4602090815260408083208a90556101c390915290819020869055516001600160a01b0387169082907f8fbc8fbd65675eb32c567d4a559963c7d002c2be67b5b266fb13d85b4375fce59061160e9089908c908a908a9061553e565b60405180910390a350505050505050565b7f6b5661ddfbd1fbd525c902a513e0f47d9c74f1c1ee8a2d4f1937ad305fb8f41a61164981612da1565b5f82815261011b602090815260408083205490516001600160a01b0390911681523392859290917f4a29db3fc6b42bda201e4b4d69ce8d575eeeba5f153509c0d0a342af0f1bd021910160405180910390a4505f90815261011b6020526040902080546001600160a01b0319169055565b6116c762f099c082615567565b4210156116e757604051634306cbb160e01b815260040160405180910390fd5b6040805186815260208101869052908101849052606081018390526080810182905260a090206101bf5414611763576101bf546040805187815260208101879052908101859052606081018490526080810183905260a090205b60405163bc5aad1160e01b8152600481019290925260248201526044016113f4565b6101c0546001600160a01b031661179a7f97667070c54ef182b0f5858b034beac1b6f3089aa2d3188bb1e8929f4fa9b92982612dae565b6040516001600160a01b0382169033907f6cfaf6b76ea493a8e88b6b95f7b34cdaae196c4ed737b32e72c5d9e8d0a18518905f90a3505050505050565b5f828152606560205260409020600101546117f181612da1565b6117fb8383612dae565b505050565b61180a8282612e4e565b5050565b815f81600d811115611822576118226154ad565b03611840576040516385994c7760e01b815260040160405180910390fd5b7f1453a531db80c85f2d944d498709d84959bc5bf839eefe9acb784571e5a3211861186a81612da1565b5f60db5f86600d811115611880576118806154ad565b600d811115611891576118916154ad565b81526020019081526020015f205490508381036118c157604051631b807f5560e01b815260040160405180910390fd5b8360db5f87600d8111156118d7576118d76154ad565b600d8111156118e8576118e86154ad565b815260208101919091526040015f2055808486600d81111561190c5761190c6154ad565b6040517f074bfc3728ef1e98bde10bcb5bd8cde59cff190c2bfda5d22f879f865a07bac5905f90a45050505050565b5f54600990610100900460ff1615801561195b57505f5460ff8083169116105b6119be5760405162461bcd60e51b815260206004820152602e60248201527f496e697469616c697a61626c653a20636f6e747261637420697320616c72656160448201526d191e481a5b9a5d1a585b1a5e995960921b60648201526084016113f4565b5f805461ffff191660ff8316176101001790557fb53127684a568b3173ae13b9f8a6016e243e63b6e8ee1178d6a717850b5d610354336001600160a01b03821614611a1c57604051631d94727d60e31b815260040160405180910390fd5b5f8411611a3c5760405163273e150360e21b815260040160405180910390fd5b6001600160a01b038316611a63576040516342bcdf7f60e11b815260040160405180910390fd5b6101c58490556101c680546001600160a01b0319166001600160a01b0385161790556040518481527fc4733b619696e38077e1b19371d193f42b20a279e3445c3b2b9f4d58db36bc6b9060200160405180910390a1604080515f81526001600160a01b03851660208201527f70a40b63da92dd99e111281bc23dfb08922b6d1337f71f895cf498eb60ff7a0b910160405180910390a160016101c255604051620382e360ec1b9062372e3160e81b907f2f8492a7a430cf917798dfb60bc5af634f68e6c40287947df0ea6f7ec0669bd8905f90a3505f805461ff001916905560405160ff821681527f7f26b83ff96e1f2b6a682f133852f6798a09c465da95921460cefb3847402498906020015b60405180910390a1505050565b60015f5c03611ba0576040516306fda65d60e31b815260040160405180910390fd5b6001805f5d5085878484875f5a9050611bb96003612e88565b8d6001805c6001600160a01b0319166001600160a01b03831617905d505f611be68f8f8f8f8c8f8f612ee8565b9050611bf181612f41565b611c03611bfe8d8f615567565b612f82565b5f5f8f6001600160a01b03168e8d8d604051611c2092919061557a565b5f6040518083038185875af1925050503d805f8114611c5a576040519150601f19603f3d011682016040523d82523d5f602084013e611c5f565b606091505b509150915081611ca357805115611c795780518082602001fd5b8f604051635461344360e01b81526004016113f491906001600160a01b0391909116815260200190565b5f6001805c6001600160a01b031916905d5060405183907fa4c827e719e911e8f19393ccdb85b5102f08f0910604d340ba38390b7ff2ab0e905f90a2505086159050611dd157855f849003611d6057853b158015611d5e573a5a611d0961bc7c86615567565b611d139190615503565b611d1d9190615589565b915081881115611d5a576001600160a01b0387166108fc611d3e848b615503565b6040518115909202915f818181858888f1935050505050611d5e565b8791505b505b5f6001600160a01b03841615611d765783611d78565b335b90505f816001600160a01b03166108fc8490811502906040515f60405180830381858888f19350505050905080611dcd5760405163295f137d60e21b81526001600160a01b03831660048201526024016113f4565b5050505b5050505050505f5f81905d505050505050505050565b6002611df281612e88565b7f594904a11ae10ad7613c91ac3c92c7c3bba397934d377ce6d3e0aaffbc17df00546001600160a01b03163314611e3c5760405163a1cfbf5960e01b815260040160405180910390fd5b6001600160a01b038216611e63576040516342bcdf7f60e11b815260040160405180910390fd5b60e480545f9182611e73836155a0565b9091555060408051308152602081018690525f918101829052606081018790526080810183905260c060a08201819052810182905260e0902091925050611eba8282612fdf565b604080515f80825260208201889052818301859052608060608301819052820152905182916001600160a01b0387169133917fe856c2b8bd4eb0027ce32eeaf595c21b0b6b4644b326e5b7bd80a1cf8db72e6c919081900360a00190a45050505050565b815f81600d811115611f3257611f326154ad565b03611f50576040516385994c7760e01b815260040160405180910390fd5b7f1453a531db80c85f2d944d498709d84959bc5bf839eefe9acb784571e5a32118611f7a81612da1565b5f60dc5f86600d811115611f9057611f906154ad565b600d811115611fa157611fa16154ad565b81526020019081526020015f20549050838103611fd157604051631b807f5560e01b815260040160405180910390fd5b8360dc5f87600d811115611fe757611fe76154ad565b600d811115611ff857611ff86154ad565b815260208101919091526040015f2055808486600d81111561201c5761201c6154ad565b6040517ff8ef9f1cde7c2c0d3aeb696678f76d7c1c3e13c3b79ea3c5160a2d9eaa821cfd905f90a45050505050565b7fdaafd36d8da81d5104d4fd21e3ccc58683c62ba08cd23875bcfbc0583a3f49dd61207581612da1565b5f82116120955760405163273e150360e21b815260040160405180910390fd5b6101c58290556040518281527fc4733b619696e38077e1b19371d193f42b20a279e3445c3b2b9f4d58db36bc6b906020015b60405180910390a15050565b7f1185e52d62bfbbea270e57d3d09733d221b53ab7a18bae82bb3c6c74bab16d826120fd81612da1565b5f5f5f426099541015612122576097546121179042615567565b609955506001612134565b609a5485101561213457849250600191505b609885905580806121425750815b1561214d57609a8390555b60408051868152831515602082015282151581830152905133917fbc3dc0cb5c15c51c81316450d44048838bb478b9809447d01c766a06f3e9f2c8919081900360600190a25050505050565b60015f5c036121bb576040516306fda65d60e31b815260040160405180910390fd5b6001805f5d5060a081018035906121d590608084016152c4565b6121e36101208401846155b8565b6121f4610100860160e087016152c4565b5f5a90506122018761303c565b85156122ef57855f84900361227e57853b15801561227c573a5a61222761bc7c86615567565b6122319190615503565b61223b9190615589565b915081881115612278576001600160a01b0387166108fc61225c848b615503565b6040518115909202915f818181858888f193505050505061227c565b8791505b505b5f6001600160a01b038416156122945783612296565b335b90505f816001600160a01b03166108fc8490811502906040515f60405180830381858888f193505050509050806122eb5760405163295f137d60e21b81526001600160a01b03831660048201526024016113f4565b5050505b5050505050505f5f81905d5050565b60015f5c03612320576040516306fda65d60e31b815260040160405180910390fd5b6001805f5d50478260c001351161234a57604051630316ae7f60e51b815260040160405180910390fd5b61235a60a08301608084016152c4565b6001600160a01b0316336001600160a01b03161461238b57604051630a5c9f3560e01b815260040160405180910390fd5b5f612395836132a5565b9050600160ff60a01b19815c16600160a01b17815d507f594904a11ae10ad7613c91ac3c92c7c3bba397934d377ce6d3e0aaffbc17df00546001600160a01b0316633e4903b78360c08601356123f160a08801608089016152c4565b60405160e085901b6001600160e01b03191681526001600160a01b039384166004820152602481019290925290911660448201526064015f604051808303815f87803b15801561243f575f5ffd5b505af1158015612451573d5f5f3e3d5ffd5b505f925050506001805c60ff60a01b1916905d5060405181907fa4c827e719e911e8f19393ccdb85b5102f08f0910604d340ba38390b7ff2ab0e905f90a2505f80805d505050565b7f76ef52a5344b10ed112c1d48c7c06f51e919518ea6fb005f9b25b359b955e3be6124c381612da1565b61180a8261336b565b60066124d781612e88565b7f97667070c54ef182b0f5858b034beac1b6f3089aa2d3188bb1e8929f4fa9b92961250181612da1565b5f85900361252257604051637907d79b60e01b815260040160405180910390fd5b610119545f81815261011a60205260409020548435146125555760405163756a618760e11b815260040160405180910390fd5b6101bd545f86815261011b60205260409020546001600160a01b03168061258f576040516369ed70ab60e01b815260040160405180910390fd5b6101e08601355f9081526101c4602052604090205461262661261e88856125b782898761341a565b8886886001600160a01b031663b02384ad6040518163ffffffff1660e01b8152600401602060405180830381865afa1580156125f5573d5f5f3e3d5ffd5b505050506040513d601f19601f8201168201806040525081019061261991906155fb565b6137af565b838c8c6138b0565b50505050505050505050565b7f012c76ef7f96cd7eb95acbdc250ad5696bbe3fd2fcf0207571939fa40c2e016761265c81612da1565b6001600160a01b038216612683576040516342bcdf7f60e11b815260040160405180910390fd5b6101c6546001600160a01b0390811690831681146117fb576101c680546001600160a01b0319166001600160a01b0385811691821790925560408051928416835260208301919091527f70a40b63da92dd99e111281bc23dfb08922b6d1337f71f895cf498eb60ff7a0b9101611b71565b805f81600d811115612708576127086154ad565b03612726576040516385994c7760e01b815260040160405180910390fd5b61272f82612902565b61274e5781604051630619659560e21b81526004016113f491906154e1565b60dd544210156127775760dd5460405163cfd8aa6f60e01b81526004016113f491815260200190565b81600d811115612789576127896154ad565b60da8054600190921b1990911690556040517f3ddaeb19197ed3b5334f4c1cd5716f663d0f6dce30c52800bd1674da0b88e87a906120c79084906154e1565b600d6127d381612e88565b7f97667070c54ef182b0f5858b034beac1b6f3089aa2d3188bb1e8929f4fa9b9296127fd81612da1565b61280986868686613a5c565b505050505050565b600881901c5f90815261014f6020526040812054600160ff84161b161515611357565b600261283f81612e88565b61284b85858585613bcb565b5050505050565b7f0cf0d2deb70d7bdac2fa48c4ac99bc558170be0ce5fcb994caefa4bf7b96edf961287c81612da1565b5f609a81905560405133917fba88c025b0cbb77022c0c487beef24f759f1e4be2f51a205bc427cee19c2eaa691a250565b345f036128cd5760405163717e6b7b60e01b815260040160405180910390fd5b6040513481527fe455499c2acd509bdadebaf5a8fd54c083da31dbe98e785f2a72cdff04e32e009060200160405180910390a1565b5f81600d811115612915576129156154ad565b60da54600190911b16151592915050565b7f32937fd5162e282df7e9a14a5073a2425321c7966eaf70ed6c838a1006d84c4c61295081612da1565b6001600160a01b038316612977576040516342bcdf7f60e11b815260040160405180910390fd5b5f82815261011b60209081526040918290205491516001600160a01b03928316815233928592908716917f4a29db3fc6b42bda201e4b4d69ce8d575eeeba5f153509c0d0a342af0f1bd021910160405180910390a4505f90815261011b6020526040902080546001600160a01b0319166001600160a01b0392909216919091179055565b5f82815260656020526040902060010154612a1581612da1565b6117fb8383613caf565b5f54610100900460ff1615808015612a3d57505f54600160ff909116105b80612a565750303b158015612a5657505f5460ff166001145b612ab95760405162461bcd60e51b815260206004820152602e60248201527f496e697469616c697a61626c653a20636f6e747261637420697320616c72656160448201526d191e481a5b9a5d1a585b1a5e995960921b60648201526084016113f4565b5f805460ff191660011790558015612ada575f805461ff0019166101001790555b604080515f8082526020808301829052873583850152606083018290526080830182905260a09092208082526101be9092529190912060019055612b1e8582613d30565b612b2784613f88565b612b3083613ffb565b508015612b76575f805461ff0019169055604051600181527f7f26b83ff96e1f2b6a682f133852f6798a09c465da95921460cefb38474024989060200160405180910390a15b50505050565b805f81600d811115612b9057612b906154ad565b03612bae576040516385994c7760e01b815260040160405180910390fd5b60db5f83600d811115612bc357612bc36154ad565b600d811115612bd457612bd46154ad565b81526020019081526020015f2054612beb81612da1565b612bf483612902565b15612c145782604051631814e36b60e31b81526004016113f491906154e1565b335f9081527f74a8627e7e8109f70747bbdf2c891159d40f925b9c8f09259a497b8c31b3780b602052604090205460ff1615612c5757620151801960dd55612c94565b6201518060dd5401421015612c8a576201518060dd540160405163602102f760e11b81526004016113f491815260200190565b426203f4800160dd555b82600d811115612ca657612ca66154ad565b60da8054600190921b909117905582600d811115612cc657612cc66154ad565b7f534f879afd40abb4e39f8e1b77a316be4c8e3521d9cf5a3a3db8959d574d45593361149a565b6009612cf881612e88565b7f220bd22ef7c53d75fe3eac0a09e90815a0c5ba4f9e8da8b039542cd3db347258612d2281612da1565b7f594904a11ae10ad7613c91ac3c92c7c3bba397934d377ce6d3e0aaffbc17df00546001600160a01b03166001600160a01b0316637ab19c10846040518263ffffffff1660e01b81526004015f604051808303818588803b158015612d85575f5ffd5b505af1158015612d97573d5f5f3e3d5ffd5b5050505050505050565b612dab813361406e565b50565b5f8281526065602090815260408083206001600160a01b038516845290915290205460ff1661180a575f8281526065602090815260408083206001600160a01b03851684529091529020805460ff19166001179055612e0a3390565b6001600160a01b0316816001600160a01b0316837f2f8788117e7eff1d82e926ec794901d17c78024a50270940304540a733656f0d60405160405180910390a45050565b6101c0546001600160a01b0390811690821603612e7e57604051639395197f60e01b815260040160405180910390fd5b61180a82826140e2565b60da5481600d811115612e9d57612e9d6154ad565b6001901b811615612ec35781604051631814e36b60e31b81526004016113f491906154e1565b600281161561180a576001604051631814e36b60e31b81526004016113f491906154e1565b5f60405188815287602082015286604082015285606082015284608082015260c060a08201528260c0820152602083065f8115612f26578160200390505b848660e085013790930160e001902098975050505050505050565b5f81815260a66020526040902054600114612f725760405163992d87c360e01b8152600481018290526024016113f4565b5f90815260a66020526040812055565b8015612dab57426099541015612fa757609754612f9f9042615567565b609955612fb7565b609a54612fb49082615567565b90505b609854811115612fda5760405163a74c1c5f60e01b815260040160405180910390fd5b609a55565b5f1982015f90815261014e60208181526040808420548452848252808420868552929091528083208290555190918391839186917fea3b023b4c8680d4b4824f0143132c95476359a2bb70a81d6c5a36f6918f63399190a4505050565b6130466003612e88565b6101008101355f90815261015060205260408120549081900361307c57604051634e68667560e01b815260040160405180910390fd5b6130868280615612565b905081146130bc57806130998380615612565b604051635e3fd6ad60e01b815260048101939093526024830152506044016113f4565b6130c9826020013561416a565b6130de611bfe60c084013560a0850135615567565b5f6131246130f260808501606086016152c4565b61310260a08601608087016152c4565b60a086013560c0870135602088013561311f6101208a018a6155b8565b612ee8565b905061314f816131348580615612565b6131446060880160408901615658565b8761010001356141c9565b61316c5760405163582f497d60e11b815260040160405180910390fd5b61317c60808401606085016152c4565b6001805c6001600160a01b0319166001600160a01b03831617905d505f806131aa60a08601608087016152c4565b6001600160a01b031660c08601356131c66101208801886155b8565b6040516131d492919061557a565b5f6040518083038185875af1925050503d805f811461320e576040519150601f19603f3d011682016040523d82523d5f602084013e613213565b606091505b5091509150816132625780511561322d5780518082602001fd5b61323d60a08601608087016152c4565b604051635461344360e01b81526001600160a01b0390911660048201526024016113f4565b5f6001805c6001600160a01b031916905d5060405183907fa4c827e719e911e8f19393ccdb85b5102f08f0910604d340ba38390b7ff2ab0e905f90a25050505050565b5f6132b06003612e88565b6101008201355f9081526101506020526040812054908190036132e657604051634e68667560e01b815260040160405180910390fd5b6132f08380615612565b9050811461330357806130998480615612565b613310836020013561416a565b613325611bfe60c085013560a0860135615567565b6133386130f260808501606086016152c4565b9150613348826131348580615612565b6133655760405163582f497d60e11b815260040160405180910390fd5b50919050565b613374816142bd565b7feb44f28f73dc4d72ac2ee43ebf59a1e0c84c11c4d614746c0dc99d9071abd8f97f594904a11ae10ad7613c91ac3c92c7c3bba397934d377ce6d3e0aaffbc17df0054604080516001600160a01b03928316815291841660208301520160405180910390a17f594904a11ae10ad7613c91ac3c92c7c3bba397934d377ce6d3e0aaffbc17df0080546001600160a01b0319166001600160a01b0392909216919091179055565b5f61342f8461018001358561014001356142e4565b613445613440610240860186615612565b614366565b6101bf5460408051610160870135815261012087013560208201526101c087013591810191909152610200860135606082015260e0860135608082015260a0902081146134e757604080516101608701358152610120870135602082015260e0870135918101919091526060902081146134e757604080516101608701358152610120870135602082015260e087013591810191909152606090208190611741565b4285610100013510613519576040516305fc0e3760e51b815261010086013560048201524260248201526044016113f4565b608085013561353b5760405163144c241560e11b815260040160405180910390fd5b60016101e0860135015f9081526101c360205260409020548015801590613566575085602001358111155b1561358e57604051632e438ba160e21b815260016101e08801350160048201526024016113f4565b506135d260408601356060870135608088013560a089013560c08a0135604080519586526020860194909452928401919091526060830152608082015260a0902090565b6101c1546040516310986c0960e11b8152600481018390529193506001600160a01b031690632130d81290602401602060405180830381865afa15801561361b573d5f5f3e3d5ffd5b505050506040513d601f19601f8201168201806040525081019061363f91906155fb565b5f036136615760405163d35bb1d160e01b8152600481018390526024016113f4565b61367d613672610220870187615612565b876101a00135614479565b61369461368e6102608701876155b8565b86614566565b6020808601355f81815261011a909252604090912060808701359055610119556101bd8290556136fd6101808601356101408701356101e0880135866101008a0135604080519586526020860194909452928401919091526060830152608082015260a0902090565b6101bf556040805161010087013581526101808701356020808301919091526101e088013582840152915191870135917f32e016ccc5c33419c35caa94023fdeb75143da613fb2ac738ab736404c09fc5d9181900360600190a2604080518635815260808701356020828101919091526001909601958492908801359187917fa0262dc79e4ccb71ceac8574ae906311ae338aa4a2044fd4ec4b99fad5ab60cb910160405180910390a4509392505050565b5f806137bf610240890189615612565b6040516020016137d092919061567b565b604051602081830303815290604052805190602001209050604051878152866020820152604060e08a0160408301378560808201526020808a0160a083013760806101208a0160c083013760206102008a016101408301378461016082015260406101c08a0161018083013760206101a08a016101c083013761020081016102208a01358a018035602081026020830184376020029091206101e0830152506102008101939093526102208301525061024090207f30644e72e131a029b85045b68181585d2833e84879b9709143e1f593f0000001900695945050505050565b6040805160018082528183019092525f916020808301908036833701905050905084815f815181106138e4576138e46156d0565b6020026020010181815250505f5f856001600160a01b0316858585604051602401613911939291906156e4565b60408051601f198184030181529181526020820180517bffffffffffffffffffffffffffffffffffffffffffffffffffffffff16633f27bd4560e11b1790525161395b9190615755565b5f604051808303815f865af19150503d805f8114613994576040519150601f19603f3d011682016040523d82523d5f602084013e613999565b606091505b509150915081613a27578051156139de57602081017bffffffffffffffffffffffffffffffffffffffffffffffffffffffff81511663ca389c4460e01b178152815181fd5b60405163328e271160e21b815260206004820152600760248201527f556e6b6e6f776e0000000000000000000000000000000000000000000000000060448201526064016113f4565b5f81806020019051810190613a3c9190615760565b905080612d97576040516309bde33960e01b815260040160405180910390fd5b5f839003613a7d5760405163b1504a5f60e01b815260040160405180910390fd5b824915613aa057604051638019aff760e01b8152600481018490526024016113f4565b5f5f613ad16040518060a001604052805f815260200160608152602001606081526020015f81526020015f81525090565b845f5b87811015613b9157888882818110613aee57613aee6156d0565b9050602002810190613b00919061577f565b613b0990615851565b81499450925083613b305760405163c0e41e1d60e01b8152600481018290526024016113f4565b60808301515f8181526020869052604090209550613b5e85875f1c865f0151876020015188604001516145da565b6060848101518551604080519687526020870194909452928501528301869052608083015260a090912090600101613ad4565b50613ba18686846060015161473c565b808514612d975760405163d3664fb360e01b815260048101869052602481018290526044016113f4565b6001600160a01b038416613bf2576040516342bcdf7f60e11b815260040160405180910390fd5b34831115613c135760405163581db49960e11b815260040160405180910390fd5b60e480545f9182613c23836155a0565b9091555090505f613c348534615503565b90505f613c4633888885878a8a612ee8565b9050613c528382612fdf565b80876001600160a01b0316336001600160a01b03167fe856c2b8bd4eb0027ce32eeaf595c21b0b6b4644b326e5b7bd80a1cf8db72e6c8986888b8b604051613c9e9594939291906158de565b60405180910390a450505050505050565b5f8281526065602090815260408083206001600160a01b038516845290915290205460ff161561180a575f8281526065602090815260408083206001600160a01b0385168085529252808320805460ff1916905551339285917ff6391f5c32d9c69d2a47ea670b442974b53935d1edc7fd64eb21e047a839171b9190a45050565b5f613d4160808401606085016152c4565b6001600160a01b031603613d68576040516342bcdf7f60e11b815260040160405180910390fd5b5f613d7b610180840161016085016152c4565b6001600160a01b031603613da2576040516342bcdf7f60e11b815260040160405180910390fd5b613dc5613db260e084018461590e565b613dc061010086018661590e565b6147ec565b613dd782608001358360a00135614a67565b5f613dea610140840161012085016152c4565b6001600160a01b031603613e11576040516342bcdf7f60e11b815260040160405180910390fd5b613e2c5f613e27610140850161012086016152c4565b612dae565b613e41613e3c60c084018461590e565b614afc565b613e5160808301606084016152c4565b7f033d11f27e62ab919708ec716731da80d261a6e4253259b7acde9bf89d28ec1880546001600160a01b0319166001600160a01b03929092169190911790556020828101356101198190555f90815261011a82526040808220853590556101bd84905580518281529283018290528281018290526060830191909152830135608082015260a090206101bf5560016101c2555f613ef6610160840161014085016152c4565b90506001600160a01b038116613f095750305b6101c180546001600160a01b0319166001600160a01b038316179055613f37610180840161016085016152c4565b6101c680546001600160a01b0319166001600160a01b03929092169190911790556040517fb7a0e2a7550321efd3f1e1e87374002f450d1d91a764816b28bf601f71bdf67990611b71908590615a2d565b6001600160a01b038116613faf576040516342bcdf7f60e11b815260040160405180910390fd5b6101c080546001600160a01b0319166001600160a01b03831690811790915560405133907fb341a9e6d33f272cb7b5a20b337763606cbb6c728e7a34cbd3191cdfa0f0cd07905f90a350565b5f54610100900460ff166140655760405162461bcd60e51b815260206004820152602b60248201527f496e697469616c697a61626c653a20636f6e7472616374206973206e6f74206960448201526a6e697469616c697a696e6760a81b60648201526084016113f4565b612dab8161336b565b5f8281526065602090815260408083206001600160a01b038516845290915290205460ff1661180a576140a081614c4c565b6140ab836020614c5e565b6040516020016140bc929190615b61565b60408051601f198184030181529082905262461bcd60e51b82526113f491600401615148565b6001600160a01b03811633146141605760405162461bcd60e51b815260206004820152602f60248201527f416363657373436f6e74726f6c3a2063616e206f6e6c792072656e6f756e636560448201527f20726f6c657320666f722073656c66000000000000000000000000000000000060648201526084016113f4565b61180a8282613caf565b600881901c5f90815261014f6020526040902054600160ff83161b16156141a757604051630335a4a960e41b8152600481018290526024016113f4565b600881901c5f90815261014f602052604090208054600160ff84161b17905550565b5f806141ea60016141db876002615cae565b6141e59190615503565b614e08565b90508063ffffffff168463ffffffff1611156142295760405163f7ec909760e01b815263ffffffff8086166004830152821660248201526044016113f4565b865f5b868110156142af57600163ffffffff8716821c811690036142795761427288888381811061425c5761425c6156d0565b90506020020135835f9182526020526040902090565b91506142a7565b6142a48289898481811061428f5761428f6156d0565b905060200201355f9182526020526040902090565b91505b60010161422c565b509092149695505050505050565b6001600160a01b038116612dab576040516342bcdf7f60e11b815260040160405180910390fd5b815f0361430d57801561180a57604051630612b2c960e11b8152600481018290526024016113f4565b8061432e57604051630a451e9960e31b8152600481018390526024016113f4565b5f82815261014e6020526040902054811461180a576040516301b22cfd60e51b815260048101839052602481018290526044016113f4565b801561180a576101c6546001600160a01b03165f5b82811015612b7657816001600160a01b0316631d5150838585848181106143a4576143a46156d0565b90506020020160208101906143b991906152c4565b6040516001600160e01b031960e084901b1681526001600160a01b039091166004820152602401602060405180830381865afa1580156143fb573d5f5f3e3d5ffd5b505050506040513d601f19601f8201168201806040525081019061441f9190615760565b848483818110614431576144316156d0565b905060200201602081019061444691906152c4565b906144705760405163ec4f874b60e01b81526001600160a01b0390911660048201526024016113f4565b5060010161437b565b5f5b82811015612b76576101505f858584818110614499576144996156d0565b9050602002013581526020019081526020015f20545f146144e9578383828181106144c6576144c66156d0565b9050602002013560405163e5d1442560e01b81526004016113f491815260200190565b816101505f868685818110614500576145006156d0565b9050602002013581526020019081526020015f20819055508184848381811061452b5761452b6156d0565b905060200201357f300e6f978eee6a4b0bba78dd8400dc64fd5652dbfc868a2258e16d0977be222b60405160405180910390a360010161447b565b614571600283615cb9565b1561459257604051630648ebbb60e11b8152600481018390526024016113f4565b5f5f5b8381101561284b576040518582013560f01c9250838301907f3c116827db9db3a30c1a25db8b0ee4bab9d2b223560209cfd839601b621c726d905f90a2600201614595565b7f73eda753299d7d483339d80809a1d80553bda402fffe5bfeffffffff00000001840693505f5f600a6001600160a01b03168787878787604051602001614625959493929190615cd8565b60408051601f198184030181529082905261463f91615755565b5f60405180830381855afa9150503d805f8114614677576040519150601f19603f3d011682016040523d82523d5f602084013e61467c565b606091505b50915091508161469f5760405163a71194af60e01b815260040160405180910390fd5b60408151146146ce5780516040805163f75db38160e01b81526113f49290600401918252602082015260400190565b602081015160408201516110008214158061470957507f73eda753299d7d483339d80809a1d80553bda402fffe5bfeffffffff000000018114155b15614731576040516368dcad5f60e01b815260048101839052602481018290526044016113f4565b505050505050505050565b5f8381526101be6020526040902054839061476d576040516331dee59360e21b81526004016113f491815260200190565b505f8281526101be60205260409020548290156147a05760405163734d6f6560e11b81526004016113f491815260200190565b505f8281526101be602090815260409182902060019055815185815290810183905283917f55f4c645c36aa5cd3f443d6be44d7a7a5df9d2100d7139dfc69d4289ee07231991016114ae565b5f54610100900460ff166148565760405162461bcd60e51b815260206004820152602b60248201527f496e697469616c697a61626c653a20636f6e7472616374206973206e6f74206960448201526a6e697469616c697a696e6760a81b60648201526084016113f4565b5f5b8381101561495e57848482818110614872576148726156d0565b9050604002016020013560db5f878785818110614891576148916156d0565b6148a79260206040909202019081019150614fea565b600d8111156148b8576148b86154ad565b600d8111156148c9576148c96154ad565b815260208101919091526040015f20558484828181106148eb576148eb6156d0565b90506040020160200135858583818110614907576149076156d0565b61491d9260206040909202019081019150614fea565b600d81111561492e5761492e6154ad565b6040517f33aa8fd1ce49e1761bc8d27fd53414bfefc45d690feed0ce55019d7d3aec6091905f90a3600101614858565b505f5b8181101561284b5782828281811061497b5761497b6156d0565b9050604002016020013560dc5f85858581811061499a5761499a6156d0565b6149b09260206040909202019081019150614fea565b600d8111156149c1576149c16154ad565b600d8111156149d2576149d26154ad565b815260208101919091526040015f20558282828181106149f4576149f46156d0565b90506040020160200135838383818110614a1057614a106156d0565b614a269260206040909202019081019150614fea565b600d811115614a3757614a376154ad565b6040517fe7bf4b8dc0c17a52dc9e52323a3ab61cb2079db35f969125b1f8a3d984c6f6c2905f90a3600101614961565b5f54610100900460ff16614ad15760405162461bcd60e51b815260206004820152602b60248201527f496e697469616c697a61626c653a20636f6e7472616374206973206e6f74206960448201526a6e697469616c697a696e6760a81b60648201526084016113f4565b614ad9614e3c565b614ae1614e3c565b614ae9614e3c565b614af38282614ea8565b5050600160e455565b5f54610100900460ff16614b665760405162461bcd60e51b815260206004820152602b60248201527f496e697469616c697a61626c653a20636f6e7472616374206973206e6f74206960448201526a6e697469616c697a696e6760a81b60648201526084016113f4565b5f5b818110156117fb575f838383818110614b8357614b836156d0565b614b9992602060409092020190810191506152c4565b6001600160a01b031603614bc0576040516342bcdf7f60e11b815260040160405180910390fd5b828282818110614bd257614bd26156d0565b905060400201602001355f5f1b03614bfd57604051630742d05360e01b815260040160405180910390fd5b614c44838383818110614c1257614c126156d0565b90506040020160200135848484818110614c2e57614c2e6156d0565b613e2792602060409092020190810191506152c4565b600101614b68565b60606113576001600160a01b03831660145b60605f614c6c836002615589565b614c77906002615567565b67ffffffffffffffff811115614c8f57614c8f6156bc565b6040519080825280601f01601f191660200182016040528015614cb9576020820181803683370190505b509050600360fc1b815f81518110614cd357614cd36156d0565b60200101906001600160f81b03191690815f1a905350600f60fb1b81600181518110614d0157614d016156d0565b60200101906001600160f81b03191690815f1a9053505f614d23846002615589565b614d2e906001615567565b90505b6001811115614db2577f303132333435363738396162636465660000000000000000000000000000000085600f1660108110614d6f57614d6f6156d0565b1a60f81b828281518110614d8557614d856156d0565b60200101906001600160f81b03191690815f1a90535060049490941c93614dab81615cfe565b9050614d31565b508315614e015760405162461bcd60e51b815260206004820181905260248201527f537472696e67733a20686578206c656e67746820696e73756666696369656e7460448201526064016113f4565b9392505050565b5f63ffffffff821115614e38576040516306dfcc6560e41b815260206004820152602481018390526044016113f4565b5090565b5f54610100900460ff16614ea65760405162461bcd60e51b815260206004820152602b60248201527f496e697469616c697a61626c653a20636f6e7472616374206973206e6f74206960448201526a6e697469616c697a696e6760a81b60648201526084016113f4565b565b5f54610100900460ff16614f125760405162461bcd60e51b815260206004820152602b60248201527f496e697469616c697a61626c653a20636f6e7472616374206973206e6f74206960448201526a6e697469616c697a696e6760a81b60648201526084016113f4565b815f03614f325760405163b5ed5a3b60e01b815260040160405180910390fd5b805f03614f525760405163d10d72bb60e01b815260040160405180910390fd5b60978290556098819055614f668242615567565b60998190556097546098546040805192835260208301919091528101919091527f8f805c372b66240792580418b7328c0c554ae235f0932475c51b026887fe26a9906060016120c7565b5f60208284031215614fc0575f5ffd5b81356001600160e01b031981168114614e01575f5ffd5b8035600e8110614fe5575f5ffd5b919050565b5f60208284031215614ffa575f5ffd5b614e0182614fd7565b5f60208284031215615013575f5ffd5b5035919050565b6001600160a01b0381168114612dab575f5ffd5b8035614fe58161501a565b5f5f83601f840112615049575f5ffd5b50813567ffffffffffffffff811115615060575f5ffd5b602083019150836020828501011115615077575f5ffd5b9250929050565b5f5f5f5f5f60808688031215615092575f5ffd5b8535945060208601356150a48161501a565b935060408601359250606086013567ffffffffffffffff8111156150c6575f5ffd5b6150d288828901615039565b969995985093965092949392505050565b5f5f5f5f5f60a086880312156150f7575f5ffd5b505083359560208501359550604085013594606081013594506080013592509050565b5f5f6040838503121561512b575f5ffd5b82359150602083013561513d8161501a565b809150509250929050565b602081525f82518060208401528060208501604085015e5f604082850101526040601f19601f83011684010191505092915050565b5f5f6040838503121561518e575f5ffd5b61519783614fd7565b946020939093013593505050565b5f5f5f5f5f5f5f5f60e0898b0312156151bc575f5ffd5b88356151c78161501a565b975060208901356151d78161501a565b9650604089013595506060890135945060808901356151f58161501a565b935060a089013567ffffffffffffffff811115615210575f5ffd5b61521c8b828c01615039565b999c989b50969995989497949560c00135949350505050565b5f6101408284031215613365575f5ffd5b5f60208284031215615256575f5ffd5b813567ffffffffffffffff81111561526c575f5ffd5b61527884828501615235565b949350505050565b5f5f60408385031215615291575f5ffd5b823567ffffffffffffffff8111156152a7575f5ffd5b6152b385828601615235565b925050602083013561513d8161501a565b5f602082840312156152d4575f5ffd5b8135614e018161501a565b5f5f5f5f606085870312156152f2575f5ffd5b843567ffffffffffffffff811115615308575f5ffd5b61531487828801615039565b90955093505060208501359150604085013567ffffffffffffffff81111561533a575f5ffd5b8501610280818803121561534c575f5ffd5b939692955090935050565b5f5f5f5f6060858703121561536a575f5ffd5b843567ffffffffffffffff811115615380575f5ffd5b8501601f81018713615390575f5ffd5b803567ffffffffffffffff8111156153a6575f5ffd5b8760208260051b84010111156153ba575f5ffd5b602091820198909750908601359560400135945092505050565b5f5f5f5f606085870312156153e7575f5ffd5b84356153f28161501a565b935060208501359250604085013567ffffffffffffffff811115615414575f5ffd5b61542087828801615039565b95989497509550505050565b5f5f6040838503121561543d575f5ffd5b82356151978161501a565b5f5f5f6060848603121561545a575f5ffd5b833567ffffffffffffffff811115615470575f5ffd5b84016101808187031215615482575f5ffd5b925060208401356154928161501a565b915060408401356154a28161501a565b809150509250925092565b634e487b7160e01b5f52602160045260245ffd5b600e81106154dd57634e487b7160e01b5f52602160045260245ffd5b9052565b6020810161135782846154c1565b634e487b7160e01b5f52601160045260245ffd5b81810381811115611357576113576154ef565b81835281816020850137505f828201602090810191909152601f909101601f19169091010190565b848152836020820152606060408201525f61555d606083018486615516565b9695505050505050565b80820180821115611357576113576154ef565b818382375f9101908152919050565b8082028115828204841417611357576113576154ef565b5f600182016155b1576155b16154ef565b5060010190565b5f5f8335601e198436030181126155cd575f5ffd5b83018035915067ffffffffffffffff8211156155e7575f5ffd5b602001915036819003821315615077575f5ffd5b5f6020828403121561560b575f5ffd5b5051919050565b5f5f8335601e19843603018112615627575f5ffd5b83018035915067ffffffffffffffff821115615641575f5ffd5b6020019150600581901b3603821315615077575f5ffd5b5f60208284031215615668575f5ffd5b813563ffffffff81168114614e01575f5ffd5b5f8184825b858110156156b15781356156938161501a565b6001600160a01b031683526020928301929190910190600101615680565b509095945050505050565b634e487b7160e01b5f52604160045260245ffd5b634e487b7160e01b5f52603260045260245ffd5b604081525f6156f7604083018587615516565b82810360208401528084518083526020830191506020860192505f5b81811015615731578351835260209384019390920191600101615713565b5090979650505050505050565b5f81518060208401855e5f93019283525090919050565b5f614e01828461573e565b5f60208284031215615770575f5ffd5b81518015158114614e01575f5ffd5b5f8235609e19833603018112615793575f5ffd5b9190910192915050565b60405160a0810167ffffffffffffffff811182821017156157c0576157c06156bc565b60405290565b5f82601f8301126157d5575f5ffd5b813567ffffffffffffffff8111156157ef576157ef6156bc565b604051601f8201601f19908116603f0116810167ffffffffffffffff8111828210171561581e5761581e6156bc565b604052818152838201602001851015615835575f5ffd5b816020850160208301375f918101602001919091529392505050565b5f60a08236031215615861575f5ffd5b61586961579d565b82358152602083013567ffffffffffffffff811115615886575f5ffd5b615892368286016157c6565b602083015250604083013567ffffffffffffffff8111156158b1575f5ffd5b6158bd368286016157c6565b60408301525060608381013590820152608092830135928101929092525090565b858152846020820152836040820152608060608201525f615903608083018486615516565b979650505050505050565b5f5f8335601e19843603018112615923575f5ffd5b83018035915067ffffffffffffffff82111561593d575f5ffd5b6020019150600681901b3603821315615077575f5ffd5b5f5f8335601e19843603018112615969575f5ffd5b830160208101925035905067ffffffffffffffff811115615988575f5ffd5b8060061b3603821315615077575f5ffd5b8183526020830192505f815f5b848110156159e05781356159b98161501a565b6001600160a01b0316865260208281013590870152604095860195909101906001016159a6565b5093949350505050565b8183526020830192505f815f5b848110156159e057615a1186615a0c84614fd7565b6154c1565b60208281013590870152604095860195909101906001016159f7565b60208082528235828201528201356040808301919091528201356060808301919091525f90615a5d90840161502e565b6001600160a01b038116608084015250608083013560a08381019190915283013560c080840191909152615a9390840184615954565b61018060e0850152615aaa6101a085018284615999565b915050615aba60e0850185615954565b848303601f1901610100860152615ad28382846159ea565b92505050615ae4610100850185615954565b848303601f1901610120860152615afc8382846159ea565b92505050615b0d610120850161502e565b6001600160a01b03811661014085015250615b2b610140850161502e565b6001600160a01b03811661016085015250615b49610160850161502e565b6001600160a01b038116610180850152509392505050565b7f416363657373436f6e74726f6c3a206163636f756e742000000000000000000081525f615b92601783018561573e565b7f206973206d697373696e6720726f6c65200000000000000000000000000000008152615bc2601182018561573e565b95945050505050565b6001815b6001841115615c0657808504811115615bea57615bea6154ef565b6001841615615bf857908102905b60019390931c928002615bcf565b935093915050565b5f82615c1c57506001611357565b81615c2857505f611357565b8160018114615c3e5760028114615c4857615c64565b6001915050611357565b60ff841115615c5957615c596154ef565b50506001821b611357565b5060208310610133831016604e8410600b8410161715615c87575081810a611357565b615c935f198484615bcb565b805f1904821115615ca657615ca66154ef565b029392505050565b5f614e018383615c0e565b5f82615cd357634e487b7160e01b5f52601260045260245ffd5b500690565b8581528460208201528360408201525f615903615cf8606084018661573e565b8461573e565b5f81615d0c57615d0c6154ef565b505f19019056fea2646970667358221220a8e0ff4a07b21dc40de5a8f80d3a2bcc0d1c28b7aceb4092eda569020abb8c8264736f6c63430008210033",
  "linkReferences": {},
  "deployedLinkReferences": {}
}