{
  "_format": "hh-sol-artifact-1",
  "contractName": "LineaRollup",
  "sourceName": "src/rollup/LineaRollup.sol",
  "abi": [
    {
      "inputs": [],
      "stateMutability": "nonpayable",
      "type": "constructor"
    },
    {
      "inputs": [
        {
          "internalType": "address",
          "name": "addressNotFiltered",
          "type": "address"
        }
      ],
      "name": "AddressIsNotFiltered",
      "type": "error"
    },
    {
      "inputs": [
        {
          "internalType": "uint256",
          "name": "emptyBlobIndex",
          "type": "uint256"
        }
      ],
      "name": "BlobSubmissionDataEmpty",
      "type": "error"
    },
    {
      "inputs": [],
      "name": "BlobSubmissionDataIsMissing",
      "type": "error"
    },
    {
      "inputs": [
        {
          "internalType": "uint256",
          "name": "bytesLength",
          "type": "uint256"
        }
      ],
      "name": "BytesLengthNotMultipleOfTwo",
      "type": "error"
    },
    {
      "inputs": [],
      "name": "CallerIsNotYieldManager",
      "type": "error"
    },
    {
      "inputs": [],
      "name": "CallerNotLSTWithdrawalRecipient",
      "type": "error"
    },
    {
      "inputs": [],
      "name": "CallerNotProxyAdmin",
      "type": "error"
    },
    {
      "inputs": [
        {
          "internalType": "uint256",
          "name": "index",
          "type": "uint256"
        }
      ],
      "name": "EmptyBlobDataAtIndex",
      "type": "error"
    },
    {
      "inputs": [
        {
          "internalType": "address",
          "name": "recipient",
          "type": "address"
        }
      ],
      "name": "FeePaymentFailed",
      "type": "error"
    },
    {
      "inputs": [],
      "name": "FeeTooLow",
      "type": "error"
    },
    {
      "inputs": [],
      "name": "FinalBlockStateEqualsZeroHash",
      "type": "error"
    },
    {
      "inputs": [
        {
          "internalType": "bytes32",
          "name": "shnarf",
          "type": "bytes32"
        }
      ],
      "name": "FinalShnarfNotSubmitted",
      "type": "error"
    },
    {
      "inputs": [
        {
          "internalType": "bytes32",
          "name": "expected",
          "type": "bytes32"
        },
        {
          "internalType": "bytes32",
          "name": "value",
          "type": "bytes32"
        }
      ],
      "name": "FinalShnarfWrong",
      "type": "error"
    },
    {
      "inputs": [],
      "name": "FinalStateRootHashIsZeroHash",
      "type": "error"
    },
    {
      "inputs": [
        {
          "internalType": "uint256",
          "name": "nextForcedTransactionNumber",
          "type": "uint256"
        }
      ],
      "name": "FinalizationDataMissingForcedTransaction",
      "type": "error"
    },
    {
      "inputs": [
        {
          "internalType": "uint256",
          "name": "l2BlockTimestamp",
          "type": "uint256"
        },
        {
          "internalType": "uint256",
          "name": "currentBlockTimestamp",
          "type": "uint256"
        }
      ],
      "name": "FinalizationInTheFuture",
      "type": "error"
    },
    {
      "inputs": [
        {
          "internalType": "bytes32",
          "name": "expected",
          "type": "bytes32"
        },
        {
          "internalType": "bytes32",
          "name": "value",
          "type": "bytes32"
        }
      ],
      "name": "FinalizationStateIncorrect",
      "type": "error"
    },
    {
      "inputs": [
        {
          "internalType": "uint256",
          "name": "blockNumber",
          "type": "uint256"
        }
      ],
      "name": "ForcedTransactionExistsForBlockOrIsTooLow",
      "type": "error"
    },
    {
      "inputs": [],
      "name": "InvalidMerkleProof",
      "type": "error"
    },
    {
      "inputs": [],
      "name": "InvalidProof",
      "type": "error"
    },
    {
      "inputs": [
        {
          "internalType": "string",
          "name": "errorReason",
          "type": "string"
        }
      ],
      "name": "InvalidProofOrProofVerificationRanOutOfGas",
      "type": "error"
    },
    {
      "inputs": [],
      "name": "InvalidProofType",
      "type": "error"
    },
    {
      "inputs": [
        {
          "internalType": "enum IPauseManager.PauseType",
          "name": "pauseType",
          "type": "uint8"
        }
      ],
      "name": "IsNotPaused",
      "type": "error"
    },
    {
      "inputs": [
        {
          "internalType": "enum IPauseManager.PauseType",
          "name": "pauseType",
          "type": "uint8"
        }
      ],
      "name": "IsPaused",
      "type": "error"
    },
    {
      "inputs": [
        {
          "internalType": "uint256",
          "name": "messageNumber",
          "type": "uint256"
        },
        {
          "internalType": "bytes32",
          "name": "rollingHash",
          "type": "bytes32"
        }
      ],
      "name": "L1RollingHashDoesNotExistOnL1",
      "type": "error"
    },
    {
      "inputs": [
        {
          "internalType": "bytes32",
          "name": "merkleRoot",
          "type": "bytes32"
        }
      ],
      "name": "L2MerkleRootAlreadyAnchored",
      "type": "error"
    },
    {
      "inputs": [],
      "name": "L2MerkleRootDoesNotExist",
      "type": "error"
    },
    {
      "inputs": [],
      "name": "LSTWithdrawalRequiresDeficit",
      "type": "error"
    },
    {
      "inputs": [],
      "name": "LastFinalizationTimeNotLapsed",
      "type": "error"
    },
    {
      "inputs": [
        {
          "internalType": "uint32",
          "name": "leafIndex",
          "type": "uint32"
        },
        {
          "internalType": "uint32",
          "name": "maxAllowedIndex",
          "type": "uint32"
        }
      ],
      "name": "LeafIndexOutOfBounds",
      "type": "error"
    },
    {
      "inputs": [],
      "name": "LimitIsZero",
      "type": "error"
    },
    {
      "inputs": [
        {
          "internalType": "uint256",
          "name": "messageIndex",
          "type": "uint256"
        }
      ],
      "name": "MessageAlreadyClaimed",
      "type": "error"
    },
    {
      "inputs": [
        {
          "internalType": "bytes32",
          "name": "messageHash",
          "type": "bytes32"
        }
      ],
      "name": "MessageDoesNotExistOrHasAlreadyBeenClaimed",
      "type": "error"
    },
    {
      "inputs": [
        {
          "internalType": "address",
          "name": "destination",
          "type": "address"
        }
      ],
      "name": "MessageSendingFailed",
      "type": "error"
    },
    {
      "inputs": [
        {
          "internalType": "bytes32",
          "name": "rollingHash",
          "type": "bytes32"
        }
      ],
      "name": "MissingMessageNumberForRollingHash",
      "type": "error"
    },
    {
      "inputs": [
        {
          "internalType": "uint256",
          "name": "messageNumber",
          "type": "uint256"
        }
      ],
      "name": "MissingRollingHashForMessageNumber",
      "type": "error"
    },
    {
      "inputs": [],
      "name": "NoEthSent",
      "type": "error"
    },
    {
      "inputs": [],
      "name": "OnlyNonLivenessRecoveryOperator",
      "type": "error"
    },
    {
      "inputs": [
        {
          "internalType": "bytes32",
          "name": "shnarf",
          "type": "bytes32"
        }
      ],
      "name": "ParentShnarfNotSubmitted",
      "type": "error"
    },
    {
      "inputs": [
        {
          "internalType": "uint256",
          "name": "expiryEnd",
          "type": "uint256"
        }
      ],
      "name": "PauseNotExpired",
      "type": "error"
    },
    {
      "inputs": [],
      "name": "PauseTypeNotUsed",
      "type": "error"
    },
    {
      "inputs": [
        {
          "internalType": "uint256",
          "name": "cooldownEnd",
          "type": "uint256"
        }
      ],
      "name": "PauseUnavailableDueToCooldown",
      "type": "error"
    },
    {
      "inputs": [],
      "name": "PeriodIsZero",
      "type": "error"
    },
    {
      "inputs": [],
      "name": "PointEvaluationFailed",
      "type": "error"
    },
    {
      "inputs": [
        {
          "internalType": "uint256",
          "name": "fieldElements",
          "type": "uint256"
        },
        {
          "internalType": "uint256",
          "name": "blsCurveModulus",
          "type": "uint256"
        }
      ],
      "name": "PointEvaluationResponseInvalid",
      "type": "error"
    },
    {
      "inputs": [
        {
          "internalType": "uint256",
          "name": "expected",
          "type": "uint256"
        },
        {
          "internalType": "uint256",
          "name": "actual",
          "type": "uint256"
        }
      ],
      "name": "PrecompileReturnDataLengthWrong",
      "type": "error"
    },
    {
      "inputs": [],
      "name": "ProofIsEmpty",
      "type": "error"
    },
    {
      "inputs": [
        {
          "internalType": "uint256",
          "name": "actual",
          "type": "uint256"
        },
        {
          "internalType": "uint256",
          "name": "expected",
          "type": "uint256"
        }
      ],
      "name": "ProofLengthDifferentThanMerkleDepth",
      "type": "error"
    },
    {
      "inputs": [],
      "name": "RateLimitExceeded",
      "type": "error"
    },
    {
      "inputs": [],
      "name": "ReentrantCall",
      "type": "error"
    },
    {
      "inputs": [],
      "name": "RolesNotDifferent",
      "type": "error"
    },
    {
      "inputs": [
        {
          "internalType": "uint8",
          "name": "bits",
          "type": "uint8"
        },
        {
          "internalType": "uint256",
          "name": "value",
          "type": "uint256"
        }
      ],
      "name": "SafeCastOverflowedUintDowncast",
      "type": "error"
    },
    {
      "inputs": [
        {
          "internalType": "bytes32",
          "name": "shnarf",
          "type": "bytes32"
        }
      ],
      "name": "ShnarfAlreadySubmitted",
      "type": "error"
    },
    {
      "inputs": [],
      "name": "ShnarfSubmissionIsZeroHash",
      "type": "error"
    },
    {
      "inputs": [],
      "name": "StartingRootHashDoesNotMatch",
      "type": "error"
    },
    {
      "inputs": [],
      "name": "ValueSentTooLow",
      "type": "error"
    },
    {
      "inputs": [],
      "name": "ZeroAddressNotAllowed",
      "type": "error"
    },
    {
      "inputs": [],
      "name": "ZeroHashNotAllowed",
      "type": "error"
    },
    {
      "inputs": [],
      "name": "ZeroLengthNotAllowed",
      "type": "error"
    },
    {
      "inputs": [],
      "name": "ZeroValueNotAllowed",
      "type": "error"
    },
    {
      "anonymous": false,
      "inputs": [
        {
          "indexed": false,
          "internalType": "address",
          "name": "oldAddressFilter",
          "type": "address"
        },
        {
          "indexed": false,
          "internalType": "address",
          "name": "newAddressFilter",
          "type": "address"
        }
      ],
      "name": "AddressFilterChanged",
      "type": "event"
    },
    {
      "anonymous": false,
      "inputs": [
        {
          "indexed": true,
          "internalType": "address",
          "name": "resettingAddress",
          "type": "address"
        }
      ],
      "name": "AmountUsedInPeriodReset",
      "type": "event"
    },
    {
      "anonymous": false,
      "inputs": [
        {
          "indexed": true,
          "internalType": "uint256",
          "name": "startBlockNumber",
          "type": "uint256"
        },
        {
          "indexed": true,
          "internalType": "uint256",
          "name": "endBlockNumber",
          "type": "uint256"
        },
        {
          "indexed": true,
          "internalType": "bytes32",
          "name": "shnarf",
          "type": "bytes32"
        },
        {
          "indexed": false,
          "internalType": "bytes32",
          "name": "parentStateRootHash",
          "type": "bytes32"
        },
        {
          "indexed": false,
          "internalType": "bytes32",
          "name": "finalStateRootHash",
          "type": "bytes32"
        }
      ],
      "name": "DataFinalizedV3",
      "type": "event"
    },
    {
      "anonymous": false,
      "inputs": [
        {
          "indexed": false,
          "internalType": "bytes32",
          "name": "parentShnarf",
          "type": "bytes32"
        },
        {
          "indexed": true,
          "internalType": "bytes32",
          "name": "shnarf",
          "type": "bytes32"
        },
        {
          "indexed": false,
          "internalType": "bytes32",
          "name": "finalStateRootHash",
          "type": "bytes32"
        }
      ],
      "name": "DataSubmittedV3",
      "type": "event"
    },
    {
      "anonymous": false,
      "inputs": [
        {
          "indexed": true,
          "internalType": "uint256",
          "name": "blockNumber",
          "type": "uint256"
        },
        {
          "indexed": false,
          "internalType": "uint256",
          "name": "timestamp",
          "type": "uint256"
        },
        {
          "indexed": false,
          "internalType": "uint256",
          "name": "messageNumber",
          "type": "uint256"
        },
        {
          "indexed": false,
          "internalType": "uint256",
          "name": "forcedTransactionNumber",
          "type": "uint256"
        }
      ],
      "name": "FinalizedStateUpdated",
      "type": "event"
    },
    {
      "anonymous": false,
      "inputs": [
        {
          "indexed": true,
          "internalType": "uint256",
          "name": "forcedTransactionNumber",
          "type": "uint256"
        },
        {
          "indexed": true,
          "internalType": "address",
          "name": "from",
          "type": "address"
        },
        {
          "indexed": false,
          "internalType": "uint256",
          "name": "blockNumberDeadline",
          "type": "uint256"
        },
        {
          "indexed": false,
          "internalType": "bytes32",
          "name": "forcedTransactionRollingHash",
          "type": "bytes32"
        },
        {
          "indexed": false,
          "internalType": "bytes",
          "name": "rlpEncodedSignedTransaction",
          "type": "bytes"
        }
      ],
      "name": "ForcedTransactionAdded",
      "type": "event"
    },
    {
      "anonymous": false,
      "inputs": [
        {
          "indexed": false,
          "internalType": "uint256",
          "name": "forcedTransactionFeeInWei",
          "type": "uint256"
        }
      ],
      "name": "ForcedTransactionFeeSet",
      "type": "event"
    },
    {
      "anonymous": false,
      "inputs": [
        {
          "indexed": false,
          "internalType": "uint256",
          "name": "amount",
          "type": "uint256"
        }
      ],
      "name": "FundingReceived",
      "type": "event"
    },
    {
      "anonymous": false,
      "inputs": [
        {
          "indexed": false,
          "internalType": "uint8",
          "name": "version",
          "type": "uint8"
        }
      ],
      "name": "Initialized",
      "type": "event"
    },
    {
      "anonymous": false,
      "inputs": [
        {
          "indexed": true,
          "internalType": "bytes32",
          "name": "l2MerkleRoot",
          "type": "bytes32"
        },
        {
          "indexed": true,
          "internalType": "uint256",
          "name": "treeDepth",
          "type": "uint256"
        }
      ],
      "name": "L2MerkleRootAdded",
      "type": "event"
    },
    {
      "anonymous": false,
      "inputs": [
        {
          "indexed": true,
          "internalType": "uint256",
          "name": "l2Block",
          "type": "uint256"
        }
      ],
      "name": "L2MessagingBlockAnchored",
      "type": "event"
    },
    {
      "anonymous": false,
      "inputs": [
        {
          "indexed": true,
          "internalType": "address",
          "name": "amountChangeBy",
          "type": "address"
        },
        {
          "indexed": false,
          "internalType": "uint256",
          "name": "amount",
          "type": "uint256"
        },
        {
          "indexed": false,
          "internalType": "bool",
          "name": "amountUsedLoweredToLimit",
          "type": "bool"
        },
        {
          "indexed": false,
          "internalType": "bool",
          "name": "usedAmountResetToZero",
          "type": "bool"
        }
      ],
      "name": "LimitAmountChanged",
      "type": "event"
    },
    {
      "anonymous": false,
      "inputs": [
        {
          "components": [
            {
              "internalType": "bytes32",
              "name": "initialStateRootHash",
              "type": "bytes32"
            },
            {
              "internalType": "uint256",
              "name": "initialL2BlockNumber",
              "type": "uint256"
            },
            {
              "internalType": "uint256",
              "name": "genesisTimestamp",
              "type": "uint256"
            },
            {
              "internalType": "address",
              "name": "defaultVerifier",
              "type": "address"
            },
            {
              "internalType": "uint256",
              "name": "rateLimitPeriodInSeconds",
              "type": "uint256"
            },
            {
              "internalType": "uint256",
              "name": "rateLimitAmountInWei",
              "type": "uint256"
            },
            {
              "components": [
                {
                  "internalType": "address",
                  "name": "addressWithRole",
                  "type": "address"
                },
                {
                  "internalType": "bytes32",
                  "name": "role",
                  "type": "bytes32"
                }
              ],
              "internalType": "struct IPermissionsManager.RoleAddress[]",
              "name": "roleAddresses",
              "type": "tuple[]"
            },
            {
              "components": [
                {
                  "internalType": "enum IPauseManager.PauseType",
                  "name": "pauseType",
                  "type": "uint8"
                },
                {
                  "internalType": "bytes32",
                  "name": "role",
                  "type": "bytes32"
                }
              ],
              "internalType": "struct IPauseManager.PauseTypeRole[]",
              "name": "pauseTypeRoles",
              "type": "tuple[]"
            },
            {
              "components": [
                {
                  "internalType": "enum IPauseManager.PauseType",
                  "name": "pauseType",
                  "type": "uint8"
                },
                {
                  "internalType": "bytes32",
                  "name": "role",
                  "type": "bytes32"
                }
              ],
              "internalType": "struct IPauseManager.PauseTypeRole[]",
              "name": "unpauseTypeRoles",
              "type": "tuple[]"
            },
            {
              "internalType": "address",
              "name": "defaultAdmin",
              "type": "address"
            },
            {
              "internalType": "address",
              "name": "shnarfProvider",
              "type": "address"
            },
            {
              "internalType": "address",
              "name": "addressFilter",
              "type": "address"
            }
          ],
          "indexed": false,
          "internalType": "struct ILineaRollupBase.BaseInitializationData",
          "name": "InitializationData",
          "type": "tuple"
        }
      ],
      "name": "LineaRollupBaseInitialized",
      "type": "event"
    },
    {
      "anonymous": false,
      "inputs": [
        {
          "indexed": true,
          "internalType": "bytes8",
          "name": "previousVersion",
          "type": "bytes8"
        },
        {
          "indexed": true,
          "internalType": "bytes8",
          "name": "newVersion",
          "type": "bytes8"
        }
      ],
      "name": "LineaRollupVersionChanged",
      "type": "event"
    },
    {
      "anonymous": false,
      "inputs": [
        {
          "indexed": true,
          "internalType": "address",
          "name": "caller",
          "type": "address"
        },
        {
          "indexed": true,
          "internalType": "address",
          "name": "livenessRecoveryOperator",
          "type": "address"
        }
      ],
      "name": "LivenessRecoveryOperatorAddressSet",
      "type": "event"
    },
    {
      "anonymous": false,
      "inputs": [
        {
          "indexed": true,
          "internalType": "address",
          "name": "caller",
          "type": "address"
        },
        {
          "indexed": true,
          "internalType": "address",
          "name": "livenessRecoveryOperator",
          "type": "address"
        }
      ],
      "name": "LivenessRecoveryOperatorRoleGranted",
      "type": "event"
    },
    {
      "anonymous": false,
      "inputs": [
        {
          "indexed": true,
          "internalType": "bytes32",
          "name": "_messageHash",
          "type": "bytes32"
        }
      ],
      "name": "MessageClaimed",
      "type": "event"
    },
    {
      "anonymous": false,
      "inputs": [
        {
          "indexed": true,
          "internalType": "address",
          "name": "_from",
          "type": "address"
        },
        {
          "indexed": true,
          "internalType": "address",
          "name": "_to",
          "type": "address"
        },
        {
          "indexed": false,
          "internalType": "uint256",
          "name": "_fee",
          "type": "uint256"
        },
        {
          "indexed": false,
          "internalType": "uint256",
          "name": "_value",
          "type": "uint256"
        },
        {
          "indexed": false,
          "internalType": "uint256",
          "name": "_nonce",
          "type": "uint256"
        },
        {
          "indexed": false,
          "internalType": "bytes",
          "name": "_calldata",
          "type": "bytes"
        },
        {
          "indexed": true,
          "internalType": "bytes32",
          "name": "_messageHash",
          "type": "bytes32"
        }
      ],
      "name": "MessageSent",
      "type": "event"
    },
    {
      "anonymous": false,
      "inputs": [
        {
          "indexed": true,
          "internalType": "enum IPauseManager.PauseType",
          "name": "pauseType",
          "type": "uint8"
        },
        {
          "indexed": true,
          "internalType": "bytes32",
          "name": "role",
          "type": "bytes32"
        }
      ],
      "name": "PauseTypeRoleSet",
      "type": "event"
    },
    {
      "anonymous": false,
      "inputs": [
        {
          "indexed": true,
          "internalType": "enum IPauseManager.PauseType",
          "name": "pauseType",
          "type": "uint8"
        },
        {
          "indexed": true,
          "internalType": "bytes32",
          "name": "role",
          "type": "bytes32"
        },
        {
          "indexed": true,
          "internalType": "bytes32",
          "name": "previousRole",
          "type": "bytes32"
        }
      ],
      "name": "PauseTypeRoleUpdated",
      "type": "event"
    },
    {
      "anonymous": false,
      "inputs": [
        {
          "indexed": false,
          "internalType": "address",
          "name": "messageSender",
          "type": "address"
        },
        {
          "indexed": true,
          "internalType": "enum IPauseManager.PauseType",
          "name": "pauseType",
          "type": "uint8"
        }
      ],
      "name": "Paused",
      "type": "event"
    },
    {
      "anonymous": false,
      "inputs": [
        {
          "indexed": false,
          "internalType": "uint256",
          "name": "periodInSeconds",
          "type": "uint256"
        },
        {
          "indexed": false,
          "internalType": "uint256",
          "name": "limitInWei",
          "type": "uint256"
        },
        {
          "indexed": false,
          "internalType": "uint256",
          "name": "currentPeriodEnd",
          "type": "uint256"
        }
      ],
      "name": "RateLimitInitialized",
      "type": "event"
    },
    {
      "anonymous": false,
      "inputs": [
        {
          "indexed": true,
          "internalType": "bytes32",
          "name": "role",
          "type": "bytes32"
        },
        {
          "indexed": true,
          "internalType": "bytes32",
          "name": "previousAdminRole",
          "type": "bytes32"
        },
        {
          "indexed": true,
          "internalType": "bytes32",
          "name": "newAdminRole",
          "type": "bytes32"
        }
      ],
      "name": "RoleAdminChanged",
      "type": "event"
    },
    {
      "anonymous": false,
      "inputs": [
        {
          "indexed": true,
          "internalType": "bytes32",
          "name": "role",
          "type": "bytes32"
        },
        {
          "indexed": true,
          "internalType": "address",
          "name": "account",
          "type": "address"
        },
        {
          "indexed": true,
          "internalType": "address",
          "name": "sender",
          "type": "address"
        }
      ],
      "name": "RoleGranted",
      "type": "event"
    },
    {
      "anonymous": false,
      "inputs": [
        {
          "indexed": true,
          "internalType": "bytes32",
          "name": "role",
          "type": "bytes32"
        },
        {
          "indexed": true,
          "internalType": "address",
          "name": "account",
          "type": "address"
        },
        {
          "indexed": true,
          "internalType": "address",
          "name": "sender",
          "type": "address"
        }
      ],
      "name": "RoleRevoked",
      "type": "event"
    },
    {
      "anonymous": false,
      "inputs": [
        {
          "indexed": true,
          "internalType": "uint256",
          "name": "messageNumber",
          "type": "uint256"
        },
        {
          "indexed": true,
          "internalType": "bytes32",
          "name": "rollingHash",
          "type": "bytes32"
        },
        {
          "indexed": true,
          "internalType": "bytes32",
          "name": "messageHash",
          "type": "bytes32"
        }
      ],
      "name": "RollingHashUpdated",
      "type": "event"
    },
    {
      "anonymous": false,
      "inputs": [
        {
          "indexed": true,
          "internalType": "enum IPauseManager.PauseType",
          "name": "unPauseType",
          "type": "uint8"
        },
        {
          "indexed": true,
          "internalType": "bytes32",
          "name": "role",
          "type": "bytes32"
        }
      ],
      "name": "UnPauseTypeRoleSet",
      "type": "event"
    },
    {
      "anonymous": false,
      "inputs": [
        {
          "indexed": true,
          "internalType": "enum IPauseManager.PauseType",
          "name": "unPauseType",
          "type": "uint8"
        },
        {
          "indexed": true,
          "internalType": "bytes32",
          "name": "role",
          "type": "bytes32"
        },
        {
          "indexed": true,
          "internalType": "bytes32",
          "name": "previousRole",
          "type": "bytes32"
        }
      ],
      "name": "UnPauseTypeRoleUpdated",
      "type": "event"
    },
    {
      "anonymous": false,
      "inputs": [
        {
          "indexed": false,
          "internalType": "address",
          "name": "messageSender",
          "type": "address"
        },
        {
          "indexed": true,
          "internalType": "enum IPauseManager.PauseType",
          "name": "pauseType",
          "type": "uint8"
        }
      ],
      "name": "UnPaused",
      "type": "event"
    },
    {
      "anonymous": false,
      "inputs": [
        {
          "indexed": false,
          "internalType": "enum IPauseManager.PauseType",
          "name": "pauseType",
          "type": "uint8"
        }
      ],
      "name": "UnPausedDueToExpiry",
      "type": "event"
    },
    {
      "anonymous": false,
      "inputs": [
        {
          "indexed": true,
          "internalType": "address",
          "name": "verifierAddress",
          "type": "address"
        },
        {
          "indexed": true,
          "internalType": "uint256",
          "name": "proofType",
          "type": "uint256"
        },
        {
          "indexed": true,
          "internalType": "address",
          "name": "verifierSetBy",
          "type": "address"
        },
        {
          "indexed": false,
          "internalType": "address",
          "name": "oldVerifierAddress",
          "type": "address"
        }
      ],
      "name": "VerifierAddressChanged",
      "type": "event"
    },
    {
      "anonymous": false,
      "inputs": [
        {
          "indexed": false,
          "internalType": "address",
          "name": "oldYieldManagerAddress",
          "type": "address"
        },
        {
          "indexed": false,
          "internalType": "address",
          "name": "newYieldManagerAddress",
          "type": "address"
        }
      ],
      "name": "YieldManagerChanged",
      "type": "event"
    },
    {
      "inputs": [],
      "name": "CONTRACT_VERSION",
      "outputs": [
        {
          "internalType": "string",
          "name": "contractVersion",
          "type": "string"
        }
      ],
      "stateMutability": "view",
      "type": "function"
    },
    {
      "inputs": [],
      "name": "COOLDOWN_DURATION",
      "outputs": [
        {
          "internalType": "uint256",
          "name": "",
          "type": "uint256"
        }
      ],
      "stateMutability": "view",
      "type": "function"
    },
    {
      "inputs": [],
      "name": "DEFAULT_ADMIN_ROLE",
      "outputs": [
        {
          "internalType": "bytes32",
          "name": "",
          "type": "bytes32"
        }
      ],
      "stateMutability": "view",
      "type": "function"
    },
    {
      "inputs": [],
      "name": "FORCED_TRANSACTION_FEE_SETTER_ROLE",
      "outputs": [
        {
          "internalType": "bytes32",
          "name": "",
          "type": "bytes32"
        }
      ],
      "stateMutability": "view",
      "type": "function"
    },
    {
      "inputs": [],
      "name": "FORCED_TRANSACTION_SENDER_ROLE",
      "outputs": [
        {
          "internalType": "bytes32",
          "name": "",
          "type": "bytes32"
        }
      ],
      "stateMutability": "view",
      "type": "function"
    },
    {
      "inputs": [],
      "name": "INBOX_STATUS_RECEIVED",
      "outputs": [
        {
          "internalType": "uint8",
          "name": "",
          "type": "uint8"
        }
      ],
      "stateMutability": "view",
      "type": "function"
    },
    {
      "inputs": [],
      "name": "INBOX_STATUS_UNKNOWN",
      "outputs": [
        {
          "internalType": "uint8",
          "name": "",
          "type": "uint8"
        }
      ],
      "stateMutability": "view",
      "type": "function"
    },
    {
      "inputs": [],
      "name": "OPERATOR_ROLE",
      "outputs": [
        {
          "internalType": "bytes32",
          "name": "",
          "type": "bytes32"
        }
      ],
      "stateMutability": "view",
      "type": "function"
    },
    {
      "inputs": [],
      "name": "OUTBOX_STATUS_RECEIVED",
      "outputs": [
        {
          "internalType": "uint8",
          "name": "",
          "type": "uint8"
        }
      ],
      "stateMutability": "view",
      "type": "function"
    },
    {
      "inputs": [],
      "name": "OUTBOX_STATUS_SENT",
      "outputs": [
        {
          "internalType": "uint8",
          "name": "",
          "type": "uint8"
        }
      ],
      "stateMutability": "view",
      "type": "function"
    },
    {
      "inputs": [],
      "name": "OUTBOX_STATUS_UNKNOWN",
      "outputs": [
        {
          "internalType": "uint8",
          "name": "",
          "type": "uint8"
        }
      ],
      "stateMutability": "view",
      "type": "function"
    },
    {
      "inputs": [],
      "name": "PAUSE_ALL_ROLE",
      "outputs": [
        {
          "internalType": "bytes32",
          "name": "",
          "type": "bytes32"
        }
      ],
      "stateMutability": "view",
      "type": "function"
    },
    {
      "inputs": [],
      "name": "PAUSE_DURATION",
      "outputs": [
        {
          "internalType": "uint256",
          "name": "",
          "type": "uint256"
        }
      ],
      "stateMutability": "view",
      "type": "function"
    },
    {
      "inputs": [],
      "name": "PAUSE_FINALIZATION_ROLE",
      "outputs": [
        {
          "internalType": "bytes32",
          "name": "",
          "type": "bytes32"
        }
      ],
      "stateMutability": "view",
      "type": "function"
    },
    {
      "inputs": [],
      "name": "PAUSE_L1_L2_ROLE",
      "outputs": [
        {
          "internalType": "bytes32",
          "name": "",
          "type": "bytes32"
        }
      ],
      "stateMutability": "view",
      "type": "function"
    },
    {
      "inputs": [],
      "name": "PAUSE_L2_L1_ROLE",
      "outputs": [
        {
          "internalType": "bytes32",
          "name": "",
          "type": "bytes32"
        }
      ],
      "stateMutability": "view",
      "type": "function"
    },
    {
      "inputs": [],
      "name": "PAUSE_NATIVE_YIELD_STAKING_ROLE",
      "outputs": [
        {
          "internalType": "bytes32",
          "name": "",
          "type": "bytes32"
        }
      ],
      "stateMutability": "view",
      "type": "function"
    },
    {
      "inputs": [],
      "name": "PAUSE_STATE_DATA_SUBMISSION_ROLE",
      "outputs": [
        {
          "internalType": "bytes32",
          "name": "",
          "type": "bytes32"
        }
      ],
      "stateMutability": "view",
      "type": "function"
    },
    {
      "inputs": [],
      "name": "RATE_LIMIT_SETTER_ROLE",
      "outputs": [
        {
          "internalType": "bytes32",
          "name": "",
          "type": "bytes32"
        }
      ],
      "stateMutability": "view",
      "type": "function"
    },
    {
      "inputs": [],
      "name": "SECURITY_COUNCIL_ROLE",
      "outputs": [
        {
          "internalType": "bytes32",
          "name": "",
          "type": "bytes32"
        }
      ],
      "stateMutability": "view",
      "type": "function"
    },
    {
      "inputs": [],
      "name": "SET_ADDRESS_FILTER_ROLE",
      "outputs": [
        {
          "internalType": "bytes32",
          "name": "",
          "type": "bytes32"
        }
      ],
      "stateMutability": "view",
      "type": "function"
    },
    {
      "inputs": [],
      "name": "SET_YIELD_MANAGER_ROLE",
      "outputs": [
        {
          "internalType": "bytes32",
          "name": "",
          "type": "bytes32"
        }
      ],
      "stateMutability": "view",
      "type": "function"
    },
    {
      "inputs": [],
      "name": "UNPAUSE_ALL_ROLE",
      "outputs": [
        {
          "internalType": "bytes32",
          "name": "",
          "type": "bytes32"
        }
      ],
      "stateMutability": "view",
      "type": "function"
    },
    {
      "inputs": [],
      "name": "UNPAUSE_FINALIZATION_ROLE",
      "outputs": [
        {
          "internalType": "bytes32",
          "name": "",
          "type": "bytes32"
        }
      ],
      "stateMutability": "view",
      "type": "function"
    },
    {
      "inputs": [],
      "name": "UNPAUSE_L1_L2_ROLE",
      "outputs": [
        {
          "internalType": "bytes32",
          "name": "",
          "type": "bytes32"
        }
      ],
      "stateMutability": "view",
      "type": "function"
    },
    {
      "inputs": [],
      "name": "UNPAUSE_L2_L1_ROLE",
      "outputs": [
        {
          "internalType": "bytes32",
          "name": "",
          "type": "bytes32"
        }
      ],
      "stateMutability": "view",
      "type": "function"
    },
    {
      "inputs": [],
      "name": "UNPAUSE_NATIVE_YIELD_STAKING_ROLE",
      "outputs": [
        {
          "internalType": "bytes32",
          "name": "",
          "type": "bytes32"
        }
      ],
      "stateMutability": "view",
      "type": "function"
    },
    {
      "inputs": [],
      "name": "UNPAUSE_STATE_DATA_SUBMISSION_ROLE",
      "outputs": [
        {
          "internalType": "bytes32",
          "name": "",
          "type": "bytes32"
        }
      ],
      "stateMutability": "view",
      "type": "function"
    },
    {
      "inputs": [],
      "name": "USED_RATE_LIMIT_RESETTER_ROLE",
      "outputs": [
        {
          "internalType": "bytes32",
          "name": "",
          "type": "bytes32"
        }
      ],
      "stateMutability": "view",
      "type": "function"
    },
    {
      "inputs": [],
      "name": "VERIFIER_SETTER_ROLE",
      "outputs": [
        {
          "internalType": "bytes32",
          "name": "",
          "type": "bytes32"
        }
      ],
      "stateMutability": "view",
      "type": "function"
    },
    {
      "inputs": [],
      "name": "VERIFIER_UNSETTER_ROLE",
      "outputs": [
        {
          "internalType": "bytes32",
          "name": "",
          "type": "bytes32"
        }
      ],
      "stateMutability": "view",
      "type": "function"
    },
    {
      "inputs": [],
      "name": "YIELD_PROVIDER_STAKING_ROLE",
      "outputs": [
        {
          "internalType": "bytes32",
          "name": "",
          "type": "bytes32"
        }
      ],
      "stateMutability": "view",
      "type": "function"
    },
    {
      "inputs": [],
      "name": "addressFilter",
      "outputs": [
        {
          "internalType": "contract IAddressFilter",
          "name": "",
          "type": "address"
        }
      ],
      "stateMutability": "view",
      "type": "function"
    },
    {
      "inputs": [
        {
          "internalType": "bytes32",
          "name": "_shnarf",
          "type": "bytes32"
        }
      ],
      "name": "blobShnarfExists",
      "outputs": [
        {
          "internalType": "uint256",
          "name": "shnarfExists",
          "type": "uint256"
        }
      ],
      "stateMutability": "view",
      "type": "function"
    },
    {
      "inputs": [
        {
          "internalType": "address",
          "name": "_from",
          "type": "address"
        },
        {
          "internalType": "address",
          "name": "_to",
          "type": "address"
        },
        {
          "internalType": "uint256",
          "name": "_fee",
          "type": "uint256"
        },
        {
          "internalType": "uint256",
          "name": "_value",
          "type": "uint256"
        },
        {
          "internalType": "address payable",
          "name": "_feeRecipient",
          "type": "address"
        },
        {
          "internalType": "bytes",
          "name": "_calldata",
          "type": "bytes"
        },
        {
          "internalType": "uint256",
          "name": "_nonce",
          "type": "uint256"
        }
      ],
      "name": "claimMessage",
      "outputs": [],
      "stateMutability": "nonpayable",
      "type": "function"
    },
    {
      "inputs": [
        {
          "components": [
            {
              "internalType": "bytes32[]",
              "name": "proof",
              "type": "bytes32[]"
            },
            {
              "internalType": "uint256",
              "name": "messageNumber",
              "type": "uint256"
            },
            {
              "internalType": "uint32",
              "name": "leafIndex",
              "type": "uint32"
            },
            {
              "internalType": "address",
              "name": "from",
              "type": "address"
            },
            {
              "internalType": "address",
              "name": "to",
              "type": "address"
            },
            {
              "internalType": "uint256",
              "name": "fee",
              "type": "uint256"
            },
            {
              "internalType": "uint256",
              "name": "value",
              "type": "uint256"
            },
            {
              "internalType": "address payable",
              "name": "feeRecipient",
              "type": "address"
            },
            {
              "internalType": "bytes32",
              "name": "merkleRoot",
              "type": "bytes32"
            },
            {
              "internalType": "bytes",
              "name": "data",
              "type": "bytes"
            }
          ],
          "internalType": "struct IL1MessageService.ClaimMessageWithProofParams",
          "name": "_params",
          "type": "tuple"
        }
      ],
      "name": "claimMessageWithProof",
      "outputs": [],
      "stateMutability": "nonpayable",
      "type": "function"
    },
    {
      "inputs": [
        {
          "components": [
            {
              "internalType": "bytes32[]",
              "name": "proof",
              "type": "bytes32[]"
            },
            {
              "internalType": "uint256",
              "name": "messageNumber",
              "type": "uint256"
            },
            {
              "internalType": "uint32",
              "name": "leafIndex",
              "type": "uint32"
            },
            {
              "internalType": "address",
              "name": "from",
              "type": "address"
            },
            {
              "internalType": "address",
              "name": "to",
              "type": "address"
            },
            {
              "internalType": "uint256",
              "name": "fee",
              "type": "uint256"
            },
            {
              "internalType": "uint256",
              "name": "value",
              "type": "uint256"
            },
            {
              "internalType": "address payable",
              "name": "feeRecipient",
              "type": "address"
            },
            {
              "internalType": "bytes32",
              "name": "merkleRoot",
              "type": "bytes32"
            },
            {
              "internalType": "bytes",
              "name": "data",
              "type": "bytes"
            }
          ],
          "internalType": "struct IL1MessageService.ClaimMessageWithProofParams",
          "name": "_params",
          "type": "tuple"
        },
        {
          "internalType": "address",
          "name": "_yieldProvider",
          "type": "address"
        }
      ],
      "name": "claimMessageWithProofAndWithdrawLST",
      "outputs": [],
      "stateMutability": "nonpayable",
      "type": "function"
    },
    {
      "inputs": [],
      "name": "currentFinalizedShnarf",
      "outputs": [
        {
          "internalType": "bytes32",
          "name": "",
          "type": "bytes32"
        }
      ],
      "stateMutability": "view",
      "type": "function"
    },
    {
      "inputs": [],
      "name": "currentFinalizedState",
      "outputs": [
        {
          "internalType": "bytes32",
          "name": "",
          "type": "bytes32"
        }
      ],
      "stateMutability": "view",
      "type": "function"
    },
    {
      "inputs": [],
      "name": "currentL2BlockNumber",
      "outputs": [
        {
          "internalType": "uint256",
          "name": "",
          "type": "uint256"
        }
      ],
      "stateMutability": "view",
      "type": "function"
    },
    {
      "inputs": [],
      "name": "currentPeriodAmountInWei",
      "outputs": [
        {
          "internalType": "uint256",
          "name": "",
          "type": "uint256"
        }
      ],
      "stateMutability": "view",
      "type": "function"
    },
    {
      "inputs": [],
      "name": "currentPeriodEnd",
      "outputs": [
        {
          "internalType": "uint256",
          "name": "",
          "type": "uint256"
        }
      ],
      "stateMutability": "view",
      "type": "function"
    },
    {
      "inputs": [
        {
          "internalType": "bytes",
          "name": "_aggregatedProof",
          "type": "bytes"
        },
        {
          "internalType": "uint256",
          "name": "_proofType",
          "type": "uint256"
        },
        {
          "components": [
            {
              "internalType": "bytes32",
              "name": "parentStateRootHash",
              "type": "bytes32"
            },
            {
              "internalType": "uint256",
              "name": "endBlockNumber",
              "type": "uint256"
            },
            {
              "components": [
                {
                  "internalType": "bytes32",
                  "name": "parentShnarf",
                  "type": "bytes32"
                },
                {
                  "internalType": "bytes32",
                  "name": "snarkHash",
                  "type": "bytes32"
                },
                {
                  "internalType": "bytes32",
                  "name": "finalStateRootHash",
                  "type": "bytes32"
                },
                {
                  "internalType": "bytes32",
                  "name": "dataEvaluationPoint",
                  "type": "bytes32"
                },
                {
                  "internalType": "bytes32",
                  "name": "dataEvaluationClaim",
                  "type": "bytes32"
                }
              ],
              "internalType": "struct ILineaRollupBase.ShnarfData",
              "name": "shnarfData",
              "type": "tuple"
            },
            {
              "internalType": "uint256",
              "name": "lastFinalizedTimestamp",
              "type": "uint256"
            },
            {
              "internalType": "uint256",
              "name": "finalTimestamp",
              "type": "uint256"
            },
            {
              "internalType": "bytes32",
              "name": "lastFinalizedL1RollingHash",
              "type": "bytes32"
            },
            {
              "internalType": "bytes32",
              "name": "l1RollingHash",
              "type": "bytes32"
            },
            {
              "internalType": "uint256",
              "name": "lastFinalizedL1RollingHashMessageNumber",
              "type": "uint256"
            },
            {
              "internalType": "uint256",
              "name": "l1RollingHashMessageNumber",
              "type": "uint256"
            },
            {
              "internalType": "uint256",
              "name": "l2MerkleTreesDepth",
              "type": "uint256"
            },
            {
              "internalType": "uint256",
              "name": "lastFinalizedForcedTransactionNumber",
              "type": "uint256"
            },
            {
              "internalType": "uint256",
              "name": "finalForcedTransactionNumber",
              "type": "uint256"
            },
            {
              "internalType": "bytes32",
              "name": "lastFinalizedForcedTransactionRollingHash",
              "type": "bytes32"
            },
            {
              "internalType": "bytes32[]",
              "name": "l2MerkleRoots",
              "type": "bytes32[]"
            },
            {
              "internalType": "address[]",
              "name": "filteredAddresses",
              "type": "address[]"
            },
            {
              "internalType": "bytes",
              "name": "l2MessagingBlocksOffsets",
              "type": "bytes"
            }
          ],
          "internalType": "struct ILineaRollupBase.FinalizationDataV4",
          "name": "_finalizationData",
          "type": "tuple"
        }
      ],
      "name": "finalizeBlocks",
      "outputs": [],
      "stateMutability": "nonpayable",
      "type": "function"
    },
    {
      "inputs": [],
      "name": "forcedTransactionFeeInWei",
      "outputs": [
        {
          "internalType": "uint256",
          "name": "",
          "type": "uint256"
        }
      ],
      "stateMutability": "view",
      "type": "function"
    },
    {
      "inputs": [
        {
          "internalType": "uint256",
          "name": "forcedTransactionNumber",
          "type": "uint256"
        }
      ],
      "name": "forcedTransactionL2BlockNumbers",
      "outputs": [
        {
          "internalType": "uint256",
          "name": "l2BlockNumber",
          "type": "uint256"
        }
      ],
      "stateMutability": "view",
      "type": "function"
    },
    {
      "inputs": [
        {
          "internalType": "uint256",
          "name": "forcedTransactionNumber",
          "type": "uint256"
        }
      ],
      "name": "forcedTransactionRollingHashes",
      "outputs": [
        {
          "internalType": "bytes32",
          "name": "rollingHash",
          "type": "bytes32"
        }
      ],
      "stateMutability": "view",
      "type": "function"
    },
    {
      "inputs": [],
      "name": "fund",
      "outputs": [],
      "stateMutability": "payable",
      "type": "function"
    },
    {
      "inputs": [],
      "name": "getRequiredForcedTransactionFields",
      "outputs": [
        {
          "internalType": "bytes32",
          "name": "finalizedState",
          "type": "bytes32"
        },
        {
          "internalType": "bytes32",
          "name": "previousForcedTransactionRollingHash",
          "type": "bytes32"
        },
        {
          "internalType": "uint256",
          "name": "currentFinalizedL2BlockNumber",
          "type": "uint256"
        },
        {
          "internalType": "uint256",
          "name": "forcedTransactionFeeAmount",
          "type": "uint256"
        }
      ],
      "stateMutability": "view",
      "type": "function"
    },
    {
      "inputs": [
        {
          "internalType": "bytes32",
          "name": "role",
          "type": "bytes32"
        }
      ],
      "name": "getRoleAdmin",
      "outputs": [
        {
          "internalType": "bytes32",
          "name": "",
          "type": "bytes32"
        }
      ],
      "stateMutability": "view",
      "type": "function"
    },
    {
      "inputs": [
        {
          "internalType": "bytes32",
          "name": "role",
          "type": "bytes32"
        },
        {
          "internalType": "address",
          "name": "account",
          "type": "address"
        }
      ],
      "name": "grantRole",
      "outputs": [],
      "stateMutability": "nonpayable",
      "type": "function"
    },
    {
      "inputs": [
        {
          "internalType": "bytes32",
          "name": "role",
          "type": "bytes32"
        },
        {
          "internalType": "address",
          "name": "account",
          "type": "address"
        }
      ],
      "name": "hasRole",
      "outputs": [
        {
          "internalType": "bool",
          "name": "",
          "type": "bool"
        }
      ],
      "stateMutability": "view",
      "type": "function"
    },
    {
      "inputs": [
        {
          "internalType": "bytes32",
          "name": "messageHash",
          "type": "bytes32"
        }
      ],
      "name": "inboxL2L1MessageStatus",
      "outputs": [
        {
          "internalType": "uint256",
          "name": "messageStatus",
          "type": "uint256"
        }
      ],
      "stateMutability": "view",
      "type": "function"
    },
    {
      "inputs": [
        {
          "components": [
            {
              "internalType": "bytes32",
              "name": "initialStateRootHash",
              "type": "bytes32"
            },
            {
              "internalType": "uint256",
              "name": "initialL2BlockNumber",
              "type": "uint256"
            },
            {
              "internalType": "uint256",
              "name": "genesisTimestamp",
              "type": "uint256"
            },
            {
              "internalType": "address",
              "name": "defaultVerifier",
              "type": "address"
            },
            {
              "internalType": "uint256",
              "name": "rateLimitPeriodInSeconds",
              "type": "uint256"
            },
            {
              "internalType": "uint256",
              "name": "rateLimitAmountInWei",
              "type": "uint256"
            },
            {
              "components": [
                {
                  "internalType": "address",
                  "name": "addressWithRole",
                  "type": "address"
                },
                {
                  "internalType": "bytes32",
                  "name": "role",
                  "type": "bytes32"
                }
              ],
              "internalType": "struct IPermissionsManager.RoleAddress[]",
              "name": "roleAddresses",
              "type": "tuple[]"
            },
            {
              "components": [
                {
                  "internalType": "enum IPauseManager.PauseType",
                  "name": "pauseType",
                  "type": "uint8"
                },
                {
                  "internalType": "bytes32",
                  "name": "role",
                  "type": "bytes32"
                }
              ],
              "internalType": "struct IPauseManager.PauseTypeRole[]",
              "name": "pauseTypeRoles",
              "type": "tuple[]"
            },
            {
              "components": [
                {
                  "internalType": "enum IPauseManager.PauseType",
                  "name": "pauseType",
                  "type": "uint8"
                },
                {
                  "internalType": "bytes32",
                  "name": "role",
                  "type": "bytes32"
                }
              ],
              "internalType": "struct IPauseManager.PauseTypeRole[]",
              "name": "unpauseTypeRoles",
              "type": "tuple[]"
            },
            {
              "internalType": "address",
              "name": "defaultAdmin",
              "type": "address"
            },
            {
              "internalType": "address",
              "name": "shnarfProvider",
              "type": "address"
            },
            {
              "internalType": "address",
              "name": "addressFilter",
              "type": "address"
            }
          ],
          "internalType": "struct ILineaRollupBase.BaseInitializationData",
          "name": "_initializationData",
          "type": "tuple"
        },
        {
          "internalType": "address",
          "name": "_livenessRecoveryOperator",
          "type": "address"
        },
        {
          "internalType": "address",
          "name": "_yieldManager",
          "type": "address"
        }
      ],
      "name": "initialize",
      "outputs": [],
      "stateMutability": "nonpayable",
      "type": "function"
    },
    {
      "inputs": [
        {
          "internalType": "uint256",
          "name": "_messageNumber",
          "type": "uint256"
        }
      ],
      "name": "isMessageClaimed",
      "outputs": [
        {
          "internalType": "bool",
          "name": "isClaimed",
          "type": "bool"
        }
      ],
      "stateMutability": "view",
      "type": "function"
    },
    {
      "inputs": [
        {
          "internalType": "enum IPauseManager.PauseType",
          "name": "_pauseType",
          "type": "uint8"
        }
      ],
      "name": "isPaused",
      "outputs": [
        {
          "internalType": "bool",
          "name": "pauseTypeIsPaused",
          "type": "bool"
        }
      ],
      "stateMutability": "view",
      "type": "function"
    },
    {
      "inputs": [],
      "name": "isWithdrawLSTAllowed",
      "outputs": [
        {
          "internalType": "bool",
          "name": "",
          "type": "bool"
        }
      ],
      "stateMutability": "view",
      "type": "function"
    },
    {
      "inputs": [
        {
          "internalType": "bytes32",
          "name": "merkleRoot",
          "type": "bytes32"
        }
      ],
      "name": "l2MerkleRootsDepths",
      "outputs": [
        {
          "internalType": "uint256",
          "name": "treeDepth",
          "type": "uint256"
        }
      ],
      "stateMutability": "view",
      "type": "function"
    },
    {
      "inputs": [],
      "name": "limitInWei",
      "outputs": [
        {
          "internalType": "uint256",
          "name": "",
          "type": "uint256"
        }
      ],
      "stateMutability": "view",
      "type": "function"
    },
    {
      "inputs": [],
      "name": "livenessRecoveryOperator",
      "outputs": [
        {
          "internalType": "address",
          "name": "",
          "type": "address"
        }
      ],
      "stateMutability": "view",
      "type": "function"
    },
    {
      "inputs": [],
      "name": "nextForcedTransactionNumber",
      "outputs": [
        {
          "internalType": "uint256",
          "name": "",
          "type": "uint256"
        }
      ],
      "stateMutability": "view",
      "type": "function"
    },
    {
      "inputs": [],
      "name": "nextMessageNumber",
      "outputs": [
        {
          "internalType": "uint256",
          "name": "",
          "type": "uint256"
        }
      ],
      "stateMutability": "view",
      "type": "function"
    },
    {
      "inputs": [
        {
          "internalType": "bytes32",
          "name": "messageHash",
          "type": "bytes32"
        }
      ],
      "name": "outboxL1L2MessageStatus",
      "outputs": [
        {
          "internalType": "uint256",
          "name": "messageStatus",
          "type": "uint256"
        }
      ],
      "stateMutability": "view",
      "type": "function"
    },
    {
      "inputs": [
        {
          "internalType": "enum IPauseManager.PauseType",
          "name": "_pauseType",
          "type": "uint8"
        }
      ],
      "name": "pauseByType",
      "outputs": [],
      "stateMutability": "nonpayable",
      "type": "function"
    },
    {
      "inputs": [],
      "name": "pauseExpiryTimestamp",
      "outputs": [
        {
          "internalType": "uint256",
          "name": "",
          "type": "uint256"
        }
      ],
      "stateMutability": "view",
      "type": "function"
    },
    {
      "inputs": [],
      "name": "periodInSeconds",
      "outputs": [
        {
          "internalType": "uint256",
          "name": "",
          "type": "uint256"
        }
      ],
      "stateMutability": "view",
      "type": "function"
    },
    {
      "inputs": [
        {
          "internalType": "uint256",
          "name": "_forcedTransactionFeeInWei",
          "type": "uint256"
        },
        {
          "internalType": "address",
          "name": "_addressFilter",
          "type": "address"
        }
      ],
      "name": "reinitializeLineaRollupV9",
      "outputs": [],
      "stateMutability": "nonpayable",
      "type": "function"
    },
    {
      "inputs": [
        {
          "internalType": "bytes32",
          "name": "_role",
          "type": "bytes32"
        },
        {
          "internalType": "address",
          "name": "_account",
          "type": "address"
        }
      ],
      "name": "renounceRole",
      "outputs": [],
      "stateMutability": "nonpayable",
      "type": "function"
    },
    {
      "inputs": [
        {
          "internalType": "uint256",
          "name": "_amount",
          "type": "uint256"
        },
        {
          "internalType": "address",
          "name": "_l2YieldRecipient",
          "type": "address"
        }
      ],
      "name": "reportNativeYield",
      "outputs": [],
      "stateMutability": "nonpayable",
      "type": "function"
    },
    {
      "inputs": [],
      "name": "resetAmountUsedInPeriod",
      "outputs": [],
      "stateMutability": "nonpayable",
      "type": "function"
    },
    {
      "inputs": [
        {
          "internalType": "uint256",
          "name": "_amount",
          "type": "uint256"
        }
      ],
      "name": "resetRateLimitAmount",
      "outputs": [],
      "stateMutability": "nonpayable",
      "type": "function"
    },
    {
      "inputs": [
        {
          "internalType": "bytes32",
          "name": "role",
          "type": "bytes32"
        },
        {
          "internalType": "address",
          "name": "account",
          "type": "address"
        }
      ],
      "name": "revokeRole",
      "outputs": [],
      "stateMutability": "nonpayable",
      "type": "function"
    },
    {
      "inputs": [
        {
          "internalType": "uint256",
          "name": "messageNumber",
          "type": "uint256"
        }
      ],
      "name": "rollingHashes",
      "outputs": [
        {
          "internalType": "bytes32",
          "name": "rollingHash",
          "type": "bytes32"
        }
      ],
      "stateMutability": "view",
      "type": "function"
    },
    {
      "inputs": [
        {
          "internalType": "address",
          "name": "_to",
          "type": "address"
        },
        {
          "internalType": "uint256",
          "name": "_fee",
          "type": "uint256"
        },
        {
          "internalType": "bytes",
          "name": "_calldata",
          "type": "bytes"
        }
      ],
      "name": "sendMessage",
      "outputs": [],
      "stateMutability": "payable",
      "type": "function"
    },
    {
      "inputs": [],
      "name": "sender",
      "outputs": [
        {
          "internalType": "address",
          "name": "originalSender",
          "type": "address"
        }
      ],
      "stateMutability": "view",
      "type": "function"
    },
    {
      "inputs": [
        {
          "internalType": "address",
          "name": "_addressFilter",
          "type": "address"
        }
      ],
      "name": "setAddressFilter",
      "outputs": [],
      "stateMutability": "nonpayable",
      "type": "function"
    },
    {
      "inputs": [
        {
          "internalType": "uint256",
          "name": "_forcedTransactionFeeInWei",
          "type": "uint256"
        }
      ],
      "name": "setForcedTransactionFee",
      "outputs": [],
      "stateMutability": "nonpayable",
      "type": "function"
    },
    {
      "inputs": [
        {
          "internalType": "uint256",
          "name": "_messageNumber",
          "type": "uint256"
        },
        {
          "internalType": "bytes32",
          "name": "_rollingHash",
          "type": "bytes32"
        },
        {
          "internalType": "uint256",
          "name": "_lastFinalizedForcedTransactionNumber",
          "type": "uint256"
        },
        {
          "internalType": "bytes32",
          "name": "_lastFinalizedForcedTransactionRollingHash",
          "type": "bytes32"
        },
        {
          "internalType": "uint256",
          "name": "_lastFinalizedTimestamp",
          "type": "uint256"
        }
      ],
      "name": "setLivenessRecoveryOperator",
      "outputs": [],
      "stateMutability": "nonpayable",
      "type": "function"
    },
    {
      "inputs": [
        {
          "internalType": "address",
          "name": "_newVerifierAddress",
          "type": "address"
        },
        {
          "internalType": "uint256",
          "name": "_proofType",
          "type": "uint256"
        }
      ],
      "name": "setVerifierAddress",
      "outputs": [],
      "stateMutability": "nonpayable",
      "type": "function"
    },
    {
      "inputs": [
        {
          "internalType": "address",
          "name": "_newYieldManager",
          "type": "address"
        }
      ],
      "name": "setYieldManager",
      "outputs": [],
      "stateMutability": "nonpayable",
      "type": "function"
    },
    {
      "inputs": [],
      "name": "shnarfProvider",
      "outputs": [
        {
          "internalType": "contract IProvideShnarf",
          "name": "",
          "type": "address"
        }
      ],
      "stateMutability": "view",
      "type": "function"
    },
    {
      "inputs": [
        {
          "internalType": "uint256",
          "name": "blockNumber",
          "type": "uint256"
        }
      ],
      "name": "stateRootHashes",
      "outputs": [
        {
          "internalType": "bytes32",
          "name": "stateRootHash",
          "type": "bytes32"
        }
      ],
      "stateMutability": "view",
      "type": "function"
    },
    {
      "inputs": [
        {
          "internalType": "bytes32",
          "name": "_forcedTransactionRollingHash",
          "type": "bytes32"
        },
        {
          "internalType": "address",
          "name": "_from",
          "type": "address"
        },
        {
          "internalType": "uint256",
          "name": "_blockNumberDeadline",
          "type": "uint256"
        },
        {
          "internalType": "bytes",
          "name": "_rlpEncodedSignedTransaction",
          "type": "bytes"
        }
      ],
      "name": "storeForcedTransaction",
      "outputs": [],
      "stateMutability": "payable",
      "type": "function"
    },
    {
      "inputs": [
        {
          "components": [
            {
              "internalType": "uint256",
              "name": "dataEvaluationClaim",
              "type": "uint256"
            },
            {
              "internalType": "bytes",
              "name": "kzgCommitment",
              "type": "bytes"
            },
            {
              "internalType": "bytes",
              "name": "kzgProof",
              "type": "bytes"
            },
            {
              "internalType": "bytes32",
              "name": "finalStateRootHash",
              "type": "bytes32"
            },
            {
              "internalType": "bytes32",
              "name": "snarkHash",
              "type": "bytes32"
            }
          ],
          "internalType": "struct IAcceptEip4844Blobs.BlobSubmission[]",
          "name": "_blobSubmissions",
          "type": "tuple[]"
        },
        {
          "internalType": "bytes32",
          "name": "_parentShnarf",
          "type": "bytes32"
        },
        {
          "internalType": "bytes32",
          "name": "_finalBlobShnarf",
          "type": "bytes32"
        }
      ],
      "name": "submitBlobs",
      "outputs": [],
      "stateMutability": "nonpayable",
      "type": "function"
    },
    {
      "inputs": [
        {
          "internalType": "bytes4",
          "name": "interfaceId",
          "type": "bytes4"
        }
      ],
      "name": "supportsInterface",
      "outputs": [
        {
          "internalType": "bool",
          "name": "",
          "type": "bool"
        }
      ],
      "stateMutability": "view",
      "type": "function"
    },
    {
      "inputs": [],
      "name": "systemMigrationBlock",
      "outputs": [
        {
          "internalType": "uint256",
          "name": "",
          "type": "uint256"
        }
      ],
      "stateMutability": "view",
      "type": "function"
    },
    {
      "inputs": [
        {
          "internalType": "uint256",
          "name": "_amount",
          "type": "uint256"
        }
      ],
      "name": "transferFundsForNativeYield",
      "outputs": [],
      "stateMutability": "nonpayable",
      "type": "function"
    },
    {
      "inputs": [
        {
          "internalType": "enum IPauseManager.PauseType",
          "name": "_pauseType",
          "type": "uint8"
        }
      ],
      "name": "unPauseByExpiredType",
      "outputs": [],
      "stateMutability": "nonpayable",
      "type": "function"
    },
    {
      "inputs": [
        {
          "internalType": "enum IPauseManager.PauseType",
          "name": "_pauseType",
          "type": "uint8"
        }
      ],
      "name": "unPauseByType",
      "outputs": [],
      "stateMutability": "nonpayable",
      "type": "function"
    },
    {
      "inputs": [
        {
          "internalType": "uint256",
          "name": "_proofType",
          "type": "uint256"
        }
      ],
      "name": "unsetVerifierAddress",
      "outputs": [],
      "stateMutability": "nonpayable",
      "type": "function"
    },
    {
      "inputs": [
        {
          "internalType": "enum IPauseManager.PauseType",
          "name": "_pauseType",
          "type": "uint8"
        },
        {
          "internalType": "bytes32",
          "name": "_newRole",
          "type": "bytes32"
        }
      ],
      "name": "updatePauseTypeRole",
      "outputs": [],
      "stateMutability": "nonpayable",
      "type": "function"
    },
    {
      "inputs": [
        {
          "internalType": "enum IPauseManager.PauseType",
          "name": "_pauseType",
          "type": "uint8"
        },
        {
          "internalType": "bytes32",
          "name": "_newRole",
          "type": "bytes32"
        }
      ],
      "name": "updateUnpauseTypeRole",
      "outputs": [],
      "stateMutability": "nonpayable",
      "type": "function"
    },
    {
      "inputs": [
        {
          "internalType": "uint256",
          "name": "proofType",
          "type": "uint256"
        }
      ],
      "name": "verifiers",
      "outputs": [
        {
          "internalType": "address",
          "name": "verifierAddress",
          "type": "address"
        }
      ],
      "stateMutability": "view",
      "type": "function"
    },
    {
      "inputs": [],
      "name": "yieldManager",
      "outputs": [
        {
          "internalType": "address",
          "name": "",
          "type": "address"
        }
      ],
      "stateMutability": "view",
      "type": "function"
    }
  ],
  "bytecode": "0x6080604052348015600e575f5ffd5b506015601f565b601b601f565b60d9565b5f54610100900460ff161560895760405162461bcd60e51b815260206004820152602760248201527f496e697469616c697a61626c653a20636f6e747261637420697320696e697469604482015266616c697a696e6760c81b606482015260840160405180910390fd5b5f5460ff9081161460d7575f805460ff191660ff9081179091556040519081527f7f26b83ff96e1f2b6a682f133852f6798a09c465da95921460cefb38474024989060200160405180910390a15b565b61693e806100e65f395ff3fe6080604052600436106105e2575f3560e01c806374ce962c11610306578063ac1eff681161019c578063c1dc0f07116100e7578063d722bbfc11610092578063e66c2a931161006d578063e66c2a93146112b2578063ee828920146112d1578063f5b541a61461131f575f5ffd5b8063d722bbfc14611241578063dd9be3e714611274578063e196fb5d14611293575f5ffd5b8063cc6f7251116100c2578063cc6f7251146111d9578063cd9b9e9a1461120c578063d547741f14611222575f5ffd5b8063c1dc0f0714611185578063c21169741461119a578063c294c918146111b9575f5ffd5b8063b837dbe911610147578063bc61e73311610122578063bc61e7331461111e578063bf3e75051461113d578063c0729ab114611170575f5ffd5b8063b837dbe9146110a3578063b9174ba3146110b8578063b9fe5cf7146110eb575f5ffd5b8063ae15ceae11610177578063ae15ceae14611054578063aea4f74514611087578063b60d42881461109b575f5ffd5b8063ac1eff6814610fde578063ad422ff014611013578063add9137a14611028575f5ffd5b8063923fe8941161025c5780639ac25d0811610207578063a217fddf116101e2578063a217fddf14610f82578063a4c4cef714610f95578063a505925f14610fab575f5ffd5b80639ac25d0814610f1d5780639ee8b21114610f505780639f3ce55a14610f6f575f5ffd5b806395ba81fa1161023757806395ba81fa14610edf578063986fcddd14610d1857806399467a3514610efe575f5ffd5b8063923fe89414610e6b57806392dd3f8714610e9e57806392fa129a14610eca575f5ffd5b80638be745d1116102bc578063914e57eb11610297578063914e57eb14610de557806391d1485414610e11578063921b278e14610e55575f5ffd5b80638be745d114610d675780638c7c363a14610d935780638de4948714610db2575f5ffd5b806378ea198a116102ec57806378ea198a14610ce55780637d1e8c5514610d1857806380b7af1814610d2b575f5ffd5b806374ce962c14610ca7578063755bc62f14610cc6575f5ffd5b806348922ab71161047b5780635c721a0c116103d1578063695378f51161037c5780636e673843116103575780636e67384314610c2d5780637174c55914610c6057806373bd07b714610c93575f5ffd5b8063695378f514610bc55780636a906b8014610bdb5780636b78317214610c0e575f5ffd5b806363213155116103ac5780636321315514610b565780636463fb2a14610b8957806367e404ce14610ba8575f5ffd5b80635c721a0c14610ae95780635ec775b014610b1457806360e83cf314610b2a575f5ffd5b806352abf32d11610431578063557eac731161040c578063557eac7314610ab55780635879445614610ad45780635b7eb4bd14610997575f5ffd5b806352abf32d14610a6157806352e576bb14610a805780635334b7e614610a96575f5ffd5b80634bb97413116104615780634bb97413146109dc578063516f1a44146109fb5780635230eef214610a2e575f5ffd5b806348922ab714610997578063491e0936146109bd575f5ffd5b80632c3c67d01161053b5780633b12eccb116104e65780633fc08b65116104c15780633fc08b651461091a578063411aa28c1461094557806342277d7014610964575f5ffd5b80633b12eccb146108a85780633c0f20fc146108db5780633e9ebfc2146108fb575f5ffd5b80632fe35274116105165780632fe352741461081057806336568abe1461083e57806338b903331461085d575f5ffd5b80632c3c67d0146107bc5780632c70645c146107db5780632f2ff15d146107f1575f5ffd5b80632130d8121161059b578063248c612611610576578063248c61261461075257806328958174146107655780632acc8df914610784575f5ffd5b80632130d812146106e257806321b4deee1461070e578063248a9ca314610724575f5ffd5b8063085b1c6f116105cb578063085b1c6f1461065b5780631065a3991461068e578063198330f8146106af575f5ffd5b806301ffc9a7146105e657806303134d1d1461061a575b5f5ffd5b3480156105f1575f5ffd5b50610605610600366004615ad8565b611352565b60405190151581526020015b60405180910390f35b348015610625575f5ffd5b5061064d7f1ab87f7458c0e3d07e9881c14ee67f0141703614fd48ea5b15ed987e5f4b030e81565b604051908152602001610611565b348015610666575f5ffd5b5061064d7f220bd22ef7c53d75fe3eac0a09e90815a0c5ba4f9e8da8b039542cd3db34725881565b348015610699575f5ffd5b506106ad6106a8366004615b2a565b6113ea565b005b3480156106ba575f5ffd5b5061064d7f76ef52a5344b10ed112c1d48c7c06f51e919518ea6fb005f9b25b359b955e3be81565b3480156106ed575f5ffd5b5061064d6106fc366004615b43565b5f9081526101be602052604090205490565b348015610719575f5ffd5b5061064d6203f48081565b34801561072f575f5ffd5b5061064d61073e366004615b43565b5f9081526065602052604090206001015490565b6106ad610760366004615bbe565b61157a565b348015610770575f5ffd5b506106ad61077f366004615b43565b611742565b34801561078f575f5ffd5b506101c0546107a4906001600160a01b031681565b6040516001600160a01b039091168152602001610611565b3480156107c7575f5ffd5b506106ad6107d6366004615c23565b6117ea565b3480156107e6575f5ffd5b5061064d6101835481565b3480156107fc575f5ffd5b506106ad61080b366004615c5a565b611939565b34801561081b575f5ffd5b507401000000000000000000000000000000000000000060015c0460ff16610605565b348015610849575f5ffd5b506106ad610858366004615c5a565b611962565b348015610868575f5ffd5b50604080518082018252600381527f382e300000000000000000000000000000000000000000000000000000000000602082015290516106119190615c88565b3480156108b3575f5ffd5b5061064d7fb6cc65f42901ed602aec1619cc1ead29d487cd489094a37615153eaeb991d77081565b3480156108e6575f5ffd5b506101c1546107a4906001600160a01b031681565b348015610906575f5ffd5b506106ad610915366004615cbd565b611970565b348015610925575f5ffd5b5061064d610934366004615b43565b60a56020525f908152604090205481565b348015610950575f5ffd5b506106ad61095f366004615c5a565b611acf565b34801561096f575f5ffd5b5061064d7f012c76ef7f96cd7eb95acbdc250ad5696bbe3fd2fcf0207571939fa40c2e016781565b3480156109a2575f5ffd5b506109ab600181565b60405160ff9091168152602001610611565b3480156109c8575f5ffd5b506106ad6109d7366004615ce5565b611dce565b3480156109e7575f5ffd5b506106ad6109f6366004615c5a565b61209c565b348015610a06575f5ffd5b5061064d7fb63b70db607c764adad98a6745fc4efcea212ebc7b501d5753c57d675f377a6681565b348015610a39575f5ffd5b5061064d7f0cf0d2deb70d7bdac2fa48c4ac99bc558170be0ce5fcb994caefa4bf7b96edf981565b348015610a6c575f5ffd5b506106ad610a7b366004615cbd565b6121ec565b348015610a8b575f5ffd5b5061064d6101c55481565b348015610aa1575f5ffd5b506106ad610ab0366004615b43565b61234b565b348015610ac0575f5ffd5b506106ad610acf366004615b43565b6123ec565b348015610adf575f5ffd5b5061064d60995481565b348015610af4575f5ffd5b5061064d610b03366004615b43565b60a66020525f908152604090205481565b348015610b1f575f5ffd5b5061064d6201518081565b348015610b35575f5ffd5b5061064d610b44366004615b43565b6101506020525f908152604090205481565b348015610b61575f5ffd5b5061064d7fe37c272ea30e2bb381ad7cf89ae754b49153250609f36d0cbdad8b64c184bb5c81565b348015610b94575f5ffd5b506106ad610ba3366004615d86565b6124b2565b348015610bb3575f5ffd5b5060015c6001600160a01b03166107a4565b348015610bd0575f5ffd5b5061064d6101195481565b348015610be6575f5ffd5b5061064d7fd8b4c34c2ec1f3194471108c64ad2beda340c0337ee4ca35592f9ef270f4228b81565b348015610c19575f5ffd5b506106ad610c28366004615dc0565b612649565b348015610c38575f5ffd5b5061064d7f32937fd5162e282df7e9a14a5073a2425321c7966eaf70ed6c838a1006d84c4c81565b348015610c6b575f5ffd5b5061064d7f4b4665d8754e6ea0608430ef3e91c1b45c72aafe8800e289cd35f38d8536185881565b348015610c9e575f5ffd5b506109ab600281565b348015610cb2575f5ffd5b506106ad610cc1366004615e04565b61288e565b348015610cd1575f5ffd5b506106ad610ce0366004615e1f565b6128c1565b348015610cf0575f5ffd5b5061064d7f4df33217c89b6f12af38ba46035cb312b5e88de78d22279286830fe079b642cd81565b348015610d23575f5ffd5b506109ab5f81565b348015610d36575f5ffd5b507f594904a11ae10ad7613c91ac3c92c7c3bba397934d377ce6d3e0aaffbc17df00546001600160a01b03166107a4565b348015610d72575f5ffd5b5061064d610d81366004615b43565b61011a6020525f908152604090205481565b348015610d9e575f5ffd5b506106ad610dad366004615e04565b612a72565b348015610dbd575f5ffd5b5061064d7fe1fce82838dd7a42cfe783f60dc6233c8aa2c4fc66e77817805e767ec5e349b681565b348015610df0575f5ffd5b5061064d610dff366004615b43565b61014e6020525f908152604090205481565b348015610e1c575f5ffd5b50610605610e2b366004615c5a565b5f9182526065602090815260408084206001600160a01b0393909316845291905290205460ff1690565b348015610e60575f5ffd5b5061064d6101bf5481565b348015610e76575f5ffd5b5061064d7fcc10d6eec3c757d645e27b3f3001a3ba52f692da0bce25fabf58c6ecaf37645081565b348015610ea9575f5ffd5b5061064d610eb8366004615b43565b6101c36020525f908152604090205481565b348015610ed5575f5ffd5b5061064d60dd5481565b348015610eea575f5ffd5b506106ad610ef9366004615b2a565b612b41565b348015610f09575f5ffd5b506106ad610f18366004615e97565b612c60565b348015610f28575f5ffd5b5061064d7f56bdc3c9ec86cb7db110a7699b2ade72f0b8819727d9f7d906b012641505fa7781565b348015610f5b575f5ffd5b50610605610f6a366004615b43565b612ca9565b6106ad610f7d366004615f14565b612ccc565b348015610f8d575f5ffd5b5061064d5f81565b348015610fa0575f5ffd5b5061064d6101c25481565b348015610fb6575f5ffd5b5061064d7f21aba2dd4535739d4ca4cddb3c024036bfcc88cfce067cb0847e7ad0f9cfaa5581565b348015610fe9575f5ffd5b506107a4610ff8366004615b43565b61011b6020525f90815260409020546001600160a01b031681565b34801561101e575f5ffd5b5061064d60985481565b348015611033575f5ffd5b5061064d611042366004615b43565b6101c46020525f908152604090205481565b34801561105f575f5ffd5b5061064d7fdaafd36d8da81d5104d4fd21e3ccc58683c62ba08cd23875bcfbc0583a3f49dd81565b348015611092575f5ffd5b506106ad612cea565b6106ad612d45565b3480156110ae575f5ffd5b5061064d60e45481565b3480156110c3575f5ffd5b5061064d7f430a7f0cb00b5ebbe63cecc96e82cf959a883e7c13a95110854f1fa6b3fbf59881565b3480156110f6575f5ffd5b5061064d7f1453a531db80c85f2d944d498709d84959bc5bf839eefe9acb784571e5a3211881565b348015611129575f5ffd5b50610605611138366004615b2a565b612db3565b348015611148575f5ffd5b5061064d7f1185e52d62bfbbea270e57d3d09733d221b53ab7a18bae82bb3c6c74bab16d8281565b34801561117b575f5ffd5b5061064d609a5481565b348015611190575f5ffd5b5061064d60975481565b3480156111a5575f5ffd5b506106ad6111b4366004615f6c565b612dd7565b3480156111c4575f5ffd5b506101c6546107a4906001600160a01b031681565b3480156111e4575f5ffd5b5061064d7fe8cb6172fcf5cbaae022b7c910224a4f0c20d53227e630056efff182155a5abc81565b348015611217575f5ffd5b5061064d6101bd5481565b34801561122d575f5ffd5b506106ad61123c366004615c5a565b612eb9565b34801561124c575f5ffd5b5061064d7f6b5661ddfbd1fbd525c902a513e0f47d9c74f1c1ee8a2d4f1937ad305fb8f41a81565b34801561127f575f5ffd5b506106ad61128e366004615f88565b612edd565b34801561129e575f5ffd5b506106ad6112ad366004615b2a565b6130a1565b3480156112bd575f5ffd5b506106ad6112cc366004615b43565b613279565b3480156112dc575f5ffd5b506101bf546101c2545f19015f9081526101c46020526040902054610119546101c554604080519485526020850193909352918301526060820152608001610611565b34801561132a575f5ffd5b5061064d7f97667070c54ef182b0f5858b034beac1b6f3089aa2d3188bb1e8929f4fa9b92981565b5f7fffffffff0000000000000000000000000000000000000000000000000000000082167f7965db0b0000000000000000000000000000000000000000000000000000000014806113e457507f01ffc9a7000000000000000000000000000000000000000000000000000000007fffffffff000000000000000000000000000000000000000000000000000000008316145b92915050565b805f81600d8111156113fe576113fe615fed565b03611435576040517f85994c7700000000000000000000000000000000000000000000000000000000815260040160405180910390fd5b60dc5f83600d81111561144a5761144a615fed565b600d81111561145b5761145b615fed565b81526020019081526020015f20546114728161332d565b61147b83612db3565b6114bc57826040517f186596540000000000000000000000000000000000000000000000000000000081526004016114b39190616053565b60405180910390fd5b335f9081527f74a8627e7e8109f70747bbdf2c891159d40f925b9c8f09259a497b8c31b3780b602052604090205460ff1615611503576114ff620151804261608e565b60dd555b82600d81111561151557611515615fed565b60da8054600190921b19909116905582600d81111561153657611536615fed565b7fd071d2b85dec4489435b541d2f0e2570db09b09db9efd8703948d44a433df65a335b6040516001600160a01b0390911681526020015b60405180910390a2505050565b7fb63b70db607c764adad98a6745fc4efcea212ebc7b501d5753c57d675f377a666115a48161332d565b816115db576040517fafd51dbf00000000000000000000000000000000000000000000000000000000815260040160405180910390fd5b5f8411611614576040517f9cf8540c00000000000000000000000000000000000000000000000000000000815260040160405180910390fd5b6001600160a01b03851661163b576040516342bcdf7f60e11b815260040160405180910390fd5b85611672576040517f0742d05300000000000000000000000000000000000000000000000000000000815260040160405180910390fd5b6101c28054600181019091555f1981015f9081526101c36020526040902054859081116116ce576040517fbeb1b9480000000000000000000000000000000000000000000000000000000081526004016114b391815260200190565b505f8181526101c4602090815260408083208a90556101c390915290819020869055516001600160a01b0387169082907f8fbc8fbd65675eb32c567d4a559963c7d002c2be67b5b266fb13d85b4375fce5906117319089908c908a908a906160ca565b60405180910390a350505050505050565b7f6b5661ddfbd1fbd525c902a513e0f47d9c74f1c1ee8a2d4f1937ad305fb8f41a61176c8161332d565b5f82815261011b602090815260408083205490516001600160a01b0390911681523392859290917f4a29db3fc6b42bda201e4b4d69ce8d575eeeba5f153509c0d0a342af0f1bd021910160405180910390a4505f90815261011b60205260409020805473ffffffffffffffffffffffffffffffffffffffff19169055565b6117f762f099c0826160f3565b421015611830576040517f4306cbb100000000000000000000000000000000000000000000000000000000815260040160405180910390fd5b6040805186815260208101869052908101849052606081018390526080810182905260a090206101bf54146118c5576101bf546040805187815260208101879052908101859052606081018490526080810183905260a090205b6040517fbc5aad11000000000000000000000000000000000000000000000000000000008152600481019290925260248201526044016114b3565b6101c0546001600160a01b03166118fc7f97667070c54ef182b0f5858b034beac1b6f3089aa2d3188bb1e8929f4fa9b9298261333a565b6040516001600160a01b0382169033907f6cfaf6b76ea493a8e88b6b95f7b34cdaae196c4ed737b32e72c5d9e8d0a18518905f90a3505050505050565b5f828152606560205260409020600101546119538161332d565b61195d838361333a565b505050565b61196c82826133f8565b5050565b815f81600d81111561198457611984615fed565b036119bb576040517f85994c7700000000000000000000000000000000000000000000000000000000815260040160405180910390fd5b7f1453a531db80c85f2d944d498709d84959bc5bf839eefe9acb784571e5a321186119e58161332d565b5f60db5f86600d8111156119fb576119fb615fed565b600d811115611a0c57611a0c615fed565b81526020019081526020015f20549050838103611a55576040517f1b807f5500000000000000000000000000000000000000000000000000000000815260040160405180910390fd5b8360db5f87600d811115611a6b57611a6b615fed565b600d811115611a7c57611a7c615fed565b815260208101919091526040015f2055808486600d811115611aa057611aa0615fed565b6040517f074bfc3728ef1e98bde10bcb5bd8cde59cff190c2bfda5d22f879f865a07bac5905f90a45050505050565b5f54600990610100900460ff16158015611aef57505f5460ff8083169116105b611b615760405162461bcd60e51b815260206004820152602e60248201527f496e697469616c697a61626c653a20636f6e747261637420697320616c72656160448201527f647920696e697469616c697a656400000000000000000000000000000000000060648201526084016114b3565b5f80547fffffffffffffffffffffffffffffffffffffffffffffffffffffffffffff00001660ff8316176101001790557fb53127684a568b3173ae13b9f8a6016e243e63b6e8ee1178d6a717850b5d610354336001600160a01b03821614611bf5576040517feca393e800000000000000000000000000000000000000000000000000000000815260040160405180910390fd5b5f8411611c2e576040517f9cf8540c00000000000000000000000000000000000000000000000000000000815260040160405180910390fd5b6001600160a01b038316611c55576040516342bcdf7f60e11b815260040160405180910390fd5b6101c58490556101c6805473ffffffffffffffffffffffffffffffffffffffff19166001600160a01b0385161790556040518481527fc4733b619696e38077e1b19371d193f42b20a279e3445c3b2b9f4d58db36bc6b9060200160405180910390a1604080515f81526001600160a01b03851660208201527f70a40b63da92dd99e111281bc23dfb08922b6d1337f71f895cf498eb60ff7a0b910160405180910390a160016101c2556040517f382e300000000000000000000000000000000000000000000000000000000000907f372e310000000000000000000000000000000000000000000000000000000000907f2f8492a7a430cf917798dfb60bc5af634f68e6c40287947df0ea6f7ec0669bd8905f90a3505f80547fffffffffffffffffffffffffffffffffffffffffffffffffffffffffffff00ff16905560405160ff821681527f7f26b83ff96e1f2b6a682f133852f6798a09c465da95921460cefb3847402498906020015b60405180910390a1505050565b60015f5c03611e09576040517f37ed32e800000000000000000000000000000000000000000000000000000000815260040160405180910390fd5b6001805f5d5085878484875f5a9050611e22600361344b565b8d6001805c73ffffffffffffffffffffffffffffffffffffffff19166001600160a01b03831617905d505f611e5c8f8f8f8f8c8f8f6134dd565b9050611e6781613536565b611e79611e748d8f6160f3565b613590565b5f5f8f6001600160a01b03168e8d8d604051611e96929190616106565b5f6040518083038185875af1925050503d805f8114611ed0576040519150601f19603f3d011682016040523d82523d5f602084013e611ed5565b606091505b509150915081611f3257805115611eef5780518082602001fd5b8f6040517f546134430000000000000000000000000000000000000000000000000000000081526004016114b391906001600160a01b0391909116815260200190565b5f6001805c73ffffffffffffffffffffffffffffffffffffffff1916905d5060405183907fa4c827e719e911e8f19393ccdb85b5102f08f0910604d340ba38390b7ff2ab0e905f90a250508615905061208657855f849003611ffc57853b158015611ffa573a5a611fa561bc7c866160f3565b611faf919061608e565b611fb99190616115565b915081881115611ff6576001600160a01b0387166108fc611fda848b61608e565b6040518115909202915f818181858888f1935050505050611ffa565b8791505b505b5f6001600160a01b038416156120125783612014565b335b90505f816001600160a01b03166108fc8490811502906040515f60405180830381858888f19350505050905080612082576040517fa57c4df40000000000000000000000000000000000000000000000000000000081526001600160a01b03831660048201526024016114b3565b5050505b5050505050505f5f81905d505050505050505050565b60026120a78161344b565b7f594904a11ae10ad7613c91ac3c92c7c3bba397934d377ce6d3e0aaffbc17df00546001600160a01b0316331461210a576040517fa1cfbf5900000000000000000000000000000000000000000000000000000000815260040160405180910390fd5b6001600160a01b038216612131576040516342bcdf7f60e11b815260040160405180910390fd5b60e480545f91826121418361612c565b9091555060408051308152602081018690525f918101829052606081018790526080810183905260c060a08201819052810182905260e09020919250506121888282613606565b604080515f80825260208201889052818301859052608060608301819052820152905182916001600160a01b0387169133917fe856c2b8bd4eb0027ce32eeaf595c21b0b6b4644b326e5b7bd80a1cf8db72e6c919081900360a00190a45050505050565b815f81600d81111561220057612200615fed565b03612237576040517f85994c7700000000000000000000000000000000000000000000000000000000815260040160405180910390fd5b7f1453a531db80c85f2d944d498709d84959bc5bf839eefe9acb784571e5a321186122618161332d565b5f60dc5f86600d81111561227757612277615fed565b600d81111561228857612288615fed565b81526020019081526020015f205490508381036122d1576040517f1b807f5500000000000000000000000000000000000000000000000000000000815260040160405180910390fd5b8360dc5f87600d8111156122e7576122e7615fed565b600d8111156122f8576122f8615fed565b815260208101919091526040015f2055808486600d81111561231c5761231c615fed565b6040517ff8ef9f1cde7c2c0d3aeb696678f76d7c1c3e13c3b79ea3c5160a2d9eaa821cfd905f90a45050505050565b7fdaafd36d8da81d5104d4fd21e3ccc58683c62ba08cd23875bcfbc0583a3f49dd6123758161332d565b5f82116123ae576040517f9cf8540c00000000000000000000000000000000000000000000000000000000815260040160405180910390fd5b6101c58290556040518281527fc4733b619696e38077e1b19371d193f42b20a279e3445c3b2b9f4d58db36bc6b906020015b60405180910390a15050565b7f1185e52d62bfbbea270e57d3d09733d221b53ab7a18bae82bb3c6c74bab16d826124168161332d565b5f5f5f42609954101561243b5760975461243090426160f3565b60995550600161244d565b609a5485101561244d57849250600191505b6098859055808061245b5750815b1561246657609a8390555b60408051868152831515602082015282151581830152905133917fbc3dc0cb5c15c51c81316450d44048838bb478b9809447d01c766a06f3e9f2c8919081900360600190a25050505050565b60015f5c036124ed576040517f37ed32e800000000000000000000000000000000000000000000000000000000815260040160405180910390fd5b6001805f5d5060a081018035906125079060808401615e04565b612515610120840184616144565b612526610100860160e08701615e04565b5f5a905061253387613663565b851561263a57855f8490036125b057853b1580156125ae573a5a61255961bc7c866160f3565b612563919061608e565b61256d9190616115565b9150818811156125aa576001600160a01b0387166108fc61258e848b61608e565b6040518115909202915f818181858888f19350505050506125ae565b8791505b505b5f6001600160a01b038416156125c657836125c8565b335b90505f816001600160a01b03166108fc8490811502906040515f60405180830381858888f19350505050905080612636576040517fa57c4df40000000000000000000000000000000000000000000000000000000081526001600160a01b03831660048201526024016114b3565b5050505b5050505050505f5f81905d5050565b60015f5c03612684576040517f37ed32e800000000000000000000000000000000000000000000000000000000815260040160405180910390fd5b6001805f5d50478260c00135116126c7576040517f62d5cfe000000000000000000000000000000000000000000000000000000000815260040160405180910390fd5b6126d760a0830160808401615e04565b6001600160a01b0316336001600160a01b031614612721576040517f0a5c9f3500000000000000000000000000000000000000000000000000000000815260040160405180910390fd5b5f61272b8361394a565b905060017fffffffffffffffffffffff00ffffffffffffffffffffffffffffffffffffffff815c167401000000000000000000000000000000000000000017815d507f594904a11ae10ad7613c91ac3c92c7c3bba397934d377ce6d3e0aaffbc17df00546001600160a01b0316633e4903b78360c08601356127b360a0880160808901615e04565b60405160e085901b7fffffffff000000000000000000000000000000000000000000000000000000001681526001600160a01b039384166004820152602481019290925290911660448201526064015f604051808303815f87803b158015612819575f5ffd5b505af115801561282b573d5f5f3e3d5ffd5b505f925050506001805c7fffffffffffffffffffffff00ffffffffffffffffffffffffffffffffffffffff16905d5060405181907fa4c827e719e911e8f19393ccdb85b5102f08f0910604d340ba38390b7ff2ab0e905f90a2505f80805d505050565b7f76ef52a5344b10ed112c1d48c7c06f51e919518ea6fb005f9b25b359b955e3be6128b88161332d565b61196c82613a42565b60066128cc8161344b565b7f97667070c54ef182b0f5858b034beac1b6f3089aa2d3188bb1e8929f4fa9b9296128f68161332d565b5f859003612930576040517f7907d79b00000000000000000000000000000000000000000000000000000000815260040160405180910390fd5b610119545f81815261011a602052604090205484351461297c576040517fead4c30e00000000000000000000000000000000000000000000000000000000815260040160405180910390fd5b6101bd545f86815261011b60205260409020546001600160a01b0316806129cf576040517f69ed70ab00000000000000000000000000000000000000000000000000000000815260040160405180910390fd5b6101e08601355f9081526101c46020526040902054612a66612a5e88856129f7828987613afe565b8886886001600160a01b031663b02384ad6040518163ffffffff1660e01b8152600401602060405180830381865afa158015612a35573d5f5f3e3d5ffd5b505050506040513d601f19601f82011682018060405250810190612a599190616187565b613f10565b838c8c614011565b50505050505050505050565b7f012c76ef7f96cd7eb95acbdc250ad5696bbe3fd2fcf0207571939fa40c2e0167612a9c8161332d565b6001600160a01b038216612ac3576040516342bcdf7f60e11b815260040160405180910390fd5b6101c6546001600160a01b03908116908316811461195d576101c6805473ffffffffffffffffffffffffffffffffffffffff19166001600160a01b0385811691821790925560408051928416835260208301919091527f70a40b63da92dd99e111281bc23dfb08922b6d1337f71f895cf498eb60ff7a0b9101611dc1565b805f81600d811115612b5557612b55615fed565b03612b8c576040517f85994c7700000000000000000000000000000000000000000000000000000000815260040160405180910390fd5b612b9582612db3565b612bcd57816040517f186596540000000000000000000000000000000000000000000000000000000081526004016114b39190616053565b60dd54421015612c0f5760dd546040517fcfd8aa6f0000000000000000000000000000000000000000000000000000000081526004016114b391815260200190565b81600d811115612c2157612c21615fed565b60da8054600190921b1990911690556040517f3ddaeb19197ed3b5334f4c1cd5716f663d0f6dce30c52800bd1674da0b88e87a906123e0908490616053565b600d612c6b8161344b565b7f97667070c54ef182b0f5858b034beac1b6f3089aa2d3188bb1e8929f4fa9b929612c958161332d565b612ca186868686614208565b505050505050565b600881901c5f90815261014f6020526040812054600160ff84161b1615156113e4565b6002612cd78161344b565b612ce3858585856143db565b5050505050565b7f0cf0d2deb70d7bdac2fa48c4ac99bc558170be0ce5fcb994caefa4bf7b96edf9612d148161332d565b5f609a81905560405133917fba88c025b0cbb77022c0c487beef24f759f1e4be2f51a205bc427cee19c2eaa691a250565b345f03612d7e576040517f717e6b7b00000000000000000000000000000000000000000000000000000000815260040160405180910390fd5b6040513481527fe455499c2acd509bdadebaf5a8fd54c083da31dbe98e785f2a72cdff04e32e009060200160405180910390a1565b5f81600d811115612dc657612dc6615fed565b60da54600190911b16151592915050565b7f32937fd5162e282df7e9a14a5073a2425321c7966eaf70ed6c838a1006d84c4c612e018161332d565b6001600160a01b038316612e28576040516342bcdf7f60e11b815260040160405180910390fd5b5f82815261011b60209081526040918290205491516001600160a01b03928316815233928592908716917f4a29db3fc6b42bda201e4b4d69ce8d575eeeba5f153509c0d0a342af0f1bd021910160405180910390a4505f90815261011b60205260409020805473ffffffffffffffffffffffffffffffffffffffff19166001600160a01b0392909216919091179055565b5f82815260656020526040902060010154612ed38161332d565b61195d83836144d8565b5f54610100900460ff1615808015612efb57505f54600160ff909116105b80612f145750303b158015612f1457505f5460ff166001145b612f865760405162461bcd60e51b815260206004820152602e60248201527f496e697469616c697a61626c653a20636f6e747261637420697320616c72656160448201527f647920696e697469616c697a656400000000000000000000000000000000000060648201526084016114b3565b5f80547fffffffffffffffffffffffffffffffffffffffffffffffffffffffffffffff001660011790558015612fe2575f80547fffffffffffffffffffffffffffffffffffffffffffffffffffffffffffff00ff166101001790555b604080515f8082526020808301829052873583850152606083018290526080830182905260a09092208082526101be90925291909120600190556130268582614577565b61302f846147f6565b61303883614876565b50801561309b575f80547fffffffffffffffffffffffffffffffffffffffffffffffffffffffffffff00ff169055604051600181527f7f26b83ff96e1f2b6a682f133852f6798a09c465da95921460cefb38474024989060200160405180910390a15b50505050565b805f81600d8111156130b5576130b5615fed565b036130ec576040517f85994c7700000000000000000000000000000000000000000000000000000000815260040160405180910390fd5b60db5f83600d81111561310157613101615fed565b600d81111561311257613112615fed565b81526020019081526020015f20546131298161332d565b61313283612db3565b1561316b57826040517fc0a71b580000000000000000000000000000000000000000000000000000000081526004016114b39190616053565b335f9081527f74a8627e7e8109f70747bbdf2c891159d40f925b9c8f09259a497b8c31b3780b602052604090205460ff16156131ca577ffffffffffffffffffffffffffffffffffffffffffffffffffffffffffffeae7f60dd55613220565b6201518060dd5401421015613216576201518060dd54016040517fc04205ee0000000000000000000000000000000000000000000000000000000081526004016114b391815260200190565b426203f4800160dd555b82600d81111561323257613232615fed565b60da8054600190921b909117905582600d81111561325257613252615fed565b7f534f879afd40abb4e39f8e1b77a316be4c8e3521d9cf5a3a3db8959d574d455933611559565b60096132848161344b565b7f220bd22ef7c53d75fe3eac0a09e90815a0c5ba4f9e8da8b039542cd3db3472586132ae8161332d565b7f594904a11ae10ad7613c91ac3c92c7c3bba397934d377ce6d3e0aaffbc17df00546001600160a01b03166001600160a01b0316637ab19c10846040518263ffffffff1660e01b81526004015f604051808303818588803b158015613311575f5ffd5b505af1158015613323573d5f5f3e3d5ffd5b5050505050505050565b61333781336148fb565b50565b5f8281526065602090815260408083206001600160a01b038516845290915290205460ff1661196c575f8281526065602090815260408083206001600160a01b0385168452909152902080547fffffffffffffffffffffffffffffffffffffffffffffffffffffffffffffff001660011790556133b43390565b6001600160a01b0316816001600160a01b0316837f2f8788117e7eff1d82e926ec794901d17c78024a50270940304540a733656f0d60405160405180910390a45050565b6101c0546001600160a01b0390811690821603613441576040517f9395197f00000000000000000000000000000000000000000000000000000000815260040160405180910390fd5b61196c828261496f565b60da5481600d81111561346057613460615fed565b6001901b81161561349f57816040517fc0a71b580000000000000000000000000000000000000000000000000000000081526004016114b39190616053565b600281161561196c5760016040517fc0a71b580000000000000000000000000000000000000000000000000000000081526004016114b39190616053565b5f60405188815287602082015286604082015285606082015284608082015260c060a08201528260c0820152602083065f811561351b578160200390505b848660e085013790930160e001902098975050505050505050565b5f81815260a66020526040902054600114613580576040517f992d87c3000000000000000000000000000000000000000000000000000000008152600481018290526024016114b3565b5f90815260a66020526040812055565b8015613337574260995410156135b5576097546135ad90426160f3565b6099556135c5565b609a546135c290826160f3565b90505b609854811115613601576040517fa74c1c5f00000000000000000000000000000000000000000000000000000000815260040160405180910390fd5b609a55565b5f1982015f90815261014e60208181526040808420548452848252808420868552929091528083208290555190918391839186917fea3b023b4c8680d4b4824f0143132c95476359a2bb70a81d6c5a36f6918f63399190a4505050565b61366d600361344b565b6101008101355f9081526101506020526040812054908190036136bc576040517f4e68667500000000000000000000000000000000000000000000000000000000815260040160405180910390fd5b6136c6828061619e565b9050811461371557806136d9838061619e565b6040517f5e3fd6ad00000000000000000000000000000000000000000000000000000000815260048101939093526024830152506044016114b3565b61372282602001356149f7565b613737611e7460c084013560a08501356160f3565b5f61377d61374b6080850160608601615e04565b61375b60a0860160808701615e04565b60a086013560c087013560208801356137786101208a018a616144565b6134dd565b90506137a88161378d858061619e565b61379d60608801604089016161e4565b876101000135614a6f565b6137de576040517fb05e92fa00000000000000000000000000000000000000000000000000000000815260040160405180910390fd5b6137ee6080840160608501615e04565b6001805c73ffffffffffffffffffffffffffffffffffffffff19166001600160a01b03831617905d505f8061382960a0860160808701615e04565b6001600160a01b031660c0860135613845610120880188616144565b604051613853929190616106565b5f6040518083038185875af1925050503d805f811461388d576040519150601f19603f3d011682016040523d82523d5f602084013e613892565b606091505b5091509150816138fa578051156138ac5780518082602001fd5b6138bc60a0860160808701615e04565b6040517f546134430000000000000000000000000000000000000000000000000000000081526001600160a01b0390911660048201526024016114b3565b5f6001805c73ffffffffffffffffffffffffffffffffffffffff1916905d5060405183907fa4c827e719e911e8f19393ccdb85b5102f08f0910604d340ba38390b7ff2ab0e905f90a25050505050565b5f613955600361344b565b6101008201355f9081526101506020526040812054908190036139a4576040517f4e68667500000000000000000000000000000000000000000000000000000000815260040160405180910390fd5b6139ae838061619e565b905081146139c157806136d9848061619e565b6139ce83602001356149f7565b6139e3611e7460c085013560a08601356160f3565b6139f661374b6080850160608601615e04565b9150613a068261378d858061619e565b613a3c576040517fb05e92fa00000000000000000000000000000000000000000000000000000000815260040160405180910390fd5b50919050565b613a4b81614b7c565b7feb44f28f73dc4d72ac2ee43ebf59a1e0c84c11c4d614746c0dc99d9071abd8f97f594904a11ae10ad7613c91ac3c92c7c3bba397934d377ce6d3e0aaffbc17df0054604080516001600160a01b03928316815291841660208301520160405180910390a17f594904a11ae10ad7613c91ac3c92c7c3bba397934d377ce6d3e0aaffbc17df00805473ffffffffffffffffffffffffffffffffffffffff19166001600160a01b0392909216919091179055565b5f613b13846101800135856101400135614ba3565b613b29613b2461024086018661619e565b614c70565b6101bf5460408051610160870135815261012087013560208201526101c087013591810191909152610200860135606082015260e0860135608082015260a090208114613bcb57604080516101608701358152610120870135602082015260e087013591810191909152606090208114613bcb57604080516101608701358152610120870135602082015260e08701359181019190915260609020819061188a565b4285610100013510613c16576040517fbf81c6e000000000000000000000000000000000000000000000000000000000815261010086013560048201524260248201526044016114b3565b6080850135613c51576040517f2898482a00000000000000000000000000000000000000000000000000000000815260040160405180910390fd5b60016101e0860135015f9081526101c360205260409020548015801590613c7c575085602001358111155b15613cbd576040517fb90e2e8400000000000000000000000000000000000000000000000000000000815260016101e08801350160048201526024016114b3565b50613d0160408601356060870135608088013560a089013560c08a0135604080519586526020860194909452928401919091526060830152608082015260a0902090565b6101c1546040517f2130d812000000000000000000000000000000000000000000000000000000008152600481018390529193506001600160a01b031690632130d81290602401602060405180830381865afa158015613d63573d5f5f3e3d5ffd5b505050506040513d601f19601f82011682018060405250810190613d879190616187565b5f03613dc2576040517fd35bb1d1000000000000000000000000000000000000000000000000000000008152600481018390526024016114b3565b613dde613dd361022087018761619e565b876101a00135614db4565b613df5613def610260870187616144565b86614eba565b6020808601355f81815261011a909252604090912060808701359055610119556101bd829055613e5e6101808601356101408701356101e0880135866101008a0135604080519586526020860194909452928401919091526060830152608082015260a0902090565b6101bf556040805161010087013581526101808701356020808301919091526101e088013582840152915191870135917f32e016ccc5c33419c35caa94023fdeb75143da613fb2ac738ab736404c09fc5d9181900360600190a2604080518635815260808701356020828101919091526001909601958492908801359187917fa0262dc79e4ccb71ceac8574ae906311ae338aa4a2044fd4ec4b99fad5ab60cb910160405180910390a4509392505050565b5f80613f2061024089018961619e565b604051602001613f31929190616207565b604051602081830303815290604052805190602001209050604051878152866020820152604060e08a0160408301378560808201526020808a0160a083013760806101208a0160c083013760206102008a016101408301378461016082015260406101c08a0161018083013760206101a08a016101c083013761020081016102208a01358a018035602081026020830184376020029091206101e0830152506102008101939093526102208301525061024090207f30644e72e131a029b85045b68181585d2833e84879b9709143e1f593f0000001900695945050505050565b6040805160018082528183019092525f916020808301908036833701905050905084815f8151811061404557614045616275565b6020026020010181815250505f5f856001600160a01b0316858585604051602401614072939291906162a2565b60408051601f198184030181529181526020820180517bffffffffffffffffffffffffffffffffffffffffffffffffffffffff167f7e4f7a8a00000000000000000000000000000000000000000000000000000000179052516140d59190616313565b5f604051808303815f865af19150503d805f811461410e576040519150601f19603f3d011682016040523d82523d5f602084013e614113565b606091505b5091509150816141ba5780511561415857602081017bffffffffffffffffffffffffffffffffffffffffffffffffffffffff81511663ca389c4460e01b178152815181fd5b6040517fca389c4400000000000000000000000000000000000000000000000000000000815260206004820152600760248201527f556e6b6e6f776e0000000000000000000000000000000000000000000000000060448201526064016114b3565b5f818060200190518101906141cf919061631e565b905080613323576040517f09bde33900000000000000000000000000000000000000000000000000000000815260040160405180910390fd5b5f839003614242576040517fb1504a5f00000000000000000000000000000000000000000000000000000000815260040160405180910390fd5b82491561427e576040517f8019aff7000000000000000000000000000000000000000000000000000000008152600481018490526024016114b3565b5f5f6142af6040518060a001604052805f815260200160608152602001606081526020015f81526020015f81525090565b845f5b87811015614388578888828181106142cc576142cc616275565b90506020028101906142de919061633d565b6142e79061642d565b81499450925083614327576040517fc0e41e1d000000000000000000000000000000000000000000000000000000008152600481018290526024016114b3565b60808301515f818152602086905260409020955061435585875f1c865f015187602001518860400151614f47565b6060848101518551604080519687526020870194909452928501528301869052608083015260a0909120906001016142b2565b50614398868684606001516150f4565b808514613323576040517fd3664fb300000000000000000000000000000000000000000000000000000000815260048101869052602481018290526044016114b3565b6001600160a01b038416614402576040516342bcdf7f60e11b815260040160405180910390fd5b3483111561443c576040517fb03b693200000000000000000000000000000000000000000000000000000000815260040160405180910390fd5b60e480545f918261444c8361612c565b9091555090505f61445d853461608e565b90505f61446f33888885878a8a6134dd565b905061447b8382613606565b80876001600160a01b0316336001600160a01b03167fe856c2b8bd4eb0027ce32eeaf595c21b0b6b4644b326e5b7bd80a1cf8db72e6c8986888b8b6040516144c79594939291906164ba565b60405180910390a450505050505050565b5f8281526065602090815260408083206001600160a01b038516845290915290205460ff161561196c575f8281526065602090815260408083206001600160a01b038516808552925280832080547fffffffffffffffffffffffffffffffffffffffffffffffffffffffffffffff0016905551339285917ff6391f5c32d9c69d2a47ea670b442974b53935d1edc7fd64eb21e047a839171b9190a45050565b5f6145886080840160608501615e04565b6001600160a01b0316036145af576040516342bcdf7f60e11b815260040160405180910390fd5b5f6145c261018084016101608501615e04565b6001600160a01b0316036145e9576040516342bcdf7f60e11b815260040160405180910390fd5b61460c6145f960e08401846164ea565b6146076101008601866164ea565b6151d6565b61461e82608001358360a00135615463565b5f61463161014084016101208501615e04565b6001600160a01b031603614658576040516342bcdf7f60e11b815260040160405180910390fd5b6146735f61466e61014085016101208601615e04565b61333a565b61468861468360c08401846164ea565b61550a565b6146986080830160608401615e04565b7f033d11f27e62ab919708ec716731da80d261a6e4253259b7acde9bf89d28ec18805473ffffffffffffffffffffffffffffffffffffffff19166001600160a01b03929092169190911790556020828101356101198190555f90815261011a82526040808220853590556101bd84905580518281529283018290528281018290526060830191909152830135608082015260a090206101bf5560016101c2555f61474a61016084016101408501615e04565b90506001600160a01b03811661475d5750305b6101c1805473ffffffffffffffffffffffffffffffffffffffff19166001600160a01b03831617905561479861018084016101608501615e04565b6101c6805473ffffffffffffffffffffffffffffffffffffffff19166001600160a01b03929092169190911790556040517fb7a0e2a7550321efd3f1e1e87374002f450d1d91a764816b28bf601f71bdf67990611dc1908590616609565b6001600160a01b03811661481d576040516342bcdf7f60e11b815260040160405180910390fd5b6101c0805473ffffffffffffffffffffffffffffffffffffffff19166001600160a01b03831690811790915560405133907fb341a9e6d33f272cb7b5a20b337763606cbb6c728e7a34cbd3191cdfa0f0cd07905f90a350565b5f54610100900460ff166148f25760405162461bcd60e51b815260206004820152602b60248201527f496e697469616c697a61626c653a20636f6e7472616374206973206e6f74206960448201527f6e697469616c697a696e6700000000000000000000000000000000000000000060648201526084016114b3565b61333781613a42565b5f8281526065602090815260408083206001600160a01b038516845290915290205460ff1661196c5761492d81615685565b614938836020615697565b60405160200161494992919061673d565b60408051601f198184030181529082905262461bcd60e51b82526114b391600401615c88565b6001600160a01b03811633146149ed5760405162461bcd60e51b815260206004820152602f60248201527f416363657373436f6e74726f6c3a2063616e206f6e6c792072656e6f756e636560448201527f20726f6c657320666f722073656c66000000000000000000000000000000000060648201526084016114b3565b61196c82826144d8565b600881901c5f90815261014f6020526040902054600160ff83161b1615614a4d576040517f335a4a90000000000000000000000000000000000000000000000000000000008152600481018290526024016114b3565b600881901c5f90815261014f602052604090208054600160ff84161b17905550565b5f80614a906001614a8187600261688a565b614a8b919061608e565b6158c1565b90508063ffffffff168463ffffffff161115614ae8576040517ff7ec909700000000000000000000000000000000000000000000000000000000815263ffffffff8086166004830152821660248201526044016114b3565b865f5b86811015614b6e57600163ffffffff8716821c81169003614b3857614b31888883818110614b1b57614b1b616275565b90506020020135835f9182526020526040902090565b9150614b66565b614b6382898984818110614b4e57614b4e616275565b905060200201355f9182526020526040902090565b91505b600101614aeb565b509092149695505050505050565b6001600160a01b038116613337576040516342bcdf7f60e11b815260040160405180910390fd5b815f03614be557801561196c576040517f0c256592000000000000000000000000000000000000000000000000000000008152600481018290526024016114b3565b80614c1f576040517f5228f4c8000000000000000000000000000000000000000000000000000000008152600481018390526024016114b3565b5f82815261014e6020526040902054811461196c576040517f36459fa000000000000000000000000000000000000000000000000000000000815260048101839052602481018290526044016114b3565b801561196c576101c6546001600160a01b03165f5b8281101561309b57816001600160a01b0316631d515083858584818110614cae57614cae616275565b9050602002016020810190614cc39190615e04565b6040517fffffffff0000000000000000000000000000000000000000000000000000000060e084901b1681526001600160a01b039091166004820152602401602060405180830381865afa158015614d1d573d5f5f3e3d5ffd5b505050506040513d601f19601f82011682018060405250810190614d41919061631e565b848483818110614d5357614d53616275565b9050602002016020810190614d689190615e04565b90614dab576040517fec4f874b0000000000000000000000000000000000000000000000000000000081526001600160a01b0390911660048201526024016114b3565b50600101614c85565b5f5b8281101561309b576101505f858584818110614dd457614dd4616275565b9050602002013581526020019081526020015f20545f14614e3d57838382818110614e0157614e01616275565b905060200201356040517fe5d144250000000000000000000000000000000000000000000000000000000081526004016114b391815260200190565b816101505f868685818110614e5457614e54616275565b9050602002013581526020019081526020015f208190555081848483818110614e7f57614e7f616275565b905060200201357f300e6f978eee6a4b0bba78dd8400dc64fd5652dbfc868a2258e16d0977be222b60405160405180910390a3600101614db6565b614ec5600283616895565b15614eff576040517f0c91d776000000000000000000000000000000000000000000000000000000008152600481018390526024016114b3565b5f5f5b83811015612ce3576040518582013560f01c9250838301907f3c116827db9db3a30c1a25db8b0ee4bab9d2b223560209cfd839601b621c726d905f90a2600201614f02565b7f73eda753299d7d483339d80809a1d80553bda402fffe5bfeffffffff00000001840693505f5f600a6001600160a01b03168787878787604051602001614f929594939291906168cd565b60408051601f1981840301815290829052614fac91616313565b5f60405180830381855afa9150503d805f8114614fe4576040519150601f19603f3d011682016040523d82523d5f602084013e614fe9565b606091505b509150915081615025576040517fa71194af00000000000000000000000000000000000000000000000000000000815260040160405180910390fd5b604081511461506d578051604080517ff75db3810000000000000000000000000000000000000000000000000000000081526114b39290600401918252602082015260400190565b60208101516040820151611000821415806150a857507f73eda753299d7d483339d80809a1d80553bda402fffe5bfeffffffff000000018114155b156150e9576040517f68dcad5f00000000000000000000000000000000000000000000000000000000815260048101839052602481018290526044016114b3565b505050505050505050565b5f8381526101be6020526040902054839061513e576040517fc77b964c0000000000000000000000000000000000000000000000000000000081526004016114b391815260200190565b505f8281526101be602052604090205482901561518a576040517fe69adeca0000000000000000000000000000000000000000000000000000000081526004016114b391815260200190565b505f8281526101be602090815260409182902060019055815185815290810183905283917f55f4c645c36aa5cd3f443d6be44d7a7a5df9d2100d7139dfc69d4289ee072319910161156d565b5f54610100900460ff166152525760405162461bcd60e51b815260206004820152602b60248201527f496e697469616c697a61626c653a20636f6e7472616374206973206e6f74206960448201527f6e697469616c697a696e6700000000000000000000000000000000000000000060648201526084016114b3565b5f5b8381101561535a5784848281811061526e5761526e616275565b9050604002016020013560db5f87878581811061528d5761528d616275565b6152a39260206040909202019081019150615b2a565b600d8111156152b4576152b4615fed565b600d8111156152c5576152c5615fed565b815260208101919091526040015f20558484828181106152e7576152e7616275565b9050604002016020013585858381811061530357615303616275565b6153199260206040909202019081019150615b2a565b600d81111561532a5761532a615fed565b6040517f33aa8fd1ce49e1761bc8d27fd53414bfefc45d690feed0ce55019d7d3aec6091905f90a3600101615254565b505f5b81811015612ce35782828281811061537757615377616275565b9050604002016020013560dc5f85858581811061539657615396616275565b6153ac9260206040909202019081019150615b2a565b600d8111156153bd576153bd615fed565b600d8111156153ce576153ce615fed565b815260208101919091526040015f20558282828181106153f0576153f0616275565b9050604002016020013583838381811061540c5761540c616275565b6154229260206040909202019081019150615b2a565b600d81111561543357615433615fed565b6040517fe7bf4b8dc0c17a52dc9e52323a3ab61cb2079db35f969125b1f8a3d984c6f6c2905f90a360010161535d565b5f54610100900460ff166154df5760405162461bcd60e51b815260206004820152602b60248201527f496e697469616c697a61626c653a20636f6e7472616374206973206e6f74206960448201527f6e697469616c697a696e6700000000000000000000000000000000000000000060648201526084016114b3565b6154e761590e565b6154ef61590e565b6154f761590e565b615501828261598c565b5050600160e455565b5f54610100900460ff166155865760405162461bcd60e51b815260206004820152602b60248201527f496e697469616c697a61626c653a20636f6e7472616374206973206e6f74206960448201527f6e697469616c697a696e6700000000000000000000000000000000000000000060648201526084016114b3565b5f5b8181101561195d575f8383838181106155a3576155a3616275565b6155b99260206040909202019081019150615e04565b6001600160a01b0316036155e0576040516342bcdf7f60e11b815260040160405180910390fd5b8282828181106155f2576155f2616275565b905060400201602001355f5f1b03615636576040517f0742d05300000000000000000000000000000000000000000000000000000000815260040160405180910390fd5b61567d83838381811061564b5761564b616275565b9050604002016020013584848481811061566757615667616275565b61466e9260206040909202019081019150615e04565b600101615588565b60606113e46001600160a01b03831660145b60605f6156a5836002616115565b6156b09060026160f3565b67ffffffffffffffff8111156156c8576156c8616248565b6040519080825280601f01601f1916602001820160405280156156f2576020820181803683370190505b5090507f3000000000000000000000000000000000000000000000000000000000000000815f8151811061572857615728616275565b60200101907effffffffffffffffffffffffffffffffffffffffffffffffffffffffffffff191690815f1a9053507f78000000000000000000000000000000000000000000000000000000000000008160018151811061578a5761578a616275565b60200101907effffffffffffffffffffffffffffffffffffffffffffffffffffffffffffff191690815f1a9053505f6157c4846002616115565b6157cf9060016160f3565b90505b600181111561586b577f303132333435363738396162636465660000000000000000000000000000000085600f166010811061581057615810616275565b1a60f81b82828151811061582657615826616275565b60200101907effffffffffffffffffffffffffffffffffffffffffffffffffffffffffffff191690815f1a90535060049490941c93615864816168f3565b90506157d2565b5083156158ba5760405162461bcd60e51b815260206004820181905260248201527f537472696e67733a20686578206c656e67746820696e73756666696369656e7460448201526064016114b3565b9392505050565b5f63ffffffff82111561590a576040517f6dfcc65000000000000000000000000000000000000000000000000000000000815260206004820152602481018390526044016114b3565b5090565b5f54610100900460ff1661598a5760405162461bcd60e51b815260206004820152602b60248201527f496e697469616c697a61626c653a20636f6e7472616374206973206e6f74206960448201527f6e697469616c697a696e6700000000000000000000000000000000000000000060648201526084016114b3565b565b5f54610100900460ff16615a085760405162461bcd60e51b815260206004820152602b60248201527f496e697469616c697a61626c653a20636f6e7472616374206973206e6f74206960448201527f6e697469616c697a696e6700000000000000000000000000000000000000000060648201526084016114b3565b815f03615a41576040517fb5ed5a3b00000000000000000000000000000000000000000000000000000000815260040160405180910390fd5b805f03615a7a576040517fd10d72bb00000000000000000000000000000000000000000000000000000000815260040160405180910390fd5b60978290556098819055615a8e82426160f3565b60998190556097546098546040805192835260208301919091528101919091527f8f805c372b66240792580418b7328c0c554ae235f0932475c51b026887fe26a9906060016123e0565b5f60208284031215615ae8575f5ffd5b81357fffffffff00000000000000000000000000000000000000000000000000000000811681146158ba575f5ffd5b8035600e8110615b25575f5ffd5b919050565b5f60208284031215615b3a575f5ffd5b6158ba82615b17565b5f60208284031215615b53575f5ffd5b5035919050565b6001600160a01b0381168114613337575f5ffd5b8035615b2581615b5a565b5f5f83601f840112615b89575f5ffd5b50813567ffffffffffffffff811115615ba0575f5ffd5b602083019150836020828501011115615bb7575f5ffd5b9250929050565b5f5f5f5f5f60808688031215615bd2575f5ffd5b853594506020860135615be481615b5a565b935060408601359250606086013567ffffffffffffffff811115615c06575f5ffd5b615c1288828901615b79565b969995985093965092949392505050565b5f5f5f5f5f60a08688031215615c37575f5ffd5b505083359560208501359550604085013594606081013594506080013592509050565b5f5f60408385031215615c6b575f5ffd5b823591506020830135615c7d81615b5a565b809150509250929050565b602081525f82518060208401528060208501604085015e5f604082850101526040601f19601f83011684010191505092915050565b5f5f60408385031215615cce575f5ffd5b615cd783615b17565b946020939093013593505050565b5f5f5f5f5f5f5f5f60e0898b031215615cfc575f5ffd5b8835615d0781615b5a565b97506020890135615d1781615b5a565b965060408901359550606089013594506080890135615d3581615b5a565b935060a089013567ffffffffffffffff811115615d50575f5ffd5b615d5c8b828c01615b79565b999c989b50969995989497949560c00135949350505050565b5f6101408284031215613a3c575f5ffd5b5f60208284031215615d96575f5ffd5b813567ffffffffffffffff811115615dac575f5ffd5b615db884828501615d75565b949350505050565b5f5f60408385031215615dd1575f5ffd5b823567ffffffffffffffff811115615de7575f5ffd5b615df385828601615d75565b9250506020830135615c7d81615b5a565b5f60208284031215615e14575f5ffd5b81356158ba81615b5a565b5f5f5f5f60608587031215615e32575f5ffd5b843567ffffffffffffffff811115615e48575f5ffd5b615e5487828801615b79565b90955093505060208501359150604085013567ffffffffffffffff811115615e7a575f5ffd5b85016102808188031215615e8c575f5ffd5b939692955090935050565b5f5f5f5f60608587031215615eaa575f5ffd5b843567ffffffffffffffff811115615ec0575f5ffd5b8501601f81018713615ed0575f5ffd5b803567ffffffffffffffff811115615ee6575f5ffd5b8760208260051b8401011115615efa575f5ffd5b602091820198909750908601359560400135945092505050565b5f5f5f5f60608587031215615f27575f5ffd5b8435615f3281615b5a565b935060208501359250604085013567ffffffffffffffff811115615f54575f5ffd5b615f6087828801615b79565b95989497509550505050565b5f5f60408385031215615f7d575f5ffd5b8235615cd781615b5a565b5f5f5f60608486031215615f9a575f5ffd5b833567ffffffffffffffff811115615fb0575f5ffd5b84016101808187031215615fc2575f5ffd5b92506020840135615fd281615b5a565b91506040840135615fe281615b5a565b809150509250925092565b7f4e487b71000000000000000000000000000000000000000000000000000000005f52602160045260245ffd5b600e811061604f577f4e487b71000000000000000000000000000000000000000000000000000000005f52602160045260245ffd5b9052565b602081016113e4828461601a565b7f4e487b71000000000000000000000000000000000000000000000000000000005f52601160045260245ffd5b818103818111156113e4576113e4616061565b81835281816020850137505f602082840101525f6020601f19601f840116840101905092915050565b848152836020820152606060408201525f6160e96060830184866160a1565b9695505050505050565b808201808211156113e4576113e4616061565b818382375f9101908152919050565b80820281158282048414176113e4576113e4616061565b5f5f19820361613d5761613d616061565b5060010190565b5f5f8335601e19843603018112616159575f5ffd5b83018035915067ffffffffffffffff821115616173575f5ffd5b602001915036819003821315615bb7575f5ffd5b5f60208284031215616197575f5ffd5b5051919050565b5f5f8335601e198436030181126161b3575f5ffd5b83018035915067ffffffffffffffff8211156161cd575f5ffd5b6020019150600581901b3603821315615bb7575f5ffd5b5f602082840312156161f4575f5ffd5b813563ffffffff811681146158ba575f5ffd5b5f8184825b8581101561623d57813561621f81615b5a565b6001600160a01b03168352602092830192919091019060010161620c565b509095945050505050565b7f4e487b71000000000000000000000000000000000000000000000000000000005f52604160045260245ffd5b7f4e487b71000000000000000000000000000000000000000000000000000000005f52603260045260245ffd5b604081525f6162b56040830185876160a1565b82810360208401528084518083526020830191506020860192505f5b818110156162ef5783518352602093840193909201916001016162d1565b5090979650505050505050565b5f81518060208401855e5f93019283525090919050565b5f6158ba82846162fc565b5f6020828403121561632e575f5ffd5b815180151581146158ba575f5ffd5b5f82357fffffffffffffffffffffffffffffffffffffffffffffffffffffffffffffff6183360301811261636f575f5ffd5b9190910192915050565b60405160a0810167ffffffffffffffff8111828210171561639c5761639c616248565b60405290565b5f82601f8301126163b1575f5ffd5b813567ffffffffffffffff8111156163cb576163cb616248565b604051601f8201601f19908116603f0116810167ffffffffffffffff811182821017156163fa576163fa616248565b604052818152838201602001851015616411575f5ffd5b816020850160208301375f918101602001919091529392505050565b5f60a0823603121561643d575f5ffd5b616445616379565b82358152602083013567ffffffffffffffff811115616462575f5ffd5b61646e368286016163a2565b602083015250604083013567ffffffffffffffff81111561648d575f5ffd5b616499368286016163a2565b60408301525060608381013590820152608092830135928101929092525090565b858152846020820152836040820152608060608201525f6164df6080830184866160a1565b979650505050505050565b5f5f8335601e198436030181126164ff575f5ffd5b83018035915067ffffffffffffffff821115616519575f5ffd5b6020019150600681901b3603821315615bb7575f5ffd5b5f5f8335601e19843603018112616545575f5ffd5b830160208101925035905067ffffffffffffffff811115616564575f5ffd5b8060061b3603821315615bb7575f5ffd5b8183526020830192505f815f5b848110156165bc57813561659581615b5a565b6001600160a01b031686526020828101359087015260409586019590910190600101616582565b5093949350505050565b8183526020830192505f815f5b848110156165bc576165ed866165e884615b17565b61601a565b60208281013590870152604095860195909101906001016165d3565b60208082528235828201528201356040808301919091528201356060808301919091525f90616639908401615b6e565b6001600160a01b038116608084015250608083013560a08381019190915283013560c08084019190915261666f90840184616530565b61018060e08501526166866101a085018284616575565b91505061669660e0850185616530565b601f19858403016101008601526166ae8382846165c6565b925050506166c0610100850185616530565b601f19858403016101208601526166d88382846165c6565b925050506166e96101208501615b6e565b6001600160a01b038116610140850152506167076101408501615b6e565b6001600160a01b038116610160850152506167256101608501615b6e565b6001600160a01b038116610180850152509392505050565b7f416363657373436f6e74726f6c3a206163636f756e742000000000000000000081525f61676e60178301856162fc565b7f206973206d697373696e6720726f6c6520000000000000000000000000000000815261679e60118201856162fc565b95945050505050565b6001815b60018411156167e2578085048111156167c6576167c6616061565b60018416156167d457908102905b60019390931c9280026167ab565b935093915050565b5f826167f8575060016113e4565b8161680457505f6113e4565b816001811461681a576002811461682457616840565b60019150506113e4565b60ff84111561683557616835616061565b50506001821b6113e4565b5060208310610133831016604e8410600b8410161715616863575081810a6113e4565b61686f5f1984846167a7565b805f190482111561688257616882616061565b029392505050565b5f6158ba83836167ea565b5f826168c8577f4e487b71000000000000000000000000000000000000000000000000000000005f52601260045260245ffd5b500690565b8581528460208201528360408201525f6164df6168ed60608401866162fc565b846162fc565b5f8161690157616901616061565b505f19019056fea26469706673582212203ca4531f04fd15e6c2304f6bd32d87d524f443e959e1656af06b93d494a8a90e64736f6c63430008210033",
  "linkReferences": {},
  "deployedLinkReferences": {}
}