{
  "_format": "hh-sol-artifact-1",
  "contractName": "LineaRollup",
  "sourceName": "src/rollup/LineaRollup.sol",
  "abi": [
    {
      "inputs": [],
      "stateMutability": "nonpayable",
      "type": "constructor"
    },
    {
      "inputs": [
        {
          "internalType": "uint256",
          "name": "emptyBlobIndex",
          "type": "uint256"
        }
      ],
      "name": "BlobSubmissionDataEmpty",
      "type": "error"
    },
    {
      "inputs": [],
      "name": "BlobSubmissionDataIsMissing",
      "type": "error"
    },
    {
      "inputs": [
        {
          "internalType": "uint256",
          "name": "bytesLength",
          "type": "uint256"
        }
      ],
      "name": "BytesLengthNotMultipleOfTwo",
      "type": "error"
    },
    {
      "inputs": [],
      "name": "CallerIsNotYieldManager",
      "type": "error"
    },
    {
      "inputs": [],
      "name": "CallerNotLSTWithdrawalRecipient",
      "type": "error"
    },
    {
      "inputs": [
        {
          "internalType": "uint256",
          "name": "index",
          "type": "uint256"
        }
      ],
      "name": "EmptyBlobDataAtIndex",
      "type": "error"
    },
    {
      "inputs": [
        {
          "internalType": "address",
          "name": "recipient",
          "type": "address"
        }
      ],
      "name": "FeePaymentFailed",
      "type": "error"
    },
    {
      "inputs": [],
      "name": "FeeTooLow",
      "type": "error"
    },
    {
      "inputs": [],
      "name": "FinalBlockStateEqualsZeroHash",
      "type": "error"
    },
    {
      "inputs": [
        {
          "internalType": "bytes32",
          "name": "shnarf",
          "type": "bytes32"
        }
      ],
      "name": "FinalShnarfNotSubmitted",
      "type": "error"
    },
    {
      "inputs": [
        {
          "internalType": "bytes32",
          "name": "expected",
          "type": "bytes32"
        },
        {
          "internalType": "bytes32",
          "name": "value",
          "type": "bytes32"
        }
      ],
      "name": "FinalShnarfWrong",
      "type": "error"
    },
    {
      "inputs": [],
      "name": "FinalStateRootHashIsZeroHash",
      "type": "error"
    },
    {
      "inputs": [
        {
          "internalType": "uint256",
          "name": "l2BlockTimestamp",
          "type": "uint256"
        },
        {
          "internalType": "uint256",
          "name": "currentBlockTimestamp",
          "type": "uint256"
        }
      ],
      "name": "FinalizationInTheFuture",
      "type": "error"
    },
    {
      "inputs": [
        {
          "internalType": "bytes32",
          "name": "expected",
          "type": "bytes32"
        },
        {
          "internalType": "bytes32",
          "name": "value",
          "type": "bytes32"
        }
      ],
      "name": "FinalizationStateIncorrect",
      "type": "error"
    },
    {
      "inputs": [],
      "name": "InvalidMerkleProof",
      "type": "error"
    },
    {
      "inputs": [],
      "name": "InvalidProof",
      "type": "error"
    },
    {
      "inputs": [
        {
          "internalType": "string",
          "name": "errorReason",
          "type": "string"
        }
      ],
      "name": "InvalidProofOrProofVerificationRanOutOfGas",
      "type": "error"
    },
    {
      "inputs": [],
      "name": "InvalidProofType",
      "type": "error"
    },
    {
      "inputs": [
        {
          "internalType": "enum IPauseManager.PauseType",
          "name": "pauseType",
          "type": "uint8"
        }
      ],
      "name": "IsNotPaused",
      "type": "error"
    },
    {
      "inputs": [
        {
          "internalType": "enum IPauseManager.PauseType",
          "name": "pauseType",
          "type": "uint8"
        }
      ],
      "name": "IsPaused",
      "type": "error"
    },
    {
      "inputs": [
        {
          "internalType": "uint256",
          "name": "messageNumber",
          "type": "uint256"
        },
        {
          "internalType": "bytes32",
          "name": "rollingHash",
          "type": "bytes32"
        }
      ],
      "name": "L1RollingHashDoesNotExistOnL1",
      "type": "error"
    },
    {
      "inputs": [
        {
          "internalType": "bytes32",
          "name": "merkleRoot",
          "type": "bytes32"
        }
      ],
      "name": "L2MerkleRootAlreadyAnchored",
      "type": "error"
    },
    {
      "inputs": [],
      "name": "L2MerkleRootDoesNotExist",
      "type": "error"
    },
    {
      "inputs": [],
      "name": "LSTWithdrawalRequiresDeficit",
      "type": "error"
    },
    {
      "inputs": [],
      "name": "LastFinalizationTimeNotLapsed",
      "type": "error"
    },
    {
      "inputs": [
        {
          "internalType": "uint32",
          "name": "leafIndex",
          "type": "uint32"
        },
        {
          "internalType": "uint32",
          "name": "maxAllowedIndex",
          "type": "uint32"
        }
      ],
      "name": "LeafIndexOutOfBounds",
      "type": "error"
    },
    {
      "inputs": [],
      "name": "LimitIsZero",
      "type": "error"
    },
    {
      "inputs": [
        {
          "internalType": "uint256",
          "name": "messageIndex",
          "type": "uint256"
        }
      ],
      "name": "MessageAlreadyClaimed",
      "type": "error"
    },
    {
      "inputs": [
        {
          "internalType": "bytes32",
          "name": "messageHash",
          "type": "bytes32"
        }
      ],
      "name": "MessageDoesNotExistOrHasAlreadyBeenClaimed",
      "type": "error"
    },
    {
      "inputs": [
        {
          "internalType": "address",
          "name": "destination",
          "type": "address"
        }
      ],
      "name": "MessageSendingFailed",
      "type": "error"
    },
    {
      "inputs": [
        {
          "internalType": "bytes32",
          "name": "rollingHash",
          "type": "bytes32"
        }
      ],
      "name": "MissingMessageNumberForRollingHash",
      "type": "error"
    },
    {
      "inputs": [
        {
          "internalType": "uint256",
          "name": "messageNumber",
          "type": "uint256"
        }
      ],
      "name": "MissingRollingHashForMessageNumber",
      "type": "error"
    },
    {
      "inputs": [],
      "name": "NoEthSent",
      "type": "error"
    },
    {
      "inputs": [],
      "name": "OnlyNonLivenessRecoveryOperator",
      "type": "error"
    },
    {
      "inputs": [
        {
          "internalType": "enum IPauseManager.PauseType",
          "name": "pauseType",
          "type": "uint8"
        }
      ],
      "name": "OnlySecurityCouncilCanUnpauseIndefinitePause",
      "type": "error"
    },
    {
      "inputs": [
        {
          "internalType": "bytes32",
          "name": "shnarf",
          "type": "bytes32"
        }
      ],
      "name": "ParentShnarfNotSubmitted",
      "type": "error"
    },
    {
      "inputs": [
        {
          "internalType": "uint256",
          "name": "expiryEnd",
          "type": "uint256"
        }
      ],
      "name": "PauseNotExpired",
      "type": "error"
    },
    {
      "inputs": [],
      "name": "PauseTypeNotUsed",
      "type": "error"
    },
    {
      "inputs": [
        {
          "internalType": "uint256",
          "name": "cooldownEnd",
          "type": "uint256"
        }
      ],
      "name": "PauseUnavailableDueToCooldown",
      "type": "error"
    },
    {
      "inputs": [],
      "name": "PeriodIsZero",
      "type": "error"
    },
    {
      "inputs": [],
      "name": "PointEvaluationFailed",
      "type": "error"
    },
    {
      "inputs": [
        {
          "internalType": "uint256",
          "name": "fieldElements",
          "type": "uint256"
        },
        {
          "internalType": "uint256",
          "name": "blsCurveModulus",
          "type": "uint256"
        }
      ],
      "name": "PointEvaluationResponseInvalid",
      "type": "error"
    },
    {
      "inputs": [
        {
          "internalType": "uint256",
          "name": "expected",
          "type": "uint256"
        },
        {
          "internalType": "uint256",
          "name": "actual",
          "type": "uint256"
        }
      ],
      "name": "PrecompileReturnDataLengthWrong",
      "type": "error"
    },
    {
      "inputs": [],
      "name": "ProofIsEmpty",
      "type": "error"
    },
    {
      "inputs": [
        {
          "internalType": "uint256",
          "name": "actual",
          "type": "uint256"
        },
        {
          "internalType": "uint256",
          "name": "expected",
          "type": "uint256"
        }
      ],
      "name": "ProofLengthDifferentThanMerkleDepth",
      "type": "error"
    },
    {
      "inputs": [],
      "name": "RateLimitExceeded",
      "type": "error"
    },
    {
      "inputs": [],
      "name": "ReentrantCall",
      "type": "error"
    },
    {
      "inputs": [],
      "name": "RolesNotDifferent",
      "type": "error"
    },
    {
      "inputs": [
        {
          "internalType": "uint8",
          "name": "bits",
          "type": "uint8"
        },
        {
          "internalType": "uint256",
          "name": "value",
          "type": "uint256"
        }
      ],
      "name": "SafeCastOverflowedUintDowncast",
      "type": "error"
    },
    {
      "inputs": [
        {
          "internalType": "bytes32",
          "name": "shnarf",
          "type": "bytes32"
        }
      ],
      "name": "ShnarfAlreadySubmitted",
      "type": "error"
    },
    {
      "inputs": [],
      "name": "ShnarfSubmissionIsZeroHash",
      "type": "error"
    },
    {
      "inputs": [],
      "name": "StartingRootHashDoesNotMatch",
      "type": "error"
    },
    {
      "inputs": [],
      "name": "ValueSentTooLow",
      "type": "error"
    },
    {
      "inputs": [],
      "name": "ZeroAddressNotAllowed",
      "type": "error"
    },
    {
      "inputs": [],
      "name": "ZeroHashNotAllowed",
      "type": "error"
    },
    {
      "anonymous": false,
      "inputs": [
        {
          "indexed": true,
          "internalType": "address",
          "name": "resettingAddress",
          "type": "address"
        }
      ],
      "name": "AmountUsedInPeriodReset",
      "type": "event"
    },
    {
      "anonymous": false,
      "inputs": [
        {
          "indexed": true,
          "internalType": "uint256",
          "name": "startBlockNumber",
          "type": "uint256"
        },
        {
          "indexed": true,
          "internalType": "uint256",
          "name": "endBlockNumber",
          "type": "uint256"
        },
        {
          "indexed": true,
          "internalType": "bytes32",
          "name": "shnarf",
          "type": "bytes32"
        },
        {
          "indexed": false,
          "internalType": "bytes32",
          "name": "parentStateRootHash",
          "type": "bytes32"
        },
        {
          "indexed": false,
          "internalType": "bytes32",
          "name": "finalStateRootHash",
          "type": "bytes32"
        }
      ],
      "name": "DataFinalizedV3",
      "type": "event"
    },
    {
      "anonymous": false,
      "inputs": [
        {
          "indexed": false,
          "internalType": "bytes32",
          "name": "parentShnarf",
          "type": "bytes32"
        },
        {
          "indexed": true,
          "internalType": "bytes32",
          "name": "shnarf",
          "type": "bytes32"
        },
        {
          "indexed": false,
          "internalType": "bytes32",
          "name": "finalStateRootHash",
          "type": "bytes32"
        }
      ],
      "name": "DataSubmittedV3",
      "type": "event"
    },
    {
      "anonymous": false,
      "inputs": [
        {
          "indexed": false,
          "internalType": "uint256",
          "name": "amount",
          "type": "uint256"
        }
      ],
      "name": "FundingReceived",
      "type": "event"
    },
    {
      "anonymous": false,
      "inputs": [
        {
          "indexed": false,
          "internalType": "uint8",
          "name": "version",
          "type": "uint8"
        }
      ],
      "name": "Initialized",
      "type": "event"
    },
    {
      "anonymous": false,
      "inputs": [
        {
          "indexed": true,
          "internalType": "bytes32",
          "name": "l2MerkleRoot",
          "type": "bytes32"
        },
        {
          "indexed": true,
          "internalType": "uint256",
          "name": "treeDepth",
          "type": "uint256"
        }
      ],
      "name": "L2MerkleRootAdded",
      "type": "event"
    },
    {
      "anonymous": false,
      "inputs": [
        {
          "indexed": true,
          "internalType": "uint256",
          "name": "l2Block",
          "type": "uint256"
        }
      ],
      "name": "L2MessagingBlockAnchored",
      "type": "event"
    },
    {
      "anonymous": false,
      "inputs": [
        {
          "indexed": true,
          "internalType": "address",
          "name": "amountChangeBy",
          "type": "address"
        },
        {
          "indexed": false,
          "internalType": "uint256",
          "name": "amount",
          "type": "uint256"
        },
        {
          "indexed": false,
          "internalType": "bool",
          "name": "amountUsedLoweredToLimit",
          "type": "bool"
        },
        {
          "indexed": false,
          "internalType": "bool",
          "name": "usedAmountResetToZero",
          "type": "bool"
        }
      ],
      "name": "LimitAmountChanged",
      "type": "event"
    },
    {
      "anonymous": false,
      "inputs": [
        {
          "components": [
            {
              "internalType": "bytes32",
              "name": "initialStateRootHash",
              "type": "bytes32"
            },
            {
              "internalType": "uint256",
              "name": "initialL2BlockNumber",
              "type": "uint256"
            },
            {
              "internalType": "uint256",
              "name": "genesisTimestamp",
              "type": "uint256"
            },
            {
              "internalType": "address",
              "name": "defaultVerifier",
              "type": "address"
            },
            {
              "internalType": "uint256",
              "name": "rateLimitPeriodInSeconds",
              "type": "uint256"
            },
            {
              "internalType": "uint256",
              "name": "rateLimitAmountInWei",
              "type": "uint256"
            },
            {
              "components": [
                {
                  "internalType": "address",
                  "name": "addressWithRole",
                  "type": "address"
                },
                {
                  "internalType": "bytes32",
                  "name": "role",
                  "type": "bytes32"
                }
              ],
              "internalType": "struct IPermissionsManager.RoleAddress[]",
              "name": "roleAddresses",
              "type": "tuple[]"
            },
            {
              "components": [
                {
                  "internalType": "enum IPauseManager.PauseType",
                  "name": "pauseType",
                  "type": "uint8"
                },
                {
                  "internalType": "bytes32",
                  "name": "role",
                  "type": "bytes32"
                }
              ],
              "internalType": "struct IPauseManager.PauseTypeRole[]",
              "name": "pauseTypeRoles",
              "type": "tuple[]"
            },
            {
              "components": [
                {
                  "internalType": "enum IPauseManager.PauseType",
                  "name": "pauseType",
                  "type": "uint8"
                },
                {
                  "internalType": "bytes32",
                  "name": "role",
                  "type": "bytes32"
                }
              ],
              "internalType": "struct IPauseManager.PauseTypeRole[]",
              "name": "unpauseTypeRoles",
              "type": "tuple[]"
            },
            {
              "internalType": "address",
              "name": "defaultAdmin",
              "type": "address"
            },
            {
              "internalType": "address",
              "name": "shnarfProvider",
              "type": "address"
            }
          ],
          "indexed": false,
          "internalType": "struct ILineaRollupBase.BaseInitializationData",
          "name": "InitializationData",
          "type": "tuple"
        },
        {
          "indexed": false,
          "internalType": "bytes32",
          "name": "genesisShnarf",
          "type": "bytes32"
        }
      ],
      "name": "LineaRollupBaseInitialized",
      "type": "event"
    },
    {
      "anonymous": false,
      "inputs": [
        {
          "indexed": true,
          "internalType": "bytes8",
          "name": "previousVersion",
          "type": "bytes8"
        },
        {
          "indexed": true,
          "internalType": "bytes8",
          "name": "newVersion",
          "type": "bytes8"
        }
      ],
      "name": "LineaRollupVersionChanged",
      "type": "event"
    },
    {
      "anonymous": false,
      "inputs": [
        {
          "indexed": true,
          "internalType": "address",
          "name": "caller",
          "type": "address"
        },
        {
          "indexed": true,
          "internalType": "address",
          "name": "livenessRecoveryOperator",
          "type": "address"
        }
      ],
      "name": "LivenessRecoveryOperatorAddressSet",
      "type": "event"
    },
    {
      "anonymous": false,
      "inputs": [
        {
          "indexed": true,
          "internalType": "address",
          "name": "caller",
          "type": "address"
        },
        {
          "indexed": true,
          "internalType": "address",
          "name": "livenessRecoveryOperator",
          "type": "address"
        }
      ],
      "name": "LivenessRecoveryOperatorRoleGranted",
      "type": "event"
    },
    {
      "anonymous": false,
      "inputs": [
        {
          "indexed": true,
          "internalType": "bytes32",
          "name": "_messageHash",
          "type": "bytes32"
        }
      ],
      "name": "MessageClaimed",
      "type": "event"
    },
    {
      "anonymous": false,
      "inputs": [
        {
          "indexed": true,
          "internalType": "address",
          "name": "_from",
          "type": "address"
        },
        {
          "indexed": true,
          "internalType": "address",
          "name": "_to",
          "type": "address"
        },
        {
          "indexed": false,
          "internalType": "uint256",
          "name": "_fee",
          "type": "uint256"
        },
        {
          "indexed": false,
          "internalType": "uint256",
          "name": "_value",
          "type": "uint256"
        },
        {
          "indexed": false,
          "internalType": "uint256",
          "name": "_nonce",
          "type": "uint256"
        },
        {
          "indexed": false,
          "internalType": "bytes",
          "name": "_calldata",
          "type": "bytes"
        },
        {
          "indexed": true,
          "internalType": "bytes32",
          "name": "_messageHash",
          "type": "bytes32"
        }
      ],
      "name": "MessageSent",
      "type": "event"
    },
    {
      "anonymous": false,
      "inputs": [
        {
          "indexed": true,
          "internalType": "enum IPauseManager.PauseType",
          "name": "pauseType",
          "type": "uint8"
        },
        {
          "indexed": true,
          "internalType": "bytes32",
          "name": "role",
          "type": "bytes32"
        }
      ],
      "name": "PauseTypeRoleSet",
      "type": "event"
    },
    {
      "anonymous": false,
      "inputs": [
        {
          "indexed": true,
          "internalType": "enum IPauseManager.PauseType",
          "name": "pauseType",
          "type": "uint8"
        },
        {
          "indexed": true,
          "internalType": "bytes32",
          "name": "role",
          "type": "bytes32"
        },
        {
          "indexed": true,
          "internalType": "bytes32",
          "name": "previousRole",
          "type": "bytes32"
        }
      ],
      "name": "PauseTypeRoleUpdated",
      "type": "event"
    },
    {
      "anonymous": false,
      "inputs": [
        {
          "indexed": false,
          "internalType": "address",
          "name": "messageSender",
          "type": "address"
        },
        {
          "indexed": true,
          "internalType": "enum IPauseManager.PauseType",
          "name": "pauseType",
          "type": "uint8"
        }
      ],
      "name": "Paused",
      "type": "event"
    },
    {
      "anonymous": false,
      "inputs": [
        {
          "indexed": false,
          "internalType": "address",
          "name": "messageSender",
          "type": "address"
        },
        {
          "indexed": true,
          "internalType": "enum IPauseManager.PauseType",
          "name": "pauseType",
          "type": "uint8"
        }
      ],
      "name": "PausedIndefinitely",
      "type": "event"
    },
    {
      "anonymous": false,
      "inputs": [
        {
          "indexed": false,
          "internalType": "uint256",
          "name": "periodInSeconds",
          "type": "uint256"
        },
        {
          "indexed": false,
          "internalType": "uint256",
          "name": "limitInWei",
          "type": "uint256"
        },
        {
          "indexed": false,
          "internalType": "uint256",
          "name": "currentPeriodEnd",
          "type": "uint256"
        }
      ],
      "name": "RateLimitInitialized",
      "type": "event"
    },
    {
      "anonymous": false,
      "inputs": [
        {
          "indexed": true,
          "internalType": "bytes32",
          "name": "role",
          "type": "bytes32"
        },
        {
          "indexed": true,
          "internalType": "bytes32",
          "name": "previousAdminRole",
          "type": "bytes32"
        },
        {
          "indexed": true,
          "internalType": "bytes32",
          "name": "newAdminRole",
          "type": "bytes32"
        }
      ],
      "name": "RoleAdminChanged",
      "type": "event"
    },
    {
      "anonymous": false,
      "inputs": [
        {
          "indexed": true,
          "internalType": "bytes32",
          "name": "role",
          "type": "bytes32"
        },
        {
          "indexed": true,
          "internalType": "address",
          "name": "account",
          "type": "address"
        },
        {
          "indexed": true,
          "internalType": "address",
          "name": "sender",
          "type": "address"
        }
      ],
      "name": "RoleGranted",
      "type": "event"
    },
    {
      "anonymous": false,
      "inputs": [
        {
          "indexed": true,
          "internalType": "bytes32",
          "name": "role",
          "type": "bytes32"
        },
        {
          "indexed": true,
          "internalType": "address",
          "name": "account",
          "type": "address"
        },
        {
          "indexed": true,
          "internalType": "address",
          "name": "sender",
          "type": "address"
        }
      ],
      "name": "RoleRevoked",
      "type": "event"
    },
    {
      "anonymous": false,
      "inputs": [
        {
          "indexed": true,
          "internalType": "uint256",
          "name": "messageNumber",
          "type": "uint256"
        },
        {
          "indexed": true,
          "internalType": "bytes32",
          "name": "rollingHash",
          "type": "bytes32"
        },
        {
          "indexed": true,
          "internalType": "bytes32",
          "name": "messageHash",
          "type": "bytes32"
        }
      ],
      "name": "RollingHashUpdated",
      "type": "event"
    },
    {
      "anonymous": false,
      "inputs": [
        {
          "indexed": true,
          "internalType": "enum IPauseManager.PauseType",
          "name": "unPauseType",
          "type": "uint8"
        },
        {
          "indexed": true,
          "internalType": "bytes32",
          "name": "role",
          "type": "bytes32"
        }
      ],
      "name": "UnPauseTypeRoleSet",
      "type": "event"
    },
    {
      "anonymous": false,
      "inputs": [
        {
          "indexed": true,
          "internalType": "enum IPauseManager.PauseType",
          "name": "unPauseType",
          "type": "uint8"
        },
        {
          "indexed": true,
          "internalType": "bytes32",
          "name": "role",
          "type": "bytes32"
        },
        {
          "indexed": true,
          "internalType": "bytes32",
          "name": "previousRole",
          "type": "bytes32"
        }
      ],
      "name": "UnPauseTypeRoleUpdated",
      "type": "event"
    },
    {
      "anonymous": false,
      "inputs": [
        {
          "indexed": false,
          "internalType": "address",
          "name": "messageSender",
          "type": "address"
        },
        {
          "indexed": true,
          "internalType": "enum IPauseManager.PauseType",
          "name": "pauseType",
          "type": "uint8"
        }
      ],
      "name": "UnPaused",
      "type": "event"
    },
    {
      "anonymous": false,
      "inputs": [
        {
          "indexed": true,
          "internalType": "enum IPauseManager.PauseType",
          "name": "pauseType",
          "type": "uint8"
        }
      ],
      "name": "UnPausedDueToExpiry",
      "type": "event"
    },
    {
      "anonymous": false,
      "inputs": [
        {
          "indexed": true,
          "internalType": "address",
          "name": "verifierAddress",
          "type": "address"
        },
        {
          "indexed": true,
          "internalType": "uint256",
          "name": "proofType",
          "type": "uint256"
        },
        {
          "indexed": true,
          "internalType": "address",
          "name": "verifierSetBy",
          "type": "address"
        },
        {
          "indexed": false,
          "internalType": "address",
          "name": "oldVerifierAddress",
          "type": "address"
        }
      ],
      "name": "VerifierAddressChanged",
      "type": "event"
    },
    {
      "anonymous": false,
      "inputs": [
        {
          "indexed": false,
          "internalType": "address",
          "name": "oldYieldManagerAddress",
          "type": "address"
        },
        {
          "indexed": false,
          "internalType": "address",
          "name": "newYieldManagerAddress",
          "type": "address"
        }
      ],
      "name": "YieldManagerChanged",
      "type": "event"
    },
    {
      "inputs": [],
      "name": "CONTRACT_VERSION",
      "outputs": [
        {
          "internalType": "string",
          "name": "contractVersion",
          "type": "string"
        }
      ],
      "stateMutability": "view",
      "type": "function"
    },
    {
      "inputs": [],
      "name": "COOLDOWN_DURATION",
      "outputs": [
        {
          "internalType": "uint256",
          "name": "",
          "type": "uint256"
        }
      ],
      "stateMutability": "view",
      "type": "function"
    },
    {
      "inputs": [],
      "name": "DEFAULT_ADMIN_ROLE",
      "outputs": [
        {
          "internalType": "bytes32",
          "name": "",
          "type": "bytes32"
        }
      ],
      "stateMutability": "view",
      "type": "function"
    },
    {
      "inputs": [],
      "name": "INBOX_STATUS_RECEIVED",
      "outputs": [
        {
          "internalType": "uint8",
          "name": "",
          "type": "uint8"
        }
      ],
      "stateMutability": "view",
      "type": "function"
    },
    {
      "inputs": [],
      "name": "INBOX_STATUS_UNKNOWN",
      "outputs": [
        {
          "internalType": "uint8",
          "name": "",
          "type": "uint8"
        }
      ],
      "stateMutability": "view",
      "type": "function"
    },
    {
      "inputs": [],
      "name": "OPERATOR_ROLE",
      "outputs": [
        {
          "internalType": "bytes32",
          "name": "",
          "type": "bytes32"
        }
      ],
      "stateMutability": "view",
      "type": "function"
    },
    {
      "inputs": [],
      "name": "OUTBOX_STATUS_RECEIVED",
      "outputs": [
        {
          "internalType": "uint8",
          "name": "",
          "type": "uint8"
        }
      ],
      "stateMutability": "view",
      "type": "function"
    },
    {
      "inputs": [],
      "name": "OUTBOX_STATUS_SENT",
      "outputs": [
        {
          "internalType": "uint8",
          "name": "",
          "type": "uint8"
        }
      ],
      "stateMutability": "view",
      "type": "function"
    },
    {
      "inputs": [],
      "name": "OUTBOX_STATUS_UNKNOWN",
      "outputs": [
        {
          "internalType": "uint8",
          "name": "",
          "type": "uint8"
        }
      ],
      "stateMutability": "view",
      "type": "function"
    },
    {
      "inputs": [],
      "name": "PAUSE_ALL_ROLE",
      "outputs": [
        {
          "internalType": "bytes32",
          "name": "",
          "type": "bytes32"
        }
      ],
      "stateMutability": "view",
      "type": "function"
    },
    {
      "inputs": [],
      "name": "PAUSE_DURATION",
      "outputs": [
        {
          "internalType": "uint256",
          "name": "",
          "type": "uint256"
        }
      ],
      "stateMutability": "view",
      "type": "function"
    },
    {
      "inputs": [],
      "name": "PAUSE_FINALIZATION_ROLE",
      "outputs": [
        {
          "internalType": "bytes32",
          "name": "",
          "type": "bytes32"
        }
      ],
      "stateMutability": "view",
      "type": "function"
    },
    {
      "inputs": [],
      "name": "PAUSE_L1_L2_ROLE",
      "outputs": [
        {
          "internalType": "bytes32",
          "name": "",
          "type": "bytes32"
        }
      ],
      "stateMutability": "view",
      "type": "function"
    },
    {
      "inputs": [],
      "name": "PAUSE_L2_L1_ROLE",
      "outputs": [
        {
          "internalType": "bytes32",
          "name": "",
          "type": "bytes32"
        }
      ],
      "stateMutability": "view",
      "type": "function"
    },
    {
      "inputs": [],
      "name": "PAUSE_NATIVE_YIELD_STAKING_ROLE",
      "outputs": [
        {
          "internalType": "bytes32",
          "name": "",
          "type": "bytes32"
        }
      ],
      "stateMutability": "view",
      "type": "function"
    },
    {
      "inputs": [],
      "name": "PAUSE_STATE_DATA_SUBMISSION_ROLE",
      "outputs": [
        {
          "internalType": "bytes32",
          "name": "",
          "type": "bytes32"
        }
      ],
      "stateMutability": "view",
      "type": "function"
    },
    {
      "inputs": [],
      "name": "RATE_LIMIT_SETTER_ROLE",
      "outputs": [
        {
          "internalType": "bytes32",
          "name": "",
          "type": "bytes32"
        }
      ],
      "stateMutability": "view",
      "type": "function"
    },
    {
      "inputs": [],
      "name": "SECURITY_COUNCIL_ROLE",
      "outputs": [
        {
          "internalType": "bytes32",
          "name": "",
          "type": "bytes32"
        }
      ],
      "stateMutability": "view",
      "type": "function"
    },
    {
      "inputs": [],
      "name": "SET_YIELD_MANAGER_ROLE",
      "outputs": [
        {
          "internalType": "bytes32",
          "name": "",
          "type": "bytes32"
        }
      ],
      "stateMutability": "view",
      "type": "function"
    },
    {
      "inputs": [],
      "name": "UNPAUSE_ALL_ROLE",
      "outputs": [
        {
          "internalType": "bytes32",
          "name": "",
          "type": "bytes32"
        }
      ],
      "stateMutability": "view",
      "type": "function"
    },
    {
      "inputs": [],
      "name": "UNPAUSE_FINALIZATION_ROLE",
      "outputs": [
        {
          "internalType": "bytes32",
          "name": "",
          "type": "bytes32"
        }
      ],
      "stateMutability": "view",
      "type": "function"
    },
    {
      "inputs": [],
      "name": "UNPAUSE_L1_L2_ROLE",
      "outputs": [
        {
          "internalType": "bytes32",
          "name": "",
          "type": "bytes32"
        }
      ],
      "stateMutability": "view",
      "type": "function"
    },
    {
      "inputs": [],
      "name": "UNPAUSE_L2_L1_ROLE",
      "outputs": [
        {
          "internalType": "bytes32",
          "name": "",
          "type": "bytes32"
        }
      ],
      "stateMutability": "view",
      "type": "function"
    },
    {
      "inputs": [],
      "name": "UNPAUSE_NATIVE_YIELD_STAKING_ROLE",
      "outputs": [
        {
          "internalType": "bytes32",
          "name": "",
          "type": "bytes32"
        }
      ],
      "stateMutability": "view",
      "type": "function"
    },
    {
      "inputs": [],
      "name": "UNPAUSE_STATE_DATA_SUBMISSION_ROLE",
      "outputs": [
        {
          "internalType": "bytes32",
          "name": "",
          "type": "bytes32"
        }
      ],
      "stateMutability": "view",
      "type": "function"
    },
    {
      "inputs": [],
      "name": "USED_RATE_LIMIT_RESETTER_ROLE",
      "outputs": [
        {
          "internalType": "bytes32",
          "name": "",
          "type": "bytes32"
        }
      ],
      "stateMutability": "view",
      "type": "function"
    },
    {
      "inputs": [],
      "name": "VERIFIER_SETTER_ROLE",
      "outputs": [
        {
          "internalType": "bytes32",
          "name": "",
          "type": "bytes32"
        }
      ],
      "stateMutability": "view",
      "type": "function"
    },
    {
      "inputs": [],
      "name": "VERIFIER_UNSETTER_ROLE",
      "outputs": [
        {
          "internalType": "bytes32",
          "name": "",
          "type": "bytes32"
        }
      ],
      "stateMutability": "view",
      "type": "function"
    },
    {
      "inputs": [],
      "name": "YIELD_PROVIDER_STAKING_ROLE",
      "outputs": [
        {
          "internalType": "bytes32",
          "name": "",
          "type": "bytes32"
        }
      ],
      "stateMutability": "view",
      "type": "function"
    },
    {
      "inputs": [
        {
          "internalType": "bytes32",
          "name": "_shnarf",
          "type": "bytes32"
        }
      ],
      "name": "blobShnarfExists",
      "outputs": [
        {
          "internalType": "uint256",
          "name": "shnarfExists",
          "type": "uint256"
        }
      ],
      "stateMutability": "view",
      "type": "function"
    },
    {
      "inputs": [
        {
          "internalType": "address",
          "name": "_from",
          "type": "address"
        },
        {
          "internalType": "address",
          "name": "_to",
          "type": "address"
        },
        {
          "internalType": "uint256",
          "name": "_fee",
          "type": "uint256"
        },
        {
          "internalType": "uint256",
          "name": "_value",
          "type": "uint256"
        },
        {
          "internalType": "address payable",
          "name": "_feeRecipient",
          "type": "address"
        },
        {
          "internalType": "bytes",
          "name": "_calldata",
          "type": "bytes"
        },
        {
          "internalType": "uint256",
          "name": "_nonce",
          "type": "uint256"
        }
      ],
      "name": "claimMessage",
      "outputs": [],
      "stateMutability": "nonpayable",
      "type": "function"
    },
    {
      "inputs": [
        {
          "components": [
            {
              "internalType": "bytes32[]",
              "name": "proof",
              "type": "bytes32[]"
            },
            {
              "internalType": "uint256",
              "name": "messageNumber",
              "type": "uint256"
            },
            {
              "internalType": "uint32",
              "name": "leafIndex",
              "type": "uint32"
            },
            {
              "internalType": "address",
              "name": "from",
              "type": "address"
            },
            {
              "internalType": "address",
              "name": "to",
              "type": "address"
            },
            {
              "internalType": "uint256",
              "name": "fee",
              "type": "uint256"
            },
            {
              "internalType": "uint256",
              "name": "value",
              "type": "uint256"
            },
            {
              "internalType": "address payable",
              "name": "feeRecipient",
              "type": "address"
            },
            {
              "internalType": "bytes32",
              "name": "merkleRoot",
              "type": "bytes32"
            },
            {
              "internalType": "bytes",
              "name": "data",
              "type": "bytes"
            }
          ],
          "internalType": "struct IL1MessageService.ClaimMessageWithProofParams",
          "name": "_params",
          "type": "tuple"
        }
      ],
      "name": "claimMessageWithProof",
      "outputs": [],
      "stateMutability": "nonpayable",
      "type": "function"
    },
    {
      "inputs": [
        {
          "components": [
            {
              "internalType": "bytes32[]",
              "name": "proof",
              "type": "bytes32[]"
            },
            {
              "internalType": "uint256",
              "name": "messageNumber",
              "type": "uint256"
            },
            {
              "internalType": "uint32",
              "name": "leafIndex",
              "type": "uint32"
            },
            {
              "internalType": "address",
              "name": "from",
              "type": "address"
            },
            {
              "internalType": "address",
              "name": "to",
              "type": "address"
            },
            {
              "internalType": "uint256",
              "name": "fee",
              "type": "uint256"
            },
            {
              "internalType": "uint256",
              "name": "value",
              "type": "uint256"
            },
            {
              "internalType": "address payable",
              "name": "feeRecipient",
              "type": "address"
            },
            {
              "internalType": "bytes32",
              "name": "merkleRoot",
              "type": "bytes32"
            },
            {
              "internalType": "bytes",
              "name": "data",
              "type": "bytes"
            }
          ],
          "internalType": "struct IL1MessageService.ClaimMessageWithProofParams",
          "name": "_params",
          "type": "tuple"
        },
        {
          "internalType": "address",
          "name": "_yieldProvider",
          "type": "address"
        }
      ],
      "name": "claimMessageWithProofAndWithdrawLST",
      "outputs": [],
      "stateMutability": "nonpayable",
      "type": "function"
    },
    {
      "inputs": [],
      "name": "currentFinalizedShnarf",
      "outputs": [
        {
          "internalType": "bytes32",
          "name": "",
          "type": "bytes32"
        }
      ],
      "stateMutability": "view",
      "type": "function"
    },
    {
      "inputs": [],
      "name": "currentFinalizedState",
      "outputs": [
        {
          "internalType": "bytes32",
          "name": "",
          "type": "bytes32"
        }
      ],
      "stateMutability": "view",
      "type": "function"
    },
    {
      "inputs": [],
      "name": "currentL2BlockNumber",
      "outputs": [
        {
          "internalType": "uint256",
          "name": "",
          "type": "uint256"
        }
      ],
      "stateMutability": "view",
      "type": "function"
    },
    {
      "inputs": [],
      "name": "currentPeriodAmountInWei",
      "outputs": [
        {
          "internalType": "uint256",
          "name": "",
          "type": "uint256"
        }
      ],
      "stateMutability": "view",
      "type": "function"
    },
    {
      "inputs": [],
      "name": "currentPeriodEnd",
      "outputs": [
        {
          "internalType": "uint256",
          "name": "",
          "type": "uint256"
        }
      ],
      "stateMutability": "view",
      "type": "function"
    },
    {
      "inputs": [
        {
          "internalType": "bytes",
          "name": "_aggregatedProof",
          "type": "bytes"
        },
        {
          "internalType": "uint256",
          "name": "_proofType",
          "type": "uint256"
        },
        {
          "components": [
            {
              "internalType": "bytes32",
              "name": "parentStateRootHash",
              "type": "bytes32"
            },
            {
              "internalType": "uint256",
              "name": "endBlockNumber",
              "type": "uint256"
            },
            {
              "components": [
                {
                  "internalType": "bytes32",
                  "name": "parentShnarf",
                  "type": "bytes32"
                },
                {
                  "internalType": "bytes32",
                  "name": "snarkHash",
                  "type": "bytes32"
                },
                {
                  "internalType": "bytes32",
                  "name": "finalStateRootHash",
                  "type": "bytes32"
                },
                {
                  "internalType": "bytes32",
                  "name": "dataEvaluationPoint",
                  "type": "bytes32"
                },
                {
                  "internalType": "bytes32",
                  "name": "dataEvaluationClaim",
                  "type": "bytes32"
                }
              ],
              "internalType": "struct ILineaRollupBase.ShnarfData",
              "name": "shnarfData",
              "type": "tuple"
            },
            {
              "internalType": "uint256",
              "name": "lastFinalizedTimestamp",
              "type": "uint256"
            },
            {
              "internalType": "uint256",
              "name": "finalTimestamp",
              "type": "uint256"
            },
            {
              "internalType": "bytes32",
              "name": "lastFinalizedL1RollingHash",
              "type": "bytes32"
            },
            {
              "internalType": "bytes32",
              "name": "l1RollingHash",
              "type": "bytes32"
            },
            {
              "internalType": "uint256",
              "name": "lastFinalizedL1RollingHashMessageNumber",
              "type": "uint256"
            },
            {
              "internalType": "uint256",
              "name": "l1RollingHashMessageNumber",
              "type": "uint256"
            },
            {
              "internalType": "uint256",
              "name": "l2MerkleTreesDepth",
              "type": "uint256"
            },
            {
              "internalType": "bytes32[]",
              "name": "l2MerkleRoots",
              "type": "bytes32[]"
            },
            {
              "internalType": "bytes",
              "name": "l2MessagingBlocksOffsets",
              "type": "bytes"
            }
          ],
          "internalType": "struct ILineaRollupBase.FinalizationDataV3",
          "name": "_finalizationData",
          "type": "tuple"
        }
      ],
      "name": "finalizeBlocks",
      "outputs": [],
      "stateMutability": "nonpayable",
      "type": "function"
    },
    {
      "inputs": [],
      "name": "fund",
      "outputs": [],
      "stateMutability": "payable",
      "type": "function"
    },
    {
      "inputs": [
        {
          "internalType": "bytes32",
          "name": "role",
          "type": "bytes32"
        }
      ],
      "name": "getRoleAdmin",
      "outputs": [
        {
          "internalType": "bytes32",
          "name": "",
          "type": "bytes32"
        }
      ],
      "stateMutability": "view",
      "type": "function"
    },
    {
      "inputs": [
        {
          "internalType": "bytes32",
          "name": "role",
          "type": "bytes32"
        },
        {
          "internalType": "address",
          "name": "account",
          "type": "address"
        }
      ],
      "name": "grantRole",
      "outputs": [],
      "stateMutability": "nonpayable",
      "type": "function"
    },
    {
      "inputs": [
        {
          "internalType": "bytes32",
          "name": "role",
          "type": "bytes32"
        },
        {
          "internalType": "address",
          "name": "account",
          "type": "address"
        }
      ],
      "name": "hasRole",
      "outputs": [
        {
          "internalType": "bool",
          "name": "",
          "type": "bool"
        }
      ],
      "stateMutability": "view",
      "type": "function"
    },
    {
      "inputs": [
        {
          "internalType": "bytes32",
          "name": "messageHash",
          "type": "bytes32"
        }
      ],
      "name": "inboxL2L1MessageStatus",
      "outputs": [
        {
          "internalType": "uint256",
          "name": "messageStatus",
          "type": "uint256"
        }
      ],
      "stateMutability": "view",
      "type": "function"
    },
    {
      "inputs": [
        {
          "components": [
            {
              "internalType": "bytes32",
              "name": "initialStateRootHash",
              "type": "bytes32"
            },
            {
              "internalType": "uint256",
              "name": "initialL2BlockNumber",
              "type": "uint256"
            },
            {
              "internalType": "uint256",
              "name": "genesisTimestamp",
              "type": "uint256"
            },
            {
              "internalType": "address",
              "name": "defaultVerifier",
              "type": "address"
            },
            {
              "internalType": "uint256",
              "name": "rateLimitPeriodInSeconds",
              "type": "uint256"
            },
            {
              "internalType": "uint256",
              "name": "rateLimitAmountInWei",
              "type": "uint256"
            },
            {
              "components": [
                {
                  "internalType": "address",
                  "name": "addressWithRole",
                  "type": "address"
                },
                {
                  "internalType": "bytes32",
                  "name": "role",
                  "type": "bytes32"
                }
              ],
              "internalType": "struct IPermissionsManager.RoleAddress[]",
              "name": "roleAddresses",
              "type": "tuple[]"
            },
            {
              "components": [
                {
                  "internalType": "enum IPauseManager.PauseType",
                  "name": "pauseType",
                  "type": "uint8"
                },
                {
                  "internalType": "bytes32",
                  "name": "role",
                  "type": "bytes32"
                }
              ],
              "internalType": "struct IPauseManager.PauseTypeRole[]",
              "name": "pauseTypeRoles",
              "type": "tuple[]"
            },
            {
              "components": [
                {
                  "internalType": "enum IPauseManager.PauseType",
                  "name": "pauseType",
                  "type": "uint8"
                },
                {
                  "internalType": "bytes32",
                  "name": "role",
                  "type": "bytes32"
                }
              ],
              "internalType": "struct IPauseManager.PauseTypeRole[]",
              "name": "unpauseTypeRoles",
              "type": "tuple[]"
            },
            {
              "internalType": "address",
              "name": "defaultAdmin",
              "type": "address"
            },
            {
              "internalType": "address",
              "name": "shnarfProvider",
              "type": "address"
            }
          ],
          "internalType": "struct ILineaRollupBase.BaseInitializationData",
          "name": "_initializationData",
          "type": "tuple"
        },
        {
          "internalType": "address",
          "name": "_livenessRecoveryOperator",
          "type": "address"
        },
        {
          "internalType": "address",
          "name": "_yieldManager",
          "type": "address"
        }
      ],
      "name": "initialize",
      "outputs": [],
      "stateMutability": "nonpayable",
      "type": "function"
    },
    {
      "inputs": [
        {
          "internalType": "uint256",
          "name": "_messageNumber",
          "type": "uint256"
        }
      ],
      "name": "isMessageClaimed",
      "outputs": [
        {
          "internalType": "bool",
          "name": "isClaimed",
          "type": "bool"
        }
      ],
      "stateMutability": "view",
      "type": "function"
    },
    {
      "inputs": [
        {
          "internalType": "enum IPauseManager.PauseType",
          "name": "_pauseType",
          "type": "uint8"
        }
      ],
      "name": "isPaused",
      "outputs": [
        {
          "internalType": "bool",
          "name": "pauseTypeIsPaused",
          "type": "bool"
        }
      ],
      "stateMutability": "view",
      "type": "function"
    },
    {
      "inputs": [],
      "name": "isWithdrawLSTAllowed",
      "outputs": [
        {
          "internalType": "bool",
          "name": "",
          "type": "bool"
        }
      ],
      "stateMutability": "view",
      "type": "function"
    },
    {
      "inputs": [
        {
          "internalType": "bytes32",
          "name": "merkleRoot",
          "type": "bytes32"
        }
      ],
      "name": "l2MerkleRootsDepths",
      "outputs": [
        {
          "internalType": "uint256",
          "name": "treeDepth",
          "type": "uint256"
        }
      ],
      "stateMutability": "view",
      "type": "function"
    },
    {
      "inputs": [],
      "name": "limitInWei",
      "outputs": [
        {
          "internalType": "uint256",
          "name": "",
          "type": "uint256"
        }
      ],
      "stateMutability": "view",
      "type": "function"
    },
    {
      "inputs": [],
      "name": "livenessRecoveryOperator",
      "outputs": [
        {
          "internalType": "address",
          "name": "",
          "type": "address"
        }
      ],
      "stateMutability": "view",
      "type": "function"
    },
    {
      "inputs": [],
      "name": "nextMessageNumber",
      "outputs": [
        {
          "internalType": "uint256",
          "name": "",
          "type": "uint256"
        }
      ],
      "stateMutability": "view",
      "type": "function"
    },
    {
      "inputs": [],
      "name": "nonSecurityCouncilCooldownEnd",
      "outputs": [
        {
          "internalType": "uint256",
          "name": "",
          "type": "uint256"
        }
      ],
      "stateMutability": "view",
      "type": "function"
    },
    {
      "inputs": [
        {
          "internalType": "bytes32",
          "name": "messageHash",
          "type": "bytes32"
        }
      ],
      "name": "outboxL1L2MessageStatus",
      "outputs": [
        {
          "internalType": "uint256",
          "name": "messageStatus",
          "type": "uint256"
        }
      ],
      "stateMutability": "view",
      "type": "function"
    },
    {
      "inputs": [
        {
          "internalType": "enum IPauseManager.PauseType",
          "name": "_pauseType",
          "type": "uint8"
        }
      ],
      "name": "pauseByType",
      "outputs": [],
      "stateMutability": "nonpayable",
      "type": "function"
    },
    {
      "inputs": [
        {
          "internalType": "enum IPauseManager.PauseType",
          "name": "pauseType",
          "type": "uint8"
        }
      ],
      "name": "pauseTypeExpiryTimestamps",
      "outputs": [
        {
          "internalType": "uint256",
          "name": "expiryTimestamp",
          "type": "uint256"
        }
      ],
      "stateMutability": "view",
      "type": "function"
    },
    {
      "inputs": [],
      "name": "periodInSeconds",
      "outputs": [
        {
          "internalType": "uint256",
          "name": "",
          "type": "uint256"
        }
      ],
      "stateMutability": "view",
      "type": "function"
    },
    {
      "inputs": [
        {
          "components": [
            {
              "internalType": "address",
              "name": "addressWithRole",
              "type": "address"
            },
            {
              "internalType": "bytes32",
              "name": "role",
              "type": "bytes32"
            }
          ],
          "internalType": "struct IPermissionsManager.RoleAddress[]",
          "name": "_roleAddresses",
          "type": "tuple[]"
        },
        {
          "components": [
            {
              "internalType": "enum IPauseManager.PauseType",
              "name": "pauseType",
              "type": "uint8"
            },
            {
              "internalType": "bytes32",
              "name": "role",
              "type": "bytes32"
            }
          ],
          "internalType": "struct IPauseManager.PauseTypeRole[]",
          "name": "_pauseTypeRoles",
          "type": "tuple[]"
        },
        {
          "components": [
            {
              "internalType": "enum IPauseManager.PauseType",
              "name": "pauseType",
              "type": "uint8"
            },
            {
              "internalType": "bytes32",
              "name": "role",
              "type": "bytes32"
            }
          ],
          "internalType": "struct IPauseManager.PauseTypeRole[]",
          "name": "_unpauseTypeRoles",
          "type": "tuple[]"
        }
      ],
      "name": "reinitializeV8",
      "outputs": [],
      "stateMutability": "nonpayable",
      "type": "function"
    },
    {
      "inputs": [
        {
          "internalType": "bytes32",
          "name": "_role",
          "type": "bytes32"
        },
        {
          "internalType": "address",
          "name": "_account",
          "type": "address"
        }
      ],
      "name": "renounceRole",
      "outputs": [],
      "stateMutability": "nonpayable",
      "type": "function"
    },
    {
      "inputs": [
        {
          "internalType": "uint256",
          "name": "_amount",
          "type": "uint256"
        },
        {
          "internalType": "address",
          "name": "_l2YieldRecipient",
          "type": "address"
        }
      ],
      "name": "reportNativeYield",
      "outputs": [],
      "stateMutability": "nonpayable",
      "type": "function"
    },
    {
      "inputs": [],
      "name": "resetAmountUsedInPeriod",
      "outputs": [],
      "stateMutability": "nonpayable",
      "type": "function"
    },
    {
      "inputs": [
        {
          "internalType": "uint256",
          "name": "_amount",
          "type": "uint256"
        }
      ],
      "name": "resetRateLimitAmount",
      "outputs": [],
      "stateMutability": "nonpayable",
      "type": "function"
    },
    {
      "inputs": [
        {
          "internalType": "bytes32",
          "name": "role",
          "type": "bytes32"
        },
        {
          "internalType": "address",
          "name": "account",
          "type": "address"
        }
      ],
      "name": "revokeRole",
      "outputs": [],
      "stateMutability": "nonpayable",
      "type": "function"
    },
    {
      "inputs": [
        {
          "internalType": "uint256",
          "name": "messageNumber",
          "type": "uint256"
        }
      ],
      "name": "rollingHashes",
      "outputs": [
        {
          "internalType": "bytes32",
          "name": "rollingHash",
          "type": "bytes32"
        }
      ],
      "stateMutability": "view",
      "type": "function"
    },
    {
      "inputs": [
        {
          "internalType": "address",
          "name": "_to",
          "type": "address"
        },
        {
          "internalType": "uint256",
          "name": "_fee",
          "type": "uint256"
        },
        {
          "internalType": "bytes",
          "name": "_calldata",
          "type": "bytes"
        }
      ],
      "name": "sendMessage",
      "outputs": [],
      "stateMutability": "payable",
      "type": "function"
    },
    {
      "inputs": [],
      "name": "sender",
      "outputs": [
        {
          "internalType": "address",
          "name": "originalSender",
          "type": "address"
        }
      ],
      "stateMutability": "view",
      "type": "function"
    },
    {
      "inputs": [
        {
          "internalType": "uint256",
          "name": "_messageNumber",
          "type": "uint256"
        },
        {
          "internalType": "bytes32",
          "name": "_rollingHash",
          "type": "bytes32"
        },
        {
          "internalType": "uint256",
          "name": "_lastFinalizedTimestamp",
          "type": "uint256"
        }
      ],
      "name": "setLivenessRecoveryOperator",
      "outputs": [],
      "stateMutability": "nonpayable",
      "type": "function"
    },
    {
      "inputs": [
        {
          "internalType": "address",
          "name": "_newVerifierAddress",
          "type": "address"
        },
        {
          "internalType": "uint256",
          "name": "_proofType",
          "type": "uint256"
        }
      ],
      "name": "setVerifierAddress",
      "outputs": [],
      "stateMutability": "nonpayable",
      "type": "function"
    },
    {
      "inputs": [
        {
          "internalType": "address",
          "name": "_newYieldManager",
          "type": "address"
        }
      ],
      "name": "setYieldManager",
      "outputs": [],
      "stateMutability": "nonpayable",
      "type": "function"
    },
    {
      "inputs": [],
      "name": "shnarfProvider",
      "outputs": [
        {
          "internalType": "contract IProvideShnarf",
          "name": "",
          "type": "address"
        }
      ],
      "stateMutability": "view",
      "type": "function"
    },
    {
      "inputs": [
        {
          "internalType": "uint256",
          "name": "blockNumber",
          "type": "uint256"
        }
      ],
      "name": "stateRootHashes",
      "outputs": [
        {
          "internalType": "bytes32",
          "name": "stateRootHash",
          "type": "bytes32"
        }
      ],
      "stateMutability": "view",
      "type": "function"
    },
    {
      "inputs": [
        {
          "components": [
            {
              "internalType": "uint256",
              "name": "dataEvaluationClaim",
              "type": "uint256"
            },
            {
              "internalType": "bytes",
              "name": "kzgCommitment",
              "type": "bytes"
            },
            {
              "internalType": "bytes",
              "name": "kzgProof",
              "type": "bytes"
            },
            {
              "internalType": "bytes32",
              "name": "finalStateRootHash",
              "type": "bytes32"
            },
            {
              "internalType": "bytes32",
              "name": "snarkHash",
              "type": "bytes32"
            }
          ],
          "internalType": "struct IAcceptEip4844Blobs.BlobSubmission[]",
          "name": "_blobSubmissions",
          "type": "tuple[]"
        },
        {
          "internalType": "bytes32",
          "name": "_parentShnarf",
          "type": "bytes32"
        },
        {
          "internalType": "bytes32",
          "name": "_finalBlobShnarf",
          "type": "bytes32"
        }
      ],
      "name": "submitBlobs",
      "outputs": [],
      "stateMutability": "nonpayable",
      "type": "function"
    },
    {
      "inputs": [
        {
          "internalType": "bytes4",
          "name": "interfaceId",
          "type": "bytes4"
        }
      ],
      "name": "supportsInterface",
      "outputs": [
        {
          "internalType": "bool",
          "name": "",
          "type": "bool"
        }
      ],
      "stateMutability": "view",
      "type": "function"
    },
    {
      "inputs": [],
      "name": "systemMigrationBlock",
      "outputs": [
        {
          "internalType": "uint256",
          "name": "",
          "type": "uint256"
        }
      ],
      "stateMutability": "view",
      "type": "function"
    },
    {
      "inputs": [
        {
          "internalType": "uint256",
          "name": "_amount",
          "type": "uint256"
        }
      ],
      "name": "transferFundsForNativeYield",
      "outputs": [],
      "stateMutability": "nonpayable",
      "type": "function"
    },
    {
      "inputs": [
        {
          "internalType": "enum IPauseManager.PauseType",
          "name": "_pauseType",
          "type": "uint8"
        }
      ],
      "name": "unPauseByExpiredType",
      "outputs": [],
      "stateMutability": "nonpayable",
      "type": "function"
    },
    {
      "inputs": [
        {
          "internalType": "enum IPauseManager.PauseType",
          "name": "_pauseType",
          "type": "uint8"
        }
      ],
      "name": "unPauseByType",
      "outputs": [],
      "stateMutability": "nonpayable",
      "type": "function"
    },
    {
      "inputs": [
        {
          "internalType": "uint256",
          "name": "_proofType",
          "type": "uint256"
        }
      ],
      "name": "unsetVerifierAddress",
      "outputs": [],
      "stateMutability": "nonpayable",
      "type": "function"
    },
    {
      "inputs": [
        {
          "internalType": "enum IPauseManager.PauseType",
          "name": "_pauseType",
          "type": "uint8"
        },
        {
          "internalType": "bytes32",
          "name": "_newRole",
          "type": "bytes32"
        }
      ],
      "name": "updatePauseTypeRole",
      "outputs": [],
      "stateMutability": "nonpayable",
      "type": "function"
    },
    {
      "inputs": [
        {
          "internalType": "enum IPauseManager.PauseType",
          "name": "_pauseType",
          "type": "uint8"
        },
        {
          "internalType": "bytes32",
          "name": "_newRole",
          "type": "bytes32"
        }
      ],
      "name": "updateUnpauseTypeRole",
      "outputs": [],
      "stateMutability": "nonpayable",
      "type": "function"
    },
    {
      "inputs": [
        {
          "internalType": "uint256",
          "name": "proofType",
          "type": "uint256"
        }
      ],
      "name": "verifiers",
      "outputs": [
        {
          "internalType": "address",
          "name": "verifierAddress",
          "type": "address"
        }
      ],
      "stateMutability": "view",
      "type": "function"
    },
    {
      "inputs": [],
      "name": "yieldManager",
      "outputs": [
        {
          "internalType": "address",
          "name": "",
          "type": "address"
        }
      ],
      "stateMutability": "view",
      "type": "function"
    }
  ],
  "bytecode": "0x6080604052348015600e575f5ffd5b506015601f565b601b601f565b60d9565b5f54610100900460ff161560895760405162461bcd60e51b815260206004820152602760248201527f496e697469616c697a61626c653a20636f6e747261637420697320696e697469604482015266616c697a696e6760c81b606482015260840160405180910390fd5b5f5460ff9081161460d7575f805460ff191660ff9081179091556040519081527f7f26b83ff96e1f2b6a682f133852f6798a09c465da95921460cefb38474024989060200160405180910390a15b565b615fc6806100e65f395ff3fe608060405260043610610569575f3560e01c806373bd07b7116102c4578063ac1eff681161017b578063c1dc0f07116100dc578063d547741f11610092578063e196fb5d1161006d578063e196fb5d146110a1578063e66c2a93146110c0578063f5b541a6146110df575f5ffd5b8063d547741f1461103a578063d722bbfc14611059578063d9fe8bdd1461108c575f5ffd5b8063c7c33a26116100c2578063c7c33a2614610fd2578063cc6f725114610ff1578063cd9b9e9a14611024575f5ffd5b8063c1dc0f0714610f9e578063c211697414610fb3575f5ffd5b8063b9174ba311610131578063bc61e73311610117578063bc61e73314610f37578063bf3e750514610f56578063c0729ab114610f89575f5ffd5b8063b9174ba314610ed1578063b9fe5cf714610f04575f5ffd5b8063aea4f74511610161578063aea4f74514610ea0578063b60d428814610eb4578063b837dbe914610ebc575f5ffd5b8063ac1eff6814610e56578063ad422ff014610e8b575f5ffd5b8063923fe894116102255780639ac25d08116101db5780639f3ce55a116101c15780639f3ce55a14610dfd578063a217fddf14610e10578063a505925f14610e23575f5ffd5b80639ac25d0814610dab5780639ee8b21114610dde575f5ffd5b806396e6e4b31161020b57806396e6e4b314610d61578063986fcddd14610bdb57806399467a3514610d8c575f5ffd5b8063923fe89414610d0f57806395ba81fa14610d42575f5ffd5b80638be745d11161027a578063914e57eb11610260578063914e57eb14610c8957806391d1485414610cb5578063921b278e14610cf9575f5ffd5b80638be745d114610c2a5780638de4948714610c56575f5ffd5b806378ea198a116102aa57806378ea198a14610ba85780637d1e8c5514610bdb57806380b7af1814610bee575f5ffd5b806373bd07b714610b7557806374ce962c14610b89575f5ffd5b80633fc08b65116104235780635c721a0c1161038457806367e404ce1161033a5780636b783172116103155780636b78317214610af05780636e67384314610b0f5780637174c55914610b42575f5ffd5b806367e404ce14610a8a578063695378f514610aa75780636a906b8014610abd575f5ffd5b806360e83cf31161036a57806360e83cf314610a0c5780636321315514610a385780636463fb2a14610a6b575f5ffd5b80635c721a0c146109e15780635ec775b014610695575f5ffd5b806352abf32d116103d95780635603c65f116103bf5780635603c65f146109ad57806358794456146109cc5780635b7eb4bd146108d8575f5ffd5b806352abf32d1461096f578063557eac731461098e575f5ffd5b8063491e093611610409578063491e0936146108fe5780634bb974131461091d5780635230eef21461093c575f5ffd5b80633fc08b65146108ad57806348922ab7146108d8575f5ffd5b80632c70645c116104cd57806338b90333116104835780633b12eccb116104695780633b12eccb1461083b5780633c0f20fc1461086e5780633e9ebfc21461088e575f5ffd5b806338b90333146107d15780633a4c25551461081c575f5ffd5b80632fe35274116104b35780632fe3527414610765578063335f2e381461079357806336568abe146107b2575f5ffd5b80632c70645c146107305780632f2ff15d14610746575f5ffd5b80632130d81211610522578063248a9ca311610508578063248a9ca3146106ab57806328958174146106d95780632acc8df9146106f8575f5ffd5b80632130d8121461066957806321b4deee14610695575f5ffd5b8063085b1c6f11610552578063085b1c6f146105e25780631065a39914610615578063198330f814610636575f5ffd5b806301ffc9a71461056d57806303134d1d146105a1575b5f5ffd5b348015610578575f5ffd5b5061058c61058736600461520f565b611112565b60405190151581526020015b60405180910390f35b3480156105ac575f5ffd5b506105d47f1ab87f7458c0e3d07e9881c14ee67f0141703614fd48ea5b15ed987e5f4b030e81565b604051908152602001610598565b3480156105ed575f5ffd5b506105d47f220bd22ef7c53d75fe3eac0a09e90815a0c5ba4f9e8da8b039542cd3db34725881565b348015610620575f5ffd5b5061063461062f366004615261565b6111aa565b005b348015610641575f5ffd5b506105d47f76ef52a5344b10ed112c1d48c7c06f51e919518ea6fb005f9b25b359b955e3be81565b348015610674575f5ffd5b506105d461068336600461527a565b5f9081526101be602052604090205490565b3480156106a0575f5ffd5b506105d46202a30081565b3480156106b6575f5ffd5b506105d46106c536600461527a565b5f9081526065602052604090206001015490565b3480156106e4575f5ffd5b506106346106f336600461527a565b6113af565b348015610703575f5ffd5b506101c054610718906001600160a01b031681565b6040516001600160a01b039091168152602001610598565b34801561073b575f5ffd5b506105d46101835481565b348015610751575f5ffd5b506106346107603660046152b0565b611457565b348015610770575f5ffd5b507401000000000000000000000000000000000000000060015c0460ff1661058c565b34801561079e575f5ffd5b506106346107ad366004615326565b611480565b3480156107bd575f5ffd5b506106346107cc3660046152b0565b611610565b3480156107dc575f5ffd5b50604080518082018252600381527f372e3100000000000000000000000000000000000000000000000000000000006020820152905161059891906153c5565b348015610827575f5ffd5b506106346108363660046153fa565b61161e565b348015610846575f5ffd5b506105d47fb6cc65f42901ed602aec1619cc1ead29d487cd489094a37615153eaeb991d77081565b348015610879575f5ffd5b506101c154610718906001600160a01b031681565b348015610899575f5ffd5b506106346108a8366004615423565b611783565b3480156108b8575f5ffd5b506105d46108c736600461527a565b60a56020525f908152604090205481565b3480156108e3575f5ffd5b506108ec600181565b60405160ff9091168152602001610598565b348015610909575f5ffd5b50610634610918366004615489565b6118c9565b348015610928575f5ffd5b506106346109373660046152b0565b611b97565b348015610947575f5ffd5b506105d47f0cf0d2deb70d7bdac2fa48c4ac99bc558170be0ce5fcb994caefa4bf7b96edf981565b34801561097a575f5ffd5b50610634610989366004615423565b611ce7565b348015610999575f5ffd5b506106346109a836600461527a565b611e2d565b3480156109b8575f5ffd5b506106346109c7366004615519565b611ef7565b3480156109d7575f5ffd5b506105d460995481565b3480156109ec575f5ffd5b506105d46109fb36600461527a565b60a66020525f908152604090205481565b348015610a17575f5ffd5b506105d4610a2636600461527a565b6101506020525f908152604090205481565b348015610a43575f5ffd5b506105d47fe37c272ea30e2bb381ad7cf89ae754b49153250609f36d0cbdad8b64c184bb5c81565b348015610a76575f5ffd5b50610634610a853660046155a2565b612090565b348015610a95575f5ffd5b5060015c6001600160a01b0316610718565b348015610ab2575f5ffd5b506105d46101195481565b348015610ac8575f5ffd5b506105d47fd8b4c34c2ec1f3194471108c64ad2beda340c0337ee4ca35592f9ef270f4228b81565b348015610afb575f5ffd5b50610634610b0a3660046155dc565b612227565b348015610b1a575f5ffd5b506105d47f32937fd5162e282df7e9a14a5073a2425321c7966eaf70ed6c838a1006d84c4c81565b348015610b4d575f5ffd5b506105d47f4b4665d8754e6ea0608430ef3e91c1b45c72aafe8800e289cd35f38d8536185881565b348015610b80575f5ffd5b506108ec600281565b348015610b94575f5ffd5b50610634610ba3366004615620565b61246c565b348015610bb3575f5ffd5b506105d47f4df33217c89b6f12af38ba46035cb312b5e88de78d22279286830fe079b642cd81565b348015610be6575f5ffd5b506108ec5f81565b348015610bf9575f5ffd5b507f594904a11ae10ad7613c91ac3c92c7c3bba397934d377ce6d3e0aaffbc17df00546001600160a01b0316610718565b348015610c35575f5ffd5b506105d4610c4436600461527a565b61011a6020525f908152604090205481565b348015610c61575f5ffd5b506105d47fe1fce82838dd7a42cfe783f60dc6233c8aa2c4fc66e77817805e767ec5e349b681565b348015610c94575f5ffd5b506105d4610ca336600461527a565b61014e6020525f908152604090205481565b348015610cc0575f5ffd5b5061058c610ccf3660046152b0565b5f9182526065602090815260408084206001600160a01b0393909316845291905290205460ff1690565b348015610d04575f5ffd5b506105d46101bf5481565b348015610d1a575f5ffd5b506105d47fcc10d6eec3c757d645e27b3f3001a3ba52f692da0bce25fabf58c6ecaf37645081565b348015610d4d575f5ffd5b50610634610d5c366004615261565b61249f565b348015610d6c575f5ffd5b506105d4610d7b366004615261565b60de6020525f908152604090205481565b348015610d97575f5ffd5b50610634610da636600461563b565b61264b565b348015610db6575f5ffd5b506105d47f56bdc3c9ec86cb7db110a7699b2ade72f0b8819727d9f7d906b012641505fa7781565b348015610de9575f5ffd5b5061058c610df836600461527a565b612694565b610634610e0b3660046156b8565b6126b7565b348015610e1b575f5ffd5b506105d45f81565b348015610e2e575f5ffd5b506105d47f21aba2dd4535739d4ca4cddb3c024036bfcc88cfce067cb0847e7ad0f9cfaa5581565b348015610e61575f5ffd5b50610718610e7036600461527a565b61011b6020525f90815260409020546001600160a01b031681565b348015610e96575f5ffd5b506105d460985481565b348015610eab575f5ffd5b506106346126d5565b610634612730565b348015610ec7575f5ffd5b506105d460e45481565b348015610edc575f5ffd5b506105d47f430a7f0cb00b5ebbe63cecc96e82cf959a883e7c13a95110854f1fa6b3fbf59881565b348015610f0f575f5ffd5b506105d47f1453a531db80c85f2d944d498709d84959bc5bf839eefe9acb784571e5a3211881565b348015610f42575f5ffd5b5061058c610f51366004615261565b61279e565b348015610f61575f5ffd5b506105d47f1185e52d62bfbbea270e57d3d09733d221b53ab7a18bae82bb3c6c74bab16d8281565b348015610f94575f5ffd5b506105d4609a5481565b348015610fa9575f5ffd5b506105d460975481565b348015610fbe575f5ffd5b50610634610fcd366004615710565b6127c2565b348015610fdd575f5ffd5b50610634610fec36600461572c565b6128a4565b348015610ffc575f5ffd5b506105d47fe8cb6172fcf5cbaae022b7c910224a4f0c20d53227e630056efff182155a5abc81565b34801561102f575f5ffd5b506105d46101bd5481565b348015611045575f5ffd5b506106346110543660046152b0565b6129f0565b348015611064575f5ffd5b506105d47f6b5661ddfbd1fbd525c902a513e0f47d9c74f1c1ee8a2d4f1937ad305fb8f41a81565b348015611097575f5ffd5b506105d460dd5481565b3480156110ac575f5ffd5b506106346110bb366004615261565b612a14565b3480156110cb575f5ffd5b506106346110da36600461527a565b612d1b565b3480156110ea575f5ffd5b506105d47f97667070c54ef182b0f5858b034beac1b6f3089aa2d3188bb1e8929f4fa9b92981565b5f7fffffffff0000000000000000000000000000000000000000000000000000000082167f7965db0b0000000000000000000000000000000000000000000000000000000014806111a457507f01ffc9a7000000000000000000000000000000000000000000000000000000007fffffffff000000000000000000000000000000000000000000000000000000008316145b92915050565b805f81600d8111156111be576111be615791565b036111dc576040516385994c7760e01b815260040160405180910390fd5b60dc5f83600d8111156111f1576111f1615791565b600d81111561120257611202615791565b81526020019081526020015f205461121981612dcf565b6112228361279e565b61126357826040517f1865965400000000000000000000000000000000000000000000000000000000815260040161125a91906157c5565b60405180910390fd5b5f1960de5f85600d81111561127a5761127a615791565b600d81111561128b5761128b615791565b81526020019081526020015f20541480156112d45750335f9081527f74a8627e7e8109f70747bbdf2c891159d40f925b9c8f09259a497b8c31b3780b602052604090205460ff16155b1561130d57826040517f8eee14d400000000000000000000000000000000000000000000000000000000815260040161125a91906157c5565b60de5f84600d81111561132257611322615791565b600d81111561133357611333615791565b81526020019081526020015f205f905582600d81111561135557611355615791565b60da8054600190921b19909116905582600d81111561137657611376615791565b6040513381527fd071d2b85dec4489435b541d2f0e2570db09b09db9efd8703948d44a433df65a906020015b60405180910390a2505050565b7f6b5661ddfbd1fbd525c902a513e0f47d9c74f1c1ee8a2d4f1937ad305fb8f41a6113d981612dcf565b5f82815261011b602090815260408083205490516001600160a01b0390911681523392859290917f4a29db3fc6b42bda201e4b4d69ce8d575eeeba5f153509c0d0a342af0f1bd021910160405180910390a4505f90815261011b60205260409020805473ffffffffffffffffffffffffffffffffffffffff19169055565b5f8281526065602052604090206001015461147181612dcf565b61147b8383612ddc565b505050565b5f54600890610100900460ff161580156114a057505f5460ff8083169116105b6115125760405162461bcd60e51b815260206004820152602e60248201527f496e697469616c697a61626c653a20636f6e747261637420697320616c72656160448201527f647920696e697469616c697a6564000000000000000000000000000000000000606482015260840161125a565b5f805461ffff191660ff83161761010017905561153185858585612e7c565b61153b87876130f7565b6101c1805473ffffffffffffffffffffffffffffffffffffffff1916301790556040517f372e310000000000000000000000000000000000000000000000000000000000907f372e300000000000000000000000000000000000000000000000000000000000907f2f8492a7a430cf917798dfb60bc5af634f68e6c40287947df0ea6f7ec0669bd8905f90a35f805461ff001916905560405160ff821681527f7f26b83ff96e1f2b6a682f133852f6798a09c465da95921460cefb38474024989060200160405180910390a150505050505050565b61161a8282613265565b5050565b61162b62f099c0826157e7565b421015611664576040517f4306cbb100000000000000000000000000000000000000000000000000000000815260040160405180910390fd5b6040805184815260208101849052908101829052606090206101bf54146116dc576101bf546040805185815260208101859052908101839052606090206040517fbc5aad110000000000000000000000000000000000000000000000000000000081526004810192909252602482015260440161125a565b6101c0546001600160a01b03165f8181527fbdd154b7c599a43e8b8410b62e84571cd69a79e95c9fc5b630a687cb7c97edf9602052604090205460ff1661177d576117477f97667070c54ef182b0f5858b034beac1b6f3089aa2d3188bb1e8929f4fa9b92982612ddc565b6040516001600160a01b0382169033907f6cfaf6b76ea493a8e88b6b95f7b34cdaae196c4ed737b32e72c5d9e8d0a18518905f90a35b50505050565b815f81600d81111561179757611797615791565b036117b5576040516385994c7760e01b815260040160405180910390fd5b7f1453a531db80c85f2d944d498709d84959bc5bf839eefe9acb784571e5a321186117df81612dcf565b5f60db5f86600d8111156117f5576117f5615791565b600d81111561180657611806615791565b81526020019081526020015f2054905083810361184f576040517f1b807f5500000000000000000000000000000000000000000000000000000000815260040160405180910390fd5b8360db5f87600d81111561186557611865615791565b600d81111561187657611876615791565b815260208101919091526040015f2055808486600d81111561189a5761189a615791565b6040517f074bfc3728ef1e98bde10bcb5bd8cde59cff190c2bfda5d22f879f865a07bac5905f90a45050505050565b60015f5c03611904576040517f37ed32e800000000000000000000000000000000000000000000000000000000815260040160405180910390fd5b6001805f5d5085878484875f5a905061191d60036132b8565b8d6001805c73ffffffffffffffffffffffffffffffffffffffff19166001600160a01b03831617905d505f6119578f8f8f8f8c8f8f61334a565b9050611962816133a3565b61197461196f8d8f6157e7565b6133fd565b5f5f8f6001600160a01b03168e8d8d6040516119919291906157fa565b5f6040518083038185875af1925050503d805f81146119cb576040519150601f19603f3d011682016040523d82523d5f602084013e6119d0565b606091505b509150915081611a2d578051156119ea5780518082602001fd5b8f6040517f5461344300000000000000000000000000000000000000000000000000000000815260040161125a91906001600160a01b0391909116815260200190565b5f6001805c73ffffffffffffffffffffffffffffffffffffffff1916905d5060405183907fa4c827e719e911e8f19393ccdb85b5102f08f0910604d340ba38390b7ff2ab0e905f90a2505086159050611b8157855f849003611af757853b158015611af5573a5a611aa061bc7c866157e7565b611aaa9190615809565b611ab4919061581c565b915081881115611af1576001600160a01b0387166108fc611ad5848b615809565b6040518115909202915f818181858888f1935050505050611af5565b8791505b505b5f6001600160a01b03841615611b0d5783611b0f565b335b90505f816001600160a01b03166108fc8490811502906040515f60405180830381858888f19350505050905080611b7d576040517fa57c4df40000000000000000000000000000000000000000000000000000000081526001600160a01b038316600482015260240161125a565b5050505b5050505050505f5f81905d505050505050505050565b6002611ba2816132b8565b7f594904a11ae10ad7613c91ac3c92c7c3bba397934d377ce6d3e0aaffbc17df00546001600160a01b03163314611c05576040517fa1cfbf5900000000000000000000000000000000000000000000000000000000815260040160405180910390fd5b6001600160a01b038216611c2c576040516342bcdf7f60e11b815260040160405180910390fd5b60e480545f9182611c3c83615833565b9091555060408051308152602081018690525f918101829052606081018790526080810183905260c060a08201819052810182905260e0902091925050611c838282613473565b604080515f80825260208201889052818301859052608060608301819052820152905182916001600160a01b0387169133917fe856c2b8bd4eb0027ce32eeaf595c21b0b6b4644b326e5b7bd80a1cf8db72e6c919081900360a00190a45050505050565b815f81600d811115611cfb57611cfb615791565b03611d19576040516385994c7760e01b815260040160405180910390fd5b7f1453a531db80c85f2d944d498709d84959bc5bf839eefe9acb784571e5a32118611d4381612dcf565b5f60dc5f86600d811115611d5957611d59615791565b600d811115611d6a57611d6a615791565b81526020019081526020015f20549050838103611db3576040517f1b807f5500000000000000000000000000000000000000000000000000000000815260040160405180910390fd5b8360dc5f87600d811115611dc957611dc9615791565b600d811115611dda57611dda615791565b815260208101919091526040015f2055808486600d811115611dfe57611dfe615791565b6040517ff8ef9f1cde7c2c0d3aeb696678f76d7c1c3e13c3b79ea3c5160a2d9eaa821cfd905f90a45050505050565b7f1185e52d62bfbbea270e57d3d09733d221b53ab7a18bae82bb3c6c74bab16d82611e5781612dcf565b5f5f5f426099541015611e7c57609754611e7190426157e7565b609955506001611e8e565b609a54851015611e8e57849250600191505b60988590558080611e9c5750815b15611ea757609a8390555b6040805186815283151560208201528215159181019190915233907fbc3dc0cb5c15c51c81316450d44048838bb478b9809447d01c766a06f3e9f2c8906060015b60405180910390a25050505050565b6006611f02816132b8565b7f97667070c54ef182b0f5858b034beac1b6f3089aa2d3188bb1e8929f4fa9b929611f2c81612dcf565b5f859003611f66576040517f7907d79b00000000000000000000000000000000000000000000000000000000815260040160405180910390fd5b610119545f81815261011a6020526040902054843514611fb2576040517fead4c30e00000000000000000000000000000000000000000000000000000000815260040160405180910390fd5b6101bd545f86815261011b60205260409020546001600160a01b031680612005576040517f69ed70ab00000000000000000000000000000000000000000000000000000000815260040160405180910390fd5b61208561207d87846120178a886134d0565b87866001600160a01b031663b02384ad6040518163ffffffff1660e01b8152600401602060405180830381865afa158015612054573d5f5f3e3d5ffd5b505050506040513d601f19601f82011682018060405250810190612078919061584b565b6137e8565b828b8b61387c565b505050505050505050565b60015f5c036120cb576040517f37ed32e800000000000000000000000000000000000000000000000000000000815260040160405180910390fd5b6001805f5d5060a081018035906120e59060808401615620565b6120f3610120840184615862565b612104610100860160e08701615620565b5f5a905061211187613a73565b851561221857855f84900361218e57853b15801561218c573a5a61213761bc7c866157e7565b6121419190615809565b61214b919061581c565b915081881115612188576001600160a01b0387166108fc61216c848b615809565b6040518115909202915f818181858888f193505050505061218c565b8791505b505b5f6001600160a01b038416156121a457836121a6565b335b90505f816001600160a01b03166108fc8490811502906040515f60405180830381858888f19350505050905080612214576040517fa57c4df40000000000000000000000000000000000000000000000000000000081526001600160a01b038316600482015260240161125a565b5050505b5050505050505f5f81905d5050565b60015f5c03612262576040517f37ed32e800000000000000000000000000000000000000000000000000000000815260040160405180910390fd5b6001805f5d50478260c00135116122a5576040517f62d5cfe000000000000000000000000000000000000000000000000000000000815260040160405180910390fd5b6122b560a0830160808401615620565b6001600160a01b0316336001600160a01b0316146122ff576040517f0a5c9f3500000000000000000000000000000000000000000000000000000000815260040160405180910390fd5b5f61230983613d5a565b905060017fffffffffffffffffffffff00ffffffffffffffffffffffffffffffffffffffff815c167401000000000000000000000000000000000000000017815d507f594904a11ae10ad7613c91ac3c92c7c3bba397934d377ce6d3e0aaffbc17df00546001600160a01b0316633e4903b78360c086013561239160a0880160808901615620565b60405160e085901b7fffffffff000000000000000000000000000000000000000000000000000000001681526001600160a01b039384166004820152602481019290925290911660448201526064015f604051808303815f87803b1580156123f7575f5ffd5b505af1158015612409573d5f5f3e3d5ffd5b505f925050506001805c7fffffffffffffffffffffff00ffffffffffffffffffffffffffffffffffffffff16905d5060405181907fa4c827e719e911e8f19393ccdb85b5102f08f0910604d340ba38390b7ff2ab0e905f90a2505f80805d505050565b7f76ef52a5344b10ed112c1d48c7c06f51e919518ea6fb005f9b25b359b955e3be61249681612dcf565b61161a82613e52565b805f81600d8111156124b3576124b3615791565b036124d1576040516385994c7760e01b815260040160405180910390fd5b6124da8261279e565b61251257816040517f1865965400000000000000000000000000000000000000000000000000000000815260040161125a91906157c5565b60de5f83600d81111561252757612527615791565b600d81111561253857612538615791565b81526020019081526020015f20544210156125b65760de5f83600d81111561256257612562615791565b600d81111561257357612573615791565b81526020019081526020015f20546040517fcfd8aa6f00000000000000000000000000000000000000000000000000000000815260040161125a91815260200190565b60de5f83600d8111156125cb576125cb615791565b600d8111156125dc576125dc615791565b81526020019081526020015f205f905581600d8111156125fe576125fe615791565b60da8054600190921b19909116905581600d81111561261f5761261f615791565b6040517f3ddaeb19197ed3b5334f4c1cd5716f663d0f6dce30c52800bd1674da0b88e87a905f90a25050565b600d612656816132b8565b7f97667070c54ef182b0f5858b034beac1b6f3089aa2d3188bb1e8929f4fa9b92961268081612dcf565b61268c86868686613f0e565b505050505050565b600881901c5f90815261014f6020526040812054600160ff84161b1615156111a4565b60026126c2816132b8565b6126ce858585856140e1565b5050505050565b7f0cf0d2deb70d7bdac2fa48c4ac99bc558170be0ce5fcb994caefa4bf7b96edf96126ff81612dcf565b5f609a81905560405133917fba88c025b0cbb77022c0c487beef24f759f1e4be2f51a205bc427cee19c2eaa691a250565b345f03612769576040517f717e6b7b00000000000000000000000000000000000000000000000000000000815260040160405180910390fd5b6040513481527fe455499c2acd509bdadebaf5a8fd54c083da31dbe98e785f2a72cdff04e32e009060200160405180910390a1565b5f81600d8111156127b1576127b1615791565b60da54600190911b16151592915050565b7f32937fd5162e282df7e9a14a5073a2425321c7966eaf70ed6c838a1006d84c4c6127ec81612dcf565b6001600160a01b038316612813576040516342bcdf7f60e11b815260040160405180910390fd5b5f82815261011b60209081526040918290205491516001600160a01b03928316815233928592908716917f4a29db3fc6b42bda201e4b4d69ce8d575eeeba5f153509c0d0a342af0f1bd021910160405180910390a4505f90815261011b60205260409020805473ffffffffffffffffffffffffffffffffffffffff19166001600160a01b0392909216919091179055565b5f54600890610100900460ff161580156128c457505f5460ff8083169116105b6129365760405162461bcd60e51b815260206004820152602e60248201527f496e697469616c697a61626c653a20636f6e747261637420697320616c72656160448201527f647920696e697469616c697a6564000000000000000000000000000000000000606482015260840161125a565b5f805461ffff191660ff831617610100178155612979818087358180604080519586526020860194909452928401919091526060830152608082015260a0902090565b5f8181526101be6020526040902060019055905061299785826141de565b6129a084614444565b6129a9836144c4565b505f805461ff001916905560405160ff821681527f7f26b83ff96e1f2b6a682f133852f6798a09c465da95921460cefb38474024989060200160405180910390a150505050565b5f82815260656020526040902060010154612a0a81612dcf565b61147b8383614537565b805f81600d811115612a2857612a28615791565b03612a46576040516385994c7760e01b815260040160405180910390fd5b60db5f83600d811115612a5b57612a5b615791565b600d811115612a6c57612a6c615791565b81526020019081526020015f2054612a8381612dcf565b335f9081527f74a8627e7e8109f70747bbdf2c891159d40f925b9c8f09259a497b8c31b3780b602052604090205460ff16612abd8461279e565b8015612ac7575080155b80612b0557505f1960de5f86600d811115612ae457612ae4615791565b600d811115612af557612af5615791565b81526020019081526020015f2054145b15612b3e57836040517fc0a71b5800000000000000000000000000000000000000000000000000000000815260040161125a91906157c5565b8015612be7575f1960de5f86600d811115612b5b57612b5b615791565b600d811115612b6c57612b6c615791565b815260208101919091526040015f205583600d811115612b8e57612b8e615791565b60da8054600190921b909117905583600d811115612bae57612bae615791565b6040805133815290517f36287ed6be33e8d1abe33ad8d38ab23b67a5126b7140660a8a25920bdc30a1999181900360200190a250505050565b60dd54428111612c3b57426202a300018060de5f88600d811115612c0d57612c0d615791565b600d811115612c1e57612c1e615791565b815260208101919091526040015f20556202a3000160dd55612cb9565b6202a30042820311612c7c576040517fc04205ee0000000000000000000000000000000000000000000000000000000081526004810182905260240161125a565b6202a300810360de5f87600d811115612c9757612c97615791565b600d811115612ca857612ca8615791565b815260208101919091526040015f20555b84600d811115612ccb57612ccb615791565b60da8054600190921b909117905584600d811115612ceb57612ceb615791565b6040513381527f534f879afd40abb4e39f8e1b77a316be4c8e3521d9cf5a3a3db8959d574d455990602001611ee8565b6009612d26816132b8565b7f220bd22ef7c53d75fe3eac0a09e90815a0c5ba4f9e8da8b039542cd3db347258612d5081612dcf565b7f594904a11ae10ad7613c91ac3c92c7c3bba397934d377ce6d3e0aaffbc17df00546001600160a01b03166001600160a01b0316637ab19c10846040518263ffffffff1660e01b81526004015f604051808303818588803b158015612db3575f5ffd5b505af1158015612dc5573d5f5f3e3d5ffd5b5050505050505050565b612dd981336145b8565b50565b5f8281526065602090815260408083206001600160a01b038516845290915290205460ff1661161a575f8281526065602090815260408083206001600160a01b03851684529091529020805460ff19166001179055612e383390565b6001600160a01b0316816001600160a01b0316837f2f8788117e7eff1d82e926ec794901d17c78024a50270940304540a733656f0d60405160405180910390a45050565b5f54610100900460ff16612ee65760405162461bcd60e51b815260206004820152602b60248201527f496e697469616c697a61626c653a20636f6e7472616374206973206e6f74206960448201526a6e697469616c697a696e6760a81b606482015260840161125a565b5f5b83811015612fee57848482818110612f0257612f026158a5565b9050604002016020013560db5f878785818110612f2157612f216158a5565b612f379260206040909202019081019150615261565b600d811115612f4857612f48615791565b600d811115612f5957612f59615791565b815260208101919091526040015f2055848482818110612f7b57612f7b6158a5565b90506040020160200135858583818110612f9757612f976158a5565b612fad9260206040909202019081019150615261565b600d811115612fbe57612fbe615791565b6040517f33aa8fd1ce49e1761bc8d27fd53414bfefc45d690feed0ce55019d7d3aec6091905f90a3600101612ee8565b505f5b818110156126ce5782828281811061300b5761300b6158a5565b9050604002016020013560dc5f85858581811061302a5761302a6158a5565b6130409260206040909202019081019150615261565b600d81111561305157613051615791565b600d81111561306257613062615791565b815260208101919091526040015f2055828282818110613084576130846158a5565b905060400201602001358383838181106130a0576130a06158a5565b6130b69260206040909202019081019150615261565b600d8111156130c7576130c7615791565b6040517fe7bf4b8dc0c17a52dc9e52323a3ab61cb2079db35f969125b1f8a3d984c6f6c2905f90a3600101612ff1565b5f54610100900460ff166131615760405162461bcd60e51b815260206004820152602b60248201527f496e697469616c697a61626c653a20636f6e7472616374206973206e6f74206960448201526a6e697469616c697a696e6760a81b606482015260840161125a565b5f5b8181101561147b575f83838381811061317e5761317e6158a5565b6131949260206040909202019081019150615620565b6001600160a01b0316036131bb576040516342bcdf7f60e11b815260040160405180910390fd5b8282828181106131cd576131cd6158a5565b905060400201602001355f5f1b03613211576040517f0742d05300000000000000000000000000000000000000000000000000000000815260040160405180910390fd5b61325d838383818110613226576132266158a5565b90506040020160200135848484818110613242576132426158a5565b6132589260206040909202019081019150615620565b612ddc565b600101613163565b6101c0546001600160a01b03908116908216036132ae576040517f9395197f00000000000000000000000000000000000000000000000000000000815260040160405180910390fd5b61161a828261462c565b60da5481600d8111156132cd576132cd615791565b6001901b81161561330c57816040517fc0a71b5800000000000000000000000000000000000000000000000000000000815260040161125a91906157c5565b600281161561161a5760016040517fc0a71b5800000000000000000000000000000000000000000000000000000000815260040161125a91906157c5565b5f60405188815287602082015286604082015285606082015284608082015260c060a08201528260c0820152602083065f8115613388578160200390505b848660e085013790930160e001902098975050505050505050565b5f81815260a660205260409020546001146133ed576040517f992d87c30000000000000000000000000000000000000000000000000000000081526004810182905260240161125a565b5f90815260a66020526040812055565b8015612dd9574260995410156134225760975461341a90426157e7565b609955613432565b609a5461342f90826157e7565b90505b60985481111561346e576040517fa74c1c5f00000000000000000000000000000000000000000000000000000000815260040160405180910390fd5b609a55565b5f1982015f90815261014e60208181526040808420548452848252808420868552929091528083208290555190918391839186917fea3b023b4c8680d4b4824f0143132c95476359a2bb70a81d6c5a36f6918f63399190a4505050565b5f6134e58361018001358461014001356146b4565b6101bf54604080516101608601358152610120860135602082015260e086013591810191909152606090201461357b57604080516101608501358152610120850135602082015260e085013591810191909152606090206101bf546040517fbc5aad110000000000000000000000000000000000000000000000000000000081526004810192909252602482015260440161125a565b42836101000135106135c6576040517fbf81c6e0000000000000000000000000000000000000000000000000000000008152610100840135600482015242602482015260440161125a565b6080830135613601576040517f2898482a00000000000000000000000000000000000000000000000000000000815260040160405180910390fd5b61364460408401356060850135608086013560a087013560c0880135604080519586526020860194909452928401919091526060830152608082015260a0902090565b6101c1546040517f2130d812000000000000000000000000000000000000000000000000000000008152600481018390529192506001600160a01b031690632130d81290602401602060405180830381865afa1580156136a6573d5f5f3e3d5ffd5b505050506040513d601f19601f820116820180604052508101906136ca919061584b565b5f03613705576040517fd35bb1d10000000000000000000000000000000000000000000000000000000081526004810182905260240161125a565b6137216137166101c08501856158b9565b856101a00135614781565b6137386137326101e0850185615862565b84614887565b6020808401355f81815261011a909252604090912060808501359055610119556101bd81905561378d610180840135610140850135610100860135604080519384526020840192909252908201526060902090565b6101bf558060208401356137a084615833565b60408051873581526080880135602082015291955085917fa0262dc79e4ccb71ceac8574ae906311ae338aa4a2044fd4ec4b99fad5ab60cb910160405180910390a492915050565b5f604051858152846020820152604060e088016040830137836080820152602080880160a083013760a0610120880160c083013761018081016101c0880135880180356020810260208301843760200290912061016083015250610180810192909252506101a090207f30644e72e131a029b85045b68181585d2833e84879b9709143e1f593f00000019006949350505050565b6040805160018082528183019092525f916020808301908036833701905050905084815f815181106138b0576138b06158a5565b6020026020010181815250505f5f856001600160a01b03168585856040516024016138dd9392919061593c565b60408051601f198184030181529181526020820180517bffffffffffffffffffffffffffffffffffffffffffffffffffffffff167f7e4f7a8a000000000000000000000000000000000000000000000000000000001790525161394091906159ad565b5f604051808303815f865af19150503d805f8114613979576040519150601f19603f3d011682016040523d82523d5f602084013e61397e565b606091505b509150915081613a25578051156139c357602081017bffffffffffffffffffffffffffffffffffffffffffffffffffffffff81511663ca389c4460e01b178152815181fd5b6040517fca389c4400000000000000000000000000000000000000000000000000000000815260206004820152600760248201527f556e6b6e6f776e00000000000000000000000000000000000000000000000000604482015260640161125a565b5f81806020019051810190613a3a91906159b8565b905080612dc5576040517f09bde33900000000000000000000000000000000000000000000000000000000815260040160405180910390fd5b613a7d60036132b8565b6101008101355f908152610150602052604081205490819003613acc576040517f4e68667500000000000000000000000000000000000000000000000000000000815260040160405180910390fd5b613ad682806158b9565b90508114613b255780613ae983806158b9565b6040517f5e3fd6ad000000000000000000000000000000000000000000000000000000008152600481019390935260248301525060440161125a565b613b328260200135614914565b613b4761196f60c084013560a08501356157e7565b5f613b8d613b5b6080850160608601615620565b613b6b60a0860160808701615620565b60a086013560c08701356020880135613b886101208a018a615862565b61334a565b9050613bb881613b9d85806158b9565b613bad60608801604089016159d7565b87610100013561498c565b613bee576040517fb05e92fa00000000000000000000000000000000000000000000000000000000815260040160405180910390fd5b613bfe6080840160608501615620565b6001805c73ffffffffffffffffffffffffffffffffffffffff19166001600160a01b03831617905d505f80613c3960a0860160808701615620565b6001600160a01b031660c0860135613c55610120880188615862565b604051613c639291906157fa565b5f6040518083038185875af1925050503d805f8114613c9d576040519150601f19603f3d011682016040523d82523d5f602084013e613ca2565b606091505b509150915081613d0a57805115613cbc5780518082602001fd5b613ccc60a0860160808701615620565b6040517f546134430000000000000000000000000000000000000000000000000000000081526001600160a01b03909116600482015260240161125a565b5f6001805c73ffffffffffffffffffffffffffffffffffffffff1916905d5060405183907fa4c827e719e911e8f19393ccdb85b5102f08f0910604d340ba38390b7ff2ab0e905f90a25050505050565b5f613d6560036132b8565b6101008201355f908152610150602052604081205490819003613db4576040517f4e68667500000000000000000000000000000000000000000000000000000000815260040160405180910390fd5b613dbe83806158b9565b90508114613dd15780613ae984806158b9565b613dde8360200135614914565b613df361196f60c085013560a08601356157e7565b613e06613b5b6080850160608601615620565b9150613e1682613b9d85806158b9565b613e4c576040517fb05e92fa00000000000000000000000000000000000000000000000000000000815260040160405180910390fd5b50919050565b613e5b81614a99565b7feb44f28f73dc4d72ac2ee43ebf59a1e0c84c11c4d614746c0dc99d9071abd8f97f594904a11ae10ad7613c91ac3c92c7c3bba397934d377ce6d3e0aaffbc17df0054604080516001600160a01b03928316815291841660208301520160405180910390a17f594904a11ae10ad7613c91ac3c92c7c3bba397934d377ce6d3e0aaffbc17df00805473ffffffffffffffffffffffffffffffffffffffff19166001600160a01b0392909216919091179055565b5f839003613f48576040517fb1504a5f00000000000000000000000000000000000000000000000000000000815260040160405180910390fd5b824915613f84576040517f8019aff70000000000000000000000000000000000000000000000000000000081526004810184905260240161125a565b5f5f613fb56040518060a001604052805f815260200160608152602001606081526020015f81526020015f81525090565b845f5b8781101561408e57888882818110613fd257613fd26158a5565b9050602002810190613fe491906159fa565b613fed90615aea565b8149945092508361402d576040517fc0e41e1d0000000000000000000000000000000000000000000000000000000081526004810182905260240161125a565b60808301515f818152602086905260409020955061405b85875f1c865f015187602001518860400151614ac0565b6060848101518551604080519687526020870194909452928501528301869052608083015260a090912090600101613fb8565b5061409e86868460600151614c62565b808514612dc5576040517fd3664fb3000000000000000000000000000000000000000000000000000000008152600481018690526024810182905260440161125a565b6001600160a01b038416614108576040516342bcdf7f60e11b815260040160405180910390fd5b34831115614142576040517fb03b693200000000000000000000000000000000000000000000000000000000815260040160405180910390fd5b60e480545f918261415283615833565b9091555090505f6141638534615809565b90505f61417533888885878a8a61334a565b90506141818382613473565b80876001600160a01b0316336001600160a01b03167fe856c2b8bd4eb0027ce32eeaf595c21b0b6b4644b326e5b7bd80a1cf8db72e6c8986888b8b6040516141cd959493929190615b77565b60405180910390a450505050505050565b5f54610100900460ff166142485760405162461bcd60e51b815260206004820152602b60248201527f496e697469616c697a61626c653a20636f6e7472616374206973206e6f74206960448201526a6e697469616c697a696e6760a81b606482015260840161125a565b5f6142596080840160608501615620565b6001600160a01b031603614280576040516342bcdf7f60e11b815260040160405180910390fd5b6142a361429060e0840184615ba7565b61429e610100860186615ba7565b612e7c565b6142b582608001358360a00135614d44565b5f6142c861014084016101208501615620565b6001600160a01b0316036142ef576040516342bcdf7f60e11b815260040160405180910390fd5b6143055f61325861014085016101208601615620565b61431a61431560c0840184615ba7565b6130f7565b61432a6080830160608401615620565b7f033d11f27e62ab919708ec716731da80d261a6e4253259b7acde9bf89d28ec18805473ffffffffffffffffffffffffffffffffffffffff19166001600160a01b03929092169190911790556020828101356101198190555f90815261011a82526040808220853590556101bd8490558051828152928301919091528084013590820152606090206101bf555f6143c961016084016101408501615620565b90506001600160a01b0381166143dc5750305b6101c1805473ffffffffffffffffffffffffffffffffffffffff19166001600160a01b0383161790556040517fd13bc76982f23a7cdc6e2a712d924401ed41a9e4c6ee26b10ae22f0ff3e267c5906144379085908590615cc6565b60405180910390a1505050565b6001600160a01b03811661446b576040516342bcdf7f60e11b815260040160405180910390fd5b6101c0805473ffffffffffffffffffffffffffffffffffffffff19166001600160a01b03831690811790915560405133907fb341a9e6d33f272cb7b5a20b337763606cbb6c728e7a34cbd3191cdfa0f0cd07905f90a350565b5f54610100900460ff1661452e5760405162461bcd60e51b815260206004820152602b60248201527f496e697469616c697a61626c653a20636f6e7472616374206973206e6f74206960448201526a6e697469616c697a696e6760a81b606482015260840161125a565b612dd981613e52565b5f8281526065602090815260408083206001600160a01b038516845290915290205460ff161561161a575f8281526065602090815260408083206001600160a01b0385168085529252808320805460ff1916905551339285917ff6391f5c32d9c69d2a47ea670b442974b53935d1edc7fd64eb21e047a839171b9190a45050565b5f8281526065602090815260408083206001600160a01b038516845290915290205460ff1661161a576145ea81614dd9565b6145f5836020614deb565b604051602001614606929190615dde565b60408051601f198184030181529082905262461bcd60e51b825261125a916004016153c5565b6001600160a01b03811633146146aa5760405162461bcd60e51b815260206004820152602f60248201527f416363657373436f6e74726f6c3a2063616e206f6e6c792072656e6f756e636560448201527f20726f6c657320666f722073656c660000000000000000000000000000000000606482015260840161125a565b61161a8282614537565b815f036146f657801561161a576040517f0c2565920000000000000000000000000000000000000000000000000000000081526004810182905260240161125a565b80614730576040517f5228f4c80000000000000000000000000000000000000000000000000000000081526004810183905260240161125a565b5f82815261014e6020526040902054811461161a576040517f36459fa0000000000000000000000000000000000000000000000000000000008152600481018390526024810182905260440161125a565b5f5b8281101561177d576101505f8585848181106147a1576147a16158a5565b9050602002013581526020019081526020015f20545f1461480a578383828181106147ce576147ce6158a5565b905060200201356040517fe5d1442500000000000000000000000000000000000000000000000000000000815260040161125a91815260200190565b816101505f868685818110614821576148216158a5565b9050602002013581526020019081526020015f20819055508184848381811061484c5761484c6158a5565b905060200201357f300e6f978eee6a4b0bba78dd8400dc64fd5652dbfc868a2258e16d0977be222b60405160405180910390a3600101614783565b614892600283615e48565b156148cc576040517f0c91d7760000000000000000000000000000000000000000000000000000000081526004810183905260240161125a565b5f5f5b838110156126ce576040518582013560f01c9250838301907f3c116827db9db3a30c1a25db8b0ee4bab9d2b223560209cfd839601b621c726d905f90a26002016148cf565b600881901c5f90815261014f6020526040902054600160ff83161b161561496a576040517f335a4a900000000000000000000000000000000000000000000000000000000081526004810182905260240161125a565b600881901c5f90815261014f602052604090208054600160ff84161b17905550565b5f806149ad600161499e876002615f4a565b6149a89190615809565b615015565b90508063ffffffff168463ffffffff161115614a05576040517ff7ec909700000000000000000000000000000000000000000000000000000000815263ffffffff80861660048301528216602482015260440161125a565b865f5b86811015614a8b57600163ffffffff8716821c81169003614a5557614a4e888883818110614a3857614a386158a5565b90506020020135835f9182526020526040902090565b9150614a83565b614a8082898984818110614a6b57614a6b6158a5565b905060200201355f9182526020526040902090565b91505b600101614a08565b509092149695505050505050565b6001600160a01b038116612dd9576040516342bcdf7f60e11b815260040160405180910390fd5b7f73eda753299d7d483339d80809a1d80553bda402fffe5bfeffffffff00000001840693505f5f600a6001600160a01b03168787878787604051602001614b0b959493929190615f55565b60408051601f1981840301815290829052614b25916159ad565b5f60405180830381855afa9150503d805f8114614b5d576040519150601f19603f3d011682016040523d82523d5f602084013e614b62565b606091505b509150915081614b9e576040517fa71194af00000000000000000000000000000000000000000000000000000000815260040160405180910390fd5b6040815114614be6578051604080517ff75db38100000000000000000000000000000000000000000000000000000000815261125a9290600401918252602082015260400190565b6020810151604082015161100082141580614c2157507f73eda753299d7d483339d80809a1d80553bda402fffe5bfeffffffff000000018114155b15612085576040517f68dcad5f000000000000000000000000000000000000000000000000000000008152600481018390526024810182905260440161125a565b5f8381526101be60205260409020548390614cac576040517fc77b964c00000000000000000000000000000000000000000000000000000000815260040161125a91815260200190565b505f8281526101be6020526040902054829015614cf8576040517fe69adeca00000000000000000000000000000000000000000000000000000000815260040161125a91815260200190565b505f8281526101be602090815260409182902060019055815185815290810183905283917f55f4c645c36aa5cd3f443d6be44d7a7a5df9d2100d7139dfc69d4289ee07231991016113a2565b5f54610100900460ff16614dae5760405162461bcd60e51b815260206004820152602b60248201527f496e697469616c697a61626c653a20636f6e7472616374206973206e6f74206960448201526a6e697469616c697a696e6760a81b606482015260840161125a565b614db6615062565b614dbe615062565b614dc6615062565b614dd082826150ce565b5050600160e455565b60606111a46001600160a01b03831660145b60605f614df983600261581c565b614e049060026157e7565b67ffffffffffffffff811115614e1c57614e1c6158ff565b6040519080825280601f01601f191660200182016040528015614e46576020820181803683370190505b5090507f3000000000000000000000000000000000000000000000000000000000000000815f81518110614e7c57614e7c6158a5565b60200101907effffffffffffffffffffffffffffffffffffffffffffffffffffffffffffff191690815f1a9053507f780000000000000000000000000000000000000000000000000000000000000081600181518110614ede57614ede6158a5565b60200101907effffffffffffffffffffffffffffffffffffffffffffffffffffffffffffff191690815f1a9053505f614f1884600261581c565b614f239060016157e7565b90505b6001811115614fbf577f303132333435363738396162636465660000000000000000000000000000000085600f1660108110614f6457614f646158a5565b1a60f81b828281518110614f7a57614f7a6158a5565b60200101907effffffffffffffffffffffffffffffffffffffffffffffffffffffffffffff191690815f1a90535060049490941c93614fb881615f7b565b9050614f26565b50831561500e5760405162461bcd60e51b815260206004820181905260248201527f537472696e67733a20686578206c656e67746820696e73756666696369656e74604482015260640161125a565b9392505050565b5f63ffffffff82111561505e576040517f6dfcc650000000000000000000000000000000000000000000000000000000008152602060048201526024810183905260440161125a565b5090565b5f54610100900460ff166150cc5760405162461bcd60e51b815260206004820152602b60248201527f496e697469616c697a61626c653a20636f6e7472616374206973206e6f74206960448201526a6e697469616c697a696e6760a81b606482015260840161125a565b565b5f54610100900460ff166151385760405162461bcd60e51b815260206004820152602b60248201527f496e697469616c697a61626c653a20636f6e7472616374206973206e6f74206960448201526a6e697469616c697a696e6760a81b606482015260840161125a565b815f03615171576040517fb5ed5a3b00000000000000000000000000000000000000000000000000000000815260040160405180910390fd5b805f036151aa576040517fd10d72bb00000000000000000000000000000000000000000000000000000000815260040160405180910390fd5b609782905560988190556151be82426157e7565b60998190556097546098546040805192835260208301919091528101919091527f8f805c372b66240792580418b7328c0c554ae235f0932475c51b026887fe26a99060600160405180910390a15050565b5f6020828403121561521f575f5ffd5b81357fffffffff000000000000000000000000000000000000000000000000000000008116811461500e575f5ffd5b8035600e811061525c575f5ffd5b919050565b5f60208284031215615271575f5ffd5b61500e8261524e565b5f6020828403121561528a575f5ffd5b5035919050565b6001600160a01b0381168114612dd9575f5ffd5b803561525c81615291565b5f5f604083850312156152c1575f5ffd5b8235915060208301356152d381615291565b809150509250929050565b5f5f83601f8401126152ee575f5ffd5b50813567ffffffffffffffff811115615305575f5ffd5b6020830191508360208260061b850101111561531f575f5ffd5b9250929050565b5f5f5f5f5f5f6060878903121561533b575f5ffd5b863567ffffffffffffffff811115615351575f5ffd5b61535d89828a016152de565b909750955050602087013567ffffffffffffffff81111561537c575f5ffd5b61538889828a016152de565b909550935050604087013567ffffffffffffffff8111156153a7575f5ffd5b6153b389828a016152de565b979a9699509497509295939492505050565b602081525f82518060208401528060208501604085015e5f604082850101526040601f19601f83011684010191505092915050565b5f5f5f6060848603121561540c575f5ffd5b505081359360208301359350604090920135919050565b5f5f60408385031215615434575f5ffd5b61543d8361524e565b946020939093013593505050565b5f5f83601f84011261545b575f5ffd5b50813567ffffffffffffffff811115615472575f5ffd5b60208301915083602082850101111561531f575f5ffd5b5f5f5f5f5f5f5f5f60e0898b0312156154a0575f5ffd5b88356154ab81615291565b975060208901356154bb81615291565b9650604089013595506060890135945060808901356154d981615291565b935060a089013567ffffffffffffffff8111156154f4575f5ffd5b6155008b828c0161544b565b999c989b50969995989497949560c00135949350505050565b5f5f5f5f6060858703121561552c575f5ffd5b843567ffffffffffffffff811115615542575f5ffd5b61554e8782880161544b565b90955093505060208501359150604085013567ffffffffffffffff811115615574575f5ffd5b85016102008188031215615586575f5ffd5b939692955090935050565b5f6101408284031215613e4c575f5ffd5b5f602082840312156155b2575f5ffd5b813567ffffffffffffffff8111156155c8575f5ffd5b6155d484828501615591565b949350505050565b5f5f604083850312156155ed575f5ffd5b823567ffffffffffffffff811115615603575f5ffd5b61560f85828601615591565b92505060208301356152d381615291565b5f60208284031215615630575f5ffd5b813561500e81615291565b5f5f5f5f6060858703121561564e575f5ffd5b843567ffffffffffffffff811115615664575f5ffd5b8501601f81018713615674575f5ffd5b803567ffffffffffffffff81111561568a575f5ffd5b8760208260051b840101111561569e575f5ffd5b602091820198909750908601359560400135945092505050565b5f5f5f5f606085870312156156cb575f5ffd5b84356156d681615291565b935060208501359250604085013567ffffffffffffffff8111156156f8575f5ffd5b6157048782880161544b565b95989497509550505050565b5f5f60408385031215615721575f5ffd5b823561543d81615291565b5f5f5f6060848603121561573e575f5ffd5b833567ffffffffffffffff811115615754575f5ffd5b84016101608187031215615766575f5ffd5b9250602084013561577681615291565b9150604084013561578681615291565b809150509250925092565b634e487b7160e01b5f52602160045260245ffd5b600e81106157c157634e487b7160e01b5f52602160045260245ffd5b9052565b602081016111a482846157a5565b634e487b7160e01b5f52601160045260245ffd5b808201808211156111a4576111a46157d3565b818382375f9101908152919050565b818103818111156111a4576111a46157d3565b80820281158282048414176111a4576111a46157d3565b5f5f198203615844576158446157d3565b5060010190565b5f6020828403121561585b575f5ffd5b5051919050565b5f5f8335601e19843603018112615877575f5ffd5b83018035915067ffffffffffffffff821115615891575f5ffd5b60200191503681900382131561531f575f5ffd5b634e487b7160e01b5f52603260045260245ffd5b5f5f8335601e198436030181126158ce575f5ffd5b83018035915067ffffffffffffffff8211156158e8575f5ffd5b6020019150600581901b360382131561531f575f5ffd5b634e487b7160e01b5f52604160045260245ffd5b81835281816020850137505f602082840101525f6020601f19601f840116840101905092915050565b604081525f61594f604083018587615913565b82810360208401528084518083526020830191506020860192505f5b8181101561598957835183526020938401939092019160010161596b565b5090979650505050505050565b5f81518060208401855e5f93019283525090919050565b5f61500e8284615996565b5f602082840312156159c8575f5ffd5b8151801515811461500e575f5ffd5b5f602082840312156159e7575f5ffd5b813563ffffffff8116811461500e575f5ffd5b5f82357fffffffffffffffffffffffffffffffffffffffffffffffffffffffffffffff61833603018112615a2c575f5ffd5b9190910192915050565b60405160a0810167ffffffffffffffff81118282101715615a5957615a596158ff565b60405290565b5f82601f830112615a6e575f5ffd5b813567ffffffffffffffff811115615a8857615a886158ff565b604051601f8201601f19908116603f0116810167ffffffffffffffff81118282101715615ab757615ab76158ff565b604052818152838201602001851015615ace575f5ffd5b816020850160208301375f918101602001919091529392505050565b5f60a08236031215615afa575f5ffd5b615b02615a36565b82358152602083013567ffffffffffffffff811115615b1f575f5ffd5b615b2b36828601615a5f565b602083015250604083013567ffffffffffffffff811115615b4a575f5ffd5b615b5636828601615a5f565b60408301525060608381013590820152608092830135928101929092525090565b858152846020820152836040820152608060608201525f615b9c608083018486615913565b979650505050505050565b5f5f8335601e19843603018112615bbc575f5ffd5b83018035915067ffffffffffffffff821115615bd6575f5ffd5b6020019150600681901b360382131561531f575f5ffd5b5f5f8335601e19843603018112615c02575f5ffd5b830160208101925035905067ffffffffffffffff811115615c21575f5ffd5b8060061b360382131561531f575f5ffd5b8183526020830192505f815f5b84811015615c79578135615c5281615291565b6001600160a01b031686526020828101359087015260409586019590910190600101615c3f565b5093949350505050565b8183526020830192505f815f5b84811015615c7957615caa86615ca58461524e565b6157a5565b6020828101359087015260409586019590910190600101615c90565b604080825283358282015260208401356060808401919091529084013560808301525f90615cf59085016152a5565b6001600160a01b03811660a084015250608084013560c08381019190915260a085013560e0840152615d2990850185615bed565b610160610100850152615d416101a085018284615c32565b915050615d5160e0860186615bed565b603f1985840301610120860152615d69838284615c83565b92505050615d7b610100860186615bed565b603f1985840301610140860152615d93838284615c83565b92505050615da461012086016152a5565b6001600160a01b0316610160840152615dc061014086016152a5565b6001600160a01b031661018084015260209092019290925292915050565b7f416363657373436f6e74726f6c3a206163636f756e742000000000000000000081525f615e0f6017830185615996565b7f206973206d697373696e6720726f6c65200000000000000000000000000000008152615e3f6011820185615996565b95945050505050565b5f82615e6257634e487b7160e01b5f52601260045260245ffd5b500690565b6001815b6001841115615ea257808504811115615e8657615e866157d3565b6001841615615e9457908102905b60019390931c928002615e6b565b935093915050565b5f82615eb8575060016111a4565b81615ec457505f6111a4565b8160018114615eda5760028114615ee457615f00565b60019150506111a4565b60ff841115615ef557615ef56157d3565b50506001821b6111a4565b5060208310610133831016604e8410600b8410161715615f23575081810a6111a4565b615f2f5f198484615e67565b805f1904821115615f4257615f426157d3565b029392505050565b5f61500e8383615eaa565b8581528460208201528360408201525f615b9c615f756060840186615996565b84615996565b5f81615f8957615f896157d3565b505f19019056fea2646970667358221220750566facbfbb20b586a70e98f1982555d53d3b41011a746adf9b071b0d1f54864736f6c63430008210033",
  "linkReferences": {},
  "deployedLinkReferences": {}
}