{
  "_format": "hh-sol-artifact-1",
  "contractName": "PlonkVerifierForMultiTypeDataAggregation",
  "sourceName": "contracts/verifiers/PlonkVerifierForMultiTypeDataAggregation.sol",
  "abi": [
    {
      "inputs": [
        {
          "internalType": "bytes",
          "name": "proof",
          "type": "bytes"
        },
        {
          "internalType": "uint256[]",
          "name": "public_inputs",
          "type": "uint256[]"
        }
      ],
      "name": "Verify",
      "outputs": [
        {
          "internalType": "bool",
          "name": "success",
          "type": "bool"
        }
      ],
      "stateMutability": "view",
      "type": "function"
    }
  ],
  "bytecode": "0x6080604052348015600e575f80fd5b506129df8061001c5f395ff3fe608060405234801561000f575f80fd5b5060043610610029575f3560e01c80637e4f7a8a1461002d575b5f80fd5b61004061003b3660046128e1565b610054565b604051901515815260200160405180910390f35b5f604051610220810161006684610438565b610070858561044b565b6100798661049a565b610082876104b0565b5f61008e86868a6106b8565b9050610099816109ef565b90506100a58189610a55565b90506100b18189610ae3565b5060608201517f30644e72e131a029b85045b68181585d2833e84879b9709143e1f593f00000017f30644e72e131a029b85045b68181585d2833e84879b9709143e1f593f000000061010884630400000085612876565b086101a08401525061011b818587610b4e565b61012682868a610ec3565b91507f30644e72e131a029b85045b68181585d2833e84879b9709143e1f593f00000018183086101808401525061015d9050611269565b610166866123ee565b61016f8661237e565b61017886611f99565b61018186611a9a565b61018a866117b2565b610193866113ba565b6101e0015190506128d9565b6040517f08c379a000000000000000000000000000000000000000000000000000000000815260206004820152601d60248201527f77726f6e67206e756d626572206f66207075626c696320696e707574730000006044820152606481fd5b6040517f08c379a000000000000000000000000000000000000000000000000000000000815260206004820152601260248201527f6572726f72206563206f7065726174696f6e00000000000000000000000000006044820152606481fd5b6040517f08c379a000000000000000000000000000000000000000000000000000000000815260206004820152601860248201527f696e707574732061726520626967676572207468616e207200000000000000006044820152606481fd5b6040517f08c379a000000000000000000000000000000000000000000000000000000000815260206004820152601060248201527f77726f6e672070726f6f662073697a65000000000000000000000000000000006044820152606481fd5b6040517f08c379a000000000000000000000000000000000000000000000000000000000815260206004820152601660248201527f6f70656e696e677320626967676572207468616e2072000000000000000000006044820152606481fd5b6040517f08c379a000000000000000000000000000000000000000000000000000000000815260206004820152600c60248201527f6572726f722076657269667900000000000000000000000000000000000000006044820152606481fd5b6040517f08c379a000000000000000000000000000000000000000000000000000000000815260206004820152601460248201527f6572726f722072616e646f6d2067656e206b7a670000000000000000000000006044820152606481fd5b600181146104485761044861019f565b50565b5f5b81811015610495577f30644e72e131a029b85045b68181585d2833e84879b9709143e1f593f0000000833511156104865761048661025d565b6020929092019160010161044d565b505050565b6103a08181146104ac576104ac6102bc565b5050565b6102a081017f30644e72e131a029b85045b68181585d2833e84879b9709143e1f593f0000000813511156104e6576104e661031b565b5061028081017f30644e72e131a029b85045b68181585d2833e84879b9709143e1f593f00000008135111561051d5761051d61031b565b5061018081017f30644e72e131a029b85045b68181585d2833e84879b9709143e1f593f0000000813511156105545761055461031b565b506101a081017f30644e72e131a029b85045b68181585d2833e84879b9709143e1f593f00000008135111561058b5761058b61031b565b506101c081017f30644e72e131a029b85045b68181585d2833e84879b9709143e1f593f0000000813511156105c2576105c261031b565b506101e081017f30644e72e131a029b85045b68181585d2833e84879b9709143e1f593f0000000813511156105f9576105f961031b565b5061020081017f30644e72e131a029b85045b68181585d2833e84879b9709143e1f593f0000000813511156106305761063061031b565b5061026081017f30644e72e131a029b85045b68181585d2833e84879b9709143e1f593f0000000813511156106675761066761031b565b5061034081015f5b6001811015610495577f30644e72e131a029b85045b68181585d2833e84879b9709143e1f593f0000000823511156106a9576106a961031b565b6020919091019060010161066f565b5f60405161022081016467616d6d6181527f10a41b94357abfb4a1e653c37120f36bf8a7afcd7380d5ee421b55ef5ce8e4a760208201527f2fc1ec413636a4db1b661562cd7ded6c503d3dd4d5422ce57e3a1390bc1c9f8160408201527f1a2d983c26b7449795edd7ff3869efcba9ae5aaf7f78d23b120ec32f9157cdd660608201527f22cf19cb5f3e6e86c3699628d6ac8f6e46cc8cc334506c5df3d9901f197c3a5160808201527f1432ef67a0902a5b932d0a2a6ee57c7f9fef8baf1857f850dc16dbceabd24d7d60a08201527f2c25025a8b6b98df5516c666a9319e710a548801f27088adbd7d74400231065560c08201527f215969201f9ede2d6692c9fbbf9ca5bbe33d1b2c06db6c2ad8ed155e288a830060e08201527f1e6104275114947c0ade1bf9fc6b531d05f1084887bea8431d563dfebfda5e306101008201527f03e1b31a362ae2d5ac8b788c133ddbba11f7de90898fb064e9ec3ed0eaceaace6101208201527f0d57fd64e30c4863335cab8d61627831a48d32f0ea454bae7e36033b1ec3bf506101408201527f0ebf7069d6b83c8c545351949fcad4f0410bff394a6705a95b4c9cbc90c3dd4b6101608201527f0c38619a4ee0c0ce40ff7059d9888c00e98da79f9ef014671bfd2f166574ec016101808201527f1980c2cfe29bb04711e0ea063030259c8f1be74a96f2a5d58fa6a39c674b54636101a08201527f14cc24318a81d5063f3eb415de3e2d53bda3b8c27037fc46cf5cc75845d91f916101c08201527f2ccead216c491d767eaa1463f2fcdf82c0e449d41d6f578a0cfe4e30787ce9e06101e08201527f2897cd2c4ee048cf2913de4e63257bf96c74fd282149d5799fff85cc971f36dc6102008201527f1f803c5398f400176982507a4120971333d538c5e0bad1b4cfbcafa1a4c2c5a16102208201527f1aaf4ca22eac5be5ba8cfffb4dc06e6971c24b34fb7f313033424d5b992075d9610240820152610260810160208602808883379081019060c0808784375061030501905060208282601b820160025afa9050806109b9576109b961037a565b5080519250507f30644e72e131a029b85045b68181585d2833e84879b9709143e1f593f000000182066040820152509392505050565b5f60405161022060405101636265746181528360208201526020816024601c840160025afa80610a2157610a2161037a565b5080519250507f30644e72e131a029b85045b68181585d2833e84879b9709143e1f593f00000018206602082015250919050565b5f60405161022060405101606564616c7068618252602082018681526020810190506103608601600160400280828437928301929190910190506040610220870182375060208282601b850160025afa905080610ab457610ab461037a565b50517f30644e72e131a029b85045b68181585d2833e84879b9709143e1f593f000000181069091529392505050565b60405161022060405101637a657461815283602082015260c0808401604083013760208160e4601c840160025afa80610b1e57610b1e61037a565b50517f30644e72e131a029b85045b68181585d2833e84879b9709143e1f593f00000019006606091909101525050565b5f60405160608101516101a0820151915085610b6c81878585610be7565b5f92505f91505b85821015610bdd577f30644e72e131a029b85045b68181585d2833e84879b9709143e1f593f0000001853582510992507f30644e72e131a029b85045b68181585d2833e84879b9709143e1f593f00000018385086020958601959094506001929092019101610b73565b5050509392505050565b7f30644e72e131a029b85045b68181585d2833e84879b9709143e1f593f00000017f30644e66c81e03716be83b486d6feabcc7ddd0fe6cbf5e72d585d142f7829b0583096001855f5b86811015610cd5577f30644e72e131a029b85045b68181585d2833e84879b9709143e1f593f0000001837f30644e72e131a029b85045b68181585d2833e84879b9709143e1f593f000000103860882527f30644e72e131a029b85045b68181585d2833e84879b9709143e1f593f00000017f1067569af1ff73b20113eff9b8d89d4a605b52b63d68f9ae1c79bd572f4e92128409925060209190910190600101610c30565b50610ce1818789610d99565b5060019050855f5b86811015610d8f577f30644e72e131a029b85045b68181585d2833e84879b9709143e1f593f0000001837f30644e72e131a029b85045b68181585d2833e84879b9709143e1f593f0000001868551090982526020820191507f30644e72e131a029b85045b68181585d2833e84879b9709143e1f593f00000017f1067569af1ff73b20113eff9b8d89d4a605b52b63d68f9ae1c79bd572f4e921284099250600101610ce9565b5050505050505050565b600183525f805b83811015610dee5781850151828401517f30644e72e131a029b85045b68181585d2833e84879b9709143e1f593f0000001818309905060208401935080848801525050600181019050610da0565b506020810382019150808401935050610e2f6020840160027f30644e72e131a029b85045b68181585d2833e84879b9709143e1f593f0000001038551612876565b5f5b83811015610ebc5760208503945082517f30644e72e131a029b85045b68181585d2833e84879b9709143e1f593f00000018651840984527f30644e72e131a029b85045b68181585d2833e84879b9709143e1f593f00000018184097fffffffffffffffffffffffffffffffffffffffffffffffffffffffffffffffe090940193925050600101610e31565b5050505050565b5f60405160608101516101a0820151915061036084015f80610eeb8960208501358535611070565b9150610eff89630164747c8a018787610f35565b90507f30644e72e131a029b85045b68181585d2833e84879b9709143e1f593f00000018082840987089998505050505050505050565b5f610f6185857f1067569af1ff73b20113eff9b8d89d4a605b52b63d68f9ae1c79bd572f4e9212612876565b7f30644e72e131a029b85045b68181585d2833e84879b9709143e1f593f0000001817f30644e72e131a029b85045b68181585d2833e84879b9709143e1f593f000000103840894507f30644e72e131a029b85045b68181585d2833e84879b9709143e1f593f00000017f30644e66c81e03716be83b486d6feabcc7ddd0fe6cbf5e72d585d142f7829b058209905061101a867f30644e72e131a029b85045b68181585d2833e84879b9709143e1f593efffffff87612876565b94507f30644e72e131a029b85045b68181585d2833e84879b9709143e1f593f000000185820990507f30644e72e131a029b85045b68181585d2833e84879b9709143e1f593f00000018482099695505050505050565b5f83525f602084015280604084015250806060830152505f6080820153603060818201535f60828201536042608382015360536084820153604260858201536032608682015360326087820153602d608882015360506089820153606c608a820153606f608b820153606e608c820153606b608d820153600b608e8201535f602082608f8460025afa806111065761110661037a565b8251600160208501536042602185015360536022850153604260238501536032602485015360326025850153602d602685015360506027850153606c6028850153606f6029850153606e602a850153606b602b850153600b602c850153602084602d8660025afa91508161117c5761117c61037a565b8351186020840152600260408401536042604184015360536042840153604260438401536032604484015360326045840153602d604684015360506047840153606c6048840153606f6049840153606e604a840153606b604b840153600b604c84015360208301602081602d8360025afa915050806111fd576111fd61037a565b507f30644e72e131a029b85045b68181585d2833e84879b9709143e1f593f00000017001000000000000000000000000000000008351099050602082015160801c7f30644e72e131a029b85045b68181585d2833e84879b9709143e1f593f00000018183089392505050565b604051610220604051016101a08201517f30644e72e131a029b85045b68181585d2833e84879b9709143e1f593f000000160017f30644e72e131a029b85045b68181585d2833e84879b9709143e1f593f0000001036060850151086112ef837f30644e72e131a029b85045b68181585d2833e84879b9709143e1f593efffffff83612876565b90507f30644e72e131a029b85045b68181585d2833e84879b9709143e1f593f00000017f30644e66c81e03716be83b486d6feabcc7ddd0fe6cbf5e72d585d142f7829b05820990507f30644e72e131a029b85045b68181585d2833e84879b9709143e1f593f00000018282098451935091507f30644e72e131a029b85045b68181585d2833e84879b9709143e1f593f0000001905082820990507f30644e72e131a029b85045b68181585d2833e84879b9709143e1f593f00000018282099050806080840152505050565b6040516102208101610140820151815261016082015160208201526102c083013560408201526102e08301356060820152610220830135608082015261024083013560a082015261030083013560c082015261032083013560e082015260608201516101008201526101c08201516101208201526020816101408360025afa80611446576114466103d9565b7f30644e72e131a029b85045b68181585d2833e84879b9709143e1f593f00000018251069050816040810192506102c085013581526102e0850135602082015261149683836103008801846127dd565b61014084016114ab84846102208901846127dd565b61012085016114bf84610260890183612824565b7f1fa4be93b5e7f7e674d5059b63554fab99638b304ed8310e9fa44c281ac9b03b85527f1a01ae7fac6228e39d3cb5a5e71fd31160f3241e79a5f48ffb3737e6c389b7216020860152805160408087019182529095908160608160075afa91508161152c5761152c61037a565b60208101915081517f30644e72e131a029b85045b68181585d97816a916871ca8d3c208c16d87cfd47038252611564868285866126cc565b5050836040850194506115818560608801516102c08a018461276b565b7f30644e72e131a029b85045b68181585d2833e84879b9709143e1f593f00000017f1067569af1ff73b20113eff9b8d89d4a605b52b63d68f9ae1c79bd572f4e921260608801510995507f30644e72e131a029b85045b68181585d2833e84879b9709143e1f593f0000001868509935061160185856103008a01846127dd565b61160d858284856126cc565b50602082810180517f30644e72e131a029b85045b68181585d97816a916871ca8d3c208c16d87cfd470381528251865291810151908501527f198e9393920d483a7260bfb731fb5d25f1aa493335a9e71297e485b7aef312c260408501527f1800deef121f1e76426a00665e5c4479674322d4f75edadd46debd5cd992f6ed60608501527f090689d0585ff075ec9e99ad690c3395bc4b313370b38ef355acdadcd122975b60808501527f12c85ea5db8c6deb4aab71808dcb408fe3d1e7690c43d37b4ce6cc0166fa7daa60a0850152905160c0840152805160e08401527f22f1acbb03c4508760c2430af35865e7cdf9f3eb1224504fdcc3708ddb954a486101008401527f2a344fad01c2ed0ed73142ae1752429eaea515c6f3f6b941103cc21c2308e1cb6101208401527f159f15b842ba9c8449aa3268f981010d4c7142e5193473d80b464e964845c3f86101408401527f0efd30ac7b6f8d0d3ccbc2207587c2acbad1532dc0293f0d034cf8258cd428b3610160840152925061049590508160405160205f6101808460085afa5f516101e09290920180519190921616905250565b6040516102206040510160208101604082016101c084015180610140860160a087015161014088015260c0870151610160880152610280880135610120880152611801868360e08a0184612796565b611814826102a08a016101208a01612824565b7f30644e72e131a029b85045b68181585d2833e84879b9709143e1f593f0000001838309915061184a86838a6101408b016127dd565b61185d826101808a016101208a01612824565b7f30644e72e131a029b85045b68181585d2833e84879b9709143e1f593f00000018383099150611892868360408b01846127dd565b6118a5826101a08a016101208a01612824565b7f30644e72e131a029b85045b68181585d2833e84879b9709143e1f593f000000183830991506118da868360808b01846127dd565b6118ed826101c08a016101208a01612824565b7f30644e72e131a029b85045b68181585d2833e84879b9709143e1f593f000000183830991507f10a41b94357abfb4a1e653c37120f36bf8a7afcd7380d5ee421b55ef5ce8e4a786527f2fc1ec413636a4db1b661562cd7ded6c503d3dd4d5422ce57e3a1390bc1c9f81855261196584838884612796565b611978826101e08a016101208a01612824565b7f30644e72e131a029b85045b68181585d2833e84879b9709143e1f593f000000183830991507f1a2d983c26b7449795edd7ff3869efcba9ae5aaf7f78d23b120ec32f9157cdd686527f22cf19cb5f3e6e86c3699628d6ac8f6e46cc8cc334506c5df3d9901f197c3a5185526119f084838884612796565b611a03826102008a016101208a01612824565b61034088017f30644e72e131a029b85045b68181585d2833e84879b9709143e1f593f000000184840992507f1f803c5398f400176982507a4120971333d538c5e0bad1b4cfbcafa1a4c2c5a187527f1aaf4ca22eac5be5ba8cfffb4dc06e6971c24b34fb7f313033424d5b992075d98652611a8085848985612796565b611a8f83826101208b01612824565b505050505050505050565b6040516467616d6d616102208201908152606082015161024083015260a082015161026083015260c08083015161028084015260e08301516102a08401526101008301516102c0840152836102e08401377f10a41b94357abfb4a1e653c37120f36bf8a7afcd7380d5ee421b55ef5ce8e4a7610180828101919091527f2fc1ec413636a4db1b661562cd7ded6c503d3dd4d5422ce57e3a1390bc1c9f816101a0808401919091527f1a2d983c26b7449795edd7ff3869efcba9ae5aaf7f78d23b120ec32f9157cdd66101c0808501919091527f22cf19cb5f3e6e86c3699628d6ac8f6e46cc8cc334506c5df3d9901f197c3a516101e0808601919091527f1f803c5398f400176982507a4120971333d538c5e0bad1b4cfbcafa1a4c2c5a1610200808701919091527f1aaf4ca22eac5be5ba8cfffb4dc06e6971c24b34fb7f313033424d5b992075d9610220870152610280888101356102408801526102a0808a0135610260890152958901359087015292870135938501939093528501356102c0840152908401356102e0830152830135610300820152610320810161034084015f5b6001811015611c5d578135835260209283019290910190600101611c3e565b50506102608401359052601b61034560206101c085018285850160025afa9250505080611c8c57611c8c61037a565b506101c00180517f30644e72e131a029b85045b68181585d2833e84879b9709143e1f593f00000019006905250565b604051610220604051017f215969201f9ede2d6692c9fbbf9ca5bbe33d1b2c06db6c2ad8ed155e288a830081527f1e6104275114947c0ade1bf9fc6b531d05f1084887bea8431d563dfebfda5e306020820152611d25604082016101808501358360e08601612740565b7f03e1b31a362ae2d5ac8b788c133ddbba11f7de90898fb064e9ec3ed0eaceaace81527f0d57fd64e30c4863335cab8d61627831a48d32f0ea454bae7e36033b1ec3bf506020820152611d85604082016101a08501358360e08601612796565b7f30644e72e131a029b85045b68181585d2833e84879b9709143e1f593f00000016101a0840135610180850135097f0ebf7069d6b83c8c545351949fcad4f0410bff394a6705a95b4c9cbc90c3dd4b82527f0c38619a4ee0c0ce40ff7059d9888c00e98da79f9ef014671bfd2f166574ec016020830152611e0e60408301828460e08701612796565b507f1980c2cfe29bb04711e0ea063030259c8f1be74a96f2a5d58fa6a39c674b546381527f14cc24318a81d5063f3eb415de3e2d53bda3b8c27037fc46cf5cc75845d91f916020820152611e6f604082016101c08501358360e08601612796565b7f2ccead216c491d767eaa1463f2fcdf82c0e449d41d6f578a0cfe4e30787ce9e081527f2897cd2c4ee048cf2913de4e63257bf96c74fd282149d5799fff85cc971f36dc6020820152611eca604082018260e08501806126cc565b610340830161036084015f5b6001811015611f16578135845260208201356020850152611f006040850184358660e08901612796565b6020929092019160409190910190600101611ed6565b5050507f1432ef67a0902a5b932d0a2a6ee57c7f9fef8baf1857f850dc16dbceabd24d7d81527f2c25025a8b6b98df5516c666a9319e710a548801f27088adbd7d7440023106556020820152611f7460408201858360e08601612796565b61022083013581526102408301356020820152610ebc60408201868360e08601612796565b6040516020810151604082015160608301515f8401517f30644e72e131a029b85045b68181585d2833e84879b9709143e1f593f000000184610260880135097f30644e72e131a029b85045b68181585d2833e84879b9709143e1f593f00000016101e088013586097f30644e72e131a029b85045b68181585d2833e84879b9709143e1f593f0000001610180890135820890507f30644e72e131a029b85045b68181585d2833e84879b9709143e1f593f000000185820890507f30644e72e131a029b85045b68181585d2833e84879b9709143e1f593f000000161020089013587097f30644e72e131a029b85045b68181585d2833e84879b9709143e1f593f00000016101a08a0135820890507f30644e72e131a029b85045b68181585d2833e84879b9709143e1f593f000000186820890507f30644e72e131a029b85045b68181585d2833e84879b9709143e1f593f00000018284097f30644e72e131a029b85045b68181585d2833e84879b9709143e1f593f000000182820990507f30644e72e131a029b85045b68181585d2833e84879b9709143e1f593f000000185820990507f30644e72e131a029b85045b68181585d2833e84879b9709143e1f593f0000001600580097f30644e72e131a029b85045b68181585d2833e84879b9709143e1f593f0000001878a0998507f30644e72e131a029b85045b68181585d2833e84879b9709143e1f593f00000016101808c01358a0894507f30644e72e131a029b85045b68181585d2833e84879b9709143e1f593f000000188860894507f30644e72e131a029b85045b68181585d2833e84879b9709143e1f593f000000160058a0993507f30644e72e131a029b85045b68181585d2833e84879b9709143e1f593f00000016101a08c0135850893507f30644e72e131a029b85045b68181585d2833e84879b9709143e1f593f000000188850893507f30644e72e131a029b85045b68181585d2833e84879b9709143e1f593f0000001818a099250507f30644e72e131a029b85045b68181585d2833e84879b9709143e1f593f00000016101c08b0135830891507f30644e72e131a029b85045b68181585d2833e84879b9709143e1f593f000000187830891507f30644e72e131a029b85045b68181585d2833e84879b9709143e1f593f000000183850997507f30644e72e131a029b85045b68181585d2833e84879b9709143e1f593f00000018289097f30644e72e131a029b85045b68181585d2833e84879b9709143e1f593f0000001908103985085890997507f30644e72e131a029b85045b68181585d2833e84879b9709143e1f593f000000160808a01518908975061237288828c611cbb565b50505050505050505050565b60405160026304000000016102206040510161239f81836060860151612876565b91506123b48183610140870160a0870161276b565b6123c781610100860160a0860180612706565b6123d6818360a0860180612740565b6123e88160c0860160a0860180612706565b50505050565b604051610220604051017f30644e72e131a029b85045b68181585d2833e84879b9709143e1f593f000000160208301516101e08501350981527f30644e72e131a029b85045b68181585d2833e84879b9709143e1f593f0000001604083015182510881527f30644e72e131a029b85045b68181585d2833e84879b9709143e1f593f00000016101808401358251088152602081017f30644e72e131a029b85045b68181585d2833e84879b9709143e1f593f000000160208401516102008601350981527f30644e72e131a029b85045b68181585d2833e84879b9709143e1f593f0000001604084015182510881527f30644e72e131a029b85045b68181585d2833e84879b9709143e1f593f00000016101a08501358251088152604082017f30644e72e131a029b85045b68181585d2833e84879b9709143e1f593f000000160408501516101c08701350881527f30644e72e131a029b85045b68181585d2833e84879b9709143e1f593f0000001825184510983527f30644e72e131a029b85045b68181585d2833e84879b9709143e1f593f0000001815184510980845284517f30644e72e131a029b85045b68181585d2833e84879b9709143e1f593f00000019250900982527f30644e72e131a029b85045b68181585d2833e84879b9709143e1f593f00000016102608501358351098252606082017f30644e72e131a029b85045b68181585d2833e84879b9709143e1f593f00000016101808501516102a08701350881527f30644e72e131a029b85045b68181585d2833e84879b9709143e1f593f0000001835182510881527f30644e72e131a029b85045b68181585d2833e84879b9709143e1f593f000000160808501517f30644e72e131a029b85045b68181585d2833e84879b9709143e1f593f00000010382510881527f30644e72e131a029b85045b68181585d2833e84879b9709143e1f593f00000016101a085015161028087013509825281518151146101e08501525050505050565b604051508151845260208201516020850152825160408501526020830151606085015260408160808660065afa80610ebc57610ebc6101fe565b604051508151845260208201516020850152823560408501526020830135606085015260408160808660065afa80610ebc57610ebc6101fe565b815184526020808301519085015260408481018490528160608660075afa80610ebc57610ebc6101fe565b813584526020808301359085015260408481018490528160608660075afa80610ebc57610ebc6101fe565b815184526020808301519085015260408481018490528460608160075afa815160408601526020820151606086015260408260808760065afa1680610ebc57610ebc6101fe565b813584526020808301359085015260408481018490528460608160075afa815160408601526020820151606086015260408260808760065afa1680610ebc57610ebc6101fe565b7f30644e72e131a029b85045b68181585d2833e84879b9709143e1f593f0000001838335097f30644e72e131a029b85045b68181585d2833e84879b9709143e1f593f000000181835108825250505050565b602083526020808401526020604084015280606084015250806080830152507f30644e72e131a029b85045b68181585d2833e84879b9709143e1f593f000000160a08201525f60208260c08460055afa806128d3576128d361037a565b50505190565b949350505050565b5f805f80604085870312156128f4575f80fd5b843567ffffffffffffffff81111561290a575f80fd5b8501601f8101871361291a575f80fd5b803567ffffffffffffffff811115612930575f80fd5b876020828401011115612941575f80fd5b60209182019550935085013567ffffffffffffffff811115612961575f80fd5b8501601f81018713612971575f80fd5b803567ffffffffffffffff811115612987575f80fd5b8760208260051b840101111561299b575f80fd5b94979396506020019450505056fea2646970667358221220032ec251388b88384583a87716b0cebee29e311c7ac841eb060fad132c36de3864736f6c634300081a0033",
  "linkReferences": {},
  "deployedLinkReferences": {}
}