{
  "_format": "hh-sol-artifact-1",
  "contractName": "UpgradeableConsolidationQueuePredeploy",
  "sourceName": "src/predeploy/UpgradeableConsolidationQueuePredeploy.sol",
  "abi": [
    {
      "inputs": [],
      "stateMutability": "nonpayable",
      "type": "constructor"
    },
    {
      "anonymous": false,
      "inputs": [
        {
          "indexed": false,
          "internalType": "uint8",
          "name": "version",
          "type": "uint8"
        }
      ],
      "name": "Initialized",
      "type": "event"
    },
    {
      "stateMutability": "payable",
      "type": "fallback"
    },
    {
      "inputs": [],
      "name": "initialize",
      "outputs": [],
      "stateMutability": "nonpayable",
      "type": "function"
    },
    {
      "stateMutability": "payable",
      "type": "receive"
    }
  ],
  "bytecode": "0x6080604052348015600f57600080fd5b506016601a565b60d7565b600054610100900460ff161560855760405162461bcd60e51b815260206004820152602760248201527f496e697469616c697a61626c653a20636f6e747261637420697320696e697469604482015266616c697a696e6760c81b606482015260840160405180910390fd5b60005460ff9081161460d5576000805460ff191660ff9081179091556040519081527f7f26b83ff96e1f2b6a682f133852f6798a09c465da95921460cefb38474024989060200160405180910390a15b565b6101f4806100e66000396000f3fe60806040526004361061001e5760003560e01c80638129fc1c14610020575b005b34801561002c57600080fd5b5061001e600054610100900460ff16158080156100505750600054600160ff909116105b8061006a5750303b15801561006a575060005460ff166001145b6100fa576040517f08c379a000000000000000000000000000000000000000000000000000000000815260206004820152602e60248201527f496e697469616c697a61626c653a20636f6e747261637420697320616c72656160448201527f647920696e697469616c697a6564000000000000000000000000000000000000606482015260840160405180910390fd5b600080547fffffffffffffffffffffffffffffffffffffffffffffffffffffffffffffff00166001179055801561015857600080547fffffffffffffffffffffffffffffffffffffffffffffffffffffffffffff00ff166101001790555b80156101bb57600080547fffffffffffffffffffffffffffffffffffffffffffffffffffffffffffff00ff169055604051600181527f7f26b83ff96e1f2b6a682f133852f6798a09c465da95921460cefb38474024989060200160405180910390a15b5056fea26469706673582212207c625cc213a79dc6608b88072d1f5ce981a5ea7b717154f0eef281c819b9dd2064736f6c634300081e0033",
  "linkReferences": {},
  "deployedLinkReferences": {}
}