{
    "_format": "hh-sol-artifact-1",
    "contractName": "Validium",
    "sourceName": "src/rollup/Validium.sol",
    "abi": [
        {
            "inputs": [],
            "stateMutability": "nonpayable",
            "type": "constructor"
        },
        {
            "inputs": [],
            "name": "BytesLengthNotMultipleOf32",
            "type": "error"
        },
        {
            "inputs": [
                {
                    "internalType": "uint256",
                    "name": "bytesLength",
                    "type": "uint256"
                }
            ],
            "name": "BytesLengthNotMultipleOfTwo",
            "type": "error"
        },
        {
            "inputs": [],
            "name": "CallerNotProxyAdmin",
            "type": "error"
        },
        {
            "inputs": [
                {
                    "internalType": "address",
                    "name": "recipient",
                    "type": "address"
                }
            ],
            "name": "FeePaymentFailed",
            "type": "error"
        },
        {
            "inputs": [],
            "name": "FeeTooLow",
            "type": "error"
        },
        {
            "inputs": [
                {
                    "internalType": "bytes32",
                    "name": "shnarf",
                    "type": "bytes32"
                }
            ],
            "name": "FinalBlobNotSubmitted",
            "type": "error"
        },
        {
            "inputs": [],
            "name": "FinalBlockStateEqualsZeroHash",
            "type": "error"
        },
        {
            "inputs": [
                {
                    "internalType": "bytes32",
                    "name": "expected",
                    "type": "bytes32"
                },
                {
                    "internalType": "bytes32",
                    "name": "value",
                    "type": "bytes32"
                }
            ],
            "name": "FinalShnarfWrong",
            "type": "error"
        },
        {
            "inputs": [],
            "name": "FinalStateRootHashIsZeroHash",
            "type": "error"
        },
        {
            "inputs": [
                {
                    "internalType": "uint256",
                    "name": "l2BlockTimestamp",
                    "type": "uint256"
                },
                {
                    "internalType": "uint256",
                    "name": "currentBlockTimestamp",
                    "type": "uint256"
                }
            ],
            "name": "FinalizationInTheFuture",
            "type": "error"
        },
        {
            "inputs": [
                {
                    "internalType": "bytes32",
                    "name": "expected",
                    "type": "bytes32"
                },
                {
                    "internalType": "bytes32",
                    "name": "value",
                    "type": "bytes32"
                }
            ],
            "name": "FinalizationStateIncorrect",
            "type": "error"
        },
        {
            "inputs": [],
            "name": "InvalidMerkleProof",
            "type": "error"
        },
        {
            "inputs": [],
            "name": "InvalidProof",
            "type": "error"
        },
        {
            "inputs": [
                {
                    "internalType": "string",
                    "name": "errorReason",
                    "type": "string"
                }
            ],
            "name": "InvalidProofOrProofVerificationRanOutOfGas",
            "type": "error"
        },
        {
            "inputs": [],
            "name": "InvalidProofType",
            "type": "error"
        },
        {
            "inputs": [
                {
                    "internalType": "enum IPauseManager.PauseType",
                    "name": "pauseType",
                    "type": "uint8"
                }
            ],
            "name": "IsNotPaused",
            "type": "error"
        },
        {
            "inputs": [
                {
                    "internalType": "enum IPauseManager.PauseType",
                    "name": "pauseType",
                    "type": "uint8"
                }
            ],
            "name": "IsPaused",
            "type": "error"
        },
        {
            "inputs": [
                {
                    "internalType": "uint256",
                    "name": "messageNumber",
                    "type": "uint256"
                },
                {
                    "internalType": "bytes32",
                    "name": "rollingHash",
                    "type": "bytes32"
                }
            ],
            "name": "L1RollingHashDoesNotExistOnL1",
            "type": "error"
        },
        {
            "inputs": [
                {
                    "internalType": "bytes32",
                    "name": "merkleRoot",
                    "type": "bytes32"
                }
            ],
            "name": "L2MerkleRootAlreadyAnchored",
            "type": "error"
        },
        {
            "inputs": [],
            "name": "L2MerkleRootDoesNotExist",
            "type": "error"
        },
        {
            "inputs": [],
            "name": "LastFinalizationTimeNotLapsed",
            "type": "error"
        },
        {
            "inputs": [
                {
                    "internalType": "uint32",
                    "name": "leafIndex",
                    "type": "uint32"
                },
                {
                    "internalType": "uint32",
                    "name": "maxAllowedIndex",
                    "type": "uint32"
                }
            ],
            "name": "LeafIndexOutOfBounds",
            "type": "error"
        },
        {
            "inputs": [],
            "name": "LimitIsZero",
            "type": "error"
        },
        {
            "inputs": [
                {
                    "internalType": "uint256",
                    "name": "messageIndex",
                    "type": "uint256"
                }
            ],
            "name": "MessageAlreadyClaimed",
            "type": "error"
        },
        {
            "inputs": [
                {
                    "internalType": "bytes32",
                    "name": "messageHash",
                    "type": "bytes32"
                }
            ],
            "name": "MessageDoesNotExistOrHasAlreadyBeenClaimed",
            "type": "error"
        },
        {
            "inputs": [
                {
                    "internalType": "address",
                    "name": "destination",
                    "type": "address"
                }
            ],
            "name": "MessageSendingFailed",
            "type": "error"
        },
        {
            "inputs": [
                {
                    "internalType": "bytes32",
                    "name": "rollingHash",
                    "type": "bytes32"
                }
            ],
            "name": "MissingMessageNumberForRollingHash",
            "type": "error"
        },
        {
            "inputs": [
                {
                    "internalType": "uint256",
                    "name": "messageNumber",
                    "type": "uint256"
                }
            ],
            "name": "MissingRollingHashForMessageNumber",
            "type": "error"
        },
        {
            "inputs": [],
            "name": "OnlyNonFallbackOperator",
            "type": "error"
        },
        {
            "inputs": [
                {
                    "internalType": "bytes32",
                    "name": "shnarf",
                    "type": "bytes32"
                }
            ],
            "name": "ParentShnarfNotSubmitted",
            "type": "error"
        },
        {
            "inputs": [
                {
                    "internalType": "uint256",
                    "name": "expiryEnd",
                    "type": "uint256"
                }
            ],
            "name": "PauseNotExpired",
            "type": "error"
        },
        {
            "inputs": [],
            "name": "PauseTypeNotUsed",
            "type": "error"
        },
        {
            "inputs": [
                {
                    "internalType": "uint256",
                    "name": "cooldownEnd",
                    "type": "uint256"
                }
            ],
            "name": "PauseUnavailableDueToCooldown",
            "type": "error"
        },
        {
            "inputs": [],
            "name": "PeriodIsZero",
            "type": "error"
        },
        {
            "inputs": [],
            "name": "ProofIsEmpty",
            "type": "error"
        },
        {
            "inputs": [
                {
                    "internalType": "uint256",
                    "name": "actual",
                    "type": "uint256"
                },
                {
                    "internalType": "uint256",
                    "name": "expected",
                    "type": "uint256"
                }
            ],
            "name": "ProofLengthDifferentThanMerkleDepth",
            "type": "error"
        },
        {
            "inputs": [],
            "name": "RateLimitExceeded",
            "type": "error"
        },
        {
            "inputs": [],
            "name": "ReentrantCall",
            "type": "error"
        },
        {
            "inputs": [],
            "name": "RolesNotDifferent",
            "type": "error"
        },
        {
            "inputs": [
                {
                    "internalType": "uint8",
                    "name": "bits",
                    "type": "uint8"
                },
                {
                    "internalType": "uint256",
                    "name": "value",
                    "type": "uint256"
                }
            ],
            "name": "SafeCastOverflowedUintDowncast",
            "type": "error"
        },
        {
            "inputs": [
                {
                    "internalType": "bytes32",
                    "name": "shnarf",
                    "type": "bytes32"
                }
            ],
            "name": "ShnarfAlreadySubmitted",
            "type": "error"
        },
        {
            "inputs": [],
            "name": "ShnarfSubmissionIsZeroHash",
            "type": "error"
        },
        {
            "inputs": [],
            "name": "StartingRootHashDoesNotMatch",
            "type": "error"
        },
        {
            "inputs": [],
            "name": "ValueSentTooLow",
            "type": "error"
        },
        {
            "inputs": [],
            "name": "ZeroAddressNotAllowed",
            "type": "error"
        },
        {
            "inputs": [],
            "name": "ZeroHashNotAllowed",
            "type": "error"
        },
        {
            "anonymous": false,
            "inputs": [
                {
                    "indexed": true,
                    "internalType": "address",
                    "name": "resettingAddress",
                    "type": "address"
                }
            ],
            "name": "AmountUsedInPeriodReset",
            "type": "event"
        },
        {
            "anonymous": false,
            "inputs": [
                {
                    "indexed": true,
                    "internalType": "uint256",
                    "name": "startBlockNumber",
                    "type": "uint256"
                },
                {
                    "indexed": true,
                    "internalType": "uint256",
                    "name": "endBlockNumber",
                    "type": "uint256"
                },
                {
                    "indexed": true,
                    "internalType": "bytes32",
                    "name": "shnarf",
                    "type": "bytes32"
                },
                {
                    "indexed": false,
                    "internalType": "bytes32",
                    "name": "parentStateRootHash",
                    "type": "bytes32"
                },
                {
                    "indexed": false,
                    "internalType": "bytes32",
                    "name": "finalStateRootHash",
                    "type": "bytes32"
                }
            ],
            "name": "DataFinalizedV3",
            "type": "event"
        },
        {
            "anonymous": false,
            "inputs": [
                {
                    "indexed": false,
                    "internalType": "bytes32",
                    "name": "parentShnarf",
                    "type": "bytes32"
                },
                {
                    "indexed": true,
                    "internalType": "bytes32",
                    "name": "shnarf",
                    "type": "bytes32"
                },
                {
                    "indexed": false,
                    "internalType": "bytes32",
                    "name": "finalStateRootHash",
                    "type": "bytes32"
                }
            ],
            "name": "DataSubmittedV3",
            "type": "event"
        },
        {
            "anonymous": false,
            "inputs": [
                {
                    "indexed": true,
                    "internalType": "address",
                    "name": "caller",
                    "type": "address"
                },
                {
                    "indexed": true,
                    "internalType": "address",
                    "name": "fallbackOperator",
                    "type": "address"
                }
            ],
            "name": "FallbackOperatorAddressSet",
            "type": "event"
        },
        {
            "anonymous": false,
            "inputs": [
                {
                    "indexed": true,
                    "internalType": "address",
                    "name": "caller",
                    "type": "address"
                },
                {
                    "indexed": true,
                    "internalType": "address",
                    "name": "fallbackOperator",
                    "type": "address"
                }
            ],
            "name": "FallbackOperatorRoleGranted",
            "type": "event"
        },
        {
            "anonymous": false,
            "inputs": [
                {
                    "indexed": false,
                    "internalType": "uint8",
                    "name": "version",
                    "type": "uint8"
                }
            ],
            "name": "Initialized",
            "type": "event"
        },
        {
            "anonymous": false,
            "inputs": [
                {
                    "indexed": true,
                    "internalType": "bytes32",
                    "name": "l2MerkleRoot",
                    "type": "bytes32"
                },
                {
                    "indexed": true,
                    "internalType": "uint256",
                    "name": "treeDepth",
                    "type": "uint256"
                }
            ],
            "name": "L2MerkleRootAdded",
            "type": "event"
        },
        {
            "anonymous": false,
            "inputs": [
                {
                    "indexed": true,
                    "internalType": "uint256",
                    "name": "l2Block",
                    "type": "uint256"
                }
            ],
            "name": "L2MessagingBlockAnchored",
            "type": "event"
        },
        {
            "anonymous": false,
            "inputs": [
                {
                    "indexed": true,
                    "internalType": "address",
                    "name": "amountChangeBy",
                    "type": "address"
                },
                {
                    "indexed": false,
                    "internalType": "uint256",
                    "name": "amount",
                    "type": "uint256"
                },
                {
                    "indexed": false,
                    "internalType": "bool",
                    "name": "amountUsedLoweredToLimit",
                    "type": "bool"
                },
                {
                    "indexed": false,
                    "internalType": "bool",
                    "name": "usedAmountResetToZero",
                    "type": "bool"
                }
            ],
            "name": "LimitAmountChanged",
            "type": "event"
        },
        {
            "anonymous": false,
            "inputs": [
                {
                    "components": [
                        {
                            "internalType": "bytes32",
                            "name": "initialStateRootHash",
                            "type": "bytes32"
                        },
                        {
                            "internalType": "uint256",
                            "name": "initialL2BlockNumber",
                            "type": "uint256"
                        },
                        {
                            "internalType": "uint256",
                            "name": "genesisTimestamp",
                            "type": "uint256"
                        },
                        {
                            "internalType": "address",
                            "name": "defaultVerifier",
                            "type": "address"
                        },
                        {
                            "internalType": "uint256",
                            "name": "rateLimitPeriodInSeconds",
                            "type": "uint256"
                        },
                        {
                            "internalType": "uint256",
                            "name": "rateLimitAmountInWei",
                            "type": "uint256"
                        },
                        {
                            "components": [
                                {
                                    "internalType": "address",
                                    "name": "addressWithRole",
                                    "type": "address"
                                },
                                {
                                    "internalType": "bytes32",
                                    "name": "role",
                                    "type": "bytes32"
                                }
                            ],
                            "internalType": "struct IPermissionsManager.RoleAddress[]",
                            "name": "roleAddresses",
                            "type": "tuple[]"
                        },
                        {
                            "components": [
                                {
                                    "internalType": "enum IPauseManager.PauseType",
                                    "name": "pauseType",
                                    "type": "uint8"
                                },
                                {
                                    "internalType": "bytes32",
                                    "name": "role",
                                    "type": "bytes32"
                                }
                            ],
                            "internalType": "struct IPauseManager.PauseTypeRole[]",
                            "name": "pauseTypeRoles",
                            "type": "tuple[]"
                        },
                        {
                            "components": [
                                {
                                    "internalType": "enum IPauseManager.PauseType",
                                    "name": "pauseType",
                                    "type": "uint8"
                                },
                                {
                                    "internalType": "bytes32",
                                    "name": "role",
                                    "type": "bytes32"
                                }
                            ],
                            "internalType": "struct IPauseManager.PauseTypeRole[]",
                            "name": "unpauseTypeRoles",
                            "type": "tuple[]"
                        },
                        {
                            "internalType": "address",
                            "name": "fallbackOperator",
                            "type": "address"
                        },
                        {
                            "internalType": "address",
                            "name": "defaultAdmin",
                            "type": "address"
                        },
                        {
                            "internalType": "address",
                            "name": "shnarfProvider",
                            "type": "address"
                        }
                    ],
                    "indexed": false,
                    "internalType": "struct ILineaRollup.InitializationData",
                    "name": "InitializationData",
                    "type": "tuple"
                }
            ],
            "name": "LineaRollupInitialized",
            "type": "event"
        },
        {
            "anonymous": false,
            "inputs": [
                {
                    "indexed": true,
                    "internalType": "bytes8",
                    "name": "previousVersion",
                    "type": "bytes8"
                },
                {
                    "indexed": true,
                    "internalType": "bytes8",
                    "name": "newVersion",
                    "type": "bytes8"
                }
            ],
            "name": "LineaRollupVersionChanged",
            "type": "event"
        },
        {
            "anonymous": false,
            "inputs": [
                {
                    "indexed": true,
                    "internalType": "bytes32",
                    "name": "_messageHash",
                    "type": "bytes32"
                }
            ],
            "name": "MessageClaimed",
            "type": "event"
        },
        {
            "anonymous": false,
            "inputs": [
                {
                    "indexed": true,
                    "internalType": "address",
                    "name": "_from",
                    "type": "address"
                },
                {
                    "indexed": true,
                    "internalType": "address",
                    "name": "_to",
                    "type": "address"
                },
                {
                    "indexed": false,
                    "internalType": "uint256",
                    "name": "_fee",
                    "type": "uint256"
                },
                {
                    "indexed": false,
                    "internalType": "uint256",
                    "name": "_value",
                    "type": "uint256"
                },
                {
                    "indexed": false,
                    "internalType": "uint256",
                    "name": "_nonce",
                    "type": "uint256"
                },
                {
                    "indexed": false,
                    "internalType": "bytes",
                    "name": "_calldata",
                    "type": "bytes"
                },
                {
                    "indexed": true,
                    "internalType": "bytes32",
                    "name": "_messageHash",
                    "type": "bytes32"
                }
            ],
            "name": "MessageSent",
            "type": "event"
        },
        {
            "anonymous": false,
            "inputs": [
                {
                    "indexed": true,
                    "internalType": "enum IPauseManager.PauseType",
                    "name": "pauseType",
                    "type": "uint8"
                },
                {
                    "indexed": true,
                    "internalType": "bytes32",
                    "name": "role",
                    "type": "bytes32"
                }
            ],
            "name": "PauseTypeRoleSet",
            "type": "event"
        },
        {
            "anonymous": false,
            "inputs": [
                {
                    "indexed": true,
                    "internalType": "enum IPauseManager.PauseType",
                    "name": "pauseType",
                    "type": "uint8"
                },
                {
                    "indexed": true,
                    "internalType": "bytes32",
                    "name": "role",
                    "type": "bytes32"
                },
                {
                    "indexed": true,
                    "internalType": "bytes32",
                    "name": "previousRole",
                    "type": "bytes32"
                }
            ],
            "name": "PauseTypeRoleUpdated",
            "type": "event"
        },
        {
            "anonymous": false,
            "inputs": [
                {
                    "indexed": false,
                    "internalType": "address",
                    "name": "messageSender",
                    "type": "address"
                },
                {
                    "indexed": true,
                    "internalType": "enum IPauseManager.PauseType",
                    "name": "pauseType",
                    "type": "uint8"
                }
            ],
            "name": "Paused",
            "type": "event"
        },
        {
            "anonymous": false,
            "inputs": [
                {
                    "indexed": false,
                    "internalType": "uint256",
                    "name": "periodInSeconds",
                    "type": "uint256"
                },
                {
                    "indexed": false,
                    "internalType": "uint256",
                    "name": "limitInWei",
                    "type": "uint256"
                },
                {
                    "indexed": false,
                    "internalType": "uint256",
                    "name": "currentPeriodEnd",
                    "type": "uint256"
                }
            ],
            "name": "RateLimitInitialized",
            "type": "event"
        },
        {
            "anonymous": false,
            "inputs": [
                {
                    "indexed": true,
                    "internalType": "bytes32",
                    "name": "role",
                    "type": "bytes32"
                },
                {
                    "indexed": true,
                    "internalType": "bytes32",
                    "name": "previousAdminRole",
                    "type": "bytes32"
                },
                {
                    "indexed": true,
                    "internalType": "bytes32",
                    "name": "newAdminRole",
                    "type": "bytes32"
                }
            ],
            "name": "RoleAdminChanged",
            "type": "event"
        },
        {
            "anonymous": false,
            "inputs": [
                {
                    "indexed": true,
                    "internalType": "bytes32",
                    "name": "role",
                    "type": "bytes32"
                },
                {
                    "indexed": true,
                    "internalType": "address",
                    "name": "account",
                    "type": "address"
                },
                {
                    "indexed": true,
                    "internalType": "address",
                    "name": "sender",
                    "type": "address"
                }
            ],
            "name": "RoleGranted",
            "type": "event"
        },
        {
            "anonymous": false,
            "inputs": [
                {
                    "indexed": true,
                    "internalType": "bytes32",
                    "name": "role",
                    "type": "bytes32"
                },
                {
                    "indexed": true,
                    "internalType": "address",
                    "name": "account",
                    "type": "address"
                },
                {
                    "indexed": true,
                    "internalType": "address",
                    "name": "sender",
                    "type": "address"
                }
            ],
            "name": "RoleRevoked",
            "type": "event"
        },
        {
            "anonymous": false,
            "inputs": [
                {
                    "indexed": true,
                    "internalType": "uint256",
                    "name": "messageNumber",
                    "type": "uint256"
                },
                {
                    "indexed": true,
                    "internalType": "bytes32",
                    "name": "rollingHash",
                    "type": "bytes32"
                },
                {
                    "indexed": true,
                    "internalType": "bytes32",
                    "name": "messageHash",
                    "type": "bytes32"
                }
            ],
            "name": "RollingHashUpdated",
            "type": "event"
        },
        {
            "anonymous": false,
            "inputs": [
                {
                    "indexed": true,
                    "internalType": "enum IPauseManager.PauseType",
                    "name": "unPauseType",
                    "type": "uint8"
                },
                {
                    "indexed": true,
                    "internalType": "bytes32",
                    "name": "role",
                    "type": "bytes32"
                }
            ],
            "name": "UnPauseTypeRoleSet",
            "type": "event"
        },
        {
            "anonymous": false,
            "inputs": [
                {
                    "indexed": true,
                    "internalType": "enum IPauseManager.PauseType",
                    "name": "unPauseType",
                    "type": "uint8"
                },
                {
                    "indexed": true,
                    "internalType": "bytes32",
                    "name": "role",
                    "type": "bytes32"
                },
                {
                    "indexed": true,
                    "internalType": "bytes32",
                    "name": "previousRole",
                    "type": "bytes32"
                }
            ],
            "name": "UnPauseTypeRoleUpdated",
            "type": "event"
        },
        {
            "anonymous": false,
            "inputs": [
                {
                    "indexed": false,
                    "internalType": "address",
                    "name": "messageSender",
                    "type": "address"
                },
                {
                    "indexed": true,
                    "internalType": "enum IPauseManager.PauseType",
                    "name": "pauseType",
                    "type": "uint8"
                }
            ],
            "name": "UnPaused",
            "type": "event"
        },
        {
            "anonymous": false,
            "inputs": [
                {
                    "indexed": false,
                    "internalType": "enum IPauseManager.PauseType",
                    "name": "pauseType",
                    "type": "uint8"
                }
            ],
            "name": "UnPausedDueToExpiry",
            "type": "event"
        },
        {
            "anonymous": false,
            "inputs": [
                {
                    "indexed": true,
                    "internalType": "address",
                    "name": "verifierAddress",
                    "type": "address"
                },
                {
                    "indexed": true,
                    "internalType": "uint256",
                    "name": "proofType",
                    "type": "uint256"
                },
                {
                    "indexed": true,
                    "internalType": "address",
                    "name": "verifierSetBy",
                    "type": "address"
                },
                {
                    "indexed": false,
                    "internalType": "address",
                    "name": "oldVerifierAddress",
                    "type": "address"
                }
            ],
            "name": "VerifierAddressChanged",
            "type": "event"
        },
        {
            "inputs": [],
            "name": "CONTRACT_VERSION",
            "outputs": [
                {
                    "internalType": "string",
                    "name": "contractVersion",
                    "type": "string"
                }
            ],
            "stateMutability": "view",
            "type": "function"
        },
        {
            "inputs": [],
            "name": "COOLDOWN_DURATION",
            "outputs": [
                {
                    "internalType": "uint256",
                    "name": "",
                    "type": "uint256"
                }
            ],
            "stateMutability": "view",
            "type": "function"
        },
        {
            "inputs": [],
            "name": "DEFAULT_ADMIN_ROLE",
            "outputs": [
                {
                    "internalType": "bytes32",
                    "name": "",
                    "type": "bytes32"
                }
            ],
            "stateMutability": "view",
            "type": "function"
        },
        {
            "inputs": [],
            "name": "INBOX_STATUS_RECEIVED",
            "outputs": [
                {
                    "internalType": "uint8",
                    "name": "",
                    "type": "uint8"
                }
            ],
            "stateMutability": "view",
            "type": "function"
        },
        {
            "inputs": [],
            "name": "INBOX_STATUS_UNKNOWN",
            "outputs": [
                {
                    "internalType": "uint8",
                    "name": "",
                    "type": "uint8"
                }
            ],
            "stateMutability": "view",
            "type": "function"
        },
        {
            "inputs": [],
            "name": "OPERATOR_ROLE",
            "outputs": [
                {
                    "internalType": "bytes32",
                    "name": "",
                    "type": "bytes32"
                }
            ],
            "stateMutability": "view",
            "type": "function"
        },
        {
            "inputs": [],
            "name": "OUTBOX_STATUS_RECEIVED",
            "outputs": [
                {
                    "internalType": "uint8",
                    "name": "",
                    "type": "uint8"
                }
            ],
            "stateMutability": "view",
            "type": "function"
        },
        {
            "inputs": [],
            "name": "OUTBOX_STATUS_SENT",
            "outputs": [
                {
                    "internalType": "uint8",
                    "name": "",
                    "type": "uint8"
                }
            ],
            "stateMutability": "view",
            "type": "function"
        },
        {
            "inputs": [],
            "name": "OUTBOX_STATUS_UNKNOWN",
            "outputs": [
                {
                    "internalType": "uint8",
                    "name": "",
                    "type": "uint8"
                }
            ],
            "stateMutability": "view",
            "type": "function"
        },
        {
            "inputs": [],
            "name": "PAUSE_ALL_ROLE",
            "outputs": [
                {
                    "internalType": "bytes32",
                    "name": "",
                    "type": "bytes32"
                }
            ],
            "stateMutability": "view",
            "type": "function"
        },
        {
            "inputs": [],
            "name": "PAUSE_BLOB_SUBMISSION_ROLE",
            "outputs": [
                {
                    "internalType": "bytes32",
                    "name": "",
                    "type": "bytes32"
                }
            ],
            "stateMutability": "view",
            "type": "function"
        },
        {
            "inputs": [],
            "name": "PAUSE_DURATION",
            "outputs": [
                {
                    "internalType": "uint256",
                    "name": "",
                    "type": "uint256"
                }
            ],
            "stateMutability": "view",
            "type": "function"
        },
        {
            "inputs": [],
            "name": "PAUSE_FINALIZATION_ROLE",
            "outputs": [
                {
                    "internalType": "bytes32",
                    "name": "",
                    "type": "bytes32"
                }
            ],
            "stateMutability": "view",
            "type": "function"
        },
        {
            "inputs": [],
            "name": "PAUSE_L1_L2_ROLE",
            "outputs": [
                {
                    "internalType": "bytes32",
                    "name": "",
                    "type": "bytes32"
                }
            ],
            "stateMutability": "view",
            "type": "function"
        },
        {
            "inputs": [],
            "name": "PAUSE_L2_L1_ROLE",
            "outputs": [
                {
                    "internalType": "bytes32",
                    "name": "",
                    "type": "bytes32"
                }
            ],
            "stateMutability": "view",
            "type": "function"
        },
        {
            "inputs": [],
            "name": "PAUSE_SHNARF_SUBMISSION_ROLE",
            "outputs": [
                {
                    "internalType": "bytes32",
                    "name": "",
                    "type": "bytes32"
                }
            ],
            "stateMutability": "view",
            "type": "function"
        },
        {
            "inputs": [],
            "name": "RATE_LIMIT_SETTER_ROLE",
            "outputs": [
                {
                    "internalType": "bytes32",
                    "name": "",
                    "type": "bytes32"
                }
            ],
            "stateMutability": "view",
            "type": "function"
        },
        {
            "inputs": [],
            "name": "SECURITY_COUNCIL_ROLE",
            "outputs": [
                {
                    "internalType": "bytes32",
                    "name": "",
                    "type": "bytes32"
                }
            ],
            "stateMutability": "view",
            "type": "function"
        },
        {
            "inputs": [],
            "name": "UNPAUSE_ALL_ROLE",
            "outputs": [
                {
                    "internalType": "bytes32",
                    "name": "",
                    "type": "bytes32"
                }
            ],
            "stateMutability": "view",
            "type": "function"
        },
        {
            "inputs": [],
            "name": "UNPAUSE_BLOB_SUBMISSION_ROLE",
            "outputs": [
                {
                    "internalType": "bytes32",
                    "name": "",
                    "type": "bytes32"
                }
            ],
            "stateMutability": "view",
            "type": "function"
        },
        {
            "inputs": [],
            "name": "UNPAUSE_FINALIZATION_ROLE",
            "outputs": [
                {
                    "internalType": "bytes32",
                    "name": "",
                    "type": "bytes32"
                }
            ],
            "stateMutability": "view",
            "type": "function"
        },
        {
            "inputs": [],
            "name": "UNPAUSE_L1_L2_ROLE",
            "outputs": [
                {
                    "internalType": "bytes32",
                    "name": "",
                    "type": "bytes32"
                }
            ],
            "stateMutability": "view",
            "type": "function"
        },
        {
            "inputs": [],
            "name": "UNPAUSE_L2_L1_ROLE",
            "outputs": [
                {
                    "internalType": "bytes32",
                    "name": "",
                    "type": "bytes32"
                }
            ],
            "stateMutability": "view",
            "type": "function"
        },
        {
            "inputs": [],
            "name": "UNPAUSE_SHNARF_SUBMISSION_ROLE",
            "outputs": [
                {
                    "internalType": "bytes32",
                    "name": "",
                    "type": "bytes32"
                }
            ],
            "stateMutability": "view",
            "type": "function"
        },
        {
            "inputs": [],
            "name": "USED_RATE_LIMIT_RESETTER_ROLE",
            "outputs": [
                {
                    "internalType": "bytes32",
                    "name": "",
                    "type": "bytes32"
                }
            ],
            "stateMutability": "view",
            "type": "function"
        },
        {
            "inputs": [],
            "name": "VERIFIER_SETTER_ROLE",
            "outputs": [
                {
                    "internalType": "bytes32",
                    "name": "",
                    "type": "bytes32"
                }
            ],
            "stateMutability": "view",
            "type": "function"
        },
        {
            "inputs": [],
            "name": "VERIFIER_UNSETTER_ROLE",
            "outputs": [
                {
                    "internalType": "bytes32",
                    "name": "",
                    "type": "bytes32"
                }
            ],
            "stateMutability": "view",
            "type": "function"
        },
        {
            "inputs": [
                {
                    "internalType": "bytes32",
                    "name": "_parentShnarf",
                    "type": "bytes32"
                },
                {
                    "internalType": "bytes32",
                    "name": "_shnarf",
                    "type": "bytes32"
                },
                {
                    "internalType": "bytes32",
                    "name": "_finalStateRootHash",
                    "type": "bytes32"
                }
            ],
            "name": "acceptShnarfData",
            "outputs": [],
            "stateMutability": "nonpayable",
            "type": "function"
        },
        {
            "inputs": [
                {
                    "internalType": "bytes32",
                    "name": "_shnarf",
                    "type": "bytes32"
                }
            ],
            "name": "blobShnarfExists",
            "outputs": [
                {
                    "internalType": "uint256",
                    "name": "shnarfExists",
                    "type": "uint256"
                }
            ],
            "stateMutability": "view",
            "type": "function"
        },
        {
            "inputs": [
                {
                    "components": [
                        {
                            "internalType": "bytes32[]",
                            "name": "proof",
                            "type": "bytes32[]"
                        },
                        {
                            "internalType": "uint256",
                            "name": "messageNumber",
                            "type": "uint256"
                        },
                        {
                            "internalType": "uint32",
                            "name": "leafIndex",
                            "type": "uint32"
                        },
                        {
                            "internalType": "address",
                            "name": "from",
                            "type": "address"
                        },
                        {
                            "internalType": "address",
                            "name": "to",
                            "type": "address"
                        },
                        {
                            "internalType": "uint256",
                            "name": "fee",
                            "type": "uint256"
                        },
                        {
                            "internalType": "uint256",
                            "name": "value",
                            "type": "uint256"
                        },
                        {
                            "internalType": "address payable",
                            "name": "feeRecipient",
                            "type": "address"
                        },
                        {
                            "internalType": "bytes32",
                            "name": "merkleRoot",
                            "type": "bytes32"
                        },
                        {
                            "internalType": "bytes",
                            "name": "data",
                            "type": "bytes"
                        }
                    ],
                    "internalType": "struct IL1MessageService.ClaimMessageWithProofParams",
                    "name": "_params",
                    "type": "tuple"
                }
            ],
            "name": "claimMessageWithProof",
            "outputs": [],
            "stateMutability": "nonpayable",
            "type": "function"
        },
        {
            "inputs": [],
            "name": "currentFinalizedShnarf",
            "outputs": [
                {
                    "internalType": "bytes32",
                    "name": "",
                    "type": "bytes32"
                }
            ],
            "stateMutability": "view",
            "type": "function"
        },
        {
            "inputs": [],
            "name": "currentFinalizedState",
            "outputs": [
                {
                    "internalType": "bytes32",
                    "name": "",
                    "type": "bytes32"
                }
            ],
            "stateMutability": "view",
            "type": "function"
        },
        {
            "inputs": [],
            "name": "currentL2BlockNumber",
            "outputs": [
                {
                    "internalType": "uint256",
                    "name": "",
                    "type": "uint256"
                }
            ],
            "stateMutability": "view",
            "type": "function"
        },
        {
            "inputs": [],
            "name": "currentPeriodAmountInWei",
            "outputs": [
                {
                    "internalType": "uint256",
                    "name": "",
                    "type": "uint256"
                }
            ],
            "stateMutability": "view",
            "type": "function"
        },
        {
            "inputs": [],
            "name": "currentPeriodEnd",
            "outputs": [
                {
                    "internalType": "uint256",
                    "name": "",
                    "type": "uint256"
                }
            ],
            "stateMutability": "view",
            "type": "function"
        },
        {
            "inputs": [],
            "name": "fallbackOperator",
            "outputs": [
                {
                    "internalType": "address",
                    "name": "",
                    "type": "address"
                }
            ],
            "stateMutability": "view",
            "type": "function"
        },
        {
            "inputs": [
                {
                    "internalType": "bytes",
                    "name": "_aggregatedProof",
                    "type": "bytes"
                },
                {
                    "internalType": "uint256",
                    "name": "_proofType",
                    "type": "uint256"
                },
                {
                    "components": [
                        {
                            "internalType": "bytes32",
                            "name": "parentStateRootHash",
                            "type": "bytes32"
                        },
                        {
                            "internalType": "uint256",
                            "name": "endBlockNumber",
                            "type": "uint256"
                        },
                        {
                            "components": [
                                {
                                    "internalType": "bytes32",
                                    "name": "parentShnarf",
                                    "type": "bytes32"
                                },
                                {
                                    "internalType": "bytes32",
                                    "name": "snarkHash",
                                    "type": "bytes32"
                                },
                                {
                                    "internalType": "bytes32",
                                    "name": "finalStateRootHash",
                                    "type": "bytes32"
                                },
                                {
                                    "internalType": "bytes32",
                                    "name": "dataEvaluationPoint",
                                    "type": "bytes32"
                                },
                                {
                                    "internalType": "bytes32",
                                    "name": "dataEvaluationClaim",
                                    "type": "bytes32"
                                }
                            ],
                            "internalType": "struct ILineaRollup.ShnarfData",
                            "name": "shnarfData",
                            "type": "tuple"
                        },
                        {
                            "internalType": "uint256",
                            "name": "lastFinalizedTimestamp",
                            "type": "uint256"
                        },
                        {
                            "internalType": "uint256",
                            "name": "finalTimestamp",
                            "type": "uint256"
                        },
                        {
                            "internalType": "bytes32",
                            "name": "lastFinalizedL1RollingHash",
                            "type": "bytes32"
                        },
                        {
                            "internalType": "bytes32",
                            "name": "l1RollingHash",
                            "type": "bytes32"
                        },
                        {
                            "internalType": "uint256",
                            "name": "lastFinalizedL1RollingHashMessageNumber",
                            "type": "uint256"
                        },
                        {
                            "internalType": "uint256",
                            "name": "l1RollingHashMessageNumber",
                            "type": "uint256"
                        },
                        {
                            "internalType": "uint256",
                            "name": "l2MerkleTreesDepth",
                            "type": "uint256"
                        },
                        {
                            "internalType": "bytes32[]",
                            "name": "l2MerkleRoots",
                            "type": "bytes32[]"
                        },
                        {
                            "internalType": "bytes",
                            "name": "l2MessagingBlocksOffsets",
                            "type": "bytes"
                        }
                    ],
                    "internalType": "struct ILineaRollup.FinalizationDataV3",
                    "name": "_finalizationData",
                    "type": "tuple"
                }
            ],
            "name": "finalizeBlocks",
            "outputs": [],
            "stateMutability": "nonpayable",
            "type": "function"
        },
        {
            "inputs": [
                {
                    "internalType": "bytes32",
                    "name": "role",
                    "type": "bytes32"
                }
            ],
            "name": "getRoleAdmin",
            "outputs": [
                {
                    "internalType": "bytes32",
                    "name": "",
                    "type": "bytes32"
                }
            ],
            "stateMutability": "view",
            "type": "function"
        },
        {
            "inputs": [
                {
                    "internalType": "bytes32",
                    "name": "role",
                    "type": "bytes32"
                },
                {
                    "internalType": "address",
                    "name": "account",
                    "type": "address"
                }
            ],
            "name": "grantRole",
            "outputs": [],
            "stateMutability": "nonpayable",
            "type": "function"
        },
        {
            "inputs": [
                {
                    "internalType": "bytes32",
                    "name": "role",
                    "type": "bytes32"
                },
                {
                    "internalType": "address",
                    "name": "account",
                    "type": "address"
                }
            ],
            "name": "hasRole",
            "outputs": [
                {
                    "internalType": "bool",
                    "name": "",
                    "type": "bool"
                }
            ],
            "stateMutability": "view",
            "type": "function"
        },
        {
            "inputs": [
                {
                    "internalType": "bytes32",
                    "name": "messageHash",
                    "type": "bytes32"
                }
            ],
            "name": "inboxL2L1MessageStatus",
            "outputs": [
                {
                    "internalType": "uint256",
                    "name": "messageStatus",
                    "type": "uint256"
                }
            ],
            "stateMutability": "view",
            "type": "function"
        },
        {
            "inputs": [
                {
                    "components": [
                        {
                            "internalType": "bytes32",
                            "name": "initialStateRootHash",
                            "type": "bytes32"
                        },
                        {
                            "internalType": "uint256",
                            "name": "initialL2BlockNumber",
                            "type": "uint256"
                        },
                        {
                            "internalType": "uint256",
                            "name": "genesisTimestamp",
                            "type": "uint256"
                        },
                        {
                            "internalType": "address",
                            "name": "defaultVerifier",
                            "type": "address"
                        },
                        {
                            "internalType": "uint256",
                            "name": "rateLimitPeriodInSeconds",
                            "type": "uint256"
                        },
                        {
                            "internalType": "uint256",
                            "name": "rateLimitAmountInWei",
                            "type": "uint256"
                        },
                        {
                            "components": [
                                {
                                    "internalType": "address",
                                    "name": "addressWithRole",
                                    "type": "address"
                                },
                                {
                                    "internalType": "bytes32",
                                    "name": "role",
                                    "type": "bytes32"
                                }
                            ],
                            "internalType": "struct IPermissionsManager.RoleAddress[]",
                            "name": "roleAddresses",
                            "type": "tuple[]"
                        },
                        {
                            "components": [
                                {
                                    "internalType": "enum IPauseManager.PauseType",
                                    "name": "pauseType",
                                    "type": "uint8"
                                },
                                {
                                    "internalType": "bytes32",
                                    "name": "role",
                                    "type": "bytes32"
                                }
                            ],
                            "internalType": "struct IPauseManager.PauseTypeRole[]",
                            "name": "pauseTypeRoles",
                            "type": "tuple[]"
                        },
                        {
                            "components": [
                                {
                                    "internalType": "enum IPauseManager.PauseType",
                                    "name": "pauseType",
                                    "type": "uint8"
                                },
                                {
                                    "internalType": "bytes32",
                                    "name": "role",
                                    "type": "bytes32"
                                }
                            ],
                            "internalType": "struct IPauseManager.PauseTypeRole[]",
                            "name": "unpauseTypeRoles",
                            "type": "tuple[]"
                        },
                        {
                            "internalType": "address",
                            "name": "fallbackOperator",
                            "type": "address"
                        },
                        {
                            "internalType": "address",
                            "name": "defaultAdmin",
                            "type": "address"
                        },
                        {
                            "internalType": "address",
                            "name": "shnarfProvider",
                            "type": "address"
                        }
                    ],
                    "internalType": "struct ILineaRollup.InitializationData",
                    "name": "_initializationData",
                    "type": "tuple"
                }
            ],
            "name": "initialize",
            "outputs": [],
            "stateMutability": "nonpayable",
            "type": "function"
        },
        {
            "inputs": [
                {
                    "internalType": "uint256",
                    "name": "_messageNumber",
                    "type": "uint256"
                }
            ],
            "name": "isMessageClaimed",
            "outputs": [
                {
                    "internalType": "bool",
                    "name": "isClaimed",
                    "type": "bool"
                }
            ],
            "stateMutability": "view",
            "type": "function"
        },
        {
            "inputs": [
                {
                    "internalType": "enum IPauseManager.PauseType",
                    "name": "_pauseType",
                    "type": "uint8"
                }
            ],
            "name": "isPaused",
            "outputs": [
                {
                    "internalType": "bool",
                    "name": "pauseTypeIsPaused",
                    "type": "bool"
                }
            ],
            "stateMutability": "view",
            "type": "function"
        },
        {
            "inputs": [
                {
                    "internalType": "bytes32",
                    "name": "merkleRoot",
                    "type": "bytes32"
                }
            ],
            "name": "l2MerkleRootsDepths",
            "outputs": [
                {
                    "internalType": "uint256",
                    "name": "treeDepth",
                    "type": "uint256"
                }
            ],
            "stateMutability": "view",
            "type": "function"
        },
        {
            "inputs": [],
            "name": "limitInWei",
            "outputs": [
                {
                    "internalType": "uint256",
                    "name": "",
                    "type": "uint256"
                }
            ],
            "stateMutability": "view",
            "type": "function"
        },
        {
            "inputs": [],
            "name": "nextMessageNumber",
            "outputs": [
                {
                    "internalType": "uint256",
                    "name": "",
                    "type": "uint256"
                }
            ],
            "stateMutability": "view",
            "type": "function"
        },
        {
            "inputs": [
                {
                    "internalType": "bytes32",
                    "name": "messageHash",
                    "type": "bytes32"
                }
            ],
            "name": "outboxL1L2MessageStatus",
            "outputs": [
                {
                    "internalType": "uint256",
                    "name": "messageStatus",
                    "type": "uint256"
                }
            ],
            "stateMutability": "view",
            "type": "function"
        },
        {
            "inputs": [
                {
                    "internalType": "enum IPauseManager.PauseType",
                    "name": "_pauseType",
                    "type": "uint8"
                }
            ],
            "name": "pauseByType",
            "outputs": [],
            "stateMutability": "nonpayable",
            "type": "function"
        },
        {
            "inputs": [],
            "name": "pauseExpiryTimestamp",
            "outputs": [
                {
                    "internalType": "uint256",
                    "name": "",
                    "type": "uint256"
                }
            ],
            "stateMutability": "view",
            "type": "function"
        },
        {
            "inputs": [],
            "name": "periodInSeconds",
            "outputs": [
                {
                    "internalType": "uint256",
                    "name": "",
                    "type": "uint256"
                }
            ],
            "stateMutability": "view",
            "type": "function"
        },
        {
            "inputs": [
                {
                    "internalType": "bytes32",
                    "name": "_role",
                    "type": "bytes32"
                },
                {
                    "internalType": "address",
                    "name": "_account",
                    "type": "address"
                }
            ],
            "name": "renounceRole",
            "outputs": [],
            "stateMutability": "nonpayable",
            "type": "function"
        },
        {
            "inputs": [],
            "name": "resetAmountUsedInPeriod",
            "outputs": [],
            "stateMutability": "nonpayable",
            "type": "function"
        },
        {
            "inputs": [
                {
                    "internalType": "uint256",
                    "name": "_amount",
                    "type": "uint256"
                }
            ],
            "name": "resetRateLimitAmount",
            "outputs": [],
            "stateMutability": "nonpayable",
            "type": "function"
        },
        {
            "inputs": [
                {
                    "internalType": "bytes32",
                    "name": "role",
                    "type": "bytes32"
                },
                {
                    "internalType": "address",
                    "name": "account",
                    "type": "address"
                }
            ],
            "name": "revokeRole",
            "outputs": [],
            "stateMutability": "nonpayable",
            "type": "function"
        },
        {
            "inputs": [
                {
                    "internalType": "uint256",
                    "name": "messageNumber",
                    "type": "uint256"
                }
            ],
            "name": "rollingHashes",
            "outputs": [
                {
                    "internalType": "bytes32",
                    "name": "rollingHash",
                    "type": "bytes32"
                }
            ],
            "stateMutability": "view",
            "type": "function"
        },
        {
            "inputs": [
                {
                    "internalType": "address",
                    "name": "_to",
                    "type": "address"
                },
                {
                    "internalType": "uint256",
                    "name": "_fee",
                    "type": "uint256"
                },
                {
                    "internalType": "bytes",
                    "name": "_calldata",
                    "type": "bytes"
                }
            ],
            "name": "sendMessage",
            "outputs": [],
            "stateMutability": "payable",
            "type": "function"
        },
        {
            "inputs": [],
            "name": "sender",
            "outputs": [
                {
                    "internalType": "address",
                    "name": "originalSender",
                    "type": "address"
                }
            ],
            "stateMutability": "view",
            "type": "function"
        },
        {
            "inputs": [
                {
                    "internalType": "uint256",
                    "name": "_messageNumber",
                    "type": "uint256"
                },
                {
                    "internalType": "bytes32",
                    "name": "_rollingHash",
                    "type": "bytes32"
                },
                {
                    "internalType": "uint256",
                    "name": "_lastFinalizedTimestamp",
                    "type": "uint256"
                }
            ],
            "name": "setFallbackOperator",
            "outputs": [],
            "stateMutability": "nonpayable",
            "type": "function"
        },
        {
            "inputs": [
                {
                    "internalType": "address",
                    "name": "_newVerifierAddress",
                    "type": "address"
                },
                {
                    "internalType": "uint256",
                    "name": "_proofType",
                    "type": "uint256"
                }
            ],
            "name": "setVerifierAddress",
            "outputs": [],
            "stateMutability": "nonpayable",
            "type": "function"
        },
        {
            "inputs": [],
            "name": "shnarfProvider",
            "outputs": [
                {
                    "internalType": "contract IProvideShnarf",
                    "name": "",
                    "type": "address"
                }
            ],
            "stateMutability": "view",
            "type": "function"
        },
        {
            "inputs": [
                {
                    "internalType": "uint256",
                    "name": "blockNumber",
                    "type": "uint256"
                }
            ],
            "name": "stateRootHashes",
            "outputs": [
                {
                    "internalType": "bytes32",
                    "name": "stateRootHash",
                    "type": "bytes32"
                }
            ],
            "stateMutability": "view",
            "type": "function"
        },
        {
            "inputs": [
                {
                    "internalType": "bytes4",
                    "name": "interfaceId",
                    "type": "bytes4"
                }
            ],
            "name": "supportsInterface",
            "outputs": [
                {
                    "internalType": "bool",
                    "name": "",
                    "type": "bool"
                }
            ],
            "stateMutability": "view",
            "type": "function"
        },
        {
            "inputs": [],
            "name": "systemMigrationBlock",
            "outputs": [
                {
                    "internalType": "uint256",
                    "name": "",
                    "type": "uint256"
                }
            ],
            "stateMutability": "view",
            "type": "function"
        },
        {
            "inputs": [
                {
                    "internalType": "enum IPauseManager.PauseType",
                    "name": "_pauseType",
                    "type": "uint8"
                }
            ],
            "name": "unPauseByExpiredType",
            "outputs": [],
            "stateMutability": "nonpayable",
            "type": "function"
        },
        {
            "inputs": [
                {
                    "internalType": "enum IPauseManager.PauseType",
                    "name": "_pauseType",
                    "type": "uint8"
                }
            ],
            "name": "unPauseByType",
            "outputs": [],
            "stateMutability": "nonpayable",
            "type": "function"
        },
        {
            "inputs": [
                {
                    "internalType": "uint256",
                    "name": "_proofType",
                    "type": "uint256"
                }
            ],
            "name": "unsetVerifierAddress",
            "outputs": [],
            "stateMutability": "nonpayable",
            "type": "function"
        },
        {
            "inputs": [
                {
                    "internalType": "enum IPauseManager.PauseType",
                    "name": "_pauseType",
                    "type": "uint8"
                },
                {
                    "internalType": "bytes32",
                    "name": "_newRole",
                    "type": "bytes32"
                }
            ],
            "name": "updatePauseTypeRole",
            "outputs": [],
            "stateMutability": "nonpayable",
            "type": "function"
        },
        {
            "inputs": [
                {
                    "internalType": "enum IPauseManager.PauseType",
                    "name": "_pauseType",
                    "type": "uint8"
                },
                {
                    "internalType": "bytes32",
                    "name": "_newRole",
                    "type": "bytes32"
                }
            ],
            "name": "updateUnpauseTypeRole",
            "outputs": [],
            "stateMutability": "nonpayable",
            "type": "function"
        },
        {
            "inputs": [
                {
                    "internalType": "uint256",
                    "name": "proofType",
                    "type": "uint256"
                }
            ],
            "name": "verifiers",
            "outputs": [
                {
                    "internalType": "address",
                    "name": "verifierAddress",
                    "type": "address"
                }
            ],
            "stateMutability": "view",
            "type": "function"
        }
    ],
    "bytecode": "0x608060405234801561000f575f5ffd5b5061002a677d79ce418357e00d60c01b6100cd60201b60201c565b61004467d8177c40ac82033360c01b6100cd60201b60201c565b61005e67e582cd85059c43d660c01b6100cd60201b60201c565b61006c6100d060201b60201c565b61008667d8edda60782a958260c01b61018e60201b60201c565b6100a067bc34dbaa5cce66d460c01b61018e60201b60201c565b6100ba671dbb1bd71511ef5d60c01b61018e60201b60201c565b6100c86100d060201b60201c565b610263565b50565b5f60019054906101000a900460ff161561011f576040517f08c379a000000000000000000000000000000000000000000000000000000000815260040161011690610211565b60405180910390fd5b60ff80165f5f9054906101000a900460ff1660ff161461018c5760ff5f5f6101000a81548160ff021916908360ff1602179055507f7f26b83ff96e1f2b6a682f133852f6798a09c465da95921460cefb384740249860ff604051610183919061024a565b60405180910390a15b565b50565b5f82825260208201905092915050565b7f496e697469616c697a61626c653a20636f6e747261637420697320696e6974695f8201527f616c697a696e6700000000000000000000000000000000000000000000000000602082015250565b5f6101fb602783610191565b9150610206826101a1565b604082019050919050565b5f6020820190508181035f830152610228816101ef565b9050919050565b5f60ff82169050919050565b6102448161022f565b82525050565b5f60208201905061025d5f83018461023b565b92915050565b619fd7806102705f395ff3fe608060405260043610610464575f3560e01c80637d1e8c5511610242578063b837dbe911610142578063c2116974116100ba578063d547741f11610089578063e196fb5d1161006e578063e196fb5d14611000578063f4586fc814611028578063f5b541a61461105057610464565b8063d547741f14610fae578063d722bbfc14610fd657610464565b8063c211697414610f08578063cc6f725114610f30578063cd9b9e9a14610f5a578063cf5b276414610f8457610464565b8063bc61e73311610111578063bf3e7505116100f6578063bf3e750514610e8a578063c0729ab114610eb4578063c1dc0f0714610ede57610464565b8063bc61e73314610e26578063bcc3003d14610e6257610464565b8063b837dbe914610d7e578063b9174ba314610da8578063b9fe5cf714610dd2578063bb871c2914610dfc57610464565b8063986fcddd116101d5578063a217fddf116101a4578063ad422ff011610189578063ad422ff014610d14578063aea4f74514610d3e578063b59faa6014610d5457610464565b8063a217fddf14610cae578063ac1eff6814610cd857610464565b8063986fcddd14610c025780639ac25d0814610c2c5780639ee8b21114610c565780639f3ce55a14610c9257610464565b806391d148541161021157806391d1485414610b4a578063921b278e14610b8657806392fa129a14610bb057806395ba81fa14610bda57610464565b80637d1e8c5514610a7e5780638be745d114610aa85780638de4948714610ae4578063914e57eb14610b0e57610464565b806343757d82116103685780635ec775b0116102e057806367e404ce116102af5780636a906b80116102945780636a906b8014610a005780636e67384314610a2a57806373bd07b714610a5457610464565b806367e404ce146109ac578063695378f5146109d657610464565b80635ec775b0146108f457806360e83cf31461091e578063632131551461095a5780636463fb2a1461098457610464565b8063557eac7311610337578063587944561161031c57806358794456146108645780635b7eb4bd1461088e5780635c721a0c146108b857610464565b8063557eac73146108145780635603c65f1461083c57610464565b806343757d821461077057806348922ab7146107985780635230eef2146107c257806352abf32d146107ec57610464565b806328958174116103fb57806338b90333116103ca5780633c0f20fc116103af5780633c0f20fc146106e25780633e9ebfc21461070c5780633fc08b651461073457610464565b806338b903331461068e5780633b12eccb146106b857610464565b806328958174146105ec5780632c70645c146106145780632f2ff15d1461063e57806336568abe1461066657610464565b806316d8d24e1161043757806316d8d24e146105205780632130d8121461054a57806321b4deee14610586578063248a9ca3146105b057610464565b806301ffc9a71461046857806303134d1d146104a45780631065a399146104ce57806312d3fa9a146104f6575b5f5ffd5b348015610473575f5ffd5b5061048e60048036038101906104899190618564565b61107a565b60405161049b91906185a9565b60405180910390f35b3480156104af575f5ffd5b506104b86110f3565b6040516104c591906185da565b60405180910390f35b3480156104d9575f5ffd5b506104f460048036038101906104ef9190618616565b611117565b005b348015610501575f5ffd5b5061050a6114bf565b60405161051791906185da565b60405180910390f35b34801561052b575f5ffd5b506105346114e3565b60405161054191906185da565b60405180910390f35b348015610555575f5ffd5b50610570600480360381019061056b919061866b565b611507565b60405161057d91906186ae565b60405180910390f35b348015610591575f5ffd5b5061059a61154a565b6040516105a791906186ae565b60405180910390f35b3480156105bb575f5ffd5b506105d660048036038101906105d1919061866b565b611551565b6040516105e391906185da565b60405180910390f35b3480156105f7575f5ffd5b50610612600480360381019061060d91906186f1565b61156e565b005b34801561061f575f5ffd5b506106286116df565b60405161063591906186ae565b60405180910390f35b348015610649575f5ffd5b50610664600480360381019061065f9190618776565b6116e6565b005b348015610671575f5ffd5b5061068c60048036038101906106879190618776565b611707565b005b348015610699575f5ffd5b506106a261183c565b6040516106af9190618824565b60405180910390f35b3480156106c3575f5ffd5b506106cc6118a1565b6040516106d991906185da565b60405180910390f35b3480156106ed575f5ffd5b506106f66118c5565b604051610703919061889f565b60405180910390f35b348015610717575f5ffd5b50610732600480360381019061072d91906188b8565b6118eb565b005b34801561073f575f5ffd5b5061075a6004803603810190610755919061866b565b611c1f565b60405161076791906186ae565b60405180910390f35b34801561077b575f5ffd5b5061079660048036038101906107919190618919565b611c34565b005b3480156107a3575f5ffd5b506107ac611e45565b6040516107b9919061897b565b60405180910390f35b3480156107cd575f5ffd5b506107d6611e4a565b6040516107e391906185da565b60405180910390f35b3480156107f7575f5ffd5b50610812600480360381019061080d91906188b8565b611e6e565b005b34801561081f575f5ffd5b5061083a600480360381019061083591906186f1565b6121a2565b005b348015610847575f5ffd5b50610862600480360381019061085d9190618a14565b61250c565b005b34801561086f575f5ffd5b50610878612851565b60405161088591906186ae565b60405180910390f35b348015610899575f5ffd5b506108a2612857565b6040516108af919061897b565b60405180910390f35b3480156108c3575f5ffd5b506108de60048036038101906108d9919061866b565b61285c565b6040516108eb91906186ae565b60405180910390f35b3480156108ff575f5ffd5b50610908612871565b60405161091591906186ae565b60405180910390f35b348015610929575f5ffd5b50610944600480360381019061093f919061866b565b612878565b60405161095191906186ae565b60405180910390f35b348015610965575f5ffd5b5061096e61288e565b60405161097b91906185da565b60405180910390f35b34801561098f575f5ffd5b506109aa60048036038101906109a59190618ac0565b6128b2565b005b3480156109b7575f5ffd5b506109c0612f21565b6040516109cd9190618b16565b60405180910390f35b3480156109e1575f5ffd5b506109ea612f71565b6040516109f791906186ae565b60405180910390f35b348015610a0b575f5ffd5b50610a14612f78565b604051610a2191906185da565b60405180910390f35b348015610a35575f5ffd5b50610a3e612f9c565b604051610a4b91906185da565b60405180910390f35b348015610a5f575f5ffd5b50610a68612fc0565b604051610a75919061897b565b60405180910390f35b348015610a89575f5ffd5b50610a92612fc5565b604051610a9f919061897b565b60405180910390f35b348015610ab3575f5ffd5b50610ace6004803603810190610ac991906186f1565b612fc9565b604051610adb91906185da565b60405180910390f35b348015610aef575f5ffd5b50610af8612fdf565b604051610b0591906185da565b60405180910390f35b348015610b19575f5ffd5b50610b346004803603810190610b2f91906186f1565b613003565b604051610b4191906185da565b60405180910390f35b348015610b55575f5ffd5b50610b706004803603810190610b6b9190618776565b613019565b604051610b7d91906185a9565b60405180910390f35b348015610b91575f5ffd5b50610b9a61307d565b604051610ba791906185da565b60405180910390f35b348015610bbb575f5ffd5b50610bc4613084565b604051610bd191906186ae565b60405180910390f35b348015610be5575f5ffd5b50610c006004803603810190610bfb9190618616565b61308a565b005b348015610c0d575f5ffd5b50610c166133a8565b604051610c23919061897b565b60405180910390f35b348015610c37575f5ffd5b50610c406133ac565b604051610c4d91906185da565b60405180910390f35b348015610c61575f5ffd5b50610c7c6004803603810190610c7791906186f1565b6133d0565b604051610c8991906185a9565b60405180910390f35b610cac6004803603810190610ca79190618b2f565b613415565b005b348015610cb9575f5ffd5b50610cc26134e7565b604051610ccf91906185da565b60405180910390f35b348015610ce3575f5ffd5b50610cfe6004803603810190610cf991906186f1565b6134ed565b604051610d0b9190618b16565b60405180910390f35b348015610d1f575f5ffd5b50610d2861351e565b604051610d3591906186ae565b60405180910390f35b348015610d49575f5ffd5b50610d52613524565b005b348015610d5f575f5ffd5b50610d6861361a565b604051610d7591906185da565b60405180910390f35b348015610d89575f5ffd5b50610d9261363e565b604051610d9f91906186ae565b60405180910390f35b348015610db3575f5ffd5b50610dbc613644565b604051610dc991906185da565b60405180910390f35b348015610ddd575f5ffd5b50610de6613668565b604051610df391906185da565b60405180910390f35b348015610e07575f5ffd5b50610e1061368c565b604051610e1d91906185da565b60405180910390f35b348015610e31575f5ffd5b50610e4c6004803603810190610e479190618616565b6136b0565b604051610e5991906185a9565b60405180910390f35b348015610e6d575f5ffd5b50610e886004803603810190610e839190618ba0565b6136fe565b005b348015610e95575f5ffd5b50610e9e6139aa565b604051610eab91906185da565b60405180910390f35b348015610ebf575f5ffd5b50610ec86139ce565b604051610ed591906186ae565b60405180910390f35b348015610ee9575f5ffd5b50610ef26139d4565b604051610eff91906186ae565b60405180910390f35b348015610f13575f5ffd5b50610f2e6004803603810190610f299190618bf0565b6139da565b005b348015610f3b575f5ffd5b50610f44613c31565b604051610f5191906185da565b60405180910390f35b348015610f65575f5ffd5b50610f6e613c55565b604051610f7b91906185da565b60405180910390f35b348015610f8f575f5ffd5b50610f98613c5c565b604051610fa59190618b16565b60405180910390f35b348015610fb9575f5ffd5b50610fd46004803603810190610fcf9190618776565b613c82565b005b348015610fe1575f5ffd5b50610fea613ca3565b604051610ff791906185da565b60405180910390f35b34801561100b575f5ffd5b5061102660048036038101906110219190618616565b613cc7565b005b348015611033575f5ffd5b5061104e60048036038101906110499190618c2e565b614171565b005b34801561105b575f5ffd5b506110646143a9565b60405161107191906185da565b60405180910390f35b5f7f7965db0b000000000000000000000000000000000000000000000000000000007bffffffffffffffffffffffffffffffffffffffffffffffffffffffff1916827bffffffffffffffffffffffffffffffffffffffffffffffffffffffff191614806110ec57506110eb826143cd565b5b9050919050565b7f1ab87f7458c0e3d07e9881c14ee67f0141703614fd48ea5b15ed987e5f4b030e81565b61112b67c3b190177081226760c01b614436565b8061114067d28fdf33329c95c460c01b614436565b6111546722a98242dcaa598960c01b614436565b6111686791fa044a0b96068760c01b614436565b5f600981111561117b5761117a618c7e565b5b81600981111561118e5761118d618c7e565b5b036111ed576111a767e8768214a139ed0360c01b614436565b6111bb67df5c42b926b08aad60c01b614436565b6040517f85994c7700000000000000000000000000000000000000000000000000000000815260040160405180910390fd5b61120167c613dcf60d46b1a460c01b614436565b611215678066bbe8147485f160c01b614436565b61122967c3556d03aa0f570460c01b614436565b61123d67ecb76d118e58e56f60c01b614436565b60dc5f83600981111561125357611252618c7e565b5b600981111561126557611264618c7e565b5b81526020019081526020015f205461127c81614439565b61129067f1d558fa6b1cc39760c01b614436565b6112a467853fc50f8013696f60c01b614436565b6112b867e528add07bf8de2f60c01b614436565b6112cc677ae6801575c408a560c01b614436565b6112d5836136b0565b61133e576112ed67c07494e192a3f73660c01b614436565b611301670cfaeeb9600db0f660c01b614436565b826040517f186596540000000000000000000000000000000000000000000000000000000081526004016113359190618cf1565b60405180910390fd5b61135267f61fa4e17b0f501160c01b614436565b611366673c66086ee190e63760c01b614436565b61137a67952a578224db06aa60c01b614436565b6113ab7f1453a531db80c85f2d944d498709d84959bc5bf839eefe9acb784571e5a321186113a661444d565b613019565b156113f2576113c4679d1b1abd38450c9760c01b614436565b6113d867eb86fcdb369cc58660c01b614436565b62015180426113e79190618d37565b60dd81905550611407565b61140667b98d4e8f13950fd060c01b614436565b5b61141b672cb604808fb9d8d560c01b614436565b82600981111561142e5761142d618c7e565b5b6001901b1960da5f828254169250508190555061145567e29bf6a72cad1de960c01b614436565b61146967f47c5bc2a421695160c01b614436565b82600981111561147c5761147b618c7e565b5b7fd071d2b85dec4489435b541d2f0e2570db09b09db9efd8703948d44a433df65a6114a561444d565b6040516114b29190618b16565b60405180910390a2505050565b7f67c2dca7476ee0fe1dd3cba13428c6760bfe2599a6dfe26a9ad7ef27317c6e7781565b7f6a072be1f08b48d0c31f72f5e89e92c134f16aa08e20117bbdd11d29a3ffe48481565b5f61151c674f6c33d757de94c360c01b614454565b61153067ebde298f6defa78260c01b614454565b6101be5f8381526020019081526020015f20549050919050565b6203f48081565b5f60655f8381526020019081526020015f20600101549050919050565b6115826769975437c02ba4c260c01b614457565b7f6b5661ddfbd1fbd525c902a513e0f47d9c74f1c1ee8a2d4f1937ad305fb8f41a6115ac81614439565b6115c0676f224ee4af66384a60c01b614457565b6115d4678243867c2dca3ab160c01b614457565b6115e867e75de068ba6cb65760c01b614457565b6115fc67a82c48c2f5684a5d60c01b614457565b3373ffffffffffffffffffffffffffffffffffffffff16825f73ffffffffffffffffffffffffffffffffffffffff167f4a29db3fc6b42bda201e4b4d69ce8d575eeeba5f153509c0d0a342af0f1bd02161011b5f8781526020019081526020015f205f9054906101000a900473ffffffffffffffffffffffffffffffffffffffff1660405161168b9190618b16565b60405180910390a46116a767b6c4d54f52565e6f60c01b614457565b61011b5f8381526020019081526020015f205f6101000a81549073ffffffffffffffffffffffffffffffffffffffff02191690555050565b6101835481565b6116ef82611551565b6116f881614439565b611702838361445a565b505050565b61171b67685c74ff9a551ef060c01b614457565b61172f675e87e068d1854a8c60c01b614457565b61174367120c51126c47fad760c01b614457565b6101c05f9054906101000a900473ffffffffffffffffffffffffffffffffffffffff1673ffffffffffffffffffffffffffffffffffffffff168173ffffffffffffffffffffffffffffffffffffffff16036117f2576117ac6755f09c66513987c360c01b614457565b6117c067795780dd8f1cb6c960c01b614457565b6040517f7f7497e900000000000000000000000000000000000000000000000000000000815260040160405180910390fd5b6118066755eafc50f676ca5760c01b614457565b61181a67326519670324ecf160c01b614457565b61182e6771fcdd19994490af60c01b614457565b6118388282614535565b5050565b606061185267f6ca1a1985806c8860c01b6145b8565b61186667591398f10798aed160c01b6145b8565b6040518060400160405280600381526020017f312e300000000000000000000000000000000000000000000000000000000000815250905090565b7fb6cc65f42901ed602aec1619cc1ead29d487cd489094a37615153eaeb991d77081565b6101c15f9054906101000a900473ffffffffffffffffffffffffffffffffffffffff1681565b6118ff6775a5ab974b9bdfa560c01b614436565b8161191467d28fdf33329c95c460c01b614436565b6119286722a98242dcaa598960c01b614436565b61193c6791fa044a0b96068760c01b614436565b5f600981111561194f5761194e618c7e565b5b81600981111561196257611961618c7e565b5b036119c15761197b67e8768214a139ed0360c01b614436565b61198f67df5c42b926b08aad60c01b614436565b6040517f85994c7700000000000000000000000000000000000000000000000000000000815260040160405180910390fd5b6119d567c613dcf60d46b1a460c01b614436565b6119e9678066bbe8147485f160c01b614436565b6119fd67687ddc12737584de60c01b614436565b611a11679e5f067a6e537ebd60c01b614436565b7f1453a531db80c85f2d944d498709d84959bc5bf839eefe9acb784571e5a32118611a3b81614439565b611a4f67b2368af35087fb4f60c01b614436565b611a63679ee135a798725a4b60c01b614436565b611a7767d14894ddc7ad786c60c01b614436565b611a8b6755fd38b642e9c2c360c01b614436565b5f60db5f866009811115611aa257611aa1618c7e565b5b6009811115611ab457611ab3618c7e565b5b81526020019081526020015f20549050611ad86791277be8a1e3b9d660c01b614436565b611aec67a8185cc3cb558a2560c01b614436565b838103611b4d57611b07679f5a564310ab528c60c01b614436565b611b1b67b4f5c1d9b3307bf060c01b614436565b6040517f1b807f5500000000000000000000000000000000000000000000000000000000815260040160405180910390fd5b611b6167753065a853849ed260c01b614436565b611b7567cdd2da74d8fc475460c01b614436565b8360db5f876009811115611b8c57611b8b618c7e565b5b6009811115611b9e57611b9d618c7e565b5b81526020019081526020015f2081905550611bc367e9e88733bd39681a60c01b614436565b611bd767672a1ce149d0022e60c01b614436565b8084866009811115611bec57611beb618c7e565b5b7f074bfc3728ef1e98bde10bcb5bd8cde59cff190c2bfda5d22f879f865a07bac560405160405180910390a45050505050565b60a5602052805f5260405f205f915090505481565b611c486761256eedac0370f560c01b6145b8565b5f5f60019054906101000a900460ff16159050808015611c78575060015f5f9054906101000a900460ff1660ff16105b80611ca55750611c87306145bb565b158015611ca4575060015f5f9054906101000a900460ff1660ff16145b5b611ce4576040517f08c379a0000000000000000000000000000000000000000000000000000000008152600401611cdb90618dda565b60405180910390fd5b60015f5f6101000a81548160ff021916908360ff1602179055508015611d1f5760015f60016101000a81548160ff0219169083151502179055505b611d3367d5a3f256c54171ae60c01b6145b8565b611d47674f76414b8963e63460c01b6145b8565b611d5b6755d6bc4078e1f58d60c01b6145b8565b611d6f67b21c8f86c2e6646460c01b6145b8565b5f611d885f5f1b5f5f1b855f01355f5f1b5f5f1b6145dd565b9050611d9e673132bb0f1cf751ce60c01b6145b8565b60016101be5f8381526020019081526020015f2081905550611dca671ac785479a87c67260c01b6145b8565b611dde670d95297cfdf0e78e60c01b6145b8565b611de88382614634565b508015611e41575f5f60016101000a81548160ff0219169083151502179055507f7f26b83ff96e1f2b6a682f133852f6798a09c465da95921460cefb38474024986001604051611e389190618e31565b60405180910390a15b5050565b600181565b7f0cf0d2deb70d7bdac2fa48c4ac99bc558170be0ce5fcb994caefa4bf7b96edf981565b611e8267b5a079cc5147096f60c01b614436565b81611e9767d28fdf33329c95c460c01b614436565b611eab6722a98242dcaa598960c01b614436565b611ebf6791fa044a0b96068760c01b614436565b5f6009811115611ed257611ed1618c7e565b5b816009811115611ee557611ee4618c7e565b5b03611f4457611efe67e8768214a139ed0360c01b614436565b611f1267df5c42b926b08aad60c01b614436565b6040517f85994c7700000000000000000000000000000000000000000000000000000000815260040160405180910390fd5b611f5867c613dcf60d46b1a460c01b614436565b611f6c678066bbe8147485f160c01b614436565b611f80672ea6d94ae695746b60c01b614436565b611f9467d889ad16caf49b1660c01b614436565b7f1453a531db80c85f2d944d498709d84959bc5bf839eefe9acb784571e5a32118611fbe81614439565b611fd267ef674ba51d4ddb7760c01b614436565b611fe6675dc2a95907c94a7460c01b614436565b611ffa67192f2e1b3000d16460c01b614436565b61200e67362424b9d742af7c60c01b614436565b5f60dc5f86600981111561202557612024618c7e565b5b600981111561203757612036618c7e565b5b81526020019081526020015f2054905061205b6750479196b492627a60c01b614436565b61206f67daaf1ac8faf9a94f60c01b614436565b8381036120d05761208a67e2ac1b92db7d42ce60c01b614436565b61209e67aac8c6a789e2ab6560c01b614436565b6040517f1b807f5500000000000000000000000000000000000000000000000000000000815260040160405180910390fd5b6120e4673fe2e829d4b789c060c01b614436565b6120f8678a4a9e07d629498060c01b614436565b8360dc5f87600981111561210f5761210e618c7e565b5b600981111561212157612120618c7e565b5b81526020019081526020015f2081905550612146675d5077eb632bb07660c01b614436565b61215a671adb9f2711899b3660c01b614436565b808486600981111561216f5761216e618c7e565b5b7ff8ef9f1cde7c2c0d3aeb696678f76d7c1c3e13c3b79ea3c5160a2d9eaa821cfd60405160405180910390a45050505050565b6121b667a43a5a14bc91607a60c01b614d92565b7f1185e52d62bfbbea270e57d3d09733d221b53ab7a18bae82bb3c6c74bab16d826121e081614439565b6121f467e422273f038d77a660c01b614d92565b61220867cd61c84cba46967360c01b614d92565b61221c67a3576429ffd2c08960c01b614d92565b61223067f690dc6c463233d660c01b614d92565b5f61224567c1362483416d397060c01b614d92565b61225967d09083a1027fac1160c01b614d92565b5f61226e67dede3910858f574760c01b614d92565b61228267ccb77b9becc4b1b460c01b614d92565b5f6122976706b9be79df6f9ac460c01b614d92565b6122ab67893a8e65bc2ffb5660c01b614d92565b42609954101561230e576122c967619ac20d0d6c6c8c60c01b614d92565b6122dd67105cfae0ebb69dcb60c01b614d92565b609754426122eb9190618e4a565b60998190555061230567458ea165eeca605760c01b614d92565b600190506123b2565b61232267eee93ee69ea97dcd60c01b614d92565b612336676e21afa59800731a60c01b614d92565b61234a675f9f20475dd1d35060c01b614d92565b609a5485101561239c5761236867b8291f7889d987f260c01b614d92565b61237c67e66ae007f3f8e76060c01b614d92565b8492506123936718763e64b81ef84260c01b614d92565b600191506123b1565b6123b06706de03aa3f764d4760c01b614d92565b5b5b6123c66764820ababb42f99060c01b614d92565b846098819055506123e167903dad68541a9ccc60c01b614d92565b6123f567e235deaa6b591a9c60c01b614d92565b808015612412575061241167de85c76e9ab8bf5260c01b614d95565b5b8061243657508180156124355750612434671be02cb2ad90a5f260c01b614d95565b5b5b1561246f5761244f67b709f466f82435c760c01b614d92565b61246367f79ff5e5336fcc9360c01b614d92565b82609a81905550612484565b612483677acdb7b0ea1c15f560c01b614d92565b5b61249867d550b6b483f09c4d60c01b614d92565b6124ac67f977a642efbcca8560c01b614d92565b6124b461444d565b73ffffffffffffffffffffffffffffffffffffffff167fbc3dc0cb5c15c51c81316450d44048838bb478b9809447d01c766a06f3e9f2c88684846040516124fd93929190618e7d565b60405180910390a25050505050565b61252067cb0a30473c7e352c60c01b614457565b6006612536679518940a0cfd943560c01b614436565b61254a679dcf3f2c0c5f56b760c01b614436565b61255e671276f9dee1c7d47c60c01b614436565b61256781614d9f565b61257b67eee903ff1bddd2a860c01b614436565b61258f67e981c772333fefd560c01b614457565b6125a3673f1403e2b74a506a60c01b614457565b7f97667070c54ef182b0f5858b034beac1b6f3089aa2d3188bb1e8929f4fa9b9296125cd81614439565b6125e167616bbe45fb79b74b60c01b614457565b6125f567fc7bea3baee268fd60c01b614457565b61260967f8896d8a06e994f260c01b614457565b61261d6770d847926090c8f460c01b614457565b5f86869050036126815761263b672069e58651dc9cb460c01b614457565b61264f67beda46f521a07c0c60c01b614457565b6040517f7907d79b00000000000000000000000000000000000000000000000000000000815260040160405180910390fd5b612695679892adefe645847760c01b614457565b6126a9671a8d50532bf816e560c01b614457565b6126bd67a29cbdad3a73c38460c01b614457565b5f6101195490506126d86775c05414e8cc181a60c01b614457565b6126ec672a0d01145f6a654960c01b614457565b835f013561011a5f8381526020019081526020015f2054146127625761271c67585c457daf94c12460c01b614457565b61273067c650472ea3a82ced60c01b614457565b6040517fead4c30e00000000000000000000000000000000000000000000000000000000815260040160405180910390fd5b612776670df458203b1eb85960c01b614457565b61278a673025c0fd2c07fa2a60c01b614457565b61279e673c9c3e7a11d749c160c01b614457565b5f6101bd5490506127b967788646e489cea06960c01b614457565b6127cd673a3cc5ca4f3cb3db60c01b614457565b5f6127d88684614f66565b90506127ee67a7534aaca4be582960c01b614457565b61280267c0574fe2f364d3d760c01b614457565b5f61280f8784848761552b565b905061282567424a9a9b52c98ac560c01b614457565b612839673ab3e7a3f919cc7a60c01b614457565b61284581898c8c6155e3565b50505050505050505050565b60995481565b600181565b60a6602052805f5260405f205f915090505481565b6201518081565b610150602052805f5260405f205f915090505481565b7fe37c272ea30e2bb381ad7cf89ae754b49153250609f36d0cbdad8b64c184bb5c81565b6128c667e5e079c8b2fe785960c01b615adb565b6128da6743355bdd332facdf60c01b615ade565b6128ee675b72f59b84e4e00760c01b615ade565b61290267a5b47518521e02e660c01b615ade565b60015f5c036129655761291f67153c6f40d945d7e260c01b615ade565b61293367cf66eed3d3b0228860c01b615ade565b6040517f37ed32e800000000000000000000000000000000000000000000000000000000815260040160405180910390fd5b61297967d6465fb8f3f1663860c01b615ade565b61298d671d3836165040949460c01b615ade565b60015f81905d506129a867d3b6c7bebcedb6be60c01b615ade565b6129bc67f877018eb63dec8c60c01b615adb565b6129d0679c7cb3ca3a499c0260c01b615adb565b8060a001358160800160208101906129e89190618eb2565b828061012001906129f99190618ee9565b8460e0016020810190612a0c9190618f86565b612a2067fb486b6531e843e760c01b615ae1565b612a346794251fd5e898413960c01b615ae1565b612a4867bbc0ae0c6b3b2b6460c01b615ae1565b5f5a9050612a6067edbed2deac41651360c01b615ae1565b612a74671ab9fd421deb704860c01b615adb565b612a8867bd89af07d5abfe2960c01b615adb565b612a9c67874e2e9de15ae02760c01b615adb565b612ab0672e71b9a336510faa60c01b615adb565b612ab987615ae4565b612acd6706202e83fe19a9e660c01b615ae1565b612ae16776bc535324faf44760c01b615ae1565b5f861115612ee957612afd67b05d23c23b07980160c01b615ae1565b612b116762ad89b4765c319a60c01b615ae1565b612b2567a48689f904e1129760c01b615ae1565b5f869050612b3d67d93278289b4e79fa60c01b615ae1565b612b5167712d1207a14b684160c01b615ae1565b5f8585905003612d2a57612b6f67b7b9bbe00dd40cf060c01b615ae1565b612b83670f472a874aa1ead260c01b615ae1565b612b97674383aba67a4d586460c01b615ae1565b5f612bac670661a1555c134f4360c01b615ae1565b863b159050612bc5672c628f414dc7035260c01b615ae1565b612bd967940ea2314ba6443c60c01b615ae1565b8015612d0f57612bf367bc0979dc2f0ad3e360c01b615ae1565b612c07671c422775442e562e60c01b615ae1565b3a5a61bc7c85612c179190618e4a565b612c219190618d37565b612c2b9190618fb1565b9150612c416703c2abfdc94b909260c01b615ae1565b612c5567ba29d62444da56d360c01b615ae1565b81881115612cde57612c7167e34385115a9d526c60c01b615ae1565b612c8567b7efbaf40ec5186160c01b615ae1565b612c99673e4d018e91faa36660c01b615ae1565b8673ffffffffffffffffffffffffffffffffffffffff166108fc838a612cbf9190618d37565b90811502906040515f60405180830381858888f1935050505050612d0a565b612cf2670cd48d3754c5b5cb60c01b615ae1565b612d06672e851b55f100cc5160c01b615ae1565b8791505b612d24565b612d23675978259f7d11582960c01b615ae1565b5b50612d3f565b612d3e6717ae208deb6beea660c01b615ae1565b5b612d53674168cb71ffa21dbe60c01b615ae1565b612d67670145c8484a04af7660c01b615ae1565b5f5f73ffffffffffffffffffffffffffffffffffffffff168473ffffffffffffffffffffffffffffffffffffffff161480612db25750612db167f9bf722ce75417e960c01b61618f565b5b8015612dce5750612dcd67e164ffacd3af020260c01b616198565b5b612dd85783612dda565b335b9050612df0673f1ca6e2ae94fa8a60c01b615ae1565b612e04675e62d17b67f975f560c01b615ae1565b5f8173ffffffffffffffffffffffffffffffffffffffff166108fc8490811502906040515f60405180830381858888f193505050509050612e4f6787ece1422a3b12da60c01b615ae1565b612e63670d15968a93de545b60c01b615ae1565b80612ecd57612e7c67162e6c10947e7f5860c01b615ae1565b612e906794636b2c413583d560c01b615ae1565b816040517fa57c4df4000000000000000000000000000000000000000000000000000000008152600401612ec49190618b16565b60405180910390fd5b612ee16788be971c2580bb8a60c01b615ae1565b505050612efe565b612efd67d3cf0445bc34879f60c01b615ae1565b5b505050505050612f186703e1ea1c51aba8ad60c01b615ade565b5f5f81905d5050565b5f612f36679037a4cf6df0426d60c01b615adb565b612f4a67e87cac4f42b19e8c60c01b615adb565b60015f905c906101000a900473ffffffffffffffffffffffffffffffffffffffff16905090565b6101195481565b7fd8b4c34c2ec1f3194471108c64ad2beda340c0337ee4ca35592f9ef270f4228b81565b7f32937fd5162e282df7e9a14a5073a2425321c7966eaf70ed6c838a1006d84c4c81565b600281565b5f81565b61011a602052805f5260405f205f915090505481565b7fe1fce82838dd7a42cfe783f60dc6233c8aa2c4fc66e77817805e767ec5e349b681565b61014e602052805f5260405f205f915090505481565b5f60655f8481526020019081526020015f205f015f8373ffffffffffffffffffffffffffffffffffffffff1673ffffffffffffffffffffffffffffffffffffffff1681526020019081526020015f205f9054906101000a900460ff16905092915050565b6101bf5481565b60dd5481565b61309e67ddb9c0c91fcb6dcc60c01b614436565b806130b367d28fdf33329c95c460c01b614436565b6130c76722a98242dcaa598960c01b614436565b6130db6791fa044a0b96068760c01b614436565b5f60098111156130ee576130ed618c7e565b5b81600981111561310157613100618c7e565b5b036131605761311a67e8768214a139ed0360c01b614436565b61312e67df5c42b926b08aad60c01b614436565b6040517f85994c7700000000000000000000000000000000000000000000000000000000815260040160405180910390fd5b61317467c613dcf60d46b1a460c01b614436565b613188678066bbe8147485f160c01b614436565b61319c67442de7884874674d60c01b614436565b6131b0678478aae5b7e2defa60c01b614436565b6131c4677e013337946960e660c01b614436565b6131d8671910981dbfd5767860c01b614436565b6131e1826136b0565b61324a576131f9676246259bb685347f60c01b614436565b61320d67fad122cf4d0829f660c01b614436565b816040517f186596540000000000000000000000000000000000000000000000000000000081526004016132419190618cf1565b60405180910390fd5b61325e670d91677a9b17dba660c01b614436565b61327267196c2c74d898881a60c01b614436565b613286672edc9c7d9a1456ca60c01b614436565b60dd544210156132f7576132a4677c3cd190d2329f5e60c01b614436565b6132b867d4a4b0732c94a2a360c01b614436565b60dd546040517fcfd8aa6f0000000000000000000000000000000000000000000000000000000081526004016132ee91906186ae565b60405180910390fd5b61330b67d35fa73fc79bd51c60c01b614436565b61331f675c39e96b4ce0bebc60c01b614436565b81600981111561333257613331618c7e565b5b6001901b1960da5f828254169250508190555061335967f6facbaa928c667060c01b614436565b61336d67faded40a3cf05eb860c01b614436565b7f3ddaeb19197ed3b5334f4c1cd5716f663d0f6dce30c52800bd1674da0b88e87a8260405161339c9190618cf1565b60405180910390a15050565b5f81565b7f56bdc3c9ec86cb7db110a7699b2ade72f0b8819727d9f7d906b012641505fa7781565b5f6133e567e1614ac5c5cc2ff760c01b6161a2565b6133f9679c27a45b428135fb60c01b6161a2565b61340e8261014f6161a590919063ffffffff16565b9050919050565b6134296713e5bb92cdf9509160c01b615adb565b600261343f679518940a0cfd943560c01b614436565b613453679dcf3f2c0c5f56b760c01b614436565b613467671276f9dee1c7d47c60c01b614436565b61347081614d9f565b61348467eee903ff1bddd2a860c01b614436565b61349867c5e214335bbd330860c01b615adb565b6134ac67ea9cb9a9a4e6917960c01b615adb565b6134c067b7faf4ac9267aebb60c01b615adb565b6134d4671f3f3bc8ca1e934460c01b615adb565b6134e0858585856161db565b5050505050565b5f5f1b81565b61011b602052805f5260405f205f915054906101000a900473ffffffffffffffffffffffffffffffffffffffff1681565b60985481565b613538675a59a8d09a9dc48f60c01b614d92565b7f0cf0d2deb70d7bdac2fa48c4ac99bc558170be0ce5fcb994caefa4bf7b96edf961356281614439565b61357667fa997fe8ce09957b60c01b614d92565b61358a6755bda953cee869fe60c01b614d92565b61359e6742c13a3ec9822f1960c01b614d92565b5f609a819055506135b967336d74d7cd49f1af60c01b614d92565b6135cd676f99dde31d8ac07960c01b614d92565b6135d561444d565b73ffffffffffffffffffffffffffffffffffffffff167fba88c025b0cbb77022c0c487beef24f759f1e4be2f51a205bc427cee19c2eaa660405160405180910390a250565b7fe4831f9e4316ac2c65117d1f602fbf56d38128a9973d5e3fdbc5b77265c18d4081565b60e45481565b7f430a7f0cb00b5ebbe63cecc96e82cf959a883e7c13a95110854f1fa6b3fbf59881565b7f1453a531db80c85f2d944d498709d84959bc5bf839eefe9acb784571e5a3211881565b7f92345e7fb9ee041c2ac61447de3632c2b9f5cc7a34a794315d6ff267b6a59f6a81565b5f6136c56742eeb052adb1336460c01b614436565b6136d9678df5b2e9af1b350260c01b614436565b5f8260098111156136ed576136ec618c7e565b5b6001901b60da541614159050919050565b61371267a3bd3961f688bed360c01b614457565b613726677536dfe13d49b4a760c01b614457565b61373a67cbcf8dda4b06c14460c01b614457565b62f099c0816137499190618e4a565b4210156137aa5761376467bcb4730a308be52960c01b614457565b613778676dc3170b73d16e6660c01b614457565b6040517f4306cbb100000000000000000000000000000000000000000000000000000000815260040160405180910390fd5b6137be67ac271e66b31c7d6260c01b614457565b6137d26719013f713f750d2d60c01b614457565b6137e6677b0b26f0815f230760c01b614457565b6137f18383836164d9565b6101bf541461386e5761380e6713846274e184b67760c01b614457565b613822679c45b46f7a498fb060c01b614457565b6101bf546138318484846164d9565b6040517fbc5aad11000000000000000000000000000000000000000000000000000000008152600401613865929190618ff2565b60405180910390fd5b61388267ddbb38c3c7c975f360c01b614457565b61389667d76f4727261c3fb960c01b614457565b6138aa67059d12f84b8666f360c01b614457565b5f6101c05f9054906101000a900473ffffffffffffffffffffffffffffffffffffffff1690506138e4672d5b1088c4d0e51d60c01b614457565b6138f8679a33c4787554b2ef60c01b614457565b6139227f97667070c54ef182b0f5858b034beac1b6f3089aa2d3188bb1e8929f4fa9b9298261445a565b613936671852def028d8d54b60c01b614457565b61394a67bd5bbe40b253fe7560c01b614457565b8073ffffffffffffffffffffffffffffffffffffffff163373ffffffffffffffffffffffffffffffffffffffff167f9fc8868f8577b31b805ee65bb52325782b5e2708dbdb7f04c7467c6785fccb3060405160405180910390a350505050565b7f1185e52d62bfbbea270e57d3d09733d221b53ab7a18bae82bb3c6c74bab16d8281565b609a5481565b60975481565b6139ee67351bc138be5a3f8460c01b614457565b7f32937fd5162e282df7e9a14a5073a2425321c7966eaf70ed6c838a1006d84c4c613a1881614439565b613a2c672c32f43ef3d4c52860c01b614457565b613a4067952dc34d4f838faa60c01b614457565b613a5467a7f2fda1efe58d9460c01b614457565b613a6867e1e88ed1fb161a7960c01b614457565b5f73ffffffffffffffffffffffffffffffffffffffff168373ffffffffffffffffffffffffffffffffffffffff1603613af557613aaf670bc29b2bc0b82b5660c01b614457565b613ac3670c650deb793e641f60c01b614457565b6040517f8579befe00000000000000000000000000000000000000000000000000000000815260040160405180910390fd5b613b0967eeb583f6f180093360c01b614457565b613b1d67970e17c98943fc4f60c01b614457565b613b3167df9a1070310c069860c01b614457565b3373ffffffffffffffffffffffffffffffffffffffff16828473ffffffffffffffffffffffffffffffffffffffff167f4a29db3fc6b42bda201e4b4d69ce8d575eeeba5f153509c0d0a342af0f1bd02161011b5f8781526020019081526020015f205f9054906101000a900473ffffffffffffffffffffffffffffffffffffffff16604051613bc09190618b16565b60405180910390a4613bdc6725832bf941f3357b60c01b614457565b8261011b5f8481526020019081526020015f205f6101000a81548173ffffffffffffffffffffffffffffffffffffffff021916908373ffffffffffffffffffffffffffffffffffffffff160217905550505050565b7fe8cb6172fcf5cbaae022b7c910224a4f0c20d53227e630056efff182155a5abc81565b6101bd5481565b6101c05f9054906101000a900473ffffffffffffffffffffffffffffffffffffffff1681565b613c8b82611551565b613c9481614439565b613c9e8383616522565b505050565b7f6b5661ddfbd1fbd525c902a513e0f47d9c74f1c1ee8a2d4f1937ad305fb8f41a81565b613cdb676aa040586fb489c660c01b614436565b80613cf067d28fdf33329c95c460c01b614436565b613d046722a98242dcaa598960c01b614436565b613d186791fa044a0b96068760c01b614436565b5f6009811115613d2b57613d2a618c7e565b5b816009811115613d3e57613d3d618c7e565b5b03613d9d57613d5767e8768214a139ed0360c01b614436565b613d6b67df5c42b926b08aad60c01b614436565b6040517f85994c7700000000000000000000000000000000000000000000000000000000815260040160405180910390fd5b613db167c613dcf60d46b1a460c01b614436565b613dc5678066bbe8147485f160c01b614436565b613dd967de347c6d8285b61560c01b614436565b613ded673d757300fe85132a60c01b614436565b60db5f836009811115613e0357613e02618c7e565b5b6009811115613e1557613e14618c7e565b5b81526020019081526020015f2054613e2c81614439565b613e4067ec18f49f5ad6340960c01b614436565b613e546707a940a45e61f5a860c01b614436565b613e6867d665bc21973c765960c01b614436565b613e7c6743f77e5127580d1460c01b614436565b613e85836136b0565b15613eef57613e9e6780c8e5fec5bd25de60c01b614436565b613eb2675b128c135b00acf060c01b614436565b826040517fc0a71b58000000000000000000000000000000000000000000000000000000008152600401613ee69190618cf1565b60405180910390fd5b613f036713bf2f74e90af2da60c01b614436565b613f176758e9158ca2701cf960c01b614436565b613f2b67e47d14ee8ffa652760c01b614436565b613f3f67e2941fd57a04093360c01b614436565b613f707f1453a531db80c85f2d944d498709d84959bc5bf839eefe9acb784571e5a32118613f6b61444d565b613019565b15613fce57613f8967c1aca4a9b44d7ab160c01b614436565b613f9d673c3bba761477cad760c01b614436565b620151807fffffffffffffffffffffffffffffffffffffffffffffffffffffffffffffffff0360dd819055506140ba565b613fe267539b0fb66b7b71ee60c01b614436565b613ff6672d64fd0fb969aa1760c01b614436565b61400a67bd4dcd77b0bdb0f060c01b614436565b6201518060dd54014210156140855761402d67c89c3a0ce9215b8f60c01b614436565b61404167d9ae19055487be9360c01b614436565b6201518060dd54016040517fc04205ee00000000000000000000000000000000000000000000000000000000815260040161407c91906186ae565b60405180910390fd5b614099676bc6293d39e3811560c01b614436565b6140ad6758a7cb0e886f151960c01b614436565b6203f480420160dd819055505b6140ce67238be33746b82a7260c01b614436565b8260098111156140e1576140e0618c7e565b5b6001901b60da5f8282541792505081905550614107672eb90c00278e0db660c01b614436565b61411b672e61f5099a83ed0860c01b614436565b82600981111561412e5761412d618c7e565b5b7f534f879afd40abb4e39f8e1b77a316be4c8e3521d9cf5a3a3db8959d574d455961415761444d565b6040516141649190618b16565b60405180910390a2505050565b6141856754fe082e5580209960c01b6165fd565b600961419b679518940a0cfd943560c01b614436565b6141af679dcf3f2c0c5f56b760c01b614436565b6141c3671276f9dee1c7d47c60c01b614436565b6141cc81614d9f565b6141e067eee903ff1bddd2a860c01b614436565b6141f467ec5a6c3e0d615b8360c01b6165fd565b61420867221f8d0174a9a3d560c01b6165fd565b7f97667070c54ef182b0f5858b034beac1b6f3089aa2d3188bb1e8929f4fa9b92961423281614439565b614246675172938572dcaf8760c01b6165fd565b61425a6710655f9fc2b0c38660c01b6165fd565b61426e67c60ded4d3d56e6ef60c01b6165fd565b61428267feef1838b4b66e7d60c01b6165fd565b61429566bc65f2c3186ade60c01b6165fd565b5f5f1b84036142d0576040517f87fb99b300000000000000000000000000000000000000000000000000000000815260040160405180910390fd5b6142e467992b56a20f93d38060c01b6165fd565b6142f867684a5ea74fc9744f60c01b6165fd565b61430c67114ccab439d5870060c01b6165fd565b61432067fb0d3901ddcc66dd60c01b6165fd565b5f5f1b830361435b576040517ff9069dd800000000000000000000000000000000000000000000000000000000815260040160405180910390fd5b61436f676168fe9103481a4860c01b6165fd565b614383673d15e8866f081a8660c01b6165fd565b614397677df418aa93054cf360c01b6165fd565b6143a2858585616600565b5050505050565b7f97667070c54ef182b0f5858b034beac1b6f3089aa2d3188bb1e8929f4fa9b92981565b5f7f01ffc9a7000000000000000000000000000000000000000000000000000000007bffffffffffffffffffffffffffffffffffffffffffffffffffffffff1916827bffffffffffffffffffffffffffffffffffffffffffffffffffffffff1916149050919050565b50565b61444a8161444561444d565b6167f8565b50565b5f33905090565b50565b50565b6144648282613019565b61453157600160655f8481526020019081526020015f205f015f8373ffffffffffffffffffffffffffffffffffffffff1673ffffffffffffffffffffffffffffffffffffffff1681526020019081526020015f205f6101000a81548160ff0219169083151502179055506144d661444d565b73ffffffffffffffffffffffffffffffffffffffff168173ffffffffffffffffffffffffffffffffffffffff16837f2f8788117e7eff1d82e926ec794901d17c78024a50270940304540a733656f0d60405160405180910390a45b5050565b61453d61444d565b73ffffffffffffffffffffffffffffffffffffffff168173ffffffffffffffffffffffffffffffffffffffff16146145aa576040517f08c379a00000000000000000000000000000000000000000000000000000000081526004016145a190619089565b60405180910390fd5b6145b48282616522565b5050565b50565b5f5f8273ffffffffffffffffffffffffffffffffffffffff163b119050919050565b5f6145f267a0895fd11c6b79a060c01b614457565b61460667ac0058b7835265c160c01b614457565b60405186815285602082015284604082015283606082015282608082015260a0812091505095945050505050565b614648673d726a9c15b7d91f60c01b614457565b61465c67e6b10243d95305af60c01b614457565b614670672e392b61e14a30ce60c01b614457565b5f73ffffffffffffffffffffffffffffffffffffffff1682606001602081019061469a9190618eb2565b73ffffffffffffffffffffffffffffffffffffffff160361470f576146c9674f4927f448a4dd9a60c01b614457565b6146dd67268e83497b4cd10960c01b614457565b6040517f8579befe00000000000000000000000000000000000000000000000000000000815260040160405180910390fd5b61472367052bddbcbdab2ed360c01b614457565b61473767d043916901b70e0460c01b614457565b61474b67964496b474e3633e60c01b614457565b614774828060e0019061475e91906190a7565b8480610100019061476f91906190a7565b61687c565b614788675457499569d4ee9960c01b614457565b61479c6734fd2dc09a3930f460c01b614457565b6147ae82608001358360a00135616c12565b6147c267a1f79a5ba3ecf0e660c01b614457565b6147d667f72cc518d1b8590360c01b614457565b5f73ffffffffffffffffffffffffffffffffffffffff16826101400160208101906148019190618eb2565b73ffffffffffffffffffffffffffffffffffffffff160361487657614830678457f90c82c2041b60c01b614457565b61484467282f220fe14777b360c01b614457565b6040517f8579befe00000000000000000000000000000000000000000000000000000000815260040160405180910390fd5b61488a6723241ccc14b35a0c60c01b614457565b61489e67520050dfd00d8dc460c01b614457565b6148b267e8eb0805cc9e332760c01b614457565b6148d15f5f1b836101400160208101906148cc9190618eb2565b61445a565b6148e5670aa50d3d114aa06960c01b614457565b6148f9679c1177d16aa27d2760c01b614457565b614911828060c0019061490c9190619109565b616d7e565b61492567dc12c3d5ebe4bcc260c01b614457565b8160600160208101906149389190618eb2565b61011b5f5f81526020019081526020015f205f6101000a81548173ffffffffffffffffffffffffffffffffffffffff021916908373ffffffffffffffffffffffffffffffffffffffff16021790555061499b6762104e965120b83360c01b614457565b6149af67fc7a25dddcab493460c01b614457565b5f73ffffffffffffffffffffffffffffffffffffffff16826101200160208101906149da9190618eb2565b73ffffffffffffffffffffffffffffffffffffffff1603614a4f57614a0967fc69cf210ea39f1860c01b614457565b614a1d6720aedf27b06d2a1960c01b614457565b6040517f8579befe00000000000000000000000000000000000000000000000000000000815260040160405180910390fd5b614a63676d37726a1050a7fb60c01b614457565b614a776761d8abaae7b1ac8460c01b614457565b81610120016020810190614a8b9190618eb2565b6101c05f6101000a81548173ffffffffffffffffffffffffffffffffffffffff021916908373ffffffffffffffffffffffffffffffffffffffff160217905550614adf6724caee2e207fdc8f60c01b614457565b614af367b26021c14ddcdaa660c01b614457565b81610120016020810190614b079190618eb2565b73ffffffffffffffffffffffffffffffffffffffff163373ffffffffffffffffffffffffffffffffffffffff167f1f82add12d98b5eaed4d6a6d5f74cfc7a85e5c90c335ab5562f77f220ed45d5f60405160405180910390a3614b74670541eea4d5a379eb60c01b614457565b816020013561011981905550614b9467ca303211715b5d7060c01b614457565b815f013561011a5f846020013581526020019081526020015f2081905550614bc667d20df2f8777377fe60c01b614457565b806101bd81905550614be2671e16ded3cf88df7060c01b614457565b614bf35f5f5f1b84604001356164d9565b6101bf81905550614c0e679df4cdcbc096013f60c01b614457565b614c2267d4729006fa751b0560c01b614457565b5f82610160016020810190614c379190618eb2565b9050614c4d678cdaccfb92105acc60c01b614457565b614c6167bcc168b5305c49a560c01b614457565b5f73ffffffffffffffffffffffffffffffffffffffff168173ffffffffffffffffffffffffffffffffffffffff1603614cc457614ca867845ae0a0ca0a295e60c01b614457565b614cbc679eb8380f8da3c10060c01b614457565b309050614cd9565b614cd8678961b1818be006d560c01b614457565b5b614ced677e2f2be3317f9d0e60c01b614457565b806101c15f6101000a81548173ffffffffffffffffffffffffffffffffffffffff021916908373ffffffffffffffffffffffffffffffffffffffff160217905550614d42679a1285f79571e57e60c01b614457565b614d566709ec2a287e66bcf760c01b614457565b7fd5bc165d485587932caa8e786325f0a3b363fc25edc7df17c5590ef892c17df083604051614d859190619600565b60405180910390a1505050565b50565b5f60019050919050565b614db266776943b0de53ce60c01b614436565b614dc66710634f2d26cb055060c01b614436565b614dda670b1c8e86a696eeae60c01b614436565b5f60da549050614df467792b0d8687a51c0b60c01b614436565b614e0867f04fc05a1ef764fc60c01b614436565b5f826009811115614e1c57614e1b618c7e565b5b6001901b821614614e8c57614e3b67b0e9af8b0595e92360c01b614436565b614e4f67e0059f0b182847c860c01b614436565b816040517fc0a71b58000000000000000000000000000000000000000000000000000000008152600401614e839190618cf1565b60405180910390fd5b614ea0677e8de0b307eae8e460c01b614436565b614eb467b68d7d5e02ba7d6760c01b614436565b614ec867cbc865542cc4b70660c01b614436565b5f60016009811115614edd57614edc618c7e565b5b6001901b821614614f4e57614efc67494b15b4a20f251360c01b614436565b614f1067f85c9fbc97e8a40160c01b614436565b60016040517fc0a71b58000000000000000000000000000000000000000000000000000000008152600401614f459190618cf1565b60405180910390fd5b614f6267ab956cbd43c962d460c01b614436565b5050565b5f614f7b67d8105eb9516d25cb60c01b614457565b614f8f6712f57faa841029d160c01b614457565b614fa36780fea4646d0c2bf760c01b614457565b614fb7836101800135846101400135617073565b614fcb6736f696efc5099e6160c01b614457565b614fdf67f272e91ac3c7651c60c01b614457565b6101bf54614ffc8461016001358561012001358660e001356164d9565b146150835761501567213d6588488bac3260c01b614457565b61502967620774aba2c68b3c60c01b614457565b6150428361016001358461012001358560e001356164d9565b6101bf546040517fbc5aad1100000000000000000000000000000000000000000000000000000000815260040161507a929190618ff2565b60405180910390fd5b615097672b138846a092fa5a60c01b614457565b6150ab67b05aad7e2bbf88ae60c01b614457565b6150bf67f00ffcd0da6f8fb860c01b614457565b4283610100013510615137576150df675c8a6d3e4add1fd860c01b614457565b6150f3679f30a3f436b7be9660c01b614457565b826101000135426040517fbf81c6e000000000000000000000000000000000000000000000000000000000815260040161512e929190619620565b60405180910390fd5b61514b677476ae49ea77ac4660c01b614457565b61515f679c05d1e46516b1d560c01b614457565b61517367b8d9488b14ec86b360c01b614457565b5f5f1b8360400160400135036151dd57615197674714b2734107425a60c01b614457565b6151ab67512defb9548275c660c01b614457565b6040517f2898482a00000000000000000000000000000000000000000000000000000000815260040160405180910390fd5b6151f167710bafb4c78c1bff60c01b614457565b61520567df343f5e0098614560c01b614457565b615234836040015f013584604001602001358560400160400135866040016060013587604001608001356145dd565b905061524a67b2a9e633ab30aa5760c01b614457565b61525e67c4af1f2923fa869e60c01b614457565b5f6101c15f9054906101000a900473ffffffffffffffffffffffffffffffffffffffff1673ffffffffffffffffffffffffffffffffffffffff16632130d812836040518263ffffffff1660e01b81526004016152ba91906185da565b602060405180830381865afa1580156152d5573d5f5f3e3d5ffd5b505050506040513d601f19601f820116820180604052508101906152f9919061965b565b036153635761531267540e2b79db5bfe5660c01b614457565b615326674f91720febc406fc60c01b614457565b806040517fedeae83c00000000000000000000000000000000000000000000000000000000815260040161535a91906185da565b60405180910390fd5b615377671444a6979e5af50b60c01b614457565b61538b67914add51a4258b2360c01b614457565b61539f673ecb3ae45e43dc1e60c01b614457565b6153be83806101c001906153b39190619686565b856101a001356172f8565b6153d2675e795cd1d258a39660c01b614457565b6153e667f7654a372d58d79b60c01b614457565b61540083806101e001906153fa9190618ee9565b846174f1565b61541467554c08ff0cce500360c01b614457565b826040016040013561011a5f856020013581526020019081526020015f208190555061544a6749c3cb3e8fbd8f8f60c01b614457565b82602001356101198190555061546a67183a6243bdcfcecc60c01b614457565b806101bd8190555061548667f937c20cc47a5e6660c01b614457565b6154a08361018001358461014001358561010001356164d9565b6101bf819055506154bb67a522a8f71a4f8d6260c01b614457565b6154cf676f7c59fdf97b7e0960c01b614457565b808360200135836154df906196e8565b9350837fa0262dc79e4ccb71ceac8574ae906311ae338aa4a2044fd4ec4b99fad5ab60cb865f0135876040016040013560405161551d929190618ff2565b60405180910390a492915050565b5f61554067bbb56a1d64d1dc7b60c01b614457565b615554679e22025edc709bc760c01b614457565b604051848152836020820152604060e087016040830137826080820152602080870160a083013760a0610120870160c083013761018081016101c08701358701803560208102602083018437602081028320806101608601527f30644e72e131a029b85045b68181585d2833e84879b9709143e1f593f000000161018086200695505050505050949350505050565b6155f767f7d829f0885b6f3960c01b6176cb565b61560b67e61f6fb6497b7d9b60c01b6176cb565b61561f675650be0ba72bb65360c01b6176cb565b5f600167ffffffffffffffff81111561563b5761563a61972f565b5b6040519080825280602002602001820160405280156156695781602001602082028036833780820191505090505b50905061568067148637be7ad9c8f760c01b6176cb565b84815f815181106156945761569361975c565b5b6020026020010181815250506156b46766bfc79001c16fbd60c01b6176cb565b6156c86756643119cc46cf1460c01b6176cb565b5f61011b5f8681526020019081526020015f205f9054906101000a900473ffffffffffffffffffffffffffffffffffffffff16905061571167d093fdee1d24396e60c01b6176cb565b615725670fb78b7c27b02e2160c01b6176cb565b5f73ffffffffffffffffffffffffffffffffffffffff168173ffffffffffffffffffffffffffffffffffffffff16036157b25761576c672b9fb649d31803f360c01b6176cb565b6157806773652bda0419d5d860c01b6176cb565b6040517f69ed70ab00000000000000000000000000000000000000000000000000000000815260040160405180910390fd5b6157c667bc1cfa279d5b9ac860c01b6176cb565b6157da67dca5d9623ece701f60c01b6176cb565b6157ee67b6254ebe87bc8a2760c01b6176cb565b5f5f8273ffffffffffffffffffffffffffffffffffffffff1686868660405160240161581c9392919061987b565b604051602081830303815290604052637e4f7a8a60e01b6020820180517bffffffffffffffffffffffffffffffffffffffffffffffffffffffff838183161783525050505060405161586e91906198f6565b5f604051808303815f865af19150503d805f81146158a7576040519150601f19603f3d011682016040523d82523d5f602084013e6158ac565b606091505b50915091506158c567f6f85347b67d4dd060c01b6176cb565b6158d96784a962080e7fbfd560c01b6176cb565b816159e2576158f26736717948a051296e60c01b6176cb565b615906673b62f3ada72f48af60c01b6176cb565b61591a6792f699ef0bdf09ba60c01b6176cb565b5f8151111561597f57615937672bc10f400cdd8a0a60c01b6176cb565b61594b67d4addaef457c122460c01b6176cb565b602081017bffffffffffffffffffffffffffffffffffffffffffffffffffffffff81511663ca389c4460e01b178152815181fd5b6159936741d13939adb3200660c01b6176cb565b6159a7671968816bab6710b460c01b6176cb565b6040517fca389c440000000000000000000000000000000000000000000000000000000081526004016159d990619956565b60405180910390fd5b6159f6672f35d90c4f71419c60c01b6176cb565b615a0a6704cf43b75269e1d560c01b6176cb565b615a1e67145cdffbd3388fe960c01b6176cb565b5f81806020019051810190615a33919061999e565b9050615a4967eb894907aa1f688c60c01b6176cb565b615a5d6725268a51133af8d660c01b6176cb565b80615abc57615a7667864906f7f91ffbb560c01b6176cb565b615a8a676ce5ba27179a539a60c01b6176cb565b6040517f09bde33900000000000000000000000000000000000000000000000000000000815260040160405180910390fd5b615ad067f019eb792834940260c01b6176cb565b505050505050505050565b50565b50565b50565b615af8679914b1caa6e75dfc60c01b615adb565b615b0c67b04c9d03d881630560c01b615adb565b615b2067d86c3170e4628f5260c01b615adb565b615b2a6003614d9f565b615b3e675bc513fde6d77f9160c01b615adb565b615b52671b5a77c007c16dad60c01b615adb565b5f6101505f83610100013581526020019081526020015f20549050615b8167394af2163048ef2e60c01b615adb565b615b956707dba10d31301a1f60c01b615adb565b5f8103615bf657615bb067db1a4f82f02cef6b60c01b615adb565b615bc4676c80b53271c6ac5960c01b615adb565b6040517f4e68667500000000000000000000000000000000000000000000000000000000815260040160405180910390fd5b615c0a67845d8a69d7790e3660c01b615adb565b615c1e6767e51cfc2b48396a60c01b615adb565b615c3267dc83b4b80e14ef2660c01b615adb565b81805f0190615c419190619686565b90508114615cc057615c5d674804545a0631597b60c01b615adb565b615c71674ecb40d8870d63be60c01b615adb565b8082805f0190615c819190619686565b90506040517f5e3fd6ad000000000000000000000000000000000000000000000000000000008152600401615cb7929190619620565b60405180910390fd5b615cd4673e7aec7b59b6050060c01b615adb565b615ce8671915fadd66d376be60c01b615adb565b615cfc671e2ce284ac34424a60c01b615adb565b615d0982602001356176ce565b615d1d67c4771019fbabb45c60c01b615adb565b615d316768f07754f864bc6060c01b615adb565b615d4d8260c001358360a00135615d489190618e4a565b6177dc565b615d6167724bd62f15a375f860c01b615adb565b615d75674487c4c0f52aa56a60c01b615adb565b5f615dc4836060016020810190615d8c9190618eb2565b846080016020810190615d9f9190618eb2565b8560a001358660c00135876020013588806101200190615dbf9190618ee9565b6179b7565b9050615dda6718836be8eb74eec560c01b615adb565b615dee6715b79d8d8d41998960c01b615adb565b615e1f8184805f0190615e019190619686565b866040016020810190615e149190619a02565b876101000135617a3c565b615e7d57615e37670f41c3fd1f28e60f60c01b615adb565b615e4b673ecac028c10e2af760c01b615adb565b6040517fb05e92fa00000000000000000000000000000000000000000000000000000000815260040160405180910390fd5b615e9066d5aa65a4fb7d8560c01b615adb565b615ea467f8c6eef789f515bb60c01b615adb565b826060016020810190615eb79190618eb2565b60015f6101000a815c8173ffffffffffffffffffffffffffffffffffffffff021916908373ffffffffffffffffffffffffffffffffffffffff160217905d50615f0a67082aa33737b1c6e060c01b615adb565b615f1e67e4a15e4f4d71091b60c01b615adb565b5f5f846080016020810190615f339190618eb2565b73ffffffffffffffffffffffffffffffffffffffff168560c0013586806101200190615f5f9190618ee9565b604051615f6d929190619a51565b5f6040518083038185875af1925050503d805f8114615fa7576040519150601f19603f3d011682016040523d82523d5f602084013e615fac565b606091505b5091509150615fc567a9654d73dcbaef0260c01b615adb565b615fd967263875a5699a183460c01b615adb565b816160cb57615ff2671ee1835f20f0537f60c01b615adb565b61600667279508bed994f04c60c01b615adb565b61601a672e70a67646c9ffb160c01b615adb565b5f81511115616054576160376765d09f443c4fb27f60c01b615adb565b61604b67e20ef6f76d4443c660c01b615adb565b80518082602001fd5b616068673401aaa1564573bf60c01b615adb565b61607c67f3799b2ed3f6400860c01b615adb565b84608001602081019061608f9190618eb2565b6040517f546134430000000000000000000000000000000000000000000000000000000081526004016160c29190618b16565b60405180910390fd5b6160df67a34ca77ea9bdb7ea60c01b615adb565b6160f367ebf23bd475021d8c60c01b615adb565b5f60015f6101000a815c8173ffffffffffffffffffffffffffffffffffffffff021916908373ffffffffffffffffffffffffffffffffffffffff160217905d5061614767a644bd6767a4adff60c01b615adb565b61615b678bad031dc4c7287f60c01b615adb565b827fa4c827e719e911e8f19393ccdb85b5102f08f0910604d340ba38390b7ff2ab0e60405160405180910390a25050505050565b5f5f9050919050565b5f60019050919050565b50565b5f5f600883901c90505f60ff84166001901b90505f81865f015f8581526020019081526020015f20541614159250505092915050565b6161ef679926a7234c7aef5760c01b615adb565b61620367b350d833f33fccf060c01b615adb565b61621767b37b33babfe8f14d60c01b615adb565b5f73ffffffffffffffffffffffffffffffffffffffff168473ffffffffffffffffffffffffffffffffffffffff16036162a45761625e67c8e2c99eed911dae60c01b615adb565b6162726790247bb5df6ba22960c01b615adb565b6040517f8579befe00000000000000000000000000000000000000000000000000000000815260040160405180910390fd5b6162b8678fafc6475c9cff5a60c01b615adb565b6162cc67c367ec684af2715d60c01b615adb565b6162e067abf274a566b2c27860c01b615adb565b34831115616342576162fc678d09d5180440d6de60c01b615adb565b616310677b1cdbb7d64659a760c01b615adb565b6040517fb03b693200000000000000000000000000000000000000000000000000000000815260040160405180910390fd5b61635667192f12c4abd95f2360c01b615adb565b61636a67ad6dc8e82a74c4db60c01b615adb565b61637e6769dcac77d3a4da2560c01b615adb565b5f60e45f815480929190616391906196e8565b9190505590506163ab67848cf1f6c413c6ea60c01b615adb565b6163bf6741c880a5e5874b6760c01b615adb565b5f84346163cc9190618d37565b90506163e2673981204ac4052cf260c01b615adb565b6163f66735753a920e4ec29360c01b615adb565b5f61640633888885878a8a6179b7565b905061641c673a2cd501eab9b4b760c01b615adb565b61643067afe3e38fe68e923760c01b615adb565b61643a8382617cc9565b61644e6719dbc48a8053d82c60c01b615adb565b61646267cc688beeb31e315960c01b615adb565b808773ffffffffffffffffffffffffffffffffffffffff163373ffffffffffffffffffffffffffffffffffffffff167fe856c2b8bd4eb0027ce32eeaf595c21b0b6b4644b326e5b7bd80a1cf8db72e6c8986888b8b6040516164c8959493929190619a69565b60405180910390a450505050505050565b5f6164ee6797c1a5497789f35c60c01b614457565b61650267027a94cb70d3537760c01b614457565b604051848152836020820152826040820152606081209150509392505050565b61652c8282613019565b156165f9575f60655f8481526020019081526020015f205f015f8373ffffffffffffffffffffffffffffffffffffffff1673ffffffffffffffffffffffffffffffffffffffff1681526020019081526020015f205f6101000a81548160ff02191690831515021790555061659e61444d565b73ffffffffffffffffffffffffffffffffffffffff168173ffffffffffffffffffffffffffffffffffffffff16837ff6391f5c32d9c69d2a47ea670b442974b53935d1edc7fd64eb21e047a839171b60405160405180910390a45b5050565b50565b61661467ccb8be4f086700e360c01b617dc2565b616628670d72124b5fb3884360c01b617dc2565b61663c67c948e05c83f3701e60c01b617dc2565b61665067ad48f1931abede7860c01b617dc2565b5f6101be5f8581526020019081526020015f2054141583906166a8576040517fc77b964c00000000000000000000000000000000000000000000000000000000815260040161669f91906185da565b60405180910390fd5b506166bd67435523373e79005a60c01b617dc2565b6166d1679f9772c496b0002a60c01b617dc2565b6166e567c6954ba7b685578760c01b617dc2565b6166f967a52b0b2dd9f9bd9360c01b617dc2565b5f6101be5f8481526020019081526020015f2054148290616750576040517fe69adeca00000000000000000000000000000000000000000000000000000000815260040161674791906185da565b60405180910390fd5b5061676567d7d2294833f01e4a60c01b617dc2565b61677967db01e02e9ffd9e4f60c01b617dc2565b60016101be5f8481526020019081526020015f20819055506167a56737645faad87e612c60c01b617dc2565b6167b9671bb694a95228f40e60c01b617dc2565b817f55f4c645c36aa5cd3f443d6be44d7a7a5df9d2100d7139dfc69d4289ee07231984836040516167eb929190618ff2565b60405180910390a2505050565b6168028282613019565b6168785761680f81617dc5565b61681c835f1c6020617df2565b60405160200161682d929190619b83565b6040516020818303038152906040526040517f08c379a000000000000000000000000000000000000000000000000000000000815260040161686f9190618824565b60405180910390fd5b5050565b61689067b31619ec63ab376160c01b614436565b5f60019054906101000a900460ff166168de576040517f08c379a00000000000000000000000000000000000000000000000000000000081526004016168d590619c2c565b60405180910390fd5b6168f26794d34caa015d2c5860c01b614436565b61690667fbd8a56c988bbf6660c01b614436565b61691a67efaea18a8c2acf2a60c01b614436565b61692e67f761af35fdc0caf160c01b614436565b5f5b84849050811015616a885761694f6735467addd4268af860c01b614436565b8484828181106169625761696161975c565b5b9050604002016020013560db5f8787858181106169825761698161975c565b5b9050604002015f0160208101906169999190618616565b60098111156169ab576169aa618c7e565b5b60098111156169bd576169bc618c7e565b5b81526020019081526020015f20819055506169e267984e0aecff76240260c01b614436565b6169f66710fd007dbbeb427660c01b614436565b848482818110616a0957616a0861975c565b5b90506040020160200135858583818110616a2657616a2561975c565b5b9050604002015f016020810190616a3d9190618616565b6009811115616a4f57616a4e618c7e565b5b7f33aa8fd1ce49e1761bc8d27fd53414bfefc45d690feed0ce55019d7d3aec609160405160405180910390a38080600101915050616930565b50616a9d6713ae5e3d107c0b3860c01b614436565b616ab167165db007a796173a60c01b614436565b5f5b82829050811015616c0b57616ad267653d6c0d9b26ca3a60c01b614436565b828282818110616ae557616ae461975c565b5b9050604002016020013560dc5f858585818110616b0557616b0461975c565b5b9050604002015f016020810190616b1c9190618616565b6009811115616b2e57616b2d618c7e565b5b6009811115616b4057616b3f618c7e565b5b81526020019081526020015f2081905550616b65672594556d904dffa060c01b614436565b616b7967847adb9004e8f61560c01b614436565b828282818110616b8c57616b8b61975c565b5b90506040020160200135838383818110616ba957616ba861975c565b5b9050604002015f016020810190616bc09190618616565b6009811115616bd257616bd1618c7e565b5b7fe7bf4b8dc0c17a52dc9e52323a3ab61cb2079db35f969125b1f8a3d984c6f6c260405160405180910390a38080600101915050616ab3565b5050505050565b616c266701d5ee0f976970c160c01b615adb565b5f60019054906101000a900460ff16616c74576040517f08c379a0000000000000000000000000000000000000000000000000000000008152600401616c6b90619c2c565b60405180910390fd5b616c88673b26b90cce70658a60c01b615adb565b616c9c67cafb40d3b473a3e460c01b615adb565b616cb067a49f7c145c97103e60c01b615adb565b616cc4671947ef29ea421d9660c01b615adb565b616ccc618027565b616ce0678eada350bbf091b560c01b615adb565b616cf467fcee18f54c8e635560c01b615adb565b616cfc618077565b616d1067c645fd1342d5adae60c01b615adb565b616d2467613fbbf65a38df6c60c01b615adb565b616d2c6180c7565b616d40675947ec1e410b350e60c01b615adb565b616d54679e56b29c38d4c56a60c01b615adb565b616d5e8282618117565b616d7267908b1abe037031b560c01b615adb565b600160e4819055505050565b616d92673310804418d378ec60c01b6183a4565b5f60019054906101000a900460ff16616de0576040517f08c379a0000000000000000000000000000000000000000000000000000000008152600401616dd790619c2c565b60405180910390fd5b616df4674140535fb91d680160c01b6183a4565b616e0867f09266a9b401ad0f60c01b6183a4565b616e1c6703d9f5c3826b4cec60c01b6183a4565b616e3067a17a9a2761b0ba0060c01b6183a4565b5f5b8282905081101561706e57616e5167bbab5bff7b7920db60c01b6183a4565b616e656714e2c1208986a72060c01b6183a4565b5f73ffffffffffffffffffffffffffffffffffffffff16838383818110616e8f57616e8e61975c565b5b9050604002015f016020810190616ea69190618eb2565b73ffffffffffffffffffffffffffffffffffffffff1603616f1b57616ed5673a48b954e2cf252660c01b6183a4565b616ee9676cdd0718c74d571c60c01b6183a4565b6040517f8579befe00000000000000000000000000000000000000000000000000000000815260040160405180910390fd5b616f2f6789bdad680403b3e760c01b6183a4565b616f43672a44e540da2f84c960c01b6183a4565b616f5767108a5ca196cadeaf60c01b6183a4565b5f5f1b838383818110616f6d57616f6c61975c565b5b9050604002016020013503616fd657616f90677f1bc4a8d6fbb91660c01b6183a4565b616fa4671c57e2477645450160c01b6183a4565b6040517f0742d05300000000000000000000000000000000000000000000000000000000815260040160405180910390fd5b616fea677f8ba1ecd76d0c7e60c01b6183a4565b616ffe67acbf53087a8994e160c01b6183a4565b617012679d0cf1c2f42853c360c01b6183a4565b6170618383838181106170285761702761975c565b5b905060400201602001358484848181106170455761704461975c565b5b9050604002015f01602081019061705c9190618eb2565b61445a565b8080600101915050616e32565b505050565b61708767e2203613a0a51bcb60c01b614457565b61709b675dc9bff9e619ab0160c01b614457565b6170af67cad14b1c36cd7d2560c01b614457565b5f8203617179576170ca674d6b7c5ee7b777f960c01b614457565b6170de6737026a55f1a5a41360c01b614457565b6170f267a55f9925fcf0218c60c01b614457565b5f5f1b81146171605761710f677cdda4c3961c33ec60c01b614457565b61712367fe876618ebb66ca960c01b614457565b806040517f0c25659200000000000000000000000000000000000000000000000000000000815260040161715791906185da565b60405180910390fd5b617174673e1214057fbef35660c01b614457565b6172f4565b61718d679420a659104f124060c01b614457565b6171a167d6643dc988bd27cc60c01b614457565b6171b567b64c1e8ddc4de42560c01b614457565b5f5f1b8103617223576171d267f2354a55211e8ad760c01b614457565b6171e6679b863d6c8fded91260c01b614457565b816040517f5228f4c800000000000000000000000000000000000000000000000000000000815260040161721a91906186ae565b60405180910390fd5b617237674ac01404df60230d60c01b614457565b61724b67429d628cfb462d7560c01b614457565b61725f676d25edef6acb920860c01b614457565b8061014e5f8481526020019081526020015f2054146172df5761728c67e3f2007a7a1b51db60c01b614457565b6172a0678fd77c8ec3bffeca60c01b614457565b81816040517f36459fa00000000000000000000000000000000000000000000000000000000081526004016172d6929190619c4a565b60405180910390fd5b6172f367a11495c0de709e6160c01b614457565b5b5050565b61730c6775e0a241e81199c660c01b6161a2565b61732067d3013bdae840807760c01b6161a2565b617334676e7d2ec31d9b989760c01b6161a2565b5f5b838390508110156174eb5761735567de2244739047e88560c01b6161a2565b617369676714b458b8f859d960c01b6161a2565b5f6101505f8686858181106173815761738061975c565b5b9050602002013581526020019081526020015f205414617419576173af673fe147280c64a82360c01b6161a2565b6173c3675eac807f190ffed660c01b6161a2565b8383828181106173d6576173d561975c565b5b905060200201356040517fe5d1442500000000000000000000000000000000000000000000000000000000815260040161741091906185da565b60405180910390fd5b61742d678296572e8e83229160c01b6161a2565b6174416754360f302b6e467e60c01b6161a2565b816101505f8686858181106174595761745861975c565b5b9050602002013581526020019081526020015f20819055506174856735556c7f7fc9269d60c01b6161a2565b61749967f5d72643f8e6143760c01b6161a2565b818484838181106174ad576174ac61975c565b5b905060200201357f300e6f978eee6a4b0bba78dd8400dc64fd5652dbfc868a2258e16d0977be222b60405160405180910390a3806001019050617336565b50505050565b61750567f162e698d9f0f82d60c01b6161a2565b61751967b0d260af035e206260c01b6161a2565b61752d6701b40fed2158f88260c01b6161a2565b5f60028484905061753e9190619c9e565b146175ab57617557671aeb6e42a4c45a3c60c01b6161a2565b61756b67cb4008655bfee1d260c01b6161a2565b828290506040517f0c91d7760000000000000000000000000000000000000000000000000000000081526004016175a291906186ae565b60405180910390fd5b6175bf673e08d29b6e75bdcf60c01b6161a2565b6175d367af5d0267a749921160c01b6161a2565b6175e7679773c3da0d3a65f060c01b6161a2565b5f6175fc67269004c5bce70b6460c01b6161a2565b617610673804c1a820d119e760c01b6161a2565b6176246716640bf3a4a79a5460c01b6161a2565b5f5b848490508110156176c457617645675bdce40488776e1960c01b6161a2565b8085013560f01c915061766267b655be2485d4b99260c01b6161a2565b617676679faee6ae95be1fdf60c01b6161a2565b8183017f3c116827db9db3a30c1a25db8b0ee4bab9d2b223560209cfd839601b621c726d60405160405180910390a26176b96772c818e2b6cbf4c360c01b6161a2565b600281019050617626565b5050505050565b50565b6176e2678d304a1cb4c2432060c01b6161a2565b6176f667edd9a0e2cb33f1c460c01b6161a2565b61770a6743a2606c24c50aa360c01b6161a2565b61771f8161014f6161a590919063ffffffff16565b1561778957617738673263ea86ecb2d30a60c01b6161a2565b61774c6742949b586cfbf52160c01b6161a2565b806040517f335a4a9000000000000000000000000000000000000000000000000000000000815260040161778091906186ae565b60405180910390fd5b61779d672a2e1b01c18f7a8d60c01b6161a2565b6177b066cde85622327fd360c01b6161a2565b6177c467fdf92f1b4ba4385660c01b6161a2565b6177d98161014f6183a790919063ffffffff16565b50565b6177f067721bed6a4734b48b60c01b614d92565b617804676abccd0eecee5a9560c01b614d92565b6178186776059acd4085aff560c01b614d92565b5f811461799f57617833673950e19d82f9a38c60c01b614d92565b617847676fc9857efae1f38b60c01b614d92565b61785b67a7db8dd1a2d2223460c01b614d92565b4260995410156178a65761787967bb9279dd6e189c0360c01b614d92565b61788d67b81f97933c56ec9f60c01b614d92565b6097544261789b9190618e4a565b6099819055506178df565b6178ba67b466a5a4a5a8e11a60c01b614d92565b6178ce6787496dbd356105ec60c01b614d92565b609a54816178dc9190618e4a565b90505b6178f367fe60ca01a70e844960c01b614d92565b6179076716a4dc4e8bef717260c01b614d92565b60985481111561796b5761792567bbc453c3e84c59fa60c01b614d92565b61793967c684fb9af309a66560c01b614d92565b6040517fa74c1c5f00000000000000000000000000000000000000000000000000000000815260040160405180910390fd5b61797f679d369857e0c60e0760c01b614d92565b61799367dbf9638bf3d975cd60c01b614d92565b80609a819055506179b4565b6179b367e4e901ecd4c6b07b60c01b614d92565b5b50565b5f6179cc671c4ed4f3faa136ff60c01b6183df565b6179e067a51364a60286c7ff60c01b6183df565b60405188815287602082015286604082015285606082015284608082015260c060a08201528260c0820152602083065f8115617a1d578160200390505b848660e085013780850160e00183209350505050979650505050505050565b5f617a5167b79abad236f880c760c01b6183e2565b617a656749737c789dc6a23560c01b6183e2565b617a7967464da07cc2f2815d60c01b6183e2565b5f617a9e6001878790506002617a8f9190619dfd565b617a999190618d37565b6183e5565b9050617ab467352f335be3b4fb0b60c01b6183e2565b617ac867def9ca9a926fa02260c01b6183e2565b8063ffffffff168463ffffffff161115617b4357617af06757e9eed57579cee260c01b6183e2565b617b04674d8ae1cc7969e9e360c01b6183e2565b83816040517ff7ec9097000000000000000000000000000000000000000000000000000000008152600401617b3a929190619e56565b60405180910390fd5b617b57671c5860f6ac2f6d6360c01b6183e2565b617b6b67a0a5ec2afa69114460c01b6183e2565b617b7f67af3bc3b14aa0e08660c01b6183e2565b5f879050617b9767442085649285381960c01b6183e2565b617bab6702165b68801d994860c01b6183e2565b5f5b87879050811015617ca457617bcc67843281829e87b7ac60c01b6183e2565b617be067e284cebb47f334cd60c01b6183e2565b600180828863ffffffff16901c1663ffffffff1603617c4b57617c0d678ca27135e24ebbc660c01b6183e2565b617c21672c48c0c0b6a1c6b560c01b6183e2565b617c44888883818110617c3757617c3661975c565b5b90506020020135836184c8565b9150617c99565b617c5f672c257412f0fafc0b60c01b6183e2565b617c73679087b010f7e09cc160c01b6183e2565b617c9682898984818110617c8a57617c8961975c565b5b905060200201356184c8565b91505b806001019050617bad565b50617cb967a93ba0b9b8667baf60c01b6183e2565b8381149250505095945050505050565b617cdd672112de78d1ceeb5f60c01b6161a2565b617cf167fa16c37324590c6660c01b6161a2565b617d056714e7cfc1a8f586f060c01b6161a2565b617d1967860b46c9fb0ebe4560c01b6161a2565b5f617d3961014e5f6001860381526020019081526020015f2054836184c8565b9050617d4f6711d49df96e7e981060c01b6161a2565b8061014e5f8581526020019081526020015f2081905550617d7a6759e892cc820e698660c01b6161a2565b617d8e67c2e0b6d57461785b60c01b6161a2565b8181847fea3b023b4c8680d4b4824f0143132c95476359a2bb70a81d6c5a36f6918f633960405160405180910390a4505050565b50565b6060617deb8273ffffffffffffffffffffffffffffffffffffffff16601460ff16617df2565b9050919050565b60605f6002836002617e049190618fb1565b617e0e9190618e4a565b67ffffffffffffffff811115617e2757617e2661972f565b5b6040519080825280601f01601f191660200182016040528015617e595781602001600182028036833780820191505090505b5090507f3000000000000000000000000000000000000000000000000000000000000000815f81518110617e9057617e8f61975c565b5b60200101907effffffffffffffffffffffffffffffffffffffffffffffffffffffffffffff191690815f1a9053507f780000000000000000000000000000000000000000000000000000000000000081600181518110617ef357617ef261975c565b5b60200101907effffffffffffffffffffffffffffffffffffffffffffffffffffffffffffff191690815f1a9053505f6001846002617f319190618fb1565b617f3b9190618e4a565b90505b6001811115617fda577f3031323334353637383961626364656600000000000000000000000000000000600f861660108110617f7d57617f7c61975c565b5b1a60f81b828281518110617f9457617f9361975c565b5b60200101907effffffffffffffffffffffffffffffffffffffffffffffffffffffffffffff191690815f1a905350600485901c945080617fd390619e7d565b9050617f3e565b505f841461801d576040517f08c379a000000000000000000000000000000000000000000000000000000000815260040161801490619eee565b60405180910390fd5b8091505092915050565b5f60019054906101000a900460ff16618075576040517f08c379a000000000000000000000000000000000000000000000000000000000815260040161806c90619c2c565b60405180910390fd5b565b5f60019054906101000a900460ff166180c5576040517f08c379a00000000000000000000000000000000000000000000000000000000081526004016180bc90619c2c565b60405180910390fd5b565b5f60019054906101000a900460ff16618115576040517f08c379a000000000000000000000000000000000000000000000000000000000815260040161810c90619c2c565b60405180910390fd5b565b61812b67d29b623e84e8831060c01b614d92565b5f60019054906101000a900460ff16618179576040517f08c379a000000000000000000000000000000000000000000000000000000000815260040161817090619c2c565b60405180910390fd5b61818d679d0d9f70a41a5ac660c01b614d92565b6181a167fbb1168adaf7c70260c01b614d92565b6181b567fe2809c7b93432a860c01b614d92565b6181c967206598ec969aabd960c01b614d92565b5f820361822a576181e467ab4e957a18fe9b6f60c01b614d92565b6181f8674c0e948cec756a0360c01b614d92565b6040517fb5ed5a3b00000000000000000000000000000000000000000000000000000000815260040160405180910390fd5b61823e67932b642e28c4398160c01b614d92565b618252673733f63e7a897d8f60c01b614d92565b61826667ebfb21d73890ecd660c01b614d92565b5f81036182c7576182816722367716a65da9df60c01b614d92565b618295677b47fbfcc03a620160c01b614d92565b6040517fd10d72bb00000000000000000000000000000000000000000000000000000000815260040160405180910390fd5b6182db674eeedce9a236de9060c01b614d92565b6182ef675fdc96ed24c7131c60c01b614d92565b8160978190555061830a67f645f4517ef8875b60c01b614d92565b80609881905550618325673fc17b3d4ccc614c60c01b614d92565b81426183319190618e4a565b60998190555061834b67d3863a9fd4c999a460c01b614d92565b61835f67b1a457a179ebc45b60c01b614d92565b7f8f805c372b66240792580418b7328c0c554ae235f0932475c51b026887fe26a960975460985460995460405161839893929190619f0c565b60405180910390a15050565b50565b5f600882901c90505f60ff83166001901b905080845f015f8481526020019081526020015f205f828254179250508190555050505050565b50565b50565b5f6183fa67047b4e6ad8b1a96c60c01b6183e2565b61840e6748a209e86e529ff860c01b6183e2565b618422675bf8b62c939dfa5860c01b6183e2565b63ffffffff801682111561849857618444671de310ad737dea6c60c01b6183e2565b61845867c3ee97cc617603ca60c01b6183e2565b6020826040517f6dfcc65000000000000000000000000000000000000000000000000000000000815260040161848f929190619f7a565b60405180910390fd5b6184ac671d97624abdb6544960c01b6183e2565b6184c0673bee4bfa7277845160c01b6183e2565b819050919050565b5f6184dd67d78c8440b49c50a060c01b618504565b6184f167c364c989e6918ec560c01b618504565b825f528160205260405f20905092915050565b50565b5f5ffd5b5f5ffd5b5f7fffffffff0000000000000000000000000000000000000000000000000000000082169050919050565b6185438161850f565b811461854d575f5ffd5b50565b5f8135905061855e8161853a565b92915050565b5f6020828403121561857957618578618507565b5b5f61858684828501618550565b91505092915050565b5f8115159050919050565b6185a38161858f565b82525050565b5f6020820190506185bc5f83018461859a565b92915050565b5f819050919050565b6185d4816185c2565b82525050565b5f6020820190506185ed5f8301846185cb565b92915050565b600a81106185ff575f5ffd5b50565b5f81359050618610816185f3565b92915050565b5f6020828403121561862b5761862a618507565b5b5f61863884828501618602565b91505092915050565b61864a816185c2565b8114618654575f5ffd5b50565b5f8135905061866581618641565b92915050565b5f602082840312156186805761867f618507565b5b5f61868d84828501618657565b91505092915050565b5f819050919050565b6186a881618696565b82525050565b5f6020820190506186c15f83018461869f565b92915050565b6186d081618696565b81146186da575f5ffd5b50565b5f813590506186eb816186c7565b92915050565b5f6020828403121561870657618705618507565b5b5f618713848285016186dd565b91505092915050565b5f73ffffffffffffffffffffffffffffffffffffffff82169050919050565b5f6187458261871c565b9050919050565b6187558161873b565b811461875f575f5ffd5b50565b5f813590506187708161874c565b92915050565b5f5f6040838503121561878c5761878b618507565b5b5f61879985828601618657565b92505060206187aa85828601618762565b9150509250929050565b5f81519050919050565b5f82825260208201905092915050565b8281835e5f83830152505050565b5f601f19601f8301169050919050565b5f6187f6826187b4565b61880081856187be565b93506188108185602086016187ce565b618819816187dc565b840191505092915050565b5f6020820190508181035f83015261883c81846187ec565b905092915050565b5f819050919050565b5f61886761886261885d8461871c565b618844565b61871c565b9050919050565b5f6188788261884d565b9050919050565b5f6188898261886e565b9050919050565b6188998161887f565b82525050565b5f6020820190506188b25f830184618890565b92915050565b5f5f604083850312156188ce576188cd618507565b5b5f6188db85828601618602565b92505060206188ec85828601618657565b9150509250929050565b5f5ffd5b5f61018082840312156189105761890f6188f6565b5b81905092915050565b5f6020828403121561892e5761892d618507565b5b5f82013567ffffffffffffffff81111561894b5761894a61850b565b5b618957848285016188fa565b91505092915050565b5f60ff82169050919050565b61897581618960565b82525050565b5f60208201905061898e5f83018461896c565b92915050565b5f5ffd5b5f5ffd5b5f5ffd5b5f5f83601f8401126189b5576189b4618994565b5b8235905067ffffffffffffffff8111156189d2576189d1618998565b5b6020830191508360018202830111156189ee576189ed61899c565b5b9250929050565b5f6102008284031215618a0b57618a0a6188f6565b5b81905092915050565b5f5f5f5f60608587031215618a2c57618a2b618507565b5b5f85013567ffffffffffffffff811115618a4957618a4861850b565b5b618a55878288016189a0565b94509450506020618a68878288016186dd565b925050604085013567ffffffffffffffff811115618a8957618a8861850b565b5b618a95878288016189f5565b91505092959194509250565b5f6101408284031215618ab757618ab66188f6565b5b81905092915050565b5f60208284031215618ad557618ad4618507565b5b5f82013567ffffffffffffffff811115618af257618af161850b565b5b618afe84828501618aa1565b91505092915050565b618b108161873b565b82525050565b5f602082019050618b295f830184618b07565b92915050565b5f5f5f5f60608587031215618b4757618b46618507565b5b5f618b5487828801618762565b9450506020618b65878288016186dd565b935050604085013567ffffffffffffffff811115618b8657618b8561850b565b5b618b92878288016189a0565b925092505092959194509250565b5f5f5f60608486031215618bb757618bb6618507565b5b5f618bc4868287016186dd565b9350506020618bd586828701618657565b9250506040618be6868287016186dd565b9150509250925092565b5f5f60408385031215618c0657618c05618507565b5b5f618c1385828601618762565b9250506020618c24858286016186dd565b9150509250929050565b5f5f5f60608486031215618c4557618c44618507565b5b5f618c5286828701618657565b9350506020618c6386828701618657565b9250506040618c7486828701618657565b9150509250925092565b7f4e487b71000000000000000000000000000000000000000000000000000000005f52602160045260245ffd5b600a8110618cbc57618cbb618c7e565b5b50565b5f819050618ccc82618cab565b919050565b5f618cdb82618cbf565b9050919050565b618ceb81618cd1565b82525050565b5f602082019050618d045f830184618ce2565b92915050565b7f4e487b71000000000000000000000000000000000000000000000000000000005f52601160045260245ffd5b5f618d4182618696565b9150618d4c83618696565b9250828203905081811115618d6457618d63618d0a565b5b92915050565b7f496e697469616c697a61626c653a20636f6e747261637420697320616c7265615f8201527f647920696e697469616c697a6564000000000000000000000000000000000000602082015250565b5f618dc4602e836187be565b9150618dcf82618d6a565b604082019050919050565b5f6020820190508181035f830152618df181618db8565b9050919050565b5f819050919050565b5f618e1b618e16618e1184618df8565b618844565b618960565b9050919050565b618e2b81618e01565b82525050565b5f602082019050618e445f830184618e22565b92915050565b5f618e5482618696565b9150618e5f83618696565b9250828201905080821115618e7757618e76618d0a565b5b92915050565b5f606082019050618e905f83018661869f565b618e9d602083018561859a565b618eaa604083018461859a565b949350505050565b5f60208284031215618ec757618ec6618507565b5b5f618ed484828501618762565b91505092915050565b5f5ffd5b5f5ffd5b5f5ffd5b5f5f83356001602003843603038112618f0557618f04618edd565b5b80840192508235915067ffffffffffffffff821115618f2757618f26618ee1565b5b602083019250600182023603831315618f4357618f42618ee5565b5b509250929050565b5f618f558261871c565b9050919050565b618f6581618f4b565b8114618f6f575f5ffd5b50565b5f81359050618f8081618f5c565b92915050565b5f60208284031215618f9b57618f9a618507565b5b5f618fa884828501618f72565b91505092915050565b5f618fbb82618696565b9150618fc683618696565b9250828202618fd481618696565b91508282048414831517618feb57618fea618d0a565b5b5092915050565b5f6040820190506190055f8301856185cb565b61901260208301846185cb565b9392505050565b7f416363657373436f6e74726f6c3a2063616e206f6e6c792072656e6f756e63655f8201527f20726f6c657320666f722073656c660000000000000000000000000000000000602082015250565b5f619073602f836187be565b915061907e82619019565b604082019050919050565b5f6020820190508181035f8301526190a081619067565b9050919050565b5f5f833560016020038436030381126190c3576190c2618edd565b5b80840192508235915067ffffffffffffffff8211156190e5576190e4618ee1565b5b60208301925060408202360383131561910157619100618ee5565b5b509250929050565b5f5f8335600160200384360303811261912557619124618edd565b5b80840192508235915067ffffffffffffffff82111561914757619146618ee1565b5b60208301925060408202360383131561916357619162618ee5565b5b509250929050565b5f6191796020840184618657565b905092915050565b61918a816185c2565b82525050565b5f61919e60208401846186dd565b905092915050565b6191af81618696565b82525050565b5f6191c36020840184618762565b905092915050565b6191d48161873b565b82525050565b5f5ffd5b5f5ffd5b5f5ffd5b5f5f83356001602003843603038112619202576192016191e2565b5b83810192508235915060208301925067ffffffffffffffff82111561922a576192296191da565b5b6040820236038313156192405761923f6191de565b5b509250929050565b5f82825260208201905092915050565b5f819050919050565b604082016192715f8301836191b5565b61927d5f8501826191cb565b5061928b602083018361916b565b6192986020850182619181565b50505050565b5f6192a98383619261565b60408301905092915050565b5f82905092915050565b5f604082019050919050565b5f6192d68385619248565b93506192e182619258565b805f5b85811015619319576192f682846192b5565b619300888261929e565b975061930b836192bf565b9250506001810190506192e4565b5085925050509392505050565b5f5f83356001602003843603038112619342576193416191e2565b5b83810192508235915060208301925067ffffffffffffffff82111561936a576193696191da565b5b6040820236038313156193805761937f6191de565b5b509250929050565b5f82825260208201905092915050565b5f819050919050565b5f6193af6020840184618602565b905092915050565b6193c081618cd1565b82525050565b604082016193d65f8301836193a1565b6193e25f8501826193b7565b506193f0602083018361916b565b6193fd6020850182619181565b50505050565b5f61940e83836193c6565b60408301905092915050565b5f82905092915050565b5f604082019050919050565b5f61943b8385619388565b935061944682619398565b805f5b8581101561947e5761945b828461941a565b6194658882619403565b975061947083619424565b925050600181019050619449565b5085925050509392505050565b5f610180830161949d5f84018461916b565b6194a95f860182619181565b506194b76020840184619190565b6194c460208601826191a6565b506194d26040840184619190565b6194df60408601826191a6565b506194ed60608401846191b5565b6194fa60608601826191cb565b506195086080840184619190565b61951560808601826191a6565b5061952360a0840184619190565b61953060a08601826191a6565b5061953e60c08401846191e6565b85830360c08701526195518382846192cb565b9250505061956260e0840184619326565b85830360e0870152619575838284619430565b92505050619587610100840184619326565b85830361010087015261959b838284619430565b925050506195ad6101208401846191b5565b6195bb6101208601826191cb565b506195ca6101408401846191b5565b6195d86101408601826191cb565b506195e76101608401846191b5565b6195f56101608601826191cb565b508091505092915050565b5f6020820190508181035f830152619618818461948b565b905092915050565b5f6040820190506196335f83018561869f565b619640602083018461869f565b9392505050565b5f81519050619655816186c7565b92915050565b5f602082840312156196705761966f618507565b5b5f61967d84828501619647565b91505092915050565b5f5f833560016020038436030381126196a2576196a1618edd565b5b80840192508235915067ffffffffffffffff8211156196c4576196c3618ee1565b5b6020830192506020820236038313156196e0576196df618ee5565b5b509250929050565b5f6196f282618696565b91507fffffffffffffffffffffffffffffffffffffffffffffffffffffffffffffffff820361972457619723618d0a565b5b600182019050919050565b7f4e487b71000000000000000000000000000000000000000000000000000000005f52604160045260245ffd5b7f4e487b71000000000000000000000000000000000000000000000000000000005f52603260045260245ffd5b5f82825260208201905092915050565b828183375f83830152505050565b5f6197b28385619789565b93506197bf838584619799565b6197c8836187dc565b840190509392505050565b5f81519050919050565b5f82825260208201905092915050565b5f819050602082019050919050565b5f61980783836191a6565b60208301905092915050565b5f602082019050919050565b5f619829826197d3565b61983381856197dd565b935061983e836197ed565b805f5b8381101561986e57815161985588826197fc565b975061986083619813565b925050600181019050619841565b5085935050505092915050565b5f6040820190508181035f8301526198948185876197a7565b905081810360208301526198a8818461981f565b9050949350505050565b5f81519050919050565b5f81905092915050565b5f6198d0826198b2565b6198da81856198bc565b93506198ea8185602086016187ce565b80840191505092915050565b5f61990182846198c6565b915081905092915050565b7f556e6b6e6f776e000000000000000000000000000000000000000000000000005f82015250565b5f6199406007836187be565b915061994b8261990c565b602082019050919050565b5f6020820190508181035f83015261996d81619934565b9050919050565b61997d8161858f565b8114619987575f5ffd5b50565b5f8151905061999881619974565b92915050565b5f602082840312156199b3576199b2618507565b5b5f6199c08482850161998a565b91505092915050565b5f63ffffffff82169050919050565b6199e1816199c9565b81146199eb575f5ffd5b50565b5f813590506199fc816199d8565b92915050565b5f60208284031215619a1757619a16618507565b5b5f619a24848285016199ee565b91505092915050565b5f619a3883856198bc565b9350619a45838584619799565b82840190509392505050565b5f619a5d828486619a2d565b91508190509392505050565b5f608082019050619a7c5f83018861869f565b619a89602083018761869f565b619a96604083018661869f565b8181036060830152619aa98184866197a7565b90509695505050505050565b5f81905092915050565b7f416363657373436f6e74726f6c3a206163636f756e74200000000000000000005f82015250565b5f619af3601783619ab5565b9150619afe82619abf565b601782019050919050565b5f619b13826187b4565b619b1d8185619ab5565b9350619b2d8185602086016187ce565b80840191505092915050565b7f206973206d697373696e6720726f6c65200000000000000000000000000000005f82015250565b5f619b6d601183619ab5565b9150619b7882619b39565b601182019050919050565b5f619b8d82619ae7565b9150619b998285619b09565b9150619ba482619b61565b9150619bb08284619b09565b91508190509392505050565b7f496e697469616c697a61626c653a20636f6e7472616374206973206e6f7420695f8201527f6e697469616c697a696e67000000000000000000000000000000000000000000602082015250565b5f619c16602b836187be565b9150619c2182619bbc565b604082019050919050565b5f6020820190508181035f830152619c4381619c0a565b9050919050565b5f604082019050619c5d5f83018561869f565b619c6a60208301846185cb565b9392505050565b7f4e487b71000000000000000000000000000000000000000000000000000000005f52601260045260245ffd5b5f619ca882618696565b9150619cb383618696565b925082619cc357619cc2619c71565b5b828206905092915050565b5f8160011c9050919050565b5f5f8291508390505b6001851115619d2357808604811115619cff57619cfe618d0a565b5b6001851615619d0e5780820291505b8081029050619d1c85619cce565b9450619ce3565b94509492505050565b5f82619d3b5760019050619df6565b81619d48575f9050619df6565b8160018114619d5e5760028114619d6857619d97565b6001915050619df6565b60ff841115619d7a57619d79618d0a565b5b8360020a915084821115619d9157619d90618d0a565b5b50619df6565b5060208310610133831016604e8410600b8410161715619dcc5782820a905083811115619dc757619dc6618d0a565b5b619df6565b619dd98484846001619cda565b92509050818404811115619df057619def618d0a565b5b81810290505b9392505050565b5f619e0782618696565b9150619e1283618696565b9250619e3f7fffffffffffffffffffffffffffffffffffffffffffffffffffffffffffffffff8484619d2c565b905092915050565b619e50816199c9565b82525050565b5f604082019050619e695f830185619e47565b619e766020830184619e47565b9392505050565b5f619e8782618696565b91505f8203619e9957619e98618d0a565b5b600182039050919050565b7f537472696e67733a20686578206c656e67746820696e73756666696369656e745f82015250565b5f619ed86020836187be565b9150619ee382619ea4565b602082019050919050565b5f6020820190508181035f830152619f0581619ecc565b9050919050565b5f606082019050619f1f5f83018661869f565b619f2c602083018561869f565b619f39604083018461869f565b949350505050565b5f819050919050565b5f619f64619f5f619f5a84619f41565b618844565b618960565b9050919050565b619f7481619f4a565b82525050565b5f604082019050619f8d5f830185619f6b565b619f9a602083018461869f565b939250505056fea26469706673582212208b173b14c47696668f52afbef0fb94c47950c8496ccc1a4e0df5e106dd96613864736f6c634300081e0033",
    "linkReferences": {},
    "deployedLinkReferences": {}
}