{
  "_format": "hh-sol-artifact-1",
  "contractName": "Validium",
  "sourceName": "src/rollup/Validium.sol",
  "abi": [
    {
      "inputs": [],
      "stateMutability": "nonpayable",
      "type": "constructor"
    },
    {
      "inputs": [
        {
          "internalType": "address",
          "name": "addressNotFiltered",
          "type": "address"
        }
      ],
      "name": "AddressIsNotFiltered",
      "type": "error"
    },
    {
      "inputs": [
        {
          "internalType": "uint256",
          "name": "bytesLength",
          "type": "uint256"
        }
      ],
      "name": "BytesLengthNotMultipleOfTwo",
      "type": "error"
    },
    {
      "inputs": [],
      "name": "CallerNotProxyAdmin",
      "type": "error"
    },
    {
      "inputs": [
        {
          "internalType": "address",
          "name": "recipient",
          "type": "address"
        }
      ],
      "name": "FeePaymentFailed",
      "type": "error"
    },
    {
      "inputs": [],
      "name": "FeeTooLow",
      "type": "error"
    },
    {
      "inputs": [],
      "name": "FinalBlockStateEqualsZeroHash",
      "type": "error"
    },
    {
      "inputs": [
        {
          "internalType": "bytes32",
          "name": "shnarf",
          "type": "bytes32"
        }
      ],
      "name": "FinalShnarfNotSubmitted",
      "type": "error"
    },
    {
      "inputs": [
        {
          "internalType": "bytes32",
          "name": "expected",
          "type": "bytes32"
        },
        {
          "internalType": "bytes32",
          "name": "value",
          "type": "bytes32"
        }
      ],
      "name": "FinalShnarfWrong",
      "type": "error"
    },
    {
      "inputs": [],
      "name": "FinalStateRootHashIsZeroHash",
      "type": "error"
    },
    {
      "inputs": [
        {
          "internalType": "uint256",
          "name": "nextForcedTransactionNumber",
          "type": "uint256"
        }
      ],
      "name": "FinalizationDataMissingForcedTransaction",
      "type": "error"
    },
    {
      "inputs": [
        {
          "internalType": "uint256",
          "name": "l2BlockTimestamp",
          "type": "uint256"
        },
        {
          "internalType": "uint256",
          "name": "currentBlockTimestamp",
          "type": "uint256"
        }
      ],
      "name": "FinalizationInTheFuture",
      "type": "error"
    },
    {
      "inputs": [
        {
          "internalType": "bytes32",
          "name": "expected",
          "type": "bytes32"
        },
        {
          "internalType": "bytes32",
          "name": "value",
          "type": "bytes32"
        }
      ],
      "name": "FinalizationStateIncorrect",
      "type": "error"
    },
    {
      "inputs": [
        {
          "internalType": "uint256",
          "name": "blockNumber",
          "type": "uint256"
        }
      ],
      "name": "ForcedTransactionExistsForBlockOrIsTooLow",
      "type": "error"
    },
    {
      "inputs": [],
      "name": "InvalidMerkleProof",
      "type": "error"
    },
    {
      "inputs": [],
      "name": "InvalidProof",
      "type": "error"
    },
    {
      "inputs": [
        {
          "internalType": "string",
          "name": "errorReason",
          "type": "string"
        }
      ],
      "name": "InvalidProofOrProofVerificationRanOutOfGas",
      "type": "error"
    },
    {
      "inputs": [],
      "name": "InvalidProofType",
      "type": "error"
    },
    {
      "inputs": [
        {
          "internalType": "enum IPauseManager.PauseType",
          "name": "pauseType",
          "type": "uint8"
        }
      ],
      "name": "IsNotPaused",
      "type": "error"
    },
    {
      "inputs": [
        {
          "internalType": "enum IPauseManager.PauseType",
          "name": "pauseType",
          "type": "uint8"
        }
      ],
      "name": "IsPaused",
      "type": "error"
    },
    {
      "inputs": [
        {
          "internalType": "uint256",
          "name": "messageNumber",
          "type": "uint256"
        },
        {
          "internalType": "bytes32",
          "name": "rollingHash",
          "type": "bytes32"
        }
      ],
      "name": "L1RollingHashDoesNotExistOnL1",
      "type": "error"
    },
    {
      "inputs": [
        {
          "internalType": "bytes32",
          "name": "merkleRoot",
          "type": "bytes32"
        }
      ],
      "name": "L2MerkleRootAlreadyAnchored",
      "type": "error"
    },
    {
      "inputs": [],
      "name": "L2MerkleRootDoesNotExist",
      "type": "error"
    },
    {
      "inputs": [
        {
          "internalType": "uint32",
          "name": "leafIndex",
          "type": "uint32"
        },
        {
          "internalType": "uint32",
          "name": "maxAllowedIndex",
          "type": "uint32"
        }
      ],
      "name": "LeafIndexOutOfBounds",
      "type": "error"
    },
    {
      "inputs": [],
      "name": "LimitIsZero",
      "type": "error"
    },
    {
      "inputs": [
        {
          "internalType": "uint256",
          "name": "messageIndex",
          "type": "uint256"
        }
      ],
      "name": "MessageAlreadyClaimed",
      "type": "error"
    },
    {
      "inputs": [
        {
          "internalType": "bytes32",
          "name": "messageHash",
          "type": "bytes32"
        }
      ],
      "name": "MessageDoesNotExistOrHasAlreadyBeenClaimed",
      "type": "error"
    },
    {
      "inputs": [
        {
          "internalType": "address",
          "name": "destination",
          "type": "address"
        }
      ],
      "name": "MessageSendingFailed",
      "type": "error"
    },
    {
      "inputs": [
        {
          "internalType": "bytes32",
          "name": "rollingHash",
          "type": "bytes32"
        }
      ],
      "name": "MissingMessageNumberForRollingHash",
      "type": "error"
    },
    {
      "inputs": [
        {
          "internalType": "uint256",
          "name": "messageNumber",
          "type": "uint256"
        }
      ],
      "name": "MissingRollingHashForMessageNumber",
      "type": "error"
    },
    {
      "inputs": [],
      "name": "NoEthSent",
      "type": "error"
    },
    {
      "inputs": [
        {
          "internalType": "bytes32",
          "name": "shnarf",
          "type": "bytes32"
        }
      ],
      "name": "ParentShnarfNotSubmitted",
      "type": "error"
    },
    {
      "inputs": [
        {
          "internalType": "uint256",
          "name": "expiryEnd",
          "type": "uint256"
        }
      ],
      "name": "PauseNotExpired",
      "type": "error"
    },
    {
      "inputs": [],
      "name": "PauseTypeNotUsed",
      "type": "error"
    },
    {
      "inputs": [
        {
          "internalType": "uint256",
          "name": "cooldownEnd",
          "type": "uint256"
        }
      ],
      "name": "PauseUnavailableDueToCooldown",
      "type": "error"
    },
    {
      "inputs": [],
      "name": "PeriodIsZero",
      "type": "error"
    },
    {
      "inputs": [],
      "name": "ProofIsEmpty",
      "type": "error"
    },
    {
      "inputs": [
        {
          "internalType": "uint256",
          "name": "actual",
          "type": "uint256"
        },
        {
          "internalType": "uint256",
          "name": "expected",
          "type": "uint256"
        }
      ],
      "name": "ProofLengthDifferentThanMerkleDepth",
      "type": "error"
    },
    {
      "inputs": [],
      "name": "RateLimitExceeded",
      "type": "error"
    },
    {
      "inputs": [],
      "name": "ReentrantCall",
      "type": "error"
    },
    {
      "inputs": [],
      "name": "RolesNotDifferent",
      "type": "error"
    },
    {
      "inputs": [
        {
          "internalType": "uint8",
          "name": "bits",
          "type": "uint8"
        },
        {
          "internalType": "uint256",
          "name": "value",
          "type": "uint256"
        }
      ],
      "name": "SafeCastOverflowedUintDowncast",
      "type": "error"
    },
    {
      "inputs": [
        {
          "internalType": "bytes32",
          "name": "shnarf",
          "type": "bytes32"
        }
      ],
      "name": "ShnarfAlreadySubmitted",
      "type": "error"
    },
    {
      "inputs": [],
      "name": "ShnarfSubmissionIsZeroHash",
      "type": "error"
    },
    {
      "inputs": [],
      "name": "StartingRootHashDoesNotMatch",
      "type": "error"
    },
    {
      "inputs": [],
      "name": "ValueSentTooLow",
      "type": "error"
    },
    {
      "inputs": [],
      "name": "ZeroAddressNotAllowed",
      "type": "error"
    },
    {
      "inputs": [],
      "name": "ZeroHashNotAllowed",
      "type": "error"
    },
    {
      "inputs": [],
      "name": "ZeroLengthNotAllowed",
      "type": "error"
    },
    {
      "inputs": [],
      "name": "ZeroValueNotAllowed",
      "type": "error"
    },
    {
      "anonymous": false,
      "inputs": [
        {
          "indexed": false,
          "internalType": "address",
          "name": "oldAddressFilter",
          "type": "address"
        },
        {
          "indexed": false,
          "internalType": "address",
          "name": "newAddressFilter",
          "type": "address"
        }
      ],
      "name": "AddressFilterChanged",
      "type": "event"
    },
    {
      "anonymous": false,
      "inputs": [
        {
          "indexed": true,
          "internalType": "address",
          "name": "resettingAddress",
          "type": "address"
        }
      ],
      "name": "AmountUsedInPeriodReset",
      "type": "event"
    },
    {
      "anonymous": false,
      "inputs": [
        {
          "indexed": true,
          "internalType": "uint256",
          "name": "startBlockNumber",
          "type": "uint256"
        },
        {
          "indexed": true,
          "internalType": "uint256",
          "name": "endBlockNumber",
          "type": "uint256"
        },
        {
          "indexed": true,
          "internalType": "bytes32",
          "name": "shnarf",
          "type": "bytes32"
        },
        {
          "indexed": false,
          "internalType": "bytes32",
          "name": "parentStateRootHash",
          "type": "bytes32"
        },
        {
          "indexed": false,
          "internalType": "bytes32",
          "name": "finalStateRootHash",
          "type": "bytes32"
        }
      ],
      "name": "DataFinalizedV3",
      "type": "event"
    },
    {
      "anonymous": false,
      "inputs": [
        {
          "indexed": false,
          "internalType": "bytes32",
          "name": "parentShnarf",
          "type": "bytes32"
        },
        {
          "indexed": true,
          "internalType": "bytes32",
          "name": "shnarf",
          "type": "bytes32"
        },
        {
          "indexed": false,
          "internalType": "bytes32",
          "name": "finalStateRootHash",
          "type": "bytes32"
        }
      ],
      "name": "DataSubmittedV3",
      "type": "event"
    },
    {
      "anonymous": false,
      "inputs": [
        {
          "indexed": true,
          "internalType": "uint256",
          "name": "blockNumber",
          "type": "uint256"
        },
        {
          "indexed": false,
          "internalType": "uint256",
          "name": "timestamp",
          "type": "uint256"
        },
        {
          "indexed": false,
          "internalType": "uint256",
          "name": "messageNumber",
          "type": "uint256"
        },
        {
          "indexed": false,
          "internalType": "uint256",
          "name": "forcedTransactionNumber",
          "type": "uint256"
        }
      ],
      "name": "FinalizedStateUpdated",
      "type": "event"
    },
    {
      "anonymous": false,
      "inputs": [
        {
          "indexed": true,
          "internalType": "uint256",
          "name": "forcedTransactionNumber",
          "type": "uint256"
        },
        {
          "indexed": true,
          "internalType": "address",
          "name": "from",
          "type": "address"
        },
        {
          "indexed": false,
          "internalType": "uint256",
          "name": "blockNumberDeadline",
          "type": "uint256"
        },
        {
          "indexed": false,
          "internalType": "bytes32",
          "name": "forcedTransactionRollingHash",
          "type": "bytes32"
        },
        {
          "indexed": false,
          "internalType": "bytes",
          "name": "rlpEncodedSignedTransaction",
          "type": "bytes"
        }
      ],
      "name": "ForcedTransactionAdded",
      "type": "event"
    },
    {
      "anonymous": false,
      "inputs": [
        {
          "indexed": false,
          "internalType": "uint256",
          "name": "forcedTransactionFeeInWei",
          "type": "uint256"
        }
      ],
      "name": "ForcedTransactionFeeSet",
      "type": "event"
    },
    {
      "anonymous": false,
      "inputs": [
        {
          "indexed": false,
          "internalType": "uint8",
          "name": "version",
          "type": "uint8"
        }
      ],
      "name": "Initialized",
      "type": "event"
    },
    {
      "anonymous": false,
      "inputs": [
        {
          "indexed": true,
          "internalType": "bytes32",
          "name": "l2MerkleRoot",
          "type": "bytes32"
        },
        {
          "indexed": true,
          "internalType": "uint256",
          "name": "treeDepth",
          "type": "uint256"
        }
      ],
      "name": "L2MerkleRootAdded",
      "type": "event"
    },
    {
      "anonymous": false,
      "inputs": [
        {
          "indexed": true,
          "internalType": "uint256",
          "name": "l2Block",
          "type": "uint256"
        }
      ],
      "name": "L2MessagingBlockAnchored",
      "type": "event"
    },
    {
      "anonymous": false,
      "inputs": [
        {
          "indexed": true,
          "internalType": "address",
          "name": "amountChangeBy",
          "type": "address"
        },
        {
          "indexed": false,
          "internalType": "uint256",
          "name": "amount",
          "type": "uint256"
        },
        {
          "indexed": false,
          "internalType": "bool",
          "name": "amountUsedLoweredToLimit",
          "type": "bool"
        },
        {
          "indexed": false,
          "internalType": "bool",
          "name": "usedAmountResetToZero",
          "type": "bool"
        }
      ],
      "name": "LimitAmountChanged",
      "type": "event"
    },
    {
      "anonymous": false,
      "inputs": [
        {
          "indexed": true,
          "internalType": "bytes8",
          "name": "initialContractVersion",
          "type": "bytes8"
        },
        {
          "components": [
            {
              "internalType": "bytes32",
              "name": "initialStateRootHash",
              "type": "bytes32"
            },
            {
              "internalType": "uint256",
              "name": "initialL2BlockNumber",
              "type": "uint256"
            },
            {
              "internalType": "uint256",
              "name": "genesisTimestamp",
              "type": "uint256"
            },
            {
              "internalType": "address",
              "name": "defaultVerifier",
              "type": "address"
            },
            {
              "internalType": "uint256",
              "name": "rateLimitPeriodInSeconds",
              "type": "uint256"
            },
            {
              "internalType": "uint256",
              "name": "rateLimitAmountInWei",
              "type": "uint256"
            },
            {
              "components": [
                {
                  "internalType": "address",
                  "name": "addressWithRole",
                  "type": "address"
                },
                {
                  "internalType": "bytes32",
                  "name": "role",
                  "type": "bytes32"
                }
              ],
              "internalType": "struct IPermissionsManager.RoleAddress[]",
              "name": "roleAddresses",
              "type": "tuple[]"
            },
            {
              "components": [
                {
                  "internalType": "enum IPauseManager.PauseType",
                  "name": "pauseType",
                  "type": "uint8"
                },
                {
                  "internalType": "bytes32",
                  "name": "role",
                  "type": "bytes32"
                }
              ],
              "internalType": "struct IPauseManager.PauseTypeRole[]",
              "name": "pauseTypeRoles",
              "type": "tuple[]"
            },
            {
              "components": [
                {
                  "internalType": "enum IPauseManager.PauseType",
                  "name": "pauseType",
                  "type": "uint8"
                },
                {
                  "internalType": "bytes32",
                  "name": "role",
                  "type": "bytes32"
                }
              ],
              "internalType": "struct IPauseManager.PauseTypeRole[]",
              "name": "unpauseTypeRoles",
              "type": "tuple[]"
            },
            {
              "internalType": "address",
              "name": "defaultAdmin",
              "type": "address"
            },
            {
              "internalType": "address",
              "name": "shnarfProvider",
              "type": "address"
            },
            {
              "internalType": "address",
              "name": "addressFilter",
              "type": "address"
            }
          ],
          "indexed": false,
          "internalType": "struct ILineaRollupBase.BaseInitializationData",
          "name": "initializationData",
          "type": "tuple"
        },
        {
          "indexed": false,
          "internalType": "bytes32",
          "name": "genesisShnarf",
          "type": "bytes32"
        }
      ],
      "name": "LineaRollupBaseInitialized",
      "type": "event"
    },
    {
      "anonymous": false,
      "inputs": [
        {
          "indexed": true,
          "internalType": "bytes8",
          "name": "previousVersion",
          "type": "bytes8"
        },
        {
          "indexed": true,
          "internalType": "bytes8",
          "name": "newVersion",
          "type": "bytes8"
        }
      ],
      "name": "LineaRollupVersionChanged",
      "type": "event"
    },
    {
      "anonymous": false,
      "inputs": [
        {
          "indexed": true,
          "internalType": "bytes32",
          "name": "_messageHash",
          "type": "bytes32"
        }
      ],
      "name": "MessageClaimed",
      "type": "event"
    },
    {
      "anonymous": false,
      "inputs": [
        {
          "indexed": true,
          "internalType": "address",
          "name": "_from",
          "type": "address"
        },
        {
          "indexed": true,
          "internalType": "address",
          "name": "_to",
          "type": "address"
        },
        {
          "indexed": false,
          "internalType": "uint256",
          "name": "_fee",
          "type": "uint256"
        },
        {
          "indexed": false,
          "internalType": "uint256",
          "name": "_value",
          "type": "uint256"
        },
        {
          "indexed": false,
          "internalType": "uint256",
          "name": "_nonce",
          "type": "uint256"
        },
        {
          "indexed": false,
          "internalType": "bytes",
          "name": "_calldata",
          "type": "bytes"
        },
        {
          "indexed": true,
          "internalType": "bytes32",
          "name": "_messageHash",
          "type": "bytes32"
        }
      ],
      "name": "MessageSent",
      "type": "event"
    },
    {
      "anonymous": false,
      "inputs": [
        {
          "indexed": true,
          "internalType": "enum IPauseManager.PauseType",
          "name": "pauseType",
          "type": "uint8"
        },
        {
          "indexed": true,
          "internalType": "bytes32",
          "name": "role",
          "type": "bytes32"
        }
      ],
      "name": "PauseTypeRoleSet",
      "type": "event"
    },
    {
      "anonymous": false,
      "inputs": [
        {
          "indexed": true,
          "internalType": "enum IPauseManager.PauseType",
          "name": "pauseType",
          "type": "uint8"
        },
        {
          "indexed": true,
          "internalType": "bytes32",
          "name": "role",
          "type": "bytes32"
        },
        {
          "indexed": true,
          "internalType": "bytes32",
          "name": "previousRole",
          "type": "bytes32"
        }
      ],
      "name": "PauseTypeRoleUpdated",
      "type": "event"
    },
    {
      "anonymous": false,
      "inputs": [
        {
          "indexed": false,
          "internalType": "address",
          "name": "messageSender",
          "type": "address"
        },
        {
          "indexed": true,
          "internalType": "enum IPauseManager.PauseType",
          "name": "pauseType",
          "type": "uint8"
        }
      ],
      "name": "Paused",
      "type": "event"
    },
    {
      "anonymous": false,
      "inputs": [
        {
          "indexed": false,
          "internalType": "uint256",
          "name": "periodInSeconds",
          "type": "uint256"
        },
        {
          "indexed": false,
          "internalType": "uint256",
          "name": "limitInWei",
          "type": "uint256"
        },
        {
          "indexed": false,
          "internalType": "uint256",
          "name": "currentPeriodEnd",
          "type": "uint256"
        }
      ],
      "name": "RateLimitInitialized",
      "type": "event"
    },
    {
      "anonymous": false,
      "inputs": [
        {
          "indexed": true,
          "internalType": "bytes32",
          "name": "role",
          "type": "bytes32"
        },
        {
          "indexed": true,
          "internalType": "bytes32",
          "name": "previousAdminRole",
          "type": "bytes32"
        },
        {
          "indexed": true,
          "internalType": "bytes32",
          "name": "newAdminRole",
          "type": "bytes32"
        }
      ],
      "name": "RoleAdminChanged",
      "type": "event"
    },
    {
      "anonymous": false,
      "inputs": [
        {
          "indexed": true,
          "internalType": "bytes32",
          "name": "role",
          "type": "bytes32"
        },
        {
          "indexed": true,
          "internalType": "address",
          "name": "account",
          "type": "address"
        },
        {
          "indexed": true,
          "internalType": "address",
          "name": "sender",
          "type": "address"
        }
      ],
      "name": "RoleGranted",
      "type": "event"
    },
    {
      "anonymous": false,
      "inputs": [
        {
          "indexed": true,
          "internalType": "bytes32",
          "name": "role",
          "type": "bytes32"
        },
        {
          "indexed": true,
          "internalType": "address",
          "name": "account",
          "type": "address"
        },
        {
          "indexed": true,
          "internalType": "address",
          "name": "sender",
          "type": "address"
        }
      ],
      "name": "RoleRevoked",
      "type": "event"
    },
    {
      "anonymous": false,
      "inputs": [
        {
          "indexed": true,
          "internalType": "uint256",
          "name": "messageNumber",
          "type": "uint256"
        },
        {
          "indexed": true,
          "internalType": "bytes32",
          "name": "rollingHash",
          "type": "bytes32"
        },
        {
          "indexed": true,
          "internalType": "bytes32",
          "name": "messageHash",
          "type": "bytes32"
        }
      ],
      "name": "RollingHashUpdated",
      "type": "event"
    },
    {
      "anonymous": false,
      "inputs": [
        {
          "indexed": true,
          "internalType": "enum IPauseManager.PauseType",
          "name": "unPauseType",
          "type": "uint8"
        },
        {
          "indexed": true,
          "internalType": "bytes32",
          "name": "role",
          "type": "bytes32"
        }
      ],
      "name": "UnPauseTypeRoleSet",
      "type": "event"
    },
    {
      "anonymous": false,
      "inputs": [
        {
          "indexed": true,
          "internalType": "enum IPauseManager.PauseType",
          "name": "unPauseType",
          "type": "uint8"
        },
        {
          "indexed": true,
          "internalType": "bytes32",
          "name": "role",
          "type": "bytes32"
        },
        {
          "indexed": true,
          "internalType": "bytes32",
          "name": "previousRole",
          "type": "bytes32"
        }
      ],
      "name": "UnPauseTypeRoleUpdated",
      "type": "event"
    },
    {
      "anonymous": false,
      "inputs": [
        {
          "indexed": false,
          "internalType": "address",
          "name": "messageSender",
          "type": "address"
        },
        {
          "indexed": true,
          "internalType": "enum IPauseManager.PauseType",
          "name": "pauseType",
          "type": "uint8"
        }
      ],
      "name": "UnPaused",
      "type": "event"
    },
    {
      "anonymous": false,
      "inputs": [
        {
          "indexed": false,
          "internalType": "enum IPauseManager.PauseType",
          "name": "pauseType",
          "type": "uint8"
        }
      ],
      "name": "UnPausedDueToExpiry",
      "type": "event"
    },
    {
      "anonymous": false,
      "inputs": [
        {
          "indexed": true,
          "internalType": "address",
          "name": "verifierAddress",
          "type": "address"
        },
        {
          "indexed": true,
          "internalType": "uint256",
          "name": "proofType",
          "type": "uint256"
        },
        {
          "indexed": true,
          "internalType": "address",
          "name": "verifierSetBy",
          "type": "address"
        },
        {
          "indexed": false,
          "internalType": "address",
          "name": "oldVerifierAddress",
          "type": "address"
        }
      ],
      "name": "VerifierAddressChanged",
      "type": "event"
    },
    {
      "inputs": [],
      "name": "CONTRACT_VERSION",
      "outputs": [
        {
          "internalType": "string",
          "name": "contractVersion",
          "type": "string"
        }
      ],
      "stateMutability": "view",
      "type": "function"
    },
    {
      "inputs": [],
      "name": "COOLDOWN_DURATION",
      "outputs": [
        {
          "internalType": "uint256",
          "name": "",
          "type": "uint256"
        }
      ],
      "stateMutability": "view",
      "type": "function"
    },
    {
      "inputs": [],
      "name": "DEFAULT_ADMIN_ROLE",
      "outputs": [
        {
          "internalType": "bytes32",
          "name": "",
          "type": "bytes32"
        }
      ],
      "stateMutability": "view",
      "type": "function"
    },
    {
      "inputs": [],
      "name": "FORCED_TRANSACTION_FEE_SETTER_ROLE",
      "outputs": [
        {
          "internalType": "bytes32",
          "name": "",
          "type": "bytes32"
        }
      ],
      "stateMutability": "view",
      "type": "function"
    },
    {
      "inputs": [],
      "name": "FORCED_TRANSACTION_SENDER_ROLE",
      "outputs": [
        {
          "internalType": "bytes32",
          "name": "",
          "type": "bytes32"
        }
      ],
      "stateMutability": "view",
      "type": "function"
    },
    {
      "inputs": [],
      "name": "INBOX_STATUS_RECEIVED",
      "outputs": [
        {
          "internalType": "uint8",
          "name": "",
          "type": "uint8"
        }
      ],
      "stateMutability": "view",
      "type": "function"
    },
    {
      "inputs": [],
      "name": "INBOX_STATUS_UNKNOWN",
      "outputs": [
        {
          "internalType": "uint8",
          "name": "",
          "type": "uint8"
        }
      ],
      "stateMutability": "view",
      "type": "function"
    },
    {
      "inputs": [],
      "name": "OPERATOR_ROLE",
      "outputs": [
        {
          "internalType": "bytes32",
          "name": "",
          "type": "bytes32"
        }
      ],
      "stateMutability": "view",
      "type": "function"
    },
    {
      "inputs": [],
      "name": "OUTBOX_STATUS_RECEIVED",
      "outputs": [
        {
          "internalType": "uint8",
          "name": "",
          "type": "uint8"
        }
      ],
      "stateMutability": "view",
      "type": "function"
    },
    {
      "inputs": [],
      "name": "OUTBOX_STATUS_SENT",
      "outputs": [
        {
          "internalType": "uint8",
          "name": "",
          "type": "uint8"
        }
      ],
      "stateMutability": "view",
      "type": "function"
    },
    {
      "inputs": [],
      "name": "OUTBOX_STATUS_UNKNOWN",
      "outputs": [
        {
          "internalType": "uint8",
          "name": "",
          "type": "uint8"
        }
      ],
      "stateMutability": "view",
      "type": "function"
    },
    {
      "inputs": [],
      "name": "PAUSE_ALL_ROLE",
      "outputs": [
        {
          "internalType": "bytes32",
          "name": "",
          "type": "bytes32"
        }
      ],
      "stateMutability": "view",
      "type": "function"
    },
    {
      "inputs": [],
      "name": "PAUSE_DURATION",
      "outputs": [
        {
          "internalType": "uint256",
          "name": "",
          "type": "uint256"
        }
      ],
      "stateMutability": "view",
      "type": "function"
    },
    {
      "inputs": [],
      "name": "PAUSE_FINALIZATION_ROLE",
      "outputs": [
        {
          "internalType": "bytes32",
          "name": "",
          "type": "bytes32"
        }
      ],
      "stateMutability": "view",
      "type": "function"
    },
    {
      "inputs": [],
      "name": "PAUSE_L1_L2_ROLE",
      "outputs": [
        {
          "internalType": "bytes32",
          "name": "",
          "type": "bytes32"
        }
      ],
      "stateMutability": "view",
      "type": "function"
    },
    {
      "inputs": [],
      "name": "PAUSE_L2_L1_ROLE",
      "outputs": [
        {
          "internalType": "bytes32",
          "name": "",
          "type": "bytes32"
        }
      ],
      "stateMutability": "view",
      "type": "function"
    },
    {
      "inputs": [],
      "name": "PAUSE_NATIVE_YIELD_STAKING_ROLE",
      "outputs": [
        {
          "internalType": "bytes32",
          "name": "",
          "type": "bytes32"
        }
      ],
      "stateMutability": "view",
      "type": "function"
    },
    {
      "inputs": [],
      "name": "PAUSE_STATE_DATA_SUBMISSION_ROLE",
      "outputs": [
        {
          "internalType": "bytes32",
          "name": "",
          "type": "bytes32"
        }
      ],
      "stateMutability": "view",
      "type": "function"
    },
    {
      "inputs": [],
      "name": "RATE_LIMIT_SETTER_ROLE",
      "outputs": [
        {
          "internalType": "bytes32",
          "name": "",
          "type": "bytes32"
        }
      ],
      "stateMutability": "view",
      "type": "function"
    },
    {
      "inputs": [],
      "name": "SECURITY_COUNCIL_ROLE",
      "outputs": [
        {
          "internalType": "bytes32",
          "name": "",
          "type": "bytes32"
        }
      ],
      "stateMutability": "view",
      "type": "function"
    },
    {
      "inputs": [],
      "name": "SET_ADDRESS_FILTER_ROLE",
      "outputs": [
        {
          "internalType": "bytes32",
          "name": "",
          "type": "bytes32"
        }
      ],
      "stateMutability": "view",
      "type": "function"
    },
    {
      "inputs": [],
      "name": "UNPAUSE_ALL_ROLE",
      "outputs": [
        {
          "internalType": "bytes32",
          "name": "",
          "type": "bytes32"
        }
      ],
      "stateMutability": "view",
      "type": "function"
    },
    {
      "inputs": [],
      "name": "UNPAUSE_FINALIZATION_ROLE",
      "outputs": [
        {
          "internalType": "bytes32",
          "name": "",
          "type": "bytes32"
        }
      ],
      "stateMutability": "view",
      "type": "function"
    },
    {
      "inputs": [],
      "name": "UNPAUSE_L1_L2_ROLE",
      "outputs": [
        {
          "internalType": "bytes32",
          "name": "",
          "type": "bytes32"
        }
      ],
      "stateMutability": "view",
      "type": "function"
    },
    {
      "inputs": [],
      "name": "UNPAUSE_L2_L1_ROLE",
      "outputs": [
        {
          "internalType": "bytes32",
          "name": "",
          "type": "bytes32"
        }
      ],
      "stateMutability": "view",
      "type": "function"
    },
    {
      "inputs": [],
      "name": "UNPAUSE_NATIVE_YIELD_STAKING_ROLE",
      "outputs": [
        {
          "internalType": "bytes32",
          "name": "",
          "type": "bytes32"
        }
      ],
      "stateMutability": "view",
      "type": "function"
    },
    {
      "inputs": [],
      "name": "UNPAUSE_STATE_DATA_SUBMISSION_ROLE",
      "outputs": [
        {
          "internalType": "bytes32",
          "name": "",
          "type": "bytes32"
        }
      ],
      "stateMutability": "view",
      "type": "function"
    },
    {
      "inputs": [],
      "name": "USED_RATE_LIMIT_RESETTER_ROLE",
      "outputs": [
        {
          "internalType": "bytes32",
          "name": "",
          "type": "bytes32"
        }
      ],
      "stateMutability": "view",
      "type": "function"
    },
    {
      "inputs": [],
      "name": "VERIFIER_SETTER_ROLE",
      "outputs": [
        {
          "internalType": "bytes32",
          "name": "",
          "type": "bytes32"
        }
      ],
      "stateMutability": "view",
      "type": "function"
    },
    {
      "inputs": [],
      "name": "VERIFIER_UNSETTER_ROLE",
      "outputs": [
        {
          "internalType": "bytes32",
          "name": "",
          "type": "bytes32"
        }
      ],
      "stateMutability": "view",
      "type": "function"
    },
    {
      "inputs": [
        {
          "internalType": "bytes32",
          "name": "_parentShnarf",
          "type": "bytes32"
        },
        {
          "internalType": "bytes32",
          "name": "_shnarf",
          "type": "bytes32"
        },
        {
          "internalType": "bytes32",
          "name": "_finalStateRootHash",
          "type": "bytes32"
        }
      ],
      "name": "acceptShnarfData",
      "outputs": [],
      "stateMutability": "nonpayable",
      "type": "function"
    },
    {
      "inputs": [],
      "name": "addressFilter",
      "outputs": [
        {
          "internalType": "contract IAddressFilter",
          "name": "",
          "type": "address"
        }
      ],
      "stateMutability": "view",
      "type": "function"
    },
    {
      "inputs": [
        {
          "internalType": "bytes32",
          "name": "_shnarf",
          "type": "bytes32"
        }
      ],
      "name": "blobShnarfExists",
      "outputs": [
        {
          "internalType": "uint256",
          "name": "shnarfExists",
          "type": "uint256"
        }
      ],
      "stateMutability": "view",
      "type": "function"
    },
    {
      "inputs": [
        {
          "components": [
            {
              "internalType": "bytes32[]",
              "name": "proof",
              "type": "bytes32[]"
            },
            {
              "internalType": "uint256",
              "name": "messageNumber",
              "type": "uint256"
            },
            {
              "internalType": "uint32",
              "name": "leafIndex",
              "type": "uint32"
            },
            {
              "internalType": "address",
              "name": "from",
              "type": "address"
            },
            {
              "internalType": "address",
              "name": "to",
              "type": "address"
            },
            {
              "internalType": "uint256",
              "name": "fee",
              "type": "uint256"
            },
            {
              "internalType": "uint256",
              "name": "value",
              "type": "uint256"
            },
            {
              "internalType": "address payable",
              "name": "feeRecipient",
              "type": "address"
            },
            {
              "internalType": "bytes32",
              "name": "merkleRoot",
              "type": "bytes32"
            },
            {
              "internalType": "bytes",
              "name": "data",
              "type": "bytes"
            }
          ],
          "internalType": "struct IL1MessageService.ClaimMessageWithProofParams",
          "name": "_params",
          "type": "tuple"
        }
      ],
      "name": "claimMessageWithProof",
      "outputs": [],
      "stateMutability": "nonpayable",
      "type": "function"
    },
    {
      "inputs": [],
      "name": "currentFinalizedShnarf",
      "outputs": [
        {
          "internalType": "bytes32",
          "name": "",
          "type": "bytes32"
        }
      ],
      "stateMutability": "view",
      "type": "function"
    },
    {
      "inputs": [],
      "name": "currentFinalizedState",
      "outputs": [
        {
          "internalType": "bytes32",
          "name": "",
          "type": "bytes32"
        }
      ],
      "stateMutability": "view",
      "type": "function"
    },
    {
      "inputs": [],
      "name": "currentL2BlockNumber",
      "outputs": [
        {
          "internalType": "uint256",
          "name": "",
          "type": "uint256"
        }
      ],
      "stateMutability": "view",
      "type": "function"
    },
    {
      "inputs": [],
      "name": "currentPeriodAmountInWei",
      "outputs": [
        {
          "internalType": "uint256",
          "name": "",
          "type": "uint256"
        }
      ],
      "stateMutability": "view",
      "type": "function"
    },
    {
      "inputs": [],
      "name": "currentPeriodEnd",
      "outputs": [
        {
          "internalType": "uint256",
          "name": "",
          "type": "uint256"
        }
      ],
      "stateMutability": "view",
      "type": "function"
    },
    {
      "inputs": [
        {
          "internalType": "bytes",
          "name": "_aggregatedProof",
          "type": "bytes"
        },
        {
          "internalType": "uint256",
          "name": "_proofType",
          "type": "uint256"
        },
        {
          "components": [
            {
              "internalType": "bytes32",
              "name": "parentStateRootHash",
              "type": "bytes32"
            },
            {
              "internalType": "uint256",
              "name": "endBlockNumber",
              "type": "uint256"
            },
            {
              "components": [
                {
                  "internalType": "bytes32",
                  "name": "parentShnarf",
                  "type": "bytes32"
                },
                {
                  "internalType": "bytes32",
                  "name": "snarkHash",
                  "type": "bytes32"
                },
                {
                  "internalType": "bytes32",
                  "name": "finalStateRootHash",
                  "type": "bytes32"
                },
                {
                  "internalType": "bytes32",
                  "name": "dataEvaluationPoint",
                  "type": "bytes32"
                },
                {
                  "internalType": "bytes32",
                  "name": "dataEvaluationClaim",
                  "type": "bytes32"
                }
              ],
              "internalType": "struct ILineaRollupBase.ShnarfData",
              "name": "shnarfData",
              "type": "tuple"
            },
            {
              "internalType": "uint256",
              "name": "lastFinalizedTimestamp",
              "type": "uint256"
            },
            {
              "internalType": "uint256",
              "name": "finalTimestamp",
              "type": "uint256"
            },
            {
              "internalType": "bytes32",
              "name": "lastFinalizedL1RollingHash",
              "type": "bytes32"
            },
            {
              "internalType": "bytes32",
              "name": "l1RollingHash",
              "type": "bytes32"
            },
            {
              "internalType": "uint256",
              "name": "lastFinalizedL1RollingHashMessageNumber",
              "type": "uint256"
            },
            {
              "internalType": "uint256",
              "name": "l1RollingHashMessageNumber",
              "type": "uint256"
            },
            {
              "internalType": "uint256",
              "name": "l2MerkleTreesDepth",
              "type": "uint256"
            },
            {
              "internalType": "uint256",
              "name": "lastFinalizedForcedTransactionNumber",
              "type": "uint256"
            },
            {
              "internalType": "uint256",
              "name": "finalForcedTransactionNumber",
              "type": "uint256"
            },
            {
              "internalType": "bytes32",
              "name": "lastFinalizedForcedTransactionRollingHash",
              "type": "bytes32"
            },
            {
              "internalType": "bytes32[]",
              "name": "l2MerkleRoots",
              "type": "bytes32[]"
            },
            {
              "internalType": "address[]",
              "name": "filteredAddresses",
              "type": "address[]"
            },
            {
              "internalType": "bytes",
              "name": "l2MessagingBlocksOffsets",
              "type": "bytes"
            }
          ],
          "internalType": "struct ILineaRollupBase.FinalizationDataV4",
          "name": "_finalizationData",
          "type": "tuple"
        }
      ],
      "name": "finalizeBlocks",
      "outputs": [],
      "stateMutability": "nonpayable",
      "type": "function"
    },
    {
      "inputs": [],
      "name": "forcedTransactionFeeInWei",
      "outputs": [
        {
          "internalType": "uint256",
          "name": "",
          "type": "uint256"
        }
      ],
      "stateMutability": "view",
      "type": "function"
    },
    {
      "inputs": [
        {
          "internalType": "uint256",
          "name": "forcedTransactionNumber",
          "type": "uint256"
        }
      ],
      "name": "forcedTransactionL2BlockNumbers",
      "outputs": [
        {
          "internalType": "uint256",
          "name": "l2BlockNumber",
          "type": "uint256"
        }
      ],
      "stateMutability": "view",
      "type": "function"
    },
    {
      "inputs": [
        {
          "internalType": "uint256",
          "name": "forcedTransactionNumber",
          "type": "uint256"
        }
      ],
      "name": "forcedTransactionRollingHashes",
      "outputs": [
        {
          "internalType": "bytes32",
          "name": "rollingHash",
          "type": "bytes32"
        }
      ],
      "stateMutability": "view",
      "type": "function"
    },
    {
      "inputs": [],
      "name": "getRequiredForcedTransactionFields",
      "outputs": [
        {
          "internalType": "bytes32",
          "name": "finalizedState",
          "type": "bytes32"
        },
        {
          "internalType": "bytes32",
          "name": "previousForcedTransactionRollingHash",
          "type": "bytes32"
        },
        {
          "internalType": "uint256",
          "name": "previousForcedTransactionBlockDeadline",
          "type": "uint256"
        },
        {
          "internalType": "uint256",
          "name": "currentFinalizedL2BlockNumber",
          "type": "uint256"
        },
        {
          "internalType": "uint256",
          "name": "forcedTransactionFeeAmount",
          "type": "uint256"
        }
      ],
      "stateMutability": "view",
      "type": "function"
    },
    {
      "inputs": [
        {
          "internalType": "bytes32",
          "name": "role",
          "type": "bytes32"
        }
      ],
      "name": "getRoleAdmin",
      "outputs": [
        {
          "internalType": "bytes32",
          "name": "",
          "type": "bytes32"
        }
      ],
      "stateMutability": "view",
      "type": "function"
    },
    {
      "inputs": [
        {
          "internalType": "bytes32",
          "name": "role",
          "type": "bytes32"
        },
        {
          "internalType": "address",
          "name": "account",
          "type": "address"
        }
      ],
      "name": "grantRole",
      "outputs": [],
      "stateMutability": "nonpayable",
      "type": "function"
    },
    {
      "inputs": [
        {
          "internalType": "bytes32",
          "name": "role",
          "type": "bytes32"
        },
        {
          "internalType": "address",
          "name": "account",
          "type": "address"
        }
      ],
      "name": "hasRole",
      "outputs": [
        {
          "internalType": "bool",
          "name": "",
          "type": "bool"
        }
      ],
      "stateMutability": "view",
      "type": "function"
    },
    {
      "inputs": [
        {
          "internalType": "bytes32",
          "name": "messageHash",
          "type": "bytes32"
        }
      ],
      "name": "inboxL2L1MessageStatus",
      "outputs": [
        {
          "internalType": "uint256",
          "name": "messageStatus",
          "type": "uint256"
        }
      ],
      "stateMutability": "view",
      "type": "function"
    },
    {
      "inputs": [
        {
          "components": [
            {
              "internalType": "bytes32",
              "name": "initialStateRootHash",
              "type": "bytes32"
            },
            {
              "internalType": "uint256",
              "name": "initialL2BlockNumber",
              "type": "uint256"
            },
            {
              "internalType": "uint256",
              "name": "genesisTimestamp",
              "type": "uint256"
            },
            {
              "internalType": "address",
              "name": "defaultVerifier",
              "type": "address"
            },
            {
              "internalType": "uint256",
              "name": "rateLimitPeriodInSeconds",
              "type": "uint256"
            },
            {
              "internalType": "uint256",
              "name": "rateLimitAmountInWei",
              "type": "uint256"
            },
            {
              "components": [
                {
                  "internalType": "address",
                  "name": "addressWithRole",
                  "type": "address"
                },
                {
                  "internalType": "bytes32",
                  "name": "role",
                  "type": "bytes32"
                }
              ],
              "internalType": "struct IPermissionsManager.RoleAddress[]",
              "name": "roleAddresses",
              "type": "tuple[]"
            },
            {
              "components": [
                {
                  "internalType": "enum IPauseManager.PauseType",
                  "name": "pauseType",
                  "type": "uint8"
                },
                {
                  "internalType": "bytes32",
                  "name": "role",
                  "type": "bytes32"
                }
              ],
              "internalType": "struct IPauseManager.PauseTypeRole[]",
              "name": "pauseTypeRoles",
              "type": "tuple[]"
            },
            {
              "components": [
                {
                  "internalType": "enum IPauseManager.PauseType",
                  "name": "pauseType",
                  "type": "uint8"
                },
                {
                  "internalType": "bytes32",
                  "name": "role",
                  "type": "bytes32"
                }
              ],
              "internalType": "struct IPauseManager.PauseTypeRole[]",
              "name": "unpauseTypeRoles",
              "type": "tuple[]"
            },
            {
              "internalType": "address",
              "name": "defaultAdmin",
              "type": "address"
            },
            {
              "internalType": "address",
              "name": "shnarfProvider",
              "type": "address"
            },
            {
              "internalType": "address",
              "name": "addressFilter",
              "type": "address"
            }
          ],
          "internalType": "struct ILineaRollupBase.BaseInitializationData",
          "name": "_initializationData",
          "type": "tuple"
        }
      ],
      "name": "initialize",
      "outputs": [],
      "stateMutability": "nonpayable",
      "type": "function"
    },
    {
      "inputs": [
        {
          "internalType": "uint256",
          "name": "_messageNumber",
          "type": "uint256"
        }
      ],
      "name": "isMessageClaimed",
      "outputs": [
        {
          "internalType": "bool",
          "name": "isClaimed",
          "type": "bool"
        }
      ],
      "stateMutability": "view",
      "type": "function"
    },
    {
      "inputs": [
        {
          "internalType": "enum IPauseManager.PauseType",
          "name": "_pauseType",
          "type": "uint8"
        }
      ],
      "name": "isPaused",
      "outputs": [
        {
          "internalType": "bool",
          "name": "pauseTypeIsPaused",
          "type": "bool"
        }
      ],
      "stateMutability": "view",
      "type": "function"
    },
    {
      "inputs": [
        {
          "internalType": "bytes32",
          "name": "merkleRoot",
          "type": "bytes32"
        }
      ],
      "name": "l2MerkleRootsDepths",
      "outputs": [
        {
          "internalType": "uint256",
          "name": "treeDepth",
          "type": "uint256"
        }
      ],
      "stateMutability": "view",
      "type": "function"
    },
    {
      "inputs": [],
      "name": "limitInWei",
      "outputs": [
        {
          "internalType": "uint256",
          "name": "",
          "type": "uint256"
        }
      ],
      "stateMutability": "view",
      "type": "function"
    },
    {
      "inputs": [],
      "name": "livenessRecoveryOperator",
      "outputs": [
        {
          "internalType": "address",
          "name": "",
          "type": "address"
        }
      ],
      "stateMutability": "view",
      "type": "function"
    },
    {
      "inputs": [],
      "name": "nextForcedTransactionNumber",
      "outputs": [
        {
          "internalType": "uint256",
          "name": "",
          "type": "uint256"
        }
      ],
      "stateMutability": "view",
      "type": "function"
    },
    {
      "inputs": [],
      "name": "nextMessageNumber",
      "outputs": [
        {
          "internalType": "uint256",
          "name": "",
          "type": "uint256"
        }
      ],
      "stateMutability": "view",
      "type": "function"
    },
    {
      "inputs": [
        {
          "internalType": "bytes32",
          "name": "messageHash",
          "type": "bytes32"
        }
      ],
      "name": "outboxL1L2MessageStatus",
      "outputs": [
        {
          "internalType": "uint256",
          "name": "messageStatus",
          "type": "uint256"
        }
      ],
      "stateMutability": "view",
      "type": "function"
    },
    {
      "inputs": [
        {
          "internalType": "enum IPauseManager.PauseType",
          "name": "_pauseType",
          "type": "uint8"
        }
      ],
      "name": "pauseByType",
      "outputs": [],
      "stateMutability": "nonpayable",
      "type": "function"
    },
    {
      "inputs": [],
      "name": "pauseExpiryTimestamp",
      "outputs": [
        {
          "internalType": "uint256",
          "name": "",
          "type": "uint256"
        }
      ],
      "stateMutability": "view",
      "type": "function"
    },
    {
      "inputs": [],
      "name": "periodInSeconds",
      "outputs": [
        {
          "internalType": "uint256",
          "name": "",
          "type": "uint256"
        }
      ],
      "stateMutability": "view",
      "type": "function"
    },
    {
      "inputs": [
        {
          "internalType": "bytes32",
          "name": "role",
          "type": "bytes32"
        },
        {
          "internalType": "address",
          "name": "account",
          "type": "address"
        }
      ],
      "name": "renounceRole",
      "outputs": [],
      "stateMutability": "nonpayable",
      "type": "function"
    },
    {
      "inputs": [],
      "name": "resetAmountUsedInPeriod",
      "outputs": [],
      "stateMutability": "nonpayable",
      "type": "function"
    },
    {
      "inputs": [
        {
          "internalType": "uint256",
          "name": "_amount",
          "type": "uint256"
        }
      ],
      "name": "resetRateLimitAmount",
      "outputs": [],
      "stateMutability": "nonpayable",
      "type": "function"
    },
    {
      "inputs": [
        {
          "internalType": "bytes32",
          "name": "role",
          "type": "bytes32"
        },
        {
          "internalType": "address",
          "name": "account",
          "type": "address"
        }
      ],
      "name": "revokeRole",
      "outputs": [],
      "stateMutability": "nonpayable",
      "type": "function"
    },
    {
      "inputs": [
        {
          "internalType": "uint256",
          "name": "messageNumber",
          "type": "uint256"
        }
      ],
      "name": "rollingHashes",
      "outputs": [
        {
          "internalType": "bytes32",
          "name": "rollingHash",
          "type": "bytes32"
        }
      ],
      "stateMutability": "view",
      "type": "function"
    },
    {
      "inputs": [
        {
          "internalType": "address",
          "name": "_to",
          "type": "address"
        },
        {
          "internalType": "uint256",
          "name": "_fee",
          "type": "uint256"
        },
        {
          "internalType": "bytes",
          "name": "_calldata",
          "type": "bytes"
        }
      ],
      "name": "sendMessage",
      "outputs": [],
      "stateMutability": "payable",
      "type": "function"
    },
    {
      "inputs": [],
      "name": "sender",
      "outputs": [
        {
          "internalType": "address",
          "name": "originalSender",
          "type": "address"
        }
      ],
      "stateMutability": "view",
      "type": "function"
    },
    {
      "inputs": [
        {
          "internalType": "address",
          "name": "_addressFilter",
          "type": "address"
        }
      ],
      "name": "setAddressFilter",
      "outputs": [],
      "stateMutability": "nonpayable",
      "type": "function"
    },
    {
      "inputs": [
        {
          "internalType": "uint256",
          "name": "_forcedTransactionFeeInWei",
          "type": "uint256"
        }
      ],
      "name": "setForcedTransactionFee",
      "outputs": [],
      "stateMutability": "nonpayable",
      "type": "function"
    },
    {
      "inputs": [
        {
          "internalType": "address",
          "name": "_newVerifierAddress",
          "type": "address"
        },
        {
          "internalType": "uint256",
          "name": "_proofType",
          "type": "uint256"
        }
      ],
      "name": "setVerifierAddress",
      "outputs": [],
      "stateMutability": "nonpayable",
      "type": "function"
    },
    {
      "inputs": [],
      "name": "shnarfProvider",
      "outputs": [
        {
          "internalType": "contract IProvideShnarf",
          "name": "",
          "type": "address"
        }
      ],
      "stateMutability": "view",
      "type": "function"
    },
    {
      "inputs": [
        {
          "internalType": "uint256",
          "name": "blockNumber",
          "type": "uint256"
        }
      ],
      "name": "stateRootHashes",
      "outputs": [
        {
          "internalType": "bytes32",
          "name": "stateRootHash",
          "type": "bytes32"
        }
      ],
      "stateMutability": "view",
      "type": "function"
    },
    {
      "inputs": [
        {
          "internalType": "bytes32",
          "name": "_forcedTransactionRollingHash",
          "type": "bytes32"
        },
        {
          "internalType": "address",
          "name": "_from",
          "type": "address"
        },
        {
          "internalType": "uint256",
          "name": "_blockNumberDeadline",
          "type": "uint256"
        },
        {
          "internalType": "bytes",
          "name": "_rlpEncodedSignedTransaction",
          "type": "bytes"
        }
      ],
      "name": "storeForcedTransaction",
      "outputs": [],
      "stateMutability": "payable",
      "type": "function"
    },
    {
      "inputs": [
        {
          "internalType": "bytes4",
          "name": "interfaceId",
          "type": "bytes4"
        }
      ],
      "name": "supportsInterface",
      "outputs": [
        {
          "internalType": "bool",
          "name": "",
          "type": "bool"
        }
      ],
      "stateMutability": "view",
      "type": "function"
    },
    {
      "inputs": [],
      "name": "systemMigrationBlock",
      "outputs": [
        {
          "internalType": "uint256",
          "name": "",
          "type": "uint256"
        }
      ],
      "stateMutability": "view",
      "type": "function"
    },
    {
      "inputs": [
        {
          "internalType": "enum IPauseManager.PauseType",
          "name": "_pauseType",
          "type": "uint8"
        }
      ],
      "name": "unPauseByExpiredType",
      "outputs": [],
      "stateMutability": "nonpayable",
      "type": "function"
    },
    {
      "inputs": [
        {
          "internalType": "enum IPauseManager.PauseType",
          "name": "_pauseType",
          "type": "uint8"
        }
      ],
      "name": "unPauseByType",
      "outputs": [],
      "stateMutability": "nonpayable",
      "type": "function"
    },
    {
      "inputs": [
        {
          "internalType": "uint256",
          "name": "_proofType",
          "type": "uint256"
        }
      ],
      "name": "unsetVerifierAddress",
      "outputs": [],
      "stateMutability": "nonpayable",
      "type": "function"
    },
    {
      "inputs": [
        {
          "internalType": "enum IPauseManager.PauseType",
          "name": "_pauseType",
          "type": "uint8"
        },
        {
          "internalType": "bytes32",
          "name": "_newRole",
          "type": "bytes32"
        }
      ],
      "name": "updatePauseTypeRole",
      "outputs": [],
      "stateMutability": "nonpayable",
      "type": "function"
    },
    {
      "inputs": [
        {
          "internalType": "enum IPauseManager.PauseType",
          "name": "_pauseType",
          "type": "uint8"
        },
        {
          "internalType": "bytes32",
          "name": "_newRole",
          "type": "bytes32"
        }
      ],
      "name": "updateUnpauseTypeRole",
      "outputs": [],
      "stateMutability": "nonpayable",
      "type": "function"
    },
    {
      "inputs": [
        {
          "internalType": "uint256",
          "name": "proofType",
          "type": "uint256"
        }
      ],
      "name": "verifiers",
      "outputs": [
        {
          "internalType": "address",
          "name": "verifierAddress",
          "type": "address"
        }
      ],
      "stateMutability": "view",
      "type": "function"
    }
  ],
  "bytecode": "0x6080604052348015600e575f5ffd5b506015601f565b601b601f565b60d9565b5f54610100900460ff161560895760405162461bcd60e51b815260206004820152602760248201527f496e697469616c697a61626c653a20636f6e747261637420697320696e697469604482015266616c697a696e6760c81b606482015260840160405180910390fd5b5f5460ff9081161460d7575f805460ff191660ff9081179091556040519081527f7f26b83ff96e1f2b6a682f133852f6798a09c465da95921460cefb38474024989060200160405180910390a15b565b615616806100e65f395ff3fe60806040526004361061055e575f3560e01c806378ea198a116102c4578063ad422ff01161017b578063c1dc0f07116100dc578063d547741f11610092578063ee8289201161006d578063ee8289201461107d578063f4586fc8146110b9578063f5b541a6146110d8575f5ffd5b8063d547741f1461100c578063d722bbfc1461102b578063e196fb5d1461105e575f5ffd5b8063c294c918116100c2578063c294c91814610fa3578063cc6f725114610fc3578063cd9b9e9a14610ff6575f5ffd5b8063c1dc0f0714610f6f578063c211697414610f84575f5ffd5b8063b9174ba311610131578063bc61e73311610117578063bc61e73314610f08578063bf3e750514610f27578063c0729ab114610f5a575f5ffd5b8063b9174ba314610ea2578063b9fe5cf714610ed5575f5ffd5b8063ae15ceae11610161578063ae15ceae14610e46578063aea4f74514610e79578063b837dbe914610e8d575f5ffd5b8063ad422ff014610e05578063add9137a14610e1a575f5ffd5b806392fa129a116102255780639f3ce55a116101db578063a4c4cef7116101c1578063a4c4cef714610d87578063a505925f14610d9d578063ac1eff6814610dd0575f5ffd5b80639f3ce55a14610d61578063a217fddf14610d74575f5ffd5b8063986fcddd1161020b578063986fcddd14610b655780639ac25d0814610d0f5780639ee8b21114610d42575f5ffd5b806392fa129a14610cdb57806395ba81fa14610cf0575f5ffd5b8063914e57eb1161027a578063921b278e11610260578063921b278e14610c66578063923fe89414610c7c57806392dd3f8714610caf575f5ffd5b8063914e57eb14610bf657806391d1485414610c22575f5ffd5b80638be745d1116102aa5780638be745d114610b785780638c7c363a14610ba45780638de4948714610bc3575f5ffd5b806378ea198a14610b325780637d1e8c5514610b65575f5ffd5b8063516f1a441161041857806360e83cf3116103795780636a906b801161032f5780637174c559116103155780637174c55914610acc57806373bd07b714610aff578063755bc62f14610b13575f5ffd5b80636a906b8014610a665780636e67384314610a99575f5ffd5b80636463fb2a1161035f5780636463fb2a14610a1457806367e404ce14610a33578063695378f514610a50575f5ffd5b806360e83cf3146109b557806363213155146109e1575f5ffd5b8063557eac73116103ce5780635b7eb4bd116103b45780635b7eb4bd146108605780635c721a0c146109745780635ec775b01461099f575f5ffd5b8063557eac7314610940578063587944561461095f575f5ffd5b806352abf32d116103fe57806352abf32d146108ec57806352e576bb1461090b5780635334b7e614610921575f5ffd5b8063516f1a44146108865780635230eef2146108b9575f5ffd5b80632f2ff15d116104c25780633e9ebfc21161047857806342277d701161045e57806342277d701461080e57806343757d821461084157806348922ab714610860575f5ffd5b80633e9ebfc2146107c45780633fc08b65146107e3575f5ffd5b806338b90333116104a857806338b90333146107265780633b12eccb146107715780633c0f20fc146107a4575f5ffd5b80632f2ff15d146106e857806336568abe14610707575f5ffd5b8063248a9ca31161051757806328958174116104fd578063289581741461067b5780632acc8df91461069a5780632c70645c146106d2575f5ffd5b8063248a9ca31461063a578063248c612614610668575f5ffd5b80631065a399116105475780631065a399146105d75780632130d812146105f857806321b4deee14610624575f5ffd5b806301ffc9a71461056257806303134d1d14610596575b5f5ffd5b34801561056d575f5ffd5b5061058161057c366004614996565b61110b565b60405190151581526020015b60405180910390f35b3480156105a1575f5ffd5b506105c97f1ab87f7458c0e3d07e9881c14ee67f0141703614fd48ea5b15ed987e5f4b030e81565b60405190815260200161058d565b3480156105e2575f5ffd5b506105f66105f13660046149e8565b6111a3565b005b348015610603575f5ffd5b506105c9610612366004614a01565b5f9081526101be602052604090205490565b34801561062f575f5ffd5b506105c96203f48081565b348015610645575f5ffd5b506105c9610654366004614a01565b5f9081526065602052604090206001015490565b6105f6610676366004614a7c565b611333565b348015610686575f5ffd5b506105f6610695366004614a01565b611514565b3480156106a5575f5ffd5b506101c0546106ba906001600160a01b031681565b6040516001600160a01b03909116815260200161058d565b3480156106dd575f5ffd5b506105c96101835481565b3480156106f3575f5ffd5b506105f6610702366004614ae1565b6115c7565b348015610712575f5ffd5b506105f6610721366004614ae1565b6115f0565b348015610731575f5ffd5b50604080518082018252600381527f322e3000000000000000000000000000000000000000000000000000000000006020820152905161058d9190614b0f565b34801561077c575f5ffd5b506105c97fb6cc65f42901ed602aec1619cc1ead29d487cd489094a37615153eaeb991d77081565b3480156107af575f5ffd5b506101c1546106ba906001600160a01b031681565b3480156107cf575f5ffd5b506105f66107de366004614b62565b611696565b3480156107ee575f5ffd5b506105c96107fd366004614a01565b60a56020525f908152604090205481565b348015610819575f5ffd5b506105c97f012c76ef7f96cd7eb95acbdc250ad5696bbe3fd2fcf0207571939fa40c2e016781565b34801561084c575f5ffd5b506105f661085b366004614b8a565b6117f5565b34801561086b575f5ffd5b50610874600181565b60405160ff909116815260200161058d565b348015610891575f5ffd5b506105c97fb63b70db607c764adad98a6745fc4efcea212ebc7b501d5753c57d675f377a6681565b3480156108c4575f5ffd5b506105c97f0cf0d2deb70d7bdac2fa48c4ac99bc558170be0ce5fcb994caefa4bf7b96edf981565b3480156108f7575f5ffd5b506105f6610906366004614b62565b6119bf565b348015610916575f5ffd5b506105c96101c55481565b34801561092c575f5ffd5b506105f661093b366004614a01565b611b1e565b34801561094b575f5ffd5b506105f661095a366004614a01565b611bb7565b34801561096a575f5ffd5b506105c960995481565b34801561097f575f5ffd5b506105c961098e366004614a01565b60a66020525f908152604090205481565b3480156109aa575f5ffd5b506105c96201518081565b3480156109c0575f5ffd5b506105c96109cf366004614a01565b6101506020525f908152604090205481565b3480156109ec575f5ffd5b506105c97fe37c272ea30e2bb381ad7cf89ae754b49153250609f36d0cbdad8b64c184bb5c81565b348015610a1f575f5ffd5b506105f6610a2e366004614bc2565b611c7d565b348015610a3e575f5ffd5b5060015c6001600160a01b03166106ba565b348015610a5b575f5ffd5b506105c96101195481565b348015610a71575f5ffd5b506105c97fd8b4c34c2ec1f3194471108c64ad2beda340c0337ee4ca35592f9ef270f4228b81565b348015610aa4575f5ffd5b506105c97f32937fd5162e282df7e9a14a5073a2425321c7966eaf70ed6c838a1006d84c4c81565b348015610ad7575f5ffd5b506105c97f4b4665d8754e6ea0608430ef3e91c1b45c72aafe8800e289cd35f38d8536185881565b348015610b0a575f5ffd5b50610874600281565b348015610b1e575f5ffd5b506105f6610b2d366004614bfa565b611e14565b348015610b3d575f5ffd5b506105c97f4df33217c89b6f12af38ba46035cb312b5e88de78d22279286830fe079b642cd81565b348015610b70575f5ffd5b506108745f81565b348015610b83575f5ffd5b506105c9610b92366004614a01565b61011a6020525f908152604090205481565b348015610baf575f5ffd5b506105f6610bbe366004614c72565b611fc5565b348015610bce575f5ffd5b506105c97fe1fce82838dd7a42cfe783f60dc6233c8aa2c4fc66e77817805e767ec5e349b681565b348015610c01575f5ffd5b506105c9610c10366004614a01565b61014e6020525f908152604090205481565b348015610c2d575f5ffd5b50610581610c3c366004614ae1565b5f9182526065602090815260408084206001600160a01b0393909316845291905290205460ff1690565b348015610c71575f5ffd5b506105c96101bf5481565b348015610c87575f5ffd5b506105c97fcc10d6eec3c757d645e27b3f3001a3ba52f692da0bce25fabf58c6ecaf37645081565b348015610cba575f5ffd5b506105c9610cc9366004614a01565b6101c36020525f908152604090205481565b348015610ce6575f5ffd5b506105c960dd5481565b348015610cfb575f5ffd5b506105f6610d0a3660046149e8565b6120c0565b348015610d1a575f5ffd5b506105c97f56bdc3c9ec86cb7db110a7699b2ade72f0b8819727d9f7d906b012641505fa7781565b348015610d4d575f5ffd5b50610581610d5c366004614a01565b6121df565b6105f6610d6f366004614c8d565b612202565b348015610d7f575f5ffd5b506105c95f81565b348015610d92575f5ffd5b506105c96101c25481565b348015610da8575f5ffd5b506105c97f21aba2dd4535739d4ca4cddb3c024036bfcc88cfce067cb0847e7ad0f9cfaa5581565b348015610ddb575f5ffd5b506106ba610dea366004614a01565b61011b6020525f90815260409020546001600160a01b031681565b348015610e10575f5ffd5b506105c960985481565b348015610e25575f5ffd5b506105c9610e34366004614a01565b6101c46020525f908152604090205481565b348015610e51575f5ffd5b506105c97fdaafd36d8da81d5104d4fd21e3ccc58683c62ba08cd23875bcfbc0583a3f49dd81565b348015610e84575f5ffd5b506105f6612220565b348015610e98575f5ffd5b506105c960e45481565b348015610ead575f5ffd5b506105c97f430a7f0cb00b5ebbe63cecc96e82cf959a883e7c13a95110854f1fa6b3fbf59881565b348015610ee0575f5ffd5b506105c97f1453a531db80c85f2d944d498709d84959bc5bf839eefe9acb784571e5a3211881565b348015610f13575f5ffd5b50610581610f223660046149e8565b61227b565b348015610f32575f5ffd5b506105c97f1185e52d62bfbbea270e57d3d09733d221b53ab7a18bae82bb3c6c74bab16d8281565b348015610f65575f5ffd5b506105c9609a5481565b348015610f7a575f5ffd5b506105c960975481565b348015610f8f575f5ffd5b506105f6610f9e366004614ce5565b61229f565b348015610fae575f5ffd5b506101c6546106ba906001600160a01b031681565b348015610fce575f5ffd5b506105c97fe8cb6172fcf5cbaae022b7c910224a4f0c20d53227e630056efff182155a5abc81565b348015611001575f5ffd5b506105c96101bd5481565b348015611017575f5ffd5b506105f6611026366004614ae1565b6123a5565b348015611036575f5ffd5b506105c97f6b5661ddfbd1fbd525c902a513e0f47d9c74f1c1ee8a2d4f1937ad305fb8f41a81565b348015611069575f5ffd5b506105f66110783660046149e8565b6123c9565b348015611088575f5ffd5b506110916125a1565b604080519586526020860194909452928401919091526060830152608082015260a00161058d565b3480156110c4575f5ffd5b506105f66110d3366004614d01565b6125f0565b3480156110e3575f5ffd5b506105c97f97667070c54ef182b0f5858b034beac1b6f3089aa2d3188bb1e8929f4fa9b92981565b5f7fffffffff0000000000000000000000000000000000000000000000000000000082167f7965db0b00000000000000000000000000000000000000000000000000000000148061119d57507f01ffc9a7000000000000000000000000000000000000000000000000000000007fffffffff000000000000000000000000000000000000000000000000000000008316145b92915050565b805f81600d8111156111b7576111b7614d2a565b036111ee576040517f85994c7700000000000000000000000000000000000000000000000000000000815260040160405180910390fd5b60dc5f83600d81111561120357611203614d2a565b600d81111561121457611214614d2a565b81526020019081526020015f205461122b816126a4565b6112348361227b565b61127557826040517f1865965400000000000000000000000000000000000000000000000000000000815260040161126c9190614d90565b60405180910390fd5b335f9081527f74a8627e7e8109f70747bbdf2c891159d40f925b9c8f09259a497b8c31b3780b602052604090205460ff16156112bc576112b86201518042614dcb565b60dd555b82600d8111156112ce576112ce614d2a565b60da8054600190921b19909116905582600d8111156112ef576112ef614d2a565b7fd071d2b85dec4489435b541d2f0e2570db09b09db9efd8703948d44a433df65a335b6040516001600160a01b0390911681526020015b60405180910390a2505050565b7fb63b70db607c764adad98a6745fc4efcea212ebc7b501d5753c57d675f377a6661135d816126a4565b81611394576040517fafd51dbf00000000000000000000000000000000000000000000000000000000815260040160405180910390fd5b5f84116113cd576040517f9cf8540c00000000000000000000000000000000000000000000000000000000815260040160405180910390fd5b6001600160a01b03851661140d576040517f8579befe00000000000000000000000000000000000000000000000000000000815260040160405180910390fd5b85611444576040517f0742d05300000000000000000000000000000000000000000000000000000000815260040160405180910390fd5b6101c28054600181019091555f1981015f9081526101c36020526040902054859081116114a0576040517fbeb1b94800000000000000000000000000000000000000000000000000000000815260040161126c91815260200190565b505f8181526101c4602090815260408083208a90556101c390915290819020869055516001600160a01b0387169082907f8fbc8fbd65675eb32c567d4a559963c7d002c2be67b5b266fb13d85b4375fce5906115039089908c908a908a90614e25565b60405180910390a350505050505050565b7f6b5661ddfbd1fbd525c902a513e0f47d9c74f1c1ee8a2d4f1937ad305fb8f41a61153e816126a4565b5f82815261011b602090815260408083205490516001600160a01b0390911681523392859290917f4a29db3fc6b42bda201e4b4d69ce8d575eeeba5f153509c0d0a342af0f1bd021910160405180910390a4505f90815261011b6020526040902080547fffffffffffffffffffffffff0000000000000000000000000000000000000000169055565b5f828152606560205260409020600101546115e1816126a4565b6115eb83836126b1565b505050565b6001600160a01b0381163314611688576040517f08c379a000000000000000000000000000000000000000000000000000000000815260206004820152602f60248201527f416363657373436f6e74726f6c3a2063616e206f6e6c792072656e6f756e636560448201527f20726f6c657320666f722073656c660000000000000000000000000000000000606482015260840161126c565b611692828261276f565b5050565b815f81600d8111156116aa576116aa614d2a565b036116e1576040517f85994c7700000000000000000000000000000000000000000000000000000000815260040160405180910390fd5b7f1453a531db80c85f2d944d498709d84959bc5bf839eefe9acb784571e5a3211861170b816126a4565b5f60db5f86600d81111561172157611721614d2a565b600d81111561173257611732614d2a565b81526020019081526020015f2054905083810361177b576040517f1b807f5500000000000000000000000000000000000000000000000000000000815260040160405180910390fd5b8360db5f87600d81111561179157611791614d2a565b600d8111156117a2576117a2614d2a565b815260208101919091526040015f2055808486600d8111156117c6576117c6614d2a565b6040517f074bfc3728ef1e98bde10bcb5bd8cde59cff190c2bfda5d22f879f865a07bac5905f90a45050505050565b5f54610100900460ff161580801561181357505f54600160ff909116105b8061182c5750303b15801561182c57505f5460ff166001145b6118b8576040517f08c379a000000000000000000000000000000000000000000000000000000000815260206004820152602e60248201527f496e697469616c697a61626c653a20636f6e747261637420697320616c72656160448201527f647920696e697469616c697a6564000000000000000000000000000000000000606482015260840161126c565b5f80547fffffffffffffffffffffffffffffffffffffffffffffffffffffffffffffff001660011790558015611914575f80547fffffffffffffffffffffffffffffffffffffffffffffffffffffffffffff00ff166101001790555b604080515f8082526020808301829052853583850152606083018290526080830182905260a09092208082526101be9092529190912060019055611958838261280e565b508015611692575f80547fffffffffffffffffffffffffffffffffffffffffffffffffffffffffffff00ff169055604051600181527f7f26b83ff96e1f2b6a682f133852f6798a09c465da95921460cefb3847402498906020015b60405180910390a15050565b815f81600d8111156119d3576119d3614d2a565b03611a0a576040517f85994c7700000000000000000000000000000000000000000000000000000000815260040160405180910390fd5b7f1453a531db80c85f2d944d498709d84959bc5bf839eefe9acb784571e5a32118611a34816126a4565b5f60dc5f86600d811115611a4a57611a4a614d2a565b600d811115611a5b57611a5b614d2a565b81526020019081526020015f20549050838103611aa4576040517f1b807f5500000000000000000000000000000000000000000000000000000000815260040160405180910390fd5b8360dc5f87600d811115611aba57611aba614d2a565b600d811115611acb57611acb614d2a565b815260208101919091526040015f2055808486600d811115611aef57611aef614d2a565b6040517ff8ef9f1cde7c2c0d3aeb696678f76d7c1c3e13c3b79ea3c5160a2d9eaa821cfd905f90a45050505050565b7fdaafd36d8da81d5104d4fd21e3ccc58683c62ba08cd23875bcfbc0583a3f49dd611b48816126a4565b5f8211611b81576040517f9cf8540c00000000000000000000000000000000000000000000000000000000815260040160405180910390fd5b6101c58290556040518281527fc4733b619696e38077e1b19371d193f42b20a279e3445c3b2b9f4d58db36bc6b906020016119b3565b7f1185e52d62bfbbea270e57d3d09733d221b53ab7a18bae82bb3c6c74bab16d82611be1816126a4565b5f5f5f426099541015611c0657609754611bfb9042614e4e565b609955506001611c18565b609a54851015611c1857849250600191505b60988590558080611c265750815b15611c3157609a8390555b60408051868152831515602082015282151581830152905133917fbc3dc0cb5c15c51c81316450d44048838bb478b9809447d01c766a06f3e9f2c8919081900360600190a25050505050565b60015f5c03611cb8576040517f37ed32e800000000000000000000000000000000000000000000000000000000815260040160405180910390fd5b6001805f5d5060a08101803590611cd29060808401614c72565b611ce0610120840184614e61565b611cf1610100860160e08701614c72565b5f5a9050611cfe87612be8565b8515611e0557855f849003611d7b57853b158015611d79573a5a611d2461bc7c86614e4e565b611d2e9190614dcb565b611d389190614ec2565b915081881115611d75576001600160a01b0387166108fc611d59848b614dcb565b6040518115909202915f818181858888f1935050505050611d79565b8791505b505b5f6001600160a01b03841615611d915783611d93565b335b90505f816001600160a01b03166108fc8490811502906040515f60405180830381858888f19350505050905080611e01576040517fa57c4df40000000000000000000000000000000000000000000000000000000081526001600160a01b038316600482015260240161126c565b5050505b5050505050505f5f81905d5050565b6006611e1f81612eea565b7f97667070c54ef182b0f5858b034beac1b6f3089aa2d3188bb1e8929f4fa9b929611e49816126a4565b5f859003611e83576040517f7907d79b00000000000000000000000000000000000000000000000000000000815260040160405180910390fd5b610119545f81815261011a6020526040902054843514611ecf576040517fead4c30e00000000000000000000000000000000000000000000000000000000815260040160405180910390fd5b6101bd545f86815261011b60205260409020546001600160a01b031680611f22576040517f69ed70ab00000000000000000000000000000000000000000000000000000000815260040160405180910390fd5b6101e08601355f9081526101c46020526040902054611fb9611fb18885611f4a828987612f7c565b8886886001600160a01b031663b02384ad6040518163ffffffff1660e01b8152600401602060405180830381865afa158015611f88573d5f5f3e3d5ffd5b505050506040513d601f19601f82011682018060405250810190611fac9190614ed9565b6133c0565b838c8c6134c1565b50505050505050505050565b7f012c76ef7f96cd7eb95acbdc250ad5696bbe3fd2fcf0207571939fa40c2e0167611fef816126a4565b6001600160a01b03821661202f576040517f8579befe00000000000000000000000000000000000000000000000000000000815260040160405180910390fd5b6101c6546001600160a01b0390811690831681146115eb576101c680547fffffffffffffffffffffffff0000000000000000000000000000000000000000166001600160a01b0385811691821790925560408051928416835260208301919091527f70a40b63da92dd99e111281bc23dfb08922b6d1337f71f895cf498eb60ff7a0b910160405180910390a1505050565b805f81600d8111156120d4576120d4614d2a565b0361210b576040517f85994c7700000000000000000000000000000000000000000000000000000000815260040160405180910390fd5b6121148261227b565b61214c57816040517f1865965400000000000000000000000000000000000000000000000000000000815260040161126c9190614d90565b60dd5442101561218e5760dd546040517fcfd8aa6f00000000000000000000000000000000000000000000000000000000815260040161126c91815260200190565b81600d8111156121a0576121a0614d2a565b60da8054600190921b1990911690556040517f3ddaeb19197ed3b5334f4c1cd5716f663d0f6dce30c52800bd1674da0b88e87a906119b3908490614d90565b600881901c5f90815261014f6020526040812054600160ff84161b16151561119d565b600261220d81612eea565b612219858585856136e0565b5050505050565b7f0cf0d2deb70d7bdac2fa48c4ac99bc558170be0ce5fcb994caefa4bf7b96edf961224a816126a4565b5f609a81905560405133917fba88c025b0cbb77022c0c487beef24f759f1e4be2f51a205bc427cee19c2eaa691a250565b5f81600d81111561228e5761228e614d2a565b60da54600190911b16151592915050565b7f32937fd5162e282df7e9a14a5073a2425321c7966eaf70ed6c838a1006d84c4c6122c9816126a4565b6001600160a01b038316612309576040517f8579befe00000000000000000000000000000000000000000000000000000000815260040160405180910390fd5b5f82815261011b60209081526040918290205491516001600160a01b03928316815233928592908716917f4a29db3fc6b42bda201e4b4d69ce8d575eeeba5f153509c0d0a342af0f1bd021910160405180910390a4505f90815261011b6020526040902080547fffffffffffffffffffffffff0000000000000000000000000000000000000000166001600160a01b0392909216919091179055565b5f828152606560205260409020600101546123bf816126a4565b6115eb838361276f565b805f81600d8111156123dd576123dd614d2a565b03612414576040517f85994c7700000000000000000000000000000000000000000000000000000000815260040160405180910390fd5b60db5f83600d81111561242957612429614d2a565b600d81111561243a5761243a614d2a565b81526020019081526020015f2054612451816126a4565b61245a8361227b565b1561249357826040517fc0a71b5800000000000000000000000000000000000000000000000000000000815260040161126c9190614d90565b335f9081527f74a8627e7e8109f70747bbdf2c891159d40f925b9c8f09259a497b8c31b3780b602052604090205460ff16156124f2577ffffffffffffffffffffffffffffffffffffffffffffffffffffffffffffeae7f60dd55612548565b6201518060dd540142101561253e576201518060dd54016040517fc04205ee00000000000000000000000000000000000000000000000000000000815260040161126c91815260200190565b426203f4800160dd555b82600d81111561255a5761255a614d2a565b60da8054600190921b909117905582600d81111561257a5761257a614d2a565b7f534f879afd40abb4e39f8e1b77a316be4c8e3521d9cf5a3a3db8959d574d455933611312565b5f5f5f5f5f5f60016101c2546125b79190614dcb565b6101bf545f9182526101c460209081526040808420546101c390925290922054610119546101c554929a93995090975095509350915050565b600d6125fb81612eea565b7f97667070c54ef182b0f5858b034beac1b6f3089aa2d3188bb1e8929f4fa9b929612625816126a4565b5f84900361265f576040517f87fb99b300000000000000000000000000000000000000000000000000000000815260040160405180910390fd5b5f839003612699576040517ff9069dd800000000000000000000000000000000000000000000000000000000815260040160405180910390fd5b6122198585856137f6565b6126ae81336138d8565b50565b5f8281526065602090815260408083206001600160a01b038516845290915290205460ff16611692575f8281526065602090815260408083206001600160a01b0385168452909152902080547fffffffffffffffffffffffffffffffffffffffffffffffffffffffffffffff0016600117905561272b3390565b6001600160a01b0316816001600160a01b0316837f2f8788117e7eff1d82e926ec794901d17c78024a50270940304540a733656f0d60405160405180910390a45050565b5f8281526065602090815260408083206001600160a01b038516845290915290205460ff1615611692575f8281526065602090815260408083206001600160a01b038516808552925280832080547fffffffffffffffffffffffffffffffffffffffffffffffffffffffffffffff0016905551339285917ff6391f5c32d9c69d2a47ea670b442974b53935d1edc7fd64eb21e047a839171b9190a45050565b5f54610100900460ff166128a4576040517f08c379a000000000000000000000000000000000000000000000000000000000815260206004820152602b60248201527f496e697469616c697a61626c653a20636f6e7472616374206973206e6f74206960448201527f6e697469616c697a696e67000000000000000000000000000000000000000000606482015260840161126c565b5f6128b56080840160608501614c72565b6001600160a01b0316036128f5576040517f8579befe00000000000000000000000000000000000000000000000000000000815260040160405180910390fd5b5f61290861018084016101608501614c72565b6001600160a01b031603612948576040517f8579befe00000000000000000000000000000000000000000000000000000000815260040160405180910390fd5b61296b61295860e0840184614ef0565b612966610100860186614ef0565b613984565b61297d82608001358360a00135613c2b565b5f61299061014084016101208501614c72565b6001600160a01b0316036129d0576040517f8579befe00000000000000000000000000000000000000000000000000000000815260040160405180910390fd5b6129eb5f6129e661014085016101208601614c72565b6126b1565b612a006129fb60c0840184614ef0565b613cec565b612a106080830160608401614c72565b7f033d11f27e62ab919708ec716731da80d261a6e4253259b7acde9bf89d28ec1880547fffffffffffffffffffffffff0000000000000000000000000000000000000000166001600160a01b03929092169190911790556020828101356101198190555f90815261011a82526040808220853590556101bd84905580518281529283018290528281018290526060830191909152830135608082015260a090206101bf5560016101c2555f612acd61016084016101408501614c72565b90506001600160a01b038116612ae05750305b6101c180547fffffffffffffffffffffffff0000000000000000000000000000000000000000166001600160a01b038316179055612b2661018084016101608501614c72565b6101c680547fffffffffffffffffffffffff0000000000000000000000000000000000000000166001600160a01b039290921691909117905560408051808201909152600381527f322e3000000000000000000000000000000000000000000000000000000000006020820152612b9c90614f54565b77ffffffffffffffffffffffffffffffffffffffffffffffff19167f129e59eb8f5fd549b47c6f64a2a11d3b82e91c584db3af4b27cfe7339ac4716b84846040516113269291906150b7565b612bf26003612eea565b6101008101355f908152610150602052604081205490819003612c41576040517f4e68667500000000000000000000000000000000000000000000000000000000815260040160405180910390fd5b612c4b8280615227565b90508114612c9a5780612c5e8380615227565b6040517f5e3fd6ad000000000000000000000000000000000000000000000000000000008152600481019390935260248301525060440161126c565b612ca78260200135613e9a565b612cc1612cbc60c084013560a0850135614e4e565b613f12565b5f612d07612cd56080850160608601614c72565b612ce560a0860160808701614c72565b60a086013560c08701356020880135612d026101208a018a614e61565b613f88565b9050612d3281612d178580615227565b612d27606088016040890161528b565b876101000135613fe1565b612d68576040517fb05e92fa00000000000000000000000000000000000000000000000000000000815260040160405180910390fd5b612d786080840160608501614c72565b6001805c7fffffffffffffffffffffffff0000000000000000000000000000000000000000166001600160a01b03831617905d505f80612dbe60a0860160808701614c72565b6001600160a01b031660c0860135612dda610120880188614e61565b604051612de89291906152ae565b5f6040518083038185875af1925050503d805f8114612e22576040519150601f19603f3d011682016040523d82523d5f602084013e612e27565b606091505b509150915081612e8f57805115612e415780518082602001fd5b612e5160a0860160808701614c72565b6040517f546134430000000000000000000000000000000000000000000000000000000081526001600160a01b03909116600482015260240161126c565b5f6001805c7fffffffffffffffffffffffff000000000000000000000000000000000000000016905d5060405183907fa4c827e719e911e8f19393ccdb85b5102f08f0910604d340ba38390b7ff2ab0e905f90a25050505050565b60da5481600d811115612eff57612eff614d2a565b6001901b811615612f3e57816040517fc0a71b5800000000000000000000000000000000000000000000000000000000815260040161126c9190614d90565b60028116156116925760016040517fc0a71b5800000000000000000000000000000000000000000000000000000000815260040161126c9190614d90565b5f612f918461018001358561014001356140ee565b612fa7612fa2610240860186615227565b6141bb565b6101bf5460408051610160870135815261012087013560208201526101c087013591810191909152610200860135606082015260e0860135608082015260a09020811461307b57604080516101608701358152610120870135602082015260e08701359181019190915260609020811461307b57604080516101608701358152610120870135602082015260e0870135818301526060902090517fbc5aad1100000000000000000000000000000000000000000000000000000000815260048101839052602481019190915260440161126c565b42856101000135106130c6576040517fbf81c6e0000000000000000000000000000000000000000000000000000000008152610100860135600482015242602482015260440161126c565b6080850135613101576040517f2898482a00000000000000000000000000000000000000000000000000000000815260040160405180910390fd5b60016101e0860135015f9081526101c36020526040902054801580159061312c575085602001358111155b1561316d576040517fb90e2e8400000000000000000000000000000000000000000000000000000000815260016101e088013501600482015260240161126c565b506131b160408601356060870135608088013560a089013560c08a0135604080519586526020860194909452928401919091526060830152608082015260a0902090565b6101c1546040517f2130d812000000000000000000000000000000000000000000000000000000008152600481018390529193506001600160a01b031690632130d81290602401602060405180830381865afa158015613213573d5f5f3e3d5ffd5b505050506040513d601f19601f820116820180604052508101906132379190614ed9565b5f03613272576040517fd35bb1d10000000000000000000000000000000000000000000000000000000081526004810183905260240161126c565b61328e613283610220870187615227565b876101a00135614305565b6132a561329f610260870187614e61565b8661440b565b6020808601355f81815261011a909252604090912060808701359055610119556101bd82905561330e6101808601356101408701356101e0880135866101008a0135604080519586526020860194909452928401919091526060830152608082015260a0902090565b6101bf556040805161010087013581526101808701356020808301919091526101e088013582840152915191870135917f32e016ccc5c33419c35caa94023fdeb75143da613fb2ac738ab736404c09fc5d9181900360600190a2604080518635815260808701356020828101919091526001909601958492908801359187917fa0262dc79e4ccb71ceac8574ae906311ae338aa4a2044fd4ec4b99fad5ab60cb910160405180910390a4509392505050565b5f806133d0610240890189615227565b6040516020016133e19291906152bd565b604051602081830303815290604052805190602001209050604051878152866020820152604060e08a0160408301378560808201526020808a0160a083013760806101208a0160c083013760206102008a016101408301378461016082015260406101c08a0161018083013760206101a08a016101c083013761020081016102208a01358a018035602081026020830184376020029091206101e0830152506102008101939093526102208301525061024090207f30644e72e131a029b85045b68181585d2833e84879b9709143e1f593f0000001900695945050505050565b6040805160018082528183019092525f916020808301908036833701905050905084815f815181106134f5576134f561532b565b6020026020010181815250505f5f856001600160a01b031685858560405160240161352293929190615358565b604080517fffffffffffffffffffffffffffffffffffffffffffffffffffffffffffffffe08184030181529181526020820180517bffffffffffffffffffffffffffffffffffffffffffffffffffffffff167f7e4f7a8a00000000000000000000000000000000000000000000000000000000179052516135a391906153c9565b5f604051808303815f865af19150503d805f81146135dc576040519150601f19603f3d011682016040523d82523d5f602084013e6135e1565b606091505b5091509150816136885780511561362657602081017bffffffffffffffffffffffffffffffffffffffffffffffffffffffff81511663ca389c4460e01b178152815181fd5b6040517fca389c4400000000000000000000000000000000000000000000000000000000815260206004820152600760248201527f556e6b6e6f776e00000000000000000000000000000000000000000000000000604482015260640161126c565b5f8180602001905181019061369d91906153d4565b9050806136d6576040517f09bde33900000000000000000000000000000000000000000000000000000000815260040160405180910390fd5b5050505050505050565b6001600160a01b038416613720576040517f8579befe00000000000000000000000000000000000000000000000000000000815260040160405180910390fd5b3483111561375a576040517fb03b693200000000000000000000000000000000000000000000000000000000815260040160405180910390fd5b60e480545f918261376a836153f3565b9091555090505f61377b8534614dcb565b90505f61378d33888885878a8a613f88565b90506137998382614498565b80876001600160a01b0316336001600160a01b03167fe856c2b8bd4eb0027ce32eeaf595c21b0b6b4644b326e5b7bd80a1cf8db72e6c8986888b8b6040516137e595949392919061540b565b60405180910390a450505050505050565b5f8381526101be60205260409020548390613840576040517fc77b964c00000000000000000000000000000000000000000000000000000000815260040161126c91815260200190565b505f8281526101be602052604090205482901561388c576040517fe69adeca00000000000000000000000000000000000000000000000000000000815260040161126c91815260200190565b505f8281526101be602090815260409182902060019055815185815290810183905283917f55f4c645c36aa5cd3f443d6be44d7a7a5df9d2100d7139dfc69d4289ee0723199101611326565b5f8281526065602090815260408083206001600160a01b038516845290915290205460ff166116925761390a816144f5565b613915836020614507565b60405160200161392692919061543b565b604080517fffffffffffffffffffffffffffffffffffffffffffffffffffffffffffffffe0818403018152908290527f08c379a000000000000000000000000000000000000000000000000000000000825261126c91600401614b0f565b5f54610100900460ff16613a1a576040517f08c379a000000000000000000000000000000000000000000000000000000000815260206004820152602b60248201527f496e697469616c697a61626c653a20636f6e7472616374206973206e6f74206960448201527f6e697469616c697a696e67000000000000000000000000000000000000000000606482015260840161126c565b5f5b83811015613b2257848482818110613a3657613a3661532b565b9050604002016020013560db5f878785818110613a5557613a5561532b565b613a6b92602060409092020190810191506149e8565b600d811115613a7c57613a7c614d2a565b600d811115613a8d57613a8d614d2a565b815260208101919091526040015f2055848482818110613aaf57613aaf61532b565b90506040020160200135858583818110613acb57613acb61532b565b613ae192602060409092020190810191506149e8565b600d811115613af257613af2614d2a565b6040517f33aa8fd1ce49e1761bc8d27fd53414bfefc45d690feed0ce55019d7d3aec6091905f90a3600101613a1c565b505f5b8181101561221957828282818110613b3f57613b3f61532b565b9050604002016020013560dc5f858585818110613b5e57613b5e61532b565b613b7492602060409092020190810191506149e8565b600d811115613b8557613b85614d2a565b600d811115613b9657613b96614d2a565b815260208101919091526040015f2055828282818110613bb857613bb861532b565b90506040020160200135838383818110613bd457613bd461532b565b613bea92602060409092020190810191506149e8565b600d811115613bfb57613bfb614d2a565b6040517fe7bf4b8dc0c17a52dc9e52323a3ab61cb2079db35f969125b1f8a3d984c6f6c2905f90a3600101613b25565b5f54610100900460ff16613cc1576040517f08c379a000000000000000000000000000000000000000000000000000000000815260206004820152602b60248201527f496e697469616c697a61626c653a20636f6e7472616374206973206e6f74206960448201527f6e697469616c697a696e67000000000000000000000000000000000000000000606482015260840161126c565b613cc961474b565b613cd161474b565b613cd961474b565b613ce382826147e3565b5050600160e455565b5f54610100900460ff16613d82576040517f08c379a000000000000000000000000000000000000000000000000000000000815260206004820152602b60248201527f496e697469616c697a61626c653a20636f6e7472616374206973206e6f74206960448201527f6e697469616c697a696e67000000000000000000000000000000000000000000606482015260840161126c565b5f5b818110156115eb575f838383818110613d9f57613d9f61532b565b613db59260206040909202019081019150614c72565b6001600160a01b031603613df5576040517f8579befe00000000000000000000000000000000000000000000000000000000815260040160405180910390fd5b828282818110613e0757613e0761532b565b905060400201602001355f5f1b03613e4b576040517f0742d05300000000000000000000000000000000000000000000000000000000815260040160405180910390fd5b613e92838383818110613e6057613e6061532b565b90506040020160200135848484818110613e7c57613e7c61532b565b6129e69260206040909202019081019150614c72565b600101613d84565b600881901c5f90815261014f6020526040902054600160ff83161b1615613ef0576040517f335a4a900000000000000000000000000000000000000000000000000000000081526004810182905260240161126c565b600881901c5f90815261014f602052604090208054600160ff84161b17905550565b80156126ae57426099541015613f3757609754613f2f9042614e4e565b609955613f47565b609a54613f449082614e4e565b90505b609854811115613f83576040517fa74c1c5f00000000000000000000000000000000000000000000000000000000815260040160405180910390fd5b609a55565b5f60405188815287602082015286604082015285606082015284608082015260c060a08201528260c0820152602083065f8115613fc6578160200390505b848660e085013790930160e001902098975050505050505050565b5f806140026001613ff3876002615588565b613ffd9190614dcb565b614949565b90508063ffffffff168463ffffffff16111561405a576040517ff7ec909700000000000000000000000000000000000000000000000000000000815263ffffffff80861660048301528216602482015260440161126c565b865f5b868110156140e057600163ffffffff8716821c811690036140aa576140a388888381811061408d5761408d61532b565b90506020020135835f9182526020526040902090565b91506140d8565b6140d5828989848181106140c0576140c061532b565b905060200201355f9182526020526040902090565b91505b60010161405d565b509092149695505050505050565b815f03614130578015611692576040517f0c2565920000000000000000000000000000000000000000000000000000000081526004810182905260240161126c565b8061416a576040517f5228f4c80000000000000000000000000000000000000000000000000000000081526004810183905260240161126c565b5f82815261014e60205260409020548114611692576040517f36459fa0000000000000000000000000000000000000000000000000000000008152600481018390526024810182905260440161126c565b8015611692576101c6546001600160a01b03165f5b828110156142ff57816001600160a01b0316631d5150838585848181106141f9576141f961532b565b905060200201602081019061420e9190614c72565b6040517fffffffff0000000000000000000000000000000000000000000000000000000060e084901b1681526001600160a01b039091166004820152602401602060405180830381865afa158015614268573d5f5f3e3d5ffd5b505050506040513d601f19601f8201168201806040525081019061428c91906153d4565b84848381811061429e5761429e61532b565b90506020020160208101906142b39190614c72565b906142f6576040517fec4f874b0000000000000000000000000000000000000000000000000000000081526001600160a01b03909116600482015260240161126c565b506001016141d0565b50505050565b5f5b828110156142ff576101505f8585848181106143255761432561532b565b9050602002013581526020019081526020015f20545f1461438e578383828181106143525761435261532b565b905060200201356040517fe5d1442500000000000000000000000000000000000000000000000000000000815260040161126c91815260200190565b816101505f8686858181106143a5576143a561532b565b9050602002013581526020019081526020015f2081905550818484838181106143d0576143d061532b565b905060200201357f300e6f978eee6a4b0bba78dd8400dc64fd5652dbfc868a2258e16d0977be222b60405160405180910390a3600101614307565b614416600283615593565b15614450576040517f0c91d7760000000000000000000000000000000000000000000000000000000081526004810183905260240161126c565b5f5f5b83811015612219576040518582013560f01c9250838301907f3c116827db9db3a30c1a25db8b0ee4bab9d2b223560209cfd839601b621c726d905f90a2600201614453565b5f1982015f90815261014e60208181526040808420548452848252808420868552929091528083208290555190918391839186917fea3b023b4c8680d4b4824f0143132c95476359a2bb70a81d6c5a36f6918f63399190a4505050565b606061119d6001600160a01b03831660145b60605f614515836002614ec2565b614520906002614e4e565b67ffffffffffffffff811115614538576145386152fe565b6040519080825280601f01601f191660200182016040528015614562576020820181803683370190505b5090507f3000000000000000000000000000000000000000000000000000000000000000815f815181106145985761459861532b565b60200101907effffffffffffffffffffffffffffffffffffffffffffffffffffffffffffff191690815f1a9053507f7800000000000000000000000000000000000000000000000000000000000000816001815181106145fa576145fa61532b565b60200101907effffffffffffffffffffffffffffffffffffffffffffffffffffffffffffff191690815f1a9053505f614634846002614ec2565b61463f906001614e4e565b90505b60018111156146db577f303132333435363738396162636465660000000000000000000000000000000085600f16601081106146805761468061532b565b1a60f81b8282815181106146965761469661532b565b60200101907effffffffffffffffffffffffffffffffffffffffffffffffffffffffffffff191690815f1a90535060049490941c936146d4816155cb565b9050614642565b508315614744576040517f08c379a000000000000000000000000000000000000000000000000000000000815260206004820181905260248201527f537472696e67733a20686578206c656e67746820696e73756666696369656e74604482015260640161126c565b9392505050565b5f54610100900460ff166147e1576040517f08c379a000000000000000000000000000000000000000000000000000000000815260206004820152602b60248201527f496e697469616c697a61626c653a20636f6e7472616374206973206e6f74206960448201527f6e697469616c697a696e67000000000000000000000000000000000000000000606482015260840161126c565b565b5f54610100900460ff16614879576040517f08c379a000000000000000000000000000000000000000000000000000000000815260206004820152602b60248201527f496e697469616c697a61626c653a20636f6e7472616374206973206e6f74206960448201527f6e697469616c697a696e67000000000000000000000000000000000000000000606482015260840161126c565b815f036148b2576040517fb5ed5a3b00000000000000000000000000000000000000000000000000000000815260040160405180910390fd5b805f036148eb576040517fd10d72bb00000000000000000000000000000000000000000000000000000000815260040160405180910390fd5b609782905560988190556148ff8242614e4e565b60998190556097546098546040805192835260208301919091528101919091527f8f805c372b66240792580418b7328c0c554ae235f0932475c51b026887fe26a9906060016119b3565b5f63ffffffff821115614992576040517f6dfcc650000000000000000000000000000000000000000000000000000000008152602060048201526024810183905260440161126c565b5090565b5f602082840312156149a6575f5ffd5b81357fffffffff0000000000000000000000000000000000000000000000000000000081168114614744575f5ffd5b8035600e81106149e3575f5ffd5b919050565b5f602082840312156149f8575f5ffd5b614744826149d5565b5f60208284031215614a11575f5ffd5b5035919050565b6001600160a01b03811681146126ae575f5ffd5b80356149e381614a18565b5f5f83601f840112614a47575f5ffd5b50813567ffffffffffffffff811115614a5e575f5ffd5b602083019150836020828501011115614a75575f5ffd5b9250929050565b5f5f5f5f5f60808688031215614a90575f5ffd5b853594506020860135614aa281614a18565b935060408601359250606086013567ffffffffffffffff811115614ac4575f5ffd5b614ad088828901614a37565b969995985093965092949392505050565b5f5f60408385031215614af2575f5ffd5b823591506020830135614b0481614a18565b809150509250929050565b602081525f82518060208401528060208501604085015e5f6040828501015260407fffffffffffffffffffffffffffffffffffffffffffffffffffffffffffffffe0601f83011684010191505092915050565b5f5f60408385031215614b73575f5ffd5b614b7c836149d5565b946020939093013593505050565b5f60208284031215614b9a575f5ffd5b813567ffffffffffffffff811115614bb0575f5ffd5b82016101808185031215614744575f5ffd5b5f60208284031215614bd2575f5ffd5b813567ffffffffffffffff811115614be8575f5ffd5b82016101408185031215614744575f5ffd5b5f5f5f5f60608587031215614c0d575f5ffd5b843567ffffffffffffffff811115614c23575f5ffd5b614c2f87828801614a37565b90955093505060208501359150604085013567ffffffffffffffff811115614c55575f5ffd5b85016102808188031215614c67575f5ffd5b939692955090935050565b5f60208284031215614c82575f5ffd5b813561474481614a18565b5f5f5f5f60608587031215614ca0575f5ffd5b8435614cab81614a18565b935060208501359250604085013567ffffffffffffffff811115614ccd575f5ffd5b614cd987828801614a37565b95989497509550505050565b5f5f60408385031215614cf6575f5ffd5b8235614b7c81614a18565b5f5f5f60608486031215614d13575f5ffd5b505081359360208301359350604090920135919050565b7f4e487b71000000000000000000000000000000000000000000000000000000005f52602160045260245ffd5b600e8110614d8c577f4e487b71000000000000000000000000000000000000000000000000000000005f52602160045260245ffd5b9052565b6020810161119d8284614d57565b7f4e487b71000000000000000000000000000000000000000000000000000000005f52601160045260245ffd5b8181038181111561119d5761119d614d9e565b81835281816020850137505f602082840101525f60207fffffffffffffffffffffffffffffffffffffffffffffffffffffffffffffffe0601f840116840101905092915050565b848152836020820152606060408201525f614e44606083018486614dde565b9695505050505050565b8082018082111561119d5761119d614d9e565b5f5f83357fffffffffffffffffffffffffffffffffffffffffffffffffffffffffffffffe1843603018112614e94575f5ffd5b83018035915067ffffffffffffffff821115614eae575f5ffd5b602001915036819003821315614a75575f5ffd5b808202811582820484141761119d5761119d614d9e565b5f60208284031215614ee9575f5ffd5b5051919050565b5f5f83357fffffffffffffffffffffffffffffffffffffffffffffffffffffffffffffffe1843603018112614f23575f5ffd5b83018035915067ffffffffffffffff821115614f3d575f5ffd5b6020019150600681901b3603821315614a75575f5ffd5b805160208201517fffffffffffffffff000000000000000000000000000000000000000000000000811691906008821015614fb9577fffffffffffffffff000000000000000000000000000000000000000000000000808360080360031b1b82161692505b5050919050565b5f5f83357fffffffffffffffffffffffffffffffffffffffffffffffffffffffffffffffe1843603018112614ff3575f5ffd5b830160208101925035905067ffffffffffffffff811115615012575f5ffd5b8060061b3603821315614a75575f5ffd5b8183526020830192505f815f5b8481101561506a57813561504381614a18565b6001600160a01b031686526020828101359087015260409586019590910190600101615030565b5093949350505050565b8183526020830192505f815f5b8481101561506a5761509b86615096846149d5565b614d57565b6020828101359087015260409586019590910190600101615081565b604080825283358282015260208401356060808401919091529084013560808301525f906150e6908501614a2c565b6001600160a01b03811660a084015250608084013560c08381019190915260a085013560e084015261511a90850185614fc0565b6101806101008501526151326101c085018284615023565b91505061514260e0860186614fc0565b7fffffffffffffffffffffffffffffffffffffffffffffffffffffffffffffffc085840301610120860152615178838284615074565b9250505061518a610100860186614fc0565b7fffffffffffffffffffffffffffffffffffffffffffffffffffffffffffffffc0858403016101408601526151c0838284615074565b925050506151d16101208601614a2c565b6001600160a01b03166101608401526151ed6101408601614a2c565b6001600160a01b03166101808401526152096101608601614a2c565b6001600160a01b03166101a084015260209092019290925292915050565b5f5f83357fffffffffffffffffffffffffffffffffffffffffffffffffffffffffffffffe184360301811261525a575f5ffd5b83018035915067ffffffffffffffff821115615274575f5ffd5b6020019150600581901b3603821315614a75575f5ffd5b5f6020828403121561529b575f5ffd5b813563ffffffff81168114614744575f5ffd5b818382375f9101908152919050565b5f8184825b858110156152f35781356152d581614a18565b6001600160a01b0316835260209283019291909101906001016152c2565b509095945050505050565b7f4e487b71000000000000000000000000000000000000000000000000000000005f52604160045260245ffd5b7f4e487b71000000000000000000000000000000000000000000000000000000005f52603260045260245ffd5b604081525f61536b604083018587614dde565b82810360208401528084518083526020830191506020860192505f5b818110156153a5578351835260209384019390920191600101615387565b5090979650505050505050565b5f81518060208401855e5f93019283525090919050565b5f61474482846153b2565b5f602082840312156153e4575f5ffd5b81518015158114614744575f5ffd5b5f5f19820361540457615404614d9e565b5060010190565b858152846020820152836040820152608060608201525f615430608083018486614dde565b979650505050505050565b7f416363657373436f6e74726f6c3a206163636f756e742000000000000000000081525f61546c60178301856153b2565b7f206973206d697373696e6720726f6c6520000000000000000000000000000000815261549c60118201856153b2565b95945050505050565b6001815b60018411156154e0578085048111156154c4576154c4614d9e565b60018416156154d257908102905b60019390931c9280026154a9565b935093915050565b5f826154f65750600161119d565b8161550257505f61119d565b816001811461551857600281146155225761553e565b600191505061119d565b60ff84111561553357615533614d9e565b50506001821b61119d565b5060208310610133831016604e8410600b8410161715615561575081810a61119d565b61556d5f1984846154a5565b805f190482111561558057615580614d9e565b029392505050565b5f61474483836154e8565b5f826155c6577f4e487b71000000000000000000000000000000000000000000000000000000005f52601260045260245ffd5b500690565b5f816155d9576155d9614d9e565b505f19019056fea26469706673582212208af8a241eac6b7af59785671dbef990e99f6d2e3991707601c3b88ad4a107fef64736f6c63430008210033",
  "linkReferences": {},
  "deployedLinkReferences": {}
}