{
  "_format": "hh-sol-artifact-1",
  "contractName": "Validium",
  "sourceName": "src/rollup/Validium.sol",
  "abi": [
    {
      "inputs": [],
      "stateMutability": "nonpayable",
      "type": "constructor"
    },
    {
      "inputs": [],
      "name": "BytesLengthNotMultipleOf32",
      "type": "error"
    },
    {
      "inputs": [
        {
          "internalType": "uint256",
          "name": "bytesLength",
          "type": "uint256"
        }
      ],
      "name": "BytesLengthNotMultipleOfTwo",
      "type": "error"
    },
    {
      "inputs": [],
      "name": "CallerNotProxyAdmin",
      "type": "error"
    },
    {
      "inputs": [
        {
          "internalType": "address",
          "name": "recipient",
          "type": "address"
        }
      ],
      "name": "FeePaymentFailed",
      "type": "error"
    },
    {
      "inputs": [],
      "name": "FeeTooLow",
      "type": "error"
    },
    {
      "inputs": [
        {
          "internalType": "bytes32",
          "name": "shnarf",
          "type": "bytes32"
        }
      ],
      "name": "FinalBlobNotSubmitted",
      "type": "error"
    },
    {
      "inputs": [],
      "name": "FinalBlockStateEqualsZeroHash",
      "type": "error"
    },
    {
      "inputs": [
        {
          "internalType": "bytes32",
          "name": "expected",
          "type": "bytes32"
        },
        {
          "internalType": "bytes32",
          "name": "value",
          "type": "bytes32"
        }
      ],
      "name": "FinalShnarfWrong",
      "type": "error"
    },
    {
      "inputs": [],
      "name": "FinalStateRootHashIsZeroHash",
      "type": "error"
    },
    {
      "inputs": [
        {
          "internalType": "uint256",
          "name": "l2BlockTimestamp",
          "type": "uint256"
        },
        {
          "internalType": "uint256",
          "name": "currentBlockTimestamp",
          "type": "uint256"
        }
      ],
      "name": "FinalizationInTheFuture",
      "type": "error"
    },
    {
      "inputs": [
        {
          "internalType": "bytes32",
          "name": "expected",
          "type": "bytes32"
        },
        {
          "internalType": "bytes32",
          "name": "value",
          "type": "bytes32"
        }
      ],
      "name": "FinalizationStateIncorrect",
      "type": "error"
    },
    {
      "inputs": [],
      "name": "InvalidMerkleProof",
      "type": "error"
    },
    {
      "inputs": [],
      "name": "InvalidProof",
      "type": "error"
    },
    {
      "inputs": [
        {
          "internalType": "string",
          "name": "errorReason",
          "type": "string"
        }
      ],
      "name": "InvalidProofOrProofVerificationRanOutOfGas",
      "type": "error"
    },
    {
      "inputs": [],
      "name": "InvalidProofType",
      "type": "error"
    },
    {
      "inputs": [
        {
          "internalType": "enum IPauseManager.PauseType",
          "name": "pauseType",
          "type": "uint8"
        }
      ],
      "name": "IsNotPaused",
      "type": "error"
    },
    {
      "inputs": [
        {
          "internalType": "enum IPauseManager.PauseType",
          "name": "pauseType",
          "type": "uint8"
        }
      ],
      "name": "IsPaused",
      "type": "error"
    },
    {
      "inputs": [
        {
          "internalType": "uint256",
          "name": "messageNumber",
          "type": "uint256"
        },
        {
          "internalType": "bytes32",
          "name": "rollingHash",
          "type": "bytes32"
        }
      ],
      "name": "L1RollingHashDoesNotExistOnL1",
      "type": "error"
    },
    {
      "inputs": [
        {
          "internalType": "bytes32",
          "name": "merkleRoot",
          "type": "bytes32"
        }
      ],
      "name": "L2MerkleRootAlreadyAnchored",
      "type": "error"
    },
    {
      "inputs": [],
      "name": "L2MerkleRootDoesNotExist",
      "type": "error"
    },
    {
      "inputs": [],
      "name": "LastFinalizationTimeNotLapsed",
      "type": "error"
    },
    {
      "inputs": [
        {
          "internalType": "uint32",
          "name": "leafIndex",
          "type": "uint32"
        },
        {
          "internalType": "uint32",
          "name": "maxAllowedIndex",
          "type": "uint32"
        }
      ],
      "name": "LeafIndexOutOfBounds",
      "type": "error"
    },
    {
      "inputs": [],
      "name": "LimitIsZero",
      "type": "error"
    },
    {
      "inputs": [
        {
          "internalType": "uint256",
          "name": "messageIndex",
          "type": "uint256"
        }
      ],
      "name": "MessageAlreadyClaimed",
      "type": "error"
    },
    {
      "inputs": [
        {
          "internalType": "bytes32",
          "name": "messageHash",
          "type": "bytes32"
        }
      ],
      "name": "MessageDoesNotExistOrHasAlreadyBeenClaimed",
      "type": "error"
    },
    {
      "inputs": [
        {
          "internalType": "address",
          "name": "destination",
          "type": "address"
        }
      ],
      "name": "MessageSendingFailed",
      "type": "error"
    },
    {
      "inputs": [
        {
          "internalType": "bytes32",
          "name": "rollingHash",
          "type": "bytes32"
        }
      ],
      "name": "MissingMessageNumberForRollingHash",
      "type": "error"
    },
    {
      "inputs": [
        {
          "internalType": "uint256",
          "name": "messageNumber",
          "type": "uint256"
        }
      ],
      "name": "MissingRollingHashForMessageNumber",
      "type": "error"
    },
    {
      "inputs": [],
      "name": "OnlyNonFallbackOperator",
      "type": "error"
    },
    {
      "inputs": [
        {
          "internalType": "bytes32",
          "name": "shnarf",
          "type": "bytes32"
        }
      ],
      "name": "ParentShnarfNotSubmitted",
      "type": "error"
    },
    {
      "inputs": [
        {
          "internalType": "uint256",
          "name": "expiryEnd",
          "type": "uint256"
        }
      ],
      "name": "PauseNotExpired",
      "type": "error"
    },
    {
      "inputs": [],
      "name": "PauseTypeNotUsed",
      "type": "error"
    },
    {
      "inputs": [
        {
          "internalType": "uint256",
          "name": "cooldownEnd",
          "type": "uint256"
        }
      ],
      "name": "PauseUnavailableDueToCooldown",
      "type": "error"
    },
    {
      "inputs": [],
      "name": "PeriodIsZero",
      "type": "error"
    },
    {
      "inputs": [],
      "name": "ProofIsEmpty",
      "type": "error"
    },
    {
      "inputs": [
        {
          "internalType": "uint256",
          "name": "actual",
          "type": "uint256"
        },
        {
          "internalType": "uint256",
          "name": "expected",
          "type": "uint256"
        }
      ],
      "name": "ProofLengthDifferentThanMerkleDepth",
      "type": "error"
    },
    {
      "inputs": [],
      "name": "RateLimitExceeded",
      "type": "error"
    },
    {
      "inputs": [],
      "name": "ReentrantCall",
      "type": "error"
    },
    {
      "inputs": [],
      "name": "RolesNotDifferent",
      "type": "error"
    },
    {
      "inputs": [
        {
          "internalType": "uint8",
          "name": "bits",
          "type": "uint8"
        },
        {
          "internalType": "uint256",
          "name": "value",
          "type": "uint256"
        }
      ],
      "name": "SafeCastOverflowedUintDowncast",
      "type": "error"
    },
    {
      "inputs": [
        {
          "internalType": "bytes32",
          "name": "shnarf",
          "type": "bytes32"
        }
      ],
      "name": "ShnarfAlreadySubmitted",
      "type": "error"
    },
    {
      "inputs": [],
      "name": "ShnarfSubmissionIsZeroHash",
      "type": "error"
    },
    {
      "inputs": [],
      "name": "StartingRootHashDoesNotMatch",
      "type": "error"
    },
    {
      "inputs": [],
      "name": "ValueSentTooLow",
      "type": "error"
    },
    {
      "inputs": [],
      "name": "ZeroAddressNotAllowed",
      "type": "error"
    },
    {
      "inputs": [],
      "name": "ZeroHashNotAllowed",
      "type": "error"
    },
    {
      "anonymous": false,
      "inputs": [
        {
          "indexed": true,
          "internalType": "address",
          "name": "resettingAddress",
          "type": "address"
        }
      ],
      "name": "AmountUsedInPeriodReset",
      "type": "event"
    },
    {
      "anonymous": false,
      "inputs": [
        {
          "indexed": true,
          "internalType": "uint256",
          "name": "startBlockNumber",
          "type": "uint256"
        },
        {
          "indexed": true,
          "internalType": "uint256",
          "name": "endBlockNumber",
          "type": "uint256"
        },
        {
          "indexed": true,
          "internalType": "bytes32",
          "name": "shnarf",
          "type": "bytes32"
        },
        {
          "indexed": false,
          "internalType": "bytes32",
          "name": "parentStateRootHash",
          "type": "bytes32"
        },
        {
          "indexed": false,
          "internalType": "bytes32",
          "name": "finalStateRootHash",
          "type": "bytes32"
        }
      ],
      "name": "DataFinalizedV3",
      "type": "event"
    },
    {
      "anonymous": false,
      "inputs": [
        {
          "indexed": false,
          "internalType": "bytes32",
          "name": "parentShnarf",
          "type": "bytes32"
        },
        {
          "indexed": true,
          "internalType": "bytes32",
          "name": "shnarf",
          "type": "bytes32"
        },
        {
          "indexed": false,
          "internalType": "bytes32",
          "name": "finalStateRootHash",
          "type": "bytes32"
        }
      ],
      "name": "DataSubmittedV3",
      "type": "event"
    },
    {
      "anonymous": false,
      "inputs": [
        {
          "indexed": false,
          "internalType": "uint8",
          "name": "version",
          "type": "uint8"
        }
      ],
      "name": "Initialized",
      "type": "event"
    },
    {
      "anonymous": false,
      "inputs": [
        {
          "indexed": true,
          "internalType": "bytes32",
          "name": "l2MerkleRoot",
          "type": "bytes32"
        },
        {
          "indexed": true,
          "internalType": "uint256",
          "name": "treeDepth",
          "type": "uint256"
        }
      ],
      "name": "L2MerkleRootAdded",
      "type": "event"
    },
    {
      "anonymous": false,
      "inputs": [
        {
          "indexed": true,
          "internalType": "uint256",
          "name": "l2Block",
          "type": "uint256"
        }
      ],
      "name": "L2MessagingBlockAnchored",
      "type": "event"
    },
    {
      "anonymous": false,
      "inputs": [
        {
          "indexed": true,
          "internalType": "address",
          "name": "amountChangeBy",
          "type": "address"
        },
        {
          "indexed": false,
          "internalType": "uint256",
          "name": "amount",
          "type": "uint256"
        },
        {
          "indexed": false,
          "internalType": "bool",
          "name": "amountUsedLoweredToLimit",
          "type": "bool"
        },
        {
          "indexed": false,
          "internalType": "bool",
          "name": "usedAmountResetToZero",
          "type": "bool"
        }
      ],
      "name": "LimitAmountChanged",
      "type": "event"
    },
    {
      "anonymous": false,
      "inputs": [
        {
          "components": [
            {
              "internalType": "bytes32",
              "name": "initialStateRootHash",
              "type": "bytes32"
            },
            {
              "internalType": "uint256",
              "name": "initialL2BlockNumber",
              "type": "uint256"
            },
            {
              "internalType": "uint256",
              "name": "genesisTimestamp",
              "type": "uint256"
            },
            {
              "internalType": "address",
              "name": "defaultVerifier",
              "type": "address"
            },
            {
              "internalType": "uint256",
              "name": "rateLimitPeriodInSeconds",
              "type": "uint256"
            },
            {
              "internalType": "uint256",
              "name": "rateLimitAmountInWei",
              "type": "uint256"
            },
            {
              "components": [
                {
                  "internalType": "address",
                  "name": "addressWithRole",
                  "type": "address"
                },
                {
                  "internalType": "bytes32",
                  "name": "role",
                  "type": "bytes32"
                }
              ],
              "internalType": "struct IPermissionsManager.RoleAddress[]",
              "name": "roleAddresses",
              "type": "tuple[]"
            },
            {
              "components": [
                {
                  "internalType": "enum IPauseManager.PauseType",
                  "name": "pauseType",
                  "type": "uint8"
                },
                {
                  "internalType": "bytes32",
                  "name": "role",
                  "type": "bytes32"
                }
              ],
              "internalType": "struct IPauseManager.PauseTypeRole[]",
              "name": "pauseTypeRoles",
              "type": "tuple[]"
            },
            {
              "components": [
                {
                  "internalType": "enum IPauseManager.PauseType",
                  "name": "pauseType",
                  "type": "uint8"
                },
                {
                  "internalType": "bytes32",
                  "name": "role",
                  "type": "bytes32"
                }
              ],
              "internalType": "struct IPauseManager.PauseTypeRole[]",
              "name": "unpauseTypeRoles",
              "type": "tuple[]"
            },
            {
              "internalType": "address",
              "name": "defaultAdmin",
              "type": "address"
            },
            {
              "internalType": "address",
              "name": "shnarfProvider",
              "type": "address"
            }
          ],
          "indexed": false,
          "internalType": "struct ILineaRollupBase.BaseInitializationData",
          "name": "InitializationData",
          "type": "tuple"
        }
      ],
      "name": "LineaRollupBaseInitialized",
      "type": "event"
    },
    {
      "anonymous": false,
      "inputs": [
        {
          "indexed": true,
          "internalType": "bytes8",
          "name": "previousVersion",
          "type": "bytes8"
        },
        {
          "indexed": true,
          "internalType": "bytes8",
          "name": "newVersion",
          "type": "bytes8"
        }
      ],
      "name": "LineaRollupVersionChanged",
      "type": "event"
    },
    {
      "anonymous": false,
      "inputs": [
        {
          "indexed": true,
          "internalType": "bytes32",
          "name": "_messageHash",
          "type": "bytes32"
        }
      ],
      "name": "MessageClaimed",
      "type": "event"
    },
    {
      "anonymous": false,
      "inputs": [
        {
          "indexed": true,
          "internalType": "address",
          "name": "_from",
          "type": "address"
        },
        {
          "indexed": true,
          "internalType": "address",
          "name": "_to",
          "type": "address"
        },
        {
          "indexed": false,
          "internalType": "uint256",
          "name": "_fee",
          "type": "uint256"
        },
        {
          "indexed": false,
          "internalType": "uint256",
          "name": "_value",
          "type": "uint256"
        },
        {
          "indexed": false,
          "internalType": "uint256",
          "name": "_nonce",
          "type": "uint256"
        },
        {
          "indexed": false,
          "internalType": "bytes",
          "name": "_calldata",
          "type": "bytes"
        },
        {
          "indexed": true,
          "internalType": "bytes32",
          "name": "_messageHash",
          "type": "bytes32"
        }
      ],
      "name": "MessageSent",
      "type": "event"
    },
    {
      "anonymous": false,
      "inputs": [
        {
          "indexed": true,
          "internalType": "enum IPauseManager.PauseType",
          "name": "pauseType",
          "type": "uint8"
        },
        {
          "indexed": true,
          "internalType": "bytes32",
          "name": "role",
          "type": "bytes32"
        }
      ],
      "name": "PauseTypeRoleSet",
      "type": "event"
    },
    {
      "anonymous": false,
      "inputs": [
        {
          "indexed": true,
          "internalType": "enum IPauseManager.PauseType",
          "name": "pauseType",
          "type": "uint8"
        },
        {
          "indexed": true,
          "internalType": "bytes32",
          "name": "role",
          "type": "bytes32"
        },
        {
          "indexed": true,
          "internalType": "bytes32",
          "name": "previousRole",
          "type": "bytes32"
        }
      ],
      "name": "PauseTypeRoleUpdated",
      "type": "event"
    },
    {
      "anonymous": false,
      "inputs": [
        {
          "indexed": false,
          "internalType": "address",
          "name": "messageSender",
          "type": "address"
        },
        {
          "indexed": true,
          "internalType": "enum IPauseManager.PauseType",
          "name": "pauseType",
          "type": "uint8"
        }
      ],
      "name": "Paused",
      "type": "event"
    },
    {
      "anonymous": false,
      "inputs": [
        {
          "indexed": false,
          "internalType": "uint256",
          "name": "periodInSeconds",
          "type": "uint256"
        },
        {
          "indexed": false,
          "internalType": "uint256",
          "name": "limitInWei",
          "type": "uint256"
        },
        {
          "indexed": false,
          "internalType": "uint256",
          "name": "currentPeriodEnd",
          "type": "uint256"
        }
      ],
      "name": "RateLimitInitialized",
      "type": "event"
    },
    {
      "anonymous": false,
      "inputs": [
        {
          "indexed": true,
          "internalType": "bytes32",
          "name": "role",
          "type": "bytes32"
        },
        {
          "indexed": true,
          "internalType": "bytes32",
          "name": "previousAdminRole",
          "type": "bytes32"
        },
        {
          "indexed": true,
          "internalType": "bytes32",
          "name": "newAdminRole",
          "type": "bytes32"
        }
      ],
      "name": "RoleAdminChanged",
      "type": "event"
    },
    {
      "anonymous": false,
      "inputs": [
        {
          "indexed": true,
          "internalType": "bytes32",
          "name": "role",
          "type": "bytes32"
        },
        {
          "indexed": true,
          "internalType": "address",
          "name": "account",
          "type": "address"
        },
        {
          "indexed": true,
          "internalType": "address",
          "name": "sender",
          "type": "address"
        }
      ],
      "name": "RoleGranted",
      "type": "event"
    },
    {
      "anonymous": false,
      "inputs": [
        {
          "indexed": true,
          "internalType": "bytes32",
          "name": "role",
          "type": "bytes32"
        },
        {
          "indexed": true,
          "internalType": "address",
          "name": "account",
          "type": "address"
        },
        {
          "indexed": true,
          "internalType": "address",
          "name": "sender",
          "type": "address"
        }
      ],
      "name": "RoleRevoked",
      "type": "event"
    },
    {
      "anonymous": false,
      "inputs": [
        {
          "indexed": true,
          "internalType": "uint256",
          "name": "messageNumber",
          "type": "uint256"
        },
        {
          "indexed": true,
          "internalType": "bytes32",
          "name": "rollingHash",
          "type": "bytes32"
        },
        {
          "indexed": true,
          "internalType": "bytes32",
          "name": "messageHash",
          "type": "bytes32"
        }
      ],
      "name": "RollingHashUpdated",
      "type": "event"
    },
    {
      "anonymous": false,
      "inputs": [
        {
          "indexed": true,
          "internalType": "enum IPauseManager.PauseType",
          "name": "unPauseType",
          "type": "uint8"
        },
        {
          "indexed": true,
          "internalType": "bytes32",
          "name": "role",
          "type": "bytes32"
        }
      ],
      "name": "UnPauseTypeRoleSet",
      "type": "event"
    },
    {
      "anonymous": false,
      "inputs": [
        {
          "indexed": true,
          "internalType": "enum IPauseManager.PauseType",
          "name": "unPauseType",
          "type": "uint8"
        },
        {
          "indexed": true,
          "internalType": "bytes32",
          "name": "role",
          "type": "bytes32"
        },
        {
          "indexed": true,
          "internalType": "bytes32",
          "name": "previousRole",
          "type": "bytes32"
        }
      ],
      "name": "UnPauseTypeRoleUpdated",
      "type": "event"
    },
    {
      "anonymous": false,
      "inputs": [
        {
          "indexed": false,
          "internalType": "address",
          "name": "messageSender",
          "type": "address"
        },
        {
          "indexed": true,
          "internalType": "enum IPauseManager.PauseType",
          "name": "pauseType",
          "type": "uint8"
        }
      ],
      "name": "UnPaused",
      "type": "event"
    },
    {
      "anonymous": false,
      "inputs": [
        {
          "indexed": false,
          "internalType": "enum IPauseManager.PauseType",
          "name": "pauseType",
          "type": "uint8"
        }
      ],
      "name": "UnPausedDueToExpiry",
      "type": "event"
    },
    {
      "anonymous": false,
      "inputs": [
        {
          "indexed": true,
          "internalType": "address",
          "name": "verifierAddress",
          "type": "address"
        },
        {
          "indexed": true,
          "internalType": "uint256",
          "name": "proofType",
          "type": "uint256"
        },
        {
          "indexed": true,
          "internalType": "address",
          "name": "verifierSetBy",
          "type": "address"
        },
        {
          "indexed": false,
          "internalType": "address",
          "name": "oldVerifierAddress",
          "type": "address"
        }
      ],
      "name": "VerifierAddressChanged",
      "type": "event"
    },
    {
      "inputs": [],
      "name": "CONTRACT_VERSION",
      "outputs": [
        {
          "internalType": "string",
          "name": "contractVersion",
          "type": "string"
        }
      ],
      "stateMutability": "view",
      "type": "function"
    },
    {
      "inputs": [],
      "name": "COOLDOWN_DURATION",
      "outputs": [
        {
          "internalType": "uint256",
          "name": "",
          "type": "uint256"
        }
      ],
      "stateMutability": "view",
      "type": "function"
    },
    {
      "inputs": [],
      "name": "DEFAULT_ADMIN_ROLE",
      "outputs": [
        {
          "internalType": "bytes32",
          "name": "",
          "type": "bytes32"
        }
      ],
      "stateMutability": "view",
      "type": "function"
    },
    {
      "inputs": [],
      "name": "INBOX_STATUS_RECEIVED",
      "outputs": [
        {
          "internalType": "uint8",
          "name": "",
          "type": "uint8"
        }
      ],
      "stateMutability": "view",
      "type": "function"
    },
    {
      "inputs": [],
      "name": "INBOX_STATUS_UNKNOWN",
      "outputs": [
        {
          "internalType": "uint8",
          "name": "",
          "type": "uint8"
        }
      ],
      "stateMutability": "view",
      "type": "function"
    },
    {
      "inputs": [],
      "name": "OPERATOR_ROLE",
      "outputs": [
        {
          "internalType": "bytes32",
          "name": "",
          "type": "bytes32"
        }
      ],
      "stateMutability": "view",
      "type": "function"
    },
    {
      "inputs": [],
      "name": "OUTBOX_STATUS_RECEIVED",
      "outputs": [
        {
          "internalType": "uint8",
          "name": "",
          "type": "uint8"
        }
      ],
      "stateMutability": "view",
      "type": "function"
    },
    {
      "inputs": [],
      "name": "OUTBOX_STATUS_SENT",
      "outputs": [
        {
          "internalType": "uint8",
          "name": "",
          "type": "uint8"
        }
      ],
      "stateMutability": "view",
      "type": "function"
    },
    {
      "inputs": [],
      "name": "OUTBOX_STATUS_UNKNOWN",
      "outputs": [
        {
          "internalType": "uint8",
          "name": "",
          "type": "uint8"
        }
      ],
      "stateMutability": "view",
      "type": "function"
    },
    {
      "inputs": [],
      "name": "PAUSE_ALL_ROLE",
      "outputs": [
        {
          "internalType": "bytes32",
          "name": "",
          "type": "bytes32"
        }
      ],
      "stateMutability": "view",
      "type": "function"
    },
    {
      "inputs": [],
      "name": "PAUSE_BLOB_SUBMISSION_ROLE",
      "outputs": [
        {
          "internalType": "bytes32",
          "name": "",
          "type": "bytes32"
        }
      ],
      "stateMutability": "view",
      "type": "function"
    },
    {
      "inputs": [],
      "name": "PAUSE_DURATION",
      "outputs": [
        {
          "internalType": "uint256",
          "name": "",
          "type": "uint256"
        }
      ],
      "stateMutability": "view",
      "type": "function"
    },
    {
      "inputs": [],
      "name": "PAUSE_FINALIZATION_ROLE",
      "outputs": [
        {
          "internalType": "bytes32",
          "name": "",
          "type": "bytes32"
        }
      ],
      "stateMutability": "view",
      "type": "function"
    },
    {
      "inputs": [],
      "name": "PAUSE_L1_L2_ROLE",
      "outputs": [
        {
          "internalType": "bytes32",
          "name": "",
          "type": "bytes32"
        }
      ],
      "stateMutability": "view",
      "type": "function"
    },
    {
      "inputs": [],
      "name": "PAUSE_L2_L1_ROLE",
      "outputs": [
        {
          "internalType": "bytes32",
          "name": "",
          "type": "bytes32"
        }
      ],
      "stateMutability": "view",
      "type": "function"
    },
    {
      "inputs": [],
      "name": "PAUSE_SHNARF_SUBMISSION_ROLE",
      "outputs": [
        {
          "internalType": "bytes32",
          "name": "",
          "type": "bytes32"
        }
      ],
      "stateMutability": "view",
      "type": "function"
    },
    {
      "inputs": [],
      "name": "RATE_LIMIT_SETTER_ROLE",
      "outputs": [
        {
          "internalType": "bytes32",
          "name": "",
          "type": "bytes32"
        }
      ],
      "stateMutability": "view",
      "type": "function"
    },
    {
      "inputs": [],
      "name": "SECURITY_COUNCIL_ROLE",
      "outputs": [
        {
          "internalType": "bytes32",
          "name": "",
          "type": "bytes32"
        }
      ],
      "stateMutability": "view",
      "type": "function"
    },
    {
      "inputs": [],
      "name": "UNPAUSE_ALL_ROLE",
      "outputs": [
        {
          "internalType": "bytes32",
          "name": "",
          "type": "bytes32"
        }
      ],
      "stateMutability": "view",
      "type": "function"
    },
    {
      "inputs": [],
      "name": "UNPAUSE_BLOB_SUBMISSION_ROLE",
      "outputs": [
        {
          "internalType": "bytes32",
          "name": "",
          "type": "bytes32"
        }
      ],
      "stateMutability": "view",
      "type": "function"
    },
    {
      "inputs": [],
      "name": "UNPAUSE_FINALIZATION_ROLE",
      "outputs": [
        {
          "internalType": "bytes32",
          "name": "",
          "type": "bytes32"
        }
      ],
      "stateMutability": "view",
      "type": "function"
    },
    {
      "inputs": [],
      "name": "UNPAUSE_L1_L2_ROLE",
      "outputs": [
        {
          "internalType": "bytes32",
          "name": "",
          "type": "bytes32"
        }
      ],
      "stateMutability": "view",
      "type": "function"
    },
    {
      "inputs": [],
      "name": "UNPAUSE_L2_L1_ROLE",
      "outputs": [
        {
          "internalType": "bytes32",
          "name": "",
          "type": "bytes32"
        }
      ],
      "stateMutability": "view",
      "type": "function"
    },
    {
      "inputs": [],
      "name": "UNPAUSE_SHNARF_SUBMISSION_ROLE",
      "outputs": [
        {
          "internalType": "bytes32",
          "name": "",
          "type": "bytes32"
        }
      ],
      "stateMutability": "view",
      "type": "function"
    },
    {
      "inputs": [],
      "name": "USED_RATE_LIMIT_RESETTER_ROLE",
      "outputs": [
        {
          "internalType": "bytes32",
          "name": "",
          "type": "bytes32"
        }
      ],
      "stateMutability": "view",
      "type": "function"
    },
    {
      "inputs": [],
      "name": "VERIFIER_SETTER_ROLE",
      "outputs": [
        {
          "internalType": "bytes32",
          "name": "",
          "type": "bytes32"
        }
      ],
      "stateMutability": "view",
      "type": "function"
    },
    {
      "inputs": [],
      "name": "VERIFIER_UNSETTER_ROLE",
      "outputs": [
        {
          "internalType": "bytes32",
          "name": "",
          "type": "bytes32"
        }
      ],
      "stateMutability": "view",
      "type": "function"
    },
    {
      "inputs": [
        {
          "internalType": "bytes32",
          "name": "_parentShnarf",
          "type": "bytes32"
        },
        {
          "internalType": "bytes32",
          "name": "_shnarf",
          "type": "bytes32"
        },
        {
          "internalType": "bytes32",
          "name": "_finalStateRootHash",
          "type": "bytes32"
        }
      ],
      "name": "acceptShnarfData",
      "outputs": [],
      "stateMutability": "nonpayable",
      "type": "function"
    },
    {
      "inputs": [
        {
          "internalType": "bytes32",
          "name": "_shnarf",
          "type": "bytes32"
        }
      ],
      "name": "blobShnarfExists",
      "outputs": [
        {
          "internalType": "uint256",
          "name": "shnarfExists",
          "type": "uint256"
        }
      ],
      "stateMutability": "view",
      "type": "function"
    },
    {
      "inputs": [
        {
          "components": [
            {
              "internalType": "bytes32[]",
              "name": "proof",
              "type": "bytes32[]"
            },
            {
              "internalType": "uint256",
              "name": "messageNumber",
              "type": "uint256"
            },
            {
              "internalType": "uint32",
              "name": "leafIndex",
              "type": "uint32"
            },
            {
              "internalType": "address",
              "name": "from",
              "type": "address"
            },
            {
              "internalType": "address",
              "name": "to",
              "type": "address"
            },
            {
              "internalType": "uint256",
              "name": "fee",
              "type": "uint256"
            },
            {
              "internalType": "uint256",
              "name": "value",
              "type": "uint256"
            },
            {
              "internalType": "address payable",
              "name": "feeRecipient",
              "type": "address"
            },
            {
              "internalType": "bytes32",
              "name": "merkleRoot",
              "type": "bytes32"
            },
            {
              "internalType": "bytes",
              "name": "data",
              "type": "bytes"
            }
          ],
          "internalType": "struct IL1MessageService.ClaimMessageWithProofParams",
          "name": "_params",
          "type": "tuple"
        }
      ],
      "name": "claimMessageWithProof",
      "outputs": [],
      "stateMutability": "nonpayable",
      "type": "function"
    },
    {
      "inputs": [],
      "name": "currentFinalizedShnarf",
      "outputs": [
        {
          "internalType": "bytes32",
          "name": "",
          "type": "bytes32"
        }
      ],
      "stateMutability": "view",
      "type": "function"
    },
    {
      "inputs": [],
      "name": "currentFinalizedState",
      "outputs": [
        {
          "internalType": "bytes32",
          "name": "",
          "type": "bytes32"
        }
      ],
      "stateMutability": "view",
      "type": "function"
    },
    {
      "inputs": [],
      "name": "currentL2BlockNumber",
      "outputs": [
        {
          "internalType": "uint256",
          "name": "",
          "type": "uint256"
        }
      ],
      "stateMutability": "view",
      "type": "function"
    },
    {
      "inputs": [],
      "name": "currentPeriodAmountInWei",
      "outputs": [
        {
          "internalType": "uint256",
          "name": "",
          "type": "uint256"
        }
      ],
      "stateMutability": "view",
      "type": "function"
    },
    {
      "inputs": [],
      "name": "currentPeriodEnd",
      "outputs": [
        {
          "internalType": "uint256",
          "name": "",
          "type": "uint256"
        }
      ],
      "stateMutability": "view",
      "type": "function"
    },
    {
      "inputs": [],
      "name": "fallbackOperator",
      "outputs": [
        {
          "internalType": "address",
          "name": "",
          "type": "address"
        }
      ],
      "stateMutability": "view",
      "type": "function"
    },
    {
      "inputs": [
        {
          "internalType": "bytes",
          "name": "_aggregatedProof",
          "type": "bytes"
        },
        {
          "internalType": "uint256",
          "name": "_proofType",
          "type": "uint256"
        },
        {
          "components": [
            {
              "internalType": "bytes32",
              "name": "parentStateRootHash",
              "type": "bytes32"
            },
            {
              "internalType": "uint256",
              "name": "endBlockNumber",
              "type": "uint256"
            },
            {
              "components": [
                {
                  "internalType": "bytes32",
                  "name": "parentShnarf",
                  "type": "bytes32"
                },
                {
                  "internalType": "bytes32",
                  "name": "snarkHash",
                  "type": "bytes32"
                },
                {
                  "internalType": "bytes32",
                  "name": "finalStateRootHash",
                  "type": "bytes32"
                },
                {
                  "internalType": "bytes32",
                  "name": "dataEvaluationPoint",
                  "type": "bytes32"
                },
                {
                  "internalType": "bytes32",
                  "name": "dataEvaluationClaim",
                  "type": "bytes32"
                }
              ],
              "internalType": "struct ILineaRollupBase.ShnarfData",
              "name": "shnarfData",
              "type": "tuple"
            },
            {
              "internalType": "uint256",
              "name": "lastFinalizedTimestamp",
              "type": "uint256"
            },
            {
              "internalType": "uint256",
              "name": "finalTimestamp",
              "type": "uint256"
            },
            {
              "internalType": "bytes32",
              "name": "lastFinalizedL1RollingHash",
              "type": "bytes32"
            },
            {
              "internalType": "bytes32",
              "name": "l1RollingHash",
              "type": "bytes32"
            },
            {
              "internalType": "uint256",
              "name": "lastFinalizedL1RollingHashMessageNumber",
              "type": "uint256"
            },
            {
              "internalType": "uint256",
              "name": "l1RollingHashMessageNumber",
              "type": "uint256"
            },
            {
              "internalType": "uint256",
              "name": "l2MerkleTreesDepth",
              "type": "uint256"
            },
            {
              "internalType": "bytes32[]",
              "name": "l2MerkleRoots",
              "type": "bytes32[]"
            },
            {
              "internalType": "bytes",
              "name": "l2MessagingBlocksOffsets",
              "type": "bytes"
            }
          ],
          "internalType": "struct ILineaRollupBase.FinalizationDataV3",
          "name": "_finalizationData",
          "type": "tuple"
        }
      ],
      "name": "finalizeBlocks",
      "outputs": [],
      "stateMutability": "nonpayable",
      "type": "function"
    },
    {
      "inputs": [
        {
          "internalType": "bytes32",
          "name": "role",
          "type": "bytes32"
        }
      ],
      "name": "getRoleAdmin",
      "outputs": [
        {
          "internalType": "bytes32",
          "name": "",
          "type": "bytes32"
        }
      ],
      "stateMutability": "view",
      "type": "function"
    },
    {
      "inputs": [
        {
          "internalType": "bytes32",
          "name": "role",
          "type": "bytes32"
        },
        {
          "internalType": "address",
          "name": "account",
          "type": "address"
        }
      ],
      "name": "grantRole",
      "outputs": [],
      "stateMutability": "nonpayable",
      "type": "function"
    },
    {
      "inputs": [
        {
          "internalType": "bytes32",
          "name": "role",
          "type": "bytes32"
        },
        {
          "internalType": "address",
          "name": "account",
          "type": "address"
        }
      ],
      "name": "hasRole",
      "outputs": [
        {
          "internalType": "bool",
          "name": "",
          "type": "bool"
        }
      ],
      "stateMutability": "view",
      "type": "function"
    },
    {
      "inputs": [
        {
          "internalType": "bytes32",
          "name": "messageHash",
          "type": "bytes32"
        }
      ],
      "name": "inboxL2L1MessageStatus",
      "outputs": [
        {
          "internalType": "uint256",
          "name": "messageStatus",
          "type": "uint256"
        }
      ],
      "stateMutability": "view",
      "type": "function"
    },
    {
      "inputs": [
        {
          "components": [
            {
              "internalType": "bytes32",
              "name": "initialStateRootHash",
              "type": "bytes32"
            },
            {
              "internalType": "uint256",
              "name": "initialL2BlockNumber",
              "type": "uint256"
            },
            {
              "internalType": "uint256",
              "name": "genesisTimestamp",
              "type": "uint256"
            },
            {
              "internalType": "address",
              "name": "defaultVerifier",
              "type": "address"
            },
            {
              "internalType": "uint256",
              "name": "rateLimitPeriodInSeconds",
              "type": "uint256"
            },
            {
              "internalType": "uint256",
              "name": "rateLimitAmountInWei",
              "type": "uint256"
            },
            {
              "components": [
                {
                  "internalType": "address",
                  "name": "addressWithRole",
                  "type": "address"
                },
                {
                  "internalType": "bytes32",
                  "name": "role",
                  "type": "bytes32"
                }
              ],
              "internalType": "struct IPermissionsManager.RoleAddress[]",
              "name": "roleAddresses",
              "type": "tuple[]"
            },
            {
              "components": [
                {
                  "internalType": "enum IPauseManager.PauseType",
                  "name": "pauseType",
                  "type": "uint8"
                },
                {
                  "internalType": "bytes32",
                  "name": "role",
                  "type": "bytes32"
                }
              ],
              "internalType": "struct IPauseManager.PauseTypeRole[]",
              "name": "pauseTypeRoles",
              "type": "tuple[]"
            },
            {
              "components": [
                {
                  "internalType": "enum IPauseManager.PauseType",
                  "name": "pauseType",
                  "type": "uint8"
                },
                {
                  "internalType": "bytes32",
                  "name": "role",
                  "type": "bytes32"
                }
              ],
              "internalType": "struct IPauseManager.PauseTypeRole[]",
              "name": "unpauseTypeRoles",
              "type": "tuple[]"
            },
            {
              "internalType": "address",
              "name": "defaultAdmin",
              "type": "address"
            },
            {
              "internalType": "address",
              "name": "shnarfProvider",
              "type": "address"
            }
          ],
          "internalType": "struct ILineaRollupBase.BaseInitializationData",
          "name": "_initializationData",
          "type": "tuple"
        }
      ],
      "name": "initialize",
      "outputs": [],
      "stateMutability": "nonpayable",
      "type": "function"
    },
    {
      "inputs": [
        {
          "internalType": "uint256",
          "name": "_messageNumber",
          "type": "uint256"
        }
      ],
      "name": "isMessageClaimed",
      "outputs": [
        {
          "internalType": "bool",
          "name": "isClaimed",
          "type": "bool"
        }
      ],
      "stateMutability": "view",
      "type": "function"
    },
    {
      "inputs": [
        {
          "internalType": "enum IPauseManager.PauseType",
          "name": "_pauseType",
          "type": "uint8"
        }
      ],
      "name": "isPaused",
      "outputs": [
        {
          "internalType": "bool",
          "name": "pauseTypeIsPaused",
          "type": "bool"
        }
      ],
      "stateMutability": "view",
      "type": "function"
    },
    {
      "inputs": [
        {
          "internalType": "bytes32",
          "name": "merkleRoot",
          "type": "bytes32"
        }
      ],
      "name": "l2MerkleRootsDepths",
      "outputs": [
        {
          "internalType": "uint256",
          "name": "treeDepth",
          "type": "uint256"
        }
      ],
      "stateMutability": "view",
      "type": "function"
    },
    {
      "inputs": [],
      "name": "limitInWei",
      "outputs": [
        {
          "internalType": "uint256",
          "name": "",
          "type": "uint256"
        }
      ],
      "stateMutability": "view",
      "type": "function"
    },
    {
      "inputs": [],
      "name": "nextMessageNumber",
      "outputs": [
        {
          "internalType": "uint256",
          "name": "",
          "type": "uint256"
        }
      ],
      "stateMutability": "view",
      "type": "function"
    },
    {
      "inputs": [
        {
          "internalType": "bytes32",
          "name": "messageHash",
          "type": "bytes32"
        }
      ],
      "name": "outboxL1L2MessageStatus",
      "outputs": [
        {
          "internalType": "uint256",
          "name": "messageStatus",
          "type": "uint256"
        }
      ],
      "stateMutability": "view",
      "type": "function"
    },
    {
      "inputs": [
        {
          "internalType": "enum IPauseManager.PauseType",
          "name": "_pauseType",
          "type": "uint8"
        }
      ],
      "name": "pauseByType",
      "outputs": [],
      "stateMutability": "nonpayable",
      "type": "function"
    },
    {
      "inputs": [],
      "name": "pauseExpiryTimestamp",
      "outputs": [
        {
          "internalType": "uint256",
          "name": "",
          "type": "uint256"
        }
      ],
      "stateMutability": "view",
      "type": "function"
    },
    {
      "inputs": [],
      "name": "periodInSeconds",
      "outputs": [
        {
          "internalType": "uint256",
          "name": "",
          "type": "uint256"
        }
      ],
      "stateMutability": "view",
      "type": "function"
    },
    {
      "inputs": [
        {
          "internalType": "bytes32",
          "name": "role",
          "type": "bytes32"
        },
        {
          "internalType": "address",
          "name": "account",
          "type": "address"
        }
      ],
      "name": "renounceRole",
      "outputs": [],
      "stateMutability": "nonpayable",
      "type": "function"
    },
    {
      "inputs": [],
      "name": "resetAmountUsedInPeriod",
      "outputs": [],
      "stateMutability": "nonpayable",
      "type": "function"
    },
    {
      "inputs": [
        {
          "internalType": "uint256",
          "name": "_amount",
          "type": "uint256"
        }
      ],
      "name": "resetRateLimitAmount",
      "outputs": [],
      "stateMutability": "nonpayable",
      "type": "function"
    },
    {
      "inputs": [
        {
          "internalType": "bytes32",
          "name": "role",
          "type": "bytes32"
        },
        {
          "internalType": "address",
          "name": "account",
          "type": "address"
        }
      ],
      "name": "revokeRole",
      "outputs": [],
      "stateMutability": "nonpayable",
      "type": "function"
    },
    {
      "inputs": [
        {
          "internalType": "uint256",
          "name": "messageNumber",
          "type": "uint256"
        }
      ],
      "name": "rollingHashes",
      "outputs": [
        {
          "internalType": "bytes32",
          "name": "rollingHash",
          "type": "bytes32"
        }
      ],
      "stateMutability": "view",
      "type": "function"
    },
    {
      "inputs": [
        {
          "internalType": "address",
          "name": "_to",
          "type": "address"
        },
        {
          "internalType": "uint256",
          "name": "_fee",
          "type": "uint256"
        },
        {
          "internalType": "bytes",
          "name": "_calldata",
          "type": "bytes"
        }
      ],
      "name": "sendMessage",
      "outputs": [],
      "stateMutability": "payable",
      "type": "function"
    },
    {
      "inputs": [],
      "name": "sender",
      "outputs": [
        {
          "internalType": "address",
          "name": "originalSender",
          "type": "address"
        }
      ],
      "stateMutability": "view",
      "type": "function"
    },
    {
      "inputs": [
        {
          "internalType": "address",
          "name": "_newVerifierAddress",
          "type": "address"
        },
        {
          "internalType": "uint256",
          "name": "_proofType",
          "type": "uint256"
        }
      ],
      "name": "setVerifierAddress",
      "outputs": [],
      "stateMutability": "nonpayable",
      "type": "function"
    },
    {
      "inputs": [],
      "name": "shnarfProvider",
      "outputs": [
        {
          "internalType": "contract IProvideShnarf",
          "name": "",
          "type": "address"
        }
      ],
      "stateMutability": "view",
      "type": "function"
    },
    {
      "inputs": [
        {
          "internalType": "uint256",
          "name": "blockNumber",
          "type": "uint256"
        }
      ],
      "name": "stateRootHashes",
      "outputs": [
        {
          "internalType": "bytes32",
          "name": "stateRootHash",
          "type": "bytes32"
        }
      ],
      "stateMutability": "view",
      "type": "function"
    },
    {
      "inputs": [
        {
          "internalType": "bytes4",
          "name": "interfaceId",
          "type": "bytes4"
        }
      ],
      "name": "supportsInterface",
      "outputs": [
        {
          "internalType": "bool",
          "name": "",
          "type": "bool"
        }
      ],
      "stateMutability": "view",
      "type": "function"
    },
    {
      "inputs": [],
      "name": "systemMigrationBlock",
      "outputs": [
        {
          "internalType": "uint256",
          "name": "",
          "type": "uint256"
        }
      ],
      "stateMutability": "view",
      "type": "function"
    },
    {
      "inputs": [
        {
          "internalType": "enum IPauseManager.PauseType",
          "name": "_pauseType",
          "type": "uint8"
        }
      ],
      "name": "unPauseByExpiredType",
      "outputs": [],
      "stateMutability": "nonpayable",
      "type": "function"
    },
    {
      "inputs": [
        {
          "internalType": "enum IPauseManager.PauseType",
          "name": "_pauseType",
          "type": "uint8"
        }
      ],
      "name": "unPauseByType",
      "outputs": [],
      "stateMutability": "nonpayable",
      "type": "function"
    },
    {
      "inputs": [
        {
          "internalType": "uint256",
          "name": "_proofType",
          "type": "uint256"
        }
      ],
      "name": "unsetVerifierAddress",
      "outputs": [],
      "stateMutability": "nonpayable",
      "type": "function"
    },
    {
      "inputs": [
        {
          "internalType": "enum IPauseManager.PauseType",
          "name": "_pauseType",
          "type": "uint8"
        },
        {
          "internalType": "bytes32",
          "name": "_newRole",
          "type": "bytes32"
        }
      ],
      "name": "updatePauseTypeRole",
      "outputs": [],
      "stateMutability": "nonpayable",
      "type": "function"
    },
    {
      "inputs": [
        {
          "internalType": "enum IPauseManager.PauseType",
          "name": "_pauseType",
          "type": "uint8"
        },
        {
          "internalType": "bytes32",
          "name": "_newRole",
          "type": "bytes32"
        }
      ],
      "name": "updateUnpauseTypeRole",
      "outputs": [],
      "stateMutability": "nonpayable",
      "type": "function"
    },
    {
      "inputs": [
        {
          "internalType": "uint256",
          "name": "proofType",
          "type": "uint256"
        }
      ],
      "name": "verifiers",
      "outputs": [
        {
          "internalType": "address",
          "name": "verifierAddress",
          "type": "address"
        }
      ],
      "stateMutability": "view",
      "type": "function"
    }
  ],
  "bytecode": "0x6080604052348015600e575f5ffd5b506015601f565b601b601f565b60d9565b5f54610100900460ff161560895760405162461bcd60e51b815260206004820152602760248201527f496e697469616c697a61626c653a20636f6e747261637420697320696e697469604482015266616c697a696e6760c81b606482015260840160405180910390fd5b5f5460ff9081161460d7575f805460ff191660ff9081179091556040519081527f7f26b83ff96e1f2b6a682f133852f6798a09c465da95921460cefb38474024989060200160405180910390a15b565b614aae806100e65f395ff3fe608060405260043610610435575f3560e01c80637d1e8c5511610237578063b59faa601161013c578063c2116974116100b7578063d547741f11610087578063e196fb5d1161006d578063e196fb5d14610df5578063f4586fc814610e14578063f5b541a614610e33575f5ffd5b8063d547741f14610da3578063d722bbfc14610dc2575f5ffd5b8063c211697414610d0e578063cc6f725114610d2d578063cd9b9e9a14610d60578063cf5b276414610d76575f5ffd5b8063bb871c291161010c578063bf3e7505116100f2578063bf3e750514610cb1578063c0729ab114610ce4578063c1dc0f0714610cf9575f5ffd5b8063bb871c2914610c5f578063bc61e73314610c92575f5ffd5b8063b59faa6014610bb1578063b837dbe914610be4578063b9174ba314610bf9578063b9fe5cf714610c2c575f5ffd5b8063986fcddd116101cc578063a217fddf1161019c578063ac1eff6811610182578063ac1eff6814610b46578063ad422ff014610b88578063aea4f74514610b9d575f5ffd5b8063a217fddf14610b14578063a98e773d14610b27575f5ffd5b8063986fcddd146109765780639ac25d0814610aaf5780639ee8b21114610ae25780639f3ce55a14610b01575f5ffd5b806391d148541161020757806391d1485414610a14578063921b278e14610a6557806392fa129a14610a7b57806395ba81fa14610a90575f5ffd5b80637d1e8c55146109765780638be745d1146109895780638de49487146109b5578063914e57eb146109e8575f5ffd5b806348922ab71161033d5780635ec775b0116102d257806367e404ce116102a25780636a906b80116102885780636a906b80146108fc5780636e6738431461092f57806373bd07b714610962575f5ffd5b806367e404ce146108bc578063695378f5146108e6575f5ffd5b80635ec775b01461082857806360e83cf31461083e578063632131551461086a5780636463fb2a1461089d575f5ffd5b80635603c65f1161030d5780635603c65f146107c957806358794456146107e85780635b7eb4bd146107325780635c721a0c146107fd575f5ffd5b806348922ab7146107325780635230eef21461075857806352abf32d1461078b578063557eac73146107aa575f5ffd5b806328958174116103cd57806338b903331161039d5780633c0f20fc116103835780633c0f20fc146106965780633e9ebfc2146106e85780633fc08b6514610707575f5ffd5b806338b90333146106185780633b12eccb14610663575f5ffd5b806328958174146105a55780632c70645c146105c45780632f2ff15d146105da57806336568abe146105f9575f5ffd5b806316d8d24e1161040857806316d8d24e146105025780632130d8121461053557806321b4deee14610561578063248a9ca314610577575f5ffd5b806301ffc9a71461043957806303134d1d1461046d5780631065a399146104ae57806312d3fa9a146104cf575b5f5ffd5b348015610444575f5ffd5b50610458610453366004613fbe565b610e66565b60405190151581526020015b60405180910390f35b348015610478575f5ffd5b506104a07f1ab87f7458c0e3d07e9881c14ee67f0141703614fd48ea5b15ed987e5f4b030e81565b604051908152602001610464565b3480156104b9575f5ffd5b506104cd6104c8366004614010565b610efe565b005b3480156104da575f5ffd5b506104a07f67c2dca7476ee0fe1dd3cba13428c6760bfe2599a6dfe26a9ad7ef27317c6e7781565b34801561050d575f5ffd5b506104a07f6a072be1f08b48d0c31f72f5e89e92c134f16aa08e20117bbdd11d29a3ffe48481565b348015610540575f5ffd5b506104a061054f366004614029565b5f9081526101be602052604090205490565b34801561056c575f5ffd5b506104a06203f48081565b348015610582575f5ffd5b506104a0610591366004614029565b5f9081526065602052604090206001015490565b3480156105b0575f5ffd5b506104cd6105bf366004614029565b61109b565b3480156105cf575f5ffd5b506104a06101835481565b3480156105e5575f5ffd5b506104cd6105f436600461406c565b61115b565b348015610604575f5ffd5b506104cd61061336600461406c565b611184565b348015610623575f5ffd5b50604080518082018252600381527f312e30000000000000000000000000000000000000000000000000000000000060208201529051610464919061409a565b34801561066e575f5ffd5b506104a07fb6cc65f42901ed602aec1619cc1ead29d487cd489094a37615153eaeb991d77081565b3480156106a1575f5ffd5b506101c1546106c39073ffffffffffffffffffffffffffffffffffffffff1681565b60405173ffffffffffffffffffffffffffffffffffffffff9091168152602001610464565b3480156106f3575f5ffd5b506104cd6107023660046140cf565b611237565b348015610712575f5ffd5b506104a0610721366004614029565b60a56020525f908152604090205481565b34801561073d575f5ffd5b50610746600181565b60405160ff9091168152602001610464565b348015610763575f5ffd5b506104a07f0cf0d2deb70d7bdac2fa48c4ac99bc558170be0ce5fcb994caefa4bf7b96edf981565b348015610796575f5ffd5b506104cd6107a53660046140cf565b611396565b3480156107b5575f5ffd5b506104cd6107c4366004614029565b6114f5565b3480156107d4575f5ffd5b506104cd6107e336600461413c565b6115bb565b3480156107f3575f5ffd5b506104a060995481565b348015610808575f5ffd5b506104a0610817366004614029565b60a66020525f908152604090205481565b348015610833575f5ffd5b506104a06201518081565b348015610849575f5ffd5b506104a0610858366004614029565b6101506020525f908152604090205481565b348015610875575f5ffd5b506104a07fe37c272ea30e2bb381ad7cf89ae754b49153250609f36d0cbdad8b64c184bb5c81565b3480156108a8575f5ffd5b506104cd6108b73660046141b4565b6116ae565b3480156108c7575f5ffd5b5060015c73ffffffffffffffffffffffffffffffffffffffff166106c3565b3480156108f1575f5ffd5b506104a06101195481565b348015610907575f5ffd5b506104a07fd8b4c34c2ec1f3194471108c64ad2beda340c0337ee4ca35592f9ef270f4228b81565b34801561093a575f5ffd5b506104a07f32937fd5162e282df7e9a14a5073a2425321c7966eaf70ed6c838a1006d84c4c81565b34801561096d575f5ffd5b50610746600281565b348015610981575f5ffd5b506107465f81565b348015610994575f5ffd5b506104a06109a3366004614029565b61011a6020525f908152604090205481565b3480156109c0575f5ffd5b506104a07fe1fce82838dd7a42cfe783f60dc6233c8aa2c4fc66e77817805e767ec5e349b681565b3480156109f3575f5ffd5b506104a0610a02366004614029565b61014e6020525f908152604090205481565b348015610a1f575f5ffd5b50610458610a2e36600461406c565b5f91825260656020908152604080842073ffffffffffffffffffffffffffffffffffffffff93909316845291905290205460ff1690565b348015610a70575f5ffd5b506104a06101bf5481565b348015610a86575f5ffd5b506104a060dd5481565b348015610a9b575f5ffd5b506104cd610aaa366004614010565b611879565b348015610aba575f5ffd5b506104a07f56bdc3c9ec86cb7db110a7699b2ade72f0b8819727d9f7d906b012641505fa7781565b348015610aed575f5ffd5b50610458610afc366004614029565b6119a4565b6104cd610b0f3660046141ec565b6119c7565b348015610b1f575f5ffd5b506104a05f81565b348015610b32575f5ffd5b506104cd610b41366004614244565b6119e5565b348015610b51575f5ffd5b506106c3610b60366004614029565b61011b6020525f908152604090205473ffffffffffffffffffffffffffffffffffffffff1681565b348015610b93575f5ffd5b506104a060985481565b348015610ba8575f5ffd5b506104cd611ba7565b348015610bbc575f5ffd5b506104a07fe4831f9e4316ac2c65117d1f602fbf56d38128a9973d5e3fdbc5b77265c18d4081565b348015610bef575f5ffd5b506104a060e45481565b348015610c04575f5ffd5b506104a07f430a7f0cb00b5ebbe63cecc96e82cf959a883e7c13a95110854f1fa6b3fbf59881565b348015610c37575f5ffd5b506104a07f1453a531db80c85f2d944d498709d84959bc5bf839eefe9acb784571e5a3211881565b348015610c6a575f5ffd5b506104a07f92345e7fb9ee041c2ac61447de3632c2b9f5cc7a34a794315d6ff267b6a59f6a81565b348015610c9d575f5ffd5b50610458610cac366004614010565b611c02565b348015610cbc575f5ffd5b506104a07f1185e52d62bfbbea270e57d3d09733d221b53ab7a18bae82bb3c6c74bab16d8281565b348015610cef575f5ffd5b506104a0609a5481565b348015610d04575f5ffd5b506104a060975481565b348015610d19575f5ffd5b506104cd610d2836600461427c565b611c26565b348015610d38575f5ffd5b506104a07fe8cb6172fcf5cbaae022b7c910224a4f0c20d53227e630056efff182155a5abc81565b348015610d6b575f5ffd5b506104a06101bd5481565b348015610d81575f5ffd5b506101c0546106c39073ffffffffffffffffffffffffffffffffffffffff1681565b348015610dae575f5ffd5b506104cd610dbd36600461406c565b611d53565b348015610dcd575f5ffd5b506104a07f6b5661ddfbd1fbd525c902a513e0f47d9c74f1c1ee8a2d4f1937ad305fb8f41a81565b348015610e00575f5ffd5b506104cd610e0f366004614010565b611d77565b348015610e1f575f5ffd5b506104cd610e2e366004614298565b611f4f565b348015610e3e575f5ffd5b506104a07f97667070c54ef182b0f5858b034beac1b6f3089aa2d3188bb1e8929f4fa9b92981565b5f7fffffffff0000000000000000000000000000000000000000000000000000000082167f7965db0b000000000000000000000000000000000000000000000000000000001480610ef857507f01ffc9a7000000000000000000000000000000000000000000000000000000007fffffffff000000000000000000000000000000000000000000000000000000008316145b92915050565b805f816009811115610f1257610f126142c1565b03610f49576040517f85994c7700000000000000000000000000000000000000000000000000000000815260040160405180910390fd5b60dc5f836009811115610f5e57610f5e6142c1565b6009811115610f6f57610f6f6142c1565b81526020019081526020015f2054610f8681612003565b610f8f83611c02565b610fd057826040517f18659654000000000000000000000000000000000000000000000000000000008152600401610fc79190614327565b60405180910390fd5b335f9081527f74a8627e7e8109f70747bbdf2c891159d40f925b9c8f09259a497b8c31b3780b602052604090205460ff1615611017576110136201518042614362565b60dd555b826009811115611029576110296142c1565b60da8054600190921b19909116905582600981111561104a5761104a6142c1565b7fd071d2b85dec4489435b541d2f0e2570db09b09db9efd8703948d44a433df65a335b60405173ffffffffffffffffffffffffffffffffffffffff90911681526020015b60405180910390a2505050565b7f6b5661ddfbd1fbd525c902a513e0f47d9c74f1c1ee8a2d4f1937ad305fb8f41a6110c581612003565b5f82815261011b6020908152604080832054905173ffffffffffffffffffffffffffffffffffffffff90911681523392859290917f4a29db3fc6b42bda201e4b4d69ce8d575eeeba5f153509c0d0a342af0f1bd021910160405180910390a4505f90815261011b6020526040902080547fffffffffffffffffffffffff0000000000000000000000000000000000000000169055565b5f8281526065602052604090206001015461117581612003565b61117f8383612010565b505050565b73ffffffffffffffffffffffffffffffffffffffff81163314611229576040517f08c379a000000000000000000000000000000000000000000000000000000000815260206004820152602f60248201527f416363657373436f6e74726f6c3a2063616e206f6e6c792072656e6f756e636560448201527f20726f6c657320666f722073656c6600000000000000000000000000000000006064820152608401610fc7565b6112338282612102565b5050565b815f81600981111561124b5761124b6142c1565b03611282576040517f85994c7700000000000000000000000000000000000000000000000000000000815260040160405180910390fd5b7f1453a531db80c85f2d944d498709d84959bc5bf839eefe9acb784571e5a321186112ac81612003565b5f60db5f8660098111156112c2576112c26142c1565b60098111156112d3576112d36142c1565b81526020019081526020015f2054905083810361131c576040517f1b807f5500000000000000000000000000000000000000000000000000000000815260040160405180910390fd5b8360db5f876009811115611332576113326142c1565b6009811115611343576113436142c1565b815260208101919091526040015f20558084866009811115611367576113676142c1565b6040517f074bfc3728ef1e98bde10bcb5bd8cde59cff190c2bfda5d22f879f865a07bac5905f90a45050505050565b815f8160098111156113aa576113aa6142c1565b036113e1576040517f85994c7700000000000000000000000000000000000000000000000000000000815260040160405180910390fd5b7f1453a531db80c85f2d944d498709d84959bc5bf839eefe9acb784571e5a3211861140b81612003565b5f60dc5f866009811115611421576114216142c1565b6009811115611432576114326142c1565b81526020019081526020015f2054905083810361147b576040517f1b807f5500000000000000000000000000000000000000000000000000000000815260040160405180910390fd5b8360dc5f876009811115611491576114916142c1565b60098111156114a2576114a26142c1565b815260208101919091526040015f205580848660098111156114c6576114c66142c1565b6040517ff8ef9f1cde7c2c0d3aeb696678f76d7c1c3e13c3b79ea3c5160a2d9eaa821cfd905f90a45050505050565b7f1185e52d62bfbbea270e57d3d09733d221b53ab7a18bae82bb3c6c74bab16d8261151f81612003565b5f5f5f426099541015611544576097546115399042614375565b609955506001611556565b609a5485101561155657849250600191505b609885905580806115645750815b1561156f57609a8390555b60408051868152831515602082015282151581830152905133917fbc3dc0cb5c15c51c81316450d44048838bb478b9809447d01c766a06f3e9f2c8919081900360600190a25050505050565b60066115c6816121bb565b7f97667070c54ef182b0f5858b034beac1b6f3089aa2d3188bb1e8929f4fa9b9296115f081612003565b5f85900361162a576040517f7907d79b00000000000000000000000000000000000000000000000000000000815260040160405180910390fd5b610119545f81815261011a6020526040902054843514611676576040517fead4c30e00000000000000000000000000000000000000000000000000000000815260040160405180910390fd5b6101bd545f611685868461224d565b90505f61169487848487612572565b90506116a281898c8c6125fd565b50505050505050505050565b60015f5c036116e9576040517f37ed32e800000000000000000000000000000000000000000000000000000000815260040160405180910390fd5b6001805f5d5060a081018035906117039060808401614388565b6117116101208401846143a3565b611722610100860160e08701614388565b5f5a905061172f8761286b565b851561186a57855f8490036117b957853b1580156117b7573a5a61175561bc7c86614375565b61175f9190614362565b6117699190614404565b9150818811156117b35773ffffffffffffffffffffffffffffffffffffffff87166108fc611797848b614362565b6040518115909202915f818181858888f19350505050506117b7565b8791505b505b5f73ffffffffffffffffffffffffffffffffffffffff8416156117dc57836117de565b335b90505f8173ffffffffffffffffffffffffffffffffffffffff166108fc8490811502906040515f60405180830381858888f19350505050905080611866576040517fa57c4df400000000000000000000000000000000000000000000000000000000815273ffffffffffffffffffffffffffffffffffffffff83166004820152602401610fc7565b5050505b5050505050505f5f81905d5050565b805f81600981111561188d5761188d6142c1565b036118c4576040517f85994c7700000000000000000000000000000000000000000000000000000000815260040160405180910390fd5b6118cd82611c02565b61190557816040517f18659654000000000000000000000000000000000000000000000000000000008152600401610fc79190614327565b60dd544210156119475760dd546040517fcfd8aa6f000000000000000000000000000000000000000000000000000000008152600401610fc791815260200190565b816009811115611959576119596142c1565b60da8054600190921b1990911690556040517f3ddaeb19197ed3b5334f4c1cd5716f663d0f6dce30c52800bd1674da0b88e87a90611998908490614327565b60405180910390a15050565b600881901c5f90815261014f6020526040812054600160ff84161b161515610ef8565b60026119d2816121bb565b6119de85858585612b94565b5050505050565b5f54610100900460ff1615808015611a0357505f54600160ff909116105b80611a1c5750303b158015611a1c57505f5460ff166001145b611aa8576040517f08c379a000000000000000000000000000000000000000000000000000000000815260206004820152602e60248201527f496e697469616c697a61626c653a20636f6e747261637420697320616c72656160448201527f647920696e697469616c697a65640000000000000000000000000000000000006064820152608401610fc7565b5f80547fffffffffffffffffffffffffffffffffffffffffffffffffffffffffffffff001660011790558015611b04575f80547fffffffffffffffffffffffffffffffffffffffffffffffffffffffffffff00ff166101001790555b604080515f8082526020808301829052853583850152606083018290526080830182905260a09092208082526101be9092529190912060019055611b488382612cd1565b508015611233575f80547fffffffffffffffffffffffffffffffffffffffffffffffffffffffffffff00ff169055604051600181527f7f26b83ff96e1f2b6a682f133852f6798a09c465da95921460cefb384740249890602001611998565b7f0cf0d2deb70d7bdac2fa48c4ac99bc558170be0ce5fcb994caefa4bf7b96edf9611bd181612003565b5f609a81905560405133917fba88c025b0cbb77022c0c487beef24f759f1e4be2f51a205bc427cee19c2eaa691a250565b5f816009811115611c1557611c156142c1565b60da54600190911b16151592915050565b7f32937fd5162e282df7e9a14a5073a2425321c7966eaf70ed6c838a1006d84c4c611c5081612003565b73ffffffffffffffffffffffffffffffffffffffff8316611c9d576040517f8579befe00000000000000000000000000000000000000000000000000000000815260040160405180910390fd5b5f82815261011b602090815260409182902054915173ffffffffffffffffffffffffffffffffffffffff928316815233928592908716917f4a29db3fc6b42bda201e4b4d69ce8d575eeeba5f153509c0d0a342af0f1bd021910160405180910390a4505f90815261011b6020526040902080547fffffffffffffffffffffffff00000000000000000000000000000000000000001673ffffffffffffffffffffffffffffffffffffffff92909216919091179055565b5f82815260656020526040902060010154611d6d81612003565b61117f8383612102565b805f816009811115611d8b57611d8b6142c1565b03611dc2576040517f85994c7700000000000000000000000000000000000000000000000000000000815260040160405180910390fd5b60db5f836009811115611dd757611dd76142c1565b6009811115611de857611de86142c1565b81526020019081526020015f2054611dff81612003565b611e0883611c02565b15611e4157826040517fc0a71b58000000000000000000000000000000000000000000000000000000008152600401610fc79190614327565b335f9081527f74a8627e7e8109f70747bbdf2c891159d40f925b9c8f09259a497b8c31b3780b602052604090205460ff1615611ea0577ffffffffffffffffffffffffffffffffffffffffffffffffffffffffffffeae7f60dd55611ef6565b6201518060dd5401421015611eec576201518060dd54016040517fc04205ee000000000000000000000000000000000000000000000000000000008152600401610fc791815260200190565b426203f4800160dd555b826009811115611f0857611f086142c1565b60da8054600190921b9091179055826009811115611f2857611f286142c1565b7f534f879afd40abb4e39f8e1b77a316be4c8e3521d9cf5a3a3db8959d574d45593361106d565b6009611f5a816121bb565b7f97667070c54ef182b0f5858b034beac1b6f3089aa2d3188bb1e8929f4fa9b929611f8481612003565b5f849003611fbe576040517f87fb99b300000000000000000000000000000000000000000000000000000000815260040160405180910390fd5b5f839003611ff8576040517ff9069dd800000000000000000000000000000000000000000000000000000000815260040160405180910390fd5b6119de858585612f59565b61200d813361303b565b50565b5f82815260656020908152604080832073ffffffffffffffffffffffffffffffffffffffff8516845290915290205460ff16611233575f82815260656020908152604080832073ffffffffffffffffffffffffffffffffffffffff85168452909152902080547fffffffffffffffffffffffffffffffffffffffffffffffffffffffffffffff001660011790556120a43390565b73ffffffffffffffffffffffffffffffffffffffff168173ffffffffffffffffffffffffffffffffffffffff16837f2f8788117e7eff1d82e926ec794901d17c78024a50270940304540a733656f0d60405160405180910390a45050565b5f82815260656020908152604080832073ffffffffffffffffffffffffffffffffffffffff8516845290915290205460ff1615611233575f82815260656020908152604080832073ffffffffffffffffffffffffffffffffffffffff8516808552925280832080547fffffffffffffffffffffffffffffffffffffffffffffffffffffffffffffff0016905551339285917ff6391f5c32d9c69d2a47ea670b442974b53935d1edc7fd64eb21e047a839171b9190a45050565b60da548160098111156121d0576121d06142c1565b6001901b81161561220f57816040517fc0a71b58000000000000000000000000000000000000000000000000000000008152600401610fc79190614327565b60028116156112335760016040517fc0a71b58000000000000000000000000000000000000000000000000000000008152600401610fc79190614327565b5f6122628361018001358461014001356130d6565b6101bf54604080516101608601358152610120860135602082015260e08601359181019190915260609020146122f857604080516101608501358152610120850135602082015260e085013591810191909152606090206101bf546040517fbc5aad1100000000000000000000000000000000000000000000000000000000815260048101929092526024820152604401610fc7565b4283610100013510612343576040517fbf81c6e00000000000000000000000000000000000000000000000000000000081526101008401356004820152426024820152604401610fc7565b608083013561237e576040517f2898482a00000000000000000000000000000000000000000000000000000000815260040160405180910390fd5b6123c160408401356060850135608086013560a087013560c0880135604080519586526020860194909452928401919091526060830152608082015260a0902090565b6101c1546040517f2130d8120000000000000000000000000000000000000000000000000000000081526004810183905291925073ffffffffffffffffffffffffffffffffffffffff1690632130d81290602401602060405180830381865afa158015612430573d5f5f3e3d5ffd5b505050506040513d601f19601f82011682018060405250810190612454919061441b565b5f0361248f576040517fedeae83c00000000000000000000000000000000000000000000000000000000815260048101829052602401610fc7565b6124ab6124a06101c0850185614432565b856101a001356131a3565b6124c26124bc6101e08501856143a3565b846132af565b6020808401355f81815261011a909252604090912060808501359055610119556101bd819055612517610180840135610140850135610100860135604080519384526020840192909252908201526060902090565b6101bf5580602084013561252a84614496565b60408051873581526080880135602082015291955085917fa0262dc79e4ccb71ceac8574ae906311ae338aa4a2044fd4ec4b99fad5ab60cb910160405180910390a492915050565b5f604051848152836020820152604060e087016040830137826080820152602080870160a083013760a0610120870160c083013761018081016101c087013587018035602081026020830184376020029091206101608301525061018090207f30644e72e131a029b85045b68181585d2833e84879b9709143e1f593f0000001900695945050505050565b6040805160018082528183019092525f916020808301908036833701905050905084815f81518110612631576126316144db565b6020908102919091018101919091525f85815261011b909152604090205473ffffffffffffffffffffffffffffffffffffffff168061269c576040517f69ed70ab00000000000000000000000000000000000000000000000000000000815260040160405180910390fd5b5f5f8273ffffffffffffffffffffffffffffffffffffffff168686866040516024016126ca93929190614531565b60408051601f198184030181529181526020820180517bffffffffffffffffffffffffffffffffffffffffffffffffffffffff167f7e4f7a8a000000000000000000000000000000000000000000000000000000001790525161272d91906145a2565b5f604051808303815f865af19150503d805f8114612766576040519150601f19603f3d011682016040523d82523d5f602084013e61276b565b606091505b509150915081612812578051156127b057602081017bffffffffffffffffffffffffffffffffffffffffffffffffffffffff81511663ca389c4460e01b178152815181fd5b6040517fca389c4400000000000000000000000000000000000000000000000000000000815260206004820152600760248201527f556e6b6e6f776e000000000000000000000000000000000000000000000000006044820152606401610fc7565b5f8180602001905181019061282791906145ad565b905080612860576040517f09bde33900000000000000000000000000000000000000000000000000000000815260040160405180910390fd5b505050505050505050565b61287560036121bb565b6101008101355f9081526101506020526040812054908190036128c4576040517f4e68667500000000000000000000000000000000000000000000000000000000815260040160405180910390fd5b6128ce8280614432565b9050811461291d57806128e18380614432565b6040517f5e3fd6ad0000000000000000000000000000000000000000000000000000000081526004810193909352602483015250604401610fc7565b61292a826020013561333c565b61294461293f60c084013560a0850135614375565b6133b4565b5f61298a6129586080850160608601614388565b61296860a0860160808701614388565b60a086013560c087013560208801356129856101208a018a6143a3565b61342a565b90506129b58161299a8580614432565b6129aa60608801604089016145cc565b876101000135613483565b6129eb576040517fb05e92fa00000000000000000000000000000000000000000000000000000000815260040160405180910390fd5b6129fb6080840160608501614388565b6001805c7fffffffffffffffffffffffff00000000000000000000000000000000000000001673ffffffffffffffffffffffffffffffffffffffff831617905d505f80612a4e60a0860160808701614388565b73ffffffffffffffffffffffffffffffffffffffff1660c0860135612a776101208801886143a3565b604051612a859291906145ef565b5f6040518083038185875af1925050503d805f8114612abf576040519150601f19603f3d011682016040523d82523d5f602084013e612ac4565b606091505b509150915081612b3957805115612ade5780518082602001fd5b612aee60a0860160808701614388565b6040517f5461344300000000000000000000000000000000000000000000000000000000815273ffffffffffffffffffffffffffffffffffffffff9091166004820152602401610fc7565b5f6001805c7fffffffffffffffffffffffff000000000000000000000000000000000000000016905d5060405183907fa4c827e719e911e8f19393ccdb85b5102f08f0910604d340ba38390b7ff2ab0e905f90a25050505050565b73ffffffffffffffffffffffffffffffffffffffff8416612be1576040517f8579befe00000000000000000000000000000000000000000000000000000000815260040160405180910390fd5b34831115612c1b576040517fb03b693200000000000000000000000000000000000000000000000000000000815260040160405180910390fd5b60e480545f9182612c2b83614496565b9091555090505f612c3c8534614362565b90505f612c4e33888885878a8a61342a565b9050612c5a8382613590565b808773ffffffffffffffffffffffffffffffffffffffff163373ffffffffffffffffffffffffffffffffffffffff167fe856c2b8bd4eb0027ce32eeaf595c21b0b6b4644b326e5b7bd80a1cf8db72e6c8986888b8b604051612cc09594939291906145fe565b60405180910390a450505050505050565b5f612ce26080840160608501614388565b73ffffffffffffffffffffffffffffffffffffffff1603612d2f576040517f8579befe00000000000000000000000000000000000000000000000000000000815260040160405180910390fd5b612d52612d3f60e084018461462e565b612d4d61010086018661462e565b6135ed565b612d6482608001358360a00135613894565b5f612d7761014084016101208501614388565b73ffffffffffffffffffffffffffffffffffffffff1603612dc4576040517f8579befe00000000000000000000000000000000000000000000000000000000815260040160405180910390fd5b612ddf5f612dda61014085016101208601614388565b612010565b612df4612def60c084018461462e565b613955565b612e046080830160608401614388565b7f033d11f27e62ab919708ec716731da80d261a6e4253259b7acde9bf89d28ec1880547fffffffffffffffffffffffff00000000000000000000000000000000000000001673ffffffffffffffffffffffffffffffffffffffff929092169190911790556020828101356101198190555f90815261011a82526040808220853590556101bd8490558051828152928301919091528084013590820152606090206101bf555f612ebb61016084016101408501614388565b905073ffffffffffffffffffffffffffffffffffffffff8116612edb5750305b6101c180547fffffffffffffffffffffffff00000000000000000000000000000000000000001673ffffffffffffffffffffffffffffffffffffffff83161790556040517f58455261cac6af8cd1bcaa46dfff758169d70684c30d7bd8d6ffde05d4c75f5990612f4c908590614796565b60405180910390a1505050565b5f8381526101be60205260409020548390612fa3576040517fc77b964c000000000000000000000000000000000000000000000000000000008152600401610fc791815260200190565b505f8281526101be6020526040902054829015612fef576040517fe69adeca000000000000000000000000000000000000000000000000000000008152600401610fc791815260200190565b505f8281526101be602090815260409182902060019055815185815290810183905283917f55f4c645c36aa5cd3f443d6be44d7a7a5df9d2100d7139dfc69d4289ee072319910161108e565b5f82815260656020908152604080832073ffffffffffffffffffffffffffffffffffffffff8516845290915290205460ff166112335761307a81613b10565b613085836020613b2f565b6040516020016130969291906148d3565b60408051601f19818403018152908290527f08c379a0000000000000000000000000000000000000000000000000000000008252610fc79160040161409a565b815f03613118578015611233576040517f0c25659200000000000000000000000000000000000000000000000000000000815260048101829052602401610fc7565b80613152576040517f5228f4c800000000000000000000000000000000000000000000000000000000815260048101839052602401610fc7565b5f82815261014e60205260409020548114611233576040517f36459fa00000000000000000000000000000000000000000000000000000000081526004810183905260248101829052604401610fc7565b5f5b828110156132a9576101505f8585848181106131c3576131c36144db565b9050602002013581526020019081526020015f20545f1461322c578383828181106131f0576131f06144db565b905060200201356040517fe5d14425000000000000000000000000000000000000000000000000000000008152600401610fc791815260200190565b816101505f868685818110613243576132436144db565b9050602002013581526020019081526020015f20819055508184848381811061326e5761326e6144db565b905060200201357f300e6f978eee6a4b0bba78dd8400dc64fd5652dbfc868a2258e16d0977be222b60405160405180910390a36001016131a5565b50505050565b6132ba60028361493d565b156132f4576040517f0c91d77600000000000000000000000000000000000000000000000000000000815260048101839052602401610fc7565b5f5f5b838110156119de576040518582013560f01c9250838301907f3c116827db9db3a30c1a25db8b0ee4bab9d2b223560209cfd839601b621c726d905f90a26002016132f7565b600881901c5f90815261014f6020526040902054600160ff83161b1615613392576040517f335a4a9000000000000000000000000000000000000000000000000000000000815260048101829052602401610fc7565b600881901c5f90815261014f602052604090208054600160ff84161b17905550565b801561200d574260995410156133d9576097546133d19042614375565b6099556133e9565b609a546133e69082614375565b90505b609854811115613425576040517fa74c1c5f00000000000000000000000000000000000000000000000000000000815260040160405180910390fd5b609a55565b5f60405188815287602082015286604082015285606082015284608082015260c060a08201528260c0820152602083065f8115613468578160200390505b848660e085013790930160e001902098975050505050505050565b5f806134a46001613495876002614a58565b61349f9190614362565b613d73565b90508063ffffffff168463ffffffff1611156134fc576040517ff7ec909700000000000000000000000000000000000000000000000000000000815263ffffffff808616600483015282166024820152604401610fc7565b865f5b8681101561358257600163ffffffff8716821c8116900361354c5761354588888381811061352f5761352f6144db565b90506020020135835f9182526020526040902090565b915061357a565b61357782898984818110613562576135626144db565b905060200201355f9182526020526040902090565b91505b6001016134ff565b509092149695505050505050565b5f1982015f90815261014e60208181526040808420548452848252808420868552929091528083208290555190918391839186917fea3b023b4c8680d4b4824f0143132c95476359a2bb70a81d6c5a36f6918f63399190a4505050565b5f54610100900460ff16613683576040517f08c379a000000000000000000000000000000000000000000000000000000000815260206004820152602b60248201527f496e697469616c697a61626c653a20636f6e7472616374206973206e6f74206960448201527f6e697469616c697a696e670000000000000000000000000000000000000000006064820152608401610fc7565b5f5b8381101561378b5784848281811061369f5761369f6144db565b9050604002016020013560db5f8787858181106136be576136be6144db565b6136d49260206040909202019081019150614010565b60098111156136e5576136e56142c1565b60098111156136f6576136f66142c1565b815260208101919091526040015f2055848482818110613718576137186144db565b90506040020160200135858583818110613734576137346144db565b61374a9260206040909202019081019150614010565b600981111561375b5761375b6142c1565b6040517f33aa8fd1ce49e1761bc8d27fd53414bfefc45d690feed0ce55019d7d3aec6091905f90a3600101613685565b505f5b818110156119de578282828181106137a8576137a86144db565b9050604002016020013560dc5f8585858181106137c7576137c76144db565b6137dd9260206040909202019081019150614010565b60098111156137ee576137ee6142c1565b60098111156137ff576137ff6142c1565b815260208101919091526040015f2055828282818110613821576138216144db565b9050604002016020013583838381811061383d5761383d6144db565b6138539260206040909202019081019150614010565b6009811115613864576138646142c1565b6040517fe7bf4b8dc0c17a52dc9e52323a3ab61cb2079db35f969125b1f8a3d984c6f6c2905f90a360010161378e565b5f54610100900460ff1661392a576040517f08c379a000000000000000000000000000000000000000000000000000000000815260206004820152602b60248201527f496e697469616c697a61626c653a20636f6e7472616374206973206e6f74206960448201527f6e697469616c697a696e670000000000000000000000000000000000000000006064820152608401610fc7565b613932613dc0565b61393a613dc0565b613942613dc0565b61394c8282613e58565b5050600160e455565b5f54610100900460ff166139eb576040517f08c379a000000000000000000000000000000000000000000000000000000000815260206004820152602b60248201527f496e697469616c697a61626c653a20636f6e7472616374206973206e6f74206960448201527f6e697469616c697a696e670000000000000000000000000000000000000000006064820152608401610fc7565b5f5b8181101561117f575f838383818110613a0857613a086144db565b613a1e9260206040909202019081019150614388565b73ffffffffffffffffffffffffffffffffffffffff1603613a6b576040517f8579befe00000000000000000000000000000000000000000000000000000000815260040160405180910390fd5b828282818110613a7d57613a7d6144db565b905060400201602001355f5f1b03613ac1576040517f0742d05300000000000000000000000000000000000000000000000000000000815260040160405180910390fd5b613b08838383818110613ad657613ad66144db565b90506040020160200135848484818110613af257613af26144db565b612dda9260206040909202019081019150614388565b6001016139ed565b6060610ef873ffffffffffffffffffffffffffffffffffffffff831660145b60605f613b3d836002614404565b613b48906002614375565b67ffffffffffffffff811115613b6057613b606144ae565b6040519080825280601f01601f191660200182016040528015613b8a576020820181803683370190505b5090507f3000000000000000000000000000000000000000000000000000000000000000815f81518110613bc057613bc06144db565b60200101907effffffffffffffffffffffffffffffffffffffffffffffffffffffffffffff191690815f1a9053507f780000000000000000000000000000000000000000000000000000000000000081600181518110613c2257613c226144db565b60200101907effffffffffffffffffffffffffffffffffffffffffffffffffffffffffffff191690815f1a9053505f613c5c846002614404565b613c67906001614375565b90505b6001811115613d03577f303132333435363738396162636465660000000000000000000000000000000085600f1660108110613ca857613ca86144db565b1a60f81b828281518110613cbe57613cbe6144db565b60200101907effffffffffffffffffffffffffffffffffffffffffffffffffffffffffffff191690815f1a90535060049490941c93613cfc81614a63565b9050613c6a565b508315613d6c576040517f08c379a000000000000000000000000000000000000000000000000000000000815260206004820181905260248201527f537472696e67733a20686578206c656e67746820696e73756666696369656e746044820152606401610fc7565b9392505050565b5f63ffffffff821115613dbc576040517f6dfcc6500000000000000000000000000000000000000000000000000000000081526020600482015260248101839052604401610fc7565b5090565b5f54610100900460ff16613e56576040517f08c379a000000000000000000000000000000000000000000000000000000000815260206004820152602b60248201527f496e697469616c697a61626c653a20636f6e7472616374206973206e6f74206960448201527f6e697469616c697a696e670000000000000000000000000000000000000000006064820152608401610fc7565b565b5f54610100900460ff16613eee576040517f08c379a000000000000000000000000000000000000000000000000000000000815260206004820152602b60248201527f496e697469616c697a61626c653a20636f6e7472616374206973206e6f74206960448201527f6e697469616c697a696e670000000000000000000000000000000000000000006064820152608401610fc7565b815f03613f27576040517fb5ed5a3b00000000000000000000000000000000000000000000000000000000815260040160405180910390fd5b805f03613f60576040517fd10d72bb00000000000000000000000000000000000000000000000000000000815260040160405180910390fd5b60978290556098819055613f748242614375565b60998190556097546098546040805192835260208301919091528101919091527f8f805c372b66240792580418b7328c0c554ae235f0932475c51b026887fe26a990606001611998565b5f60208284031215613fce575f5ffd5b81357fffffffff0000000000000000000000000000000000000000000000000000000081168114613d6c575f5ffd5b8035600a811061400b575f5ffd5b919050565b5f60208284031215614020575f5ffd5b613d6c82613ffd565b5f60208284031215614039575f5ffd5b5035919050565b73ffffffffffffffffffffffffffffffffffffffff8116811461200d575f5ffd5b803561400b81614040565b5f5f6040838503121561407d575f5ffd5b82359150602083013561408f81614040565b809150509250929050565b602081525f82518060208401528060208501604085015e5f604082850101526040601f19601f83011684010191505092915050565b5f5f604083850312156140e0575f5ffd5b6140e983613ffd565b946020939093013593505050565b5f5f83601f840112614107575f5ffd5b50813567ffffffffffffffff81111561411e575f5ffd5b602083019150836020828501011115614135575f5ffd5b9250929050565b5f5f5f5f6060858703121561414f575f5ffd5b843567ffffffffffffffff811115614165575f5ffd5b614171878288016140f7565b90955093505060208501359150604085013567ffffffffffffffff811115614197575f5ffd5b850161020081880312156141a9575f5ffd5b939692955090935050565b5f602082840312156141c4575f5ffd5b813567ffffffffffffffff8111156141da575f5ffd5b82016101408185031215613d6c575f5ffd5b5f5f5f5f606085870312156141ff575f5ffd5b843561420a81614040565b935060208501359250604085013567ffffffffffffffff81111561422c575f5ffd5b614238878288016140f7565b95989497509550505050565b5f60208284031215614254575f5ffd5b813567ffffffffffffffff81111561426a575f5ffd5b82016101608185031215613d6c575f5ffd5b5f5f6040838503121561428d575f5ffd5b82356140e981614040565b5f5f5f606084860312156142aa575f5ffd5b505081359360208301359350604090920135919050565b7f4e487b71000000000000000000000000000000000000000000000000000000005f52602160045260245ffd5b600a8110614323577f4e487b71000000000000000000000000000000000000000000000000000000005f52602160045260245ffd5b9052565b60208101610ef882846142ee565b7f4e487b71000000000000000000000000000000000000000000000000000000005f52601160045260245ffd5b81810381811115610ef857610ef8614335565b80820180821115610ef857610ef8614335565b5f60208284031215614398575f5ffd5b8135613d6c81614040565b5f5f83357fffffffffffffffffffffffffffffffffffffffffffffffffffffffffffffffe18436030181126143d6575f5ffd5b83018035915067ffffffffffffffff8211156143f0575f5ffd5b602001915036819003821315614135575f5ffd5b8082028115828204841417610ef857610ef8614335565b5f6020828403121561442b575f5ffd5b5051919050565b5f5f83357fffffffffffffffffffffffffffffffffffffffffffffffffffffffffffffffe1843603018112614465575f5ffd5b83018035915067ffffffffffffffff82111561447f575f5ffd5b6020019150600581901b3603821315614135575f5ffd5b5f5f1982036144a7576144a7614335565b5060010190565b7f4e487b71000000000000000000000000000000000000000000000000000000005f52604160045260245ffd5b7f4e487b71000000000000000000000000000000000000000000000000000000005f52603260045260245ffd5b81835281816020850137505f602082840101525f6020601f19601f840116840101905092915050565b604081525f614544604083018587614508565b82810360208401528084518083526020830191506020860192505f5b8181101561457e578351835260209384019390920191600101614560565b5090979650505050505050565b5f81518060208401855e5f93019283525090919050565b5f613d6c828461458b565b5f602082840312156145bd575f5ffd5b81518015158114613d6c575f5ffd5b5f602082840312156145dc575f5ffd5b813563ffffffff81168114613d6c575f5ffd5b818382375f9101908152919050565b858152846020820152836040820152608060608201525f614623608083018486614508565b979650505050505050565b5f5f83357fffffffffffffffffffffffffffffffffffffffffffffffffffffffffffffffe1843603018112614661575f5ffd5b83018035915067ffffffffffffffff82111561467b575f5ffd5b6020019150600681901b3603821315614135575f5ffd5b5f5f83357fffffffffffffffffffffffffffffffffffffffffffffffffffffffffffffffe18436030181126146c5575f5ffd5b830160208101925035905067ffffffffffffffff8111156146e4575f5ffd5b8060061b3603821315614135575f5ffd5b8183526020830192505f815f5b8481101561474957813561471581614040565b73ffffffffffffffffffffffffffffffffffffffff1686526020828101359087015260409586019590910190600101614702565b5093949350505050565b8183526020830192505f815f5b848110156147495761477a8661477584613ffd565b6142ee565b6020828101359087015260409586019590910190600101614760565b60208082528235828201528201356040808301919091528201356060808301919091525f906147c6908401614061565b73ffffffffffffffffffffffffffffffffffffffff8116608084015250608083013560a08381019190915283013560c08084019190915261480990840184614692565b61016060e0850152614820610180850182846146f5565b91505061483060e0850185614692565b601f1985840301610100860152614848838284614753565b9250505061485a610100850185614692565b601f1985840301610120860152614872838284614753565b925050506148836101208501614061565b73ffffffffffffffffffffffffffffffffffffffff8116610140850152506148ae6101408501614061565b73ffffffffffffffffffffffffffffffffffffffff8116610160850152509392505050565b7f416363657373436f6e74726f6c3a206163636f756e742000000000000000000081525f614904601783018561458b565b7f206973206d697373696e6720726f6c65200000000000000000000000000000008152614934601182018561458b565b95945050505050565b5f82614970577f4e487b71000000000000000000000000000000000000000000000000000000005f52601260045260245ffd5b500690565b6001815b60018411156149b05780850481111561499457614994614335565b60018416156149a257908102905b60019390931c928002614979565b935093915050565b5f826149c657506001610ef8565b816149d257505f610ef8565b81600181146149e857600281146149f257614a0e565b6001915050610ef8565b60ff841115614a0357614a03614335565b50506001821b610ef8565b5060208310610133831016604e8410600b8410161715614a31575081810a610ef8565b614a3d5f198484614975565b805f1904821115614a5057614a50614335565b029392505050565b5f613d6c83836149b8565b5f81614a7157614a71614335565b505f19019056fea2646970667358221220b1c79c3661685f7d8920b34525b4d185d6528844eeed2ab114c5ff0262a237b964736f6c634300081e0033",
  "linkReferences": {},
  "deployedLinkReferences": {}
}