{
  "_format": "hh-sol-artifact-1",
  "contractName": "Validium",
  "sourceName": "src/rollup/Validium.sol",
  "abi": [
    {
      "inputs": [],
      "stateMutability": "nonpayable",
      "type": "constructor"
    },
    {
      "inputs": [
        {
          "internalType": "uint256",
          "name": "bytesLength",
          "type": "uint256"
        }
      ],
      "name": "BytesLengthNotMultipleOfTwo",
      "type": "error"
    },
    {
      "inputs": [],
      "name": "CallerNotProxyAdmin",
      "type": "error"
    },
    {
      "inputs": [
        {
          "internalType": "address",
          "name": "recipient",
          "type": "address"
        }
      ],
      "name": "FeePaymentFailed",
      "type": "error"
    },
    {
      "inputs": [],
      "name": "FeeTooLow",
      "type": "error"
    },
    {
      "inputs": [],
      "name": "FinalBlockStateEqualsZeroHash",
      "type": "error"
    },
    {
      "inputs": [
        {
          "internalType": "bytes32",
          "name": "shnarf",
          "type": "bytes32"
        }
      ],
      "name": "FinalShnarfNotSubmitted",
      "type": "error"
    },
    {
      "inputs": [
        {
          "internalType": "bytes32",
          "name": "expected",
          "type": "bytes32"
        },
        {
          "internalType": "bytes32",
          "name": "value",
          "type": "bytes32"
        }
      ],
      "name": "FinalShnarfWrong",
      "type": "error"
    },
    {
      "inputs": [],
      "name": "FinalStateRootHashIsZeroHash",
      "type": "error"
    },
    {
      "inputs": [
        {
          "internalType": "uint256",
          "name": "l2BlockTimestamp",
          "type": "uint256"
        },
        {
          "internalType": "uint256",
          "name": "currentBlockTimestamp",
          "type": "uint256"
        }
      ],
      "name": "FinalizationInTheFuture",
      "type": "error"
    },
    {
      "inputs": [
        {
          "internalType": "bytes32",
          "name": "expected",
          "type": "bytes32"
        },
        {
          "internalType": "bytes32",
          "name": "value",
          "type": "bytes32"
        }
      ],
      "name": "FinalizationStateIncorrect",
      "type": "error"
    },
    {
      "inputs": [],
      "name": "InvalidMerkleProof",
      "type": "error"
    },
    {
      "inputs": [],
      "name": "InvalidProof",
      "type": "error"
    },
    {
      "inputs": [
        {
          "internalType": "string",
          "name": "errorReason",
          "type": "string"
        }
      ],
      "name": "InvalidProofOrProofVerificationRanOutOfGas",
      "type": "error"
    },
    {
      "inputs": [],
      "name": "InvalidProofType",
      "type": "error"
    },
    {
      "inputs": [
        {
          "internalType": "enum IPauseManager.PauseType",
          "name": "pauseType",
          "type": "uint8"
        }
      ],
      "name": "IsNotPaused",
      "type": "error"
    },
    {
      "inputs": [
        {
          "internalType": "enum IPauseManager.PauseType",
          "name": "pauseType",
          "type": "uint8"
        }
      ],
      "name": "IsPaused",
      "type": "error"
    },
    {
      "inputs": [
        {
          "internalType": "uint256",
          "name": "messageNumber",
          "type": "uint256"
        },
        {
          "internalType": "bytes32",
          "name": "rollingHash",
          "type": "bytes32"
        }
      ],
      "name": "L1RollingHashDoesNotExistOnL1",
      "type": "error"
    },
    {
      "inputs": [
        {
          "internalType": "bytes32",
          "name": "merkleRoot",
          "type": "bytes32"
        }
      ],
      "name": "L2MerkleRootAlreadyAnchored",
      "type": "error"
    },
    {
      "inputs": [],
      "name": "L2MerkleRootDoesNotExist",
      "type": "error"
    },
    {
      "inputs": [
        {
          "internalType": "uint32",
          "name": "leafIndex",
          "type": "uint32"
        },
        {
          "internalType": "uint32",
          "name": "maxAllowedIndex",
          "type": "uint32"
        }
      ],
      "name": "LeafIndexOutOfBounds",
      "type": "error"
    },
    {
      "inputs": [],
      "name": "LimitIsZero",
      "type": "error"
    },
    {
      "inputs": [
        {
          "internalType": "uint256",
          "name": "messageIndex",
          "type": "uint256"
        }
      ],
      "name": "MessageAlreadyClaimed",
      "type": "error"
    },
    {
      "inputs": [
        {
          "internalType": "bytes32",
          "name": "messageHash",
          "type": "bytes32"
        }
      ],
      "name": "MessageDoesNotExistOrHasAlreadyBeenClaimed",
      "type": "error"
    },
    {
      "inputs": [
        {
          "internalType": "address",
          "name": "destination",
          "type": "address"
        }
      ],
      "name": "MessageSendingFailed",
      "type": "error"
    },
    {
      "inputs": [
        {
          "internalType": "bytes32",
          "name": "rollingHash",
          "type": "bytes32"
        }
      ],
      "name": "MissingMessageNumberForRollingHash",
      "type": "error"
    },
    {
      "inputs": [
        {
          "internalType": "uint256",
          "name": "messageNumber",
          "type": "uint256"
        }
      ],
      "name": "MissingRollingHashForMessageNumber",
      "type": "error"
    },
    {
      "inputs": [
        {
          "internalType": "bytes32",
          "name": "shnarf",
          "type": "bytes32"
        }
      ],
      "name": "ParentShnarfNotSubmitted",
      "type": "error"
    },
    {
      "inputs": [
        {
          "internalType": "uint256",
          "name": "expiryEnd",
          "type": "uint256"
        }
      ],
      "name": "PauseNotExpired",
      "type": "error"
    },
    {
      "inputs": [],
      "name": "PauseTypeNotUsed",
      "type": "error"
    },
    {
      "inputs": [
        {
          "internalType": "uint256",
          "name": "cooldownEnd",
          "type": "uint256"
        }
      ],
      "name": "PauseUnavailableDueToCooldown",
      "type": "error"
    },
    {
      "inputs": [],
      "name": "PeriodIsZero",
      "type": "error"
    },
    {
      "inputs": [],
      "name": "ProofIsEmpty",
      "type": "error"
    },
    {
      "inputs": [
        {
          "internalType": "uint256",
          "name": "actual",
          "type": "uint256"
        },
        {
          "internalType": "uint256",
          "name": "expected",
          "type": "uint256"
        }
      ],
      "name": "ProofLengthDifferentThanMerkleDepth",
      "type": "error"
    },
    {
      "inputs": [],
      "name": "RateLimitExceeded",
      "type": "error"
    },
    {
      "inputs": [],
      "name": "ReentrantCall",
      "type": "error"
    },
    {
      "inputs": [],
      "name": "RolesNotDifferent",
      "type": "error"
    },
    {
      "inputs": [
        {
          "internalType": "uint8",
          "name": "bits",
          "type": "uint8"
        },
        {
          "internalType": "uint256",
          "name": "value",
          "type": "uint256"
        }
      ],
      "name": "SafeCastOverflowedUintDowncast",
      "type": "error"
    },
    {
      "inputs": [
        {
          "internalType": "bytes32",
          "name": "shnarf",
          "type": "bytes32"
        }
      ],
      "name": "ShnarfAlreadySubmitted",
      "type": "error"
    },
    {
      "inputs": [],
      "name": "ShnarfSubmissionIsZeroHash",
      "type": "error"
    },
    {
      "inputs": [],
      "name": "StartingRootHashDoesNotMatch",
      "type": "error"
    },
    {
      "inputs": [],
      "name": "ValueSentTooLow",
      "type": "error"
    },
    {
      "inputs": [],
      "name": "ZeroAddressNotAllowed",
      "type": "error"
    },
    {
      "inputs": [],
      "name": "ZeroHashNotAllowed",
      "type": "error"
    },
    {
      "anonymous": false,
      "inputs": [
        {
          "indexed": true,
          "internalType": "address",
          "name": "resettingAddress",
          "type": "address"
        }
      ],
      "name": "AmountUsedInPeriodReset",
      "type": "event"
    },
    {
      "anonymous": false,
      "inputs": [
        {
          "indexed": true,
          "internalType": "uint256",
          "name": "startBlockNumber",
          "type": "uint256"
        },
        {
          "indexed": true,
          "internalType": "uint256",
          "name": "endBlockNumber",
          "type": "uint256"
        },
        {
          "indexed": true,
          "internalType": "bytes32",
          "name": "shnarf",
          "type": "bytes32"
        },
        {
          "indexed": false,
          "internalType": "bytes32",
          "name": "parentStateRootHash",
          "type": "bytes32"
        },
        {
          "indexed": false,
          "internalType": "bytes32",
          "name": "finalStateRootHash",
          "type": "bytes32"
        }
      ],
      "name": "DataFinalizedV3",
      "type": "event"
    },
    {
      "anonymous": false,
      "inputs": [
        {
          "indexed": false,
          "internalType": "bytes32",
          "name": "parentShnarf",
          "type": "bytes32"
        },
        {
          "indexed": true,
          "internalType": "bytes32",
          "name": "shnarf",
          "type": "bytes32"
        },
        {
          "indexed": false,
          "internalType": "bytes32",
          "name": "finalStateRootHash",
          "type": "bytes32"
        }
      ],
      "name": "DataSubmittedV3",
      "type": "event"
    },
    {
      "anonymous": false,
      "inputs": [
        {
          "indexed": false,
          "internalType": "uint8",
          "name": "version",
          "type": "uint8"
        }
      ],
      "name": "Initialized",
      "type": "event"
    },
    {
      "anonymous": false,
      "inputs": [
        {
          "indexed": true,
          "internalType": "bytes32",
          "name": "l2MerkleRoot",
          "type": "bytes32"
        },
        {
          "indexed": true,
          "internalType": "uint256",
          "name": "treeDepth",
          "type": "uint256"
        }
      ],
      "name": "L2MerkleRootAdded",
      "type": "event"
    },
    {
      "anonymous": false,
      "inputs": [
        {
          "indexed": true,
          "internalType": "uint256",
          "name": "l2Block",
          "type": "uint256"
        }
      ],
      "name": "L2MessagingBlockAnchored",
      "type": "event"
    },
    {
      "anonymous": false,
      "inputs": [
        {
          "indexed": true,
          "internalType": "address",
          "name": "amountChangeBy",
          "type": "address"
        },
        {
          "indexed": false,
          "internalType": "uint256",
          "name": "amount",
          "type": "uint256"
        },
        {
          "indexed": false,
          "internalType": "bool",
          "name": "amountUsedLoweredToLimit",
          "type": "bool"
        },
        {
          "indexed": false,
          "internalType": "bool",
          "name": "usedAmountResetToZero",
          "type": "bool"
        }
      ],
      "name": "LimitAmountChanged",
      "type": "event"
    },
    {
      "anonymous": false,
      "inputs": [
        {
          "components": [
            {
              "internalType": "bytes32",
              "name": "initialStateRootHash",
              "type": "bytes32"
            },
            {
              "internalType": "uint256",
              "name": "initialL2BlockNumber",
              "type": "uint256"
            },
            {
              "internalType": "uint256",
              "name": "genesisTimestamp",
              "type": "uint256"
            },
            {
              "internalType": "address",
              "name": "defaultVerifier",
              "type": "address"
            },
            {
              "internalType": "uint256",
              "name": "rateLimitPeriodInSeconds",
              "type": "uint256"
            },
            {
              "internalType": "uint256",
              "name": "rateLimitAmountInWei",
              "type": "uint256"
            },
            {
              "components": [
                {
                  "internalType": "address",
                  "name": "addressWithRole",
                  "type": "address"
                },
                {
                  "internalType": "bytes32",
                  "name": "role",
                  "type": "bytes32"
                }
              ],
              "internalType": "struct IPermissionsManager.RoleAddress[]",
              "name": "roleAddresses",
              "type": "tuple[]"
            },
            {
              "components": [
                {
                  "internalType": "enum IPauseManager.PauseType",
                  "name": "pauseType",
                  "type": "uint8"
                },
                {
                  "internalType": "bytes32",
                  "name": "role",
                  "type": "bytes32"
                }
              ],
              "internalType": "struct IPauseManager.PauseTypeRole[]",
              "name": "pauseTypeRoles",
              "type": "tuple[]"
            },
            {
              "components": [
                {
                  "internalType": "enum IPauseManager.PauseType",
                  "name": "pauseType",
                  "type": "uint8"
                },
                {
                  "internalType": "bytes32",
                  "name": "role",
                  "type": "bytes32"
                }
              ],
              "internalType": "struct IPauseManager.PauseTypeRole[]",
              "name": "unpauseTypeRoles",
              "type": "tuple[]"
            },
            {
              "internalType": "address",
              "name": "defaultAdmin",
              "type": "address"
            },
            {
              "internalType": "address",
              "name": "shnarfProvider",
              "type": "address"
            }
          ],
          "indexed": false,
          "internalType": "struct ILineaRollupBase.BaseInitializationData",
          "name": "InitializationData",
          "type": "tuple"
        }
      ],
      "name": "LineaRollupBaseInitialized",
      "type": "event"
    },
    {
      "anonymous": false,
      "inputs": [
        {
          "indexed": true,
          "internalType": "bytes8",
          "name": "previousVersion",
          "type": "bytes8"
        },
        {
          "indexed": true,
          "internalType": "bytes8",
          "name": "newVersion",
          "type": "bytes8"
        }
      ],
      "name": "LineaRollupVersionChanged",
      "type": "event"
    },
    {
      "anonymous": false,
      "inputs": [
        {
          "indexed": true,
          "internalType": "bytes32",
          "name": "_messageHash",
          "type": "bytes32"
        }
      ],
      "name": "MessageClaimed",
      "type": "event"
    },
    {
      "anonymous": false,
      "inputs": [
        {
          "indexed": true,
          "internalType": "address",
          "name": "_from",
          "type": "address"
        },
        {
          "indexed": true,
          "internalType": "address",
          "name": "_to",
          "type": "address"
        },
        {
          "indexed": false,
          "internalType": "uint256",
          "name": "_fee",
          "type": "uint256"
        },
        {
          "indexed": false,
          "internalType": "uint256",
          "name": "_value",
          "type": "uint256"
        },
        {
          "indexed": false,
          "internalType": "uint256",
          "name": "_nonce",
          "type": "uint256"
        },
        {
          "indexed": false,
          "internalType": "bytes",
          "name": "_calldata",
          "type": "bytes"
        },
        {
          "indexed": true,
          "internalType": "bytes32",
          "name": "_messageHash",
          "type": "bytes32"
        }
      ],
      "name": "MessageSent",
      "type": "event"
    },
    {
      "anonymous": false,
      "inputs": [
        {
          "indexed": true,
          "internalType": "enum IPauseManager.PauseType",
          "name": "pauseType",
          "type": "uint8"
        },
        {
          "indexed": true,
          "internalType": "bytes32",
          "name": "role",
          "type": "bytes32"
        }
      ],
      "name": "PauseTypeRoleSet",
      "type": "event"
    },
    {
      "anonymous": false,
      "inputs": [
        {
          "indexed": true,
          "internalType": "enum IPauseManager.PauseType",
          "name": "pauseType",
          "type": "uint8"
        },
        {
          "indexed": true,
          "internalType": "bytes32",
          "name": "role",
          "type": "bytes32"
        },
        {
          "indexed": true,
          "internalType": "bytes32",
          "name": "previousRole",
          "type": "bytes32"
        }
      ],
      "name": "PauseTypeRoleUpdated",
      "type": "event"
    },
    {
      "anonymous": false,
      "inputs": [
        {
          "indexed": false,
          "internalType": "address",
          "name": "messageSender",
          "type": "address"
        },
        {
          "indexed": true,
          "internalType": "enum IPauseManager.PauseType",
          "name": "pauseType",
          "type": "uint8"
        }
      ],
      "name": "Paused",
      "type": "event"
    },
    {
      "anonymous": false,
      "inputs": [
        {
          "indexed": false,
          "internalType": "uint256",
          "name": "periodInSeconds",
          "type": "uint256"
        },
        {
          "indexed": false,
          "internalType": "uint256",
          "name": "limitInWei",
          "type": "uint256"
        },
        {
          "indexed": false,
          "internalType": "uint256",
          "name": "currentPeriodEnd",
          "type": "uint256"
        }
      ],
      "name": "RateLimitInitialized",
      "type": "event"
    },
    {
      "anonymous": false,
      "inputs": [
        {
          "indexed": true,
          "internalType": "bytes32",
          "name": "role",
          "type": "bytes32"
        },
        {
          "indexed": true,
          "internalType": "bytes32",
          "name": "previousAdminRole",
          "type": "bytes32"
        },
        {
          "indexed": true,
          "internalType": "bytes32",
          "name": "newAdminRole",
          "type": "bytes32"
        }
      ],
      "name": "RoleAdminChanged",
      "type": "event"
    },
    {
      "anonymous": false,
      "inputs": [
        {
          "indexed": true,
          "internalType": "bytes32",
          "name": "role",
          "type": "bytes32"
        },
        {
          "indexed": true,
          "internalType": "address",
          "name": "account",
          "type": "address"
        },
        {
          "indexed": true,
          "internalType": "address",
          "name": "sender",
          "type": "address"
        }
      ],
      "name": "RoleGranted",
      "type": "event"
    },
    {
      "anonymous": false,
      "inputs": [
        {
          "indexed": true,
          "internalType": "bytes32",
          "name": "role",
          "type": "bytes32"
        },
        {
          "indexed": true,
          "internalType": "address",
          "name": "account",
          "type": "address"
        },
        {
          "indexed": true,
          "internalType": "address",
          "name": "sender",
          "type": "address"
        }
      ],
      "name": "RoleRevoked",
      "type": "event"
    },
    {
      "anonymous": false,
      "inputs": [
        {
          "indexed": true,
          "internalType": "uint256",
          "name": "messageNumber",
          "type": "uint256"
        },
        {
          "indexed": true,
          "internalType": "bytes32",
          "name": "rollingHash",
          "type": "bytes32"
        },
        {
          "indexed": true,
          "internalType": "bytes32",
          "name": "messageHash",
          "type": "bytes32"
        }
      ],
      "name": "RollingHashUpdated",
      "type": "event"
    },
    {
      "anonymous": false,
      "inputs": [
        {
          "indexed": true,
          "internalType": "enum IPauseManager.PauseType",
          "name": "unPauseType",
          "type": "uint8"
        },
        {
          "indexed": true,
          "internalType": "bytes32",
          "name": "role",
          "type": "bytes32"
        }
      ],
      "name": "UnPauseTypeRoleSet",
      "type": "event"
    },
    {
      "anonymous": false,
      "inputs": [
        {
          "indexed": true,
          "internalType": "enum IPauseManager.PauseType",
          "name": "unPauseType",
          "type": "uint8"
        },
        {
          "indexed": true,
          "internalType": "bytes32",
          "name": "role",
          "type": "bytes32"
        },
        {
          "indexed": true,
          "internalType": "bytes32",
          "name": "previousRole",
          "type": "bytes32"
        }
      ],
      "name": "UnPauseTypeRoleUpdated",
      "type": "event"
    },
    {
      "anonymous": false,
      "inputs": [
        {
          "indexed": false,
          "internalType": "address",
          "name": "messageSender",
          "type": "address"
        },
        {
          "indexed": true,
          "internalType": "enum IPauseManager.PauseType",
          "name": "pauseType",
          "type": "uint8"
        }
      ],
      "name": "UnPaused",
      "type": "event"
    },
    {
      "anonymous": false,
      "inputs": [
        {
          "indexed": false,
          "internalType": "enum IPauseManager.PauseType",
          "name": "pauseType",
          "type": "uint8"
        }
      ],
      "name": "UnPausedDueToExpiry",
      "type": "event"
    },
    {
      "anonymous": false,
      "inputs": [
        {
          "indexed": true,
          "internalType": "address",
          "name": "verifierAddress",
          "type": "address"
        },
        {
          "indexed": true,
          "internalType": "uint256",
          "name": "proofType",
          "type": "uint256"
        },
        {
          "indexed": true,
          "internalType": "address",
          "name": "verifierSetBy",
          "type": "address"
        },
        {
          "indexed": false,
          "internalType": "address",
          "name": "oldVerifierAddress",
          "type": "address"
        }
      ],
      "name": "VerifierAddressChanged",
      "type": "event"
    },
    {
      "inputs": [],
      "name": "CONTRACT_VERSION",
      "outputs": [
        {
          "internalType": "string",
          "name": "contractVersion",
          "type": "string"
        }
      ],
      "stateMutability": "view",
      "type": "function"
    },
    {
      "inputs": [],
      "name": "COOLDOWN_DURATION",
      "outputs": [
        {
          "internalType": "uint256",
          "name": "",
          "type": "uint256"
        }
      ],
      "stateMutability": "view",
      "type": "function"
    },
    {
      "inputs": [],
      "name": "DEFAULT_ADMIN_ROLE",
      "outputs": [
        {
          "internalType": "bytes32",
          "name": "",
          "type": "bytes32"
        }
      ],
      "stateMutability": "view",
      "type": "function"
    },
    {
      "inputs": [],
      "name": "INBOX_STATUS_RECEIVED",
      "outputs": [
        {
          "internalType": "uint8",
          "name": "",
          "type": "uint8"
        }
      ],
      "stateMutability": "view",
      "type": "function"
    },
    {
      "inputs": [],
      "name": "INBOX_STATUS_UNKNOWN",
      "outputs": [
        {
          "internalType": "uint8",
          "name": "",
          "type": "uint8"
        }
      ],
      "stateMutability": "view",
      "type": "function"
    },
    {
      "inputs": [],
      "name": "OPERATOR_ROLE",
      "outputs": [
        {
          "internalType": "bytes32",
          "name": "",
          "type": "bytes32"
        }
      ],
      "stateMutability": "view",
      "type": "function"
    },
    {
      "inputs": [],
      "name": "OUTBOX_STATUS_RECEIVED",
      "outputs": [
        {
          "internalType": "uint8",
          "name": "",
          "type": "uint8"
        }
      ],
      "stateMutability": "view",
      "type": "function"
    },
    {
      "inputs": [],
      "name": "OUTBOX_STATUS_SENT",
      "outputs": [
        {
          "internalType": "uint8",
          "name": "",
          "type": "uint8"
        }
      ],
      "stateMutability": "view",
      "type": "function"
    },
    {
      "inputs": [],
      "name": "OUTBOX_STATUS_UNKNOWN",
      "outputs": [
        {
          "internalType": "uint8",
          "name": "",
          "type": "uint8"
        }
      ],
      "stateMutability": "view",
      "type": "function"
    },
    {
      "inputs": [],
      "name": "PAUSE_ALL_ROLE",
      "outputs": [
        {
          "internalType": "bytes32",
          "name": "",
          "type": "bytes32"
        }
      ],
      "stateMutability": "view",
      "type": "function"
    },
    {
      "inputs": [],
      "name": "PAUSE_DURATION",
      "outputs": [
        {
          "internalType": "uint256",
          "name": "",
          "type": "uint256"
        }
      ],
      "stateMutability": "view",
      "type": "function"
    },
    {
      "inputs": [],
      "name": "PAUSE_FINALIZATION_ROLE",
      "outputs": [
        {
          "internalType": "bytes32",
          "name": "",
          "type": "bytes32"
        }
      ],
      "stateMutability": "view",
      "type": "function"
    },
    {
      "inputs": [],
      "name": "PAUSE_L1_L2_ROLE",
      "outputs": [
        {
          "internalType": "bytes32",
          "name": "",
          "type": "bytes32"
        }
      ],
      "stateMutability": "view",
      "type": "function"
    },
    {
      "inputs": [],
      "name": "PAUSE_L2_L1_ROLE",
      "outputs": [
        {
          "internalType": "bytes32",
          "name": "",
          "type": "bytes32"
        }
      ],
      "stateMutability": "view",
      "type": "function"
    },
    {
      "inputs": [],
      "name": "PAUSE_STATE_DATA_SUBMISSION_ROLE",
      "outputs": [
        {
          "internalType": "bytes32",
          "name": "",
          "type": "bytes32"
        }
      ],
      "stateMutability": "view",
      "type": "function"
    },
    {
      "inputs": [],
      "name": "RATE_LIMIT_SETTER_ROLE",
      "outputs": [
        {
          "internalType": "bytes32",
          "name": "",
          "type": "bytes32"
        }
      ],
      "stateMutability": "view",
      "type": "function"
    },
    {
      "inputs": [],
      "name": "SECURITY_COUNCIL_ROLE",
      "outputs": [
        {
          "internalType": "bytes32",
          "name": "",
          "type": "bytes32"
        }
      ],
      "stateMutability": "view",
      "type": "function"
    },
    {
      "inputs": [],
      "name": "UNPAUSE_ALL_ROLE",
      "outputs": [
        {
          "internalType": "bytes32",
          "name": "",
          "type": "bytes32"
        }
      ],
      "stateMutability": "view",
      "type": "function"
    },
    {
      "inputs": [],
      "name": "UNPAUSE_FINALIZATION_ROLE",
      "outputs": [
        {
          "internalType": "bytes32",
          "name": "",
          "type": "bytes32"
        }
      ],
      "stateMutability": "view",
      "type": "function"
    },
    {
      "inputs": [],
      "name": "UNPAUSE_L1_L2_ROLE",
      "outputs": [
        {
          "internalType": "bytes32",
          "name": "",
          "type": "bytes32"
        }
      ],
      "stateMutability": "view",
      "type": "function"
    },
    {
      "inputs": [],
      "name": "UNPAUSE_L2_L1_ROLE",
      "outputs": [
        {
          "internalType": "bytes32",
          "name": "",
          "type": "bytes32"
        }
      ],
      "stateMutability": "view",
      "type": "function"
    },
    {
      "inputs": [],
      "name": "UNPAUSE_STATE_DATA_SUBMISSION_ROLE",
      "outputs": [
        {
          "internalType": "bytes32",
          "name": "",
          "type": "bytes32"
        }
      ],
      "stateMutability": "view",
      "type": "function"
    },
    {
      "inputs": [],
      "name": "USED_RATE_LIMIT_RESETTER_ROLE",
      "outputs": [
        {
          "internalType": "bytes32",
          "name": "",
          "type": "bytes32"
        }
      ],
      "stateMutability": "view",
      "type": "function"
    },
    {
      "inputs": [],
      "name": "VERIFIER_SETTER_ROLE",
      "outputs": [
        {
          "internalType": "bytes32",
          "name": "",
          "type": "bytes32"
        }
      ],
      "stateMutability": "view",
      "type": "function"
    },
    {
      "inputs": [],
      "name": "VERIFIER_UNSETTER_ROLE",
      "outputs": [
        {
          "internalType": "bytes32",
          "name": "",
          "type": "bytes32"
        }
      ],
      "stateMutability": "view",
      "type": "function"
    },
    {
      "inputs": [
        {
          "internalType": "bytes32",
          "name": "_parentShnarf",
          "type": "bytes32"
        },
        {
          "internalType": "bytes32",
          "name": "_shnarf",
          "type": "bytes32"
        },
        {
          "internalType": "bytes32",
          "name": "_finalStateRootHash",
          "type": "bytes32"
        }
      ],
      "name": "acceptShnarfData",
      "outputs": [],
      "stateMutability": "nonpayable",
      "type": "function"
    },
    {
      "inputs": [
        {
          "internalType": "bytes32",
          "name": "_shnarf",
          "type": "bytes32"
        }
      ],
      "name": "blobShnarfExists",
      "outputs": [
        {
          "internalType": "uint256",
          "name": "shnarfExists",
          "type": "uint256"
        }
      ],
      "stateMutability": "view",
      "type": "function"
    },
    {
      "inputs": [
        {
          "components": [
            {
              "internalType": "bytes32[]",
              "name": "proof",
              "type": "bytes32[]"
            },
            {
              "internalType": "uint256",
              "name": "messageNumber",
              "type": "uint256"
            },
            {
              "internalType": "uint32",
              "name": "leafIndex",
              "type": "uint32"
            },
            {
              "internalType": "address",
              "name": "from",
              "type": "address"
            },
            {
              "internalType": "address",
              "name": "to",
              "type": "address"
            },
            {
              "internalType": "uint256",
              "name": "fee",
              "type": "uint256"
            },
            {
              "internalType": "uint256",
              "name": "value",
              "type": "uint256"
            },
            {
              "internalType": "address payable",
              "name": "feeRecipient",
              "type": "address"
            },
            {
              "internalType": "bytes32",
              "name": "merkleRoot",
              "type": "bytes32"
            },
            {
              "internalType": "bytes",
              "name": "data",
              "type": "bytes"
            }
          ],
          "internalType": "struct IL1MessageService.ClaimMessageWithProofParams",
          "name": "_params",
          "type": "tuple"
        }
      ],
      "name": "claimMessageWithProof",
      "outputs": [],
      "stateMutability": "nonpayable",
      "type": "function"
    },
    {
      "inputs": [],
      "name": "currentFinalizedShnarf",
      "outputs": [
        {
          "internalType": "bytes32",
          "name": "",
          "type": "bytes32"
        }
      ],
      "stateMutability": "view",
      "type": "function"
    },
    {
      "inputs": [],
      "name": "currentFinalizedState",
      "outputs": [
        {
          "internalType": "bytes32",
          "name": "",
          "type": "bytes32"
        }
      ],
      "stateMutability": "view",
      "type": "function"
    },
    {
      "inputs": [],
      "name": "currentL2BlockNumber",
      "outputs": [
        {
          "internalType": "uint256",
          "name": "",
          "type": "uint256"
        }
      ],
      "stateMutability": "view",
      "type": "function"
    },
    {
      "inputs": [],
      "name": "currentPeriodAmountInWei",
      "outputs": [
        {
          "internalType": "uint256",
          "name": "",
          "type": "uint256"
        }
      ],
      "stateMutability": "view",
      "type": "function"
    },
    {
      "inputs": [],
      "name": "currentPeriodEnd",
      "outputs": [
        {
          "internalType": "uint256",
          "name": "",
          "type": "uint256"
        }
      ],
      "stateMutability": "view",
      "type": "function"
    },
    {
      "inputs": [
        {
          "internalType": "bytes",
          "name": "_aggregatedProof",
          "type": "bytes"
        },
        {
          "internalType": "uint256",
          "name": "_proofType",
          "type": "uint256"
        },
        {
          "components": [
            {
              "internalType": "bytes32",
              "name": "parentStateRootHash",
              "type": "bytes32"
            },
            {
              "internalType": "uint256",
              "name": "endBlockNumber",
              "type": "uint256"
            },
            {
              "components": [
                {
                  "internalType": "bytes32",
                  "name": "parentShnarf",
                  "type": "bytes32"
                },
                {
                  "internalType": "bytes32",
                  "name": "snarkHash",
                  "type": "bytes32"
                },
                {
                  "internalType": "bytes32",
                  "name": "finalStateRootHash",
                  "type": "bytes32"
                },
                {
                  "internalType": "bytes32",
                  "name": "dataEvaluationPoint",
                  "type": "bytes32"
                },
                {
                  "internalType": "bytes32",
                  "name": "dataEvaluationClaim",
                  "type": "bytes32"
                }
              ],
              "internalType": "struct ILineaRollupBase.ShnarfData",
              "name": "shnarfData",
              "type": "tuple"
            },
            {
              "internalType": "uint256",
              "name": "lastFinalizedTimestamp",
              "type": "uint256"
            },
            {
              "internalType": "uint256",
              "name": "finalTimestamp",
              "type": "uint256"
            },
            {
              "internalType": "bytes32",
              "name": "lastFinalizedL1RollingHash",
              "type": "bytes32"
            },
            {
              "internalType": "bytes32",
              "name": "l1RollingHash",
              "type": "bytes32"
            },
            {
              "internalType": "uint256",
              "name": "lastFinalizedL1RollingHashMessageNumber",
              "type": "uint256"
            },
            {
              "internalType": "uint256",
              "name": "l1RollingHashMessageNumber",
              "type": "uint256"
            },
            {
              "internalType": "uint256",
              "name": "l2MerkleTreesDepth",
              "type": "uint256"
            },
            {
              "internalType": "bytes32[]",
              "name": "l2MerkleRoots",
              "type": "bytes32[]"
            },
            {
              "internalType": "bytes",
              "name": "l2MessagingBlocksOffsets",
              "type": "bytes"
            }
          ],
          "internalType": "struct ILineaRollupBase.FinalizationDataV3",
          "name": "_finalizationData",
          "type": "tuple"
        }
      ],
      "name": "finalizeBlocks",
      "outputs": [],
      "stateMutability": "nonpayable",
      "type": "function"
    },
    {
      "inputs": [
        {
          "internalType": "bytes32",
          "name": "role",
          "type": "bytes32"
        }
      ],
      "name": "getRoleAdmin",
      "outputs": [
        {
          "internalType": "bytes32",
          "name": "",
          "type": "bytes32"
        }
      ],
      "stateMutability": "view",
      "type": "function"
    },
    {
      "inputs": [
        {
          "internalType": "bytes32",
          "name": "role",
          "type": "bytes32"
        },
        {
          "internalType": "address",
          "name": "account",
          "type": "address"
        }
      ],
      "name": "grantRole",
      "outputs": [],
      "stateMutability": "nonpayable",
      "type": "function"
    },
    {
      "inputs": [
        {
          "internalType": "bytes32",
          "name": "role",
          "type": "bytes32"
        },
        {
          "internalType": "address",
          "name": "account",
          "type": "address"
        }
      ],
      "name": "hasRole",
      "outputs": [
        {
          "internalType": "bool",
          "name": "",
          "type": "bool"
        }
      ],
      "stateMutability": "view",
      "type": "function"
    },
    {
      "inputs": [
        {
          "internalType": "bytes32",
          "name": "messageHash",
          "type": "bytes32"
        }
      ],
      "name": "inboxL2L1MessageStatus",
      "outputs": [
        {
          "internalType": "uint256",
          "name": "messageStatus",
          "type": "uint256"
        }
      ],
      "stateMutability": "view",
      "type": "function"
    },
    {
      "inputs": [
        {
          "components": [
            {
              "internalType": "bytes32",
              "name": "initialStateRootHash",
              "type": "bytes32"
            },
            {
              "internalType": "uint256",
              "name": "initialL2BlockNumber",
              "type": "uint256"
            },
            {
              "internalType": "uint256",
              "name": "genesisTimestamp",
              "type": "uint256"
            },
            {
              "internalType": "address",
              "name": "defaultVerifier",
              "type": "address"
            },
            {
              "internalType": "uint256",
              "name": "rateLimitPeriodInSeconds",
              "type": "uint256"
            },
            {
              "internalType": "uint256",
              "name": "rateLimitAmountInWei",
              "type": "uint256"
            },
            {
              "components": [
                {
                  "internalType": "address",
                  "name": "addressWithRole",
                  "type": "address"
                },
                {
                  "internalType": "bytes32",
                  "name": "role",
                  "type": "bytes32"
                }
              ],
              "internalType": "struct IPermissionsManager.RoleAddress[]",
              "name": "roleAddresses",
              "type": "tuple[]"
            },
            {
              "components": [
                {
                  "internalType": "enum IPauseManager.PauseType",
                  "name": "pauseType",
                  "type": "uint8"
                },
                {
                  "internalType": "bytes32",
                  "name": "role",
                  "type": "bytes32"
                }
              ],
              "internalType": "struct IPauseManager.PauseTypeRole[]",
              "name": "pauseTypeRoles",
              "type": "tuple[]"
            },
            {
              "components": [
                {
                  "internalType": "enum IPauseManager.PauseType",
                  "name": "pauseType",
                  "type": "uint8"
                },
                {
                  "internalType": "bytes32",
                  "name": "role",
                  "type": "bytes32"
                }
              ],
              "internalType": "struct IPauseManager.PauseTypeRole[]",
              "name": "unpauseTypeRoles",
              "type": "tuple[]"
            },
            {
              "internalType": "address",
              "name": "defaultAdmin",
              "type": "address"
            },
            {
              "internalType": "address",
              "name": "shnarfProvider",
              "type": "address"
            }
          ],
          "internalType": "struct ILineaRollupBase.BaseInitializationData",
          "name": "_initializationData",
          "type": "tuple"
        }
      ],
      "name": "initialize",
      "outputs": [],
      "stateMutability": "nonpayable",
      "type": "function"
    },
    {
      "inputs": [
        {
          "internalType": "uint256",
          "name": "_messageNumber",
          "type": "uint256"
        }
      ],
      "name": "isMessageClaimed",
      "outputs": [
        {
          "internalType": "bool",
          "name": "isClaimed",
          "type": "bool"
        }
      ],
      "stateMutability": "view",
      "type": "function"
    },
    {
      "inputs": [
        {
          "internalType": "enum IPauseManager.PauseType",
          "name": "_pauseType",
          "type": "uint8"
        }
      ],
      "name": "isPaused",
      "outputs": [
        {
          "internalType": "bool",
          "name": "pauseTypeIsPaused",
          "type": "bool"
        }
      ],
      "stateMutability": "view",
      "type": "function"
    },
    {
      "inputs": [
        {
          "internalType": "bytes32",
          "name": "merkleRoot",
          "type": "bytes32"
        }
      ],
      "name": "l2MerkleRootsDepths",
      "outputs": [
        {
          "internalType": "uint256",
          "name": "treeDepth",
          "type": "uint256"
        }
      ],
      "stateMutability": "view",
      "type": "function"
    },
    {
      "inputs": [],
      "name": "limitInWei",
      "outputs": [
        {
          "internalType": "uint256",
          "name": "",
          "type": "uint256"
        }
      ],
      "stateMutability": "view",
      "type": "function"
    },
    {
      "inputs": [],
      "name": "livenessRecoveryOperator",
      "outputs": [
        {
          "internalType": "address",
          "name": "",
          "type": "address"
        }
      ],
      "stateMutability": "view",
      "type": "function"
    },
    {
      "inputs": [],
      "name": "nextMessageNumber",
      "outputs": [
        {
          "internalType": "uint256",
          "name": "",
          "type": "uint256"
        }
      ],
      "stateMutability": "view",
      "type": "function"
    },
    {
      "inputs": [
        {
          "internalType": "bytes32",
          "name": "messageHash",
          "type": "bytes32"
        }
      ],
      "name": "outboxL1L2MessageStatus",
      "outputs": [
        {
          "internalType": "uint256",
          "name": "messageStatus",
          "type": "uint256"
        }
      ],
      "stateMutability": "view",
      "type": "function"
    },
    {
      "inputs": [
        {
          "internalType": "enum IPauseManager.PauseType",
          "name": "_pauseType",
          "type": "uint8"
        }
      ],
      "name": "pauseByType",
      "outputs": [],
      "stateMutability": "nonpayable",
      "type": "function"
    },
    {
      "inputs": [],
      "name": "pauseExpiryTimestamp",
      "outputs": [
        {
          "internalType": "uint256",
          "name": "",
          "type": "uint256"
        }
      ],
      "stateMutability": "view",
      "type": "function"
    },
    {
      "inputs": [],
      "name": "periodInSeconds",
      "outputs": [
        {
          "internalType": "uint256",
          "name": "",
          "type": "uint256"
        }
      ],
      "stateMutability": "view",
      "type": "function"
    },
    {
      "inputs": [
        {
          "internalType": "bytes32",
          "name": "role",
          "type": "bytes32"
        },
        {
          "internalType": "address",
          "name": "account",
          "type": "address"
        }
      ],
      "name": "renounceRole",
      "outputs": [],
      "stateMutability": "nonpayable",
      "type": "function"
    },
    {
      "inputs": [],
      "name": "resetAmountUsedInPeriod",
      "outputs": [],
      "stateMutability": "nonpayable",
      "type": "function"
    },
    {
      "inputs": [
        {
          "internalType": "uint256",
          "name": "_amount",
          "type": "uint256"
        }
      ],
      "name": "resetRateLimitAmount",
      "outputs": [],
      "stateMutability": "nonpayable",
      "type": "function"
    },
    {
      "inputs": [
        {
          "internalType": "bytes32",
          "name": "role",
          "type": "bytes32"
        },
        {
          "internalType": "address",
          "name": "account",
          "type": "address"
        }
      ],
      "name": "revokeRole",
      "outputs": [],
      "stateMutability": "nonpayable",
      "type": "function"
    },
    {
      "inputs": [
        {
          "internalType": "uint256",
          "name": "messageNumber",
          "type": "uint256"
        }
      ],
      "name": "rollingHashes",
      "outputs": [
        {
          "internalType": "bytes32",
          "name": "rollingHash",
          "type": "bytes32"
        }
      ],
      "stateMutability": "view",
      "type": "function"
    },
    {
      "inputs": [
        {
          "internalType": "address",
          "name": "_to",
          "type": "address"
        },
        {
          "internalType": "uint256",
          "name": "_fee",
          "type": "uint256"
        },
        {
          "internalType": "bytes",
          "name": "_calldata",
          "type": "bytes"
        }
      ],
      "name": "sendMessage",
      "outputs": [],
      "stateMutability": "payable",
      "type": "function"
    },
    {
      "inputs": [],
      "name": "sender",
      "outputs": [
        {
          "internalType": "address",
          "name": "originalSender",
          "type": "address"
        }
      ],
      "stateMutability": "view",
      "type": "function"
    },
    {
      "inputs": [
        {
          "internalType": "address",
          "name": "_newVerifierAddress",
          "type": "address"
        },
        {
          "internalType": "uint256",
          "name": "_proofType",
          "type": "uint256"
        }
      ],
      "name": "setVerifierAddress",
      "outputs": [],
      "stateMutability": "nonpayable",
      "type": "function"
    },
    {
      "inputs": [],
      "name": "shnarfProvider",
      "outputs": [
        {
          "internalType": "contract IProvideShnarf",
          "name": "",
          "type": "address"
        }
      ],
      "stateMutability": "view",
      "type": "function"
    },
    {
      "inputs": [
        {
          "internalType": "uint256",
          "name": "blockNumber",
          "type": "uint256"
        }
      ],
      "name": "stateRootHashes",
      "outputs": [
        {
          "internalType": "bytes32",
          "name": "stateRootHash",
          "type": "bytes32"
        }
      ],
      "stateMutability": "view",
      "type": "function"
    },
    {
      "inputs": [
        {
          "internalType": "bytes4",
          "name": "interfaceId",
          "type": "bytes4"
        }
      ],
      "name": "supportsInterface",
      "outputs": [
        {
          "internalType": "bool",
          "name": "",
          "type": "bool"
        }
      ],
      "stateMutability": "view",
      "type": "function"
    },
    {
      "inputs": [],
      "name": "systemMigrationBlock",
      "outputs": [
        {
          "internalType": "uint256",
          "name": "",
          "type": "uint256"
        }
      ],
      "stateMutability": "view",
      "type": "function"
    },
    {
      "inputs": [
        {
          "internalType": "enum IPauseManager.PauseType",
          "name": "_pauseType",
          "type": "uint8"
        }
      ],
      "name": "unPauseByExpiredType",
      "outputs": [],
      "stateMutability": "nonpayable",
      "type": "function"
    },
    {
      "inputs": [
        {
          "internalType": "enum IPauseManager.PauseType",
          "name": "_pauseType",
          "type": "uint8"
        }
      ],
      "name": "unPauseByType",
      "outputs": [],
      "stateMutability": "nonpayable",
      "type": "function"
    },
    {
      "inputs": [
        {
          "internalType": "uint256",
          "name": "_proofType",
          "type": "uint256"
        }
      ],
      "name": "unsetVerifierAddress",
      "outputs": [],
      "stateMutability": "nonpayable",
      "type": "function"
    },
    {
      "inputs": [
        {
          "internalType": "enum IPauseManager.PauseType",
          "name": "_pauseType",
          "type": "uint8"
        },
        {
          "internalType": "bytes32",
          "name": "_newRole",
          "type": "bytes32"
        }
      ],
      "name": "updatePauseTypeRole",
      "outputs": [],
      "stateMutability": "nonpayable",
      "type": "function"
    },
    {
      "inputs": [
        {
          "internalType": "enum IPauseManager.PauseType",
          "name": "_pauseType",
          "type": "uint8"
        },
        {
          "internalType": "bytes32",
          "name": "_newRole",
          "type": "bytes32"
        }
      ],
      "name": "updateUnpauseTypeRole",
      "outputs": [],
      "stateMutability": "nonpayable",
      "type": "function"
    },
    {
      "inputs": [
        {
          "internalType": "uint256",
          "name": "proofType",
          "type": "uint256"
        }
      ],
      "name": "verifiers",
      "outputs": [
        {
          "internalType": "address",
          "name": "verifierAddress",
          "type": "address"
        }
      ],
      "stateMutability": "view",
      "type": "function"
    }
  ],
  "bytecode": "0x6080604052348015600e575f5ffd5b506015601f565b601b601f565b60d9565b5f54610100900460ff161560895760405162461bcd60e51b815260206004820152602760248201527f496e697469616c697a61626c653a20636f6e747261637420697320696e697469604482015266616c697a696e6760c81b606482015260840160405180910390fd5b5f5460ff9081161460d7575f805460ff191660ff9081179091556040519081527f7f26b83ff96e1f2b6a682f133852f6798a09c465da95921460cefb38474024989060200160405180910390a15b565b614a14806100e65f395ff3fe608060405260043610610401575f3560e01c806378ea198a1161021d578063ad422ff011610122578063c1dc0f07116100b7578063d547741f11610087578063e196fb5d1161006d578063e196fb5d14610d5b578063f4586fc814610d7a578063f5b541a614610d99575f5ffd5b8063d547741f14610d09578063d722bbfc14610d28575f5ffd5b8063c1dc0f0714610c8c578063c211697414610ca1578063cc6f725114610cc0578063cd9b9e9a14610cf3575f5ffd5b8063b9fe5cf7116100f2578063b9fe5cf714610bf2578063bc61e73314610c25578063bf3e750514610c44578063c0729ab114610c77575f5ffd5b8063ad422ff014610b81578063aea4f74514610b96578063b837dbe914610baa578063b9174ba314610bbf575f5ffd5b806395ba81fa116101b25780639f3ce55a11610182578063a505925f11610168578063a505925f14610aed578063a98e773d14610b20578063ac1eff6814610b3f575f5ffd5b80639f3ce55a14610ac7578063a217fddf14610ada575f5ffd5b806395ba81fa14610a56578063986fcddd1461093c5780639ac25d0814610a755780639ee8b21114610aa8575f5ffd5b8063914e57eb116101ed578063914e57eb146109ae57806391d14854146109da578063921b278e14610a2b57806392fa129a14610a41575f5ffd5b806378ea198a146109095780637d1e8c551461093c5780638be745d11461094f5780638de494871461097b575f5ffd5b806348922ab7116103235780635ec775b0116102b857806367e404ce116102885780636a906b801161026e5780636a906b801461088f5780636e673843146108c257806373bd07b7146108f5575f5ffd5b806367e404ce1461084f578063695378f514610879575f5ffd5b80635ec775b0146107bb57806360e83cf3146107d157806363213155146107fd5780636463fb2a14610830575f5ffd5b80635603c65f116102f35780635603c65f1461075c578063587944561461077b5780635b7eb4bd146106c55780635c721a0c14610790575f5ffd5b806348922ab7146106c55780635230eef2146106eb57806352abf32d1461071e578063557eac731461073d575f5ffd5b80632c70645c116103995780633b12eccb116103695780633b12eccb1461061b5780633c0f20fc1461064e5780633e9ebfc21461067b5780633fc08b651461069a575f5ffd5b80632c70645c1461057c5780632f2ff15d1461059257806336568abe146105b157806338b90333146105d0575f5ffd5b806321b4deee116103d457806321b4deee146104c7578063248a9ca3146104dd578063289581741461050b5780632acc8df91461052a575f5ffd5b806301ffc9a71461040557806303134d1d146104395780631065a3991461047a5780632130d8121461049b575b5f5ffd5b348015610410575f5ffd5b5061042461041f366004613f24565b610dcc565b60405190151581526020015b60405180910390f35b348015610444575f5ffd5b5061046c7f1ab87f7458c0e3d07e9881c14ee67f0141703614fd48ea5b15ed987e5f4b030e81565b604051908152602001610430565b348015610485575f5ffd5b50610499610494366004613f76565b610e64565b005b3480156104a6575f5ffd5b5061046c6104b5366004613f8f565b5f9081526101be602052604090205490565b3480156104d2575f5ffd5b5061046c6203f48081565b3480156104e8575f5ffd5b5061046c6104f7366004613f8f565b5f9081526065602052604090206001015490565b348015610516575f5ffd5b50610499610525366004613f8f565b611001565b348015610535575f5ffd5b506101c0546105579073ffffffffffffffffffffffffffffffffffffffff1681565b60405173ffffffffffffffffffffffffffffffffffffffff9091168152602001610430565b348015610587575f5ffd5b5061046c6101835481565b34801561059d575f5ffd5b506104996105ac366004613fd2565b6110c1565b3480156105bc575f5ffd5b506104996105cb366004613fd2565b6110ea565b3480156105db575f5ffd5b50604080518082018252600381527f312e300000000000000000000000000000000000000000000000000000000000602082015290516104309190614000565b348015610626575f5ffd5b5061046c7fb6cc65f42901ed602aec1619cc1ead29d487cd489094a37615153eaeb991d77081565b348015610659575f5ffd5b506101c1546105579073ffffffffffffffffffffffffffffffffffffffff1681565b348015610686575f5ffd5b50610499610695366004614035565b61119d565b3480156106a5575f5ffd5b5061046c6106b4366004613f8f565b60a56020525f908152604090205481565b3480156106d0575f5ffd5b506106d9600181565b60405160ff9091168152602001610430565b3480156106f6575f5ffd5b5061046c7f0cf0d2deb70d7bdac2fa48c4ac99bc558170be0ce5fcb994caefa4bf7b96edf981565b348015610729575f5ffd5b50610499610738366004614035565b6112fc565b348015610748575f5ffd5b50610499610757366004613f8f565b61145b565b348015610767575f5ffd5b506104996107763660046140a2565b611521565b348015610786575f5ffd5b5061046c60995481565b34801561079b575f5ffd5b5061046c6107aa366004613f8f565b60a66020525f908152604090205481565b3480156107c6575f5ffd5b5061046c6201518081565b3480156107dc575f5ffd5b5061046c6107eb366004613f8f565b6101506020525f908152604090205481565b348015610808575f5ffd5b5061046c7fe37c272ea30e2bb381ad7cf89ae754b49153250609f36d0cbdad8b64c184bb5c81565b34801561083b575f5ffd5b5061049961084a36600461411a565b611614565b34801561085a575f5ffd5b5060015c73ffffffffffffffffffffffffffffffffffffffff16610557565b348015610884575f5ffd5b5061046c6101195481565b34801561089a575f5ffd5b5061046c7fd8b4c34c2ec1f3194471108c64ad2beda340c0337ee4ca35592f9ef270f4228b81565b3480156108cd575f5ffd5b5061046c7f32937fd5162e282df7e9a14a5073a2425321c7966eaf70ed6c838a1006d84c4c81565b348015610900575f5ffd5b506106d9600281565b348015610914575f5ffd5b5061046c7f4df33217c89b6f12af38ba46035cb312b5e88de78d22279286830fe079b642cd81565b348015610947575f5ffd5b506106d95f81565b34801561095a575f5ffd5b5061046c610969366004613f8f565b61011a6020525f908152604090205481565b348015610986575f5ffd5b5061046c7fe1fce82838dd7a42cfe783f60dc6233c8aa2c4fc66e77817805e767ec5e349b681565b3480156109b9575f5ffd5b5061046c6109c8366004613f8f565b61014e6020525f908152604090205481565b3480156109e5575f5ffd5b506104246109f4366004613fd2565b5f91825260656020908152604080842073ffffffffffffffffffffffffffffffffffffffff93909316845291905290205460ff1690565b348015610a36575f5ffd5b5061046c6101bf5481565b348015610a4c575f5ffd5b5061046c60dd5481565b348015610a61575f5ffd5b50610499610a70366004613f76565b6117df565b348015610a80575f5ffd5b5061046c7f56bdc3c9ec86cb7db110a7699b2ade72f0b8819727d9f7d906b012641505fa7781565b348015610ab3575f5ffd5b50610424610ac2366004613f8f565b61190a565b610499610ad5366004614152565b61192d565b348015610ae5575f5ffd5b5061046c5f81565b348015610af8575f5ffd5b5061046c7f21aba2dd4535739d4ca4cddb3c024036bfcc88cfce067cb0847e7ad0f9cfaa5581565b348015610b2b575f5ffd5b50610499610b3a3660046141aa565b61194b565b348015610b4a575f5ffd5b50610557610b59366004613f8f565b61011b6020525f908152604090205473ffffffffffffffffffffffffffffffffffffffff1681565b348015610b8c575f5ffd5b5061046c60985481565b348015610ba1575f5ffd5b50610499611b0d565b348015610bb5575f5ffd5b5061046c60e45481565b348015610bca575f5ffd5b5061046c7f430a7f0cb00b5ebbe63cecc96e82cf959a883e7c13a95110854f1fa6b3fbf59881565b348015610bfd575f5ffd5b5061046c7f1453a531db80c85f2d944d498709d84959bc5bf839eefe9acb784571e5a3211881565b348015610c30575f5ffd5b50610424610c3f366004613f76565b611b68565b348015610c4f575f5ffd5b5061046c7f1185e52d62bfbbea270e57d3d09733d221b53ab7a18bae82bb3c6c74bab16d8281565b348015610c82575f5ffd5b5061046c609a5481565b348015610c97575f5ffd5b5061046c60975481565b348015610cac575f5ffd5b50610499610cbb3660046141e2565b611b8c565b348015610ccb575f5ffd5b5061046c7fe8cb6172fcf5cbaae022b7c910224a4f0c20d53227e630056efff182155a5abc81565b348015610cfe575f5ffd5b5061046c6101bd5481565b348015610d14575f5ffd5b50610499610d23366004613fd2565b611cb9565b348015610d33575f5ffd5b5061046c7f6b5661ddfbd1fbd525c902a513e0f47d9c74f1c1ee8a2d4f1937ad305fb8f41a81565b348015610d66575f5ffd5b50610499610d75366004613f76565b611cdd565b348015610d85575f5ffd5b50610499610d943660046141fe565b611eb5565b348015610da4575f5ffd5b5061046c7f97667070c54ef182b0f5858b034beac1b6f3089aa2d3188bb1e8929f4fa9b92981565b5f7fffffffff0000000000000000000000000000000000000000000000000000000082167f7965db0b000000000000000000000000000000000000000000000000000000001480610e5e57507f01ffc9a7000000000000000000000000000000000000000000000000000000007fffffffff000000000000000000000000000000000000000000000000000000008316145b92915050565b805f816009811115610e7857610e78614227565b03610eaf576040517f85994c7700000000000000000000000000000000000000000000000000000000815260040160405180910390fd5b60dc5f836009811115610ec457610ec4614227565b6009811115610ed557610ed5614227565b81526020019081526020015f2054610eec81611f69565b610ef583611b68565b610f3657826040517f18659654000000000000000000000000000000000000000000000000000000008152600401610f2d919061428d565b60405180910390fd5b335f9081527f74a8627e7e8109f70747bbdf2c891159d40f925b9c8f09259a497b8c31b3780b602052604090205460ff1615610f7d57610f7962015180426142c8565b60dd555b826009811115610f8f57610f8f614227565b60da8054600190921b199091169055826009811115610fb057610fb0614227565b7fd071d2b85dec4489435b541d2f0e2570db09b09db9efd8703948d44a433df65a335b60405173ffffffffffffffffffffffffffffffffffffffff90911681526020015b60405180910390a2505050565b7f6b5661ddfbd1fbd525c902a513e0f47d9c74f1c1ee8a2d4f1937ad305fb8f41a61102b81611f69565b5f82815261011b6020908152604080832054905173ffffffffffffffffffffffffffffffffffffffff90911681523392859290917f4a29db3fc6b42bda201e4b4d69ce8d575eeeba5f153509c0d0a342af0f1bd021910160405180910390a4505f90815261011b6020526040902080547fffffffffffffffffffffffff0000000000000000000000000000000000000000169055565b5f828152606560205260409020600101546110db81611f69565b6110e58383611f76565b505050565b73ffffffffffffffffffffffffffffffffffffffff8116331461118f576040517f08c379a000000000000000000000000000000000000000000000000000000000815260206004820152602f60248201527f416363657373436f6e74726f6c3a2063616e206f6e6c792072656e6f756e636560448201527f20726f6c657320666f722073656c6600000000000000000000000000000000006064820152608401610f2d565b6111998282612068565b5050565b815f8160098111156111b1576111b1614227565b036111e8576040517f85994c7700000000000000000000000000000000000000000000000000000000815260040160405180910390fd5b7f1453a531db80c85f2d944d498709d84959bc5bf839eefe9acb784571e5a3211861121281611f69565b5f60db5f86600981111561122857611228614227565b600981111561123957611239614227565b81526020019081526020015f20549050838103611282576040517f1b807f5500000000000000000000000000000000000000000000000000000000815260040160405180910390fd5b8360db5f87600981111561129857611298614227565b60098111156112a9576112a9614227565b815260208101919091526040015f205580848660098111156112cd576112cd614227565b6040517f074bfc3728ef1e98bde10bcb5bd8cde59cff190c2bfda5d22f879f865a07bac5905f90a45050505050565b815f81600981111561131057611310614227565b03611347576040517f85994c7700000000000000000000000000000000000000000000000000000000815260040160405180910390fd5b7f1453a531db80c85f2d944d498709d84959bc5bf839eefe9acb784571e5a3211861137181611f69565b5f60dc5f86600981111561138757611387614227565b600981111561139857611398614227565b81526020019081526020015f205490508381036113e1576040517f1b807f5500000000000000000000000000000000000000000000000000000000815260040160405180910390fd5b8360dc5f8760098111156113f7576113f7614227565b600981111561140857611408614227565b815260208101919091526040015f2055808486600981111561142c5761142c614227565b6040517ff8ef9f1cde7c2c0d3aeb696678f76d7c1c3e13c3b79ea3c5160a2d9eaa821cfd905f90a45050505050565b7f1185e52d62bfbbea270e57d3d09733d221b53ab7a18bae82bb3c6c74bab16d8261148581611f69565b5f5f5f4260995410156114aa5760975461149f90426142db565b6099555060016114bc565b609a548510156114bc57849250600191505b609885905580806114ca5750815b156114d557609a8390555b60408051868152831515602082015282151581830152905133917fbc3dc0cb5c15c51c81316450d44048838bb478b9809447d01c766a06f3e9f2c8919081900360600190a25050505050565b600661152c81612121565b7f97667070c54ef182b0f5858b034beac1b6f3089aa2d3188bb1e8929f4fa9b92961155681611f69565b5f859003611590576040517f7907d79b00000000000000000000000000000000000000000000000000000000815260040160405180910390fd5b610119545f81815261011a60205260409020548435146115dc576040517fead4c30e00000000000000000000000000000000000000000000000000000000815260040160405180910390fd5b6101bd545f6115eb86846121b3565b90505f6115fa878484876124d8565b905061160881898c8c612563565b50505050505050505050565b60015f5c0361164f576040517f37ed32e800000000000000000000000000000000000000000000000000000000815260040160405180910390fd5b6001805f5d5060a0810180359061166990608084016142ee565b611677610120840184614309565b611688610100860160e087016142ee565b5f5a9050611695876127d1565b85156117d057855f84900361171f57853b15801561171d573a5a6116bb61bc7c866142db565b6116c591906142c8565b6116cf919061436a565b9150818811156117195773ffffffffffffffffffffffffffffffffffffffff87166108fc6116fd848b6142c8565b6040518115909202915f818181858888f193505050505061171d565b8791505b505b5f73ffffffffffffffffffffffffffffffffffffffff8416156117425783611744565b335b90505f8173ffffffffffffffffffffffffffffffffffffffff166108fc8490811502906040515f60405180830381858888f193505050509050806117cc576040517fa57c4df400000000000000000000000000000000000000000000000000000000815273ffffffffffffffffffffffffffffffffffffffff83166004820152602401610f2d565b5050505b5050505050505f5f81905d5050565b805f8160098111156117f3576117f3614227565b0361182a576040517f85994c7700000000000000000000000000000000000000000000000000000000815260040160405180910390fd5b61183382611b68565b61186b57816040517f18659654000000000000000000000000000000000000000000000000000000008152600401610f2d919061428d565b60dd544210156118ad5760dd546040517fcfd8aa6f000000000000000000000000000000000000000000000000000000008152600401610f2d91815260200190565b8160098111156118bf576118bf614227565b60da8054600190921b1990911690556040517f3ddaeb19197ed3b5334f4c1cd5716f663d0f6dce30c52800bd1674da0b88e87a906118fe90849061428d565b60405180910390a15050565b600881901c5f90815261014f6020526040812054600160ff84161b161515610e5e565b600261193881612121565b61194485858585612afa565b5050505050565b5f54610100900460ff161580801561196957505f54600160ff909116105b806119825750303b15801561198257505f5460ff166001145b611a0e576040517f08c379a000000000000000000000000000000000000000000000000000000000815260206004820152602e60248201527f496e697469616c697a61626c653a20636f6e747261637420697320616c72656160448201527f647920696e697469616c697a65640000000000000000000000000000000000006064820152608401610f2d565b5f80547fffffffffffffffffffffffffffffffffffffffffffffffffffffffffffffff001660011790558015611a6a575f80547fffffffffffffffffffffffffffffffffffffffffffffffffffffffffffff00ff166101001790555b604080515f8082526020808301829052853583850152606083018290526080830182905260a09092208082526101be9092529190912060019055611aae8382612c37565b508015611199575f80547fffffffffffffffffffffffffffffffffffffffffffffffffffffffffffff00ff169055604051600181527f7f26b83ff96e1f2b6a682f133852f6798a09c465da95921460cefb3847402498906020016118fe565b7f0cf0d2deb70d7bdac2fa48c4ac99bc558170be0ce5fcb994caefa4bf7b96edf9611b3781611f69565b5f609a81905560405133917fba88c025b0cbb77022c0c487beef24f759f1e4be2f51a205bc427cee19c2eaa691a250565b5f816009811115611b7b57611b7b614227565b60da54600190911b16151592915050565b7f32937fd5162e282df7e9a14a5073a2425321c7966eaf70ed6c838a1006d84c4c611bb681611f69565b73ffffffffffffffffffffffffffffffffffffffff8316611c03576040517f8579befe00000000000000000000000000000000000000000000000000000000815260040160405180910390fd5b5f82815261011b602090815260409182902054915173ffffffffffffffffffffffffffffffffffffffff928316815233928592908716917f4a29db3fc6b42bda201e4b4d69ce8d575eeeba5f153509c0d0a342af0f1bd021910160405180910390a4505f90815261011b6020526040902080547fffffffffffffffffffffffff00000000000000000000000000000000000000001673ffffffffffffffffffffffffffffffffffffffff92909216919091179055565b5f82815260656020526040902060010154611cd381611f69565b6110e58383612068565b805f816009811115611cf157611cf1614227565b03611d28576040517f85994c7700000000000000000000000000000000000000000000000000000000815260040160405180910390fd5b60db5f836009811115611d3d57611d3d614227565b6009811115611d4e57611d4e614227565b81526020019081526020015f2054611d6581611f69565b611d6e83611b68565b15611da757826040517fc0a71b58000000000000000000000000000000000000000000000000000000008152600401610f2d919061428d565b335f9081527f74a8627e7e8109f70747bbdf2c891159d40f925b9c8f09259a497b8c31b3780b602052604090205460ff1615611e06577ffffffffffffffffffffffffffffffffffffffffffffffffffffffffffffeae7f60dd55611e5c565b6201518060dd5401421015611e52576201518060dd54016040517fc04205ee000000000000000000000000000000000000000000000000000000008152600401610f2d91815260200190565b426203f4800160dd555b826009811115611e6e57611e6e614227565b60da8054600190921b9091179055826009811115611e8e57611e8e614227565b7f534f879afd40abb4e39f8e1b77a316be4c8e3521d9cf5a3a3db8959d574d455933610fd3565b6009611ec081612121565b7f97667070c54ef182b0f5858b034beac1b6f3089aa2d3188bb1e8929f4fa9b929611eea81611f69565b5f849003611f24576040517f87fb99b300000000000000000000000000000000000000000000000000000000815260040160405180910390fd5b5f839003611f5e576040517ff9069dd800000000000000000000000000000000000000000000000000000000815260040160405180910390fd5b611944858585612ebf565b611f738133612fa1565b50565b5f82815260656020908152604080832073ffffffffffffffffffffffffffffffffffffffff8516845290915290205460ff16611199575f82815260656020908152604080832073ffffffffffffffffffffffffffffffffffffffff85168452909152902080547fffffffffffffffffffffffffffffffffffffffffffffffffffffffffffffff0016600117905561200a3390565b73ffffffffffffffffffffffffffffffffffffffff168173ffffffffffffffffffffffffffffffffffffffff16837f2f8788117e7eff1d82e926ec794901d17c78024a50270940304540a733656f0d60405160405180910390a45050565b5f82815260656020908152604080832073ffffffffffffffffffffffffffffffffffffffff8516845290915290205460ff1615611199575f82815260656020908152604080832073ffffffffffffffffffffffffffffffffffffffff8516808552925280832080547fffffffffffffffffffffffffffffffffffffffffffffffffffffffffffffff0016905551339285917ff6391f5c32d9c69d2a47ea670b442974b53935d1edc7fd64eb21e047a839171b9190a45050565b60da5481600981111561213657612136614227565b6001901b81161561217557816040517fc0a71b58000000000000000000000000000000000000000000000000000000008152600401610f2d919061428d565b60028116156111995760016040517fc0a71b58000000000000000000000000000000000000000000000000000000008152600401610f2d919061428d565b5f6121c883610180013584610140013561303c565b6101bf54604080516101608601358152610120860135602082015260e086013591810191909152606090201461225e57604080516101608501358152610120850135602082015260e085013591810191909152606090206101bf546040517fbc5aad1100000000000000000000000000000000000000000000000000000000815260048101929092526024820152604401610f2d565b42836101000135106122a9576040517fbf81c6e00000000000000000000000000000000000000000000000000000000081526101008401356004820152426024820152604401610f2d565b60808301356122e4576040517f2898482a00000000000000000000000000000000000000000000000000000000815260040160405180910390fd5b61232760408401356060850135608086013560a087013560c0880135604080519586526020860194909452928401919091526060830152608082015260a0902090565b6101c1546040517f2130d8120000000000000000000000000000000000000000000000000000000081526004810183905291925073ffffffffffffffffffffffffffffffffffffffff1690632130d81290602401602060405180830381865afa158015612396573d5f5f3e3d5ffd5b505050506040513d601f19601f820116820180604052508101906123ba9190614381565b5f036123f5576040517fd35bb1d100000000000000000000000000000000000000000000000000000000815260048101829052602401610f2d565b6124116124066101c0850185614398565b856101a00135613109565b6124286124226101e0850185614309565b84613215565b6020808401355f81815261011a909252604090912060808501359055610119556101bd81905561247d610180840135610140850135610100860135604080519384526020840192909252908201526060902090565b6101bf55806020840135612490846143fc565b60408051873581526080880135602082015291955085917fa0262dc79e4ccb71ceac8574ae906311ae338aa4a2044fd4ec4b99fad5ab60cb910160405180910390a492915050565b5f604051848152836020820152604060e087016040830137826080820152602080870160a083013760a0610120870160c083013761018081016101c087013587018035602081026020830184376020029091206101608301525061018090207f30644e72e131a029b85045b68181585d2833e84879b9709143e1f593f0000001900695945050505050565b6040805160018082528183019092525f916020808301908036833701905050905084815f8151811061259757612597614441565b6020908102919091018101919091525f85815261011b909152604090205473ffffffffffffffffffffffffffffffffffffffff1680612602576040517f69ed70ab00000000000000000000000000000000000000000000000000000000815260040160405180910390fd5b5f5f8273ffffffffffffffffffffffffffffffffffffffff1686868660405160240161263093929190614497565b60408051601f198184030181529181526020820180517bffffffffffffffffffffffffffffffffffffffffffffffffffffffff167f7e4f7a8a00000000000000000000000000000000000000000000000000000000179052516126939190614508565b5f604051808303815f865af19150503d805f81146126cc576040519150601f19603f3d011682016040523d82523d5f602084013e6126d1565b606091505b5091509150816127785780511561271657602081017bffffffffffffffffffffffffffffffffffffffffffffffffffffffff81511663ca389c4460e01b178152815181fd5b6040517fca389c4400000000000000000000000000000000000000000000000000000000815260206004820152600760248201527f556e6b6e6f776e000000000000000000000000000000000000000000000000006044820152606401610f2d565b5f8180602001905181019061278d9190614513565b9050806127c6576040517f09bde33900000000000000000000000000000000000000000000000000000000815260040160405180910390fd5b505050505050505050565b6127db6003612121565b6101008101355f90815261015060205260408120549081900361282a576040517f4e68667500000000000000000000000000000000000000000000000000000000815260040160405180910390fd5b6128348280614398565b9050811461288357806128478380614398565b6040517f5e3fd6ad0000000000000000000000000000000000000000000000000000000081526004810193909352602483015250604401610f2d565b61289082602001356132a2565b6128aa6128a560c084013560a08501356142db565b61331a565b5f6128f06128be60808501606086016142ee565b6128ce60a08601608087016142ee565b60a086013560c087013560208801356128eb6101208a018a614309565b613390565b905061291b816129008580614398565b6129106060880160408901614532565b8761010001356133e9565b612951576040517fb05e92fa00000000000000000000000000000000000000000000000000000000815260040160405180910390fd5b61296160808401606085016142ee565b6001805c7fffffffffffffffffffffffff00000000000000000000000000000000000000001673ffffffffffffffffffffffffffffffffffffffff831617905d505f806129b460a08601608087016142ee565b73ffffffffffffffffffffffffffffffffffffffff1660c08601356129dd610120880188614309565b6040516129eb929190614555565b5f6040518083038185875af1925050503d805f8114612a25576040519150601f19603f3d011682016040523d82523d5f602084013e612a2a565b606091505b509150915081612a9f57805115612a445780518082602001fd5b612a5460a08601608087016142ee565b6040517f5461344300000000000000000000000000000000000000000000000000000000815273ffffffffffffffffffffffffffffffffffffffff9091166004820152602401610f2d565b5f6001805c7fffffffffffffffffffffffff000000000000000000000000000000000000000016905d5060405183907fa4c827e719e911e8f19393ccdb85b5102f08f0910604d340ba38390b7ff2ab0e905f90a25050505050565b73ffffffffffffffffffffffffffffffffffffffff8416612b47576040517f8579befe00000000000000000000000000000000000000000000000000000000815260040160405180910390fd5b34831115612b81576040517fb03b693200000000000000000000000000000000000000000000000000000000815260040160405180910390fd5b60e480545f9182612b91836143fc565b9091555090505f612ba285346142c8565b90505f612bb433888885878a8a613390565b9050612bc083826134f6565b808773ffffffffffffffffffffffffffffffffffffffff163373ffffffffffffffffffffffffffffffffffffffff167fe856c2b8bd4eb0027ce32eeaf595c21b0b6b4644b326e5b7bd80a1cf8db72e6c8986888b8b604051612c26959493929190614564565b60405180910390a450505050505050565b5f612c4860808401606085016142ee565b73ffffffffffffffffffffffffffffffffffffffff1603612c95576040517f8579befe00000000000000000000000000000000000000000000000000000000815260040160405180910390fd5b612cb8612ca560e0840184614594565b612cb3610100860186614594565b613553565b612cca82608001358360a001356137fa565b5f612cdd610140840161012085016142ee565b73ffffffffffffffffffffffffffffffffffffffff1603612d2a576040517f8579befe00000000000000000000000000000000000000000000000000000000815260040160405180910390fd5b612d455f612d40610140850161012086016142ee565b611f76565b612d5a612d5560c0840184614594565b6138bb565b612d6a60808301606084016142ee565b7f033d11f27e62ab919708ec716731da80d261a6e4253259b7acde9bf89d28ec1880547fffffffffffffffffffffffff00000000000000000000000000000000000000001673ffffffffffffffffffffffffffffffffffffffff929092169190911790556020828101356101198190555f90815261011a82526040808220853590556101bd8490558051828152928301919091528084013590820152606090206101bf555f612e21610160840161014085016142ee565b905073ffffffffffffffffffffffffffffffffffffffff8116612e415750305b6101c180547fffffffffffffffffffffffff00000000000000000000000000000000000000001673ffffffffffffffffffffffffffffffffffffffff83161790556040517f58455261cac6af8cd1bcaa46dfff758169d70684c30d7bd8d6ffde05d4c75f5990612eb29085906146fc565b60405180910390a1505050565b5f8381526101be60205260409020548390612f09576040517fc77b964c000000000000000000000000000000000000000000000000000000008152600401610f2d91815260200190565b505f8281526101be6020526040902054829015612f55576040517fe69adeca000000000000000000000000000000000000000000000000000000008152600401610f2d91815260200190565b505f8281526101be602090815260409182902060019055815185815290810183905283917f55f4c645c36aa5cd3f443d6be44d7a7a5df9d2100d7139dfc69d4289ee0723199101610ff4565b5f82815260656020908152604080832073ffffffffffffffffffffffffffffffffffffffff8516845290915290205460ff1661119957612fe081613a76565b612feb836020613a95565b604051602001612ffc929190614839565b60408051601f19818403018152908290527f08c379a0000000000000000000000000000000000000000000000000000000008252610f2d91600401614000565b815f0361307e578015611199576040517f0c25659200000000000000000000000000000000000000000000000000000000815260048101829052602401610f2d565b806130b8576040517f5228f4c800000000000000000000000000000000000000000000000000000000815260048101839052602401610f2d565b5f82815261014e60205260409020548114611199576040517f36459fa00000000000000000000000000000000000000000000000000000000081526004810183905260248101829052604401610f2d565b5f5b8281101561320f576101505f85858481811061312957613129614441565b9050602002013581526020019081526020015f20545f146131925783838281811061315657613156614441565b905060200201356040517fe5d14425000000000000000000000000000000000000000000000000000000008152600401610f2d91815260200190565b816101505f8686858181106131a9576131a9614441565b9050602002013581526020019081526020015f2081905550818484838181106131d4576131d4614441565b905060200201357f300e6f978eee6a4b0bba78dd8400dc64fd5652dbfc868a2258e16d0977be222b60405160405180910390a360010161310b565b50505050565b6132206002836148a3565b1561325a576040517f0c91d77600000000000000000000000000000000000000000000000000000000815260048101839052602401610f2d565b5f5f5b83811015611944576040518582013560f01c9250838301907f3c116827db9db3a30c1a25db8b0ee4bab9d2b223560209cfd839601b621c726d905f90a260020161325d565b600881901c5f90815261014f6020526040902054600160ff83161b16156132f8576040517f335a4a9000000000000000000000000000000000000000000000000000000000815260048101829052602401610f2d565b600881901c5f90815261014f602052604090208054600160ff84161b17905550565b8015611f735742609954101561333f5760975461333790426142db565b60995561334f565b609a5461334c90826142db565b90505b60985481111561338b576040517fa74c1c5f00000000000000000000000000000000000000000000000000000000815260040160405180910390fd5b609a55565b5f60405188815287602082015286604082015285606082015284608082015260c060a08201528260c0820152602083065f81156133ce578160200390505b848660e085013790930160e001902098975050505050505050565b5f8061340a60016133fb8760026149be565b61340591906142c8565b613cd9565b90508063ffffffff168463ffffffff161115613462576040517ff7ec909700000000000000000000000000000000000000000000000000000000815263ffffffff808616600483015282166024820152604401610f2d565b865f5b868110156134e857600163ffffffff8716821c811690036134b2576134ab88888381811061349557613495614441565b90506020020135835f9182526020526040902090565b91506134e0565b6134dd828989848181106134c8576134c8614441565b905060200201355f9182526020526040902090565b91505b600101613465565b509092149695505050505050565b5f1982015f90815261014e60208181526040808420548452848252808420868552929091528083208290555190918391839186917fea3b023b4c8680d4b4824f0143132c95476359a2bb70a81d6c5a36f6918f63399190a4505050565b5f54610100900460ff166135e9576040517f08c379a000000000000000000000000000000000000000000000000000000000815260206004820152602b60248201527f496e697469616c697a61626c653a20636f6e7472616374206973206e6f74206960448201527f6e697469616c697a696e670000000000000000000000000000000000000000006064820152608401610f2d565b5f5b838110156136f15784848281811061360557613605614441565b9050604002016020013560db5f87878581811061362457613624614441565b61363a9260206040909202019081019150613f76565b600981111561364b5761364b614227565b600981111561365c5761365c614227565b815260208101919091526040015f205584848281811061367e5761367e614441565b9050604002016020013585858381811061369a5761369a614441565b6136b09260206040909202019081019150613f76565b60098111156136c1576136c1614227565b6040517f33aa8fd1ce49e1761bc8d27fd53414bfefc45d690feed0ce55019d7d3aec6091905f90a36001016135eb565b505f5b818110156119445782828281811061370e5761370e614441565b9050604002016020013560dc5f85858581811061372d5761372d614441565b6137439260206040909202019081019150613f76565b600981111561375457613754614227565b600981111561376557613765614227565b815260208101919091526040015f205582828281811061378757613787614441565b905060400201602001358383838181106137a3576137a3614441565b6137b99260206040909202019081019150613f76565b60098111156137ca576137ca614227565b6040517fe7bf4b8dc0c17a52dc9e52323a3ab61cb2079db35f969125b1f8a3d984c6f6c2905f90a36001016136f4565b5f54610100900460ff16613890576040517f08c379a000000000000000000000000000000000000000000000000000000000815260206004820152602b60248201527f496e697469616c697a61626c653a20636f6e7472616374206973206e6f74206960448201527f6e697469616c697a696e670000000000000000000000000000000000000000006064820152608401610f2d565b613898613d26565b6138a0613d26565b6138a8613d26565b6138b28282613dbe565b5050600160e455565b5f54610100900460ff16613951576040517f08c379a000000000000000000000000000000000000000000000000000000000815260206004820152602b60248201527f496e697469616c697a61626c653a20636f6e7472616374206973206e6f74206960448201527f6e697469616c697a696e670000000000000000000000000000000000000000006064820152608401610f2d565b5f5b818110156110e5575f83838381811061396e5761396e614441565b61398492602060409092020190810191506142ee565b73ffffffffffffffffffffffffffffffffffffffff16036139d1576040517f8579befe00000000000000000000000000000000000000000000000000000000815260040160405180910390fd5b8282828181106139e3576139e3614441565b905060400201602001355f5f1b03613a27576040517f0742d05300000000000000000000000000000000000000000000000000000000815260040160405180910390fd5b613a6e838383818110613a3c57613a3c614441565b90506040020160200135848484818110613a5857613a58614441565b612d4092602060409092020190810191506142ee565b600101613953565b6060610e5e73ffffffffffffffffffffffffffffffffffffffff831660145b60605f613aa383600261436a565b613aae9060026142db565b67ffffffffffffffff811115613ac657613ac6614414565b6040519080825280601f01601f191660200182016040528015613af0576020820181803683370190505b5090507f3000000000000000000000000000000000000000000000000000000000000000815f81518110613b2657613b26614441565b60200101907effffffffffffffffffffffffffffffffffffffffffffffffffffffffffffff191690815f1a9053507f780000000000000000000000000000000000000000000000000000000000000081600181518110613b8857613b88614441565b60200101907effffffffffffffffffffffffffffffffffffffffffffffffffffffffffffff191690815f1a9053505f613bc284600261436a565b613bcd9060016142db565b90505b6001811115613c69577f303132333435363738396162636465660000000000000000000000000000000085600f1660108110613c0e57613c0e614441565b1a60f81b828281518110613c2457613c24614441565b60200101907effffffffffffffffffffffffffffffffffffffffffffffffffffffffffffff191690815f1a90535060049490941c93613c62816149c9565b9050613bd0565b508315613cd2576040517f08c379a000000000000000000000000000000000000000000000000000000000815260206004820181905260248201527f537472696e67733a20686578206c656e67746820696e73756666696369656e746044820152606401610f2d565b9392505050565b5f63ffffffff821115613d22576040517f6dfcc6500000000000000000000000000000000000000000000000000000000081526020600482015260248101839052604401610f2d565b5090565b5f54610100900460ff16613dbc576040517f08c379a000000000000000000000000000000000000000000000000000000000815260206004820152602b60248201527f496e697469616c697a61626c653a20636f6e7472616374206973206e6f74206960448201527f6e697469616c697a696e670000000000000000000000000000000000000000006064820152608401610f2d565b565b5f54610100900460ff16613e54576040517f08c379a000000000000000000000000000000000000000000000000000000000815260206004820152602b60248201527f496e697469616c697a61626c653a20636f6e7472616374206973206e6f74206960448201527f6e697469616c697a696e670000000000000000000000000000000000000000006064820152608401610f2d565b815f03613e8d576040517fb5ed5a3b00000000000000000000000000000000000000000000000000000000815260040160405180910390fd5b805f03613ec6576040517fd10d72bb00000000000000000000000000000000000000000000000000000000815260040160405180910390fd5b60978290556098819055613eda82426142db565b60998190556097546098546040805192835260208301919091528101919091527f8f805c372b66240792580418b7328c0c554ae235f0932475c51b026887fe26a9906060016118fe565b5f60208284031215613f34575f5ffd5b81357fffffffff0000000000000000000000000000000000000000000000000000000081168114613cd2575f5ffd5b8035600a8110613f71575f5ffd5b919050565b5f60208284031215613f86575f5ffd5b613cd282613f63565b5f60208284031215613f9f575f5ffd5b5035919050565b73ffffffffffffffffffffffffffffffffffffffff81168114611f73575f5ffd5b8035613f7181613fa6565b5f5f60408385031215613fe3575f5ffd5b823591506020830135613ff581613fa6565b809150509250929050565b602081525f82518060208401528060208501604085015e5f604082850101526040601f19601f83011684010191505092915050565b5f5f60408385031215614046575f5ffd5b61404f83613f63565b946020939093013593505050565b5f5f83601f84011261406d575f5ffd5b50813567ffffffffffffffff811115614084575f5ffd5b60208301915083602082850101111561409b575f5ffd5b9250929050565b5f5f5f5f606085870312156140b5575f5ffd5b843567ffffffffffffffff8111156140cb575f5ffd5b6140d78782880161405d565b90955093505060208501359150604085013567ffffffffffffffff8111156140fd575f5ffd5b8501610200818803121561410f575f5ffd5b939692955090935050565b5f6020828403121561412a575f5ffd5b813567ffffffffffffffff811115614140575f5ffd5b82016101408185031215613cd2575f5ffd5b5f5f5f5f60608587031215614165575f5ffd5b843561417081613fa6565b935060208501359250604085013567ffffffffffffffff811115614192575f5ffd5b61419e8782880161405d565b95989497509550505050565b5f602082840312156141ba575f5ffd5b813567ffffffffffffffff8111156141d0575f5ffd5b82016101608185031215613cd2575f5ffd5b5f5f604083850312156141f3575f5ffd5b823561404f81613fa6565b5f5f5f60608486031215614210575f5ffd5b505081359360208301359350604090920135919050565b7f4e487b71000000000000000000000000000000000000000000000000000000005f52602160045260245ffd5b600a8110614289577f4e487b71000000000000000000000000000000000000000000000000000000005f52602160045260245ffd5b9052565b60208101610e5e8284614254565b7f4e487b71000000000000000000000000000000000000000000000000000000005f52601160045260245ffd5b81810381811115610e5e57610e5e61429b565b80820180821115610e5e57610e5e61429b565b5f602082840312156142fe575f5ffd5b8135613cd281613fa6565b5f5f83357fffffffffffffffffffffffffffffffffffffffffffffffffffffffffffffffe184360301811261433c575f5ffd5b83018035915067ffffffffffffffff821115614356575f5ffd5b60200191503681900382131561409b575f5ffd5b8082028115828204841417610e5e57610e5e61429b565b5f60208284031215614391575f5ffd5b5051919050565b5f5f83357fffffffffffffffffffffffffffffffffffffffffffffffffffffffffffffffe18436030181126143cb575f5ffd5b83018035915067ffffffffffffffff8211156143e5575f5ffd5b6020019150600581901b360382131561409b575f5ffd5b5f5f19820361440d5761440d61429b565b5060010190565b7f4e487b71000000000000000000000000000000000000000000000000000000005f52604160045260245ffd5b7f4e487b71000000000000000000000000000000000000000000000000000000005f52603260045260245ffd5b81835281816020850137505f602082840101525f6020601f19601f840116840101905092915050565b604081525f6144aa60408301858761446e565b82810360208401528084518083526020830191506020860192505f5b818110156144e45783518352602093840193909201916001016144c6565b5090979650505050505050565b5f81518060208401855e5f93019283525090919050565b5f613cd282846144f1565b5f60208284031215614523575f5ffd5b81518015158114613cd2575f5ffd5b5f60208284031215614542575f5ffd5b813563ffffffff81168114613cd2575f5ffd5b818382375f9101908152919050565b858152846020820152836040820152608060608201525f61458960808301848661446e565b979650505050505050565b5f5f83357fffffffffffffffffffffffffffffffffffffffffffffffffffffffffffffffe18436030181126145c7575f5ffd5b83018035915067ffffffffffffffff8211156145e1575f5ffd5b6020019150600681901b360382131561409b575f5ffd5b5f5f83357fffffffffffffffffffffffffffffffffffffffffffffffffffffffffffffffe184360301811261462b575f5ffd5b830160208101925035905067ffffffffffffffff81111561464a575f5ffd5b8060061b360382131561409b575f5ffd5b8183526020830192505f815f5b848110156146af57813561467b81613fa6565b73ffffffffffffffffffffffffffffffffffffffff1686526020828101359087015260409586019590910190600101614668565b5093949350505050565b8183526020830192505f815f5b848110156146af576146e0866146db84613f63565b614254565b60208281013590870152604095860195909101906001016146c6565b60208082528235828201528201356040808301919091528201356060808301919091525f9061472c908401613fc7565b73ffffffffffffffffffffffffffffffffffffffff8116608084015250608083013560a08381019190915283013560c08084019190915261476f908401846145f8565b61016060e08501526147866101808501828461465b565b91505061479660e08501856145f8565b601f19858403016101008601526147ae8382846146b9565b925050506147c06101008501856145f8565b601f19858403016101208601526147d88382846146b9565b925050506147e96101208501613fc7565b73ffffffffffffffffffffffffffffffffffffffff8116610140850152506148146101408501613fc7565b73ffffffffffffffffffffffffffffffffffffffff8116610160850152509392505050565b7f416363657373436f6e74726f6c3a206163636f756e742000000000000000000081525f61486a60178301856144f1565b7f206973206d697373696e6720726f6c6520000000000000000000000000000000815261489a60118201856144f1565b95945050505050565b5f826148d6577f4e487b71000000000000000000000000000000000000000000000000000000005f52601260045260245ffd5b500690565b6001815b6001841115614916578085048111156148fa576148fa61429b565b600184161561490857908102905b60019390931c9280026148df565b935093915050565b5f8261492c57506001610e5e565b8161493857505f610e5e565b816001811461494e576002811461495857614974565b6001915050610e5e565b60ff8411156149695761496961429b565b50506001821b610e5e565b5060208310610133831016604e8410600b8410161715614997575081810a610e5e565b6149a35f1984846148db565b805f19048211156149b6576149b661429b565b029392505050565b5f613cd2838361491e565b5f816149d7576149d761429b565b505f19019056fea2646970667358221220a09010aced6da2c92a0161639e5c2f44e1aab9420a3596e62b75a1f7c407632764736f6c634300081e0033",
  "linkReferences": {},
  "deployedLinkReferences": {}
}