{
    "_format": "hh-sol-artifact-1",
    "contractName": "Validium",
    "sourceName": "src/rollup/Validium.sol",
    "abi": [
        {
            "inputs": [],
            "stateMutability": "nonpayable",
            "type": "constructor"
        },
        {
            "inputs": [],
            "name": "BytesLengthNotMultipleOf32",
            "type": "error"
        },
        {
            "inputs": [
                {
                    "internalType": "uint256",
                    "name": "bytesLength",
                    "type": "uint256"
                }
            ],
            "name": "BytesLengthNotMultipleOfTwo",
            "type": "error"
        },
        {
            "inputs": [],
            "name": "CallerNotProxyAdmin",
            "type": "error"
        },
        {
            "inputs": [
                {
                    "internalType": "address",
                    "name": "recipient",
                    "type": "address"
                }
            ],
            "name": "FeePaymentFailed",
            "type": "error"
        },
        {
            "inputs": [],
            "name": "FeeTooLow",
            "type": "error"
        },
        {
            "inputs": [
                {
                    "internalType": "bytes32",
                    "name": "shnarf",
                    "type": "bytes32"
                }
            ],
            "name": "FinalBlobNotSubmitted",
            "type": "error"
        },
        {
            "inputs": [],
            "name": "FinalBlockStateEqualsZeroHash",
            "type": "error"
        },
        {
            "inputs": [
                {
                    "internalType": "bytes32",
                    "name": "expected",
                    "type": "bytes32"
                },
                {
                    "internalType": "bytes32",
                    "name": "value",
                    "type": "bytes32"
                }
            ],
            "name": "FinalShnarfWrong",
            "type": "error"
        },
        {
            "inputs": [
                {
                    "internalType": "uint256",
                    "name": "l2BlockTimestamp",
                    "type": "uint256"
                },
                {
                    "internalType": "uint256",
                    "name": "currentBlockTimestamp",
                    "type": "uint256"
                }
            ],
            "name": "FinalizationInTheFuture",
            "type": "error"
        },
        {
            "inputs": [
                {
                    "internalType": "bytes32",
                    "name": "expected",
                    "type": "bytes32"
                },
                {
                    "internalType": "bytes32",
                    "name": "value",
                    "type": "bytes32"
                }
            ],
            "name": "FinalizationStateIncorrect",
            "type": "error"
        },
        {
            "inputs": [],
            "name": "InvalidMerkleProof",
            "type": "error"
        },
        {
            "inputs": [],
            "name": "InvalidProof",
            "type": "error"
        },
        {
            "inputs": [
                {
                    "internalType": "string",
                    "name": "errorReason",
                    "type": "string"
                }
            ],
            "name": "InvalidProofOrProofVerificationRanOutOfGas",
            "type": "error"
        },
        {
            "inputs": [],
            "name": "InvalidProofType",
            "type": "error"
        },
        {
            "inputs": [
                {
                    "internalType": "enum IPauseManager.PauseType",
                    "name": "pauseType",
                    "type": "uint8"
                }
            ],
            "name": "IsNotPaused",
            "type": "error"
        },
        {
            "inputs": [
                {
                    "internalType": "enum IPauseManager.PauseType",
                    "name": "pauseType",
                    "type": "uint8"
                }
            ],
            "name": "IsPaused",
            "type": "error"
        },
        {
            "inputs": [
                {
                    "internalType": "uint256",
                    "name": "messageNumber",
                    "type": "uint256"
                },
                {
                    "internalType": "bytes32",
                    "name": "rollingHash",
                    "type": "bytes32"
                }
            ],
            "name": "L1RollingHashDoesNotExistOnL1",
            "type": "error"
        },
        {
            "inputs": [
                {
                    "internalType": "bytes32",
                    "name": "merkleRoot",
                    "type": "bytes32"
                }
            ],
            "name": "L2MerkleRootAlreadyAnchored",
            "type": "error"
        },
        {
            "inputs": [],
            "name": "L2MerkleRootDoesNotExist",
            "type": "error"
        },
        {
            "inputs": [],
            "name": "LastFinalizationTimeNotLapsed",
            "type": "error"
        },
        {
            "inputs": [
                {
                    "internalType": "uint32",
                    "name": "leafIndex",
                    "type": "uint32"
                },
                {
                    "internalType": "uint32",
                    "name": "maxAllowedIndex",
                    "type": "uint32"
                }
            ],
            "name": "LeafIndexOutOfBounds",
            "type": "error"
        },
        {
            "inputs": [],
            "name": "LimitIsZero",
            "type": "error"
        },
        {
            "inputs": [
                {
                    "internalType": "uint256",
                    "name": "messageIndex",
                    "type": "uint256"
                }
            ],
            "name": "MessageAlreadyClaimed",
            "type": "error"
        },
        {
            "inputs": [
                {
                    "internalType": "bytes32",
                    "name": "messageHash",
                    "type": "bytes32"
                }
            ],
            "name": "MessageDoesNotExistOrHasAlreadyBeenClaimed",
            "type": "error"
        },
        {
            "inputs": [
                {
                    "internalType": "address",
                    "name": "destination",
                    "type": "address"
                }
            ],
            "name": "MessageSendingFailed",
            "type": "error"
        },
        {
            "inputs": [
                {
                    "internalType": "bytes32",
                    "name": "rollingHash",
                    "type": "bytes32"
                }
            ],
            "name": "MissingMessageNumberForRollingHash",
            "type": "error"
        },
        {
            "inputs": [
                {
                    "internalType": "uint256",
                    "name": "messageNumber",
                    "type": "uint256"
                }
            ],
            "name": "MissingRollingHashForMessageNumber",
            "type": "error"
        },
        {
            "inputs": [],
            "name": "OnlyNonFallbackOperator",
            "type": "error"
        },
        {
            "inputs": [
                {
                    "internalType": "bytes32",
                    "name": "shnarf",
                    "type": "bytes32"
                }
            ],
            "name": "ParentShnarfNotSubmitted",
            "type": "error"
        },
        {
            "inputs": [
                {
                    "internalType": "uint256",
                    "name": "expiryEnd",
                    "type": "uint256"
                }
            ],
            "name": "PauseNotExpired",
            "type": "error"
        },
        {
            "inputs": [],
            "name": "PauseTypeNotUsed",
            "type": "error"
        },
        {
            "inputs": [
                {
                    "internalType": "uint256",
                    "name": "cooldownEnd",
                    "type": "uint256"
                }
            ],
            "name": "PauseUnavailableDueToCooldown",
            "type": "error"
        },
        {
            "inputs": [],
            "name": "PeriodIsZero",
            "type": "error"
        },
        {
            "inputs": [],
            "name": "ProofIsEmpty",
            "type": "error"
        },
        {
            "inputs": [
                {
                    "internalType": "uint256",
                    "name": "actual",
                    "type": "uint256"
                },
                {
                    "internalType": "uint256",
                    "name": "expected",
                    "type": "uint256"
                }
            ],
            "name": "ProofLengthDifferentThanMerkleDepth",
            "type": "error"
        },
        {
            "inputs": [],
            "name": "RateLimitExceeded",
            "type": "error"
        },
        {
            "inputs": [],
            "name": "ReentrantCall",
            "type": "error"
        },
        {
            "inputs": [],
            "name": "RolesNotDifferent",
            "type": "error"
        },
        {
            "inputs": [
                {
                    "internalType": "uint8",
                    "name": "bits",
                    "type": "uint8"
                },
                {
                    "internalType": "uint256",
                    "name": "value",
                    "type": "uint256"
                }
            ],
            "name": "SafeCastOverflowedUintDowncast",
            "type": "error"
        },
        {
            "inputs": [
                {
                    "internalType": "bytes32",
                    "name": "shnarf",
                    "type": "bytes32"
                }
            ],
            "name": "ShnarfAlreadySubmitted",
            "type": "error"
        },
        {
            "inputs": [],
            "name": "StartingRootHashDoesNotMatch",
            "type": "error"
        },
        {
            "inputs": [],
            "name": "ValueSentTooLow",
            "type": "error"
        },
        {
            "inputs": [],
            "name": "ZeroAddressNotAllowed",
            "type": "error"
        },
        {
            "inputs": [],
            "name": "ZeroHashNotAllowed",
            "type": "error"
        },
        {
            "anonymous": false,
            "inputs": [
                {
                    "indexed": true,
                    "internalType": "address",
                    "name": "resettingAddress",
                    "type": "address"
                }
            ],
            "name": "AmountUsedInPeriodReset",
            "type": "event"
        },
        {
            "anonymous": false,
            "inputs": [
                {
                    "indexed": true,
                    "internalType": "uint256",
                    "name": "startBlockNumber",
                    "type": "uint256"
                },
                {
                    "indexed": true,
                    "internalType": "uint256",
                    "name": "endBlockNumber",
                    "type": "uint256"
                },
                {
                    "indexed": true,
                    "internalType": "bytes32",
                    "name": "shnarf",
                    "type": "bytes32"
                },
                {
                    "indexed": false,
                    "internalType": "bytes32",
                    "name": "parentStateRootHash",
                    "type": "bytes32"
                },
                {
                    "indexed": false,
                    "internalType": "bytes32",
                    "name": "finalStateRootHash",
                    "type": "bytes32"
                }
            ],
            "name": "DataFinalizedV3",
            "type": "event"
        },
        {
            "anonymous": false,
            "inputs": [
                {
                    "indexed": false,
                    "internalType": "bytes32",
                    "name": "parentShnarf",
                    "type": "bytes32"
                },
                {
                    "indexed": true,
                    "internalType": "bytes32",
                    "name": "shnarf",
                    "type": "bytes32"
                },
                {
                    "indexed": false,
                    "internalType": "bytes32",
                    "name": "finalStateRootHash",
                    "type": "bytes32"
                }
            ],
            "name": "DataSubmittedV3",
            "type": "event"
        },
        {
            "anonymous": false,
            "inputs": [
                {
                    "indexed": true,
                    "internalType": "address",
                    "name": "caller",
                    "type": "address"
                },
                {
                    "indexed": true,
                    "internalType": "address",
                    "name": "fallbackOperator",
                    "type": "address"
                }
            ],
            "name": "FallbackOperatorAddressSet",
            "type": "event"
        },
        {
            "anonymous": false,
            "inputs": [
                {
                    "indexed": true,
                    "internalType": "address",
                    "name": "caller",
                    "type": "address"
                },
                {
                    "indexed": true,
                    "internalType": "address",
                    "name": "fallbackOperator",
                    "type": "address"
                }
            ],
            "name": "FallbackOperatorRoleGranted",
            "type": "event"
        },
        {
            "anonymous": false,
            "inputs": [
                {
                    "indexed": false,
                    "internalType": "uint8",
                    "name": "version",
                    "type": "uint8"
                }
            ],
            "name": "Initialized",
            "type": "event"
        },
        {
            "anonymous": false,
            "inputs": [
                {
                    "indexed": true,
                    "internalType": "bytes32",
                    "name": "l2MerkleRoot",
                    "type": "bytes32"
                },
                {
                    "indexed": true,
                    "internalType": "uint256",
                    "name": "treeDepth",
                    "type": "uint256"
                }
            ],
            "name": "L2MerkleRootAdded",
            "type": "event"
        },
        {
            "anonymous": false,
            "inputs": [
                {
                    "indexed": true,
                    "internalType": "uint256",
                    "name": "l2Block",
                    "type": "uint256"
                }
            ],
            "name": "L2MessagingBlockAnchored",
            "type": "event"
        },
        {
            "anonymous": false,
            "inputs": [
                {
                    "indexed": true,
                    "internalType": "address",
                    "name": "amountChangeBy",
                    "type": "address"
                },
                {
                    "indexed": false,
                    "internalType": "uint256",
                    "name": "amount",
                    "type": "uint256"
                },
                {
                    "indexed": false,
                    "internalType": "bool",
                    "name": "amountUsedLoweredToLimit",
                    "type": "bool"
                },
                {
                    "indexed": false,
                    "internalType": "bool",
                    "name": "usedAmountResetToZero",
                    "type": "bool"
                }
            ],
            "name": "LimitAmountChanged",
            "type": "event"
        },
        {
            "anonymous": false,
            "inputs": [
                {
                    "components": [
                        {
                            "internalType": "bytes32",
                            "name": "initialStateRootHash",
                            "type": "bytes32"
                        },
                        {
                            "internalType": "uint256",
                            "name": "initialL2BlockNumber",
                            "type": "uint256"
                        },
                        {
                            "internalType": "uint256",
                            "name": "genesisTimestamp",
                            "type": "uint256"
                        },
                        {
                            "internalType": "address",
                            "name": "defaultVerifier",
                            "type": "address"
                        },
                        {
                            "internalType": "uint256",
                            "name": "rateLimitPeriodInSeconds",
                            "type": "uint256"
                        },
                        {
                            "internalType": "uint256",
                            "name": "rateLimitAmountInWei",
                            "type": "uint256"
                        },
                        {
                            "components": [
                                {
                                    "internalType": "address",
                                    "name": "addressWithRole",
                                    "type": "address"
                                },
                                {
                                    "internalType": "bytes32",
                                    "name": "role",
                                    "type": "bytes32"
                                }
                            ],
                            "internalType": "struct IPermissionsManager.RoleAddress[]",
                            "name": "roleAddresses",
                            "type": "tuple[]"
                        },
                        {
                            "components": [
                                {
                                    "internalType": "enum IPauseManager.PauseType",
                                    "name": "pauseType",
                                    "type": "uint8"
                                },
                                {
                                    "internalType": "bytes32",
                                    "name": "role",
                                    "type": "bytes32"
                                }
                            ],
                            "internalType": "struct IPauseManager.PauseTypeRole[]",
                            "name": "pauseTypeRoles",
                            "type": "tuple[]"
                        },
                        {
                            "components": [
                                {
                                    "internalType": "enum IPauseManager.PauseType",
                                    "name": "pauseType",
                                    "type": "uint8"
                                },
                                {
                                    "internalType": "bytes32",
                                    "name": "role",
                                    "type": "bytes32"
                                }
                            ],
                            "internalType": "struct IPauseManager.PauseTypeRole[]",
                            "name": "unpauseTypeRoles",
                            "type": "tuple[]"
                        },
                        {
                            "internalType": "address",
                            "name": "fallbackOperator",
                            "type": "address"
                        },
                        {
                            "internalType": "address",
                            "name": "defaultAdmin",
                            "type": "address"
                        },
                        {
                            "internalType": "address",
                            "name": "shnarfProvider",
                            "type": "address"
                        }
                    ],
                    "indexed": false,
                    "internalType": "struct ILineaRollup.InitializationData",
                    "name": "InitializationData",
                    "type": "tuple"
                }
            ],
            "name": "LineaRollupInitialized",
            "type": "event"
        },
        {
            "anonymous": false,
            "inputs": [
                {
                    "indexed": true,
                    "internalType": "bytes8",
                    "name": "previousVersion",
                    "type": "bytes8"
                },
                {
                    "indexed": true,
                    "internalType": "bytes8",
                    "name": "newVersion",
                    "type": "bytes8"
                }
            ],
            "name": "LineaRollupVersionChanged",
            "type": "event"
        },
        {
            "anonymous": false,
            "inputs": [
                {
                    "indexed": true,
                    "internalType": "bytes32",
                    "name": "_messageHash",
                    "type": "bytes32"
                }
            ],
            "name": "MessageClaimed",
            "type": "event"
        },
        {
            "anonymous": false,
            "inputs": [
                {
                    "indexed": true,
                    "internalType": "address",
                    "name": "_from",
                    "type": "address"
                },
                {
                    "indexed": true,
                    "internalType": "address",
                    "name": "_to",
                    "type": "address"
                },
                {
                    "indexed": false,
                    "internalType": "uint256",
                    "name": "_fee",
                    "type": "uint256"
                },
                {
                    "indexed": false,
                    "internalType": "uint256",
                    "name": "_value",
                    "type": "uint256"
                },
                {
                    "indexed": false,
                    "internalType": "uint256",
                    "name": "_nonce",
                    "type": "uint256"
                },
                {
                    "indexed": false,
                    "internalType": "bytes",
                    "name": "_calldata",
                    "type": "bytes"
                },
                {
                    "indexed": true,
                    "internalType": "bytes32",
                    "name": "_messageHash",
                    "type": "bytes32"
                }
            ],
            "name": "MessageSent",
            "type": "event"
        },
        {
            "anonymous": false,
            "inputs": [
                {
                    "indexed": true,
                    "internalType": "enum IPauseManager.PauseType",
                    "name": "pauseType",
                    "type": "uint8"
                },
                {
                    "indexed": true,
                    "internalType": "bytes32",
                    "name": "role",
                    "type": "bytes32"
                }
            ],
            "name": "PauseTypeRoleSet",
            "type": "event"
        },
        {
            "anonymous": false,
            "inputs": [
                {
                    "indexed": true,
                    "internalType": "enum IPauseManager.PauseType",
                    "name": "pauseType",
                    "type": "uint8"
                },
                {
                    "indexed": true,
                    "internalType": "bytes32",
                    "name": "role",
                    "type": "bytes32"
                },
                {
                    "indexed": true,
                    "internalType": "bytes32",
                    "name": "previousRole",
                    "type": "bytes32"
                }
            ],
            "name": "PauseTypeRoleUpdated",
            "type": "event"
        },
        {
            "anonymous": false,
            "inputs": [
                {
                    "indexed": false,
                    "internalType": "address",
                    "name": "messageSender",
                    "type": "address"
                },
                {
                    "indexed": true,
                    "internalType": "enum IPauseManager.PauseType",
                    "name": "pauseType",
                    "type": "uint8"
                }
            ],
            "name": "Paused",
            "type": "event"
        },
        {
            "anonymous": false,
            "inputs": [
                {
                    "indexed": false,
                    "internalType": "uint256",
                    "name": "periodInSeconds",
                    "type": "uint256"
                },
                {
                    "indexed": false,
                    "internalType": "uint256",
                    "name": "limitInWei",
                    "type": "uint256"
                },
                {
                    "indexed": false,
                    "internalType": "uint256",
                    "name": "currentPeriodEnd",
                    "type": "uint256"
                }
            ],
            "name": "RateLimitInitialized",
            "type": "event"
        },
        {
            "anonymous": false,
            "inputs": [
                {
                    "indexed": true,
                    "internalType": "bytes32",
                    "name": "role",
                    "type": "bytes32"
                },
                {
                    "indexed": true,
                    "internalType": "bytes32",
                    "name": "previousAdminRole",
                    "type": "bytes32"
                },
                {
                    "indexed": true,
                    "internalType": "bytes32",
                    "name": "newAdminRole",
                    "type": "bytes32"
                }
            ],
            "name": "RoleAdminChanged",
            "type": "event"
        },
        {
            "anonymous": false,
            "inputs": [
                {
                    "indexed": true,
                    "internalType": "bytes32",
                    "name": "role",
                    "type": "bytes32"
                },
                {
                    "indexed": true,
                    "internalType": "address",
                    "name": "account",
                    "type": "address"
                },
                {
                    "indexed": true,
                    "internalType": "address",
                    "name": "sender",
                    "type": "address"
                }
            ],
            "name": "RoleGranted",
            "type": "event"
        },
        {
            "anonymous": false,
            "inputs": [
                {
                    "indexed": true,
                    "internalType": "bytes32",
                    "name": "role",
                    "type": "bytes32"
                },
                {
                    "indexed": true,
                    "internalType": "address",
                    "name": "account",
                    "type": "address"
                },
                {
                    "indexed": true,
                    "internalType": "address",
                    "name": "sender",
                    "type": "address"
                }
            ],
            "name": "RoleRevoked",
            "type": "event"
        },
        {
            "anonymous": false,
            "inputs": [
                {
                    "indexed": true,
                    "internalType": "uint256",
                    "name": "messageNumber",
                    "type": "uint256"
                },
                {
                    "indexed": true,
                    "internalType": "bytes32",
                    "name": "rollingHash",
                    "type": "bytes32"
                },
                {
                    "indexed": true,
                    "internalType": "bytes32",
                    "name": "messageHash",
                    "type": "bytes32"
                }
            ],
            "name": "RollingHashUpdated",
            "type": "event"
        },
        {
            "anonymous": false,
            "inputs": [
                {
                    "indexed": true,
                    "internalType": "enum IPauseManager.PauseType",
                    "name": "unPauseType",
                    "type": "uint8"
                },
                {
                    "indexed": true,
                    "internalType": "bytes32",
                    "name": "role",
                    "type": "bytes32"
                }
            ],
            "name": "UnPauseTypeRoleSet",
            "type": "event"
        },
        {
            "anonymous": false,
            "inputs": [
                {
                    "indexed": true,
                    "internalType": "enum IPauseManager.PauseType",
                    "name": "unPauseType",
                    "type": "uint8"
                },
                {
                    "indexed": true,
                    "internalType": "bytes32",
                    "name": "role",
                    "type": "bytes32"
                },
                {
                    "indexed": true,
                    "internalType": "bytes32",
                    "name": "previousRole",
                    "type": "bytes32"
                }
            ],
            "name": "UnPauseTypeRoleUpdated",
            "type": "event"
        },
        {
            "anonymous": false,
            "inputs": [
                {
                    "indexed": false,
                    "internalType": "address",
                    "name": "messageSender",
                    "type": "address"
                },
                {
                    "indexed": true,
                    "internalType": "enum IPauseManager.PauseType",
                    "name": "pauseType",
                    "type": "uint8"
                }
            ],
            "name": "UnPaused",
            "type": "event"
        },
        {
            "anonymous": false,
            "inputs": [
                {
                    "indexed": false,
                    "internalType": "enum IPauseManager.PauseType",
                    "name": "pauseType",
                    "type": "uint8"
                }
            ],
            "name": "UnPausedDueToExpiry",
            "type": "event"
        },
        {
            "anonymous": false,
            "inputs": [
                {
                    "indexed": true,
                    "internalType": "address",
                    "name": "verifierAddress",
                    "type": "address"
                },
                {
                    "indexed": true,
                    "internalType": "uint256",
                    "name": "proofType",
                    "type": "uint256"
                },
                {
                    "indexed": true,
                    "internalType": "address",
                    "name": "verifierSetBy",
                    "type": "address"
                },
                {
                    "indexed": false,
                    "internalType": "address",
                    "name": "oldVerifierAddress",
                    "type": "address"
                }
            ],
            "name": "VerifierAddressChanged",
            "type": "event"
        },
        {
            "inputs": [],
            "name": "CONTRACT_VERSION",
            "outputs": [
                {
                    "internalType": "string",
                    "name": "contractVersion",
                    "type": "string"
                }
            ],
            "stateMutability": "view",
            "type": "function"
        },
        {
            "inputs": [],
            "name": "COOLDOWN_DURATION",
            "outputs": [
                {
                    "internalType": "uint256",
                    "name": "",
                    "type": "uint256"
                }
            ],
            "stateMutability": "view",
            "type": "function"
        },
        {
            "inputs": [],
            "name": "DEFAULT_ADMIN_ROLE",
            "outputs": [
                {
                    "internalType": "bytes32",
                    "name": "",
                    "type": "bytes32"
                }
            ],
            "stateMutability": "view",
            "type": "function"
        },
        {
            "inputs": [],
            "name": "INBOX_STATUS_RECEIVED",
            "outputs": [
                {
                    "internalType": "uint8",
                    "name": "",
                    "type": "uint8"
                }
            ],
            "stateMutability": "view",
            "type": "function"
        },
        {
            "inputs": [],
            "name": "INBOX_STATUS_UNKNOWN",
            "outputs": [
                {
                    "internalType": "uint8",
                    "name": "",
                    "type": "uint8"
                }
            ],
            "stateMutability": "view",
            "type": "function"
        },
        {
            "inputs": [],
            "name": "OPERATOR_ROLE",
            "outputs": [
                {
                    "internalType": "bytes32",
                    "name": "",
                    "type": "bytes32"
                }
            ],
            "stateMutability": "view",
            "type": "function"
        },
        {
            "inputs": [],
            "name": "OUTBOX_STATUS_RECEIVED",
            "outputs": [
                {
                    "internalType": "uint8",
                    "name": "",
                    "type": "uint8"
                }
            ],
            "stateMutability": "view",
            "type": "function"
        },
        {
            "inputs": [],
            "name": "OUTBOX_STATUS_SENT",
            "outputs": [
                {
                    "internalType": "uint8",
                    "name": "",
                    "type": "uint8"
                }
            ],
            "stateMutability": "view",
            "type": "function"
        },
        {
            "inputs": [],
            "name": "OUTBOX_STATUS_UNKNOWN",
            "outputs": [
                {
                    "internalType": "uint8",
                    "name": "",
                    "type": "uint8"
                }
            ],
            "stateMutability": "view",
            "type": "function"
        },
        {
            "inputs": [],
            "name": "PAUSE_ALL_ROLE",
            "outputs": [
                {
                    "internalType": "bytes32",
                    "name": "",
                    "type": "bytes32"
                }
            ],
            "stateMutability": "view",
            "type": "function"
        },
        {
            "inputs": [],
            "name": "PAUSE_BLOB_SUBMISSION_ROLE",
            "outputs": [
                {
                    "internalType": "bytes32",
                    "name": "",
                    "type": "bytes32"
                }
            ],
            "stateMutability": "view",
            "type": "function"
        },
        {
            "inputs": [],
            "name": "PAUSE_DURATION",
            "outputs": [
                {
                    "internalType": "uint256",
                    "name": "",
                    "type": "uint256"
                }
            ],
            "stateMutability": "view",
            "type": "function"
        },
        {
            "inputs": [],
            "name": "PAUSE_FINALIZATION_ROLE",
            "outputs": [
                {
                    "internalType": "bytes32",
                    "name": "",
                    "type": "bytes32"
                }
            ],
            "stateMutability": "view",
            "type": "function"
        },
        {
            "inputs": [],
            "name": "PAUSE_L1_L2_ROLE",
            "outputs": [
                {
                    "internalType": "bytes32",
                    "name": "",
                    "type": "bytes32"
                }
            ],
            "stateMutability": "view",
            "type": "function"
        },
        {
            "inputs": [],
            "name": "PAUSE_L2_L1_ROLE",
            "outputs": [
                {
                    "internalType": "bytes32",
                    "name": "",
                    "type": "bytes32"
                }
            ],
            "stateMutability": "view",
            "type": "function"
        },
        {
            "inputs": [],
            "name": "PAUSE_SHNARF_SUBMISSION_ROLE",
            "outputs": [
                {
                    "internalType": "bytes32",
                    "name": "",
                    "type": "bytes32"
                }
            ],
            "stateMutability": "view",
            "type": "function"
        },
        {
            "inputs": [],
            "name": "RATE_LIMIT_SETTER_ROLE",
            "outputs": [
                {
                    "internalType": "bytes32",
                    "name": "",
                    "type": "bytes32"
                }
            ],
            "stateMutability": "view",
            "type": "function"
        },
        {
            "inputs": [],
            "name": "SECURITY_COUNCIL_ROLE",
            "outputs": [
                {
                    "internalType": "bytes32",
                    "name": "",
                    "type": "bytes32"
                }
            ],
            "stateMutability": "view",
            "type": "function"
        },
        {
            "inputs": [],
            "name": "UNPAUSE_ALL_ROLE",
            "outputs": [
                {
                    "internalType": "bytes32",
                    "name": "",
                    "type": "bytes32"
                }
            ],
            "stateMutability": "view",
            "type": "function"
        },
        {
            "inputs": [],
            "name": "UNPAUSE_BLOB_SUBMISSION_ROLE",
            "outputs": [
                {
                    "internalType": "bytes32",
                    "name": "",
                    "type": "bytes32"
                }
            ],
            "stateMutability": "view",
            "type": "function"
        },
        {
            "inputs": [],
            "name": "UNPAUSE_FINALIZATION_ROLE",
            "outputs": [
                {
                    "internalType": "bytes32",
                    "name": "",
                    "type": "bytes32"
                }
            ],
            "stateMutability": "view",
            "type": "function"
        },
        {
            "inputs": [],
            "name": "UNPAUSE_L1_L2_ROLE",
            "outputs": [
                {
                    "internalType": "bytes32",
                    "name": "",
                    "type": "bytes32"
                }
            ],
            "stateMutability": "view",
            "type": "function"
        },
        {
            "inputs": [],
            "name": "UNPAUSE_L2_L1_ROLE",
            "outputs": [
                {
                    "internalType": "bytes32",
                    "name": "",
                    "type": "bytes32"
                }
            ],
            "stateMutability": "view",
            "type": "function"
        },
        {
            "inputs": [],
            "name": "UNPAUSE_SHNARF_SUBMISSION_ROLE",
            "outputs": [
                {
                    "internalType": "bytes32",
                    "name": "",
                    "type": "bytes32"
                }
            ],
            "stateMutability": "view",
            "type": "function"
        },
        {
            "inputs": [],
            "name": "USED_RATE_LIMIT_RESETTER_ROLE",
            "outputs": [
                {
                    "internalType": "bytes32",
                    "name": "",
                    "type": "bytes32"
                }
            ],
            "stateMutability": "view",
            "type": "function"
        },
        {
            "inputs": [],
            "name": "VERIFIER_SETTER_ROLE",
            "outputs": [
                {
                    "internalType": "bytes32",
                    "name": "",
                    "type": "bytes32"
                }
            ],
            "stateMutability": "view",
            "type": "function"
        },
        {
            "inputs": [],
            "name": "VERIFIER_UNSETTER_ROLE",
            "outputs": [
                {
                    "internalType": "bytes32",
                    "name": "",
                    "type": "bytes32"
                }
            ],
            "stateMutability": "view",
            "type": "function"
        },
        {
            "inputs": [
                {
                    "internalType": "bytes32",
                    "name": "_parentShnarf",
                    "type": "bytes32"
                },
                {
                    "internalType": "bytes32",
                    "name": "_shnarf",
                    "type": "bytes32"
                },
                {
                    "internalType": "bytes32",
                    "name": "_finalStateRootHash",
                    "type": "bytes32"
                }
            ],
            "name": "acceptShnarfData",
            "outputs": [],
            "stateMutability": "nonpayable",
            "type": "function"
        },
        {
            "inputs": [
                {
                    "internalType": "bytes32",
                    "name": "_shnarf",
                    "type": "bytes32"
                }
            ],
            "name": "blobShnarfExists",
            "outputs": [
                {
                    "internalType": "uint256",
                    "name": "shnarfExists",
                    "type": "uint256"
                }
            ],
            "stateMutability": "view",
            "type": "function"
        },
        {
            "inputs": [
                {
                    "components": [
                        {
                            "internalType": "bytes32[]",
                            "name": "proof",
                            "type": "bytes32[]"
                        },
                        {
                            "internalType": "uint256",
                            "name": "messageNumber",
                            "type": "uint256"
                        },
                        {
                            "internalType": "uint32",
                            "name": "leafIndex",
                            "type": "uint32"
                        },
                        {
                            "internalType": "address",
                            "name": "from",
                            "type": "address"
                        },
                        {
                            "internalType": "address",
                            "name": "to",
                            "type": "address"
                        },
                        {
                            "internalType": "uint256",
                            "name": "fee",
                            "type": "uint256"
                        },
                        {
                            "internalType": "uint256",
                            "name": "value",
                            "type": "uint256"
                        },
                        {
                            "internalType": "address payable",
                            "name": "feeRecipient",
                            "type": "address"
                        },
                        {
                            "internalType": "bytes32",
                            "name": "merkleRoot",
                            "type": "bytes32"
                        },
                        {
                            "internalType": "bytes",
                            "name": "data",
                            "type": "bytes"
                        }
                    ],
                    "internalType": "struct IL1MessageService.ClaimMessageWithProofParams",
                    "name": "_params",
                    "type": "tuple"
                }
            ],
            "name": "claimMessageWithProof",
            "outputs": [],
            "stateMutability": "nonpayable",
            "type": "function"
        },
        {
            "inputs": [],
            "name": "currentFinalizedShnarf",
            "outputs": [
                {
                    "internalType": "bytes32",
                    "name": "",
                    "type": "bytes32"
                }
            ],
            "stateMutability": "view",
            "type": "function"
        },
        {
            "inputs": [],
            "name": "currentFinalizedState",
            "outputs": [
                {
                    "internalType": "bytes32",
                    "name": "",
                    "type": "bytes32"
                }
            ],
            "stateMutability": "view",
            "type": "function"
        },
        {
            "inputs": [],
            "name": "currentL2BlockNumber",
            "outputs": [
                {
                    "internalType": "uint256",
                    "name": "",
                    "type": "uint256"
                }
            ],
            "stateMutability": "view",
            "type": "function"
        },
        {
            "inputs": [],
            "name": "currentPeriodAmountInWei",
            "outputs": [
                {
                    "internalType": "uint256",
                    "name": "",
                    "type": "uint256"
                }
            ],
            "stateMutability": "view",
            "type": "function"
        },
        {
            "inputs": [],
            "name": "currentPeriodEnd",
            "outputs": [
                {
                    "internalType": "uint256",
                    "name": "",
                    "type": "uint256"
                }
            ],
            "stateMutability": "view",
            "type": "function"
        },
        {
            "inputs": [],
            "name": "fallbackOperator",
            "outputs": [
                {
                    "internalType": "address",
                    "name": "",
                    "type": "address"
                }
            ],
            "stateMutability": "view",
            "type": "function"
        },
        {
            "inputs": [
                {
                    "internalType": "bytes",
                    "name": "_aggregatedProof",
                    "type": "bytes"
                },
                {
                    "internalType": "uint256",
                    "name": "_proofType",
                    "type": "uint256"
                },
                {
                    "components": [
                        {
                            "internalType": "bytes32",
                            "name": "parentStateRootHash",
                            "type": "bytes32"
                        },
                        {
                            "internalType": "uint256",
                            "name": "endBlockNumber",
                            "type": "uint256"
                        },
                        {
                            "components": [
                                {
                                    "internalType": "bytes32",
                                    "name": "parentShnarf",
                                    "type": "bytes32"
                                },
                                {
                                    "internalType": "bytes32",
                                    "name": "snarkHash",
                                    "type": "bytes32"
                                },
                                {
                                    "internalType": "bytes32",
                                    "name": "finalStateRootHash",
                                    "type": "bytes32"
                                },
                                {
                                    "internalType": "bytes32",
                                    "name": "dataEvaluationPoint",
                                    "type": "bytes32"
                                },
                                {
                                    "internalType": "bytes32",
                                    "name": "dataEvaluationClaim",
                                    "type": "bytes32"
                                }
                            ],
                            "internalType": "struct ILineaRollup.ShnarfData",
                            "name": "shnarfData",
                            "type": "tuple"
                        },
                        {
                            "internalType": "uint256",
                            "name": "lastFinalizedTimestamp",
                            "type": "uint256"
                        },
                        {
                            "internalType": "uint256",
                            "name": "finalTimestamp",
                            "type": "uint256"
                        },
                        {
                            "internalType": "bytes32",
                            "name": "lastFinalizedL1RollingHash",
                            "type": "bytes32"
                        },
                        {
                            "internalType": "bytes32",
                            "name": "l1RollingHash",
                            "type": "bytes32"
                        },
                        {
                            "internalType": "uint256",
                            "name": "lastFinalizedL1RollingHashMessageNumber",
                            "type": "uint256"
                        },
                        {
                            "internalType": "uint256",
                            "name": "l1RollingHashMessageNumber",
                            "type": "uint256"
                        },
                        {
                            "internalType": "uint256",
                            "name": "l2MerkleTreesDepth",
                            "type": "uint256"
                        },
                        {
                            "internalType": "bytes32[]",
                            "name": "l2MerkleRoots",
                            "type": "bytes32[]"
                        },
                        {
                            "internalType": "bytes",
                            "name": "l2MessagingBlocksOffsets",
                            "type": "bytes"
                        }
                    ],
                    "internalType": "struct ILineaRollup.FinalizationDataV3",
                    "name": "_finalizationData",
                    "type": "tuple"
                }
            ],
            "name": "finalizeBlocks",
            "outputs": [],
            "stateMutability": "nonpayable",
            "type": "function"
        },
        {
            "inputs": [
                {
                    "internalType": "bytes32",
                    "name": "role",
                    "type": "bytes32"
                }
            ],
            "name": "getRoleAdmin",
            "outputs": [
                {
                    "internalType": "bytes32",
                    "name": "",
                    "type": "bytes32"
                }
            ],
            "stateMutability": "view",
            "type": "function"
        },
        {
            "inputs": [
                {
                    "internalType": "bytes32",
                    "name": "role",
                    "type": "bytes32"
                },
                {
                    "internalType": "address",
                    "name": "account",
                    "type": "address"
                }
            ],
            "name": "grantRole",
            "outputs": [],
            "stateMutability": "nonpayable",
            "type": "function"
        },
        {
            "inputs": [
                {
                    "internalType": "bytes32",
                    "name": "role",
                    "type": "bytes32"
                },
                {
                    "internalType": "address",
                    "name": "account",
                    "type": "address"
                }
            ],
            "name": "hasRole",
            "outputs": [
                {
                    "internalType": "bool",
                    "name": "",
                    "type": "bool"
                }
            ],
            "stateMutability": "view",
            "type": "function"
        },
        {
            "inputs": [
                {
                    "internalType": "bytes32",
                    "name": "messageHash",
                    "type": "bytes32"
                }
            ],
            "name": "inboxL2L1MessageStatus",
            "outputs": [
                {
                    "internalType": "uint256",
                    "name": "messageStatus",
                    "type": "uint256"
                }
            ],
            "stateMutability": "view",
            "type": "function"
        },
        {
            "inputs": [
                {
                    "components": [
                        {
                            "internalType": "bytes32",
                            "name": "initialStateRootHash",
                            "type": "bytes32"
                        },
                        {
                            "internalType": "uint256",
                            "name": "initialL2BlockNumber",
                            "type": "uint256"
                        },
                        {
                            "internalType": "uint256",
                            "name": "genesisTimestamp",
                            "type": "uint256"
                        },
                        {
                            "internalType": "address",
                            "name": "defaultVerifier",
                            "type": "address"
                        },
                        {
                            "internalType": "uint256",
                            "name": "rateLimitPeriodInSeconds",
                            "type": "uint256"
                        },
                        {
                            "internalType": "uint256",
                            "name": "rateLimitAmountInWei",
                            "type": "uint256"
                        },
                        {
                            "components": [
                                {
                                    "internalType": "address",
                                    "name": "addressWithRole",
                                    "type": "address"
                                },
                                {
                                    "internalType": "bytes32",
                                    "name": "role",
                                    "type": "bytes32"
                                }
                            ],
                            "internalType": "struct IPermissionsManager.RoleAddress[]",
                            "name": "roleAddresses",
                            "type": "tuple[]"
                        },
                        {
                            "components": [
                                {
                                    "internalType": "enum IPauseManager.PauseType",
                                    "name": "pauseType",
                                    "type": "uint8"
                                },
                                {
                                    "internalType": "bytes32",
                                    "name": "role",
                                    "type": "bytes32"
                                }
                            ],
                            "internalType": "struct IPauseManager.PauseTypeRole[]",
                            "name": "pauseTypeRoles",
                            "type": "tuple[]"
                        },
                        {
                            "components": [
                                {
                                    "internalType": "enum IPauseManager.PauseType",
                                    "name": "pauseType",
                                    "type": "uint8"
                                },
                                {
                                    "internalType": "bytes32",
                                    "name": "role",
                                    "type": "bytes32"
                                }
                            ],
                            "internalType": "struct IPauseManager.PauseTypeRole[]",
                            "name": "unpauseTypeRoles",
                            "type": "tuple[]"
                        },
                        {
                            "internalType": "address",
                            "name": "fallbackOperator",
                            "type": "address"
                        },
                        {
                            "internalType": "address",
                            "name": "defaultAdmin",
                            "type": "address"
                        },
                        {
                            "internalType": "address",
                            "name": "shnarfProvider",
                            "type": "address"
                        }
                    ],
                    "internalType": "struct ILineaRollup.InitializationData",
                    "name": "_initializationData",
                    "type": "tuple"
                }
            ],
            "name": "initialize",
            "outputs": [],
            "stateMutability": "nonpayable",
            "type": "function"
        },
        {
            "inputs": [
                {
                    "internalType": "uint256",
                    "name": "_messageNumber",
                    "type": "uint256"
                }
            ],
            "name": "isMessageClaimed",
            "outputs": [
                {
                    "internalType": "bool",
                    "name": "isClaimed",
                    "type": "bool"
                }
            ],
            "stateMutability": "view",
            "type": "function"
        },
        {
            "inputs": [
                {
                    "internalType": "enum IPauseManager.PauseType",
                    "name": "_pauseType",
                    "type": "uint8"
                }
            ],
            "name": "isPaused",
            "outputs": [
                {
                    "internalType": "bool",
                    "name": "pauseTypeIsPaused",
                    "type": "bool"
                }
            ],
            "stateMutability": "view",
            "type": "function"
        },
        {
            "inputs": [
                {
                    "internalType": "bytes32",
                    "name": "merkleRoot",
                    "type": "bytes32"
                }
            ],
            "name": "l2MerkleRootsDepths",
            "outputs": [
                {
                    "internalType": "uint256",
                    "name": "treeDepth",
                    "type": "uint256"
                }
            ],
            "stateMutability": "view",
            "type": "function"
        },
        {
            "inputs": [],
            "name": "limitInWei",
            "outputs": [
                {
                    "internalType": "uint256",
                    "name": "",
                    "type": "uint256"
                }
            ],
            "stateMutability": "view",
            "type": "function"
        },
        {
            "inputs": [],
            "name": "nextMessageNumber",
            "outputs": [
                {
                    "internalType": "uint256",
                    "name": "",
                    "type": "uint256"
                }
            ],
            "stateMutability": "view",
            "type": "function"
        },
        {
            "inputs": [
                {
                    "internalType": "bytes32",
                    "name": "messageHash",
                    "type": "bytes32"
                }
            ],
            "name": "outboxL1L2MessageStatus",
            "outputs": [
                {
                    "internalType": "uint256",
                    "name": "messageStatus",
                    "type": "uint256"
                }
            ],
            "stateMutability": "view",
            "type": "function"
        },
        {
            "inputs": [
                {
                    "internalType": "enum IPauseManager.PauseType",
                    "name": "_pauseType",
                    "type": "uint8"
                }
            ],
            "name": "pauseByType",
            "outputs": [],
            "stateMutability": "nonpayable",
            "type": "function"
        },
        {
            "inputs": [],
            "name": "pauseExpiryTimestamp",
            "outputs": [
                {
                    "internalType": "uint256",
                    "name": "",
                    "type": "uint256"
                }
            ],
            "stateMutability": "view",
            "type": "function"
        },
        {
            "inputs": [],
            "name": "periodInSeconds",
            "outputs": [
                {
                    "internalType": "uint256",
                    "name": "",
                    "type": "uint256"
                }
            ],
            "stateMutability": "view",
            "type": "function"
        },
        {
            "inputs": [
                {
                    "internalType": "bytes32",
                    "name": "_role",
                    "type": "bytes32"
                },
                {
                    "internalType": "address",
                    "name": "_account",
                    "type": "address"
                }
            ],
            "name": "renounceRole",
            "outputs": [],
            "stateMutability": "nonpayable",
            "type": "function"
        },
        {
            "inputs": [],
            "name": "resetAmountUsedInPeriod",
            "outputs": [],
            "stateMutability": "nonpayable",
            "type": "function"
        },
        {
            "inputs": [
                {
                    "internalType": "uint256",
                    "name": "_amount",
                    "type": "uint256"
                }
            ],
            "name": "resetRateLimitAmount",
            "outputs": [],
            "stateMutability": "nonpayable",
            "type": "function"
        },
        {
            "inputs": [
                {
                    "internalType": "bytes32",
                    "name": "role",
                    "type": "bytes32"
                },
                {
                    "internalType": "address",
                    "name": "account",
                    "type": "address"
                }
            ],
            "name": "revokeRole",
            "outputs": [],
            "stateMutability": "nonpayable",
            "type": "function"
        },
        {
            "inputs": [
                {
                    "internalType": "uint256",
                    "name": "messageNumber",
                    "type": "uint256"
                }
            ],
            "name": "rollingHashes",
            "outputs": [
                {
                    "internalType": "bytes32",
                    "name": "rollingHash",
                    "type": "bytes32"
                }
            ],
            "stateMutability": "view",
            "type": "function"
        },
        {
            "inputs": [
                {
                    "internalType": "address",
                    "name": "_to",
                    "type": "address"
                },
                {
                    "internalType": "uint256",
                    "name": "_fee",
                    "type": "uint256"
                },
                {
                    "internalType": "bytes",
                    "name": "_calldata",
                    "type": "bytes"
                }
            ],
            "name": "sendMessage",
            "outputs": [],
            "stateMutability": "payable",
            "type": "function"
        },
        {
            "inputs": [],
            "name": "sender",
            "outputs": [
                {
                    "internalType": "address",
                    "name": "originalSender",
                    "type": "address"
                }
            ],
            "stateMutability": "view",
            "type": "function"
        },
        {
            "inputs": [
                {
                    "internalType": "uint256",
                    "name": "_messageNumber",
                    "type": "uint256"
                },
                {
                    "internalType": "bytes32",
                    "name": "_rollingHash",
                    "type": "bytes32"
                },
                {
                    "internalType": "uint256",
                    "name": "_lastFinalizedTimestamp",
                    "type": "uint256"
                }
            ],
            "name": "setFallbackOperator",
            "outputs": [],
            "stateMutability": "nonpayable",
            "type": "function"
        },
        {
            "inputs": [
                {
                    "internalType": "address",
                    "name": "_newVerifierAddress",
                    "type": "address"
                },
                {
                    "internalType": "uint256",
                    "name": "_proofType",
                    "type": "uint256"
                }
            ],
            "name": "setVerifierAddress",
            "outputs": [],
            "stateMutability": "nonpayable",
            "type": "function"
        },
        {
            "inputs": [],
            "name": "shnarfProvider",
            "outputs": [
                {
                    "internalType": "contract IProvideShnarf",
                    "name": "",
                    "type": "address"
                }
            ],
            "stateMutability": "view",
            "type": "function"
        },
        {
            "inputs": [
                {
                    "internalType": "uint256",
                    "name": "blockNumber",
                    "type": "uint256"
                }
            ],
            "name": "stateRootHashes",
            "outputs": [
                {
                    "internalType": "bytes32",
                    "name": "stateRootHash",
                    "type": "bytes32"
                }
            ],
            "stateMutability": "view",
            "type": "function"
        },
        {
            "inputs": [
                {
                    "internalType": "bytes4",
                    "name": "interfaceId",
                    "type": "bytes4"
                }
            ],
            "name": "supportsInterface",
            "outputs": [
                {
                    "internalType": "bool",
                    "name": "",
                    "type": "bool"
                }
            ],
            "stateMutability": "view",
            "type": "function"
        },
        {
            "inputs": [],
            "name": "systemMigrationBlock",
            "outputs": [
                {
                    "internalType": "uint256",
                    "name": "",
                    "type": "uint256"
                }
            ],
            "stateMutability": "view",
            "type": "function"
        },
        {
            "inputs": [
                {
                    "internalType": "enum IPauseManager.PauseType",
                    "name": "_pauseType",
                    "type": "uint8"
                }
            ],
            "name": "unPauseByExpiredType",
            "outputs": [],
            "stateMutability": "nonpayable",
            "type": "function"
        },
        {
            "inputs": [
                {
                    "internalType": "enum IPauseManager.PauseType",
                    "name": "_pauseType",
                    "type": "uint8"
                }
            ],
            "name": "unPauseByType",
            "outputs": [],
            "stateMutability": "nonpayable",
            "type": "function"
        },
        {
            "inputs": [
                {
                    "internalType": "uint256",
                    "name": "_proofType",
                    "type": "uint256"
                }
            ],
            "name": "unsetVerifierAddress",
            "outputs": [],
            "stateMutability": "nonpayable",
            "type": "function"
        },
        {
            "inputs": [
                {
                    "internalType": "enum IPauseManager.PauseType",
                    "name": "_pauseType",
                    "type": "uint8"
                },
                {
                    "internalType": "bytes32",
                    "name": "_newRole",
                    "type": "bytes32"
                }
            ],
            "name": "updatePauseTypeRole",
            "outputs": [],
            "stateMutability": "nonpayable",
            "type": "function"
        },
        {
            "inputs": [
                {
                    "internalType": "enum IPauseManager.PauseType",
                    "name": "_pauseType",
                    "type": "uint8"
                },
                {
                    "internalType": "bytes32",
                    "name": "_newRole",
                    "type": "bytes32"
                }
            ],
            "name": "updateUnpauseTypeRole",
            "outputs": [],
            "stateMutability": "nonpayable",
            "type": "function"
        },
        {
            "inputs": [
                {
                    "internalType": "uint256",
                    "name": "proofType",
                    "type": "uint256"
                }
            ],
            "name": "verifiers",
            "outputs": [
                {
                    "internalType": "address",
                    "name": "verifierAddress",
                    "type": "address"
                }
            ],
            "stateMutability": "view",
            "type": "function"
        }
    ],
    "bytecode": "0x6080604052348015600e575f5ffd5b506015601f565b601b601f565b60d9565b5f54610100900460ff161560895760405162461bcd60e51b815260206004820152602760248201527f496e697469616c697a61626c653a20636f6e747261637420697320696e697469604482015266616c697a696e6760c81b606482015260840160405180910390fd5b5f5460ff9081161460d7575f805460ff191660ff9081179091556040519081527f7f26b83ff96e1f2b6a682f133852f6798a09c465da95921460cefb38474024989060200160405180910390a15b565b614ac8806100e65f395ff3fe60806040526004361061044f575f3560e01c80637d1e8c5511610237578063b837dbe91161013c578063c2116974116100b7578063d547741f11610087578063e196fb5d1161006d578063e196fb5d14610de0578063f4586fc814610dff578063f5b541a614610e1e575f5ffd5b8063d547741f14610d8e578063d722bbfc14610dad575f5ffd5b8063c211697414610d06578063cc6f725114610d25578063cd9b9e9a14610d58578063cf5b276414610d6e575f5ffd5b8063bc61e7331161010c578063bf3e7505116100f2578063bf3e750514610ca9578063c0729ab114610cdc578063c1dc0f0714610cf1575f5ffd5b8063bc61e73314610c6b578063bcc3003d14610c8a575f5ffd5b8063b837dbe914610bbd578063b9174ba314610bd2578063b9fe5cf714610c05578063bb871c2914610c38575f5ffd5b8063986fcddd116101cc578063a217fddf1161019c578063ad422ff011610182578063ad422ff014610b61578063aea4f74514610b76578063b59faa6014610b8a575f5ffd5b8063a217fddf14610b19578063ac1eff6814610b2c575f5ffd5b8063986fcddd146109885780639ac25d0814610ab45780639ee8b21114610ae75780639f3ce55a14610b06575f5ffd5b806391d148541161020757806391d1485414610a26578063921b278e14610a6a57806392fa129a14610a8057806395ba81fa14610a95575f5ffd5b80637d1e8c55146109885780638be745d11461099b5780638de49487146109c7578063914e57eb146109fa575f5ffd5b806343757d82116103575780635ec775b0116102d257806367e404ce116102a25780636a906b80116102885780636a906b801461090e5780636e6738431461094157806373bd07b714610974575f5ffd5b806367e404ce146108db578063695378f5146108f8575f5ffd5b80635ec775b01461084757806360e83cf31461085d57806363213155146108895780636463fb2a146108bc575f5ffd5b8063557eac7311610327578063587944561161030d57806358794456146108075780635b7eb4bd146107515780635c721a0c1461081c575f5ffd5b8063557eac73146107c95780635603c65f146107e8575f5ffd5b806343757d821461073257806348922ab7146107515780635230eef21461077757806352abf32d146107aa575f5ffd5b806328958174116103e757806338b90333116103b75780633c0f20fc1161039d5780633c0f20fc146106b05780633e9ebfc2146106e85780633fc08b6514610707575f5ffd5b806338b90333146106325780633b12eccb1461067d575f5ffd5b806328958174146105bf5780632c70645c146105de5780632f2ff15d146105f457806336568abe14610613575f5ffd5b806316d8d24e1161042257806316d8d24e1461051c5780632130d8121461054f57806321b4deee1461057b578063248a9ca314610591575f5ffd5b806301ffc9a71461045357806303134d1d146104875780631065a399146104c857806312d3fa9a146104e9575b5f5ffd5b34801561045e575f5ffd5b5061047261046d366004613ffb565b610e51565b60405190151581526020015b60405180910390f35b348015610492575f5ffd5b506104ba7f1ab87f7458c0e3d07e9881c14ee67f0141703614fd48ea5b15ed987e5f4b030e81565b60405190815260200161047e565b3480156104d3575f5ffd5b506104e76104e236600461404d565b610ee9565b005b3480156104f4575f5ffd5b506104ba7f67c2dca7476ee0fe1dd3cba13428c6760bfe2599a6dfe26a9ad7ef27317c6e7781565b348015610527575f5ffd5b506104ba7f6a072be1f08b48d0c31f72f5e89e92c134f16aa08e20117bbdd11d29a3ffe48481565b34801561055a575f5ffd5b506104ba610569366004614066565b5f9081526101be602052604090205490565b348015610586575f5ffd5b506104ba6203f48081565b34801561059c575f5ffd5b506104ba6105ab366004614066565b5f9081526065602052604090206001015490565b3480156105ca575f5ffd5b506104e76105d9366004614066565b611079565b3480156105e9575f5ffd5b506104ba6101835481565b3480156105ff575f5ffd5b506104e761060e36600461409c565b61112c565b34801561061e575f5ffd5b506104e761062d36600461409c565b611155565b34801561063d575f5ffd5b50604080518082018252600381527f312e3000000000000000000000000000000000000000000000000000000000006020820152905161047e91906140ca565b348015610688575f5ffd5b506104ba7fb6cc65f42901ed602aec1619cc1ead29d487cd489094a37615153eaeb991d77081565b3480156106bb575f5ffd5b506101c1546106d0906001600160a01b031681565b6040516001600160a01b03909116815260200161047e565b3480156106f3575f5ffd5b506104e76107023660046140ff565b6111ac565b348015610712575f5ffd5b506104ba610721366004614066565b60a56020525f908152604090205481565b34801561073d575f5ffd5b506104e761074c366004614127565b61130b565b34801561075c575f5ffd5b50610765600181565b60405160ff909116815260200161047e565b348015610782575f5ffd5b506104ba7f0cf0d2deb70d7bdac2fa48c4ac99bc558170be0ce5fcb994caefa4bf7b96edf981565b3480156107b5575f5ffd5b506104e76107c43660046140ff565b6114d5565b3480156107d4575f5ffd5b506104e76107e3366004614066565b611634565b3480156107f3575f5ffd5b506104e76108023660046141a4565b6116fa565b348015610812575f5ffd5b506104ba60995481565b348015610827575f5ffd5b506104ba610836366004614066565b60a66020525f908152604090205481565b348015610852575f5ffd5b506104ba6201518081565b348015610868575f5ffd5b506104ba610877366004614066565b6101506020525f908152604090205481565b348015610894575f5ffd5b506104ba7fe37c272ea30e2bb381ad7cf89ae754b49153250609f36d0cbdad8b64c184bb5c81565b3480156108c7575f5ffd5b506104e76108d636600461421c565b6117ed565b3480156108e6575f5ffd5b5060015c6001600160a01b03166106d0565b348015610903575f5ffd5b506104ba6101195481565b348015610919575f5ffd5b506104ba7fd8b4c34c2ec1f3194471108c64ad2beda340c0337ee4ca35592f9ef270f4228b81565b34801561094c575f5ffd5b506104ba7f32937fd5162e282df7e9a14a5073a2425321c7966eaf70ed6c838a1006d84c4c81565b34801561097f575f5ffd5b50610765600281565b348015610993575f5ffd5b506107655f81565b3480156109a6575f5ffd5b506104ba6109b5366004614066565b61011a6020525f908152604090205481565b3480156109d2575f5ffd5b506104ba7fe1fce82838dd7a42cfe783f60dc6233c8aa2c4fc66e77817805e767ec5e349b681565b348015610a05575f5ffd5b506104ba610a14366004614066565b61014e6020525f908152604090205481565b348015610a31575f5ffd5b50610472610a4036600461409c565b5f9182526065602090815260408084206001600160a01b0393909316845291905290205460ff1690565b348015610a75575f5ffd5b506104ba6101bf5481565b348015610a8b575f5ffd5b506104ba60dd5481565b348015610aa0575f5ffd5b506104e7610aaf36600461404d565b611984565b348015610abf575f5ffd5b506104ba7f56bdc3c9ec86cb7db110a7699b2ade72f0b8819727d9f7d906b012641505fa7781565b348015610af2575f5ffd5b50610472610b01366004614066565b611aa3565b6104e7610b14366004614254565b611ac6565b348015610b24575f5ffd5b506104ba5f81565b348015610b37575f5ffd5b506106d0610b46366004614066565b61011b6020525f90815260409020546001600160a01b031681565b348015610b6c575f5ffd5b506104ba60985481565b348015610b81575f5ffd5b506104e7611ae4565b348015610b95575f5ffd5b506104ba7fe4831f9e4316ac2c65117d1f602fbf56d38128a9973d5e3fdbc5b77265c18d4081565b348015610bc8575f5ffd5b506104ba60e45481565b348015610bdd575f5ffd5b506104ba7f430a7f0cb00b5ebbe63cecc96e82cf959a883e7c13a95110854f1fa6b3fbf59881565b348015610c10575f5ffd5b506104ba7f1453a531db80c85f2d944d498709d84959bc5bf839eefe9acb784571e5a3211881565b348015610c43575f5ffd5b506104ba7f92345e7fb9ee041c2ac61447de3632c2b9f5cc7a34a794315d6ff267b6a59f6a81565b348015610c76575f5ffd5b50610472610c8536600461404d565b611b3f565b348015610c95575f5ffd5b506104e7610ca43660046142ac565b611b63565b348015610cb4575f5ffd5b506104ba7f1185e52d62bfbbea270e57d3d09733d221b53ab7a18bae82bb3c6c74bab16d8281565b348015610ce7575f5ffd5b506104ba609a5481565b348015610cfc575f5ffd5b506104ba60975481565b348015610d11575f5ffd5b506104e7610d203660046142d5565b611c93565b348015610d30575f5ffd5b506104ba7fe8cb6172fcf5cbaae022b7c910224a4f0c20d53227e630056efff182155a5abc81565b348015610d63575f5ffd5b506104ba6101bd5481565b348015610d79575f5ffd5b506101c0546106d0906001600160a01b031681565b348015610d99575f5ffd5b506104e7610da836600461409c565b611d99565b348015610db8575f5ffd5b506104ba7f6b5661ddfbd1fbd525c902a513e0f47d9c74f1c1ee8a2d4f1937ad305fb8f41a81565b348015610deb575f5ffd5b506104e7610dfa36600461404d565b611dbd565b348015610e0a575f5ffd5b506104e7610e193660046142ac565b611f95565b348015610e29575f5ffd5b506104ba7f97667070c54ef182b0f5858b034beac1b6f3089aa2d3188bb1e8929f4fa9b92981565b5f7fffffffff0000000000000000000000000000000000000000000000000000000082167f7965db0b000000000000000000000000000000000000000000000000000000001480610ee357507f01ffc9a7000000000000000000000000000000000000000000000000000000007fffffffff000000000000000000000000000000000000000000000000000000008316145b92915050565b805f816009811115610efd57610efd6142f1565b03610f34576040517f85994c7700000000000000000000000000000000000000000000000000000000815260040160405180910390fd5b60dc5f836009811115610f4957610f496142f1565b6009811115610f5a57610f5a6142f1565b81526020019081526020015f2054610f7181611fd5565b610f7a83611b3f565b610fbb57826040517f18659654000000000000000000000000000000000000000000000000000000008152600401610fb29190614357565b60405180910390fd5b335f9081527f74a8627e7e8109f70747bbdf2c891159d40f925b9c8f09259a497b8c31b3780b602052604090205460ff161561100257610ffe6201518042614392565b60dd555b826009811115611014576110146142f1565b60da8054600190921b199091169055826009811115611035576110356142f1565b7fd071d2b85dec4489435b541d2f0e2570db09b09db9efd8703948d44a433df65a335b6040516001600160a01b0390911681526020015b60405180910390a2505050565b7f6b5661ddfbd1fbd525c902a513e0f47d9c74f1c1ee8a2d4f1937ad305fb8f41a6110a381611fd5565b5f82815261011b602090815260408083205490516001600160a01b0390911681523392859290917f4a29db3fc6b42bda201e4b4d69ce8d575eeeba5f153509c0d0a342af0f1bd021910160405180910390a4505f90815261011b6020526040902080547fffffffffffffffffffffffff0000000000000000000000000000000000000000169055565b5f8281526065602052604090206001015461114681611fd5565b6111508383611fe2565b505050565b6101c0546001600160a01b039081169082160361119e576040517f7f7497e900000000000000000000000000000000000000000000000000000000815260040160405180910390fd5b6111a882826120a0565b5050565b815f8160098111156111c0576111c06142f1565b036111f7576040517f85994c7700000000000000000000000000000000000000000000000000000000815260040160405180910390fd5b7f1453a531db80c85f2d944d498709d84959bc5bf839eefe9acb784571e5a3211861122181611fd5565b5f60db5f866009811115611237576112376142f1565b6009811115611248576112486142f1565b81526020019081526020015f20549050838103611291576040517f1b807f5500000000000000000000000000000000000000000000000000000000815260040160405180910390fd5b8360db5f8760098111156112a7576112a76142f1565b60098111156112b8576112b86142f1565b815260208101919091526040015f205580848660098111156112dc576112dc6142f1565b6040517f074bfc3728ef1e98bde10bcb5bd8cde59cff190c2bfda5d22f879f865a07bac5905f90a45050505050565b5f54610100900460ff161580801561132957505f54600160ff909116105b806113425750303b15801561134257505f5460ff166001145b6113ce576040517f08c379a000000000000000000000000000000000000000000000000000000000815260206004820152602e60248201527f496e697469616c697a61626c653a20636f6e747261637420697320616c72656160448201527f647920696e697469616c697a65640000000000000000000000000000000000006064820152608401610fb2565b5f80547fffffffffffffffffffffffffffffffffffffffffffffffffffffffffffffff00166001179055801561142a575f80547fffffffffffffffffffffffffffffffffffffffffffffffffffffffffffff00ff166101001790555b604080515f8082526020808301829052853583850152606083018290526080830182905260a09092208082526101be909252919091206001905561146e8382612142565b5080156111a8575f80547fffffffffffffffffffffffffffffffffffffffffffffffffffffffffffff00ff169055604051600181527f7f26b83ff96e1f2b6a682f133852f6798a09c465da95921460cefb3847402498906020015b60405180910390a15050565b815f8160098111156114e9576114e96142f1565b03611520576040517f85994c7700000000000000000000000000000000000000000000000000000000815260040160405180910390fd5b7f1453a531db80c85f2d944d498709d84959bc5bf839eefe9acb784571e5a3211861154a81611fd5565b5f60dc5f866009811115611560576115606142f1565b6009811115611571576115716142f1565b81526020019081526020015f205490508381036115ba576040517f1b807f5500000000000000000000000000000000000000000000000000000000815260040160405180910390fd5b8360dc5f8760098111156115d0576115d06142f1565b60098111156115e1576115e16142f1565b815260208101919091526040015f20558084866009811115611605576116056142f1565b6040517ff8ef9f1cde7c2c0d3aeb696678f76d7c1c3e13c3b79ea3c5160a2d9eaa821cfd905f90a45050505050565b7f1185e52d62bfbbea270e57d3d09733d221b53ab7a18bae82bb3c6c74bab16d8261165e81611fd5565b5f5f5f4260995410156116835760975461167890426143a5565b609955506001611695565b609a5485101561169557849250600191505b609885905580806116a35750815b156116ae57609a8390555b60408051868152831515602082015282151581830152905133917fbc3dc0cb5c15c51c81316450d44048838bb478b9809447d01c766a06f3e9f2c8919081900360600190a25050505050565b600661170581612481565b7f97667070c54ef182b0f5858b034beac1b6f3089aa2d3188bb1e8929f4fa9b92961172f81611fd5565b5f859003611769576040517f7907d79b00000000000000000000000000000000000000000000000000000000815260040160405180910390fd5b610119545f81815261011a60205260409020548435146117b5576040517fead4c30e00000000000000000000000000000000000000000000000000000000815260040160405180910390fd5b6101bd545f6117c48684612513565b90505f6117d38784848761282b565b90506117e181898c8c6128b6565b50505050505050505050565b60015f5c03611828576040517f37ed32e800000000000000000000000000000000000000000000000000000000815260040160405180910390fd5b6001805f5d5060a0810180359061184290608084016143b8565b6118506101208401846143d3565b611861610100860160e087016143b8565b5f5a905061186e87612b0a565b851561197557855f8490036118eb57853b1580156118e9573a5a61189461bc7c866143a5565b61189e9190614392565b6118a89190614434565b9150818811156118e5576001600160a01b0387166108fc6118c9848b614392565b6040518115909202915f818181858888f19350505050506118e9565b8791505b505b5f6001600160a01b038416156119015783611903565b335b90505f816001600160a01b03166108fc8490811502906040515f60405180830381858888f19350505050905080611971576040517fa57c4df40000000000000000000000000000000000000000000000000000000081526001600160a01b0383166004820152602401610fb2565b5050505b5050505050505f5f81905d5050565b805f816009811115611998576119986142f1565b036119cf576040517f85994c7700000000000000000000000000000000000000000000000000000000815260040160405180910390fd5b6119d882611b3f565b611a1057816040517f18659654000000000000000000000000000000000000000000000000000000008152600401610fb29190614357565b60dd54421015611a525760dd546040517fcfd8aa6f000000000000000000000000000000000000000000000000000000008152600401610fb291815260200190565b816009811115611a6457611a646142f1565b60da8054600190921b1990911690556040517f3ddaeb19197ed3b5334f4c1cd5716f663d0f6dce30c52800bd1674da0b88e87a906114c9908490614357565b600881901c5f90815261014f6020526040812054600160ff84161b161515610ee3565b6002611ad181612481565b611add85858585612e0c565b5050505050565b7f0cf0d2deb70d7bdac2fa48c4ac99bc558170be0ce5fcb994caefa4bf7b96edf9611b0e81611fd5565b5f609a81905560405133917fba88c025b0cbb77022c0c487beef24f759f1e4be2f51a205bc427cee19c2eaa691a250565b5f816009811115611b5257611b526142f1565b60da54600190911b16151592915050565b611b7062f099c0826143a5565b421015611ba9576040517f4306cbb100000000000000000000000000000000000000000000000000000000815260040160405180910390fd5b6040805184815260208101849052908101829052606090206101bf5414611c21576101bf546040805185815260208101859052908101839052606090206040517fbc5aad1100000000000000000000000000000000000000000000000000000000815260048101929092526024820152604401610fb2565b6101c0546001600160a01b0316611c587f97667070c54ef182b0f5858b034beac1b6f3089aa2d3188bb1e8929f4fa9b92982611fe2565b6040516001600160a01b0382169033907f9fc8868f8577b31b805ee65bb52325782b5e2708dbdb7f04c7467c6785fccb30905f90a350505050565b7f32937fd5162e282df7e9a14a5073a2425321c7966eaf70ed6c838a1006d84c4c611cbd81611fd5565b6001600160a01b038316611cfd576040517f8579befe00000000000000000000000000000000000000000000000000000000815260040160405180910390fd5b5f82815261011b60209081526040918290205491516001600160a01b03928316815233928592908716917f4a29db3fc6b42bda201e4b4d69ce8d575eeeba5f153509c0d0a342af0f1bd021910160405180910390a4505f90815261011b6020526040902080547fffffffffffffffffffffffff0000000000000000000000000000000000000000166001600160a01b0392909216919091179055565b5f82815260656020526040902060010154611db381611fd5565b6111508383612f22565b805f816009811115611dd157611dd16142f1565b03611e08576040517f85994c7700000000000000000000000000000000000000000000000000000000815260040160405180910390fd5b60db5f836009811115611e1d57611e1d6142f1565b6009811115611e2e57611e2e6142f1565b81526020019081526020015f2054611e4581611fd5565b611e4e83611b3f565b15611e8757826040517fc0a71b58000000000000000000000000000000000000000000000000000000008152600401610fb29190614357565b335f9081527f74a8627e7e8109f70747bbdf2c891159d40f925b9c8f09259a497b8c31b3780b602052604090205460ff1615611ee6577ffffffffffffffffffffffffffffffffffffffffffffffffffffffffffffeae7f60dd55611f3c565b6201518060dd5401421015611f32576201518060dd54016040517fc04205ee000000000000000000000000000000000000000000000000000000008152600401610fb291815260200190565b426203f4800160dd555b826009811115611f4e57611f4e6142f1565b60da8054600190921b9091179055826009811115611f6e57611f6e6142f1565b7f534f879afd40abb4e39f8e1b77a316be4c8e3521d9cf5a3a3db8959d574d455933611058565b6009611fa081612481565b7f97667070c54ef182b0f5858b034beac1b6f3089aa2d3188bb1e8929f4fa9b929611fca81611fd5565b611add858585612fc1565b611fdf813361309f565b50565b5f8281526065602090815260408083206001600160a01b038516845290915290205460ff166111a8575f8281526065602090815260408083206001600160a01b0385168452909152902080547fffffffffffffffffffffffffffffffffffffffffffffffffffffffffffffff0016600117905561205c3390565b6001600160a01b0316816001600160a01b0316837f2f8788117e7eff1d82e926ec794901d17c78024a50270940304540a733656f0d60405160405180910390a45050565b6001600160a01b0381163314612138576040517f08c379a000000000000000000000000000000000000000000000000000000000815260206004820152602f60248201527f416363657373436f6e74726f6c3a2063616e206f6e6c792072656e6f756e636560448201527f20726f6c657320666f722073656c6600000000000000000000000000000000006064820152608401610fb2565b6111a88282612f22565b5f61215360808401606085016143b8565b6001600160a01b031603612193576040517f8579befe00000000000000000000000000000000000000000000000000000000815260040160405180910390fd5b6121b66121a360e084018461444b565b6121b161010086018661444b565b61312d565b6121c882608001358360a001356133d4565b5f6121db610160840161014085016143b8565b6001600160a01b03160361221b576040517f8579befe00000000000000000000000000000000000000000000000000000000815260040160405180910390fd5b6122365f612231610160850161014086016143b8565b611fe2565b61224b61224660c084018461444b565b613495565b61225b60808301606084016143b8565b5f80805261011b6020527f033d11f27e62ab919708ec716731da80d261a6e4253259b7acde9bf89d28ec1880547fffffffffffffffffffffffff0000000000000000000000000000000000000000166001600160a01b0393909316929092179091556122cf610140840161012085016143b8565b6001600160a01b03160361230f576040517f8579befe00000000000000000000000000000000000000000000000000000000815260040160405180910390fd5b612321610140830161012084016143b8565b6101c080547fffffffffffffffffffffffff0000000000000000000000000000000000000000166001600160a01b039290921691909117905561236c610140830161012084016143b8565b6001600160a01b0316336001600160a01b03167f1f82add12d98b5eaed4d6a6d5f74cfc7a85e5c90c335ab5562f77f220ed45d5f60405160405180910390a36020828101356101198190555f90815261011a82526040808220853590556101bd8490558051828152928301829052808501359083015260609091206101bf556123fd610180840161016085016143b8565b90506001600160a01b0381166124105750305b6101c180547fffffffffffffffffffffffff0000000000000000000000000000000000000000166001600160a01b0383161790556040517fd5bc165d485587932caa8e786325f0a3b363fc25edc7df17c5590ef892c17df0906124749085906145a6565b60405180910390a1505050565b60da54816009811115612496576124966142f1565b6001901b8116156124d557816040517fc0a71b58000000000000000000000000000000000000000000000000000000008152600401610fb29190614357565b60028116156111a85760016040517fc0a71b58000000000000000000000000000000000000000000000000000000008152600401610fb29190614357565b5f612528836101800135846101400135613643565b6101bf54604080516101608601358152610120860135602082015260e08601359181019190915260609020146125be57604080516101608501358152610120850135602082015260e085013591810191909152606090206101bf546040517fbc5aad1100000000000000000000000000000000000000000000000000000000815260048101929092526024820152604401610fb2565b4283610100013510612609576040517fbf81c6e00000000000000000000000000000000000000000000000000000000081526101008401356004820152426024820152604401610fb2565b6080830135612644576040517f2898482a00000000000000000000000000000000000000000000000000000000815260040160405180910390fd5b61268760408401356060850135608086013560a087013560c0880135604080519586526020860194909452928401919091526060830152608082015260a0902090565b6101c1546040517f2130d812000000000000000000000000000000000000000000000000000000008152600481018390529192506001600160a01b031690632130d81290602401602060405180830381865afa1580156126e9573d5f5f3e3d5ffd5b505050506040513d601f19601f8201168201806040525081019061270d91906146da565b5f03612748576040517fedeae83c00000000000000000000000000000000000000000000000000000000815260048101829052602401610fb2565b6127646127596101c08501856146f1565b856101a00135613710565b61277b6127756101e08501856143d3565b8461381c565b6020808401355f81815261011a909252604090912060808501359055610119556101bd8190556127d0610180840135610140850135610100860135604080519384526020840192909252908201526060902090565b6101bf558060208401356127e384614755565b60408051873581526080880135602082015291955085917fa0262dc79e4ccb71ceac8574ae906311ae338aa4a2044fd4ec4b99fad5ab60cb910160405180910390a492915050565b5f604051848152836020820152604060e087016040830137826080820152602080870160a083013760a0610120870160c083013761018081016101c087013587018035602081026020830184376020029091206101608301525061018090207f30644e72e131a029b85045b68181585d2833e84879b9709143e1f593f0000001900695945050505050565b6040805160018082528183019092525f916020808301908036833701905050905084815f815181106128ea576128ea61479a565b6020908102919091018101919091525f85815261011b90915260409020546001600160a01b031680612948576040517f69ed70ab00000000000000000000000000000000000000000000000000000000815260040160405180910390fd5b5f5f826001600160a01b0316868686604051602401612969939291906147f0565b60408051601f198184030181529181526020820180517bffffffffffffffffffffffffffffffffffffffffffffffffffffffff167f7e4f7a8a00000000000000000000000000000000000000000000000000000000179052516129cc9190614861565b5f604051808303815f865af19150503d805f8114612a05576040519150601f19603f3d011682016040523d82523d5f602084013e612a0a565b606091505b509150915081612ab157805115612a4f57602081017bffffffffffffffffffffffffffffffffffffffffffffffffffffffff81511663ca389c4460e01b178152815181fd5b6040517fca389c4400000000000000000000000000000000000000000000000000000000815260206004820152600760248201527f556e6b6e6f776e000000000000000000000000000000000000000000000000006044820152606401610fb2565b5f81806020019051810190612ac6919061486c565b905080612aff576040517f09bde33900000000000000000000000000000000000000000000000000000000815260040160405180910390fd5b505050505050505050565b612b146003612481565b6101008101355f908152610150602052604081205490819003612b63576040517f4e68667500000000000000000000000000000000000000000000000000000000815260040160405180910390fd5b612b6d82806146f1565b90508114612bbc5780612b8083806146f1565b6040517f5e3fd6ad0000000000000000000000000000000000000000000000000000000081526004810193909352602483015250604401610fb2565b612bc982602001356138a9565b612be3612bde60c084013560a08501356143a5565b613921565b5f612c29612bf760808501606086016143b8565b612c0760a08601608087016143b8565b60a086013560c08701356020880135612c246101208a018a6143d3565b613997565b9050612c5481612c3985806146f1565b612c49606088016040890161488b565b8761010001356139f0565b612c8a576040517fb05e92fa00000000000000000000000000000000000000000000000000000000815260040160405180910390fd5b612c9a60808401606085016143b8565b6001805c7fffffffffffffffffffffffff0000000000000000000000000000000000000000166001600160a01b03831617905d505f80612ce060a08601608087016143b8565b6001600160a01b031660c0860135612cfc6101208801886143d3565b604051612d0a9291906148ae565b5f6040518083038185875af1925050503d805f8114612d44576040519150601f19603f3d011682016040523d82523d5f602084013e612d49565b606091505b509150915081612db157805115612d635780518082602001fd5b612d7360a08601608087016143b8565b6040517f546134430000000000000000000000000000000000000000000000000000000081526001600160a01b039091166004820152602401610fb2565b5f6001805c7fffffffffffffffffffffffff000000000000000000000000000000000000000016905d5060405183907fa4c827e719e911e8f19393ccdb85b5102f08f0910604d340ba38390b7ff2ab0e905f90a25050505050565b6001600160a01b038416612e4c576040517f8579befe00000000000000000000000000000000000000000000000000000000815260040160405180910390fd5b34831115612e86576040517fb03b693200000000000000000000000000000000000000000000000000000000815260040160405180910390fd5b60e480545f9182612e9683614755565b9091555090505f612ea78534614392565b90505f612eb933888885878a8a613997565b9050612ec58382613afd565b80876001600160a01b0316336001600160a01b03167fe856c2b8bd4eb0027ce32eeaf595c21b0b6b4644b326e5b7bd80a1cf8db72e6c8986888b8b604051612f119594939291906148bd565b60405180910390a450505050505050565b5f8281526065602090815260408083206001600160a01b038516845290915290205460ff16156111a8575f8281526065602090815260408083206001600160a01b038516808552925280832080547fffffffffffffffffffffffffffffffffffffffffffffffffffffffffffffff0016905551339285917ff6391f5c32d9c69d2a47ea670b442974b53935d1edc7fd64eb21e047a839171b9190a45050565b5f8381526101be6020526040812054900361300b576040517fc77b964c00000000000000000000000000000000000000000000000000000000815260048101849052602401610fb2565b5f8281526101be602052604090205415613054576040517fe69adeca00000000000000000000000000000000000000000000000000000000815260048101839052602401610fb2565b5f8281526101be602090815260409182902060019055815185815290810183905283917f55f4c645c36aa5cd3f443d6be44d7a7a5df9d2100d7139dfc69d4289ee072319910161106c565b5f8281526065602090815260408083206001600160a01b038516845290915290205460ff166111a8576130d181613b5a565b6130dc836020613b6c565b6040516020016130ed9291906148ed565b60408051601f19818403018152908290527f08c379a0000000000000000000000000000000000000000000000000000000008252610fb2916004016140ca565b5f54610100900460ff166131c3576040517f08c379a000000000000000000000000000000000000000000000000000000000815260206004820152602b60248201527f496e697469616c697a61626c653a20636f6e7472616374206973206e6f74206960448201527f6e697469616c697a696e670000000000000000000000000000000000000000006064820152608401610fb2565b5f5b838110156132cb578484828181106131df576131df61479a565b9050604002016020013560db5f8787858181106131fe576131fe61479a565b613214926020604090920201908101915061404d565b6009811115613225576132256142f1565b6009811115613236576132366142f1565b815260208101919091526040015f20558484828181106132585761325861479a565b905060400201602001358585838181106132745761327461479a565b61328a926020604090920201908101915061404d565b600981111561329b5761329b6142f1565b6040517f33aa8fd1ce49e1761bc8d27fd53414bfefc45d690feed0ce55019d7d3aec6091905f90a36001016131c5565b505f5b81811015611add578282828181106132e8576132e861479a565b9050604002016020013560dc5f8585858181106133075761330761479a565b61331d926020604090920201908101915061404d565b600981111561332e5761332e6142f1565b600981111561333f5761333f6142f1565b815260208101919091526040015f20558282828181106133615761336161479a565b9050604002016020013583838381811061337d5761337d61479a565b613393926020604090920201908101915061404d565b60098111156133a4576133a46142f1565b6040517fe7bf4b8dc0c17a52dc9e52323a3ab61cb2079db35f969125b1f8a3d984c6f6c2905f90a36001016132ce565b5f54610100900460ff1661346a576040517f08c379a000000000000000000000000000000000000000000000000000000000815260206004820152602b60248201527f496e697469616c697a61626c653a20636f6e7472616374206973206e6f74206960448201527f6e697469616c697a696e670000000000000000000000000000000000000000006064820152608401610fb2565b613472613db0565b61347a613db0565b613482613db0565b61348c8282613e48565b5050600160e455565b5f54610100900460ff1661352b576040517f08c379a000000000000000000000000000000000000000000000000000000000815260206004820152602b60248201527f496e697469616c697a61626c653a20636f6e7472616374206973206e6f74206960448201527f6e697469616c697a696e670000000000000000000000000000000000000000006064820152608401610fb2565b5f5b81811015611150575f8383838181106135485761354861479a565b61355e92602060409092020190810191506143b8565b6001600160a01b03160361359e576040517f8579befe00000000000000000000000000000000000000000000000000000000815260040160405180910390fd5b8282828181106135b0576135b061479a565b905060400201602001355f5f1b036135f4576040517f0742d05300000000000000000000000000000000000000000000000000000000815260040160405180910390fd5b61363b8383838181106136095761360961479a565b905060400201602001358484848181106136255761362561479a565b61223192602060409092020190810191506143b8565b60010161352d565b815f036136855780156111a8576040517f0c25659200000000000000000000000000000000000000000000000000000000815260048101829052602401610fb2565b806136bf576040517f5228f4c800000000000000000000000000000000000000000000000000000000815260048101839052602401610fb2565b5f82815261014e602052604090205481146111a8576040517f36459fa00000000000000000000000000000000000000000000000000000000081526004810183905260248101829052604401610fb2565b5f5b82811015613816576101505f8585848181106137305761373061479a565b9050602002013581526020019081526020015f20545f146137995783838281811061375d5761375d61479a565b905060200201356040517fe5d14425000000000000000000000000000000000000000000000000000000008152600401610fb291815260200190565b816101505f8686858181106137b0576137b061479a565b9050602002013581526020019081526020015f2081905550818484838181106137db576137db61479a565b905060200201357f300e6f978eee6a4b0bba78dd8400dc64fd5652dbfc868a2258e16d0977be222b60405160405180910390a3600101613712565b50505050565b613827600283614957565b15613861576040517f0c91d77600000000000000000000000000000000000000000000000000000000815260048101839052602401610fb2565b5f5f5b83811015611add576040518582013560f01c9250838301907f3c116827db9db3a30c1a25db8b0ee4bab9d2b223560209cfd839601b621c726d905f90a2600201613864565b600881901c5f90815261014f6020526040902054600160ff83161b16156138ff576040517f335a4a9000000000000000000000000000000000000000000000000000000000815260048101829052602401610fb2565b600881901c5f90815261014f602052604090208054600160ff84161b17905550565b8015611fdf574260995410156139465760975461393e90426143a5565b609955613956565b609a5461395390826143a5565b90505b609854811115613992576040517fa74c1c5f00000000000000000000000000000000000000000000000000000000815260040160405180910390fd5b609a55565b5f60405188815287602082015286604082015285606082015284608082015260c060a08201528260c0820152602083065f81156139d5578160200390505b848660e085013790930160e001902098975050505050505050565b5f80613a116001613a02876002614a72565b613a0c9190614392565b613fae565b90508063ffffffff168463ffffffff161115613a69576040517ff7ec909700000000000000000000000000000000000000000000000000000000815263ffffffff808616600483015282166024820152604401610fb2565b865f5b86811015613aef57600163ffffffff8716821c81169003613ab957613ab2888883818110613a9c57613a9c61479a565b90506020020135835f9182526020526040902090565b9150613ae7565b613ae482898984818110613acf57613acf61479a565b905060200201355f9182526020526040902090565b91505b600101613a6c565b509092149695505050505050565b5f1982015f90815261014e60208181526040808420548452848252808420868552929091528083208290555190918391839186917fea3b023b4c8680d4b4824f0143132c95476359a2bb70a81d6c5a36f6918f63399190a4505050565b6060610ee36001600160a01b03831660145b60605f613b7a836002614434565b613b859060026143a5565b67ffffffffffffffff811115613b9d57613b9d61476d565b6040519080825280601f01601f191660200182016040528015613bc7576020820181803683370190505b5090507f3000000000000000000000000000000000000000000000000000000000000000815f81518110613bfd57613bfd61479a565b60200101907effffffffffffffffffffffffffffffffffffffffffffffffffffffffffffff191690815f1a9053507f780000000000000000000000000000000000000000000000000000000000000081600181518110613c5f57613c5f61479a565b60200101907effffffffffffffffffffffffffffffffffffffffffffffffffffffffffffff191690815f1a9053505f613c99846002614434565b613ca49060016143a5565b90505b6001811115613d40577f303132333435363738396162636465660000000000000000000000000000000085600f1660108110613ce557613ce561479a565b1a60f81b828281518110613cfb57613cfb61479a565b60200101907effffffffffffffffffffffffffffffffffffffffffffffffffffffffffffff191690815f1a90535060049490941c93613d3981614a7d565b9050613ca7565b508315613da9576040517f08c379a000000000000000000000000000000000000000000000000000000000815260206004820181905260248201527f537472696e67733a20686578206c656e67746820696e73756666696369656e746044820152606401610fb2565b9392505050565b5f54610100900460ff16613e46576040517f08c379a000000000000000000000000000000000000000000000000000000000815260206004820152602b60248201527f496e697469616c697a61626c653a20636f6e7472616374206973206e6f74206960448201527f6e697469616c697a696e670000000000000000000000000000000000000000006064820152608401610fb2565b565b5f54610100900460ff16613ede576040517f08c379a000000000000000000000000000000000000000000000000000000000815260206004820152602b60248201527f496e697469616c697a61626c653a20636f6e7472616374206973206e6f74206960448201527f6e697469616c697a696e670000000000000000000000000000000000000000006064820152608401610fb2565b815f03613f17576040517fb5ed5a3b00000000000000000000000000000000000000000000000000000000815260040160405180910390fd5b805f03613f50576040517fd10d72bb00000000000000000000000000000000000000000000000000000000815260040160405180910390fd5b60978290556098819055613f6482426143a5565b60998190556097546098546040805192835260208301919091528101919091527f8f805c372b66240792580418b7328c0c554ae235f0932475c51b026887fe26a9906060016114c9565b5f63ffffffff821115613ff7576040517f6dfcc6500000000000000000000000000000000000000000000000000000000081526020600482015260248101839052604401610fb2565b5090565b5f6020828403121561400b575f5ffd5b81357fffffffff0000000000000000000000000000000000000000000000000000000081168114613da9575f5ffd5b8035600a8110614048575f5ffd5b919050565b5f6020828403121561405d575f5ffd5b613da98261403a565b5f60208284031215614076575f5ffd5b5035919050565b6001600160a01b0381168114611fdf575f5ffd5b80356140488161407d565b5f5f604083850312156140ad575f5ffd5b8235915060208301356140bf8161407d565b809150509250929050565b602081525f82518060208401528060208501604085015e5f604082850101526040601f19601f83011684010191505092915050565b5f5f60408385031215614110575f5ffd5b6141198361403a565b946020939093013593505050565b5f60208284031215614137575f5ffd5b813567ffffffffffffffff81111561414d575f5ffd5b82016101808185031215613da9575f5ffd5b5f5f83601f84011261416f575f5ffd5b50813567ffffffffffffffff811115614186575f5ffd5b60208301915083602082850101111561419d575f5ffd5b9250929050565b5f5f5f5f606085870312156141b7575f5ffd5b843567ffffffffffffffff8111156141cd575f5ffd5b6141d98782880161415f565b90955093505060208501359150604085013567ffffffffffffffff8111156141ff575f5ffd5b85016102008188031215614211575f5ffd5b939692955090935050565b5f6020828403121561422c575f5ffd5b813567ffffffffffffffff811115614242575f5ffd5b82016101408185031215613da9575f5ffd5b5f5f5f5f60608587031215614267575f5ffd5b84356142728161407d565b935060208501359250604085013567ffffffffffffffff811115614294575f5ffd5b6142a08782880161415f565b95989497509550505050565b5f5f5f606084860312156142be575f5ffd5b505081359360208301359350604090920135919050565b5f5f604083850312156142e6575f5ffd5b82356141198161407d565b7f4e487b71000000000000000000000000000000000000000000000000000000005f52602160045260245ffd5b600a8110614353577f4e487b71000000000000000000000000000000000000000000000000000000005f52602160045260245ffd5b9052565b60208101610ee3828461431e565b7f4e487b71000000000000000000000000000000000000000000000000000000005f52601160045260245ffd5b81810381811115610ee357610ee3614365565b80820180821115610ee357610ee3614365565b5f602082840312156143c8575f5ffd5b8135613da98161407d565b5f5f83357fffffffffffffffffffffffffffffffffffffffffffffffffffffffffffffffe1843603018112614406575f5ffd5b83018035915067ffffffffffffffff821115614420575f5ffd5b60200191503681900382131561419d575f5ffd5b8082028115828204841417610ee357610ee3614365565b5f5f83357fffffffffffffffffffffffffffffffffffffffffffffffffffffffffffffffe184360301811261447e575f5ffd5b83018035915067ffffffffffffffff821115614498575f5ffd5b6020019150600681901b360382131561419d575f5ffd5b5f5f83357fffffffffffffffffffffffffffffffffffffffffffffffffffffffffffffffe18436030181126144e2575f5ffd5b830160208101925035905067ffffffffffffffff811115614501575f5ffd5b8060061b360382131561419d575f5ffd5b8183526020830192505f815f5b848110156145595781356145328161407d565b6001600160a01b03168652602082810135908701526040958601959091019060010161451f565b5093949350505050565b8183526020830192505f815f5b848110156145595761458a866145858461403a565b61431e565b6020828101359087015260409586019590910190600101614570565b60208082528235828201528201356040808301919091528201356060808301919091525f906145d6908401614091565b6001600160a01b038116608084015250608083013560a08381019190915283013560c08084019190915261460c908401846144af565b61018060e08501526146236101a085018284614512565b91505061463360e08501856144af565b601f198584030161010086015261464b838284614563565b9250505061465d6101008501856144af565b601f1985840301610120860152614675838284614563565b925050506146866101208501614091565b6001600160a01b038116610140850152506146a46101408501614091565b6001600160a01b038116610160850152506146c26101608501614091565b6001600160a01b038116610180850152509392505050565b5f602082840312156146ea575f5ffd5b5051919050565b5f5f83357fffffffffffffffffffffffffffffffffffffffffffffffffffffffffffffffe1843603018112614724575f5ffd5b83018035915067ffffffffffffffff82111561473e575f5ffd5b6020019150600581901b360382131561419d575f5ffd5b5f5f19820361476657614766614365565b5060010190565b7f4e487b71000000000000000000000000000000000000000000000000000000005f52604160045260245ffd5b7f4e487b71000000000000000000000000000000000000000000000000000000005f52603260045260245ffd5b81835281816020850137505f602082840101525f6020601f19601f840116840101905092915050565b604081525f6148036040830185876147c7565b82810360208401528084518083526020830191506020860192505f5b8181101561483d57835183526020938401939092019160010161481f565b5090979650505050505050565b5f81518060208401855e5f93019283525090919050565b5f613da9828461484a565b5f6020828403121561487c575f5ffd5b81518015158114613da9575f5ffd5b5f6020828403121561489b575f5ffd5b813563ffffffff81168114613da9575f5ffd5b818382375f9101908152919050565b858152846020820152836040820152608060608201525f6148e26080830184866147c7565b979650505050505050565b7f416363657373436f6e74726f6c3a206163636f756e742000000000000000000081525f61491e601783018561484a565b7f206973206d697373696e6720726f6c6520000000000000000000000000000000815261494e601182018561484a565b95945050505050565b5f8261498a577f4e487b71000000000000000000000000000000000000000000000000000000005f52601260045260245ffd5b500690565b6001815b60018411156149ca578085048111156149ae576149ae614365565b60018416156149bc57908102905b60019390931c928002614993565b935093915050565b5f826149e057506001610ee3565b816149ec57505f610ee3565b8160018114614a025760028114614a0c57614a28565b6001915050610ee3565b60ff841115614a1d57614a1d614365565b50506001821b610ee3565b5060208310610133831016604e8410600b8410161715614a4b575081810a610ee3565b614a575f19848461498f565b805f1904821115614a6a57614a6a614365565b029392505050565b5f613da983836149d2565b5f81614a8b57614a8b614365565b505f19019056fea26469706673582212202f6f698dbbd0a9e2a0b8a9cf1891e21acf6ab1e7454497ba5b111f855f82410664736f6c634300081e0033",
    "linkReferences": {},
    "deployedLinkReferences": {}
}