{"abi":[{"type":"constructor","inputs":[{"name":"_token","type":"address","internalType":"address"},{"name":"_ownerAddress","type":"address","internalType":"address"},{"name":"_claimEnd","type":"uint256","internalType":"uint256"},{"name":"_primaryFactorAddress","type":"address","internalType":"address"},{"name":"_primaryConditionalMultiplierAddress","type":"address","internalType":"address"},{"name":"_secondaryFactorAddress","type":"address","internalType":"address"}],"stateMutability":"nonpayable"},{"type":"function","name":"CLAIM_END","inputs":[],"outputs":[{"name":"","type":"uint256","internalType":"uint256"}],"stateMutability":"view"},{"type":"function","name":"DENOMINATOR","inputs":[],"outputs":[{"name":"","type":"uint256","internalType":"uint256"}],"stateMutability":"view"},{"type":"function","name":"PRIMARY_CONDITIONAL_MULTIPLIER_ADDRESS","inputs":[],"outputs":[{"name":"","type":"address","internalType":"contract IERC20"}],"stateMutability":"view"},{"type":"function","name":"PRIMARY_FACTOR_ADDRESS","inputs":[],"outputs":[{"name":"","type":"address","internalType":"contract IERC20"}],"stateMutability":"view"},{"type":"function","name":"SECONDARY_FACTOR_ADDRESS","inputs":[],"outputs":[{"name":"","type":"address","internalType":"contract IERC20"}],"stateMutability":"view"},{"type":"function","name":"TOKEN","inputs":[],"outputs":[{"name":"","type":"address","internalType":"contract IERC20"}],"stateMutability":"view"},{"type":"function","name":"acceptOwnership","inputs":[],"outputs":[],"stateMutability":"nonpayable"},{"type":"function","name":"calculateAllocation","inputs":[{"name":"_account","type":"address","internalType":"address"}],"outputs":[{"name":"tokenAllocation","type":"uint256","internalType":"uint256"}],"stateMutability":"view"},{"type":"function","name":"claim","inputs":[],"outputs":[],"stateMutability":"nonpayable"},{"type":"function","name":"hasClaimed","inputs":[{"name":"user","type":"address","internalType":"address"}],"outputs":[{"name":"claimed","type":"bool","internalType":"bool"}],"stateMutability":"view"},{"type":"function","name":"owner","inputs":[],"outputs":[{"name":"","type":"address","internalType":"address"}],"stateMutability":"view"},{"type":"function","name":"pendingOwner","inputs":[],"outputs":[{"name":"","type":"address","internalType":"address"}],"stateMutability":"view"},{"type":"function","name":"renounceOwnership","inputs":[],"outputs":[],"stateMutability":"view"},{"type":"function","name":"transferOwnership","inputs":[{"name":"newOwner","type":"address","internalType":"address"}],"outputs":[],"stateMutability":"nonpayable"},{"type":"function","name":"withdraw","inputs":[],"outputs":[],"stateMutability":"nonpayable"},{"type":"event","name":"AirdropConfigured","inputs":[{"name":"token","type":"address","indexed":false,"internalType":"address"},{"name":"primaryFactor","type":"address","indexed":false,"internalType":"address"},{"name":"primaryMultiplier","type":"address","indexed":false,"internalType":"address"},{"name":"secondaryFactor","type":"address","indexed":false,"internalType":"address"},{"name":"claimEndTimestamp","type":"uint256","indexed":false,"internalType":"uint256"}],"anonymous":false},{"type":"event","name":"Claimed","inputs":[{"name":"user","type":"address","indexed":true,"internalType":"address"},{"name":"amount","type":"uint256","indexed":false,"internalType":"uint256"}],"anonymous":false},{"type":"event","name":"OwnershipTransferStarted","inputs":[{"name":"previousOwner","type":"address","indexed":true,"internalType":"address"},{"name":"newOwner","type":"address","indexed":true,"internalType":"address"}],"anonymous":false},{"type":"event","name":"OwnershipTransferred","inputs":[{"name":"previousOwner","type":"address","indexed":true,"internalType":"address"},{"name":"newOwner","type":"address","indexed":true,"internalType":"address"}],"anonymous":false},{"type":"event","name":"TokenBalanceWithdrawn","inputs":[{"name":"owner","type":"address","indexed":false,"internalType":"address"},{"name":"amount","type":"uint256","indexed":false,"internalType":"uint256"}],"anonymous":false},{"type":"error","name":"AllCalculationFactorsZero","inputs":[]},{"type":"error","name":"AlreadyClaimed","inputs":[]},{"type":"error","name":"ClaimAmountIsZero","inputs":[]},{"type":"error","name":"ClaimEndTooShort","inputs":[]},{"type":"error","name":"ClaimFinished","inputs":[]},{"type":"error","name":"ClaimNotFinished","inputs":[]},{"type":"error","name":"OwnableInvalidOwner","inputs":[{"name":"owner","type":"address","internalType":"address"}]},{"type":"error","name":"OwnableUnauthorizedAccount","inputs":[{"name":"account","type":"address","internalType":"address"}]},{"type":"error","name":"RenouncingOwnershipDisabled","inputs":[]},{"type":"error","name":"SafeERC20FailedOperation","inputs":[{"name":"token","type":"address","internalType":"address"}]},{"type":"error","name":"ZeroAddressNotAllowed","inputs":[]}],"bytecode":{"object":"0x61012060405234801561001157600080fd5b506040516110dc3803806110dc83398101604081905261003091610284565b846001600160a01b03811661005f57604051631e4fbdf760e01b81526000600482015260240160405180910390fd5b610068816101fc565b506001600160a01b038616610090576040516342bcdf7f60e11b815260040160405180910390fd5b8342106100b0576040516374c0b62560e01b815260040160405180910390fd5b6001600160a01b0383161515806100cf57506001600160a01b03821615155b806100e257506001600160a01b03811615155b6100ff5760405163b06ec9d760e01b815260040160405180910390fd5b6001600160a01b03831615158061011d57506001600160a01b038216155b61013a576040516342bcdf7f60e11b815260040160405180910390fd5b6001600160a01b038316158061015857506001600160a01b03821615155b610175576040516342bcdf7f60e11b815260040160405180910390fd5b6001600160a01b03868116608081815285831660c081905285841660e081905293851661010081905260a089815260408051958652602086019390935291840194909452606083019390935281018690527f486ccbb3d09ce7a099793f5cbb22c99b820860952ad22bdb63518170470e9060910160405180910390a15050505050506102f1565b600180546001600160a01b031916905561021581610218565b50565b600080546001600160a01b038381166001600160a01b0319831681178455604051919092169283917f8be0079c531659141344cd1fd0a4f28419497f9722a3daafe3b4186f6b6457e09190a35050565b80516001600160a01b038116811461027f57600080fd5b919050565b60008060008060008060c0878903121561029d57600080fd5b6102a687610268565b95506102b460208801610268565b9450604087015193506102c960608801610268565b92506102d760808801610268565b91506102e560a08801610268565b90509295509295509295565b60805160a05160c05160e05161010051610d6261037a6000396000818160ff0152818161085901526108d801526000818161026401526107230152600081816101500152818161069e01526107d5015260008181610189015281816102c2015261044c0152600081816102140152818161034a0152818161042001526105c00152610d626000f3fe608060405234801561001057600080fd5b50600436106100f55760003560e01c806379ba509711610097578063918f867411610066578063918f867414610254578063957b594a1461025f578063e30c397814610286578063f2fde38b146102a457600080fd5b806379ba5097146101f45780637debb959146101fc57806382bfefc81461020f5780638da5cb5b1461023657600080fd5b80634e71d92d116100d35780634e71d92d1461017c578063701815c514610184578063715018a6146101b957806373b2e80e146101c157600080fd5b806308a80e9f146100fa5780632448d69f1461014b5780633ccfd60b14610172575b600080fd5b6101217f000000000000000000000000000000000000000000000000000000000000000081565b60405173ffffffffffffffffffffffffffffffffffffffff90911681526020015b60405180910390f35b6101217f000000000000000000000000000000000000000000000000000000000000000081565b61017a6102b7565b005b61017a61044a565b6101ab7f000000000000000000000000000000000000000000000000000000000000000081565b604051908152602001610142565b61017a6105e7565b6101e46101cf366004610c3c565b60026020526000908152604090205460ff1681565b6040519015158152602001610142565b61017a610621565b6101ab61020a366004610c3c565b61069a565b6101217f000000000000000000000000000000000000000000000000000000000000000081565b60005473ffffffffffffffffffffffffffffffffffffffff16610121565b6101ab633b9aca0081565b6101217f000000000000000000000000000000000000000000000000000000000000000081565b60015473ffffffffffffffffffffffffffffffffffffffff16610121565b61017a6102b2366004610c3c565b610955565b6102bf610a05565b427f00000000000000000000000000000000000000000000000000000000000000001115610319576040517f9df4a95e00000000000000000000000000000000000000000000000000000000815260040160405180910390fd5b6040517f70a082310000000000000000000000000000000000000000000000000000000081523060048201526000907f000000000000000000000000000000000000000000000000000000000000000073ffffffffffffffffffffffffffffffffffffffff16906370a0823190602401602060405180830381865afa1580156103a6573d6000803e3d6000fd5b505050506040513d601f19601f820116820180604052508101906103ca9190610c79565b60408051338152602081018390529192507f2f5941a94f7b6141eab201a57f378e87d0da014aeec7e9de07f3e4667252913d910160405180910390a161044773ffffffffffffffffffffffffffffffffffffffff7f0000000000000000000000000000000000000000000000000000000000000000163383610a5a565b50565b7f000000000000000000000000000000000000000000000000000000000000000042106104a3576040517f47c488fe00000000000000000000000000000000000000000000000000000000815260040160405180910390fd5b3360009081526002602052604090205460ff16156104ed576040517f646cf55800000000000000000000000000000000000000000000000000000000815260040160405180910390fd5b60006104f83361069a565b905080600003610534576040517fa9ccd18600000000000000000000000000000000000000000000000000000000815260040160405180910390fd5b336000818152600260205260409081902080547fffffffffffffffffffffffffffffffffffffffffffffffffffffffffffffff00166001179055517fd8138f8a3f377c5259ca548e70e4c2de94f129f5a11036a15b69513cba2b426a9061059e9084815260200190565b60405180910390a261044773ffffffffffffffffffffffffffffffffffffffff7f0000000000000000000000000000000000000000000000000000000000000000163383610a5a565b6105ef610a05565b6040517f7151954600000000000000000000000000000000000000000000000000000000815260040160405180910390fd5b600154339073ffffffffffffffffffffffffffffffffffffffff168114610691576040517f118cdaa700000000000000000000000000000000000000000000000000000000815273ffffffffffffffffffffffffffffffffffffffff821660048201526024015b60405180910390fd5b61044781610aec565b60007f000000000000000000000000000000000000000000000000000000000000000073ffffffffffffffffffffffffffffffffffffffff1615610857576040517f70a0823100000000000000000000000000000000000000000000000000000000815273ffffffffffffffffffffffffffffffffffffffff8381166004830152633b9aca00917f0000000000000000000000000000000000000000000000000000000000000000909116906370a0823190602401602060405180830381865afa15801561076c573d6000803e3d6000fd5b505050506040513d601f19601f820116820180604052508101906107909190610c79565b6040517f70a0823100000000000000000000000000000000000000000000000000000000815273ffffffffffffffffffffffffffffffffffffffff85811660048301527f000000000000000000000000000000000000000000000000000000000000000016906370a0823190602401602060405180830381865afa15801561081c573d6000803e3d6000fd5b505050506040513d601f19601f820116820180604052508101906108409190610c79565b61084a9190610cc1565b6108549190610cde565b90505b7f000000000000000000000000000000000000000000000000000000000000000073ffffffffffffffffffffffffffffffffffffffff1615610950576040517f70a0823100000000000000000000000000000000000000000000000000000000815273ffffffffffffffffffffffffffffffffffffffff83811660048301527f000000000000000000000000000000000000000000000000000000000000000016906370a0823190602401602060405180830381865afa15801561091f573d6000803e3d6000fd5b505050506040513d601f19601f820116820180604052508101906109439190610c79565b61094d9082610d19565b90505b919050565b61095d610a05565b6001805473ffffffffffffffffffffffffffffffffffffffff83167fffffffffffffffffffffffff000000000000000000000000000000000000000090911681179091556109c060005473ffffffffffffffffffffffffffffffffffffffff1690565b73ffffffffffffffffffffffffffffffffffffffff167f38d16b8cac22d99fc7c124b9cd0de2d3fa1faef420bfe791d8c362d765e2270060405160405180910390a350565b60005473ffffffffffffffffffffffffffffffffffffffff163314610a58576040517f118cdaa7000000000000000000000000000000000000000000000000000000008152336004820152602401610688565b565b6040805173ffffffffffffffffffffffffffffffffffffffff8416602482015260448082018490528251808303909101815260649091019091526020810180517bffffffffffffffffffffffffffffffffffffffffffffffffffffffff167fa9059cbb00000000000000000000000000000000000000000000000000000000179052610ae7908490610b1d565b505050565b600180547fffffffffffffffffffffffff000000000000000000000000000000000000000016905561044781610bc7565b600080602060008451602086016000885af180610b40576040513d6000823e3d81fd5b50506000513d91508115610b58578060011415610b72565b73ffffffffffffffffffffffffffffffffffffffff84163b155b15610bc1576040517f5274afe700000000000000000000000000000000000000000000000000000000815273ffffffffffffffffffffffffffffffffffffffff85166004820152602401610688565b50505050565b6000805473ffffffffffffffffffffffffffffffffffffffff8381167fffffffffffffffffffffffff0000000000000000000000000000000000000000831681178455604051919092169283917f8be0079c531659141344cd1fd0a4f28419497f9722a3daafe3b4186f6b6457e09190a35050565b600060208284031215610c4e57600080fd5b813573ffffffffffffffffffffffffffffffffffffffff81168114610c7257600080fd5b9392505050565b600060208284031215610c8b57600080fd5b5051919050565b7f4e487b7100000000000000000000000000000000000000000000000000000000600052601160045260246000fd5b8082028115828204841417610cd857610cd8610c92565b92915050565b600082610d14577f4e487b7100000000000000000000000000000000000000000000000000000000600052601260045260246000fd5b500490565b80820180821115610cd857610cd8610c9256fea2646970667358221220f73e3938c1e734541b8c0dcc994c4ae2c39408997374e336908f50d013ac712164736f6c634300081e0033","linkReferences":{}},"methodIdentifiers":{"CLAIM_END()":"701815c5","DENOMINATOR()":"918f8674","PRIMARY_CONDITIONAL_MULTIPLIER_ADDRESS()":"957b594a","PRIMARY_FACTOR_ADDRESS()":"2448d69f","SECONDARY_FACTOR_ADDRESS()":"08a80e9f","TOKEN()":"82bfefc8","acceptOwnership()":"79ba5097","calculateAllocation(address)":"7debb959","claim()":"4e71d92d","hasClaimed(address)":"73b2e80e","owner()":"8da5cb5b","pendingOwner()":"e30c3978","renounceOwnership()":"715018a6","transferOwnership(address)":"f2fde38b","withdraw()":"3ccfd60b"},"storageLayout":{"storage":[{"astId":42204,"contract":"src/airdrops/TokenAirdrop.sol:TokenAirdrop","label":"_owner","offset":0,"slot":"0","type":"t_address"},{"astId":42352,"contract":"src/airdrops/TokenAirdrop.sol:TokenAirdrop","label":"_pendingOwner","offset":0,"slot":"1","type":"t_address"},{"astId":52649,"contract":"src/airdrops/TokenAirdrop.sol:TokenAirdrop","label":"hasClaimed","offset":0,"slot":"2","type":"t_mapping(t_address,t_bool)"}],"types":{"t_address":{"encoding":"inplace","label":"address","numberOfBytes":"20"},"t_bool":{"encoding":"inplace","label":"bool","numberOfBytes":"1"},"t_mapping(t_address,t_bool)":{"encoding":"mapping","key":"t_address","label":"mapping(address => bool)","numberOfBytes":"32","value":"t_bool"}}},"id":71}