{
  "_format": "hh-sol-artifact-1",
  "contractName": "AddressFilter",
  "sourceName": "src/rollup/forcedTransactions/AddressFilter.sol",
  "abi": [
    {
      "inputs": [
        {
          "internalType": "address",
          "name": "_defaultAdmin",
          "type": "address"
        },
        {
          "internalType": "address[]",
          "name": "_initialfilteredAddresses",
          "type": "address[]"
        }
      ],
      "stateMutability": "nonpayable",
      "type": "constructor"
    },
    {
      "inputs": [
        {
          "internalType": "address",
          "name": "filteredAddress",
          "type": "address"
        }
      ],
      "name": "AddressAlreadyFiltered",
      "type": "error"
    },
    {
      "inputs": [],
      "name": "FilteredAddressesEmpty",
      "type": "error"
    },
    {
      "inputs": [],
      "name": "ZeroAddressNotAllowed",
      "type": "error"
    },
    {
      "anonymous": false,
      "inputs": [
        {
          "indexed": false,
          "internalType": "address[]",
          "name": "filteredAddresses",
          "type": "address[]"
        },
        {
          "indexed": false,
          "internalType": "bool",
          "name": "isFiltered",
          "type": "bool"
        }
      ],
      "name": "FilteredStatusesSet",
      "type": "event"
    },
    {
      "anonymous": false,
      "inputs": [
        {
          "indexed": true,
          "internalType": "bytes32",
          "name": "role",
          "type": "bytes32"
        },
        {
          "indexed": true,
          "internalType": "bytes32",
          "name": "previousAdminRole",
          "type": "bytes32"
        },
        {
          "indexed": true,
          "internalType": "bytes32",
          "name": "newAdminRole",
          "type": "bytes32"
        }
      ],
      "name": "RoleAdminChanged",
      "type": "event"
    },
    {
      "anonymous": false,
      "inputs": [
        {
          "indexed": true,
          "internalType": "bytes32",
          "name": "role",
          "type": "bytes32"
        },
        {
          "indexed": true,
          "internalType": "address",
          "name": "account",
          "type": "address"
        },
        {
          "indexed": true,
          "internalType": "address",
          "name": "sender",
          "type": "address"
        }
      ],
      "name": "RoleGranted",
      "type": "event"
    },
    {
      "anonymous": false,
      "inputs": [
        {
          "indexed": true,
          "internalType": "bytes32",
          "name": "role",
          "type": "bytes32"
        },
        {
          "indexed": true,
          "internalType": "address",
          "name": "account",
          "type": "address"
        },
        {
          "indexed": true,
          "internalType": "address",
          "name": "sender",
          "type": "address"
        }
      ],
      "name": "RoleRevoked",
      "type": "event"
    },
    {
      "inputs": [],
      "name": "DEFAULT_ADMIN_ROLE",
      "outputs": [
        {
          "internalType": "bytes32",
          "name": "",
          "type": "bytes32"
        }
      ],
      "stateMutability": "view",
      "type": "function"
    },
    {
      "inputs": [
        {
          "internalType": "address",
          "name": "_addressToCheck",
          "type": "address"
        }
      ],
      "name": "addressIsFiltered",
      "outputs": [
        {
          "internalType": "bool",
          "name": "isFiltered",
          "type": "bool"
        }
      ],
      "stateMutability": "view",
      "type": "function"
    },
    {
      "inputs": [
        {
          "internalType": "bytes32",
          "name": "role",
          "type": "bytes32"
        }
      ],
      "name": "getRoleAdmin",
      "outputs": [
        {
          "internalType": "bytes32",
          "name": "",
          "type": "bytes32"
        }
      ],
      "stateMutability": "view",
      "type": "function"
    },
    {
      "inputs": [
        {
          "internalType": "bytes32",
          "name": "role",
          "type": "bytes32"
        },
        {
          "internalType": "address",
          "name": "account",
          "type": "address"
        }
      ],
      "name": "grantRole",
      "outputs": [],
      "stateMutability": "nonpayable",
      "type": "function"
    },
    {
      "inputs": [
        {
          "internalType": "bytes32",
          "name": "role",
          "type": "bytes32"
        },
        {
          "internalType": "address",
          "name": "account",
          "type": "address"
        }
      ],
      "name": "hasRole",
      "outputs": [
        {
          "internalType": "bool",
          "name": "",
          "type": "bool"
        }
      ],
      "stateMutability": "view",
      "type": "function"
    },
    {
      "inputs": [
        {
          "internalType": "bytes32",
          "name": "role",
          "type": "bytes32"
        },
        {
          "internalType": "address",
          "name": "account",
          "type": "address"
        }
      ],
      "name": "renounceRole",
      "outputs": [],
      "stateMutability": "nonpayable",
      "type": "function"
    },
    {
      "inputs": [
        {
          "internalType": "bytes32",
          "name": "role",
          "type": "bytes32"
        },
        {
          "internalType": "address",
          "name": "account",
          "type": "address"
        }
      ],
      "name": "revokeRole",
      "outputs": [],
      "stateMutability": "nonpayable",
      "type": "function"
    },
    {
      "inputs": [
        {
          "internalType": "address[]",
          "name": "_initialfilteredAddresses",
          "type": "address[]"
        },
        {
          "internalType": "bool",
          "name": "_isFiltered",
          "type": "bool"
        }
      ],
      "name": "setFilteredStatus",
      "outputs": [],
      "stateMutability": "nonpayable",
      "type": "function"
    },
    {
      "inputs": [
        {
          "internalType": "bytes4",
          "name": "interfaceId",
          "type": "bytes4"
        }
      ],
      "name": "supportsInterface",
      "outputs": [
        {
          "internalType": "bool",
          "name": "",
          "type": "bool"
        }
      ],
      "stateMutability": "view",
      "type": "function"
    },
    {
      "inputs": [],
      "name": "useAddressFilter",
      "outputs": [
        {
          "internalType": "bool",
          "name": "",
          "type": "bool"
        }
      ],
      "stateMutability": "view",
      "type": "function"
    }
  ],
  "bytecode": "0x60806040526001805460ff19168117905534801561001b575f5ffd5b506040516110bc3803806110bc83398101604081905261003a916101e3565b6001600160a01b038216610061576040516342bcdf7f60e11b815260040160405180910390fd5b61006b5f8361007d565b61007681600161011a565b505061032d565b5f828152602081815260408083206001600160a01b038516845290915290205460ff16610116575f828152602081815260408083206001600160a01b03851684529091529020805460ff191660011790556100d53390565b6001600160a01b0316816001600160a01b0316837f2f8788117e7eff1d82e926ec794901d17c78024a50270940304540a733656f0d60405160405180910390a45b5050565b81515f5b81811015610175578260025f86848151811061013c5761013c6102c1565b6020908102919091018101516001600160a01b031682528101919091526040015f20805460ff191691151591909117905560010161011e565b507f8911b07a903172e66fc833a425762eb210532a5781d16226aa9088905926f7b083836040516101a79291906102d5565b60405180910390a1505050565b80516001600160a01b03811681146101ca575f5ffd5b919050565b634e487b7160e01b5f52604160045260245ffd5b5f5f604083850312156101f4575f5ffd5b6101fd836101b4565b60208401519092506001600160401b03811115610218575f5ffd5b8301601f81018513610228575f5ffd5b80516001600160401b03811115610241576102416101cf565b604051600582901b90603f8201601f191681016001600160401b038111828210171561026f5761026f6101cf565b60405291825260208184018101929081018884111561028c575f5ffd5b6020850194505b838510156102b2576102a4856101b4565b815260209485019401610293565b50809450505050509250929050565b634e487b7160e01b5f52603260045260245ffd5b604080825283519082018190525f9060208501906060840190835b818110156103175783516001600160a01b03168352602093840193909201916001016102f0565b5050809250505082151560208301529392505050565b610d828061033a5f395ff3fe608060405234801561000f575f5ffd5b50600436106100b9575f3560e01c806344b6a0a31161007257806391d148541161005857806391d1485414610195578063a217fddf146101d8578063d547741f146101df575f5ffd5b806344b6a0a3146101755780638ab1737914610182575f5ffd5b8063248a9ca3116100a2578063248a9ca31461011d5780632f2ff15d1461014d57806336568abe14610162575f5ffd5b806301ffc9a7146100bd5780631d515083146100e5575b5f5ffd5b6100d06100cb36600461096c565b6101f2565b60405190151581526020015b60405180910390f35b6100d06100f33660046109d3565b73ffffffffffffffffffffffffffffffffffffffff165f9081526002602052604090205460ff1690565b61013f61012b3660046109ec565b5f9081526020819052604090206001015490565b6040519081526020016100dc565b61016061015b366004610a03565b61028a565b005b610160610170366004610a03565b6102b3565b6001546100d09060ff1681565b610160610190366004610a69565b61036b565b6100d06101a3366004610a03565b5f9182526020828152604080842073ffffffffffffffffffffffffffffffffffffffff93909316845291905290205460ff1690565b61013f5f81565b6101606101ed366004610a03565b6103b9565b5f7fffffffff0000000000000000000000000000000000000000000000000000000082167f7965db0b00000000000000000000000000000000000000000000000000000000148061028457507f01ffc9a7000000000000000000000000000000000000000000000000000000007fffffffff000000000000000000000000000000000000000000000000000000008316145b92915050565b5f828152602081905260409020600101546102a4816103dd565b6102ae83836103ea565b505050565b73ffffffffffffffffffffffffffffffffffffffff8116331461035d576040517f08c379a000000000000000000000000000000000000000000000000000000000815260206004820152602f60248201527f416363657373436f6e74726f6c3a2063616e206f6e6c792072656e6f756e636560448201527f20726f6c657320666f722073656c66000000000000000000000000000000000060648201526084015b60405180910390fd5b61036782826104d8565b5050565b5f610375816103dd565b5f8351116103af576040517fda5a830200000000000000000000000000000000000000000000000000000000815260040160405180910390fd5b6102ae838361058d565b5f828152602081905260409020600101546103d3816103dd565b6102ae83836104d8565b6103e78133610652565b50565b5f8281526020818152604080832073ffffffffffffffffffffffffffffffffffffffff8516845290915290205460ff16610367575f8281526020818152604080832073ffffffffffffffffffffffffffffffffffffffff85168452909152902080547fffffffffffffffffffffffffffffffffffffffffffffffffffffffffffffff0016600117905561047a3390565b73ffffffffffffffffffffffffffffffffffffffff168173ffffffffffffffffffffffffffffffffffffffff16837f2f8788117e7eff1d82e926ec794901d17c78024a50270940304540a733656f0d60405160405180910390a45050565b5f8281526020818152604080832073ffffffffffffffffffffffffffffffffffffffff8516845290915290205460ff1615610367575f8281526020818152604080832073ffffffffffffffffffffffffffffffffffffffff8516808552925280832080547fffffffffffffffffffffffffffffffffffffffffffffffffffffffffffffff0016905551339285917ff6391f5c32d9c69d2a47ea670b442974b53935d1edc7fd64eb21e047a839171b9190a45050565b81515f5b81811015610613578260025f8684815181106105af576105af610b5b565b60209081029190910181015173ffffffffffffffffffffffffffffffffffffffff1682528101919091526040015f2080547fffffffffffffffffffffffffffffffffffffffffffffffffffffffffffffff0016911515919091179055600101610591565b507f8911b07a903172e66fc833a425762eb210532a5781d16226aa9088905926f7b08383604051610645929190610b88565b60405180910390a1505050565b5f8281526020818152604080832073ffffffffffffffffffffffffffffffffffffffff8516845290915290205460ff166103675761068f81610709565b61069a836020610728565b6040516020016106ab929190610c04565b604080517fffffffffffffffffffffffffffffffffffffffffffffffffffffffffffffffe0818403018152908290527f08c379a000000000000000000000000000000000000000000000000000000000825261035491600401610c6e565b606061028473ffffffffffffffffffffffffffffffffffffffff831660145b60605f610736836002610cee565b610741906002610d05565b67ffffffffffffffff81111561075957610759610a2d565b6040519080825280601f01601f191660200182016040528015610783576020820181803683370190505b5090507f3000000000000000000000000000000000000000000000000000000000000000815f815181106107b9576107b9610b5b565b60200101907effffffffffffffffffffffffffffffffffffffffffffffffffffffffffffff191690815f1a9053507f78000000000000000000000000000000000000000000000000000000000000008160018151811061081b5761081b610b5b565b60200101907effffffffffffffffffffffffffffffffffffffffffffffffffffffffffffff191690815f1a9053505f610855846002610cee565b610860906001610d05565b90505b60018111156108fc577f303132333435363738396162636465660000000000000000000000000000000085600f16601081106108a1576108a1610b5b565b1a60f81b8282815181106108b7576108b7610b5b565b60200101907effffffffffffffffffffffffffffffffffffffffffffffffffffffffffffff191690815f1a90535060049490941c936108f581610d18565b9050610863565b508315610965576040517f08c379a000000000000000000000000000000000000000000000000000000000815260206004820181905260248201527f537472696e67733a20686578206c656e67746820696e73756666696369656e746044820152606401610354565b9392505050565b5f6020828403121561097c575f5ffd5b81357fffffffff0000000000000000000000000000000000000000000000000000000081168114610965575f5ffd5b803573ffffffffffffffffffffffffffffffffffffffff811681146109ce575f5ffd5b919050565b5f602082840312156109e3575f5ffd5b610965826109ab565b5f602082840312156109fc575f5ffd5b5035919050565b5f5f60408385031215610a14575f5ffd5b82359150610a24602084016109ab565b90509250929050565b7f4e487b71000000000000000000000000000000000000000000000000000000005f52604160045260245ffd5b803580151581146109ce575f5ffd5b5f5f60408385031215610a7a575f5ffd5b823567ffffffffffffffff811115610a90575f5ffd5b8301601f81018513610aa0575f5ffd5b803567ffffffffffffffff811115610aba57610aba610a2d565b8060051b6040517fffffffffffffffffffffffffffffffffffffffffffffffffffffffffffffffe0603f830116810181811067ffffffffffffffff82111715610b0557610b05610a2d565b604052918252602081840181019290810188841115610b22575f5ffd5b6020850194505b83851015610b4857610b3a856109ab565b815260209485019401610b29565b509450610a249250505060208401610a5a565b7f4e487b71000000000000000000000000000000000000000000000000000000005f52603260045260245ffd5b604080825283519082018190525f9060208501906060840190835b81811015610bd757835173ffffffffffffffffffffffffffffffffffffffff16835260209384019390920191600101610ba3565b5050809250505082151560208301529392505050565b5f81518060208401855e5f93019283525090919050565b7f416363657373436f6e74726f6c3a206163636f756e742000000000000000000081525f610c356017830185610bed565b7f206973206d697373696e6720726f6c65200000000000000000000000000000008152610c656011820185610bed565b95945050505050565b602081525f82518060208401528060208501604085015e5f6040828501015260407fffffffffffffffffffffffffffffffffffffffffffffffffffffffffffffffe0601f83011684010191505092915050565b7f4e487b71000000000000000000000000000000000000000000000000000000005f52601160045260245ffd5b808202811582820484141761028457610284610cc1565b8082018082111561028457610284610cc1565b5f81610d2657610d26610cc1565b507fffffffffffffffffffffffffffffffffffffffffffffffffffffffffffffffff019056fea2646970667358221220d0e9c00223108d78aebc4fac98cc76634dd524772d87c7c6302e13ad7936e4b464736f6c63430008210033",
  "linkReferences": {},
  "deployedLinkReferences": {}
}