{
  "_format": "hh-sol-artifact-1",
  "contractName": "ExcludedPrecompiles",
  "sourceName": "besu-plugins/linea-sequencer/acceptance-tests/src/test/solidity/ExcludedPrecompiles.sol",
  "abi": [
    {
      "inputs": [
        {
          "internalType": "uint32",
          "name": "rounds",
          "type": "uint32"
        },
        {
          "internalType": "bytes32[2]",
          "name": "h",
          "type": "bytes32[2]"
        },
        {
          "internalType": "bytes32[4]",
          "name": "m",
          "type": "bytes32[4]"
        },
        {
          "internalType": "bytes8[2]",
          "name": "t",
          "type": "bytes8[2]"
        },
        {
          "internalType": "bool",
          "name": "f",
          "type": "bool"
        }
      ],
      "name": "callBlake2f",
      "outputs": [
        {
          "internalType": "bytes32[2]",
          "name": "",
          "type": "bytes32[2]"
        }
      ],
      "stateMutability": "view",
      "type": "function"
    },
    {
      "inputs": [
        {
          "internalType": "bytes",
          "name": "data",
          "type": "bytes"
        }
      ],
      "name": "callRIPEMD160",
      "outputs": [
        {
          "internalType": "bytes20",
          "name": "result",
          "type": "bytes20"
        }
      ],
      "stateMutability": "view",
      "type": "function"
    }
  ],
  "bytecode": "0x6080604052348015600f57600080fd5b50610cb58061001f6000396000f3fe608060405234801561001057600080fd5b50600436106100365760003560e01c80638e83f7301461003b578063b49fd0231461006b575b600080fd5b610055600480360381019061005091906106cf565b61009b565b60405161006291906107f7565b60405180910390f35b610085600480360381019061008091906108c7565b61028a565b604051610092919061094b565b60405180910390f35b6100a36102ee565b600060099050600087876000600281106100c0576100bf610966565b5b6020020151886001600281106100d9576100d8610966565b5b6020020151886000600481106100f2576100f1610966565b5b60200201518960016004811061010b5761010a610966565b5b60200201518a60026004811061012457610123610966565b5b60200201518b60036004811061013d5761013c610966565b5b60200201518b60006002811061015657610155610966565b5b60200201518c60016002811061016f5761016e610966565b5b60200201518c61018357600060f81b610189565b600160f81b5b6040516020016101a29a99989796959493929190610a5a565b60405160208183030381529060405290506000808373ffffffffffffffffffffffffffffffffffffffff16836040516101db9190610b7f565b600060405180830381855afa9150503d8060008114610216576040519150601f19603f3d011682016040523d82523d6000602084013e61021b565b606091505b509150915081610260576040517f08c379a000000000000000000000000000000000000000000000000000000000815260040161025790610bf3565b60405180910390fd5b6102686102ee565b6020820151815260408201516020820152809550505050505095945050505050565b6000806003905060008390506000601484835160208501865afa9050806102e6576040517f08c379a00000000000000000000000000000000000000000000000000000000081526004016102dd90610c5f565b60405180910390fd5b505050919050565b6040518060400160405280600290602082028036833780820191505090505090565b6000604051905090565b600080fd5b600080fd5b600063ffffffff82169050919050565b61033d81610324565b811461034857600080fd5b50565b60008135905061035a81610334565b92915050565b600080fd5b6000601f19601f8301169050919050565b7f4e487b7100000000000000000000000000000000000000000000000000000000600052604160045260246000fd5b6103ae82610365565b810181811067ffffffffffffffff821117156103cd576103cc610376565b5b80604052505050565b60006103e0610310565b90506103ec82826103a5565b919050565b600067ffffffffffffffff82111561040c5761040b610376565b5b602082029050919050565b600080fd5b6000819050919050565b61042f8161041c565b811461043a57600080fd5b50565b60008135905061044c81610426565b92915050565b6000610465610460846103f1565b6103d6565b9050806020840283018581111561047f5761047e610417565b5b835b818110156104a85780610494888261043d565b845260208401935050602081019050610481565b5050509392505050565b600082601f8301126104c7576104c6610360565b5b60026104d4848285610452565b91505092915050565b600067ffffffffffffffff8211156104f8576104f7610376565b5b602082029050919050565b6000610516610511846104dd565b6103d6565b905080602084028301858111156105305761052f610417565b5b835b818110156105595780610545888261043d565b845260208401935050602081019050610532565b5050509392505050565b600082601f83011261057857610577610360565b5b6004610585848285610503565b91505092915050565b600067ffffffffffffffff8211156105a9576105a8610376565b5b602082029050919050565b60007fffffffffffffffff00000000000000000000000000000000000000000000000082169050919050565b6105e9816105b4565b81146105f457600080fd5b50565b600081359050610606816105e0565b92915050565b600061061f61061a8461058e565b6103d6565b9050806020840283018581111561063957610638610417565b5b835b81811015610662578061064e88826105f7565b84526020840193505060208101905061063b565b5050509392505050565b600082601f83011261068157610680610360565b5b600261068e84828561060c565b91505092915050565b60008115159050919050565b6106ac81610697565b81146106b757600080fd5b50565b6000813590506106c9816106a3565b92915050565b600080600080600061014086880312156106ec576106eb61031a565b5b60006106fa8882890161034b565b955050602061070b888289016104b2565b945050606061071c88828901610563565b93505060e061072d8882890161066c565b92505061012061073f888289016106ba565b9150509295509295909350565b600060029050919050565b600081905092915050565b6000819050919050565b6107758161041c565b82525050565b6000610787838361076c565b60208301905092915050565b6000602082019050919050565b6107a98161074c565b6107b38184610757565b92506107be82610762565b8060005b838110156107ef5781516107d6878261077b565b96506107e183610793565b9250506001810190506107c2565b505050505050565b600060408201905061080c60008301846107a0565b92915050565b600080fd5b600067ffffffffffffffff82111561083257610831610376565b5b61083b82610365565b9050602081019050919050565b82818337600083830152505050565b600061086a61086584610817565b6103d6565b90508281526020810184848401111561088657610885610812565b5b610891848285610848565b509392505050565b600082601f8301126108ae576108ad610360565b5b81356108be848260208601610857565b91505092915050565b6000602082840312156108dd576108dc61031a565b5b600082013567ffffffffffffffff8111156108fb576108fa61031f565b5b61090784828501610899565b91505092915050565b60007fffffffffffffffffffffffffffffffffffffffff00000000000000000000000082169050919050565b61094581610910565b82525050565b6000602082019050610960600083018461093c565b92915050565b7f4e487b7100000000000000000000000000000000000000000000000000000000600052603260045260246000fd5b60008160e01b9050919050565b60006109ad82610995565b9050919050565b6109c56109c082610324565b6109a2565b82525050565b6000819050919050565b6109e66109e18261041c565b6109cb565b82525050565b6000819050919050565b610a07610a02826105b4565b6109ec565b82525050565b60007fff0000000000000000000000000000000000000000000000000000000000000082169050919050565b6000819050919050565b610a54610a4f82610a0d565b610a39565b82525050565b6000610a66828d6109b4565b600482019150610a76828c6109d5565b602082019150610a86828b6109d5565b602082019150610a96828a6109d5565b602082019150610aa682896109d5565b602082019150610ab682886109d5565b602082019150610ac682876109d5565b602082019150610ad682866109f6565b600882019150610ae682856109f6565b600882019150610af68284610a43565b6001820191508190509b9a5050505050505050505050565b600081519050919050565b600081905092915050565b60005b83811015610b42578082015181840152602081019050610b27565b60008484015250505050565b6000610b5982610b0e565b610b638185610b19565b9350610b73818560208601610b24565b80840191505092915050565b6000610b8b8284610b4e565b915081905092915050565b600082825260208201905092915050565b7f426c616b65326620707265636f6d70696c652063616c6c206661696c65640000600082015250565b6000610bdd601e83610b96565b9150610be882610ba7565b602082019050919050565b60006020820190508181036000830152610c0c81610bd0565b9050919050565b7f524950454d442d3136302063616c6c206661696c656400000000000000000000600082015250565b6000610c49601683610b96565b9150610c5482610c13565b602082019050919050565b60006020820190508181036000830152610c7881610c3c565b905091905056fea26469706673582212203242ad616faaf77b45542896d40e2dcfff24601f8c2266839f984ba0a206533d64736f6c634300081a0033",
  "deployedBytecode": "",
  "linkReferences": {},
  "deployedLinkReferences": {}
}