{
  "_format": "hh-sol-artifact-1",
  "contractName": "ExcludedPrecompiles",
  "sourceName": "src/_testing/integration/ExcludedPrecompiles.sol",
  "abi": [
    {
      "inputs": [
        {
          "internalType": "uint32",
          "name": "rounds",
          "type": "uint32"
        },
        {
          "internalType": "bytes32[2]",
          "name": "h",
          "type": "bytes32[2]"
        },
        {
          "internalType": "bytes32[4]",
          "name": "m",
          "type": "bytes32[4]"
        },
        {
          "internalType": "bytes8[2]",
          "name": "t",
          "type": "bytes8[2]"
        },
        {
          "internalType": "bool",
          "name": "f",
          "type": "bool"
        }
      ],
      "name": "callBlake2f",
      "outputs": [
        {
          "internalType": "bytes32[2]",
          "name": "",
          "type": "bytes32[2]"
        }
      ],
      "stateMutability": "view",
      "type": "function"
    },
    {
      "inputs": [
        {
          "internalType": "bytes",
          "name": "data",
          "type": "bytes"
        }
      ],
      "name": "callRIPEMD160",
      "outputs": [
        {
          "internalType": "bytes20",
          "name": "result",
          "type": "bytes20"
        }
      ],
      "stateMutability": "view",
      "type": "function"
    }
  ],
  "bytecode": "0x6080604052348015600e575f5ffd5b5061067a8061001c5f395ff3fe608060405234801561000f575f5ffd5b5060043610610034575f3560e01c80638e83f73014610038578063b49fd02314610061575b5f5ffd5b61004b610046366004610461565b6100a5565b6040516100589190610555565b60405180910390f35b61007461006f36600461057c565b6102cc565b6040517fffffffffffffffffffffffffffffffffffffffff0000000000000000000000009091168152602001610058565b6100ad610354565b8451602080870151865187830151604089015160608a01518951958a01516009975f978f97919691959194919391928c6100e7575f610109565b7f01000000000000000000000000000000000000000000000000000000000000005b60405160e09a909a1b7fffffffff000000000000000000000000000000000000000000000000000000001660208b015260248a019890985260448901969096526064880194909452608487019290925260a486015260c48501527fffffffffffffffff00000000000000000000000000000000000000000000000090811660e48501521660ec8301527fff000000000000000000000000000000000000000000000000000000000000001660f482015260f50160405160208183030381529060405290505f5f8373ffffffffffffffffffffffffffffffffffffffff16836040516101f4919061062e565b5f60405180830381855afa9150503d805f811461022c576040519150601f19603f3d011682016040523d82523d5f602084013e610231565b606091505b5091509150816102a2576040517f08c379a000000000000000000000000000000000000000000000000000000000815260206004820152601e60248201527f426c616b65326620707265636f6d70696c652063616c6c206661696c6564000060448201526064015b60405180910390fd5b6102aa610354565b6020820151815260408201516020820152809550505050505095945050505050565b5f5f600390505f8390505f601484835160208501865afa90508061034c576040517f08c379a000000000000000000000000000000000000000000000000000000000815260206004820152601660248201527f524950454d442d3136302063616c6c206661696c6564000000000000000000006044820152606401610299565b505050919050565b60405180604001604052806002906020820280368337509192915050565b7f4e487b71000000000000000000000000000000000000000000000000000000005f52604160045260245ffd5b604051601f82017fffffffffffffffffffffffffffffffffffffffffffffffffffffffffffffffe016810167ffffffffffffffff811182821017156103e6576103e6610372565b604052919050565b5f6103f9604061039f565b905080604083018481111561040c575f5ffd5b835b8181101561042657803583526020928301920161040e565b50505092915050565b5f61043a608061039f565b905080608083018481111561040c575f5ffd5b8035801515811461045c575f5ffd5b919050565b5f5f5f5f5f6101408688031215610476575f5ffd5b853563ffffffff81168114610489575f5ffd5b9450603f86018713610499575f5ffd5b6104a687602088016103ee565b935086607f8701126104b6575f5ffd5b6104c3876060880161042f565b92508660ff8701126104d3575f5ffd5b6104dd604061039f565b806101208801898111156104ef575f5ffd5b60e089015b818110156105395780357fffffffffffffffff0000000000000000000000000000000000000000000000008116811461052b575f5ffd5b8452602093840193016104f4565b508194506105468161044d565b93505050509295509295909350565b6040810181835f5b600281101561042657815183526020928301929091019060010161055d565b5f6020828403121561058c575f5ffd5b813567ffffffffffffffff8111156105a2575f5ffd5b8201601f810184136105b2575f5ffd5b803567ffffffffffffffff8111156105cc576105cc610372565b6105fd60207fffffffffffffffffffffffffffffffffffffffffffffffffffffffffffffffe0601f8401160161039f565b818152856020838501011115610611575f5ffd5b816020840160208301375f91810160200191909152949350505050565b5f82518060208501845e5f92019182525091905056fea2646970667358221220c0c06e469ce25d7ba85c0d489cf9e76b3681867288c7cad4b6f8e4ff0d1eed8c64736f6c63430008210033",
  "linkReferences": {},
  "deployedLinkReferences": {}
}