{
  "_format": "hh-sol-artifact-1",
  "contractName": "ForcedTransactionGateway",
  "sourceName": "src/rollup/forcedTransactions/ForcedTransactionGateway.sol",
  "abi": [
    {
      "inputs": [
        {
          "internalType": "address",
          "name": "_lineaRollup",
          "type": "address"
        },
        {
          "internalType": "uint256",
          "name": "_destinationChainId",
          "type": "uint256"
        },
        {
          "internalType": "uint256",
          "name": "_l2BlockBuffer",
          "type": "uint256"
        },
        {
          "internalType": "uint256",
          "name": "_maxGasLimit",
          "type": "uint256"
        },
        {
          "internalType": "uint256",
          "name": "_maxInputLengthBuffer",
          "type": "uint256"
        },
        {
          "internalType": "uint256",
          "name": "_maxUnsignedRlpEncodedLength",
          "type": "uint256"
        },
        {
          "internalType": "address",
          "name": "_defaultAdmin",
          "type": "address"
        },
        {
          "internalType": "address",
          "name": "_addressFilter",
          "type": "address"
        },
        {
          "internalType": "uint256",
          "name": "_l2BlockDurationSeconds",
          "type": "uint256"
        },
        {
          "internalType": "uint256",
          "name": "_blockNumberDeadlineBuffer",
          "type": "uint256"
        }
      ],
      "stateMutability": "nonpayable",
      "type": "constructor"
    },
    {
      "inputs": [
        {
          "internalType": "bool",
          "name": "requestedExistingStatus",
          "type": "bool"
        }
      ],
      "name": "AddressFilterAlreadySet",
      "type": "error"
    },
    {
      "inputs": [],
      "name": "AddressIsFiltered",
      "type": "error"
    },
    {
      "inputs": [],
      "name": "CalldataInputLengthLimitExceeded",
      "type": "error"
    },
    {
      "inputs": [
        {
          "internalType": "bytes32",
          "name": "expected",
          "type": "bytes32"
        },
        {
          "internalType": "bytes32",
          "name": "value",
          "type": "bytes32"
        }
      ],
      "name": "FinalizationStateIncorrect",
      "type": "error"
    },
    {
      "inputs": [
        {
          "internalType": "uint256",
          "name": "blockNumber",
          "type": "uint256"
        }
      ],
      "name": "ForcedTransactionAlreadySubmittedInBlock",
      "type": "error"
    },
    {
      "inputs": [
        {
          "internalType": "uint256",
          "name": "expected",
          "type": "uint256"
        },
        {
          "internalType": "uint256",
          "name": "value",
          "type": "uint256"
        }
      ],
      "name": "ForcedTransactionFeeNotMet",
      "type": "error"
    },
    {
      "inputs": [
        {
          "internalType": "uint256",
          "name": "maxFeePerGas",
          "type": "uint256"
        },
        {
          "internalType": "uint256",
          "name": "maxPriorityFeePerGas",
          "type": "uint256"
        }
      ],
      "name": "GasFeeParametersContainZero",
      "type": "error"
    },
    {
      "inputs": [],
      "name": "GasLimitTooLow",
      "type": "error"
    },
    {
      "inputs": [],
      "name": "MaxGasLimitExceeded",
      "type": "error"
    },
    {
      "inputs": [
        {
          "internalType": "uint256",
          "name": "maxFeePerGas",
          "type": "uint256"
        },
        {
          "internalType": "uint256",
          "name": "maxPriorityFeePerGas",
          "type": "uint256"
        }
      ],
      "name": "MaxPriorityFeePerGasHigherThanMaxFee",
      "type": "error"
    },
    {
      "inputs": [],
      "name": "UnsignedTxRlpLengthExceeded",
      "type": "error"
    },
    {
      "inputs": [
        {
          "internalType": "uint256",
          "name": "yParity",
          "type": "uint256"
        }
      ],
      "name": "YParityGreaterThanOne",
      "type": "error"
    },
    {
      "inputs": [],
      "name": "ZeroAddressNotAllowed",
      "type": "error"
    },
    {
      "inputs": [],
      "name": "ZeroValueNotAllowed",
      "type": "error"
    },
    {
      "anonymous": false,
      "inputs": [
        {
          "indexed": false,
          "internalType": "bool",
          "name": "useAddressFilter",
          "type": "bool"
        }
      ],
      "name": "AddressFilterSet",
      "type": "event"
    },
    {
      "anonymous": false,
      "inputs": [
        {
          "indexed": true,
          "internalType": "bytes32",
          "name": "role",
          "type": "bytes32"
        },
        {
          "indexed": true,
          "internalType": "bytes32",
          "name": "previousAdminRole",
          "type": "bytes32"
        },
        {
          "indexed": true,
          "internalType": "bytes32",
          "name": "newAdminRole",
          "type": "bytes32"
        }
      ],
      "name": "RoleAdminChanged",
      "type": "event"
    },
    {
      "anonymous": false,
      "inputs": [
        {
          "indexed": true,
          "internalType": "bytes32",
          "name": "role",
          "type": "bytes32"
        },
        {
          "indexed": true,
          "internalType": "address",
          "name": "account",
          "type": "address"
        },
        {
          "indexed": true,
          "internalType": "address",
          "name": "sender",
          "type": "address"
        }
      ],
      "name": "RoleGranted",
      "type": "event"
    },
    {
      "anonymous": false,
      "inputs": [
        {
          "indexed": true,
          "internalType": "bytes32",
          "name": "role",
          "type": "bytes32"
        },
        {
          "indexed": true,
          "internalType": "address",
          "name": "account",
          "type": "address"
        },
        {
          "indexed": true,
          "internalType": "address",
          "name": "sender",
          "type": "address"
        }
      ],
      "name": "RoleRevoked",
      "type": "event"
    },
    {
      "inputs": [],
      "name": "ADDRESS_FILTER",
      "outputs": [
        {
          "internalType": "contract IAddressFilter",
          "name": "",
          "type": "address"
        }
      ],
      "stateMutability": "view",
      "type": "function"
    },
    {
      "inputs": [],
      "name": "BLOCK_NUMBER_DEADLINE_BUFFER",
      "outputs": [
        {
          "internalType": "uint256",
          "name": "",
          "type": "uint256"
        }
      ],
      "stateMutability": "view",
      "type": "function"
    },
    {
      "inputs": [],
      "name": "DEFAULT_ADMIN_ROLE",
      "outputs": [
        {
          "internalType": "bytes32",
          "name": "",
          "type": "bytes32"
        }
      ],
      "stateMutability": "view",
      "type": "function"
    },
    {
      "inputs": [],
      "name": "DESTINATION_CHAIN_ID",
      "outputs": [
        {
          "internalType": "uint256",
          "name": "",
          "type": "uint256"
        }
      ],
      "stateMutability": "view",
      "type": "function"
    },
    {
      "inputs": [],
      "name": "L2_BLOCK_BUFFER",
      "outputs": [
        {
          "internalType": "uint256",
          "name": "",
          "type": "uint256"
        }
      ],
      "stateMutability": "view",
      "type": "function"
    },
    {
      "inputs": [],
      "name": "L2_BLOCK_DURATION_SECONDS",
      "outputs": [
        {
          "internalType": "uint256",
          "name": "",
          "type": "uint256"
        }
      ],
      "stateMutability": "view",
      "type": "function"
    },
    {
      "inputs": [],
      "name": "LINEA_ROLLUP",
      "outputs": [
        {
          "internalType": "contract IAcceptForcedTransactions",
          "name": "",
          "type": "address"
        }
      ],
      "stateMutability": "view",
      "type": "function"
    },
    {
      "inputs": [],
      "name": "MAX_GAS_LIMIT",
      "outputs": [
        {
          "internalType": "uint256",
          "name": "",
          "type": "uint256"
        }
      ],
      "stateMutability": "view",
      "type": "function"
    },
    {
      "inputs": [],
      "name": "MAX_INPUT_LENGTH_LIMIT",
      "outputs": [
        {
          "internalType": "uint256",
          "name": "",
          "type": "uint256"
        }
      ],
      "stateMutability": "view",
      "type": "function"
    },
    {
      "inputs": [],
      "name": "MAX_UNSIGNED_RLP_ENCODED_LENGTH",
      "outputs": [
        {
          "internalType": "uint256",
          "name": "",
          "type": "uint256"
        }
      ],
      "stateMutability": "view",
      "type": "function"
    },
    {
      "inputs": [
        {
          "internalType": "bytes32",
          "name": "role",
          "type": "bytes32"
        }
      ],
      "name": "getRoleAdmin",
      "outputs": [
        {
          "internalType": "bytes32",
          "name": "",
          "type": "bytes32"
        }
      ],
      "stateMutability": "view",
      "type": "function"
    },
    {
      "inputs": [
        {
          "internalType": "bytes32",
          "name": "role",
          "type": "bytes32"
        },
        {
          "internalType": "address",
          "name": "account",
          "type": "address"
        }
      ],
      "name": "grantRole",
      "outputs": [],
      "stateMutability": "nonpayable",
      "type": "function"
    },
    {
      "inputs": [
        {
          "internalType": "bytes32",
          "name": "role",
          "type": "bytes32"
        },
        {
          "internalType": "address",
          "name": "account",
          "type": "address"
        }
      ],
      "name": "hasRole",
      "outputs": [
        {
          "internalType": "bool",
          "name": "",
          "type": "bool"
        }
      ],
      "stateMutability": "view",
      "type": "function"
    },
    {
      "inputs": [],
      "name": "lastSubmissionBlock",
      "outputs": [
        {
          "internalType": "uint256",
          "name": "",
          "type": "uint256"
        }
      ],
      "stateMutability": "view",
      "type": "function"
    },
    {
      "inputs": [
        {
          "internalType": "bytes32",
          "name": "role",
          "type": "bytes32"
        },
        {
          "internalType": "address",
          "name": "account",
          "type": "address"
        }
      ],
      "name": "renounceRole",
      "outputs": [],
      "stateMutability": "nonpayable",
      "type": "function"
    },
    {
      "inputs": [
        {
          "internalType": "bytes32",
          "name": "role",
          "type": "bytes32"
        },
        {
          "internalType": "address",
          "name": "account",
          "type": "address"
        }
      ],
      "name": "revokeRole",
      "outputs": [],
      "stateMutability": "nonpayable",
      "type": "function"
    },
    {
      "inputs": [
        {
          "components": [
            {
              "internalType": "uint256",
              "name": "nonce",
              "type": "uint256"
            },
            {
              "internalType": "uint256",
              "name": "maxPriorityFeePerGas",
              "type": "uint256"
            },
            {
              "internalType": "uint256",
              "name": "maxFeePerGas",
              "type": "uint256"
            },
            {
              "internalType": "uint256",
              "name": "gasLimit",
              "type": "uint256"
            },
            {
              "internalType": "address",
              "name": "to",
              "type": "address"
            },
            {
              "internalType": "uint256",
              "name": "value",
              "type": "uint256"
            },
            {
              "internalType": "bytes",
              "name": "input",
              "type": "bytes"
            },
            {
              "components": [
                {
                  "internalType": "address",
                  "name": "contractAddress",
                  "type": "address"
                },
                {
                  "internalType": "bytes32[]",
                  "name": "storageKeys",
                  "type": "bytes32[]"
                }
              ],
              "internalType": "struct IForcedTransactionGateway.AccessList[]",
              "name": "accessList",
              "type": "tuple[]"
            },
            {
              "internalType": "uint8",
              "name": "yParity",
              "type": "uint8"
            },
            {
              "internalType": "uint256",
              "name": "r",
              "type": "uint256"
            },
            {
              "internalType": "uint256",
              "name": "s",
              "type": "uint256"
            }
          ],
          "internalType": "struct IForcedTransactionGateway.Eip1559Transaction",
          "name": "_forcedTransaction",
          "type": "tuple"
        },
        {
          "components": [
            {
              "internalType": "uint256",
              "name": "timestamp",
              "type": "uint256"
            },
            {
              "internalType": "uint256",
              "name": "messageNumber",
              "type": "uint256"
            },
            {
              "internalType": "bytes32",
              "name": "messageRollingHash",
              "type": "bytes32"
            },
            {
              "internalType": "uint256",
              "name": "forcedTransactionNumber",
              "type": "uint256"
            },
            {
              "internalType": "bytes32",
              "name": "forcedTransactionRollingHash",
              "type": "bytes32"
            }
          ],
          "internalType": "struct IForcedTransactionGateway.LastFinalizedState",
          "name": "_lastFinalizedState",
          "type": "tuple"
        }
      ],
      "name": "submitForcedTransaction",
      "outputs": [],
      "stateMutability": "payable",
      "type": "function"
    },
    {
      "inputs": [
        {
          "internalType": "bytes4",
          "name": "interfaceId",
          "type": "bytes4"
        }
      ],
      "name": "supportsInterface",
      "outputs": [
        {
          "internalType": "bool",
          "name": "",
          "type": "bool"
        }
      ],
      "stateMutability": "view",
      "type": "function"
    },
    {
      "inputs": [
        {
          "internalType": "bool",
          "name": "_useAddressFilter",
          "type": "bool"
        }
      ],
      "name": "toggleUseAddressFilter",
      "outputs": [],
      "stateMutability": "nonpayable",
      "type": "function"
    },
    {
      "inputs": [],
      "name": "useAddressFilter",
      "outputs": [
        {
          "internalType": "bool",
          "name": "",
          "type": "bool"
        }
      ],
      "stateMutability": "view",
      "type": "function"
    }
  ],
  "bytecode": "0x6101a06040526001805460ff19168117905534801561001c575f5ffd5b5060405161288a38038061288a83398101604081905261003b9161029c565b6001600160a01b038a16610062576040516342bcdf7f60e11b815260040160405180910390fd5b885f036100825760405163273e150360e21b815260040160405180910390fd5b875f036100a25760405163273e150360e21b815260040160405180910390fd5b865f036100c25760405163273e150360e21b815260040160405180910390fd5b855f036100e25760405163273e150360e21b815260040160405180910390fd5b845f036101025760405163273e150360e21b815260040160405180910390fd5b6001600160a01b038416610129576040516342bcdf7f60e11b815260040160405180910390fd5b6001600160a01b038316610150576040516342bcdf7f60e11b815260040160405180910390fd5b815f036101705760405163273e150360e21b815260040160405180910390fd5b805f036101905760405163273e150360e21b815260040160405180910390fd5b6001600160a01b03808b1660805260a08a905260c089905261010088905261012087905261014086905283166101805260e08290526101608190526101d55f856101e4565b5050505050505050505061033d565b5f828152602081815260408083206001600160a01b038516845290915290205460ff1661027d575f828152602081815260408083206001600160a01b03851684529091529020805460ff1916600117905561023c3390565b6001600160a01b0316816001600160a01b0316837f2f8788117e7eff1d82e926ec794901d17c78024a50270940304540a733656f0d60405160405180910390a45b5050565b80516001600160a01b0381168114610297575f5ffd5b919050565b5f5f5f5f5f5f5f5f5f5f6101408b8d0312156102b6575f5ffd5b6102bf8b610281565b99505f60208c01519050809950505f60408c01519050809850505f60608c01519050809750505f60808c01519050809650505f60a08c015190508095505061030960c08c01610281565b935061031760e08c01610281565b6101008c0151610120909c01519a9d999c50979a96999598949793969395939492505050565b60805160a05160c05160e051610100516101205161014051610160516101805161249b6103ef5f395f81816101e101528181610cd70152610df801525f818161016c0152610f0201525f81816103bc0152610bff01525f818161030801526107ae01525f8181610487015261075001525f81816104020152610ebe01525f81816104ba0152610e9d01525f818161027c0152610ae501525f8181610454015281816109500152610f7e015261249b5ff3fe608060405260043610610157575f3560e01c8063685d7ebe116100bb578063c0d0620211610071578063e24415c511610057578063e24415c514610443578063e3f5aa5114610476578063fed8e66c146104a9575f5ffd5b8063c0d06202146103f1578063d547741f14610424575f5ffd5b806391d14854116100a157806391d148541461035c57806397b820fc146103ab578063a217fddf146103de575f5ffd5b8063685d7ebe1461032a5780638b98c2c814610349575f5ffd5b80632ea023691161011057806336568abe116100f657806336568abe146102bf57806344b6a0a3146102de5780634dfbcee6146102f7575f5ffd5b80632ea023691461026b5780632f2ff15d1461029e575f5ffd5b80630c6d7d8f116101405780630c6d7d8f146101d05780631f49835514610228578063248a9ca31461023d575f5ffd5b80630190b3321461015b57806301ffc9a7146101a1575b5f5ffd5b348015610166575f5ffd5b5061018e7f000000000000000000000000000000000000000000000000000000000000000081565b6040519081526020015b60405180910390f35b3480156101ac575f5ffd5b506101c06101bb366004611cea565b6104dc565b6040519015158152602001610198565b3480156101db575f5ffd5b506102037f000000000000000000000000000000000000000000000000000000000000000081565b60405173ffffffffffffffffffffffffffffffffffffffff9091168152602001610198565b348015610233575f5ffd5b5061018e60025481565b348015610248575f5ffd5b5061018e610257366004611d29565b5f9081526020819052604090206001015490565b348015610276575f5ffd5b5061018e7f000000000000000000000000000000000000000000000000000000000000000081565b3480156102a9575f5ffd5b506102bd6102b8366004611d68565b610574565b005b3480156102ca575f5ffd5b506102bd6102d9366004611d68565b61059d565b3480156102e9575f5ffd5b506001546101c09060ff1681565b348015610302575f5ffd5b5061018e7f000000000000000000000000000000000000000000000000000000000000000081565b348015610335575f5ffd5b506102bd610344366004611d9f565b610655565b6102bd6103573660046120a0565b61070e565b348015610367575f5ffd5b506101c0610376366004611d68565b5f9182526020828152604080842073ffffffffffffffffffffffffffffffffffffffff93909316845291905290205460ff1690565b3480156103b6575f5ffd5b5061018e7f000000000000000000000000000000000000000000000000000000000000000081565b3480156103e9575f5ffd5b5061018e5f81565b3480156103fc575f5ffd5b5061018e7f000000000000000000000000000000000000000000000000000000000000000081565b34801561042f575f5ffd5b506102bd61043e366004611d68565b611115565b34801561044e575f5ffd5b506102037f000000000000000000000000000000000000000000000000000000000000000081565b348015610481575f5ffd5b5061018e7f000000000000000000000000000000000000000000000000000000000000000081565b3480156104b4575f5ffd5b5061018e7f000000000000000000000000000000000000000000000000000000000000000081565b5f7fffffffff0000000000000000000000000000000000000000000000000000000082167f7965db0b00000000000000000000000000000000000000000000000000000000148061056e57507f01ffc9a7000000000000000000000000000000000000000000000000000000007fffffffff000000000000000000000000000000000000000000000000000000008316145b92915050565b5f8281526020819052604090206001015461058e81611139565b6105988383611146565b505050565b73ffffffffffffffffffffffffffffffffffffffff81163314610647576040517f08c379a000000000000000000000000000000000000000000000000000000000815260206004820152602f60248201527f416363657373436f6e74726f6c3a2063616e206f6e6c792072656e6f756e636560448201527f20726f6c657320666f722073656c66000000000000000000000000000000000060648201526084015b60405180910390fd5b6106518282611234565b5050565b5f61065f81611139565b600154829060ff161515811515036106a7576040517ffe561810000000000000000000000000000000000000000000000000000000008152901515600482015260240161063e565b50600180547fffffffffffffffffffffffffffffffffffffffffffffffffffffffffffffff00168315159081179091556040519081527fa5cbbee363699ddd9598ef194472e0fdd3e27e8ee0ca91e51cbe3a3b2e1a58639060200160405180910390a15050565b6152088260600151101561074e576040517fed43c3a600000000000000000000000000000000000000000000000000000000815260040160405180910390fd5b7f0000000000000000000000000000000000000000000000000000000000000000826060015111156107ac576040517f9376b93b00000000000000000000000000000000000000000000000000000000815260040160405180910390fd5b7f00000000000000000000000000000000000000000000000000000000000000008260c0015151111561080b576040517f58c9825b00000000000000000000000000000000000000000000000000000000815260040160405180910390fd5b5f826020015111801561082157505f8260400151115b82604001518360200151909161086c576040517fad15a7b00000000000000000000000000000000000000000000000000000000081526004810192909252602482015260440161063e565b505060408201516020830151818111156108bb576040517fe4da61af0000000000000000000000000000000000000000000000000000000081526004810192909252602482015260440161063e565b5050610100820151600160ff82161115610907576040517fd92cff8800000000000000000000000000000000000000000000000000000000815260ff909116600482015260240161063e565b5060025443114390610948576040517f84636b4d00000000000000000000000000000000000000000000000000000000815260040161063e91815260200190565b505f5f5f5f5f7f000000000000000000000000000000000000000000000000000000000000000073ffffffffffffffffffffffffffffffffffffffff1663ee8289206040518163ffffffff1660e01b815260040160a0604051808303815f875af11580156109b8573d5f5f3e3d5ffd5b505050506040513d601f19601f820116820180604052508101906109dc91906121af565b9450945094509450945080341481349091610a2c576040517f5cf402700000000000000000000000000000000000000000000000000000000081526004810192909252602482015260440161063e565b50506020808701516040808901516060808b01516080808d01518d518651978852978701949094529385015283015281019190915260a090208514610adf576020808701516040808901516060808b01516080808d01518d518651978852978701949094529385015283015281019190915260a0902085906040517fbc5aad110000000000000000000000000000000000000000000000000000000081526004810192909252602482015260440161063e565b5f610b097f00000000000000000000000000000000000000000000000000000000000000006112e9565b9050610b1881895f0151611307565b9050610b28818960200151611307565b9050610b38818960400151611307565b9050610b48818960600151611307565b608089015190915073ffffffffffffffffffffffffffffffffffffffff16610b8957610b828160405180602001604052805f815250611360565b9050610b9a565b610b97818960800151611397565b90505b610ba8818960a00151611307565b9050610bb8818960c00151611360565b9050610bd081610bcb8a60e001516113ce565b6114b4565b90505f610bdc826114eb565b604051602001610bec9190612202565b60405160208183030381529060405290507f000000000000000000000000000000000000000000000000000000000000000081511115610c58576040517ff52f64ec00000000000000000000000000000000000000000000000000000000815260040160405180910390fd5b805160208201206101008a01516101208b01516101408c01515f92610c84928592601b9092019161173b565b60015490915060ff1615610e9a576040517f1d51508300000000000000000000000000000000000000000000000000000000815273ffffffffffffffffffffffffffffffffffffffff82811660048301527f00000000000000000000000000000000000000000000000000000000000000001690631d51508390602401602060405180830381865afa158015610d1c573d5f5f3e3d5ffd5b505050506040513d601f19601f82011682018060405250810190610d409190612233565b15610d77576040517f6605edaf00000000000000000000000000000000000000000000000000000000815260040160405180910390fd5b8a6080015173ffffffffffffffffffffffffffffffffffffffff168173ffffffffffffffffffffffffffffffffffffffff1614610e9a5760808b01516040517f1d51508300000000000000000000000000000000000000000000000000000000815273ffffffffffffffffffffffffffffffffffffffff91821660048201527f000000000000000000000000000000000000000000000000000000000000000090911690631d51508390602401602060405180830381865afa158015610e3f573d5f5f3e3d5ffd5b505050506040513d601f19601f82011682018060405250810190610e639190612233565b15610e9a576040517f6605edaf00000000000000000000000000000000000000000000000000000000815260040160405180910390fd5b5f7f00000000000000000000000000000000000000000000000000000000000000007f00000000000000000000000000000000000000000000000000000000000000008c5f0151420381610ef057610ef061224e565b048801019050878111610f2a57610f277f0000000000000000000000000000000000000000000000000000000000000000896122a8565b90505b6101008c0151608084901c906fffffffffffffffffffffffffffffffff851690610f5890889060ff16611307565b9650610f69878f6101200151611307565b9650610f7a878f6101400151611307565b96507f000000000000000000000000000000000000000000000000000000000000000073ffffffffffffffffffffffffffffffffffffffff1663248c61263473__$21f52c64f029e7b8ff2bccb2a7d14460c1$__63aa1e84de8f87878a8c60405160200161102095949392919094855260208501939093526040840191909152606083015273ffffffffffffffffffffffffffffffffffffffff16608082015260a00190565b6040516020818303038152906040526040518263ffffffff1660e01b815260040161104b91906122e9565b602060405180830381865af4158015611066573d5f5f3e3d5ffd5b505050506040513d601f19601f8201168201806040525081019061108a91906122fb565b87876110958d6114eb565b6040516020016110a59190612202565b6040516020818303038152906040526040518663ffffffff1660e01b81526004016110d39493929190612312565b5f604051808303818588803b1580156110ea575f5ffd5b505af11580156110fc573d5f5f3e3d5ffd5b5050436002555050505050505050505050505050505050565b5f8281526020819052604090206001015461112f81611139565b6105988383611234565b6111438133611761565b50565b5f8281526020818152604080832073ffffffffffffffffffffffffffffffffffffffff8516845290915290205460ff16610651575f8281526020818152604080832073ffffffffffffffffffffffffffffffffffffffff85168452909152902080547fffffffffffffffffffffffffffffffffffffffffffffffffffffffffffffff001660011790556111d63390565b73ffffffffffffffffffffffffffffffffffffffff168173ffffffffffffffffffffffffffffffffffffffff16837f2f8788117e7eff1d82e926ec794901d17c78024a50270940304540a733656f0d60405160405180910390a45050565b5f8281526020818152604080832073ffffffffffffffffffffffffffffffffffffffff8516845290915290205460ff1615610651575f8281526020818152604080832073ffffffffffffffffffffffffffffffffffffffff8516808552925280832080547fffffffffffffffffffffffffffffffffffffffffffffffffffffffffffffff0016905551339285917ff6391f5c32d9c69d2a47ea670b442974b53935d1edc7fd64eb21e047a839171b9190a45050565b60408051602081019091525f81526113018183611307565b50919050565b6040805160208101909152603082901b8152825181811c17602881811c80841890911b90911884528051821790528160d01c1561135957604051828152602081016040528060081b60011760281b8252505b5090919050565b6040805160208101909152600882901b600217602890811b8252835182811c1780821c80841890921b188452805182179052611359565b6040805160208101909152600882901b600417602890811b8252835182811c1780821c80841890921b188452805182179052611359565b60408051602081019091525f81525f5b82518110156113015760408051602081019091525f81525f84838151811061140857611408612356565b60200260200101516020015190505f5b8151811015611465576040805160208082528183019092525f916020820181803683370190505090508160051b602001830151602082015261145a8482611360565b935050600101611418565b505f61148c86858151811061147c5761147c612356565b60200260200101515f01516117fa565b905061149881846114b4565b90506114a485826114b4565b94505050508060010190506113de565b6040805160208101909152600882901b600317602890811b8252835182811c1780821c80841890921b188452805182179052611359565b6060611716565b60018201607f821161150c5781821560071b17835361056e565b6fffffffffffffffffffffffffffffffff821160071b82811c67ffffffffffffffff1060061b1782811c63ffffffff1060051b1782811c61ffff1060041b17600381901c9083901c60ff10176081810184535f839052601f81185182520160010192915050565b605881901b8252601582016094835392915050565b80516001830190603781116115ca5782602001516080815f1a1082600114166115c257858201855360408401516021860152825201611625565b845250611625565b8060201c3d3d3e8062ffffff108161ffff10018160ff100160010160378601810160f81b855282810182810193508085602001035b8181015182526020820191508482106115ff575050818160031b60f8031b855117855250505b9392505050565b5f81516116415760c08353506001820161056e565b60208301825b5164ffffffffff1680156116d0578051601a1a6001811161168c578061167d5761167583835160301c6114f2565b925050611647565b61167583835160301c516114f2565b600281036116a457611675608084845160301c611588565b600381036116ba5761167583835160301c61162c565b506116c982825160301c611573565b9150611647565b50839003601f1901603781116117085760c081018453836020015184600101528360400151846021015283600101810191505061056e565b835261162560c08480611588565b5060405160208101611728818461162c565b90810382525f8152602001604052919050565b5f5f5f61174a87878787611812565b91509150611757816118dc565b5095945050505050565b5f8281526020818152604080832073ffffffffffffffffffffffffffffffffffffffff8516845290915290205460ff166106515761179e81611a8e565b6117a9836020611aad565b6040516020016117ba929190612383565b60408051601f19818403018152908290527f08c379a000000000000000000000000000000000000000000000000000000000825261063e916004016122e9565b60408051602081019091525f81526113018183611397565b5f807f7fffffffffffffffffffffffffffffff5d576e7357a4501ddfe92f46681b20a083111561184757505f905060036118d3565b604080515f8082526020820180845289905260ff881692820192909252606081018690526080810185905260019060a0016020604051602081039080840390855afa158015611898573d5f5f3e3d5ffd5b5050604051601f19015191505073ffffffffffffffffffffffffffffffffffffffff81166118cd575f600192509250506118d3565b91505f90505b94509492505050565b5f8160048111156118ef576118ef6123ed565b036118f75750565b600181600481111561190b5761190b6123ed565b03611972576040517f08c379a000000000000000000000000000000000000000000000000000000000815260206004820152601860248201527f45434453413a20696e76616c6964207369676e61747572650000000000000000604482015260640161063e565b6002816004811115611986576119866123ed565b036119ed576040517f08c379a000000000000000000000000000000000000000000000000000000000815260206004820152601f60248201527f45434453413a20696e76616c6964207369676e6174757265206c656e67746800604482015260640161063e565b6003816004811115611a0157611a016123ed565b03611143576040517f08c379a000000000000000000000000000000000000000000000000000000000815260206004820152602260248201527f45434453413a20696e76616c6964207369676e6174757265202773272076616c60448201527f7565000000000000000000000000000000000000000000000000000000000000606482015260840161063e565b606061056e73ffffffffffffffffffffffffffffffffffffffff831660145b60605f611abb83600261241a565b611ac69060026122a8565b67ffffffffffffffff811115611ade57611ade611dba565b6040519080825280601f01601f191660200182016040528015611b08576020820181803683370190505b5090507f3000000000000000000000000000000000000000000000000000000000000000815f81518110611b3e57611b3e612356565b60200101907effffffffffffffffffffffffffffffffffffffffffffffffffffffffffffff191690815f1a9053507f780000000000000000000000000000000000000000000000000000000000000081600181518110611ba057611ba0612356565b60200101907effffffffffffffffffffffffffffffffffffffffffffffffffffffffffffff191690815f1a9053505f611bda84600261241a565b611be59060016122a8565b90505b6001811115611c81577f303132333435363738396162636465660000000000000000000000000000000085600f1660108110611c2657611c26612356565b1a60f81b828281518110611c3c57611c3c612356565b60200101907effffffffffffffffffffffffffffffffffffffffffffffffffffffffffffff191690815f1a90535060049490941c93611c7a81612431565b9050611be8565b508315611625576040517f08c379a000000000000000000000000000000000000000000000000000000000815260206004820181905260248201527f537472696e67733a20686578206c656e67746820696e73756666696369656e74604482015260640161063e565b5f60208284031215611cfa575f5ffd5b81357fffffffff0000000000000000000000000000000000000000000000000000000081168114611625575f5ffd5b5f60208284031215611d39575f5ffd5b5035919050565b803573ffffffffffffffffffffffffffffffffffffffff81168114611d63575f5ffd5b919050565b5f5f60408385031215611d79575f5ffd5b82359150611d8960208401611d40565b90509250929050565b8015158114611143575f5ffd5b5f60208284031215611daf575f5ffd5b813561162581611d92565b7f4e487b71000000000000000000000000000000000000000000000000000000005f52604160045260245ffd5b6040805190810167ffffffffffffffff81118282101715611e0a57611e0a611dba565b60405290565b604051610160810167ffffffffffffffff81118282101715611e0a57611e0a611dba565b604051601f8201601f1916810167ffffffffffffffff81118282101715611e5d57611e5d611dba565b604052919050565b5f82601f830112611e74575f5ffd5b813567ffffffffffffffff811115611e8e57611e8e611dba565b611ea16020601f19601f84011601611e34565b818152846020838601011115611eb5575f5ffd5b816020850160208301375f918101602001919091529392505050565b5f67ffffffffffffffff821115611eea57611eea611dba565b5060051b60200190565b5f82601f830112611f03575f5ffd5b8135611f16611f1182611ed1565b611e34565b8082825260208201915060208360051b860101925085831115611f37575f5ffd5b602085015b8381101561175757803567ffffffffffffffff811115611f5a575f5ffd5b86016040818903601f19011215611f6f575f5ffd5b611f77611de7565b611f8360208301611d40565b8152604082013567ffffffffffffffff811115611f9e575f5ffd5b60208184010192505088601f830112611fb5575f5ffd5b8135611fc3611f1182611ed1565b8082825260208201915060208360051b86010192508b831115611fe4575f5ffd5b6020850194505b82851015612006578435825260209485019490910190611feb565b8060208501525050508085525050602083019250602081019050611f3c565b803560ff81168114611d63575f5ffd5b5f60a08284031215612045575f5ffd5b60405160a0810167ffffffffffffffff8111828210171561206857612068611dba565b604090815283358252602080850135908301528381013590820152606080840135908201526080928301359281019290925250919050565b5f5f60c083850312156120b1575f5ffd5b823567ffffffffffffffff8111156120c7575f5ffd5b830161016081860312156120d9575f5ffd5b6120e1611e10565b8135815260208083013590820152604080830135908201526060808301359082015261210f60808301611d40565b608082015260a0828101359082015260c082013567ffffffffffffffff811115612137575f5ffd5b61214387828501611e65565b60c08301525060e082013567ffffffffffffffff811115612162575f5ffd5b61216e87828501611ef4565b60e0830152506121816101008301612025565b610100820152610120828101359082015261014091820135918101919091529150611d898460208501612035565b5f5f5f5f5f60a086880312156121c3575f5ffd5b5050835160208501516040860151606087015160809097015192989197509594509092509050565b5f81518060208401855e5f93019283525090919050565b7f020000000000000000000000000000000000000000000000000000000000000081525f61162560018301846121eb565b5f60208284031215612243575f5ffd5b815161162581611d92565b7f4e487b71000000000000000000000000000000000000000000000000000000005f52601260045260245ffd5b7f4e487b71000000000000000000000000000000000000000000000000000000005f52601160045260245ffd5b8082018082111561056e5761056e61227b565b5f81518084528060208401602086015e5f602082860101526020601f19601f83011685010191505092915050565b602081525f61162560208301846122bb565b5f6020828403121561230b575f5ffd5b5051919050565b84815273ffffffffffffffffffffffffffffffffffffffff84166020820152826040820152608060608201525f61234c60808301846122bb565b9695505050505050565b7f4e487b71000000000000000000000000000000000000000000000000000000005f52603260045260245ffd5b7f416363657373436f6e74726f6c3a206163636f756e742000000000000000000081525f6123b460178301856121eb565b7f206973206d697373696e6720726f6c652000000000000000000000000000000081526123e460118201856121eb565b95945050505050565b7f4e487b71000000000000000000000000000000000000000000000000000000005f52602160045260245ffd5b808202811582820484141761056e5761056e61227b565b5f8161243f5761243f61227b565b507fffffffffffffffffffffffffffffffffffffffffffffffffffffffffffffffff019056fea26469706673582212201669734725e31cce92c88f76cb1787162c4b27dbc164f688032425b0f3303f5464736f6c63430008210033",
  "linkReferences": {
    "src/libraries/Mimc.sol": {
      "Mimc": [
        {
          "length": 20,
          "start": 5034
        }
      ]
    }
  },
  "deployedLinkReferences": {
    "src/libraries/Mimc.sol": {
      "Mimc": [
        {
          "length": 20,
          "start": 4027
        }
      ]
    }
  }
}