{
  "_format": "hh-sol-artifact-1",
  "contractName": "ForcedTransactionGateway",
  "sourceName": "src/rollup/forcedTransactions/ForcedTransactionGateway.sol",
  "abi": [
    {
      "inputs": [
        {
          "internalType": "address",
          "name": "_lineaRollup",
          "type": "address"
        },
        {
          "internalType": "uint256",
          "name": "_destinationChainId",
          "type": "uint256"
        },
        {
          "internalType": "uint256",
          "name": "_l2BlockBuffer",
          "type": "uint256"
        },
        {
          "internalType": "uint256",
          "name": "_maxGasLimit",
          "type": "uint256"
        },
        {
          "internalType": "uint256",
          "name": "_maxInputLengthBuffer",
          "type": "uint256"
        },
        {
          "internalType": "address",
          "name": "_defaultAdmin",
          "type": "address"
        },
        {
          "internalType": "address",
          "name": "_addressFilter",
          "type": "address"
        }
      ],
      "stateMutability": "nonpayable",
      "type": "constructor"
    },
    {
      "inputs": [
        {
          "internalType": "bool",
          "name": "requestedExistingStatus",
          "type": "bool"
        }
      ],
      "name": "AddressFilterAlreadySet",
      "type": "error"
    },
    {
      "inputs": [],
      "name": "AddressIsFiltered",
      "type": "error"
    },
    {
      "inputs": [],
      "name": "CalldataInputLengthLimitExceeded",
      "type": "error"
    },
    {
      "inputs": [
        {
          "internalType": "bytes32",
          "name": "expected",
          "type": "bytes32"
        },
        {
          "internalType": "bytes32",
          "name": "value",
          "type": "bytes32"
        }
      ],
      "name": "FinalizationStateIncorrect",
      "type": "error"
    },
    {
      "inputs": [
        {
          "internalType": "uint256",
          "name": "expected",
          "type": "uint256"
        },
        {
          "internalType": "uint256",
          "name": "value",
          "type": "uint256"
        }
      ],
      "name": "ForcedTransactionFeeNotMet",
      "type": "error"
    },
    {
      "inputs": [
        {
          "internalType": "uint256",
          "name": "maxFeePerGas",
          "type": "uint256"
        },
        {
          "internalType": "uint256",
          "name": "maxPriorityFeePerGas",
          "type": "uint256"
        }
      ],
      "name": "GasFeeParametersContainZero",
      "type": "error"
    },
    {
      "inputs": [],
      "name": "GasLimitTooLow",
      "type": "error"
    },
    {
      "inputs": [],
      "name": "MaxGasLimitExceeded",
      "type": "error"
    },
    {
      "inputs": [
        {
          "internalType": "uint256",
          "name": "maxFeePerGas",
          "type": "uint256"
        },
        {
          "internalType": "uint256",
          "name": "maxPriorityFeePerGas",
          "type": "uint256"
        }
      ],
      "name": "MaxPriorityFeePerGasHigherThanMaxFee",
      "type": "error"
    },
    {
      "inputs": [],
      "name": "SignerAddressZero",
      "type": "error"
    },
    {
      "inputs": [
        {
          "internalType": "uint256",
          "name": "yParity",
          "type": "uint256"
        }
      ],
      "name": "YParityGreaterThanOne",
      "type": "error"
    },
    {
      "inputs": [],
      "name": "ZeroAddressNotAllowed",
      "type": "error"
    },
    {
      "inputs": [],
      "name": "ZeroValueNotAllowed",
      "type": "error"
    },
    {
      "anonymous": false,
      "inputs": [
        {
          "indexed": false,
          "internalType": "bool",
          "name": "useAddressFilter",
          "type": "bool"
        }
      ],
      "name": "AddressFilterSet",
      "type": "event"
    },
    {
      "anonymous": false,
      "inputs": [
        {
          "indexed": true,
          "internalType": "bytes32",
          "name": "role",
          "type": "bytes32"
        },
        {
          "indexed": true,
          "internalType": "bytes32",
          "name": "previousAdminRole",
          "type": "bytes32"
        },
        {
          "indexed": true,
          "internalType": "bytes32",
          "name": "newAdminRole",
          "type": "bytes32"
        }
      ],
      "name": "RoleAdminChanged",
      "type": "event"
    },
    {
      "anonymous": false,
      "inputs": [
        {
          "indexed": true,
          "internalType": "bytes32",
          "name": "role",
          "type": "bytes32"
        },
        {
          "indexed": true,
          "internalType": "address",
          "name": "account",
          "type": "address"
        },
        {
          "indexed": true,
          "internalType": "address",
          "name": "sender",
          "type": "address"
        }
      ],
      "name": "RoleGranted",
      "type": "event"
    },
    {
      "anonymous": false,
      "inputs": [
        {
          "indexed": true,
          "internalType": "bytes32",
          "name": "role",
          "type": "bytes32"
        },
        {
          "indexed": true,
          "internalType": "address",
          "name": "account",
          "type": "address"
        },
        {
          "indexed": true,
          "internalType": "address",
          "name": "sender",
          "type": "address"
        }
      ],
      "name": "RoleRevoked",
      "type": "event"
    },
    {
      "inputs": [],
      "name": "ADDRESS_FILTER",
      "outputs": [
        {
          "internalType": "contract IAddressFilter",
          "name": "",
          "type": "address"
        }
      ],
      "stateMutability": "view",
      "type": "function"
    },
    {
      "inputs": [],
      "name": "DEFAULT_ADMIN_ROLE",
      "outputs": [
        {
          "internalType": "bytes32",
          "name": "",
          "type": "bytes32"
        }
      ],
      "stateMutability": "view",
      "type": "function"
    },
    {
      "inputs": [],
      "name": "DESTINATION_CHAIN_ID",
      "outputs": [
        {
          "internalType": "uint256",
          "name": "",
          "type": "uint256"
        }
      ],
      "stateMutability": "view",
      "type": "function"
    },
    {
      "inputs": [],
      "name": "L2_BLOCK_BUFFER",
      "outputs": [
        {
          "internalType": "uint256",
          "name": "",
          "type": "uint256"
        }
      ],
      "stateMutability": "view",
      "type": "function"
    },
    {
      "inputs": [],
      "name": "LINEA_ROLLUP",
      "outputs": [
        {
          "internalType": "contract IAcceptForcedTransactions",
          "name": "",
          "type": "address"
        }
      ],
      "stateMutability": "view",
      "type": "function"
    },
    {
      "inputs": [],
      "name": "MAX_GAS_LIMIT",
      "outputs": [
        {
          "internalType": "uint256",
          "name": "",
          "type": "uint256"
        }
      ],
      "stateMutability": "view",
      "type": "function"
    },
    {
      "inputs": [],
      "name": "MAX_INPUT_LENGTH_LIMIT",
      "outputs": [
        {
          "internalType": "uint256",
          "name": "",
          "type": "uint256"
        }
      ],
      "stateMutability": "view",
      "type": "function"
    },
    {
      "inputs": [
        {
          "internalType": "bytes32",
          "name": "role",
          "type": "bytes32"
        }
      ],
      "name": "getRoleAdmin",
      "outputs": [
        {
          "internalType": "bytes32",
          "name": "",
          "type": "bytes32"
        }
      ],
      "stateMutability": "view",
      "type": "function"
    },
    {
      "inputs": [
        {
          "internalType": "bytes32",
          "name": "role",
          "type": "bytes32"
        },
        {
          "internalType": "address",
          "name": "account",
          "type": "address"
        }
      ],
      "name": "grantRole",
      "outputs": [],
      "stateMutability": "nonpayable",
      "type": "function"
    },
    {
      "inputs": [
        {
          "internalType": "bytes32",
          "name": "role",
          "type": "bytes32"
        },
        {
          "internalType": "address",
          "name": "account",
          "type": "address"
        }
      ],
      "name": "hasRole",
      "outputs": [
        {
          "internalType": "bool",
          "name": "",
          "type": "bool"
        }
      ],
      "stateMutability": "view",
      "type": "function"
    },
    {
      "inputs": [
        {
          "internalType": "bytes32",
          "name": "role",
          "type": "bytes32"
        },
        {
          "internalType": "address",
          "name": "account",
          "type": "address"
        }
      ],
      "name": "renounceRole",
      "outputs": [],
      "stateMutability": "nonpayable",
      "type": "function"
    },
    {
      "inputs": [
        {
          "internalType": "bytes32",
          "name": "role",
          "type": "bytes32"
        },
        {
          "internalType": "address",
          "name": "account",
          "type": "address"
        }
      ],
      "name": "revokeRole",
      "outputs": [],
      "stateMutability": "nonpayable",
      "type": "function"
    },
    {
      "inputs": [
        {
          "components": [
            {
              "internalType": "uint256",
              "name": "nonce",
              "type": "uint256"
            },
            {
              "internalType": "uint256",
              "name": "maxPriorityFeePerGas",
              "type": "uint256"
            },
            {
              "internalType": "uint256",
              "name": "maxFeePerGas",
              "type": "uint256"
            },
            {
              "internalType": "uint256",
              "name": "gasLimit",
              "type": "uint256"
            },
            {
              "internalType": "address",
              "name": "to",
              "type": "address"
            },
            {
              "internalType": "uint256",
              "name": "value",
              "type": "uint256"
            },
            {
              "internalType": "bytes",
              "name": "input",
              "type": "bytes"
            },
            {
              "components": [
                {
                  "internalType": "address",
                  "name": "contractAddress",
                  "type": "address"
                },
                {
                  "internalType": "bytes32[]",
                  "name": "storageKeys",
                  "type": "bytes32[]"
                }
              ],
              "internalType": "struct IForcedTransactionGateway.AccessList[]",
              "name": "accessList",
              "type": "tuple[]"
            },
            {
              "internalType": "uint8",
              "name": "yParity",
              "type": "uint8"
            },
            {
              "internalType": "uint256",
              "name": "r",
              "type": "uint256"
            },
            {
              "internalType": "uint256",
              "name": "s",
              "type": "uint256"
            }
          ],
          "internalType": "struct IForcedTransactionGateway.Eip1559Transaction",
          "name": "_forcedTransaction",
          "type": "tuple"
        },
        {
          "components": [
            {
              "internalType": "uint256",
              "name": "timestamp",
              "type": "uint256"
            },
            {
              "internalType": "uint256",
              "name": "messageNumber",
              "type": "uint256"
            },
            {
              "internalType": "bytes32",
              "name": "messageRollingHash",
              "type": "bytes32"
            },
            {
              "internalType": "uint256",
              "name": "forcedTransactionNumber",
              "type": "uint256"
            },
            {
              "internalType": "bytes32",
              "name": "forcedTransactionRollingHash",
              "type": "bytes32"
            }
          ],
          "internalType": "struct IForcedTransactionGateway.LastFinalizedState",
          "name": "_lastFinalizedState",
          "type": "tuple"
        }
      ],
      "name": "submitForcedTransaction",
      "outputs": [],
      "stateMutability": "payable",
      "type": "function"
    },
    {
      "inputs": [
        {
          "internalType": "bytes4",
          "name": "interfaceId",
          "type": "bytes4"
        }
      ],
      "name": "supportsInterface",
      "outputs": [
        {
          "internalType": "bool",
          "name": "",
          "type": "bool"
        }
      ],
      "stateMutability": "view",
      "type": "function"
    },
    {
      "inputs": [
        {
          "internalType": "bool",
          "name": "_useAddressFilter",
          "type": "bool"
        }
      ],
      "name": "toggleUseAddressFilter",
      "outputs": [],
      "stateMutability": "nonpayable",
      "type": "function"
    },
    {
      "inputs": [],
      "name": "useAddressFilter",
      "outputs": [
        {
          "internalType": "bool",
          "name": "",
          "type": "bool"
        }
      ],
      "stateMutability": "view",
      "type": "function"
    }
  ],
  "bytecode": "0x6101406040526001805460ff19168117905534801561001c575f5ffd5b5060405161231d38038061231d83398101604081905261003b91610227565b6001600160a01b038716610062576040516342bcdf7f60e11b815260040160405180910390fd5b855f036100825760405163273e150360e21b815260040160405180910390fd5b845f036100a25760405163273e150360e21b815260040160405180910390fd5b835f036100c25760405163273e150360e21b815260040160405180910390fd5b825f036100e25760405163273e150360e21b815260040160405180910390fd5b6001600160a01b038216610109576040516342bcdf7f60e11b815260040160405180910390fd5b6001600160a01b038116610130576040516342bcdf7f60e11b815260040160405180910390fd5b6001600160a01b0380881660805260a087905260c086905260e08590526101008490528116610120526101635f8361016f565b5050505050505061028e565b5f828152602081815260408083206001600160a01b038516845290915290205460ff16610208575f828152602081815260408083206001600160a01b03851684529091529020805460ff191660011790556101c73390565b6001600160a01b0316816001600160a01b0316837f2f8788117e7eff1d82e926ec794901d17c78024a50270940304540a733656f0d60405160405180910390a45b5050565b80516001600160a01b0381168114610222575f5ffd5b919050565b5f5f5f5f5f5f5f60e0888a03121561023d575f5ffd5b6102468861020c565b602089015160408a015160608b015160808c0151939a5091985096509450925061027260a0890161020c565b915061028060c0890161020c565b905092959891949750929550565b60805160a05160c05160e051610100516101205161201061030d5f395f818161013801528181610be10152610ccb01525f8181610258015261069801525f8181610371015261063a01525f81816103a40152610d7e01525f81816101cc01526109b201525f818161033e015281816107f80152610ded01526120105ff3fe6080604052600436106100ef575f3560e01c8063685d7ebe11610087578063d547741f11610057578063d547741f1461030e578063e24415c51461032d578063e3f5aa5114610360578063fed8e66c14610393575f5ffd5b8063685d7ebe1461027a5780638b98c2c81461029957806391d14854146102ac578063a217fddf146102fb575f5ffd5b80632f2ff15d116100c25780632f2ff15d146101ee57806336568abe1461020f57806344b6a0a31461022e5780634dfbcee614610247575f5ffd5b806301ffc9a7146100f35780630c6d7d8f14610127578063248a9ca31461017f5780632ea02369146101bb575b5f5ffd5b3480156100fe575f5ffd5b5061011261010d3660046118b8565b6103c6565b60405190151581526020015b60405180910390f35b348015610132575f5ffd5b5061015a7f000000000000000000000000000000000000000000000000000000000000000081565b60405173ffffffffffffffffffffffffffffffffffffffff909116815260200161011e565b34801561018a575f5ffd5b506101ad6101993660046118f7565b5f9081526020819052604090206001015490565b60405190815260200161011e565b3480156101c6575f5ffd5b506101ad7f000000000000000000000000000000000000000000000000000000000000000081565b3480156101f9575f5ffd5b5061020d610208366004611936565b61045e565b005b34801561021a575f5ffd5b5061020d610229366004611936565b610487565b348015610239575f5ffd5b506001546101129060ff1681565b348015610252575f5ffd5b506101ad7f000000000000000000000000000000000000000000000000000000000000000081565b348015610285575f5ffd5b5061020d61029436600461196d565b61053f565b61020d6102a7366004611c78565b6105f8565b3480156102b7575f5ffd5b506101126102c6366004611936565b5f9182526020828152604080842073ffffffffffffffffffffffffffffffffffffffff93909316845291905290205460ff1690565b348015610306575f5ffd5b506101ad5f81565b348015610319575f5ffd5b5061020d610328366004611936565b610f7f565b348015610338575f5ffd5b5061015a7f000000000000000000000000000000000000000000000000000000000000000081565b34801561036b575f5ffd5b506101ad7f000000000000000000000000000000000000000000000000000000000000000081565b34801561039e575f5ffd5b506101ad7f000000000000000000000000000000000000000000000000000000000000000081565b5f7fffffffff0000000000000000000000000000000000000000000000000000000082167f7965db0b00000000000000000000000000000000000000000000000000000000148061045857507f01ffc9a7000000000000000000000000000000000000000000000000000000007fffffffff000000000000000000000000000000000000000000000000000000008316145b92915050565b5f8281526020819052604090206001015461047881610fa3565b6104828383610fb0565b505050565b73ffffffffffffffffffffffffffffffffffffffff81163314610531576040517f08c379a000000000000000000000000000000000000000000000000000000000815260206004820152602f60248201527f416363657373436f6e74726f6c3a2063616e206f6e6c792072656e6f756e636560448201527f20726f6c657320666f722073656c66000000000000000000000000000000000060648201526084015b60405180910390fd5b61053b828261109e565b5050565b5f61054981610fa3565b600154829060ff16151581151503610591576040517ffe5618100000000000000000000000000000000000000000000000000000000081529015156004820152602401610528565b50600180547fffffffffffffffffffffffffffffffffffffffffffffffffffffffffffffff00168315159081179091556040519081527fa5cbbee363699ddd9598ef194472e0fdd3e27e8ee0ca91e51cbe3a3b2e1a58639060200160405180910390a15050565b61520882606001511015610638576040517fed43c3a600000000000000000000000000000000000000000000000000000000815260040160405180910390fd5b7f000000000000000000000000000000000000000000000000000000000000000082606001511115610696576040517f9376b93b00000000000000000000000000000000000000000000000000000000815260040160405180910390fd5b7f00000000000000000000000000000000000000000000000000000000000000008260c001515111156106f5576040517f58c9825b00000000000000000000000000000000000000000000000000000000815260040160405180910390fd5b5f826020015111801561070b57505f8260400151115b826040015183602001519091610756576040517fad15a7b000000000000000000000000000000000000000000000000000000000815260048101929092526024820152604401610528565b505060408201516020830151818111156107a5576040517fe4da61af00000000000000000000000000000000000000000000000000000000815260048101929092526024820152604401610528565b5050610100820151600160ff821611156107f1576040517fd92cff8800000000000000000000000000000000000000000000000000000000815260ff9091166004820152602401610528565b505f5f5f5f7f000000000000000000000000000000000000000000000000000000000000000073ffffffffffffffffffffffffffffffffffffffff1663ee8289206040518163ffffffff1660e01b81526004016080604051808303815f875af1158015610860573d5f5f3e3d5ffd5b505050506040513d601f19601f820116820180604052508101906108849190611d87565b9350935093509350803414813490916108d2576040517f5cf4027000000000000000000000000000000000000000000000000000000000815260048101929092526024820152604401610528565b50506020808601516040808801516060808a01516080808c01518c518651978852978701949094529385015283015281019190915260a090208414610985576020808601516040808801516060808a01516080808c01518c518651978852978701949094529385015283015281019190915260a0902084906040517fbc5aad1100000000000000000000000000000000000000000000000000000000815260048101929092526024820152604401610528565b5f6109938760e00151611153565b90505f6109aa60408051602081019091525f815290565b90506109d6817f0000000000000000000000000000000000000000000000000000000000000000611275565b90506109e581895f0151611275565b90506109f5818960200151611275565b9050610a05818960400151611275565b9050610a15818960600151611275565b608089015190915073ffffffffffffffffffffffffffffffffffffffff16610a5657610a4f8160405180602001604052805f8152506112ce565b9050610a67565b610a64818960800151611305565b90505b610a75818960a00151611275565b9050610a85818960c001516112ce565b9050610a91818361133c565b90505f610a9d82611373565b604051602001610aad9190611dd1565b6040516020818303038152906040528051906020012090505f6001828b6101000151601b018c61012001515f1b8d61014001515f1b6040515f8152602001604052604051610b17949392919093845260ff9290921660208401526040830152606082015260800190565b6020604051602081039080840390855afa158015610b37573d5f5f3e3d5ffd5b5050604051601f19015191505073ffffffffffffffffffffffffffffffffffffffff8116610b91576040517f2b561add00000000000000000000000000000000000000000000000000000000815260040160405180910390fd5b60015460ff1615610d6d576040517f1d51508300000000000000000000000000000000000000000000000000000000815273ffffffffffffffffffffffffffffffffffffffff82811660048301527f00000000000000000000000000000000000000000000000000000000000000001690631d51508390602401602060405180830381865afa158015610c26573d5f5f3e3d5ffd5b505050506040513d601f19601f82011682018060405250810190610c4a9190611e02565b15610c81576040517f6605edaf00000000000000000000000000000000000000000000000000000000815260040160405180910390fd5b60808a01516040517f1d51508300000000000000000000000000000000000000000000000000000000815273ffffffffffffffffffffffffffffffffffffffff91821660048201527f000000000000000000000000000000000000000000000000000000000000000090911690631d51508390602401602060405180830381865afa158015610d12573d5f5f3e3d5ffd5b505050506040513d601f19601f82011682018060405250810190610d369190611e02565b15610d6d576040517f6605edaf00000000000000000000000000000000000000000000000000000000815260040160405180910390fd5b88516101008b0151428801919091037f00000000000000000000000000000000000000000000000000000000000000000190608084901c906fffffffffffffffffffffffffffffffff851690610dc790879060ff16611275565b9550610dd8868e6101200151611275565b9550610de9868e6101400151611275565b95507f000000000000000000000000000000000000000000000000000000000000000073ffffffffffffffffffffffffffffffffffffffff1663248c61263473__$21f52c64f029e7b8ff2bccb2a7d14460c1$__63aa1e84de8e87878a8c604051602001610e8f95949392919094855260208501939093526040840191909152606083015273ffffffffffffffffffffffffffffffffffffffff16608082015260a00190565b6040516020818303038152906040526040518263ffffffff1660e01b8152600401610eba9190611e4b565b602060405180830381865af4158015610ed5573d5f5f3e3d5ffd5b505050506040513d601f19601f82011682018060405250810190610ef99190611e5d565b8787610f048c611373565b604051602001610f149190611dd1565b6040516020818303038152906040526040518663ffffffff1660e01b8152600401610f429493929190611e74565b5f604051808303818588803b158015610f59575f5ffd5b505af1158015610f6b573d5f5f3e3d5ffd5b505050505050505050505050505050505050565b5f82815260208190526040902060010154610f9981610fa3565b610482838361109e565b610fad81336115c3565b50565b5f8281526020818152604080832073ffffffffffffffffffffffffffffffffffffffff8516845290915290205460ff1661053b575f8281526020818152604080832073ffffffffffffffffffffffffffffffffffffffff85168452909152902080547fffffffffffffffffffffffffffffffffffffffffffffffffffffffffffffff001660011790556110403390565b73ffffffffffffffffffffffffffffffffffffffff168173ffffffffffffffffffffffffffffffffffffffff16837f2f8788117e7eff1d82e926ec794901d17c78024a50270940304540a733656f0d60405160405180910390a45050565b5f8281526020818152604080832073ffffffffffffffffffffffffffffffffffffffff8516845290915290205460ff161561053b575f8281526020818152604080832073ffffffffffffffffffffffffffffffffffffffff8516808552925280832080547fffffffffffffffffffffffffffffffffffffffffffffffffffffffffffffff0016905551339285917ff6391f5c32d9c69d2a47ea670b442974b53935d1edc7fd64eb21e047a839171b9190a45050565b60408051602081019091525f815261117560408051602081019091525f815290565b90505f5b825181101561126f575f61119760408051602081019091525f815290565b90505f8483815181106111ac576111ac611eb8565b60200260200101516020015190505f5b8151811015611209576040805160208082528183019092525f916020820181803683370190505090508160051b60200183015160208201526111fe84826112ce565b9350506001016111bc565b505f61121f60408051602081019091525f815290565b90506112478187868151811061123757611237611eb8565b60200260200101515f0151611305565b9050611253818461133c565b905061125f858261133c565b9450505050806001019050611179565b50919050565b6040805160208101909152603082901b8152825181811c17602881811c80841890911b90911884528051821790528160d01c156112c757604051828152602081016040528060081b60011760281b8252505b5090919050565b6040805160208101909152600882901b600217602890811b8252835182811c1780821c80841890921b1884528051821790526112c7565b6040805160208101909152600882901b600417602890811b8252835182811c1780821c80841890921b1884528051821790526112c7565b6040805160208101909152600882901b600317602890811b8252835182811c1780821c80841890921b1884528051821790526112c7565b606061159e565b60018201607f82116113945781821560071b178353610458565b6fffffffffffffffffffffffffffffffff821160071b82811c67ffffffffffffffff1060061b1782811c63ffffffff1060051b1782811c61ffff1060041b17600381901c9083901c60ff10176081810184535f839052601f81185182520160010192915050565b605881901b8252601582016094835392915050565b80516001830190603781116114525782602001516080815f1a10826001141661144a578582018553604084015160218601528252016114ad565b8452506114ad565b8060201c3d3d3e8062ffffff108161ffff10018160ff100160010160378601810160f81b855282810182810193508085602001035b818101518252602082019150848210611487575050818160031b60f8031b855117855250505b9392505050565b5f81516114c95760c083535060018201610458565b60208301825b5164ffffffffff168015611558578051601a1a600181116115145780611505576114fd83835160301c61137a565b9250506114cf565b6114fd83835160301c5161137a565b6002810361152c576114fd608084845160301c611410565b60038103611542576114fd83835160301c6114b4565b5061155182825160301c6113fb565b91506114cf565b50839003601f1901603781116115905760c0810184538360200151846001015283604001518460210152836001018101915050610458565b83526114ad60c08480611410565b50604051602081016115b081846114b4565b90810382525f8152602001604052919050565b5f8281526020818152604080832073ffffffffffffffffffffffffffffffffffffffff8516845290915290205460ff1661053b576116008161165c565b61160b83602061167b565b60405160200161161c929190611ee5565b60408051601f19818403018152908290527f08c379a000000000000000000000000000000000000000000000000000000000825261052891600401611e4b565b606061045873ffffffffffffffffffffffffffffffffffffffff831660145b60605f611689836002611f7c565b611694906002611f93565b67ffffffffffffffff8111156116ac576116ac611988565b6040519080825280601f01601f1916602001820160405280156116d6576020820181803683370190505b5090507f3000000000000000000000000000000000000000000000000000000000000000815f8151811061170c5761170c611eb8565b60200101907effffffffffffffffffffffffffffffffffffffffffffffffffffffffffffff191690815f1a9053507f78000000000000000000000000000000000000000000000000000000000000008160018151811061176e5761176e611eb8565b60200101907effffffffffffffffffffffffffffffffffffffffffffffffffffffffffffff191690815f1a9053505f6117a8846002611f7c565b6117b3906001611f93565b90505b600181111561184f577f303132333435363738396162636465660000000000000000000000000000000085600f16601081106117f4576117f4611eb8565b1a60f81b82828151811061180a5761180a611eb8565b60200101907effffffffffffffffffffffffffffffffffffffffffffffffffffffffffffff191690815f1a90535060049490941c9361184881611fa6565b90506117b6565b5083156114ad576040517f08c379a000000000000000000000000000000000000000000000000000000000815260206004820181905260248201527f537472696e67733a20686578206c656e67746820696e73756666696369656e746044820152606401610528565b5f602082840312156118c8575f5ffd5b81357fffffffff00000000000000000000000000000000000000000000000000000000811681146114ad575f5ffd5b5f60208284031215611907575f5ffd5b5035919050565b803573ffffffffffffffffffffffffffffffffffffffff81168114611931575f5ffd5b919050565b5f5f60408385031215611947575f5ffd5b823591506119576020840161190e565b90509250929050565b8015158114610fad575f5ffd5b5f6020828403121561197d575f5ffd5b81356114ad81611960565b7f4e487b71000000000000000000000000000000000000000000000000000000005f52604160045260245ffd5b6040805190810167ffffffffffffffff811182821017156119d8576119d8611988565b60405290565b604051610160810167ffffffffffffffff811182821017156119d8576119d8611988565b604051601f8201601f1916810167ffffffffffffffff81118282101715611a2b57611a2b611988565b604052919050565b5f82601f830112611a42575f5ffd5b813567ffffffffffffffff811115611a5c57611a5c611988565b611a6f6020601f19601f84011601611a02565b818152846020838601011115611a83575f5ffd5b816020850160208301375f918101602001919091529392505050565b5f67ffffffffffffffff821115611ab857611ab8611988565b5060051b60200190565b5f82601f830112611ad1575f5ffd5b8135611ae4611adf82611a9f565b611a02565b8082825260208201915060208360051b860101925085831115611b05575f5ffd5b602085015b83811015611bf357803567ffffffffffffffff811115611b28575f5ffd5b86016040818903601f19011215611b3d575f5ffd5b611b456119b5565b611b516020830161190e565b8152604082013567ffffffffffffffff811115611b6c575f5ffd5b60208184010192505088601f830112611b83575f5ffd5b8135611b91611adf82611a9f565b8082825260208201915060208360051b86010192508b831115611bb2575f5ffd5b6020850194505b82851015611bd4578435825260209485019490910190611bb9565b8060208501525050508085525050602083019250602081019050611b0a565b5095945050505050565b803560ff81168114611931575f5ffd5b5f60a08284031215611c1d575f5ffd5b60405160a0810167ffffffffffffffff81118282101715611c4057611c40611988565b604090815283358252602080850135908301528381013590820152606080840135908201526080928301359281019290925250919050565b5f5f60c08385031215611c89575f5ffd5b823567ffffffffffffffff811115611c9f575f5ffd5b83016101608186031215611cb1575f5ffd5b611cb96119de565b81358152602080830135908201526040808301359082015260608083013590820152611ce76080830161190e565b608082015260a0828101359082015260c082013567ffffffffffffffff811115611d0f575f5ffd5b611d1b87828501611a33565b60c08301525060e082013567ffffffffffffffff811115611d3a575f5ffd5b611d4687828501611ac2565b60e083015250611d596101008301611bfd565b6101008201526101208281013590820152610140918201359181019190915291506119578460208501611c0d565b5f5f5f5f60808587031215611d9a575f5ffd5b505082516020840151604085015160609095015191969095509092509050565b5f81518060208401855e5f93019283525090919050565b7f020000000000000000000000000000000000000000000000000000000000000081525f6114ad6001830184611dba565b5f60208284031215611e12575f5ffd5b81516114ad81611960565b5f81518084528060208401602086015e5f602082860101526020601f19601f83011685010191505092915050565b602081525f6114ad6020830184611e1d565b5f60208284031215611e6d575f5ffd5b5051919050565b84815273ffffffffffffffffffffffffffffffffffffffff84166020820152826040820152608060608201525f611eae6080830184611e1d565b9695505050505050565b7f4e487b71000000000000000000000000000000000000000000000000000000005f52603260045260245ffd5b7f416363657373436f6e74726f6c3a206163636f756e742000000000000000000081525f611f166017830185611dba565b7f206973206d697373696e6720726f6c65200000000000000000000000000000008152611f466011820185611dba565b95945050505050565b7f4e487b71000000000000000000000000000000000000000000000000000000005f52601160045260245ffd5b808202811582820484141761045857610458611f4f565b8082018082111561045857610458611f4f565b5f81611fb457611fb4611f4f565b507fffffffffffffffffffffffffffffffffffffffffffffffffffffffffffffffff019056fea2646970667358221220dbbb4c5d97f6a3506dbc7b3e0c7deb6cc26b4b7424bb76c6454b26d259dfb2bd64736f6c63430008210033",
  "linkReferences": {
    "src/libraries/Mimc.sol": {
      "Mimc": [
        {
          "length": 20,
          "start": 4407
        }
      ]
    }
  },
  "deployedLinkReferences": {
    "src/libraries/Mimc.sol": {
      "Mimc": [
        {
          "length": 20,
          "start": 3626
        }
      ]
    }
  }
}