{
  "_format": "hh-sol-artifact-1",
  "contractName": "ForcedTransactionGateway",
  "sourceName": "src/rollup/forcedTransactions/ForcedTransactionGateway.sol",
  "abi": [
    {
      "inputs": [
        {
          "internalType": "address",
          "name": "_lineaRollup",
          "type": "address"
        },
        {
          "internalType": "uint256",
          "name": "_destinationChainId",
          "type": "uint256"
        },
        {
          "internalType": "uint256",
          "name": "_l2BlockBuffer",
          "type": "uint256"
        },
        {
          "internalType": "uint256",
          "name": "_minGasLimit",
          "type": "uint256"
        },
        {
          "internalType": "uint256",
          "name": "_maxGasLimit",
          "type": "uint256"
        },
        {
          "internalType": "uint256",
          "name": "_maxInputLengthBuffer",
          "type": "uint256"
        },
        {
          "internalType": "uint256",
          "name": "_minimumBaseGasFee",
          "type": "uint256"
        },
        {
          "internalType": "address",
          "name": "_defaultAdmin",
          "type": "address"
        },
        {
          "internalType": "address",
          "name": "_addressFilter",
          "type": "address"
        },
        {
          "internalType": "uint256",
          "name": "_l2BlockDurationSeconds",
          "type": "uint256"
        },
        {
          "internalType": "uint256",
          "name": "_blockNumberDeadlineBuffer",
          "type": "uint256"
        }
      ],
      "stateMutability": "nonpayable",
      "type": "constructor"
    },
    {
      "inputs": [
        {
          "internalType": "bool",
          "name": "requestedExistingStatus",
          "type": "bool"
        }
      ],
      "name": "AddressFilterAlreadySet",
      "type": "error"
    },
    {
      "inputs": [],
      "name": "AddressIsFiltered",
      "type": "error"
    },
    {
      "inputs": [],
      "name": "CalldataInputLengthLimitExceeded",
      "type": "error"
    },
    {
      "inputs": [
        {
          "internalType": "bytes32",
          "name": "expected",
          "type": "bytes32"
        },
        {
          "internalType": "bytes32",
          "name": "value",
          "type": "bytes32"
        }
      ],
      "name": "FinalizationStateIncorrect",
      "type": "error"
    },
    {
      "inputs": [
        {
          "internalType": "uint256",
          "name": "blockNumber",
          "type": "uint256"
        }
      ],
      "name": "ForcedTransactionAlreadySubmittedInBlock",
      "type": "error"
    },
    {
      "inputs": [
        {
          "internalType": "uint256",
          "name": "expected",
          "type": "uint256"
        },
        {
          "internalType": "uint256",
          "name": "value",
          "type": "uint256"
        }
      ],
      "name": "ForcedTransactionFeeNotMet",
      "type": "error"
    },
    {
      "inputs": [
        {
          "internalType": "uint256",
          "name": "maxFeePerGas",
          "type": "uint256"
        },
        {
          "internalType": "uint256",
          "name": "maxPriorityFeePerGas",
          "type": "uint256"
        }
      ],
      "name": "GasFeeParametersContainZero",
      "type": "error"
    },
    {
      "inputs": [],
      "name": "GasLimitTooLow",
      "type": "error"
    },
    {
      "inputs": [
        {
          "internalType": "uint256",
          "name": "maxFeePerGas",
          "type": "uint256"
        },
        {
          "internalType": "uint256",
          "name": "minimumBaseGasFee",
          "type": "uint256"
        }
      ],
      "name": "MaxFeePerGasLowerThanMinimumBaseGasFee",
      "type": "error"
    },
    {
      "inputs": [],
      "name": "MaxGasLimitExceeded",
      "type": "error"
    },
    {
      "inputs": [
        {
          "internalType": "uint256",
          "name": "minGasLimit",
          "type": "uint256"
        },
        {
          "internalType": "uint256",
          "name": "maxGasLimit",
          "type": "uint256"
        }
      ],
      "name": "MaxGasLimitLessThanOrEqualToMinGasLimit",
      "type": "error"
    },
    {
      "inputs": [
        {
          "internalType": "uint256",
          "name": "maxFeePerGas",
          "type": "uint256"
        },
        {
          "internalType": "uint256",
          "name": "maxPriorityFeePerGas",
          "type": "uint256"
        }
      ],
      "name": "MaxPriorityFeePerGasHigherThanMaxFee",
      "type": "error"
    },
    {
      "inputs": [
        {
          "internalType": "uint256",
          "name": "yParity",
          "type": "uint256"
        }
      ],
      "name": "YParityGreaterThanOne",
      "type": "error"
    },
    {
      "inputs": [],
      "name": "ZeroAddressNotAllowed",
      "type": "error"
    },
    {
      "inputs": [],
      "name": "ZeroValueNotAllowed",
      "type": "error"
    },
    {
      "anonymous": false,
      "inputs": [
        {
          "indexed": false,
          "internalType": "bool",
          "name": "useAddressFilter",
          "type": "bool"
        }
      ],
      "name": "AddressFilterSet",
      "type": "event"
    },
    {
      "anonymous": false,
      "inputs": [
        {
          "indexed": true,
          "internalType": "bytes32",
          "name": "role",
          "type": "bytes32"
        },
        {
          "indexed": true,
          "internalType": "bytes32",
          "name": "previousAdminRole",
          "type": "bytes32"
        },
        {
          "indexed": true,
          "internalType": "bytes32",
          "name": "newAdminRole",
          "type": "bytes32"
        }
      ],
      "name": "RoleAdminChanged",
      "type": "event"
    },
    {
      "anonymous": false,
      "inputs": [
        {
          "indexed": true,
          "internalType": "bytes32",
          "name": "role",
          "type": "bytes32"
        },
        {
          "indexed": true,
          "internalType": "address",
          "name": "account",
          "type": "address"
        },
        {
          "indexed": true,
          "internalType": "address",
          "name": "sender",
          "type": "address"
        }
      ],
      "name": "RoleGranted",
      "type": "event"
    },
    {
      "anonymous": false,
      "inputs": [
        {
          "indexed": true,
          "internalType": "bytes32",
          "name": "role",
          "type": "bytes32"
        },
        {
          "indexed": true,
          "internalType": "address",
          "name": "account",
          "type": "address"
        },
        {
          "indexed": true,
          "internalType": "address",
          "name": "sender",
          "type": "address"
        }
      ],
      "name": "RoleRevoked",
      "type": "event"
    },
    {
      "inputs": [],
      "name": "ADDRESS_FILTER",
      "outputs": [
        {
          "internalType": "contract IAddressFilter",
          "name": "",
          "type": "address"
        }
      ],
      "stateMutability": "view",
      "type": "function"
    },
    {
      "inputs": [],
      "name": "BLOCK_NUMBER_DEADLINE_BUFFER",
      "outputs": [
        {
          "internalType": "uint256",
          "name": "",
          "type": "uint256"
        }
      ],
      "stateMutability": "view",
      "type": "function"
    },
    {
      "inputs": [],
      "name": "DEFAULT_ADMIN_ROLE",
      "outputs": [
        {
          "internalType": "bytes32",
          "name": "",
          "type": "bytes32"
        }
      ],
      "stateMutability": "view",
      "type": "function"
    },
    {
      "inputs": [],
      "name": "DESTINATION_CHAIN_ID",
      "outputs": [
        {
          "internalType": "uint256",
          "name": "",
          "type": "uint256"
        }
      ],
      "stateMutability": "view",
      "type": "function"
    },
    {
      "inputs": [],
      "name": "L2_BLOCK_BUFFER",
      "outputs": [
        {
          "internalType": "uint256",
          "name": "",
          "type": "uint256"
        }
      ],
      "stateMutability": "view",
      "type": "function"
    },
    {
      "inputs": [],
      "name": "L2_BLOCK_DURATION_SECONDS",
      "outputs": [
        {
          "internalType": "uint256",
          "name": "",
          "type": "uint256"
        }
      ],
      "stateMutability": "view",
      "type": "function"
    },
    {
      "inputs": [],
      "name": "LINEA_ROLLUP",
      "outputs": [
        {
          "internalType": "contract IAcceptForcedTransactions",
          "name": "",
          "type": "address"
        }
      ],
      "stateMutability": "view",
      "type": "function"
    },
    {
      "inputs": [],
      "name": "MAX_GAS_LIMIT",
      "outputs": [
        {
          "internalType": "uint256",
          "name": "",
          "type": "uint256"
        }
      ],
      "stateMutability": "view",
      "type": "function"
    },
    {
      "inputs": [],
      "name": "MAX_INPUT_LENGTH_LIMIT",
      "outputs": [
        {
          "internalType": "uint256",
          "name": "",
          "type": "uint256"
        }
      ],
      "stateMutability": "view",
      "type": "function"
    },
    {
      "inputs": [],
      "name": "MINIMUM_BASE_GAS_FEE",
      "outputs": [
        {
          "internalType": "uint256",
          "name": "",
          "type": "uint256"
        }
      ],
      "stateMutability": "view",
      "type": "function"
    },
    {
      "inputs": [],
      "name": "MIN_GAS_LIMIT",
      "outputs": [
        {
          "internalType": "uint256",
          "name": "",
          "type": "uint256"
        }
      ],
      "stateMutability": "view",
      "type": "function"
    },
    {
      "inputs": [
        {
          "internalType": "bytes32",
          "name": "role",
          "type": "bytes32"
        }
      ],
      "name": "getRoleAdmin",
      "outputs": [
        {
          "internalType": "bytes32",
          "name": "",
          "type": "bytes32"
        }
      ],
      "stateMutability": "view",
      "type": "function"
    },
    {
      "inputs": [
        {
          "internalType": "bytes32",
          "name": "role",
          "type": "bytes32"
        },
        {
          "internalType": "address",
          "name": "account",
          "type": "address"
        }
      ],
      "name": "grantRole",
      "outputs": [],
      "stateMutability": "nonpayable",
      "type": "function"
    },
    {
      "inputs": [
        {
          "internalType": "bytes32",
          "name": "role",
          "type": "bytes32"
        },
        {
          "internalType": "address",
          "name": "account",
          "type": "address"
        }
      ],
      "name": "hasRole",
      "outputs": [
        {
          "internalType": "bool",
          "name": "",
          "type": "bool"
        }
      ],
      "stateMutability": "view",
      "type": "function"
    },
    {
      "inputs": [],
      "name": "lastSubmissionBlock",
      "outputs": [
        {
          "internalType": "uint256",
          "name": "",
          "type": "uint256"
        }
      ],
      "stateMutability": "view",
      "type": "function"
    },
    {
      "inputs": [
        {
          "internalType": "bytes32",
          "name": "role",
          "type": "bytes32"
        },
        {
          "internalType": "address",
          "name": "account",
          "type": "address"
        }
      ],
      "name": "renounceRole",
      "outputs": [],
      "stateMutability": "nonpayable",
      "type": "function"
    },
    {
      "inputs": [
        {
          "internalType": "bytes32",
          "name": "role",
          "type": "bytes32"
        },
        {
          "internalType": "address",
          "name": "account",
          "type": "address"
        }
      ],
      "name": "revokeRole",
      "outputs": [],
      "stateMutability": "nonpayable",
      "type": "function"
    },
    {
      "inputs": [
        {
          "components": [
            {
              "internalType": "uint256",
              "name": "nonce",
              "type": "uint256"
            },
            {
              "internalType": "uint256",
              "name": "maxPriorityFeePerGas",
              "type": "uint256"
            },
            {
              "internalType": "uint256",
              "name": "maxFeePerGas",
              "type": "uint256"
            },
            {
              "internalType": "uint256",
              "name": "gasLimit",
              "type": "uint256"
            },
            {
              "internalType": "address",
              "name": "to",
              "type": "address"
            },
            {
              "internalType": "uint256",
              "name": "value",
              "type": "uint256"
            },
            {
              "internalType": "bytes",
              "name": "input",
              "type": "bytes"
            },
            {
              "internalType": "uint8",
              "name": "yParity",
              "type": "uint8"
            },
            {
              "internalType": "uint256",
              "name": "r",
              "type": "uint256"
            },
            {
              "internalType": "uint256",
              "name": "s",
              "type": "uint256"
            }
          ],
          "internalType": "struct IForcedTransactionGateway.Eip1559Transaction",
          "name": "_forcedTransaction",
          "type": "tuple"
        },
        {
          "components": [
            {
              "internalType": "uint256",
              "name": "timestamp",
              "type": "uint256"
            },
            {
              "internalType": "uint256",
              "name": "messageNumber",
              "type": "uint256"
            },
            {
              "internalType": "bytes32",
              "name": "messageRollingHash",
              "type": "bytes32"
            },
            {
              "internalType": "uint256",
              "name": "forcedTransactionNumber",
              "type": "uint256"
            },
            {
              "internalType": "bytes32",
              "name": "forcedTransactionRollingHash",
              "type": "bytes32"
            }
          ],
          "internalType": "struct IForcedTransactionGateway.LastFinalizedState",
          "name": "_lastFinalizedState",
          "type": "tuple"
        }
      ],
      "name": "submitForcedTransaction",
      "outputs": [],
      "stateMutability": "payable",
      "type": "function"
    },
    {
      "inputs": [
        {
          "internalType": "bytes4",
          "name": "interfaceId",
          "type": "bytes4"
        }
      ],
      "name": "supportsInterface",
      "outputs": [
        {
          "internalType": "bool",
          "name": "",
          "type": "bool"
        }
      ],
      "stateMutability": "view",
      "type": "function"
    },
    {
      "inputs": [
        {
          "internalType": "bool",
          "name": "_useAddressFilter",
          "type": "bool"
        }
      ],
      "name": "toggleUseAddressFilter",
      "outputs": [],
      "stateMutability": "nonpayable",
      "type": "function"
    },
    {
      "inputs": [],
      "name": "useAddressFilter",
      "outputs": [
        {
          "internalType": "bool",
          "name": "",
          "type": "bool"
        }
      ],
      "stateMutability": "view",
      "type": "function"
    }
  ],
  "bytecode": "0x6101c06040526001805460ff19168117905534801561001c575f5ffd5b5060405161276138038061276183398101604081905261003b916102d4565b6001600160a01b038b16610062576040516342bcdf7f60e11b815260040160405180910390fd5b895f036100825760405163273e150360e21b815260040160405180910390fd5b885f036100a25760405163273e150360e21b815260040160405180910390fd5b875f036100c25760405163273e150360e21b815260040160405180910390fd5b865f036100e25760405163273e150360e21b815260040160405180910390fd5b878781811161011157604051633ebe061f60e11b81526004810192909252602482015260440160405180910390fd5b5050855f036101335760405163273e150360e21b815260040160405180910390fd5b6001600160a01b03841661015a576040516342bcdf7f60e11b815260040160405180910390fd5b6001600160a01b038316610181576040516342bcdf7f60e11b815260040160405180910390fd5b815f036101a15760405163273e150360e21b815260040160405180910390fd5b805f036101c15760405163273e150360e21b815260040160405180910390fd5b6001600160a01b03808c1660805260a08b905260c08a905261010089905261012088905261014087905261016086905283166101a05260e082905261018081905261020c5f8561021c565b5050505050505050505050610386565b5f828152602081815260408083206001600160a01b038516845290915290205460ff166102b5575f828152602081815260408083206001600160a01b03851684529091529020805460ff191660011790556102743390565b6001600160a01b0316816001600160a01b0316837f2f8788117e7eff1d82e926ec794901d17c78024a50270940304540a733656f0d60405160405180910390a45b5050565b80516001600160a01b03811681146102cf575f5ffd5b919050565b5f5f5f5f5f5f5f5f5f5f5f6101608c8e0312156102ef575f5ffd5b6102f88c6102b9565b9a505f60208d01519050809a50505f60408d01519050809950505f60608d01519050809850505f60808d01519050809750505f60a08d01519050809650505f60c08d015190508095505061034e60e08d016102b9565b935061035d6101008d016102b9565b6101208d0151610140909d01519b9e9a9d50989b979a9699959894979396949593949392505050565b60805160a05160c05160e05161010051610120516101405161016051610180516101a0516123116104505f395f81816101ec01528181610d6d0152610e8e01525f81816101770152610f9801525f81816104400152818161086901526108f701525f8181610313015261080a01525f81816104c501526107ac01525f8181610365015261074e01525f81816103fa0152610f5401525f81816104f80152610f3301525f81816102870152610bd201525f818161049201528181610a3d015261101301526123115ff3fe608060405260043610610162575f3560e01c8063685d7ebe116100c6578063c70b99a51161007c578063e24415c511610057578063e24415c514610481578063e3f5aa51146104b4578063fed8e66c146104e7575f5ffd5b8063c70b99a51461041c578063cd10ba761461042f578063d547741f14610462575f5ffd5b806391d14854116100ac57806391d1485414610387578063a217fddf146103d6578063c0d06202146103e9575f5ffd5b8063685d7ebe146103355780637ce1ffeb14610354575f5ffd5b80632ea023691161011b57806336568abe1161010157806336568abe146102ca57806344b6a0a3146102e95780634dfbcee614610302575f5ffd5b80632ea02369146102765780632f2ff15d146102a9575f5ffd5b80630c6d7d8f1161014b5780630c6d7d8f146101db5780631f49835514610233578063248a9ca314610248575f5ffd5b80630190b3321461016657806301ffc9a7146101ac575b5f5ffd5b348015610171575f5ffd5b506101997f000000000000000000000000000000000000000000000000000000000000000081565b6040519081526020015b60405180910390f35b3480156101b7575f5ffd5b506101cb6101c6366004611cda565b61051a565b60405190151581526020016101a3565b3480156101e6575f5ffd5b5061020e7f000000000000000000000000000000000000000000000000000000000000000081565b60405173ffffffffffffffffffffffffffffffffffffffff90911681526020016101a3565b34801561023e575f5ffd5b5061019960025481565b348015610253575f5ffd5b50610199610262366004611d19565b5f9081526020819052604090206001015490565b348015610281575f5ffd5b506101997f000000000000000000000000000000000000000000000000000000000000000081565b3480156102b4575f5ffd5b506102c86102c3366004611d58565b6105b2565b005b3480156102d5575f5ffd5b506102c86102e4366004611d58565b6105db565b3480156102f4575f5ffd5b506001546101cb9060ff1681565b34801561030d575f5ffd5b506101997f000000000000000000000000000000000000000000000000000000000000000081565b348015610340575f5ffd5b506102c861034f366004611d8f565b610693565b34801561035f575f5ffd5b506101997f000000000000000000000000000000000000000000000000000000000000000081565b348015610392575f5ffd5b506101cb6103a1366004611d58565b5f9182526020828152604080842073ffffffffffffffffffffffffffffffffffffffff93909316845291905290205460ff1690565b3480156103e1575f5ffd5b506101995f81565b3480156103f4575f5ffd5b506101997f000000000000000000000000000000000000000000000000000000000000000081565b6102c861042a366004611f25565b61074c565b34801561043a575f5ffd5b506101997f000000000000000000000000000000000000000000000000000000000000000081565b34801561046d575f5ffd5b506102c861047c366004611d58565b6111a9565b34801561048c575f5ffd5b5061020e7f000000000000000000000000000000000000000000000000000000000000000081565b3480156104bf575f5ffd5b506101997f000000000000000000000000000000000000000000000000000000000000000081565b3480156104f2575f5ffd5b506101997f000000000000000000000000000000000000000000000000000000000000000081565b5f7fffffffff0000000000000000000000000000000000000000000000000000000082167f7965db0b0000000000000000000000000000000000000000000000000000000014806105ac57507f01ffc9a7000000000000000000000000000000000000000000000000000000007fffffffff000000000000000000000000000000000000000000000000000000008316145b92915050565b5f828152602081905260409020600101546105cc816111cd565b6105d683836111da565b505050565b73ffffffffffffffffffffffffffffffffffffffff81163314610685576040517f08c379a000000000000000000000000000000000000000000000000000000000815260206004820152602f60248201527f416363657373436f6e74726f6c3a2063616e206f6e6c792072656e6f756e636560448201527f20726f6c657320666f722073656c66000000000000000000000000000000000060648201526084015b60405180910390fd5b61068f82826112c8565b5050565b5f61069d816111cd565b600154829060ff161515811515036106e5576040517ffe561810000000000000000000000000000000000000000000000000000000008152901515600482015260240161067c565b50600180547fffffffffffffffffffffffffffffffffffffffffffffffffffffffffffffff00168315159081179091556040519081527fa5cbbee363699ddd9598ef194472e0fdd3e27e8ee0ca91e51cbe3a3b2e1a58639060200160405180910390a15050565b7f0000000000000000000000000000000000000000000000000000000000000000826060015110156107aa576040517fed43c3a600000000000000000000000000000000000000000000000000000000815260040160405180910390fd5b7f000000000000000000000000000000000000000000000000000000000000000082606001511115610808576040517f9376b93b00000000000000000000000000000000000000000000000000000000815260040160405180910390fd5b7f00000000000000000000000000000000000000000000000000000000000000008260c00151511115610867576040517f58c9825b00000000000000000000000000000000000000000000000000000000815260040160405180910390fd5b7f00000000000000000000000000000000000000000000000000000000000000001561095c575f82602001511180156108a357505f8260400151115b8260400151836020015190916108ee576040517fad15a7b00000000000000000000000000000000000000000000000000000000081526004810192909252602482015260440161067c565b505060408201517f000000000000000000000000000000000000000000000000000000000000000080821015610959576040517f97b623530000000000000000000000000000000000000000000000000000000081526004810192909252602482015260440161067c565b50505b60408201516020830151818111156109a9576040517fe4da61af0000000000000000000000000000000000000000000000000000000081526004810192909252602482015260440161067c565b505060e0820151600160ff821611156109f4576040517fd92cff8800000000000000000000000000000000000000000000000000000000815260ff909116600482015260240161067c565b5060025443114390610a35576040517f84636b4d00000000000000000000000000000000000000000000000000000000815260040161067c91815260200190565b505f5f5f5f5f7f000000000000000000000000000000000000000000000000000000000000000073ffffffffffffffffffffffffffffffffffffffff1663ee8289206040518163ffffffff1660e01b815260040160a0604051808303815f875af1158015610aa5573d5f5f3e3d5ffd5b505050506040513d601f19601f82011682018060405250810190610ac99190612007565b9450945094509450945080341481349091610b19576040517f5cf402700000000000000000000000000000000000000000000000000000000081526004810192909252602482015260440161067c565b50506020808701516040808901516060808b01516080808d01518d518651978852978701949094529385015283015281019190915260a090208514610bcc576020808701516040808901516060808b01516080808d01518d518651978852978701949094529385015283015281019190915260a0902085906040517fbc5aad110000000000000000000000000000000000000000000000000000000081526004810192909252602482015260440161067c565b5f610bf67f000000000000000000000000000000000000000000000000000000000000000061137d565b9050610c0581895f015161139b565b9050610c1581896020015161139b565b9050610c2581896040015161139b565b9050610c3581896060015161139b565b608089015190915073ffffffffffffffffffffffffffffffffffffffff16610c7657610c6f8160405180602001604052805f8152506113f4565b9050610c87565b610c8481896080015161142b565b90505b610c95818960a0015161139b565b9050610ca5818960c001516113f4565b9050610cc481610cbf60408051602081019091525f815290565b611462565b90505f610cd082611499565b604051602001610ce0919061205a565b6040516020818303038152906040528051906020012090505f610d1a828b60e00151601b018c61010001515f1b8d61012001515f1b611707565b60015490915060ff1615610f30576040517f1d51508300000000000000000000000000000000000000000000000000000000815273ffffffffffffffffffffffffffffffffffffffff82811660048301527f00000000000000000000000000000000000000000000000000000000000000001690631d51508390602401602060405180830381865afa158015610db2573d5f5f3e3d5ffd5b505050506040513d601f19601f82011682018060405250810190610dd6919061208b565b15610e0d576040517f6605edaf00000000000000000000000000000000000000000000000000000000815260040160405180910390fd5b896080015173ffffffffffffffffffffffffffffffffffffffff168173ffffffffffffffffffffffffffffffffffffffff1614610f305760808a01516040517f1d51508300000000000000000000000000000000000000000000000000000000815273ffffffffffffffffffffffffffffffffffffffff91821660048201527f000000000000000000000000000000000000000000000000000000000000000090911690631d51508390602401602060405180830381865afa158015610ed5573d5f5f3e3d5ffd5b505050506040513d601f19601f82011682018060405250810190610ef9919061208b565b15610f30576040517f6605edaf00000000000000000000000000000000000000000000000000000000815260040160405180910390fd5b5f7f00000000000000000000000000000000000000000000000000000000000000007f00000000000000000000000000000000000000000000000000000000000000008b5f0151420381610f8657610f866120a6565b048701019050868111610fc057610fbd7f000000000000000000000000000000000000000000000000000000000000000088612100565b90505b60e08b0151608084901c906fffffffffffffffffffffffffffffffff851690610fed90879060ff1661139b565b9550610ffe868e610100015161139b565b955061100f868e610120015161139b565b95507f000000000000000000000000000000000000000000000000000000000000000073ffffffffffffffffffffffffffffffffffffffff1663248c61263473__$21f52c64f029e7b8ff2bccb2a7d14460c1$__63aa1e84de8e87878a8c6040516020016110b595949392919094855260208501939093526040840191909152606083015273ffffffffffffffffffffffffffffffffffffffff16608082015260a00190565b6040516020818303038152906040526040518263ffffffff1660e01b81526004016110e0919061215f565b602060405180830381865af41580156110fb573d5f5f3e3d5ffd5b505050506040513d601f19601f8201168201806040525081019061111f9190612171565b878761112a8c611499565b60405160200161113a919061205a565b6040516020818303038152906040526040518663ffffffff1660e01b81526004016111689493929190612188565b5f604051808303818588803b15801561117f575f5ffd5b505af1158015611191573d5f5f3e3d5ffd5b50504360025550505050505050505050505050505050565b5f828152602081905260409020600101546111c3816111cd565b6105d683836112c8565b6111d7813361172d565b50565b5f8281526020818152604080832073ffffffffffffffffffffffffffffffffffffffff8516845290915290205460ff1661068f575f8281526020818152604080832073ffffffffffffffffffffffffffffffffffffffff85168452909152902080547fffffffffffffffffffffffffffffffffffffffffffffffffffffffffffffff0016600117905561126a3390565b73ffffffffffffffffffffffffffffffffffffffff168173ffffffffffffffffffffffffffffffffffffffff16837f2f8788117e7eff1d82e926ec794901d17c78024a50270940304540a733656f0d60405160405180910390a45050565b5f8281526020818152604080832073ffffffffffffffffffffffffffffffffffffffff8516845290915290205460ff161561068f575f8281526020818152604080832073ffffffffffffffffffffffffffffffffffffffff8516808552925280832080547fffffffffffffffffffffffffffffffffffffffffffffffffffffffffffffff0016905551339285917ff6391f5c32d9c69d2a47ea670b442974b53935d1edc7fd64eb21e047a839171b9190a45050565b60408051602081019091525f8152611395818361139b565b50919050565b6040805160208101909152603082901b8152825181811c17602881811c80841890911b90911884528051821790528160d01c156113ed57604051828152602081016040528060081b60011760281b8252505b5090919050565b6040805160208101909152600882901b600217602890811b8252835182811c1780821c80841890921b1884528051821790526113ed565b6040805160208101909152600882901b600417602890811b8252835182811c1780821c80841890921b1884528051821790526113ed565b6040805160208101909152600882901b600317602890811b8252835182811c1780821c80841890921b1884528051821790526113ed565b60606116e2565b60018201607f82116114ba5781821560071b1783536105ac565b6fffffffffffffffffffffffffffffffff821160071b82811c67ffffffffffffffff1060061b1782811c63ffffffff1060051b1782811c61ffff1060041b17600381901c9083901c60ff10176081810184535f839052601f81185182520160010192915050565b605881901b8252601582016094835392915050565b80516001830190603781116115785782602001516080815f1a108260011416611570578582018553604084015160218601528252016115d3565b8452506115d3565b8060201c3d3d3e8062ffffff108161ffff10018160ff100160010160378601810160f81b855282810182810193508085602001035b8181015182526020820191508482106115ad575050818160031b60f8031b855117855250505b9392505050565b5f81516115ef5760c0835350600182016105ac565b60208301825b5164ffffffffff16801561167e578051601a1a6001811161163a578061162b5761162383835160301c6114a0565b9250506115f5565b61162383835160301c516114a0565b6002810361165257611623608084845160301c611536565b600381036116685761162383835160301c6115da565b5061167782825160301c611521565b91506115f5565b508390037fffffffffffffffffffffffffffffffffffffffffffffffffffffffffffffffe001603781116116d45760c08101845383602001518460010152836040015184602101528360010181019150506105ac565b83526115d360c08480611536565b50604051602081016116f481846115da565b90810382525f8152602001604052919050565b5f5f5f611716878787876117e4565b91509150611723816118cc565b5095945050505050565b5f8281526020818152604080832073ffffffffffffffffffffffffffffffffffffffff8516845290915290205460ff1661068f5761176a81611a7e565b611775836020611a9d565b6040516020016117869291906121cc565b604080517fffffffffffffffffffffffffffffffffffffffffffffffffffffffffffffffe0818403018152908290527f08c379a000000000000000000000000000000000000000000000000000000000825261067c9160040161215f565b5f807f7fffffffffffffffffffffffffffffff5d576e7357a4501ddfe92f46681b20a083111561181957505f905060036118c3565b604080515f8082526020820180845289905260ff881692820192909252606081018690526080810185905260019060a0016020604051602081039080840390855afa15801561186a573d5f5f3e3d5ffd5b50506040517fffffffffffffffffffffffffffffffffffffffffffffffffffffffffffffffe0015191505073ffffffffffffffffffffffffffffffffffffffff81166118bd575f600192509250506118c3565b91505f90505b94509492505050565b5f8160048111156118df576118df612236565b036118e75750565b60018160048111156118fb576118fb612236565b03611962576040517f08c379a000000000000000000000000000000000000000000000000000000000815260206004820152601860248201527f45434453413a20696e76616c6964207369676e61747572650000000000000000604482015260640161067c565b600281600481111561197657611976612236565b036119dd576040517f08c379a000000000000000000000000000000000000000000000000000000000815260206004820152601f60248201527f45434453413a20696e76616c6964207369676e6174757265206c656e67746800604482015260640161067c565b60038160048111156119f1576119f1612236565b036111d7576040517f08c379a000000000000000000000000000000000000000000000000000000000815260206004820152602260248201527f45434453413a20696e76616c6964207369676e6174757265202773272076616c60448201527f7565000000000000000000000000000000000000000000000000000000000000606482015260840161067c565b60606105ac73ffffffffffffffffffffffffffffffffffffffff831660145b60605f611aab836002612263565b611ab6906002612100565b67ffffffffffffffff811115611ace57611ace611daa565b6040519080825280601f01601f191660200182016040528015611af8576020820181803683370190505b5090507f3000000000000000000000000000000000000000000000000000000000000000815f81518110611b2e57611b2e61227a565b60200101907effffffffffffffffffffffffffffffffffffffffffffffffffffffffffffff191690815f1a9053507f780000000000000000000000000000000000000000000000000000000000000081600181518110611b9057611b9061227a565b60200101907effffffffffffffffffffffffffffffffffffffffffffffffffffffffffffff191690815f1a9053505f611bca846002612263565b611bd5906001612100565b90505b6001811115611c71577f303132333435363738396162636465660000000000000000000000000000000085600f1660108110611c1657611c1661227a565b1a60f81b828281518110611c2c57611c2c61227a565b60200101907effffffffffffffffffffffffffffffffffffffffffffffffffffffffffffff191690815f1a90535060049490941c93611c6a816122a7565b9050611bd8565b5083156115d3576040517f08c379a000000000000000000000000000000000000000000000000000000000815260206004820181905260248201527f537472696e67733a20686578206c656e67746820696e73756666696369656e74604482015260640161067c565b5f60208284031215611cea575f5ffd5b81357fffffffff00000000000000000000000000000000000000000000000000000000811681146115d3575f5ffd5b5f60208284031215611d29575f5ffd5b5035919050565b803573ffffffffffffffffffffffffffffffffffffffff81168114611d53575f5ffd5b919050565b5f5f60408385031215611d69575f5ffd5b82359150611d7960208401611d30565b90509250929050565b80151581146111d7575f5ffd5b5f60208284031215611d9f575f5ffd5b81356115d381611d82565b7f4e487b71000000000000000000000000000000000000000000000000000000005f52604160045260245ffd5b604051610140810167ffffffffffffffff81118282101715611dfb57611dfb611daa565b60405290565b5f82601f830112611e10575f5ffd5b813567ffffffffffffffff811115611e2a57611e2a611daa565b604051601f82017fffffffffffffffffffffffffffffffffffffffffffffffffffffffffffffffe0908116603f0116810167ffffffffffffffff81118282101715611e7757611e77611daa565b604052818152838201602001851015611e8e575f5ffd5b816020850160208301375f918101602001919091529392505050565b803560ff81168114611d53575f5ffd5b5f60a08284031215611eca575f5ffd5b60405160a0810167ffffffffffffffff81118282101715611eed57611eed611daa565b604090815283358252602080850135908301528381013590820152606080840135908201526080928301359281019290925250919050565b5f5f60c08385031215611f36575f5ffd5b823567ffffffffffffffff811115611f4c575f5ffd5b83016101408186031215611f5e575f5ffd5b611f66611dd7565b81358152602080830135908201526040808301359082015260608083013590820152611f9460808301611d30565b608082015260a0828101359082015260c082013567ffffffffffffffff811115611fbc575f5ffd5b611fc887828501611e01565b60c083015250611fda60e08301611eaa565b60e0820152610100828101359082015261012091820135918101919091529150611d798460208501611eba565b5f5f5f5f5f60a0868803121561201b575f5ffd5b5050835160208501516040860151606087015160809097015192989197509594509092509050565b5f81518060208401855e5f93019283525090919050565b7f020000000000000000000000000000000000000000000000000000000000000081525f6115d36001830184612043565b5f6020828403121561209b575f5ffd5b81516115d381611d82565b7f4e487b71000000000000000000000000000000000000000000000000000000005f52601260045260245ffd5b7f4e487b71000000000000000000000000000000000000000000000000000000005f52601160045260245ffd5b808201808211156105ac576105ac6120d3565b5f81518084528060208401602086015e5f6020828601015260207fffffffffffffffffffffffffffffffffffffffffffffffffffffffffffffffe0601f83011685010191505092915050565b602081525f6115d36020830184612113565b5f60208284031215612181575f5ffd5b5051919050565b84815273ffffffffffffffffffffffffffffffffffffffff84166020820152826040820152608060608201525f6121c26080830184612113565b9695505050505050565b7f416363657373436f6e74726f6c3a206163636f756e742000000000000000000081525f6121fd6017830185612043565b7f206973206d697373696e6720726f6c6520000000000000000000000000000000815261222d6011820185612043565b95945050505050565b7f4e487b71000000000000000000000000000000000000000000000000000000005f52602160045260245ffd5b80820281158282048414176105ac576105ac6120d3565b7f4e487b71000000000000000000000000000000000000000000000000000000005f52603260045260245ffd5b5f816122b5576122b56120d3565b507fffffffffffffffffffffffffffffffffffffffffffffffffffffffffffffffff019056fea26469706673582212207ee3cb7272312077aa5793ed0545555124dbe2de645090dfdaa61a9072561e8564736f6c63430008210033",
  "linkReferences": {
    "src/libraries/Mimc.sol": {
      "Mimc": [
        {
          "length": 20,
          "start": 5280
        }
      ]
    }
  },
  "deployedLinkReferences": {
    "src/libraries/Mimc.sol": {
      "Mimc": [
        {
          "length": 20,
          "start": 4176
        }
      ]
    }
  }
}