{
  "_format": "hh-sol-artifact-1",
  "contractName": "ForcedTransactionGateway",
  "sourceName": "src/rollup/forcedTransactions/ForcedTransactionGateway.sol",
  "abi": [
    {
      "inputs": [
        {
          "internalType": "address",
          "name": "_lineaRollup",
          "type": "address"
        },
        {
          "internalType": "uint256",
          "name": "_destinationChainId",
          "type": "uint256"
        },
        {
          "internalType": "uint256",
          "name": "_l2BlockBuffer",
          "type": "uint256"
        },
        {
          "internalType": "uint256",
          "name": "_maxGasLimit",
          "type": "uint256"
        },
        {
          "internalType": "uint256",
          "name": "_maxInputLengthBuffer",
          "type": "uint256"
        },
        {
          "internalType": "address",
          "name": "_defaultAdmin",
          "type": "address"
        },
        {
          "internalType": "address",
          "name": "_addressFilter",
          "type": "address"
        },
        {
          "internalType": "uint256",
          "name": "_l2BlockDurationSeconds",
          "type": "uint256"
        },
        {
          "internalType": "uint256",
          "name": "_blockNumberDeadlineBuffer",
          "type": "uint256"
        }
      ],
      "stateMutability": "nonpayable",
      "type": "constructor"
    },
    {
      "inputs": [
        {
          "internalType": "bool",
          "name": "requestedExistingStatus",
          "type": "bool"
        }
      ],
      "name": "AddressFilterAlreadySet",
      "type": "error"
    },
    {
      "inputs": [],
      "name": "AddressIsFiltered",
      "type": "error"
    },
    {
      "inputs": [],
      "name": "CalldataInputLengthLimitExceeded",
      "type": "error"
    },
    {
      "inputs": [
        {
          "internalType": "bytes32",
          "name": "expected",
          "type": "bytes32"
        },
        {
          "internalType": "bytes32",
          "name": "value",
          "type": "bytes32"
        }
      ],
      "name": "FinalizationStateIncorrect",
      "type": "error"
    },
    {
      "inputs": [
        {
          "internalType": "uint256",
          "name": "blockNumber",
          "type": "uint256"
        }
      ],
      "name": "ForcedTransactionAlreadySubmittedInBlock",
      "type": "error"
    },
    {
      "inputs": [
        {
          "internalType": "uint256",
          "name": "expected",
          "type": "uint256"
        },
        {
          "internalType": "uint256",
          "name": "value",
          "type": "uint256"
        }
      ],
      "name": "ForcedTransactionFeeNotMet",
      "type": "error"
    },
    {
      "inputs": [
        {
          "internalType": "uint256",
          "name": "maxFeePerGas",
          "type": "uint256"
        },
        {
          "internalType": "uint256",
          "name": "maxPriorityFeePerGas",
          "type": "uint256"
        }
      ],
      "name": "GasFeeParametersContainZero",
      "type": "error"
    },
    {
      "inputs": [],
      "name": "GasLimitTooLow",
      "type": "error"
    },
    {
      "inputs": [],
      "name": "MaxGasLimitExceeded",
      "type": "error"
    },
    {
      "inputs": [
        {
          "internalType": "uint256",
          "name": "maxFeePerGas",
          "type": "uint256"
        },
        {
          "internalType": "uint256",
          "name": "maxPriorityFeePerGas",
          "type": "uint256"
        }
      ],
      "name": "MaxPriorityFeePerGasHigherThanMaxFee",
      "type": "error"
    },
    {
      "inputs": [
        {
          "internalType": "uint256",
          "name": "yParity",
          "type": "uint256"
        }
      ],
      "name": "YParityGreaterThanOne",
      "type": "error"
    },
    {
      "inputs": [],
      "name": "ZeroAddressNotAllowed",
      "type": "error"
    },
    {
      "inputs": [],
      "name": "ZeroValueNotAllowed",
      "type": "error"
    },
    {
      "anonymous": false,
      "inputs": [
        {
          "indexed": false,
          "internalType": "bool",
          "name": "useAddressFilter",
          "type": "bool"
        }
      ],
      "name": "AddressFilterSet",
      "type": "event"
    },
    {
      "anonymous": false,
      "inputs": [
        {
          "indexed": true,
          "internalType": "bytes32",
          "name": "role",
          "type": "bytes32"
        },
        {
          "indexed": true,
          "internalType": "bytes32",
          "name": "previousAdminRole",
          "type": "bytes32"
        },
        {
          "indexed": true,
          "internalType": "bytes32",
          "name": "newAdminRole",
          "type": "bytes32"
        }
      ],
      "name": "RoleAdminChanged",
      "type": "event"
    },
    {
      "anonymous": false,
      "inputs": [
        {
          "indexed": true,
          "internalType": "bytes32",
          "name": "role",
          "type": "bytes32"
        },
        {
          "indexed": true,
          "internalType": "address",
          "name": "account",
          "type": "address"
        },
        {
          "indexed": true,
          "internalType": "address",
          "name": "sender",
          "type": "address"
        }
      ],
      "name": "RoleGranted",
      "type": "event"
    },
    {
      "anonymous": false,
      "inputs": [
        {
          "indexed": true,
          "internalType": "bytes32",
          "name": "role",
          "type": "bytes32"
        },
        {
          "indexed": true,
          "internalType": "address",
          "name": "account",
          "type": "address"
        },
        {
          "indexed": true,
          "internalType": "address",
          "name": "sender",
          "type": "address"
        }
      ],
      "name": "RoleRevoked",
      "type": "event"
    },
    {
      "inputs": [],
      "name": "ADDRESS_FILTER",
      "outputs": [
        {
          "internalType": "contract IAddressFilter",
          "name": "",
          "type": "address"
        }
      ],
      "stateMutability": "view",
      "type": "function"
    },
    {
      "inputs": [],
      "name": "BLOCK_NUMBER_DEADLINE_BUFFER",
      "outputs": [
        {
          "internalType": "uint256",
          "name": "",
          "type": "uint256"
        }
      ],
      "stateMutability": "view",
      "type": "function"
    },
    {
      "inputs": [],
      "name": "DEFAULT_ADMIN_ROLE",
      "outputs": [
        {
          "internalType": "bytes32",
          "name": "",
          "type": "bytes32"
        }
      ],
      "stateMutability": "view",
      "type": "function"
    },
    {
      "inputs": [],
      "name": "DESTINATION_CHAIN_ID",
      "outputs": [
        {
          "internalType": "uint256",
          "name": "",
          "type": "uint256"
        }
      ],
      "stateMutability": "view",
      "type": "function"
    },
    {
      "inputs": [],
      "name": "L2_BLOCK_BUFFER",
      "outputs": [
        {
          "internalType": "uint256",
          "name": "",
          "type": "uint256"
        }
      ],
      "stateMutability": "view",
      "type": "function"
    },
    {
      "inputs": [],
      "name": "L2_BLOCK_DURATION_SECONDS",
      "outputs": [
        {
          "internalType": "uint256",
          "name": "",
          "type": "uint256"
        }
      ],
      "stateMutability": "view",
      "type": "function"
    },
    {
      "inputs": [],
      "name": "LINEA_ROLLUP",
      "outputs": [
        {
          "internalType": "contract IAcceptForcedTransactions",
          "name": "",
          "type": "address"
        }
      ],
      "stateMutability": "view",
      "type": "function"
    },
    {
      "inputs": [],
      "name": "MAX_GAS_LIMIT",
      "outputs": [
        {
          "internalType": "uint256",
          "name": "",
          "type": "uint256"
        }
      ],
      "stateMutability": "view",
      "type": "function"
    },
    {
      "inputs": [],
      "name": "MAX_INPUT_LENGTH_LIMIT",
      "outputs": [
        {
          "internalType": "uint256",
          "name": "",
          "type": "uint256"
        }
      ],
      "stateMutability": "view",
      "type": "function"
    },
    {
      "inputs": [
        {
          "internalType": "bytes32",
          "name": "role",
          "type": "bytes32"
        }
      ],
      "name": "getRoleAdmin",
      "outputs": [
        {
          "internalType": "bytes32",
          "name": "",
          "type": "bytes32"
        }
      ],
      "stateMutability": "view",
      "type": "function"
    },
    {
      "inputs": [
        {
          "internalType": "bytes32",
          "name": "role",
          "type": "bytes32"
        },
        {
          "internalType": "address",
          "name": "account",
          "type": "address"
        }
      ],
      "name": "grantRole",
      "outputs": [],
      "stateMutability": "nonpayable",
      "type": "function"
    },
    {
      "inputs": [
        {
          "internalType": "bytes32",
          "name": "role",
          "type": "bytes32"
        },
        {
          "internalType": "address",
          "name": "account",
          "type": "address"
        }
      ],
      "name": "hasRole",
      "outputs": [
        {
          "internalType": "bool",
          "name": "",
          "type": "bool"
        }
      ],
      "stateMutability": "view",
      "type": "function"
    },
    {
      "inputs": [],
      "name": "lastSubmissionBlock",
      "outputs": [
        {
          "internalType": "uint256",
          "name": "",
          "type": "uint256"
        }
      ],
      "stateMutability": "view",
      "type": "function"
    },
    {
      "inputs": [
        {
          "internalType": "bytes32",
          "name": "role",
          "type": "bytes32"
        },
        {
          "internalType": "address",
          "name": "account",
          "type": "address"
        }
      ],
      "name": "renounceRole",
      "outputs": [],
      "stateMutability": "nonpayable",
      "type": "function"
    },
    {
      "inputs": [
        {
          "internalType": "bytes32",
          "name": "role",
          "type": "bytes32"
        },
        {
          "internalType": "address",
          "name": "account",
          "type": "address"
        }
      ],
      "name": "revokeRole",
      "outputs": [],
      "stateMutability": "nonpayable",
      "type": "function"
    },
    {
      "inputs": [
        {
          "components": [
            {
              "internalType": "uint256",
              "name": "nonce",
              "type": "uint256"
            },
            {
              "internalType": "uint256",
              "name": "maxPriorityFeePerGas",
              "type": "uint256"
            },
            {
              "internalType": "uint256",
              "name": "maxFeePerGas",
              "type": "uint256"
            },
            {
              "internalType": "uint256",
              "name": "gasLimit",
              "type": "uint256"
            },
            {
              "internalType": "address",
              "name": "to",
              "type": "address"
            },
            {
              "internalType": "uint256",
              "name": "value",
              "type": "uint256"
            },
            {
              "internalType": "bytes",
              "name": "input",
              "type": "bytes"
            },
            {
              "components": [
                {
                  "internalType": "address",
                  "name": "contractAddress",
                  "type": "address"
                },
                {
                  "internalType": "bytes32[]",
                  "name": "storageKeys",
                  "type": "bytes32[]"
                }
              ],
              "internalType": "struct IForcedTransactionGateway.AccessList[]",
              "name": "accessList",
              "type": "tuple[]"
            },
            {
              "internalType": "uint8",
              "name": "yParity",
              "type": "uint8"
            },
            {
              "internalType": "uint256",
              "name": "r",
              "type": "uint256"
            },
            {
              "internalType": "uint256",
              "name": "s",
              "type": "uint256"
            }
          ],
          "internalType": "struct IForcedTransactionGateway.Eip1559Transaction",
          "name": "_forcedTransaction",
          "type": "tuple"
        },
        {
          "components": [
            {
              "internalType": "uint256",
              "name": "timestamp",
              "type": "uint256"
            },
            {
              "internalType": "uint256",
              "name": "messageNumber",
              "type": "uint256"
            },
            {
              "internalType": "bytes32",
              "name": "messageRollingHash",
              "type": "bytes32"
            },
            {
              "internalType": "uint256",
              "name": "forcedTransactionNumber",
              "type": "uint256"
            },
            {
              "internalType": "bytes32",
              "name": "forcedTransactionRollingHash",
              "type": "bytes32"
            }
          ],
          "internalType": "struct IForcedTransactionGateway.LastFinalizedState",
          "name": "_lastFinalizedState",
          "type": "tuple"
        }
      ],
      "name": "submitForcedTransaction",
      "outputs": [],
      "stateMutability": "payable",
      "type": "function"
    },
    {
      "inputs": [
        {
          "internalType": "bytes4",
          "name": "interfaceId",
          "type": "bytes4"
        }
      ],
      "name": "supportsInterface",
      "outputs": [
        {
          "internalType": "bool",
          "name": "",
          "type": "bool"
        }
      ],
      "stateMutability": "view",
      "type": "function"
    },
    {
      "inputs": [
        {
          "internalType": "bool",
          "name": "_useAddressFilter",
          "type": "bool"
        }
      ],
      "name": "toggleUseAddressFilter",
      "outputs": [],
      "stateMutability": "nonpayable",
      "type": "function"
    },
    {
      "inputs": [],
      "name": "useAddressFilter",
      "outputs": [
        {
          "internalType": "bool",
          "name": "",
          "type": "bool"
        }
      ],
      "stateMutability": "view",
      "type": "function"
    }
  ],
  "bytecode": "0x6101806040526001805460ff19168117905534801561001c575f5ffd5b5060405161278438038061278483398101604081905261003b91610275565b6001600160a01b038916610062576040516342bcdf7f60e11b815260040160405180910390fd5b875f036100825760405163273e150360e21b815260040160405180910390fd5b865f036100a25760405163273e150360e21b815260040160405180910390fd5b855f036100c25760405163273e150360e21b815260040160405180910390fd5b845f036100e25760405163273e150360e21b815260040160405180910390fd5b6001600160a01b038416610109576040516342bcdf7f60e11b815260040160405180910390fd5b6001600160a01b038316610130576040516342bcdf7f60e11b815260040160405180910390fd5b815f036101505760405163273e150360e21b815260040160405180910390fd5b805f036101705760405163273e150360e21b815260040160405180910390fd5b6001600160a01b03808a1660805260a089905260c088905261010087905261012086905283166101605260e08290526101408190526101af5f856101bd565b5050505050505050506102f3565b5f828152602081815260408083206001600160a01b038516845290915290205460ff16610256575f828152602081815260408083206001600160a01b03851684529091529020805460ff191660011790556102153390565b6001600160a01b0316816001600160a01b0316837f2f8788117e7eff1d82e926ec794901d17c78024a50270940304540a733656f0d60405160405180910390a45b5050565b80516001600160a01b0381168114610270575f5ffd5b919050565b5f5f5f5f5f5f5f5f5f6101208a8c03121561028e575f5ffd5b6102978a61025a565b60208b015160408c015160608d015160808e0151939c50919a509850965094506102c360a08b0161025a565b93506102d160c08b0161025a565b60e08b0151610100909b0151999c989b50969995989497939695949392505050565b60805160a05160c05160e051610100516101205161014051610160516123f06103945f395f81816101c701528181610c2d0152610d4e01525f81816101520152610e5801525f81816102ee015261076101525f818161043a015261070301525f81816103b50152610e1401525f818161046d0152610df301525f81816102620152610a9801525f8181610407015281816109030152610ed401526123f05ff3fe60806040526004361061013d575f3560e01c80634dfbcee6116100bb578063c0d0620211610071578063e24415c511610057578063e24415c5146103f6578063e3f5aa5114610429578063fed8e66c1461045c575f5ffd5b8063c0d06202146103a4578063d547741f146103d7575f5ffd5b80638b98c2c8116100a15780638b98c2c81461032f57806391d1485414610342578063a217fddf14610391575f5ffd5b80634dfbcee6146102dd578063685d7ebe14610310575f5ffd5b8063248a9ca3116101105780632f2ff15d116100f65780632f2ff15d1461028457806336568abe146102a557806344b6a0a3146102c4575f5ffd5b8063248a9ca3146102235780632ea0236914610251575f5ffd5b80630190b3321461014157806301ffc9a7146101875780630c6d7d8f146101b65780631f4983551461020e575b5f5ffd5b34801561014c575f5ffd5b506101747f000000000000000000000000000000000000000000000000000000000000000081565b6040519081526020015b60405180910390f35b348015610192575f5ffd5b506101a66101a1366004611c3f565b61048f565b604051901515815260200161017e565b3480156101c1575f5ffd5b506101e97f000000000000000000000000000000000000000000000000000000000000000081565b60405173ffffffffffffffffffffffffffffffffffffffff909116815260200161017e565b348015610219575f5ffd5b5061017460025481565b34801561022e575f5ffd5b5061017461023d366004611c7e565b5f9081526020819052604090206001015490565b34801561025c575f5ffd5b506101747f000000000000000000000000000000000000000000000000000000000000000081565b34801561028f575f5ffd5b506102a361029e366004611cbd565b610527565b005b3480156102b0575f5ffd5b506102a36102bf366004611cbd565b610550565b3480156102cf575f5ffd5b506001546101a69060ff1681565b3480156102e8575f5ffd5b506101747f000000000000000000000000000000000000000000000000000000000000000081565b34801561031b575f5ffd5b506102a361032a366004611cf4565b610608565b6102a361033d366004611ff5565b6106c1565b34801561034d575f5ffd5b506101a661035c366004611cbd565b5f9182526020828152604080842073ffffffffffffffffffffffffffffffffffffffff93909316845291905290205460ff1690565b34801561039c575f5ffd5b506101745f81565b3480156103af575f5ffd5b506101747f000000000000000000000000000000000000000000000000000000000000000081565b3480156103e2575f5ffd5b506102a36103f1366004611cbd565b61106a565b348015610401575f5ffd5b506101e97f000000000000000000000000000000000000000000000000000000000000000081565b348015610434575f5ffd5b506101747f000000000000000000000000000000000000000000000000000000000000000081565b348015610467575f5ffd5b506101747f000000000000000000000000000000000000000000000000000000000000000081565b5f7fffffffff0000000000000000000000000000000000000000000000000000000082167f7965db0b00000000000000000000000000000000000000000000000000000000148061052157507f01ffc9a7000000000000000000000000000000000000000000000000000000007fffffffff000000000000000000000000000000000000000000000000000000008316145b92915050565b5f828152602081905260409020600101546105418161108e565b61054b838361109b565b505050565b73ffffffffffffffffffffffffffffffffffffffff811633146105fa576040517f08c379a000000000000000000000000000000000000000000000000000000000815260206004820152602f60248201527f416363657373436f6e74726f6c3a2063616e206f6e6c792072656e6f756e636560448201527f20726f6c657320666f722073656c66000000000000000000000000000000000060648201526084015b60405180910390fd5b6106048282611189565b5050565b5f6106128161108e565b600154829060ff1615158115150361065a576040517ffe56181000000000000000000000000000000000000000000000000000000000815290151560048201526024016105f1565b50600180547fffffffffffffffffffffffffffffffffffffffffffffffffffffffffffffff00168315159081179091556040519081527fa5cbbee363699ddd9598ef194472e0fdd3e27e8ee0ca91e51cbe3a3b2e1a58639060200160405180910390a15050565b61520882606001511015610701576040517fed43c3a600000000000000000000000000000000000000000000000000000000815260040160405180910390fd5b7f00000000000000000000000000000000000000000000000000000000000000008260600151111561075f576040517f9376b93b00000000000000000000000000000000000000000000000000000000815260040160405180910390fd5b7f00000000000000000000000000000000000000000000000000000000000000008260c001515111156107be576040517f58c9825b00000000000000000000000000000000000000000000000000000000815260040160405180910390fd5b5f82602001511180156107d457505f8260400151115b82604001518360200151909161081f576040517fad15a7b0000000000000000000000000000000000000000000000000000000008152600481019290925260248201526044016105f1565b5050604082015160208301518181111561086e576040517fe4da61af000000000000000000000000000000000000000000000000000000008152600481019290925260248201526044016105f1565b5050610100820151600160ff821611156108ba576040517fd92cff8800000000000000000000000000000000000000000000000000000000815260ff90911660048201526024016105f1565b50600254431143906108fb576040517f84636b4d0000000000000000000000000000000000000000000000000000000081526004016105f191815260200190565b505f5f5f5f5f7f000000000000000000000000000000000000000000000000000000000000000073ffffffffffffffffffffffffffffffffffffffff1663ee8289206040518163ffffffff1660e01b815260040160a0604051808303815f875af115801561096b573d5f5f3e3d5ffd5b505050506040513d601f19601f8201168201806040525081019061098f9190612104565b94509450945094509450803414813490916109df576040517f5cf40270000000000000000000000000000000000000000000000000000000008152600481019290925260248201526044016105f1565b50506020808701516040808901516060808b01516080808d01518d518651978852978701949094529385015283015281019190915260a090208514610a92576020808701516040808901516060808b01516080808d01518d518651978852978701949094529385015283015281019190915260a0902085906040517fbc5aad11000000000000000000000000000000000000000000000000000000008152600481019290925260248201526044016105f1565b5f610abc7f000000000000000000000000000000000000000000000000000000000000000061123e565b9050610acb81895f015161125c565b9050610adb81896020015161125c565b9050610aeb81896040015161125c565b9050610afb81896060015161125c565b608089015190915073ffffffffffffffffffffffffffffffffffffffff16610b3c57610b358160405180602001604052805f8152506112b5565b9050610b4d565b610b4a8189608001516112ec565b90505b610b5b818960a0015161125c565b9050610b6b818960c001516112b5565b9050610b8381610b7e8a60e00151611323565b611409565b90505f610b8f82611440565b604051602001610b9f9190612157565b6040516020818303038152906040528051906020012090505f610bda828b6101000151601b018c61012001515f1b8d61014001515f1b611690565b60015490915060ff1615610df0576040517f1d51508300000000000000000000000000000000000000000000000000000000815273ffffffffffffffffffffffffffffffffffffffff82811660048301527f00000000000000000000000000000000000000000000000000000000000000001690631d51508390602401602060405180830381865afa158015610c72573d5f5f3e3d5ffd5b505050506040513d601f19601f82011682018060405250810190610c969190612188565b15610ccd576040517f6605edaf00000000000000000000000000000000000000000000000000000000815260040160405180910390fd5b896080015173ffffffffffffffffffffffffffffffffffffffff168173ffffffffffffffffffffffffffffffffffffffff1614610df05760808a01516040517f1d51508300000000000000000000000000000000000000000000000000000000815273ffffffffffffffffffffffffffffffffffffffff91821660048201527f000000000000000000000000000000000000000000000000000000000000000090911690631d51508390602401602060405180830381865afa158015610d95573d5f5f3e3d5ffd5b505050506040513d601f19601f82011682018060405250810190610db99190612188565b15610df0576040517f6605edaf00000000000000000000000000000000000000000000000000000000815260040160405180910390fd5b5f7f00000000000000000000000000000000000000000000000000000000000000007f00000000000000000000000000000000000000000000000000000000000000008b5f0151420381610e4657610e466121a3565b048701019050868111610e8057610e7d7f0000000000000000000000000000000000000000000000000000000000000000886121fd565b90505b6101008b0151608084901c906fffffffffffffffffffffffffffffffff851690610eae90879060ff1661125c565b9550610ebf868e610120015161125c565b9550610ed0868e610140015161125c565b95507f000000000000000000000000000000000000000000000000000000000000000073ffffffffffffffffffffffffffffffffffffffff1663248c61263473__$21f52c64f029e7b8ff2bccb2a7d14460c1$__63aa1e84de8e87878a8c604051602001610f7695949392919094855260208501939093526040840191909152606083015273ffffffffffffffffffffffffffffffffffffffff16608082015260a00190565b6040516020818303038152906040526040518263ffffffff1660e01b8152600401610fa1919061223e565b602060405180830381865af4158015610fbc573d5f5f3e3d5ffd5b505050506040513d601f19601f82011682018060405250810190610fe09190612250565b8787610feb8c611440565b604051602001610ffb9190612157565b6040516020818303038152906040526040518663ffffffff1660e01b81526004016110299493929190612267565b5f604051808303818588803b158015611040575f5ffd5b505af1158015611052573d5f5f3e3d5ffd5b50504360025550505050505050505050505050505050565b5f828152602081905260409020600101546110848161108e565b61054b8383611189565b61109881336116b6565b50565b5f8281526020818152604080832073ffffffffffffffffffffffffffffffffffffffff8516845290915290205460ff16610604575f8281526020818152604080832073ffffffffffffffffffffffffffffffffffffffff85168452909152902080547fffffffffffffffffffffffffffffffffffffffffffffffffffffffffffffff0016600117905561112b3390565b73ffffffffffffffffffffffffffffffffffffffff168173ffffffffffffffffffffffffffffffffffffffff16837f2f8788117e7eff1d82e926ec794901d17c78024a50270940304540a733656f0d60405160405180910390a45050565b5f8281526020818152604080832073ffffffffffffffffffffffffffffffffffffffff8516845290915290205460ff1615610604575f8281526020818152604080832073ffffffffffffffffffffffffffffffffffffffff8516808552925280832080547fffffffffffffffffffffffffffffffffffffffffffffffffffffffffffffff0016905551339285917ff6391f5c32d9c69d2a47ea670b442974b53935d1edc7fd64eb21e047a839171b9190a45050565b60408051602081019091525f8152611256818361125c565b50919050565b6040805160208101909152603082901b8152825181811c17602881811c80841890911b90911884528051821790528160d01c156112ae57604051828152602081016040528060081b60011760281b8252505b5090919050565b6040805160208101909152600882901b600217602890811b8252835182811c1780821c80841890921b1884528051821790526112ae565b6040805160208101909152600882901b600417602890811b8252835182811c1780821c80841890921b1884528051821790526112ae565b60408051602081019091525f81525f5b82518110156112565760408051602081019091525f81525f84838151811061135d5761135d6122ab565b60200260200101516020015190505f5b81518110156113ba576040805160208082528183019092525f916020820181803683370190505090508160051b60200183015160208201526113af84826112b5565b93505060010161136d565b505f6113e18685815181106113d1576113d16122ab565b60200260200101515f015161174f565b90506113ed8184611409565b90506113f98582611409565b9450505050806001019050611333565b6040805160208101909152600882901b600317602890811b8252835182811c1780821c80841890921b1884528051821790526112ae565b606061166b565b60018201607f82116114615781821560071b178353610521565b6fffffffffffffffffffffffffffffffff821160071b82811c67ffffffffffffffff1060061b1782811c63ffffffff1060051b1782811c61ffff1060041b17600381901c9083901c60ff10176081810184535f839052601f81185182520160010192915050565b605881901b8252601582016094835392915050565b805160018301906037811161151f5782602001516080815f1a1082600114166115175785820185536040840151602186015282520161157a565b84525061157a565b8060201c3d3d3e8062ffffff108161ffff10018160ff100160010160378601810160f81b855282810182810193508085602001035b818101518252602082019150848210611554575050818160031b60f8031b855117855250505b9392505050565b5f81516115965760c083535060018201610521565b60208301825b5164ffffffffff168015611625578051601a1a600181116115e157806115d2576115ca83835160301c611447565b92505061159c565b6115ca83835160301c51611447565b600281036115f9576115ca608084845160301c6114dd565b6003810361160f576115ca83835160301c611581565b5061161e82825160301c6114c8565b915061159c565b50839003601f19016037811161165d5760c0810184538360200151846001015283604001518460210152836001018101915050610521565b835261157a60c084806114dd565b506040516020810161167d8184611581565b90810382525f8152602001604052919050565b5f5f5f61169f87878787611767565b915091506116ac81611831565b5095945050505050565b5f8281526020818152604080832073ffffffffffffffffffffffffffffffffffffffff8516845290915290205460ff16610604576116f3816119e3565b6116fe836020611a02565b60405160200161170f9291906122d8565b60408051601f19818403018152908290527f08c379a00000000000000000000000000000000000000000000000000000000082526105f19160040161223e565b60408051602081019091525f815261125681836112ec565b5f807f7fffffffffffffffffffffffffffffff5d576e7357a4501ddfe92f46681b20a083111561179c57505f90506003611828565b604080515f8082526020820180845289905260ff881692820192909252606081018690526080810185905260019060a0016020604051602081039080840390855afa1580156117ed573d5f5f3e3d5ffd5b5050604051601f19015191505073ffffffffffffffffffffffffffffffffffffffff8116611822575f60019250925050611828565b91505f90505b94509492505050565b5f81600481111561184457611844612342565b0361184c5750565b600181600481111561186057611860612342565b036118c7576040517f08c379a000000000000000000000000000000000000000000000000000000000815260206004820152601860248201527f45434453413a20696e76616c6964207369676e6174757265000000000000000060448201526064016105f1565b60028160048111156118db576118db612342565b03611942576040517f08c379a000000000000000000000000000000000000000000000000000000000815260206004820152601f60248201527f45434453413a20696e76616c6964207369676e6174757265206c656e6774680060448201526064016105f1565b600381600481111561195657611956612342565b03611098576040517f08c379a000000000000000000000000000000000000000000000000000000000815260206004820152602260248201527f45434453413a20696e76616c6964207369676e6174757265202773272076616c60448201527f756500000000000000000000000000000000000000000000000000000000000060648201526084016105f1565b606061052173ffffffffffffffffffffffffffffffffffffffff831660145b60605f611a1083600261236f565b611a1b9060026121fd565b67ffffffffffffffff811115611a3357611a33611d0f565b6040519080825280601f01601f191660200182016040528015611a5d576020820181803683370190505b5090507f3000000000000000000000000000000000000000000000000000000000000000815f81518110611a9357611a936122ab565b60200101907effffffffffffffffffffffffffffffffffffffffffffffffffffffffffffff191690815f1a9053507f780000000000000000000000000000000000000000000000000000000000000081600181518110611af557611af56122ab565b60200101907effffffffffffffffffffffffffffffffffffffffffffffffffffffffffffff191690815f1a9053505f611b2f84600261236f565b611b3a9060016121fd565b90505b6001811115611bd6577f303132333435363738396162636465660000000000000000000000000000000085600f1660108110611b7b57611b7b6122ab565b1a60f81b828281518110611b9157611b916122ab565b60200101907effffffffffffffffffffffffffffffffffffffffffffffffffffffffffffff191690815f1a90535060049490941c93611bcf81612386565b9050611b3d565b50831561157a576040517f08c379a000000000000000000000000000000000000000000000000000000000815260206004820181905260248201527f537472696e67733a20686578206c656e67746820696e73756666696369656e7460448201526064016105f1565b5f60208284031215611c4f575f5ffd5b81357fffffffff000000000000000000000000000000000000000000000000000000008116811461157a575f5ffd5b5f60208284031215611c8e575f5ffd5b5035919050565b803573ffffffffffffffffffffffffffffffffffffffff81168114611cb8575f5ffd5b919050565b5f5f60408385031215611cce575f5ffd5b82359150611cde60208401611c95565b90509250929050565b8015158114611098575f5ffd5b5f60208284031215611d04575f5ffd5b813561157a81611ce7565b7f4e487b71000000000000000000000000000000000000000000000000000000005f52604160045260245ffd5b6040805190810167ffffffffffffffff81118282101715611d5f57611d5f611d0f565b60405290565b604051610160810167ffffffffffffffff81118282101715611d5f57611d5f611d0f565b604051601f8201601f1916810167ffffffffffffffff81118282101715611db257611db2611d0f565b604052919050565b5f82601f830112611dc9575f5ffd5b813567ffffffffffffffff811115611de357611de3611d0f565b611df66020601f19601f84011601611d89565b818152846020838601011115611e0a575f5ffd5b816020850160208301375f918101602001919091529392505050565b5f67ffffffffffffffff821115611e3f57611e3f611d0f565b5060051b60200190565b5f82601f830112611e58575f5ffd5b8135611e6b611e6682611e26565b611d89565b8082825260208201915060208360051b860101925085831115611e8c575f5ffd5b602085015b838110156116ac57803567ffffffffffffffff811115611eaf575f5ffd5b86016040818903601f19011215611ec4575f5ffd5b611ecc611d3c565b611ed860208301611c95565b8152604082013567ffffffffffffffff811115611ef3575f5ffd5b60208184010192505088601f830112611f0a575f5ffd5b8135611f18611e6682611e26565b8082825260208201915060208360051b86010192508b831115611f39575f5ffd5b6020850194505b82851015611f5b578435825260209485019490910190611f40565b8060208501525050508085525050602083019250602081019050611e91565b803560ff81168114611cb8575f5ffd5b5f60a08284031215611f9a575f5ffd5b60405160a0810167ffffffffffffffff81118282101715611fbd57611fbd611d0f565b604090815283358252602080850135908301528381013590820152606080840135908201526080928301359281019290925250919050565b5f5f60c08385031215612006575f5ffd5b823567ffffffffffffffff81111561201c575f5ffd5b8301610160818603121561202e575f5ffd5b612036611d65565b8135815260208083013590820152604080830135908201526060808301359082015261206460808301611c95565b608082015260a0828101359082015260c082013567ffffffffffffffff81111561208c575f5ffd5b61209887828501611dba565b60c08301525060e082013567ffffffffffffffff8111156120b7575f5ffd5b6120c387828501611e49565b60e0830152506120d66101008301611f7a565b610100820152610120828101359082015261014091820135918101919091529150611cde8460208501611f8a565b5f5f5f5f5f60a08688031215612118575f5ffd5b5050835160208501516040860151606087015160809097015192989197509594509092509050565b5f81518060208401855e5f93019283525090919050565b7f020000000000000000000000000000000000000000000000000000000000000081525f61157a6001830184612140565b5f60208284031215612198575f5ffd5b815161157a81611ce7565b7f4e487b71000000000000000000000000000000000000000000000000000000005f52601260045260245ffd5b7f4e487b71000000000000000000000000000000000000000000000000000000005f52601160045260245ffd5b80820180821115610521576105216121d0565b5f81518084528060208401602086015e5f602082860101526020601f19601f83011685010191505092915050565b602081525f61157a6020830184612210565b5f60208284031215612260575f5ffd5b5051919050565b84815273ffffffffffffffffffffffffffffffffffffffff84166020820152826040820152608060608201525f6122a16080830184612210565b9695505050505050565b7f4e487b71000000000000000000000000000000000000000000000000000000005f52603260045260245ffd5b7f416363657373436f6e74726f6c3a206163636f756e742000000000000000000081525f6123096017830185612140565b7f206973206d697373696e6720726f6c652000000000000000000000000000000081526123396011820185612140565b95945050505050565b7f4e487b71000000000000000000000000000000000000000000000000000000005f52602160045260245ffd5b8082028115828204841417610521576105216121d0565b5f81612394576123946121d0565b507fffffffffffffffffffffffffffffffffffffffffffffffffffffffffffffffff019056fea2646970667358221220f246cc1fce41b2f13932a846460104261166b15af2157cc410935ba932f1c6f364736f6c63430008210033",
  "linkReferences": {
    "src/libraries/Mimc.sol": {
      "Mimc": [
        {
          "length": 20,
          "start": 4773
        }
      ]
    }
  },
  "deployedLinkReferences": {
    "src/libraries/Mimc.sol": {
      "Mimc": [
        {
          "length": 20,
          "start": 3857
        }
      ]
    }
  }
}