{
  "_format": "hh-sol-artifact-1",
  "contractName": "ForcedTransactionGateway",
  "sourceName": "src/rollup/forcedTransactions/ForcedTransactionGateway.sol",
  "abi": [
    {
      "inputs": [
        {
          "internalType": "address",
          "name": "_lineaRollup",
          "type": "address"
        },
        {
          "internalType": "uint256",
          "name": "_destinationChainId",
          "type": "uint256"
        },
        {
          "internalType": "uint256",
          "name": "_l2BlockBuffer",
          "type": "uint256"
        },
        {
          "internalType": "uint256",
          "name": "_maxGasLimit",
          "type": "uint256"
        },
        {
          "internalType": "uint256",
          "name": "_maxInputLengthBuffer",
          "type": "uint256"
        },
        {
          "internalType": "address",
          "name": "_defaultAdmin",
          "type": "address"
        },
        {
          "internalType": "address",
          "name": "_addressFilter",
          "type": "address"
        },
        {
          "internalType": "uint256",
          "name": "_l2BlockDurationSeconds",
          "type": "uint256"
        },
        {
          "internalType": "uint256",
          "name": "_blockNumberDeadlineBuffer",
          "type": "uint256"
        }
      ],
      "stateMutability": "nonpayable",
      "type": "constructor"
    },
    {
      "inputs": [
        {
          "internalType": "bool",
          "name": "requestedExistingStatus",
          "type": "bool"
        }
      ],
      "name": "AddressFilterAlreadySet",
      "type": "error"
    },
    {
      "inputs": [],
      "name": "AddressIsFiltered",
      "type": "error"
    },
    {
      "inputs": [],
      "name": "CalldataInputLengthLimitExceeded",
      "type": "error"
    },
    {
      "inputs": [
        {
          "internalType": "bytes32",
          "name": "expected",
          "type": "bytes32"
        },
        {
          "internalType": "bytes32",
          "name": "value",
          "type": "bytes32"
        }
      ],
      "name": "FinalizationStateIncorrect",
      "type": "error"
    },
    {
      "inputs": [
        {
          "internalType": "uint256",
          "name": "expected",
          "type": "uint256"
        },
        {
          "internalType": "uint256",
          "name": "value",
          "type": "uint256"
        }
      ],
      "name": "ForcedTransactionFeeNotMet",
      "type": "error"
    },
    {
      "inputs": [
        {
          "internalType": "uint256",
          "name": "maxFeePerGas",
          "type": "uint256"
        },
        {
          "internalType": "uint256",
          "name": "maxPriorityFeePerGas",
          "type": "uint256"
        }
      ],
      "name": "GasFeeParametersContainZero",
      "type": "error"
    },
    {
      "inputs": [],
      "name": "GasLimitTooLow",
      "type": "error"
    },
    {
      "inputs": [],
      "name": "MaxGasLimitExceeded",
      "type": "error"
    },
    {
      "inputs": [
        {
          "internalType": "uint256",
          "name": "maxFeePerGas",
          "type": "uint256"
        },
        {
          "internalType": "uint256",
          "name": "maxPriorityFeePerGas",
          "type": "uint256"
        }
      ],
      "name": "MaxPriorityFeePerGasHigherThanMaxFee",
      "type": "error"
    },
    {
      "inputs": [],
      "name": "SignerAddressZero",
      "type": "error"
    },
    {
      "inputs": [
        {
          "internalType": "uint256",
          "name": "yParity",
          "type": "uint256"
        }
      ],
      "name": "YParityGreaterThanOne",
      "type": "error"
    },
    {
      "inputs": [],
      "name": "ZeroAddressNotAllowed",
      "type": "error"
    },
    {
      "inputs": [],
      "name": "ZeroValueNotAllowed",
      "type": "error"
    },
    {
      "anonymous": false,
      "inputs": [
        {
          "indexed": false,
          "internalType": "bool",
          "name": "useAddressFilter",
          "type": "bool"
        }
      ],
      "name": "AddressFilterSet",
      "type": "event"
    },
    {
      "anonymous": false,
      "inputs": [
        {
          "indexed": true,
          "internalType": "bytes32",
          "name": "role",
          "type": "bytes32"
        },
        {
          "indexed": true,
          "internalType": "bytes32",
          "name": "previousAdminRole",
          "type": "bytes32"
        },
        {
          "indexed": true,
          "internalType": "bytes32",
          "name": "newAdminRole",
          "type": "bytes32"
        }
      ],
      "name": "RoleAdminChanged",
      "type": "event"
    },
    {
      "anonymous": false,
      "inputs": [
        {
          "indexed": true,
          "internalType": "bytes32",
          "name": "role",
          "type": "bytes32"
        },
        {
          "indexed": true,
          "internalType": "address",
          "name": "account",
          "type": "address"
        },
        {
          "indexed": true,
          "internalType": "address",
          "name": "sender",
          "type": "address"
        }
      ],
      "name": "RoleGranted",
      "type": "event"
    },
    {
      "anonymous": false,
      "inputs": [
        {
          "indexed": true,
          "internalType": "bytes32",
          "name": "role",
          "type": "bytes32"
        },
        {
          "indexed": true,
          "internalType": "address",
          "name": "account",
          "type": "address"
        },
        {
          "indexed": true,
          "internalType": "address",
          "name": "sender",
          "type": "address"
        }
      ],
      "name": "RoleRevoked",
      "type": "event"
    },
    {
      "inputs": [],
      "name": "ADDRESS_FILTER",
      "outputs": [
        {
          "internalType": "contract IAddressFilter",
          "name": "",
          "type": "address"
        }
      ],
      "stateMutability": "view",
      "type": "function"
    },
    {
      "inputs": [],
      "name": "BLOCK_NUMBER_DEADLINE_BUFFER",
      "outputs": [
        {
          "internalType": "uint256",
          "name": "",
          "type": "uint256"
        }
      ],
      "stateMutability": "view",
      "type": "function"
    },
    {
      "inputs": [],
      "name": "DEFAULT_ADMIN_ROLE",
      "outputs": [
        {
          "internalType": "bytes32",
          "name": "",
          "type": "bytes32"
        }
      ],
      "stateMutability": "view",
      "type": "function"
    },
    {
      "inputs": [],
      "name": "DESTINATION_CHAIN_ID",
      "outputs": [
        {
          "internalType": "uint256",
          "name": "",
          "type": "uint256"
        }
      ],
      "stateMutability": "view",
      "type": "function"
    },
    {
      "inputs": [],
      "name": "L2_BLOCK_BUFFER",
      "outputs": [
        {
          "internalType": "uint256",
          "name": "",
          "type": "uint256"
        }
      ],
      "stateMutability": "view",
      "type": "function"
    },
    {
      "inputs": [],
      "name": "L2_BLOCK_DURATION_SECONDS",
      "outputs": [
        {
          "internalType": "uint256",
          "name": "",
          "type": "uint256"
        }
      ],
      "stateMutability": "view",
      "type": "function"
    },
    {
      "inputs": [],
      "name": "LINEA_ROLLUP",
      "outputs": [
        {
          "internalType": "contract IAcceptForcedTransactions",
          "name": "",
          "type": "address"
        }
      ],
      "stateMutability": "view",
      "type": "function"
    },
    {
      "inputs": [],
      "name": "MAX_GAS_LIMIT",
      "outputs": [
        {
          "internalType": "uint256",
          "name": "",
          "type": "uint256"
        }
      ],
      "stateMutability": "view",
      "type": "function"
    },
    {
      "inputs": [],
      "name": "MAX_INPUT_LENGTH_LIMIT",
      "outputs": [
        {
          "internalType": "uint256",
          "name": "",
          "type": "uint256"
        }
      ],
      "stateMutability": "view",
      "type": "function"
    },
    {
      "inputs": [
        {
          "internalType": "bytes32",
          "name": "role",
          "type": "bytes32"
        }
      ],
      "name": "getRoleAdmin",
      "outputs": [
        {
          "internalType": "bytes32",
          "name": "",
          "type": "bytes32"
        }
      ],
      "stateMutability": "view",
      "type": "function"
    },
    {
      "inputs": [
        {
          "internalType": "bytes32",
          "name": "role",
          "type": "bytes32"
        },
        {
          "internalType": "address",
          "name": "account",
          "type": "address"
        }
      ],
      "name": "grantRole",
      "outputs": [],
      "stateMutability": "nonpayable",
      "type": "function"
    },
    {
      "inputs": [
        {
          "internalType": "bytes32",
          "name": "role",
          "type": "bytes32"
        },
        {
          "internalType": "address",
          "name": "account",
          "type": "address"
        }
      ],
      "name": "hasRole",
      "outputs": [
        {
          "internalType": "bool",
          "name": "",
          "type": "bool"
        }
      ],
      "stateMutability": "view",
      "type": "function"
    },
    {
      "inputs": [
        {
          "internalType": "bytes32",
          "name": "role",
          "type": "bytes32"
        },
        {
          "internalType": "address",
          "name": "account",
          "type": "address"
        }
      ],
      "name": "renounceRole",
      "outputs": [],
      "stateMutability": "nonpayable",
      "type": "function"
    },
    {
      "inputs": [
        {
          "internalType": "bytes32",
          "name": "role",
          "type": "bytes32"
        },
        {
          "internalType": "address",
          "name": "account",
          "type": "address"
        }
      ],
      "name": "revokeRole",
      "outputs": [],
      "stateMutability": "nonpayable",
      "type": "function"
    },
    {
      "inputs": [
        {
          "components": [
            {
              "internalType": "uint256",
              "name": "nonce",
              "type": "uint256"
            },
            {
              "internalType": "uint256",
              "name": "maxPriorityFeePerGas",
              "type": "uint256"
            },
            {
              "internalType": "uint256",
              "name": "maxFeePerGas",
              "type": "uint256"
            },
            {
              "internalType": "uint256",
              "name": "gasLimit",
              "type": "uint256"
            },
            {
              "internalType": "address",
              "name": "to",
              "type": "address"
            },
            {
              "internalType": "uint256",
              "name": "value",
              "type": "uint256"
            },
            {
              "internalType": "bytes",
              "name": "input",
              "type": "bytes"
            },
            {
              "components": [
                {
                  "internalType": "address",
                  "name": "contractAddress",
                  "type": "address"
                },
                {
                  "internalType": "bytes32[]",
                  "name": "storageKeys",
                  "type": "bytes32[]"
                }
              ],
              "internalType": "struct IForcedTransactionGateway.AccessList[]",
              "name": "accessList",
              "type": "tuple[]"
            },
            {
              "internalType": "uint8",
              "name": "yParity",
              "type": "uint8"
            },
            {
              "internalType": "uint256",
              "name": "r",
              "type": "uint256"
            },
            {
              "internalType": "uint256",
              "name": "s",
              "type": "uint256"
            }
          ],
          "internalType": "struct IForcedTransactionGateway.Eip1559Transaction",
          "name": "_forcedTransaction",
          "type": "tuple"
        },
        {
          "components": [
            {
              "internalType": "uint256",
              "name": "timestamp",
              "type": "uint256"
            },
            {
              "internalType": "uint256",
              "name": "messageNumber",
              "type": "uint256"
            },
            {
              "internalType": "bytes32",
              "name": "messageRollingHash",
              "type": "bytes32"
            },
            {
              "internalType": "uint256",
              "name": "forcedTransactionNumber",
              "type": "uint256"
            },
            {
              "internalType": "bytes32",
              "name": "forcedTransactionRollingHash",
              "type": "bytes32"
            }
          ],
          "internalType": "struct IForcedTransactionGateway.LastFinalizedState",
          "name": "_lastFinalizedState",
          "type": "tuple"
        }
      ],
      "name": "submitForcedTransaction",
      "outputs": [],
      "stateMutability": "payable",
      "type": "function"
    },
    {
      "inputs": [
        {
          "internalType": "bytes4",
          "name": "interfaceId",
          "type": "bytes4"
        }
      ],
      "name": "supportsInterface",
      "outputs": [
        {
          "internalType": "bool",
          "name": "",
          "type": "bool"
        }
      ],
      "stateMutability": "view",
      "type": "function"
    },
    {
      "inputs": [
        {
          "internalType": "bool",
          "name": "_useAddressFilter",
          "type": "bool"
        }
      ],
      "name": "toggleUseAddressFilter",
      "outputs": [],
      "stateMutability": "nonpayable",
      "type": "function"
    },
    {
      "inputs": [],
      "name": "useAddressFilter",
      "outputs": [
        {
          "internalType": "bool",
          "name": "",
          "type": "bool"
        }
      ],
      "stateMutability": "view",
      "type": "function"
    }
  ],
  "bytecode": "0x6101806040526001805460ff19168117905534801561001c575f5ffd5b5060405161256238038061256283398101604081905261003b91610275565b6001600160a01b038916610062576040516342bcdf7f60e11b815260040160405180910390fd5b875f036100825760405163273e150360e21b815260040160405180910390fd5b865f036100a25760405163273e150360e21b815260040160405180910390fd5b855f036100c25760405163273e150360e21b815260040160405180910390fd5b845f036100e25760405163273e150360e21b815260040160405180910390fd5b6001600160a01b038416610109576040516342bcdf7f60e11b815260040160405180910390fd5b6001600160a01b038316610130576040516342bcdf7f60e11b815260040160405180910390fd5b815f036101505760405163273e150360e21b815260040160405180910390fd5b805f036101705760405163273e150360e21b815260040160405180910390fd5b6001600160a01b03808a1660805260a089905260c088905261010087905261012086905283166101605260e08290526101408190526101af5f856101bd565b5050505050505050506102f3565b5f828152602081815260408083206001600160a01b038516845290915290205460ff16610256575f828152602081815260408083206001600160a01b03851684529091529020805460ff191660011790556102153390565b6001600160a01b0316816001600160a01b0316837f2f8788117e7eff1d82e926ec794901d17c78024a50270940304540a733656f0d60405160405180910390a45b5050565b80516001600160a01b0381168114610270575f5ffd5b919050565b5f5f5f5f5f5f5f5f5f6101208a8c03121561028e575f5ffd5b6102978a61025a565b60208b015160408c015160608d015160808e0151939c50919a509850965094506102c360a08b0161025a565b93506102d160c08b0161025a565b60e08b0151610100909b0151999c989b50969995989497939695949392505050565b60805160a05160c05160e051610100516101205161014051610160516121ce6103945f395f81816101ad01528181610c0a0152610d2b01525f81816101380152610e3501525f81816102bf015261073201525f818161040b01526106d401525f81816103860152610df101525f818161043e0152610dd001525f81816102330152610a2801525f81816103d8015281816108930152610eb101526121ce5ff3fe608060405260043610610123575f3560e01c8063685d7ebe116100a1578063c0d0620211610071578063e24415c511610057578063e24415c5146103c7578063e3f5aa51146103fa578063fed8e66c1461042d575f5ffd5b8063c0d0620214610375578063d547741f146103a8575f5ffd5b8063685d7ebe146102e15780638b98c2c81461030057806391d1485414610313578063a217fddf14610362575f5ffd5b80632ea02369116100f657806336568abe116100dc57806336568abe1461027657806344b6a0a3146102955780634dfbcee6146102ae575f5ffd5b80632ea02369146102225780632f2ff15d14610255575f5ffd5b80630190b3321461012757806301ffc9a71461016d5780630c6d7d8f1461019c578063248a9ca3146101f4575b5f5ffd5b348015610132575f5ffd5b5061015a7f000000000000000000000000000000000000000000000000000000000000000081565b6040519081526020015b60405180910390f35b348015610178575f5ffd5b5061018c610187366004611a40565b610460565b6040519015158152602001610164565b3480156101a7575f5ffd5b506101cf7f000000000000000000000000000000000000000000000000000000000000000081565b60405173ffffffffffffffffffffffffffffffffffffffff9091168152602001610164565b3480156101ff575f5ffd5b5061015a61020e366004611a7f565b5f9081526020819052604090206001015490565b34801561022d575f5ffd5b5061015a7f000000000000000000000000000000000000000000000000000000000000000081565b348015610260575f5ffd5b5061027461026f366004611abe565b6104f8565b005b348015610281575f5ffd5b50610274610290366004611abe565b610521565b3480156102a0575f5ffd5b5060015461018c9060ff1681565b3480156102b9575f5ffd5b5061015a7f000000000000000000000000000000000000000000000000000000000000000081565b3480156102ec575f5ffd5b506102746102fb366004611af5565b6105d9565b61027461030e366004611e00565b610692565b34801561031e575f5ffd5b5061018c61032d366004611abe565b5f9182526020828152604080842073ffffffffffffffffffffffffffffffffffffffff93909316845291905290205460ff1690565b34801561036d575f5ffd5b5061015a5f81565b348015610380575f5ffd5b5061015a7f000000000000000000000000000000000000000000000000000000000000000081565b3480156103b3575f5ffd5b506102746103c2366004611abe565b611043565b3480156103d2575f5ffd5b506101cf7f000000000000000000000000000000000000000000000000000000000000000081565b348015610405575f5ffd5b5061015a7f000000000000000000000000000000000000000000000000000000000000000081565b348015610438575f5ffd5b5061015a7f000000000000000000000000000000000000000000000000000000000000000081565b5f7fffffffff0000000000000000000000000000000000000000000000000000000082167f7965db0b0000000000000000000000000000000000000000000000000000000014806104f257507f01ffc9a7000000000000000000000000000000000000000000000000000000007fffffffff000000000000000000000000000000000000000000000000000000008316145b92915050565b5f8281526020819052604090206001015461051281611067565b61051c8383611074565b505050565b73ffffffffffffffffffffffffffffffffffffffff811633146105cb576040517f08c379a000000000000000000000000000000000000000000000000000000000815260206004820152602f60248201527f416363657373436f6e74726f6c3a2063616e206f6e6c792072656e6f756e636560448201527f20726f6c657320666f722073656c66000000000000000000000000000000000060648201526084015b60405180910390fd5b6105d58282611162565b5050565b5f6105e381611067565b600154829060ff1615158115150361062b576040517ffe56181000000000000000000000000000000000000000000000000000000000815290151560048201526024016105c2565b50600180547fffffffffffffffffffffffffffffffffffffffffffffffffffffffffffffff00168315159081179091556040519081527fa5cbbee363699ddd9598ef194472e0fdd3e27e8ee0ca91e51cbe3a3b2e1a58639060200160405180910390a15050565b615208826060015110156106d2576040517fed43c3a600000000000000000000000000000000000000000000000000000000815260040160405180910390fd5b7f000000000000000000000000000000000000000000000000000000000000000082606001511115610730576040517f9376b93b00000000000000000000000000000000000000000000000000000000815260040160405180910390fd5b7f00000000000000000000000000000000000000000000000000000000000000008260c0015151111561078f576040517f58c9825b00000000000000000000000000000000000000000000000000000000815260040160405180910390fd5b5f82602001511180156107a557505f8260400151115b8260400151836020015190916107f0576040517fad15a7b0000000000000000000000000000000000000000000000000000000008152600481019290925260248201526044016105c2565b5050604082015160208301518181111561083f576040517fe4da61af000000000000000000000000000000000000000000000000000000008152600481019290925260248201526044016105c2565b5050610100820151600160ff8216111561088b576040517fd92cff8800000000000000000000000000000000000000000000000000000000815260ff90911660048201526024016105c2565b505f5f5f5f5f7f000000000000000000000000000000000000000000000000000000000000000073ffffffffffffffffffffffffffffffffffffffff1663ee8289206040518163ffffffff1660e01b815260040160a0604051808303815f875af11580156108fb573d5f5f3e3d5ffd5b505050506040513d601f19601f8201168201806040525081019061091f9190611f0f565b945094509450945094508034148134909161096f576040517f5cf40270000000000000000000000000000000000000000000000000000000008152600481019290925260248201526044016105c2565b50506020808701516040808901516060808b01516080808d01518d518651978852978701949094529385015283015281019190915260a090208514610a22576020808701516040808901516060808b01516080808d01518d518651978852978701949094529385015283015281019190915260a0902085906040517fbc5aad11000000000000000000000000000000000000000000000000000000008152600481019290925260248201526044016105c2565b5f610a4c7f0000000000000000000000000000000000000000000000000000000000000000611217565b9050610a5b81895f0151611235565b9050610a6b818960200151611235565b9050610a7b818960400151611235565b9050610a8b818960600151611235565b608089015190915073ffffffffffffffffffffffffffffffffffffffff16610acc57610ac58160405180602001604052805f81525061128e565b9050610add565b610ada8189608001516112c5565b90505b610aeb818960a00151611235565b9050610afb818960c0015161128e565b9050610b1381610b0e8a60e001516112fc565b6113e2565b90505f610b1f82611419565b604051602001610b2f9190611f62565b6040516020818303038152906040528051906020012090505f610b6a828b6101000151601b018c61012001515f1b8d61014001515f1b611669565b50905073ffffffffffffffffffffffffffffffffffffffff8116610bba576040517f2b561add00000000000000000000000000000000000000000000000000000000815260040160405180910390fd5b60015460ff1615610dcd576040517f1d51508300000000000000000000000000000000000000000000000000000000815273ffffffffffffffffffffffffffffffffffffffff82811660048301527f00000000000000000000000000000000000000000000000000000000000000001690631d51508390602401602060405180830381865afa158015610c4f573d5f5f3e3d5ffd5b505050506040513d601f19601f82011682018060405250810190610c739190611f93565b15610caa576040517f6605edaf00000000000000000000000000000000000000000000000000000000815260040160405180910390fd5b896080015173ffffffffffffffffffffffffffffffffffffffff168173ffffffffffffffffffffffffffffffffffffffff1614610dcd5760808a01516040517f1d51508300000000000000000000000000000000000000000000000000000000815273ffffffffffffffffffffffffffffffffffffffff91821660048201527f000000000000000000000000000000000000000000000000000000000000000090911690631d51508390602401602060405180830381865afa158015610d72573d5f5f3e3d5ffd5b505050506040513d601f19601f82011682018060405250810190610d969190611f93565b15610dcd576040517f6605edaf00000000000000000000000000000000000000000000000000000000815260040160405180910390fd5b5f7f00000000000000000000000000000000000000000000000000000000000000007f00000000000000000000000000000000000000000000000000000000000000008b5f0151420381610e2357610e23611fae565b048701019050868111610e5d57610e5a7f000000000000000000000000000000000000000000000000000000000000000088612008565b90505b6101008b0151608084901c906fffffffffffffffffffffffffffffffff851690610e8b90879060ff16611235565b9550610e9c868e6101200151611235565b9550610ead868e6101400151611235565b95507f000000000000000000000000000000000000000000000000000000000000000073ffffffffffffffffffffffffffffffffffffffff1663248c61263473__$21f52c64f029e7b8ff2bccb2a7d14460c1$__63aa1e84de8e87878a8c604051602001610f5395949392919094855260208501939093526040840191909152606083015273ffffffffffffffffffffffffffffffffffffffff16608082015260a00190565b6040516020818303038152906040526040518263ffffffff1660e01b8152600401610f7e9190612049565b602060405180830381865af4158015610f99573d5f5f3e3d5ffd5b505050506040513d601f19601f82011682018060405250810190610fbd919061205b565b8787610fc88c611419565b604051602001610fd89190611f62565b6040516020818303038152906040526040518663ffffffff1660e01b81526004016110069493929190612072565b5f604051808303818588803b15801561101d575f5ffd5b505af115801561102f573d5f5f3e3d5ffd5b505050505050505050505050505050505050565b5f8281526020819052604090206001015461105d81611067565b61051c8383611162565b6110718133611733565b50565b5f8281526020818152604080832073ffffffffffffffffffffffffffffffffffffffff8516845290915290205460ff166105d5575f8281526020818152604080832073ffffffffffffffffffffffffffffffffffffffff85168452909152902080547fffffffffffffffffffffffffffffffffffffffffffffffffffffffffffffff001660011790556111043390565b73ffffffffffffffffffffffffffffffffffffffff168173ffffffffffffffffffffffffffffffffffffffff16837f2f8788117e7eff1d82e926ec794901d17c78024a50270940304540a733656f0d60405160405180910390a45050565b5f8281526020818152604080832073ffffffffffffffffffffffffffffffffffffffff8516845290915290205460ff16156105d5575f8281526020818152604080832073ffffffffffffffffffffffffffffffffffffffff8516808552925280832080547fffffffffffffffffffffffffffffffffffffffffffffffffffffffffffffff0016905551339285917ff6391f5c32d9c69d2a47ea670b442974b53935d1edc7fd64eb21e047a839171b9190a45050565b60408051602081019091525f815261122f8183611235565b50919050565b6040805160208101909152603082901b8152825181811c17602881811c80841890911b90911884528051821790528160d01c1561128757604051828152602081016040528060081b60011760281b8252505b5090919050565b6040805160208101909152600882901b600217602890811b8252835182811c1780821c80841890921b188452805182179052611287565b6040805160208101909152600882901b600417602890811b8252835182811c1780821c80841890921b188452805182179052611287565b60408051602081019091525f81525f5b825181101561122f5760408051602081019091525f81525f848381518110611336576113366120b6565b60200260200101516020015190505f5b8151811015611393576040805160208082528183019092525f916020820181803683370190505090508160051b6020018301516020820152611388848261128e565b935050600101611346565b505f6113ba8685815181106113aa576113aa6120b6565b60200260200101515f01516117cc565b90506113c681846113e2565b90506113d285826113e2565b945050505080600101905061130c565b6040805160208101909152600882901b600317602890811b8252835182811c1780821c80841890921b188452805182179052611287565b6060611644565b60018201607f821161143a5781821560071b1783536104f2565b6fffffffffffffffffffffffffffffffff821160071b82811c67ffffffffffffffff1060061b1782811c63ffffffff1060051b1782811c61ffff1060041b17600381901c9083901c60ff10176081810184535f839052601f81185182520160010192915050565b605881901b8252601582016094835392915050565b80516001830190603781116114f85782602001516080815f1a1082600114166114f057858201855360408401516021860152825201611553565b845250611553565b8060201c3d3d3e8062ffffff108161ffff10018160ff100160010160378601810160f81b855282810182810193508085602001035b81810151825260208201915084821061152d575050818160031b60f8031b855117855250505b9392505050565b5f815161156f5760c0835350600182016104f2565b60208301825b5164ffffffffff1680156115fe578051601a1a600181116115ba57806115ab576115a383835160301c611420565b925050611575565b6115a383835160301c51611420565b600281036115d2576115a3608084845160301c6114b6565b600381036115e8576115a383835160301c61155a565b506115f782825160301c6114a1565b9150611575565b50839003601f1901603781116116365760c08101845383602001518460010152836040015184602101528360010181019150506104f2565b835261155360c084806114b6565b5060405160208101611656818461155a565b90810382525f8152602001604052919050565b5f807f7fffffffffffffffffffffffffffffff5d576e7357a4501ddfe92f46681b20a083111561169e57505f9050600361172a565b604080515f8082526020820180845289905260ff881692820192909252606081018690526080810185905260019060a0016020604051602081039080840390855afa1580156116ef573d5f5f3e3d5ffd5b5050604051601f19015191505073ffffffffffffffffffffffffffffffffffffffff8116611724575f6001925092505061172a565b91505f90505b94509492505050565b5f8281526020818152604080832073ffffffffffffffffffffffffffffffffffffffff8516845290915290205460ff166105d557611770816117e4565b61177b836020611803565b60405160200161178c9291906120e3565b60408051601f19818403018152908290527f08c379a00000000000000000000000000000000000000000000000000000000082526105c291600401612049565b60408051602081019091525f815261122f81836112c5565b60606104f273ffffffffffffffffffffffffffffffffffffffff831660145b60605f61181183600261214d565b61181c906002612008565b67ffffffffffffffff81111561183457611834611b10565b6040519080825280601f01601f19166020018201604052801561185e576020820181803683370190505b5090507f3000000000000000000000000000000000000000000000000000000000000000815f81518110611894576118946120b6565b60200101907effffffffffffffffffffffffffffffffffffffffffffffffffffffffffffff191690815f1a9053507f7800000000000000000000000000000000000000000000000000000000000000816001815181106118f6576118f66120b6565b60200101907effffffffffffffffffffffffffffffffffffffffffffffffffffffffffffff191690815f1a9053505f61193084600261214d565b61193b906001612008565b90505b60018111156119d7577f303132333435363738396162636465660000000000000000000000000000000085600f166010811061197c5761197c6120b6565b1a60f81b828281518110611992576119926120b6565b60200101907effffffffffffffffffffffffffffffffffffffffffffffffffffffffffffff191690815f1a90535060049490941c936119d081612164565b905061193e565b508315611553576040517f08c379a000000000000000000000000000000000000000000000000000000000815260206004820181905260248201527f537472696e67733a20686578206c656e67746820696e73756666696369656e7460448201526064016105c2565b5f60208284031215611a50575f5ffd5b81357fffffffff0000000000000000000000000000000000000000000000000000000081168114611553575f5ffd5b5f60208284031215611a8f575f5ffd5b5035919050565b803573ffffffffffffffffffffffffffffffffffffffff81168114611ab9575f5ffd5b919050565b5f5f60408385031215611acf575f5ffd5b82359150611adf60208401611a96565b90509250929050565b8015158114611071575f5ffd5b5f60208284031215611b05575f5ffd5b813561155381611ae8565b7f4e487b71000000000000000000000000000000000000000000000000000000005f52604160045260245ffd5b6040805190810167ffffffffffffffff81118282101715611b6057611b60611b10565b60405290565b604051610160810167ffffffffffffffff81118282101715611b6057611b60611b10565b604051601f8201601f1916810167ffffffffffffffff81118282101715611bb357611bb3611b10565b604052919050565b5f82601f830112611bca575f5ffd5b813567ffffffffffffffff811115611be457611be4611b10565b611bf76020601f19601f84011601611b8a565b818152846020838601011115611c0b575f5ffd5b816020850160208301375f918101602001919091529392505050565b5f67ffffffffffffffff821115611c4057611c40611b10565b5060051b60200190565b5f82601f830112611c59575f5ffd5b8135611c6c611c6782611c27565b611b8a565b8082825260208201915060208360051b860101925085831115611c8d575f5ffd5b602085015b83811015611d7b57803567ffffffffffffffff811115611cb0575f5ffd5b86016040818903601f19011215611cc5575f5ffd5b611ccd611b3d565b611cd960208301611a96565b8152604082013567ffffffffffffffff811115611cf4575f5ffd5b60208184010192505088601f830112611d0b575f5ffd5b8135611d19611c6782611c27565b8082825260208201915060208360051b86010192508b831115611d3a575f5ffd5b6020850194505b82851015611d5c578435825260209485019490910190611d41565b8060208501525050508085525050602083019250602081019050611c92565b5095945050505050565b803560ff81168114611ab9575f5ffd5b5f60a08284031215611da5575f5ffd5b60405160a0810167ffffffffffffffff81118282101715611dc857611dc8611b10565b604090815283358252602080850135908301528381013590820152606080840135908201526080928301359281019290925250919050565b5f5f60c08385031215611e11575f5ffd5b823567ffffffffffffffff811115611e27575f5ffd5b83016101608186031215611e39575f5ffd5b611e41611b66565b81358152602080830135908201526040808301359082015260608083013590820152611e6f60808301611a96565b608082015260a0828101359082015260c082013567ffffffffffffffff811115611e97575f5ffd5b611ea387828501611bbb565b60c08301525060e082013567ffffffffffffffff811115611ec2575f5ffd5b611ece87828501611c4a565b60e083015250611ee16101008301611d85565b610100820152610120828101359082015261014091820135918101919091529150611adf8460208501611d95565b5f5f5f5f5f60a08688031215611f23575f5ffd5b5050835160208501516040860151606087015160809097015192989197509594509092509050565b5f81518060208401855e5f93019283525090919050565b7f020000000000000000000000000000000000000000000000000000000000000081525f6115536001830184611f4b565b5f60208284031215611fa3575f5ffd5b815161155381611ae8565b7f4e487b71000000000000000000000000000000000000000000000000000000005f52601260045260245ffd5b7f4e487b71000000000000000000000000000000000000000000000000000000005f52601160045260245ffd5b808201808211156104f2576104f2611fdb565b5f81518084528060208401602086015e5f602082860101526020601f19601f83011685010191505092915050565b602081525f611553602083018461201b565b5f6020828403121561206b575f5ffd5b5051919050565b84815273ffffffffffffffffffffffffffffffffffffffff84166020820152826040820152608060608201525f6120ac608083018461201b565b9695505050505050565b7f4e487b71000000000000000000000000000000000000000000000000000000005f52603260045260245ffd5b7f416363657373436f6e74726f6c3a206163636f756e742000000000000000000081525f6121146017830185611f4b565b7f206973206d697373696e6720726f6c652000000000000000000000000000000081526121446011820185611f4b565b95945050505050565b80820281158282048414176104f2576104f2611fdb565b5f8161217257612172611fdb565b507fffffffffffffffffffffffffffffffffffffffffffffffffffffffffffffffff019056fea2646970667358221220c2d37347d732185d522e62dfb39c042838a76eeb423eb391d013bba76692137564736f6c63430008210033",
  "linkReferences": {
    "src/libraries/Mimc.sol": {
      "Mimc": [
        {
          "length": 20,
          "start": 4738
        }
      ]
    }
  },
  "deployedLinkReferences": {
    "src/libraries/Mimc.sol": {
      "Mimc": [
        {
          "length": 20,
          "start": 3822
        }
      ]
    }
  }
}