{
  "_format": "hh-sol-artifact-1",
  "contractName": "GriefClaimMessage",
  "sourceName": "src/_testing/unit/messaging/GriefClaimMessage.sol",
  "abi": [
    {
      "inputs": [
        {
          "internalType": "address",
          "name": "_l1MessageServiceAddress",
          "type": "address"
        },
        {
          "internalType": "uint256",
          "name": "_spamLoopCount",
          "type": "uint256"
        }
      ],
      "stateMutability": "nonpayable",
      "type": "constructor"
    },
    {
      "inputs": [],
      "name": "spam",
      "outputs": [],
      "stateMutability": "nonpayable",
      "type": "function"
    }
  ],
  "bytecode": "0x60c0604052348015600e575f5ffd5b50604051610497380380610497833981016040819052602b916040565b6001600160a01b0390911660805260a0526075565b5f5f604083850312156050575f5ffd5b82516001600160a01b03811681146065575f5ffd5b6020939093015192949293505050565b60805160a0516104036100945f395f603b01525f606301526104035ff3fe608060405234801561000f575f5ffd5b5060043610610029575f3560e01c806347966bc21461002d575b5f5ffd5b610035610037565b005b5f5b7f0000000000000000000000000000000000000000000000000000000000000000811015610194577f000000000000000000000000000000000000000000000000000000000000000073ffffffffffffffffffffffffffffffffffffffff1661dead5f604051806101e001604052806101a681526020016102286101a691396040516024016100ca93929190610197565b604080517fffffffffffffffffffffffffffffffffffffffffffffffffffffffffffffffe08184030181529181526020820180517bffffffffffffffffffffffffffffffffffffffffffffffffffffffff167f9f3ce55a000000000000000000000000000000000000000000000000000000001790525161014b9190610211565b5f604051808303815f865af19150503d805f8114610184576040519150601f19603f3d011682016040523d82523d5f602084013e610189565b606091505b505050600101610039565b50565b73ffffffffffffffffffffffffffffffffffffffff8416815260ff83166020820152606060408201525f82518060608401528060208501608085015e5f6080828501015260807fffffffffffffffffffffffffffffffffffffffffffffffffffffffffffffffe0601f830116840101915050949350505050565b5f82518060208501845e5f92019182525091905056fe3078646561646465616464656164646561646465616464656164646561646465616464656164646561646465616464656164646561646465616464656164646561646465616464656164646561646465616464656164646561646465616464656164646561646465616464656164646561646465616464656164646561646465616464656164646561646465616464656164646561646465616464656164646561646465616464656164646561646465616464656164646561646465616464656164646561646465616464656164646561646465616464656164646561646465616464656164646561646465616464656164646561646465616464656164646561646465616464656164646561646465616464656164646561646465616464656164646561646465616464656164646561646465616464656164646561646465616464656164646561646465616464656164646561646465616464656164646561646465616464656164646561646465616464656164646561646465616464656164646561646465616464656164646561646465616464656164646561646465616464656164a264697066735822122078bc3108d0c33abe6c9d0fad2e88d71353d6cd816c4531dde5ee5b4dea4a8ac964736f6c634300081c0033",
  "linkReferences": {},
  "deployedLinkReferences": {}
}