{
  "_format": "hh-sol-artifact-1",
  "contractName": "LineaSequencerUptimeFeed",
  "sourceName": "src/operational/LineaSequencerUptimeFeed.sol",
  "abi": [
    {
      "inputs": [
        {
          "internalType": "bool",
          "name": "_initialStatus",
          "type": "bool"
        },
        {
          "internalType": "address",
          "name": "_admin",
          "type": "address"
        },
        {
          "internalType": "address",
          "name": "_feedUpdater",
          "type": "address"
        }
      ],
      "stateMutability": "nonpayable",
      "type": "constructor"
    },
    {
      "inputs": [],
      "name": "InvalidSender",
      "type": "error"
    },
    {
      "inputs": [],
      "name": "NoDataPresent",
      "type": "error"
    },
    {
      "inputs": [],
      "name": "ZeroAddressNotAllowed",
      "type": "error"
    },
    {
      "anonymous": false,
      "inputs": [
        {
          "indexed": false,
          "internalType": "address",
          "name": "user",
          "type": "address"
        }
      ],
      "name": "AddedAccess",
      "type": "event"
    },
    {
      "anonymous": false,
      "inputs": [
        {
          "indexed": true,
          "internalType": "int256",
          "name": "current",
          "type": "int256"
        },
        {
          "indexed": true,
          "internalType": "uint256",
          "name": "roundId",
          "type": "uint256"
        },
        {
          "indexed": false,
          "internalType": "uint256",
          "name": "updatedAt",
          "type": "uint256"
        }
      ],
      "name": "AnswerUpdated",
      "type": "event"
    },
    {
      "anonymous": false,
      "inputs": [],
      "name": "CheckAccessDisabled",
      "type": "event"
    },
    {
      "anonymous": false,
      "inputs": [],
      "name": "CheckAccessEnabled",
      "type": "event"
    },
    {
      "anonymous": false,
      "inputs": [
        {
          "indexed": true,
          "internalType": "uint256",
          "name": "roundId",
          "type": "uint256"
        },
        {
          "indexed": true,
          "internalType": "address",
          "name": "startedBy",
          "type": "address"
        },
        {
          "indexed": false,
          "internalType": "uint256",
          "name": "startedAt",
          "type": "uint256"
        }
      ],
      "name": "NewRound",
      "type": "event"
    },
    {
      "anonymous": false,
      "inputs": [
        {
          "indexed": true,
          "internalType": "address",
          "name": "from",
          "type": "address"
        },
        {
          "indexed": true,
          "internalType": "address",
          "name": "to",
          "type": "address"
        }
      ],
      "name": "OwnershipTransferRequested",
      "type": "event"
    },
    {
      "anonymous": false,
      "inputs": [
        {
          "indexed": true,
          "internalType": "address",
          "name": "from",
          "type": "address"
        },
        {
          "indexed": true,
          "internalType": "address",
          "name": "to",
          "type": "address"
        }
      ],
      "name": "OwnershipTransferred",
      "type": "event"
    },
    {
      "anonymous": false,
      "inputs": [
        {
          "indexed": false,
          "internalType": "address",
          "name": "user",
          "type": "address"
        }
      ],
      "name": "RemovedAccess",
      "type": "event"
    },
    {
      "anonymous": false,
      "inputs": [
        {
          "indexed": true,
          "internalType": "bytes32",
          "name": "role",
          "type": "bytes32"
        },
        {
          "indexed": true,
          "internalType": "bytes32",
          "name": "previousAdminRole",
          "type": "bytes32"
        },
        {
          "indexed": true,
          "internalType": "bytes32",
          "name": "newAdminRole",
          "type": "bytes32"
        }
      ],
      "name": "RoleAdminChanged",
      "type": "event"
    },
    {
      "anonymous": false,
      "inputs": [
        {
          "indexed": true,
          "internalType": "bytes32",
          "name": "role",
          "type": "bytes32"
        },
        {
          "indexed": true,
          "internalType": "address",
          "name": "account",
          "type": "address"
        },
        {
          "indexed": true,
          "internalType": "address",
          "name": "sender",
          "type": "address"
        }
      ],
      "name": "RoleGranted",
      "type": "event"
    },
    {
      "anonymous": false,
      "inputs": [
        {
          "indexed": true,
          "internalType": "bytes32",
          "name": "role",
          "type": "bytes32"
        },
        {
          "indexed": true,
          "internalType": "address",
          "name": "account",
          "type": "address"
        },
        {
          "indexed": true,
          "internalType": "address",
          "name": "sender",
          "type": "address"
        }
      ],
      "name": "RoleRevoked",
      "type": "event"
    },
    {
      "anonymous": false,
      "inputs": [
        {
          "indexed": false,
          "internalType": "int256",
          "name": "status",
          "type": "int256"
        },
        {
          "indexed": false,
          "internalType": "uint64",
          "name": "updatedAt",
          "type": "uint64"
        }
      ],
      "name": "RoundUpdated",
      "type": "event"
    },
    {
      "anonymous": false,
      "inputs": [
        {
          "indexed": false,
          "internalType": "bool",
          "name": "latestStatus",
          "type": "bool"
        },
        {
          "indexed": false,
          "internalType": "uint64",
          "name": "latestTimestamp",
          "type": "uint64"
        },
        {
          "indexed": false,
          "internalType": "bool",
          "name": "incomingStatus",
          "type": "bool"
        },
        {
          "indexed": false,
          "internalType": "uint64",
          "name": "incomingTimestamp",
          "type": "uint64"
        }
      ],
      "name": "UpdateIgnored",
      "type": "event"
    },
    {
      "inputs": [],
      "name": "DEFAULT_ADMIN_ROLE",
      "outputs": [
        {
          "internalType": "bytes32",
          "name": "",
          "type": "bytes32"
        }
      ],
      "stateMutability": "view",
      "type": "function"
    },
    {
      "inputs": [],
      "name": "FEED_UPDATER_ROLE",
      "outputs": [
        {
          "internalType": "bytes32",
          "name": "",
          "type": "bytes32"
        }
      ],
      "stateMutability": "view",
      "type": "function"
    },
    {
      "inputs": [],
      "name": "acceptOwnership",
      "outputs": [],
      "stateMutability": "nonpayable",
      "type": "function"
    },
    {
      "inputs": [
        {
          "internalType": "address",
          "name": "_user",
          "type": "address"
        }
      ],
      "name": "addAccess",
      "outputs": [],
      "stateMutability": "nonpayable",
      "type": "function"
    },
    {
      "inputs": [],
      "name": "checkEnabled",
      "outputs": [
        {
          "internalType": "bool",
          "name": "",
          "type": "bool"
        }
      ],
      "stateMutability": "view",
      "type": "function"
    },
    {
      "inputs": [],
      "name": "decimals",
      "outputs": [
        {
          "internalType": "uint8",
          "name": "",
          "type": "uint8"
        }
      ],
      "stateMutability": "view",
      "type": "function"
    },
    {
      "inputs": [],
      "name": "description",
      "outputs": [
        {
          "internalType": "string",
          "name": "",
          "type": "string"
        }
      ],
      "stateMutability": "view",
      "type": "function"
    },
    {
      "inputs": [],
      "name": "disableAccessCheck",
      "outputs": [],
      "stateMutability": "nonpayable",
      "type": "function"
    },
    {
      "inputs": [],
      "name": "enableAccessCheck",
      "outputs": [],
      "stateMutability": "nonpayable",
      "type": "function"
    },
    {
      "inputs": [
        {
          "internalType": "uint256",
          "name": "_roundId",
          "type": "uint256"
        }
      ],
      "name": "getAnswer",
      "outputs": [
        {
          "internalType": "int256",
          "name": "",
          "type": "int256"
        }
      ],
      "stateMutability": "view",
      "type": "function"
    },
    {
      "inputs": [
        {
          "internalType": "bytes32",
          "name": "role",
          "type": "bytes32"
        }
      ],
      "name": "getRoleAdmin",
      "outputs": [
        {
          "internalType": "bytes32",
          "name": "",
          "type": "bytes32"
        }
      ],
      "stateMutability": "view",
      "type": "function"
    },
    {
      "inputs": [
        {
          "internalType": "uint80",
          "name": "_roundId",
          "type": "uint80"
        }
      ],
      "name": "getRoundData",
      "outputs": [
        {
          "internalType": "uint80",
          "name": "roundId",
          "type": "uint80"
        },
        {
          "internalType": "int256",
          "name": "answer",
          "type": "int256"
        },
        {
          "internalType": "uint256",
          "name": "startedAt",
          "type": "uint256"
        },
        {
          "internalType": "uint256",
          "name": "updatedAt",
          "type": "uint256"
        },
        {
          "internalType": "uint80",
          "name": "answeredInRound",
          "type": "uint80"
        }
      ],
      "stateMutability": "view",
      "type": "function"
    },
    {
      "inputs": [
        {
          "internalType": "uint256",
          "name": "_roundId",
          "type": "uint256"
        }
      ],
      "name": "getTimestamp",
      "outputs": [
        {
          "internalType": "uint256",
          "name": "",
          "type": "uint256"
        }
      ],
      "stateMutability": "view",
      "type": "function"
    },
    {
      "inputs": [
        {
          "internalType": "bytes32",
          "name": "role",
          "type": "bytes32"
        },
        {
          "internalType": "address",
          "name": "account",
          "type": "address"
        }
      ],
      "name": "grantRole",
      "outputs": [],
      "stateMutability": "nonpayable",
      "type": "function"
    },
    {
      "inputs": [
        {
          "internalType": "address",
          "name": "_user",
          "type": "address"
        },
        {
          "internalType": "bytes",
          "name": "_calldata",
          "type": "bytes"
        }
      ],
      "name": "hasAccess",
      "outputs": [
        {
          "internalType": "bool",
          "name": "",
          "type": "bool"
        }
      ],
      "stateMutability": "view",
      "type": "function"
    },
    {
      "inputs": [
        {
          "internalType": "bytes32",
          "name": "role",
          "type": "bytes32"
        },
        {
          "internalType": "address",
          "name": "account",
          "type": "address"
        }
      ],
      "name": "hasRole",
      "outputs": [
        {
          "internalType": "bool",
          "name": "",
          "type": "bool"
        }
      ],
      "stateMutability": "view",
      "type": "function"
    },
    {
      "inputs": [],
      "name": "latestAnswer",
      "outputs": [
        {
          "internalType": "int256",
          "name": "",
          "type": "int256"
        }
      ],
      "stateMutability": "view",
      "type": "function"
    },
    {
      "inputs": [],
      "name": "latestRound",
      "outputs": [
        {
          "internalType": "uint256",
          "name": "",
          "type": "uint256"
        }
      ],
      "stateMutability": "view",
      "type": "function"
    },
    {
      "inputs": [],
      "name": "latestRoundData",
      "outputs": [
        {
          "internalType": "uint80",
          "name": "roundId",
          "type": "uint80"
        },
        {
          "internalType": "int256",
          "name": "answer",
          "type": "int256"
        },
        {
          "internalType": "uint256",
          "name": "startedAt",
          "type": "uint256"
        },
        {
          "internalType": "uint256",
          "name": "updatedAt",
          "type": "uint256"
        },
        {
          "internalType": "uint80",
          "name": "answeredInRound",
          "type": "uint80"
        }
      ],
      "stateMutability": "view",
      "type": "function"
    },
    {
      "inputs": [],
      "name": "latestTimestamp",
      "outputs": [
        {
          "internalType": "uint256",
          "name": "",
          "type": "uint256"
        }
      ],
      "stateMutability": "view",
      "type": "function"
    },
    {
      "inputs": [],
      "name": "owner",
      "outputs": [
        {
          "internalType": "address",
          "name": "",
          "type": "address"
        }
      ],
      "stateMutability": "view",
      "type": "function"
    },
    {
      "inputs": [
        {
          "internalType": "address",
          "name": "_user",
          "type": "address"
        }
      ],
      "name": "removeAccess",
      "outputs": [],
      "stateMutability": "nonpayable",
      "type": "function"
    },
    {
      "inputs": [
        {
          "internalType": "bytes32",
          "name": "role",
          "type": "bytes32"
        },
        {
          "internalType": "address",
          "name": "account",
          "type": "address"
        }
      ],
      "name": "renounceRole",
      "outputs": [],
      "stateMutability": "nonpayable",
      "type": "function"
    },
    {
      "inputs": [
        {
          "internalType": "bytes32",
          "name": "role",
          "type": "bytes32"
        },
        {
          "internalType": "address",
          "name": "account",
          "type": "address"
        }
      ],
      "name": "revokeRole",
      "outputs": [],
      "stateMutability": "nonpayable",
      "type": "function"
    },
    {
      "inputs": [
        {
          "internalType": "bytes4",
          "name": "interfaceId",
          "type": "bytes4"
        }
      ],
      "name": "supportsInterface",
      "outputs": [
        {
          "internalType": "bool",
          "name": "",
          "type": "bool"
        }
      ],
      "stateMutability": "view",
      "type": "function"
    },
    {
      "inputs": [
        {
          "internalType": "address",
          "name": "to",
          "type": "address"
        }
      ],
      "name": "transferOwnership",
      "outputs": [],
      "stateMutability": "nonpayable",
      "type": "function"
    },
    {
      "inputs": [],
      "name": "typeAndVersion",
      "outputs": [
        {
          "internalType": "string",
          "name": "",
          "type": "string"
        }
      ],
      "stateMutability": "pure",
      "type": "function"
    },
    {
      "inputs": [
        {
          "internalType": "bool",
          "name": "_status",
          "type": "bool"
        },
        {
          "internalType": "uint64",
          "name": "_timestamp",
          "type": "uint64"
        }
      ],
      "name": "updateStatus",
      "outputs": [],
      "stateMutability": "nonpayable",
      "type": "function"
    },
    {
      "inputs": [],
      "name": "version",
      "outputs": [
        {
          "internalType": "uint256",
          "name": "",
          "type": "uint256"
        }
      ],
      "stateMutability": "view",
      "type": "function"
    }
  ],
  "bytecode": "0x6101006040526000608081905260a081905260c081905260e052600480546001600160d81b031916905534801561003557600080fd5b5060405161252838038061252883398101604081905261005491610493565b33806000816100aa5760405162461bcd60e51b815260206004820152601860248201527f43616e6e6f7420736574206f776e657220746f207a65726f000000000000000060448201526064015b60405180910390fd5b600080546001600160a01b0319166001600160a01b03848116919091179091558116156100da576100da81610189565b50506001805460ff60a01b1916600160a01b179055506001600160a01b038216610117576040516342bcdf7f60e11b815260040160405180910390fd5b6001600160a01b03811661013e576040516342bcdf7f60e11b815260040160405180910390fd5b4261014b60018583610232565b6101566000846103bd565b6101807f2a5eaae4dcc5567b2220ea5152021b46b5fb6cffc0f3a2f4eeb192fcd2fde452836103bd565b505050506104dd565b336001600160a01b038216036101e15760405162461bcd60e51b815260206004820152601760248201527f43616e6e6f74207472616e7366657220746f2073656c6600000000000000000060448201526064016100a1565b600180546001600160a01b0319166001600160a01b0383811691821790925560008054604051929316917fed8889f560326eb138920d842192f0eb3dd22b4f139c87a2c57538e05bae12789190a350565b60408051606080820183526001600160401b0384811680845242821660208086018281528915158789018181526001600160501b038d166000818152600586528b902099518a54945192519089166001600160801b0319909516949094176801000000000000000092909816919091029690961760ff60801b1916600160801b92151592909202919091179096558651608081018852848152808201879052808801849052909401819052600480546001600160581b03191684176a010000000000000000000090960295909517600160581b600160d81b0319166b0100000000000000000000008302600160981b600160d81b03191617600160981b9091021790935592519182523392917f0109fc6f55cf40689f02fbaad7af7fe7bbac8a3d2186600afc7d3e10cac60271910160405180910390a36001600160501b03831661037c83610460565b6040516001600160401b03841681527f0559884fd3a460db3073b7fc896cc77986f16e378210ded43186175bf646fc5f9060200160405180910390a3505050565b60008281526003602090815260408083206001600160a01b038516845290915290205460ff1661045c5760008281526003602090815260408083206001600160a01b03851684529091529020805460ff1916600117905561041b3390565b6001600160a01b0316816001600160a01b0316837f2f8788117e7eff1d82e926ec794901d17c78024a50270940304540a733656f0d60405160405180910390a45b5050565b60008161046e576000610471565b60015b92915050565b80516001600160a01b038116811461048e57600080fd5b919050565b6000806000606084860312156104a857600080fd5b835180151581146104b857600080fd5b92506104c660208501610477565b91506104d460408501610477565b90509250925092565b61203c806104ec6000396000f3fe608060405234801561001057600080fd5b50600436106101cf5760003560e01c80638205bf6a11610104578063b5ab58dc116100a2578063e26d7cbb11610071578063e26d7cbb1461047c578063ed8378f5146104a3578063f2fde38b146104b6578063feaf968c146104c957600080fd5b8063b5ab58dc1461041e578063b633620c14610431578063d547741f14610444578063dc7f01241461045757600080fd5b806391d14854116100de57806391d14854146103735780639a6fc8f5146103b9578063a118f24914610403578063a217fddf1461041657600080fd5b80638205bf6a146103305780638823da6c146103385780638da5cb5b1461034b57600080fd5b806350d25bcd116101715780636b14daf81161014b5780636b14daf8146102d15780637284e416146102e457806379ba5097146103205780638038e4a11461032857600080fd5b806350d25bcd146102b957806354fd4d50146102c1578063668a0f02146102c957600080fd5b8063248a9ca3116101ad578063248a9ca3146102485780632f2ff15d14610279578063313ce5671461028c57806336568abe146102a657600080fd5b806301ffc9a7146101d45780630a756983146101fc578063181f5a7714610206575b600080fd5b6101e76101e2366004611bbe565b6104d1565b60405190151581526020015b60405180910390f35b61020461056a565b005b60408051808201909152601e81527f4c696e656153657175656e636572557074696d654665656420312e302e30000060208201525b6040516101f39190611c24565b61026b610256366004611c75565b60009081526003602052604090206001015490565b6040519081526020016101f3565b610204610287366004611cb2565b6105e9565b610294600081565b60405160ff90911681526020016101f3565b6102046102b4366004611cb2565b610613565b61026b6106b1565b61026b600181565b61026b610762565b6101e76102df366004611d0d565b610804565b61023b6040518060400160405280601f81526020017f4c322053657175656e63657220557074696d652053746174757320466565640081525081565b610204610837565b61020461091a565b61026b6109ae565b610204610346366004611e14565b610a65565b60005460405173ffffffffffffffffffffffffffffffffffffffff90911681526020016101f3565b6101e7610381366004611cb2565b600091825260036020908152604080842073ffffffffffffffffffffffffffffffffffffffff93909316845291905290205460ff1690565b6103cc6103c7366004611e2f565b610b1f565b6040805169ffffffffffffffffffff968716815260208101959095528401929092526060830152909116608082015260a0016101f3565b610204610411366004611e14565b610c6b565b61026b600081565b61026b61042c366004611c75565b610d1f565b61026b61043f366004611c75565b610e2e565b610204610452366004611cb2565b610f25565b6001546101e79074010000000000000000000000000000000000000000900460ff1681565b61026b7f2a5eaae4dcc5567b2220ea5152021b46b5fb6cffc0f3a2f4eeb192fcd2fde45281565b6102046104b1366004611e5b565b610f4a565b6102046104c4366004611e14565b6110c0565b6103cc6110d1565b60007fffffffff0000000000000000000000000000000000000000000000000000000082167f7965db0b00000000000000000000000000000000000000000000000000000000148061056457507f01ffc9a7000000000000000000000000000000000000000000000000000000007fffffffff000000000000000000000000000000000000000000000000000000008316145b92915050565b6105726111d7565b60015474010000000000000000000000000000000000000000900460ff16156105e757600180547fffffffffffffffffffffff00ffffffffffffffffffffffffffffffffffffffff1690556040517f3be8a977a014527b50ae38adda80b56911c267328965c98ddc385d248f53963890600090a15b565b6000828152600360205260409020600101546106048161123e565b61060e8383611248565b505050565b73ffffffffffffffffffffffffffffffffffffffff811633146106a35760405162461bcd60e51b815260206004820152602f60248201527f416363657373436f6e74726f6c3a2063616e206f6e6c792072656e6f756e636560448201527f20726f6c657320666f722073656c66000000000000000000000000000000000060648201526084015b60405180910390fd5b6106ad828261133c565b5050565b60006106f4336000368080601f01602080910402602001604051908101604052809392919081815260200183838082843760009201919091525061080492505050565b6107405760405162461bcd60e51b815260206004820152600960248201527f4e6f206163636573730000000000000000000000000000000000000000000000604482015260640161069a565b60045461075d906a0100000000000000000000900460ff166113f7565b905090565b60006107a5336000368080601f01602080910402602001604051908101604052809392919081815260200183838082843760009201919091525061080492505050565b6107f15760405162461bcd60e51b815260206004820152600960248201527f4e6f206163636573730000000000000000000000000000000000000000000000604482015260640161069a565b5060045469ffffffffffffffffffff1690565b6000610810838361140d565b80610830575073ffffffffffffffffffffffffffffffffffffffff831632145b9392505050565b60015473ffffffffffffffffffffffffffffffffffffffff16331461089e5760405162461bcd60e51b815260206004820152601660248201527f4d7573742062652070726f706f736564206f776e657200000000000000000000604482015260640161069a565b60008054337fffffffffffffffffffffffff00000000000000000000000000000000000000008083168217845560018054909116905560405173ffffffffffffffffffffffffffffffffffffffff90921692909183917f8be0079c531659141344cd1fd0a4f28419497f9722a3daafe3b4186f6b6457e091a350565b6109226111d7565b60015474010000000000000000000000000000000000000000900460ff166105e757600180547fffffffffffffffffffffff00ffffffffffffffffffffffffffffffffffffffff16740100000000000000000000000000000000000000001790556040517faebf329500988c6488a0074e5a0a9ff304561fc5c6fc877aeb1d59c8282c348090600090a1565b60006109f1336000368080601f01602080910402602001604051908101604052809392919081815260200183838082843760009201919091525061080492505050565b610a3d5760405162461bcd60e51b815260206004820152600960248201527f4e6f206163636573730000000000000000000000000000000000000000000000604482015260640161069a565b50600454730100000000000000000000000000000000000000900467ffffffffffffffff1690565b610a6d6111d7565b73ffffffffffffffffffffffffffffffffffffffff811660009081526002602052604090205460ff1615610b1c5773ffffffffffffffffffffffffffffffffffffffff811660008181526002602090815260409182902080547fffffffffffffffffffffffffffffffffffffffffffffffffffffffffffffff0016905590519182527f3d68a6fce901d20453d1a7aa06bf3950302a735948037deb182a8db66df2a0d191015b60405180910390a15b50565b6000806000806000610b68336000368080601f01602080910402602001604051908101604052809392919081815260200183838082843760009201919091525061080492505050565b610bb45760405162461bcd60e51b815260206004820152600960248201527f4e6f206163636573730000000000000000000000000000000000000000000000604482015260640161069a565b610bc98669ffffffffffffffffffff16611462565b610bff576040517fbb25870000000000000000000000000000000000000000000000000000000000815260040160405180910390fd5b69ffffffffffffffffffff8616600090815260056020526040902080548790610c3e90700100000000000000000000000000000000900460ff166113f7565b91549098919767ffffffffffffffff80831698506801000000000000000090920490911695509350915050565b610c736111d7565b73ffffffffffffffffffffffffffffffffffffffff811660009081526002602052604090205460ff16610b1c5773ffffffffffffffffffffffffffffffffffffffff811660008181526002602090815260409182902080547fffffffffffffffffffffffffffffffffffffffffffffffffffffffffffffff0016600117905590519182527f87286ad1f399c8e82bf0c4ef4fcdc570ea2e1e92176e5c848b6413545b885db49101610b13565b6000610d62336000368080601f01602080910402602001604051908101604052809392919081815260200183838082843760009201919091525061080492505050565b610dae5760405162461bcd60e51b815260206004820152600960248201527f4e6f206163636573730000000000000000000000000000000000000000000000604482015260640161069a565b610db782611462565b610ded576040517fbb25870000000000000000000000000000000000000000000000000000000000815260040160405180910390fd5b69ffffffffffffffffffff821660009081526005602052604090205461056490700100000000000000000000000000000000900460ff166113f7565b919050565b6000610e71336000368080601f01602080910402602001604051908101604052809392919081815260200183838082843760009201919091525061080492505050565b610ebd5760405162461bcd60e51b815260206004820152600960248201527f4e6f206163636573730000000000000000000000000000000000000000000000604482015260640161069a565b610ec682611462565b610efc576040517fbb25870000000000000000000000000000000000000000000000000000000000815260040160405180910390fd5b5069ffffffffffffffffffff1660009081526005602052604090205467ffffffffffffffff1690565b600082815260036020526040902060010154610f408161123e565b61060e838361133c565b610f5333611499565b610f89576040517fddb5de5e00000000000000000000000000000000000000000000000000000000815260040160405180910390fd5b6040805160808101825260045469ffffffffffffffffffff8116825260ff6a01000000000000000000008204161515602083015267ffffffffffffffff6b010000000000000000000000820481169383018490527301000000000000000000000000000000000000009091048116606083015290919083161015611076577fe4a6e16301740042c17431042adb8f60454c18fb5934dd4c456269c0dc388fdf8160200151826040015185856040516110699493929190931515845267ffffffffffffffff9283166020850152901515604084015216606082015260800190565b60405180910390a1505050565b821515816020015115150361109157805161060e90846114e6565b6001816000018181516110a49190611ed5565b69ffffffffffffffffffff16905250805161060e9084846115d6565b6110c86111d7565b610b1c816117fb565b600080600080600061111a336000368080601f01602080910402602001604051908101604052809392919081815260200183838082843760009201919091525061080492505050565b6111665760405162461bcd60e51b815260206004820152600960248201527f4e6f206163636573730000000000000000000000000000000000000000000000604482015260640161069a565b6004805469ffffffffffffffffffff81169650611193906a0100000000000000000000900460ff166113f7565b90549596909567ffffffffffffffff6b0100000000000000000000008204811696507301000000000000000000000000000000000000009091041693508692509050565b60005473ffffffffffffffffffffffffffffffffffffffff1633146105e75760405162461bcd60e51b815260206004820152601660248201527f4f6e6c792063616c6c61626c65206279206f776e657200000000000000000000604482015260640161069a565b610b1c81336118d6565b600082815260036020908152604080832073ffffffffffffffffffffffffffffffffffffffff8516845290915290205460ff166106ad57600082815260036020908152604080832073ffffffffffffffffffffffffffffffffffffffff85168452909152902080547fffffffffffffffffffffffffffffffffffffffffffffffffffffffffffffff001660011790556112de3390565b73ffffffffffffffffffffffffffffffffffffffff168173ffffffffffffffffffffffffffffffffffffffff16837f2f8788117e7eff1d82e926ec794901d17c78024a50270940304540a733656f0d60405160405180910390a45050565b600082815260036020908152604080832073ffffffffffffffffffffffffffffffffffffffff8516845290915290205460ff16156106ad57600082815260036020908152604080832073ffffffffffffffffffffffffffffffffffffffff8516808552925280832080547fffffffffffffffffffffffffffffffffffffffffffffffffffffffffffffff0016905551339285917ff6391f5c32d9c69d2a47ea670b442974b53935d1edc7fd64eb21e047a839171b9190a45050565b600081611405576000610564565b600192915050565b73ffffffffffffffffffffffffffffffffffffffff821660009081526002602052604081205460ff168061083057505060015474010000000000000000000000000000000000000000900460ff161592915050565b6000808211801561147d575069ffffffffffffffffffff8211155b801561056457505060045469ffffffffffffffffffff16101590565b73ffffffffffffffffffffffffffffffffffffffff811660009081527fcd517eabc31c1833a7801217d7f33cfb459f04d23750dde425dd1010b0fd584b602052604081205460ff16610564565b69ffffffffffffffffffff8216600090815260056020526040902080547fffffffffffffffffffffffffffffffff0000000000000000ffffffffffffffff16680100000000000000004267ffffffffffffffff1690810291909117909155600480547fffffffffff0000000000000000ffffffffffffffffffffffffffffffffffffff167301000000000000000000000000000000000000009092029190911790557f297642343ed2faefb1a411b39fc449eae700e54223d5d0499a9421eb6f68f66a6115b2826113f7565b6040805191825267ffffffffffffffff421660208301520160405180910390a15050565b604080516060808201835267ffffffffffffffff848116808452428216602080860182815289151587890181815269ffffffffffffffffffff8d166000818152600586528b902099518a54945192519089167fffffffffffffffffffffffffffffffff0000000000000000000000000000000090951694909417680100000000000000009290981691909102969096177fffffffffffffffffffffffffffffff00ffffffffffffffffffffffffffffffff1670010000000000000000000000000000000092151592909202919091179096558651608081018852848152808201879052808801849052909401819052600480547fffffffffffffffffffffffffffffffffffffffffff00000000000000000000001684176a0100000000000000000000909602959095177fffffffffff00000000000000000000000000000000ffffffffffffffffffffff166b01000000000000000000000083027fffffffffff0000000000000000ffffffffffffffffffffffffffffffffffffff16177301000000000000000000000000000000000000009091021790935592519182523392917f0109fc6f55cf40689f02fbaad7af7fe7bbac8a3d2186600afc7d3e10cac60271910160405180910390a38269ffffffffffffffffffff166117b9836113f7565b60405167ffffffffffffffff841681527f0559884fd3a460db3073b7fc896cc77986f16e378210ded43186175bf646fc5f9060200160405180910390a3505050565b3373ffffffffffffffffffffffffffffffffffffffff8216036118605760405162461bcd60e51b815260206004820152601760248201527f43616e6e6f74207472616e7366657220746f2073656c66000000000000000000604482015260640161069a565b600180547fffffffffffffffffffffffff00000000000000000000000000000000000000001673ffffffffffffffffffffffffffffffffffffffff83811691821790925560008054604051929316917fed8889f560326eb138920d842192f0eb3dd22b4f139c87a2c57538e05bae12789190a350565b600082815260036020908152604080832073ffffffffffffffffffffffffffffffffffffffff8516845290915290205460ff166106ad5761191681611976565b611921836020611995565b604051602001611932929190611ef7565b604080517fffffffffffffffffffffffffffffffffffffffffffffffffffffffffffffffe08184030181529082905262461bcd60e51b825261069a91600401611c24565b606061056473ffffffffffffffffffffffffffffffffffffffff831660145b606060006119a4836002611f78565b6119af906002611f8f565b67ffffffffffffffff8111156119c7576119c7611cde565b6040519080825280601f01601f1916602001820160405280156119f1576020820181803683370190505b5090507f300000000000000000000000000000000000000000000000000000000000000081600081518110611a2857611a28611fa2565b60200101907effffffffffffffffffffffffffffffffffffffffffffffffffffffffffffff1916908160001a9053507f780000000000000000000000000000000000000000000000000000000000000081600181518110611a8b57611a8b611fa2565b60200101907effffffffffffffffffffffffffffffffffffffffffffffffffffffffffffff1916908160001a9053506000611ac7846002611f78565b611ad2906001611f8f565b90505b6001811115611b6f577f303132333435363738396162636465660000000000000000000000000000000085600f1660108110611b1357611b13611fa2565b1a60f81b828281518110611b2957611b29611fa2565b60200101907effffffffffffffffffffffffffffffffffffffffffffffffffffffffffffff1916908160001a90535060049490941c93611b6881611fd1565b9050611ad5565b5083156108305760405162461bcd60e51b815260206004820181905260248201527f537472696e67733a20686578206c656e67746820696e73756666696369656e74604482015260640161069a565b600060208284031215611bd057600080fd5b81357fffffffff000000000000000000000000000000000000000000000000000000008116811461083057600080fd5b60005b83811015611c1b578181015183820152602001611c03565b50506000910152565b6020815260008251806020840152611c43816040850160208701611c00565b601f017fffffffffffffffffffffffffffffffffffffffffffffffffffffffffffffffe0169190910160400192915050565b600060208284031215611c8757600080fd5b5035919050565b803573ffffffffffffffffffffffffffffffffffffffff81168114610e2957600080fd5b60008060408385031215611cc557600080fd5b82359150611cd560208401611c8e565b90509250929050565b7f4e487b7100000000000000000000000000000000000000000000000000000000600052604160045260246000fd5b60008060408385031215611d2057600080fd5b611d2983611c8e565b9150602083013567ffffffffffffffff811115611d4557600080fd5b8301601f81018513611d5657600080fd5b803567ffffffffffffffff811115611d7057611d70611cde565b6040517fffffffffffffffffffffffffffffffffffffffffffffffffffffffffffffffe0603f7fffffffffffffffffffffffffffffffffffffffffffffffffffffffffffffffe0601f8501160116810181811067ffffffffffffffff82111715611ddc57611ddc611cde565b604052818152828201602001871015611df457600080fd5b816020840160208301376000602083830101528093505050509250929050565b600060208284031215611e2657600080fd5b61083082611c8e565b600060208284031215611e4157600080fd5b813569ffffffffffffffffffff8116811461083057600080fd5b60008060408385031215611e6e57600080fd5b82358015158114611e7e57600080fd5b9150602083013567ffffffffffffffff81168114611e9b57600080fd5b809150509250929050565b7f4e487b7100000000000000000000000000000000000000000000000000000000600052601160045260246000fd5b69ffffffffffffffffffff818116838216019081111561056457610564611ea6565b7f416363657373436f6e74726f6c3a206163636f756e7420000000000000000000815260008351611f2f816017850160208801611c00565b7f206973206d697373696e6720726f6c65200000000000000000000000000000006017918401918201528351611f6c816028840160208801611c00565b01602801949350505050565b808202811582820484141761056457610564611ea6565b8082018082111561056457610564611ea6565b7f4e487b7100000000000000000000000000000000000000000000000000000000600052603260045260246000fd5b600081611fe057611fe0611ea6565b507fffffffffffffffffffffffffffffffffffffffffffffffffffffffffffffffff019056fea26469706673582212205ded5958904aba9cb26ca4ae81959517a0937d66dd7a3a978c4a5a58a56dab5764736f6c634300081e0033",
  "linkReferences": {},
  "deployedLinkReferences": {}
}