{
  "_format": "hh-sol-artifact-1",
  "contractName": "LineaSequencerUptimeFeed",
  "sourceName": "src/operational/LineaSequencerUptimeFeed.sol",
  "abi": [
    {
      "inputs": [
        {
          "internalType": "bool",
          "name": "_initialStatus",
          "type": "bool"
        },
        {
          "internalType": "address",
          "name": "_admin",
          "type": "address"
        },
        {
          "internalType": "address",
          "name": "_feedUpdater",
          "type": "address"
        }
      ],
      "stateMutability": "nonpayable",
      "type": "constructor"
    },
    {
      "inputs": [],
      "name": "InvalidSender",
      "type": "error"
    },
    {
      "inputs": [],
      "name": "NoDataPresent",
      "type": "error"
    },
    {
      "inputs": [],
      "name": "ZeroAddressNotAllowed",
      "type": "error"
    },
    {
      "anonymous": false,
      "inputs": [
        {
          "indexed": false,
          "internalType": "address",
          "name": "user",
          "type": "address"
        }
      ],
      "name": "AddedAccess",
      "type": "event"
    },
    {
      "anonymous": false,
      "inputs": [
        {
          "indexed": true,
          "internalType": "int256",
          "name": "current",
          "type": "int256"
        },
        {
          "indexed": true,
          "internalType": "uint256",
          "name": "roundId",
          "type": "uint256"
        },
        {
          "indexed": false,
          "internalType": "uint256",
          "name": "updatedAt",
          "type": "uint256"
        }
      ],
      "name": "AnswerUpdated",
      "type": "event"
    },
    {
      "anonymous": false,
      "inputs": [],
      "name": "CheckAccessDisabled",
      "type": "event"
    },
    {
      "anonymous": false,
      "inputs": [],
      "name": "CheckAccessEnabled",
      "type": "event"
    },
    {
      "anonymous": false,
      "inputs": [
        {
          "indexed": true,
          "internalType": "address",
          "name": "from",
          "type": "address"
        },
        {
          "indexed": true,
          "internalType": "address",
          "name": "to",
          "type": "address"
        }
      ],
      "name": "L1SenderTransferred",
      "type": "event"
    },
    {
      "anonymous": false,
      "inputs": [
        {
          "indexed": true,
          "internalType": "uint256",
          "name": "roundId",
          "type": "uint256"
        },
        {
          "indexed": true,
          "internalType": "address",
          "name": "startedBy",
          "type": "address"
        },
        {
          "indexed": false,
          "internalType": "uint256",
          "name": "startedAt",
          "type": "uint256"
        }
      ],
      "name": "NewRound",
      "type": "event"
    },
    {
      "anonymous": false,
      "inputs": [
        {
          "indexed": true,
          "internalType": "address",
          "name": "from",
          "type": "address"
        },
        {
          "indexed": true,
          "internalType": "address",
          "name": "to",
          "type": "address"
        }
      ],
      "name": "OwnershipTransferRequested",
      "type": "event"
    },
    {
      "anonymous": false,
      "inputs": [
        {
          "indexed": true,
          "internalType": "address",
          "name": "from",
          "type": "address"
        },
        {
          "indexed": true,
          "internalType": "address",
          "name": "to",
          "type": "address"
        }
      ],
      "name": "OwnershipTransferred",
      "type": "event"
    },
    {
      "anonymous": false,
      "inputs": [
        {
          "indexed": false,
          "internalType": "address",
          "name": "user",
          "type": "address"
        }
      ],
      "name": "RemovedAccess",
      "type": "event"
    },
    {
      "anonymous": false,
      "inputs": [
        {
          "indexed": true,
          "internalType": "bytes32",
          "name": "role",
          "type": "bytes32"
        },
        {
          "indexed": true,
          "internalType": "bytes32",
          "name": "previousAdminRole",
          "type": "bytes32"
        },
        {
          "indexed": true,
          "internalType": "bytes32",
          "name": "newAdminRole",
          "type": "bytes32"
        }
      ],
      "name": "RoleAdminChanged",
      "type": "event"
    },
    {
      "anonymous": false,
      "inputs": [
        {
          "indexed": true,
          "internalType": "bytes32",
          "name": "role",
          "type": "bytes32"
        },
        {
          "indexed": true,
          "internalType": "address",
          "name": "account",
          "type": "address"
        },
        {
          "indexed": true,
          "internalType": "address",
          "name": "sender",
          "type": "address"
        }
      ],
      "name": "RoleGranted",
      "type": "event"
    },
    {
      "anonymous": false,
      "inputs": [
        {
          "indexed": true,
          "internalType": "bytes32",
          "name": "role",
          "type": "bytes32"
        },
        {
          "indexed": true,
          "internalType": "address",
          "name": "account",
          "type": "address"
        },
        {
          "indexed": true,
          "internalType": "address",
          "name": "sender",
          "type": "address"
        }
      ],
      "name": "RoleRevoked",
      "type": "event"
    },
    {
      "anonymous": false,
      "inputs": [
        {
          "indexed": false,
          "internalType": "int256",
          "name": "status",
          "type": "int256"
        },
        {
          "indexed": false,
          "internalType": "uint64",
          "name": "updatedAt",
          "type": "uint64"
        }
      ],
      "name": "RoundUpdated",
      "type": "event"
    },
    {
      "anonymous": false,
      "inputs": [
        {
          "indexed": false,
          "internalType": "bool",
          "name": "latestStatus",
          "type": "bool"
        },
        {
          "indexed": false,
          "internalType": "uint64",
          "name": "latestTimestamp",
          "type": "uint64"
        },
        {
          "indexed": false,
          "internalType": "bool",
          "name": "incomingStatus",
          "type": "bool"
        },
        {
          "indexed": false,
          "internalType": "uint64",
          "name": "incomingTimestamp",
          "type": "uint64"
        }
      ],
      "name": "UpdateIgnored",
      "type": "event"
    },
    {
      "inputs": [],
      "name": "DEFAULT_ADMIN_ROLE",
      "outputs": [
        {
          "internalType": "bytes32",
          "name": "",
          "type": "bytes32"
        }
      ],
      "stateMutability": "view",
      "type": "function"
    },
    {
      "inputs": [],
      "name": "FEED_UPDATER_ROLE",
      "outputs": [
        {
          "internalType": "bytes32",
          "name": "",
          "type": "bytes32"
        }
      ],
      "stateMutability": "view",
      "type": "function"
    },
    {
      "inputs": [],
      "name": "acceptOwnership",
      "outputs": [],
      "stateMutability": "nonpayable",
      "type": "function"
    },
    {
      "inputs": [
        {
          "internalType": "address",
          "name": "_user",
          "type": "address"
        }
      ],
      "name": "addAccess",
      "outputs": [],
      "stateMutability": "nonpayable",
      "type": "function"
    },
    {
      "inputs": [],
      "name": "checkEnabled",
      "outputs": [
        {
          "internalType": "bool",
          "name": "",
          "type": "bool"
        }
      ],
      "stateMutability": "view",
      "type": "function"
    },
    {
      "inputs": [],
      "name": "decimals",
      "outputs": [
        {
          "internalType": "uint8",
          "name": "",
          "type": "uint8"
        }
      ],
      "stateMutability": "view",
      "type": "function"
    },
    {
      "inputs": [],
      "name": "description",
      "outputs": [
        {
          "internalType": "string",
          "name": "",
          "type": "string"
        }
      ],
      "stateMutability": "view",
      "type": "function"
    },
    {
      "inputs": [],
      "name": "disableAccessCheck",
      "outputs": [],
      "stateMutability": "nonpayable",
      "type": "function"
    },
    {
      "inputs": [],
      "name": "enableAccessCheck",
      "outputs": [],
      "stateMutability": "nonpayable",
      "type": "function"
    },
    {
      "inputs": [
        {
          "internalType": "uint256",
          "name": "roundId",
          "type": "uint256"
        }
      ],
      "name": "getAnswer",
      "outputs": [
        {
          "internalType": "int256",
          "name": "",
          "type": "int256"
        }
      ],
      "stateMutability": "view",
      "type": "function"
    },
    {
      "inputs": [
        {
          "internalType": "bytes32",
          "name": "role",
          "type": "bytes32"
        }
      ],
      "name": "getRoleAdmin",
      "outputs": [
        {
          "internalType": "bytes32",
          "name": "",
          "type": "bytes32"
        }
      ],
      "stateMutability": "view",
      "type": "function"
    },
    {
      "inputs": [
        {
          "internalType": "uint80",
          "name": "_roundId",
          "type": "uint80"
        }
      ],
      "name": "getRoundData",
      "outputs": [
        {
          "internalType": "uint80",
          "name": "roundId",
          "type": "uint80"
        },
        {
          "internalType": "int256",
          "name": "answer",
          "type": "int256"
        },
        {
          "internalType": "uint256",
          "name": "startedAt",
          "type": "uint256"
        },
        {
          "internalType": "uint256",
          "name": "updatedAt",
          "type": "uint256"
        },
        {
          "internalType": "uint80",
          "name": "answeredInRound",
          "type": "uint80"
        }
      ],
      "stateMutability": "view",
      "type": "function"
    },
    {
      "inputs": [
        {
          "internalType": "uint256",
          "name": "roundId",
          "type": "uint256"
        }
      ],
      "name": "getTimestamp",
      "outputs": [
        {
          "internalType": "uint256",
          "name": "",
          "type": "uint256"
        }
      ],
      "stateMutability": "view",
      "type": "function"
    },
    {
      "inputs": [
        {
          "internalType": "bytes32",
          "name": "role",
          "type": "bytes32"
        },
        {
          "internalType": "address",
          "name": "account",
          "type": "address"
        }
      ],
      "name": "grantRole",
      "outputs": [],
      "stateMutability": "nonpayable",
      "type": "function"
    },
    {
      "inputs": [
        {
          "internalType": "address",
          "name": "_user",
          "type": "address"
        },
        {
          "internalType": "bytes",
          "name": "_calldata",
          "type": "bytes"
        }
      ],
      "name": "hasAccess",
      "outputs": [
        {
          "internalType": "bool",
          "name": "",
          "type": "bool"
        }
      ],
      "stateMutability": "view",
      "type": "function"
    },
    {
      "inputs": [
        {
          "internalType": "bytes32",
          "name": "role",
          "type": "bytes32"
        },
        {
          "internalType": "address",
          "name": "account",
          "type": "address"
        }
      ],
      "name": "hasRole",
      "outputs": [
        {
          "internalType": "bool",
          "name": "",
          "type": "bool"
        }
      ],
      "stateMutability": "view",
      "type": "function"
    },
    {
      "inputs": [],
      "name": "l1Sender",
      "outputs": [
        {
          "internalType": "address",
          "name": "",
          "type": "address"
        }
      ],
      "stateMutability": "view",
      "type": "function"
    },
    {
      "inputs": [],
      "name": "latestAnswer",
      "outputs": [
        {
          "internalType": "int256",
          "name": "",
          "type": "int256"
        }
      ],
      "stateMutability": "view",
      "type": "function"
    },
    {
      "inputs": [],
      "name": "latestRound",
      "outputs": [
        {
          "internalType": "uint256",
          "name": "",
          "type": "uint256"
        }
      ],
      "stateMutability": "view",
      "type": "function"
    },
    {
      "inputs": [],
      "name": "latestRoundData",
      "outputs": [
        {
          "internalType": "uint80",
          "name": "roundId",
          "type": "uint80"
        },
        {
          "internalType": "int256",
          "name": "answer",
          "type": "int256"
        },
        {
          "internalType": "uint256",
          "name": "startedAt",
          "type": "uint256"
        },
        {
          "internalType": "uint256",
          "name": "updatedAt",
          "type": "uint256"
        },
        {
          "internalType": "uint80",
          "name": "answeredInRound",
          "type": "uint80"
        }
      ],
      "stateMutability": "view",
      "type": "function"
    },
    {
      "inputs": [],
      "name": "latestTimestamp",
      "outputs": [
        {
          "internalType": "uint256",
          "name": "",
          "type": "uint256"
        }
      ],
      "stateMutability": "view",
      "type": "function"
    },
    {
      "inputs": [],
      "name": "owner",
      "outputs": [
        {
          "internalType": "address",
          "name": "",
          "type": "address"
        }
      ],
      "stateMutability": "view",
      "type": "function"
    },
    {
      "inputs": [
        {
          "internalType": "address",
          "name": "_user",
          "type": "address"
        }
      ],
      "name": "removeAccess",
      "outputs": [],
      "stateMutability": "nonpayable",
      "type": "function"
    },
    {
      "inputs": [
        {
          "internalType": "bytes32",
          "name": "role",
          "type": "bytes32"
        },
        {
          "internalType": "address",
          "name": "account",
          "type": "address"
        }
      ],
      "name": "renounceRole",
      "outputs": [],
      "stateMutability": "nonpayable",
      "type": "function"
    },
    {
      "inputs": [
        {
          "internalType": "bytes32",
          "name": "role",
          "type": "bytes32"
        },
        {
          "internalType": "address",
          "name": "account",
          "type": "address"
        }
      ],
      "name": "revokeRole",
      "outputs": [],
      "stateMutability": "nonpayable",
      "type": "function"
    },
    {
      "inputs": [
        {
          "internalType": "bytes4",
          "name": "interfaceId",
          "type": "bytes4"
        }
      ],
      "name": "supportsInterface",
      "outputs": [
        {
          "internalType": "bool",
          "name": "",
          "type": "bool"
        }
      ],
      "stateMutability": "view",
      "type": "function"
    },
    {
      "inputs": [
        {
          "internalType": "address",
          "name": "newSender",
          "type": "address"
        }
      ],
      "name": "transferL1Sender",
      "outputs": [],
      "stateMutability": "nonpayable",
      "type": "function"
    },
    {
      "inputs": [
        {
          "internalType": "address",
          "name": "to",
          "type": "address"
        }
      ],
      "name": "transferOwnership",
      "outputs": [],
      "stateMutability": "nonpayable",
      "type": "function"
    },
    {
      "inputs": [],
      "name": "typeAndVersion",
      "outputs": [
        {
          "internalType": "string",
          "name": "",
          "type": "string"
        }
      ],
      "stateMutability": "view",
      "type": "function"
    },
    {
      "inputs": [
        {
          "internalType": "bool",
          "name": "status",
          "type": "bool"
        },
        {
          "internalType": "uint64",
          "name": "timestamp",
          "type": "uint64"
        }
      ],
      "name": "updateStatus",
      "outputs": [],
      "stateMutability": "nonpayable",
      "type": "function"
    },
    {
      "inputs": [],
      "name": "version",
      "outputs": [
        {
          "internalType": "uint256",
          "name": "",
          "type": "uint256"
        }
      ],
      "stateMutability": "view",
      "type": "function"
    }
  ],
  "bytecode": "0x6101006040526000608081905260a081905260c081905260e052600480546001600160d81b031916905534801561003557600080fd5b5060405161271c38038061271c833981016040819052610054916104f8565b600083338083816100ac5760405162461bcd60e51b815260206004820152601860248201527f43616e6e6f7420736574206f776e657220746f207a65726f000000000000000060448201526064015b60405180910390fd5b600080546001600160a01b0319166001600160a01b03848116919091179091558116156100dc576100dc81610194565b50506001805460ff60a01b1916600160a01b179055506100fb8261023d565b610107600182426102a6565b50506001600160a01b038216610130576040516342bcdf7f60e11b815260040160405180910390fd5b6001600160a01b038116610157576040516342bcdf7f60e11b815260040160405180910390fd5b610162600083610423565b61018c7f2a5eaae4dcc5567b2220ea5152021b46b5fb6cffc0f3a2f4eeb192fcd2fde45282610423565b505050610542565b336001600160a01b038216036101ec5760405162461bcd60e51b815260206004820152601760248201527f43616e6e6f74207472616e7366657220746f2073656c6600000000000000000060448201526064016100a3565b600180546001600160a01b0319166001600160a01b0383811691821790925560008054604051929316917fed8889f560326eb138920d842192f0eb3dd22b4f139c87a2c57538e05bae12789190a350565b6003546001600160a01b0390811690821681146102a257600380546001600160a01b0319166001600160a01b0384811691821790925560405190918316907f8e6da65f164d652f378f48652c0e1ca58d7c9cc52ceaa40c1dad055cd7681d1890600090a35b5050565b60408051606080820183526001600160401b0384811680845242821660208086018281528915158789018181526001600160501b038d166000818152600586528b902099518a54945192511515600160801b0260ff60801b19938a1668010000000000000000026001600160801b03199096169190991617939093171695909517909655865160808101885286815280820184905280880183905290940183905260048054600160d01b90940260ff60d01b19600160901b90930292909216600160901b600160d81b03196a010000000000000000000085026001600160901b0319909616881795909517949094169390931717909155925192835233927f0109fc6f55cf40689f02fbaad7af7fe7bbac8a3d2186600afc7d3e10cac60271910160405180910390a36001600160501b0383166103e2836104c5565b6040516001600160401b03841681527f0559884fd3a460db3073b7fc896cc77986f16e378210ded43186175bf646fc5f9060200160405180910390a3505050565b60008281526006602090815260408083206001600160a01b038516845290915290205460ff166102a25760008281526006602090815260408083206001600160a01b03851684529091529020805460ff191660011790556104813390565b6001600160a01b0316816001600160a01b0316837f2f8788117e7eff1d82e926ec794901d17c78024a50270940304540a733656f0d60405160405180910390a45050565b6000816104d35760006104d6565b60015b92915050565b80516001600160a01b03811681146104f357600080fd5b919050565b60008060006060848603121561050d57600080fd5b8351801515811461051d57600080fd5b925061052b602085016104dc565b9150610539604085016104dc565b90509250925092565b6121cb806105516000396000f3fe608060405234801561001057600080fd5b50600436106101e55760003560e01c80638205bf6a1161010f578063b633620c116100a2578063e26d7cbb11610071578063e26d7cbb146104e1578063ed8378f514610508578063f2fde38b1461051b578063feaf968c1461052e57600080fd5b8063b633620c14610478578063b7558b7a1461048b578063d547741f146104a9578063dc7f0124146104bc57600080fd5b80639a6fc8f5116100de5780639a6fc8f514610400578063a118f2491461044a578063a217fddf1461045d578063b5ab58dc1461046557600080fd5b80638205bf6a146103605780638823da6c146103685780638da5cb5b1461037b57806391d14854146103ba57600080fd5b806336568abe116101875780636b14daf8116101565780636b14daf8146103015780637284e4161461031457806379ba5097146103505780638038e4a11461035857600080fd5b806336568abe146102d657806350d25bcd146102e957806354fd4d50146102f1578063668a0f02146102f957600080fd5b8063248a9ca3116101c3578063248a9ca314610265578063284afc08146102965780632f2ff15d146102a9578063313ce567146102bc57600080fd5b806301ffc9a7146101ea5780630a75698314610212578063181f5a771461021c575b600080fd5b6101fd6101f8366004611d4d565b610536565b60405190151581526020015b60405180910390f35b61021a6105cf565b005b6102586040518060400160405280601e81526020017f4c696e656153657175656e636572557074696d654665656420312e302e30000081525081565b6040516102099190611db3565b610288610273366004611e04565b60009081526006602052604090206001015490565b604051908152602001610209565b61021a6102a4366004611e41565b61064e565b61021a6102b7366004611e5c565b610662565b6102c4600081565b60405160ff9091168152602001610209565b61021a6102e4366004611e5c565b61068c565b61028861072a565b610288600181565b6102886107eb565b6101fd61030f366004611eb7565b61088d565b6102586040518060400160405280601f81526020017f4c322053657175656e63657220557074696d652053746174757320466565640081525081565b61021a6108c0565b61021a6109a3565b610288610a37565b61021a610376366004611e41565b610ae5565b60005473ffffffffffffffffffffffffffffffffffffffff165b60405173ffffffffffffffffffffffffffffffffffffffff9091168152602001610209565b6101fd6103c8366004611e5c565b600091825260066020908152604080842073ffffffffffffffffffffffffffffffffffffffff93909316845291905290205460ff1690565b61041361040e366004611fbe565b610b9e565b6040805169ffffffffffffffffffff968716815260208101959095528401929092526060830152909116608082015260a001610209565b61021a610458366004611e41565b610cea565b610288600081565b610288610473366004611e04565b610d9e565b610288610486366004611e04565b610ead565b60035473ffffffffffffffffffffffffffffffffffffffff16610395565b61021a6104b7366004611e5c565b610fa4565b6001546101fd9074010000000000000000000000000000000000000000900460ff1681565b6102887f2a5eaae4dcc5567b2220ea5152021b46b5fb6cffc0f3a2f4eeb192fcd2fde45281565b61021a610516366004611fea565b610fc9565b61021a610529366004611e41565b611175565b610413611186565b60007fffffffff0000000000000000000000000000000000000000000000000000000082167f7965db0b0000000000000000000000000000000000000000000000000000000014806105c957507f01ffc9a7000000000000000000000000000000000000000000000000000000007fffffffff000000000000000000000000000000000000000000000000000000008316145b92915050565b6105d76112a4565b60015474010000000000000000000000000000000000000000900460ff161561064c57600180547fffffffffffffffffffffff00ffffffffffffffffffffffffffffffffffffffff1690556040517f3be8a977a014527b50ae38adda80b56911c267328965c98ddc385d248f53963890600090a15b565b6106566112a4565b61065f8161130b565b50565b60008281526006602052604090206001015461067d816113a5565b61068783836113af565b505050565b73ffffffffffffffffffffffffffffffffffffffff8116331461071c5760405162461bcd60e51b815260206004820152602f60248201527f416363657373436f6e74726f6c3a2063616e206f6e6c792072656e6f756e636560448201527f20726f6c657320666f722073656c66000000000000000000000000000000000060648201526084015b60405180910390fd5b61072682826114a3565b5050565b600061076d336000368080601f01602080910402602001604051908101604052809392919081815260200183838082843760009201919091525061088d92505050565b6107b95760405162461bcd60e51b815260206004820152600960248201527f4e6f2061636365737300000000000000000000000000000000000000000000006044820152606401610713565b6004546107e6907a010000000000000000000000000000000000000000000000000000900460ff1661155e565b905090565b600061082e336000368080601f01602080910402602001604051908101604052809392919081815260200183838082843760009201919091525061088d92505050565b61087a5760405162461bcd60e51b815260206004820152600960248201527f4e6f2061636365737300000000000000000000000000000000000000000000006044820152606401610713565b5060045469ffffffffffffffffffff1690565b60006108998383611574565b806108b9575073ffffffffffffffffffffffffffffffffffffffff831632145b9392505050565b60015473ffffffffffffffffffffffffffffffffffffffff1633146109275760405162461bcd60e51b815260206004820152601660248201527f4d7573742062652070726f706f736564206f776e6572000000000000000000006044820152606401610713565b60008054337fffffffffffffffffffffffff00000000000000000000000000000000000000008083168217845560018054909116905560405173ffffffffffffffffffffffffffffffffffffffff90921692909183917f8be0079c531659141344cd1fd0a4f28419497f9722a3daafe3b4186f6b6457e091a350565b6109ab6112a4565b60015474010000000000000000000000000000000000000000900460ff1661064c57600180547fffffffffffffffffffffff00ffffffffffffffffffffffffffffffffffffffff16740100000000000000000000000000000000000000001790556040517faebf329500988c6488a0074e5a0a9ff304561fc5c6fc877aeb1d59c8282c348090600090a1565b6000610a7a336000368080601f01602080910402602001604051908101604052809392919081815260200183838082843760009201919091525061088d92505050565b610ac65760405162461bcd60e51b815260206004820152600960248201527f4e6f2061636365737300000000000000000000000000000000000000000000006044820152606401610713565b506004546a0100000000000000000000900467ffffffffffffffff1690565b610aed6112a4565b73ffffffffffffffffffffffffffffffffffffffff811660009081526002602052604090205460ff161561065f5773ffffffffffffffffffffffffffffffffffffffff811660008181526002602090815260409182902080547fffffffffffffffffffffffffffffffffffffffffffffffffffffffffffffff0016905590519182527f3d68a6fce901d20453d1a7aa06bf3950302a735948037deb182a8db66df2a0d191015b60405180910390a150565b6000806000806000610be7336000368080601f01602080910402602001604051908101604052809392919081815260200183838082843760009201919091525061088d92505050565b610c335760405162461bcd60e51b815260206004820152600960248201527f4e6f2061636365737300000000000000000000000000000000000000000000006044820152606401610713565b610c488669ffffffffffffffffffff166115c9565b610c7e576040517fbb25870000000000000000000000000000000000000000000000000000000000815260040160405180910390fd5b69ffffffffffffffffffff8616600090815260056020526040902080548790610cbd90700100000000000000000000000000000000900460ff1661155e565b91549098919767ffffffffffffffff80831698506801000000000000000090920490911695509350915050565b610cf26112a4565b73ffffffffffffffffffffffffffffffffffffffff811660009081526002602052604090205460ff1661065f5773ffffffffffffffffffffffffffffffffffffffff811660008181526002602090815260409182902080547fffffffffffffffffffffffffffffffffffffffffffffffffffffffffffffff0016600117905590519182527f87286ad1f399c8e82bf0c4ef4fcdc570ea2e1e92176e5c848b6413545b885db49101610b93565b6000610de1336000368080601f01602080910402602001604051908101604052809392919081815260200183838082843760009201919091525061088d92505050565b610e2d5760405162461bcd60e51b815260206004820152600960248201527f4e6f2061636365737300000000000000000000000000000000000000000000006044820152606401610713565b610e36826115c9565b610e6c576040517fbb25870000000000000000000000000000000000000000000000000000000000815260040160405180910390fd5b69ffffffffffffffffffff82166000908152600560205260409020546105c990700100000000000000000000000000000000900460ff1661155e565b919050565b6000610ef0336000368080601f01602080910402602001604051908101604052809392919081815260200183838082843760009201919091525061088d92505050565b610f3c5760405162461bcd60e51b815260206004820152600960248201527f4e6f2061636365737300000000000000000000000000000000000000000000006044820152606401610713565b610f45826115c9565b610f7b576040517fbb25870000000000000000000000000000000000000000000000000000000000815260040160405180910390fd5b5069ffffffffffffffffffff1660009081526005602052604090205467ffffffffffffffff1690565b600082815260066020526040902060010154610fbf816113a5565b61068783836114a3565b600354610feb9073ffffffffffffffffffffffffffffffffffffffff16611600565b600061109a604080516080810182526000808252602082018190529181018290526060810191909152506040805160808101825260045469ffffffffffffffffffff811682526a0100000000000000000000810467ffffffffffffffff90811660208401527201000000000000000000000000000000000000820416928201929092527a01000000000000000000000000000000000000000000000000000090910460ff161515606082015290565b90508167ffffffffffffffff16816020015167ffffffffffffffff16111561112b577fe4a6e16301740042c17431042adb8f60454c18fb5934dd4c456269c0dc388fdf81606001518260200151858560405161111e9493929190931515845267ffffffffffffffff9283166020850152901515604084015216606082015260800190565b60405180910390a1505050565b82151581606001511515036111465780516106879084611668565b6001816000018181516111599190612064565b69ffffffffffffffffffff169052508051610687908484611757565b61117d6112a4565b61065f8161198a565b60008060008060006111cf336000368080601f01602080910402602001604051908101604052809392919081815260200183838082843760009201919091525061088d92505050565b61121b5760405162461bcd60e51b815260206004820152600960248201527f4e6f2061636365737300000000000000000000000000000000000000000000006044820152606401610713565b6004805469ffffffffffffffffffff811690611257907a010000000000000000000000000000000000000000000000000000900460ff1661155e565b9154909791965067ffffffffffffffff6a01000000000000000000008204811696507201000000000000000000000000000000000000820416945069ffffffffffffffffffff1692509050565b60005473ffffffffffffffffffffffffffffffffffffffff16331461064c5760405162461bcd60e51b815260206004820152601660248201527f4f6e6c792063616c6c61626c65206279206f776e6572000000000000000000006044820152606401610713565b60035473ffffffffffffffffffffffffffffffffffffffff908116908216811461072657600380547fffffffffffffffffffffffff00000000000000000000000000000000000000001673ffffffffffffffffffffffffffffffffffffffff84811691821790925560405190918316907f8e6da65f164d652f378f48652c0e1ca58d7c9cc52ceaa40c1dad055cd7681d1890600090a35050565b61065f8133611a65565b600082815260066020908152604080832073ffffffffffffffffffffffffffffffffffffffff8516845290915290205460ff1661072657600082815260066020908152604080832073ffffffffffffffffffffffffffffffffffffffff85168452909152902080547fffffffffffffffffffffffffffffffffffffffffffffffffffffffffffffff001660011790556114453390565b73ffffffffffffffffffffffffffffffffffffffff168173ffffffffffffffffffffffffffffffffffffffff16837f2f8788117e7eff1d82e926ec794901d17c78024a50270940304540a733656f0d60405160405180910390a45050565b600082815260066020908152604080832073ffffffffffffffffffffffffffffffffffffffff8516845290915290205460ff161561072657600082815260066020908152604080832073ffffffffffffffffffffffffffffffffffffffff8516808552925280832080547fffffffffffffffffffffffffffffffffffffffffffffffffffffffffffffff0016905551339285917ff6391f5c32d9c69d2a47ea670b442974b53935d1edc7fd64eb21e047a839171b9190a45050565b60008161156c5760006105c9565b600192915050565b73ffffffffffffffffffffffffffffffffffffffff821660009081526002602052604081205460ff16806108b957505060015474010000000000000000000000000000000000000000900460ff161592915050565b600080821180156115e4575069ffffffffffffffffffff8211155b80156105c957505060045469ffffffffffffffffffff16101590565b3360009081527fbb34b3c2e77be9f5aa594747230e4459d9df8a254823ffbc7930ef0e2355b8da602052604090205460ff1661065f576040517fddb5de5e00000000000000000000000000000000000000000000000000000000815260040160405180910390fd5b69ffffffffffffffffffff8216600090815260056020526040902080547fffffffffffffffffffffffffffffffff0000000000000000ffffffffffffffff16680100000000000000004267ffffffffffffffff1690810291909117909155600480547fffffffffffff0000000000000000ffffffffffffffffffffffffffffffffffff1672010000000000000000000000000000000000009092029190911790557f297642343ed2faefb1a411b39fc449eae700e54223d5d0499a9421eb6f68f66a6117338261155e565b6040805191825267ffffffffffffffff421660208301520160405180910390a15050565b604080516060808201835267ffffffffffffffff848116808452428216602080860182815289151587890181815269ffffffffffffffffffff8d166000818152600586528b902099518a54945192511515700100000000000000000000000000000000027fffffffffffffffffffffffffffffff00ffffffffffffffffffffffffffffffff938a1668010000000000000000027fffffffffffffffffffffffffffffffff0000000000000000000000000000000090961691909916179390931716959095179096558651608081018852868152808201849052808801839052909401839052600480547a0100000000000000000000000000000000000000000000000000009094027fffffffffff00ffffffffffffffffffffffffffffffffffffffffffffffffffff7201000000000000000000000000000000000000909302929092167fffffffffff000000000000000000ffffffffffffffffffffffffffffffffffff6a010000000000000000000085027fffffffffffffffffffffffffffff000000000000000000000000000000000000909616881795909517949094169390931717909155925192835233927f0109fc6f55cf40689f02fbaad7af7fe7bbac8a3d2186600afc7d3e10cac60271910160405180910390a38269ffffffffffffffffffff166119488361155e565b60405167ffffffffffffffff841681527f0559884fd3a460db3073b7fc896cc77986f16e378210ded43186175bf646fc5f9060200160405180910390a3505050565b3373ffffffffffffffffffffffffffffffffffffffff8216036119ef5760405162461bcd60e51b815260206004820152601760248201527f43616e6e6f74207472616e7366657220746f2073656c660000000000000000006044820152606401610713565b600180547fffffffffffffffffffffffff00000000000000000000000000000000000000001673ffffffffffffffffffffffffffffffffffffffff83811691821790925560008054604051929316917fed8889f560326eb138920d842192f0eb3dd22b4f139c87a2c57538e05bae12789190a350565b600082815260066020908152604080832073ffffffffffffffffffffffffffffffffffffffff8516845290915290205460ff1661072657611aa581611b05565b611ab0836020611b24565b604051602001611ac1929190612086565b604080517fffffffffffffffffffffffffffffffffffffffffffffffffffffffffffffffe08184030181529082905262461bcd60e51b825261071391600401611db3565b60606105c973ffffffffffffffffffffffffffffffffffffffff831660145b60606000611b33836002612107565b611b3e90600261211e565b67ffffffffffffffff811115611b5657611b56611e88565b6040519080825280601f01601f191660200182016040528015611b80576020820181803683370190505b5090507f300000000000000000000000000000000000000000000000000000000000000081600081518110611bb757611bb7612131565b60200101907effffffffffffffffffffffffffffffffffffffffffffffffffffffffffffff1916908160001a9053507f780000000000000000000000000000000000000000000000000000000000000081600181518110611c1a57611c1a612131565b60200101907effffffffffffffffffffffffffffffffffffffffffffffffffffffffffffff1916908160001a9053506000611c56846002612107565b611c6190600161211e565b90505b6001811115611cfe577f303132333435363738396162636465660000000000000000000000000000000085600f1660108110611ca257611ca2612131565b1a60f81b828281518110611cb857611cb8612131565b60200101907effffffffffffffffffffffffffffffffffffffffffffffffffffffffffffff1916908160001a90535060049490941c93611cf781612160565b9050611c64565b5083156108b95760405162461bcd60e51b815260206004820181905260248201527f537472696e67733a20686578206c656e67746820696e73756666696369656e746044820152606401610713565b600060208284031215611d5f57600080fd5b81357fffffffff00000000000000000000000000000000000000000000000000000000811681146108b957600080fd5b60005b83811015611daa578181015183820152602001611d92565b50506000910152565b6020815260008251806020840152611dd2816040850160208701611d8f565b601f017fffffffffffffffffffffffffffffffffffffffffffffffffffffffffffffffe0169190910160400192915050565b600060208284031215611e1657600080fd5b5035919050565b803573ffffffffffffffffffffffffffffffffffffffff81168114610ea857600080fd5b600060208284031215611e5357600080fd5b6108b982611e1d565b60008060408385031215611e6f57600080fd5b82359150611e7f60208401611e1d565b90509250929050565b7f4e487b7100000000000000000000000000000000000000000000000000000000600052604160045260246000fd5b60008060408385031215611eca57600080fd5b611ed383611e1d565b9150602083013567ffffffffffffffff811115611eef57600080fd5b8301601f81018513611f0057600080fd5b803567ffffffffffffffff811115611f1a57611f1a611e88565b6040517fffffffffffffffffffffffffffffffffffffffffffffffffffffffffffffffe0603f7fffffffffffffffffffffffffffffffffffffffffffffffffffffffffffffffe0601f8501160116810181811067ffffffffffffffff82111715611f8657611f86611e88565b604052818152828201602001871015611f9e57600080fd5b816020840160208301376000602083830101528093505050509250929050565b600060208284031215611fd057600080fd5b813569ffffffffffffffffffff811681146108b957600080fd5b60008060408385031215611ffd57600080fd5b8235801515811461200d57600080fd5b9150602083013567ffffffffffffffff8116811461202a57600080fd5b809150509250929050565b7f4e487b7100000000000000000000000000000000000000000000000000000000600052601160045260246000fd5b69ffffffffffffffffffff81811683821601908111156105c9576105c9612035565b7f416363657373436f6e74726f6c3a206163636f756e74200000000000000000008152600083516120be816017850160208801611d8f565b7f206973206d697373696e6720726f6c652000000000000000000000000000000060179184019182015283516120fb816028840160208801611d8f565b01602801949350505050565b80820281158282048414176105c9576105c9612035565b808201808211156105c9576105c9612035565b7f4e487b7100000000000000000000000000000000000000000000000000000000600052603260045260246000fd5b60008161216f5761216f612035565b507fffffffffffffffffffffffffffffffffffffffffffffffffffffffffffffffff019056fea2646970667358221220d649540223ac1c7cdc19f2c824ecf148d82d66abad129422968ab14f8891eefc64736f6c634300081e0033",
  "linkReferences": {},
  "deployedLinkReferences": {}
}