{
  "_format": "hh-sol-artifact-1",
  "contractName": "LineaSequencerUptimeFeed",
  "sourceName": "src/libraries/LineaSequencerUptimeFeed.sol",
  "abi": [
    {
      "inputs": [
        {
          "internalType": "bool",
          "name": "_initialStatus",
          "type": "bool"
        },
        {
          "internalType": "address",
          "name": "_admin",
          "type": "address"
        },
        {
          "internalType": "address",
          "name": "_l2Sender",
          "type": "address"
        }
      ],
      "stateMutability": "nonpayable",
      "type": "constructor"
    },
    {
      "inputs": [],
      "name": "InvalidSender",
      "type": "error"
    },
    {
      "inputs": [],
      "name": "ZeroAddressNotAllowed",
      "type": "error"
    },
    {
      "anonymous": false,
      "inputs": [
        {
          "indexed": false,
          "internalType": "address",
          "name": "user",
          "type": "address"
        }
      ],
      "name": "AddedAccess",
      "type": "event"
    },
    {
      "anonymous": false,
      "inputs": [
        {
          "indexed": true,
          "internalType": "int256",
          "name": "current",
          "type": "int256"
        },
        {
          "indexed": true,
          "internalType": "uint256",
          "name": "roundId",
          "type": "uint256"
        },
        {
          "indexed": false,
          "internalType": "uint256",
          "name": "updatedAt",
          "type": "uint256"
        }
      ],
      "name": "AnswerUpdated",
      "type": "event"
    },
    {
      "anonymous": false,
      "inputs": [],
      "name": "CheckAccessDisabled",
      "type": "event"
    },
    {
      "anonymous": false,
      "inputs": [],
      "name": "CheckAccessEnabled",
      "type": "event"
    },
    {
      "anonymous": false,
      "inputs": [
        {
          "indexed": true,
          "internalType": "uint256",
          "name": "roundId",
          "type": "uint256"
        },
        {
          "indexed": true,
          "internalType": "address",
          "name": "startedBy",
          "type": "address"
        },
        {
          "indexed": false,
          "internalType": "uint256",
          "name": "startedAt",
          "type": "uint256"
        }
      ],
      "name": "NewRound",
      "type": "event"
    },
    {
      "anonymous": false,
      "inputs": [
        {
          "indexed": true,
          "internalType": "address",
          "name": "from",
          "type": "address"
        },
        {
          "indexed": true,
          "internalType": "address",
          "name": "to",
          "type": "address"
        }
      ],
      "name": "OwnershipTransferRequested",
      "type": "event"
    },
    {
      "anonymous": false,
      "inputs": [
        {
          "indexed": true,
          "internalType": "address",
          "name": "from",
          "type": "address"
        },
        {
          "indexed": true,
          "internalType": "address",
          "name": "to",
          "type": "address"
        }
      ],
      "name": "OwnershipTransferred",
      "type": "event"
    },
    {
      "anonymous": false,
      "inputs": [
        {
          "indexed": false,
          "internalType": "address",
          "name": "user",
          "type": "address"
        }
      ],
      "name": "RemovedAccess",
      "type": "event"
    },
    {
      "anonymous": false,
      "inputs": [
        {
          "indexed": true,
          "internalType": "bytes32",
          "name": "role",
          "type": "bytes32"
        },
        {
          "indexed": true,
          "internalType": "bytes32",
          "name": "previousAdminRole",
          "type": "bytes32"
        },
        {
          "indexed": true,
          "internalType": "bytes32",
          "name": "newAdminRole",
          "type": "bytes32"
        }
      ],
      "name": "RoleAdminChanged",
      "type": "event"
    },
    {
      "anonymous": false,
      "inputs": [
        {
          "indexed": true,
          "internalType": "bytes32",
          "name": "role",
          "type": "bytes32"
        },
        {
          "indexed": true,
          "internalType": "address",
          "name": "account",
          "type": "address"
        },
        {
          "indexed": true,
          "internalType": "address",
          "name": "sender",
          "type": "address"
        }
      ],
      "name": "RoleGranted",
      "type": "event"
    },
    {
      "anonymous": false,
      "inputs": [
        {
          "indexed": true,
          "internalType": "bytes32",
          "name": "role",
          "type": "bytes32"
        },
        {
          "indexed": true,
          "internalType": "address",
          "name": "account",
          "type": "address"
        },
        {
          "indexed": true,
          "internalType": "address",
          "name": "sender",
          "type": "address"
        }
      ],
      "name": "RoleRevoked",
      "type": "event"
    },
    {
      "anonymous": false,
      "inputs": [
        {
          "indexed": false,
          "internalType": "int256",
          "name": "status",
          "type": "int256"
        },
        {
          "indexed": false,
          "internalType": "uint64",
          "name": "updatedAt",
          "type": "uint64"
        }
      ],
      "name": "RoundUpdated",
      "type": "event"
    },
    {
      "anonymous": false,
      "inputs": [
        {
          "indexed": false,
          "internalType": "bool",
          "name": "latestStatus",
          "type": "bool"
        },
        {
          "indexed": false,
          "internalType": "uint64",
          "name": "latestTimestamp",
          "type": "uint64"
        },
        {
          "indexed": false,
          "internalType": "bool",
          "name": "incomingStatus",
          "type": "bool"
        },
        {
          "indexed": false,
          "internalType": "uint64",
          "name": "incomingTimestamp",
          "type": "uint64"
        }
      ],
      "name": "UpdateIgnored",
      "type": "event"
    },
    {
      "inputs": [],
      "name": "DEFAULT_ADMIN_ROLE",
      "outputs": [
        {
          "internalType": "bytes32",
          "name": "",
          "type": "bytes32"
        }
      ],
      "stateMutability": "view",
      "type": "function"
    },
    {
      "inputs": [],
      "name": "FEED_UPDATER_ROLE",
      "outputs": [
        {
          "internalType": "bytes32",
          "name": "",
          "type": "bytes32"
        }
      ],
      "stateMutability": "view",
      "type": "function"
    },
    {
      "inputs": [],
      "name": "acceptOwnership",
      "outputs": [],
      "stateMutability": "nonpayable",
      "type": "function"
    },
    {
      "inputs": [
        {
          "internalType": "address",
          "name": "_user",
          "type": "address"
        }
      ],
      "name": "addAccess",
      "outputs": [],
      "stateMutability": "nonpayable",
      "type": "function"
    },
    {
      "inputs": [],
      "name": "checkEnabled",
      "outputs": [
        {
          "internalType": "bool",
          "name": "",
          "type": "bool"
        }
      ],
      "stateMutability": "view",
      "type": "function"
    },
    {
      "inputs": [],
      "name": "decimals",
      "outputs": [
        {
          "internalType": "uint8",
          "name": "",
          "type": "uint8"
        }
      ],
      "stateMutability": "view",
      "type": "function"
    },
    {
      "inputs": [],
      "name": "description",
      "outputs": [
        {
          "internalType": "string",
          "name": "",
          "type": "string"
        }
      ],
      "stateMutability": "view",
      "type": "function"
    },
    {
      "inputs": [],
      "name": "disableAccessCheck",
      "outputs": [],
      "stateMutability": "nonpayable",
      "type": "function"
    },
    {
      "inputs": [],
      "name": "enableAccessCheck",
      "outputs": [],
      "stateMutability": "nonpayable",
      "type": "function"
    },
    {
      "inputs": [
        {
          "internalType": "uint256",
          "name": "",
          "type": "uint256"
        }
      ],
      "name": "getAnswer",
      "outputs": [
        {
          "internalType": "int256",
          "name": "",
          "type": "int256"
        }
      ],
      "stateMutability": "view",
      "type": "function"
    },
    {
      "inputs": [
        {
          "internalType": "bytes32",
          "name": "role",
          "type": "bytes32"
        }
      ],
      "name": "getRoleAdmin",
      "outputs": [
        {
          "internalType": "bytes32",
          "name": "",
          "type": "bytes32"
        }
      ],
      "stateMutability": "view",
      "type": "function"
    },
    {
      "inputs": [
        {
          "internalType": "uint80",
          "name": "",
          "type": "uint80"
        }
      ],
      "name": "getRoundData",
      "outputs": [
        {
          "internalType": "uint80",
          "name": "roundId",
          "type": "uint80"
        },
        {
          "internalType": "int256",
          "name": "answer",
          "type": "int256"
        },
        {
          "internalType": "uint256",
          "name": "startedAt",
          "type": "uint256"
        },
        {
          "internalType": "uint256",
          "name": "updatedAt",
          "type": "uint256"
        },
        {
          "internalType": "uint80",
          "name": "answeredInRound",
          "type": "uint80"
        }
      ],
      "stateMutability": "view",
      "type": "function"
    },
    {
      "inputs": [
        {
          "internalType": "uint256",
          "name": "",
          "type": "uint256"
        }
      ],
      "name": "getTimestamp",
      "outputs": [
        {
          "internalType": "uint256",
          "name": "",
          "type": "uint256"
        }
      ],
      "stateMutability": "view",
      "type": "function"
    },
    {
      "inputs": [
        {
          "internalType": "bytes32",
          "name": "role",
          "type": "bytes32"
        },
        {
          "internalType": "address",
          "name": "account",
          "type": "address"
        }
      ],
      "name": "grantRole",
      "outputs": [],
      "stateMutability": "nonpayable",
      "type": "function"
    },
    {
      "inputs": [
        {
          "internalType": "address",
          "name": "_user",
          "type": "address"
        },
        {
          "internalType": "bytes",
          "name": "_calldata",
          "type": "bytes"
        }
      ],
      "name": "hasAccess",
      "outputs": [
        {
          "internalType": "bool",
          "name": "",
          "type": "bool"
        }
      ],
      "stateMutability": "view",
      "type": "function"
    },
    {
      "inputs": [
        {
          "internalType": "bytes32",
          "name": "role",
          "type": "bytes32"
        },
        {
          "internalType": "address",
          "name": "account",
          "type": "address"
        }
      ],
      "name": "hasRole",
      "outputs": [
        {
          "internalType": "bool",
          "name": "",
          "type": "bool"
        }
      ],
      "stateMutability": "view",
      "type": "function"
    },
    {
      "inputs": [],
      "name": "latestAnswer",
      "outputs": [
        {
          "internalType": "int256",
          "name": "",
          "type": "int256"
        }
      ],
      "stateMutability": "view",
      "type": "function"
    },
    {
      "inputs": [],
      "name": "latestRound",
      "outputs": [
        {
          "internalType": "uint256",
          "name": "",
          "type": "uint256"
        }
      ],
      "stateMutability": "view",
      "type": "function"
    },
    {
      "inputs": [],
      "name": "latestRoundData",
      "outputs": [
        {
          "internalType": "uint80",
          "name": "roundId",
          "type": "uint80"
        },
        {
          "internalType": "int256",
          "name": "answer",
          "type": "int256"
        },
        {
          "internalType": "uint256",
          "name": "startedAt",
          "type": "uint256"
        },
        {
          "internalType": "uint256",
          "name": "updatedAt",
          "type": "uint256"
        },
        {
          "internalType": "uint80",
          "name": "answeredInRound",
          "type": "uint80"
        }
      ],
      "stateMutability": "view",
      "type": "function"
    },
    {
      "inputs": [],
      "name": "latestTimestamp",
      "outputs": [
        {
          "internalType": "uint256",
          "name": "",
          "type": "uint256"
        }
      ],
      "stateMutability": "view",
      "type": "function"
    },
    {
      "inputs": [],
      "name": "owner",
      "outputs": [
        {
          "internalType": "address",
          "name": "",
          "type": "address"
        }
      ],
      "stateMutability": "view",
      "type": "function"
    },
    {
      "inputs": [
        {
          "internalType": "address",
          "name": "_user",
          "type": "address"
        }
      ],
      "name": "removeAccess",
      "outputs": [],
      "stateMutability": "nonpayable",
      "type": "function"
    },
    {
      "inputs": [
        {
          "internalType": "bytes32",
          "name": "role",
          "type": "bytes32"
        },
        {
          "internalType": "address",
          "name": "account",
          "type": "address"
        }
      ],
      "name": "renounceRole",
      "outputs": [],
      "stateMutability": "nonpayable",
      "type": "function"
    },
    {
      "inputs": [
        {
          "internalType": "bytes32",
          "name": "role",
          "type": "bytes32"
        },
        {
          "internalType": "address",
          "name": "account",
          "type": "address"
        }
      ],
      "name": "revokeRole",
      "outputs": [],
      "stateMutability": "nonpayable",
      "type": "function"
    },
    {
      "inputs": [
        {
          "internalType": "bytes4",
          "name": "interfaceId",
          "type": "bytes4"
        }
      ],
      "name": "supportsInterface",
      "outputs": [
        {
          "internalType": "bool",
          "name": "",
          "type": "bool"
        }
      ],
      "stateMutability": "view",
      "type": "function"
    },
    {
      "inputs": [
        {
          "internalType": "address",
          "name": "to",
          "type": "address"
        }
      ],
      "name": "transferOwnership",
      "outputs": [],
      "stateMutability": "nonpayable",
      "type": "function"
    },
    {
      "inputs": [],
      "name": "typeAndVersion",
      "outputs": [
        {
          "internalType": "string",
          "name": "",
          "type": "string"
        }
      ],
      "stateMutability": "pure",
      "type": "function"
    },
    {
      "inputs": [
        {
          "internalType": "bool",
          "name": "_status",
          "type": "bool"
        },
        {
          "internalType": "uint64",
          "name": "_timestamp",
          "type": "uint64"
        }
      ],
      "name": "updateStatus",
      "outputs": [],
      "stateMutability": "nonpayable",
      "type": "function"
    },
    {
      "inputs": [],
      "name": "version",
      "outputs": [
        {
          "internalType": "uint256",
          "name": "",
          "type": "uint256"
        }
      ],
      "stateMutability": "view",
      "type": "function"
    }
  ],
  "bytecode": "0x6101006040525f608081905260a081905260c081905260e052600480546001600160d81b0319169055348015610033575f5ffd5b506040516121ee3803806121ee833981016040819052610052916103d7565b33805f816100a75760405162461bcd60e51b815260206004820152601860248201527f43616e6e6f7420736574206f776e657220746f207a65726f000000000000000060448201526064015b60405180910390fd5b5f80546001600160a01b0319166001600160a01b03848116919091179091558116156100d6576100d681610182565b50506001805460ff60a01b1916600160a01b179055506001600160a01b038216610113576040516342bcdf7f60e11b815260040160405180910390fd5b6001600160a01b03811661013a576040516342bcdf7f60e11b815260040160405180910390fd5b42610145848261022a565b61014f5f84610306565b6101797f2a5eaae4dcc5567b2220ea5152021b46b5fb6cffc0f3a2f4eeb192fcd2fde45283610306565b5050505061041d565b336001600160a01b038216036101da5760405162461bcd60e51b815260206004820152601760248201527f43616e6e6f74207472616e7366657220746f2073656c66000000000000000000604482015260640161009e565b600180546001600160a01b0319166001600160a01b038381169182179092555f8054604051929316917fed8889f560326eb138920d842192f0eb3dd22b4f139c87a2c57538e05bae12789190a350565b604080516080810182525f808252841515602083018190526001600160401b038581169484018590524290811660608501819052600480546001600160981b0319166a0100000000000000000000909402600160581b600160981b031916939093176b01000000000000000000000090960295909517600160981b600160d81b031916600160981b9095029490941790556102c4856103a7565b6040516001600160401b03861681527f0559884fd3a460db3073b7fc896cc77986f16e378210ded43186175bf646fc5f9060200160405180910390a350505050565b5f8281526003602090815260408083206001600160a01b038516845290915290205460ff166103a3575f8281526003602090815260408083206001600160a01b03851684529091529020805460ff191660011790556103623390565b6001600160a01b0316816001600160a01b0316837f2f8788117e7eff1d82e926ec794901d17c78024a50270940304540a733656f0d60405160405180910390a45b5050565b5f816103b3575f6103b6565b60015b92915050565b80516001600160a01b03811681146103d2575f5ffd5b919050565b5f5f5f606084860312156103e9575f5ffd5b835180151581146103f8575f5ffd5b9250610406602085016103bc565b9150610414604085016103bc565b90509250925092565b611dc48061042a5f395ff3fe608060405234801561000f575f5ffd5b50600436106101c6575f3560e01c80638205bf6a116100fe578063b5ab58dc1161009e578063e26d7cbb1161006e578063e26d7cbb1461046d578063ed8378f514610494578063f2fde38b146104a7578063feaf968c146104ba575f5ffd5b8063b5ab58dc1461040f578063b633620c14610422578063d547741f14610435578063dc7f012414610448575f5ffd5b806391d14854116100d957806391d14854146103665780639a6fc8f5146103ab578063a118f249146103f5578063a217fddf14610408575f5ffd5b80638205bf6a146103245780638823da6c1461032c5780638da5cb5b1461033f575f5ffd5b806350d25bcd116101695780636b14daf8116101445780636b14daf8146102c55780637284e416146102d857806379ba5097146103145780638038e4a11461031c575f5ffd5b806350d25bcd146102ad57806354fd4d50146102b5578063668a0f02146102bd575f5ffd5b8063248a9ca3116101a4578063248a9ca31461023e5780632f2ff15d1461026e578063313ce5671461028157806336568abe1461029a575f5ffd5b806301ffc9a7146101ca5780630a756983146101f2578063181f5a77146101fc575b5f5ffd5b6101dd6101d83660046119a8565b6104c2565b60405190151581526020015b60405180910390f35b6101fa61055a565b005b60408051808201909152601e81527f4c696e656153657175656e636572557074696d654665656420312e302e30000060208201525b6040516101e991906119e7565b61026061024c366004611a3a565b5f9081526003602052604090206001015490565b6040519081526020016101e9565b6101fa61027c366004611a74565b6105d8565b6102885f81565b60405160ff90911681526020016101e9565b6101fa6102a8366004611a74565b610601565b61026061069f565b610260600181565b6102606107b2565b6101dd6102d3366004611acb565b610851565b6102316040518060400160405280601f81526020017f4c322053657175656e63657220557074696d652053746174757320466565640081525081565b6101fa610883565b6101fa610965565b6102606109f8565b6101fa61033a366004611bcc565b610aac565b5f5460405173ffffffffffffffffffffffffffffffffffffffff90911681526020016101e9565b6101dd610374366004611a74565b5f91825260036020908152604080842073ffffffffffffffffffffffffffffffffffffffff93909316845291905290205460ff1690565b6103be6103b9366004611be5565b610b64565b6040805169ffffffffffffffffffff968716815260208101959095528401929092526060830152909116608082015260a0016101e9565b6101fa610403366004611bcc565b610c5c565b6102605f81565b61026061041d366004611a3a565b610d0e565b610260610430366004611a3a565b610dbc565b6101fa610443366004611a74565b610e71565b6001546101dd9074010000000000000000000000000000000000000000900460ff1681565b6102607f2a5eaae4dcc5567b2220ea5152021b46b5fb6cffc0f3a2f4eeb192fcd2fde45281565b6101fa6104a2366004611c0e565b610e95565b6101fa6104b5366004611bcc565b610ff9565b6103be61100a565b5f7fffffffff0000000000000000000000000000000000000000000000000000000082167f7965db0b00000000000000000000000000000000000000000000000000000000148061055457507f01ffc9a7000000000000000000000000000000000000000000000000000000007fffffffff000000000000000000000000000000000000000000000000000000008316145b92915050565b61056261114e565b60015474010000000000000000000000000000000000000000900460ff16156105d657600180547fffffffffffffffffffffff00ffffffffffffffffffffffffffffffffffffffff1690556040517f3be8a977a014527b50ae38adda80b56911c267328965c98ddc385d248f539638905f90a15b565b5f828152600360205260409020600101546105f2816111b4565b6105fc83836111be565b505050565b73ffffffffffffffffffffffffffffffffffffffff811633146106915760405162461bcd60e51b815260206004820152602f60248201527f416363657373436f6e74726f6c3a2063616e206f6e6c792072656e6f756e636560448201527f20726f6c657320666f722073656c66000000000000000000000000000000000060648201526084015b60405180910390fd5b61069b82826112b0565b5050565b5f6106df335f368080601f0160208091040260200160405190810160405280939291908181526020018383808284375f9201919091525061085192505050565b61072b5760405162461bcd60e51b815260206004820152600960248201527f4e6f2061636365737300000000000000000000000000000000000000000000006044820152606401610688565b6040805160808101825260045469ffffffffffffffffffff8116825260ff6a010000000000000000000082041615156020830181905267ffffffffffffffff6b01000000000000000000000083048116948401949094527301000000000000000000000000000000000000009091049092166060820152906107ac90611369565b91505090565b5f6107f2335f368080601f0160208091040260200160405190810160405280939291908181526020018383808284375f9201919091525061085192505050565b61083e5760405162461bcd60e51b815260206004820152600960248201527f4e6f2061636365737300000000000000000000000000000000000000000000006044820152606401610688565b5060045469ffffffffffffffffffff1690565b5f61085c838361137d565b8061087c575073ffffffffffffffffffffffffffffffffffffffff831632145b9392505050565b60015473ffffffffffffffffffffffffffffffffffffffff1633146108ea5760405162461bcd60e51b815260206004820152601660248201527f4d7573742062652070726f706f736564206f776e6572000000000000000000006044820152606401610688565b5f8054337fffffffffffffffffffffffff00000000000000000000000000000000000000008083168217845560018054909116905560405173ffffffffffffffffffffffffffffffffffffffff90921692909183917f8be0079c531659141344cd1fd0a4f28419497f9722a3daafe3b4186f6b6457e091a350565b61096d61114e565b60015474010000000000000000000000000000000000000000900460ff166105d657600180547fffffffffffffffffffffff00ffffffffffffffffffffffffffffffffffffffff16740100000000000000000000000000000000000000001790556040517faebf329500988c6488a0074e5a0a9ff304561fc5c6fc877aeb1d59c8282c3480905f90a1565b5f610a38335f368080601f0160208091040260200160405190810160405280939291908181526020018383808284375f9201919091525061085192505050565b610a845760405162461bcd60e51b815260206004820152600960248201527f4e6f2061636365737300000000000000000000000000000000000000000000006044820152606401610688565b50600454730100000000000000000000000000000000000000900467ffffffffffffffff1690565b610ab461114e565b73ffffffffffffffffffffffffffffffffffffffff81165f9081526002602052604090205460ff1615610b615773ffffffffffffffffffffffffffffffffffffffff81165f8181526002602090815260409182902080547fffffffffffffffffffffffffffffffffffffffffffffffffffffffffffffff0016905590519182527f3d68a6fce901d20453d1a7aa06bf3950302a735948037deb182a8db66df2a0d191015b60405180910390a15b50565b5f5f5f5f5f610ba8335f368080601f0160208091040260200160405190810160405280939291908181526020018383808284375f9201919091525061085192505050565b610bf45760405162461bcd60e51b815260206004820152600960248201527f4e6f2061636365737300000000000000000000000000000000000000000000006044820152606401610688565b6004545f90610c13906a0100000000000000000000900460ff16611369565b600454919890975067ffffffffffffffff6b01000000000000000000000083048116975073010000000000000000000000000000000000000090920490911694505f9350915050565b610c6461114e565b73ffffffffffffffffffffffffffffffffffffffff81165f9081526002602052604090205460ff16610b615773ffffffffffffffffffffffffffffffffffffffff81165f8181526002602090815260409182902080547fffffffffffffffffffffffffffffffffffffffffffffffffffffffffffffff0016600117905590519182527f87286ad1f399c8e82bf0c4ef4fcdc570ea2e1e92176e5c848b6413545b885db49101610b58565b5f610d4e335f368080601f0160208091040260200160405190810160405280939291908181526020018383808284375f9201919091525061085192505050565b610d9a5760405162461bcd60e51b815260206004820152600960248201527f4e6f2061636365737300000000000000000000000000000000000000000000006044820152606401610688565b600454610554906a0100000000000000000000900460ff16611369565b919050565b5f610dfc335f368080601f0160208091040260200160405190810160405280939291908181526020018383808284375f9201919091525061085192505050565b610e485760405162461bcd60e51b815260206004820152600960248201527f4e6f2061636365737300000000000000000000000000000000000000000000006044820152606401610688565b5050600454730100000000000000000000000000000000000000900467ffffffffffffffff1690565b5f82815260036020526040902060010154610e8b816111b4565b6105fc83836112b0565b6040805160808101825260045469ffffffffffffffffffff8116825260ff6a01000000000000000000008204161515602083015267ffffffffffffffff6b010000000000000000000000820481169383019390935273010000000000000000000000000000000000000090049091166060820152610f12336113d1565b610f48576040517fddb5de5e00000000000000000000000000000000000000000000000000000000815260040160405180910390fd5b8167ffffffffffffffff16816040015167ffffffffffffffff161115610fd7577fe4a6e16301740042c17431042adb8f60454c18fb5934dd4c456269c0dc388fdf816020015182604001518585604051610fca9493929190931515845267ffffffffffffffff9283166020850152901515604084015216606082015260800190565b60405180910390a1505050565b8215158160200151151503610fef576105fc8361141d565b6105fc83836114bd565b61100161114e565b610b61816115ed565b5f5f5f5f5f61104e335f368080601f0160208091040260200160405190810160405280939291908181526020018383808284375f9201919091525061085192505050565b61109a5760405162461bcd60e51b815260206004820152600960248201527f4e6f2061636365737300000000000000000000000000000000000000000000006044820152606401610688565b6040805160808101825260045469ffffffffffffffffffff811680835260ff6a010000000000000000000083041615156020840181905267ffffffffffffffff6b010000000000000000000000840481169585019590955273010000000000000000000000000000000000000090920490931660608301529196509061111f90611369565b9450806040015167ffffffffffffffff169350806060015167ffffffffffffffff169250859150509091929394565b5f5473ffffffffffffffffffffffffffffffffffffffff1633146105d65760405162461bcd60e51b815260206004820152601660248201527f4f6e6c792063616c6c61626c65206279206f776e6572000000000000000000006044820152606401610688565b610b6181336116c7565b5f82815260036020908152604080832073ffffffffffffffffffffffffffffffffffffffff8516845290915290205460ff1661069b575f82815260036020908152604080832073ffffffffffffffffffffffffffffffffffffffff85168452909152902080547fffffffffffffffffffffffffffffffffffffffffffffffffffffffffffffff001660011790556112523390565b73ffffffffffffffffffffffffffffffffffffffff168173ffffffffffffffffffffffffffffffffffffffff16837f2f8788117e7eff1d82e926ec794901d17c78024a50270940304540a733656f0d60405160405180910390a45050565b5f82815260036020908152604080832073ffffffffffffffffffffffffffffffffffffffff8516845290915290205460ff161561069b575f82815260036020908152604080832073ffffffffffffffffffffffffffffffffffffffff8516808552925280832080547fffffffffffffffffffffffffffffffffffffffffffffffffffffffffffffff0016905551339285917ff6391f5c32d9c69d2a47ea670b442974b53935d1edc7fd64eb21e047a839171b9190a45050565b5f81611375575f610554565b600192915050565b73ffffffffffffffffffffffffffffffffffffffff82165f9081526002602052604081205460ff168061087c57505060015474010000000000000000000000000000000000000000900460ff161592915050565b73ffffffffffffffffffffffffffffffffffffffff81165f9081527fcd517eabc31c1833a7801217d7f33cfb459f04d23750dde425dd1010b0fd584b602052604081205460ff16610554565b6004805467ffffffffffffffff42908116730100000000000000000000000000000000000000027fffffffffff0000000000000000ffffffffffffffffffffffffffffffffffffff909216919091179091557f297642343ed2faefb1a411b39fc449eae700e54223d5d0499a9421eb6f68f66a61149983611369565b6040805191825267ffffffffffffffff841660208301520160405180910390a15050565b604080516080810182525f8082528415156020830181905267ffffffffffffffff8581169484018590524290811660608501819052600480547fffffffffffffffffffffffffff00000000000000000000000000000000000000166a01000000000000000000009094027fffffffffffffffffffffffffff0000000000000000ffffffffffffffffffffff16939093176b010000000000000000000000909602959095177fffffffffff0000000000000000ffffffffffffffffffffffffffffffffffffff167301000000000000000000000000000000000000009095029490941790556115aa85611369565b60405167ffffffffffffffff861681527f0559884fd3a460db3073b7fc896cc77986f16e378210ded43186175bf646fc5f9060200160405180910390a350505050565b3373ffffffffffffffffffffffffffffffffffffffff8216036116525760405162461bcd60e51b815260206004820152601760248201527f43616e6e6f74207472616e7366657220746f2073656c660000000000000000006044820152606401610688565b600180547fffffffffffffffffffffffff00000000000000000000000000000000000000001673ffffffffffffffffffffffffffffffffffffffff8381169182179092555f8054604051929316917fed8889f560326eb138920d842192f0eb3dd22b4f139c87a2c57538e05bae12789190a350565b5f82815260036020908152604080832073ffffffffffffffffffffffffffffffffffffffff8516845290915290205460ff1661069b5761170681611766565b611711836020611785565b604051602001611722929190611c6c565b604080517fffffffffffffffffffffffffffffffffffffffffffffffffffffffffffffffe08184030181529082905262461bcd60e51b8252610688916004016119e7565b606061055473ffffffffffffffffffffffffffffffffffffffff831660145b60605f611793836002611d03565b61179e906002611d1a565b67ffffffffffffffff8111156117b6576117b6611a9e565b6040519080825280601f01601f1916602001820160405280156117e0576020820181803683370190505b5090507f3000000000000000000000000000000000000000000000000000000000000000815f8151811061181657611816611d2d565b60200101907effffffffffffffffffffffffffffffffffffffffffffffffffffffffffffff191690815f1a9053507f78000000000000000000000000000000000000000000000000000000000000008160018151811061187857611878611d2d565b60200101907effffffffffffffffffffffffffffffffffffffffffffffffffffffffffffff191690815f1a9053505f6118b2846002611d03565b6118bd906001611d1a565b90505b6001811115611959577f303132333435363738396162636465660000000000000000000000000000000085600f16601081106118fe576118fe611d2d565b1a60f81b82828151811061191457611914611d2d565b60200101907effffffffffffffffffffffffffffffffffffffffffffffffffffffffffffff191690815f1a90535060049490941c9361195281611d5a565b90506118c0565b50831561087c5760405162461bcd60e51b815260206004820181905260248201527f537472696e67733a20686578206c656e67746820696e73756666696369656e746044820152606401610688565b5f602082840312156119b8575f5ffd5b81357fffffffff000000000000000000000000000000000000000000000000000000008116811461087c575f5ffd5b602081525f82518060208401528060208501604085015e5f6040828501015260407fffffffffffffffffffffffffffffffffffffffffffffffffffffffffffffffe0601f83011684010191505092915050565b5f60208284031215611a4a575f5ffd5b5035919050565b803573ffffffffffffffffffffffffffffffffffffffff81168114610db7575f5ffd5b5f5f60408385031215611a85575f5ffd5b82359150611a9560208401611a51565b90509250929050565b7f4e487b71000000000000000000000000000000000000000000000000000000005f52604160045260245ffd5b5f5f60408385031215611adc575f5ffd5b611ae583611a51565b9150602083013567ffffffffffffffff811115611b00575f5ffd5b8301601f81018513611b10575f5ffd5b803567ffffffffffffffff811115611b2a57611b2a611a9e565b6040517fffffffffffffffffffffffffffffffffffffffffffffffffffffffffffffffe0603f7fffffffffffffffffffffffffffffffffffffffffffffffffffffffffffffffe0601f8501160116810181811067ffffffffffffffff82111715611b9657611b96611a9e565b604052818152828201602001871015611bad575f5ffd5b816020840160208301375f602083830101528093505050509250929050565b5f60208284031215611bdc575f5ffd5b61087c82611a51565b5f60208284031215611bf5575f5ffd5b813569ffffffffffffffffffff8116811461087c575f5ffd5b5f5f60408385031215611c1f575f5ffd5b82358015158114611c2e575f5ffd5b9150602083013567ffffffffffffffff81168114611c4a575f5ffd5b809150509250929050565b5f81518060208401855e5f93019283525090919050565b7f416363657373436f6e74726f6c3a206163636f756e742000000000000000000081525f611c9d6017830185611c55565b7f206973206d697373696e6720726f6c65200000000000000000000000000000008152611ccd6011820185611c55565b95945050505050565b7f4e487b71000000000000000000000000000000000000000000000000000000005f52601160045260245ffd5b808202811582820484141761055457610554611cd6565b8082018082111561055457610554611cd6565b7f4e487b71000000000000000000000000000000000000000000000000000000005f52603260045260245ffd5b5f81611d6857611d68611cd6565b507fffffffffffffffffffffffffffffffffffffffffffffffffffffffffffffffff019056fea264697066735822122015b1d22570a3cfdb3221ff334242bf8f66e4c23157923a48cb42b8b3e82da17f64736f6c634300081e0033",
  "linkReferences": {},
  "deployedLinkReferences": {}
}