{
  "_format": "hh-sol-artifact-1",
  "contractName": "LineaSequencerUptimeFeed",
  "sourceName": "contracts/src/libraries/LineaSequencerUptimeFeed.sol",
  "abi": [
    {
      "inputs": [
        {
          "internalType": "bool",
          "name": "initialStatus",
          "type": "bool"
        }
      ],
      "stateMutability": "nonpayable",
      "type": "constructor"
    },
    {
      "inputs": [],
      "name": "InvalidSender",
      "type": "error"
    },
    {
      "anonymous": false,
      "inputs": [
        {
          "indexed": false,
          "internalType": "address",
          "name": "user",
          "type": "address"
        }
      ],
      "name": "AddedAccess",
      "type": "event"
    },
    {
      "anonymous": false,
      "inputs": [
        {
          "indexed": true,
          "internalType": "int256",
          "name": "current",
          "type": "int256"
        },
        {
          "indexed": true,
          "internalType": "uint256",
          "name": "roundId",
          "type": "uint256"
        },
        {
          "indexed": false,
          "internalType": "uint256",
          "name": "updatedAt",
          "type": "uint256"
        }
      ],
      "name": "AnswerUpdated",
      "type": "event"
    },
    {
      "anonymous": false,
      "inputs": [],
      "name": "CheckAccessDisabled",
      "type": "event"
    },
    {
      "anonymous": false,
      "inputs": [],
      "name": "CheckAccessEnabled",
      "type": "event"
    },
    {
      "anonymous": false,
      "inputs": [
        {
          "indexed": true,
          "internalType": "uint256",
          "name": "roundId",
          "type": "uint256"
        },
        {
          "indexed": true,
          "internalType": "address",
          "name": "startedBy",
          "type": "address"
        },
        {
          "indexed": false,
          "internalType": "uint256",
          "name": "startedAt",
          "type": "uint256"
        }
      ],
      "name": "NewRound",
      "type": "event"
    },
    {
      "anonymous": false,
      "inputs": [
        {
          "indexed": true,
          "internalType": "address",
          "name": "from",
          "type": "address"
        },
        {
          "indexed": true,
          "internalType": "address",
          "name": "to",
          "type": "address"
        }
      ],
      "name": "OwnershipTransferRequested",
      "type": "event"
    },
    {
      "anonymous": false,
      "inputs": [
        {
          "indexed": true,
          "internalType": "address",
          "name": "from",
          "type": "address"
        },
        {
          "indexed": true,
          "internalType": "address",
          "name": "to",
          "type": "address"
        }
      ],
      "name": "OwnershipTransferred",
      "type": "event"
    },
    {
      "anonymous": false,
      "inputs": [
        {
          "indexed": false,
          "internalType": "address",
          "name": "user",
          "type": "address"
        }
      ],
      "name": "RemovedAccess",
      "type": "event"
    },
    {
      "anonymous": false,
      "inputs": [
        {
          "indexed": false,
          "internalType": "int256",
          "name": "status",
          "type": "int256"
        },
        {
          "indexed": false,
          "internalType": "uint64",
          "name": "updatedAt",
          "type": "uint64"
        }
      ],
      "name": "RoundUpdated",
      "type": "event"
    },
    {
      "anonymous": false,
      "inputs": [
        {
          "indexed": false,
          "internalType": "bool",
          "name": "latestStatus",
          "type": "bool"
        },
        {
          "indexed": false,
          "internalType": "uint64",
          "name": "latestTimestamp",
          "type": "uint64"
        },
        {
          "indexed": false,
          "internalType": "bool",
          "name": "incomingStatus",
          "type": "bool"
        },
        {
          "indexed": false,
          "internalType": "uint64",
          "name": "incomingTimestamp",
          "type": "uint64"
        }
      ],
      "name": "UpdateIgnored",
      "type": "event"
    },
    {
      "inputs": [],
      "name": "acceptOwnership",
      "outputs": [],
      "stateMutability": "nonpayable",
      "type": "function"
    },
    {
      "inputs": [
        {
          "internalType": "address",
          "name": "_user",
          "type": "address"
        }
      ],
      "name": "addAccess",
      "outputs": [],
      "stateMutability": "nonpayable",
      "type": "function"
    },
    {
      "inputs": [],
      "name": "checkEnabled",
      "outputs": [
        {
          "internalType": "bool",
          "name": "",
          "type": "bool"
        }
      ],
      "stateMutability": "view",
      "type": "function"
    },
    {
      "inputs": [],
      "name": "decimals",
      "outputs": [
        {
          "internalType": "uint8",
          "name": "",
          "type": "uint8"
        }
      ],
      "stateMutability": "view",
      "type": "function"
    },
    {
      "inputs": [],
      "name": "description",
      "outputs": [
        {
          "internalType": "string",
          "name": "",
          "type": "string"
        }
      ],
      "stateMutability": "view",
      "type": "function"
    },
    {
      "inputs": [],
      "name": "disableAccessCheck",
      "outputs": [],
      "stateMutability": "nonpayable",
      "type": "function"
    },
    {
      "inputs": [],
      "name": "enableAccessCheck",
      "outputs": [],
      "stateMutability": "nonpayable",
      "type": "function"
    },
    {
      "inputs": [
        {
          "internalType": "uint256",
          "name": "roundId",
          "type": "uint256"
        }
      ],
      "name": "getAnswer",
      "outputs": [
        {
          "internalType": "int256",
          "name": "",
          "type": "int256"
        }
      ],
      "stateMutability": "view",
      "type": "function"
    },
    {
      "inputs": [
        {
          "internalType": "uint80",
          "name": "_roundId",
          "type": "uint80"
        }
      ],
      "name": "getRoundData",
      "outputs": [
        {
          "internalType": "uint80",
          "name": "roundId",
          "type": "uint80"
        },
        {
          "internalType": "int256",
          "name": "answer",
          "type": "int256"
        },
        {
          "internalType": "uint256",
          "name": "startedAt",
          "type": "uint256"
        },
        {
          "internalType": "uint256",
          "name": "updatedAt",
          "type": "uint256"
        },
        {
          "internalType": "uint80",
          "name": "answeredInRound",
          "type": "uint80"
        }
      ],
      "stateMutability": "view",
      "type": "function"
    },
    {
      "inputs": [
        {
          "internalType": "uint256",
          "name": "roundId",
          "type": "uint256"
        }
      ],
      "name": "getTimestamp",
      "outputs": [
        {
          "internalType": "uint256",
          "name": "",
          "type": "uint256"
        }
      ],
      "stateMutability": "view",
      "type": "function"
    },
    {
      "inputs": [
        {
          "internalType": "address",
          "name": "_user",
          "type": "address"
        },
        {
          "internalType": "bytes",
          "name": "_calldata",
          "type": "bytes"
        }
      ],
      "name": "hasAccess",
      "outputs": [
        {
          "internalType": "bool",
          "name": "",
          "type": "bool"
        }
      ],
      "stateMutability": "view",
      "type": "function"
    },
    {
      "inputs": [],
      "name": "latestAnswer",
      "outputs": [
        {
          "internalType": "int256",
          "name": "",
          "type": "int256"
        }
      ],
      "stateMutability": "view",
      "type": "function"
    },
    {
      "inputs": [],
      "name": "latestRound",
      "outputs": [
        {
          "internalType": "uint256",
          "name": "",
          "type": "uint256"
        }
      ],
      "stateMutability": "view",
      "type": "function"
    },
    {
      "inputs": [],
      "name": "latestRoundData",
      "outputs": [
        {
          "internalType": "uint80",
          "name": "roundId",
          "type": "uint80"
        },
        {
          "internalType": "int256",
          "name": "answer",
          "type": "int256"
        },
        {
          "internalType": "uint256",
          "name": "startedAt",
          "type": "uint256"
        },
        {
          "internalType": "uint256",
          "name": "updatedAt",
          "type": "uint256"
        },
        {
          "internalType": "uint80",
          "name": "answeredInRound",
          "type": "uint80"
        }
      ],
      "stateMutability": "view",
      "type": "function"
    },
    {
      "inputs": [],
      "name": "latestTimestamp",
      "outputs": [
        {
          "internalType": "uint256",
          "name": "",
          "type": "uint256"
        }
      ],
      "stateMutability": "view",
      "type": "function"
    },
    {
      "inputs": [],
      "name": "owner",
      "outputs": [
        {
          "internalType": "address",
          "name": "",
          "type": "address"
        }
      ],
      "stateMutability": "view",
      "type": "function"
    },
    {
      "inputs": [
        {
          "internalType": "address",
          "name": "_user",
          "type": "address"
        }
      ],
      "name": "removeAccess",
      "outputs": [],
      "stateMutability": "nonpayable",
      "type": "function"
    },
    {
      "inputs": [
        {
          "internalType": "address",
          "name": "to",
          "type": "address"
        }
      ],
      "name": "transferOwnership",
      "outputs": [],
      "stateMutability": "nonpayable",
      "type": "function"
    },
    {
      "inputs": [],
      "name": "typeAndVersion",
      "outputs": [
        {
          "internalType": "string",
          "name": "",
          "type": "string"
        }
      ],
      "stateMutability": "pure",
      "type": "function"
    },
    {
      "inputs": [
        {
          "internalType": "bool",
          "name": "status",
          "type": "bool"
        },
        {
          "internalType": "uint64",
          "name": "timestamp",
          "type": "uint64"
        }
      ],
      "name": "updateStatus",
      "outputs": [],
      "stateMutability": "nonpayable",
      "type": "function"
    },
    {
      "inputs": [],
      "name": "version",
      "outputs": [
        {
          "internalType": "uint256",
          "name": "",
          "type": "uint256"
        }
      ],
      "stateMutability": "view",
      "type": "function"
    }
  ],
  "bytecode": "60806040526040518060800160405280600069ffffffffffffffffffff168152602001600015158152602001600067ffffffffffffffff168152602001600067ffffffffffffffff16815250600360008201518160000160006101000a81548169ffffffffffffffffffff021916908369ffffffffffffffffffff160217905550602082015181600001600a6101000a81548160ff021916908315150217905550604082015181600001600b6101000a81548167ffffffffffffffff021916908367ffffffffffffffff16021790555060608201518160000160136101000a81548167ffffffffffffffff021916908367ffffffffffffffff160217905550505034801561010c57600080fd5b50604051612239380380612239833981810160405281019061012e9190610530565b338060008073ffffffffffffffffffffffffffffffffffffffff168273ffffffffffffffffffffffffffffffffffffffff16036101a0576040517f08c379a0000000000000000000000000000000000000000000000000000000008152600401610197906105ba565b60405180910390fd5b816000806101000a81548173ffffffffffffffffffffffffffffffffffffffff021916908373ffffffffffffffffffffffffffffffffffffffff160217905550600073ffffffffffffffffffffffffffffffffffffffff168173ffffffffffffffffffffffffffffffffffffffff1614610224576102238161025d60201b60201c565b5b50505060018060146101000a81548160ff0219169083151502179055506000429050610256828261038960201b60201c565b50506106ba565b3373ffffffffffffffffffffffffffffffffffffffff168173ffffffffffffffffffffffffffffffffffffffff16036102cb576040517f08c379a00000000000000000000000000000000000000000000000000000000081526004016102c290610626565b60405180910390fd5b80600160006101000a81548173ffffffffffffffffffffffffffffffffffffffff021916908373ffffffffffffffffffffffffffffffffffffffff1602179055508073ffffffffffffffffffffffffffffffffffffffff1660008054906101000a900473ffffffffffffffffffffffffffffffffffffffff1673ffffffffffffffffffffffffffffffffffffffff167fed8889f560326eb138920d842192f0eb3dd22b4f139c87a2c57538e05bae127860405160405180910390a350565b600042905060006040518060800160405280600069ffffffffffffffffffff16815260200185151581526020018467ffffffffffffffff1681526020018367ffffffffffffffff16815250905080600360008201518160000160006101000a81548169ffffffffffffffffffff021916908369ffffffffffffffffffff160217905550602082015181600001600a6101000a81548160ff021916908315150217905550604082015181600001600b6101000a81548167ffffffffffffffff021916908367ffffffffffffffff16021790555060608201518160000160136101000a81548167ffffffffffffffff021916908367ffffffffffffffff160217905550905050600061049e856104db60201b60201c565b7f0559884fd3a460db3073b7fc896cc77986f16e378210ded43186175bf646fc5f856040516104cd919061069f565b60405180910390a350505050565b6000816104e95760006104ec565b60015b9050919050565b600080fd5b60008115159050919050565b61050d816104f8565b811461051857600080fd5b50565b60008151905061052a81610504565b92915050565b600060208284031215610546576105456104f3565b5b60006105548482850161051b565b91505092915050565b600082825260208201905092915050565b7f43616e6e6f7420736574206f776e657220746f207a65726f0000000000000000600082015250565b60006105a460188361055d565b91506105af8261056e565b602082019050919050565b600060208201905081810360008301526105d381610597565b9050919050565b7f43616e6e6f74207472616e7366657220746f2073656c66000000000000000000600082015250565b600061061060178361055d565b915061061b826105da565b602082019050919050565b6000602082019050818103600083015261063f81610603565b9050919050565b600067ffffffffffffffff82169050919050565b6000819050919050565b6000819050919050565b600061068961068461067f84610646565b610664565b61065a565b9050919050565b6106998161066e565b82525050565b60006020820190506106b46000830184610690565b92915050565b611b70806106c96000396000f3fe608060405234801561001057600080fd5b50600436106101375760003560e01c80638205bf6a116100b8578063b5ab58dc1161007c578063b5ab58dc146102e6578063b633620c14610316578063dc7f012414610346578063ed8378f514610364578063f2fde38b14610380578063feaf968c1461039c57610137565b80638205bf6a1461023e5780638823da6c1461025c5780638da5cb5b146102785780639a6fc8f514610296578063a118f249146102ca57610137565b8063668a0f02116100ff578063668a0f02146101be5780636b14daf8146101dc5780637284e4161461020c57806379ba50971461022a5780638038e4a11461023457610137565b80630a7569831461013c578063181f5a7714610146578063313ce5671461016457806350d25bcd1461018257806354fd4d50146101a0575b600080fd5b6101446103be565b005b61014e610425565b60405161015b9190611390565b60405180910390f35b61016c610462565b60405161017991906113ce565b60405180910390f35b61018a610467565b6040516101979190611402565b60405180910390f35b6101a86105d2565b6040516101b59190611436565b60405180910390f35b6101c66105d7565b6040516101d39190611436565b60405180910390f35b6101f660048036038101906101f191906115f8565b610606565b604051610203919061166f565b60405180910390f35b610214610650565b6040516102219190611390565b60405180910390f35b610232610689565b005b61023c61081e565b005b610246610883565b6040516102539190611436565b60405180910390f35b6102766004803603810190610271919061168a565b6108ae565b005b61028061099b565b60405161028d91906116c6565b60405180910390f35b6102b060048036038101906102ab9190611723565b6109c4565b6040516102c195949392919061175f565b60405180910390f35b6102e460048036038101906102df919061168a565b610a4b565b005b61030060048036038101906102fb91906117de565b610b37565b60405161030d9190611402565b60405180910390f35b610330600480360381019061032b91906117de565b610b5b565b60405161033d9190611436565b60405180910390f35b61034e610b88565b60405161035b919061166f565b60405180910390f35b61037e60048036038101906103799190611877565b610b9b565b005b61039a6004803603810190610395919061168a565b610d3b565b005b6103a4610d4f565b6040516103b595949392919061175f565b60405180910390f35b6103c6610ef0565b600160149054906101000a900460ff1615610423576000600160146101000a81548160ff0219169083151502179055507f3be8a977a014527b50ae38adda80b56911c267328965c98ddc385d248f53963860405160405180910390a15b565b60606040518060400160405280601e81526020017f4c696e656153657175656e636572557074696d654665656420312e302e300000815250905090565b600081565b60006104b8336000368080601f016020809104026020016040519081016040528093929190818152602001838380828437600081840152601f19601f82011690508083019250505050505050610606565b6104f7576040517f08c379a00000000000000000000000000000000000000000000000000000000081526004016104ee90611903565b60405180910390fd5b600060036040518060800160405290816000820160009054906101000a900469ffffffffffffffffffff1669ffffffffffffffffffff1669ffffffffffffffffffff16815260200160008201600a9054906101000a900460ff1615151515815260200160008201600b9054906101000a900467ffffffffffffffff1667ffffffffffffffff1667ffffffffffffffff1681526020016000820160139054906101000a900467ffffffffffffffff1667ffffffffffffffff1667ffffffffffffffff168152505090506105cc8160200151610f80565b91505090565b600181565b6000600360000160009054906101000a900469ffffffffffffffffffff1669ffffffffffffffffffff16905090565b60006106128383610f98565b8061064857503273ffffffffffffffffffffffffffffffffffffffff168373ffffffffffffffffffffffffffffffffffffffff16145b905092915050565b6040518060400160405280601f81526020017f4c322053657175656e63657220557074696d652053746174757320466565640081525081565b600160009054906101000a900473ffffffffffffffffffffffffffffffffffffffff1673ffffffffffffffffffffffffffffffffffffffff163373ffffffffffffffffffffffffffffffffffffffff1614610719576040517f08c379a00000000000000000000000000000000000000000000000000000000081526004016107109061196f565b60405180910390fd5b60008060009054906101000a900473ffffffffffffffffffffffffffffffffffffffff169050336000806101000a81548173ffffffffffffffffffffffffffffffffffffffff021916908373ffffffffffffffffffffffffffffffffffffffff1602179055506000600160006101000a81548173ffffffffffffffffffffffffffffffffffffffff021916908373ffffffffffffffffffffffffffffffffffffffff1602179055503373ffffffffffffffffffffffffffffffffffffffff168173ffffffffffffffffffffffffffffffffffffffff167f8be0079c531659141344cd1fd0a4f28419497f9722a3daafe3b4186f6b6457e060405160405180910390a350565b610826610ef0565b600160149054906101000a900460ff166108815760018060146101000a81548160ff0219169083151502179055507faebf329500988c6488a0074e5a0a9ff304561fc5c6fc877aeb1d59c8282c348060405160405180910390a15b565b6000600360000160139054906101000a900467ffffffffffffffff1667ffffffffffffffff16905090565b6108b6610ef0565b600260008273ffffffffffffffffffffffffffffffffffffffff1673ffffffffffffffffffffffffffffffffffffffff16815260200190815260200160002060009054906101000a900460ff1615610998576000600260008373ffffffffffffffffffffffffffffffffffffffff1673ffffffffffffffffffffffffffffffffffffffff16815260200190815260200160002060006101000a81548160ff0219169083151502179055507f3d68a6fce901d20453d1a7aa06bf3950302a735948037deb182a8db66df2a0d18160405161098f91906116c6565b60405180910390a15b50565b60008060009054906101000a900473ffffffffffffffffffffffffffffffffffffffff16905090565b6000806000806000806109e86003600001600a9054906101000a900460ff16610f80565b6003600001600b9054906101000a900467ffffffffffffffff16600360000160139054906101000a900467ffffffffffffffff1660008267ffffffffffffffff1692508167ffffffffffffffff1691509450945094509450945091939590929450565b610a53610ef0565b600260008273ffffffffffffffffffffffffffffffffffffffff1673ffffffffffffffffffffffffffffffffffffffff16815260200190815260200160002060009054906101000a900460ff16610b34576001600260008373ffffffffffffffffffffffffffffffffffffffff1673ffffffffffffffffffffffffffffffffffffffff16815260200190815260200160002060006101000a81548160ff0219169083151502179055507f87286ad1f399c8e82bf0c4ef4fcdc570ea2e1e92176e5c848b6413545b885db481604051610b2b91906116c6565b60405180910390a15b50565b6000610b546003600001600a9054906101000a900460ff16610f80565b9050919050565b6000600360000160139054906101000a900467ffffffffffffffff1667ffffffffffffffff169050919050565b600160149054906101000a900460ff1681565b600060036040518060800160405290816000820160009054906101000a900469ffffffffffffffffffff1669ffffffffffffffffffff1669ffffffffffffffffffff16815260200160008201600a9054906101000a900460ff1615151515815260200160008201600b9054906101000a900467ffffffffffffffff1667ffffffffffffffff1667ffffffffffffffff1681526020016000820160139054906101000a900467ffffffffffffffff1667ffffffffffffffff1667ffffffffffffffff16815250509050610c6c33611007565b610ca2576040517fddb5de5e00000000000000000000000000000000000000000000000000000000815260040160405180910390fd5b8167ffffffffffffffff16816040015167ffffffffffffffff161115610d0d577fe4a6e16301740042c17431042adb8f60454c18fb5934dd4c456269c0dc388fdf816020015182604001518585604051610cff949392919061199e565b60405180910390a150610d37565b8215158160200151151503610d2a57610d2583611012565b610d35565b610d348383611088565b5b505b5050565b610d43610ef0565b610d4c816111d4565b50565b6000806000806000610da6336000368080601f016020809104026020016040519081016040528093929190818152602001838380828437600081840152601f19601f82011690508083019250505050505050610606565b610de5576040517f08c379a0000000000000000000000000000000000000000000000000000000008152600401610ddc90611903565b60405180910390fd5b600060036040518060800160405290816000820160009054906101000a900469ffffffffffffffffffff1669ffffffffffffffffffff1669ffffffffffffffffffff16815260200160008201600a9054906101000a900460ff1615151515815260200160008201600b9054906101000a900467ffffffffffffffff1667ffffffffffffffff1667ffffffffffffffff1681526020016000820160139054906101000a900467ffffffffffffffff1667ffffffffffffffff1667ffffffffffffffff1681525050905080600001519550610ec18160200151610f80565b9450806040015167ffffffffffffffff169350806060015167ffffffffffffffff169250859150509091929394565b60008054906101000a900473ffffffffffffffffffffffffffffffffffffffff1673ffffffffffffffffffffffffffffffffffffffff163373ffffffffffffffffffffffffffffffffffffffff1614610f7e576040517f08c379a0000000000000000000000000000000000000000000000000000000008152600401610f7590611a2f565b60405180910390fd5b565b600081610f8e576000610f91565b60015b9050919050565b6000600260008473ffffffffffffffffffffffffffffffffffffffff1673ffffffffffffffffffffffffffffffffffffffff16815260200190815260200160002060009054906101000a900460ff1680610fff5750600160149054906101000a900460ff16155b905092915050565b600060019050919050565b600042905080600360000160136101000a81548167ffffffffffffffff021916908367ffffffffffffffff1602179055507f297642343ed2faefb1a411b39fc449eae700e54223d5d0499a9421eb6f68f66a61106d83610f80565b8260405161107c929190611a4f565b60405180910390a15050565b600042905060006040518060800160405280600069ffffffffffffffffffff16815260200185151581526020018467ffffffffffffffff1681526020018367ffffffffffffffff16815250905080600360008201518160000160006101000a81548169ffffffffffffffffffff021916908369ffffffffffffffffffff160217905550602082015181600001600a6101000a81548160ff021916908315150217905550604082015181600001600b6101000a81548167ffffffffffffffff021916908367ffffffffffffffff16021790555060608201518160000160136101000a81548167ffffffffffffffff021916908367ffffffffffffffff160217905550905050600061119785610f80565b7f0559884fd3a460db3073b7fc896cc77986f16e378210ded43186175bf646fc5f856040516111c69190611ab3565b60405180910390a350505050565b3373ffffffffffffffffffffffffffffffffffffffff168173ffffffffffffffffffffffffffffffffffffffff1603611242576040517f08c379a000000000000000000000000000000000000000000000000000000000815260040161123990611b1a565b60405180910390fd5b80600160006101000a81548173ffffffffffffffffffffffffffffffffffffffff021916908373ffffffffffffffffffffffffffffffffffffffff1602179055508073ffffffffffffffffffffffffffffffffffffffff1660008054906101000a900473ffffffffffffffffffffffffffffffffffffffff1673ffffffffffffffffffffffffffffffffffffffff167fed8889f560326eb138920d842192f0eb3dd22b4f139c87a2c57538e05bae127860405160405180910390a350565b600081519050919050565b600082825260208201905092915050565b60005b8381101561133a57808201518184015260208101905061131f565b60008484015250505050565b6000601f19601f8301169050919050565b600061136282611300565b61136c818561130b565b935061137c81856020860161131c565b61138581611346565b840191505092915050565b600060208201905081810360008301526113aa8184611357565b905092915050565b600060ff82169050919050565b6113c8816113b2565b82525050565b60006020820190506113e360008301846113bf565b92915050565b6000819050919050565b6113fc816113e9565b82525050565b600060208201905061141760008301846113f3565b92915050565b6000819050919050565b6114308161141d565b82525050565b600060208201905061144b6000830184611427565b92915050565b6000604051905090565b600080fd5b600080fd5b600073ffffffffffffffffffffffffffffffffffffffff82169050919050565b600061149082611465565b9050919050565b6114a081611485565b81146114ab57600080fd5b50565b6000813590506114bd81611497565b92915050565b600080fd5b600080fd5b7f4e487b7100000000000000000000000000000000000000000000000000000000600052604160045260246000fd5b61150582611346565b810181811067ffffffffffffffff82111715611524576115236114cd565b5b80604052505050565b6000611537611451565b905061154382826114fc565b919050565b600067ffffffffffffffff821115611563576115626114cd565b5b61156c82611346565b9050602081019050919050565b82818337600083830152505050565b600061159b61159684611548565b61152d565b9050828152602081018484840111156115b7576115b66114c8565b5b6115c2848285611579565b509392505050565b600082601f8301126115df576115de6114c3565b5b81356115ef848260208601611588565b91505092915050565b6000806040838503121561160f5761160e61145b565b5b600061161d858286016114ae565b925050602083013567ffffffffffffffff81111561163e5761163d611460565b5b61164a858286016115ca565b9150509250929050565b60008115159050919050565b61166981611654565b82525050565b60006020820190506116846000830184611660565b92915050565b6000602082840312156116a05761169f61145b565b5b60006116ae848285016114ae565b91505092915050565b6116c081611485565b82525050565b60006020820190506116db60008301846116b7565b92915050565b600069ffffffffffffffffffff82169050919050565b611700816116e1565b811461170b57600080fd5b50565b60008135905061171d816116f7565b92915050565b6000602082840312156117395761173861145b565b5b60006117478482850161170e565b91505092915050565b611759816116e1565b82525050565b600060a0820190506117746000830188611750565b61178160208301876113f3565b61178e6040830186611427565b61179b6060830185611427565b6117a86080830184611750565b9695505050505050565b6117bb8161141d565b81146117c657600080fd5b50565b6000813590506117d8816117b2565b92915050565b6000602082840312156117f4576117f361145b565b5b6000611802848285016117c9565b91505092915050565b61181481611654565b811461181f57600080fd5b50565b6000813590506118318161180b565b92915050565b600067ffffffffffffffff82169050919050565b61185481611837565b811461185f57600080fd5b50565b6000813590506118718161184b565b92915050565b6000806040838503121561188e5761188d61145b565b5b600061189c85828601611822565b92505060206118ad85828601611862565b9150509250929050565b7f4e6f206163636573730000000000000000000000000000000000000000000000600082015250565b60006118ed60098361130b565b91506118f8826118b7565b602082019050919050565b6000602082019050818103600083015261191c816118e0565b9050919050565b7f4d7573742062652070726f706f736564206f776e657200000000000000000000600082015250565b600061195960168361130b565b915061196482611923565b602082019050919050565b600060208201905081810360008301526119888161194c565b9050919050565b61199881611837565b82525050565b60006080820190506119b36000830187611660565b6119c0602083018661198f565b6119cd6040830185611660565b6119da606083018461198f565b95945050505050565b7f4f6e6c792063616c6c61626c65206279206f776e657200000000000000000000600082015250565b6000611a1960168361130b565b9150611a24826119e3565b602082019050919050565b60006020820190508181036000830152611a4881611a0c565b9050919050565b6000604082019050611a6460008301856113f3565b611a71602083018461198f565b9392505050565b6000819050919050565b6000611a9d611a98611a9384611837565b611a78565b61141d565b9050919050565b611aad81611a82565b82525050565b6000602082019050611ac86000830184611aa4565b92915050565b7f43616e6e6f74207472616e7366657220746f2073656c66000000000000000000600082015250565b6000611b0460178361130b565b9150611b0f82611ace565b602082019050919050565b60006020820190508181036000830152611b3381611af7565b905091905056fea2646970667358221220b07018f4b6fd9c8b704cc081a738dad79890b62ac0b092341f1110d930f9389464736f6c634300081e0033",
  "linkReferences": {},
  "deployedLinkReferences": {}
}