{
  "_format": "hh-sol-artifact-1",
  "contractName": "LineaScenarioDelegatingProxy",
  "sourceName": "src/_testing/mocks/base/LineaScenarioDelegatingProxy.sol",
  "abi": [
    {
      "inputs": [
        {
          "internalType": "enum LineaScenarioTesting.Scenario",
          "name": "_scenario",
          "type": "uint8"
        },
        {
          "internalType": "uint256",
          "name": "_loopIterations",
          "type": "uint256"
        }
      ],
      "name": "executeScenario",
      "outputs": [
        {
          "internalType": "bool",
          "name": "",
          "type": "bool"
        }
      ],
      "stateMutability": "nonpayable",
      "type": "function"
    },
    {
      "inputs": [
        {
          "internalType": "address",
          "name": "",
          "type": "address"
        },
        {
          "internalType": "enum LineaScenarioTesting.Scenario",
          "name": "",
          "type": "uint8"
        }
      ],
      "name": "executedScenarios",
      "outputs": [
        {
          "internalType": "bool",
          "name": "",
          "type": "bool"
        }
      ],
      "stateMutability": "view",
      "type": "function"
    }
  ],
  "bytecode": "0x608060405234801561001057600080fd5b506105b1806100206000396000f3fe608060405234801561001057600080fd5b50600436106100365760003560e01c8063632265341461003b578063bfc8045614610062575b600080fd5b61004e61004936600461025e565b61008d565b604051901515815260200160405180910390f35b61004e610070366004610288565b600060208181529281526040808220909352908152205460ff1681565b60008060405161009c9061023d565b604051809103906000f0801580156100b8573d6000803e3d6000fd5b50905060008173ffffffffffffffffffffffffffffffffffffffff1685856040516024016100e7929190610305565b604080517fffffffffffffffffffffffffffffffffffffffffffffffffffffffffffffffe08184030181529181526020820180517bffffffffffffffffffffffffffffffffffffffffffffffffffffffff167f632265340000000000000000000000000000000000000000000000000000000017905251610168919061034a565b600060405180830381855af49150503d80600081146101a3576040519150601f19603f3d011682016040523d82523d6000602084013e6101a8565b606091505b505073ffffffffffffffffffffffffffffffffffffffff831660009081526020819052604081209192508291908760018111156101e7576101e76102d6565b60018111156101f8576101f86102d6565b8152602081019190915260400160002080547fffffffffffffffffffffffffffffffffffffffffffffffffffffffffffffff0016911515919091179055949350505050565b6102028061037a83390190565b80356002811061025957600080fd5b919050565b6000806040838503121561027157600080fd5b61027a8361024a565b946020939093013593505050565b6000806040838503121561029b57600080fd5b823573ffffffffffffffffffffffffffffffffffffffff811681146102bf57600080fd5b91506102cd6020840161024a565b90509250929050565b7f4e487b7100000000000000000000000000000000000000000000000000000000600052602160045260246000fd5b6040810160028410610340577f4e487b7100000000000000000000000000000000000000000000000000000000600052602160045260246000fd5b9281526020015290565b6000825160005b8181101561036b5760208186018101518583015201610351565b50600092019182525091905056fe608060405234801561001057600080fd5b506101e2806100206000396000f3fe608060405234801561001057600080fd5b506004361061002b5760003560e01c80636322653414610030575b600080fd5b61004361003e3660046100ee565b610057565b604051901515815260200160405180910390f35b6000610063838361006a565b9392505050565b600060018360018111156100805761008061011e565b036100e55760005b828110156100a2578061009a8161014d565b915050610088565b600080548591907fffffffffffffffffffffffffffffffffffffffffffffffffffffffffffffff0016600183818111156100de576100de61011e565b0217905550505b50600192915050565b6000806040838503121561010157600080fd5b82356002811061011057600080fd5b946020939093013593505050565b7f4e487b7100000000000000000000000000000000000000000000000000000000600052602160045260246000fd5b60007fffffffffffffffffffffffffffffffffffffffffffffffffffffffffffffffff82036101a5577f4e487b7100000000000000000000000000000000000000000000000000000000600052601160045260246000fd5b506001019056fea264697066735822122008b0d6e2c41d2d38087305ac063c4bc5ee7b8c4802e25232107224956548426064736f6c63430008130033a264697066735822122045342910478fd755f4afea9b56e0fffb346af611864b922b89d2451664b941fb64736f6c63430008130033",
  "linkReferences": {},
  "deployedLinkReferences": {}
}