{
  "_format": "hh-sol-artifact-1",
  "contractName": "MultiMessageSender",
  "sourceName": "src/_testing/integration/MultiMessageSender.sol",
  "abi": [
    {
      "inputs": [
        {
          "internalType": "address",
          "name": "messageService",
          "type": "address"
        },
        {
          "internalType": "address",
          "name": "to",
          "type": "address"
        },
        {
          "internalType": "uint256",
          "name": "fee",
          "type": "uint256"
        },
        {
          "internalType": "uint256",
          "name": "count",
          "type": "uint256"
        }
      ],
      "name": "sendMultipleMessages",
      "outputs": [],
      "stateMutability": "payable",
      "type": "function"
    }
  ],
  "bytecode": "0x6080604052348015600e575f5ffd5b506101838061001c5f395ff3fe60806040526004361061001d575f3560e01c80637700e58414610021575b5f5ffd5b61003461002f36600461010e565b610036565b005b5f5b818110156100df576040517f9f3ce55a00000000000000000000000000000000000000000000000000000000815273ffffffffffffffffffffffffffffffffffffffff858116600483015260248201859052606060448301525f6064830152861690639f3ce55a9085906084015f604051808303818588803b1580156100bc575f5ffd5b505af11580156100ce573d5f5f3e3d5ffd5b505060019093019250610038915050565b5050505050565b803573ffffffffffffffffffffffffffffffffffffffff81168114610109575f5ffd5b919050565b5f5f5f5f60808587031215610121575f5ffd5b61012a856100e6565b9350610138602086016100e6565b9396939550505050604082013591606001359056fea264697066735822122008b3db9fd42d4d82f4d1a1d75119d630549bd0c7b7b34ede122a9c91773bf7cb64736f6c63430008210033",
  "linkReferences": {},
  "deployedLinkReferences": {}
}