{
  "_format": "hh-sol-artifact-1",
  "contractName": "MultiMessageSender",
  "sourceName": "besu-plugins/linea-sequencer/acceptance-tests/src/test/solidity/MultiMessageSender.sol",
  "abi": [
    {
      "inputs": [
        {
          "internalType": "address",
          "name": "messageService",
          "type": "address"
        },
        {
          "internalType": "address",
          "name": "to",
          "type": "address"
        },
        {
          "internalType": "uint256",
          "name": "fee",
          "type": "uint256"
        },
        {
          "internalType": "uint256",
          "name": "count",
          "type": "uint256"
        }
      ],
      "name": "sendMultipleMessages",
      "outputs": [],
      "stateMutability": "payable",
      "type": "function"
    }
  ],
  "bytecode": "0x6080604052348015600f57600080fd5b506102938061001f6000396000f3fe60806040526004361061001e5760003560e01c80637700e58414610023575b600080fd5b61003d60048036038101906100389190610165565b61003f565b005b60005b818110156100c5578473ffffffffffffffffffffffffffffffffffffffff16639f3ce55a8486866040518463ffffffff1660e01b8152600401610086929190610221565b6000604051808303818588803b15801561009f57600080fd5b505af11580156100b3573d6000803e3d6000fd5b50505050508080600101915050610042565b5050505050565b600080fd5b600073ffffffffffffffffffffffffffffffffffffffff82169050919050565b60006100fc826100d1565b9050919050565b61010c816100f1565b811461011757600080fd5b50565b60008135905061012981610103565b92915050565b6000819050919050565b6101428161012f565b811461014d57600080fd5b50565b60008135905061015f81610139565b92915050565b6000806000806080858703121561017f5761017e6100cc565b5b600061018d8782880161011a565b945050602061019e8782880161011a565b93505060406101af87828801610150565b92505060606101c087828801610150565b91505092959194509250565b6101d5816100f1565b82525050565b6101e48161012f565b82525050565b600082825260208201905092915050565b50565b600061020b6000836101ea565b9150610216826101fb565b600082019050919050565b600060608201905061023660008301856101cc565b61024360208301846101db565b8181036040830152610254816101fe565b9050939250505056fea264697066735822122029ec532d78e49750a524a28343cb10e9e7d3d4c1aff6afb636ea514c258a726364736f6c634300081a0033",
  "deployedBytecode": "",
  "linkReferences": {},
  "deployedLinkReferences": {}
}