{
  "_format": "hh-sol-artifact-1",
  "contractName": "OpcodeTester",
  "sourceName": "src/_testing/unit/opcodes/OpcodeTester.sol",
  "abi": [
    {
      "inputs": [
        {
          "internalType": "address",
          "name": "_yulContract",
          "type": "address"
        }
      ],
      "stateMutability": "nonpayable",
      "type": "constructor"
    },
    {
      "inputs": [],
      "name": "executeAllOpcodes",
      "outputs": [],
      "stateMutability": "payable",
      "type": "function"
    },
    {
      "inputs": [
        {
          "internalType": "bytes2",
          "name": "",
          "type": "bytes2"
        }
      ],
      "name": "opcodeExecutions",
      "outputs": [
        {
          "internalType": "uint256",
          "name": "",
          "type": "uint256"
        }
      ],
      "stateMutability": "view",
      "type": "function"
    },
    {
      "inputs": [],
      "name": "rollingBlockDetailComputations",
      "outputs": [
        {
          "internalType": "bytes32",
          "name": "",
          "type": "bytes32"
        }
      ],
      "stateMutability": "view",
      "type": "function"
    },
    {
      "inputs": [],
      "name": "yulContract",
      "outputs": [
        {
          "internalType": "address",
          "name": "",
          "type": "address"
        }
      ],
      "stateMutability": "view",
      "type": "function"
    }
  ],
  "bytecode": "0x6080604052348015600e575f5ffd5b506040516113ef3803806113ef833981016040819052602b91604f565b600180546001600160a01b0319166001600160a01b0392909216919091179055607a565b5f60208284031215605e575f5ffd5b81516001600160a01b03811681146073575f5ffd5b9392505050565b611368806100875f395ff3fe60806040526004361061003e575f3560e01c80635f854fdb14610042578063690696f01461006a5780638f0a4cc414610074578063a147ee55146100c5575b5f5ffd5b34801561004d575f5ffd5b5061005760025481565b6040519081526020015b60405180910390f35b6100726100f0565b005b34801561007f575f5ffd5b506001546100a09073ffffffffffffffffffffffffffffffffffffffff1681565b60405173ffffffffffffffffffffffffffffffffffffffff9091168152602001610061565b3480156100d0575f5ffd5b506100576100df366004610f75565b5f6020819052908152604090205481565b6100f8610112565b6101006106d1565b610108610cc4565b610110610cf2565b565b5f60405161011f90610f69565b604051809103905ff080158015610138573d5f5f3e3d5ffd5b5090505f5c73ffffffffffffffffffffffffffffffffffffffff1661019957805f805c7fffffffffffffffffffffffff00000000000000000000000000000000000000001673ffffffffffffffffffffffffffffffffffffffff831617905d505b60408051600481526024810182526020810180517bffffffffffffffffffffffffffffffffffffffffffffffffffffffff167fb3907bb90000000000000000000000000000000000000000000000000000000017905290515f9173ffffffffffffffffffffffffffffffffffffffff8416916102159190610fd2565b5f604051808303815f865af19150503d805f811461024e576040519150601f19603f3d011682016040523d82523d5f602084013e610253565b606091505b509091505080156102ea576040517f08c379a0000000000000000000000000000000000000000000000000000000008152602060048201526024808201527f4572726f723a2065787465726e616c52657665727420646964206e6f7420726560448201527f766572740000000000000000000000000000000000000000000000000000000060648201526084015b60405180910390fd5b5f7fffffffffffffffffffffffff0000000000000000000000000000000000000000815c16815d5060408051600481526024810182526020810180517bffffffffffffffffffffffffffffffffffffffffffffffffffffffff167fb3907bb900000000000000000000000000000000000000000000000000000000179052905173ffffffffffffffffffffffffffffffffffffffff84169161038b91610fd2565b5f60405180830381855afa9150503d805f81146103c3576040519150601f19603f3d011682016040523d82523d5f602084013e6103c8565b606091505b5090915050801561045a576040517f08c379a0000000000000000000000000000000000000000000000000000000008152602060048201526024808201527f4572726f723a2065787465726e616c52657665727420646964206e6f7420726560448201527f766572740000000000000000000000000000000000000000000000000000000060648201526084016102e1565b60408051600481526024810182526020810180517bffffffffffffffffffffffffffffffffffffffffffffffffffffffff167fe32689ab00000000000000000000000000000000000000000000000000000000179052905173ffffffffffffffffffffffffffffffffffffffff8416916104d391610fd2565b5f604051808303815f865af19150503d805f811461050c576040519150601f19603f3d011682016040523d82523d5f602084013e610511565b606091505b505080915050806105a4576040517f08c379a000000000000000000000000000000000000000000000000000000000815260206004820152602860248201527f4572726f723a2072657665727463616c6c6d65546f53656c664465737472756360448201527f74204661696c656400000000000000000000000000000000000000000000000060648201526084016102e1565b60015460408051600481526024810182526020810180517bffffffffffffffffffffffffffffffffffffffffffffffffffffffff167fa378ff3e00000000000000000000000000000000000000000000000000000000179052905173ffffffffffffffffffffffffffffffffffffffff909216916106229190610fd2565b5f604051808303815f865af19150503d805f811461065b576040519150601f19603f3d011682016040523d82523d5f602084013e610660565b606091505b505080915050806106cd576040517f08c379a000000000000000000000000000000000000000000000000000000000815260206004820181905260248201527f65786563757465416c6c206f6e2079756c436f6e7472616374204661696c656460448201526064016102e1565b5050565b5f5b600b8161ffff1611610766577fffff00000000000000000000000000000000000000000000000000000000000060f082901b165f9081526020819052604090205461071f90600161100a565b7fffff00000000000000000000000000000000000000000000000000000000000060f083901b165f9081526020819052604090205561075f600182611023565b90506106d3565b5060105b601d8161ffff16116107fd577fffff00000000000000000000000000000000000000000000000000000000000060f082901b165f908152602081905260409020546107b690600161100a565b7fffff00000000000000000000000000000000000000000000000000000000000060f083901b165f908152602081905260409020556107f6600182611023565b905061076a565b507e200000000000000000000000000000000000000000000000000000000000005f9081526020527f0e50cdfef060ff4ae83dba37f786195c629c8b0ccdbe7a22b3da87f8ab7ae2395461085290600161100a565b7e200000000000000000000000000000000000000000000000000000000000005f9081526020527f0e50cdfef060ff4ae83dba37f786195c629c8b0ccdbe7a22b3da87f8ab7ae2395560305b604a8161ffff1611610931577fffff00000000000000000000000000000000000000000000000000000000000060f082901b165f908152602081905260409020546108ea90600161100a565b7fffff00000000000000000000000000000000000000000000000000000000000060f083901b165f9081526020819052604090205561092a600182611023565b905061089e565b5060505b605f8161ffff16116109c8577fffff00000000000000000000000000000000000000000000000000000000000060f082901b165f9081526020819052604090205461098190600161100a565b7fffff00000000000000000000000000000000000000000000000000000000000060f083901b165f908152602081905260409020556109c1600182611023565b9050610935565b5060605b609f8161ffff1611610a5f577fffff00000000000000000000000000000000000000000000000000000000000060f082901b165f90815260208190526040902054610a1890600161100a565b7fffff00000000000000000000000000000000000000000000000000000000000060f083901b165f90815260208190526040902055610a58600182611023565b90506109cc565b5060a05b60a48161ffff1611610af6577fffff00000000000000000000000000000000000000000000000000000000000060f082901b165f90815260208190526040902054610aaf90600161100a565b7fffff00000000000000000000000000000000000000000000000000000000000060f083901b165f90815260208190526040902055610aef600182611023565b9050610a63565b5060f05b60f58161ffff1611610b8d577fffff00000000000000000000000000000000000000000000000000000000000060f082901b165f90815260208190526040902054610b4690600161100a565b7fffff00000000000000000000000000000000000000000000000000000000000060f083901b165f90815260208190526040902055610b86600182611023565b9050610afa565b507efa0000000000000000000000000000000000000000000000000000000000005f9081526020527f5a4c6900172b15702052e06818580b12ea1fe9c2b87992d0d87c54d1018b333354610be290600161100a565b7efa0000000000000000000000000000000000000000000000000000000000005f9081526020527f5a4c6900172b15702052e06818580b12ea1fe9c2b87992d0d87c54d1018b33335560fd5b60ff8161ffff1611610cc1577fffff00000000000000000000000000000000000000000000000000000000000060f082901b165f90815260208190526040902054610c7a90600161100a565b7fffff00000000000000000000000000000000000000000000000000000000000060f083901b165f90815260208190526040902055610cba600182611023565b9050610c2e565b50565b604051602081526001602082015260026040820152600360608201526004608082015260a08160a083015e50565b5f600254610cfe610ebf565b48464144604051602001610d179695949392919061103d565b60405160208183030381529060405290505f4543425a6040805160208101959095528401929092526060830152608082015260a001604080517fffffffffffffffffffffffffffffffffffffffffffffffffffffffffffffffe08184030181528282525f804960208501524a9284019290925292509060600160405160208183030381529060405290505f5f36335f357fffffffff0000000000000000000000000000000000000000000000000000000016343a32604051602001610de297969594939291906110bc565b60405160208183030381529060405290508383604051602001610e0692919061117b565b604080517fffffffffffffffffffffffffffffffffffffffffffffffffffffffffffffffe081840301815290829052610e4391849060200161117b565b604080517fffffffffffffffffffffffffffffffffffffffffffffffffffffffffffffffe081840301815290829052610e8091839060200161117b565b604080517fffffffffffffffffffffffffffffffffffffffffffffffffffffffffffffffe0818403018152919052805160209091012060025550505050565b606061010043811115610ecf5750435b5f610edb82600161100a565b67ffffffffffffffff811115610ef357610ef3611197565b604051908082528060200260200182016040528015610f1c578160200160208202803683370190505b5090505f5b828111610f6257610f3281436111c4565b40828281518110610f4557610f456111d7565b602090810291909101015280610f5a81611204565b915050610f21565b5092915050565b60f78061123c83390190565b5f60208284031215610f85575f5ffd5b81357fffff00000000000000000000000000000000000000000000000000000000000081168114610fb4575f5ffd5b9392505050565b5f81518060208401855e5f93019283525090919050565b5f610fb48284610fbb565b7f4e487b71000000000000000000000000000000000000000000000000000000005f52601160045260245ffd5b8082018082111561101d5761101d610fdd565b92915050565b61ffff818116838216019081111561101d5761101d610fdd565b5f60c0820188835260c0602084015280885180835260e08501915060208a0192505f5b8181101561107e578351835260209384019390920191600101611060565b505060408401979097525050606081019390935273ffffffffffffffffffffffffffffffffffffffff91909116608083015260a09091015292915050565b60c081528660c0820152868860e08301375f60e088830101525f60e07fffffffffffffffffffffffffffffffffffffffffffffffffffffffffffffffe0601f8a0116830101905073ffffffffffffffffffffffffffffffffffffffff871660208301527fffffffff000000000000000000000000000000000000000000000000000000008616604083015284606083015283608083015273ffffffffffffffffffffffffffffffffffffffff831660a083015298975050505050505050565b5f61118f6111898386610fbb565b84610fbb565b949350505050565b7f4e487b71000000000000000000000000000000000000000000000000000000005f52604160045260245ffd5b8181038181111561101d5761101d610fdd565b7f4e487b71000000000000000000000000000000000000000000000000000000005f52603260045260245ffd5b5f7fffffffffffffffffffffffffffffffffffffffffffffffffffffffffffffffff820361123457611234610fdd565b506001019056fe6080604052348015600e575f5ffd5b5060dd80601a5f395ff3fe6080604052348015600e575f5ffd5b50600436106030575f3560e01c8063b3907bb9146034578063e32689ab14603c575b5f5ffd5b603a6041565b005b603a5fff5b6040517f08c379a000000000000000000000000000000000000000000000000000000000815260206004820152600960248201527f4f50434f44452046440000000000000000000000000000000000000000000000604482015260640160405180910390fdfea2646970667358221220a5ed24214f914b61511391d372af0c3196f91346692493bd0ed3dd6bd5cd315764736f6c634300081e0033a26469706673582212202e05e26f2068ac78ad92e3bb5f29b39577f3170f544db27c867f143f5f8d06ce64736f6c634300081e0033",
  "linkReferences": {},
  "deployedLinkReferences": {}
}