{
  "_format": "hh-sol-artifact-1",
  "contractName": "OpcodeTester",
  "sourceName": "src/_testing/unit/opcodes/OpcodeTester.sol",
  "abi": [
    {
      "inputs": [
        {
          "internalType": "address",
          "name": "_yulContract",
          "type": "address"
        }
      ],
      "stateMutability": "nonpayable",
      "type": "constructor"
    },
    {
      "inputs": [],
      "name": "executeAllOpcodes",
      "outputs": [],
      "stateMutability": "payable",
      "type": "function"
    },
    {
      "inputs": [],
      "name": "executeBLSPairingAndMapPrecompiles",
      "outputs": [],
      "stateMutability": "nonpayable",
      "type": "function"
    },
    {
      "inputs": [],
      "name": "executeClz",
      "outputs": [],
      "stateMutability": "pure",
      "type": "function"
    },
    {
      "inputs": [],
      "name": "executeG1BLSPrecompiles",
      "outputs": [],
      "stateMutability": "nonpayable",
      "type": "function"
    },
    {
      "inputs": [],
      "name": "executeG2BLSPrecompiles",
      "outputs": [],
      "stateMutability": "nonpayable",
      "type": "function"
    },
    {
      "inputs": [],
      "name": "executePrecompiles",
      "outputs": [],
      "stateMutability": "nonpayable",
      "type": "function"
    },
    {
      "inputs": [
        {
          "internalType": "bytes2",
          "name": "",
          "type": "bytes2"
        }
      ],
      "name": "opcodeExecutions",
      "outputs": [
        {
          "internalType": "uint256",
          "name": "",
          "type": "uint256"
        }
      ],
      "stateMutability": "view",
      "type": "function"
    },
    {
      "inputs": [],
      "name": "rollingBlockDetailComputations",
      "outputs": [
        {
          "internalType": "bytes32",
          "name": "",
          "type": "bytes32"
        }
      ],
      "stateMutability": "view",
      "type": "function"
    },
    {
      "inputs": [],
      "name": "yulContract",
      "outputs": [
        {
          "internalType": "address",
          "name": "",
          "type": "address"
        }
      ],
      "stateMutability": "view",
      "type": "function"
    }
  ],
  "bytecode": "0x6080604052348015600e575f5ffd5b50604051613379380380613379833981016040819052602b91604f565b600180546001600160a01b0319166001600160a01b0392909216919091179055607a565b5f60208284031215605e575f5ffd5b81516001600160a01b03811681146073575f5ffd5b9392505050565b6132f2806100875f395ff3fe608060405260043610610093575f3560e01c8063690696f0116100665780639b14cecc1161004c5780639b14cecc146101565780639bc2ee861461016a578063a147ee551461017e575f5ffd5b8063690696f0146100fd5780638f0a4cc414610105575f5ffd5b80633c803466146100975780634ea0d3d3146100ad5780635f854fdb146100c1578063631c6464146100e9575b5f5ffd5b3480156100a2575f5ffd5b506100ab6101a9565b005b3480156100b8575f5ffd5b506100ab6107b8565b3480156100cc575f5ffd5b506100d660025481565b6040519081526020015b60405180910390f35b3480156100f4575f5ffd5b506100ab610f54565b6100ab611011565b348015610110575f5ffd5b506001546101319073ffffffffffffffffffffffffffffffffffffffff1681565b60405173ffffffffffffffffffffffffffffffffffffffff90911681526020016100e0565b348015610161575f5ffd5b506100ab611039565b348015610175575f5ffd5b506100ab61178e565b348015610189575f5ffd5b506100d6610198366004612ee8565b5f6020819052908152604090205481565b6060600b73ffffffffffffffffffffffffffffffffffffffff166040516102be906f12196c5a43d69224d8713389285f26b981527f8f86ee910ab3dd668e413738282003cc5b7357af9a7af54bb713d62255e80f5660208201526f06ba8102bfbeea4416b710c73e8cce3060408201527f32c31c6269c44906f8ac4f7874ce99fb17559992486528963884ce429a992fee60608201526f177b39d2b8d31753ee35033df55a1f8960808201527f1be9196aec9cd8f512e9069d21a8bdbf693bd2e826e792cd12cb554287adf4ca60a08201526f03c0f5770509862f754fc474cb163c4160c08201527f790d844f52939e2dec87b97c2a707831a4043ab47014d501f67862e95842ba5a60e08201526101000190565b5f60405180830381855afa9150503d805f81146102f6576040519150601f19603f3d011682016040523d82523d5f602084013e6102fb565b606091505b5080519092501590506103555760405162461bcd60e51b815260206004820152601760248201527f424c5331325f47314144442074657374206661696c656400000000000000000060448201526064015b60405180910390fd5b604051600b90610459906f12196c5a43d69224d8713389285f26b981527f8f86ee910ab3dd668e413738282003cc5b7357af9a7af54bb713d62255e80f5660208201526f06ba8102bfbeea4416b710c73e8cce3060408201527f32c31c6269c44906f8ac4f7874ce99fb17559992486528963884ce429a992fee60608201526f12196c5a43d69224d8713389285f26b960808201527f8f86ee910ab3dd668e413738282003cc5b7357af9a7af54bb713d62255e80f5660a08201526f06ba8102bfbeea4416b710c73e8cce3060c08201527f32c31c6269c44906f8ac4f7874ce99fb17559992486528963884ce429a992fee60e08201525f61010082019050919050565b5f60405180830381855afa9150503d805f8114610491576040519150601f19603f3d011682016040523d82523d5f602084013e610496565b606091505b50805190925060801490506104ed5760405162461bcd60e51b815260206004820152601760248201527f424c5331325f47314144442074657374206661696c6564000000000000000000604482015260640161034c565b604051600c90610601906f12196c5a43d69224d8713389285f26b981527f8f86ee910ab3dd668e413738282003cc5b7357af9a7af54bb713d62255e80f5660208201526f06ba8102bfbeea4416b710c73e8cce3060408201527f32c31c6269c44906f8ac4f7874ce99fb17559992486528963884ce429a992fee6060820152600160808201526f12196c5a43d69224d8713389285f26b960a08201527f8f86ee910ab3dd668e413738282003cc5b7357af9a7af54bb713d62255e80f5660c08201526f06ba8102bfbeea4416b710c73e8cce3060e08201527f32c31c6269c44906f8ac4f7874ce99fb17559992486528963884ce429a992fee61010082015260026101208201525f61014082019050919050565b5f60405180830381855afa9150503d805f8114610639576040519150601f19603f3d011682016040523d82523d5f602084013e61063e565b606091505b50805190925060801490506106955760405162461bcd60e51b815260206004820152601760248201527f424c5331325f47314d534d2074657374206661696c6564000000000000000000604482015260640161034c565b604051600c90610721906f12196c5a43d69224d8713389285f26b981527f8f86ee910ab3dd668e413738282003cc5b7357af9a7af54bb713d62255e80f5660208201526f06ba8102bfbeea4416b710c73e8cce3060408201527f32c31c6269c44906f8ac4f7874ce99fb17559992486528963884ce429a992fee60608201526001608082015260a00190565b5f60405180830381855afa9150503d805f8114610759576040519150601f19603f3d011682016040523d82523d5f602084013e61075e565b606091505b50805190925060801490506107b55760405162461bcd60e51b815260206004820152601760248201527f424c5331325f47314d534d2074657374206661696c6564000000000000000000604482015260640161034c565b50565b6060600f73ffffffffffffffffffffffffffffffffffffffff16604051610949906f12196c5a43d69224d8713389285f26b981527f8f86ee910ab3dd668e413738282003cc5b7357af9a7af54bb713d62255e80f5660208201526f06ba8102bfbeea4416b710c73e8cce3060408201527f32c31c6269c44906f8ac4f7874ce99fb17559992486528963884ce429a992fee60608201526f124aca13d9ead2e5194eb097360743fc60808201527f996551a5f339d644ded3571c5588a1fedf3f26ecdca73845241e47337e8ad99060a08201526f0299bfd77515b688335e58acb31f7e0e60c08201527f6416840989cb08775287f90f7e6c921438b7b476cfa387742fcdc43bcecfe45f60e08201526f032e78350f525d673e75a3430048a7936101008201527f1d21264ac1b2c8dc58aee07e77790dfc9afb530b004145f0040c48bce128135e6101208201526f15963bcbd8fa50808bdce4f8de40eb976101408201527f06c1a41ada22f0e469ecceb3e0b0fa3404ccdcc66a286b5a9e221c4a088a91456101608201526101800190565b5f60405180830381855afa9150503d805f8114610981576040519150601f19603f3d011682016040523d82523d5f602084013e610986565b606091505b50805190925060201490506109dd5760405162461bcd60e51b815260206004820152601f60248201527f424c5331325f50414952494e475f434845434b2074657374206661696c656400604482015260640161034c565b604051600f90610cd1906f12196c5a43d69224d8713389285f26b981527f8f86ee910ab3dd668e413738282003cc5b7357af9a7af54bb713d62255e80f5660208201526f06ba8102bfbeea4416b710c73e8cce3060408201527f32c31c6269c44906f8ac4f7874ce99fb17559992486528963884ce429a992fee60608201526f124aca13d9ead2e5194eb097360743fc60808201527f996551a5f339d644ded3571c5588a1fedf3f26ecdca73845241e47337e8ad99060a08201526f0299bfd77515b688335e58acb31f7e0e60c08201527f6416840989cb08775287f90f7e6c921438b7b476cfa387742fcdc43bcecfe45f60e08201526f032e78350f525d673e75a3430048a7936101008201527f1d21264ac1b2c8dc58aee07e77790dfc9afb530b004145f0040c48bce128135e6101208201526f15963bcbd8fa50808bdce4f8de40eb976101408201527f06c1a41ada22f0e469ecceb3e0b0fa3404ccdcc66a286b5a9e221c4a088a91456101608201526f12196c5a43d69224d8713389285f26b96101808201527f8f86ee910ab3dd668e413738282003cc5b7357af9a7af54bb713d62255e80f566101a08201526f06ba8102bfbeea4416b710c73e8cce306101c08201527f32c31c6269c44906f8ac4f7874ce99fb17559992486528963884ce429a992fee6101e08201526f124aca13d9ead2e5194eb097360743fc6102008201527f996551a5f339d644ded3571c5588a1fedf3f26ecdca73845241e47337e8ad9906102208201526f0299bfd77515b688335e58acb31f7e0e6102408201527f6416840989cb08775287f90f7e6c921438b7b476cfa387742fcdc43bcecfe45f6102608201526f032e78350f525d673e75a3430048a7936102808201527f1d21264ac1b2c8dc58aee07e77790dfc9afb530b004145f0040c48bce128135e6102a08201526f15963bcbd8fa50808bdce4f8de40eb976102c08201527f06c1a41ada22f0e469ecceb3e0b0fa3404ccdcc66a286b5a9e221c4a088a91456102e08201525f61030082019050919050565b5f60405180830381855afa9150503d805f8114610d09576040519150601f19603f3d011682016040523d82523d5f602084013e610d0e565b606091505b5080519092506020149050610d655760405162461bcd60e51b815260206004820152601f60248201527f424c5331325f50414952494e475f434845434b2074657374206661696c656400604482015260640161034c565b604080516f156c8a6a2c184569d69a76be144b5cdc81527f5141d2d2ca4fe341f011e25e3969c55ad9e9b9ce2eb833c81a908e5fa4ac5f036020820152601091015f60405180830381855afa9150503d805f8114610dde576040519150601f19603f3d011682016040523d82523d5f602084013e610de3565b606091505b5080519092506080149050610e3a5760405162461bcd60e51b815260206004820152601e60248201527f424c5331325f4d41505f46505f544f5f47312074657374206661696c65640000604482015260640161034c565b604051601190610ebf906f07355d25caf6e7f2f0cb2812ca0e513b81527fd026ed09dda65b177500fa31714e09ea0ded3a078b526bed3307f804d4b93b0460208201526f02829ce3c021339ccb5caf3e187f637060408201527fe1e2a311dec9b75363117063ab2015603ff52c3d3b98f19c2f65575e99e8b78c606082015260800190565b5f60405180830381855afa9150503d805f8114610ef7576040519150601f19603f3d011682016040523d82523d5f602084013e610efc565b606091505b5080519092506101001490506107b55760405162461bcd60e51b815260206004820152601f60248201527f424c5331325f4d41505f4650325f544f5f47322074657374206661696c656400604482015260640161034c565b6101005f1e14610f62575f5ffd5b60ff60011e14610f70575f5ffd5b60fe60021e14610f7e575f5ffd5b60f860ff1e14610f8c575f5ffd5b60f76101001e14610f9b575f5ffd5b607f7001000000000000000000000000000000001e14610fb9575f5ffd5b7f80000000000000000000000000000000000000000000000000000000000000001e15610fe4575f5ffd5b7fffffffffffffffffffffffffffffffffffffffffffffffffffffffffffffffff1e1561100f575f5ffd5b565b6110196120f9565b611021612647565b611029612c37565b611031612c65565b61100f610f54565b606061010073ffffffffffffffffffffffffffffffffffffffff1660405161111c907fbb5a52f42f9c9261ed4361f59422a1e30036e7c32b270c8807a419feca60502381527f2ba3a8be6b94d5ec80a6d9d1190a436effe50d85a1eee859b8cc6af9bd5c2e1860208201527f4cd60b855d442f5b3c7b11eb6c4e0ae7525fe710fab9aa7c77a67f79e6fadd7660408201527f2927b10512bae3eddcfe467828128bad2903269919f7086069c8c4df6c73283860608201527fc7787964eaac00e5921fb1498a60f4606766b3d9685001558d1a974e7341513e608082015260a00190565b5f60405180830381855afa9150503d805f8114611154576040519150601f19603f3d011682016040523d82523d5f602084013e611159565b606091505b509050809150505f818060200190518101906111759190612f2e565b9050600181146111c75760405162461bcd60e51b815260206004820152601660248201527f503235365645524946592074657374206661696c656400000000000000000000604482015260640161034c565b60405161010090611293907fbb5a52f42f9c9261ed4361f59422a1e30036e7c32b270c8807a419feca60502381527fd45c5741946b2a137f59262ee6f5bc91001af27a5e1117a64733950642a3d1e860208201527fb329f479a2bbd0a5c384ee1493b1f5186a87139cac5df4087c134b49156847db60408201527f2927b10512bae3eddcfe467828128bad2903269919f7086069c8c4df6c73283860608201527fc7787964eaac00e5921fb1498a60f4606766b3d9685001558d1a974e7341513e608082015260a00190565b5f60405180830381855afa9150503d805f81146112cb576040519150601f19603f3d011682016040523d82523d5f602084013e6112d0565b606091505b5080519093501590506113255760405162461bcd60e51b815260206004820152601660248201527f503235365645524946592074657374206661696c656400000000000000000000604482015260640161034c565b604051610100906113f1907fbb5a52f42f9c9261ed4361f59422a1e30036e7c32b270c8807a419feca60502381527fd45c5740946b2a147f59262ee6f5bc90bd01ed280528b62b3aed5fc93f06f73960208201527fb329f479a2bbd0a5c384ee1493b1f5186a87139cac5df4087c134b49156847db60408201527f2927b10512bae3eddcfe467828128bad2903269919f7086069c8c4df6c73283860608201527fc7787964eaac00e5921fb1498a60f4606766b3d9685001558d1a974e7341513e608082015260a00190565b5f60405180830381855afa9150503d805f8114611429576040519150601f19603f3d011682016040523d82523d5f602084013e61142e565b606091505b5080519093501590506114835760405162461bcd60e51b815260206004820152601660248201527f503235365645524946592074657374206661696c656400000000000000000000604482015260640161034c565b604051600a90611574907f01e798154708fe7789429634053cbf9f99b619f9f084048927333fce637f549b81527f73eda753299d7d483339d80809a1d80553bda402fffe5bfeffffffff0000000060208201527f1522a4a7f34e1ea350ae07c29c96c7e79655aa926122e95fe69fcbd932ca49e960408201527f8f59a8d2a1a625a17f3fea0fe5eb8c896db3764f3185481bc22f91b4aaffcca260608201527f5f26936857bc3a7c2539ea8ec3a952b7a62ad71d14c5719385c0686f1871430460808201527f75bf3a00f0aa3f7b8dd99a9abc2160744faf0070725e00b60ad9a026a15b1a8c60a082015260c00190565b5f60405180830381855afa9150503d805f81146115ac576040519150601f19603f3d011682016040523d82523d5f602084013e6115b1565b606091505b50805190935060401490506116085760405162461bcd60e51b815260206004820152601f60248201527f504f494e54204f46204556414c554154494f4e2074657374206661696c656400604482015260640161034c565b604051600a906116f8907f0125681886f7d39de0938c4f5d2fb4d94abac545d2c51d242b930c6d667982e481527f65cec67f404f8c81ef4ff3b08dc93a7f643c84e31d2cf39d094e9fbfcab15c9a60208201527e371c441de8235d2d858ade58d833ac6c5c9460fd369aea0c9918b6d007ed4760408201527f87b470976941e342dba3361216d38797f94a249c89ab8fd29a9512b8cf0be77260608201527f2eb93ca08dbc33f3bef4b8204f19098e8870e88b46732c642dc29b2a101fe30960808201527f285300471f82de8adb40548918b5bcb7e8d9d126a3aa9d80f3559a39baa66a3d60a082015260c00190565b5f60405180830381855afa9150503d805f8114611730576040519150601f19603f3d011682016040523d82523d5f602084013e611735565b606091505b50805190935015905061178a5760405162461bcd60e51b815260206004820152601f60248201527f504f494e54204f46204556414c554154494f4e2074657374206661696c656400604482015260640161034c565b5050565b6060600d73ffffffffffffffffffffffffffffffffffffffff166040516119a1906f124aca13d9ead2e5194eb097360743fc81527f996551a5f339d644ded3571c5588a1fedf3f26ecdca73845241e47337e8ad99060208201526f0299bfd77515b688335e58acb31f7e0e60408201527f6416840989cb08775287f90f7e6c921438b7b476cfa387742fcdc43bcecfe45f60608201526f032e78350f525d673e75a3430048a79360808201527f1d21264ac1b2c8dc58aee07e77790dfc9afb530b004145f0040c48bce128135e60a08201526f15963bcbd8fa50808bdce4f8de40eb9760c08201527f06c1a41ada22f0e469ecceb3e0b0fa3404ccdcc66a286b5a9e221c4a088a914560e08201526f124aca13d9ead2e5194eb097360743fc6101008201527f996551a5f339d644ded3571c5588a1fedf3f26ecdca73845241e47337e8ad9906101208201526f0299bfd77515b688335e58acb31f7e0e6101408201527f6416840989cb08775287f90f7e6c921438b7b476cfa387742fcdc43bcecfe45f6101608201526f032e78350f525d673e75a3430048a7936101808201527f1d21264ac1b2c8dc58aee07e77790dfc9afb530b004145f0040c48bce128135e6101a08201526f15963bcbd8fa50808bdce4f8de40eb976101c08201527f06c1a41ada22f0e469ecceb3e0b0fa3404ccdcc66a286b5a9e221c4a088a91456101e08201525f61020082019050919050565b5f60405180830381855afa9150503d805f81146119d9576040519150601f19603f3d011682016040523d82523d5f602084013e6119de565b606091505b508051909250610100149050611a365760405162461bcd60e51b815260206004820152601760248201527f424c5331325f47324144442074657374206661696c6564000000000000000000604482015260640161034c565b604051600d90611c2b906f124aca13d9ead2e5194eb097360743fc81527f996551a5f339d644ded3571c5588a1fedf3f26ecdca73845241e47337e8ad99060208201526f0299bfd77515b688335e58acb31f7e0e60408201527f6416840989cb08775287f90f7e6c921438b7b476cfa387742fcdc43bcecfe45f60608201526f032e78350f525d673e75a3430048a79360808201527f1d21264ac1b2c8dc58aee07e77790dfc9afb530b004145f0040c48bce128135e60a08201526f15963bcbd8fa50808bdce4f8de40eb9760c08201527f06c1a41ada22f0e469ecceb3e0b0fa3404ccdcc66a286b5a9e221c4a088a914560e08201526f0b2c619263417e8f6cffa2e53261cb8c6101008201527ff5fbbabb9e6f4188aeaabe50d434a0489b6cccd2b65b4d1393a26911021baffa6101208201526e7bcd4156af7ebe5e2f6ac63db859c96101408201527ff42d5f11682792a0de2ec1db76648c0c98fdd8a82cf640bdcd309901afd4f5706101608201526f153a9002d117a518b2c1786f9e8b95b06101808201527f0e936f3f15302a27a16d7f2f8fc48ca834c0cf4fce456e96d72f01f252f4d0846101a08201526f1091fc53100190db07ec2057727859e66101c08201527f5da996f6792ac5602cb9dfbc3ed4a5a67d6b82bd82112075ef8afc4155db26216101e08201526102000190565b5f60405180830381855afa9150503d805f8114611c63576040519150601f19603f3d011682016040523d82523d5f602084013e611c68565b606091505b508051909250159050611cbd5760405162461bcd60e51b815260206004820152601760248201527f424c5331325f47324144442074657374206661696c6564000000000000000000604482015260640161034c565b604051600e90611dc3906f124aca13d9ead2e5194eb097360743fc81527f996551a5f339d644ded3571c5588a1fedf3f26ecdca73845241e47337e8ad99060208201526f0299bfd77515b688335e58acb31f7e0e60408201527f6416840989cb08775287f90f7e6c921438b7b476cfa387742fcdc43bcecfe45f60608201526f032e78350f525d673e75a3430048a79360808201527f1d21264ac1b2c8dc58aee07e77790dfc9afb530b004145f0040c48bce128135e60a08201526f15963bcbd8fa50808bdce4f8de40eb9760c08201527f06c1a41ada22f0e469ecceb3e0b0fa3404ccdcc66a286b5a9e221c4a088a914560e082015260016101008201526101200190565b5f60405180830381855afa9150503d805f8114611dfb576040519150601f19603f3d011682016040523d82523d5f602084013e611e00565b606091505b508051909250610100149050611e585760405162461bcd60e51b815260206004820152601760248201527f424c5331325f47324d534d2074657374206661696c6564000000000000000000604482015260640161034c565b604051600e90612064906f124aca13d9ead2e5194eb097360743fc81527f996551a5f339d644ded3571c5588a1fedf3f26ecdca73845241e47337e8ad99060208201526f0299bfd77515b688335e58acb31f7e0e60408201527f6416840989cb08775287f90f7e6c921438b7b476cfa387742fcdc43bcecfe45f60608201526f032e78350f525d673e75a3430048a79360808201527f1d21264ac1b2c8dc58aee07e77790dfc9afb530b004145f0040c48bce128135e60a08201526f15963bcbd8fa50808bdce4f8de40eb9760c08201527f06c1a41ada22f0e469ecceb3e0b0fa3404ccdcc66a286b5a9e221c4a088a914560e082015260016101008201526f124aca13d9ead2e5194eb097360743fc6101208201527f996551a5f339d644ded3571c5588a1fedf3f26ecdca73845241e47337e8ad9906101408201526f0299bfd77515b688335e58acb31f7e0e6101608201527f6416840989cb08775287f90f7e6c921438b7b476cfa387742fcdc43bcecfe45f6101808201526f032e78350f525d673e75a3430048a7936101a08201527f1d21264ac1b2c8dc58aee07e77790dfc9afb530b004145f0040c48bce128135e6101c08201526f15963bcbd8fa50808bdce4f8de40eb976101e08201527f06c1a41ada22f0e469ecceb3e0b0fa3404ccdcc66a286b5a9e221c4a088a914561020082015260026102208201525f61024082019050919050565b5f60405180830381855afa9150503d805f811461209c576040519150601f19603f3d011682016040523d82523d5f602084013e6120a1565b606091505b5080519092506101001490506107b55760405162461bcd60e51b815260206004820152601760248201527f424c5331325f47324d534d2074657374206661696c6564000000000000000000604482015260640161034c565b5f60405161210690612edc565b604051809103905ff08015801561211f573d5f5f3e3d5ffd5b5090505f5c73ffffffffffffffffffffffffffffffffffffffff1661218057805f805c7fffffffffffffffffffffffff00000000000000000000000000000000000000001673ffffffffffffffffffffffffffffffffffffffff831617905d505b60408051600481526024810182526020810180517bffffffffffffffffffffffffffffffffffffffffffffffffffffffff167fb3907bb90000000000000000000000000000000000000000000000000000000017905290515f9173ffffffffffffffffffffffffffffffffffffffff8416916121fc9190612f5c565b5f604051808303815f865af19150503d805f8114612235576040519150601f19603f3d011682016040523d82523d5f602084013e61223a565b606091505b509091505080156122b25760405162461bcd60e51b8152602060048201526024808201527f4572726f723a2065787465726e616c52657665727420646964206e6f7420726560448201527f7665727400000000000000000000000000000000000000000000000000000000606482015260840161034c565b5f7fffffffffffffffffffffffff0000000000000000000000000000000000000000815c16815d5060408051600481526024810182526020810180517bffffffffffffffffffffffffffffffffffffffffffffffffffffffff167fb3907bb900000000000000000000000000000000000000000000000000000000179052905173ffffffffffffffffffffffffffffffffffffffff84169161235391612f5c565b5f60405180830381855afa9150503d805f811461238b576040519150601f19603f3d011682016040523d82523d5f602084013e612390565b606091505b509091505080156124085760405162461bcd60e51b8152602060048201526024808201527f4572726f723a2065787465726e616c52657665727420646964206e6f7420726560448201527f7665727400000000000000000000000000000000000000000000000000000000606482015260840161034c565b60408051600481526024810182526020810180517bffffffffffffffffffffffffffffffffffffffffffffffffffffffff167fe32689ab00000000000000000000000000000000000000000000000000000000179052905173ffffffffffffffffffffffffffffffffffffffff84169161248191612f5c565b5f604051808303815f865af19150503d805f81146124ba576040519150601f19603f3d011682016040523d82523d5f602084013e6124bf565b606091505b505080915050806125385760405162461bcd60e51b815260206004820152602860248201527f4572726f723a2072657665727463616c6c6d65546f53656c664465737472756360448201527f74204661696c6564000000000000000000000000000000000000000000000000606482015260840161034c565b60015460408051600481526024810182526020810180517bffffffffffffffffffffffffffffffffffffffffffffffffffffffff167fa378ff3e00000000000000000000000000000000000000000000000000000000179052905173ffffffffffffffffffffffffffffffffffffffff909216916125b69190612f5c565b5f604051808303815f865af19150503d805f81146125ef576040519150601f19603f3d011682016040523d82523d5f602084013e6125f4565b606091505b5050809150508061178a5760405162461bcd60e51b815260206004820181905260248201527f65786563757465416c6c206f6e2079756c436f6e7472616374204661696c6564604482015260640161034c565b5f5b600b8161ffff16116126dc577fffff00000000000000000000000000000000000000000000000000000000000060f082901b165f90815260208190526040902054612695906001612f94565b7fffff00000000000000000000000000000000000000000000000000000000000060f083901b165f908152602081905260409020556126d5600182612fad565b9050612649565b5060105b601e8161ffff1611612773577fffff00000000000000000000000000000000000000000000000000000000000060f082901b165f9081526020819052604090205461272c906001612f94565b7fffff00000000000000000000000000000000000000000000000000000000000060f083901b165f9081526020819052604090205561276c600182612fad565b90506126e0565b507e200000000000000000000000000000000000000000000000000000000000005f9081526020527f0e50cdfef060ff4ae83dba37f786195c629c8b0ccdbe7a22b3da87f8ab7ae239546127c8906001612f94565b7e200000000000000000000000000000000000000000000000000000000000005f9081526020527f0e50cdfef060ff4ae83dba37f786195c629c8b0ccdbe7a22b3da87f8ab7ae2395560305b604a8161ffff16116128a7577fffff00000000000000000000000000000000000000000000000000000000000060f082901b165f90815260208190526040902054612860906001612f94565b7fffff00000000000000000000000000000000000000000000000000000000000060f083901b165f908152602081905260409020556128a0600182612fad565b9050612814565b5060505b605f8161ffff161161293e577fffff00000000000000000000000000000000000000000000000000000000000060f082901b165f908152602081905260409020546128f7906001612f94565b7fffff00000000000000000000000000000000000000000000000000000000000060f083901b165f90815260208190526040902055612937600182612fad565b90506128ab565b5060605b609f8161ffff16116129d5577fffff00000000000000000000000000000000000000000000000000000000000060f082901b165f9081526020819052604090205461298e906001612f94565b7fffff00000000000000000000000000000000000000000000000000000000000060f083901b165f908152602081905260409020556129ce600182612fad565b9050612942565b5060a05b60a48161ffff1611612a6c577fffff00000000000000000000000000000000000000000000000000000000000060f082901b165f90815260208190526040902054612a25906001612f94565b7fffff00000000000000000000000000000000000000000000000000000000000060f083901b165f90815260208190526040902055612a65600182612fad565b90506129d9565b5060f05b60f58161ffff1611612b03577fffff00000000000000000000000000000000000000000000000000000000000060f082901b165f90815260208190526040902054612abc906001612f94565b7fffff00000000000000000000000000000000000000000000000000000000000060f083901b165f90815260208190526040902055612afc600182612fad565b9050612a70565b507efa0000000000000000000000000000000000000000000000000000000000005f9081526020527f5a4c6900172b15702052e06818580b12ea1fe9c2b87992d0d87c54d1018b333354612b58906001612f94565b7efa0000000000000000000000000000000000000000000000000000000000005f9081526020527f5a4c6900172b15702052e06818580b12ea1fe9c2b87992d0d87c54d1018b33335560fd5b60ff8161ffff16116107b5577fffff00000000000000000000000000000000000000000000000000000000000060f082901b165f90815260208190526040902054612bf0906001612f94565b7fffff00000000000000000000000000000000000000000000000000000000000060f083901b165f90815260208190526040902055612c30600182612fad565b9050612ba4565b604051602081526001602082015260026040820152600360608201526004608082015260a08160a083015e50565b5f600254612c71612e32565b48464144604051602001612c8a96959493929190612fc7565b60405160208183030381529060405290505f4543425a6040805160208101959095528401929092526060830152608082015260a001604080517fffffffffffffffffffffffffffffffffffffffffffffffffffffffffffffffe08184030181528282525f804960208501524a9284019290925292509060600160405160208183030381529060405290505f5f36335f357fffffffff0000000000000000000000000000000000000000000000000000000016343a32604051602001612d559796959493929190613046565b60405160208183030381529060405290508383604051602001612d79929190613105565b604080517fffffffffffffffffffffffffffffffffffffffffffffffffffffffffffffffe081840301815290829052612db6918490602001613105565b604080517fffffffffffffffffffffffffffffffffffffffffffffffffffffffffffffffe081840301815290829052612df3918390602001613105565b604080517fffffffffffffffffffffffffffffffffffffffffffffffffffffffffffffffe0818403018152919052805160209091012060025550505050565b606061010043811115612e425750435b5f612e4e826001612f94565b67ffffffffffffffff811115612e6657612e66613121565b604051908082528060200260200182016040528015612e8f578160200160208202803683370190505b5090505f5b828111612ed557612ea5814361314e565b40828281518110612eb857612eb8613161565b602090810291909101015280612ecd8161318e565b915050612e94565b5092915050565b60f7806131c683390190565b5f60208284031215612ef8575f5ffd5b81357fffff00000000000000000000000000000000000000000000000000000000000081168114612f27575f5ffd5b9392505050565b5f60208284031215612f3e575f5ffd5b5051919050565b5f81518060208401855e5f93019283525090919050565b5f612f278284612f45565b7f4e487b71000000000000000000000000000000000000000000000000000000005f52601160045260245ffd5b80820180821115612fa757612fa7612f67565b92915050565b61ffff8181168382160190811115612fa757612fa7612f67565b5f60c0820188835260c0602084015280885180835260e08501915060208a0192505f5b81811015613008578351835260209384019390920191600101612fea565b505060408401979097525050606081019390935273ffffffffffffffffffffffffffffffffffffffff91909116608083015260a09091015292915050565b60c081528660c0820152868860e08301375f60e088830101525f60e07fffffffffffffffffffffffffffffffffffffffffffffffffffffffffffffffe0601f8a0116830101905073ffffffffffffffffffffffffffffffffffffffff871660208301527fffffffff000000000000000000000000000000000000000000000000000000008616604083015284606083015283608083015273ffffffffffffffffffffffffffffffffffffffff831660a083015298975050505050505050565b5f6131196131138386612f45565b84612f45565b949350505050565b7f4e487b71000000000000000000000000000000000000000000000000000000005f52604160045260245ffd5b81810381811115612fa757612fa7612f67565b7f4e487b71000000000000000000000000000000000000000000000000000000005f52603260045260245ffd5b5f7fffffffffffffffffffffffffffffffffffffffffffffffffffffffffffffffff82036131be576131be612f67565b506001019056fe6080604052348015600e575f5ffd5b5060dd80601a5f395ff3fe6080604052348015600e575f5ffd5b50600436106030575f3560e01c8063b3907bb9146034578063e32689ab14603c575b5f5ffd5b603a6041565b005b603a5fff5b6040517f08c379a000000000000000000000000000000000000000000000000000000000815260206004820152600960248201527f4f50434f44452046440000000000000000000000000000000000000000000000604482015260640160405180910390fdfea2646970667358221220071b1832a29f321eec3bfbe1b0e3f1deb7c7f265abd907982d24b5b2216b040e64736f6c63430008210033a26469706673582212205d7a1f94af7998211f383dfbcb057084e0a624a0b6847ea5ac8e5f7ceb05874964736f6c63430008210033",
  "linkReferences": {},
  "deployedLinkReferences": {}
}