{
  "_format": "hh-sol-artifact-1",
  "contractName": "OpcodeTester",
  "sourceName": "src/_testing/unit/opcodes/OpcodeTester.sol",
  "abi": [
    {
      "inputs": [
        {
          "internalType": "address",
          "name": "_yulContract",
          "type": "address"
        }
      ],
      "stateMutability": "nonpayable",
      "type": "constructor"
    },
    {
      "inputs": [],
      "name": "executeAllOpcodes",
      "outputs": [],
      "stateMutability": "payable",
      "type": "function"
    },
    {
      "inputs": [
        {
          "internalType": "bytes2",
          "name": "",
          "type": "bytes2"
        }
      ],
      "name": "opcodeExecutions",
      "outputs": [
        {
          "internalType": "uint256",
          "name": "",
          "type": "uint256"
        }
      ],
      "stateMutability": "view",
      "type": "function"
    },
    {
      "inputs": [],
      "name": "yulContract",
      "outputs": [
        {
          "internalType": "address",
          "name": "",
          "type": "address"
        }
      ],
      "stateMutability": "view",
      "type": "function"
    }
  ],
  "bytecode": "0x608060405234801561001057600080fd5b5060405161115a38038061115a83398101604081905261002f91610054565b600180546001600160a01b0319166001600160a01b0392909216919091179055610084565b60006020828403121561006657600080fd5b81516001600160a01b038116811461007d57600080fd5b9392505050565b6110c7806100936000396000f3fe6080604052600436106100345760003560e01c8063690696f0146100395780638f0a4cc414610043578063a147ee551461009a575b600080fd5b6100416100d5565b005b34801561004f57600080fd5b506001546100709073ffffffffffffffffffffffffffffffffffffffff1681565b60405173ffffffffffffffffffffffffffffffffffffffff90911681526020015b60405180910390f35b3480156100a657600080fd5b506100c76100b5366004610dc8565b60006020819052908152604090205481565b604051908152602001610091565b6100dd6100ef565b6100e561063c565b6100ed610c44565b565b60006040516100fd90610dbc565b604051809103906000f080158015610119573d6000803e3d6000fd5b5060408051600481526024810182526020810180517bffffffffffffffffffffffffffffffffffffffffffffffffffffffff167fb3907bb900000000000000000000000000000000000000000000000000000000179052905191925060009173ffffffffffffffffffffffffffffffffffffffff84169161019991610e41565b6000604051808303816000865af19150503d80600081146101d6576040519150601f19603f3d011682016040523d82523d6000602084013e6101db565b606091505b50909150508015610272576040517f08c379a0000000000000000000000000000000000000000000000000000000008152602060048201526024808201527f4572726f723a2065787465726e616c52657665727420646964206e6f7420726560448201527f766572740000000000000000000000000000000000000000000000000000000060648201526084015b60405180910390fd5b60408051600481526024810182526020810180517bffffffffffffffffffffffffffffffffffffffffffffffffffffffff167fb3907bb900000000000000000000000000000000000000000000000000000000179052905173ffffffffffffffffffffffffffffffffffffffff8416916102eb91610e41565b600060405180830381855afa9150503d8060008114610326576040519150601f19603f3d011682016040523d82523d6000602084013e61032b565b606091505b509091505080156103bd576040517f08c379a0000000000000000000000000000000000000000000000000000000008152602060048201526024808201527f4572726f723a2065787465726e616c52657665727420646964206e6f7420726560448201527f76657274000000000000000000000000000000000000000000000000000000006064820152608401610269565b60408051600481526024810182526020810180517bffffffffffffffffffffffffffffffffffffffffffffffffffffffff167fe32689ab00000000000000000000000000000000000000000000000000000000179052905173ffffffffffffffffffffffffffffffffffffffff84169161043691610e41565b6000604051808303816000865af19150503d8060008114610473576040519150601f19603f3d011682016040523d82523d6000602084013e610478565b606091505b5050809150508061050b576040517f08c379a000000000000000000000000000000000000000000000000000000000815260206004820152602860248201527f4572726f723a2072657665727463616c6c6d65546f53656c664465737472756360448201527f74204661696c65640000000000000000000000000000000000000000000000006064820152608401610269565b60015460408051600481526024810182526020810180517bffffffffffffffffffffffffffffffffffffffffffffffffffffffff167fa378ff3e00000000000000000000000000000000000000000000000000000000179052905173ffffffffffffffffffffffffffffffffffffffff909216916105899190610e41565b6000604051808303816000865af19150503d80600081146105c6576040519150601f19603f3d011682016040523d82523d6000602084013e6105cb565b606091505b50508091505080610638576040517f08c379a000000000000000000000000000000000000000000000000000000000815260206004820181905260248201527f65786563757465416c6c206f6e2079756c436f6e7472616374204661696c65646044820152606401610269565b5050565b60005b600b8161ffff16116106d4577fffff00000000000000000000000000000000000000000000000000000000000060f082901b1660009081526020819052604090205461068c906001610e7c565b7fffff00000000000000000000000000000000000000000000000000000000000060f083901b166000908152602081905260409020556106cd600182610e95565b905061063f565b5060105b601d8161ffff161161076d577fffff00000000000000000000000000000000000000000000000000000000000060f082901b16600090815260208190526040902054610725906001610e7c565b7fffff00000000000000000000000000000000000000000000000000000000000060f083901b16600090815260208190526040902055610766600182610e95565b90506106d8565b507e2000000000000000000000000000000000000000000000000000000000000060009081526020527f0e50cdfef060ff4ae83dba37f786195c629c8b0ccdbe7a22b3da87f8ab7ae239546107c3906001610e7c565b7e2000000000000000000000000000000000000000000000000000000000000060009081526020527f0e50cdfef060ff4ae83dba37f786195c629c8b0ccdbe7a22b3da87f8ab7ae2395560305b60488161ffff16116108a5577fffff00000000000000000000000000000000000000000000000000000000000060f082901b1660009081526020819052604090205461085d906001610e7c565b7fffff00000000000000000000000000000000000000000000000000000000000060f083901b1660009081526020819052604090205561089e600182610e95565b9050610810565b5060505b605b8161ffff161161093e577fffff00000000000000000000000000000000000000000000000000000000000060f082901b166000908152602081905260409020546108f6906001610e7c565b7fffff00000000000000000000000000000000000000000000000000000000000060f083901b16600090815260208190526040902055610937600182610e95565b90506108a9565b5060605b609f8161ffff16116109d7577fffff00000000000000000000000000000000000000000000000000000000000060f082901b1660009081526020819052604090205461098f906001610e7c565b7fffff00000000000000000000000000000000000000000000000000000000000060f083901b166000908152602081905260409020556109d0600182610e95565b9050610942565b5060a05b60a48161ffff1611610a70577fffff00000000000000000000000000000000000000000000000000000000000060f082901b16600090815260208190526040902054610a28906001610e7c565b7fffff00000000000000000000000000000000000000000000000000000000000060f083901b16600090815260208190526040902055610a69600182610e95565b90506109db565b5060f05b60f58161ffff1611610b09577fffff00000000000000000000000000000000000000000000000000000000000060f082901b16600090815260208190526040902054610ac1906001610e7c565b7fffff00000000000000000000000000000000000000000000000000000000000060f083901b16600090815260208190526040902055610b02600182610e95565b9050610a74565b507efa00000000000000000000000000000000000000000000000000000000000060009081526020527f5a4c6900172b15702052e06818580b12ea1fe9c2b87992d0d87c54d1018b333354610b5f906001610e7c565b7efa00000000000000000000000000000000000000000000000000000000000060009081526020527f5a4c6900172b15702052e06818580b12ea1fe9c2b87992d0d87c54d1018b33335560fd5b60ff8161ffff1611610c41577fffff00000000000000000000000000000000000000000000000000000000000060f082901b16600090815260208190526040902054610bf9906001610e7c565b7fffff00000000000000000000000000000000000000000000000000000000000060f083901b16600090815260208190526040902055610c3a600182610e95565b9050610bac565b50565b600254600090610c55600143610eb7565b604080516020810193909352904090820152434060608201524860808201524660a08201524160c08201524460e08201526101000160405160208183030381529060405290506000454344425a6040805160208101969096528501939093526060840191909152608083015260a082015260c001604051602081830303815290604052905060008036336000357fffffffff0000000000000000000000000000000000000000000000000000000016343a32604051602001610d1d9796959493929190610eca565b60405160208183030381529060405290508282604051602001610d41929190610f75565b604080517fffffffffffffffffffffffffffffffffffffffffffffffffffffffffffffffe081840301815290829052610d7e918390602001610f75565b604080517fffffffffffffffffffffffffffffffffffffffffffffffffffffffffffffffe08184030181529190528051602090910120600255505050565b60ff80610f9383390190565b600060208284031215610dda57600080fd5b81357fffff00000000000000000000000000000000000000000000000000000000000081168114610e0a57600080fd5b9392505050565b6000815160005b81811015610e325760208185018101518683015201610e18565b50600093019283525090919050565b6000610e0a8284610e11565b7f4e487b7100000000000000000000000000000000000000000000000000000000600052601160045260246000fd5b80820180821115610e8f57610e8f610e4d565b92915050565b61ffff818116838216019080821115610eb057610eb0610e4d565b5092915050565b81810381811115610e8f57610e8f610e4d565b60c081528660c0820152868860e0830137600060e088830181019190915273ffffffffffffffffffffffffffffffffffffffff96871660208301527fffffffff000000000000000000000000000000000000000000000000000000009590951660408201526060810193909352608083019190915290921660a0830152601f9092017fffffffffffffffffffffffffffffffffffffffffffffffffffffffffffffffe0160101919050565b6000610f8a610f848386610e11565b84610e11565b94935050505056fe6080604052348015600f57600080fd5b5060e18061001e6000396000f3fe6080604052348015600f57600080fd5b506004361060325760003560e01c8063b3907bb9146037578063e32689ab14603f575b600080fd5b603d6045565b005b603d6000ff5b6040517f08c379a000000000000000000000000000000000000000000000000000000000815260206004820152600960248201527f4f50434f44452046440000000000000000000000000000000000000000000000604482015260640160405180910390fdfea2646970667358221220868db823990a509cd2746b1f1a6273241894b2e33cbc6954461aa8d5dbdc6b2b64736f6c63430008130033a2646970667358221220fe695414ae5491baf8ef36c5bef30a8db5b9e98b8c6d4739af973b2e3112c4a864736f6c63430008130033",
  "linkReferences": {},
  "deployedLinkReferences": {}
}