{
  "_format": "hh-sol-artifact-1",
  "contractName": "OpcodeTester",
  "sourceName": "src/_testing/unit/opcodes/OpcodeTester.sol",
  "abi": [
    {
      "inputs": [
        {
          "internalType": "address",
          "name": "_yulContract",
          "type": "address"
        }
      ],
      "stateMutability": "nonpayable",
      "type": "constructor"
    },
    {
      "inputs": [],
      "name": "executeAllOpcodes",
      "outputs": [],
      "stateMutability": "payable",
      "type": "function"
    },
    {
      "inputs": [
        {
          "internalType": "bytes2",
          "name": "",
          "type": "bytes2"
        }
      ],
      "name": "opcodeExecutions",
      "outputs": [
        {
          "internalType": "uint256",
          "name": "",
          "type": "uint256"
        }
      ],
      "stateMutability": "view",
      "type": "function"
    },
    {
      "inputs": [],
      "name": "rollingBlockDetailComputations",
      "outputs": [
        {
          "internalType": "bytes32",
          "name": "",
          "type": "bytes32"
        }
      ],
      "stateMutability": "view",
      "type": "function"
    },
    {
      "inputs": [],
      "name": "yulContract",
      "outputs": [
        {
          "internalType": "address",
          "name": "",
          "type": "address"
        }
      ],
      "stateMutability": "view",
      "type": "function"
    }
  ],
  "bytecode": "0x6080604052348015600e575f5ffd5b50604051611369380380611369833981016040819052602b91604f565b600180546001600160a01b0319166001600160a01b0392909216919091179055607a565b5f60208284031215605e575f5ffd5b81516001600160a01b03811681146073575f5ffd5b9392505050565b6112e2806100875f395ff3fe60806040526004361061003e575f3560e01c80635f854fdb14610042578063690696f01461006a5780638f0a4cc414610074578063a147ee55146100c5575b5f5ffd5b34801561004d575f5ffd5b5061005760025481565b6040519081526020015b60405180910390f35b6100726100f0565b005b34801561007f575f5ffd5b506001546100a09073ffffffffffffffffffffffffffffffffffffffff1681565b60405173ffffffffffffffffffffffffffffffffffffffff9091168152602001610061565b3480156100d0575f5ffd5b506100576100df366004610eef565b5f6020819052908152604090205481565b6100f8610112565b61010061064b565b610108610c3e565b610110610c6c565b565b5f60405161011f90610ee3565b604051809103905ff080158015610138573d5f5f3e3d5ffd5b5060408051600481526024810182526020810180517bffffffffffffffffffffffffffffffffffffffffffffffffffffffff167fb3907bb90000000000000000000000000000000000000000000000000000000017905290519192505f9173ffffffffffffffffffffffffffffffffffffffff8416916101b791610f4c565b5f604051808303815f865af19150503d805f81146101f0576040519150601f19603f3d011682016040523d82523d5f602084013e6101f5565b606091505b5090915050801561028c576040517f08c379a0000000000000000000000000000000000000000000000000000000008152602060048201526024808201527f4572726f723a2065787465726e616c52657665727420646964206e6f7420726560448201527f766572740000000000000000000000000000000000000000000000000000000060648201526084015b60405180910390fd5b60408051600481526024810182526020810180517bffffffffffffffffffffffffffffffffffffffffffffffffffffffff167fb3907bb900000000000000000000000000000000000000000000000000000000179052905173ffffffffffffffffffffffffffffffffffffffff84169161030591610f4c565b5f60405180830381855afa9150503d805f811461033d576040519150601f19603f3d011682016040523d82523d5f602084013e610342565b606091505b509091505080156103d4576040517f08c379a0000000000000000000000000000000000000000000000000000000008152602060048201526024808201527f4572726f723a2065787465726e616c52657665727420646964206e6f7420726560448201527f76657274000000000000000000000000000000000000000000000000000000006064820152608401610283565b60408051600481526024810182526020810180517bffffffffffffffffffffffffffffffffffffffffffffffffffffffff167fe32689ab00000000000000000000000000000000000000000000000000000000179052905173ffffffffffffffffffffffffffffffffffffffff84169161044d91610f4c565b5f604051808303815f865af19150503d805f8114610486576040519150601f19603f3d011682016040523d82523d5f602084013e61048b565b606091505b5050809150508061051e576040517f08c379a000000000000000000000000000000000000000000000000000000000815260206004820152602860248201527f4572726f723a2072657665727463616c6c6d65546f53656c664465737472756360448201527f74204661696c65640000000000000000000000000000000000000000000000006064820152608401610283565b60015460408051600481526024810182526020810180517bffffffffffffffffffffffffffffffffffffffffffffffffffffffff167fa378ff3e00000000000000000000000000000000000000000000000000000000179052905173ffffffffffffffffffffffffffffffffffffffff9092169161059c9190610f4c565b5f604051808303815f865af19150503d805f81146105d5576040519150601f19603f3d011682016040523d82523d5f602084013e6105da565b606091505b50508091505080610647576040517f08c379a000000000000000000000000000000000000000000000000000000000815260206004820181905260248201527f65786563757465416c6c206f6e2079756c436f6e7472616374204661696c65646044820152606401610283565b5050565b5f5b600b8161ffff16116106e0577fffff00000000000000000000000000000000000000000000000000000000000060f082901b165f90815260208190526040902054610699906001610f84565b7fffff00000000000000000000000000000000000000000000000000000000000060f083901b165f908152602081905260409020556106d9600182610f9d565b905061064d565b5060105b601d8161ffff1611610777577fffff00000000000000000000000000000000000000000000000000000000000060f082901b165f90815260208190526040902054610730906001610f84565b7fffff00000000000000000000000000000000000000000000000000000000000060f083901b165f90815260208190526040902055610770600182610f9d565b90506106e4565b507e200000000000000000000000000000000000000000000000000000000000005f9081526020527f0e50cdfef060ff4ae83dba37f786195c629c8b0ccdbe7a22b3da87f8ab7ae239546107cc906001610f84565b7e200000000000000000000000000000000000000000000000000000000000005f9081526020527f0e50cdfef060ff4ae83dba37f786195c629c8b0ccdbe7a22b3da87f8ab7ae2395560305b604a8161ffff16116108ab577fffff00000000000000000000000000000000000000000000000000000000000060f082901b165f90815260208190526040902054610864906001610f84565b7fffff00000000000000000000000000000000000000000000000000000000000060f083901b165f908152602081905260409020556108a4600182610f9d565b9050610818565b5060505b605f8161ffff1611610942577fffff00000000000000000000000000000000000000000000000000000000000060f082901b165f908152602081905260409020546108fb906001610f84565b7fffff00000000000000000000000000000000000000000000000000000000000060f083901b165f9081526020819052604090205561093b600182610f9d565b90506108af565b5060605b609f8161ffff16116109d9577fffff00000000000000000000000000000000000000000000000000000000000060f082901b165f90815260208190526040902054610992906001610f84565b7fffff00000000000000000000000000000000000000000000000000000000000060f083901b165f908152602081905260409020556109d2600182610f9d565b9050610946565b5060a05b60a48161ffff1611610a70577fffff00000000000000000000000000000000000000000000000000000000000060f082901b165f90815260208190526040902054610a29906001610f84565b7fffff00000000000000000000000000000000000000000000000000000000000060f083901b165f90815260208190526040902055610a69600182610f9d565b90506109dd565b5060f05b60f58161ffff1611610b07577fffff00000000000000000000000000000000000000000000000000000000000060f082901b165f90815260208190526040902054610ac0906001610f84565b7fffff00000000000000000000000000000000000000000000000000000000000060f083901b165f90815260208190526040902055610b00600182610f9d565b9050610a74565b507efa0000000000000000000000000000000000000000000000000000000000005f9081526020527f5a4c6900172b15702052e06818580b12ea1fe9c2b87992d0d87c54d1018b333354610b5c906001610f84565b7efa0000000000000000000000000000000000000000000000000000000000005f9081526020527f5a4c6900172b15702052e06818580b12ea1fe9c2b87992d0d87c54d1018b33335560fd5b60ff8161ffff1611610c3b577fffff00000000000000000000000000000000000000000000000000000000000060f082901b165f90815260208190526040902054610bf4906001610f84565b7fffff00000000000000000000000000000000000000000000000000000000000060f083901b165f90815260208190526040902055610c34600182610f9d565b9050610ba8565b50565b604051602081526001602082015260026040820152600360608201526004608082015260a08160a083015e50565b5f600254610c78610e39565b48464144604051602001610c9196959493929190610fb7565b60405160208183030381529060405290505f4543425a6040805160208101959095528401929092526060830152608082015260a001604080517fffffffffffffffffffffffffffffffffffffffffffffffffffffffffffffffe08184030181528282525f804960208501524a9284019290925292509060600160405160208183030381529060405290505f5f36335f357fffffffff0000000000000000000000000000000000000000000000000000000016343a32604051602001610d5c9796959493929190611036565b60405160208183030381529060405290508383604051602001610d809291906110f5565b604080517fffffffffffffffffffffffffffffffffffffffffffffffffffffffffffffffe081840301815290829052610dbd9184906020016110f5565b604080517fffffffffffffffffffffffffffffffffffffffffffffffffffffffffffffffe081840301815290829052610dfa9183906020016110f5565b604080517fffffffffffffffffffffffffffffffffffffffffffffffffffffffffffffffe0818403018152919052805160209091012060025550505050565b606061010043811115610e495750435b5f610e55826001610f84565b67ffffffffffffffff811115610e6d57610e6d611111565b604051908082528060200260200182016040528015610e96578160200160208202803683370190505b5090505f5b828111610edc57610eac814361113e565b40828281518110610ebf57610ebf611151565b602090810291909101015280610ed48161117e565b915050610e9b565b5092915050565b60f7806111b683390190565b5f60208284031215610eff575f5ffd5b81357fffff00000000000000000000000000000000000000000000000000000000000081168114610f2e575f5ffd5b9392505050565b5f81518060208401855e5f93019283525090919050565b5f610f2e8284610f35565b7f4e487b71000000000000000000000000000000000000000000000000000000005f52601160045260245ffd5b80820180821115610f9757610f97610f57565b92915050565b61ffff8181168382160190811115610f9757610f97610f57565b5f60c0820188835260c0602084015280885180835260e08501915060208a0192505f5b81811015610ff8578351835260209384019390920191600101610fda565b505060408401979097525050606081019390935273ffffffffffffffffffffffffffffffffffffffff91909116608083015260a09091015292915050565b60c081528660c0820152868860e08301375f60e088830101525f60e07fffffffffffffffffffffffffffffffffffffffffffffffffffffffffffffffe0601f8a0116830101905073ffffffffffffffffffffffffffffffffffffffff871660208301527fffffffff000000000000000000000000000000000000000000000000000000008616604083015284606083015283608083015273ffffffffffffffffffffffffffffffffffffffff831660a083015298975050505050505050565b5f6111096111038386610f35565b84610f35565b949350505050565b7f4e487b71000000000000000000000000000000000000000000000000000000005f52604160045260245ffd5b81810381811115610f9757610f97610f57565b7f4e487b71000000000000000000000000000000000000000000000000000000005f52603260045260245ffd5b5f7fffffffffffffffffffffffffffffffffffffffffffffffffffffffffffffffff82036111ae576111ae610f57565b506001019056fe6080604052348015600e575f5ffd5b5060dd80601a5f395ff3fe6080604052348015600e575f5ffd5b50600436106030575f3560e01c8063b3907bb9146034578063e32689ab14603c575b5f5ffd5b603a6041565b005b603a5fff5b6040517f08c379a000000000000000000000000000000000000000000000000000000000815260206004820152600960248201527f4f50434f44452046440000000000000000000000000000000000000000000000604482015260640160405180910390fdfea2646970667358221220a5ed24214f914b61511391d372af0c3196f91346692493bd0ed3dd6bd5cd315764736f6c634300081e0033a2646970667358221220e1f5654255319ce2c52443a09c474935874af7c2da7dc466bb481c55fa73ca7c64736f6c634300081e0033",
  "linkReferences": {},
  "deployedLinkReferences": {}
}