{
  "_format": "hh-sol-artifact-1",
  "contractName": "Poseidon2",
  "sourceName": "src/libraries/Poseidon2.sol",
  "abi": [
    {
      "inputs": [],
      "name": "DataIsEmpty",
      "type": "error"
    },
    {
      "inputs": [],
      "name": "DataIsNotMod32",
      "type": "error"
    },
    {
      "inputs": [
        {
          "internalType": "bytes",
          "name": "_msg",
          "type": "bytes"
        }
      ],
      "name": "hash",
      "outputs": [
        {
          "internalType": "bytes32",
          "name": "poseidon2Hash",
          "type": "bytes32"
        }
      ],
      "stateMutability": "pure",
      "type": "function"
    },
    {
      "inputs": [
        {
          "internalType": "bytes32",
          "name": "input",
          "type": "bytes32"
        }
      ],
      "name": "padBytes32",
      "outputs": [
        {
          "internalType": "bytes",
          "name": "out",
          "type": "bytes"
        }
      ],
      "stateMutability": "pure",
      "type": "function"
    }
  ],
  "bytecode": "0x611a09610034600b8282823980515f1a607314602857634e487b7160e01b5f525f60045260245ffd5b305f52607381538281f3fe730000000000000000000000000000000000000000301460806040526004361061003f575f3560e01c80636f4db2d914610043578063aa1e84de1461006c575b5f5ffd5b6100566100513660046118fb565b61008d565b6040516100639190611912565b60405180910390f35b61007f61007a366004611965565b61010e565b604051908152602001610063565b60408051908152602081015f805b60088110156100c957600f81900360100285901c61ffff1660078290036020021b919091179060010161009b565b5081525f60085b60108110156100fc57600f8190036010810286901c61ffff1660209091021b91909117906001016100d0565b50602082015260409081019052919050565b5f818061013e5761013e7f91ea306f000000000000000000000000000000000000000000000000000000006118ea565b601f811615610170576101707fc2cab26c000000000000000000000000000000000000000000000000000000006118ea565b60051c835f5b828110156101ae578135848161018c81836101b6565b9150915061019a81846117ee565b965050506020929092019150600101610176565b5050506118f5565b5f5f6101c284846113cd565b915091506101f07f747e80c97d5ff3d179440df5000413c541d0a44f0a1c440d4d06e84c5c15b82283611711565b915061021c7f4734c87b4d3a8a8e078f1df51a1cd0b879bffc5d60b1b050583a8f517a64f2cc82611711565b905061022881836113cd565b915091506102567f310042f41c53094b1c5cba696d6ffbdf0901f29c325e35b30f56ce7d016a13d683611711565b91506102827f735b0fea6340a19359973615451586193b15995317fa62952d9bdf646488ca5482611711565b905061028e81836113cd565b915091506102bc7f2c58464623f97e046792307e19a4384b16dd8606260ba9654202495b7ea189de83611711565b91506102e87f2830cef50de1216556f3b44502c06c3b632610e36d42c9e970946c65540dcc0582611711565b90506102f481836113cd565b9150915061030663102b26d0836118b3565b9150637f00000160e082811c9084901c0160c083811c63ffffffff9081169186901c8116919091019190910160a084811c83169086901c83160101608084811c83169086901c83160101606084811c83169086901c83160101604084811c83169086901c83160101602084811c83169086901c831601018382169185169190910101066103938184611223565b925061039f81836112f4565b9150506103b06326a27e02836118b3565b9150637f00000160e082811c9084901c0160c083811c63ffffffff9081169186901c8116919091019190910160a084811c83169086901c83160101608084811c83169086901c83160101606084811c83169086901c83160101604084811c83169086901c83160101602084811c83169086901c8316010183821691851691909101010661043d8184611223565b925061044981836112f4565b91505061045a63631a12ee836118b3565b9150637f00000160e082811c9084901c0160c083811c63ffffffff9081169186901c8116919091019190910160a084811c83169086901c83160101608084811c83169086901c83160101606084811c83169086901c83160101604084811c83169086901c83160101602084811c83169086901c831601018382169185169190910101066104e78184611223565b92506104f381836112f4565b91505061050463764381a0836118b3565b9150637f00000160e082811c9084901c0160c083811c63ffffffff9081169186901c8116919091019190910160a084811c83169086901c83160101608084811c83169086901c83160101606084811c83169086901c83160101604084811c83169086901c83160101602084811c83169086901c831601018382169185169190910101066105918184611223565b925061059d81836112f4565b9150506105ae63237670af836118b3565b9150637f00000160e082811c9084901c0160c083811c63ffffffff9081169186901c8116919091019190910160a084811c83169086901c83160101608084811c83169086901c83160101606084811c83169086901c83160101604084811c83169086901c83160101602084811c83169086901c8316010183821691851691909101010661063b8184611223565b925061064781836112f4565b9150506106586306704ee2836118b3565b9150637f00000160e082811c9084901c0160c083811c63ffffffff9081169186901c8116919091019190910160a084811c83169086901c83160101608084811c83169086901c83160101606084811c83169086901c83160101604084811c83169086901c83160101602084811c83169086901c831601018382169185169190910101066106e58184611223565b92506106f181836112f4565b9150506107026332a30b70836118b3565b9150637f00000160e082811c9084901c0160c083811c63ffffffff9081169186901c8116919091019190910160a084811c83169086901c83160101608084811c83169086901c83160101606084811c83169086901c83160101604084811c83169086901c83160101602084811c83169086901c8316010183821691851691909101010661078f8184611223565b925061079b81836112f4565b9150506107ac6374f1a6d2836118b3565b9150637f00000160e082811c9084901c0160c083811c63ffffffff9081169186901c8116919091019190910160a084811c83169086901c83160101608084811c83169086901c83160101606084811c83169086901c83160101604084811c83169086901c83160101602084811c83169086901c831601018382169185169190910101066108398184611223565b925061084581836112f4565b915050610856635c2b3ab3836118b3565b9150637f00000160e082811c9084901c0160c083811c63ffffffff9081169186901c8116919091019190910160a084811c83169086901c83160101608084811c83169086901c83160101606084811c83169086901c83160101604084811c83169086901c83160101602084811c83169086901c831601018382169185169190910101066108e38184611223565b92506108ef81836112f4565b915050610900633dc9785e836118b3565b9150637f00000160e082811c9084901c0160c083811c63ffffffff9081169186901c8116919091019190910160a084811c83169086901c83160101608084811c83169086901c83160101606084811c83169086901c83160101604084811c83169086901c83160101602084811c83169086901c8316010183821691851691909101010661098d8184611223565b925061099981836112f4565b9150506109aa631af253b6836118b3565b9150637f00000160e082811c9084901c0160c083811c63ffffffff9081169186901c8116919091019190910160a084811c83169086901c83160101608084811c83169086901c83160101606084811c83169086901c83160101604084811c83169086901c83160101602084811c83169086901c83160101838216918516919091010106610a378184611223565b9250610a4381836112f4565b915050610a54631070cad8836118b3565b9150637f00000160e082811c9084901c0160c083811c63ffffffff9081169186901c8116919091019190910160a084811c83169086901c83160101608084811c83169086901c83160101606084811c83169086901c83160101604084811c83169086901c83160101602084811c83169086901c83160101838216918516919091010106610ae18184611223565b9250610aed81836112f4565b915050610afe632d7e0ec3836118b3565b9150637f00000160e082811c9084901c0160c083811c63ffffffff9081169186901c8116919091019190910160a084811c83169086901c83160101608084811c83169086901c83160101606084811c83169086901c83160101604084811c83169086901c83160101602084811c83169086901c83160101838216918516919091010106610b8b8184611223565b9250610b9781836112f4565b915050610ba8633fb3540b836118b3565b9150637f00000160e082811c9084901c0160c083811c63ffffffff9081169186901c8116919091019190910160a084811c83169086901c83160101608084811c83169086901c83160101606084811c83169086901c83160101604084811c83169086901c83160101602084811c83169086901c83160101838216918516919091010106610c358184611223565b9250610c4181836112f4565b915050610c52635e3b82d3836118b3565b9150637f00000160e082811c9084901c0160c083811c63ffffffff9081169186901c8116919091019190910160a084811c83169086901c83160101608084811c83169086901c83160101606084811c83169086901c83160101604084811c83169086901c83160101602084811c83169086901c83160101838216918516919091010106610cdf8184611223565b9250610ceb81836112f4565b915050610cfc63520a1a14836118b3565b9150637f00000160e082811c9084901c0160c083811c63ffffffff9081169186901c8116919091019190910160a084811c83169086901c83160101608084811c83169086901c83160101606084811c83169086901c83160101604084811c83169086901c83160101602084811c83169086901c83160101838216918516919091010106610d898184611223565b9250610d9581836112f4565b915050610da6633536b508836118b3565b9150637f00000160e082811c9084901c0160c083811c63ffffffff9081169186901c8116919091019190910160a084811c83169086901c83160101608084811c83169086901c83160101606084811c83169086901c83160101604084811c83169086901c83160101602084811c83169086901c83160101838216918516919091010106610e338184611223565b9250610e3f81836112f4565b915050610e5063502ceafe836118b3565b9150637f00000160e082811c9084901c0160c083811c63ffffffff9081169186901c8116919091019190910160a084811c83169086901c83160101608084811c83169086901c83160101606084811c83169086901c83160101604084811c83169086901c83160101602084811c83169086901c83160101838216918516919091010106610edd8184611223565b9250610ee981836112f4565b915050610efa63362a42a9836118b3565b9150637f00000160e082811c9084901c0160c083811c63ffffffff9081169186901c8116919091019190910160a084811c83169086901c83160101608084811c83169086901c83160101606084811c83169086901c83160101604084811c83169086901c83160101602084811c83169086901c83160101838216918516919091010106610f878184611223565b9250610f9381836112f4565b915050610fa463362c4558836118b3565b9150637f00000160e082811c9084901c0160c083811c63ffffffff9081169186901c8116919091019190910160a084811c83169086901c83160101608084811c83169086901c83160101606084811c83169086901c83160101604084811c83169086901c83160101602084811c83169086901c831601018382169185169190910101066110318184611223565b925061103d81836112f4565b91505061104e633ecbe928836118b3565b9150637f00000160e082811c9084901c0160c083811c63ffffffff9081169186901c8116919091019190910160a084811c83169086901c83160101608084811c83169086901c83160101606084811c83169086901c83160101604084811c83169086901c83160101602084811c83169086901c831601018382169185169190910101066110db8184611223565b92506110e781836112f4565b9150506111147f11218dc0167014be7c8eb2e23a6c3b9b7a033707120e62e50e3b6de86f58ab9c83611711565b91506111407f1f79642b294d9199367cc09f1b12a5d96fc835223df8b572654b046e68c005fa82611711565b905061114c81836113cd565b9150915061117a7f09b4f5ef60c076d7231e594c7ba2a2692c9185f83a2840fd718175b52eaf547583611711565b91506111a67f2324d022013e8d86701e300c22d1a4b0273731494f0bb2c7703e164c5cb8526d82611711565b90506111b281836113cd565b915091506111e07f52a0a9505c2abe9833fd545013ce64d563a948284730b1264e15994247931fcc83611711565b915061120c7f65b9070333c90dc57e45ae51298fb39a4ed1df724fbb42a63d33c0e65d61e9df82611711565b905061121881836113cd565b915091509250929050565b5f63ffffffff637f0000018060028560e01c09637f00000103850860e01b9150637f000001818460c01c16850860c01b82179150808360a01c16637f00000180828308860860a01b8317925050637f00000180633f800001838660801c1609850860801b82179150637f000001806003838660601c1609850860601b82179150637f000001806004838660401c1609850860401b82179150637f00000180633f800000838660201c1609850860201b82179150637f00000180600383861609637f0000010385089091179392505050565b5f63ffffffff637f0000018060048560e01c09637f00000103850860e01b9150637f00000180637e810001838660c01c1609850860c01b82179150637f00000180636f200001838660a01c1609850860a01b82179150637f00000180637effff82838660801c1609850860801b82179150637f00000180627f0000838660601c1609850860601b82179150637f00000180630fe00000838660401c1609850860401b82179150637f000001806307f00000838660201c1609850860201b82179150637f00000180607f8386160985089091179392505050565b5f5f6114ba835f63ffffffff60e083901c60c084901c821660a085901c8316608086901c8416637f000001838501828401818101808701928301849006938680019093018390069290850191820181900691888001010660801b60a09190911b60e09390931b60c09290921b9190911791909117179550505050606084901c82169050604084901c8216602085901c8316858416637f000001838501828401818101808701928301849006938680019093018390069290850191820181900691888001010660209190911b60409290921b60609390931b9890981791909117179095179695505050505050565b91506115a7845f63ffffffff60e083901c60c084901c821660a085901c8316608086901c8416637f000001838501828401818101808701928301849006938680019093018390069290850191820181900691888001010660801b60a09190911b60e09390931b60c09290921b9190911791909117179550505050606084901c82169050604084901c8216602085901c8316858416637f000001838501828401818101808701928301849006938680019093018390069290850191820181900691888001010660209190911b60409290921b60609390931b9890981791909117179095179695505050505050565b905061164381835f5f5f5f63ffffffff637f000001818860601c168860e01c01828860601c168860e01c0101069450637f000001818860401c16828960c01c1601828860401c16838960c01c160101069350637f000001818860201c16828960a01c1601828860201c16838960a01c160101069250637f000001818816828960801c1601828816838960801c1601010691505092959194509250565b611650818385878a61166c565b955061165f818385878961166c565b9450505050509250929050565b5f63ffffffff637f0000018360e01c850860e01b9150637f000001818460c01c16860860c01b82179150637f000001818460a01c16870860a01b82179150637f000001818460801c16880860801b82179150637f000001818460601c16850860601b82179150637f000001818460401c16860860401b82179150637f000001818460201c16870860201b82179150637f00000181841688089091179695505050505050565b5f63ffffffff6117288460e01c8460e01c016118d8565b60e01b9150611742818560c01c16828560c01c16016118d8565b60c01b8217915061175e818560a01c16828560a01c16016118d8565b60a01b8217915061177a818560801c16828560801c16016118d8565b60801b82179150611796818560601c16828560601c16016118d8565b60601b821791506117b2818560401c16828560401c16016118d8565b60401b821791506117ce818560201c16828560201c16016118d8565b60201b821791506117e4818516828516016118d8565b9091179392505050565b5f63ffffffff637f0000018460e01c8460e01c0860e01b9150637f000001818560c01c16828560c01c160860c01b82179150637f000001818560a01c16828560a01c160860a01b82179150637f000001818560801c16828560801c160860801b82179150637f000001818560601c16828560601c160860601b82179150637f000001818560401c16828560401c160860401b82179150637f000001818560201c16828560201c160860201b82179150637f000001818516828516089091179392505050565b5f8160e01c6118c38185016118d8565b60e090811b91901b9092039190910192915050565b5f637f00000180838409830992915050565b604051818152600481fd5b92915050565b5f6020828403121561190b575f5ffd5b5035919050565b602081525f82518060208401528060208501604085015e5f6040828501015260407fffffffffffffffffffffffffffffffffffffffffffffffffffffffffffffffe0601f83011684010191505092915050565b5f5f60208385031215611976575f5ffd5b823567ffffffffffffffff81111561198c575f5ffd5b8301601f8101851361199c575f5ffd5b803567ffffffffffffffff8111156119b2575f5ffd5b8560208284010111156119c3575f5ffd5b602091909101959094509250505056fea2646970667358221220f8d4a8a92562712def941cb5030c71b81e9be9001926f809628b83da2bce26af64736f6c63430008210033",
  "linkReferences": {},
  "deployedLinkReferences": {}
}