{
  "_format": "hh-sol-artifact-1",
  "contractName": "ValidatorContainerProofVerifier",
  "sourceName": "contracts/yield/libs/ValidatorContainerProofVerifier.sol",
  "abi": [
    {
      "inputs": [
        {
          "internalType": "address",
          "name": "_admin",
          "type": "address"
        },
        {
          "internalType": "GIndex",
          "name": "_gIFirstValidator",
          "type": "bytes32"
        },
        {
          "internalType": "GIndex",
          "name": "_gIPendingPartialWithdrawalsRoot",
          "type": "bytes32"
        }
      ],
      "stateMutability": "nonpayable",
      "type": "constructor"
    },
    {
      "inputs": [],
      "name": "IndexOutOfRange",
      "type": "error"
    },
    {
      "inputs": [],
      "name": "InvalidSlot",
      "type": "error"
    },
    {
      "inputs": [],
      "name": "OutOfRange",
      "type": "error"
    },
    {
      "inputs": [],
      "name": "RootNotFound",
      "type": "error"
    },
    {
      "inputs": [],
      "name": "ValidatorNotActiveForLongEnough",
      "type": "error"
    },
    {
      "inputs": [],
      "name": "ZeroAddressNotAllowed",
      "type": "error"
    },
    {
      "inputs": [],
      "name": "ZeroHashNotAllowed",
      "type": "error"
    },
    {
      "anonymous": false,
      "inputs": [
        {
          "indexed": false,
          "internalType": "GIndex",
          "name": "oldValue",
          "type": "bytes32"
        },
        {
          "indexed": false,
          "internalType": "GIndex",
          "name": "newValue",
          "type": "bytes32"
        }
      ],
      "name": "GIFirstValidatorUpdated",
      "type": "event"
    },
    {
      "anonymous": false,
      "inputs": [
        {
          "indexed": false,
          "internalType": "GIndex",
          "name": "oldValue",
          "type": "bytes32"
        },
        {
          "indexed": false,
          "internalType": "GIndex",
          "name": "newValue",
          "type": "bytes32"
        }
      ],
      "name": "GIPendingPartialWithdrawalsRootUpdated",
      "type": "event"
    },
    {
      "anonymous": false,
      "inputs": [
        {
          "indexed": true,
          "internalType": "bytes32",
          "name": "role",
          "type": "bytes32"
        },
        {
          "indexed": true,
          "internalType": "bytes32",
          "name": "previousAdminRole",
          "type": "bytes32"
        },
        {
          "indexed": true,
          "internalType": "bytes32",
          "name": "newAdminRole",
          "type": "bytes32"
        }
      ],
      "name": "RoleAdminChanged",
      "type": "event"
    },
    {
      "anonymous": false,
      "inputs": [
        {
          "indexed": true,
          "internalType": "bytes32",
          "name": "role",
          "type": "bytes32"
        },
        {
          "indexed": true,
          "internalType": "address",
          "name": "account",
          "type": "address"
        },
        {
          "indexed": true,
          "internalType": "address",
          "name": "sender",
          "type": "address"
        }
      ],
      "name": "RoleGranted",
      "type": "event"
    },
    {
      "anonymous": false,
      "inputs": [
        {
          "indexed": true,
          "internalType": "bytes32",
          "name": "role",
          "type": "bytes32"
        },
        {
          "indexed": true,
          "internalType": "address",
          "name": "account",
          "type": "address"
        },
        {
          "indexed": true,
          "internalType": "address",
          "name": "sender",
          "type": "address"
        }
      ],
      "name": "RoleRevoked",
      "type": "event"
    },
    {
      "inputs": [],
      "name": "BEACON_ROOTS",
      "outputs": [
        {
          "internalType": "address",
          "name": "",
          "type": "address"
        }
      ],
      "stateMutability": "view",
      "type": "function"
    },
    {
      "inputs": [],
      "name": "DEFAULT_ADMIN_ROLE",
      "outputs": [
        {
          "internalType": "bytes32",
          "name": "",
          "type": "bytes32"
        }
      ],
      "stateMutability": "view",
      "type": "function"
    },
    {
      "inputs": [],
      "name": "FAR_FUTURE_EXIT_EPOCH",
      "outputs": [
        {
          "internalType": "uint64",
          "name": "",
          "type": "uint64"
        }
      ],
      "stateMutability": "view",
      "type": "function"
    },
    {
      "inputs": [],
      "name": "GI_FIRST_VALIDATOR",
      "outputs": [
        {
          "internalType": "GIndex",
          "name": "",
          "type": "bytes32"
        }
      ],
      "stateMutability": "view",
      "type": "function"
    },
    {
      "inputs": [],
      "name": "GI_PENDING_PARTIAL_WITHDRAWALS_ROOT",
      "outputs": [
        {
          "internalType": "GIndex",
          "name": "",
          "type": "bytes32"
        }
      ],
      "stateMutability": "view",
      "type": "function"
    },
    {
      "inputs": [],
      "name": "GI_STATE_ROOT",
      "outputs": [
        {
          "internalType": "GIndex",
          "name": "",
          "type": "bytes32"
        }
      ],
      "stateMutability": "view",
      "type": "function"
    },
    {
      "inputs": [
        {
          "internalType": "bytes32",
          "name": "role",
          "type": "bytes32"
        }
      ],
      "name": "getRoleAdmin",
      "outputs": [
        {
          "internalType": "bytes32",
          "name": "",
          "type": "bytes32"
        }
      ],
      "stateMutability": "view",
      "type": "function"
    },
    {
      "inputs": [
        {
          "internalType": "bytes32",
          "name": "role",
          "type": "bytes32"
        },
        {
          "internalType": "address",
          "name": "account",
          "type": "address"
        }
      ],
      "name": "grantRole",
      "outputs": [],
      "stateMutability": "nonpayable",
      "type": "function"
    },
    {
      "inputs": [
        {
          "internalType": "bytes32",
          "name": "role",
          "type": "bytes32"
        },
        {
          "internalType": "address",
          "name": "account",
          "type": "address"
        }
      ],
      "name": "hasRole",
      "outputs": [
        {
          "internalType": "bool",
          "name": "",
          "type": "bool"
        }
      ],
      "stateMutability": "view",
      "type": "function"
    },
    {
      "inputs": [
        {
          "internalType": "bytes32",
          "name": "role",
          "type": "bytes32"
        },
        {
          "internalType": "address",
          "name": "account",
          "type": "address"
        }
      ],
      "name": "renounceRole",
      "outputs": [],
      "stateMutability": "nonpayable",
      "type": "function"
    },
    {
      "inputs": [
        {
          "internalType": "bytes32",
          "name": "role",
          "type": "bytes32"
        },
        {
          "internalType": "address",
          "name": "account",
          "type": "address"
        }
      ],
      "name": "revokeRole",
      "outputs": [],
      "stateMutability": "nonpayable",
      "type": "function"
    },
    {
      "inputs": [
        {
          "internalType": "GIndex",
          "name": "_gIFirstValidator",
          "type": "bytes32"
        }
      ],
      "name": "setGIFirstValidator",
      "outputs": [],
      "stateMutability": "nonpayable",
      "type": "function"
    },
    {
      "inputs": [
        {
          "internalType": "GIndex",
          "name": "_gIPendingPartialWithdrawalsRoot",
          "type": "bytes32"
        }
      ],
      "name": "setGIPendingPartialWithdrawalsRoot",
      "outputs": [],
      "stateMutability": "nonpayable",
      "type": "function"
    },
    {
      "inputs": [
        {
          "internalType": "bytes4",
          "name": "interfaceId",
          "type": "bytes4"
        }
      ],
      "name": "supportsInterface",
      "outputs": [
        {
          "internalType": "bool",
          "name": "",
          "type": "bool"
        }
      ],
      "stateMutability": "view",
      "type": "function"
    },
    {
      "inputs": [
        {
          "components": [
            {
              "internalType": "bytes32[]",
              "name": "proof",
              "type": "bytes32[]"
            },
            {
              "internalType": "uint64",
              "name": "effectiveBalance",
              "type": "uint64"
            },
            {
              "internalType": "uint64",
              "name": "activationEpoch",
              "type": "uint64"
            },
            {
              "internalType": "uint64",
              "name": "activationEligibilityEpoch",
              "type": "uint64"
            }
          ],
          "internalType": "struct IValidatorContainerProofVerifier.ValidatorContainerWitness",
          "name": "_witness",
          "type": "tuple"
        },
        {
          "internalType": "bytes",
          "name": "_pubkey",
          "type": "bytes"
        },
        {
          "internalType": "bytes32",
          "name": "_withdrawalCredentials",
          "type": "bytes32"
        },
        {
          "internalType": "uint64",
          "name": "_validatorIndex",
          "type": "uint64"
        },
        {
          "internalType": "uint64",
          "name": "_slot",
          "type": "uint64"
        },
        {
          "internalType": "uint64",
          "name": "_childBlockTimestamp",
          "type": "uint64"
        },
        {
          "internalType": "uint64",
          "name": "_proposerIndex",
          "type": "uint64"
        }
      ],
      "name": "verifyActiveValidatorContainer",
      "outputs": [],
      "stateMutability": "view",
      "type": "function"
    },
    {
      "inputs": [
        {
          "components": [
            {
              "internalType": "bytes32[]",
              "name": "proof",
              "type": "bytes32[]"
            },
            {
              "components": [
                {
                  "internalType": "uint64",
                  "name": "validatorIndex",
                  "type": "uint64"
                },
                {
                  "internalType": "uint64",
                  "name": "amount",
                  "type": "uint64"
                },
                {
                  "internalType": "uint64",
                  "name": "withdrawableEpoch",
                  "type": "uint64"
                }
              ],
              "internalType": "struct PendingPartialWithdrawal[]",
              "name": "pendingPartialWithdrawals",
              "type": "tuple[]"
            }
          ],
          "internalType": "struct IValidatorContainerProofVerifier.PendingPartialWithdrawalsWitness",
          "name": "_witness",
          "type": "tuple"
        },
        {
          "internalType": "uint64",
          "name": "_slot",
          "type": "uint64"
        },
        {
          "internalType": "uint64",
          "name": "_childBlockTimestamp",
          "type": "uint64"
        },
        {
          "internalType": "uint64",
          "name": "_proposerIndex",
          "type": "uint64"
        }
      ],
      "name": "verifyPendingPartialWithdrawals",
      "outputs": [],
      "stateMutability": "view",
      "type": "function"
    }
  ],
  "bytecode": "0x60a060405261001a6100136003600861019b565b600361007b565b608052348015610028575f5ffd5b50604051612804380380612804833981016040819052610047916101ba565b610050836100b6565b610059826100e0565b610062816100e0565b61006c5f846100fe565b600191909155600255506101f9565b5f6001600160f81b038311156100a457604051631390f2a160e01b815260040160405180910390fd5b50600882901b60ff8216175b92915050565b6001600160a01b0381166100dd576040516342bcdf7f60e11b815260040160405180910390fd5b50565b806100dd57604051630742d05360e01b815260040160405180910390fd5b5f828152602081815260408083206001600160a01b038516845290915290205460ff16610197575f828152602081815260408083206001600160a01b03851684529091529020805460ff191660011790556101563390565b6001600160a01b0316816001600160a01b0316837f2f8788117e7eff1d82e926ec794901d17c78024a50270940304540a733656f0d60405160405180910390a45b5050565b808201808211156100b057634e487b7160e01b5f52601160045260245ffd5b5f5f5f606084860312156101cc575f5ffd5b83516001600160a01b03811681146101e2575f5ffd5b602085015160409095015190969495509392505050565b6080516125e561021f5f395f818161018d015281816105ea015261069e01526125e55ff3fe608060405234801561000f575f5ffd5b50600436106100fb575f3560e01c80636df7fb6011610093578063a217fddf11610063578063a217fddf14610288578063c899c2ea1461028f578063d547741f146102a2578063e69e8af7146102b5575f5ffd5b80636df7fb60146102015780637ec38f911461020a57806391d14854146102325780639872a2f514610275575f5ffd5b80632f89e48a116100ce5780632f89e48a146101755780632f8d51491461018857806336568abe146101af57806356d7e8fd146101c2575f5ffd5b806301ffc9a7146100ff578063248a9ca3146101275780632b3c1a85146101575780632f2ff15d14610160575b5f5ffd5b61011261010d366004611fb6565b6102c8565b60405190151581526020015b60405180910390f35b610149610135366004611ff5565b5f9081526020819052604090206001015490565b60405190815260200161011e565b61014960015481565b61017361016e36600461200c565b610360565b005b610173610183366004611ff5565b610389565b6101497f000000000000000000000000000000000000000000000000000000000000000081565b6101736101bd36600461200c565b6103e3565b6101dc720f3df6d732807ef1319fb7b8bb8522d0beac0281565b60405173ffffffffffffffffffffffffffffffffffffffff909116815260200161011e565b61014960025481565b61021967ffffffffffffffff81565b60405167ffffffffffffffff909116815260200161011e565b61011261024036600461200c565b5f9182526020828152604080842073ffffffffffffffffffffffffffffffffffffffff93909316845291905290205460ff1690565b610173610283366004611ff5565b61049b565b6101495f81565b61017361029d36600461206e565b6104ec565b6101736102b036600461200c565b61064d565b6101736102c3366004612154565b610671565b5f7fffffffff0000000000000000000000000000000000000000000000000000000082167f7965db0b00000000000000000000000000000000000000000000000000000000148061035a57507f01ffc9a7000000000000000000000000000000000000000000000000000000007fffffffff000000000000000000000000000000000000000000000000000000008316145b92915050565b5f8281526020819052604090206001015461037a816106e5565b61038483836106f2565b505050565b5f610393816106e5565b61039c826107e0565b600280549083905560408051828152602081018590527f7560fee6ca50f110377e816f88cd0e0022bb2ce25c3552cd0b54ac281a49627591015b60405180910390a1505050565b73ffffffffffffffffffffffffffffffffffffffff8116331461048d576040517f08c379a000000000000000000000000000000000000000000000000000000000815260206004820152602f60248201527f416363657373436f6e74726f6c3a2063616e206f6e6c792072656e6f756e636560448201527f20726f6c657320666f722073656c66000000000000000000000000000000000060648201526084015b60405180910390fd5b6104978282610817565b5050565b5f6104a5816106e5565b6104ae826107e0565b600180549083905560408051828152602081018590527fad4d2e523cb7895128ea5849caf709ba9e0608fd8db7f8c22e5994cdd0ddbbd491016103d6565b61050083826104fb8b806121c3565b6108cc565b6105198361051460608b0160408c0161222e565b610aec565b604080516101206020601f8a01819004028201810190925261010081018881525f928291908b908b90819085018382808284375f92019190915250505090825250602080820189905260409182019161057791908d01908d0161222e565b67ffffffffffffffff1681525f602082015260400161059c60808c0160608d0161222e565b67ffffffffffffffff1681526020016105bb60608c0160408d0161222e565b67ffffffffffffffff90811682526020820181905260409091015290505f6105e282610b53565b90505f6106217f000000000000000000000000000000000000000000000000000000000000000061061c8967ffffffffffffffff16610e61565b610e70565b90506106406106308c806121c3565b61063988611029565b8585611132565b5050505050505050505050565b5f82815260208190526040902060010154610667816106e5565b6103848383610817565b61068083826104fb87806121c3565b5f6106966106916020870187612247565b6111ce565b90505f6106c57f0000000000000000000000000000000000000000000000000000000000000000600254610e70565b90506106dd6106d487806121c3565b61063987611029565b505050505050565b6106ef8133611375565b50565b5f8281526020818152604080832073ffffffffffffffffffffffffffffffffffffffff8516845290915290205460ff16610497575f8281526020818152604080832073ffffffffffffffffffffffffffffffffffffffff85168452909152902080547fffffffffffffffffffffffffffffffffffffffffffffffffffffffffffffff001660011790556107823390565b73ffffffffffffffffffffffffffffffffffffffff168173ffffffffffffffffffffffffffffffffffffffff16837f2f8788117e7eff1d82e926ec794901d17c78024a50270940304540a733656f0d60405160405180910390a45050565b806106ef576040517f0742d05300000000000000000000000000000000000000000000000000000000815260040160405180910390fd5b5f8281526020818152604080832073ffffffffffffffffffffffffffffffffffffffff8516845290915290205460ff1615610497575f8281526020818152604080832073ffffffffffffffffffffffffffffffffffffffff8516808552925280832080547fffffffffffffffffffffffffffffffffffffffffffffffffffffffffffffff0016905551339285917ff6391f5c32d9c69d2a47ea670b442974b53935d1edc7fd64eb21e047a839171b9190a45050565b5f610a887bffffffff000000000000000000000000ffffffff000000000000000066ff000000ff0000600888811c91821667ff000000ff000000918a901b91821617601090811c64ff000000ff90931665ff000000ff0090921691909117901b17602081811c9283167fffffffff000000000000000000000000ffffffff0000000000000000000000009290911b91821617604090811c73ffffffff000000000000000000000000ffffffff90931677ffffffff000000000000000000000000ffffffff0000000090921691909117901b17608081811c91901b177bffffffff000000000000000000000000ffffffff000000000000000066ff000000ff0000600888811c91821667ff000000ff000000918a901b91821617601090811c64ff000000ff90931665ff000000ff0090921691909117901b17602081811c9283167fffffffff000000000000000000000000ffffffff0000000000000000000000009290911b91821617604090811c73ffffffff000000000000000000000000ffffffff90931677ffffffff000000000000000000000000ffffffff0000000090921691909117901b17608081811c91901b1761142c565b61142c565b9050808383610a986002826122d7565b818110610aa757610aa76122ea565b9050602002013514610ae5576040517f1258e44300000000000000000000000000000000000000000000000000000000815260040160405180910390fd5b5050505050565b5f610af8602084612344565b9050610b0661010083612373565b67ffffffffffffffff168167ffffffffffffffff161015610384576040517ff09955a100000000000000000000000000000000000000000000000000000000815260040160405180910390fd5b5f5f82516030602082015f5e506010606060305e60205f60405f60025afa80610b7a575f5ffd5b505f5190505f60405180610100016040528083815260200185602001518152602001610c08866040015166ff000000ff0000600882811c91821667ff000000ff0000009390911b92831617601090811c64ff000000ff90921665ff000000ff009093169290921790911b17602081811c63ffffffff1667ffffffff000000009290911b919091161760c01b90565b8152602001610c1a8660600151611451565b8152602001610c8b866080015166ff000000ff0000600882811c91821667ff000000ff0000009390911b92831617601090811c64ff000000ff90921665ff000000ff009093169290921790911b17602081811c63ffffffff1667ffffffff000000009290911b919091161760c01b90565b8152602001610cfc8660a0015166ff000000ff0000600882811c91821667ff000000ff0000009390911b92831617601090811c64ff000000ff90921665ff000000ff009093169290921790911b17602081811c63ffffffff1667ffffffff000000009290911b919091161760c01b90565b8152602001610d6d8660c0015166ff000000ff0000600882811c91821667ff000000ff0000009390911b92831617601090811c64ff000000ff90921665ff000000ff009093169290921790911b17602081811c63ffffffff1667ffffffff000000009290911b919091161760c01b90565b8152602001610dde8660e0015166ff000000ff0000600882811c91821667ff000000ff0000009390911b92831617601090811c64ff000000ff90921665ff000000ff009093169290921790911b17602081811c63ffffffff1667ffffffff000000009290911b919091161760c01b90565b9052905060085b81828260051b81015b6040825f5e60205f60405f60025afa80610e06575f5ffd5b505f518352602083019250604082019150808210610dee5750505060011c7fffffffffffffffffffffffffffffffffffffffffffffffffffffffffffffffff8101610e54575f519350610e59565b610de5565b505050919050565b6001545f9061035a9083611484565b5f5f610e7c8460081c90565b90505f610e898460081c90565b90505f610f1d837f0706060506020504060203020504030106050205030304010505030400000000601f6f8421084210842108cc6318c6db6d54be831560081b6fffffffffffffffffffffffffffffffff851160071b1784811c67ffffffffffffffff1060061b1784811c63ffffffff1060051b1784811c61ffff1060041b1784811c60ff1060031b1793841c1c161a1790565b90505f610fb1837f0706060506020504060203020504030106050205030304010505030400000000601f6f8421084210842108cc6318c6db6d54be831560081b6fffffffffffffffffffffffffffffffff851160071b1784811c67ffffffffffffffff1060061b1784811c63ffffffff1060051b1784811c61ffff1060041b1784811c60ff1060031b1793841c1c161a1790565b905060f881610fc1846001612393565b610fcb9190612393565b1115611003576040517f1390f2a100000000000000000000000000000000000000000000000000000000815260040160405180910390fd5b61101e84821b6001831b8518176110198861150a565b611511565b979650505050505050565b6040805167ffffffffffffffff831660208201525f9182918291720f3df6d732807ef1319fb7b8bb8522d0beac029101604080517fffffffffffffffffffffffffffffffffffffffffffffffffffffffffffffffe081840301815290829052611091916123bd565b5f60405180830381855afa9150503d805f81146110c9576040519150601f19603f3d011682016040523d82523d5f602084013e6110ce565b606091505b50915091508115806110df57508051155b15611116576040517f3033b0ff00000000000000000000000000000000000000000000000000000000815260040160405180910390fd5b8080602001905181019061112a91906123c8565b949350505050565b5f61113d8260081c90565b905084611151576309bde3395f526004601cfd5b8460051b8601865b6001831660051b8360011c93508361117857635849603f5f526004601cfd5b85815281356020918218525f60408160025afa80611194575f5ffd5b505f519450602001818110611159575050600181146111ba57631b6661c35f526004601cfd5b8383146106dd576309bde3395f526004601cfd5b5f81630800000081111561120e576040517f7db3aba700000000000000000000000000000000000000000000000000000000815260040160405180910390fd5b5f81156112305761122b6112236001846122d7565b1e6101000390565b611232565b5f5b905061123c611f97565b5f5b8381101561128a5761128282848661127c8b8b87818110611261576112616122ea565b905060600201803603810190611277919061240c565b611579565b8561175c565b60010161123e565b506001821b83146112a2576112a28183855f8161175c565b815b601b8110156112f9576112d08282601c81106112c2576112c26122ea565b6020020151610a83836117e6565b826112dc836001612393565b601c81106112ec576112ec6122ea565b60200201526001016112a4565b5061036081015161136b9065ff000000ff00600886811b91821664ff000000ff9188901c91821617601090811b67ff000000ff0000009390931666ff000000ff00009290921691909117901c17602081811b67ffffffff000000001663ffffffff9290911c919091161760c01b61142c565b9695505050505050565b5f8281526020818152604080832073ffffffffffffffffffffffffffffffffffffffff8516845290915290205460ff16610497576113b281611d1c565b6113bd836020611d3b565b6040516020016113ce92919061249d565b604080517fffffffffffffffffffffffffffffffffffffffffffffffffffffffffffffffe0818403018152908290527f08c379a0000000000000000000000000000000000000000000000000000000008252610484916004016124fe565b5f825f528160205260205f60405f60025afa80611447575f5ffd5b50505f5192915050565b5f8161145d575f61035a565b7f010000000000000000000000000000000000000000000000000000000000000092915050565b5f5f6114908460081c90565b90505f61149c85611f7f565b905080846114aa8285612551565b6114b49190612393565b106114eb576040517f1390f2a100000000000000000000000000000000000000000000000000000000815260040160405180910390fd5b6115016114f88584612393565b6110198761150a565b95945050505050565b5f8161035a565b5f7effffffffffffffffffffffffffffffffffffffffffffffffffffffffffffff83111561156b576040517f1390f2a100000000000000000000000000000000000000000000000000000000815260040160405180910390fd5b5060ff1660089190911b1790565b5f5f60405180608001604052806115f1855f015166ff000000ff0000600882811c91821667ff000000ff0000009390911b92831617601090811c64ff000000ff90921665ff000000ff009093169290921790911b17602081811c63ffffffff1667ffffffff000000009290911b919091161760c01b90565b8152602001611662856020015166ff000000ff0000600882811c91821667ff000000ff0000009390911b92831617601090811c64ff000000ff90921665ff000000ff009093169290921790911b17602081811c63ffffffff1667ffffffff000000009290911b919091161760c01b90565b81526020016116d3856040015166ff000000ff0000600882811c91821667ff000000ff0000009390911b92831617601090811c64ff000000ff90921665ff000000ff009093169290921790911b17602081811c63ffffffff1667ffffffff000000009290911b919091161760c01b90565b81525f602090910152905060045b81828260051b81015b6040825f5e60205f60405f60025afa80611702575f5ffd5b505f5183526020830192506040820191508082106116ea5750505060011c7fffffffffffffffffffffffffffffffffffffffffffffffffffffffffffffffff8101611750575f519250611755565b6116e1565b5050919050565b5f825b6001821b83165f0361179757848314801561177957508582105b156117925761178b81610a83846117e6565b90506117ba565b6117c5565b6117b78783601c81106117ac576117ac6122ea565b60200201518261142c565b90505b81600101915061175f565b808783601c81106117d8576117d86122ea565b602002015250505050505050565b5f815f036117f557505f919050565b8160010361182457507ff5a5fd42d16a20302798ef6ed309979b43003d2320d9f0e8ea9831a92759fb4b919050565b8160020361185357507fdb56114e00fdd4c1f85c892bf35ac9a89289aaecb1ebd0a96cde606a748b5d71919050565b8160030361188257507fc78009fdf07fc56a11f122370658a353aaa542ed63e44c4bc15ff4cd105ab33c919050565b816004036118b157507f536d98837f2dd165a55d5eeae91485954472d56f246df256bf3cae19352a123c919050565b816005036118e057507f9efde052aa15429fae05bad4d0b1d7c64da64d03d7a1854a588c2cb8430c0d30919050565b8160060361190f57507fd88ddfeed400a8755596b21942c1497e114c302e6118290f91e6772976041fa1919050565b8160070361193e57507f87eb0ddba57e35f6d286673802a4af5975e22506c7cf4c64bb6be5ee11527f2c919050565b8160080361196d57507f26846476fd5fc54a5d43385167c95144f2643f533cc85bb9d16b782f8d7db193919050565b8160090361199c57507f506d86582d252405b840018792cad2bf1259f1ef5aa5f887e13cb2f0094f51e1919050565b81600a036119cb57507fffff0ad7e659772f9534c195c815efc4014ef1e1daed4404c06385d11192e92b919050565b81600b036119fa57507f6cf04127db05441cd833107a52be852868890e4317e6a02ab47683aa75964220919050565b81600c03611a2957507fb7d05f875f140027ef5118a2247bbb84ce8f2f0f1123623085daf7960c329f5f919050565b81600d03611a5857507fdf6af5f5bbdb6be9ef8aa618e4bf8073960867171e29676f8b284dea6a08a85e919050565b81600e03611a8757507fb58d900f5e182e3c50ef74969ea16c7726c549757cc23523c369587da7293784919050565b81600f03611ab657507fd49a7502ffcfb0340b1d7885688500ca308161a7f96b62df9d083b71fcc8f2bb919050565b81601003611ae557507f8fe6b1689256c0d385f42f5bbe2027a22c1996e110ba97c171d3e5948de92beb919050565b81601103611b1457507f8d0d63c39ebade8509e0ae3c9c3876fb5fa112be18f905ecacfecb92057603ab919050565b81601203611b4357507f95eec8b2e541cad4e91de38385f2e046619f54496c2382cb6cacd5b98c26f5a4919050565b81601303611b7257507ff893e908917775b62bff23294dbbe3a1cd8e6cc1c35b4801887b646a6f81f17f919050565b81601403611ba157507fcddba7b592e3133393c16194fac7431abf2f5485ed711db282183c819e08ebaa919050565b81601503611bd057507f8a8d7fe3af8caa085a7639a832001457dfb9128a8061142ad0335629ff23ff9c919050565b81601603611bff57507ffeb3c337d7a51a6fbf00b9e34c52e1c9195c969bd4e7a0bfd51d5c5bed9c1167919050565b81601703611c2e57507fe71f0aa83cc32edfbefa9f4d3e0174ca85182eec9f3a09f6a6c0df6377a510d7919050565b81601803611c5d57507f31206fa80a50bb6abe29085058f16212212a60eec8f049fecb92d8c8e0a84bc0919050565b81601903611c8c57507f21352bfecbeddde993839f614c3dac0a3ee37543f9b412b16199dc158e23b544919050565b81601a03611cbb57507f619e312724bb6d7c3153ed9de791d764a366b389af13c58bf8a8d90481a46765919050565b81601b03611cea57507f7cdd2986268250628d0c10e385c58c6191e6fbe05191bcc04f133f2cea72c1c4919050565b6040517f7db3aba700000000000000000000000000000000000000000000000000000000815260040160405180910390fd5b606061035a73ffffffffffffffffffffffffffffffffffffffff831660145b60605f611d49836002612564565b611d54906002612393565b67ffffffffffffffff811115611d6c57611d6c6123df565b6040519080825280601f01601f191660200182016040528015611d96576020820181803683370190505b5090507f3000000000000000000000000000000000000000000000000000000000000000815f81518110611dcc57611dcc6122ea565b60200101907effffffffffffffffffffffffffffffffffffffffffffffffffffffffffffff191690815f1a9053507f780000000000000000000000000000000000000000000000000000000000000081600181518110611e2e57611e2e6122ea565b60200101907effffffffffffffffffffffffffffffffffffffffffffffffffffffffffffff191690815f1a9053505f611e68846002612564565b611e73906001612393565b90505b6001811115611f0f577f303132333435363738396162636465660000000000000000000000000000000085600f1660108110611eb457611eb46122ea565b1a60f81b828281518110611eca57611eca6122ea565b60200101907effffffffffffffffffffffffffffffffffffffffffffffffffffffffffffff191690815f1a90535060049490941c93611f088161257b565b9050611e76565b508315611f78576040517f08c379a000000000000000000000000000000000000000000000000000000000815260206004820181905260248201527f537472696e67733a20686578206c656e67746820696e73756666696369656e746044820152606401610484565b9392505050565b5f611f898261150a565b60ff166001901b9050919050565b604051806103800160405280601c906020820280368337509192915050565b5f60208284031215611fc6575f5ffd5b81357fffffffff0000000000000000000000000000000000000000000000000000000081168114611f78575f5ffd5b5f60208284031215612005575f5ffd5b5035919050565b5f5f6040838503121561201d575f5ffd5b82359150602083013573ffffffffffffffffffffffffffffffffffffffff81168114612047575f5ffd5b809150509250929050565b803567ffffffffffffffff81168114612069575f5ffd5b919050565b5f5f5f5f5f5f5f5f60e0898b031215612085575f5ffd5b883567ffffffffffffffff81111561209b575f5ffd5b89016080818c0312156120ac575f5ffd5b9750602089013567ffffffffffffffff8111156120c7575f5ffd5b8901601f81018b136120d7575f5ffd5b803567ffffffffffffffff8111156120ed575f5ffd5b8b60208284010111156120fe575f5ffd5b602091909101975095506040890135945061211b60608a01612052565b935061212960808a01612052565b925061213760a08a01612052565b915061214560c08a01612052565b90509295985092959890939650565b5f5f5f5f60808587031215612167575f5ffd5b843567ffffffffffffffff81111561217d575f5ffd5b85016040818803121561218e575f5ffd5b935061219c60208601612052565b92506121aa60408601612052565b91506121b860608601612052565b905092959194509250565b5f5f83357fffffffffffffffffffffffffffffffffffffffffffffffffffffffffffffffe18436030181126121f6575f5ffd5b83018035915067ffffffffffffffff821115612210575f5ffd5b6020019150600581901b3603821315612227575f5ffd5b9250929050565b5f6020828403121561223e575f5ffd5b611f7882612052565b5f5f83357fffffffffffffffffffffffffffffffffffffffffffffffffffffffffffffffe184360301811261227a575f5ffd5b83018035915067ffffffffffffffff821115612294575f5ffd5b6020019150606081023603821315612227575f5ffd5b7f4e487b71000000000000000000000000000000000000000000000000000000005f52601160045260245ffd5b8181038181111561035a5761035a6122aa565b7f4e487b71000000000000000000000000000000000000000000000000000000005f52603260045260245ffd5b7f4e487b71000000000000000000000000000000000000000000000000000000005f52601260045260245ffd5b5f67ffffffffffffffff83168061235d5761235d612317565b8067ffffffffffffffff84160491505092915050565b67ffffffffffffffff818116838216019081111561035a5761035a6122aa565b8082018082111561035a5761035a6122aa565b5f81518060208401855e5f93019283525090919050565b5f611f7882846123a6565b5f602082840312156123d8575f5ffd5b5051919050565b7f4e487b71000000000000000000000000000000000000000000000000000000005f52604160045260245ffd5b5f606082840312801561241d575f5ffd5b506040516060810167ffffffffffffffff81118282101715612466577f4e487b71000000000000000000000000000000000000000000000000000000005f52604160045260245ffd5b60405261247283612052565b815261248060208401612052565b602082015261249160408401612052565b60408201529392505050565b7f416363657373436f6e74726f6c3a206163636f756e742000000000000000000081525f6124ce60178301856123a6565b7f206973206d697373696e6720726f6c6520000000000000000000000000000000815261150160118201856123a6565b602081525f82518060208401528060208501604085015e5f6040828501015260407fffffffffffffffffffffffffffffffffffffffffffffffffffffffffffffffe0601f83011684010191505092915050565b5f8261255f5761255f612317565b500690565b808202811582820484141761035a5761035a6122aa565b5f81612589576125896122aa565b507fffffffffffffffffffffffffffffffffffffffffffffffffffffffffffffffff019056fea264697066735822122002352cb0ca7adcf29349efa8caf6095780dc5a17e869ddff749759fbefe5e88c64736f6c63430008210033",
  "linkReferences": {},
  "deployedLinkReferences": {}
}