{
  "_format": "hh-sol-artifact-1",
  "contractName": "DummyContract",
  "sourceName": "contracts/messageService/DummyContract.sol",
  "abi": [
    {
      "inputs": [],
      "name": "age",
      "outputs": [
        {
          "internalType": "uint256",
          "name": "",
          "type": "uint256"
        }
      ],
      "stateMutability": "view",
      "type": "function"
    },
    {
      "inputs": [],
      "name": "name",
      "outputs": [
        {
          "internalType": "string",
          "name": "",
          "type": "string"
        }
      ],
      "stateMutability": "view",
      "type": "function"
    },
    {
      "inputs": [],
      "name": "payload",
      "outputs": [
        {
          "internalType": "bytes",
          "name": "",
          "type": "bytes"
        }
      ],
      "stateMutability": "view",
      "type": "function"
    },
    {
      "inputs": [
        {
          "internalType": "uint256",
          "name": "_newAge",
          "type": "uint256"
        }
      ],
      "name": "setAge",
      "outputs": [],
      "stateMutability": "nonpayable",
      "type": "function"
    },
    {
      "inputs": [
        {
          "internalType": "string",
          "name": "_newName",
          "type": "string"
        }
      ],
      "name": "setName",
      "outputs": [],
      "stateMutability": "nonpayable",
      "type": "function"
    },
    {
      "inputs": [
        {
          "internalType": "bytes",
          "name": "_payload",
          "type": "bytes"
        }
      ],
      "name": "setPayload",
      "outputs": [],
      "stateMutability": "nonpayable",
      "type": "function"
    }
  ],
  "bytecode": "0x608060405234801561001057600080fd5b5061058d806100206000396000f3fe608060405234801561001057600080fd5b50600436106100625760003560e01c806306fdde0314610067578063262a9dff14610085578063a878f8581461009c578063c47f0027146100a4578063d5dcf127146100b9578063deb3cdf2146100cc575b600080fd5b61006f6100df565b60405161007c91906101e2565b60405180910390f35b61008e60015481565b60405190815260200161007c565b61006f61016d565b6100b76100b2366004610212565b61017a565b005b6100b76100c73660046102c3565b600155565b6100b76100da3660046102dc565b61018a565b600080546100ec9061034e565b80601f01602080910402602001604051908101604052809291908181526020018280546101189061034e565b80156101655780601f1061013a57610100808354040283529160200191610165565b820191906000526020600020905b81548152906001019060200180831161014857829003601f168201915b505050505081565b600280546100ec9061034e565b600061018682826103d6565b5050565b6002610197828483610496565b505050565b6000815180845260005b818110156101c2576020818501810151868301820152016101a6565b506000602082860101526020601f19601f83011685010191505092915050565b6020815260006101f5602083018461019c565b9392505050565b634e487b7160e01b600052604160045260246000fd5b60006020828403121561022457600080fd5b813567ffffffffffffffff8082111561023c57600080fd5b818401915084601f83011261025057600080fd5b813581811115610262576102626101fc565b604051601f8201601f19908116603f0116810190838211818310171561028a5761028a6101fc565b816040528281528760208487010111156102a357600080fd5b826020860160208301376000928101602001929092525095945050505050565b6000602082840312156102d557600080fd5b5035919050565b600080602083850312156102ef57600080fd5b823567ffffffffffffffff8082111561030757600080fd5b818501915085601f83011261031b57600080fd5b81358181111561032a57600080fd5b86602082850101111561033c57600080fd5b60209290920196919550909350505050565b600181811c9082168061036257607f821691505b60208210810361038257634e487b7160e01b600052602260045260246000fd5b50919050565b601f82111561019757600081815260208120601f850160051c810160208610156103af5750805b601f850160051c820191505b818110156103ce578281556001016103bb565b505050505050565b815167ffffffffffffffff8111156103f0576103f06101fc565b610404816103fe845461034e565b84610388565b602080601f83116001811461043957600084156104215750858301515b600019600386901b1c1916600185901b1785556103ce565b600085815260208120601f198616915b8281101561046857888601518255948401946001909101908401610449565b50858210156104865787850151600019600388901b60f8161c191681555b5050505050600190811b01905550565b67ffffffffffffffff8311156104ae576104ae6101fc565b6104c2836104bc835461034e565b83610388565b6000601f8411600181146104f657600085156104de5750838201355b600019600387901b1c1916600186901b178355610550565b600083815260209020601f19861690835b828110156105275786850135825560209485019460019092019101610507565b50868210156105445760001960f88860031b161c19848701351681555b505060018560011b0183555b505050505056fea26469706673582212207e818de156c0521ea5a573908822840fd65862fb2f8510cd6d9ed8daa261d2c864736f6c63430008130033",
  "linkReferences": {},
  "deployedLinkReferences": {}
}