{
  "_format": "hh-sol-artifact-1",
  "abi": [
    {
      "inputs": [
        {
          "internalType": "address",
          "name": "recipient",
          "type": "address"
        }
      ],
      "name": "FeePaymentFailed",
      "type": "error"
    },
    {
      "inputs": [],
      "name": "FeeTooLow",
      "type": "error"
    },
    {
      "inputs": [],
      "name": "FinalRollingHashIsZero",
      "type": "error"
    },
    {
      "inputs": [
        {
          "internalType": "uint256",
          "name": "pauseType",
          "type": "uint256"
        }
      ],
      "name": "IsNotPaused",
      "type": "error"
    },
    {
      "inputs": [
        {
          "internalType": "uint256",
          "name": "pauseType",
          "type": "uint256"
        }
      ],
      "name": "IsPaused",
      "type": "error"
    },
    {
      "inputs": [
        {
          "internalType": "uint256",
          "name": "expected",
          "type": "uint256"
        },
        {
          "internalType": "uint256",
          "name": "found",
          "type": "uint256"
        }
      ],
      "name": "L1MessageNumberSynchronizationWrong",
      "type": "error"
    },
    {
      "inputs": [
        {
          "internalType": "bytes32",
          "name": "expected",
          "type": "bytes32"
        },
        {
          "internalType": "bytes32",
          "name": "found",
          "type": "bytes32"
        }
      ],
      "name": "L1RollingHashSynchronizationWrong",
      "type": "error"
    },
    {
      "inputs": [],
      "name": "LimitIsZero",
      "type": "error"
    },
    {
      "inputs": [
        {
          "internalType": "bytes32",
          "name": "messageHash",
          "type": "bytes32"
        }
      ],
      "name": "MessageDoesNotExistOrHasAlreadyBeenClaimed",
      "type": "error"
    },
    {
      "inputs": [
        {
          "internalType": "uint256",
          "name": "length",
          "type": "uint256"
        }
      ],
      "name": "MessageHashesListLengthHigherThanOneHundred",
      "type": "error"
    },
    {
      "inputs": [
        {
          "internalType": "address",
          "name": "destination",
          "type": "address"
        }
      ],
      "name": "MessageSendingFailed",
      "type": "error"
    },
    {
      "inputs": [],
      "name": "PeriodIsZero",
      "type": "error"
    },
    {
      "inputs": [],
      "name": "RateLimitExceeded",
      "type": "error"
    },
    {
      "inputs": [],
      "name": "ServiceHasMigratedToRollingHashes",
      "type": "error"
    },
    {
      "inputs": [],
      "name": "ValueSentTooLow",
      "type": "error"
    },
    {
      "inputs": [],
      "name": "ZeroAddressNotAllowed",
      "type": "error"
    },
    {
      "anonymous": false,
      "inputs": [
        {
          "indexed": true,
          "internalType": "address",
          "name": "resettingAddress",
          "type": "address"
        }
      ],
      "name": "AmountUsedInPeriodReset",
      "type": "event"
    },
    {
      "anonymous": false,
      "inputs": [
        {
          "indexed": false,
          "internalType": "uint8",
          "name": "version",
          "type": "uint8"
        }
      ],
      "name": "Initialized",
      "type": "event"
    },
    {
      "anonymous": false,
      "inputs": [
        {
          "indexed": false,
          "internalType": "bytes32[]",
          "name": "messageHashes",
          "type": "bytes32[]"
        }
      ],
      "name": "L1L2MessageHashesAddedToInbox",
      "type": "event"
    },
    {
      "anonymous": false,
      "inputs": [
        {
          "indexed": true,
          "internalType": "address",
          "name": "amountChangeBy",
          "type": "address"
        },
        {
          "indexed": false,
          "internalType": "uint256",
          "name": "amount",
          "type": "uint256"
        },
        {
          "indexed": false,
          "internalType": "bool",
          "name": "amountUsedLoweredToLimit",
          "type": "bool"
        },
        {
          "indexed": false,
          "internalType": "bool",
          "name": "usedAmountResetToZero",
          "type": "bool"
        }
      ],
      "name": "LimitAmountChanged",
      "type": "event"
    },
    {
      "anonymous": false,
      "inputs": [
        {
          "indexed": true,
          "internalType": "bytes32",
          "name": "_messageHash",
          "type": "bytes32"
        }
      ],
      "name": "MessageClaimed",
      "type": "event"
    },
    {
      "anonymous": false,
      "inputs": [
        {
          "indexed": true,
          "internalType": "address",
          "name": "_from",
          "type": "address"
        },
        {
          "indexed": true,
          "internalType": "address",
          "name": "_to",
          "type": "address"
        },
        {
          "indexed": false,
          "internalType": "uint256",
          "name": "_fee",
          "type": "uint256"
        },
        {
          "indexed": false,
          "internalType": "uint256",
          "name": "_value",
          "type": "uint256"
        },
        {
          "indexed": false,
          "internalType": "uint256",
          "name": "_nonce",
          "type": "uint256"
        },
        {
          "indexed": false,
          "internalType": "bytes",
          "name": "_calldata",
          "type": "bytes"
        },
        {
          "indexed": true,
          "internalType": "bytes32",
          "name": "_messageHash",
          "type": "bytes32"
        }
      ],
      "name": "MessageSent",
      "type": "event"
    },
    {
      "anonymous": false,
      "inputs": [
        {
          "indexed": false,
          "internalType": "uint256",
          "name": "previousMinimumFee",
          "type": "uint256"
        },
        {
          "indexed": false,
          "internalType": "uint256",
          "name": "newMinimumFee",
          "type": "uint256"
        },
        {
          "indexed": true,
          "internalType": "address",
          "name": "calledBy",
          "type": "address"
        }
      ],
      "name": "MinimumFeeChanged",
      "type": "event"
    },
    {
      "anonymous": false,
      "inputs": [
        {
          "indexed": false,
          "internalType": "address",
          "name": "messageSender",
          "type": "address"
        },
        {
          "indexed": true,
          "internalType": "uint256",
          "name": "pauseType",
          "type": "uint256"
        }
      ],
      "name": "Paused",
      "type": "event"
    },
    {
      "anonymous": false,
      "inputs": [
        {
          "indexed": false,
          "internalType": "uint256",
          "name": "periodInSeconds",
          "type": "uint256"
        },
        {
          "indexed": false,
          "internalType": "uint256",
          "name": "limitInWei",
          "type": "uint256"
        },
        {
          "indexed": false,
          "internalType": "uint256",
          "name": "currentPeriodEnd",
          "type": "uint256"
        }
      ],
      "name": "RateLimitInitialized",
      "type": "event"
    },
    {
      "anonymous": false,
      "inputs": [
        {
          "indexed": true,
          "internalType": "bytes32",
          "name": "role",
          "type": "bytes32"
        },
        {
          "indexed": true,
          "internalType": "bytes32",
          "name": "previousAdminRole",
          "type": "bytes32"
        },
        {
          "indexed": true,
          "internalType": "bytes32",
          "name": "newAdminRole",
          "type": "bytes32"
        }
      ],
      "name": "RoleAdminChanged",
      "type": "event"
    },
    {
      "anonymous": false,
      "inputs": [
        {
          "indexed": true,
          "internalType": "bytes32",
          "name": "role",
          "type": "bytes32"
        },
        {
          "indexed": true,
          "internalType": "address",
          "name": "account",
          "type": "address"
        },
        {
          "indexed": true,
          "internalType": "address",
          "name": "sender",
          "type": "address"
        }
      ],
      "name": "RoleGranted",
      "type": "event"
    },
    {
      "anonymous": false,
      "inputs": [
        {
          "indexed": true,
          "internalType": "bytes32",
          "name": "role",
          "type": "bytes32"
        },
        {
          "indexed": true,
          "internalType": "address",
          "name": "account",
          "type": "address"
        },
        {
          "indexed": true,
          "internalType": "address",
          "name": "sender",
          "type": "address"
        }
      ],
      "name": "RoleRevoked",
      "type": "event"
    },
    {
      "anonymous": false,
      "inputs": [
        {
          "indexed": true,
          "internalType": "uint256",
          "name": "messageNumber",
          "type": "uint256"
        },
        {
          "indexed": true,
          "internalType": "bytes32",
          "name": "rollingHash",
          "type": "bytes32"
        }
      ],
      "name": "RollingHashUpdated",
      "type": "event"
    },
    {
      "anonymous": false,
      "inputs": [
        {
          "indexed": true,
          "internalType": "uint256",
          "name": "version",
          "type": "uint256"
        }
      ],
      "name": "ServiceVersionMigrated",
      "type": "event"
    },
    {
      "anonymous": false,
      "inputs": [
        {
          "indexed": false,
          "internalType": "address",
          "name": "messageSender",
          "type": "address"
        },
        {
          "indexed": true,
          "internalType": "uint256",
          "name": "pauseType",
          "type": "uint256"
        }
      ],
      "name": "UnPaused",
      "type": "event"
    },
    {
      "inputs": [],
      "name": "DEFAULT_ADMIN_ROLE",
      "outputs": [
        {
          "internalType": "bytes32",
          "name": "",
          "type": "bytes32"
        }
      ],
      "stateMutability": "view",
      "type": "function"
    },
    {
      "inputs": [],
      "name": "GENERAL_PAUSE_TYPE",
      "outputs": [
        {
          "internalType": "uint8",
          "name": "",
          "type": "uint8"
        }
      ],
      "stateMutability": "view",
      "type": "function"
    },
    {
      "inputs": [],
      "name": "INBOX_STATUS_CLAIMED",
      "outputs": [
        {
          "internalType": "uint8",
          "name": "",
          "type": "uint8"
        }
      ],
      "stateMutability": "view",
      "type": "function"
    },
    {
      "inputs": [],
      "name": "INBOX_STATUS_RECEIVED",
      "outputs": [
        {
          "internalType": "uint8",
          "name": "",
          "type": "uint8"
        }
      ],
      "stateMutability": "view",
      "type": "function"
    },
    {
      "inputs": [],
      "name": "INBOX_STATUS_UNKNOWN",
      "outputs": [
        {
          "internalType": "uint8",
          "name": "",
          "type": "uint8"
        }
      ],
      "stateMutability": "view",
      "type": "function"
    },
    {
      "inputs": [],
      "name": "L1_L2_MESSAGE_SETTER_ROLE",
      "outputs": [
        {
          "internalType": "bytes32",
          "name": "",
          "type": "bytes32"
        }
      ],
      "stateMutability": "view",
      "type": "function"
    },
    {
      "inputs": [],
      "name": "L1_L2_PAUSE_TYPE",
      "outputs": [
        {
          "internalType": "uint8",
          "name": "",
          "type": "uint8"
        }
      ],
      "stateMutability": "view",
      "type": "function"
    },
    {
      "inputs": [],
      "name": "L2_L1_PAUSE_TYPE",
      "outputs": [
        {
          "internalType": "uint8",
          "name": "",
          "type": "uint8"
        }
      ],
      "stateMutability": "view",
      "type": "function"
    },
    {
      "inputs": [],
      "name": "MINIMUM_FEE_SETTER_ROLE",
      "outputs": [
        {
          "internalType": "bytes32",
          "name": "",
          "type": "bytes32"
        }
      ],
      "stateMutability": "view",
      "type": "function"
    },
    {
      "inputs": [],
      "name": "PAUSE_MANAGER_ROLE",
      "outputs": [
        {
          "internalType": "bytes32",
          "name": "",
          "type": "bytes32"
        }
      ],
      "stateMutability": "view",
      "type": "function"
    },
    {
      "inputs": [],
      "name": "PROVING_SYSTEM_PAUSE_TYPE",
      "outputs": [
        {
          "internalType": "uint8",
          "name": "",
          "type": "uint8"
        }
      ],
      "stateMutability": "view",
      "type": "function"
    },
    {
      "inputs": [],
      "name": "RATE_LIMIT_SETTER_ROLE",
      "outputs": [
        {
          "internalType": "bytes32",
          "name": "",
          "type": "bytes32"
        }
      ],
      "stateMutability": "view",
      "type": "function"
    },
    {
      "inputs": [
        {
          "internalType": "bytes32[]",
          "name": "_messageHashes",
          "type": "bytes32[]"
        },
        {
          "internalType": "uint256",
          "name": "_startingMessageNumber",
          "type": "uint256"
        },
        {
          "internalType": "uint256",
          "name": "_finalMessageNumber",
          "type": "uint256"
        },
        {
          "internalType": "bytes32",
          "name": "_finalRollingHash",
          "type": "bytes32"
        }
      ],
      "name": "anchorL1L2MessageHashes",
      "outputs": [],
      "stateMutability": "nonpayable",
      "type": "function"
    },
    {
      "inputs": [
        {
          "internalType": "address",
          "name": "_from",
          "type": "address"
        },
        {
          "internalType": "address",
          "name": "_to",
          "type": "address"
        },
        {
          "internalType": "uint256",
          "name": "_fee",
          "type": "uint256"
        },
        {
          "internalType": "uint256",
          "name": "_value",
          "type": "uint256"
        },
        {
          "internalType": "address payable",
          "name": "_feeRecipient",
          "type": "address"
        },
        {
          "internalType": "bytes",
          "name": "_calldata",
          "type": "bytes"
        },
        {
          "internalType": "uint256",
          "name": "_nonce",
          "type": "uint256"
        }
      ],
      "name": "claimMessage",
      "outputs": [],
      "stateMutability": "nonpayable",
      "type": "function"
    },
    {
      "inputs": [],
      "name": "currentPeriodAmountInWei",
      "outputs": [
        {
          "internalType": "uint256",
          "name": "",
          "type": "uint256"
        }
      ],
      "stateMutability": "view",
      "type": "function"
    },
    {
      "inputs": [],
      "name": "currentPeriodEnd",
      "outputs": [
        {
          "internalType": "uint256",
          "name": "",
          "type": "uint256"
        }
      ],
      "stateMutability": "view",
      "type": "function"
    },
    {
      "inputs": [
        {
          "internalType": "bytes32",
          "name": "role",
          "type": "bytes32"
        }
      ],
      "name": "getRoleAdmin",
      "outputs": [
        {
          "internalType": "bytes32",
          "name": "",
          "type": "bytes32"
        }
      ],
      "stateMutability": "view",
      "type": "function"
    },
    {
      "inputs": [
        {
          "internalType": "bytes32",
          "name": "role",
          "type": "bytes32"
        },
        {
          "internalType": "address",
          "name": "account",
          "type": "address"
        }
      ],
      "name": "grantRole",
      "outputs": [],
      "stateMutability": "nonpayable",
      "type": "function"
    },
    {
      "inputs": [
        {
          "internalType": "bytes32",
          "name": "role",
          "type": "bytes32"
        },
        {
          "internalType": "address",
          "name": "account",
          "type": "address"
        }
      ],
      "name": "hasRole",
      "outputs": [
        {
          "internalType": "bool",
          "name": "",
          "type": "bool"
        }
      ],
      "stateMutability": "view",
      "type": "function"
    },
    {
      "inputs": [
        {
          "internalType": "bytes32",
          "name": "messageHash",
          "type": "bytes32"
        }
      ],
      "name": "inboxL1L2MessageStatus",
      "outputs": [
        {
          "internalType": "uint256",
          "name": "messageStatus",
          "type": "uint256"
        }
      ],
      "stateMutability": "view",
      "type": "function"
    },
    {
      "inputs": [
        {
          "internalType": "address",
          "name": "_securityCouncil",
          "type": "address"
        },
        {
          "internalType": "address",
          "name": "_l1l2MessageSetter",
          "type": "address"
        },
        {
          "internalType": "uint256",
          "name": "_rateLimitPeriod",
          "type": "uint256"
        },
        {
          "internalType": "uint256",
          "name": "_rateLimitAmount",
          "type": "uint256"
        }
      ],
      "name": "initialize",
      "outputs": [],
      "stateMutability": "nonpayable",
      "type": "function"
    },
    {
      "inputs": [
        {
          "internalType": "uint8",
          "name": "_pauseType",
          "type": "uint8"
        }
      ],
      "name": "isPaused",
      "outputs": [
        {
          "internalType": "bool",
          "name": "",
          "type": "bool"
        }
      ],
      "stateMutability": "view",
      "type": "function"
    },
    {
      "inputs": [
        {
          "internalType": "uint256",
          "name": "messageNumber",
          "type": "uint256"
        }
      ],
      "name": "l1RollingHashes",
      "outputs": [
        {
          "internalType": "bytes32",
          "name": "rollingHash",
          "type": "bytes32"
        }
      ],
      "stateMutability": "view",
      "type": "function"
    },
    {
      "inputs": [],
      "name": "lastAnchoredL1MessageNumber",
      "outputs": [
        {
          "internalType": "uint256",
          "name": "",
          "type": "uint256"
        }
      ],
      "stateMutability": "view",
      "type": "function"
    },
    {
      "inputs": [],
      "name": "limitInWei",
      "outputs": [
        {
          "internalType": "uint256",
          "name": "",
          "type": "uint256"
        }
      ],
      "stateMutability": "view",
      "type": "function"
    },
    {
      "inputs": [],
      "name": "minimumFeeInWei",
      "outputs": [
        {
          "internalType": "uint256",
          "name": "",
          "type": "uint256"
        }
      ],
      "stateMutability": "view",
      "type": "function"
    },
    {
      "inputs": [],
      "name": "nextMessageNumber",
      "outputs": [
        {
          "internalType": "uint256",
          "name": "",
          "type": "uint256"
        }
      ],
      "stateMutability": "view",
      "type": "function"
    },
    {
      "inputs": [
        {
          "internalType": "uint8",
          "name": "_pauseType",
          "type": "uint8"
        }
      ],
      "name": "pauseByType",
      "outputs": [],
      "stateMutability": "nonpayable",
      "type": "function"
    },
    {
      "inputs": [
        {
          "internalType": "bytes32",
          "name": "pauseType",
          "type": "bytes32"
        }
      ],
      "name": "pauseTypeStatuses",
      "outputs": [
        {
          "internalType": "bool",
          "name": "pauseStatus",
          "type": "bool"
        }
      ],
      "stateMutability": "view",
      "type": "function"
    },
    {
      "inputs": [],
      "name": "periodInSeconds",
      "outputs": [
        {
          "internalType": "uint256",
          "name": "",
          "type": "uint256"
        }
      ],
      "stateMutability": "view",
      "type": "function"
    },
    {
      "inputs": [
        {
          "internalType": "bytes32",
          "name": "role",
          "type": "bytes32"
        },
        {
          "internalType": "address",
          "name": "account",
          "type": "address"
        }
      ],
      "name": "renounceRole",
      "outputs": [],
      "stateMutability": "nonpayable",
      "type": "function"
    },
    {
      "inputs": [],
      "name": "resetAmountUsedInPeriod",
      "outputs": [],
      "stateMutability": "nonpayable",
      "type": "function"
    },
    {
      "inputs": [
        {
          "internalType": "uint256",
          "name": "_amount",
          "type": "uint256"
        }
      ],
      "name": "resetRateLimitAmount",
      "outputs": [],
      "stateMutability": "nonpayable",
      "type": "function"
    },
    {
      "inputs": [
        {
          "internalType": "bytes32",
          "name": "role",
          "type": "bytes32"
        },
        {
          "internalType": "address",
          "name": "account",
          "type": "address"
        }
      ],
      "name": "revokeRole",
      "outputs": [],
      "stateMutability": "nonpayable",
      "type": "function"
    },
    {
      "inputs": [
        {
          "internalType": "address",
          "name": "_to",
          "type": "address"
        },
        {
          "internalType": "uint256",
          "name": "_fee",
          "type": "uint256"
        },
        {
          "internalType": "bytes",
          "name": "_calldata",
          "type": "bytes"
        }
      ],
      "name": "sendMessage",
      "outputs": [],
      "stateMutability": "payable",
      "type": "function"
    },
    {
      "inputs": [],
      "name": "sender",
      "outputs": [
        {
          "internalType": "address",
          "name": "",
          "type": "address"
        }
      ],
      "stateMutability": "view",
      "type": "function"
    },
    {
      "inputs": [
        {
          "internalType": "uint256",
          "name": "_feeInWei",
          "type": "uint256"
        }
      ],
      "name": "setMinimumFee",
      "outputs": [],
      "stateMutability": "nonpayable",
      "type": "function"
    },
    {
      "inputs": [
        {
          "internalType": "bytes4",
          "name": "interfaceId",
          "type": "bytes4"
        }
      ],
      "name": "supportsInterface",
      "outputs": [
        {
          "internalType": "bool",
          "name": "",
          "type": "bool"
        }
      ],
      "stateMutability": "view",
      "type": "function"
    },
    {
      "inputs": [
        {
          "internalType": "uint8",
          "name": "_pauseType",
          "type": "uint8"
        }
      ],
      "name": "unPauseByType",
      "outputs": [],
      "stateMutability": "nonpayable",
      "type": "function"
    }
  ],
  "bytecode": "0x60806040523480156200001157600080fd5b506200001c62000022565b620000e3565b600054610100900460ff16156200008f5760405162461bcd60e51b815260206004820152602760248201527f496e697469616c697a61626c653a20636f6e747261637420697320696e697469604482015266616c697a696e6760c81b606482015260840160405180910390fd5b60005460ff90811614620000e1576000805460ff191660ff9081179091556040519081527f7f26b83ff96e1f2b6a682f133852f6798a09c465da95921460cefb38474024989060200160405180910390a15b565b6127f480620000f36000396000f3fe6080604052600436106102a05760003560e01c806391d148541161016e578063bc61e733116100cb578063cc5782f61161007f578063d84f91e811610064578063d84f91e81461074e578063e196fb5d14610782578063eb990c59146107a257600080fd5b8063cc5782f6146106fe578063d547741f1461072e57600080fd5b8063bf3e7505116100b0578063bf3e75051461069e578063c0729ab1146106d2578063c1dc0f07146106e857600080fd5b8063bc61e7331461063b578063bcbd6fcd1461066a57600080fd5b8063abd6230d11610122578063aea4f74511610107578063aea4f745146105fa578063b4a5a4b71461060f578063b837dbe91461062457600080fd5b8063abd6230d146105cf578063ad422ff0146105e457600080fd5b80639340a1d1116101535780639340a1d1146105905780639f3ce55a146105a7578063a217fddf146105ba57600080fd5b806391d148541461053d57806391f7b9011461033757600080fd5b806348922ab71161021c5780636a637967116101d05780637d1e8c55116101b55780637d1e8c55146104e35780637fe335d3146104f8578063899458831461052657600080fd5b80636a6379671461040e57806374377a34146104af57600080fd5b8063557eac7311610201578063557eac7314610443578063587944561461046357806367e404ce1461047957600080fd5b806348922ab71461040e578063491e09361461042357600080fd5b8063182a7506116102735780632f2ff15d116102585780632f2ff15d146103ae57806336568abe146103ce5780633c362146146103ee57600080fd5b8063182a75061461035e578063248a9ca31461037e57600080fd5b806301ffc9a7146102a55780630f6893ca146102da5780631065a3991461031557806311314d0f14610337575b600080fd5b3480156102b157600080fd5b506102c56102c0366004612180565b6107c2565b60405190151581526020015b60405180910390f35b3480156102e657600080fd5b506103076102f53660046121c2565b60b06020526000908152604090205481565b6040519081526020016102d1565b34801561032157600080fd5b506103356103303660046121db565b61085b565b005b34801561034357600080fd5b5061034c600281565b60405160ff90911681526020016102d1565b34801561036a57600080fd5b506103356103793660046121c2565b610933565b34801561038a57600080fd5b506103076103993660046121c2565b60009081526065602052604090206001015490565b3480156103ba57600080fd5b506103356103c9366004612220565b6109a6565b3480156103da57600080fd5b506103356103e9366004612220565b6109d0565b3480156103fa57600080fd5b50610335610409366004612250565b610a83565b34801561041a57600080fd5b5061034c600181565b34801561042f57600080fd5b5061033561043e366004612324565b610d45565b34801561044f57600080fd5b5061033561045e3660046121c2565b611072565b34801561046f57600080fd5b5061030760995481565b34801561048557600080fd5b506101155460405173ffffffffffffffffffffffffffffffffffffffff90911681526020016102d1565b3480156104bb57600080fd5b506103077f4705265620026983c754c5288b65446d794a03174326ec6d7c0b5c7f1fd6741581565b3480156104ef57600080fd5b5061034c600081565b34801561050457600080fd5b506103076105133660046121c2565b6101196020526000908152604090205481565b34801561053257600080fd5b506103076101175481565b34801561054957600080fd5b506102c5610558366004612220565b600091825260656020908152604080842073ffffffffffffffffffffffffffffffffffffffff93909316845291905290205460ff1690565b34801561059c57600080fd5b506103076101185481565b6103356105b53660046123ba565b61113a565b3480156105c657600080fd5b50610307600081565b3480156105db57600080fd5b5061034c600381565b3480156105f057600080fd5b5061030760985481565b34801561060657600080fd5b50610335611385565b34801561061b57600080fd5b5061034c600481565b34801561063057600080fd5b506103076101165481565b34801561064757600080fd5b506102c56106563660046121db565b60a654600160ff9092169190911b16151590565b34801561067657600080fd5b506103077fcc6ce8bb749b4b07d2f635ce95747506096d0737f9abf10cc8f4a14384603ba281565b3480156106aa57600080fd5b506103077f1185e52d62bfbbea270e57d3d09733d221b53ab7a18bae82bb3c6c74bab16d8281565b3480156106de57600080fd5b50610307609a5481565b3480156106f457600080fd5b5061030760975481565b34801561070a57600080fd5b506102c56107193660046121c2565b60a56020526000908152604090205460ff1681565b34801561073a57600080fd5b50610335610749366004612220565b6113e1565b34801561075a57600080fd5b506103077f356a809dfdea9198dd76fb76bf6d403ecf13ea675eb89e1eda2db2c4a4676a2681565b34801561078e57600080fd5b5061033561079d3660046121db565b611406565b3480156107ae57600080fd5b506103356107bd366004612416565b6114b1565b60007fffffffff0000000000000000000000000000000000000000000000000000000082167f7965db0b00000000000000000000000000000000000000000000000000000000148061085557507f01ffc9a7000000000000000000000000000000000000000000000000000000007fffffffff000000000000000000000000000000000000000000000000000000008316145b92915050565b7f356a809dfdea9198dd76fb76bf6d403ecf13ea675eb89e1eda2db2c4a4676a26610885816117c2565b60a654600160ff84161b166108d0576040517fb015579f00000000000000000000000000000000000000000000000000000000815260ff831660048201526024015b60405180910390fd5b60a68054600160ff851690811b199091169091557fef04ba2036ccaeab3a59717b51d2b9146b0b0904077177f1148a5418bf1eae23335b60405173ffffffffffffffffffffffffffffffffffffffff909116815260200160405180910390a25050565b7fcc6ce8bb749b4b07d2f635ce95747506096d0737f9abf10cc8f4a14384603ba261095d816117c2565b610117805490839055604080518281526020810185905233917f6d8040017e56a6d91bb242def14af5d7eae1eaff7475e45c678dac5d49d35498910160405180910390a2505050565b6000828152606560205260409020600101546109c1816117c2565b6109cb83836117cf565b505050565b73ffffffffffffffffffffffffffffffffffffffff81163314610a75576040517f08c379a000000000000000000000000000000000000000000000000000000000815260206004820152602f60248201527f416363657373436f6e74726f6c3a2063616e206f6e6c792072656e6f756e636560448201527f20726f6c657320666f722073656c66000000000000000000000000000000000060648201526084016108c7565b610a7f82826118c3565b5050565b6001610a8e8161197e565b7f4705265620026983c754c5288b65446d794a03174326ec6d7c0b5c7f1fd67415610ab8816117c2565b856064811115610af7576040517f3b174434000000000000000000000000000000000000000000000000000000008152600481018290526024016108c7565b6000849003610b32576040517f36a4bb9400000000000000000000000000000000000000000000000000000000815260040160405180910390fd5b6101185480610b4260018961248b565b14610b8f57610b5260018861248b565b6040517fd39e75f90000000000000000000000000000000000000000000000000000000081526004810191909152602481018290526044016108c7565b6000818152610119602052604081205490805b84811015610c27578b8b82818110610bbc57610bbc61249e565b905060200201359150600060ff1660b060008481526020019081526020016000205403610c1757600082815260b06020526040902060019055610c09838360009182526020526040902090565b9250610c14846124cd565b93505b610c20816124cd565b9050610ba2565b50878314610c6b576040517fd39e75f900000000000000000000000000000000000000000000000000000000815260048101899052602481018490526044016108c7565b818714610cae576040517f7557a60a00000000000000000000000000000000000000000000000000000000815260048101889052602481018390526044016108c7565b610118548314610d38576101188390556000838152610119602052604090819020839055517f9995fb3da0c2de4012f2b814b6fc29ce7507571dcb20b8d0bd38621a842df1eb90610d02908d908d90612505565b60405180910390a1604051829084907f99b65a4301b38c09fb6a5f27052d73e8372bbe8f6779d678bfe8a41b66cce7ac90600090a35b5050505050505050505050565b610d4d6119c5565b858784848760005a9050610d616002611a38565b60008e8e8e8e8b8e8e604051602001610d8097969594939291906125a0565b604051602081830303815290604052805190602001209050610da181611abe565b8e61011560006101000a81548173ffffffffffffffffffffffffffffffffffffffff021916908373ffffffffffffffffffffffffffffffffffffffff1602179055506000808f73ffffffffffffffffffffffffffffffffffffffff168e8d8d604051610e0e9291906125f9565b60006040518083038185875af1925050503d8060008114610e4b576040519150601f19603f3d011682016040523d82523d6000602084013e610e50565b606091505b509150915081610eba57805115610e6a5780518082602001fd5b8f6040517f546134430000000000000000000000000000000000000000000000000000000081526004016108c7919073ffffffffffffffffffffffffffffffffffffffff91909116815260200190565b61011580547fffffffffffffffffffffffff00000000000000000000000000000000000000001663075bcd1517905560405183907fa4c827e719e911e8f19393ccdb85b5102f08f0910604d340ba38390b7ff2ab0e90600090a250508615905061105857856000849003610fa457853b158015610fa2573a5a610f3f61ae3486612609565b610f49919061248b565b610f53919061261c565b915081881115610f9e5773ffffffffffffffffffffffffffffffffffffffff87166108fc610f81848b61248b565b6040518115909202916000818181858888f1935050505050610fa2565b8791505b505b600073ffffffffffffffffffffffffffffffffffffffff841615610fc85783610fca565b335b905060008173ffffffffffffffffffffffffffffffffffffffff166108fc849081150290604051600060405180830381858888f19350505050905080611054576040517fa57c4df400000000000000000000000000000000000000000000000000000000815273ffffffffffffffffffffffffffffffffffffffff831660048201526024016108c7565b5050505b505050505050611068600160b155565b5050505050505050565b7f1185e52d62bfbbea270e57d3d09733d221b53ab7a18bae82bb3c6c74bab16d8261109c816117c2565b60008060004260995410156110c3576097546110b89042612609565b6099555060016110d5565b609a548510156110d557849250600191505b609885905580806110e35750815b156110ee57609a8390555b60408051868152831515602082015282151581830152905133917fbc3dc0cb5c15c51c81316450d44048838bb478b9809447d01c766a06f3e9f2c8919081900360600190a25050505050565b6111446003611a38565b73ffffffffffffffffffffffffffffffffffffffff8416611191576040517f8579befe00000000000000000000000000000000000000000000000000000000815260040160405180910390fd5b348311156111cb576040517fb03b693200000000000000000000000000000000000000000000000000000000815260040160405180910390fd5b6101175480841015611209576040517f732f941300000000000000000000000000000000000000000000000000000000815260040160405180910390fd5b600080611216838761248b565b9150611222863461248b565b61011680549192506000919082611238836124cd565b90915550905061125061124b8484612609565b611b1d565b600033898585858b8b60405160200161126f97969594939291906125a0565b604051602081830303815290604052805190602001209050808973ffffffffffffffffffffffffffffffffffffffff163373ffffffffffffffffffffffffffffffffffffffff167fe856c2b8bd4eb0027ce32eeaf595c21b0b6b4644b326e5b7bd80a1cf8db72e6c8787878d8d6040516112ed959493929190612633565b60405180910390a4604051600090419087908381818185875af1925050503d8060008114611337576040519150601f19603f3d011682016040523d82523d6000602084013e61133c565b606091505b5050905080611379576040517fa57c4df40000000000000000000000000000000000000000000000000000000081524160048201526024016108c7565b50505050505050505050565b7f1185e52d62bfbbea270e57d3d09733d221b53ab7a18bae82bb3c6c74bab16d826113af816117c2565b6000609a81905560405133917fba88c025b0cbb77022c0c487beef24f759f1e4be2f51a205bc427cee19c2eaa691a250565b6000828152606560205260409020600101546113fc816117c2565b6109cb83836118c3565b7f356a809dfdea9198dd76fb76bf6d403ecf13ea675eb89e1eda2db2c4a4676a26611430816117c2565b60a654600160ff84161b1615611477576040517fdb246dde00000000000000000000000000000000000000000000000000000000815260ff831660048201526024016108c7565b60a68054600160ff851690811b9091179091557fab40a374bc51de372200a8bc981af8c9ecdc08dfdaef0bb6e09f88f3c616ef3d33610907565b600054610100900460ff16158080156114d15750600054600160ff909116105b806114eb5750303b1580156114eb575060005460ff166001145b611577576040517f08c379a000000000000000000000000000000000000000000000000000000000815260206004820152602e60248201527f496e697469616c697a61626c653a20636f6e747261637420697320616c72656160448201527f647920696e697469616c697a656400000000000000000000000000000000000060648201526084016108c7565b600080547fffffffffffffffffffffffffffffffffffffffffffffffffffffffffffffff0016600117905580156115d557600080547fffffffffffffffffffffffffffffffffffffffffffffffffffffffffffff00ff166101001790555b73ffffffffffffffffffffffffffffffffffffffff8516611622576040517f8579befe00000000000000000000000000000000000000000000000000000000815260040160405180910390fd5b73ffffffffffffffffffffffffffffffffffffffff841661166f576040517f8579befe00000000000000000000000000000000000000000000000000000000815260040160405180910390fd5b611677611b93565b61167f611b93565b611687611b93565b6116918383611c2c565b61169a84611d9c565b6001610116556116ab6000866117cf565b6116d57fcc6ce8bb749b4b07d2f635ce95747506096d0737f9abf10cc8f4a14384603ba2866117cf565b6116ff7f1185e52d62bfbbea270e57d3d09733d221b53ab7a18bae82bb3c6c74bab16d82866117cf565b6117297f356a809dfdea9198dd76fb76bf6d403ecf13ea675eb89e1eda2db2c4a4676a26866117cf565b61011580547fffffffffffffffffffffffff00000000000000000000000000000000000000001663075bcd1517905580156117bb57600080547fffffffffffffffffffffffffffffffffffffffffffffffffffffffffffff00ff169055604051600181527f7f26b83ff96e1f2b6a682f133852f6798a09c465da95921460cefb38474024989060200160405180910390a15b5050505050565b6117cc8133611e5d565b50565b600082815260656020908152604080832073ffffffffffffffffffffffffffffffffffffffff8516845290915290205460ff16610a7f57600082815260656020908152604080832073ffffffffffffffffffffffffffffffffffffffff85168452909152902080547fffffffffffffffffffffffffffffffffffffffffffffffffffffffffffffff001660011790556118653390565b73ffffffffffffffffffffffffffffffffffffffff168173ffffffffffffffffffffffffffffffffffffffff16837f2f8788117e7eff1d82e926ec794901d17c78024a50270940304540a733656f0d60405160405180910390a45050565b600082815260656020908152604080832073ffffffffffffffffffffffffffffffffffffffff8516845290915290205460ff1615610a7f57600082815260656020908152604080832073ffffffffffffffffffffffffffffffffffffffff8516808552925280832080547fffffffffffffffffffffffffffffffffffffffffffffffffffffffffffffff0016905551339285917ff6391f5c32d9c69d2a47ea670b442974b53935d1edc7fd64eb21e047a839171b9190a45050565b60a654600160ff83161b16156117cc576040517fdb246dde00000000000000000000000000000000000000000000000000000000815260ff821660048201526024016108c7565b600260b15403611a31576040517f08c379a000000000000000000000000000000000000000000000000000000000815260206004820152601f60248201527f5265656e7472616e637947756172643a207265656e7472616e742063616c6c0060448201526064016108c7565b600260b155565b60a654600160ff83161b811615611a80576040517fdb246dde00000000000000000000000000000000000000000000000000000000815260ff831660048201526024016108c7565b6002811615610a7f576040517fdb246dde000000000000000000000000000000000000000000000000000000008152600160048201526024016108c7565b600081815260b06020526040902054600114611b09576040517f992d87c3000000000000000000000000000000000000000000000000000000008152600481018290526024016108c7565b600090815260b06020526040902060029055565b6000426099541015611b4057609754611b369042612609565b6099555080611b51565b81609a54611b4e9190612609565b90505b609854811115611b8d576040517fa74c1c5f00000000000000000000000000000000000000000000000000000000815260040160405180910390fd5b609a5550565b600054610100900460ff16611c2a576040517f08c379a000000000000000000000000000000000000000000000000000000000815260206004820152602b60248201527f496e697469616c697a61626c653a20636f6e7472616374206973206e6f74206960448201527f6e697469616c697a696e6700000000000000000000000000000000000000000060648201526084016108c7565b565b600054610100900460ff16611cc3576040517f08c379a000000000000000000000000000000000000000000000000000000000815260206004820152602b60248201527f496e697469616c697a61626c653a20636f6e7472616374206973206e6f74206960448201527f6e697469616c697a696e6700000000000000000000000000000000000000000060648201526084016108c7565b81600003611cfd576040517fb5ed5a3b00000000000000000000000000000000000000000000000000000000815260040160405180910390fd5b80600003611d37576040517fd10d72bb00000000000000000000000000000000000000000000000000000000815260040160405180910390fd5b60978290556098819055611d4b8242612609565b60998190556097546098546040805192835260208301919091528101919091527f8f805c372b66240792580418b7328c0c554ae235f0932475c51b026887fe26a99060600160405180910390a15050565b600054610100900460ff16611e33576040517f08c379a000000000000000000000000000000000000000000000000000000000815260206004820152602b60248201527f496e697469616c697a61626c653a20636f6e7472616374206973206e6f74206960448201527f6e697469616c697a696e6700000000000000000000000000000000000000000060648201526084016108c7565b6117cc7f4705265620026983c754c5288b65446d794a03174326ec6d7c0b5c7f1fd67415826117cf565b600082815260656020908152604080832073ffffffffffffffffffffffffffffffffffffffff8516845290915290205460ff16610a7f57611e9d81611f17565b611ea8836020611f36565b604051602001611eb9929190612688565b604080517fffffffffffffffffffffffffffffffffffffffffffffffffffffffffffffffe0818403018152908290527f08c379a00000000000000000000000000000000000000000000000000000000082526108c791600401612709565b606061085573ffffffffffffffffffffffffffffffffffffffff831660145b60606000611f4583600261261c565b611f50906002612609565b67ffffffffffffffff811115611f6857611f6861275a565b6040519080825280601f01601f191660200182016040528015611f92576020820181803683370190505b5090507f300000000000000000000000000000000000000000000000000000000000000081600081518110611fc957611fc961249e565b60200101907effffffffffffffffffffffffffffffffffffffffffffffffffffffffffffff1916908160001a9053507f78000000000000000000000000000000000000000000000000000000000000008160018151811061202c5761202c61249e565b60200101907effffffffffffffffffffffffffffffffffffffffffffffffffffffffffffff1916908160001a905350600061206884600261261c565b612073906001612609565b90505b6001811115612110577f303132333435363738396162636465660000000000000000000000000000000085600f16601081106120b4576120b461249e565b1a60f81b8282815181106120ca576120ca61249e565b60200101907effffffffffffffffffffffffffffffffffffffffffffffffffffffffffffff1916908160001a90535060049490941c9361210981612789565b9050612076565b508315612179576040517f08c379a000000000000000000000000000000000000000000000000000000000815260206004820181905260248201527f537472696e67733a20686578206c656e67746820696e73756666696369656e7460448201526064016108c7565b9392505050565b60006020828403121561219257600080fd5b81357fffffffff000000000000000000000000000000000000000000000000000000008116811461217957600080fd5b6000602082840312156121d457600080fd5b5035919050565b6000602082840312156121ed57600080fd5b813560ff8116811461217957600080fd5b73ffffffffffffffffffffffffffffffffffffffff811681146117cc57600080fd5b6000806040838503121561223357600080fd5b823591506020830135612245816121fe565b809150509250929050565b60008060008060006080868803121561226857600080fd5b853567ffffffffffffffff8082111561228057600080fd5b818801915088601f83011261229457600080fd5b8135818111156122a357600080fd5b8960208260051b85010111156122b857600080fd5b60209283019a909950918801359760408101359750606001359550909350505050565b60008083601f8401126122ed57600080fd5b50813567ffffffffffffffff81111561230557600080fd5b60208301915083602082850101111561231d57600080fd5b9250929050565b60008060008060008060008060e0898b03121561234057600080fd5b883561234b816121fe565b9750602089013561235b816121fe565b965060408901359550606089013594506080890135612379816121fe565b935060a089013567ffffffffffffffff81111561239557600080fd5b6123a18b828c016122db565b999c989b50969995989497949560c00135949350505050565b600080600080606085870312156123d057600080fd5b84356123db816121fe565b935060208501359250604085013567ffffffffffffffff8111156123fe57600080fd5b61240a878288016122db565b95989497509550505050565b6000806000806080858703121561242c57600080fd5b8435612437816121fe565b93506020850135612447816121fe565b93969395505050506040820135916060013590565b7f4e487b7100000000000000000000000000000000000000000000000000000000600052601160045260246000fd5b818103818111156108555761085561245c565b7f4e487b7100000000000000000000000000000000000000000000000000000000600052603260045260246000fd5b60007fffffffffffffffffffffffffffffffffffffffffffffffffffffffffffffffff82036124fe576124fe61245c565b5060010190565b6020815281602082015260007f07ffffffffffffffffffffffffffffffffffffffffffffffffffffffffffffff83111561253e57600080fd5b8260051b80856040850137919091016040019392505050565b8183528181602085013750600060208284010152600060207fffffffffffffffffffffffffffffffffffffffffffffffffffffffffffffffe0601f840116840101905092915050565b600073ffffffffffffffffffffffffffffffffffffffff808a16835280891660208401525086604083015285606083015284608083015260c060a08301526125ec60c083018486612557565b9998505050505050505050565b8183823760009101908152919050565b808201808211156108555761085561245c565b80820281158282048414176108555761085561245c565b858152846020820152836040820152608060608201526000612659608083018486612557565b979650505050505050565b60005b8381101561267f578181015183820152602001612667565b50506000910152565b7f416363657373436f6e74726f6c3a206163636f756e74200000000000000000008152600083516126c0816017850160208801612664565b7f206973206d697373696e6720726f6c652000000000000000000000000000000060179184019182015283516126fd816028840160208801612664565b01602801949350505050565b6020815260008251806020840152612728816040850160208701612664565b601f017fffffffffffffffffffffffffffffffffffffffffffffffffffffffffffffffe0169190910160400192915050565b7f4e487b7100000000000000000000000000000000000000000000000000000000600052604160045260246000fd5b6000816127985761279861245c565b507fffffffffffffffffffffffffffffffffffffffffffffffffffffffffffffffff019056fea264697066735822122017cf86a9c68413ebd5a3989438a1b8e0790020c1619afa2937bc73ce4abda97964736f6c63430008130033",
  "linkReferences": {},
  "deployedLinkReferences": {}
}