{
  "_format": "hh-sol-artifact-1",
  "contractName": "L2MessageService",
  "sourceName": "contracts/messageService/l2/L2MessageService.sol",
  "abi": [
    {
      "inputs": [],
      "stateMutability": "nonpayable",
      "type": "constructor"
    },
    {
      "inputs": [],
      "name": "EmptyMessageHashesArray",
      "type": "error"
    },
    {
      "inputs": [
        {
          "internalType": "address",
          "name": "recipient",
          "type": "address"
        }
      ],
      "name": "FeePaymentFailed",
      "type": "error"
    },
    {
      "inputs": [],
      "name": "FeeTooLow",
      "type": "error"
    },
    {
      "inputs": [
        {
          "internalType": "bytes32",
          "name": "pauseType",
          "type": "bytes32"
        }
      ],
      "name": "IsPaused",
      "type": "error"
    },
    {
      "inputs": [],
      "name": "LimitIsZero",
      "type": "error"
    },
    {
      "inputs": [],
      "name": "MessageAlreadyClaimed",
      "type": "error"
    },
    {
      "inputs": [
        {
          "internalType": "uint256",
          "name": "length",
          "type": "uint256"
        }
      ],
      "name": "MessageHashesListLengthHigherThanOneHundred",
      "type": "error"
    },
    {
      "inputs": [
        {
          "internalType": "address",
          "name": "destination",
          "type": "address"
        }
      ],
      "name": "MessageSendingFailed",
      "type": "error"
    },
    {
      "inputs": [],
      "name": "PeriodIsZero",
      "type": "error"
    },
    {
      "inputs": [],
      "name": "RateLimitExceeded",
      "type": "error"
    },
    {
      "inputs": [],
      "name": "ValueSentTooLow",
      "type": "error"
    },
    {
      "inputs": [],
      "name": "ValueShouldBeGreaterThanFee",
      "type": "error"
    },
    {
      "inputs": [],
      "name": "ZeroAddressNotAllowed",
      "type": "error"
    },
    {
      "anonymous": false,
      "inputs": [
        {
          "indexed": true,
          "internalType": "address",
          "name": "resettingAddress",
          "type": "address"
        }
      ],
      "name": "AmountUsedInPeriodReset",
      "type": "event"
    },
    {
      "anonymous": false,
      "inputs": [
        {
          "indexed": false,
          "internalType": "uint8",
          "name": "version",
          "type": "uint8"
        }
      ],
      "name": "Initialized",
      "type": "event"
    },
    {
      "anonymous": false,
      "inputs": [
        {
          "indexed": true,
          "internalType": "bytes32",
          "name": "messageHash",
          "type": "bytes32"
        }
      ],
      "name": "L1L2MessageClaimed",
      "type": "event"
    },
    {
      "anonymous": false,
      "inputs": [
        {
          "indexed": false,
          "internalType": "bytes32[]",
          "name": "messageHashes",
          "type": "bytes32[]"
        }
      ],
      "name": "L1L2MessageHashesAddedToInbox",
      "type": "event"
    },
    {
      "anonymous": false,
      "inputs": [
        {
          "indexed": true,
          "internalType": "address",
          "name": "amountChangeBy",
          "type": "address"
        },
        {
          "indexed": false,
          "internalType": "uint256",
          "name": "amount",
          "type": "uint256"
        },
        {
          "indexed": false,
          "internalType": "bool",
          "name": "amountUsedLoweredToLimit",
          "type": "bool"
        }
      ],
      "name": "LimitAmountChange",
      "type": "event"
    },
    {
      "anonymous": false,
      "inputs": [
        {
          "indexed": true,
          "internalType": "bytes32",
          "name": "_messageHash",
          "type": "bytes32"
        }
      ],
      "name": "MessageClaimed",
      "type": "event"
    },
    {
      "anonymous": false,
      "inputs": [
        {
          "indexed": true,
          "internalType": "address",
          "name": "_from",
          "type": "address"
        },
        {
          "indexed": true,
          "internalType": "address",
          "name": "_to",
          "type": "address"
        },
        {
          "indexed": false,
          "internalType": "uint256",
          "name": "_fee",
          "type": "uint256"
        },
        {
          "indexed": false,
          "internalType": "uint256",
          "name": "_value",
          "type": "uint256"
        },
        {
          "indexed": false,
          "internalType": "uint256",
          "name": "_nonce",
          "type": "uint256"
        },
        {
          "indexed": false,
          "internalType": "bytes",
          "name": "_calldata",
          "type": "bytes"
        },
        {
          "indexed": true,
          "internalType": "bytes32",
          "name": "_messageHash",
          "type": "bytes32"
        }
      ],
      "name": "MessageSent",
      "type": "event"
    },
    {
      "anonymous": false,
      "inputs": [
        {
          "indexed": false,
          "internalType": "address",
          "name": "messageSender",
          "type": "address"
        },
        {
          "indexed": false,
          "internalType": "bytes32",
          "name": "pauseType",
          "type": "bytes32"
        }
      ],
      "name": "Paused",
      "type": "event"
    },
    {
      "anonymous": false,
      "inputs": [
        {
          "indexed": true,
          "internalType": "bytes32",
          "name": "role",
          "type": "bytes32"
        },
        {
          "indexed": true,
          "internalType": "bytes32",
          "name": "previousAdminRole",
          "type": "bytes32"
        },
        {
          "indexed": true,
          "internalType": "bytes32",
          "name": "newAdminRole",
          "type": "bytes32"
        }
      ],
      "name": "RoleAdminChanged",
      "type": "event"
    },
    {
      "anonymous": false,
      "inputs": [
        {
          "indexed": true,
          "internalType": "bytes32",
          "name": "role",
          "type": "bytes32"
        },
        {
          "indexed": true,
          "internalType": "address",
          "name": "account",
          "type": "address"
        },
        {
          "indexed": true,
          "internalType": "address",
          "name": "sender",
          "type": "address"
        }
      ],
      "name": "RoleGranted",
      "type": "event"
    },
    {
      "anonymous": false,
      "inputs": [
        {
          "indexed": true,
          "internalType": "bytes32",
          "name": "role",
          "type": "bytes32"
        },
        {
          "indexed": true,
          "internalType": "address",
          "name": "account",
          "type": "address"
        },
        {
          "indexed": true,
          "internalType": "address",
          "name": "sender",
          "type": "address"
        }
      ],
      "name": "RoleRevoked",
      "type": "event"
    },
    {
      "anonymous": false,
      "inputs": [
        {
          "indexed": false,
          "internalType": "address",
          "name": "messageSender",
          "type": "address"
        },
        {
          "indexed": false,
          "internalType": "bytes32",
          "name": "pauseType",
          "type": "bytes32"
        }
      ],
      "name": "UnPaused",
      "type": "event"
    },
    {
      "inputs": [],
      "name": "DEFAULT_ADMIN_ROLE",
      "outputs": [
        {
          "internalType": "bytes32",
          "name": "",
          "type": "bytes32"
        }
      ],
      "stateMutability": "view",
      "type": "function"
    },
    {
      "inputs": [],
      "name": "GENERAL_PAUSE_TYPE",
      "outputs": [
        {
          "internalType": "bytes32",
          "name": "",
          "type": "bytes32"
        }
      ],
      "stateMutability": "view",
      "type": "function"
    },
    {
      "inputs": [],
      "name": "INBOX_STATUS_CLAIMED",
      "outputs": [
        {
          "internalType": "uint8",
          "name": "",
          "type": "uint8"
        }
      ],
      "stateMutability": "view",
      "type": "function"
    },
    {
      "inputs": [],
      "name": "INBOX_STATUS_RECEIVED",
      "outputs": [
        {
          "internalType": "uint8",
          "name": "",
          "type": "uint8"
        }
      ],
      "stateMutability": "view",
      "type": "function"
    },
    {
      "inputs": [],
      "name": "INBOX_STATUS_UNKNOWN",
      "outputs": [
        {
          "internalType": "uint8",
          "name": "",
          "type": "uint8"
        }
      ],
      "stateMutability": "view",
      "type": "function"
    },
    {
      "inputs": [],
      "name": "L1_L2_MESSAGE_SETTER_ROLE",
      "outputs": [
        {
          "internalType": "bytes32",
          "name": "",
          "type": "bytes32"
        }
      ],
      "stateMutability": "view",
      "type": "function"
    },
    {
      "inputs": [],
      "name": "L1_L2_PAUSE_TYPE",
      "outputs": [
        {
          "internalType": "bytes32",
          "name": "",
          "type": "bytes32"
        }
      ],
      "stateMutability": "view",
      "type": "function"
    },
    {
      "inputs": [],
      "name": "L2_L1_PAUSE_TYPE",
      "outputs": [
        {
          "internalType": "bytes32",
          "name": "",
          "type": "bytes32"
        }
      ],
      "stateMutability": "view",
      "type": "function"
    },
    {
      "inputs": [],
      "name": "MINIMUM_FEE_SETTER_ROLE",
      "outputs": [
        {
          "internalType": "bytes32",
          "name": "",
          "type": "bytes32"
        }
      ],
      "stateMutability": "view",
      "type": "function"
    },
    {
      "inputs": [],
      "name": "PAUSE_MANAGER_ROLE",
      "outputs": [
        {
          "internalType": "bytes32",
          "name": "",
          "type": "bytes32"
        }
      ],
      "stateMutability": "view",
      "type": "function"
    },
    {
      "inputs": [],
      "name": "PROVING_SYSTEM_PAUSE_TYPE",
      "outputs": [
        {
          "internalType": "bytes32",
          "name": "",
          "type": "bytes32"
        }
      ],
      "stateMutability": "view",
      "type": "function"
    },
    {
      "inputs": [],
      "name": "RATE_LIMIT_SETTER_ROLE",
      "outputs": [
        {
          "internalType": "bytes32",
          "name": "",
          "type": "bytes32"
        }
      ],
      "stateMutability": "view",
      "type": "function"
    },
    {
      "inputs": [
        {
          "internalType": "address",
          "name": "_l1l2MessageSetter",
          "type": "address"
        }
      ],
      "name": "__L2MessageManager_init",
      "outputs": [],
      "stateMutability": "nonpayable",
      "type": "function"
    },
    {
      "inputs": [
        {
          "internalType": "bytes32[]",
          "name": "_messageHashes",
          "type": "bytes32[]"
        }
      ],
      "name": "addL1L2MessageHashes",
      "outputs": [],
      "stateMutability": "nonpayable",
      "type": "function"
    },
    {
      "inputs": [
        {
          "internalType": "address",
          "name": "_from",
          "type": "address"
        },
        {
          "internalType": "address",
          "name": "_to",
          "type": "address"
        },
        {
          "internalType": "uint256",
          "name": "_fee",
          "type": "uint256"
        },
        {
          "internalType": "uint256",
          "name": "_value",
          "type": "uint256"
        },
        {
          "internalType": "address payable",
          "name": "_feeRecipient",
          "type": "address"
        },
        {
          "internalType": "bytes",
          "name": "_calldata",
          "type": "bytes"
        },
        {
          "internalType": "uint256",
          "name": "_nonce",
          "type": "uint256"
        }
      ],
      "name": "claimMessage",
      "outputs": [],
      "stateMutability": "nonpayable",
      "type": "function"
    },
    {
      "inputs": [],
      "name": "currentPeriodAmountInWei",
      "outputs": [
        {
          "internalType": "uint256",
          "name": "",
          "type": "uint256"
        }
      ],
      "stateMutability": "view",
      "type": "function"
    },
    {
      "inputs": [],
      "name": "currentPeriodEnd",
      "outputs": [
        {
          "internalType": "uint256",
          "name": "",
          "type": "uint256"
        }
      ],
      "stateMutability": "view",
      "type": "function"
    },
    {
      "inputs": [
        {
          "internalType": "bytes32",
          "name": "role",
          "type": "bytes32"
        }
      ],
      "name": "getRoleAdmin",
      "outputs": [
        {
          "internalType": "bytes32",
          "name": "",
          "type": "bytes32"
        }
      ],
      "stateMutability": "view",
      "type": "function"
    },
    {
      "inputs": [
        {
          "internalType": "bytes32",
          "name": "role",
          "type": "bytes32"
        },
        {
          "internalType": "address",
          "name": "account",
          "type": "address"
        }
      ],
      "name": "grantRole",
      "outputs": [],
      "stateMutability": "nonpayable",
      "type": "function"
    },
    {
      "inputs": [
        {
          "internalType": "bytes32",
          "name": "role",
          "type": "bytes32"
        },
        {
          "internalType": "address",
          "name": "account",
          "type": "address"
        }
      ],
      "name": "hasRole",
      "outputs": [
        {
          "internalType": "bool",
          "name": "",
          "type": "bool"
        }
      ],
      "stateMutability": "view",
      "type": "function"
    },
    {
      "inputs": [
        {
          "internalType": "bytes32",
          "name": "",
          "type": "bytes32"
        }
      ],
      "name": "inboxL1L2MessageStatus",
      "outputs": [
        {
          "internalType": "uint256",
          "name": "",
          "type": "uint256"
        }
      ],
      "stateMutability": "view",
      "type": "function"
    },
    {
      "inputs": [
        {
          "internalType": "address",
          "name": "_securityCouncil",
          "type": "address"
        },
        {
          "internalType": "address",
          "name": "_l1l2MessageSetter",
          "type": "address"
        },
        {
          "internalType": "uint256",
          "name": "_rateLimitPeriod",
          "type": "uint256"
        },
        {
          "internalType": "uint256",
          "name": "_rateLimitAmount",
          "type": "uint256"
        }
      ],
      "name": "initialize",
      "outputs": [],
      "stateMutability": "nonpayable",
      "type": "function"
    },
    {
      "inputs": [],
      "name": "limitInWei",
      "outputs": [
        {
          "internalType": "uint256",
          "name": "",
          "type": "uint256"
        }
      ],
      "stateMutability": "view",
      "type": "function"
    },
    {
      "inputs": [],
      "name": "minimumFee",
      "outputs": [
        {
          "internalType": "uint256",
          "name": "",
          "type": "uint256"
        }
      ],
      "stateMutability": "view",
      "type": "function"
    },
    {
      "inputs": [],
      "name": "nextMessageNumber",
      "outputs": [
        {
          "internalType": "uint256",
          "name": "",
          "type": "uint256"
        }
      ],
      "stateMutability": "view",
      "type": "function"
    },
    {
      "inputs": [
        {
          "internalType": "bytes32",
          "name": "_pauseType",
          "type": "bytes32"
        }
      ],
      "name": "pauseByType",
      "outputs": [],
      "stateMutability": "nonpayable",
      "type": "function"
    },
    {
      "inputs": [
        {
          "internalType": "bytes32",
          "name": "",
          "type": "bytes32"
        }
      ],
      "name": "pauseTypeStatuses",
      "outputs": [
        {
          "internalType": "bool",
          "name": "",
          "type": "bool"
        }
      ],
      "stateMutability": "view",
      "type": "function"
    },
    {
      "inputs": [],
      "name": "periodInSeconds",
      "outputs": [
        {
          "internalType": "uint256",
          "name": "",
          "type": "uint256"
        }
      ],
      "stateMutability": "view",
      "type": "function"
    },
    {
      "inputs": [
        {
          "internalType": "bytes32",
          "name": "role",
          "type": "bytes32"
        },
        {
          "internalType": "address",
          "name": "account",
          "type": "address"
        }
      ],
      "name": "renounceRole",
      "outputs": [],
      "stateMutability": "nonpayable",
      "type": "function"
    },
    {
      "inputs": [],
      "name": "resetAmountUsedInPeriod",
      "outputs": [],
      "stateMutability": "nonpayable",
      "type": "function"
    },
    {
      "inputs": [
        {
          "internalType": "uint256",
          "name": "_amount",
          "type": "uint256"
        }
      ],
      "name": "resetRateLimitAmount",
      "outputs": [],
      "stateMutability": "nonpayable",
      "type": "function"
    },
    {
      "inputs": [
        {
          "internalType": "bytes32",
          "name": "role",
          "type": "bytes32"
        },
        {
          "internalType": "address",
          "name": "account",
          "type": "address"
        }
      ],
      "name": "revokeRole",
      "outputs": [],
      "stateMutability": "nonpayable",
      "type": "function"
    },
    {
      "inputs": [
        {
          "internalType": "address",
          "name": "_to",
          "type": "address"
        },
        {
          "internalType": "uint256",
          "name": "_fee",
          "type": "uint256"
        },
        {
          "internalType": "bytes",
          "name": "_calldata",
          "type": "bytes"
        }
      ],
      "name": "sendMessage",
      "outputs": [],
      "stateMutability": "payable",
      "type": "function"
    },
    {
      "inputs": [],
      "name": "sender",
      "outputs": [
        {
          "internalType": "address",
          "name": "",
          "type": "address"
        }
      ],
      "stateMutability": "view",
      "type": "function"
    },
    {
      "inputs": [
        {
          "internalType": "uint256",
          "name": "_fee",
          "type": "uint256"
        }
      ],
      "name": "setMinimumFee",
      "outputs": [],
      "stateMutability": "nonpayable",
      "type": "function"
    },
    {
      "inputs": [
        {
          "internalType": "bytes4",
          "name": "interfaceId",
          "type": "bytes4"
        }
      ],
      "name": "supportsInterface",
      "outputs": [
        {
          "internalType": "bool",
          "name": "",
          "type": "bool"
        }
      ],
      "stateMutability": "view",
      "type": "function"
    },
    {
      "inputs": [
        {
          "internalType": "bytes32",
          "name": "_pauseType",
          "type": "bytes32"
        }
      ],
      "name": "unPauseByType",
      "outputs": [],
      "stateMutability": "nonpayable",
      "type": "function"
    },
    {
      "stateMutability": "payable",
      "type": "receive"
    }
  ],
  "bytecode": "0x608060405234801561001057600080fd5b5061001961001e565b6100de565b600054610100900460ff161561008a5760405162461bcd60e51b815260206004820152602760248201527f496e697469616c697a61626c653a20636f6e747261637420697320696e697469604482015266616c697a696e6760c81b606482015260840160405180910390fd5b60005460ff90811610156100dc576000805460ff191660ff9081179091556040519081527f7f26b83ff96e1f2b6a682f133852f6798a09c465da95921460cefb38474024989060200160405180910390a15b565b611cc7806100ed6000396000f3fe60806040526004361061021e5760003560e01c806391d1485411610123578063b837dbe9116100ab578063cc5782f61161006f578063cc5782f614610683578063d547741f146106b3578063d84f91e8146106d3578063eb990c59146106f5578063f4b476e11461071557600080fd5b8063b837dbe9146105ea578063bcbd6fcd14610601578063bf3e750514610635578063c0729ab114610657578063c1dc0f071461066d57600080fd5b8063abd6230d116100f2578063abd6230d14610537578063ad422ff01461056b578063aea4f74514610581578063b45a4f2c14610596578063b4a5a4b7146105b657600080fd5b806391d14854146104da57806391f7b901146104fa5780639f3ce55a1461050f578063a217fddf1461052257600080fd5b806348922ab7116101a657806367e404ce1161017557806367e404ce146104145780636a6379671461043d57806374377a34146104715780637d1e8c55146104a55780638264bd82146104ba57600080fd5b806348922ab714610397578063491e0936146103be578063557eac73146103de57806358794456146103fe57600080fd5b80631a7626e7116101ed5780631a7626e7146102f0578063248a9ca3146103075780632d0e0f47146103375780632f2ff15d1461035757806336568abe1461037757600080fd5b806301ffc9a71461022a5780630f6893ca1461025f57806311314d0f1461029a578063182a7506146102ce57600080fd5b3661022557005b600080fd5b34801561023657600080fd5b5061024a610245366004611715565b610735565b60405190151581526020015b60405180910390f35b34801561026b57600080fd5b5061028c61027a36600461173f565b60b06020526000908152604090205481565b604051908152602001610256565b3480156102a657600080fd5b5061028c7f9a80e24e463f00a8763c4dcec6a92d07d33272fa5db895d8589be70dccb002df81565b3480156102da57600080fd5b506102ee6102e936600461173f565b61076c565b005b3480156102fc57600080fd5b5061028c6101175481565b34801561031357600080fd5b5061028c61032236600461173f565b60009081526065602052604090206001015490565b34801561034357600080fd5b506102ee61035236600461176d565b61079d565b34801561036357600080fd5b506102ee61037236600461178a565b6107fa565b34801561038357600080fd5b506102ee61039236600461178a565b610824565b3480156103a357600080fd5b506103ac600181565b60405160ff9091168152602001610256565b3480156103ca57600080fd5b506102ee6103d9366004611803565b6108a2565b3480156103ea57600080fd5b506102ee6103f936600461173f565b610af0565b34801561040a57600080fd5b5061028c60995481565b34801561042057600080fd5b50610115546040516001600160a01b039091168152602001610256565b34801561044957600080fd5b5061028c7f06193bb948d6b7a6fcbe51c193ccf2183bb5d979b6ae5d3a6971b8851461d3b081565b34801561047d57600080fd5b5061028c7f4705265620026983c754c5288b65446d794a03174326ec6d7c0b5c7f1fd6741581565b3480156104b157600080fd5b506103ac600081565b3480156104c657600080fd5b506102ee6104d536600461173f565b610b63565b3480156104e657600080fd5b5061024a6104f536600461178a565b610be1565b34801561050657600080fd5b506103ac600281565b6102ee61051d366004611899565b610c0c565b34801561052e57600080fd5b5061028c600081565b34801561054357600080fd5b5061028c7f21ea2f4fee4bcb623de15ac222ea5c1464307d884f23394b78ddc07f9c9c7cd881565b34801561057757600080fd5b5061028c60985481565b34801561058d57600080fd5b506102ee610dfc565b3480156105a257600080fd5b506102ee6105b136600461173f565b610e46565b3480156105c257600080fd5b5061028c7f3a56b1bd788a764cbd923badb6d0719f21f520455285bf6877e636d08708878d81565b3480156105f657600080fd5b5061028c6101165481565b34801561060d57600080fd5b5061028c7fcc6ce8bb749b4b07d2f635ce95747506096d0737f9abf10cc8f4a14384603ba281565b34801561064157600080fd5b5061028c600080516020611c5283398151915281565b34801561066357600080fd5b5061028c609a5481565b34801561067957600080fd5b5061028c60975481565b34801561068f57600080fd5b5061024a61069e36600461173f565b60a56020526000908152604090205460ff1681565b3480156106bf57600080fd5b506102ee6106ce36600461178a565b610e9b565b3480156106df57600080fd5b5061028c600080516020611c7283398151915281565b34801561070157600080fd5b506102ee6107103660046118f5565b610ec0565b34801561072157600080fd5b506102ee61073036600461193b565b6110d0565b60006001600160e01b03198216637965db0b60e01b148061076657506301ffc9a760e01b6001600160e01b03198316145b92915050565b7fcc6ce8bb749b4b07d2f635ce95747506096d0737f9abf10cc8f4a14384603ba2610796816111c2565b5061011755565b600054610100900460ff166107cd5760405162461bcd60e51b81526004016107c4906119b0565b60405180910390fd5b6107f77f4705265620026983c754c5288b65446d794a03174326ec6d7c0b5c7f1fd67415826111cc565b50565b600082815260656020526040902060010154610815816111c2565b61081f83836111cc565b505050565b6001600160a01b03811633146108945760405162461bcd60e51b815260206004820152602f60248201527f416363657373436f6e74726f6c3a2063616e206f6e6c792072656e6f756e636560448201526e103937b632b9903337b91039b2b63360891b60648201526084016107c4565b61089e8282611252565b5050565b7f9a80e24e463f00a8763c4dcec6a92d07d33272fa5db895d8589be70dccb002df6108cc816112b9565b7f06193bb948d6b7a6fcbe51c193ccf2183bb5d979b6ae5d3a6971b8851461d3b06108f6816112b9565b60008a8a8a8a878a8a6040516020016109159796959493929190611a24565b604051602081830303815290604052805190602001209050610936816112ec565b8a61011560006101000a8154816001600160a01b0302191690836001600160a01b031602179055506000808b6001600160a01b03168a898960405161097c929190611a6f565b60006040518083038185875af1925050503d80600081146109b9576040519150601f19603f3d011682016040523d82523d6000602084013e6109be565b606091505b5091509150816109fc578051156109d85780518082602001fd5b604051635461344360e01b81526001600160a01b038d1660048201526024016107c4565b8a15610a9f5760006001600160a01b038a1615610a195789610a1b565b335b90506000816001600160a01b03168d60405160006040518083038185875af1925050503d8060008114610a6a576040519150601f19603f3d011682016040523d82523d6000602084013e610a6f565b606091505b5050905080610a9c5760405163295f137d60e21b81526001600160a01b03831660048201526024016107c4565b50505b61011580546001600160a01b03191663075bcd1517905560405183907fa4c827e719e911e8f19393ccdb85b5102f08f0910604d340ba38390b7ff2ab0e90600090a250505050505050505050505050565b600080516020611c52833981519152610b08816111c2565b6000609a54831015610b1d5750609a82905560015b609883905560408051848152821515602082015233917f440c933246b3b8a09a72926c9c9e39fc72792cab783608a9eb59718e8d727736910160405180910390a2505050565b600080516020611c72833981519152610b7b816111c2565b600082815260a560205260409020805460ff191660011790557fc343aefb875672fb1857ecda2bdf9fa822ff1e924e3714f6a3d88c5199dee261610bbc3390565b604080516001600160a01b039092168252602082018590520160405180910390a15050565b60009182526065602090815260408084206001600160a01b0393909316845291905290205460ff1690565b610c357f21ea2f4fee4bcb623de15ac222ea5c1464307d884f23394b78ddc07f9c9c7cd86112b9565b610c5e7f06193bb948d6b7a6fcbe51c193ccf2183bb5d979b6ae5d3a6971b8851461d3b06112b9565b6001600160a01b038416610c85576040516342bcdf7f60e11b815260040160405180910390fd5b34831115610ca65760405163581db49960e11b815260040160405180910390fd5b6101175480841015610ccb5760405163732f941360e01b815260040160405180910390fd5b6101165481850390348681039190610ce290611357565b600033898585858b8b604051602001610d019796959493929190611a24565b60408051601f19818403018152919052805160209091012061011680549192506000610d2c83611a95565b9091555050604051600090419087908381818185875af1925050503d8060008114610d73576040519150601f19603f3d011682016040523d82523d6000602084013e610d78565b606091505b5050905080610d9c5760405163295f137d60e21b81524160048201526024016107c4565b818a6001600160a01b0316336001600160a01b03167fe856c2b8bd4eb0027ce32eeaf595c21b0b6b4644b326e5b7bd80a1cf8db72e6c8888888e8e604051610de8959493929190611aae565b60405180910390a450505050505050505050565b600080516020611c52833981519152610e14816111c2565b6000609a81905560405133917fba88c025b0cbb77022c0c487beef24f759f1e4be2f51a205bc427cee19c2eaa691a250565b600080516020611c72833981519152610e5e816111c2565b600082815260a560205260409020805460ff191690557fb54c82d9fabaaa460c07181bb36c08c0e72d79293e77a42ac273c81d2a54281b33610bbc565b600082815260656020526040902060010154610eb6816111c2565b61081f8383611252565b600054610100900460ff1615808015610ee05750600054600160ff909116105b80610efa5750303b158015610efa575060005460ff166001145b610f5d5760405162461bcd60e51b815260206004820152602e60248201527f496e697469616c697a61626c653a20636f6e747261637420697320616c72656160448201526d191e481a5b9a5d1a585b1a5e995960921b60648201526084016107c4565b6000805460ff191660011790558015610f80576000805461ff0019166101001790555b6001600160a01b038516610fa7576040516342bcdf7f60e11b815260040160405180910390fd5b6001600160a01b038416610fce576040516342bcdf7f60e11b815260040160405180910390fd5b610fd66113b4565b610fde6113b4565b610fe66113b4565b610fee6113dd565b610ff883836114aa565b6110018461079d565b6001610116556110126000866111cc565b61103c7fcc6ce8bb749b4b07d2f635ce95747506096d0737f9abf10cc8f4a14384603ba2866111cc565b611054600080516020611c52833981519152866111cc565b61106c600080516020611c72833981519152866111cc565b61011580546001600160a01b03191663075bcd1517905580156110c9576000805461ff0019169055604051600181527f7f26b83ff96e1f2b6a682f133852f6798a09c465da95921460cefb38474024989060200160405180910390a15b5050505050565b7f4705265620026983c754c5288b65446d794a03174326ec6d7c0b5c7f1fd674156110fa816111c2565b81606481111561112057604051630ec5d10d60e21b8152600481018290526024016107c4565b60005b8181101561118257600085858381811061113f5761113f611adf565b905060200201359050600060ff1660b06000838152602001908152602001600020540361117957600081815260b060205260409020600190555b50600101611123565b507f9995fb3da0c2de4012f2b814b6fc29ce7507571dcb20b8d0bd38621a842df1eb84846040516111b4929190611af5565b60405180910390a150505050565b6107f78133611507565b6111d68282610be1565b61089e5760008281526065602090815260408083206001600160a01b03851684529091529020805460ff1916600117905561120e3390565b6001600160a01b0316816001600160a01b0316837f2f8788117e7eff1d82e926ec794901d17c78024a50270940304540a733656f0d60405160405180910390a45050565b61125c8282610be1565b1561089e5760008281526065602090815260408083206001600160a01b0385168085529252808320805460ff1916905551339285917ff6391f5c32d9c69d2a47ea670b442974b53935d1edc7fd64eb21e047a839171b9190a45050565b600081815260a5602052604090205460ff16156107f757604051638698dd2b60e01b8152600481018290526024016107c4565b600081815260b0602052604090205460011461131b5760405163183d84dd60e31b815260040160405180910390fd5b600081815260b06020526040808220600290555182917ffa3e4bedb1a08b5ba087ac221864e20a82c8c8a448b4878ab95ecc11eac449ed91a250565b600042609954101561137a576097546113709042611b2e565b609955508061138b565b81609a546113889190611b2e565b90505b6098548111156113ae5760405163a74c1c5f60e01b815260040160405180910390fd5b609a5550565b600054610100900460ff166113db5760405162461bcd60e51b81526004016107c4906119b0565b565b600054610100900460ff166114045760405162461bcd60e51b81526004016107c4906119b0565b60a56020527f1c27aee340c9b895e5bfa6fbc1f11a2ae86c5e4c98eb002cc0393a151042769a805460ff199081169091557f2308d044c387f39fa3c480542f80fee04e4a81d0a70ba43ae8b25c37685221468054821690557f3a56b1bd788a764cbd923badb6d0719f21f520455285bf6877e636d08708878d6000527ff0e92c17477a370b89c54b2cf0ae799a5a7fd283e69770b409bc6f93376ab87680549091169055565b816000036114cb5760405163b5ed5a3b60e01b815260040160405180910390fd5b806000036114ec5760405163d10d72bb60e01b815260040160405180910390fd5b609782905560988190556115008242611b2e565b6099555050565b6115118282610be1565b61089e5761151e81611560565b611529836020611572565b60405160200161153a929190611b65565b60408051601f198184030181529082905262461bcd60e51b82526107c491600401611bda565b60606107666001600160a01b03831660145b60606000611581836002611c0d565b61158c906002611b2e565b67ffffffffffffffff8111156115a4576115a4611c24565b6040519080825280601f01601f1916602001820160405280156115ce576020820181803683370190505b509050600360fc1b816000815181106115e9576115e9611adf565b60200101906001600160f81b031916908160001a905350600f60fb1b8160018151811061161857611618611adf565b60200101906001600160f81b031916908160001a905350600061163c846002611c0d565b611647906001611b2e565b90505b60018111156116bf576f181899199a1a9b1b9c1cb0b131b232b360811b85600f166010811061167b5761167b611adf565b1a60f81b82828151811061169157611691611adf565b60200101906001600160f81b031916908160001a90535060049490941c936116b881611c3a565b905061164a565b50831561170e5760405162461bcd60e51b815260206004820181905260248201527f537472696e67733a20686578206c656e67746820696e73756666696369656e7460448201526064016107c4565b9392505050565b60006020828403121561172757600080fd5b81356001600160e01b03198116811461170e57600080fd5b60006020828403121561175157600080fd5b5035919050565b6001600160a01b03811681146107f757600080fd5b60006020828403121561177f57600080fd5b813561170e81611758565b6000806040838503121561179d57600080fd5b8235915060208301356117af81611758565b809150509250929050565b60008083601f8401126117cc57600080fd5b50813567ffffffffffffffff8111156117e457600080fd5b6020830191508360208285010111156117fc57600080fd5b9250929050565b60008060008060008060008060e0898b03121561181f57600080fd5b883561182a81611758565b9750602089013561183a81611758565b96506040890135955060608901359450608089013561185881611758565b935060a089013567ffffffffffffffff81111561187457600080fd5b6118808b828c016117ba565b999c989b50969995989497949560c00135949350505050565b600080600080606085870312156118af57600080fd5b84356118ba81611758565b935060208501359250604085013567ffffffffffffffff8111156118dd57600080fd5b6118e9878288016117ba565b95989497509550505050565b6000806000806080858703121561190b57600080fd5b843561191681611758565b9350602085013561192681611758565b93969395505050506040820135916060013590565b6000806020838503121561194e57600080fd5b823567ffffffffffffffff8082111561196657600080fd5b818501915085601f83011261197a57600080fd5b81358181111561198957600080fd5b8660208260051b850101111561199e57600080fd5b60209290920196919550909350505050565b6020808252602b908201527f496e697469616c697a61626c653a20636f6e7472616374206973206e6f74206960408201526a6e697469616c697a696e6760a81b606082015260800190565b81835281816020850137506000828201602090810191909152601f909101601f19169091010190565b600060018060a01b03808a16835280891660208401525086604083015285606083015284608083015260c060a0830152611a6260c0830184866119fb565b9998505050505050505050565b8183823760009101908152919050565b634e487b7160e01b600052601160045260246000fd5b600060018201611aa757611aa7611a7f565b5060010190565b858152846020820152836040820152608060608201526000611ad46080830184866119fb565b979650505050505050565b634e487b7160e01b600052603260045260246000fd5b6020808252810182905260006001600160fb1b03831115611b1557600080fd5b8260051b80856040850137919091016040019392505050565b8082018082111561076657610766611a7f565b60005b83811015611b5c578181015183820152602001611b44565b50506000910152565b7f416363657373436f6e74726f6c3a206163636f756e7420000000000000000000815260008351611b9d816017850160208801611b41565b7001034b99036b4b9b9b4b733903937b6329607d1b6017918401918201528351611bce816028840160208801611b41565b01602801949350505050565b6020815260008251806020840152611bf9816040850160208701611b41565b601f01601f19169190910160400192915050565b808202811582820484141761076657610766611a7f565b634e487b7160e01b600052604160045260246000fd5b600081611c4957611c49611a7f565b50600019019056fe1185e52d62bfbbea270e57d3d09733d221b53ab7a18bae82bb3c6c74bab16d82356a809dfdea9198dd76fb76bf6d403ecf13ea675eb89e1eda2db2c4a4676a26a2646970667358221220bed231bdd1674c8ce0ef26300e185082704f8d7a1937f3daa116f8fe58c6977464736f6c63430008130033",
  "linkReferences": {},
  "deployedLinkReferences": {}
}