{
  "_format": "hh-sol-artifact-1",
  "contractName": "TestPlonkVerifierForDataAggregation",
  "sourceName": "contracts/verifiers/test/TestPlonkVerifierForDataAggregation.sol",
  "abi": [
    {
      "inputs": [
        {
          "internalType": "bytes",
          "name": "proof",
          "type": "bytes"
        },
        {
          "internalType": "uint256[]",
          "name": "public_inputs",
          "type": "uint256[]"
        }
      ],
      "name": "Verify",
      "outputs": [
        {
          "internalType": "bool",
          "name": "success",
          "type": "bool"
        }
      ],
      "stateMutability": "view",
      "type": "function"
    }
  ],
  "bytecode": "0x608060405234801561001057600080fd5b506129b4806100206000396000f3fe608060405234801561001057600080fd5b506004361061002b5760003560e01c80637e4f7a8a14610030575b600080fd5b61004361003e3660046128b9565b610057565b604051901515815260200160405180910390f35b6000604051610220810161006a8461043a565b610074858561044d565b61007d8661049d565b610086876104b3565b600061009386868a6106bc565b905061009e816109f4565b90506100aa8189610a5b565b90506100b68189610aea565b5060608201517f30644e72e131a029b85045b68181585d2833e84879b9709143e1f593f00000017f30644e72e131a029b85045b68181585d2833e84879b9709143e1f593f000000061010a8460108561284d565b086101a08401525061011d818587610b55565b61012882868a610ed1565b91507f30644e72e131a029b85045b68181585d2833e84879b9709143e1f593f00000018183086101808401525061015f905061127c565b610168866123c5565b61017186612358565b61017a86611f72565b61018386611a71565b61018c86611789565b610195866113cd565b6101e0015190506128b1565b6040517f08c379a000000000000000000000000000000000000000000000000000000000815260206004820152601d60248201527f77726f6e67206e756d626572206f66207075626c696320696e707574730000006044820152606481fd5b6040517f08c379a000000000000000000000000000000000000000000000000000000000815260206004820152601260248201527f6572726f72206563206f7065726174696f6e00000000000000000000000000006044820152606481fd5b6040517f08c379a000000000000000000000000000000000000000000000000000000000815260206004820152601860248201527f696e707574732061726520626967676572207468616e207200000000000000006044820152606481fd5b6040517f08c379a000000000000000000000000000000000000000000000000000000000815260206004820152601060248201527f77726f6e672070726f6f662073697a65000000000000000000000000000000006044820152606481fd5b6040517f08c379a000000000000000000000000000000000000000000000000000000000815260206004820152601660248201527f6f70656e696e677320626967676572207468616e2072000000000000000000006044820152606481fd5b6040517f08c379a000000000000000000000000000000000000000000000000000000000815260206004820152600c60248201527f6572726f722076657269667900000000000000000000000000000000000000006044820152606481fd5b6040517f08c379a000000000000000000000000000000000000000000000000000000000815260206004820152601460248201527f6572726f722072616e646f6d2067656e206b7a670000000000000000000000006044820152606481fd5b6001811461044a5761044a6101a1565b50565b60005b81811015610498577f30644e72e131a029b85045b68181585d2833e84879b9709143e1f593f0000000833511156104895761048961025f565b60209290920191600101610450565b505050565b6103a08181146104af576104af6102be565b5050565b6102a081017f30644e72e131a029b85045b68181585d2833e84879b9709143e1f593f0000000813511156104e9576104e961031d565b5061028081017f30644e72e131a029b85045b68181585d2833e84879b9709143e1f593f0000000813511156105205761052061031d565b5061018081017f30644e72e131a029b85045b68181585d2833e84879b9709143e1f593f0000000813511156105575761055761031d565b506101a081017f30644e72e131a029b85045b68181585d2833e84879b9709143e1f593f00000008135111561058e5761058e61031d565b506101c081017f30644e72e131a029b85045b68181585d2833e84879b9709143e1f593f0000000813511156105c5576105c561031d565b506101e081017f30644e72e131a029b85045b68181585d2833e84879b9709143e1f593f0000000813511156105fc576105fc61031d565b5061020081017f30644e72e131a029b85045b68181585d2833e84879b9709143e1f593f0000000813511156106335761063361031d565b5061026081017f30644e72e131a029b85045b68181585d2833e84879b9709143e1f593f00000008135111561066a5761066a61031d565b50610340810160005b6001811015610498577f30644e72e131a029b85045b68181585d2833e84879b9709143e1f593f0000000823511156106ad576106ad61031d565b60209190910190600101610673565b600060405161022081016467616d6d6181527f02b433cd99b33b9fdba96401bbf39bd0f5f67e77ab109892fd462a1a4bb4c77d60208201527f09185e84da16e93455517004ed7c4407cf02c9e877d9137029602a8fbd608d5160408201527f015cfb53cb67714080757255dca722254b9f02473adc68ffad8fed99ffcec84f60608201527f1ad16c51ef408d7dfa401c8e4957c3c88ed42be7b10f16dcbc31160bc73f0b6e60808201527f0f8b1f59a0d05259ef250ac4ad1fbf7a7b92d00cd2ee6d16a461736190c8e5b560a08201527f2140af9a35d0c1f2cb2a36e0422ac0a0ab3deedade996f3c25da12ab4f64a8d060c08201527f176483729ec70267f31944f44d8fd2b46bb449b053ab28a088ca0c9374b8514560e08201527f073766ef0bf4fb51ce28e3fba9579f978c4d59403d6e7eed6285ea4ea43142676101008201527f1d1931153ed9e8bdfbddcb626cad05f92b8c18b063e5693fd15e65f33321f13a6101208201527f2fb060b2a580e4aa0b3414e4bf76eec714e85149eb17cc588471a55dfdf502e46101408201527f1df6e9e9a3ffca4e632577bf42848a21344ffdba31c3be584fc36e99de7d95646101608201527f1d19f23ff924846cb4598a0ec9a60f429198685e5d8cb444c7c26d6cfb79a90c6101808201527f0cfd83155387d72f55c1cb7cb5c1f124a0880f81c081ccf13c6f49ffe99f86a36101a08201527f180fdb19efe9161e6c9a8c917e2f0120c0a45d15c07e7d8194122f3b349cca196101c08201527f0b27e9c9e5631b28b452193fad7ff3753f82fa2b46712d74637a7eaeaf9949ba6101e08201527f1a03ed6446a3730033f3ca7f642c750bed84add29e07a0d92df48a09cf1e14586102008201527f135730fd4e7aa6fe43bb647c6e831f8852117cc63cc5c3576df5de31226e84246102208201527f02e22b2b0dd77d1248713cca10efb21d39456b820bd9c635fcbe13f97090d42d610240820152610260810160208602808883379081019060c0808784375061030501905060208282601b820160025afa9050806109be576109be61037c565b5080519250507f30644e72e131a029b85045b68181585d2833e84879b9709143e1f593f000000182066040820152509392505050565b600060405161022060405101636265746181528360208201526020816024601c840160025afa80610a2757610a2761037c565b5080519250507f30644e72e131a029b85045b68181585d2833e84879b9709143e1f593f00000018206602082015250919050565b600060405161022060405101606564616c7068618252602082018681526020810190506103608601600160400280828437928301929190910190506040610220870182375060208282601b850160025afa905080610abb57610abb61037c565b50517f30644e72e131a029b85045b68181585d2833e84879b9709143e1f593f000000181069091529392505050565b60405161022060405101637a657461815283602082015260c0808401604083013760208160e4601c840160025afa80610b2557610b2561037c565b50517f30644e72e131a029b85045b68181585d2833e84879b9709143e1f593f00000019006606091909101525050565b600060405160608101516101a0820151915085610b7481878585610bf1565b60009250600091505b85821015610be7577f30644e72e131a029b85045b68181585d2833e84879b9709143e1f593f0000001853582510992507f30644e72e131a029b85045b68181585d2833e84879b9709143e1f593f00000018385086020958601959094506001929092019101610b7d565b5050509392505050565b7f30644e72e131a029b85045b68181585d2833e84879b9709143e1f593f00000017f2d5e098bb31e86271ccb415b196942d755b0a9c3f21dd9882fa3d63ab1000001830960018560005b86811015610ce0577f30644e72e131a029b85045b68181585d2833e84879b9709143e1f593f0000001837f30644e72e131a029b85045b68181585d2833e84879b9709143e1f593f000000103860882527f30644e72e131a029b85045b68181585d2833e84879b9709143e1f593f00000017f21082ca216cbbf4e1c6e4f4594dd508c996dfbe1174efb98b11509c6e306460b8409925060209190910190600101610c3b565b50610cec818789610da5565b50600190508560005b86811015610d9b577f30644e72e131a029b85045b68181585d2833e84879b9709143e1f593f0000001837f30644e72e131a029b85045b68181585d2833e84879b9709143e1f593f0000001868551090982526020820191507f30644e72e131a029b85045b68181585d2833e84879b9709143e1f593f00000017f21082ca216cbbf4e1c6e4f4594dd508c996dfbe1174efb98b11509c6e306460b84099250600101610cf5565b5050505050505050565b600183526000805b83811015610dfb5781850151828401517f30644e72e131a029b85045b68181585d2833e84879b9709143e1f593f0000001818309905060208401935080848801525050600181019050610dad565b506020810382019150808401935050610e3c6020840160027f30644e72e131a029b85045b68181585d2833e84879b9709143e1f593f000000103855161284d565b60005b83811015610eca5760208503945082517f30644e72e131a029b85045b68181585d2833e84879b9709143e1f593f00000018651840984527f30644e72e131a029b85045b68181585d2833e84879b9709143e1f593f00000018184097fffffffffffffffffffffffffffffffffffffffffffffffffffffffffffffffe090940193925050600101610e3f565b5050505050565b600060405160608101516101a082015191506103608401600080610efb896020850135853561107e565b9150610f0c8960058a018787610f42565b90507f30644e72e131a029b85045b68181585d2833e84879b9709143e1f593f00000018082840987089998505050505050505050565b6000610f6f85857f21082ca216cbbf4e1c6e4f4594dd508c996dfbe1174efb98b11509c6e306460b61284d565b7f30644e72e131a029b85045b68181585d2833e84879b9709143e1f593f0000001817f30644e72e131a029b85045b68181585d2833e84879b9709143e1f593f000000103840894507f30644e72e131a029b85045b68181585d2833e84879b9709143e1f593f00000017f2d5e098bb31e86271ccb415b196942d755b0a9c3f21dd9882fa3d63ab100000182099050611028867f30644e72e131a029b85045b68181585d2833e84879b9709143e1f593efffffff8761284d565b94507f30644e72e131a029b85045b68181585d2833e84879b9709143e1f593f000000185820990507f30644e72e131a029b85045b68181585d2833e84879b9709143e1f593f00000018482099695505050505050565b600083526000602084015280604084015250806060830152506000608082015360306081820153600060828201536042608382015360536084820153604260858201536032608682015360326087820153602d608882015360506089820153606c608a820153606f608b820153606e608c820153606b608d820153600b608e8201536000602082608f8460025afa806111195761111961037c565b8251600160208501536042602185015360536022850153604260238501536032602485015360326025850153602d602685015360506027850153606c6028850153606f6029850153606e602a850153606b602b850153600b602c850153602084602d8660025afa91508161118f5761118f61037c565b8351186020840152600260408401536042604184015360536042840153604260438401536032604484015360326045840153602d604684015360506047840153606c6048840153606f6049840153606e604a840153606b604b840153600b604c84015360208301602081602d8360025afa915050806112105761121061037c565b507f30644e72e131a029b85045b68181585d2833e84879b9709143e1f593f00000017001000000000000000000000000000000008351099050602082015160801c7f30644e72e131a029b85045b68181585d2833e84879b9709143e1f593f00000018183089392505050565b604051610220604051016101a08201517f30644e72e131a029b85045b68181585d2833e84879b9709143e1f593f000000160017f30644e72e131a029b85045b68181585d2833e84879b9709143e1f593f000000103606085015108611302837f30644e72e131a029b85045b68181585d2833e84879b9709143e1f593efffffff8361284d565b90507f30644e72e131a029b85045b68181585d2833e84879b9709143e1f593f00000017f2d5e098bb31e86271ccb415b196942d755b0a9c3f21dd9882fa3d63ab1000001820990507f30644e72e131a029b85045b68181585d2833e84879b9709143e1f593f00000018282098451935091507f30644e72e131a029b85045b68181585d2833e84879b9709143e1f593f0000001905082820990507f30644e72e131a029b85045b68181585d2833e84879b9709143e1f593f00000018282099050806080840152505050565b6040516102208101610140820151815261016082015160208201526102c083013560408201526102e08301356060820152610220830135608082015261024083013560a082015261030083013560c082015261032083013560e082015260608201516101008201526101c08201516101208201526020816101408360025afa80611459576114596103db565b7f30644e72e131a029b85045b68181585d2833e84879b9709143e1f593f00000018251069050816040810192506102c085013581526102e085013560208201526114a983836103008801846127b4565b61014084016114be84846102208901846127b4565b61012085016114d2846102608901836127fb565b6001855260026020860152805160408087019182529095908160608160075afa9150816115015761150161037c565b60208101915081517f30644e72e131a029b85045b68181585d97816a916871ca8d3c208c16d87cfd47038252611539868285866126a3565b5050836040850194506115568560608801516102c08a0184612742565b7f30644e72e131a029b85045b68181585d2833e84879b9709143e1f593f00000017f21082ca216cbbf4e1c6e4f4594dd508c996dfbe1174efb98b11509c6e306460b60608801510995507f30644e72e131a029b85045b68181585d2833e84879b9709143e1f593f000000186850993506115d685856103008a01846127b4565b6115e2858284856126a3565b50602082810180517f30644e72e131a029b85045b68181585d97816a916871ca8d3c208c16d87cfd470381528251865291810151908501527f198e9393920d483a7260bfb731fb5d25f1aa493335a9e71297e485b7aef312c260408501527f1800deef121f1e76426a00665e5c4479674322d4f75edadd46debd5cd992f6ed60608501527f090689d0585ff075ec9e99ad690c3395bc4b313370b38ef355acdadcd122975b60808501527f12c85ea5db8c6deb4aab71808dcb408fe3d1e7690c43d37b4ce6cc0166fa7daa60a0850152905160c0840152805160e08401527f12740934ba9615b77b6a49b06fcce83ce90d67b1d0e2a530069e3a7306569a916101008401527f116da8c89a0d090f3d8644ada33a5f1c8013ba7204aeca62d66d931b99afe6e76101208401527f25222d9816e5f86b4a7dedd00d04acc5c979c18bd22b834ea8c6d07c0ba441db6101408401527f076441042e77b6309644b56251f059cf14befc72ac8a6157d30924e58dc4c1726101608401529250610498905081604051602060006101808460085afa6000516101e09290920180519190921616905250565b6040516102206040510160208101604082016101c084015180610140860160a087015161014088015260c08701516101608801526102808801356101208801526117d8868360e08a018461276d565b6117eb826102a08a016101208a016127fb565b7f30644e72e131a029b85045b68181585d2833e84879b9709143e1f593f0000001838309915061182186838a6101408b016127b4565b611834826101808a016101208a016127fb565b7f30644e72e131a029b85045b68181585d2833e84879b9709143e1f593f00000018383099150611869868360408b01846127b4565b61187c826101a08a016101208a016127fb565b7f30644e72e131a029b85045b68181585d2833e84879b9709143e1f593f000000183830991506118b1868360808b01846127b4565b6118c4826101c08a016101208a016127fb565b7f30644e72e131a029b85045b68181585d2833e84879b9709143e1f593f000000183830991507f02b433cd99b33b9fdba96401bbf39bd0f5f67e77ab109892fd462a1a4bb4c77d86527f09185e84da16e93455517004ed7c4407cf02c9e877d9137029602a8fbd608d51855261193c8483888461276d565b61194f826101e08a016101208a016127fb565b7f30644e72e131a029b85045b68181585d2833e84879b9709143e1f593f000000183830991507f015cfb53cb67714080757255dca722254b9f02473adc68ffad8fed99ffcec84f86527f1ad16c51ef408d7dfa401c8e4957c3c88ed42be7b10f16dcbc31160bc73f0b6e85526119c78483888461276d565b6119da826102008a016101208a016127fb565b61034088017f30644e72e131a029b85045b68181585d2833e84879b9709143e1f593f000000184840992507f135730fd4e7aa6fe43bb647c6e831f8852117cc63cc5c3576df5de31226e842487527f02e22b2b0dd77d1248713cca10efb21d39456b820bd9c635fcbe13f97090d42d8652611a578584898561276d565b611a6683826101208b016127fb565b505050505050505050565b6040516467616d6d616102208201908152606082015161024083015260a082015161026083015260c08083015161028084015260e08301516102a08401526101008301516102c0840152836102e08401377f02b433cd99b33b9fdba96401bbf39bd0f5f67e77ab109892fd462a1a4bb4c77d610180828101919091527f09185e84da16e93455517004ed7c4407cf02c9e877d9137029602a8fbd608d516101a0808401919091527f015cfb53cb67714080757255dca722254b9f02473adc68ffad8fed99ffcec84f6101c0808501919091527f1ad16c51ef408d7dfa401c8e4957c3c88ed42be7b10f16dcbc31160bc73f0b6e6101e0808601919091527f135730fd4e7aa6fe43bb647c6e831f8852117cc63cc5c3576df5de31226e8424610200808701919091527f02e22b2b0dd77d1248713cca10efb21d39456b820bd9c635fcbe13f97090d42d610220870152610280888101356102408801526102a0808a0135610260890152958901359087015292870135938501939093528501356102c0840152908401356102e08301528301356103008201526103208101610340840160005b6001811015611c35578135835260209283019290910190600101611c16565b50506102608401359052601b61034560206101c085018285850160025afa9250505080611c6457611c6461037c565b506101c00180517f30644e72e131a029b85045b68181585d2833e84879b9709143e1f593f00000019006905250565b604051610220604051017f176483729ec70267f31944f44d8fd2b46bb449b053ab28a088ca0c9374b8514581527f073766ef0bf4fb51ce28e3fba9579f978c4d59403d6e7eed6285ea4ea43142676020820152611cfd604082016101808501358360e08601612717565b7f1d1931153ed9e8bdfbddcb626cad05f92b8c18b063e5693fd15e65f33321f13a81527f2fb060b2a580e4aa0b3414e4bf76eec714e85149eb17cc588471a55dfdf502e46020820152611d5d604082016101a08501358360e0860161276d565b7f30644e72e131a029b85045b68181585d2833e84879b9709143e1f593f00000016101a0840135610180850135097f1df6e9e9a3ffca4e632577bf42848a21344ffdba31c3be584fc36e99de7d956482527f1d19f23ff924846cb4598a0ec9a60f429198685e5d8cb444c7c26d6cfb79a90c6020830152611de660408301828460e0870161276d565b507f0cfd83155387d72f55c1cb7cb5c1f124a0880f81c081ccf13c6f49ffe99f86a381527f180fdb19efe9161e6c9a8c917e2f0120c0a45d15c07e7d8194122f3b349cca196020820152611e47604082016101c08501358360e0860161276d565b7f0b27e9c9e5631b28b452193fad7ff3753f82fa2b46712d74637a7eaeaf9949ba81527f1a03ed6446a3730033f3ca7f642c750bed84add29e07a0d92df48a09cf1e14586020820152611ea2604082018260e08501806126a3565b6103408301610360840160005b6001811015611eef578135845260208201356020850152611ed96040850184358660e0890161276d565b6020929092019160409190910190600101611eaf565b5050507f0f8b1f59a0d05259ef250ac4ad1fbf7a7b92d00cd2ee6d16a461736190c8e5b581527f2140af9a35d0c1f2cb2a36e0422ac0a0ab3deedade996f3c25da12ab4f64a8d06020820152611f4d60408201858360e0860161276d565b61022083013581526102408301356020820152610eca60408201868360e0860161276d565b60405160208101516040820151606083015160008401517f30644e72e131a029b85045b68181585d2833e84879b9709143e1f593f000000184610260880135097f30644e72e131a029b85045b68181585d2833e84879b9709143e1f593f00000016101e088013586097f30644e72e131a029b85045b68181585d2833e84879b9709143e1f593f0000001610180890135820890507f30644e72e131a029b85045b68181585d2833e84879b9709143e1f593f000000185820890507f30644e72e131a029b85045b68181585d2833e84879b9709143e1f593f000000161020089013587097f30644e72e131a029b85045b68181585d2833e84879b9709143e1f593f00000016101a08a0135820890507f30644e72e131a029b85045b68181585d2833e84879b9709143e1f593f000000186820890507f30644e72e131a029b85045b68181585d2833e84879b9709143e1f593f00000018284097f30644e72e131a029b85045b68181585d2833e84879b9709143e1f593f000000182820990507f30644e72e131a029b85045b68181585d2833e84879b9709143e1f593f000000185820990507f30644e72e131a029b85045b68181585d2833e84879b9709143e1f593f0000001600580097f30644e72e131a029b85045b68181585d2833e84879b9709143e1f593f0000001878a0998507f30644e72e131a029b85045b68181585d2833e84879b9709143e1f593f00000016101808c01358a0894507f30644e72e131a029b85045b68181585d2833e84879b9709143e1f593f000000188860894507f30644e72e131a029b85045b68181585d2833e84879b9709143e1f593f000000160058a0993507f30644e72e131a029b85045b68181585d2833e84879b9709143e1f593f00000016101a08c0135850893507f30644e72e131a029b85045b68181585d2833e84879b9709143e1f593f000000188850893507f30644e72e131a029b85045b68181585d2833e84879b9709143e1f593f0000001818a099250507f30644e72e131a029b85045b68181585d2833e84879b9709143e1f593f00000016101c08b0135830891507f30644e72e131a029b85045b68181585d2833e84879b9709143e1f593f000000187830891507f30644e72e131a029b85045b68181585d2833e84879b9709143e1f593f000000183850997507f30644e72e131a029b85045b68181585d2833e84879b9709143e1f593f00000018289097f30644e72e131a029b85045b68181585d2833e84879b9709143e1f593f0000001908103985085890997507f30644e72e131a029b85045b68181585d2833e84879b9709143e1f593f000000160808a01518908975061234c88828c611c93565b50505050505050505050565b6040516002601001610220604051016123768183606086015161284d565b915061238b8183610140870160a08701612742565b61239e81610100860160a08601806126dd565b6123ad818360a0860180612717565b6123bf8160c0860160a08601806126dd565b50505050565b604051610220604051017f30644e72e131a029b85045b68181585d2833e84879b9709143e1f593f000000160208301516101e08501350981527f30644e72e131a029b85045b68181585d2833e84879b9709143e1f593f0000001604083015182510881527f30644e72e131a029b85045b68181585d2833e84879b9709143e1f593f00000016101808401358251088152602081017f30644e72e131a029b85045b68181585d2833e84879b9709143e1f593f000000160208401516102008601350981527f30644e72e131a029b85045b68181585d2833e84879b9709143e1f593f0000001604084015182510881527f30644e72e131a029b85045b68181585d2833e84879b9709143e1f593f00000016101a08501358251088152604082017f30644e72e131a029b85045b68181585d2833e84879b9709143e1f593f000000160408501516101c08701350881527f30644e72e131a029b85045b68181585d2833e84879b9709143e1f593f0000001825184510983527f30644e72e131a029b85045b68181585d2833e84879b9709143e1f593f0000001815184510980845284517f30644e72e131a029b85045b68181585d2833e84879b9709143e1f593f00000019250900982527f30644e72e131a029b85045b68181585d2833e84879b9709143e1f593f00000016102608501358351098252606082017f30644e72e131a029b85045b68181585d2833e84879b9709143e1f593f00000016101808501516102a08701350881527f30644e72e131a029b85045b68181585d2833e84879b9709143e1f593f0000001835182510881527f30644e72e131a029b85045b68181585d2833e84879b9709143e1f593f000000160808501517f30644e72e131a029b85045b68181585d2833e84879b9709143e1f593f00000010382510881527f30644e72e131a029b85045b68181585d2833e84879b9709143e1f593f00000016101a085015161028087013509825281518151146101e08501525050505050565b604051508151845260208201516020850152825160408501526020830151606085015260408160808660065afa80610eca57610eca610200565b604051508151845260208201516020850152823560408501526020830135606085015260408160808660065afa80610eca57610eca610200565b815184526020808301519085015260408481018490528160608660075afa80610eca57610eca610200565b813584526020808301359085015260408481018490528160608660075afa80610eca57610eca610200565b815184526020808301519085015260408481018490528460608160075afa815160408601526020820151606086015260408260808760065afa1680610eca57610eca610200565b813584526020808301359085015260408481018490528460608160075afa815160408601526020820151606086015260408260808760065afa1680610eca57610eca610200565b7f30644e72e131a029b85045b68181585d2833e84879b9709143e1f593f0000001838335097f30644e72e131a029b85045b68181585d2833e84879b9709143e1f593f000000181835108825250505050565b602083526020808401526020604084015280606084015250806080830152507f30644e72e131a029b85045b68181585d2833e84879b9709143e1f593f000000160a0820152600060208260c08460055afa806128ab576128ab61037c565b50505190565b949350505050565b600080600080604085870312156128cf57600080fd5b843567ffffffffffffffff808211156128e757600080fd5b818701915087601f8301126128fb57600080fd5b81358181111561290a57600080fd5b88602082850101111561291c57600080fd5b60209283019650945090860135908082111561293757600080fd5b818701915087601f83011261294b57600080fd5b81358181111561295a57600080fd5b8860208260051b850101111561296f57600080fd5b9598949750506020019450505056fea26469706673582212203a34f7f888032ffffe0341df30be2ff1e4f37f98cf4034382bb92e38185b951e64736f6c63430008160033",
  "linkReferences": {},
  "deployedLinkReferences": {}
}