{
  "_format": "hh-sol-artifact-1",
  "contractName": "TransactionDecoder",
  "sourceName": "contracts/messageService/lib/TransactionDecoder.sol",
  "abi": [
    {
      "inputs": [],
      "name": "NotList",
      "type": "error"
    },
    {
      "inputs": [],
      "name": "TransactionShort",
      "type": "error"
    },
    {
      "inputs": [],
      "name": "UnknownTransactionType",
      "type": "error"
    },
    {
      "inputs": [],
      "name": "WrongBytesLength",
      "type": "error"
    },
    {
      "inputs": [
        {
          "internalType": "bytes",
          "name": "_transaction",
          "type": "bytes"
        }
      ],
      "name": "decodeTransaction",
      "outputs": [
        {
          "internalType": "bytes",
          "name": "",
          "type": "bytes"
        }
      ],
      "stateMutability": "pure",
      "type": "function"
    }
  ],
  "bytecode": "0x6108eb61003a600b82828239805160001a60731461002d57634e487b7160e01b600052600060045260246000fd5b30600052607381538281f3fe73000000000000000000000000000000000000000030146080604052600436106100355760003560e01c8063258964461461003a575b600080fd5b61004d61004836600461065a565b610063565b60405161005a91906106cc565b60405180910390f35b606060018210156100875760405163bac5bf1b60e01b815260040160405180910390fd5b60008383600081811061009c5761009c61071a565b909101356001600160f81b031916915050600160f81b8190036100cb576100c38484610128565b915050610122565b6001600160f81b03198116600160f91b036100ea576100c384846101a7565b600360fe1b6001600160f81b0319821610610109576100c38484610217565b6040516374ad0a5360e11b815260040160405180910390fd5b92915050565b606060006101398360018187610730565b8080601f016020809104026020016040519081016040528093929190818152602001838380828437600092018290525093945061017b925084915061027c9050565b90506000610188826102a1565b905061019d610198826007610317565b610398565b9695505050505050565b606060006101b88360018187610730565b8080601f01602080910402602001604051908101604052809392919081815260200183838082843760009201829052509394506101fa925084915061027c9050565b90506000610207826102a1565b905061019d610198826008610317565b6060600083838080601f016020809104026020016040519081016040528093929190818152602001838380828437600092018290525093945061025f925084915061027c9050565b9050600061026c826102a1565b905061019d610198826006610317565b6040805180820190915260008082526020808301918252835183529290920190915290565b60408051608081018252600091810182815260608201839052815260208101919091526102cd8261042a565b6102ea576040516303003c1960e11b815260040160405180910390fd5b60006102f98360200151610465565b83602001516103089190610770565b92825250602081019190915290565b60408051808201909152600080825260208201526020830151600061033b826104e7565b90506103478183610770565b602086015260005b61035a600186610783565b81101561038a5785602001519250610371836104e7565b915061037d8284610770565b602087015260010161034f565b508252602082015292915050565b80516060906000036103bd57604051635780864960e01b815260040160405180910390fd5b6000806103c984610590565b915091508067ffffffffffffffff8111156103e6576103e6610796565b6040519080825280601f01601f191660200182016040528015610410576020820181803683370190505b509250602083016104228382846105d7565b505050919050565b8051600090810361043d57506000919050565b6020820151805160001a9060c082101561045b575060009392505050565b5060019392505050565b8051600090811a608081101561047e5750600092915050565b60b8811080610499575060c08110801590610499575060f881105b156104a75750600192915050565b60c08110156104db576104bc600160b86107ac565b6104c99060ff1682610783565b6104d4906001610770565b9392505050565b6104bc600160f86107ac565b80516000908190811a60808110156105025760019150610589565b60b881101561052857610516608082610783565b610521906001610770565b9150610589565b60c08110156105555760b78103600185019450806020036101000a85510460018201810193505050610589565b60f88110156105695761051660c082610783565b60f78103600185019450806020036101000a855104600182018101935050505b5092915050565b60008060006105a28460200151610465565b905060008185602001516105b69190610770565b905060008286600001516105ca9190610783565b9196919550909350505050565b806000036105e457505050565b6020811061061c57825182526105fb602084610770565b9250610608602083610770565b9150610615602082610783565b90506105e4565b80156106555760006001610631836020610783565b61063d906101006108a9565b6106479190610783565b845184518216911916178352505b505050565b6000806020838503121561066d57600080fd5b823567ffffffffffffffff8082111561068557600080fd5b818501915085601f83011261069957600080fd5b8135818111156106a857600080fd5b8660208285010111156106ba57600080fd5b60209290920196919550909350505050565b600060208083528351808285015260005b818110156106f9578581018301518582016040015282016106dd565b506000604082860101526040601f19601f8301168501019250505092915050565b634e487b7160e01b600052603260045260246000fd5b6000808585111561074057600080fd5b8386111561074d57600080fd5b5050820193919092039150565b634e487b7160e01b600052601160045260246000fd5b808201808211156101225761012261075a565b818103818111156101225761012261075a565b634e487b7160e01b600052604160045260246000fd5b60ff82811682821603908111156101225761012261075a565b600181815b808511156108005781600019048211156107e6576107e661075a565b808516156107f357918102915b93841c93908002906107ca565b509250929050565b60008261081757506001610122565b8161082457506000610122565b816001811461083a576002811461084457610860565b6001915050610122565b60ff8411156108555761085561075a565b50506001821b610122565b5060208310610133831016604e8410600b8410161715610883575081810a610122565b61088d83836107c5565b80600019048211156108a1576108a161075a565b029392505050565b60006104d4838361080856fea2646970667358221220bf2409698fd7946c034b4d82f34c3802ad087356bfd45306422b313ce7b5660f64736f6c63430008130033",
  "linkReferences": {},
  "deployedLinkReferences": {}
}