{
  "_format": "hh-sol-artifact-1",
  "contractName": "ZkEvmV2",
  "sourceName": "contracts/ZkEvmV2.sol",
  "abi": [
    {
      "inputs": [],
      "stateMutability": "nonpayable",
      "type": "constructor"
    },
    {
      "inputs": [],
      "name": "BlockTimestampError",
      "type": "error"
    },
    {
      "inputs": [],
      "name": "EmptyBlock",
      "type": "error"
    },
    {
      "inputs": [
        {
          "internalType": "address",
          "name": "recipient",
          "type": "address"
        }
      ],
      "name": "FeePaymentFailed",
      "type": "error"
    },
    {
      "inputs": [],
      "name": "FeeTooLow",
      "type": "error"
    },
    {
      "inputs": [],
      "name": "InvalidProof",
      "type": "error"
    },
    {
      "inputs": [],
      "name": "InvalidProofType",
      "type": "error"
    },
    {
      "inputs": [
        {
          "internalType": "bytes32",
          "name": "pauseType",
          "type": "bytes32"
        }
      ],
      "name": "IsPaused",
      "type": "error"
    },
    {
      "inputs": [
        {
          "internalType": "bytes32",
          "name": "messageHash",
          "type": "bytes32"
        }
      ],
      "name": "L1L2MessageNotSent",
      "type": "error"
    },
    {
      "inputs": [],
      "name": "LimitIsZero",
      "type": "error"
    },
    {
      "inputs": [],
      "name": "MessageAlreadyClaimed",
      "type": "error"
    },
    {
      "inputs": [
        {
          "internalType": "bytes32",
          "name": "messageHash",
          "type": "bytes32"
        }
      ],
      "name": "MessageAlreadyReceived",
      "type": "error"
    },
    {
      "inputs": [],
      "name": "MessageAlreadySent",
      "type": "error"
    },
    {
      "inputs": [
        {
          "internalType": "address",
          "name": "destination",
          "type": "address"
        }
      ],
      "name": "MessageSendingFailed",
      "type": "error"
    },
    {
      "inputs": [],
      "name": "PeriodIsZero",
      "type": "error"
    },
    {
      "inputs": [],
      "name": "ProofIsEmpty",
      "type": "error"
    },
    {
      "inputs": [],
      "name": "RateLimitExceeded",
      "type": "error"
    },
    {
      "inputs": [],
      "name": "StartingRootHashDoesNotMatch",
      "type": "error"
    },
    {
      "inputs": [],
      "name": "ValueSentTooLow",
      "type": "error"
    },
    {
      "inputs": [],
      "name": "ValueShouldBeGreaterThanFee",
      "type": "error"
    },
    {
      "inputs": [],
      "name": "ZeroAddressNotAllowed",
      "type": "error"
    },
    {
      "anonymous": false,
      "inputs": [
        {
          "indexed": true,
          "internalType": "address",
          "name": "resettingAddress",
          "type": "address"
        }
      ],
      "name": "AmountUsedInPeriodReset",
      "type": "event"
    },
    {
      "anonymous": false,
      "inputs": [
        {
          "indexed": true,
          "internalType": "uint256",
          "name": "blockNumber",
          "type": "uint256"
        },
        {
          "indexed": false,
          "internalType": "bytes32",
          "name": "stateRootHash",
          "type": "bytes32"
        }
      ],
      "name": "BlockFinalized",
      "type": "event"
    },
    {
      "anonymous": false,
      "inputs": [
        {
          "indexed": true,
          "internalType": "uint256",
          "name": "lastBlockFinalized",
          "type": "uint256"
        },
        {
          "indexed": false,
          "internalType": "bytes32",
          "name": "startingRootHash",
          "type": "bytes32"
        },
        {
          "indexed": false,
          "internalType": "bytes32",
          "name": "finalRootHash",
          "type": "bytes32"
        }
      ],
      "name": "BlocksVerificationDone",
      "type": "event"
    },
    {
      "anonymous": false,
      "inputs": [
        {
          "indexed": false,
          "internalType": "uint8",
          "name": "version",
          "type": "uint8"
        }
      ],
      "name": "Initialized",
      "type": "event"
    },
    {
      "anonymous": false,
      "inputs": [
        {
          "indexed": true,
          "internalType": "bytes32",
          "name": "messageHash",
          "type": "bytes32"
        }
      ],
      "name": "L1L2MessageHashAddedToOutbox",
      "type": "event"
    },
    {
      "anonymous": false,
      "inputs": [
        {
          "indexed": false,
          "internalType": "bytes32[]",
          "name": "messageHashes",
          "type": "bytes32[]"
        }
      ],
      "name": "L1L2MessagesReceivedOnL2",
      "type": "event"
    },
    {
      "anonymous": false,
      "inputs": [
        {
          "indexed": true,
          "internalType": "bytes32",
          "name": "messageHash",
          "type": "bytes32"
        }
      ],
      "name": "L2L1MessageClaimed",
      "type": "event"
    },
    {
      "anonymous": false,
      "inputs": [
        {
          "indexed": true,
          "internalType": "bytes32",
          "name": "messageHash",
          "type": "bytes32"
        }
      ],
      "name": "L2L1MessageHashAddedToInbox",
      "type": "event"
    },
    {
      "anonymous": false,
      "inputs": [
        {
          "indexed": true,
          "internalType": "address",
          "name": "amountChangeBy",
          "type": "address"
        },
        {
          "indexed": false,
          "internalType": "uint256",
          "name": "amount",
          "type": "uint256"
        },
        {
          "indexed": false,
          "internalType": "bool",
          "name": "amountUsedLoweredToLimit",
          "type": "bool"
        }
      ],
      "name": "LimitAmountChange",
      "type": "event"
    },
    {
      "anonymous": false,
      "inputs": [
        {
          "indexed": true,
          "internalType": "bytes32",
          "name": "_messageHash",
          "type": "bytes32"
        }
      ],
      "name": "MessageClaimed",
      "type": "event"
    },
    {
      "anonymous": false,
      "inputs": [
        {
          "indexed": true,
          "internalType": "address",
          "name": "_from",
          "type": "address"
        },
        {
          "indexed": true,
          "internalType": "address",
          "name": "_to",
          "type": "address"
        },
        {
          "indexed": false,
          "internalType": "uint256",
          "name": "_fee",
          "type": "uint256"
        },
        {
          "indexed": false,
          "internalType": "uint256",
          "name": "_value",
          "type": "uint256"
        },
        {
          "indexed": false,
          "internalType": "uint256",
          "name": "_nonce",
          "type": "uint256"
        },
        {
          "indexed": false,
          "internalType": "bytes",
          "name": "_calldata",
          "type": "bytes"
        },
        {
          "indexed": true,
          "internalType": "bytes32",
          "name": "_messageHash",
          "type": "bytes32"
        }
      ],
      "name": "MessageSent",
      "type": "event"
    },
    {
      "anonymous": false,
      "inputs": [
        {
          "indexed": false,
          "internalType": "address",
          "name": "messageSender",
          "type": "address"
        },
        {
          "indexed": false,
          "internalType": "bytes32",
          "name": "pauseType",
          "type": "bytes32"
        }
      ],
      "name": "Paused",
      "type": "event"
    },
    {
      "anonymous": false,
      "inputs": [
        {
          "indexed": true,
          "internalType": "bytes32",
          "name": "role",
          "type": "bytes32"
        },
        {
          "indexed": true,
          "internalType": "bytes32",
          "name": "previousAdminRole",
          "type": "bytes32"
        },
        {
          "indexed": true,
          "internalType": "bytes32",
          "name": "newAdminRole",
          "type": "bytes32"
        }
      ],
      "name": "RoleAdminChanged",
      "type": "event"
    },
    {
      "anonymous": false,
      "inputs": [
        {
          "indexed": true,
          "internalType": "bytes32",
          "name": "role",
          "type": "bytes32"
        },
        {
          "indexed": true,
          "internalType": "address",
          "name": "account",
          "type": "address"
        },
        {
          "indexed": true,
          "internalType": "address",
          "name": "sender",
          "type": "address"
        }
      ],
      "name": "RoleGranted",
      "type": "event"
    },
    {
      "anonymous": false,
      "inputs": [
        {
          "indexed": true,
          "internalType": "bytes32",
          "name": "role",
          "type": "bytes32"
        },
        {
          "indexed": true,
          "internalType": "address",
          "name": "account",
          "type": "address"
        },
        {
          "indexed": true,
          "internalType": "address",
          "name": "sender",
          "type": "address"
        }
      ],
      "name": "RoleRevoked",
      "type": "event"
    },
    {
      "anonymous": false,
      "inputs": [
        {
          "indexed": false,
          "internalType": "address",
          "name": "messageSender",
          "type": "address"
        },
        {
          "indexed": false,
          "internalType": "bytes32",
          "name": "pauseType",
          "type": "bytes32"
        }
      ],
      "name": "UnPaused",
      "type": "event"
    },
    {
      "inputs": [],
      "name": "DEFAULT_ADMIN_ROLE",
      "outputs": [
        {
          "internalType": "bytes32",
          "name": "",
          "type": "bytes32"
        }
      ],
      "stateMutability": "view",
      "type": "function"
    },
    {
      "inputs": [],
      "name": "GENERAL_PAUSE_TYPE",
      "outputs": [
        {
          "internalType": "bytes32",
          "name": "",
          "type": "bytes32"
        }
      ],
      "stateMutability": "view",
      "type": "function"
    },
    {
      "inputs": [],
      "name": "INBOX_STATUS_RECEIVED",
      "outputs": [
        {
          "internalType": "uint8",
          "name": "",
          "type": "uint8"
        }
      ],
      "stateMutability": "view",
      "type": "function"
    },
    {
      "inputs": [],
      "name": "INBOX_STATUS_UNKNOWN",
      "outputs": [
        {
          "internalType": "uint8",
          "name": "",
          "type": "uint8"
        }
      ],
      "stateMutability": "view",
      "type": "function"
    },
    {
      "inputs": [],
      "name": "L1_L2_PAUSE_TYPE",
      "outputs": [
        {
          "internalType": "bytes32",
          "name": "",
          "type": "bytes32"
        }
      ],
      "stateMutability": "view",
      "type": "function"
    },
    {
      "inputs": [],
      "name": "L2_L1_PAUSE_TYPE",
      "outputs": [
        {
          "internalType": "bytes32",
          "name": "",
          "type": "bytes32"
        }
      ],
      "stateMutability": "view",
      "type": "function"
    },
    {
      "inputs": [],
      "name": "OUTBOX_STATUS_RECEIVED",
      "outputs": [
        {
          "internalType": "uint8",
          "name": "",
          "type": "uint8"
        }
      ],
      "stateMutability": "view",
      "type": "function"
    },
    {
      "inputs": [],
      "name": "OUTBOX_STATUS_SENT",
      "outputs": [
        {
          "internalType": "uint8",
          "name": "",
          "type": "uint8"
        }
      ],
      "stateMutability": "view",
      "type": "function"
    },
    {
      "inputs": [],
      "name": "OUTBOX_STATUS_UNKNOWN",
      "outputs": [
        {
          "internalType": "uint8",
          "name": "",
          "type": "uint8"
        }
      ],
      "stateMutability": "view",
      "type": "function"
    },
    {
      "inputs": [],
      "name": "PAUSE_MANAGER_ROLE",
      "outputs": [
        {
          "internalType": "bytes32",
          "name": "",
          "type": "bytes32"
        }
      ],
      "stateMutability": "view",
      "type": "function"
    },
    {
      "inputs": [],
      "name": "PROVING_SYSTEM_PAUSE_TYPE",
      "outputs": [
        {
          "internalType": "bytes32",
          "name": "",
          "type": "bytes32"
        }
      ],
      "stateMutability": "view",
      "type": "function"
    },
    {
      "inputs": [],
      "name": "RATE_LIMIT_SETTER_ROLE",
      "outputs": [
        {
          "internalType": "bytes32",
          "name": "",
          "type": "bytes32"
        }
      ],
      "stateMutability": "view",
      "type": "function"
    },
    {
      "inputs": [
        {
          "internalType": "address",
          "name": "_limitManagerAddress",
          "type": "address"
        },
        {
          "internalType": "address",
          "name": "_pauseManagerAddress",
          "type": "address"
        },
        {
          "internalType": "uint256",
          "name": "_rateLimitPeriod",
          "type": "uint256"
        },
        {
          "internalType": "uint256",
          "name": "_rateLimitAmount",
          "type": "uint256"
        }
      ],
      "name": "__MessageService_init",
      "outputs": [],
      "stateMutability": "nonpayable",
      "type": "function"
    },
    {
      "inputs": [
        {
          "internalType": "address",
          "name": "_from",
          "type": "address"
        },
        {
          "internalType": "address",
          "name": "_to",
          "type": "address"
        },
        {
          "internalType": "uint256",
          "name": "_fee",
          "type": "uint256"
        },
        {
          "internalType": "uint256",
          "name": "_value",
          "type": "uint256"
        },
        {
          "internalType": "address payable",
          "name": "_feeRecipient",
          "type": "address"
        },
        {
          "internalType": "bytes",
          "name": "_calldata",
          "type": "bytes"
        },
        {
          "internalType": "uint256",
          "name": "_nonce",
          "type": "uint256"
        }
      ],
      "name": "claimMessage",
      "outputs": [],
      "stateMutability": "nonpayable",
      "type": "function"
    },
    {
      "inputs": [],
      "name": "currentL2BlockNumber",
      "outputs": [
        {
          "internalType": "uint256",
          "name": "",
          "type": "uint256"
        }
      ],
      "stateMutability": "view",
      "type": "function"
    },
    {
      "inputs": [],
      "name": "currentPeriodAmountInWei",
      "outputs": [
        {
          "internalType": "uint256",
          "name": "",
          "type": "uint256"
        }
      ],
      "stateMutability": "view",
      "type": "function"
    },
    {
      "inputs": [],
      "name": "currentPeriodEnd",
      "outputs": [
        {
          "internalType": "uint256",
          "name": "",
          "type": "uint256"
        }
      ],
      "stateMutability": "view",
      "type": "function"
    },
    {
      "inputs": [],
      "name": "currentTimestamp",
      "outputs": [
        {
          "internalType": "uint256",
          "name": "",
          "type": "uint256"
        }
      ],
      "stateMutability": "view",
      "type": "function"
    },
    {
      "inputs": [
        {
          "components": [
            {
              "internalType": "bytes32",
              "name": "blockRootHash",
              "type": "bytes32"
            },
            {
              "internalType": "uint32",
              "name": "l2BlockTimestamp",
              "type": "uint32"
            },
            {
              "internalType": "bytes[]",
              "name": "transactions",
              "type": "bytes[]"
            },
            {
              "internalType": "bytes32[]",
              "name": "l2ToL1MsgHashes",
              "type": "bytes32[]"
            },
            {
              "internalType": "bytes",
              "name": "fromAddresses",
              "type": "bytes"
            },
            {
              "internalType": "uint16[]",
              "name": "batchReceptionIndices",
              "type": "uint16[]"
            }
          ],
          "internalType": "struct IZkEvmV2.BlockData[]",
          "name": "_blocksData",
          "type": "tuple[]"
        },
        {
          "internalType": "bytes",
          "name": "_proof",
          "type": "bytes"
        },
        {
          "internalType": "uint256",
          "name": "_proofType",
          "type": "uint256"
        },
        {
          "internalType": "bytes32",
          "name": "_parentStateRootHash",
          "type": "bytes32"
        }
      ],
      "name": "finalizeBlocks",
      "outputs": [],
      "stateMutability": "nonpayable",
      "type": "function"
    },
    {
      "inputs": [
        {
          "components": [
            {
              "internalType": "bytes32",
              "name": "blockRootHash",
              "type": "bytes32"
            },
            {
              "internalType": "uint32",
              "name": "l2BlockTimestamp",
              "type": "uint32"
            },
            {
              "internalType": "bytes[]",
              "name": "transactions",
              "type": "bytes[]"
            },
            {
              "internalType": "bytes32[]",
              "name": "l2ToL1MsgHashes",
              "type": "bytes32[]"
            },
            {
              "internalType": "bytes",
              "name": "fromAddresses",
              "type": "bytes"
            },
            {
              "internalType": "uint16[]",
              "name": "batchReceptionIndices",
              "type": "uint16[]"
            }
          ],
          "internalType": "struct IZkEvmV2.BlockData[]",
          "name": "_blocksData",
          "type": "tuple[]"
        }
      ],
      "name": "finalizeBlocksWithoutProof",
      "outputs": [],
      "stateMutability": "nonpayable",
      "type": "function"
    },
    {
      "inputs": [
        {
          "internalType": "bytes32",
          "name": "role",
          "type": "bytes32"
        }
      ],
      "name": "getRoleAdmin",
      "outputs": [
        {
          "internalType": "bytes32",
          "name": "",
          "type": "bytes32"
        }
      ],
      "stateMutability": "view",
      "type": "function"
    },
    {
      "inputs": [
        {
          "internalType": "bytes32",
          "name": "role",
          "type": "bytes32"
        },
        {
          "internalType": "address",
          "name": "account",
          "type": "address"
        }
      ],
      "name": "grantRole",
      "outputs": [],
      "stateMutability": "nonpayable",
      "type": "function"
    },
    {
      "inputs": [
        {
          "internalType": "bytes32",
          "name": "role",
          "type": "bytes32"
        },
        {
          "internalType": "address",
          "name": "account",
          "type": "address"
        }
      ],
      "name": "hasRole",
      "outputs": [
        {
          "internalType": "bool",
          "name": "",
          "type": "bool"
        }
      ],
      "stateMutability": "view",
      "type": "function"
    },
    {
      "inputs": [
        {
          "internalType": "bytes32",
          "name": "",
          "type": "bytes32"
        }
      ],
      "name": "inboxL2L1MessageStatus",
      "outputs": [
        {
          "internalType": "uint256",
          "name": "",
          "type": "uint256"
        }
      ],
      "stateMutability": "view",
      "type": "function"
    },
    {
      "inputs": [
        {
          "internalType": "bytes32",
          "name": "_initialStateRootHash",
          "type": "bytes32"
        },
        {
          "internalType": "uint256",
          "name": "_initialL2BlockNumber",
          "type": "uint256"
        },
        {
          "internalType": "address",
          "name": "_defaultVerifier",
          "type": "address"
        },
        {
          "internalType": "address",
          "name": "_securityCouncil",
          "type": "address"
        },
        {
          "internalType": "address[]",
          "name": "_operators",
          "type": "address[]"
        },
        {
          "internalType": "uint256",
          "name": "_rateLimitPeriodInSeconds",
          "type": "uint256"
        },
        {
          "internalType": "uint256",
          "name": "_rateLimitAmountInWei",
          "type": "uint256"
        }
      ],
      "name": "initialize",
      "outputs": [],
      "stateMutability": "nonpayable",
      "type": "function"
    },
    {
      "inputs": [],
      "name": "limitInWei",
      "outputs": [
        {
          "internalType": "uint256",
          "name": "",
          "type": "uint256"
        }
      ],
      "stateMutability": "view",
      "type": "function"
    },
    {
      "inputs": [],
      "name": "nextMessageNumber",
      "outputs": [
        {
          "internalType": "uint256",
          "name": "",
          "type": "uint256"
        }
      ],
      "stateMutability": "view",
      "type": "function"
    },
    {
      "inputs": [
        {
          "internalType": "bytes32",
          "name": "",
          "type": "bytes32"
        }
      ],
      "name": "outboxL1L2MessageStatus",
      "outputs": [
        {
          "internalType": "uint256",
          "name": "",
          "type": "uint256"
        }
      ],
      "stateMutability": "view",
      "type": "function"
    },
    {
      "inputs": [
        {
          "internalType": "bytes32",
          "name": "_pauseType",
          "type": "bytes32"
        }
      ],
      "name": "pauseByType",
      "outputs": [],
      "stateMutability": "nonpayable",
      "type": "function"
    },
    {
      "inputs": [
        {
          "internalType": "bytes32",
          "name": "",
          "type": "bytes32"
        }
      ],
      "name": "pauseTypeStatuses",
      "outputs": [
        {
          "internalType": "bool",
          "name": "",
          "type": "bool"
        }
      ],
      "stateMutability": "view",
      "type": "function"
    },
    {
      "inputs": [],
      "name": "periodInSeconds",
      "outputs": [
        {
          "internalType": "uint256",
          "name": "",
          "type": "uint256"
        }
      ],
      "stateMutability": "view",
      "type": "function"
    },
    {
      "inputs": [
        {
          "internalType": "bytes32",
          "name": "role",
          "type": "bytes32"
        },
        {
          "internalType": "address",
          "name": "account",
          "type": "address"
        }
      ],
      "name": "renounceRole",
      "outputs": [],
      "stateMutability": "nonpayable",
      "type": "function"
    },
    {
      "inputs": [],
      "name": "resetAmountUsedInPeriod",
      "outputs": [],
      "stateMutability": "nonpayable",
      "type": "function"
    },
    {
      "inputs": [
        {
          "internalType": "uint256",
          "name": "_amount",
          "type": "uint256"
        }
      ],
      "name": "resetRateLimitAmount",
      "outputs": [],
      "stateMutability": "nonpayable",
      "type": "function"
    },
    {
      "inputs": [
        {
          "internalType": "bytes32",
          "name": "role",
          "type": "bytes32"
        },
        {
          "internalType": "address",
          "name": "account",
          "type": "address"
        }
      ],
      "name": "revokeRole",
      "outputs": [],
      "stateMutability": "nonpayable",
      "type": "function"
    },
    {
      "inputs": [
        {
          "internalType": "address",
          "name": "_to",
          "type": "address"
        },
        {
          "internalType": "uint256",
          "name": "_fee",
          "type": "uint256"
        },
        {
          "internalType": "bytes",
          "name": "_calldata",
          "type": "bytes"
        }
      ],
      "name": "sendMessage",
      "outputs": [],
      "stateMutability": "payable",
      "type": "function"
    },
    {
      "inputs": [],
      "name": "sender",
      "outputs": [
        {
          "internalType": "address",
          "name": "",
          "type": "address"
        }
      ],
      "stateMutability": "view",
      "type": "function"
    },
    {
      "inputs": [
        {
          "internalType": "address",
          "name": "_newVerifierAddress",
          "type": "address"
        },
        {
          "internalType": "uint256",
          "name": "_proofType",
          "type": "uint256"
        }
      ],
      "name": "setVerifierAddress",
      "outputs": [],
      "stateMutability": "nonpayable",
      "type": "function"
    },
    {
      "inputs": [
        {
          "internalType": "uint256",
          "name": "",
          "type": "uint256"
        }
      ],
      "name": "stateRootHashes",
      "outputs": [
        {
          "internalType": "bytes32",
          "name": "",
          "type": "bytes32"
        }
      ],
      "stateMutability": "view",
      "type": "function"
    },
    {
      "inputs": [
        {
          "internalType": "bytes4",
          "name": "interfaceId",
          "type": "bytes4"
        }
      ],
      "name": "supportsInterface",
      "outputs": [
        {
          "internalType": "bool",
          "name": "",
          "type": "bool"
        }
      ],
      "stateMutability": "view",
      "type": "function"
    },
    {
      "inputs": [
        {
          "internalType": "bytes32",
          "name": "_pauseType",
          "type": "bytes32"
        }
      ],
      "name": "unPauseByType",
      "outputs": [],
      "stateMutability": "nonpayable",
      "type": "function"
    },
    {
      "inputs": [
        {
          "internalType": "uint256",
          "name": "",
          "type": "uint256"
        }
      ],
      "name": "verifiers",
      "outputs": [
        {
          "internalType": "address",
          "name": "",
          "type": "address"
        }
      ],
      "stateMutability": "view",
      "type": "function"
    },
    {
      "stateMutability": "payable",
      "type": "receive"
    }
  ],
  "bytecode": "0x60806040523480156200001157600080fd5b506200001c62000022565b620000e4565b600054610100900460ff16156200008f5760405162461bcd60e51b815260206004820152602760248201527f496e697469616c697a61626c653a20636f6e747261637420697320696e697469604482015266616c697a696e6760c81b606482015260840160405180910390fd5b60005460ff9081161015620000e2576000805460ff191660ff9081179091556040519081527f7f26b83ff96e1f2b6a682f133852f6798a09c465da95921460cefb38474024989060200160405180910390a15b565b612dab80620000f46000396000f3fe6080604052600436106102555760003560e01c80638be745d111610139578063b45a4f2c116100b6578063c1dc0f071161007a578063c1dc0f07146106fb578063c211697414610711578063cc5782f614610731578063d547741f14610761578063d84f91e814610781578063f512de17146107a357600080fd5b8063b45a4f2c14610659578063b4a5a4b714610679578063b837dbe9146106ad578063bf3e7505146106c3578063c0729ab1146106e557600080fd5b8063a217fddf116100fd578063a217fddf146105ae578063abd6230d146105c3578063ac1eff68146105f7578063ad422ff01461062e578063aea4f7451461064457600080fd5b80638be745d11461052d57806390dad3f61461055b57806391d148541461057b578063986fcddd146104f85780639f3ce55a1461059b57600080fd5b8063557eac73116101d2578063695378f511610196578063695378f51461048a5780636a637967146104a157806373bd07b7146104c35780637973ead6146104d85780637d1e8c55146104f85780638264bd821461050d57600080fd5b8063557eac73146103f557806358794456146104155780635b7eb4bd146103ae5780635c721a0c1461042b57806367e404ce1461045857600080fd5b806336568abe1161021957806336568abe146103415780633fc08b65146103615780634165d6dd1461038e57806348922ab7146103ae578063491e0936146103d557600080fd5b806301ffc9a71461026157806311314d0f146102965780631e2ff94f146102d8578063248a9ca3146102ef5780632f2ff15d1461031f57600080fd5b3661025c57005b600080fd5b34801561026d57600080fd5b5061028161027c3660046122af565b6107c3565b60405190151581526020015b60405180910390f35b3480156102a257600080fd5b506102ca7f9a80e24e463f00a8763c4dcec6a92d07d33272fa5db895d8589be70dccb002df81565b60405190815260200161028d565b3480156102e457600080fd5b506102ca6101185481565b3480156102fb57600080fd5b506102ca61030a3660046122d9565b60009081526065602052604090206001015490565b34801561032b57600080fd5b5061033f61033a366004612307565b6107fa565b005b34801561034d57600080fd5b5061033f61035c366004612307565b610824565b34801561036d57600080fd5b506102ca61037c3660046122d9565b60a56020526000908152604090205481565b34801561039a57600080fd5b5061033f6103a93660046123c3565b6108a7565b3480156103ba57600080fd5b506103c3600181565b60405160ff909116815260200161028d565b3480156103e157600080fd5b5061033f6103f0366004612440565b610998565b34801561040157600080fd5b5061033f6104103660046122d9565b610be4565b34801561042157600080fd5b506102ca60995481565b34801561043757600080fd5b506102ca6104463660046122d9565b60a66020526000908152604090205481565b34801561046457600080fd5b5060e5546001600160a01b03165b6040516001600160a01b03909116815260200161028d565b34801561049657600080fd5b506102ca6101195481565b3480156104ad57600080fd5b506102ca600080516020612d5683398151915281565b3480156104cf57600080fd5b506103c3600281565b3480156104e457600080fd5b5061033f6104f33660046124d5565b610c57565b34801561050457600080fd5b506103c3600081565b34801561051957600080fd5b5061033f6105283660046122d9565b610eab565b34801561053957600080fd5b506102ca6105483660046122d9565b61011a6020526000908152604090205481565b34801561056757600080fd5b5061033f61057636600461255f565b610f2a565b34801561058757600080fd5b50610281610596366004612307565b610f72565b61033f6105a93660046125a0565b610f9d565b3480156105ba57600080fd5b506102ca600081565b3480156105cf57600080fd5b506102ca7f21ea2f4fee4bcb623de15ac222ea5c1464307d884f23394b78ddc07f9c9c7cd881565b34801561060357600080fd5b506104726106123660046122d9565b61011b602052600090815260409020546001600160a01b031681565b34801561063a57600080fd5b506102ca60985481565b34801561065057600080fd5b5061033f6110ec565b34801561066557600080fd5b5061033f6106743660046122d9565b611136565b34801561068557600080fd5b506102ca7f3a56b1bd788a764cbd923badb6d0719f21f520455285bf6877e636d08708878d81565b3480156106b957600080fd5b506102ca60e45481565b3480156106cf57600080fd5b506102ca600080516020612d1683398151915281565b3480156106f157600080fd5b506102ca609a5481565b34801561070757600080fd5b506102ca60975481565b34801561071d57600080fd5b5061033f61072c3660046125fb565b61118b565b34801561073d57600080fd5b5061028161074c3660046122d9565b60d96020526000908152604090205460ff1681565b34801561076d57600080fd5b5061033f61077c366004612307565b6111ed565b34801561078d57600080fd5b506102ca600080516020612d3683398151915281565b3480156107af57600080fd5b5061033f6107be366004612627565b611212565b60006001600160e01b03198216637965db0b60e01b14806107f457506301ffc9a760e01b6001600160e01b03198316145b92915050565b60008281526065602052604090206001015461081581611302565b61081f838361130f565b505050565b6001600160a01b03811633146108995760405162461bcd60e51b815260206004820152602f60248201527f416363657373436f6e74726f6c3a2063616e206f6e6c792072656e6f756e636560448201526e103937b632b9903337b91039b2b63360891b60648201526084015b60405180910390fd5b6108a38282611395565b5050565b7f3a56b1bd788a764cbd923badb6d0719f21f520455285bf6877e636d08708878d6108d1816113fc565b600080516020612d568339815191526108e9816113fc565b7f97667070c54ef182b0f5858b034beac1b6f3089aa2d3188bb1e8929f4fa9b92961091381611302565b61011954600090815261011a602052604090205484146109465760405163756a618760e11b815260040160405180910390fd5b61098d898989898080601f0160208091040260200160405190810160405280939291908181526020018383808284376000920191909152508b92508a91506001905061142f565b505050505050505050565b7f21ea2f4fee4bcb623de15ac222ea5c1464307d884f23394b78ddc07f9c9c7cd86109c2816113fc565b600080516020612d568339815191526109da816113fc565b60008a8a8a8a878a8a6040516020016109f99796959493929190612696565b604051602081830303815290604052805190602001209050610a1a816118a6565b610a2c610a27898b6126f7565b611910565b8a60e560006101000a8154816001600160a01b0302191690836001600160a01b031602179055506000808b6001600160a01b03168a8989604051610a7192919061270a565b60006040518083038185875af1925050503d8060008114610aae576040519150601f19603f3d011682016040523d82523d6000602084013e610ab3565b606091505b509150915081610af157805115610acd5780518082602001fd5b604051635461344360e01b81526001600160a01b038d166004820152602401610890565b8a15610b945760006001600160a01b038a1615610b0e5789610b10565b335b90506000816001600160a01b03168d60405160006040518083038185875af1925050503d8060008114610b5f576040519150601f19603f3d011682016040523d82523d6000602084013e610b64565b606091505b5050905080610b915760405163295f137d60e21b81526001600160a01b0383166004820152602401610890565b50505b60e580546001600160a01b03191663075bcd1517905560405183907fa4c827e719e911e8f19393ccdb85b5102f08f0910604d340ba38390b7ff2ab0e90600090a250505050505050505050505050565b600080516020612d16833981519152610bfc81611302565b6000609a54831015610c115750609a82905560015b609883905560408051848152821515602082015233917f440c933246b3b8a09a72926c9c9e39fc72792cab783608a9eb59718e8d727736910160405180910390a2505050565b600054610100900460ff1615808015610c775750600054600160ff909116105b80610c915750303b158015610c91575060005460ff166001145b610cf45760405162461bcd60e51b815260206004820152602e60248201527f496e697469616c697a61626c653a20636f6e747261637420697320616c72656160448201526d191e481a5b9a5d1a585b1a5e995960921b6064820152608401610890565b6000805460ff191660011790558015610d17576000805461ff0019166101001790555b6001600160a01b038716610d3e576040516342bcdf7f60e11b815260040160405180910390fd5b60005b84811015610df1576000868683818110610d5d57610d5d61271a565b9050602002016020810190610d729190612730565b6001600160a01b031603610d99576040516342bcdf7f60e11b815260040160405180910390fd5b610de97f97667070c54ef182b0f5858b034beac1b6f3089aa2d3188bb1e8929f4fa9b929878784818110610dcf57610dcf61271a565b9050602002016020810190610de49190612730565b61130f565b600101610d41565b50610dfd60008761130f565b610e0986878585611212565b7f033d11f27e62ab919708ec716731da80d261a6e4253259b7acde9bf89d28ec1880546001600160a01b0319166001600160a01b038916179055610119889055600088815261011a60205260409020899055801561098d576000805461ff0019169055604051600181527f7f26b83ff96e1f2b6a682f133852f6798a09c465da95921460cefb38474024989060200160405180910390a1505050505050505050565b600080516020612d36833981519152610ec381611302565b600082815260d960205260409020805460ff191660011790557fc343aefb875672fb1857ecda2bdf9fa822ff1e924e3714f6a3d88c5199dee261610f043390565b604080516001600160a01b03909216825260208201859052015b60405180910390a15050565b600080516020612d56833981519152610f42816113fc565b6000610f4d81611302565b60408051600080825260208201909252610f6c9186918691808061142f565b50505050565b60009182526065602090815260408084206001600160a01b0393909316845291905290205460ff1690565b7f9a80e24e463f00a8763c4dcec6a92d07d33272fa5db895d8589be70dccb002df610fc7816113fc565b600080516020612d56833981519152610fdf816113fc565b6001600160a01b038616611006576040516342bcdf7f60e11b815260040160405180910390fd5b348511156110275760405163581db49960e11b815260040160405180910390fd5b60e45460006110368734612763565b9050600033898984868b8b6040516020016110579796959493929190612696565b6040516020818303038152906040528051906020012090506110788161196d565b60e4805490600061108883612776565b919050555080896001600160a01b0316336001600160a01b03167fe856c2b8bd4eb0027ce32eeaf595c21b0b6b4644b326e5b7bd80a1cf8db72e6c8b86888d8d6040516110d995949392919061278f565b60405180910390a4505050505050505050565b600080516020612d1683398151915261110481611302565b6000609a81905560405133917fba88c025b0cbb77022c0c487beef24f759f1e4be2f51a205bc427cee19c2eaa691a250565b600080516020612d3683398151915261114e81611302565b600082815260d960205260409020805460ff191690557fb54c82d9fabaaa460c07181bb36c08c0e72d79293e77a42ac273c81d2a54281b33610f04565b600061119681611302565b6001600160a01b0383166111bd576040516342bcdf7f60e11b815260040160405180910390fd5b50600090815261011b6020526040902080546001600160a01b0319166001600160a01b0392909216919091179055565b60008281526065602052604090206001015461120881611302565b61081f8383611395565b600054610100900460ff166112395760405162461bcd60e51b8152600401610890906127c0565b6001600160a01b038416611260576040516342bcdf7f60e11b815260040160405180910390fd5b6001600160a01b038316611287576040516342bcdf7f60e11b815260040160405180910390fd5b61128f6119a9565b6112976119a9565b61129f6119a9565b6112a76119d2565b6112b18282611a9f565b6112c9600080516020612d168339815191528561130f565b6112e1600080516020612d368339815191528461130f565b5050600160e455505060e580546001600160a01b03191663075bcd15179055565b61130c8133611afc565b50565b6113198282610f72565b6108a35760008281526065602090815260408083206001600160a01b03851684529091529020805460ff191660011790556113513390565b6001600160a01b0316816001600160a01b0316837f2f8788117e7eff1d82e926ec794901d17c78024a50270940304540a733656f0d60405160405180910390a45050565b61139f8282610f72565b156108a35760008281526065602090815260408083206001600160a01b0385168085529252808320805460ff1916905551339285917ff6391f5c32d9c69d2a47ea670b442974b53935d1edc7fd64eb21e047a839171b9190a45050565b600081815260d9602052604090205460ff161561130c57604051638698dd2b60e01b815260048101829052602401610890565b6101195460006114408260016126f7565b90506000876001600160401b0381111561145c5761145c61274d565b604051908082528060200260200182016040528015611485578160200160208202803683370190505b5090506000886001600160401b038111156114a2576114a261274d565b6040519080825280602002602001820160405280156114cb578160200160208202803683370190505b50905060006114db8a60016126f7565b6001600160401b038111156114f2576114f261274d565b60405190808252806020026020018201604052801561151b578160200160208202803683370190505b50905086816000815181106115325761153261271a565b60200260200101818152505060008060005b8c81101561175d57368e8e8381811061155f5761155f61271a565b9050602002810190611571919061280b565b905042611584604083016020840161282b565b63ffffffff16106115a857604051636a51840960e11b815260040160405180910390fd5b6115ca6115b86040830183612851565b6115c560a0850185612851565b611b55565b93506115e16115dc6060830183612851565b611d49565b92506115ec89612776565b600081815261011a60205260409020823590559850838361161060a0840184612851565b6040516020016116219291906128b1565b60408051601f19818403018152919052805160209091012061164660808501856128ec565b60405161165492919061270a565b6040519081900381206116829493929160200193845260208401929092526040830152606082015260800190565b604051602081830303815290604052805190602001208683815181106116aa576116aa61271a565b6020026020010181815250508060200160208101906116c9919061282b565b63ffffffff168783815181106116e1576116e161271a565b60209081029190910101528035856116fa8460016126f7565b8151811061170a5761170a61271a565b602002602001018181525050887ff2c535759092d16e9334a11dd9b52eca543f1d9cca5ba9d16c472aef009de432826000013560405161174c91815260200190565b60405180910390a250600101611544565b508c8c61176b600182612763565b81811061177a5761177a61271a565b905060200281019061178c919061280b565b61179d90604081019060200161282b565b63ffffffff16610118556101198790558715611897576118977f30644e72e131a029b85045b68181585d2833e84879b9709143e1f593f0000001856040516020016117e89190612932565b6040516020818303038152906040528051906020012088886040516020016118109190612932565b60405160208183030381529060405280519060200120876040516020016118379190612932565b60408051601f198184030181528282528051602091820120908301959095528101929092526060820152608081019190915260a0016040516020818303038152906040528051906020012060001c61188f9190612968565b8b8d8c611db0565b50505050505050505050505050565b600081815260a660205260409020546001146118d55760405163183d84dd60e31b815260040160405180910390fd5b600081815260a660205260408082208290555182917f153b3c379be3e821cf07d606a3f846c98854a41a186c7fd1c847fefea4b9e3ab91a250565b60004260995410156119335760975461192990426126f7565b6099555080611944565b81609a5461194191906126f7565b90505b6098548111156119675760405163a74c1c5f60e01b815260040160405180910390fd5b609a5550565b600081815260a56020526040808220600190555182917f4a0dccd26dfd7be2f620324276a8108db85f1e208722aaf46c8435558c11fdd891a250565b600054610100900460ff166119d05760405162461bcd60e51b8152600401610890906127c0565b565b600054610100900460ff166119f95760405162461bcd60e51b8152600401610890906127c0565b60d96020527f21ebe1c20d059c8774c0e58bbce5b1cf983d25acc658bc3997f122df6f662c55805460ff199081169091557fc5c091ed2065a971544d2cc0bbccb01ae404d8422e009c31f26a0c70d9645be38054821690557f3a56b1bd788a764cbd923badb6d0719f21f520455285bf6877e636d08708878d6000527fd84990ebe45eef6d1ceecd8559170012eef0b7fb3843366e2291288fcf2f788680549091169055565b81600003611ac05760405163b5ed5a3b60e01b815260040160405180910390fd5b80600003611ae15760405163d10d72bb60e01b815260040160405180910390fd5b60978290556098819055611af582426126f7565b6099555050565b611b068282610f72565b6108a357611b1381611f15565b611b1e836020611f27565b604051602001611b2f9291906129ae565b60408051601f198184030181529082905262461bcd60e51b825261089091600401612a4f565b600080846001600160401b03811115611b7057611b7061274d565b604051908082528060200260200182016040528015611b99578160200160208202803683370190505b5090506000859003611bbe57604051632266592760e21b815260040160405180910390fd5b60005b83811015611cab57611ca3611c9e73__$3fcab8f76a78db7bb598eb633343633225$__63258964468a8a8a8a88818110611bfd57611bfd61271a565b9050602002016020810190611c129190612a62565b61ffff16818110611c2557611c2561271a565b9050602002810190611c3791906128ec565b6040518363ffffffff1660e01b8152600401611c54929190612a7d565b600060405180830381865af4158015611c71573d6000803e3d6000fd5b505050506040513d6000823e601f3d908101601f19168201604052611c999190810190612ac9565b6120c9565b6120f6565b600101611bc1565b5060005b85811015611d1657868682818110611cc957611cc961271a565b9050602002810190611cdb91906128ec565b604051611ce992919061270a565b6040518091039020828281518110611d0357611d0361271a565b6020908102919091010152600101611caf565b5080604051602001611d289190612932565b60405160208183030381529060405280519060200120915050949350505050565b6000805b82811015611d7e57611d76848483818110611d6a57611d6a61271a565b905060200201356121ac565b600101611d4d565b508282604051602001611d92929190612b5c565b60405160208183030381529060405280519060200120905092915050565b604080516001808252818301909252600091602080830190803683370190505090508481600081518110611de657611de661271a565b602090810291909101810191909152600085815261011b90915260409020546001600160a01b031680611e2c576040516369ed70ab60e01b815260040160405180910390fd5b604051633f27bd4560e11b81526000906001600160a01b03831690637e4f7a8a90611e5d9088908790600401612b85565b6020604051808303816000875af1158015611e7c573d6000803e3d6000fd5b505050506040513d601f19601f82011682018060405250810190611ea09190612bdc565b905080611ec0576040516309bde33960e01b815260040160405180910390fd5b61011954600081815261011a6020908152604091829020548251888152918201527f5c885a794662ebe3b08ae0874fc2c88b5343b0223ba9cd2cad92b69c0d0c901f910160405180910390a250505050505050565b60606107f46001600160a01b03831660145b60606000611f36836002612bfe565b611f419060026126f7565b6001600160401b03811115611f5857611f5861274d565b6040519080825280601f01601f191660200182016040528015611f82576020820181803683370190505b509050600360fc1b81600081518110611f9d57611f9d61271a565b60200101906001600160f81b031916908160001a905350600f60fb1b81600181518110611fcc57611fcc61271a565b60200101906001600160f81b031916908160001a9053506000611ff0846002612bfe565b611ffb9060016126f7565b90505b6001811115612073576f181899199a1a9b1b9c1cb0b131b232b360811b85600f166010811061202f5761202f61271a565b1a60f81b8282815181106120455761204561271a565b60200101906001600160f81b031916908160001a90535060049490941c9361206c81612c15565b9050611ffe565b5083156120c25760405162461bcd60e51b815260206004820181905260248201527f537472696e67733a20686578206c656e67746820696e73756666696369656e746044820152606401610890565b9392505050565b60606120e38260048085516120de9190612763565b612218565b8060200190518101906107f49190612c2c565b805160005b8181101561217c5760008382815181106121175761211761271a565b602090810291909101810151600081815260a590925260409091205490915080612157576040516362a064c560e01b815260048101839052602401610890565b6002811461217257600082815260a560205260409020600290555b50506001016120fb565b507f95e84bb4317676921a29fd1d13f8f0153508473b899c12b3cd08314348801d6482604051610f1e9190612cd1565b600081815260a66020526040902054156121dc5760405163ee49e00160e01b815260048101829052602401610890565b600081815260a66020526040808220600190555182917f810484e22f73d8f099aaee1edb851ec6be6d84d43045d0a7803e5f7b3612edce91a250565b606060048451101561222957600080fd5b61223382846126f7565b8451101561224057600080fd5b8115801561225d57604051915060008252602082016040526122a7565b6040519150601f8316801560200281840101848101868315602002848a0101015b8183101561229657805183526020928301920161227e565b5050848452601f01601f1916604052505b509392505050565b6000602082840312156122c157600080fd5b81356001600160e01b0319811681146120c257600080fd5b6000602082840312156122eb57600080fd5b5035919050565b6001600160a01b038116811461130c57600080fd5b6000806040838503121561231a57600080fd5b82359150602083013561232c816122f2565b809150509250929050565b60008083601f84011261234957600080fd5b5081356001600160401b0381111561236057600080fd5b6020830191508360208260051b850101111561237b57600080fd5b9250929050565b60008083601f84011261239457600080fd5b5081356001600160401b038111156123ab57600080fd5b60208301915083602082850101111561237b57600080fd5b600080600080600080608087890312156123dc57600080fd5b86356001600160401b03808211156123f357600080fd5b6123ff8a838b01612337565b9098509650602089013591508082111561241857600080fd5b5061242589828a01612382565b979a9699509760408101359660609091013595509350505050565b60008060008060008060008060e0898b03121561245c57600080fd5b8835612467816122f2565b97506020890135612477816122f2565b965060408901359550606089013594506080890135612495816122f2565b935060a08901356001600160401b038111156124b057600080fd5b6124bc8b828c01612382565b999c989b50969995989497949560c00135949350505050565b60008060008060008060008060e0898b0312156124f157600080fd5b8835975060208901359650604089013561250a816122f2565b9550606089013561251a816122f2565b945060808901356001600160401b0381111561253557600080fd5b6125418b828c01612337565b999c989b5096999598969760a08701359660c0013595509350505050565b6000806020838503121561257257600080fd5b82356001600160401b0381111561258857600080fd5b61259485828601612337565b90969095509350505050565b600080600080606085870312156125b657600080fd5b84356125c1816122f2565b93506020850135925060408501356001600160401b038111156125e357600080fd5b6125ef87828801612382565b95989497509550505050565b6000806040838503121561260e57600080fd5b8235612619816122f2565b946020939093013593505050565b6000806000806080858703121561263d57600080fd5b8435612648816122f2565b93506020850135612658816122f2565b93969395505050506040820135916060013590565b81835281816020850137506000828201602090810191909152601f909101601f19169091010190565b600060018060a01b03808a16835280891660208401525086604083015285606083015284608083015260c060a08301526126d460c08301848661266d565b9998505050505050505050565b634e487b7160e01b600052601160045260246000fd5b808201808211156107f4576107f46126e1565b8183823760009101908152919050565b634e487b7160e01b600052603260045260246000fd5b60006020828403121561274257600080fd5b81356120c2816122f2565b634e487b7160e01b600052604160045260246000fd5b818103818111156107f4576107f46126e1565b600060018201612788576127886126e1565b5060010190565b8581528460208201528360408201526080606082015260006127b560808301848661266d565b979650505050505050565b6020808252602b908201527f496e697469616c697a61626c653a20636f6e7472616374206973206e6f74206960408201526a6e697469616c697a696e6760a81b606082015260800190565b6000823560be1983360301811261282157600080fd5b9190910192915050565b60006020828403121561283d57600080fd5b813563ffffffff811681146120c257600080fd5b6000808335601e1984360301811261286857600080fd5b8301803591506001600160401b0382111561288257600080fd5b6020019150600581901b360382131561237b57600080fd5b803561ffff811681146128ac57600080fd5b919050565b60008184825b858110156128e15761ffff6128cb8361289a565b16835260209283019291909101906001016128b7565b509095945050505050565b6000808335601e1984360301811261290357600080fd5b8301803591506001600160401b0382111561291d57600080fd5b60200191503681900382131561237b57600080fd5b815160009082906020808601845b8381101561295c57815185529382019390820190600101612940565b50929695505050505050565b60008261298557634e487b7160e01b600052601260045260246000fd5b500690565b60005b838110156129a557818101518382015260200161298d565b50506000910152565b7f416363657373436f6e74726f6c3a206163636f756e74200000000000000000008152600083516129e681601785016020880161298a565b7001034b99036b4b9b9b4b733903937b6329607d1b6017918401918201528351612a1781602884016020880161298a565b01602801949350505050565b60008151808452612a3b81602086016020860161298a565b601f01601f19169290920160200192915050565b6020815260006120c26020830184612a23565b600060208284031215612a7457600080fd5b6120c28261289a565b602081526000612a9160208301848661266d565b949350505050565b604051601f8201601f191681016001600160401b0381118282101715612ac157612ac161274d565b604052919050565b600060208284031215612adb57600080fd5b81516001600160401b0380821115612af257600080fd5b818401915084601f830112612b0657600080fd5b815181811115612b1857612b1861274d565b612b2b601f8201601f1916602001612a99565b9150808252856020828501011115612b4257600080fd5b612b5381602084016020860161298a565b50949350505050565b60006001600160fb1b03831115612b7257600080fd5b8260051b80858437919091019392505050565b604081526000612b986040830185612a23565b82810360208481019190915284518083528582019282019060005b81811015612bcf57845183529383019391830191600101612bb3565b5090979650505050505050565b600060208284031215612bee57600080fd5b815180151581146120c257600080fd5b80820281158282048414176107f4576107f46126e1565b600081612c2457612c246126e1565b506000190190565b60006020808385031215612c3f57600080fd5b82516001600160401b0380821115612c5657600080fd5b818501915085601f830112612c6a57600080fd5b815181811115612c7c57612c7c61274d565b8060051b9150612c8d848301612a99565b8181529183018401918481019088841115612ca757600080fd5b938501935b83851015612cc557845182529385019390850190612cac565b98975050505050505050565b6020808252825182820181905260009190848201906040850190845b81811015612d0957835183529284019291840191600101612ced565b5090969550505050505056fe1185e52d62bfbbea270e57d3d09733d221b53ab7a18bae82bb3c6c74bab16d82356a809dfdea9198dd76fb76bf6d403ecf13ea675eb89e1eda2db2c4a4676a2606193bb948d6b7a6fcbe51c193ccf2183bb5d979b6ae5d3a6971b8851461d3b0a2646970667358221220b911e5970d9f822dbc0960aaff6893a2e61b42292269c95bd0097ef9b558481164736f6c63430008130033",
  "linkReferences": {
    "contracts/messageService/lib/TransactionDecoder.sol": {
      "TransactionDecoder": [
        {
          "length": 20,
          "start": 7365
        }
      ]
    }
  },
  "deployedLinkReferences": {
    "contracts/messageService/lib/TransactionDecoder.sol": {
      "TransactionDecoder": [
        {
          "length": 20,
          "start": 7121
        }
      ]
    }
  }
}