{
  "_format": "hh-sol-artifact-1",
  "contractName": "YieldManager",
  "sourceName": "src/yield/YieldManager.sol",
  "abi": [
    {
      "inputs": [
        {
          "internalType": "address",
          "name": "_l1MessageService",
          "type": "address"
        }
      ],
      "stateMutability": "nonpayable",
      "type": "constructor"
    },
    {
      "inputs": [],
      "name": "AlreadyOssified",
      "type": "error"
    },
    {
      "inputs": [],
      "name": "BpsMoreThan10000",
      "type": "error"
    },
    {
      "inputs": [],
      "name": "DelegateCallFailed",
      "type": "error"
    },
    {
      "inputs": [
        {
          "internalType": "uint256",
          "name": "expected",
          "type": "uint256"
        },
        {
          "internalType": "uint256",
          "name": "actual",
          "type": "uint256"
        }
      ],
      "name": "InitializedVersionWrong",
      "type": "error"
    },
    {
      "inputs": [],
      "name": "InsufficientWithdrawalReserve",
      "type": "error"
    },
    {
      "inputs": [
        {
          "internalType": "enum IPauseManager.PauseType",
          "name": "pauseType",
          "type": "uint8"
        }
      ],
      "name": "IsNotPaused",
      "type": "error"
    },
    {
      "inputs": [
        {
          "internalType": "enum IPauseManager.PauseType",
          "name": "pauseType",
          "type": "uint8"
        }
      ],
      "name": "IsPaused",
      "type": "error"
    },
    {
      "inputs": [],
      "name": "L2YieldRecipientAlreadyAdded",
      "type": "error"
    },
    {
      "inputs": [],
      "name": "LSTWithdrawalExceedsYieldProviderFunds",
      "type": "error"
    },
    {
      "inputs": [],
      "name": "LSTWithdrawalNotAllowed",
      "type": "error"
    },
    {
      "inputs": [],
      "name": "NoAvailableFundsToReplenishWithdrawalReserve",
      "type": "error"
    },
    {
      "inputs": [],
      "name": "NoEthSent",
      "type": "error"
    },
    {
      "inputs": [],
      "name": "NoRequirementToUnstakePermissionless",
      "type": "error"
    },
    {
      "inputs": [
        {
          "internalType": "enum IPauseManager.PauseType",
          "name": "pauseType",
          "type": "uint8"
        }
      ],
      "name": "OnlySecurityCouncilCanUnpauseIndefinitePause",
      "type": "error"
    },
    {
      "inputs": [],
      "name": "OssificationAlreadyInitiated",
      "type": "error"
    },
    {
      "inputs": [],
      "name": "OssificationNotInitiated",
      "type": "error"
    },
    {
      "inputs": [
        {
          "internalType": "uint256",
          "name": "expiryEnd",
          "type": "uint256"
        }
      ],
      "name": "PauseNotExpired",
      "type": "error"
    },
    {
      "inputs": [],
      "name": "PauseTypeNotUsed",
      "type": "error"
    },
    {
      "inputs": [
        {
          "internalType": "uint256",
          "name": "cooldownEnd",
          "type": "uint256"
        }
      ],
      "name": "PauseUnavailableDueToCooldown",
      "type": "error"
    },
    {
      "inputs": [],
      "name": "ReentrantCall",
      "type": "error"
    },
    {
      "inputs": [],
      "name": "RolesNotDifferent",
      "type": "error"
    },
    {
      "inputs": [],
      "name": "SenderNotL1MessageService",
      "type": "error"
    },
    {
      "inputs": [
        {
          "internalType": "uint256",
          "name": "_validatorIndex",
          "type": "uint256"
        },
        {
          "internalType": "uint256",
          "name": "_lastProvenSlot",
          "type": "uint256"
        },
        {
          "internalType": "uint256",
          "name": "_slot",
          "type": "uint256"
        }
      ],
      "name": "SlotTooCloseToLastProvenSlot",
      "type": "error"
    },
    {
      "inputs": [],
      "name": "StakingAlreadyPaused",
      "type": "error"
    },
    {
      "inputs": [],
      "name": "StakingAlreadyUnpaused",
      "type": "error"
    },
    {
      "inputs": [],
      "name": "TargetReserveAmountMustBeAboveMinimum",
      "type": "error"
    },
    {
      "inputs": [],
      "name": "TargetReservePercentageMustBeAboveMinimum",
      "type": "error"
    },
    {
      "inputs": [],
      "name": "UnknownL2YieldRecipient",
      "type": "error"
    },
    {
      "inputs": [],
      "name": "UnknownYieldProvider",
      "type": "error"
    },
    {
      "inputs": [],
      "name": "UnpauseStakingForbiddenDuringPendingOssification",
      "type": "error"
    },
    {
      "inputs": [],
      "name": "UnpauseStakingForbiddenWithCurrentLSTLiability",
      "type": "error"
    },
    {
      "inputs": [
        {
          "internalType": "uint256",
          "name": "_unstakedAmountWei",
          "type": "uint256"
        },
        {
          "internalType": "uint256",
          "name": "_requiredUnstakeAmountWei",
          "type": "uint256"
        }
      ],
      "name": "UnstakedAmountExceedsRequired",
      "type": "error"
    },
    {
      "inputs": [],
      "name": "WithdrawalReserveNotInDeficit",
      "type": "error"
    },
    {
      "inputs": [],
      "name": "YieldProviderAlreadyAdded",
      "type": "error"
    },
    {
      "inputs": [
        {
          "internalType": "uint256",
          "name": "remainingUserFunds",
          "type": "uint256"
        }
      ],
      "name": "YieldProviderHasRemainingFunds",
      "type": "error"
    },
    {
      "inputs": [
        {
          "internalType": "uint256",
          "name": "index",
          "type": "uint256"
        },
        {
          "internalType": "uint256",
          "name": "count",
          "type": "uint256"
        }
      ],
      "name": "YieldProviderIndexOutOfBounds",
      "type": "error"
    },
    {
      "inputs": [],
      "name": "YieldProviderReturnedZeroUnstakeAmount",
      "type": "error"
    },
    {
      "inputs": [],
      "name": "ZeroAddressNotAllowed",
      "type": "error"
    },
    {
      "inputs": [],
      "name": "ZeroHashNotAllowed",
      "type": "error"
    },
    {
      "anonymous": false,
      "inputs": [
        {
          "indexed": false,
          "internalType": "uint8",
          "name": "version",
          "type": "uint8"
        }
      ],
      "name": "Initialized",
      "type": "event"
    },
    {
      "anonymous": false,
      "inputs": [
        {
          "indexed": false,
          "internalType": "address",
          "name": "l2YieldRecipient",
          "type": "address"
        }
      ],
      "name": "L2YieldRecipientAdded",
      "type": "event"
    },
    {
      "anonymous": false,
      "inputs": [
        {
          "indexed": false,
          "internalType": "address",
          "name": "l2YieldRecipient",
          "type": "address"
        }
      ],
      "name": "L2YieldRecipientRemoved",
      "type": "event"
    },
    {
      "anonymous": false,
      "inputs": [
        {
          "indexed": true,
          "internalType": "address",
          "name": "yieldProvider",
          "type": "address"
        },
        {
          "indexed": true,
          "internalType": "address",
          "name": "recipient",
          "type": "address"
        },
        {
          "indexed": false,
          "internalType": "uint256",
          "name": "amount",
          "type": "uint256"
        }
      ],
      "name": "LSTMinted",
      "type": "event"
    },
    {
      "anonymous": false,
      "inputs": [
        {
          "indexed": true,
          "internalType": "address",
          "name": "yieldProvider",
          "type": "address"
        },
        {
          "indexed": true,
          "internalType": "address",
          "name": "l2YieldRecipient",
          "type": "address"
        },
        {
          "indexed": false,
          "internalType": "uint256",
          "name": "yieldAmount",
          "type": "uint256"
        },
        {
          "indexed": false,
          "internalType": "uint256",
          "name": "outstandingNegativeYield",
          "type": "uint256"
        }
      ],
      "name": "NativeYieldReported",
      "type": "event"
    },
    {
      "anonymous": false,
      "inputs": [],
      "name": "NonSecurityCouncilCooldownEndReset",
      "type": "event"
    },
    {
      "anonymous": false,
      "inputs": [
        {
          "indexed": true,
          "internalType": "enum IPauseManager.PauseType",
          "name": "pauseType",
          "type": "uint8"
        },
        {
          "indexed": true,
          "internalType": "bytes32",
          "name": "role",
          "type": "bytes32"
        }
      ],
      "name": "PauseTypeRoleSet",
      "type": "event"
    },
    {
      "anonymous": false,
      "inputs": [
        {
          "indexed": true,
          "internalType": "enum IPauseManager.PauseType",
          "name": "pauseType",
          "type": "uint8"
        },
        {
          "indexed": true,
          "internalType": "bytes32",
          "name": "role",
          "type": "bytes32"
        },
        {
          "indexed": true,
          "internalType": "bytes32",
          "name": "previousRole",
          "type": "bytes32"
        }
      ],
      "name": "PauseTypeRoleUpdated",
      "type": "event"
    },
    {
      "anonymous": false,
      "inputs": [
        {
          "indexed": false,
          "internalType": "address",
          "name": "messageSender",
          "type": "address"
        },
        {
          "indexed": true,
          "internalType": "enum IPauseManager.PauseType",
          "name": "pauseType",
          "type": "uint8"
        }
      ],
      "name": "Paused",
      "type": "event"
    },
    {
      "anonymous": false,
      "inputs": [
        {
          "indexed": false,
          "internalType": "address",
          "name": "messageSender",
          "type": "address"
        },
        {
          "indexed": true,
          "internalType": "enum IPauseManager.PauseType",
          "name": "pauseType",
          "type": "uint8"
        }
      ],
      "name": "PausedIndefinitely",
      "type": "event"
    },
    {
      "anonymous": false,
      "inputs": [
        {
          "indexed": false,
          "internalType": "uint256",
          "name": "amount",
          "type": "uint256"
        }
      ],
      "name": "ReserveFundsReceived",
      "type": "event"
    },
    {
      "anonymous": false,
      "inputs": [
        {
          "indexed": true,
          "internalType": "bytes32",
          "name": "role",
          "type": "bytes32"
        },
        {
          "indexed": true,
          "internalType": "bytes32",
          "name": "previousAdminRole",
          "type": "bytes32"
        },
        {
          "indexed": true,
          "internalType": "bytes32",
          "name": "newAdminRole",
          "type": "bytes32"
        }
      ],
      "name": "RoleAdminChanged",
      "type": "event"
    },
    {
      "anonymous": false,
      "inputs": [
        {
          "indexed": true,
          "internalType": "bytes32",
          "name": "role",
          "type": "bytes32"
        },
        {
          "indexed": true,
          "internalType": "address",
          "name": "account",
          "type": "address"
        },
        {
          "indexed": true,
          "internalType": "address",
          "name": "sender",
          "type": "address"
        }
      ],
      "name": "RoleGranted",
      "type": "event"
    },
    {
      "anonymous": false,
      "inputs": [
        {
          "indexed": true,
          "internalType": "bytes32",
          "name": "role",
          "type": "bytes32"
        },
        {
          "indexed": true,
          "internalType": "address",
          "name": "account",
          "type": "address"
        },
        {
          "indexed": true,
          "internalType": "address",
          "name": "sender",
          "type": "address"
        }
      ],
      "name": "RoleRevoked",
      "type": "event"
    },
    {
      "anonymous": false,
      "inputs": [
        {
          "indexed": true,
          "internalType": "enum IPauseManager.PauseType",
          "name": "unPauseType",
          "type": "uint8"
        },
        {
          "indexed": true,
          "internalType": "bytes32",
          "name": "role",
          "type": "bytes32"
        }
      ],
      "name": "UnPauseTypeRoleSet",
      "type": "event"
    },
    {
      "anonymous": false,
      "inputs": [
        {
          "indexed": true,
          "internalType": "enum IPauseManager.PauseType",
          "name": "unPauseType",
          "type": "uint8"
        },
        {
          "indexed": true,
          "internalType": "bytes32",
          "name": "role",
          "type": "bytes32"
        },
        {
          "indexed": true,
          "internalType": "bytes32",
          "name": "previousRole",
          "type": "bytes32"
        }
      ],
      "name": "UnPauseTypeRoleUpdated",
      "type": "event"
    },
    {
      "anonymous": false,
      "inputs": [
        {
          "indexed": false,
          "internalType": "address",
          "name": "messageSender",
          "type": "address"
        },
        {
          "indexed": true,
          "internalType": "enum IPauseManager.PauseType",
          "name": "pauseType",
          "type": "uint8"
        }
      ],
      "name": "UnPaused",
      "type": "event"
    },
    {
      "anonymous": false,
      "inputs": [
        {
          "indexed": true,
          "internalType": "enum IPauseManager.PauseType",
          "name": "pauseType",
          "type": "uint8"
        }
      ],
      "name": "UnPausedDueToExpiry",
      "type": "event"
    },
    {
      "anonymous": false,
      "inputs": [
        {
          "indexed": true,
          "internalType": "address",
          "name": "yieldProvider",
          "type": "address"
        },
        {
          "indexed": true,
          "internalType": "uint64",
          "name": "validatorIndex",
          "type": "uint64"
        },
        {
          "indexed": true,
          "internalType": "uint64",
          "name": "slot",
          "type": "uint64"
        },
        {
          "indexed": false,
          "internalType": "uint256",
          "name": "requiredUnstakeAmount",
          "type": "uint256"
        },
        {
          "indexed": false,
          "internalType": "uint256",
          "name": "unstakedAmount",
          "type": "uint256"
        },
        {
          "indexed": false,
          "internalType": "bytes",
          "name": "withdrawalParams",
          "type": "bytes"
        }
      ],
      "name": "UnstakePermissionlessRequest",
      "type": "event"
    },
    {
      "anonymous": false,
      "inputs": [
        {
          "indexed": true,
          "internalType": "address",
          "name": "yieldProvider",
          "type": "address"
        },
        {
          "indexed": false,
          "internalType": "uint256",
          "name": "reserveIncrementAmount",
          "type": "uint256"
        },
        {
          "indexed": false,
          "internalType": "uint256",
          "name": "fromYieldManager",
          "type": "uint256"
        },
        {
          "indexed": false,
          "internalType": "uint256",
          "name": "fromYieldProvider",
          "type": "uint256"
        }
      ],
      "name": "WithdrawalReserveAugmented",
      "type": "event"
    },
    {
      "anonymous": false,
      "inputs": [
        {
          "indexed": false,
          "internalType": "uint256",
          "name": "oldMinimumWithdrawalReservePercentageBps",
          "type": "uint256"
        },
        {
          "indexed": false,
          "internalType": "uint256",
          "name": "oldMinimumWithdrawalReserveAmount",
          "type": "uint256"
        },
        {
          "indexed": false,
          "internalType": "uint256",
          "name": "oldTargetWithdrawalReservePercentageBps",
          "type": "uint256"
        },
        {
          "indexed": false,
          "internalType": "uint256",
          "name": "oldTargetWithdrawalReserveAmount",
          "type": "uint256"
        },
        {
          "indexed": false,
          "internalType": "uint256",
          "name": "newMinimumWithdrawalReservePercentageBps",
          "type": "uint256"
        },
        {
          "indexed": false,
          "internalType": "uint256",
          "name": "newMinimumWithdrawalReserveAmount",
          "type": "uint256"
        },
        {
          "indexed": false,
          "internalType": "uint256",
          "name": "newTargetWithdrawalReservePercentageBps",
          "type": "uint256"
        },
        {
          "indexed": false,
          "internalType": "uint256",
          "name": "newTargetWithdrawalReserveAmount",
          "type": "uint256"
        }
      ],
      "name": "WithdrawalReserveParametersSet",
      "type": "event"
    },
    {
      "anonymous": false,
      "inputs": [
        {
          "indexed": true,
          "internalType": "address",
          "name": "yieldProvider",
          "type": "address"
        },
        {
          "indexed": false,
          "internalType": "uint256",
          "name": "targetDeficit",
          "type": "uint256"
        },
        {
          "indexed": false,
          "internalType": "uint256",
          "name": "reserveIncrementAmount",
          "type": "uint256"
        },
        {
          "indexed": false,
          "internalType": "uint256",
          "name": "fromYieldManager",
          "type": "uint256"
        },
        {
          "indexed": false,
          "internalType": "uint256",
          "name": "fromYieldProvider",
          "type": "uint256"
        }
      ],
      "name": "WithdrawalReserveReplenished",
      "type": "event"
    },
    {
      "anonymous": false,
      "inputs": [
        {
          "indexed": false,
          "internalType": "address",
          "name": "l1MessageService",
          "type": "address"
        }
      ],
      "name": "YieldManagerDeployed",
      "type": "event"
    },
    {
      "anonymous": false,
      "inputs": [
        {
          "indexed": false,
          "internalType": "address[]",
          "name": "initialL2YieldRecipients",
          "type": "address[]"
        }
      ],
      "name": "YieldManagerInitialized",
      "type": "event"
    },
    {
      "anonymous": false,
      "inputs": [
        {
          "indexed": true,
          "internalType": "address",
          "name": "yieldProvider",
          "type": "address"
        },
        {
          "indexed": true,
          "internalType": "enum YieldProviderVendor",
          "name": "yieldProviderVendor",
          "type": "uint8"
        },
        {
          "indexed": false,
          "internalType": "address",
          "name": "primaryEntrypoint",
          "type": "address"
        },
        {
          "indexed": true,
          "internalType": "address",
          "name": "ossifiedEntrypoint",
          "type": "address"
        },
        {
          "indexed": false,
          "internalType": "uint256",
          "name": "usersFundsIncrement",
          "type": "uint256"
        }
      ],
      "name": "YieldProviderAdded",
      "type": "event"
    },
    {
      "anonymous": false,
      "inputs": [
        {
          "indexed": true,
          "internalType": "address",
          "name": "yieldProvider",
          "type": "address"
        },
        {
          "indexed": false,
          "internalType": "uint256",
          "name": "amount",
          "type": "uint256"
        }
      ],
      "name": "YieldProviderFunded",
      "type": "event"
    },
    {
      "anonymous": false,
      "inputs": [
        {
          "indexed": true,
          "internalType": "address",
          "name": "yieldProvider",
          "type": "address"
        }
      ],
      "name": "YieldProviderOssificationInitiated",
      "type": "event"
    },
    {
      "anonymous": false,
      "inputs": [
        {
          "indexed": true,
          "internalType": "address",
          "name": "yieldProvider",
          "type": "address"
        },
        {
          "indexed": false,
          "internalType": "enum ProgressOssificationResult",
          "name": "progressOssificationResult",
          "type": "uint8"
        }
      ],
      "name": "YieldProviderOssificationProcessed",
      "type": "event"
    },
    {
      "anonymous": false,
      "inputs": [
        {
          "indexed": true,
          "internalType": "address",
          "name": "yieldProvider",
          "type": "address"
        },
        {
          "indexed": false,
          "internalType": "bool",
          "name": "emergencyRemoval",
          "type": "bool"
        }
      ],
      "name": "YieldProviderRemoved",
      "type": "event"
    },
    {
      "anonymous": false,
      "inputs": [
        {
          "indexed": true,
          "internalType": "address",
          "name": "yieldProvider",
          "type": "address"
        }
      ],
      "name": "YieldProviderStakingPaused",
      "type": "event"
    },
    {
      "anonymous": false,
      "inputs": [
        {
          "indexed": true,
          "internalType": "address",
          "name": "yieldProvider",
          "type": "address"
        }
      ],
      "name": "YieldProviderStakingUnpaused",
      "type": "event"
    },
    {
      "anonymous": false,
      "inputs": [
        {
          "indexed": true,
          "internalType": "address",
          "name": "yieldProvider",
          "type": "address"
        },
        {
          "indexed": false,
          "internalType": "uint256",
          "name": "amountWithdrawn",
          "type": "uint256"
        },
        {
          "indexed": false,
          "internalType": "uint256",
          "name": "reserveIncrementAmount",
          "type": "uint256"
        }
      ],
      "name": "YieldProviderWithdrawal",
      "type": "event"
    },
    {
      "inputs": [],
      "name": "COOLDOWN_DURATION",
      "outputs": [
        {
          "internalType": "uint256",
          "name": "",
          "type": "uint256"
        }
      ],
      "stateMutability": "view",
      "type": "function"
    },
    {
      "inputs": [],
      "name": "DEFAULT_ADMIN_ROLE",
      "outputs": [
        {
          "internalType": "bytes32",
          "name": "",
          "type": "bytes32"
        }
      ],
      "stateMutability": "view",
      "type": "function"
    },
    {
      "inputs": [],
      "name": "L1_MESSAGE_SERVICE",
      "outputs": [
        {
          "internalType": "address",
          "name": "",
          "type": "address"
        }
      ],
      "stateMutability": "view",
      "type": "function"
    },
    {
      "inputs": [],
      "name": "OSSIFICATION_INITIATOR_ROLE",
      "outputs": [
        {
          "internalType": "bytes32",
          "name": "",
          "type": "bytes32"
        }
      ],
      "stateMutability": "view",
      "type": "function"
    },
    {
      "inputs": [],
      "name": "OSSIFICATION_PROCESSOR_ROLE",
      "outputs": [
        {
          "internalType": "bytes32",
          "name": "",
          "type": "bytes32"
        }
      ],
      "stateMutability": "view",
      "type": "function"
    },
    {
      "inputs": [],
      "name": "PAUSE_ALL_ROLE",
      "outputs": [
        {
          "internalType": "bytes32",
          "name": "",
          "type": "bytes32"
        }
      ],
      "stateMutability": "view",
      "type": "function"
    },
    {
      "inputs": [],
      "name": "PAUSE_DURATION",
      "outputs": [
        {
          "internalType": "uint256",
          "name": "",
          "type": "uint256"
        }
      ],
      "stateMutability": "view",
      "type": "function"
    },
    {
      "inputs": [],
      "name": "PAUSE_NATIVE_YIELD_DONATION_ROLE",
      "outputs": [
        {
          "internalType": "bytes32",
          "name": "",
          "type": "bytes32"
        }
      ],
      "stateMutability": "view",
      "type": "function"
    },
    {
      "inputs": [],
      "name": "PAUSE_NATIVE_YIELD_PERMISSIONLESS_ACTIONS_ROLE",
      "outputs": [
        {
          "internalType": "bytes32",
          "name": "",
          "type": "bytes32"
        }
      ],
      "stateMutability": "view",
      "type": "function"
    },
    {
      "inputs": [],
      "name": "PAUSE_NATIVE_YIELD_REPORTING_ROLE",
      "outputs": [
        {
          "internalType": "bytes32",
          "name": "",
          "type": "bytes32"
        }
      ],
      "stateMutability": "view",
      "type": "function"
    },
    {
      "inputs": [],
      "name": "PAUSE_NATIVE_YIELD_STAKING_ROLE",
      "outputs": [
        {
          "internalType": "bytes32",
          "name": "",
          "type": "bytes32"
        }
      ],
      "stateMutability": "view",
      "type": "function"
    },
    {
      "inputs": [],
      "name": "PAUSE_NATIVE_YIELD_UNSTAKING_ROLE",
      "outputs": [
        {
          "internalType": "bytes32",
          "name": "",
          "type": "bytes32"
        }
      ],
      "stateMutability": "view",
      "type": "function"
    },
    {
      "inputs": [],
      "name": "SECURITY_COUNCIL_ROLE",
      "outputs": [
        {
          "internalType": "bytes32",
          "name": "",
          "type": "bytes32"
        }
      ],
      "stateMutability": "view",
      "type": "function"
    },
    {
      "inputs": [],
      "name": "SET_L2_YIELD_RECIPIENT_ROLE",
      "outputs": [
        {
          "internalType": "bytes32",
          "name": "",
          "type": "bytes32"
        }
      ],
      "stateMutability": "view",
      "type": "function"
    },
    {
      "inputs": [],
      "name": "SET_YIELD_PROVIDER_ROLE",
      "outputs": [
        {
          "internalType": "bytes32",
          "name": "",
          "type": "bytes32"
        }
      ],
      "stateMutability": "view",
      "type": "function"
    },
    {
      "inputs": [],
      "name": "STAKING_PAUSE_CONTROLLER_ROLE",
      "outputs": [
        {
          "internalType": "bytes32",
          "name": "",
          "type": "bytes32"
        }
      ],
      "stateMutability": "view",
      "type": "function"
    },
    {
      "inputs": [],
      "name": "UNPAUSE_ALL_ROLE",
      "outputs": [
        {
          "internalType": "bytes32",
          "name": "",
          "type": "bytes32"
        }
      ],
      "stateMutability": "view",
      "type": "function"
    },
    {
      "inputs": [],
      "name": "UNPAUSE_NATIVE_YIELD_DONATION_ROLE",
      "outputs": [
        {
          "internalType": "bytes32",
          "name": "",
          "type": "bytes32"
        }
      ],
      "stateMutability": "view",
      "type": "function"
    },
    {
      "inputs": [],
      "name": "UNPAUSE_NATIVE_YIELD_PERMISSIONLESS_ACTIONS_ROLE",
      "outputs": [
        {
          "internalType": "bytes32",
          "name": "",
          "type": "bytes32"
        }
      ],
      "stateMutability": "view",
      "type": "function"
    },
    {
      "inputs": [],
      "name": "UNPAUSE_NATIVE_YIELD_REPORTING_ROLE",
      "outputs": [
        {
          "internalType": "bytes32",
          "name": "",
          "type": "bytes32"
        }
      ],
      "stateMutability": "view",
      "type": "function"
    },
    {
      "inputs": [],
      "name": "UNPAUSE_NATIVE_YIELD_STAKING_ROLE",
      "outputs": [
        {
          "internalType": "bytes32",
          "name": "",
          "type": "bytes32"
        }
      ],
      "stateMutability": "view",
      "type": "function"
    },
    {
      "inputs": [],
      "name": "UNPAUSE_NATIVE_YIELD_UNSTAKING_ROLE",
      "outputs": [
        {
          "internalType": "bytes32",
          "name": "",
          "type": "bytes32"
        }
      ],
      "stateMutability": "view",
      "type": "function"
    },
    {
      "inputs": [],
      "name": "WITHDRAWAL_RESERVE_SETTER_ROLE",
      "outputs": [
        {
          "internalType": "bytes32",
          "name": "",
          "type": "bytes32"
        }
      ],
      "stateMutability": "view",
      "type": "function"
    },
    {
      "inputs": [],
      "name": "YIELD_PROVIDER_STAKING_ROLE",
      "outputs": [
        {
          "internalType": "bytes32",
          "name": "",
          "type": "bytes32"
        }
      ],
      "stateMutability": "view",
      "type": "function"
    },
    {
      "inputs": [],
      "name": "YIELD_PROVIDER_UNSTAKER_ROLE",
      "outputs": [
        {
          "internalType": "bytes32",
          "name": "",
          "type": "bytes32"
        }
      ],
      "stateMutability": "view",
      "type": "function"
    },
    {
      "inputs": [],
      "name": "YIELD_REPORTER_ROLE",
      "outputs": [
        {
          "internalType": "bytes32",
          "name": "",
          "type": "bytes32"
        }
      ],
      "stateMutability": "view",
      "type": "function"
    },
    {
      "inputs": [
        {
          "internalType": "address",
          "name": "_l2YieldRecipient",
          "type": "address"
        }
      ],
      "name": "addL2YieldRecipient",
      "outputs": [],
      "stateMutability": "nonpayable",
      "type": "function"
    },
    {
      "inputs": [
        {
          "internalType": "address",
          "name": "_yieldProvider",
          "type": "address"
        },
        {
          "internalType": "bytes",
          "name": "_vendorInitializationData",
          "type": "bytes"
        }
      ],
      "name": "addYieldProvider",
      "outputs": [],
      "stateMutability": "nonpayable",
      "type": "function"
    },
    {
      "inputs": [
        {
          "internalType": "address",
          "name": "_yieldProvider",
          "type": "address"
        },
        {
          "internalType": "bytes",
          "name": "_vendorExitData",
          "type": "bytes"
        }
      ],
      "name": "emergencyRemoveYieldProvider",
      "outputs": [],
      "stateMutability": "nonpayable",
      "type": "function"
    },
    {
      "inputs": [
        {
          "internalType": "address",
          "name": "_yieldProvider",
          "type": "address"
        },
        {
          "internalType": "uint256",
          "name": "_amount",
          "type": "uint256"
        }
      ],
      "name": "fundYieldProvider",
      "outputs": [],
      "stateMutability": "nonpayable",
      "type": "function"
    },
    {
      "inputs": [],
      "name": "getEffectiveMinimumWithdrawalReserve",
      "outputs": [
        {
          "internalType": "uint256",
          "name": "minimumWithdrawalReserve",
          "type": "uint256"
        }
      ],
      "stateMutability": "view",
      "type": "function"
    },
    {
      "inputs": [],
      "name": "getEffectiveTargetWithdrawalReserve",
      "outputs": [
        {
          "internalType": "uint256",
          "name": "targetWithdrawalReserve",
          "type": "uint256"
        }
      ],
      "stateMutability": "view",
      "type": "function"
    },
    {
      "inputs": [],
      "name": "getMinimumReserveDeficit",
      "outputs": [
        {
          "internalType": "uint256",
          "name": "minimumReserveDeficit",
          "type": "uint256"
        }
      ],
      "stateMutability": "view",
      "type": "function"
    },
    {
      "inputs": [
        {
          "internalType": "bytes32",
          "name": "role",
          "type": "bytes32"
        }
      ],
      "name": "getRoleAdmin",
      "outputs": [
        {
          "internalType": "bytes32",
          "name": "",
          "type": "bytes32"
        }
      ],
      "stateMutability": "view",
      "type": "function"
    },
    {
      "inputs": [],
      "name": "getTargetReserveDeficit",
      "outputs": [
        {
          "internalType": "uint256",
          "name": "targetReserveDeficit",
          "type": "uint256"
        }
      ],
      "stateMutability": "view",
      "type": "function"
    },
    {
      "inputs": [],
      "name": "getTotalSystemBalance",
      "outputs": [
        {
          "internalType": "uint256",
          "name": "totalSystemBalance",
          "type": "uint256"
        }
      ],
      "stateMutability": "view",
      "type": "function"
    },
    {
      "inputs": [
        {
          "internalType": "address",
          "name": "_yieldProvider",
          "type": "address"
        }
      ],
      "name": "getYieldProviderData",
      "outputs": [
        {
          "components": [
            {
              "internalType": "enum YieldProviderVendor",
              "name": "yieldProviderVendor",
              "type": "uint8"
            },
            {
              "internalType": "bool",
              "name": "isStakingPaused",
              "type": "bool"
            },
            {
              "internalType": "bool",
              "name": "isOssificationInitiated",
              "type": "bool"
            },
            {
              "internalType": "bool",
              "name": "isOssified",
              "type": "bool"
            },
            {
              "internalType": "address",
              "name": "primaryEntrypoint",
              "type": "address"
            },
            {
              "internalType": "address",
              "name": "ossifiedEntrypoint",
              "type": "address"
            },
            {
              "internalType": "uint96",
              "name": "yieldProviderIndex",
              "type": "uint96"
            },
            {
              "internalType": "uint256",
              "name": "userFunds",
              "type": "uint256"
            },
            {
              "internalType": "uint256",
              "name": "yieldReportedCumulative",
              "type": "uint256"
            },
            {
              "internalType": "uint256",
              "name": "lstLiabilityPrincipal",
              "type": "uint256"
            },
            {
              "internalType": "uint256",
              "name": "lastReportedNegativeYield",
              "type": "uint256"
            }
          ],
          "internalType": "struct YieldManagerStorageLayout.YieldProviderStorage",
          "name": "yieldProviderData",
          "type": "tuple"
        }
      ],
      "stateMutability": "view",
      "type": "function"
    },
    {
      "inputs": [
        {
          "internalType": "bytes32",
          "name": "role",
          "type": "bytes32"
        },
        {
          "internalType": "address",
          "name": "account",
          "type": "address"
        }
      ],
      "name": "grantRole",
      "outputs": [],
      "stateMutability": "nonpayable",
      "type": "function"
    },
    {
      "inputs": [
        {
          "internalType": "bytes32",
          "name": "role",
          "type": "bytes32"
        },
        {
          "internalType": "address",
          "name": "account",
          "type": "address"
        }
      ],
      "name": "hasRole",
      "outputs": [
        {
          "internalType": "bool",
          "name": "",
          "type": "bool"
        }
      ],
      "stateMutability": "view",
      "type": "function"
    },
    {
      "inputs": [
        {
          "components": [
            {
              "components": [
                {
                  "internalType": "enum IPauseManager.PauseType",
                  "name": "pauseType",
                  "type": "uint8"
                },
                {
                  "internalType": "bytes32",
                  "name": "role",
                  "type": "bytes32"
                }
              ],
              "internalType": "struct IPauseManager.PauseTypeRole[]",
              "name": "pauseTypeRoles",
              "type": "tuple[]"
            },
            {
              "components": [
                {
                  "internalType": "enum IPauseManager.PauseType",
                  "name": "pauseType",
                  "type": "uint8"
                },
                {
                  "internalType": "bytes32",
                  "name": "role",
                  "type": "bytes32"
                }
              ],
              "internalType": "struct IPauseManager.PauseTypeRole[]",
              "name": "unpauseTypeRoles",
              "type": "tuple[]"
            },
            {
              "components": [
                {
                  "internalType": "address",
                  "name": "addressWithRole",
                  "type": "address"
                },
                {
                  "internalType": "bytes32",
                  "name": "role",
                  "type": "bytes32"
                }
              ],
              "internalType": "struct IPermissionsManager.RoleAddress[]",
              "name": "roleAddresses",
              "type": "tuple[]"
            },
            {
              "internalType": "address[]",
              "name": "initialL2YieldRecipients",
              "type": "address[]"
            },
            {
              "internalType": "address",
              "name": "defaultAdmin",
              "type": "address"
            },
            {
              "internalType": "uint16",
              "name": "initialMinimumWithdrawalReservePercentageBps",
              "type": "uint16"
            },
            {
              "internalType": "uint16",
              "name": "initialTargetWithdrawalReservePercentageBps",
              "type": "uint16"
            },
            {
              "internalType": "uint256",
              "name": "initialMinimumWithdrawalReserveAmount",
              "type": "uint256"
            },
            {
              "internalType": "uint256",
              "name": "initialTargetWithdrawalReserveAmount",
              "type": "uint256"
            }
          ],
          "internalType": "struct IYieldManager.YieldManagerInitializationData",
          "name": "_initializationData",
          "type": "tuple"
        }
      ],
      "name": "initialize",
      "outputs": [],
      "stateMutability": "nonpayable",
      "type": "function"
    },
    {
      "inputs": [
        {
          "internalType": "address",
          "name": "_yieldProvider",
          "type": "address"
        }
      ],
      "name": "initiateOssification",
      "outputs": [],
      "stateMutability": "nonpayable",
      "type": "function"
    },
    {
      "inputs": [
        {
          "internalType": "address",
          "name": "_l2YieldRecipient",
          "type": "address"
        }
      ],
      "name": "isL2YieldRecipientKnown",
      "outputs": [
        {
          "internalType": "bool",
          "name": "",
          "type": "bool"
        }
      ],
      "stateMutability": "view",
      "type": "function"
    },
    {
      "inputs": [
        {
          "internalType": "address",
          "name": "_yieldProvider",
          "type": "address"
        }
      ],
      "name": "isOssificationInitiated",
      "outputs": [
        {
          "internalType": "bool",
          "name": "isInitiated",
          "type": "bool"
        }
      ],
      "stateMutability": "view",
      "type": "function"
    },
    {
      "inputs": [
        {
          "internalType": "address",
          "name": "_yieldProvider",
          "type": "address"
        }
      ],
      "name": "isOssified",
      "outputs": [
        {
          "internalType": "bool",
          "name": "",
          "type": "bool"
        }
      ],
      "stateMutability": "view",
      "type": "function"
    },
    {
      "inputs": [
        {
          "internalType": "enum IPauseManager.PauseType",
          "name": "_pauseType",
          "type": "uint8"
        }
      ],
      "name": "isPaused",
      "outputs": [
        {
          "internalType": "bool",
          "name": "pauseTypeIsPaused",
          "type": "bool"
        }
      ],
      "stateMutability": "view",
      "type": "function"
    },
    {
      "inputs": [
        {
          "internalType": "address",
          "name": "_yieldProvider",
          "type": "address"
        }
      ],
      "name": "isStakingPaused",
      "outputs": [
        {
          "internalType": "bool",
          "name": "isPaused",
          "type": "bool"
        }
      ],
      "stateMutability": "view",
      "type": "function"
    },
    {
      "inputs": [],
      "name": "isWithdrawalReserveBelowMinimum",
      "outputs": [
        {
          "internalType": "bool",
          "name": "",
          "type": "bool"
        }
      ],
      "stateMutability": "view",
      "type": "function"
    },
    {
      "inputs": [
        {
          "internalType": "address",
          "name": "_yieldProvider",
          "type": "address"
        }
      ],
      "name": "isYieldProviderKnown",
      "outputs": [
        {
          "internalType": "bool",
          "name": "",
          "type": "bool"
        }
      ],
      "stateMutability": "view",
      "type": "function"
    },
    {
      "inputs": [
        {
          "internalType": "uint64",
          "name": "_validatorIndex",
          "type": "uint64"
        }
      ],
      "name": "lastProvenSlot",
      "outputs": [
        {
          "internalType": "uint64",
          "name": "lastProvenSlot",
          "type": "uint64"
        }
      ],
      "stateMutability": "view",
      "type": "function"
    },
    {
      "inputs": [],
      "name": "minimumWithdrawalReserveAmount",
      "outputs": [
        {
          "internalType": "uint256",
          "name": "",
          "type": "uint256"
        }
      ],
      "stateMutability": "view",
      "type": "function"
    },
    {
      "inputs": [],
      "name": "minimumWithdrawalReservePercentageBps",
      "outputs": [
        {
          "internalType": "uint256",
          "name": "",
          "type": "uint256"
        }
      ],
      "stateMutability": "view",
      "type": "function"
    },
    {
      "inputs": [],
      "name": "nonSecurityCouncilCooldownEnd",
      "outputs": [
        {
          "internalType": "uint256",
          "name": "",
          "type": "uint256"
        }
      ],
      "stateMutability": "view",
      "type": "function"
    },
    {
      "inputs": [
        {
          "internalType": "enum IPauseManager.PauseType",
          "name": "_pauseType",
          "type": "uint8"
        }
      ],
      "name": "pauseByType",
      "outputs": [],
      "stateMutability": "nonpayable",
      "type": "function"
    },
    {
      "inputs": [
        {
          "internalType": "address",
          "name": "_yieldProvider",
          "type": "address"
        }
      ],
      "name": "pauseStaking",
      "outputs": [],
      "stateMutability": "nonpayable",
      "type": "function"
    },
    {
      "inputs": [
        {
          "internalType": "enum IPauseManager.PauseType",
          "name": "pauseType",
          "type": "uint8"
        }
      ],
      "name": "pauseTypeExpiryTimestamps",
      "outputs": [
        {
          "internalType": "uint256",
          "name": "expiryTimestamp",
          "type": "uint256"
        }
      ],
      "stateMutability": "view",
      "type": "function"
    },
    {
      "inputs": [],
      "name": "pendingPermissionlessUnstake",
      "outputs": [
        {
          "internalType": "uint256",
          "name": "pendingUnstake",
          "type": "uint256"
        }
      ],
      "stateMutability": "view",
      "type": "function"
    },
    {
      "inputs": [
        {
          "internalType": "address",
          "name": "_yieldProvider",
          "type": "address"
        }
      ],
      "name": "progressPendingOssification",
      "outputs": [
        {
          "internalType": "enum ProgressOssificationResult",
          "name": "progressOssificationResult",
          "type": "uint8"
        }
      ],
      "stateMutability": "nonpayable",
      "type": "function"
    },
    {
      "inputs": [],
      "name": "receiveFundsFromReserve",
      "outputs": [],
      "stateMutability": "payable",
      "type": "function"
    },
    {
      "inputs": [
        {
          "internalType": "address",
          "name": "_l2YieldRecipient",
          "type": "address"
        }
      ],
      "name": "removeL2YieldRecipient",
      "outputs": [],
      "stateMutability": "nonpayable",
      "type": "function"
    },
    {
      "inputs": [
        {
          "internalType": "address",
          "name": "_yieldProvider",
          "type": "address"
        },
        {
          "internalType": "bytes",
          "name": "_vendorExitData",
          "type": "bytes"
        }
      ],
      "name": "removeYieldProvider",
      "outputs": [],
      "stateMutability": "nonpayable",
      "type": "function"
    },
    {
      "inputs": [
        {
          "internalType": "bytes32",
          "name": "role",
          "type": "bytes32"
        },
        {
          "internalType": "address",
          "name": "account",
          "type": "address"
        }
      ],
      "name": "renounceRole",
      "outputs": [],
      "stateMutability": "nonpayable",
      "type": "function"
    },
    {
      "inputs": [
        {
          "internalType": "address",
          "name": "_yieldProvider",
          "type": "address"
        }
      ],
      "name": "replenishWithdrawalReserve",
      "outputs": [],
      "stateMutability": "nonpayable",
      "type": "function"
    },
    {
      "inputs": [
        {
          "internalType": "address",
          "name": "_yieldProvider",
          "type": "address"
        },
        {
          "internalType": "address",
          "name": "_l2YieldRecipient",
          "type": "address"
        }
      ],
      "name": "reportYield",
      "outputs": [
        {
          "internalType": "uint256",
          "name": "newReportedYield",
          "type": "uint256"
        },
        {
          "internalType": "uint256",
          "name": "outstandingNegativeYield",
          "type": "uint256"
        }
      ],
      "stateMutability": "nonpayable",
      "type": "function"
    },
    {
      "inputs": [],
      "name": "resetNonSecurityCouncilCooldownEnd",
      "outputs": [],
      "stateMutability": "nonpayable",
      "type": "function"
    },
    {
      "inputs": [
        {
          "internalType": "bytes32",
          "name": "role",
          "type": "bytes32"
        },
        {
          "internalType": "address",
          "name": "account",
          "type": "address"
        }
      ],
      "name": "revokeRole",
      "outputs": [],
      "stateMutability": "nonpayable",
      "type": "function"
    },
    {
      "inputs": [
        {
          "internalType": "address",
          "name": "_yieldProvider",
          "type": "address"
        },
        {
          "internalType": "uint256",
          "name": "_amount",
          "type": "uint256"
        }
      ],
      "name": "safeAddToWithdrawalReserve",
      "outputs": [],
      "stateMutability": "nonpayable",
      "type": "function"
    },
    {
      "inputs": [
        {
          "internalType": "address",
          "name": "_yieldProvider",
          "type": "address"
        },
        {
          "internalType": "uint256",
          "name": "_amount",
          "type": "uint256"
        }
      ],
      "name": "safeWithdrawFromYieldProvider",
      "outputs": [],
      "stateMutability": "nonpayable",
      "type": "function"
    },
    {
      "inputs": [
        {
          "components": [
            {
              "internalType": "uint16",
              "name": "minimumWithdrawalReservePercentageBps",
              "type": "uint16"
            },
            {
              "internalType": "uint16",
              "name": "targetWithdrawalReservePercentageBps",
              "type": "uint16"
            },
            {
              "internalType": "uint256",
              "name": "minimumWithdrawalReserveAmount",
              "type": "uint256"
            },
            {
              "internalType": "uint256",
              "name": "targetWithdrawalReserveAmount",
              "type": "uint256"
            }
          ],
          "internalType": "struct IYieldManager.UpdateReserveParametersConfig",
          "name": "_params",
          "type": "tuple"
        }
      ],
      "name": "setWithdrawalReserveParameters",
      "outputs": [],
      "stateMutability": "nonpayable",
      "type": "function"
    },
    {
      "inputs": [
        {
          "internalType": "bytes4",
          "name": "interfaceId",
          "type": "bytes4"
        }
      ],
      "name": "supportsInterface",
      "outputs": [
        {
          "internalType": "bool",
          "name": "",
          "type": "bool"
        }
      ],
      "stateMutability": "view",
      "type": "function"
    },
    {
      "inputs": [],
      "name": "targetWithdrawalReserveAmount",
      "outputs": [
        {
          "internalType": "uint256",
          "name": "",
          "type": "uint256"
        }
      ],
      "stateMutability": "view",
      "type": "function"
    },
    {
      "inputs": [],
      "name": "targetWithdrawalReservePercentageBps",
      "outputs": [
        {
          "internalType": "uint256",
          "name": "",
          "type": "uint256"
        }
      ],
      "stateMutability": "view",
      "type": "function"
    },
    {
      "inputs": [
        {
          "internalType": "uint256",
          "name": "_amount",
          "type": "uint256"
        }
      ],
      "name": "transferFundsToReserve",
      "outputs": [],
      "stateMutability": "nonpayable",
      "type": "function"
    },
    {
      "inputs": [
        {
          "internalType": "enum IPauseManager.PauseType",
          "name": "_pauseType",
          "type": "uint8"
        }
      ],
      "name": "unPauseByExpiredType",
      "outputs": [],
      "stateMutability": "nonpayable",
      "type": "function"
    },
    {
      "inputs": [
        {
          "internalType": "enum IPauseManager.PauseType",
          "name": "_pauseType",
          "type": "uint8"
        }
      ],
      "name": "unPauseByType",
      "outputs": [],
      "stateMutability": "nonpayable",
      "type": "function"
    },
    {
      "inputs": [
        {
          "internalType": "address",
          "name": "_yieldProvider",
          "type": "address"
        }
      ],
      "name": "unpauseStaking",
      "outputs": [],
      "stateMutability": "nonpayable",
      "type": "function"
    },
    {
      "inputs": [
        {
          "internalType": "address",
          "name": "_yieldProvider",
          "type": "address"
        },
        {
          "internalType": "bytes",
          "name": "_withdrawalParams",
          "type": "bytes"
        }
      ],
      "name": "unstake",
      "outputs": [],
      "stateMutability": "payable",
      "type": "function"
    },
    {
      "inputs": [
        {
          "internalType": "address",
          "name": "_yieldProvider",
          "type": "address"
        },
        {
          "internalType": "uint64",
          "name": "_validatorIndex",
          "type": "uint64"
        },
        {
          "internalType": "uint64",
          "name": "_slot",
          "type": "uint64"
        },
        {
          "internalType": "bytes",
          "name": "_withdrawalParams",
          "type": "bytes"
        },
        {
          "internalType": "bytes",
          "name": "_withdrawalParamsProof",
          "type": "bytes"
        }
      ],
      "name": "unstakePermissionless",
      "outputs": [],
      "stateMutability": "payable",
      "type": "function"
    },
    {
      "inputs": [
        {
          "internalType": "enum IPauseManager.PauseType",
          "name": "_pauseType",
          "type": "uint8"
        },
        {
          "internalType": "bytes32",
          "name": "_newRole",
          "type": "bytes32"
        }
      ],
      "name": "updatePauseTypeRole",
      "outputs": [],
      "stateMutability": "nonpayable",
      "type": "function"
    },
    {
      "inputs": [
        {
          "internalType": "enum IPauseManager.PauseType",
          "name": "_pauseType",
          "type": "uint8"
        },
        {
          "internalType": "bytes32",
          "name": "_newRole",
          "type": "bytes32"
        }
      ],
      "name": "updateUnpauseTypeRole",
      "outputs": [],
      "stateMutability": "nonpayable",
      "type": "function"
    },
    {
      "inputs": [
        {
          "internalType": "address",
          "name": "_yieldProvider",
          "type": "address"
        }
      ],
      "name": "userFunds",
      "outputs": [
        {
          "internalType": "uint256",
          "name": "funds",
          "type": "uint256"
        }
      ],
      "stateMutability": "view",
      "type": "function"
    },
    {
      "inputs": [],
      "name": "userFundsInYieldProvidersTotal",
      "outputs": [
        {
          "internalType": "uint256",
          "name": "totalUserFunds",
          "type": "uint256"
        }
      ],
      "stateMutability": "view",
      "type": "function"
    },
    {
      "inputs": [
        {
          "internalType": "address",
          "name": "_yieldProvider",
          "type": "address"
        },
        {
          "internalType": "uint256",
          "name": "_amount",
          "type": "uint256"
        },
        {
          "internalType": "address",
          "name": "_recipient",
          "type": "address"
        }
      ],
      "name": "withdrawLST",
      "outputs": [],
      "stateMutability": "nonpayable",
      "type": "function"
    },
    {
      "inputs": [
        {
          "internalType": "address",
          "name": "_yieldProvider",
          "type": "address"
        }
      ],
      "name": "withdrawableValue",
      "outputs": [
        {
          "internalType": "uint256",
          "name": "withdrawableAmount",
          "type": "uint256"
        }
      ],
      "stateMutability": "nonpayable",
      "type": "function"
    },
    {
      "inputs": [
        {
          "internalType": "uint256",
          "name": "_index",
          "type": "uint256"
        }
      ],
      "name": "yieldProviderByIndex",
      "outputs": [
        {
          "internalType": "address",
          "name": "yieldProvider",
          "type": "address"
        }
      ],
      "stateMutability": "view",
      "type": "function"
    },
    {
      "inputs": [],
      "name": "yieldProviderCount",
      "outputs": [
        {
          "internalType": "uint256",
          "name": "count",
          "type": "uint256"
        }
      ],
      "stateMutability": "view",
      "type": "function"
    },
    {
      "stateMutability": "payable",
      "type": "receive"
    }
  ],
  "bytecode": "0x60a060405234801561000f575f5ffd5b50604051615de6380380615de683398101604081905261002e9161016d565b61003781610087565b6001600160a01b03811660808190526040519081527f5811da60c602bb9ef84bac5275ba6d164a800280efd06c2b3a84347d350c2a149060200160405180910390a16100816100b1565b5061019a565b6001600160a01b0381166100ae576040516342bcdf7f60e11b815260040160405180910390fd5b50565b5f54610100900460ff161561011c5760405162461bcd60e51b815260206004820152602760248201527f496e697469616c697a61626c653a20636f6e747261637420697320696e697469604482015266616c697a696e6760c81b606482015260840160405180910390fd5b5f5460ff9081161461016b575f805460ff191660ff9081179091556040519081527f7f26b83ff96e1f2b6a682f133852f6798a09c465da95921460cefb38474024989060200160405180910390a15b565b5f6020828403121561017d575f5ffd5b81516001600160a01b0381168114610193575f5ffd5b9392505050565b608051615c0a6101dc5f395f8181610a0f01528181611c4901528181611c890152818161272501528181613574015281816149620152614d450152615c0a5ff3fe60806040526004361061058d575f3560e01c80638d9607d1116102da578063ba3ad6fc11610186578063d8335f75116100dc578063e5d32b3511610092578063f3c18c991161006d578063f3c18c9914611228578063f48ca4e414611247578063fd16bd6714611266575f5ffd5b8063e5d32b3514611166578063e9089c3f146111d6578063ef8cf92d14611209575f5ffd5b8063d9fe8bdd116100c2578063d9fe8bdd14611113578063de8585d414611128578063e196fb5d14611147575f5ffd5b8063d8335f75146110eb578063d99d3907146110ff575f5ffd5b8063c4911bd21161013c578063d377685011610117578063d377685014611043578063d4b93dfd14611099578063d547741f146110cc575f5ffd5b8063c4911bd214610fd2578063c69345fe14610ff1578063d24ef86f14611010575f5ffd5b8063bc74dd661161016c578063bc74dd6614610f38578063bd93e85d14610f6b578063c102f8d414610f9e575f5ffd5b8063ba3ad6fc14610f05578063bc61e73314610f19575f5ffd5b80639ac25d081161023b578063ad5117c9116101f1578063b078f1f8116101cc578063b078f1f814610e9f578063b3122e8014610eb3578063b9fe5cf714610ed2575f5ffd5b8063ad5117c914610e1a578063ad783b3514610e4d578063adf26c4514610e6c575f5ffd5b8063a875a3aa11610221578063a875a3aa14610d88578063a92d95d414610db4578063abcaae6514610de7575f5ffd5b80639ac25d0814610d42578063a217fddf14610d75575f5ffd5b806393f0bbfa116102905780639603fc34116102765780639603fc3414610cb8578063969673de14610ce457806396e6e4b314610d17575f5ffd5b806393f0bbfa14610c6657806395ba81fa14610c99575f5ffd5b806391d14854116102c057806391d1485414610bd0578063923fe89414610c1457806393c34bc714610c47575f5ffd5b80638d9607d114610b9d5780638fdb484314610bb1575f5ffd5b80633e9ebfc21161043957806369bd096e1161039a5780637174c55911610350578063779c03fc1161032b578063779c03fc14610b435780637ab19c1014610b765780638387c6e114610b7e575f5ffd5b80637174c55914610ac9578063736d90f514610afc57806376df1ecc14610b2f575f5ffd5b80636ae925f6116103805780636ae925f614610a645780636cd6ad4814610a775780637030db9114610aaa575f5ffd5b806369bd096e146109fe5780636a906b8014610a31575f5ffd5b8063500f6b2e116103ef5780635c7bb163116103d55780635c7bb163146109cc5780635ec775b01461070c5780636456e114146109eb575f5ffd5b8063500f6b2e1461099957806352abf32d146109ad575f5ffd5b806347619a511161041f57806347619a51146109145780634de37565146109475780634ed5bdda14610966575f5ffd5b80633e9ebfc2146108d657806345cde34d146108f5575f5ffd5b806323795508116104ee57806335ecaae2116104a45780633a4952a31161047f5780633a4952a3146108745780633c0a520c146108935780633e4903b7146108b7575f5ffd5b806335ecaae21461080357806336568abe1461083657806339e41a8814610855575f5ffd5b806327de5c6d116104d457806327de5c6d146107875780632f2ff15d146107ba57806335171617146107d9575f5ffd5b80632379550814610722578063248a9ca314610759575f5ffd5b80631065a399116105435780631e8199d5116105295780631e8199d5146106c55780632014c077146106f857806321b4deee1461070c575f5ffd5b80631065a399146106875780631af31a23146106a6575f5ffd5b8063057cf09a11610573578063057cf09a146105f4578063085b1c6f146106135780630a5d959714610654575f5ffd5b806301c9fcd0146105a157806301ffc9a7146105c0575f5ffd5b3661059d5761059b34611285565b005b5f5ffd5b3480156105ac575f5ffd5b5061059b6105bb366004615205565b6112cd565b3480156105cb575f5ffd5b506105df6105da36600461522f565b611360565b60405190151581526020015b60405180910390f35b3480156105ff575f5ffd5b5061059b61060e3660046152c4565b611396565b34801561061e575f5ffd5b506106467f220bd22ef7c53d75fe3eac0a09e90815a0c5ba4f9e8da8b039542cd3db34725881565b6040519081526020016105eb565b34801561065f575f5ffd5b506106467f393d2e95deba7a477d5535948d830f9760a4cec17bbb245b27328519bc352f8681565b348015610692575f5ffd5b5061059b6106a136600461537e565b611441565b3480156106b1575f5ffd5b5061059b6106c0366004615397565b61160b565b3480156106d0575f5ffd5b506106467f32026462812ef90f03ebdf4117c1e143d38ab0e31e1266d4e8bd348c28ee2aa581565b348015610703575f5ffd5b506106466118e5565b348015610717575f5ffd5b506106466202a30081565b34801561072d575f5ffd5b5061074161073c3660046153cf565b6118f5565b6040516001600160a01b0390911681526020016105eb565b348015610764575f5ffd5b506106466107733660046153cf565b5f9081526065602052604090206001015490565b348015610792575f5ffd5b506106467fb2beb5add702c942d127a2f73a7875a5c9640458f3535d68cbf03ba940bd0fab81565b3480156107c5575f5ffd5b5061059b6107d43660046153e6565b611999565b3480156107e4575f5ffd5b505f516020615bb55f395f51905f525462010000900461ffff16610646565b34801561080e575f5ffd5b506106467f4bfab1661ce1ffeb4b53fc15e3fd6e7ae742e97d90ba229951fcc314e10f05d981565b348015610841575f5ffd5b5061059b6108503660046153e6565b6119c2565b348015610860575f5ffd5b5061059b61086f366004615414565b611a4a565b34801561087f575f5ffd5b5061064661088e366004615414565b611b40565b34801561089e575f5ffd5b505f516020615bb55f395f51905f525461ffff16610646565b3480156108c2575f5ffd5b5061059b6108d136600461542f565b611c0c565b3480156108e1575f5ffd5b5061059b6108f036600461546e565b611e8d565b348015610900575f5ffd5b506105df61090f366004615414565b611fba565b34801561091f575f5ffd5b506106467f58cd6cd2c63b9e5685aee547419caac3d1184e3aeb3ed7c8b63ec61cda1e27e081565b348015610952575f5ffd5b506105df610961366004615414565b612013565b348015610971575f5ffd5b506106467fc7320f8b3278900bd319b3ad770ea73ce548c217978874599400e3b17e120c1981565b3480156109a4575f5ffd5b5061064661206b565b3480156109b8575f5ffd5b5061059b6109c736600461546e565b612075565b3480156109d7575f5ffd5b5061059b6109e6366004615205565b6121a2565b61059b6109f93660046152c4565b612335565b348015610a09575f5ffd5b506107417f000000000000000000000000000000000000000000000000000000000000000081565b348015610a3c575f5ffd5b506106467fd8b4c34c2ec1f3194471108c64ad2beda340c0337ee4ca35592f9ef270f4228b81565b61059b610a723660046154e4565b6123df565b348015610a82575f5ffd5b506106467fdeffd8054a76b73eb83e6ecf8d06a4e7af5aae3149b7863aed86d69dc1fea96781565b348015610ab5575f5ffd5b506105df610ac4366004615414565b612667565b348015610ad4575f5ffd5b506106467f4b4665d8754e6ea0608430ef3e91c1b45c72aafe8800e289cd35f38d8536185881565b348015610b07575f5ffd5b506106467fb05f5f3bc6b24add2de79f85477c2f0351f8e8a2209394f90c9e1c6c7e540c7981565b348015610b3a575f5ffd5b5061059b6126c1565b348015610b4e575f5ffd5b507fdc1272075efdca0b85fb2d76cbb5f26d954dc18e040d6d0b67071bd5cbd0430354610646565b61059b61271a565b348015610b89575f5ffd5b50610646610b98366004615414565b6127be565b348015610ba8575f5ffd5b50610646612811565b348015610bbc575f5ffd5b5061059b610bcb3660046152c4565b61281b565b348015610bdb575f5ffd5b506105df610bea3660046153e6565b5f9182526065602090815260408084206001600160a01b0393909316845291905290205460ff1690565b348015610c1f575f5ffd5b506106467fcc10d6eec3c757d645e27b3f3001a3ba52f692da0bce25fabf58c6ecaf37645081565b348015610c52575f5ffd5b5061059b610c61366004615414565b612bc3565b348015610c71575f5ffd5b507fdc1272075efdca0b85fb2d76cbb5f26d954dc18e040d6d0b67071bd5cbd0430454610646565b348015610ca4575f5ffd5b5061059b610cb336600461537e565b612d26565b348015610cc3575f5ffd5b50610cd7610cd2366004615414565b612ea0565b6040516105eb919061559a565b348015610cef575f5ffd5b506106467f9ef55ee0235bd9abf16b2b7865531896bd633b74155b6c1d064d0402f2d1b3c881565b348015610d22575f5ffd5b50610646610d3136600461537e565b609c6020525f908152604090205481565b348015610d4d575f5ffd5b506106467f56bdc3c9ec86cb7db110a7699b2ade72f0b8819727d9f7d906b012641505fa7781565b348015610d80575f5ffd5b506106465f81565b348015610d93575f5ffd5b50610da7610da2366004615414565b61303a565b6040516105eb91906155c8565b348015610dbf575f5ffd5b506106467f7961622440af20a7a00804174e730d12d511766368df55fbaf2d698ffa1d421681565b348015610df2575f5ffd5b506106467f06c421ad716396bcfdef0d016c4820d40cf7f6fbcb79641777bac5e94c752f3d81565b348015610e25575f5ffd5b507fdc1272075efdca0b85fb2d76cbb5f26d954dc18e040d6d0b67071bd5cbd0430254610646565b348015610e58575f5ffd5b5061059b610e67366004615414565b6131ad565b348015610e77575f5ffd5b507fdc1272075efdca0b85fb2d76cbb5f26d954dc18e040d6d0b67071bd5cbd0430154610646565b348015610eaa575f5ffd5b506106466132ac565b348015610ebe575f5ffd5b5061059b610ecd3660046152c4565b6132cd565b348015610edd575f5ffd5b506106467f1453a531db80c85f2d944d498709d84959bc5bf839eefe9acb784571e5a3211881565b348015610f10575f5ffd5b506105df613352565b348015610f24575f5ffd5b506105df610f3336600461537e565b613361565b348015610f43575f5ffd5b506106467fa980ae8105ebca8c4bda1143caefa4ff96b61271718a11b7239cdb9eabfc7e2781565b348015610f76575f5ffd5b506106467f9b6f6cc60cc992c1b2dbfe3564c7159c78b4c15a858781972f9be245ab0a796281565b348015610fa9575f5ffd5b50610fbd610fb83660046156a1565b613385565b604080519283526020830191909152016105eb565b348015610fdd575f5ffd5b5061059b610fec366004615414565b613621565b348015610ffc575f5ffd5b5061059b61100b3660046156de565b61379d565b34801561101b575f5ffd5b506106467f1208ee08ba851b41059d729bfba4fffc3a98c2b6d121e3cf0db274417dea3d7081565b34801561104e575f5ffd5b506105df61105d366004615414565b6001600160a01b03165f9081527fdc1272075efdca0b85fb2d76cbb5f26d954dc18e040d6d0b67071bd5cbd04306602052604090205460ff1690565b3480156110a4575f5ffd5b506106467fedd66f6e9b5c4d0e97b7d84abd332823333b4210446a6cb917983caefd08314381565b3480156110d7575f5ffd5b5061059b6110e63660046153e6565b6137d0565b3480156110f6575f5ffd5b506106466137f4565b34801561110a575f5ffd5b506106466137fe565b34801561111e575f5ffd5b50610646609b5481565b348015611133575f5ffd5b5061059b6111423660046153cf565b61382e565b348015611152575f5ffd5b5061059b61116136600461537e565b61386c565b348015611171575f5ffd5b506111bd611180366004615731565b67ffffffffffffffff9081165f9081527fdc1272075efdca0b85fb2d76cbb5f26d954dc18e040d6d0b67071bd5cbd0430860205260409020541690565b60405167ffffffffffffffff90911681526020016105eb565b3480156111e1575f5ffd5b506106467ff3b4edd31d82596b9f4e954680c4101d115ae7609dd7c1e14a6fdb7387f56e5c81565b348015611214575f5ffd5b5061059b611223366004615414565b613b42565b348015611233575f5ffd5b5061059b611242366004615414565b613be6565b348015611252575f5ffd5b5061059b611261366004615205565b613e26565b348015611271575f5ffd5b506105df611280366004615414565b613ea1565b7fdc1272075efdca0b85fb2d76cbb5f26d954dc18e040d6d0b67071bd5cbd04304545f516020615bb55f395f51905f52906112c08184613ee1565b8260040181905550505050565b600a6112d881613f00565b826112e281613ea1565b6112ff5760405163135e88fb60e31b815260040160405180910390fd5b7f1208ee08ba851b41059d729bfba4fffc3a98c2b6d121e3cf0db274417dea3d7061132981613f60565b611333855f613f6d565b611359856113544761134489611b40565b61134e919061575e565b87613fbf565b613fd4565b5050505050565b5f6001600160e01b03198216637965db0b60e01b148061139057506301ffc9a760e01b6001600160e01b03198316145b92915050565b816113a081613ea1565b6113bd5760405163135e88fb60e31b815260040160405180910390fd5b7f4bfab1661ce1ffeb4b53fc15e3fd6e7ae742e97d90ba229951fcc314e10f05d96113e781613f60565b6001600160a01b0384165f9081525f516020615b955f395f51905f52602052604090206002015480156114355760405163b66d3e0360e01b8152600481018290526024015b60405180910390fd5b61135985855f846140b2565b805f81600d81111561145557611455615586565b03611473576040516385994c7760e01b815260040160405180910390fd5b609a5f83600d81111561148857611488615586565b600d81111561149957611499615586565b81526020019081526020015f20546114b081613f60565b6114b983613361565b6114d85782604051630619659560e21b815260040161142c9190615771565b5f19609c5f85600d8111156114ef576114ef615586565b600d81111561150057611500615586565b81526020019081526020015f20541480156115495750335f9081527f74a8627e7e8109f70747bbdf2c891159d40f925b9c8f09259a497b8c31b3780b602052604090205460ff16155b1561156957826040516323bb853560e21b815260040161142c9190615771565b609c5f84600d81111561157e5761157e615586565b600d81111561158f5761158f615586565b81526020019081526020015f205f905582600d8111156115b1576115b1615586565b60988054600190921b19909116905582600d8111156115d2576115d2615586565b6040513381527fd071d2b85dec4489435b541d2f0e2570db09b09db9efd8703948d44a433df65a906020015b60405180910390a2505050565b5f54610100900460ff161580801561162957505f54600160ff909116105b806116425750303b15801561164257505f5460ff166001145b6116b45760405162461bcd60e51b815260206004820152602e60248201527f496e697469616c697a61626c653a20636f6e747261637420697320616c72656160448201527f647920696e697469616c697a6564000000000000000000000000000000000000606482015260840161142c565b5f805460ff1916600117905580156116d5575f805461ff0019166101001790555b6116ed6116e860a0840160808501615414565b6142fa565b61170c6116fa8380615785565b6117076020860186615785565b614321565b6117255f61172060a0850160808601615414565b61459c565b61173a6117356040840184615785565b61463c565b61179560405180608001604052808460a001602081019061175b91906157cb565b61ffff16815260200161177460e0860160c087016157cb565b61ffff1681526020018460e00135815260200184610100013581525061478c565b5f516020615bb55f395f51905f525f5b6117b260608501856157e4565b9050811015611825575f6117c960608601866157e4565b838181106117d9576117d961582a565b90506020020160208101906117ee9190615414565b90506117f9816142fa565b6001600160a01b03165f9081526006830160205260409020805460ff19166001908117909155016117a5565b506005810180546001810182555f918252602090912001805473ffffffffffffffffffffffffffffffffffffffff191690557ff95efb68626e162de4555d7627cd4630cf48bde8d7b9a7716e8d65d325b96a8861188560608501856157e4565b60405161189392919061583e565b60405180910390a15080156118e1575f805461ff0019169055604051600181527f7f26b83ff96e1f2b6a682f133852f6798a09c465da95921460cefb38474024989060200160405180910390a15b5050565b5f6118ef5f614934565b50919050565b7fdc1272075efdca0b85fb2d76cbb5f26d954dc18e040d6d0b67071bd5cbd04305545f905f516020615bb55f395f51905f52908315806119355750808410155b156119685783611946826001613ee1565b60405163b0e062c160e01b81526004810192909252602482015260440161142c565b81600501848154811061197d5761197d61582a565b5f918252602090912001546001600160a01b0316949350505050565b5f828152606560205260409020600101546119b381613f60565b6119bd838361459c565b505050565b6001600160a01b0381163314611a405760405162461bcd60e51b815260206004820152602f60248201527f416363657373436f6e74726f6c3a2063616e206f6e6c792072656e6f756e636560448201527f20726f6c657320666f722073656c660000000000000000000000000000000000606482015260840161142c565b6118e182826149bb565b6001600160a01b0381165f9081527fdc1272075efdca0b85fb2d76cbb5f26d954dc18e040d6d0b67071bd5cbd043066020526040902054819060ff16611aa35760405163a7a826ab60e01b815260040160405180910390fd5b7fedd66f6e9b5c4d0e97b7d84abd332823333b4210446a6cb917983caefd083143611acd81613f60565b604080516001600160a01b038516815290515f516020615bb55f395f51905f52917f79536e4cf454720e774072208f4436c1bf604df4a34f233d4c523ec09a6160b6919081900360200190a16001600160a01b039093165f9081526006909301602052505060409020805460ff19169055565b5f81611b4b81613ea1565b611b685760405163135e88fb60e31b815260040160405180910390fd5b6040516001600160a01b03841660248201525f90611bb490859060440160408051601f198184030181529190526020810180516001600160e01b0316633a4952a360e01b179052614a3c565b90505f81806020019051810190611bcb919061588a565b9050611c0381611bfa876001600160a01b03165f9081525f516020615b955f395f51905f526020526040902090565b60020154613fbf565b95945050505050565b600b611c1781613f00565b83611c2181613ea1565b611c3e5760405163135e88fb60e31b815260040160405180910390fd5b336001600160a01b037f00000000000000000000000000000000000000000000000000000000000000001614611c87576040516361b0589f60e11b815260040160405180910390fd5b7f00000000000000000000000000000000000000000000000000000000000000006001600160a01b0316632fe352746040518163ffffffff1660e01b8152600401602060405180830381865afa158015611ce3573d5f5f3e3d5ffd5b505050506040513d601f19601f82011682018060405250810190611d0791906158a1565b611d2457604051630c638ff960e11b815260040160405180910390fd5b6001600160a01b0385165f9081525f516020615b955f395f51905f526020526040902060028101546005820154611d5b908761575e565b1115611d7a57604051631f5137e560e31b815260040160405180910390fd5b611d8386614acf565b6040516001600160a01b0380881660248301526044820187905285166064820152611ddc90879060840160408051601f198184030181529190526020810180516001600160e01b0316633e4903b760e01b179052614a3c565b50845f516020615bb55f395f51905f526003015f828254611dfd91906158c0565b9250508190555084816002015f828254611e1791906158c0565b9250508190555084816004015f828254611e31919061575e565b92505081905550836001600160a01b0316866001600160a01b03167f064da12803777b899def6d3c6a0fe76bbfc1aa0a14c37ce5607fb3c1fd9b085087604051611e7d91815260200190565b60405180910390a3505050505050565b815f81600d811115611ea157611ea1615586565b03611ebf576040516385994c7760e01b815260040160405180910390fd5b7f1453a531db80c85f2d944d498709d84959bc5bf839eefe9acb784571e5a32118611ee981613f60565b5f60995f86600d811115611eff57611eff615586565b600d811115611f1057611f10615586565b81526020019081526020015f20549050838103611f4057604051631b807f5560e01b815260040160405180910390fd5b8360995f87600d811115611f5657611f56615586565b600d811115611f6757611f67615586565b815260208101919091526040015f2055808486600d811115611f8b57611f8b615586565b6040517f074bfc3728ef1e98bde10bcb5bd8cde59cff190c2bfda5d22f879f865a07bac5905f90a45050505050565b5f81611fc581613ea1565b611fe25760405163135e88fb60e31b815260040160405180910390fd5b50506001600160a01b03165f9081525f516020615b955f395f51905f52602052604090205462010000900460ff1690565b5f8161201e81613ea1565b61203b5760405163135e88fb60e31b815260040160405180910390fd5b50506001600160a01b03165f9081525f516020615b955f395f51905f526020526040902054610100900460ff1690565b5f6118ef5f614b08565b815f81600d81111561208957612089615586565b036120a7576040516385994c7760e01b815260040160405180910390fd5b7f1453a531db80c85f2d944d498709d84959bc5bf839eefe9acb784571e5a321186120d181613f60565b5f609a5f86600d8111156120e7576120e7615586565b600d8111156120f8576120f8615586565b81526020019081526020015f2054905083810361212857604051631b807f5560e01b815260040160405180910390fd5b83609a5f87600d81111561213e5761213e615586565b600d81111561214f5761214f615586565b815260208101919091526040015f2055808486600d81111561217357612173615586565b6040517ff8ef9f1cde7c2c0d3aeb696678f76d7c1c3e13c3b79ea3c5160a2d9eaa821cfd905f90a45050505050565b60096121ad81613f00565b826121b781613ea1565b6121d45760405163135e88fb60e31b815260040160405180910390fd5b7f220bd22ef7c53d75fe3eac0a09e90815a0c5ba4f9e8da8b039542cd3db3472586121fe81613f60565b612206613352565b15612224576040516316378f8360e11b815260040160405180910390fd5b5f61222e5f614b6f565b111561223d5761223d85614acf565b6040516001600160a01b03861660248201526044810185905261228e90869060640160408051601f198184030181529190526020810180516001600160e01b0316635c7bb16360e01b179052614a3c565b50835f516020615bb55f395f51905f526003015f8282546122af919061575e565b90915550506001600160a01b0385165f9081525f516020615b955f395f51905f526020526040902084906002015f8282546122ea919061575e565b90915550506040518481526001600160a01b038616907fda51c3b2bf48c0a6a6f0b2022a50ad3c6cfda56ca9733b418d93f8ef8a3ad590906020015b60405180910390a25050505050565b600a61234081613f00565b8261234a81613ea1565b6123675760405163135e88fb60e31b815260040160405180910390fd5b7f1208ee08ba851b41059d729bfba4fffc3a98c2b6d121e3cf0db274417dea3d7061239181613f60565b6123d78586866040516024016123a8929190615901565b60408051601f198184030181529190526020810180516001600160e01b0316631915b84560e21b179052614a3c565b505050505050565b600b6123ea81613f00565b876123f481613ea1565b6124115760405163135e88fb60e31b815260040160405180910390fd5b3461241b81614b89565b61243857604051639caafab160e01b815260040160405180910390fd5b60017f084edf88d5959696dcc7aab5c8674a33a1ef78f37dda21b782ed03bddb22ade45c0361246e576337ed32e85f526004601cfd5b60017f084edf88d5959696dcc7aab5c8674a33a1ef78f37dda21b782ed03bddb22ade45d5f516020615bb55f395f51905f526124ab818b8b614b9e565b5f6124e96124b834614b6f565b83600401546124c68f611b40565b6124d034476158c0565b6124da919061575e565b6124e4919061575e565b613ee1565b9050805f0361250b576040516330f18d5760e01b815260040160405180910390fd5b5f61255e8d8e848f8f8f8f8f8f60405160240161252f98979695949392919061594a565b60408051601f198184030181529190526020810180516001600160e01b03166374f6941160e01b179052614a3c565b806020019051810190612571919061588a565b9050805f0361259357604051631cb1cdef60e11b815260040160405180910390fd5b818111156125be57604051631c37447560e01b8152600481018290526024810183905260440161142c565b80836004015f8282546125d1919061575e565b925050819055508a67ffffffffffffffff168c67ffffffffffffffff168e6001600160a01b03167f6265228da4d7aed7fcd47febc283abade69ba428b28535fce194e499dcc8662a85858f8f60405161262d94939291906159b4565b60405180910390a45050505f7f084edf88d5959696dcc7aab5c8674a33a1ef78f37dda21b782ed03bddb22ade45d50505050505050505050565b5f8161267281613ea1565b61268f5760405163135e88fb60e31b815260040160405180910390fd5b50506001600160a01b03165f9081525f516020615b955f395f51905f5260205260409020546301000000900460ff1690565b7f1453a531db80c85f2d944d498709d84959bc5bf839eefe9acb784571e5a321186126eb81613f60565b42609b556040517f201956ebe50475cb4c4f2d1e8375cfcc9c1700ad498e0c8053da490688172787905f90a150565b336001600160a01b037f00000000000000000000000000000000000000000000000000000000000000001614612763576040516361b0589f60e11b815260040160405180910390fd5b61276b613352565b15612789576040516316378f8360e11b815260040160405180910390fd5b6040513481527f734acce255d0ede0d369eb2a376adfaeb638ec809047968d9aede73ac267ac2d9060200160405180910390a1565b5f816127c981613ea1565b6127e65760405163135e88fb60e31b815260040160405180910390fd5b50506001600160a01b03165f9081525f516020615b955f395f51905f52602052604090206002015490565b5f6118ef5f614c4b565b7f4bfab1661ce1ffeb4b53fc15e3fd6e7ae742e97d90ba229951fcc314e10f05d961284581613f60565b61284e836142fa565b61285783613ea1565b15612875576040516302816e9960e21b815260040160405180910390fd5b5f6128ba848460405160240161288b91906159dd565b60408051601f198184030181529190526020810180516001600160e01b0316635465780960e11b179052614a3c565b8060200190518101906128cd91906159ef565b7fdc1272075efdca0b85fb2d76cbb5f26d954dc18e040d6d0b67071bd5cbd043058054600180820183555f929092527f77d39b65d0a91f9f67d579ed6b1bd85e07980b4bb8614b34e97fb5934ff891818101805473ffffffffffffffffffffffffffffffffffffffff19166001600160a01b03891617905560408051610160810190915283519394505f516020615bb55f395f51905f529391929091829181111561297a5761297a615586565b81525f602080830182905260408084018390526060808501849052888301516001600160a01b03908116608087015289830151811660a08701526bffffffffffffffffffffffff881660c08701529089015160e086015261010085018490526101208501849052610140909401839052928a1682526007860190522081518154829060ff191660018381811115612a1357612a13615586565b0217905550602082015181546040840151606080860151608087015162ffff0019909416610100951515860262ff00001916176201000093151593909302929092177fffffffffffffffff000000000000000000000000000000000000000000ffffff166301000000921515929092027fffffffffffffffff0000000000000000000000000000000000000000ffffffff16919091176401000000006001600160a01b039384160217845560a085015160c08601519216600160a01b6bffffffffffffffffffffffff9093169290920291909117600184015560e084015160028401559083015160038084019190915561012084015160048401556101409093015160059092019190915584015190830180545f90612b3390849061575e565b9091555050604083015183516001600160a01b03909116906001811115612b5c57612b5c615586565b876001600160a01b03167f5f3e027464e1a4a2bbd78f8086a9b733c93ad2cd6c7d239f1e7f125f2baf2be586602001518760600151604051612bb39291906001600160a01b03929092168252602082015260400190565b60405180910390a4505050505050565b80612bcd81613ea1565b612bea5760405163135e88fb60e31b815260040160405180910390fd5b7f9b6f6cc60cc992c1b2dbfe3564c7159c78b4c15a858781972f9be245ab0a7962612c1481613f60565b6001600160a01b0383165f9081525f516020615b955f395f51905f5260205260409020805462010000900460ff1615612c6057604051636a5527db60e11b815260040160405180910390fd5b80546301000000900460ff1615612c8a576040516328c9deb560e21b815260040160405180910390fd5b6040516001600160a01b0385166024820152612cd490859060440160408051601f198184030181529190526020810180516001600160e01b03166393c34bc760e01b179052614a3c565b50612cde84614acf565b805462ff00001916620100001781556040516001600160a01b038516907f38c276f1bdb90e764a8026791d57afc252fa4bfeb4b36031d46c501cc55550e2905f90a250505050565b805f81600d811115612d3a57612d3a615586565b03612d58576040516385994c7760e01b815260040160405180910390fd5b612d6182613361565b612d805781604051630619659560e21b815260040161142c9190615771565b609c5f83600d811115612d9557612d95615586565b600d811115612da657612da6615586565b81526020019081526020015f2054421015612e0b57609c5f83600d811115612dd057612dd0615586565b600d811115612de157612de1615586565b81526020019081526020015f205460405163cfd8aa6f60e01b815260040161142c91815260200190565b609c5f83600d811115612e2057612e20615586565b600d811115612e3157612e31615586565b81526020019081526020015f205f905581600d811115612e5357612e53615586565b60988054600190921b19909116905581600d811115612e7457612e74615586565b6040517f3ddaeb19197ed3b5334f4c1cd5716f663d0f6dce30c52800bd1674da0b88e87a905f90a25050565b5f81612eab81613ea1565b612ec85760405163135e88fb60e31b815260040160405180910390fd5b7f9ef55ee0235bd9abf16b2b7865531896bd633b74155b6c1d064d0402f2d1b3c8612ef281613f60565b6001600160a01b0384165f9081525f516020615b955f395f51905f5260205260409020805462010000900460ff16612f3d5760405163c6c1e7fb60e01b815260040160405180910390fd5b80546301000000900460ff1615612f67576040516328c9deb560e21b815260040160405180910390fd5b6040516001600160a01b0386166024820152612fb190869060440160408051601f198184030181529190526020810180516001600160e01b0316632580ff0d60e21b179052614a3c565b806020019051810190612fc49190615a52565b93506002846002811115612fda57612fda615586565b03612ff157805463ff000000191663010000001781555b846001600160a01b03167ffd205a713528e9671a6f12533ad4f2ee54846cf2845f7982f5cc4fac4bdeafc48560405161302a919061559a565b60405180910390a2505050919050565b60408051610160810182525f80825260208201819052918101829052606081018290526080810182905260a0810182905260c0810182905260e08101829052610100810182905261012081018290526101408101919091528161309c81613ea1565b6130b95760405163135e88fb60e31b815260040160405180910390fd5b6001600160a01b0383165f9081525f516020615b955f395f51905f5260205260408120604080516101608101909152815491925090819060ff16600181111561310457613104615586565b8152825461010080820460ff908116151560208501526201000083048116151560408501526301000000830416151560608401526401000000009091046001600160a01b039081166080840152600185015490811660a0840152600160a01b90046bffffffffffffffffffffffff1660c0830152600284015460e08301526003840154908201526004830154610120820152600590920154610140909201919091529392505050565b7fedd66f6e9b5c4d0e97b7d84abd332823333b4210446a6cb917983caefd0831436131d781613f60565b6131e0826142fa565b6001600160a01b0382165f9081527fdc1272075efdca0b85fb2d76cbb5f26d954dc18e040d6d0b67071bd5cbd0430660205260409020545f516020615bb55f395f51905f529060ff16156132475760405163543c957560e11b815260040160405180910390fd5b6040516001600160a01b03841681527fe31d2eef1fe7f5bbc7fc1e91e95133b8231c7f09e5c05e723cf77833e758a9849060200160405180910390a16001600160a01b039092165f90815260069092016020525060409020805460ff19166001179055565b5f5f5f6132b85f614c4b565b915091506132c68282613ee1565b9250505090565b816132d781613ea1565b6132f45760405163135e88fb60e31b815260040160405180910390fd5b7f4bfab1661ce1ffeb4b53fc15e3fd6e7ae742e97d90ba229951fcc314e10f05d961331e81613f60565b6001600160a01b0384165f9081525f516020615b955f395f51905f52602052604090206002015461135985856001846140b2565b5f61335c5f614b89565b905090565b5f81600d81111561337457613374615586565b609854600190911b16151592915050565b5f5f600c61339281613f00565b8461339c81613ea1565b6133b95760405163135e88fb60e31b815260040160405180910390fd5b6001600160a01b0385165f9081527fdc1272075efdca0b85fb2d76cbb5f26d954dc18e040d6d0b67071bd5cbd043066020526040902054859060ff166134125760405163a7a826ab60e01b815260040160405180910390fd5b7fa980ae8105ebca8c4bda1143caefa4ff96b61271718a11b7239cdb9eabfc7e2761343c81613f60565b6040516001600160a01b03891660248201525f90613488908a9060440160408051601f198184030181529190526020810180516001600160e01b031663d6e6df6f60e01b179052614a3c565b90508080602001905181019061349e9190615a70565b90975095505f6134cd8a6001600160a01b03165f9081525f516020615b955f395f51905f526020526040902090565b905087816002015f8282546134e2919061575e565b9250508190555087816003015f8282546134fc919061575e565b9091555050600581018790557fdc1272075efdca0b85fb2d76cbb5f26d954dc18e040d6d0b67071bd5cbd0430380545f516020615bb55f395f51905f52918a915f9061354990849061575e565b9091555050604051634bb9741360e01b8152600481018a90526001600160a01b038b811660248301527f00000000000000000000000000000000000000000000000000000000000000001690634bb97413906044015f604051808303815f87803b1580156135b5575f5ffd5b505af11580156135c7573d5f5f3e3d5ffd5b5050604080518c8152602081018c90526001600160a01b03808f1694508f1692507f1311c746864667581a3412c2b7e38122d40283f6607236c06a735da05960f4d1910160405180910390a3505050505050509250929050565b8061362b81613ea1565b6136485760405163135e88fb60e31b815260040160405180910390fd5b7fb05f5f3bc6b24add2de79f85477c2f0351f8e8a2209394f90c9e1c6c7e540c7961367281613f60565b61367a613352565b15613698576040516316378f8360e11b815260040160405180910390fd5b6001600160a01b0383165f9081525f516020615b955f395f51905f52602052604090208054610100900460ff166136e2576040516324b61e3760e11b815260040160405180910390fd5b6040516001600160a01b038516602482015261372c90859060440160408051601f198184030181529190526020810180516001600160e01b031663d787c55960e01b179052614a3c565b5060048101541561375057604051634a9da4f160e01b815260040160405180910390fd5b805462010000900460ff168015613770575080546301000000900460ff16155b1561378e5760405163ef441b5560e01b815260040160405180910390fd5b61379784614ca3565b50505050565b7f58cd6cd2c63b9e5685aee547419caac3d1184e3aeb3ed7c8b63ec61cda1e27e06137c781613f60565b6118e18261478c565b5f828152606560205260409020600101546137ea81613f60565b6119bd83836149bb565b5f61335c5f614b6f565b7fdc1272075efdca0b85fb2d76cbb5f26d954dc18e040d6d0b67071bd5cbd04305545f9061335c906001906158c0565b600a61383981613f00565b7f1208ee08ba851b41059d729bfba4fffc3a98c2b6d121e3cf0db274417dea3d7061386381613f60565b6119bd83614d43565b805f81600d81111561388057613880615586565b0361389e576040516385994c7760e01b815260040160405180910390fd5b60995f83600d8111156138b3576138b3615586565b600d8111156138c4576138c4615586565b81526020019081526020015f20546138db81613f60565b335f9081527f74a8627e7e8109f70747bbdf2c891159d40f925b9c8f09259a497b8c31b3780b602052604090205460ff1661391584613361565b801561391f575080155b8061395d57505f19609c5f86600d81111561393c5761393c615586565b600d81111561394d5761394d615586565b81526020019081526020015f2054145b1561397d5783604051631814e36b60e31b815260040161142c9190615771565b8015613a27575f19609c5f86600d81111561399a5761399a615586565b600d8111156139ab576139ab615586565b815260208101919091526040015f205583600d8111156139cd576139cd615586565b60988054600190921b909117905583600d8111156139ed576139ed615586565b6040513381527f36287ed6be33e8d1abe33ad8d38ab23b67a5126b7140660a8a25920bdc30a199906020015b60405180910390a250505050565b609b54428111613a7b57426202a3000180609c5f88600d811115613a4d57613a4d615586565b600d811115613a5e57613a5e615586565b815260208101919091526040015f20556202a30001609b55613ae0565b6202a30042820311613aa35760405163602102f760e11b81526004810182905260240161142c565b6202a3008103609c5f87600d811115613abe57613abe615586565b600d811115613acf57613acf615586565b815260208101919091526040015f20555b84600d811115613af257613af2615586565b60988054600190921b909117905584600d811115613b1257613b12615586565b6040513381527f534f879afd40abb4e39f8e1b77a316be4c8e3521d9cf5a3a3db8959d574d455990602001612326565b80613b4c81613ea1565b613b695760405163135e88fb60e31b815260040160405180910390fd5b7fb05f5f3bc6b24add2de79f85477c2f0351f8e8a2209394f90c9e1c6c7e540c79613b9381613f60565b6001600160a01b0383165f9081525f516020615b955f395f51905f526020526040902054610100900460ff1615613bdd57604051632dd24ed960e01b815260040160405180910390fd5b6119bd83614dae565b600b613bf181613f00565b81613bfb81613ea1565b613c185760405163135e88fb60e31b815260040160405180910390fd5b5f613c2281614b89565b613c3f57604051639caafab160e01b815260040160405180910390fd5b60017f084edf88d5959696dcc7aab5c8674a33a1ef78f37dda21b782ed03bddb22ade45c03613c75576337ed32e85f526004601cfd5b60017f084edf88d5959696dcc7aab5c8674a33a1ef78f37dda21b782ed03bddb22ade45d5f613ca35f614b6f565b905047818110613d0f57613cb682614d43565b60408051838152602081018490529081018390525f60608201526001600160a01b038716907fcec64e21d82ea061153a8159476799199e3ed7fbf6e37a55e70c5b2272e574849060800160405180910390a25050613dfd565b613d1a866001613f6d565b5f613d2487611b40565b905080158015613d32575081155b15613d5057604051632e4ed50760e01b815260040160405180910390fd5b5f613d6482613d5f85876158c0565b613fbf565b9050613d708882614e70565b613d82613d7d828561575e565b614d43565b81613d8d84866158c0565b1115613d9c57613d9c88614acf565b6001600160a01b0388167fcec64e21d82ea061153a8159476799199e3ed7fbf6e37a55e70c5b2272e5748485613dd2848761575e565b60408051928352602083019190915281018690526060810184905260800160405180910390a2505050505b5f7f084edf88d5959696dcc7aab5c8674a33a1ef78f37dda21b782ed03bddb22ade45d50505050565b600a613e3181613f00565b82613e3b81613ea1565b613e585760405163135e88fb60e31b815260040160405180910390fd5b7f1208ee08ba851b41059d729bfba4fffc3a98c2b6d121e3cf0db274417dea3d70613e8281613f60565b613e8c855f613f6d565b61135985613e9c61134e88611b40565b614f36565b6001600160a01b03165f9081525f516020615b955f395f51905f526020526040902060010154600160a01b90046bffffffffffffffffffffffff16151590565b5f818311613eef575f613ef9565b613ef982846158c0565b9392505050565b60985481600d811115613f1557613f15615586565b6001901b811615613f3b5781604051631814e36b60e31b815260040161142c9190615771565b60028116156118e1576001604051631814e36b60e31b815260040161142c9190615771565b613f6a8133614fba565b50565b6040516001600160a01b038316602482015281151560448201526119bd90839060640160408051601f198184030181529190526020810180516001600160e01b03166372cdd4d360e01b179052614a3c565b5f818310613fcd5781613ef9565b5090919050565b80613fde5f614b6f565b1115613fed57613fed82614acf565b4781811061404957613ffe82614d43565b60408051838152602081018490525f918101919091526001600160a01b038416907f760e48abbda5ec8f56e296abaa113cfc34779d5cb2a3f9dc59c599f417eebe98906060016115fe565b5f61405482846158c0565b90506140608482614e70565b61406983614d43565b60408051848152602081018490529081018290526001600160a01b038516907f760e48abbda5ec8f56e296abaa113cfc34779d5cb2a3f9dc59c599f417eebe9890606001613a19565b6140f88485856040516024016140c9929190615901565b60408051601f198184030181529190526020810180516001600160e01b03166365c1c7ef60e11b179052614a3c565b505f516020615bb55f395f51905f5281156141265781816003015f82825461412091906158c0565b90915550505b6001600160a01b0385165f9081525f516020615b955f395f51905f5260205260408120600190810154600584018054600160a01b9092046bffffffffffffffffffffffff1693505f92909161417b91906158c0565b8154811061418b5761418b61582a565b5f9182526020808320909101546001600160a01b0390811680845260078701909252604090922060010180546bffffffffffffffffffffffff8616600160a01b8102919094161790556005850180549193508392909181106141ef576141ef61582a565b905f5260205f20015f6101000a8154816001600160a01b0302191690836001600160a01b031602179055508260050180548061422d5761422d615a92565b5f82815260208082205f199084018101805473ffffffffffffffffffffffffffffffffffffffff191690559092019092556001600160a01b038916808352600786018252604080842080547fffffffffffffffff0000000000000000000000000000000000000000000000001681556001810185905560028101859055600381018590556004810185905560050193909355915187151581527f1e6f5bbab5d00e4acb96ff41213bb1adce369976ceb012d2c0cfc97d03f3c2fb910160405180910390a250505050505050565b6001600160a01b038116613f6a576040516342bcdf7f60e11b815260040160405180910390fd5b5f54610100900460ff1661438b5760405162461bcd60e51b815260206004820152602b60248201527f496e697469616c697a61626c653a20636f6e7472616374206973206e6f74206960448201526a6e697469616c697a696e6760a81b606482015260840161142c565b5f5b83811015614493578484828181106143a7576143a761582a565b9050604002016020013560995f8787858181106143c6576143c661582a565b6143dc926020604090920201908101915061537e565b600d8111156143ed576143ed615586565b600d8111156143fe576143fe615586565b815260208101919091526040015f20558484828181106144205761442061582a565b9050604002016020013585858381811061443c5761443c61582a565b614452926020604090920201908101915061537e565b600d81111561446357614463615586565b6040517f33aa8fd1ce49e1761bc8d27fd53414bfefc45d690feed0ce55019d7d3aec6091905f90a360010161438d565b505f5b81811015611359578282828181106144b0576144b061582a565b90506040020160200135609a5f8585858181106144cf576144cf61582a565b6144e5926020604090920201908101915061537e565b600d8111156144f6576144f6615586565b600d81111561450757614507615586565b815260208101919091526040015f20558282828181106145295761452961582a565b905060400201602001358383838181106145455761454561582a565b61455b926020604090920201908101915061537e565b600d81111561456c5761456c615586565b6040517fe7bf4b8dc0c17a52dc9e52323a3ab61cb2079db35f969125b1f8a3d984c6f6c2905f90a3600101614496565b5f8281526065602090815260408083206001600160a01b038516845290915290205460ff166118e1575f8281526065602090815260408083206001600160a01b03851684529091529020805460ff191660011790556145f83390565b6001600160a01b0316816001600160a01b0316837f2f8788117e7eff1d82e926ec794901d17c78024a50270940304540a733656f0d60405160405180910390a45050565b5f54610100900460ff166146a65760405162461bcd60e51b815260206004820152602b60248201527f496e697469616c697a61626c653a20636f6e7472616374206973206e6f74206960448201526a6e697469616c697a696e6760a81b606482015260840161142c565b5f5b818110156119bd575f8383838181106146c3576146c361582a565b6146d99260206040909202019081019150615414565b6001600160a01b031603614700576040516342bcdf7f60e11b815260040160405180910390fd5b8282828181106147125761471261582a565b905060400201602001355f5f1b0361473d57604051630742d05360e01b815260040160405180910390fd5b6147848383838181106147525761475261582a565b9050604002016020013584848481811061476e5761476e61582a565b6117209260206040909202019081019150615414565b6001016146a8565b612710815f015161ffff1611806147ac5750612710816020015161ffff16115b156147ca5760405163fe565b6360e01b815260040160405180910390fd5b805f015161ffff16816020015161ffff16116147f9576040516347e1ecfd60e01b815260040160405180910390fd5b806040015181606001511161482157604051635ed3a8eb60e01b815260040160405180910390fd5b5f516020615bb55f395f51905f5280547fdc1272075efdca0b85fb2d76cbb5f26d954dc18e040d6d0b67071bd5cbd04301547fdc1272075efdca0b85fb2d76cbb5f26d954dc18e040d6d0b67071bd5cbd043025484516040808701516020808901516060808b0151855161ffff808c1682529481019990995262010000909904831688860152870195909552928316608086015260a0850152911660c083015260e082019290925290517f233e02804a894f97ca804f4824c9b4a11eefa2aea2b57ae0a6f2ea0b757edc1a918190036101000190a18151815460408401516001840155602084015161ffff908116620100000263ffffffff19909216921691909117178155606090910151600290910155565b7fdc1272075efdca0b85fb2d76cbb5f26d954dc18e040d6d0b67071bd5cbd04303545f906001600160a01b037f00000000000000000000000000000000000000000000000000000000000000001631905f516020615bb55f395f51905f5290849061499f478561575e565b6149a9919061575e565b6149b391906158c0565b925050915091565b5f8281526065602090815260408083206001600160a01b038516845290915290205460ff16156118e1575f8281526065602090815260408083206001600160a01b0385168085529252808320805460ff1916905551339285917ff6391f5c32d9c69d2a47ea670b442974b53935d1edc7fd64eb21e047a839171b9190a45050565b60605f5f846001600160a01b031684604051614a589190615abd565b5f60405180830381855af49150503d805f8114614a90576040519150601f19603f3d011682016040523d82523d5f602084013e614a95565b606091505b509150915081614ac757805115614aae57805160208201fd5b6040516318cecad560e01b815260040160405180910390fd5b949350505050565b6001600160a01b0381165f9081525f516020615b955f395f51905f526020526040902054610100900460ff16613f6a57613f6a81614dae565b5f5f5f614b1484614934565b925090505f6127105f516020615bb55f395f51905f5254614b3f9062010000900461ffff1684615ac8565b614b499190615adf565b9050614b66815f516020615bb55f395f51905f526002015461502e565b93505050915091565b5f5f5f614b7b84614b08565b91509150614ac78282613ee1565b5f5f5f614b9584614c4b565b10949350505050565b67ffffffffffffffff8083165f90815260088501602052604090205416614bc761200082615afe565b67ffffffffffffffff168267ffffffffffffffff1611614c1557604051624c3f1b60e11b815267ffffffffffffffff808516600483015280831660248301528316604482015260640161142c565b5067ffffffffffffffff9182165f9081526008909301602052604090922080549190921667ffffffffffffffff19909116179055565b5f5f5f614c5784614934565b925090505f6127105f516020615bb55f395f51905f5254614c7c9061ffff1684615ac8565b614c869190615adf565b9050614b66815f516020615bb55f395f51905f526001015461502e565b6040516001600160a01b0382166024820152614ced90829060440160408051601f198184030181529190526020810180516001600160e01b03166362488de960e11b179052614a3c565b506001600160a01b0381165f8181525f516020615b955f395f51905f526020526040808220805461ff0019169055517f3d31dc68a5dfc8ed29b7664cfd2d6780d2568517c4eb8a2e819211484fab41f49190a250565b7f00000000000000000000000000000000000000000000000000000000000000006001600160a01b031663b60d4288826040518263ffffffff1660e01b81526004015f604051808303818588803b158015614d9c575f5ffd5b505af11580156123d7573d5f5f3e3d5ffd5b6040516001600160a01b0382166024820152614df890829060440160408051601f198184030181529190526020810180516001600160e01b031663ef8cf92d60e01b179052614a3c565b506001614e24826001600160a01b03165f9081525f516020615b955f395f51905f526020526040902090565b80549115156101000261ff00199092169190911790556040516001600160a01b038216907f121b32f104cb454d864e60cd2129842dc3734259eeed85261df68fa9e3ac2188905f90a250565b805f03614e7b575050565b6001600160a01b0382165f9081525f516020615b955f395f51905f52602052604081206040516001600160a01b038516602482015260448101849052909150614ef290849060640160408051601f198184030181529190526020810180516001600160e01b031663333cd46f60e21b179052614a3c565b5081816002015f828254614f0691906158c0565b909155508290505f516020615bb55f395f51905f526003015f828254614f2c91906158c0565b9091555050505050565b5f614f405f614b6f565b9050614f4c8383614e70565b5f614f578383613fbf565b90508015614f6857614f6881614d43565b80821115614f7957614f7984614acf565b60408051848152602081018390526001600160a01b038616917f9a18553bf7bf097999c2a627f77cb273166610756fd09b4793c3ebe973dd1cc99101613a19565b5f8281526065602090815260408083206001600160a01b038516845290915290205460ff166118e157614fec8161503c565b614ff783602061504e565b604051602001615008929190615b1e565b60408051601f198184030181529082905262461bcd60e51b825261142c916004016159dd565b5f818311613fcd5781613ef9565b60606113906001600160a01b03831660145b60605f61505c836002615ac8565b61506790600261575e565b67ffffffffffffffff81111561507f5761507f615256565b6040519080825280601f01601f1916602001820160405280156150a9576020820181803683370190505b509050600360fc1b815f815181106150c3576150c361582a565b60200101906001600160f81b03191690815f1a905350600f60fb1b816001815181106150f1576150f161582a565b60200101906001600160f81b03191690815f1a9053505f615113846002615ac8565b61511e90600161575e565b90505b60018111156151a2577f303132333435363738396162636465660000000000000000000000000000000085600f166010811061515f5761515f61582a565b1a60f81b8282815181106151755761517561582a565b60200101906001600160f81b03191690815f1a90535060049490941c9361519b81615b7f565b9050615121565b508315613ef95760405162461bcd60e51b815260206004820181905260248201527f537472696e67733a20686578206c656e67746820696e73756666696369656e74604482015260640161142c565b6001600160a01b0381168114613f6a575f5ffd5b5f5f60408385031215615216575f5ffd5b8235615221816151f1565b946020939093013593505050565b5f6020828403121561523f575f5ffd5b81356001600160e01b031981168114613ef9575f5ffd5b634e487b7160e01b5f52604160045260245ffd5b6040516080810167ffffffffffffffff8111828210171561528d5761528d615256565b60405290565b604051601f8201601f1916810167ffffffffffffffff811182821017156152bc576152bc615256565b604052919050565b5f5f604083850312156152d5575f5ffd5b82356152e0816151f1565b9150602083013567ffffffffffffffff8111156152fb575f5ffd5b8301601f8101851361530b575f5ffd5b803567ffffffffffffffff81111561532557615325615256565b615338601f8201601f1916602001615293565b81815286602083850101111561534c575f5ffd5b816020840160208301375f602083830101528093505050509250929050565b8035600e8110615379575f5ffd5b919050565b5f6020828403121561538e575f5ffd5b613ef98261536b565b5f602082840312156153a7575f5ffd5b813567ffffffffffffffff8111156153bd575f5ffd5b82016101208185031215613ef9575f5ffd5b5f602082840312156153df575f5ffd5b5035919050565b5f5f604083850312156153f7575f5ffd5b823591506020830135615409816151f1565b809150509250929050565b5f60208284031215615424575f5ffd5b8135613ef9816151f1565b5f5f5f60608486031215615441575f5ffd5b833561544c816151f1565b9250602084013591506040840135615463816151f1565b809150509250925092565b5f5f6040838503121561547f575f5ffd5b6152218361536b565b803567ffffffffffffffff81168114615379575f5ffd5b5f5f83601f8401126154af575f5ffd5b50813567ffffffffffffffff8111156154c6575f5ffd5b6020830191508360208285010111156154dd575f5ffd5b9250929050565b5f5f5f5f5f5f5f60a0888a0312156154fa575f5ffd5b8735615505816151f1565b965061551360208901615488565b955061552160408901615488565b9450606088013567ffffffffffffffff81111561553c575f5ffd5b6155488a828b0161549f565b909550935050608088013567ffffffffffffffff811115615567575f5ffd5b6155738a828b0161549f565b989b979a50959850939692959293505050565b634e487b7160e01b5f52602160045260245ffd5b60208101600383106155ae576155ae615586565b91905290565b600281106155c4576155c4615586565b9052565b5f610160820190506155db8284516155b4565b60208301516155ee602084018215159052565b506040830151615602604084018215159052565b506060830151615616606084018215159052565b50608083015161563160808401826001600160a01b03169052565b5060a083015161564c60a08401826001600160a01b03169052565b5060c083015161566c60c08401826bffffffffffffffffffffffff169052565b5060e083015160e083015261010083015161010083015261012083015161012083015261014083015161014083015292915050565b5f5f604083850312156156b2575f5ffd5b82356156bd816151f1565b91506020830135615409816151f1565b803561ffff81168114615379575f5ffd5b5f60808284031280156156ef575f5ffd5b506156f861526a565b615701836156cd565b815261570f602084016156cd565b6020820152604083810135908201526060928301359281019290925250919050565b5f60208284031215615741575f5ffd5b613ef982615488565b634e487b7160e01b5f52601160045260245ffd5b808201808211156113905761139061574a565b60208101600e83106155ae576155ae615586565b5f5f8335601e1984360301811261579a575f5ffd5b83018035915067ffffffffffffffff8211156157b4575f5ffd5b6020019150600681901b36038213156154dd575f5ffd5b5f602082840312156157db575f5ffd5b613ef9826156cd565b5f5f8335601e198436030181126157f9575f5ffd5b83018035915067ffffffffffffffff821115615813575f5ffd5b6020019150600581901b36038213156154dd575f5ffd5b634e487b7160e01b5f52603260045260245ffd5b602080825281018290525f8360408301825b85811015615880578235615863816151f1565b6001600160a01b0316825260209283019290910190600101615850565b5095945050505050565b5f6020828403121561589a575f5ffd5b5051919050565b5f602082840312156158b1575f5ffd5b81518015158114613ef9575f5ffd5b818103818111156113905761139061574a565b5f81518084528060208401602086015e5f602082860101526020601f19601f83011685010191505092915050565b6001600160a01b0383168152604060208201525f614ac760408301846158d3565b81835281816020850137505f828201602090810191909152601f909101601f19169091010190565b6001600160a01b038916815287602082015267ffffffffffffffff8716604082015267ffffffffffffffff8616606082015260c060808201525f61599260c083018688615922565b82810360a08401526159a5818587615922565b9b9a5050505050505050505050565b848152836020820152606060408201525f6159d3606083018486615922565b9695505050505050565b602081525f613ef960208301846158d3565b5f6080828403128015615a00575f5ffd5b50615a0961526a565b825160028110615a17575f5ffd5b81526020830151615a27816151f1565b60208201526040830151615a3a816151f1565b60408201526060928301519281019290925250919050565b5f60208284031215615a62575f5ffd5b815160038110613ef9575f5ffd5b5f5f60408385031215615a81575f5ffd5b505080516020909101519092909150565b634e487b7160e01b5f52603160045260245ffd5b5f81518060208401855e5f93019283525090919050565b5f613ef98284615aa6565b80820281158282048414176113905761139061574a565b5f82615af957634e487b7160e01b5f52601260045260245ffd5b500490565b67ffffffffffffffff81811683821601908111156113905761139061574a565b7f416363657373436f6e74726f6c3a206163636f756e742000000000000000000081525f615b4f6017830185615aa6565b7f206973206d697373696e6720726f6c65200000000000000000000000000000008152611c036011820185615aa6565b5f81615b8d57615b8d61574a565b505f19019056fedc1272075efdca0b85fb2d76cbb5f26d954dc18e040d6d0b67071bd5cbd04307dc1272075efdca0b85fb2d76cbb5f26d954dc18e040d6d0b67071bd5cbd04300a2646970667358221220e3beb375bd6c03d7d8273afbcc74e29bb7586ca738a0dbc6a4ae8cb1c244d12864736f6c63430008210033",
  "linkReferences": {},
  "deployedLinkReferences": {}
}