{
  "_format": "hh-sol-artifact-1",
  "contractName": "Poseidon2",
  "sourceName": "@consensys/linea-state-verifier/contracts/lib/Poseidon2.sol",
  "abi": [
    {
      "inputs": [],
      "name": "DataIsEmpty",
      "type": "error"
    },
    {
      "inputs": [],
      "name": "DataIsNotMod32",
      "type": "error"
    },
    {
      "inputs": [
        {
          "internalType": "bytes",
          "name": "_msg",
          "type": "bytes"
        }
      ],
      "name": "hash",
      "outputs": [
        {
          "internalType": "bytes32",
          "name": "poseidon2Hash",
          "type": "bytes32"
        }
      ],
      "stateMutability": "pure",
      "type": "function"
    },
    {
      "inputs": [
        {
          "internalType": "bytes32",
          "name": "input",
          "type": "bytes32"
        }
      ],
      "name": "padBytes32",
      "outputs": [
        {
          "internalType": "bytes",
          "name": "out",
          "type": "bytes"
        }
      ],
      "stateMutability": "pure",
      "type": "function"
    }
  ],
  "bytecode": "0x6080806040523460195761171a908161001e823930815050f35b5f80fdfe60806040526004361015610011575f80fd5b5f3560e01c80636f4db2d9146100345763aa1e84de1461002f575f80fd5b6100f0565b60203660031901126100c25760043560406080525f5f5b600881106100a1575060a0525f906008905b60108210610080578260c05260e060405260df1961007b60e06100c6565b0160e0f35b909160019083600f0361ffff848260041b1c169060051b1b1792019061005d565b9060019061ffff8484600f0360041b1c168360070360051b1b17910161004b565b5f80fd5b604090602081526080518060208301528060a08484015e5f828201840152601f01601f1916010190565b60203660031901126100c25760043567ffffffffffffffff81116100c257366023820112156100c257806004013567ffffffffffffffff81116100c25736602482840101116100c2575f9080156105bd57601f81166105ab5760051c916024015f5b83811061016457604051838152602090f35b9091823590816101739161080c565b9061017d90610a66565b9061018790610b23565b6101909161080c565b9061019a90610bd1565b906101a490610c7f565b6101ad9161080c565b906101b790610d2d565b906101c190610ddb565b6101ca9161080c565b906101d490611378565b906101df81836105cf565b91826101ea9161067d565b916101f49161073c565b906101fe906113a1565b9061020981836105cf565b91826102149161067d565b9161021e9161073c565b90610228906113ca565b9061023381836105cf565b918261023e9161067d565b916102489161073c565b90610252906113f3565b9061025d81836105cf565b91826102689161067d565b916102729161073c565b9061027c9061141c565b9061028781836105cf565b91826102929161067d565b9161029c9161073c565b906102a690611445565b906102b181836105cf565b91826102bc9161067d565b916102c69161073c565b906102d09061146e565b906102db81836105cf565b91826102e69161067d565b916102f09161073c565b906102fa90611497565b9061030581836105cf565b91826103109161067d565b9161031a9161073c565b90610324906114c0565b9061032f81836105cf565b918261033a9161067d565b916103449161073c565b9061034e906114e9565b9061035981836105cf565b91826103649161067d565b9161036e9161073c565b9061037890611512565b9061038381836105cf565b918261038e9161067d565b916103989161073c565b906103a29061153b565b906103ad81836105cf565b91826103b89161067d565b916103c29161073c565b906103cc90611564565b906103d781836105cf565b91826103e29161067d565b916103ec9161073c565b906103f69061158d565b9061040181836105cf565b918261040c9161067d565b916104169161073c565b90610420906115b6565b9061042b81836105cf565b91826104369161067d565b916104409161073c565b9061044a906115df565b9061045581836105cf565b91826104609161067d565b9161046a9161073c565b9061047490611608565b9061047f81836105cf565b918261048a9161067d565b916104949161073c565b9061049e90611631565b906104a981836105cf565b91826104b49161067d565b916104be9161073c565b906104c89061165a565b906104d381836105cf565b91826104de9161067d565b916104e89161073c565b906104f290611683565b906104fd81836105cf565b91826105089161067d565b916105129161073c565b9061051c906116ac565b9061052781836105cf565b91826105329161067d565b9161053c9161073c565b9061054690610e89565b9061055090610f37565b6105599161080c565b9061056390610fe5565b9061056d90611093565b6105769161080c565b9061058090611141565b9061058a906111ef565b6105939161080c565b905061059e9161129d565b9160200190600101610152565b6040516330b2ac9b60e21b8152600490fd5b6040516391ea306f60e01b8152600490fd5b90637f0000019163ffffffff821663ffffffff8216019163ffffffff8160201c1663ffffffff8360201c16019163ffffffff8260401c1663ffffffff8260401c16019163ffffffff8160601c1663ffffffff8360601c16019163ffffffff8260801c1663ffffffff8260801c16019163ffffffff8160a01c1663ffffffff8360a01c16019163ffffffff8260c01c1663ffffffff8260c01c16019160e01c9060e01c01010101010101010690565b9063ffffffff8260a01c1690637f00000180600363ffffffff8616098103820892637f00000180633f80000063ffffffff8460201c1609830860201b92637f00000180600463ffffffff8560401c1609840860401b92637f00000180600363ffffffff8660601c1609820860601b92637f00000180808080633f80000163ffffffff8760801c1609860860801b958008840860a01b928160028163ffffffff8660c01c16840860c01b9460e01c098203900860e01b1717171717171790565b90637f00000180607f63ffffffff851609820891637f000001806307f0000063ffffffff8460201c1609830860201b91637f00000180630fe0000063ffffffff8560401c1609820860401b91637f00000180627f000063ffffffff8460601c1609830860601b91637f00000180637effff8263ffffffff8560801c1609820860801b91637f0000018080636f20000163ffffffff8560a01c1609840860a01b928160048180637e81000163ffffffff8860c01c1609840860c01b9460e01c098203900860e01b1717171717171790565b61082461081e6108ed92949394610985565b93610985565b92637f00000163ffffffff8560601c168560e01c0163ffffffff8360601c168360e01c01010690637f00000163ffffffff8660401c1663ffffffff8760c01c160163ffffffff8360401c1663ffffffff8460c01c16010106826108e7637f00000163ffffffff8960201c1663ffffffff8a60a01c160163ffffffff8660201c1663ffffffff8760a01c16010106938484637f00000163ffffffff8c1663ffffffff8d60801c160163ffffffff851663ffffffff8660801c160101069788936108f0565b966108f0565b90565b9293909193637f00000163ffffffff8516830894637f00000163ffffffff8660201c16830860201b94637f0000018063ffffffff8360401c16840860401b958180808063ffffffff8760601c16850860601b9863ffffffff8760801c16900860801b9663ffffffff8660a01c16900860a01b9463ffffffff8560c01c16900860c01b9260e01c900860e01b1717171717171790565b610a3b6109e063ffffffff8360801c1663ffffffff8460a01c1663ffffffff8560c01c168560e01c637f000001909492919481868201958181860198818a8a0191820193849201868197010106968001010696010695010691565b919293909463ffffffff81169063ffffffff8160201c169063ffffffff808260401c169160601c16637f000001909492919481868201958181860198818a8a0191820193849201868197010106968001010696010695010691565b96929491959060201b9560401b9460601b9360801b9260a01b9160c01b9060e01b1717171717171790565b610b1f635c15b82263ffffffff610a8563747e80c98560e01c016116d5565b60e01b610a9c637d5ff3d1838760c01c16016116d5565b60c01b17610ab46379440df5838760a01c16016116d5565b60a01b17610acb620413c5838760801c16016116d5565b60801b17610ae36341d0a44f838760601c16016116d5565b60601b17610afb630a1c440d838760401c16016116d5565b60401b17610b13634d06e84c838760201c16016116d5565b60201b179316016116d5565b1790565b610b1f637a64f2cc63ffffffff610b42634734c87b8560e01c016116d5565b60e01b610b59634d3a8a8e838760c01c16016116d5565b60c01b17610b7163078f1df5838760a01c16016116d5565b60a01b17610b89631a1cd0b8838760801c16016116d5565b60801b17610ba16379bffc5d838760601c16016116d5565b60601b17610bb96360b1b050838760401c16016116d5565b60401b17610b1363583a8f51838760201c16016116d5565b610b1f63016a13d663ffffffff610bf063310042f48560e01c016116d5565b60e01b610c07631c53094b838760c01c16016116d5565b60c01b17610c1f631c5cba69838760a01c16016116d5565b60a01b17610c37636d6ffbdf838760801c16016116d5565b60801b17610c4f630901f29c838760601c16016116d5565b60601b17610c6763325e35b3838760401c16016116d5565b60401b17610b13630f56ce7d838760201c16016116d5565b610b1f636488ca5463ffffffff610c9e63735b0fea8560e01c016116d5565b60e01b610cb5636340a193838760c01c16016116d5565b60c01b17610ccd6359973615838760a01c16016116d5565b60a01b17610ce56345158619838760801c16016116d5565b60801b17610cfd633b159953838760601c16016116d5565b60601b17610d156317fa6295838760401c16016116d5565b60401b17610b13632d9bdf64838760201c16016116d5565b610b1f637ea189de63ffffffff610d4c632c5846468560e01c016116d5565b60e01b610d636323f97e04838760c01c16016116d5565b60c01b17610d7b636792307e838760a01c16016116d5565b60a01b17610d936319a4384b838760801c16016116d5565b60801b17610dab6316dd8606838760601c16016116d5565b60601b17610dc363260ba965838760401c16016116d5565b60401b17610b13634202495b838760201c16016116d5565b610b1f63540dcc0563ffffffff610dfa632830cef58560e01c016116d5565b60e01b610e11630de12165838760c01c16016116d5565b60c01b17610e296356f3b445838760a01c16016116d5565b60a01b17610e416302c06c3b838760801c16016116d5565b60801b17610e5963632610e3838760601c16016116d5565b60601b17610e71636d42c9e9838760401c16016116d5565b60401b17610b136370946c65838760201c16016116d5565b610b1f636f58ab9c63ffffffff610ea86311218dc08560e01c016116d5565b60e01b610ebf63167014be838760c01c16016116d5565b60c01b17610ed7637c8eb2e2838760a01c16016116d5565b60a01b17610eef633a6c3b9b838760801c16016116d5565b60801b17610f07637a033707838760601c16016116d5565b60601b17610f1f63120e62e5838760401c16016116d5565b60401b17610b13630e3b6de8838760201c16016116d5565b610b1f6368c005fa63ffffffff610f56631f79642b8560e01c016116d5565b60e01b610f6d63294d9199838760c01c16016116d5565b60c01b17610f8563367cc09f838760a01c16016116d5565b60a01b17610f9d631b12a5d9838760801c16016116d5565b60801b17610fb5636fc83522838760601c16016116d5565b60601b17610fcd633df8b572838760401c16016116d5565b60401b17610b1363654b046e838760201c16016116d5565b610b1f632eaf547563ffffffff6110046309b4f5ef8560e01c016116d5565b60e01b61101b6360c076d7838760c01c16016116d5565b60c01b1761103363231e594c838760a01c16016116d5565b60a01b1761104b637ba2a269838760801c16016116d5565b60801b17611063632c9185f8838760601c16016116d5565b60601b1761107b633a2840fd838760401c16016116d5565b60401b17610b1363718175b5838760201c16016116d5565b610b1f635cb8526d63ffffffff6110b2632324d0228560e01c016116d5565b60e01b6110c963013e8d86838760c01c16016116d5565b60c01b176110e163701e300c838760a01c16016116d5565b60a01b176110f96322d1a4b0838760801c16016116d5565b60801b176111116327373149838760601c16016116d5565b60601b17611129634f0bb2c7838760401c16016116d5565b60401b17610b1363703e164c838760201c16016116d5565b610b1f6347931fcc63ffffffff6111606352a0a9508560e01c016116d5565b60e01b611177635c2abe98838760c01c16016116d5565b60c01b1761118f6333fd5450838760a01c16016116d5565b60a01b176111a76313ce64d5838760801c16016116d5565b60801b176111bf6363a94828838760601c16016116d5565b60601b176111d7634730b126838760401c16016116d5565b60401b17610b13634e159942838760201c16016116d5565b610b1f635d61e9df63ffffffff61120e6365b907038560e01c016116d5565b60e01b6112256333c90dc5838760c01c16016116d5565b60c01b1761123d637e45ae51838760a01c16016116d5565b60a01b1761125563298fb39a838760801c16016116d5565b60801b1761126d634ed1df72838760601c16016116d5565b60601b17611285634fbb42a6838760401c16016116d5565b60401b17610b13633d33c0e6838760201c16016116d5565b637f00000163ffffffff831663ffffffff83160891637f00000163ffffffff8260201c1663ffffffff8460201c160860201b91637f00000163ffffffff8360401c1663ffffffff8360401c160860401b91637f00000163ffffffff8260601c1663ffffffff8460601c160860601b91637f00000163ffffffff8360801c1663ffffffff8360801c160860801b91637f0000018063ffffffff8360a01c1663ffffffff8560a01c160860a01b928163ffffffff8460c01c1663ffffffff8360c01c160860c01b9260e01c9060e01c0860e01b1717171717171790565b637f0000018160e01c63102b26d00181818009900960e01b9063ffffffff60e01b811690030190565b637f0000018160e01c6326a27e020181818009900960e01b9063ffffffff60e01b811690030190565b637f0000018160e01c63631a12ee0181818009900960e01b9063ffffffff60e01b811690030190565b637f0000018160e01c63764381a00181818009900960e01b9063ffffffff60e01b811690030190565b637f0000018160e01c63237670af0181818009900960e01b9063ffffffff60e01b811690030190565b637f0000018160e01c6306704ee20181818009900960e01b9063ffffffff60e01b811690030190565b637f0000018160e01c6332a30b700181818009900960e01b9063ffffffff60e01b811690030190565b637f0000018160e01c6374f1a6d20181818009900960e01b9063ffffffff60e01b811690030190565b637f0000018160e01c635c2b3ab30181818009900960e01b9063ffffffff60e01b811690030190565b637f0000018160e01c633dc9785e0181818009900960e01b9063ffffffff60e01b811690030190565b637f0000018160e01c631af253b60181818009900960e01b9063ffffffff60e01b811690030190565b637f0000018160e01c631070cad80181818009900960e01b9063ffffffff60e01b811690030190565b637f0000018160e01c632d7e0ec30181818009900960e01b9063ffffffff60e01b811690030190565b637f0000018160e01c633fb3540b0181818009900960e01b9063ffffffff60e01b811690030190565b637f0000018160e01c635e3b82d30181818009900960e01b9063ffffffff60e01b811690030190565b637f0000018160e01c63520a1a140181818009900960e01b9063ffffffff60e01b811690030190565b637f0000018160e01c633536b5080181818009900960e01b9063ffffffff60e01b811690030190565b637f0000018160e01c63502ceafe0181818009900960e01b9063ffffffff60e01b811690030190565b637f0000018160e01c63362a42a90181818009900960e01b9063ffffffff60e01b811690030190565b637f0000018160e01c63362c45580181818009900960e01b9063ffffffff60e01b811690030190565b637f0000018160e01c633ecbe9280181818009900960e01b9063ffffffff60e01b811690030190565b637f000001908181800990099056fea2646970667358221220847e240559ce15d40519b95c43f0769bd17732353ffb8045556477a0d5264ffa64736f6c63430008210033",
  "linkReferences": {},
  "deployedLinkReferences": {}
}