{
  "_format": "hh-sol-artifact-1",
  "contractName": "SparseMerkleProof",
  "sourceName": "@consensys/linea-state-verifier/contracts/lib/SparseMerkleProof.sol",
  "abi": [
    {
      "inputs": [],
      "name": "LengthNotMod32",
      "type": "error"
    },
    {
      "inputs": [],
      "name": "MaxTreeLeafIndexExceed",
      "type": "error"
    },
    {
      "inputs": [
        {
          "internalType": "bytes32",
          "name": "expected",
          "type": "bytes32"
        },
        {
          "internalType": "bytes32",
          "name": "actual",
          "type": "bytes32"
        }
      ],
      "name": "SubSmtRootMismatch",
      "type": "error"
    },
    {
      "inputs": [
        {
          "internalType": "uint256",
          "name": "expectedLength",
          "type": "uint256"
        },
        {
          "internalType": "uint256",
          "name": "bytesLength",
          "type": "uint256"
        }
      ],
      "name": "WrongBytesLength",
      "type": "error"
    },
    {
      "inputs": [
        {
          "internalType": "uint256",
          "name": "expectedLength",
          "type": "uint256"
        },
        {
          "internalType": "uint256",
          "name": "actualLength",
          "type": "uint256"
        }
      ],
      "name": "WrongProofLength",
      "type": "error"
    },
    {
      "inputs": [
        {
          "internalType": "bytes",
          "name": "_encodedAccountValue",
          "type": "bytes"
        }
      ],
      "name": "getAccount",
      "outputs": [
        {
          "components": [
            {
              "internalType": "uint64",
              "name": "nonce",
              "type": "uint64"
            },
            {
              "internalType": "uint256",
              "name": "balance",
              "type": "uint256"
            },
            {
              "internalType": "bytes32",
              "name": "storageRoot",
              "type": "bytes32"
            },
            {
              "internalType": "bytes32",
              "name": "snarkCodeHash",
              "type": "bytes32"
            },
            {
              "internalType": "bytes32",
              "name": "keccakCodeHash",
              "type": "bytes32"
            },
            {
              "internalType": "uint64",
              "name": "codeSize",
              "type": "uint64"
            }
          ],
          "internalType": "struct SparseMerkleProof.Account",
          "name": "",
          "type": "tuple"
        }
      ],
      "stateMutability": "pure",
      "type": "function"
    },
    {
      "inputs": [
        {
          "internalType": "bytes",
          "name": "_encodedLeaf",
          "type": "bytes"
        }
      ],
      "name": "getLeaf",
      "outputs": [
        {
          "components": [
            {
              "internalType": "uint256[2]",
              "name": "prev",
              "type": "uint256[2]"
            },
            {
              "internalType": "uint256[2]",
              "name": "next",
              "type": "uint256[2]"
            },
            {
              "internalType": "bytes32",
              "name": "hKey",
              "type": "bytes32"
            },
            {
              "internalType": "bytes32",
              "name": "hValue",
              "type": "bytes32"
            }
          ],
          "internalType": "struct SparseMerkleProof.Leaf",
          "name": "",
          "type": "tuple"
        }
      ],
      "stateMutability": "pure",
      "type": "function"
    },
    {
      "inputs": [
        {
          "internalType": "bytes",
          "name": "_value",
          "type": "bytes"
        }
      ],
      "name": "hashAccountValue",
      "outputs": [
        {
          "internalType": "bytes32",
          "name": "",
          "type": "bytes32"
        }
      ],
      "stateMutability": "pure",
      "type": "function"
    },
    {
      "inputs": [
        {
          "internalType": "bytes32",
          "name": "_value",
          "type": "bytes32"
        }
      ],
      "name": "hashStorageValue",
      "outputs": [
        {
          "internalType": "bytes32",
          "name": "",
          "type": "bytes32"
        }
      ],
      "stateMutability": "pure",
      "type": "function"
    },
    {
      "inputs": [
        {
          "internalType": "bytes",
          "name": "_input",
          "type": "bytes"
        }
      ],
      "name": "poseidon2Hash",
      "outputs": [
        {
          "internalType": "bytes32",
          "name": "",
          "type": "bytes32"
        }
      ],
      "stateMutability": "pure",
      "type": "function"
    },
    {
      "inputs": [
        {
          "internalType": "bytes[]",
          "name": "_rawProof",
          "type": "bytes[]"
        },
        {
          "internalType": "uint256",
          "name": "_leafIndex",
          "type": "uint256"
        },
        {
          "internalType": "bytes32",
          "name": "_root",
          "type": "bytes32"
        }
      ],
      "name": "verifyProof",
      "outputs": [
        {
          "internalType": "bool",
          "name": "",
          "type": "bool"
        }
      ],
      "stateMutability": "pure",
      "type": "function"
    }
  ],
  "bytecode": "0x60808060405234601957610e9d908161001e823930815050f35b5f80fdfe6080806040526004361015610012575f80fd5b5f3560e01c9081630836908e14610a6b575080635ea5a98f146109b557806360f0f00f146109525780638c628e4014610746578063cc5c21ea1461014e5763ceeef5041461005e575f80fd5b60203660031901126101135773__$a84ed6d4133229420e464eff8514933e35$__604051636f4db2d960e01b815260043560048201525f81602481855af4801561011f576100cc926020925f9261012a575b50604051808095819463550f426f60e11b835260048301610caa565b03915af4801561011f575f906100e8575b602090604051908152f35b506020813d602011610117575b8161010260209383610b7f565b8101031261011357602090516100dd565b5f80fd5b3d91506100f5565b6040513d5f823e3d90fd5b6101479192503d805f833e61013f8183610b7f565b810190610c39565b905f6100b0565b6060366003190112610113576004356001600160401b0381116101135736602382011215610113578060040135906001600160401b038211610113576024810190602436918460051b01011161011357602435602a830361072e576040918280516101b98282610b7f565b369037600119840190848211610648576101d282610da0565b926101df85519485610b7f565b828452601f196101ee84610da0565b0136602086013760606102018784610db7565b90500361070b575f19860186811193846106485760c0610222838a87610e05565b9050036106e7576102338885610db7565b8199910160608a8203126101135780601f8b011215610113578851996102598a8c610b7f565b8a908a810192831161011357905b8282106106d7575050359473__$a84ed6d4133229420e464eff8514933e35$__9661064857602061029c6102b7958484610e05565b8b5163550f426f60e11b815296879283929060048401610ba0565b03818a5af49384156106cd575f94610699575b5060015b8381106105e657506102e1838383610e05565b90601f82166105d7576001918101905b8181106105be575b50501561053e575050505f61030d86610e46565b525b9364ffffffffff821161052f57905f915b60288310610406575050508083036103ef57508251915f602084015b600282106103d95761037b866020878787606083015260608252610361608083610b7f565b8351808096819463550f426f60e11b835260048301610caa565b03915af49081156103d0575f9161039b575b602092505190604435148152f35b90506020823d6020116103c8575b816103b660209383610b7f565b8101031261011357602091519061038d565b3d91506103a9565b513d5f823e3d90fd5b602080600192895181520197019101909561033c565b9050631f01192960e11b5f5260045260245260445ffd5b90919460018084881c16145f146104b757602061045b916104278885610e53565b51908951918383015289820152888152610442606082610b7f565b88518093819263550f426f60e11b835260048301610caa565b0381885af480156104ad575f9061047b575b60019150955b019190610320565b506020813d82116104a5575b8161049460209383610b7f565b81010312610113576001905161046d565b3d9150610487565b87513d5f823e3d90fd5b60206104e1916104c78885610e53565b518951918383015289820152888152610442606082610b7f565b0381885af480156104ad575f906104fd575b6001915095610473565b506020813d8211610527575b8161051660209383610b7f565b8101031261011357600190516104f3565b3d9150610509565b630382f09360e41b5f5260045ffd5b6105699260209261054e92610e05565b895163550f426f60e11b815293849283929060048401610ba0565b0381885af49081156104ad575f9161058c575b5061058686610e46565b5261030f565b90506020813d6020116105b6575b816105a760209383610b7f565b8101031261011357518861057c565b3d915061059a565b80356105cc576020016102f1565b5050505f8b806102f9565b63398658fd60e21b5f5260045ffd5b8060206105f7610612938686610e05565b8d5163550f426f60e11b815294859283929060048401610ba0565b03818c5af491821561068f575f9261065c575b508084036001190191858311610648576106416001938c610e53565b52016102ce565b634e487b7160e01b5f52601160045260245ffd5b9091506020813d8211610687575b8161067760209383610b7f565b810103126101135751908c610625565b3d915061066a565b8b513d5f823e3d90fd5b9093506020813d6020116106c5575b816106b560209383610b7f565b810103126101135751928a6102ca565b3d91506106a8565b89513d5f823e3d90fd5b8135815260209182019101610267565b6106f2828986610e05565b9050637b45159f60e01b5f5260c060045260245260445ffd5b6107158683610db7565b9050637b45159f60e01b5f52606060045260245260445ffd5b82637169558560e11b5f52602a60045260245260445ffd5b61075861075236610abf565b90610d2f565b8051604051636f4db2d960e01b81526001600160401b03909116600482015273__$a84ed6d4133229420e464eff8514933e35$__915f82602481865af491821561011f575f92610936575b5060208101519260405193636f4db2d960e01b855260048501525f84602481845af493841561011f575f9461091a575b5060408201519160608101519360808201519160405192636f4db2d960e01b845260048401525f83602481875af492831561011f575f936108f2575b5060a00151604051636f4db2d960e01b81526001600160401b039091166004820152945f86602481875af495861561011f576100cc9760209788976108b7966040958a955f946108d2575b50858080959689519d8b8f82819e519384930191015e8b01908282015f8152815193849201905e0101928352838301528051928391018683015e01908382015f8152815193849201905e01015f815203601f198101845283610b7f565b604051808095819463550f426f60e11b835260048301610caa565b868095506108ea81923d805f833e61013f8183610b7f565b95505061085a565b6001600160401b0391935061091260a0913d805f833e61013f8183610b7f565b93915061080f565b61092f9194503d805f833e61013f8183610b7f565b92846107d3565b61094b9192503d805f833e61013f8183610b7f565b90836107a3565b60c061096f61096036610abf565b90610969610c09565b50610d2f565b6001600160401b0360a0604051928281511684526020810151602085015260408101516040850152606081015160608501526080810151608085015201511660a0820152f35b6109be36610abf565b6109c6610bc7565b506109cf610bc7565b5060c08103610a5457810160c0828203126101135760c091610a0c604051926109f784610b35565b610a018184610cd4565b845260408301610cd4565b60208301908152610a4660408401916080840135835260a0606086019401358452610a3b604051809651610b0e565b516040850190610b0e565b5160808301525160a0820152f35b637b45159f60e01b5f5260c060045260245260445ffd5b60208180610a8f610a7b36610abf565b63550f426f60e11b84529060048401610ba0565b038173__$a84ed6d4133229420e464eff8514933e35$__5af4801561011f575f906100e857602090604051908152f35b906020600319830112610113576004356001600160401b0381116101135782602382011215610113578060040135926001600160401b0384116101135760248483010111610113576024019190565b905f905b60028210610b1f57505050565b6020806001928551815201930191019091610b12565b608081019081106001600160401b03821117610b5057604052565b634e487b7160e01b5f52604160045260245ffd5b60c081019081106001600160401b03821117610b5057604052565b90601f801991011681019081106001600160401b03821117610b5057604052565b90918060409360208452816020850152848401375f828201840152601f01601f1916010190565b60405190610bd482610b35565b5f6060838260408051610be78282610b7f565b8136823783528051610bf98282610b7f565b8136823760208401528201520152565b60405190610c1682610b64565b5f60a0838281528260208201528260408201528260608201528260808201520152565b602081830312610113578051906001600160401b038211610113570181601f82011215610113578051906001600160401b038211610b505760405192610c89601f8401601f191660200185610b7f565b8284526020838301011161011357815f9260208093018386015e8301015290565b602060409281835280519182918282860152018484015e5f828201840152601f01601f1916010190565b9080601f830112156101135760405191610cef604084610b7f565b82906040810192831161011357905b828210610d0b5750505090565b8135815260209182019101610cfe565b35906001600160401b038216820361011357565b90610d38610c09565b5060c08103610a54578160c0918101031261011357610d9860a060405192610d5f84610b64565b610d6881610d1b565b84526020810135602085015260408101356040850152606081013560608501526080810135608085015201610d1b565b60a082015290565b6001600160401b038111610b505760051b60200190565b9015610df157803590601e19813603018212156101135701908135916001600160401b038311610113576020018236038113610113579190565b634e487b7160e01b5f52603260045260245ffd5b9190811015610df15760051b81013590601e19813603018212156101135701908135916001600160401b038311610113576020018236038113610113579190565b805115610df15760200190565b8051821015610df15760209160051b01019056fea2646970667358221220902dbdc91110e7655d1304ce822935dcb63668bc3d3b99f34469c6a1f770aa0a64736f6c63430008210033",
  "linkReferences": {
    "@consensys/linea-state-verifier/contracts/lib/Poseidon2.sol": {
      "Poseidon2": [
        {
          "length": 20,
          "start": 138
        },
        {
          "length": 20,
          "start": 658
        },
        {
          "length": 20,
          "start": 1943
        },
        {
          "length": 20,
          "start": 2737
        }
      ]
    }
  },
  "deployedLinkReferences": {
    "@consensys/linea-state-verifier/contracts/lib/Poseidon2.sol": {
      "Poseidon2": [
        {
          "length": 20,
          "start": 108
        },
        {
          "length": 20,
          "start": 628
        },
        {
          "length": 20,
          "start": 1913
        },
        {
          "length": 20,
          "start": 2707
        }
      ]
    }
  }
}