{"abi":[{"type":"constructor","inputs":[],"stateMutability":"nonpayable"},{"type":"function","name":"CLOCK_MODE","inputs":[],"outputs":[{"name":"","type":"string","internalType":"string"}],"stateMutability":"view"},{"type":"function","name":"DEFAULT_ADMIN_ROLE","inputs":[],"outputs":[{"name":"","type":"bytes32","internalType":"bytes32"}],"stateMutability":"view"},{"type":"function","name":"DOMAIN_SEPARATOR","inputs":[],"outputs":[{"name":"","type":"bytes32","internalType":"bytes32"}],"stateMutability":"view"},{"type":"function","name":"allowance","inputs":[{"name":"owner","type":"address","internalType":"address"},{"name":"spender","type":"address","internalType":"address"}],"outputs":[{"name":"","type":"uint256","internalType":"uint256"}],"stateMutability":"view"},{"type":"function","name":"approve","inputs":[{"name":"spender","type":"address","internalType":"address"},{"name":"value","type":"uint256","internalType":"uint256"}],"outputs":[{"name":"","type":"bool","internalType":"bool"}],"stateMutability":"nonpayable"},{"type":"function","name":"balanceOf","inputs":[{"name":"account","type":"address","internalType":"address"}],"outputs":[{"name":"","type":"uint256","internalType":"uint256"}],"stateMutability":"view"},{"type":"function","name":"burn","inputs":[{"name":"_account","type":"address","internalType":"address"},{"name":"_value","type":"uint256","internalType":"uint256"}],"outputs":[],"stateMutability":"nonpayable"},{"type":"function","name":"checkpoints","inputs":[{"name":"account","type":"address","internalType":"address"},{"name":"pos","type":"uint32","internalType":"uint32"}],"outputs":[{"name":"","type":"tuple","internalType":"struct Checkpoints.Checkpoint208","components":[{"name":"_key","type":"uint48","internalType":"uint48"},{"name":"_value","type":"uint208","internalType":"uint208"}]}],"stateMutability":"view"},{"type":"function","name":"clock","inputs":[],"outputs":[{"name":"","type":"uint48","internalType":"uint48"}],"stateMutability":"view"},{"type":"function","name":"decimals","inputs":[],"outputs":[{"name":"","type":"uint8","internalType":"uint8"}],"stateMutability":"view"},{"type":"function","name":"delegate","inputs":[{"name":"delegatee","type":"address","internalType":"address"}],"outputs":[],"stateMutability":"nonpayable"},{"type":"function","name":"delegateBySig","inputs":[{"name":"delegatee","type":"address","internalType":"address"},{"name":"nonce","type":"uint256","internalType":"uint256"},{"name":"expiry","type":"uint256","internalType":"uint256"},{"name":"v","type":"uint8","internalType":"uint8"},{"name":"r","type":"bytes32","internalType":"bytes32"},{"name":"s","type":"bytes32","internalType":"bytes32"}],"outputs":[],"stateMutability":"nonpayable"},{"type":"function","name":"delegates","inputs":[{"name":"account","type":"address","internalType":"address"}],"outputs":[{"name":"","type":"address","internalType":"address"}],"stateMutability":"view"},{"type":"function","name":"eip712Domain","inputs":[],"outputs":[{"name":"fields","type":"bytes1","internalType":"bytes1"},{"name":"name","type":"string","internalType":"string"},{"name":"version","type":"string","internalType":"string"},{"name":"chainId","type":"uint256","internalType":"uint256"},{"name":"verifyingContract","type":"address","internalType":"address"},{"name":"salt","type":"bytes32","internalType":"bytes32"},{"name":"extensions","type":"uint256[]","internalType":"uint256[]"}],"stateMutability":"view"},{"type":"function","name":"getPastTotalSupply","inputs":[{"name":"timepoint","type":"uint256","internalType":"uint256"}],"outputs":[{"name":"","type":"uint256","internalType":"uint256"}],"stateMutability":"view"},{"type":"function","name":"getPastVotes","inputs":[{"name":"account","type":"address","internalType":"address"},{"name":"timepoint","type":"uint256","internalType":"uint256"}],"outputs":[{"name":"","type":"uint256","internalType":"uint256"}],"stateMutability":"view"},{"type":"function","name":"getRoleAdmin","inputs":[{"name":"role","type":"bytes32","internalType":"bytes32"}],"outputs":[{"name":"","type":"bytes32","internalType":"bytes32"}],"stateMutability":"view"},{"type":"function","name":"getVotes","inputs":[{"name":"account","type":"address","internalType":"address"}],"outputs":[{"name":"","type":"uint256","internalType":"uint256"}],"stateMutability":"view"},{"type":"function","name":"grantRole","inputs":[{"name":"role","type":"bytes32","internalType":"bytes32"},{"name":"account","type":"address","internalType":"address"}],"outputs":[],"stateMutability":"nonpayable"},{"type":"function","name":"hasRole","inputs":[{"name":"role","type":"bytes32","internalType":"bytes32"},{"name":"account","type":"address","internalType":"address"}],"outputs":[{"name":"","type":"bool","internalType":"bool"}],"stateMutability":"view"},{"type":"function","name":"initialize","inputs":[{"name":"_defaultAdmin","type":"address","internalType":"address"},{"name":"_lineaCanonicalTokenBridge","type":"address","internalType":"address"},{"name":"_lineaMessageService","type":"address","internalType":"address"},{"name":"_l1Token","type":"address","internalType":"address"},{"name":"_tokenName","type":"string","internalType":"string"},{"name":"_tokenSymbol","type":"string","internalType":"string"}],"outputs":[],"stateMutability":"nonpayable"},{"type":"function","name":"l1LineaTokenSupply","inputs":[],"outputs":[{"name":"","type":"uint256","internalType":"uint256"}],"stateMutability":"view"},{"type":"function","name":"l1LineaTokenTotalSupplySyncTime","inputs":[],"outputs":[{"name":"","type":"uint256","internalType":"uint256"}],"stateMutability":"view"},{"type":"function","name":"lineaCanonicalTokenBridge","inputs":[],"outputs":[{"name":"","type":"address","internalType":"address"}],"stateMutability":"view"},{"type":"function","name":"messageService","inputs":[],"outputs":[{"name":"","type":"address","internalType":"contract IMessageService"}],"stateMutability":"view"},{"type":"function","name":"mint","inputs":[{"name":"_account","type":"address","internalType":"address"},{"name":"_amount","type":"uint256","internalType":"uint256"}],"outputs":[],"stateMutability":"nonpayable"},{"type":"function","name":"name","inputs":[],"outputs":[{"name":"","type":"string","internalType":"string"}],"stateMutability":"view"},{"type":"function","name":"nonces","inputs":[{"name":"_owner","type":"address","internalType":"address"}],"outputs":[{"name":"","type":"uint256","internalType":"uint256"}],"stateMutability":"view"},{"type":"function","name":"numCheckpoints","inputs":[{"name":"account","type":"address","internalType":"address"}],"outputs":[{"name":"","type":"uint32","internalType":"uint32"}],"stateMutability":"view"},{"type":"function","name":"permit","inputs":[{"name":"owner","type":"address","internalType":"address"},{"name":"spender","type":"address","internalType":"address"},{"name":"value","type":"uint256","internalType":"uint256"},{"name":"deadline","type":"uint256","internalType":"uint256"},{"name":"v","type":"uint8","internalType":"uint8"},{"name":"r","type":"bytes32","internalType":"bytes32"},{"name":"s","type":"bytes32","internalType":"bytes32"}],"outputs":[],"stateMutability":"nonpayable"},{"type":"function","name":"remoteSender","inputs":[],"outputs":[{"name":"","type":"address","internalType":"address"}],"stateMutability":"view"},{"type":"function","name":"renounceRole","inputs":[{"name":"role","type":"bytes32","internalType":"bytes32"},{"name":"callerConfirmation","type":"address","internalType":"address"}],"outputs":[],"stateMutability":"nonpayable"},{"type":"function","name":"revokeRole","inputs":[{"name":"role","type":"bytes32","internalType":"bytes32"},{"name":"account","type":"address","internalType":"address"}],"outputs":[],"stateMutability":"nonpayable"},{"type":"function","name":"supportsInterface","inputs":[{"name":"interfaceId","type":"bytes4","internalType":"bytes4"}],"outputs":[{"name":"","type":"bool","internalType":"bool"}],"stateMutability":"view"},{"type":"function","name":"symbol","inputs":[],"outputs":[{"name":"","type":"string","internalType":"string"}],"stateMutability":"view"},{"type":"function","name":"syncTotalSupplyFromL1","inputs":[{"name":"_l1LineaTokenTotalSupplySyncTime","type":"uint256","internalType":"uint256"},{"name":"_l1LineaTokenSupply","type":"uint256","internalType":"uint256"}],"outputs":[],"stateMutability":"nonpayable"},{"type":"function","name":"totalSupply","inputs":[],"outputs":[{"name":"","type":"uint256","internalType":"uint256"}],"stateMutability":"view"},{"type":"function","name":"transfer","inputs":[{"name":"to","type":"address","internalType":"address"},{"name":"value","type":"uint256","internalType":"uint256"}],"outputs":[{"name":"","type":"bool","internalType":"bool"}],"stateMutability":"nonpayable"},{"type":"function","name":"transferFrom","inputs":[{"name":"from","type":"address","internalType":"address"},{"name":"to","type":"address","internalType":"address"},{"name":"value","type":"uint256","internalType":"uint256"}],"outputs":[{"name":"","type":"bool","internalType":"bool"}],"stateMutability":"nonpayable"},{"type":"event","name":"Approval","inputs":[{"name":"owner","type":"address","indexed":true,"internalType":"address"},{"name":"spender","type":"address","indexed":true,"internalType":"address"},{"name":"value","type":"uint256","indexed":false,"internalType":"uint256"}],"anonymous":false},{"type":"event","name":"DelegateChanged","inputs":[{"name":"delegator","type":"address","indexed":true,"internalType":"address"},{"name":"fromDelegate","type":"address","indexed":true,"internalType":"address"},{"name":"toDelegate","type":"address","indexed":true,"internalType":"address"}],"anonymous":false},{"type":"event","name":"DelegateVotesChanged","inputs":[{"name":"delegate","type":"address","indexed":true,"internalType":"address"},{"name":"previousVotes","type":"uint256","indexed":false,"internalType":"uint256"},{"name":"newVotes","type":"uint256","indexed":false,"internalType":"uint256"}],"anonymous":false},{"type":"event","name":"EIP712DomainChanged","inputs":[],"anonymous":false},{"type":"event","name":"Initialized","inputs":[{"name":"version","type":"uint64","indexed":false,"internalType":"uint64"}],"anonymous":false},{"type":"event","name":"L1LineaTokenTotalSupplySynced","inputs":[{"name":"l1LineaTokenTotalSupplySyncTime","type":"uint256","indexed":false,"internalType":"uint256"},{"name":"l1LineaTokenSupply","type":"uint256","indexed":false,"internalType":"uint256"}],"anonymous":false},{"type":"event","name":"L1TokenAddressSet","inputs":[{"name":"l1TokenAddress","type":"address","indexed":false,"internalType":"address"}],"anonymous":false},{"type":"event","name":"L2MessageServiceSet","inputs":[{"name":"l2MessageService","type":"address","indexed":false,"internalType":"address"}],"anonymous":false},{"type":"event","name":"LineaCanonicalTokenBridgeSet","inputs":[{"name":"lineaCanonicalTokenBridge","type":"address","indexed":false,"internalType":"address"}],"anonymous":false},{"type":"event","name":"RemoteSenderSet","inputs":[{"name":"remoteSender","type":"address","indexed":true,"internalType":"address"},{"name":"setter","type":"address","indexed":true,"internalType":"address"}],"anonymous":false},{"type":"event","name":"RoleAdminChanged","inputs":[{"name":"role","type":"bytes32","indexed":true,"internalType":"bytes32"},{"name":"previousAdminRole","type":"bytes32","indexed":true,"internalType":"bytes32"},{"name":"newAdminRole","type":"bytes32","indexed":true,"internalType":"bytes32"}],"anonymous":false},{"type":"event","name":"RoleGranted","inputs":[{"name":"role","type":"bytes32","indexed":true,"internalType":"bytes32"},{"name":"account","type":"address","indexed":true,"internalType":"address"},{"name":"sender","type":"address","indexed":true,"internalType":"address"}],"anonymous":false},{"type":"event","name":"RoleRevoked","inputs":[{"name":"role","type":"bytes32","indexed":true,"internalType":"bytes32"},{"name":"account","type":"address","indexed":true,"internalType":"address"},{"name":"sender","type":"address","indexed":true,"internalType":"address"}],"anonymous":false},{"type":"event","name":"TokenMetadataSet","inputs":[{"name":"name","type":"string","indexed":false,"internalType":"string"},{"name":"symbol","type":"string","indexed":false,"internalType":"string"}],"anonymous":false},{"type":"event","name":"Transfer","inputs":[{"name":"from","type":"address","indexed":true,"internalType":"address"},{"name":"to","type":"address","indexed":true,"internalType":"address"},{"name":"value","type":"uint256","indexed":false,"internalType":"uint256"}],"anonymous":false},{"type":"error","name":"AccessControlBadConfirmation","inputs":[]},{"type":"error","name":"AccessControlUnauthorizedAccount","inputs":[{"name":"account","type":"address","internalType":"address"},{"name":"neededRole","type":"bytes32","internalType":"bytes32"}]},{"type":"error","name":"CallerIsNotMessageService","inputs":[]},{"type":"error","name":"CallerIsNotTokenBridge","inputs":[]},{"type":"error","name":"CheckpointUnorderedInsertion","inputs":[]},{"type":"error","name":"ECDSAInvalidSignature","inputs":[]},{"type":"error","name":"ECDSAInvalidSignatureLength","inputs":[{"name":"length","type":"uint256","internalType":"uint256"}]},{"type":"error","name":"ECDSAInvalidSignatureS","inputs":[{"name":"s","type":"bytes32","internalType":"bytes32"}]},{"type":"error","name":"ERC20ExceededSafeSupply","inputs":[{"name":"increasedSupply","type":"uint256","internalType":"uint256"},{"name":"cap","type":"uint256","internalType":"uint256"}]},{"type":"error","name":"ERC20InsufficientAllowance","inputs":[{"name":"spender","type":"address","internalType":"address"},{"name":"allowance","type":"uint256","internalType":"uint256"},{"name":"needed","type":"uint256","internalType":"uint256"}]},{"type":"error","name":"ERC20InsufficientBalance","inputs":[{"name":"sender","type":"address","internalType":"address"},{"name":"balance","type":"uint256","internalType":"uint256"},{"name":"needed","type":"uint256","internalType":"uint256"}]},{"type":"error","name":"ERC20InvalidApprover","inputs":[{"name":"approver","type":"address","internalType":"address"}]},{"type":"error","name":"ERC20InvalidReceiver","inputs":[{"name":"receiver","type":"address","internalType":"address"}]},{"type":"error","name":"ERC20InvalidSender","inputs":[{"name":"sender","type":"address","internalType":"address"}]},{"type":"error","name":"ERC20InvalidSpender","inputs":[{"name":"spender","type":"address","internalType":"address"}]},{"type":"error","name":"ERC2612ExpiredSignature","inputs":[{"name":"deadline","type":"uint256","internalType":"uint256"}]},{"type":"error","name":"ERC2612InvalidSigner","inputs":[{"name":"signer","type":"address","internalType":"address"},{"name":"owner","type":"address","internalType":"address"}]},{"type":"error","name":"ERC5805FutureLookup","inputs":[{"name":"timepoint","type":"uint256","internalType":"uint256"},{"name":"clock","type":"uint48","internalType":"uint48"}]},{"type":"error","name":"ERC6372InconsistentClock","inputs":[]},{"type":"error","name":"EmptyStringNotAllowed","inputs":[]},{"type":"error","name":"InvalidAccountNonce","inputs":[{"name":"account","type":"address","internalType":"address"},{"name":"currentNonce","type":"uint256","internalType":"uint256"}]},{"type":"error","name":"InvalidInitialization","inputs":[]},{"type":"error","name":"LastSyncMoreRecent","inputs":[]},{"type":"error","name":"NotInitializing","inputs":[]},{"type":"error","name":"SafeCastOverflowedUintDowncast","inputs":[{"name":"bits","type":"uint8","internalType":"uint8"},{"name":"value","type":"uint256","internalType":"uint256"}]},{"type":"error","name":"SenderNotAuthorized","inputs":[]},{"type":"error","name":"VotesExpiredSignature","inputs":[{"name":"expiry","type":"uint256","internalType":"uint256"}]},{"type":"error","name":"ZeroAddressNotAllowed","inputs":[]}],"bytecode":{"object":"0x6080604052348015600f57600080fd5b506016601a565b60ca565b7ff0c57e16840df040f15088dc2f81fe391c3923bec73e23a9662efc9c229c6a00805468010000000000000000900460ff161560695760405163f92ee8a960e01b815260040160405180910390fd5b80546001600160401b039081161460c75780546001600160401b0319166001600160401b0390811782556040519081527fc7f505b2f371ae2175ee4913f4499e1f2633a7b5936321eed1cdaeb6115181d29060200160405180910390a15b50565b613e01806100d96000396000f3fe608060405234801561001057600080fd5b50600436106102ad5760003560e01c80637ecebe001161017b578063a217fddf116100d8578063c3cda5201161008c578063d547741f11610071578063d547741f1461068c578063dd62ed3e1461069f578063f1127ed81461070457600080fd5b8063c3cda52014610666578063d505accf1461067957600080fd5b8063a26663fd116100bd578063a26663fd14610613578063a6ef995f14610633578063a9059cbb1461065357600080fd5b8063a217fddf14610602578063a2594f8b1461060a57600080fd5b806391ddadf41161012f57806395d89b411161011457806395d89b41146105d45780639ab24eb0146105dc5780639dc29fac146105ef57600080fd5b806391ddadf4146105a25780639317c200146105c157600080fd5b80638dae45dd116101605780638dae45dd1461050a5780638e539e8c1461052a57806391d148541461053d57600080fd5b80637ecebe00146104dc57806384b0196e146104ef57600080fd5b806336568abe116102295780635c19a95c116101dd5780636775e5c6116101c25780636775e5c6146104985780636fcfff45146104a157806370a08231146104c957600080fd5b80635c19a95c14610472578063620dca631461048557600080fd5b806340c10f191161020e57806340c10f19146103da5780634bf5d7e9146103ed578063587cde1e146103f557600080fd5b806336568abe146103b45780633a46b1a8146103c757600080fd5b806323b872dd116102805780632f2ff15d116102655780632f2ff15d14610388578063313ce5671461039d5780633644e515146103ac57600080fd5b806323b872dd14610333578063248a9ca31461034657600080fd5b806301ffc9a7146102b257806306fdde03146102da578063095ea7b3146102ef57806318160ddd14610302575b600080fd5b6102c56102c03660046134fe565b610756565b60405190151581526020015b60405180910390f35b6102e26107ef565b6040516102d191906135a4565b6102c56102fd3660046135d9565b6108aa565b7f52c63247e1f47db19d5ce0460030c497f067ca4cebf71ba98eeadabe20bace02545b6040519081526020016102d1565b6102c5610341366004613605565b6108c2565b610325610354366004613646565b60009081527f02dd7bc7dec4dceedda775e58dd541e08a116c6c53815c0bd028192f7b626800602052604090206001015490565b61039b61039636600461365f565b6108e6565b005b604051601281526020016102d1565b610325610930565b61039b6103c236600461365f565b61093f565b6103256103d53660046135d9565b61099d565b61039b6103e83660046135d9565b610a1d565b6102e2610a7c565b61044d61040336600461368f565b73ffffffffffffffffffffffffffffffffffffffff90811660009081527fe8b26c30fad74198956032a3533d903385d56dd795af560196f9c78d4af40d0060205260409020541690565b60405173ffffffffffffffffffffffffffffffffffffffff90911681526020016102d1565b61039b61048036600461368f565b610b0d565b61039b6104933660046136ac565b610b18565b610325600e5481565b6104b46104af36600461368f565b610cd3565b60405163ffffffff90911681526020016102d1565b6103256104d736600461368f565b610cde565b6103256104ea36600461368f565b610d30565b6104f7610d3b565b6040516102d197969594939291906136ce565b60005461044d9073ffffffffffffffffffffffffffffffffffffffff1681565b610325610538366004613646565b610e3c565b6102c561054b36600461365f565b60009182527f02dd7bc7dec4dceedda775e58dd541e08a116c6c53815c0bd028192f7b6268006020908152604080842073ffffffffffffffffffffffffffffffffffffffff93909316845291905290205460ff1690565b6105aa610e98565b60405165ffffffffffff90911681526020016102d1565b61039b6105cf3660046137d8565b610ea2565b6102e261133d565b6103256105ea36600461368f565b61138e565b61039b6105fd3660046135d9565b6113fd565b610325600081565b610325600d5481565b600c5461044d9073ffffffffffffffffffffffffffffffffffffffff1681565b60015461044d9073ffffffffffffffffffffffffffffffffffffffff1681565b6102c56106613660046135d9565b611463565b61039b6106743660046138ad565b611471565b61039b610687366004613907565b611554565b61039b61069a36600461365f565b611720565b6103256106ad366004613976565b73ffffffffffffffffffffffffffffffffffffffff91821660009081527f52c63247e1f47db19d5ce0460030c497f067ca4cebf71ba98eeadabe20bace016020908152604080832093909416825291909152205490565b6107176107123660046139a4565b611764565b60408051825165ffffffffffff16815260209283015179ffffffffffffffffffffffffffffffffffffffffffffffffffff1692810192909252016102d1565b60007fffffffff0000000000000000000000000000000000000000000000000000000082167f7965db0b0000000000000000000000000000000000000000000000000000000014806107e957507f01ffc9a7000000000000000000000000000000000000000000000000000000007fffffffff000000000000000000000000000000000000000000000000000000008316145b92915050565b606060007f52c63247e1f47db19d5ce0460030c497f067ca4cebf71ba98eeadabe20bace005b9050806003018054610826906139db565b80601f0160208091040260200160405190810160405280929190818152602001828054610852906139db565b801561089f5780601f106108745761010080835404028352916020019161089f565b820191906000526020600020905b81548152906001019060200180831161088257829003601f168201915b505050505091505090565b6000336108b8818585611789565b5060019392505050565b6000336108d0858285611796565b6108db85858561187f565b506001949350505050565b60008281527f02dd7bc7dec4dceedda775e58dd541e08a116c6c53815c0bd028192f7b62680060205260409020600101546109208161192a565b61092a8383611937565b50505050565b600061093a611a58565b905090565b73ffffffffffffffffffffffffffffffffffffffff8116331461098e576040517f6697b23200000000000000000000000000000000000000000000000000000000815260040160405180910390fd5b6109988282611a62565b505050565b60007fe8b26c30fad74198956032a3533d903385d56dd795af560196f9c78d4af40d006109f96109cc84611b40565b73ffffffffffffffffffffffffffffffffffffffff86166000908152600184016020526040902090611ba8565b79ffffffffffffffffffffffffffffffffffffffffffffffffffff16949350505050565b600c5473ffffffffffffffffffffffffffffffffffffffff163314610a6e576040517fb212ea3c00000000000000000000000000000000000000000000000000000000815260040160405180910390fd5b610a788282611c74565b5050565b6060610a86611cd0565b65ffffffffffff16610a96610e98565b65ffffffffffff1614610ad5576040517f6ff0714000000000000000000000000000000000000000000000000000000000815260040160405180910390fd5b5060408051808201909152601d81527f6d6f64653d626c6f636b6e756d6265722666726f6d3d64656661756c74000000602082015290565b33610a788183611cdb565b60005473ffffffffffffffffffffffffffffffffffffffff163314610b69576040517f8c56efb100000000000000000000000000000000000000000000000000000000815260040160405180910390fd5b600154600054604080517f67e404ce000000000000000000000000000000000000000000000000000000008152905173ffffffffffffffffffffffffffffffffffffffff93841693909216916367e404ce916004808201926020929091908290030181865afa158015610be0573d6000803e3d6000fd5b505050506040513d601f19601f82011682018060405250810190610c049190613a2e565b73ffffffffffffffffffffffffffffffffffffffff1614610c51576040517f79d1e58f00000000000000000000000000000000000000000000000000000000815260040160405180910390fd5b81600e5410610c8c576040517f413d1b7c00000000000000000000000000000000000000000000000000000000815260040160405180910390fd5b600d819055600e82905560408051838152602081018390527f63a8b2d4a117db5efd166610d9137ea0d0c179b36240a41603a424fb2d204531910160405180910390a15050565b60006107e982611de1565b6000807f52c63247e1f47db19d5ce0460030c497f067ca4cebf71ba98eeadabe20bace005b73ffffffffffffffffffffffffffffffffffffffff90931660009081526020939093525050604090205490565b60006107e982611e51565b600060608082808083817fa16a46d94261c7517cc8ff89f61c0ce93598e3c849801011dee649a6a557d1008054909150158015610d7a57506001810154155b610de5576040517f08c379a000000000000000000000000000000000000000000000000000000000815260206004820152601560248201527f4549503731323a20556e696e697469616c697a6564000000000000000000000060448201526064015b60405180910390fd5b610ded611e5c565b610df5611ead565b604080516000808252602082019092527f0f000000000000000000000000000000000000000000000000000000000000009c939b5091995046985030975095509350915050565b60007fe8b26c30fad74198956032a3533d903385d56dd795af560196f9c78d4af40d00610e75610e6b84611b40565b6002830190611ba8565b79ffffffffffffffffffffffffffffffffffffffffffffffffffff169392505050565b600061093a611cd0565b6000610eac611ed7565b805490915060ff68010000000000000000820416159067ffffffffffffffff16600081158015610ed95750825b905060008267ffffffffffffffff166001148015610ef65750303b155b905081158015610f04575080155b15610f3b576040517ff92ee8a900000000000000000000000000000000000000000000000000000000815260040160405180910390fd5b84547fffffffffffffffffffffffffffffffffffffffffffffffff00000000000000001660011785558315610f9c5784547fffffffffffffffffffffffffffffffffffffffffffffff00ffffffffffffffff16680100000000000000001785555b73ffffffffffffffffffffffffffffffffffffffff8d16610fe9576040517f8579befe00000000000000000000000000000000000000000000000000000000815260040160405180910390fd5b73ffffffffffffffffffffffffffffffffffffffff8c16611036576040517f8579befe00000000000000000000000000000000000000000000000000000000815260040160405180910390fd5b8761106d576040517f044c1b3a00000000000000000000000000000000000000000000000000000000815260040160405180910390fd5b856110a4576040517f044c1b3a00000000000000000000000000000000000000000000000000000000815260040160405180910390fd5b6110ad8b611f00565b6110b68a611f9c565b61112989898080601f01602080910402602001604051908101604052809392919081815260200183838082843760009201919091525050604080516020601f8d018190048102820181019092528b815292508b91508a908190840183828082843760009201919091525061205b92505050565b61113161206d565b61117089898080601f01602080910402602001604051908101604052809392919081815260200183838082843760009201919091525061207792505050565b61117861206d565b61118360008e611937565b50600c80547fffffffffffffffffffffffff00000000000000000000000000000000000000001673ffffffffffffffffffffffffffffffffffffffff8e811691909117909155604051908c1681527fc6aac1069b1b6515dbaf689684628076e03aa2956174e088872ae2899884a81b9060200160405180910390a160405173ffffffffffffffffffffffffffffffffffffffff8b1681527f0b7cf729ac6c387cab57a28d257c6ecac863c24b086353121057083c7bfc79f99060200160405180910390a17f0d398822381eae0e3a93b65acd33efeddbeab022957a12d680a4d03764d998da8989898960405161127c9493929190613ac3565b60405180910390a160405173ffffffffffffffffffffffffffffffffffffffff8d1681527fe1f1cd3f28abccfbbea00804b30ee8fe4a4fdf4b0a969aa5d06c827fa90963409060200160405180910390a1831561132e5784547fffffffffffffffffffffffffffffffffffffffffffffff00ffffffffffffffff168555604051600181527fc7f505b2f371ae2175ee4913f4499e1f2633a7b5936321eed1cdaeb6115181d29060200160405180910390a15b50505050505050505050505050565b7f52c63247e1f47db19d5ce0460030c497f067ca4cebf71ba98eeadabe20bace0480546060917f52c63247e1f47db19d5ce0460030c497f067ca4cebf71ba98eeadabe20bace0091610826906139db565b73ffffffffffffffffffffffffffffffffffffffff811660009081527fe8b26c30fad74198956032a3533d903385d56dd795af560196f9c78d4af40d01602052604081207fe8b26c30fad74198956032a3533d903385d56dd795af560196f9c78d4af40d0090610e75906120be565b600c5473ffffffffffffffffffffffffffffffffffffffff16331461144e576040517fb212ea3c00000000000000000000000000000000000000000000000000000000815260040160405180910390fd5b611459823383611796565b610a78828261210d565b6000336108b881858561187f565b834211156114ae576040517f4683af0e00000000000000000000000000000000000000000000000000000000815260048101859052602401610ddc565b604080517fe48329057bfd03d55e49b547132e39cffd9c1820ad7b9d4c5307691425d15adf602082015273ffffffffffffffffffffffffffffffffffffffff88169181019190915260608101869052608081018590526000906115359061152d9060a00160405160208183030381529060405280519060200120612169565b8585856121b1565b905061154181876121df565b61154b8188611cdb565b50505050505050565b83421115611591576040517f6279130200000000000000000000000000000000000000000000000000000000815260048101859052602401610ddc565b60007f6e71edae12b1b97f4d1f60370fef10105fa2faae0126114a169c64845d6126c988888861160a8c73ffffffffffffffffffffffffffffffffffffffff1660009081527f5ab42ced628888259c08ac98db1eb0cf702fc1501344311d8b100cd1bfe4bb006020526040902080546001810190915590565b60408051602081019690965273ffffffffffffffffffffffffffffffffffffffff94851690860152929091166060840152608083015260a082015260c0810186905260e001604051602081830303815290604052805190602001209050600061167282612169565b90506000611682828787876121b1565b90508973ffffffffffffffffffffffffffffffffffffffff168173ffffffffffffffffffffffffffffffffffffffff1614611709576040517f4b800e4600000000000000000000000000000000000000000000000000000000815273ffffffffffffffffffffffffffffffffffffffff80831660048301528b166024820152604401610ddc565b6117148a8a8a611789565b50505050505050505050565b60008281527f02dd7bc7dec4dceedda775e58dd541e08a116c6c53815c0bd028192f7b626800602052604090206001015461175a8161192a565b61092a8383611a62565b60408051808201909152600080825260208201526117828383612284565b9392505050565b610998838383600161230e565b73ffffffffffffffffffffffffffffffffffffffff83811660009081527f52c63247e1f47db19d5ce0460030c497f067ca4cebf71ba98eeadabe20bace0160209081526040808320938616835292905220547fffffffffffffffffffffffffffffffffffffffffffffffffffffffffffffffff81101561092a5781811015611870576040517ffb8f41b200000000000000000000000000000000000000000000000000000000815273ffffffffffffffffffffffffffffffffffffffff841660048201526024810182905260448101839052606401610ddc565b61092a8484848403600061230e565b73ffffffffffffffffffffffffffffffffffffffff83166118cf576040517f96c6fd1e00000000000000000000000000000000000000000000000000000000815260006004820152602401610ddc565b73ffffffffffffffffffffffffffffffffffffffff821661191f576040517fec442f0500000000000000000000000000000000000000000000000000000000815260006004820152602401610ddc565b61099883838361247b565b6119348133612486565b50565b60008281527f02dd7bc7dec4dceedda775e58dd541e08a116c6c53815c0bd028192f7b6268006020818152604080842073ffffffffffffffffffffffffffffffffffffffff8616855290915282205460ff16611a4e5760008481526020828152604080832073ffffffffffffffffffffffffffffffffffffffff87168452909152902080547fffffffffffffffffffffffffffffffffffffffffffffffffffffffffffffff001660011790556119ea3390565b73ffffffffffffffffffffffffffffffffffffffff168373ffffffffffffffffffffffffffffffffffffffff16857f2f8788117e7eff1d82e926ec794901d17c78024a50270940304540a733656f0d60405160405180910390a460019150506107e9565b60009150506107e9565b600061093a61252d565b60008281527f02dd7bc7dec4dceedda775e58dd541e08a116c6c53815c0bd028192f7b6268006020818152604080842073ffffffffffffffffffffffffffffffffffffffff8616855290915282205460ff1615611a4e5760008481526020828152604080832073ffffffffffffffffffffffffffffffffffffffff8716808552925280832080547fffffffffffffffffffffffffffffffffffffffffffffffffffffffffffffff0016905551339287917ff6391f5c32d9c69d2a47ea670b442974b53935d1edc7fd64eb21e047a839171b9190a460019150506107e9565b600080611b4b610e98565b90508065ffffffffffff168310611b9f576040517fecd3f81e0000000000000000000000000000000000000000000000000000000081526004810184905265ffffffffffff82166024820152604401610ddc565b611782836125a1565b815460009081816005811115611c07576000611bc3846125f1565b611bcd9085613b19565b60008881526020902090915081015465ffffffffffff9081169087161015611bf757809150611c05565b611c02816001613b2c565b92505b505b6000611c1587878585612757565b90508015611c6657611c3a87611c2c600184613b19565b600091825260209091200190565b546601000000000000900479ffffffffffffffffffffffffffffffffffffffffffffffffffff16611c69565b60005b979650505050505050565b73ffffffffffffffffffffffffffffffffffffffff8216611cc4576040517fec442f0500000000000000000000000000000000000000000000000000000000815260006004820152602401610ddc565b610a786000838361247b565b600061093a436125a1565b7fe8b26c30fad74198956032a3533d903385d56dd795af560196f9c78d4af40d006000611d4c8473ffffffffffffffffffffffffffffffffffffffff90811660009081527fe8b26c30fad74198956032a3533d903385d56dd795af560196f9c78d4af40d0060205260409020541690565b73ffffffffffffffffffffffffffffffffffffffff85811660008181526020869052604080822080547fffffffffffffffffffffffff000000000000000000000000000000000000000016898616908117909155905194955093928516927f3134e8a2e6d97e929a7e54011ea5485d7d196dd5f0ba4d4ef95803e8e3fc257f9190a461092a8184611ddc876127b9565b6127c4565b73ffffffffffffffffffffffffffffffffffffffff811660009081527fe8b26c30fad74198956032a3533d903385d56dd795af560196f9c78d4af40d0160205260408120547fe8b26c30fad74198956032a3533d903385d56dd795af560196f9c78d4af40d0090611782906129f7565b60006107e982612a41565b7fa16a46d94261c7517cc8ff89f61c0ce93598e3c849801011dee649a6a557d10280546060917fa16a46d94261c7517cc8ff89f61c0ce93598e3c849801011dee649a6a557d10091610826906139db565b606060007fa16a46d94261c7517cc8ff89f61c0ce93598e3c849801011dee649a6a557d100610815565b6000807ff0c57e16840df040f15088dc2f81fe391c3923bec73e23a9662efc9c229c6a006107e9565b611f08612a6a565b73ffffffffffffffffffffffffffffffffffffffff8116611f55576040517f8579befe00000000000000000000000000000000000000000000000000000000815260040160405180910390fd5b600080547fffffffffffffffffffffffff00000000000000000000000000000000000000001673ffffffffffffffffffffffffffffffffffffffff92909216919091179055565b73ffffffffffffffffffffffffffffffffffffffff8116611fe9576040517f8579befe00000000000000000000000000000000000000000000000000000000815260040160405180910390fd5b600180547fffffffffffffffffffffffff00000000000000000000000000000000000000001673ffffffffffffffffffffffffffffffffffffffff83169081179091556040513391907fe68b208814fdb633b222cd15e73d5a27fb4ef9eef4cae78c623bc27702141d2890600090a350565b612063612a6a565b610a788282612aa8565b612075612a6a565b565b61207f612a6a565b611934816040518060400160405280600181526020017f3100000000000000000000000000000000000000000000000000000000000000815250612b0b565b80546000908015612104576120d883611c2c600184613b19565b546601000000000000900479ffffffffffffffffffffffffffffffffffffffffffffffffffff16611782565b60009392505050565b73ffffffffffffffffffffffffffffffffffffffff821661215d576040517f96c6fd1e00000000000000000000000000000000000000000000000000000000815260006004820152602401610ddc565b610a788260008361247b565b60006107e9612176611a58565b836040517f19010000000000000000000000000000000000000000000000000000000000008152600281019290925260228201526042902090565b6000806000806121c388888888612b7e565b9250925092506121d38282612c78565b50909695505050505050565b73ffffffffffffffffffffffffffffffffffffffff821660009081527f5ab42ced628888259c08ac98db1eb0cf702fc1501344311d8b100cd1bfe4bb0060205260409020805460018101909155818114610998576040517f752d88c000000000000000000000000000000000000000000000000000000000815273ffffffffffffffffffffffffffffffffffffffff8416600482015260248101829052604401610ddc565b6040805180820182526000808252602080830182905273ffffffffffffffffffffffffffffffffffffffff861682527fe8b26c30fad74198956032a3533d903385d56dd795af560196f9c78d4af40d019052919091207fe8b26c30fad74198956032a3533d903385d56dd795af560196f9c78d4af40d00906123069084612d7c565b949350505050565b7f52c63247e1f47db19d5ce0460030c497f067ca4cebf71ba98eeadabe20bace0073ffffffffffffffffffffffffffffffffffffffff851661237f576040517fe602df0500000000000000000000000000000000000000000000000000000000815260006004820152602401610ddc565b73ffffffffffffffffffffffffffffffffffffffff84166123cf576040517f94280d6200000000000000000000000000000000000000000000000000000000815260006004820152602401610ddc565b73ffffffffffffffffffffffffffffffffffffffff808616600090815260018301602090815260408083209388168352929052208390558115612474578373ffffffffffffffffffffffffffffffffffffffff168573ffffffffffffffffffffffffffffffffffffffff167f8c5be1e5ebec7d5bd14f71427d1e84f3dd0314c0f7b2291e5b200ac8c7c3b9258560405161246b91815260200190565b60405180910390a35b5050505050565b610998838383612e02565b60008281527f02dd7bc7dec4dceedda775e58dd541e08a116c6c53815c0bd028192f7b6268006020908152604080832073ffffffffffffffffffffffffffffffffffffffff8516845290915290205460ff16610a78576040517fe2517d3f00000000000000000000000000000000000000000000000000000000815273ffffffffffffffffffffffffffffffffffffffff8216600482015260248101839052604401610ddc565b60007f8b73c3c69bb8fe3d512ecc4cf759cc79239f7b179b0ffacaa9a75d522b39400f612558612ec1565b612560612f3d565b60408051602081019490945283019190915260608201524660808201523060a082015260c00160405160208183030381529060405280519060200120905090565b600065ffffffffffff8211156125ed576040517f6dfcc6500000000000000000000000000000000000000000000000000000000081526030600482015260248101839052604401610ddc565b5090565b6000600182116125ff575090565b81600170010000000000000000000000000000000082106126255760809190911c9060401b5b6801000000000000000082106126405760409190911c9060201b5b64010000000082106126575760209190911c9060101b5b62010000821061266c5760109190911c9060081b5b61010082106126805760089190911c9060041b5b601082106126935760049190911c9060021b5b6004821061269f5760011b5b600302600190811c908185816126b7576126b7613b3f565b048201901c905060018185816126cf576126cf613b3f565b048201901c905060018185816126e7576126e7613b3f565b048201901c905060018185816126ff576126ff613b3f565b048201901c9050600181858161271757612717613b3f565b048201901c9050600181858161272f5761272f613b3f565b048201901c905061274e81858161274857612748613b3f565b04821190565b90039392505050565b60005b818310156127b157600061276e8484612f93565b60008781526020902090915065ffffffffffff86169082015465ffffffffffff16111561279d578092506127ab565b6127a8816001613b2c565b93505b5061275a565b509392505050565b60006107e982610cde565b7fe8b26c30fad74198956032a3533d903385d56dd795af560196f9c78d4af40d0073ffffffffffffffffffffffffffffffffffffffff8481169084161480159061280e5750600082115b1561092a5773ffffffffffffffffffffffffffffffffffffffff8416156129055773ffffffffffffffffffffffffffffffffffffffff841660009081526001820160205260408120819061286d90612fae61286887612fba565b61301a565b79ffffffffffffffffffffffffffffffffffffffffffffffffffff16915079ffffffffffffffffffffffffffffffffffffffffffffffffffff1691508573ffffffffffffffffffffffffffffffffffffffff167fdec2bacdd2f05b59de34da9b523dff8be42e5e38e818c82fdb0bae774387a72483836040516128fa929190918252602082015260400190565b60405180910390a250505b73ffffffffffffffffffffffffffffffffffffffff83161561092a5773ffffffffffffffffffffffffffffffffffffffff831660009081526001820160205260408120819061295a9061305361286887612fba565b79ffffffffffffffffffffffffffffffffffffffffffffffffffff16915079ffffffffffffffffffffffffffffffffffffffffffffffffffff1691508473ffffffffffffffffffffffffffffffffffffffff167fdec2bacdd2f05b59de34da9b523dff8be42e5e38e818c82fdb0bae774387a72483836040516129e7929190918252602082015260400190565b60405180910390a2505050505050565b600063ffffffff8211156125ed576040517f6dfcc6500000000000000000000000000000000000000000000000000000000081526020600482015260248101839052604401610ddc565b6000807f5ab42ced628888259c08ac98db1eb0cf702fc1501344311d8b100cd1bfe4bb00610d03565b612a7261305f565b612075576040517fd7e6bcf800000000000000000000000000000000000000000000000000000000815260040160405180910390fd5b612ab0612a6a565b7f52c63247e1f47db19d5ce0460030c497f067ca4cebf71ba98eeadabe20bace007f52c63247e1f47db19d5ce0460030c497f067ca4cebf71ba98eeadabe20bace03612afc8482613bb5565b506004810161092a8382613bb5565b612b13612a6a565b7fa16a46d94261c7517cc8ff89f61c0ce93598e3c849801011dee649a6a557d1007fa16a46d94261c7517cc8ff89f61c0ce93598e3c849801011dee649a6a557d102612b5f8482613bb5565b5060038101612b6e8382613bb5565b5060008082556001909101555050565b600080807f7fffffffffffffffffffffffffffffff5d576e7357a4501ddfe92f46681b20a0841115612bb95750600091506003905082612c6e565b604080516000808252602082018084528a905260ff891692820192909252606081018790526080810186905260019060a0016020604051602081039080840390855afa158015612c0d573d6000803e3d6000fd5b50506040517fffffffffffffffffffffffffffffffffffffffffffffffffffffffffffffffe0015191505073ffffffffffffffffffffffffffffffffffffffff8116612c6457506000925060019150829050612c6e565b9250600091508190505b9450945094915050565b6000826003811115612c8c57612c8c613cce565b03612c95575050565b6001826003811115612ca957612ca9613cce565b03612ce0576040517ff645eedf00000000000000000000000000000000000000000000000000000000815260040160405180910390fd5b6002826003811115612cf457612cf4613cce565b03612d2e576040517ffce698f700000000000000000000000000000000000000000000000000000000815260048101829052602401610ddc565b6003826003811115612d4257612d42613cce565b03610a78576040517fd78bce0c00000000000000000000000000000000000000000000000000000000815260048101829052602401610ddc565b6040805180820190915260008082526020820152826000018263ffffffff1681548110612dab57612dab613cfd565b60009182526020918290206040805180820190915291015465ffffffffffff811682526601000000000000900479ffffffffffffffffffffffffffffffffffffffffffffffffffff16918101919091529392505050565b612e0d83838361307e565b73ffffffffffffffffffffffffffffffffffffffff8316612eb6576000612e527f52c63247e1f47db19d5ce0460030c497f067ca4cebf71ba98eeadabe20bace025490565b905079ffffffffffffffffffffffffffffffffffffffffffffffffffff80821115612eb3576040517f1cb15d260000000000000000000000000000000000000000000000000000000081526004810183905260248101829052604401610ddc565b50505b61099883838361324f565b60007fa16a46d94261c7517cc8ff89f61c0ce93598e3c849801011dee649a6a557d10081612eed611e5c565b805190915015612f0557805160209091012092915050565b81548015612f14579392505050565b7fc5d2460186f7233c927e7db2dcc703c0e500b653ca82273b7bfad8045d85a470935050505090565b60007fa16a46d94261c7517cc8ff89f61c0ce93598e3c849801011dee649a6a557d10081612f69611ead565b805190915015612f8157805160209091012092915050565b60018201548015612f14579392505050565b6000612fa26002848418613d2c565b61178290848416613b2c565b60006117828284613d67565b600079ffffffffffffffffffffffffffffffffffffffffffffffffffff8211156125ed576040517f6dfcc65000000000000000000000000000000000000000000000000000000000815260d0600482015260248101839052604401610ddc565b600080613046613028610e98565b61303e613034886120be565b868863ffffffff16565b879190613330565b915091505b935093915050565b60006117828284613d99565b6000613069611ed7565b5468010000000000000000900460ff16919050565b7f52c63247e1f47db19d5ce0460030c497f067ca4cebf71ba98eeadabe20bace0073ffffffffffffffffffffffffffffffffffffffff84166130d957818160020160008282546130ce9190613b2c565b9091555061318b9050565b73ffffffffffffffffffffffffffffffffffffffff84166000908152602082905260409020548281101561315f576040517fe450d38c00000000000000000000000000000000000000000000000000000000815273ffffffffffffffffffffffffffffffffffffffff861660048201526024810182905260448101849052606401610ddc565b73ffffffffffffffffffffffffffffffffffffffff851660009081526020839052604090209083900390555b73ffffffffffffffffffffffffffffffffffffffff83166131b65760028101805483900390556131e2565b73ffffffffffffffffffffffffffffffffffffffff831660009081526020829052604090208054830190555b8273ffffffffffffffffffffffffffffffffffffffff168473ffffffffffffffffffffffffffffffffffffffff167fddf252ad1be2c89b69c2b068fc378daa952ba7f163c4a11628f55a4df523b3ef8460405161324191815260200190565b60405180910390a350505050565b7fe8b26c30fad74198956032a3533d903385d56dd795af560196f9c78d4af40d0073ffffffffffffffffffffffffffffffffffffffff84166132a15761329e8160020161305361286885612fba565b50505b73ffffffffffffffffffffffffffffffffffffffff83166132d2576132cf81600201612fae61286885612fba565b50505b73ffffffffffffffffffffffffffffffffffffffff84811660009081527fe8b26c30fad74198956032a3533d903385d56dd795af560196f9c78d4af40d00602052604080822054868416835291205461092a929182169116846127c4565b60008061304685858582546000908190801561348d57600061335787611c2c600185613b19565b805490915065ffffffffffff808216916601000000000000900479ffffffffffffffffffffffffffffffffffffffffffffffffffff169088168211156133c9576040517f2520601d00000000000000000000000000000000000000000000000000000000815260040160405180910390fd5b8765ffffffffffff168265ffffffffffff160361341857825465ffffffffffff16660100000000000079ffffffffffffffffffffffffffffffffffffffffffffffffffff89160217835561347f565b6040805180820190915265ffffffffffff808a16825279ffffffffffffffffffffffffffffffffffffffffffffffffffff808a1660208085019182528d54600181018f5560008f815291909120945191519092166601000000000000029216919091179101555b945085935061304b92505050565b50506040805180820190915265ffffffffffff808516825279ffffffffffffffffffffffffffffffffffffffffffffffffffff80851660208085019182528854600181018a5560008a815291822095519251909316660100000000000002919093161792019190915590508161304b565b60006020828403121561351057600080fd5b81357fffffffff000000000000000000000000000000000000000000000000000000008116811461178257600080fd5b6000815180845260005b818110156135665760208185018101518683018201520161354a565b5060006020828601015260207fffffffffffffffffffffffffffffffffffffffffffffffffffffffffffffffe0601f83011685010191505092915050565b6020815260006117826020830184613540565b73ffffffffffffffffffffffffffffffffffffffff8116811461193457600080fd5b600080604083850312156135ec57600080fd5b82356135f7816135b7565b946020939093013593505050565b60008060006060848603121561361a57600080fd5b8335613625816135b7565b92506020840135613635816135b7565b929592945050506040919091013590565b60006020828403121561365857600080fd5b5035919050565b6000806040838503121561367257600080fd5b823591506020830135613684816135b7565b809150509250929050565b6000602082840312156136a157600080fd5b8135611782816135b7565b600080604083850312156136bf57600080fd5b50508035926020909101359150565b7fff000000000000000000000000000000000000000000000000000000000000008816815260e06020820152600061370960e0830189613540565b828103604084015261371b8189613540565b6060840188905273ffffffffffffffffffffffffffffffffffffffff8716608085015260a0840186905283810360c08501528451808252602080870193509091019060005b8181101561377e578351835260209384019390920191600101613760565b50909b9a5050505050505050505050565b60008083601f8401126137a157600080fd5b50813567ffffffffffffffff8111156137b957600080fd5b6020830191508360208285010111156137d157600080fd5b9250929050565b60008060008060008060008060c0898b0312156137f457600080fd5b88356137ff816135b7565b9750602089013561380f816135b7565b9650604089013561381f816135b7565b9550606089013561382f816135b7565b9450608089013567ffffffffffffffff81111561384b57600080fd5b6138578b828c0161378f565b90955093505060a089013567ffffffffffffffff81111561387757600080fd5b6138838b828c0161378f565b999c989b5096995094979396929594505050565b803560ff811681146138a857600080fd5b919050565b60008060008060008060c087890312156138c657600080fd5b86356138d1816135b7565b955060208701359450604087013593506138ed60608801613897565b9598949750929560808101359460a0909101359350915050565b600080600080600080600060e0888a03121561392257600080fd5b873561392d816135b7565b9650602088013561393d816135b7565b9550604088013594506060880135935061395960808901613897565b9699959850939692959460a0840135945060c09093013592915050565b6000806040838503121561398957600080fd5b8235613994816135b7565b91506020830135613684816135b7565b600080604083850312156139b757600080fd5b82356139c2816135b7565b9150602083013563ffffffff8116811461368457600080fd5b600181811c908216806139ef57607f821691505b602082108103613a28577f4e487b7100000000000000000000000000000000000000000000000000000000600052602260045260246000fd5b50919050565b600060208284031215613a4057600080fd5b8151611782816135b7565b7f4e487b7100000000000000000000000000000000000000000000000000000000600052604160045260246000fd5b8183528181602085013750600060208284010152600060207fffffffffffffffffffffffffffffffffffffffffffffffffffffffffffffffe0601f840116840101905092915050565b604081526000613ad7604083018688613a7a565b8281036020840152611c69818587613a7a565b7f4e487b7100000000000000000000000000000000000000000000000000000000600052601160045260246000fd5b818103818111156107e9576107e9613aea565b808201808211156107e9576107e9613aea565b7f4e487b7100000000000000000000000000000000000000000000000000000000600052601260045260246000fd5b601f82111561099857806000526020600020601f840160051c81016020851015613b955750805b601f840160051c820191505b818110156124745760008155600101613ba1565b815167ffffffffffffffff811115613bcf57613bcf613a4b565b613be381613bdd84546139db565b84613b6e565b6020601f821160018114613c355760008315613bff5750848201515b7fffffffffffffffffffffffffffffffffffffffffffffffffffffffffffffffff600385901b1c1916600184901b178455612474565b6000848152602081207fffffffffffffffffffffffffffffffffffffffffffffffffffffffffffffffe08516915b82811015613c835787850151825560209485019460019092019101613c63565b5084821015613cbf57868401517fffffffffffffffffffffffffffffffffffffffffffffffffffffffffffffffff600387901b60f8161c191681555b50505050600190811b01905550565b7f4e487b7100000000000000000000000000000000000000000000000000000000600052602160045260246000fd5b7f4e487b7100000000000000000000000000000000000000000000000000000000600052603260045260246000fd5b600082613d62577f4e487b7100000000000000000000000000000000000000000000000000000000600052601260045260246000fd5b500490565b79ffffffffffffffffffffffffffffffffffffffffffffffffffff82811682821603908111156107e9576107e9613aea565b79ffffffffffffffffffffffffffffffffffffffffffffffffffff81811683821601908111156107e9576107e9613aea56fea2646970667358221220eb117fe9bb5ca7921354b7ba1528c1c1cbf6b5b3779b8c2d497fae727be1491164736f6c634300081e0033","linkReferences":{}},"methodIdentifiers":{"CLOCK_MODE()":"4bf5d7e9","DEFAULT_ADMIN_ROLE()":"a217fddf","DOMAIN_SEPARATOR()":"3644e515","allowance(address,address)":"dd62ed3e","approve(address,uint256)":"095ea7b3","balanceOf(address)":"70a08231","burn(address,uint256)":"9dc29fac","checkpoints(address,uint32)":"f1127ed8","clock()":"91ddadf4","decimals()":"313ce567","delegate(address)":"5c19a95c","delegateBySig(address,uint256,uint256,uint8,bytes32,bytes32)":"c3cda520","delegates(address)":"587cde1e","eip712Domain()":"84b0196e","getPastTotalSupply(uint256)":"8e539e8c","getPastVotes(address,uint256)":"3a46b1a8","getRoleAdmin(bytes32)":"248a9ca3","getVotes(address)":"9ab24eb0","grantRole(bytes32,address)":"2f2ff15d","hasRole(bytes32,address)":"91d14854","initialize(address,address,address,address,string,string)":"9317c200","l1LineaTokenSupply()":"a2594f8b","l1LineaTokenTotalSupplySyncTime()":"6775e5c6","lineaCanonicalTokenBridge()":"a26663fd","messageService()":"8dae45dd","mint(address,uint256)":"40c10f19","name()":"06fdde03","nonces(address)":"7ecebe00","numCheckpoints(address)":"6fcfff45","permit(address,address,uint256,uint256,uint8,bytes32,bytes32)":"d505accf","remoteSender()":"a6ef995f","renounceRole(bytes32,address)":"36568abe","revokeRole(bytes32,address)":"d547741f","supportsInterface(bytes4)":"01ffc9a7","symbol()":"95d89b41","syncTotalSupplyFromL1(uint256,uint256)":"620dca63","totalSupply()":"18160ddd","transfer(address,uint256)":"a9059cbb","transferFrom(address,address,uint256)":"23b872dd"},"storageLayout":{"storage":[{"astId":52446,"contract":"src/L2/L2LineaToken.sol:L2LineaToken","label":"messageService","offset":0,"slot":"0","type":"t_contract(IMessageService)52978"},{"astId":52449,"contract":"src/L2/L2LineaToken.sol:L2LineaToken","label":"remoteSender","offset":0,"slot":"1","type":"t_address"},{"astId":52454,"contract":"src/L2/L2LineaToken.sol:L2LineaToken","label":"__base_gap","offset":0,"slot":"2","type":"t_array(t_uint256)10_storage"},{"astId":52109,"contract":"src/L2/L2LineaToken.sol:L2LineaToken","label":"lineaCanonicalTokenBridge","offset":0,"slot":"12","type":"t_address"},{"astId":52112,"contract":"src/L2/L2LineaToken.sol:L2LineaToken","label":"l1LineaTokenSupply","offset":0,"slot":"13","type":"t_uint256"},{"astId":52115,"contract":"src/L2/L2LineaToken.sol:L2LineaToken","label":"l1LineaTokenTotalSupplySyncTime","offset":0,"slot":"14","type":"t_uint256"}],"types":{"t_address":{"encoding":"inplace","label":"address","numberOfBytes":"20"},"t_array(t_uint256)10_storage":{"encoding":"inplace","label":"uint256[10]","numberOfBytes":"320","base":"t_uint256"},"t_contract(IMessageService)52978":{"encoding":"inplace","label":"contract IMessageService","numberOfBytes":"20"},"t_uint256":{"encoding":"inplace","label":"uint256","numberOfBytes":"32"}}},"id":68}