{"abi":[{"type":"constructor","inputs":[],"stateMutability":"nonpayable"},{"type":"function","name":"DEFAULT_ADMIN_ROLE","inputs":[],"outputs":[{"name":"","type":"bytes32","internalType":"bytes32"}],"stateMutability":"view"},{"type":"function","name":"DOMAIN_SEPARATOR","inputs":[],"outputs":[{"name":"","type":"bytes32","internalType":"bytes32"}],"stateMutability":"view"},{"type":"function","name":"MINTER_ROLE","inputs":[],"outputs":[{"name":"","type":"bytes32","internalType":"bytes32"}],"stateMutability":"view"},{"type":"function","name":"allowance","inputs":[{"name":"owner","type":"address","internalType":"address"},{"name":"spender","type":"address","internalType":"address"}],"outputs":[{"name":"","type":"uint256","internalType":"uint256"}],"stateMutability":"view"},{"type":"function","name":"approve","inputs":[{"name":"spender","type":"address","internalType":"address"},{"name":"value","type":"uint256","internalType":"uint256"}],"outputs":[{"name":"","type":"bool","internalType":"bool"}],"stateMutability":"nonpayable"},{"type":"function","name":"balanceOf","inputs":[{"name":"account","type":"address","internalType":"address"}],"outputs":[{"name":"","type":"uint256","internalType":"uint256"}],"stateMutability":"view"},{"type":"function","name":"burn","inputs":[{"name":"value","type":"uint256","internalType":"uint256"}],"outputs":[],"stateMutability":"nonpayable"},{"type":"function","name":"burnFrom","inputs":[{"name":"account","type":"address","internalType":"address"},{"name":"value","type":"uint256","internalType":"uint256"}],"outputs":[],"stateMutability":"nonpayable"},{"type":"function","name":"decimals","inputs":[],"outputs":[{"name":"","type":"uint8","internalType":"uint8"}],"stateMutability":"view"},{"type":"function","name":"eip712Domain","inputs":[],"outputs":[{"name":"fields","type":"bytes1","internalType":"bytes1"},{"name":"name","type":"string","internalType":"string"},{"name":"version","type":"string","internalType":"string"},{"name":"chainId","type":"uint256","internalType":"uint256"},{"name":"verifyingContract","type":"address","internalType":"address"},{"name":"salt","type":"bytes32","internalType":"bytes32"},{"name":"extensions","type":"uint256[]","internalType":"uint256[]"}],"stateMutability":"view"},{"type":"function","name":"getRoleAdmin","inputs":[{"name":"role","type":"bytes32","internalType":"bytes32"}],"outputs":[{"name":"","type":"bytes32","internalType":"bytes32"}],"stateMutability":"view"},{"type":"function","name":"grantRole","inputs":[{"name":"role","type":"bytes32","internalType":"bytes32"},{"name":"account","type":"address","internalType":"address"}],"outputs":[],"stateMutability":"nonpayable"},{"type":"function","name":"hasRole","inputs":[{"name":"role","type":"bytes32","internalType":"bytes32"},{"name":"account","type":"address","internalType":"address"}],"outputs":[{"name":"","type":"bool","internalType":"bool"}],"stateMutability":"view"},{"type":"function","name":"initialize","inputs":[{"name":"_defaultAdmin","type":"address","internalType":"address"},{"name":"_minter","type":"address","internalType":"address"},{"name":"_l1MessageService","type":"address","internalType":"address"},{"name":"_l2TokenAddress","type":"address","internalType":"address"},{"name":"_tokenName","type":"string","internalType":"string"},{"name":"_tokenSymbol","type":"string","internalType":"string"}],"outputs":[],"stateMutability":"nonpayable"},{"type":"function","name":"l1MessageService","inputs":[],"outputs":[{"name":"","type":"address","internalType":"address"}],"stateMutability":"view"},{"type":"function","name":"l2TokenAddress","inputs":[],"outputs":[{"name":"","type":"address","internalType":"address"}],"stateMutability":"view"},{"type":"function","name":"mint","inputs":[{"name":"_account","type":"address","internalType":"address"},{"name":"_amount","type":"uint256","internalType":"uint256"}],"outputs":[],"stateMutability":"nonpayable"},{"type":"function","name":"name","inputs":[],"outputs":[{"name":"","type":"string","internalType":"string"}],"stateMutability":"view"},{"type":"function","name":"nonces","inputs":[{"name":"owner","type":"address","internalType":"address"}],"outputs":[{"name":"","type":"uint256","internalType":"uint256"}],"stateMutability":"view"},{"type":"function","name":"permit","inputs":[{"name":"owner","type":"address","internalType":"address"},{"name":"spender","type":"address","internalType":"address"},{"name":"value","type":"uint256","internalType":"uint256"},{"name":"deadline","type":"uint256","internalType":"uint256"},{"name":"v","type":"uint8","internalType":"uint8"},{"name":"r","type":"bytes32","internalType":"bytes32"},{"name":"s","type":"bytes32","internalType":"bytes32"}],"outputs":[],"stateMutability":"nonpayable"},{"type":"function","name":"renounceRole","inputs":[{"name":"role","type":"bytes32","internalType":"bytes32"},{"name":"callerConfirmation","type":"address","internalType":"address"}],"outputs":[],"stateMutability":"nonpayable"},{"type":"function","name":"revokeRole","inputs":[{"name":"role","type":"bytes32","internalType":"bytes32"},{"name":"account","type":"address","internalType":"address"}],"outputs":[],"stateMutability":"nonpayable"},{"type":"function","name":"supportsInterface","inputs":[{"name":"interfaceId","type":"bytes4","internalType":"bytes4"}],"outputs":[{"name":"","type":"bool","internalType":"bool"}],"stateMutability":"view"},{"type":"function","name":"symbol","inputs":[],"outputs":[{"name":"","type":"string","internalType":"string"}],"stateMutability":"view"},{"type":"function","name":"syncTotalSupplyToL2","inputs":[],"outputs":[],"stateMutability":"nonpayable"},{"type":"function","name":"totalSupply","inputs":[],"outputs":[{"name":"","type":"uint256","internalType":"uint256"}],"stateMutability":"view"},{"type":"function","name":"transfer","inputs":[{"name":"to","type":"address","internalType":"address"},{"name":"value","type":"uint256","internalType":"uint256"}],"outputs":[{"name":"","type":"bool","internalType":"bool"}],"stateMutability":"nonpayable"},{"type":"function","name":"transferFrom","inputs":[{"name":"from","type":"address","internalType":"address"},{"name":"to","type":"address","internalType":"address"},{"name":"value","type":"uint256","internalType":"uint256"}],"outputs":[{"name":"","type":"bool","internalType":"bool"}],"stateMutability":"nonpayable"},{"type":"event","name":"Approval","inputs":[{"name":"owner","type":"address","indexed":true,"internalType":"address"},{"name":"spender","type":"address","indexed":true,"internalType":"address"},{"name":"value","type":"uint256","indexed":false,"internalType":"uint256"}],"anonymous":false},{"type":"event","name":"EIP712DomainChanged","inputs":[],"anonymous":false},{"type":"event","name":"Initialized","inputs":[{"name":"version","type":"uint64","indexed":false,"internalType":"uint64"}],"anonymous":false},{"type":"event","name":"L1MessageServiceSet","inputs":[{"name":"l1MessageService","type":"address","indexed":false,"internalType":"address"}],"anonymous":false},{"type":"event","name":"L1TotalSupplySyncStarted","inputs":[{"name":"l1TotalSupply","type":"uint256","indexed":false,"internalType":"uint256"}],"anonymous":false},{"type":"event","name":"L2TokenAddressSet","inputs":[{"name":"l2TokenAddress","type":"address","indexed":false,"internalType":"address"}],"anonymous":false},{"type":"event","name":"RoleAdminChanged","inputs":[{"name":"role","type":"bytes32","indexed":true,"internalType":"bytes32"},{"name":"previousAdminRole","type":"bytes32","indexed":true,"internalType":"bytes32"},{"name":"newAdminRole","type":"bytes32","indexed":true,"internalType":"bytes32"}],"anonymous":false},{"type":"event","name":"RoleGranted","inputs":[{"name":"role","type":"bytes32","indexed":true,"internalType":"bytes32"},{"name":"account","type":"address","indexed":true,"internalType":"address"},{"name":"sender","type":"address","indexed":true,"internalType":"address"}],"anonymous":false},{"type":"event","name":"RoleRevoked","inputs":[{"name":"role","type":"bytes32","indexed":true,"internalType":"bytes32"},{"name":"account","type":"address","indexed":true,"internalType":"address"},{"name":"sender","type":"address","indexed":true,"internalType":"address"}],"anonymous":false},{"type":"event","name":"TokenMetadataSet","inputs":[{"name":"name","type":"string","indexed":false,"internalType":"string"},{"name":"symbol","type":"string","indexed":false,"internalType":"string"}],"anonymous":false},{"type":"event","name":"Transfer","inputs":[{"name":"from","type":"address","indexed":true,"internalType":"address"},{"name":"to","type":"address","indexed":true,"internalType":"address"},{"name":"value","type":"uint256","indexed":false,"internalType":"uint256"}],"anonymous":false},{"type":"error","name":"AccessControlBadConfirmation","inputs":[]},{"type":"error","name":"AccessControlUnauthorizedAccount","inputs":[{"name":"account","type":"address","internalType":"address"},{"name":"neededRole","type":"bytes32","internalType":"bytes32"}]},{"type":"error","name":"ECDSAInvalidSignature","inputs":[]},{"type":"error","name":"ECDSAInvalidSignatureLength","inputs":[{"name":"length","type":"uint256","internalType":"uint256"}]},{"type":"error","name":"ECDSAInvalidSignatureS","inputs":[{"name":"s","type":"bytes32","internalType":"bytes32"}]},{"type":"error","name":"ERC20InsufficientAllowance","inputs":[{"name":"spender","type":"address","internalType":"address"},{"name":"allowance","type":"uint256","internalType":"uint256"},{"name":"needed","type":"uint256","internalType":"uint256"}]},{"type":"error","name":"ERC20InsufficientBalance","inputs":[{"name":"sender","type":"address","internalType":"address"},{"name":"balance","type":"uint256","internalType":"uint256"},{"name":"needed","type":"uint256","internalType":"uint256"}]},{"type":"error","name":"ERC20InvalidApprover","inputs":[{"name":"approver","type":"address","internalType":"address"}]},{"type":"error","name":"ERC20InvalidReceiver","inputs":[{"name":"receiver","type":"address","internalType":"address"}]},{"type":"error","name":"ERC20InvalidSender","inputs":[{"name":"sender","type":"address","internalType":"address"}]},{"type":"error","name":"ERC20InvalidSpender","inputs":[{"name":"spender","type":"address","internalType":"address"}]},{"type":"error","name":"ERC2612ExpiredSignature","inputs":[{"name":"deadline","type":"uint256","internalType":"uint256"}]},{"type":"error","name":"ERC2612InvalidSigner","inputs":[{"name":"signer","type":"address","internalType":"address"},{"name":"owner","type":"address","internalType":"address"}]},{"type":"error","name":"EmptyStringNotAllowed","inputs":[]},{"type":"error","name":"InvalidAccountNonce","inputs":[{"name":"account","type":"address","internalType":"address"},{"name":"currentNonce","type":"uint256","internalType":"uint256"}]},{"type":"error","name":"InvalidInitialization","inputs":[]},{"type":"error","name":"NotInitializing","inputs":[]},{"type":"error","name":"ZeroAddressNotAllowed","inputs":[]}],"bytecode":{"object":"0x6080604052348015600e575f5ffd5b5060156019565b60c9565b7ff0c57e16840df040f15088dc2f81fe391c3923bec73e23a9662efc9c229c6a00805468010000000000000000900460ff161560685760405163f92ee8a960e01b815260040160405180910390fd5b80546001600160401b039081161460c65780546001600160401b0319166001600160401b0390811782556040519081527fc7f505b2f371ae2175ee4913f4499e1f2633a7b5936321eed1cdaeb6115181d29060200160405180910390a15b50565b61271b806100d65f395ff3fe608060405234801561000f575f5ffd5b50600436106101bb575f3560e01c806379cc6790116100f3578063a9059cbb11610093578063d53913931161006e578063d539139314610445578063d547741f1461046c578063dd62ed3e1461047f578063e77f9cec146104e3575f5ffd5b8063a9059cbb14610417578063d505accf1461042a578063d532167d1461043d575f5ffd5b806391d14854116100ce57806391d14854146103915780639317c200146103f557806395d89b4114610408578063a217fddf14610410575f5ffd5b806379cc6790146103505780637ecebe001461036357806384b0196e14610376575f5ffd5b8063313ce5671161015e57806340c10f191161013957806340c10f19146102d357806342966c68146102e657806364aaef7e146102f957806370a082311461033d575f5ffd5b8063313ce567146102a95780633644e515146102b857806336568abe146102c0575f5ffd5b806318160ddd1161019957806318160ddd1461020f57806323b872dd14610240578063248a9ca3146102535780632f2ff15d14610294575f5ffd5b806301ffc9a7146101bf57806306fdde03146101e7578063095ea7b3146101fc575b5f5ffd5b6101d26101cd366004612021565b610503565b60405190151581526020015b60405180910390f35b6101ef61059b565b6040516101de91906120b3565b6101d261020a3660046120ed565b610653565b7f52c63247e1f47db19d5ce0460030c497f067ca4cebf71ba98eeadabe20bace02545b6040519081526020016101de565b6101d261024e366004612115565b61066a565b61023261026136600461214f565b5f9081527f02dd7bc7dec4dceedda775e58dd541e08a116c6c53815c0bd028192f7b626800602052604090206001015490565b6102a76102a2366004612166565b61068d565b005b604051601281526020016101de565b6102326106d6565b6102a76102ce366004612166565b6106e4565b6102a76102e13660046120ed565b610742565b6102a76102f436600461214f565b610776565b5f546103189073ffffffffffffffffffffffffffffffffffffffff1681565b60405173ffffffffffffffffffffffffffffffffffffffff90911681526020016101de565b61023261034b366004612190565b610783565b6102a761035e3660046120ed565b6107d3565b610232610371366004612190565b6107ec565b61037e6107f6565b6040516101de97969594939291906121a9565b6101d261039f366004612166565b5f9182527f02dd7bc7dec4dceedda775e58dd541e08a116c6c53815c0bd028192f7b6268006020908152604080842073ffffffffffffffffffffffffffffffffffffffff93909316845291905290205460ff1690565b6102a76104033660046122ad565b6108f5565b6101ef610e17565b6102325f81565b6101d26104253660046120ed565b610e68565b6102a761043836600461235d565b610e75565b6102a761103d565b6102327f9f2df0fed2c77648de5860a4cc508cd0818c85b8b8a1ab4ceeef8d981c8956a681565b6102a761047a366004612166565b611199565b61023261048d3660046123ca565b73ffffffffffffffffffffffffffffffffffffffff9182165f9081527f52c63247e1f47db19d5ce0460030c497f067ca4cebf71ba98eeadabe20bace016020908152604080832093909416825291909152205490565b6001546103189073ffffffffffffffffffffffffffffffffffffffff1681565b5f7fffffffff0000000000000000000000000000000000000000000000000000000082167f7965db0b00000000000000000000000000000000000000000000000000000000148061059557507f01ffc9a7000000000000000000000000000000000000000000000000000000007fffffffff000000000000000000000000000000000000000000000000000000008316145b92915050565b60605f7f52c63247e1f47db19d5ce0460030c497f067ca4cebf71ba98eeadabe20bace005b90508060030180546105d1906123f2565b80601f01602080910402602001604051908101604052809291908181526020018280546105fd906123f2565b80156106485780601f1061061f57610100808354040283529160200191610648565b820191905f5260205f20905b81548152906001019060200180831161062b57829003601f168201915b505050505091505090565b5f336106608185856111dc565b5060019392505050565b5f336106778582856111e9565b6106828585856112d0565b506001949350505050565b5f8281527f02dd7bc7dec4dceedda775e58dd541e08a116c6c53815c0bd028192f7b62680060205260409020600101546106c681611379565b6106d08383611383565b50505050565b5f6106df6114a1565b905090565b73ffffffffffffffffffffffffffffffffffffffff81163314610733576040517f6697b23200000000000000000000000000000000000000000000000000000000815260040160405180910390fd5b61073d82826114aa565b505050565b7f9f2df0fed2c77648de5860a4cc508cd0818c85b8b8a1ab4ceeef8d981c8956a661076c81611379565b61073d8383611586565b61078033826115e0565b50565b5f807f52c63247e1f47db19d5ce0460030c497f067ca4cebf71ba98eeadabe20bace005b73ffffffffffffffffffffffffffffffffffffffff9093165f9081526020939093525050604090205490565b6107de8233836111e9565b6107e882826115e0565b5050565b5f6105958261163a565b5f60608082808083817fa16a46d94261c7517cc8ff89f61c0ce93598e3c849801011dee649a6a557d100805490915015801561083457506001810154155b61089f576040517f08c379a000000000000000000000000000000000000000000000000000000000815260206004820152601560248201527f4549503731323a20556e696e697469616c697a6564000000000000000000000060448201526064015b60405180910390fd5b6108a7611662565b6108af6116b3565b604080515f808252602082019092527f0f000000000000000000000000000000000000000000000000000000000000009c939b5091995046985030975095509350915050565b5f6108fe6116dc565b805490915060ff68010000000000000000820416159067ffffffffffffffff165f8115801561092a5750825b90505f8267ffffffffffffffff1660011480156109465750303b155b905081158015610954575080155b1561098b576040517ff92ee8a900000000000000000000000000000000000000000000000000000000815260040160405180910390fd5b84547fffffffffffffffffffffffffffffffffffffffffffffffff000000000000000016600117855583156109ec5784547fffffffffffffffffffffffffffffffffffffffffffffff00ffffffffffffffff16680100000000000000001785555b73ffffffffffffffffffffffffffffffffffffffff8d16610a39576040517f8579befe00000000000000000000000000000000000000000000000000000000815260040160405180910390fd5b73ffffffffffffffffffffffffffffffffffffffff8c16610a86576040517f8579befe00000000000000000000000000000000000000000000000000000000815260040160405180910390fd5b73ffffffffffffffffffffffffffffffffffffffff8b16610ad3576040517f8579befe00000000000000000000000000000000000000000000000000000000815260040160405180910390fd5b73ffffffffffffffffffffffffffffffffffffffff8a16610b20576040517f8579befe00000000000000000000000000000000000000000000000000000000815260040160405180910390fd5b87610b57576040517f044c1b3a00000000000000000000000000000000000000000000000000000000815260040160405180910390fd5b85610b8e576040517f044c1b3a00000000000000000000000000000000000000000000000000000000815260040160405180910390fd5b610bff89898080601f0160208091040260200160405190810160405280939291908181526020018383808284375f9201919091525050604080516020601f8d018190048102820181019092528b815292508b91508a90819084018382808284375f9201919091525061170492505050565b610c07611716565b610c0f611716565b610c4d89898080601f0160208091040260200160405190810160405280939291908181526020018383808284375f9201919091525061172092505050565b610c575f8e611383565b50610c827f9f2df0fed2c77648de5860a4cc508cd0818c85b8b8a1ab4ceeef8d981c8956a68d611383565b505f805473ffffffffffffffffffffffffffffffffffffffff808e167fffffffffffffffffffffffff00000000000000000000000000000000000000009283161790925560018054928d16929091169190911790556040517f0d398822381eae0e3a93b65acd33efeddbeab022957a12d680a4d03764d998da90610d0d908b908b908b908b906124b7565b60405180910390a160405173ffffffffffffffffffffffffffffffffffffffff8c1681527f3ffdbdf8169f4e7097fc50df586ec4d1aa88c8eff58a97ff708d84c124fafa3d9060200160405180910390a160405173ffffffffffffffffffffffffffffffffffffffff8b1681527f9a6e2b45041fa2939015ac2bd7e80b890de28d7154ef04b0f52a94fa4e88091d9060200160405180910390a18315610e085784547fffffffffffffffffffffffffffffffffffffffffffffff00ffffffffffffffff168555604051600181527fc7f505b2f371ae2175ee4913f4499e1f2633a7b5936321eed1cdaeb6115181d29060200160405180910390a15b50505050505050505050505050565b7f52c63247e1f47db19d5ce0460030c497f067ca4cebf71ba98eeadabe20bace0480546060917f52c63247e1f47db19d5ce0460030c497f067ca4cebf71ba98eeadabe20bace00916105d1906123f2565b5f336106608185856112d0565b83421115610eb2576040517f6279130200000000000000000000000000000000000000000000000000000000815260048101859052602401610896565b5f7f6e71edae12b1b97f4d1f60370fef10105fa2faae0126114a169c64845d6126c9888888610f298c73ffffffffffffffffffffffffffffffffffffffff165f9081527f5ab42ced628888259c08ac98db1eb0cf702fc1501344311d8b100cd1bfe4bb006020526040902080546001810190915590565b60408051602081019690965273ffffffffffffffffffffffffffffffffffffffff94851690860152929091166060840152608083015260a082015260c0810186905260e0016040516020818303038152906040528051906020012090505f610f9082611767565b90505f610f9f828787876117ae565b90508973ffffffffffffffffffffffffffffffffffffffff168173ffffffffffffffffffffffffffffffffffffffff1614611026576040517f4b800e4600000000000000000000000000000000000000000000000000000000815273ffffffffffffffffffffffffffffffffffffffff80831660048301528b166024820152604401610896565b6110318a8a8a6111dc565b50505050505050505050565b5f6110667f52c63247e1f47db19d5ce0460030c497f067ca4cebf71ba98eeadabe20bace025490565b5f805460015460408051426024820152604480820187905282518083039091018152606490910182526020810180517bffffffffffffffffffffffffffffffffffffffffffffffffffffffff167f620dca630000000000000000000000000000000000000000000000000000000017905290517f9f3ce55a00000000000000000000000000000000000000000000000000000000815294955073ffffffffffffffffffffffffffffffffffffffff92831694639f3ce55a94611130949093169291906004016124e8565b5f604051808303815f87803b158015611147575f5ffd5b505af1158015611159573d5f5f3e3d5ffd5b505050507f20e0c84b597c988c072e80755f49ecf0a008158cc83f3439b89b11140a6c1c7b8160405161118e91815260200190565b60405180910390a150565b5f8281527f02dd7bc7dec4dceedda775e58dd541e08a116c6c53815c0bd028192f7b62680060205260409020600101546111d281611379565b6106d083836114aa565b61073d83838360016117da565b73ffffffffffffffffffffffffffffffffffffffff8381165f9081527f52c63247e1f47db19d5ce0460030c497f067ca4cebf71ba98eeadabe20bace0160209081526040808320938616835292905220547fffffffffffffffffffffffffffffffffffffffffffffffffffffffffffffffff8110156106d057818110156112c2576040517ffb8f41b200000000000000000000000000000000000000000000000000000000815273ffffffffffffffffffffffffffffffffffffffff841660048201526024810182905260448101839052606401610896565b6106d084848484035f6117da565b73ffffffffffffffffffffffffffffffffffffffff831661131f576040517f96c6fd1e0000000000000000000000000000000000000000000000000000000081525f6004820152602401610896565b73ffffffffffffffffffffffffffffffffffffffff821661136e576040517fec442f050000000000000000000000000000000000000000000000000000000081525f6004820152602401610896565b61073d838383611944565b6107808133611b11565b5f8281527f02dd7bc7dec4dceedda775e58dd541e08a116c6c53815c0bd028192f7b6268006020818152604080842073ffffffffffffffffffffffffffffffffffffffff8616855290915282205460ff16611498575f8481526020828152604080832073ffffffffffffffffffffffffffffffffffffffff87168452909152902080547fffffffffffffffffffffffffffffffffffffffffffffffffffffffffffffff001660011790556114343390565b73ffffffffffffffffffffffffffffffffffffffff168373ffffffffffffffffffffffffffffffffffffffff16857f2f8788117e7eff1d82e926ec794901d17c78024a50270940304540a733656f0d60405160405180910390a46001915050610595565b5f915050610595565b5f6106df611bb7565b5f8281527f02dd7bc7dec4dceedda775e58dd541e08a116c6c53815c0bd028192f7b6268006020818152604080842073ffffffffffffffffffffffffffffffffffffffff8616855290915282205460ff1615611498575f8481526020828152604080832073ffffffffffffffffffffffffffffffffffffffff8716808552925280832080547fffffffffffffffffffffffffffffffffffffffffffffffffffffffffffffff0016905551339287917ff6391f5c32d9c69d2a47ea670b442974b53935d1edc7fd64eb21e047a839171b9190a46001915050610595565b73ffffffffffffffffffffffffffffffffffffffff82166115d5576040517fec442f050000000000000000000000000000000000000000000000000000000081525f6004820152602401610896565b6107e85f8383611944565b73ffffffffffffffffffffffffffffffffffffffff821661162f576040517f96c6fd1e0000000000000000000000000000000000000000000000000000000081525f6004820152602401610896565b6107e8825f83611944565b5f807f5ab42ced628888259c08ac98db1eb0cf702fc1501344311d8b100cd1bfe4bb006107a7565b7fa16a46d94261c7517cc8ff89f61c0ce93598e3c849801011dee649a6a557d10280546060917fa16a46d94261c7517cc8ff89f61c0ce93598e3c849801011dee649a6a557d100916105d1906123f2565b60605f7fa16a46d94261c7517cc8ff89f61c0ce93598e3c849801011dee649a6a557d1006105c0565b5f807ff0c57e16840df040f15088dc2f81fe391c3923bec73e23a9662efc9c229c6a00610595565b61170c611c2a565b6107e88282611c68565b61171e611c2a565b565b611728611c2a565b610780816040518060400160405280600181526020017f3100000000000000000000000000000000000000000000000000000000000000815250611ccb565b5f6105956117736114a1565b836040517f19010000000000000000000000000000000000000000000000000000000000008152600281019290925260228201526042902090565b5f5f5f5f6117be88888888611d3d565b9250925092506117ce8282611e30565b50909695505050505050565b7f52c63247e1f47db19d5ce0460030c497f067ca4cebf71ba98eeadabe20bace0073ffffffffffffffffffffffffffffffffffffffff851661184a576040517fe602df050000000000000000000000000000000000000000000000000000000081525f6004820152602401610896565b73ffffffffffffffffffffffffffffffffffffffff8416611899576040517f94280d620000000000000000000000000000000000000000000000000000000081525f6004820152602401610896565b73ffffffffffffffffffffffffffffffffffffffff8086165f9081526001830160209081526040808320938816835292905220839055811561193d578373ffffffffffffffffffffffffffffffffffffffff168573ffffffffffffffffffffffffffffffffffffffff167f8c5be1e5ebec7d5bd14f71427d1e84f3dd0314c0f7b2291e5b200ac8c7c3b9258560405161193491815260200190565b60405180910390a35b5050505050565b7f52c63247e1f47db19d5ce0460030c497f067ca4cebf71ba98eeadabe20bace0073ffffffffffffffffffffffffffffffffffffffff841661199e5781816002015f8282546119939190612525565b90915550611a4e9050565b73ffffffffffffffffffffffffffffffffffffffff84165f9081526020829052604090205482811015611a23576040517fe450d38c00000000000000000000000000000000000000000000000000000000815273ffffffffffffffffffffffffffffffffffffffff861660048201526024810182905260448101849052606401610896565b73ffffffffffffffffffffffffffffffffffffffff85165f9081526020839052604090209083900390555b73ffffffffffffffffffffffffffffffffffffffff8316611a79576002810180548390039055611aa4565b73ffffffffffffffffffffffffffffffffffffffff83165f9081526020829052604090208054830190555b8273ffffffffffffffffffffffffffffffffffffffff168473ffffffffffffffffffffffffffffffffffffffff167fddf252ad1be2c89b69c2b068fc378daa952ba7f163c4a11628f55a4df523b3ef84604051611b0391815260200190565b60405180910390a350505050565b5f8281527f02dd7bc7dec4dceedda775e58dd541e08a116c6c53815c0bd028192f7b6268006020908152604080832073ffffffffffffffffffffffffffffffffffffffff8516845290915290205460ff166107e8576040517fe2517d3f00000000000000000000000000000000000000000000000000000000815273ffffffffffffffffffffffffffffffffffffffff8216600482015260248101839052604401610896565b5f7f8b73c3c69bb8fe3d512ecc4cf759cc79239f7b179b0ffacaa9a75d522b39400f611be1611f33565b611be9611fae565b60408051602081019490945283019190915260608201524660808201523060a082015260c00160405160208183030381529060405280519060200120905090565b611c32612003565b61171e576040517fd7e6bcf800000000000000000000000000000000000000000000000000000000815260040160405180910390fd5b611c70611c2a565b7f52c63247e1f47db19d5ce0460030c497f067ca4cebf71ba98eeadabe20bace007f52c63247e1f47db19d5ce0460030c497f067ca4cebf71ba98eeadabe20bace03611cbc84826125a1565b50600481016106d083826125a1565b611cd3611c2a565b7fa16a46d94261c7517cc8ff89f61c0ce93598e3c849801011dee649a6a557d1007fa16a46d94261c7517cc8ff89f61c0ce93598e3c849801011dee649a6a557d102611d1f84826125a1565b5060038101611d2e83826125a1565b505f8082556001909101555050565b5f80807f7fffffffffffffffffffffffffffffff5d576e7357a4501ddfe92f46681b20a0841115611d7657505f91506003905082611e26565b604080515f808252602082018084528a905260ff891692820192909252606081018790526080810186905260019060a0016020604051602081039080840390855afa158015611dc7573d5f5f3e3d5ffd5b50506040517fffffffffffffffffffffffffffffffffffffffffffffffffffffffffffffffe0015191505073ffffffffffffffffffffffffffffffffffffffff8116611e1d57505f925060019150829050611e26565b92505f91508190505b9450945094915050565b5f826003811115611e4357611e436126b8565b03611e4c575050565b6001826003811115611e6057611e606126b8565b03611e97576040517ff645eedf00000000000000000000000000000000000000000000000000000000815260040160405180910390fd5b6002826003811115611eab57611eab6126b8565b03611ee5576040517ffce698f700000000000000000000000000000000000000000000000000000000815260048101829052602401610896565b6003826003811115611ef957611ef96126b8565b036107e8576040517fd78bce0c00000000000000000000000000000000000000000000000000000000815260048101829052602401610896565b5f7fa16a46d94261c7517cc8ff89f61c0ce93598e3c849801011dee649a6a557d10081611f5e611662565b805190915015611f7657805160209091012092915050565b81548015611f85579392505050565b7fc5d2460186f7233c927e7db2dcc703c0e500b653ca82273b7bfad8045d85a470935050505090565b5f7fa16a46d94261c7517cc8ff89f61c0ce93598e3c849801011dee649a6a557d10081611fd96116b3565b805190915015611ff157805160209091012092915050565b60018201548015611f85579392505050565b5f61200c6116dc565b5468010000000000000000900460ff16919050565b5f60208284031215612031575f5ffd5b81357fffffffff0000000000000000000000000000000000000000000000000000000081168114612060575f5ffd5b9392505050565b5f81518084528060208401602086015e5f6020828601015260207fffffffffffffffffffffffffffffffffffffffffffffffffffffffffffffffe0601f83011685010191505092915050565b602081525f6120606020830184612067565b803573ffffffffffffffffffffffffffffffffffffffff811681146120e8575f5ffd5b919050565b5f5f604083850312156120fe575f5ffd5b612107836120c5565b946020939093013593505050565b5f5f5f60608486031215612127575f5ffd5b612130846120c5565b925061213e602085016120c5565b929592945050506040919091013590565b5f6020828403121561215f575f5ffd5b5035919050565b5f5f60408385031215612177575f5ffd5b82359150612187602084016120c5565b90509250929050565b5f602082840312156121a0575f5ffd5b612060826120c5565b7fff000000000000000000000000000000000000000000000000000000000000008816815260e060208201525f6121e360e0830189612067565b82810360408401526121f58189612067565b6060840188905273ffffffffffffffffffffffffffffffffffffffff8716608085015260a0840186905283810360c0850152845180825260208087019350909101905f5b81811015612257578351835260209384019390920191600101612239565b50909b9a5050505050505050505050565b5f5f83601f840112612278575f5ffd5b50813567ffffffffffffffff81111561228f575f5ffd5b6020830191508360208285010111156122a6575f5ffd5b9250929050565b5f5f5f5f5f5f5f5f60c0898b0312156122c4575f5ffd5b6122cd896120c5565b97506122db60208a016120c5565b96506122e960408a016120c5565b95506122f760608a016120c5565b9450608089013567ffffffffffffffff811115612312575f5ffd5b61231e8b828c01612268565b90955093505060a089013567ffffffffffffffff81111561233d575f5ffd5b6123498b828c01612268565b999c989b5096995094979396929594505050565b5f5f5f5f5f5f5f60e0888a031215612373575f5ffd5b61237c886120c5565b965061238a602089016120c5565b95506040880135945060608801359350608088013560ff811681146123ad575f5ffd5b9699959850939692959460a0840135945060c09093013592915050565b5f5f604083850312156123db575f5ffd5b6123e4836120c5565b9150612187602084016120c5565b600181811c9082168061240657607f821691505b60208210810361243d577f4e487b71000000000000000000000000000000000000000000000000000000005f52602260045260245ffd5b50919050565b7f4e487b71000000000000000000000000000000000000000000000000000000005f52604160045260245ffd5b81835281816020850137505f602082840101525f60207fffffffffffffffffffffffffffffffffffffffffffffffffffffffffffffffe0601f840116840101905092915050565b604081525f6124ca604083018688612470565b82810360208401526124dd818587612470565b979650505050505050565b73ffffffffffffffffffffffffffffffffffffffff84168152826020820152606060408201525f61251c6060830184612067565b95945050505050565b80820180821115610595577f4e487b71000000000000000000000000000000000000000000000000000000005f52601160045260245ffd5b601f82111561073d57805f5260205f20601f840160051c810160208510156125825750805b601f840160051c820191505b8181101561193d575f815560010161258e565b815167ffffffffffffffff8111156125bb576125bb612443565b6125cf816125c984546123f2565b8461255d565b6020601f821160018114612620575f83156125ea5750848201515b7fffffffffffffffffffffffffffffffffffffffffffffffffffffffffffffffff600385901b1c1916600184901b17845561193d565b5f848152602081207fffffffffffffffffffffffffffffffffffffffffffffffffffffffffffffffe08516915b8281101561266d578785015182556020948501946001909201910161264d565b50848210156126a957868401517fffffffffffffffffffffffffffffffffffffffffffffffffffffffffffffffff600387901b60f8161c191681555b50505050600190811b01905550565b7f4e487b71000000000000000000000000000000000000000000000000000000005f52602160045260245ffdfea264697066735822122018a29321f24a58fe13768329e3228e488be15f7cefd2a0401e6de40c825796df64736f6c634300081e0033","linkReferences":{}},"methodIdentifiers":{"DEFAULT_ADMIN_ROLE()":"a217fddf","DOMAIN_SEPARATOR()":"3644e515","MINTER_ROLE()":"d5391393","allowance(address,address)":"dd62ed3e","approve(address,uint256)":"095ea7b3","balanceOf(address)":"70a08231","burn(uint256)":"42966c68","burnFrom(address,uint256)":"79cc6790","decimals()":"313ce567","eip712Domain()":"84b0196e","getRoleAdmin(bytes32)":"248a9ca3","grantRole(bytes32,address)":"2f2ff15d","hasRole(bytes32,address)":"91d14854","initialize(address,address,address,address,string,string)":"9317c200","l1MessageService()":"64aaef7e","l2TokenAddress()":"e77f9cec","mint(address,uint256)":"40c10f19","name()":"06fdde03","nonces(address)":"7ecebe00","permit(address,address,uint256,uint256,uint8,bytes32,bytes32)":"d505accf","renounceRole(bytes32,address)":"36568abe","revokeRole(bytes32,address)":"d547741f","supportsInterface(bytes4)":"01ffc9a7","symbol()":"95d89b41","syncTotalSupplyToL2()":"d532167d","totalSupply()":"18160ddd","transfer(address,uint256)":"a9059cbb","transferFrom(address,address,uint256)":"23b872dd"},"storageLayout":{"storage":[{"astId":49456,"contract":"src/L1/LineaToken.sol:LineaToken","label":"l1MessageService","offset":0,"slot":"0","type":"t_address"},{"astId":49459,"contract":"src/L1/LineaToken.sol:LineaToken","label":"l2TokenAddress","offset":0,"slot":"1","type":"t_address"}],"types":{"t_address":{"encoding":"inplace","label":"address","numberOfBytes":"20"}}},"id":59}