{
  "_format": "hh-sol-artifact-1",
  "contractName": "TokenBridge",
  "sourceName": "contracts/tokenBridge/TokenBridge.sol",
  "abi": [
    {
      "inputs": [],
      "stateMutability": "nonpayable",
      "type": "constructor"
    },
    {
      "inputs": [
        {
          "internalType": "address",
          "name": "token",
          "type": "address"
        }
      ],
      "name": "AlreadyBridgedToken",
      "type": "error"
    },
    {
      "inputs": [
        {
          "internalType": "address",
          "name": "token",
          "type": "address"
        }
      ],
      "name": "AlreadyBrigedToNativeTokenSet",
      "type": "error"
    },
    {
      "inputs": [],
      "name": "CallerIsNotMessageService",
      "type": "error"
    },
    {
      "inputs": [
        {
          "internalType": "bytes4",
          "name": "permitData",
          "type": "bytes4"
        },
        {
          "internalType": "bytes4",
          "name": "permitSelector",
          "type": "bytes4"
        }
      ],
      "name": "InvalidPermitData",
      "type": "error"
    },
    {
      "inputs": [
        {
          "internalType": "address",
          "name": "token",
          "type": "address"
        }
      ],
      "name": "NotReserved",
      "type": "error"
    },
    {
      "inputs": [
        {
          "internalType": "address",
          "name": "spender",
          "type": "address"
        }
      ],
      "name": "PermitNotAllowingBridge",
      "type": "error"
    },
    {
      "inputs": [
        {
          "internalType": "address",
          "name": "owner",
          "type": "address"
        }
      ],
      "name": "PermitNotFromSender",
      "type": "error"
    },
    {
      "inputs": [
        {
          "internalType": "address",
          "name": "remoteTokenBridge",
          "type": "address"
        }
      ],
      "name": "RemoteTokenBridgeAlreadySet",
      "type": "error"
    },
    {
      "inputs": [
        {
          "internalType": "address",
          "name": "token",
          "type": "address"
        }
      ],
      "name": "ReservedToken",
      "type": "error"
    },
    {
      "inputs": [],
      "name": "SenderNotAuthorized",
      "type": "error"
    },
    {
      "inputs": [
        {
          "internalType": "address",
          "name": "token",
          "type": "address"
        }
      ],
      "name": "StatusAddressNotAllowed",
      "type": "error"
    },
    {
      "inputs": [
        {
          "internalType": "address",
          "name": "token",
          "type": "address"
        }
      ],
      "name": "TokenNotDeployed",
      "type": "error"
    },
    {
      "inputs": [],
      "name": "ZeroAddressNotAllowed",
      "type": "error"
    },
    {
      "inputs": [
        {
          "internalType": "uint256",
          "name": "amount",
          "type": "uint256"
        }
      ],
      "name": "ZeroAmountNotAllowed",
      "type": "error"
    },
    {
      "anonymous": false,
      "inputs": [
        {
          "indexed": true,
          "internalType": "address",
          "name": "nativeToken",
          "type": "address"
        },
        {
          "indexed": true,
          "internalType": "address",
          "name": "bridgedToken",
          "type": "address"
        },
        {
          "indexed": false,
          "internalType": "uint256",
          "name": "amount",
          "type": "uint256"
        },
        {
          "indexed": true,
          "internalType": "address",
          "name": "recipient",
          "type": "address"
        }
      ],
      "name": "BridgingFinalized",
      "type": "event"
    },
    {
      "anonymous": false,
      "inputs": [
        {
          "indexed": true,
          "internalType": "address",
          "name": "sender",
          "type": "address"
        },
        {
          "indexed": true,
          "internalType": "address",
          "name": "recipient",
          "type": "address"
        },
        {
          "indexed": true,
          "internalType": "address",
          "name": "token",
          "type": "address"
        },
        {
          "indexed": false,
          "internalType": "uint256",
          "name": "amount",
          "type": "uint256"
        }
      ],
      "name": "BridgingInitiated",
      "type": "event"
    },
    {
      "anonymous": false,
      "inputs": [
        {
          "indexed": true,
          "internalType": "address",
          "name": "nativeToken",
          "type": "address"
        },
        {
          "indexed": true,
          "internalType": "address",
          "name": "customContract",
          "type": "address"
        },
        {
          "indexed": true,
          "internalType": "address",
          "name": "setBy",
          "type": "address"
        }
      ],
      "name": "CustomContractSet",
      "type": "event"
    },
    {
      "anonymous": false,
      "inputs": [
        {
          "indexed": false,
          "internalType": "address[]",
          "name": "tokens",
          "type": "address[]"
        },
        {
          "indexed": true,
          "internalType": "address",
          "name": "confirmedBy",
          "type": "address"
        }
      ],
      "name": "DeploymentConfirmed",
      "type": "event"
    },
    {
      "anonymous": false,
      "inputs": [
        {
          "indexed": false,
          "internalType": "uint8",
          "name": "version",
          "type": "uint8"
        }
      ],
      "name": "Initialized",
      "type": "event"
    },
    {
      "anonymous": false,
      "inputs": [
        {
          "indexed": true,
          "internalType": "address",
          "name": "newMessageService",
          "type": "address"
        },
        {
          "indexed": true,
          "internalType": "address",
          "name": "oldMessageService",
          "type": "address"
        },
        {
          "indexed": true,
          "internalType": "address",
          "name": "setBy",
          "type": "address"
        }
      ],
      "name": "MessageServiceUpdated",
      "type": "event"
    },
    {
      "anonymous": false,
      "inputs": [
        {
          "indexed": true,
          "internalType": "address",
          "name": "token",
          "type": "address"
        }
      ],
      "name": "NewToken",
      "type": "event"
    },
    {
      "anonymous": false,
      "inputs": [
        {
          "indexed": true,
          "internalType": "address",
          "name": "bridgedToken",
          "type": "address"
        },
        {
          "indexed": true,
          "internalType": "address",
          "name": "nativeToken",
          "type": "address"
        }
      ],
      "name": "NewTokenDeployed",
      "type": "event"
    },
    {
      "anonymous": false,
      "inputs": [
        {
          "indexed": true,
          "internalType": "address",
          "name": "previousOwner",
          "type": "address"
        },
        {
          "indexed": true,
          "internalType": "address",
          "name": "newOwner",
          "type": "address"
        }
      ],
      "name": "OwnershipTransferStarted",
      "type": "event"
    },
    {
      "anonymous": false,
      "inputs": [
        {
          "indexed": true,
          "internalType": "address",
          "name": "previousOwner",
          "type": "address"
        },
        {
          "indexed": true,
          "internalType": "address",
          "name": "newOwner",
          "type": "address"
        }
      ],
      "name": "OwnershipTransferred",
      "type": "event"
    },
    {
      "anonymous": false,
      "inputs": [
        {
          "indexed": false,
          "internalType": "address",
          "name": "account",
          "type": "address"
        }
      ],
      "name": "Paused",
      "type": "event"
    },
    {
      "anonymous": false,
      "inputs": [
        {
          "indexed": true,
          "internalType": "address",
          "name": "remoteTokenBridge",
          "type": "address"
        },
        {
          "indexed": true,
          "internalType": "address",
          "name": "setBy",
          "type": "address"
        }
      ],
      "name": "RemoteTokenBridgeSet",
      "type": "event"
    },
    {
      "anonymous": false,
      "inputs": [
        {
          "indexed": true,
          "internalType": "address",
          "name": "token",
          "type": "address"
        }
      ],
      "name": "TokenDeployed",
      "type": "event"
    },
    {
      "anonymous": false,
      "inputs": [
        {
          "indexed": true,
          "internalType": "address",
          "name": "token",
          "type": "address"
        }
      ],
      "name": "TokenReserved",
      "type": "event"
    },
    {
      "anonymous": false,
      "inputs": [
        {
          "indexed": false,
          "internalType": "address",
          "name": "account",
          "type": "address"
        }
      ],
      "name": "Unpaused",
      "type": "event"
    },
    {
      "inputs": [],
      "name": "acceptOwnership",
      "outputs": [],
      "stateMutability": "nonpayable",
      "type": "function"
    },
    {
      "inputs": [
        {
          "internalType": "address",
          "name": "_token",
          "type": "address"
        },
        {
          "internalType": "uint256",
          "name": "_amount",
          "type": "uint256"
        },
        {
          "internalType": "address",
          "name": "_recipient",
          "type": "address"
        }
      ],
      "name": "bridgeToken",
      "outputs": [],
      "stateMutability": "payable",
      "type": "function"
    },
    {
      "inputs": [
        {
          "internalType": "address",
          "name": "_token",
          "type": "address"
        },
        {
          "internalType": "uint256",
          "name": "_amount",
          "type": "uint256"
        },
        {
          "internalType": "address",
          "name": "_recipient",
          "type": "address"
        },
        {
          "internalType": "bytes",
          "name": "_permitData",
          "type": "bytes"
        }
      ],
      "name": "bridgeTokenWithPermit",
      "outputs": [],
      "stateMutability": "payable",
      "type": "function"
    },
    {
      "inputs": [
        {
          "internalType": "address",
          "name": "",
          "type": "address"
        }
      ],
      "name": "bridgedToNativeToken",
      "outputs": [
        {
          "internalType": "address",
          "name": "",
          "type": "address"
        }
      ],
      "stateMutability": "view",
      "type": "function"
    },
    {
      "inputs": [
        {
          "internalType": "address",
          "name": "_nativeToken",
          "type": "address"
        },
        {
          "internalType": "uint256",
          "name": "_amount",
          "type": "uint256"
        },
        {
          "internalType": "address",
          "name": "_recipient",
          "type": "address"
        },
        {
          "internalType": "uint256",
          "name": "_chainId",
          "type": "uint256"
        },
        {
          "internalType": "bytes",
          "name": "_tokenMetadata",
          "type": "bytes"
        }
      ],
      "name": "completeBridging",
      "outputs": [],
      "stateMutability": "nonpayable",
      "type": "function"
    },
    {
      "inputs": [
        {
          "internalType": "address[]",
          "name": "_tokens",
          "type": "address[]"
        }
      ],
      "name": "confirmDeployment",
      "outputs": [],
      "stateMutability": "payable",
      "type": "function"
    },
    {
      "inputs": [
        {
          "internalType": "address",
          "name": "_securityCouncil",
          "type": "address"
        },
        {
          "internalType": "address",
          "name": "_messageService",
          "type": "address"
        },
        {
          "internalType": "address",
          "name": "_tokenBeacon",
          "type": "address"
        },
        {
          "internalType": "uint256",
          "name": "_sourceChainId",
          "type": "uint256"
        },
        {
          "internalType": "uint256",
          "name": "_targetChainId",
          "type": "uint256"
        },
        {
          "internalType": "address[]",
          "name": "_reservedTokens",
          "type": "address[]"
        }
      ],
      "name": "initialize",
      "outputs": [],
      "stateMutability": "nonpayable",
      "type": "function"
    },
    {
      "inputs": [],
      "name": "messageService",
      "outputs": [
        {
          "internalType": "contract IMessageService",
          "name": "",
          "type": "address"
        }
      ],
      "stateMutability": "view",
      "type": "function"
    },
    {
      "inputs": [
        {
          "internalType": "uint256",
          "name": "",
          "type": "uint256"
        },
        {
          "internalType": "address",
          "name": "",
          "type": "address"
        }
      ],
      "name": "nativeToBridgedToken",
      "outputs": [
        {
          "internalType": "address",
          "name": "",
          "type": "address"
        }
      ],
      "stateMutability": "view",
      "type": "function"
    },
    {
      "inputs": [],
      "name": "owner",
      "outputs": [
        {
          "internalType": "address",
          "name": "",
          "type": "address"
        }
      ],
      "stateMutability": "view",
      "type": "function"
    },
    {
      "inputs": [],
      "name": "pause",
      "outputs": [],
      "stateMutability": "nonpayable",
      "type": "function"
    },
    {
      "inputs": [],
      "name": "paused",
      "outputs": [
        {
          "internalType": "bool",
          "name": "",
          "type": "bool"
        }
      ],
      "stateMutability": "view",
      "type": "function"
    },
    {
      "inputs": [],
      "name": "pendingOwner",
      "outputs": [
        {
          "internalType": "address",
          "name": "",
          "type": "address"
        }
      ],
      "stateMutability": "view",
      "type": "function"
    },
    {
      "inputs": [],
      "name": "remoteSender",
      "outputs": [
        {
          "internalType": "address",
          "name": "",
          "type": "address"
        }
      ],
      "stateMutability": "view",
      "type": "function"
    },
    {
      "inputs": [
        {
          "internalType": "address",
          "name": "_token",
          "type": "address"
        }
      ],
      "name": "removeReserved",
      "outputs": [],
      "stateMutability": "nonpayable",
      "type": "function"
    },
    {
      "inputs": [],
      "name": "renounceOwnership",
      "outputs": [],
      "stateMutability": "nonpayable",
      "type": "function"
    },
    {
      "inputs": [
        {
          "internalType": "address",
          "name": "_nativeToken",
          "type": "address"
        },
        {
          "internalType": "address",
          "name": "_targetContract",
          "type": "address"
        }
      ],
      "name": "setCustomContract",
      "outputs": [],
      "stateMutability": "nonpayable",
      "type": "function"
    },
    {
      "inputs": [
        {
          "internalType": "address[]",
          "name": "_nativeTokens",
          "type": "address[]"
        }
      ],
      "name": "setDeployed",
      "outputs": [],
      "stateMutability": "nonpayable",
      "type": "function"
    },
    {
      "inputs": [
        {
          "internalType": "address",
          "name": "_messageService",
          "type": "address"
        }
      ],
      "name": "setMessageService",
      "outputs": [],
      "stateMutability": "nonpayable",
      "type": "function"
    },
    {
      "inputs": [
        {
          "internalType": "address",
          "name": "_remoteTokenBridge",
          "type": "address"
        }
      ],
      "name": "setRemoteTokenBridge",
      "outputs": [],
      "stateMutability": "nonpayable",
      "type": "function"
    },
    {
      "inputs": [
        {
          "internalType": "address",
          "name": "_token",
          "type": "address"
        }
      ],
      "name": "setReserved",
      "outputs": [],
      "stateMutability": "nonpayable",
      "type": "function"
    },
    {
      "inputs": [],
      "name": "sourceChainId",
      "outputs": [
        {
          "internalType": "uint256",
          "name": "",
          "type": "uint256"
        }
      ],
      "stateMutability": "view",
      "type": "function"
    },
    {
      "inputs": [],
      "name": "targetChainId",
      "outputs": [
        {
          "internalType": "uint256",
          "name": "",
          "type": "uint256"
        }
      ],
      "stateMutability": "view",
      "type": "function"
    },
    {
      "inputs": [],
      "name": "tokenBeacon",
      "outputs": [
        {
          "internalType": "address",
          "name": "",
          "type": "address"
        }
      ],
      "stateMutability": "view",
      "type": "function"
    },
    {
      "inputs": [
        {
          "internalType": "address",
          "name": "newOwner",
          "type": "address"
        }
      ],
      "name": "transferOwnership",
      "outputs": [],
      "stateMutability": "nonpayable",
      "type": "function"
    },
    {
      "inputs": [],
      "name": "unpause",
      "outputs": [],
      "stateMutability": "nonpayable",
      "type": "function"
    }
  ],
  "bytecode": "0x60806040523480156200001157600080fd5b506200001c62000022565b620000e3565b600054610100900460ff16156200008f5760405162461bcd60e51b815260206004820152602760248201527f496e697469616c697a61626c653a20636f6e747261637420697320696e697469604482015266616c697a696e6760c81b606482015260840160405180910390fd5b60005460ff90811614620000e1576000805460ff191660ff9081179091556040519081527f7f26b83ff96e1f2b6a682f133852f6798a09c465da95921460cefb38474024989060200160405180910390a15b565b614b9480620000f36000396000f3fe608060405260043610620001c35760003560e01c80638dae45dd11620000f3578063ccf5a77c1162000095578063e30c3978116200006c578063e30c39781462000533578063e4d274511462000560578063edc42a221462000585578063f2fde38b14620005aa57600080fd5b8063ccf5a77c14620004c7578063cdd914c514620004f7578063dfa96efb146200051c57600080fd5b8063b0994f0811620000ca578063b0994f081462000435578063be46096f146200045a578063ca41a247146200047f57600080fd5b80638dae45dd14620003b2578063a676e8ab14620003e1578063a6ef995f146200040657600080fd5b80634bf98dce1162000169578063715018a61162000140578063715018a6146200033d57806379ba509714620003555780638456cb59146200036d5780638da5cb5b146200038557600080fd5b80634bf98dce14620002ea578063522ea81a14620003015780635c975abb146200031857600080fd5b80631754f301116200019e5780631754f30114620002865780632a564f3414620002ad5780633f4ba83a14620002d257600080fd5b80630f6f86ec14620001c8578063146ffb2614620002455780631544298e146200026d575b600080fd5b348015620001d557600080fd5b506200021b620001e736600462003a64565b61010860209081526000928352604080842090915290825290205473ffffffffffffffffffffffffffffffffffffffff1681565b60405173ffffffffffffffffffffffffffffffffffffffff90911681526020015b60405180910390f35b3480156200025257600080fd5b506200025e61010b5481565b6040519081526020016200023c565b3480156200027a57600080fd5b506200025e61010a5481565b3480156200029357600080fd5b50620002ab620002a536600462003a97565b620005cf565b005b348015620002ba57600080fd5b50620002ab620002cc36600462003b19565b6200090e565b348015620002df57600080fd5b50620002ab62000b9f565b620002ab620002fb36600462003be0565b62000bb5565b620002ab6200031236600462003c9f565b62000e51565b3480156200032557600080fd5b5060335460ff1660405190151581526020016200023c565b3480156200034a57600080fd5b50620002ab62001576565b3480156200036257600080fd5b50620002ab6200158c565b3480156200037a57600080fd5b50620002ab62001645565b3480156200039257600080fd5b5060655473ffffffffffffffffffffffffffffffffffffffff166200021b565b348015620003bf57600080fd5b5060c9546200021b9073ffffffffffffffffffffffffffffffffffffffff1681565b348015620003ee57600080fd5b50620002ab6200040036600462003ce6565b62001659565b3480156200041357600080fd5b5060ca546200021b9073ffffffffffffffffffffffffffffffffffffffff1681565b3480156200044257600080fd5b50620002ab6200045436600462003d0d565b62001722565b3480156200046757600080fd5b50620002ab6200047936600462003ce6565b62001aed565b3480156200048c57600080fd5b506200021b6200049e36600462003ce6565b6101096020526000908152604090205473ffffffffffffffffffffffffffffffffffffffff1681565b348015620004d457600080fd5b50610107546200021b9073ffffffffffffffffffffffffffffffffffffffff1681565b3480156200050457600080fd5b50620002ab6200051636600462003ce6565b62001bc0565b620002ab6200052d36600462003deb565b62001d62565b3480156200054057600080fd5b5060975473ffffffffffffffffffffffffffffffffffffffff166200021b565b3480156200056d57600080fd5b50620002ab6200057f36600462003e66565b62001e25565b3480156200059257600080fd5b50620002ab620005a436600462003ce6565b620021c0565b348015620005b757600080fd5b50620002ab620005c936600462003ce6565b62002301565b8173ffffffffffffffffffffffffffffffffffffffff81166200061e576040517f8579befe00000000000000000000000000000000000000000000000000000000815260040160405180910390fd5b8173ffffffffffffffffffffffffffffffffffffffff81166200066d576040517f8579befe00000000000000000000000000000000000000000000000000000000815260040160405180910390fd5b62000677620023b4565b61010a5460009081526101086020908152604080832073ffffffffffffffffffffffffffffffffffffffff8089168552925290912054859116151580620006e5575073ffffffffffffffffffffffffffffffffffffffff818116600090815261010960205260409020541615155b156200073a576040517f12f3df0900000000000000000000000000000000000000000000000000000000815273ffffffffffffffffffffffffffffffffffffffff821660048201526024015b60405180910390fd5b73ffffffffffffffffffffffffffffffffffffffff848116600090815261010960205260409020541615620007b4576040517ff8fb7c2700000000000000000000000000000000000000000000000000000000815273ffffffffffffffffffffffffffffffffffffffff8516600482015260240162000731565b73ffffffffffffffffffffffffffffffffffffffff84166102221480620007f2575073ffffffffffffffffffffffffffffffffffffffff8416610333145b8062000815575073ffffffffffffffffffffffffffffffffffffffff8416610111145b1562000866576040517fd8ce8acb00000000000000000000000000000000000000000000000000000000815273ffffffffffffffffffffffffffffffffffffffff8516600482015260240162000731565b61010b5460009081526101086020908152604080832073ffffffffffffffffffffffffffffffffffffffff808a168086529184528285208054918a167fffffffffffffffffffffffff00000000000000000000000000000000000000009283168117909155808652610109909452828520805490911682179055905133937f844cb5c635052898ad92bea4ece14519111765d835105e76aa1f77ad0d0aa81f91a45050505050565b60c95473ffffffffffffffffffffffffffffffffffffffff16331462000960576040517f8c56efb100000000000000000000000000000000000000000000000000000000815260040160405180910390fd5b60ca5460c954604080517f67e404ce000000000000000000000000000000000000000000000000000000008152905173ffffffffffffffffffffffffffffffffffffffff93841693909216916367e404ce916004808201926020929091908290030181865afa158015620009d8573d6000803e3d6000fd5b505050506040513d601f19601f82011682018060405250810190620009fe919062003eea565b73ffffffffffffffffffffffffffffffffffffffff161462000a4c576040517f79d1e58f00000000000000000000000000000000000000000000000000000000815260040160405180910390fd5b6000805b8281101562000b995783838281811062000a6e5762000a6e62003f0a565b905060200201602081019062000a85919062003ce6565b61010a54600090815261010860205260408120919350610333919086868581811062000ab55762000ab562003f0a565b905060200201602081019062000acc919062003ce6565b73ffffffffffffffffffffffffffffffffffffffff9081168252602082019290925260400160002080547fffffffffffffffffffffffff0000000000000000000000000000000000000000169290911691909117905583838281811062000b375762000b3762003f0a565b905060200201602081019062000b4e919062003ce6565b73ffffffffffffffffffffffffffffffffffffffff167f91d24864a084ab70b268a1f865e757ca12006cf298d763b6be697302ef86498c60405160405180910390a260010162000a50565b50505050565b62000ba9620023b4565b62000bb362002437565b565b60005b815181101562000cd9576000610109600084848151811062000bde5762000bde62003f0a565b60209081029190910181015173ffffffffffffffffffffffffffffffffffffffff908116835290820192909252604001600020541690508062000c885782828151811062000c305762000c3062003f0a565b60200260200101516040517fa5ea89da00000000000000000000000000000000000000000000000000000000815260040162000731919073ffffffffffffffffffffffffffffffffffffffff91909116815260200190565b8083838151811062000c9e5762000c9e62003f0a565b73ffffffffffffffffffffffffffffffffffffffff90921660209283029190910190910152508062000cd08162003f68565b91505062000bb8565b5060c95460ca5460405173ffffffffffffffffffffffffffffffffffffffff92831692639f3ce55a923492911690829062000d1990879060240162003fa3565b604080517fffffffffffffffffffffffffffffffffffffffffffffffffffffffffffffffe08184030181529181526020820180517bffffffffffffffffffffffffffffffffffffffffffffffffffffffff167f2a564f3400000000000000000000000000000000000000000000000000000000179052517fffffffff0000000000000000000000000000000000000000000000000000000060e087901b16815262000dca9392919060040162004071565b6000604051808303818588803b15801562000de457600080fd5b505af115801562000df9573d6000803e3d6000fd5b50505050503373ffffffffffffffffffffffffffffffffffffffff167f59eab5b5f813ac9e0c10035dfb55b5e3419eff53c0f7a869fb3c22400ea036d68260405162000e46919062003fa3565b60405180910390a250565b8273ffffffffffffffffffffffffffffffffffffffff811662000ea0576040517f8579befe00000000000000000000000000000000000000000000000000000000815260040160405180910390fd5b8173ffffffffffffffffffffffffffffffffffffffff811662000eef576040517f8579befe00000000000000000000000000000000000000000000000000000000815260040160405180910390fd5b838060000362000f2f576040517f4618044a0000000000000000000000000000000000000000000000000000000081526004810182905260240162000731565b62000f39620024b6565b62000f4362002525565b61010a5460009081526101086020908152604080832073ffffffffffffffffffffffffffffffffffffffff808b168552925290912054167ffffffffffffffffffffffffffffffffffffffffffffffffffffffffffffffeef810162000fed576040517f6dad9c7800000000000000000000000000000000000000000000000000000000815273ffffffffffffffffffffffffffffffffffffffff8816600482015260240162000731565b73ffffffffffffffffffffffffffffffffffffffff80881660009081526101096020526040812054909116908060608315620010ba576040517f9dc29fac000000000000000000000000000000000000000000000000000000008152336004820152602481018b905273ffffffffffffffffffffffffffffffffffffffff8c1690639dc29fac90604401600060405180830381600087803b1580156200109257600080fd5b505af1158015620010a7573d6000803e3d6000fd5b5050505083925061010b5491506200137c565b6040517f70a0823100000000000000000000000000000000000000000000000000000000815230600482015260009073ffffffffffffffffffffffffffffffffffffffff8d16906370a0823190602401602060405180830381865afa15801562001128573d6000803e3d6000fd5b505050506040513d601f19601f820116820180604052508101906200114e9190620040b1565b90506200117473ffffffffffffffffffffffffffffffffffffffff8d1633308e6200259a565b6040517f70a08231000000000000000000000000000000000000000000000000000000008152306004820152819073ffffffffffffffffffffffffffffffffffffffff8e16906370a0823190602401602060405180830381865afa158015620011e1573d6000803e3d6000fd5b505050506040513d601f19601f82011682018060405250810190620012079190620040b1565b620012139190620040cb565b9a508b935073ffffffffffffffffffffffffffffffffffffffff86166200130d57610222610108600061010a54815260200190815260200160002060008e73ffffffffffffffffffffffffffffffffffffffff1673ffffffffffffffffffffffffffffffffffffffff16815260200190815260200160002060006101000a81548173ffffffffffffffffffffffffffffffffffffffff021916908373ffffffffffffffffffffffffffffffffffffffff1602179055508b73ffffffffffffffffffffffffffffffffffffffff167f0f53e2a811b6fd2d6cd965fd6c27b44fb924ca39f7a7f321115705c22366d62360405160405180910390a25b73ffffffffffffffffffffffffffffffffffffffff8616610333146200137457620013388c62002678565b620013438d62002798565b6200134e8e620028a5565b6040516020016200136293929190620040e1565b60405160208183030381529060405291505b61010a549250505b60c960009054906101000a900473ffffffffffffffffffffffffffffffffffffffff1673ffffffffffffffffffffffffffffffffffffffff16639f3ce55a3460ca60009054906101000a900473ffffffffffffffffffffffffffffffffffffffff1634878f8f8989604051602401620013fa9594939291906200411e565b604080517fffffffffffffffffffffffffffffffffffffffffffffffffffffffffffffffe08184030181529181526020820180517bffffffffffffffffffffffffffffffffffffffffffffffffffffffff167fe4d2745100000000000000000000000000000000000000000000000000000000179052517fffffffff0000000000000000000000000000000000000000000000000000000060e087901b168152620014ab9392919060040162004071565b6000604051808303818588803b158015620014c557600080fd5b505af1158015620014da573d6000803e3d6000fd5b50505050508a73ffffffffffffffffffffffffffffffffffffffff168973ffffffffffffffffffffffffffffffffffffffff163373ffffffffffffffffffffffffffffffffffffffff167fde5fcf0a1aebed387067eb25655de732ccfc43fe5b5a3d91d367c26e773fcd1c8d6040516200155691815260200190565b60405180910390a450505050506200156e600160d555565b505050505050565b62001580620023b4565b62000bb36000620029a8565b609754339073ffffffffffffffffffffffffffffffffffffffff16811462001637576040517f08c379a000000000000000000000000000000000000000000000000000000000815260206004820152602960248201527f4f776e61626c6532537465703a2063616c6c6572206973206e6f74207468652060448201527f6e6577206f776e65720000000000000000000000000000000000000000000000606482015260840162000731565b6200164281620029a8565b50565b6200164f620023b4565b62000bb3620029db565b62001663620023b4565b60ca5473ffffffffffffffffffffffffffffffffffffffff1615620016d15760ca546040517f94fbfd2e00000000000000000000000000000000000000000000000000000000815273ffffffffffffffffffffffffffffffffffffffff909116600482015260240162000731565b620016dc8162002a39565b604051339073ffffffffffffffffffffffffffffffffffffffff8316907fb044c1a1a05a729c402def784b4e4cb01612ff03eee6f0beb3eba0f0606260a190600090a350565b8673ffffffffffffffffffffffffffffffffffffffff811662001771576040517f8579befe00000000000000000000000000000000000000000000000000000000815260040160405180910390fd5b8673ffffffffffffffffffffffffffffffffffffffff8116620017c0576040517f8579befe00000000000000000000000000000000000000000000000000000000815260040160405180910390fd5b8673ffffffffffffffffffffffffffffffffffffffff81166200180f576040517f8579befe00000000000000000000000000000000000000000000000000000000815260040160405180910390fd5b600054610100900460ff1615808015620018305750600054600160ff909116105b806200184c5750303b1580156200184c575060005460ff166001145b620018da576040517f08c379a000000000000000000000000000000000000000000000000000000000815260206004820152602e60248201527f496e697469616c697a61626c653a20636f6e747261637420697320616c72656160448201527f647920696e697469616c697a6564000000000000000000000000000000000000606482015260840162000731565b600080547fffffffffffffffffffffffffffffffffffffffffffffffffffffffffffffff0016600117905580156200193957600080547fffffffffffffffffffffffffffffffffffffffffffffffffffffffffffff00ff166101001790555b6200194362002ace565b6200194d62002b71565b620019588a62002c14565b6200196262002d42565b61010780547fffffffffffffffffffffffff00000000000000000000000000000000000000001673ffffffffffffffffffffffffffffffffffffffff8b1617905561010a88905561010b87905560005b8581101562001a70576000878783818110620019d257620019d262003f0a565b9050602002016020810190620019e9919062003ce6565b73ffffffffffffffffffffffffffffffffffffffff160362001a37576040517f8579befe00000000000000000000000000000000000000000000000000000000815260040160405180910390fd5b62001a6787878381811062001a505762001a5062003f0a565b905060200201602081019062000516919062003ce6565b600101620019b2565b5062001a7c8b620029a8565b801562001ae057600080547fffffffffffffffffffffffffffffffffffffffffffffffffffffffffffff00ff169055604051600181527f7f26b83ff96e1f2b6a682f133852f6798a09c465da95921460cefb38474024989060200160405180910390a15b5050505050505050505050565b8073ffffffffffffffffffffffffffffffffffffffff811662001b3c576040517f8579befe00000000000000000000000000000000000000000000000000000000815260040160405180910390fd5b62001b46620023b4565b60c9805473ffffffffffffffffffffffffffffffffffffffff8481167fffffffffffffffffffffffff00000000000000000000000000000000000000008316811790935560405191169133918391907fc96d462e42a71473da49a1d58c1754b9b2d319786692d621dc7f921331c517e990600090a4505050565b8073ffffffffffffffffffffffffffffffffffffffff811662001c0f576040517f8579befe00000000000000000000000000000000000000000000000000000000815260040160405180910390fd5b62001c19620023b4565b61010a5460009081526101086020908152604080832073ffffffffffffffffffffffffffffffffffffffff808716855292529091205483911615158062001c87575073ffffffffffffffffffffffffffffffffffffffff818116600090815261010960205260409020541615155b1562001cd8576040517f12f3df0900000000000000000000000000000000000000000000000000000000815273ffffffffffffffffffffffffffffffffffffffff8216600482015260240162000731565b61010a5460009081526101086020908152604080832073ffffffffffffffffffffffffffffffffffffffff8716808552925280832080547fffffffffffffffffffffffff0000000000000000000000000000000000000000166101111790555190917f5e023c7a09fa0534ce3199f65fc3e635a5e851c5adc88ebda3b9d332ae07cbe991a2505050565b8473ffffffffffffffffffffffffffffffffffffffff811662001db1576040517f8579befe00000000000000000000000000000000000000000000000000000000815260040160405180910390fd5b848060000362001df1576040517f4618044a0000000000000000000000000000000000000000000000000000000081526004810182905260240162000731565b62001dfb620024b6565b821562001e0f5762001e0f87858562002de5565b62001e1c87878762000e51565b50505050505050565b62001e2f62002525565b60c95473ffffffffffffffffffffffffffffffffffffffff16331462001e81576040517f8c56efb100000000000000000000000000000000000000000000000000000000815260040160405180910390fd5b60ca5460c954604080517f67e404ce000000000000000000000000000000000000000000000000000000008152905173ffffffffffffffffffffffffffffffffffffffff93841693909216916367e404ce916004808201926020929091908290030181865afa15801562001ef9573d6000803e3d6000fd5b505050506040513d601f19601f8201168201806040525081019062001f1f919062003eea565b73ffffffffffffffffffffffffffffffffffffffff161462001f6d576040517f79d1e58f00000000000000000000000000000000000000000000000000000000815260040160405180910390fd5b62001f77620024b6565b60008381526101086020908152604080832073ffffffffffffffffffffffffffffffffffffffff808b1685529252822054169061022282148062001fd2575073ffffffffffffffffffffffffffffffffffffffff8216610333145b15620020015762001ffb73ffffffffffffffffffffffffffffffffffffffff89168789620030b6565b62002134565b508073ffffffffffffffffffffffffffffffffffffffff8116620020a9576200203088858561010a5462003113565b73ffffffffffffffffffffffffffffffffffffffff8082166000818152610109602090815260408083208054958f167fffffffffffffffffffffffff0000000000000000000000000000000000000000968716811790915561010b54845261010883528184209084529091529020805490921617905590505b6040517f40c10f1900000000000000000000000000000000000000000000000000000000815273ffffffffffffffffffffffffffffffffffffffff8781166004830152602482018990528216906340c10f1990604401600060405180830381600087803b1580156200211a57600080fd5b505af11580156200212f573d6000803e3d6000fd5b505050505b8573ffffffffffffffffffffffffffffffffffffffff168173ffffffffffffffffffffffffffffffffffffffff168973ffffffffffffffffffffffffffffffffffffffff167fd28a2d30314c6a2f46b657c15ee4d7ffc33b2817e78f341a260e216cebfbdbef8a604051620021ab91815260200190565b60405180910390a450506200156e600160d555565b8073ffffffffffffffffffffffffffffffffffffffff81166200220f576040517f8579befe00000000000000000000000000000000000000000000000000000000815260040160405180910390fd5b62002219620023b4565b61010a5460009081526101086020908152604080832073ffffffffffffffffffffffffffffffffffffffff86811685529252909120541661011114620022a4576040517f82f5d0a500000000000000000000000000000000000000000000000000000000815273ffffffffffffffffffffffffffffffffffffffff8316600482015260240162000731565b5061010a5460009081526101086020908152604080832073ffffffffffffffffffffffffffffffffffffffff90941683529290522080547fffffffffffffffffffffffff0000000000000000000000000000000000000000169055565b6200230b620023b4565b6097805473ffffffffffffffffffffffffffffffffffffffff83167fffffffffffffffffffffffff000000000000000000000000000000000000000090911681179091556200236f60655473ffffffffffffffffffffffffffffffffffffffff1690565b73ffffffffffffffffffffffffffffffffffffffff167f38d16b8cac22d99fc7c124b9cd0de2d3fa1faef420bfe791d8c362d765e2270060405160405180910390a350565b60655473ffffffffffffffffffffffffffffffffffffffff16331462000bb3576040517f08c379a000000000000000000000000000000000000000000000000000000000815260206004820181905260248201527f4f776e61626c653a2063616c6c6572206973206e6f7420746865206f776e6572604482015260640162000731565b62002441620032de565b603380547fffffffffffffffffffffffffffffffffffffffffffffffffffffffffffffff001690557f5db9ee0a495bf2e6ff9c91a7834c1ba4fdd244a5e8aa4e537bd38aeae4b073aa335b60405173ffffffffffffffffffffffffffffffffffffffff909116815260200160405180910390a1565b60335460ff161562000bb3576040517f08c379a000000000000000000000000000000000000000000000000000000000815260206004820152601060248201527f5061757361626c653a2070617573656400000000000000000000000000000000604482015260640162000731565b600260d5540362002593576040517f08c379a000000000000000000000000000000000000000000000000000000000815260206004820152601f60248201527f5265656e7472616e637947756172643a207265656e7472616e742063616c6c00604482015260640162000731565b600260d555565b60405173ffffffffffffffffffffffffffffffffffffffff8085166024830152831660448201526064810182905262000b999085907f23b872dd00000000000000000000000000000000000000000000000000000000906084015b604080517fffffffffffffffffffffffffffffffffffffffffffffffffffffffffffffffe08184030181529190526020810180517bffffffffffffffffffffffffffffffffffffffffffffffffffffffff167fffffffff00000000000000000000000000000000000000000000000000000000909316929092179091526200334c565b60408051600481526024810182526020810180517bffffffffffffffffffffffffffffffffffffffffffffffffffffffff167f06fdde03000000000000000000000000000000000000000000000000000000001790529051606091600091829173ffffffffffffffffffffffffffffffffffffffff861691620026fc919062004165565b600060405180830381855afa9150503d806000811462002739576040519150601f19603f3d011682016040523d82523d6000602084013e6200273e565b606091505b50915091508162002785576040518060400160405280600781526020017f4e4f5f4e414d450000000000000000000000000000000000000000000000000081525062002790565b620027908162003462565b949350505050565b60408051600481526024810182526020810180517bffffffffffffffffffffffffffffffffffffffffffffffffffffffff167f95d89b41000000000000000000000000000000000000000000000000000000001790529051606091600091829173ffffffffffffffffffffffffffffffffffffffff8616916200281c919062004165565b600060405180830381855afa9150503d806000811462002859576040519150601f19603f3d011682016040523d82523d6000602084013e6200285e565b606091505b50915091508162002785576040518060400160405280600981526020017f4e4f5f53594d424f4c000000000000000000000000000000000000000000000081525062002790565b60408051600481526024810182526020810180517bffffffffffffffffffffffffffffffffffffffffffffffffffffffff167f313ce5670000000000000000000000000000000000000000000000000000000017905290516000918291829173ffffffffffffffffffffffffffffffffffffffff86169162002928919062004165565b600060405180830381855afa9150503d806000811462002965576040519150601f19603f3d011682016040523d82523d6000602084013e6200296a565b606091505b50915091508180156200297e575080516020145b6200298b57601262002790565b8080602001905181019062002790919062004193565b600160d555565b609780547fffffffffffffffffffffffff000000000000000000000000000000000000000016905562001642816200363b565b620029e5620024b6565b603380547fffffffffffffffffffffffffffffffffffffffffffffffffffffffffffffff001660011790557f62e78cea01bee320cd4e420270b5ea74000d11b0c9f74754ebdbfc544b05a2586200248c3390565b73ffffffffffffffffffffffffffffffffffffffff811662002a87576040517f8579befe00000000000000000000000000000000000000000000000000000000815260040160405180910390fd5b60ca80547fffffffffffffffffffffffff00000000000000000000000000000000000000001673ffffffffffffffffffffffffffffffffffffffff92909216919091179055565b600054610100900460ff1662002b67576040517f08c379a000000000000000000000000000000000000000000000000000000000815260206004820152602b60248201527f496e697469616c697a61626c653a20636f6e7472616374206973206e6f74206960448201527f6e697469616c697a696e67000000000000000000000000000000000000000000606482015260840162000731565b62000bb3620036b2565b600054610100900460ff1662002c0a576040517f08c379a000000000000000000000000000000000000000000000000000000000815260206004820152602b60248201527f496e697469616c697a61626c653a20636f6e7472616374206973206e6f74206960448201527f6e697469616c697a696e67000000000000000000000000000000000000000000606482015260840162000731565b62000bb362003775565b600054610100900460ff1662002cad576040517f08c379a000000000000000000000000000000000000000000000000000000000815260206004820152602b60248201527f496e697469616c697a61626c653a20636f6e7472616374206973206e6f74206960448201527f6e697469616c697a696e67000000000000000000000000000000000000000000606482015260840162000731565b73ffffffffffffffffffffffffffffffffffffffff811662002cfb576040517f8579befe00000000000000000000000000000000000000000000000000000000815260040160405180910390fd5b60c980547fffffffffffffffffffffffff00000000000000000000000000000000000000001673ffffffffffffffffffffffffffffffffffffffff92909216919091179055565b600054610100900460ff1662002ddb576040517f08c379a000000000000000000000000000000000000000000000000000000000815260206004820152602b60248201527f496e697469616c697a61626c653a20636f6e7472616374206973206e6f74206960448201527f6e697469616c697a696e67000000000000000000000000000000000000000000606482015260840162000731565b62000bb362003819565b7fd505accf0000000000000000000000000000000000000000000000000000000062002e16600460008486620041b3565b62002e2191620041df565b7fffffffff00000000000000000000000000000000000000000000000000000000161462002ee25762002e59600460008385620041b3565b62002e6491620041df565b6040517fcf9e29460000000000000000000000000000000000000000000000000000000081527fffffffff0000000000000000000000000000000000000000000000000000000090911660048201527fd505accf00000000000000000000000000000000000000000000000000000000602482015260440162000731565b600080808080808062002ef9886004818c620041b3565b81019062002f08919062004228565b96509650965096509650965096503373ffffffffffffffffffffffffffffffffffffffff168773ffffffffffffffffffffffffffffffffffffffff161462002f95576040517f200688cc00000000000000000000000000000000000000000000000000000000815273ffffffffffffffffffffffffffffffffffffffff8816600482015260240162000731565b73ffffffffffffffffffffffffffffffffffffffff8616301462002ffe576040517f2911594800000000000000000000000000000000000000000000000000000000815273ffffffffffffffffffffffffffffffffffffffff8716600482015260240162000731565b6040517fd505accf000000000000000000000000000000000000000000000000000000008152336004820152306024820152604481018690526064810185905260ff8416608482015260a4810183905260c4810182905273ffffffffffffffffffffffffffffffffffffffff8b169063d505accf9060e401600060405180830381600087803b1580156200309157600080fd5b505af1158015620030a6573d6000803e3d6000fd5b5050505050505050505050505050565b60405173ffffffffffffffffffffffffffffffffffffffff83166024820152604481018290526200310e9084907fa9059cbb0000000000000000000000000000000000000000000000000000000090606401620025f5565b505050565b60008082866040516020016200314992919091825273ffffffffffffffffffffffffffffffffffffffff16602082015260400190565b604080517fffffffffffffffffffffffffffffffffffffffffffffffffffffffffffffffe081840301815290829052805160209091012061010754909250600091839173ffffffffffffffffffffffffffffffffffffffff1690620031ae9062003a33565b73ffffffffffffffffffffffffffffffffffffffff90911681526040602082018190526000908201526060018190604051809103906000f5905080158015620031fb573d6000803e3d6000fd5b509050806000808062003211898b018b62004345565b9250925092508373ffffffffffffffffffffffffffffffffffffffff16631624f6c68484846040518463ffffffff1660e01b81526004016200325693929190620040e1565b600060405180830381600087803b1580156200327157600080fd5b505af115801562003286573d6000803e3d6000fd5b505060405173ffffffffffffffffffffffffffffffffffffffff808f169350871691507fd5d4920bb61e6141c8499d50a7bd617dae2b1818c9d6b995d3f2ba4975e32ea490600090a350919998505050505050505050565b60335460ff1662000bb3576040517f08c379a000000000000000000000000000000000000000000000000000000000815260206004820152601460248201527f5061757361626c653a206e6f7420706175736564000000000000000000000000604482015260640162000731565b6000620033b0826040518060400160405280602081526020017f5361666545524332303a206c6f772d6c6576656c2063616c6c206661696c65648152508573ffffffffffffffffffffffffffffffffffffffff16620038b29092919063ffffffff16565b9050805160001480620033d4575080806020019051810190620033d49190620043bb565b6200310e576040517f08c379a000000000000000000000000000000000000000000000000000000000815260206004820152602a60248201527f5361666545524332303a204552433230206f7065726174696f6e20646964206e60448201527f6f74207375636365656400000000000000000000000000000000000000000000606482015260840162000731565b606060408251106200348a5781806020019051810190620034849190620043df565b92915050565b8151602014620034cd57505060408051808201909152601281527f4e4f545f56414c49445f454e434f44494e470000000000000000000000000000602082015290565b60005b6020811080156200351b5750828181518110620034f157620034f162003f0a565b01602001517fff000000000000000000000000000000000000000000000000000000000000001615155b156200352a57600101620034d0565b806000036200356e57505060408051808201909152601281527f4e4f545f56414c49445f454e434f44494e4700000000000000000000000000006020820152919050565b60008167ffffffffffffffff8111156200358c576200358c62003b5f565b6040519080825280601f01601f191660200182016040528015620035b7576020820181803683370190505b50905060005b828110156200363357848181518110620035db57620035db62003f0a565b602001015160f81c60f81b828281518110620035fb57620035fb62003f0a565b60200101907effffffffffffffffffffffffffffffffffffffffffffffffffffffffffffff1916908160001a905350600101620035bd565b509392505050565b6065805473ffffffffffffffffffffffffffffffffffffffff8381167fffffffffffffffffffffffff0000000000000000000000000000000000000000831681179093556040519116919082907f8be0079c531659141344cd1fd0a4f28419497f9722a3daafe3b4186f6b6457e090600090a35050565b600054610100900460ff166200374b576040517f08c379a000000000000000000000000000000000000000000000000000000000815260206004820152602b60248201527f496e697469616c697a61626c653a20636f6e7472616374206973206e6f74206960448201527f6e697469616c697a696e67000000000000000000000000000000000000000000606482015260840162000731565b603380547fffffffffffffffffffffffffffffffffffffffffffffffffffffffffffffff00169055565b600054610100900460ff166200380e576040517f08c379a000000000000000000000000000000000000000000000000000000000815260206004820152602b60248201527f496e697469616c697a61626c653a20636f6e7472616374206973206e6f74206960448201527f6e697469616c697a696e67000000000000000000000000000000000000000000606482015260840162000731565b62000bb333620029a8565b600054610100900460ff16620029a1576040517f08c379a000000000000000000000000000000000000000000000000000000000815260206004820152602b60248201527f496e697469616c697a61626c653a20636f6e7472616374206973206e6f74206960448201527f6e697469616c697a696e67000000000000000000000000000000000000000000606482015260840162000731565b6060620027908484600085856000808673ffffffffffffffffffffffffffffffffffffffff168587604051620038e9919062004165565b60006040518083038185875af1925050503d806000811462003928576040519150601f19603f3d011682016040523d82523d6000602084013e6200392d565b606091505b509150915062003940878383876200394b565b979650505050505050565b60608315620039e6578251600003620039de5773ffffffffffffffffffffffffffffffffffffffff85163b620039de576040517f08c379a000000000000000000000000000000000000000000000000000000000815260206004820152601d60248201527f416464726573733a2063616c6c20746f206e6f6e2d636f6e7472616374000000604482015260640162000731565b508162002790565b620027908383815115620039fd5781518083602001fd5b806040517f08c379a000000000000000000000000000000000000000000000000000000000815260040162000731919062004456565b6106f3806200446c83390190565b73ffffffffffffffffffffffffffffffffffffffff811681146200164257600080fd5b6000806040838503121562003a7857600080fd5b82359150602083013562003a8c8162003a41565b809150509250929050565b6000806040838503121562003aab57600080fd5b823562003ab88162003a41565b9150602083013562003a8c8162003a41565b60008083601f84011262003add57600080fd5b50813567ffffffffffffffff81111562003af657600080fd5b6020830191508360208260051b850101111562003b1257600080fd5b9250929050565b6000806020838503121562003b2d57600080fd5b823567ffffffffffffffff81111562003b4557600080fd5b62003b538582860162003aca565b90969095509350505050565b7f4e487b7100000000000000000000000000000000000000000000000000000000600052604160045260246000fd5b604051601f82017fffffffffffffffffffffffffffffffffffffffffffffffffffffffffffffffe016810167ffffffffffffffff8111828210171562003bd85762003bd862003b5f565b604052919050565b6000602080838503121562003bf457600080fd5b823567ffffffffffffffff8082111562003c0d57600080fd5b818501915085601f83011262003c2257600080fd5b81358181111562003c375762003c3762003b5f565b8060051b915062003c4a84830162003b8e565b818152918301840191848101908884111562003c6557600080fd5b938501935b8385101562003c93578435925062003c828362003a41565b828252938501939085019062003c6a565b98975050505050505050565b60008060006060848603121562003cb557600080fd5b833562003cc28162003a41565b925060208401359150604084013562003cdb8162003a41565b809150509250925092565b60006020828403121562003cf957600080fd5b813562003d068162003a41565b9392505050565b600080600080600080600060c0888a03121562003d2957600080fd5b873562003d368162003a41565b9650602088013562003d488162003a41565b9550604088013562003d5a8162003a41565b9450606088013593506080880135925060a088013567ffffffffffffffff81111562003d8557600080fd5b62003d938a828b0162003aca565b989b979a50959850939692959293505050565b60008083601f84011262003db957600080fd5b50813567ffffffffffffffff81111562003dd257600080fd5b60208301915083602082850101111562003b1257600080fd5b60008060008060006080868803121562003e0457600080fd5b853562003e118162003a41565b945060208601359350604086013562003e2a8162003a41565b9250606086013567ffffffffffffffff81111562003e4757600080fd5b62003e558882890162003da6565b969995985093965092949392505050565b60008060008060008060a0878903121562003e8057600080fd5b863562003e8d8162003a41565b955060208701359450604087013562003ea68162003a41565b935060608701359250608087013567ffffffffffffffff81111562003eca57600080fd5b62003ed889828a0162003da6565b979a9699509497509295939492505050565b60006020828403121562003efd57600080fd5b815162003d068162003a41565b7f4e487b7100000000000000000000000000000000000000000000000000000000600052603260045260246000fd5b7f4e487b7100000000000000000000000000000000000000000000000000000000600052601160045260246000fd5b60007fffffffffffffffffffffffffffffffffffffffffffffffffffffffffffffffff820362003f9c5762003f9c62003f39565b5060010190565b6020808252825182820181905260009190848201906040850190845b8181101562003ff357835173ffffffffffffffffffffffffffffffffffffffff168352928401929184019160010162003fbf565b50909695505050505050565b60005b838110156200401c57818101518382015260200162004002565b50506000910152565b600081518084526200403f81602086016020860162003fff565b601f017fffffffffffffffffffffffffffffffffffffffffffffffffffffffffffffffe0169290920160200192915050565b73ffffffffffffffffffffffffffffffffffffffff84168152826020820152606060408201526000620040a8606083018462004025565b95945050505050565b600060208284031215620040c457600080fd5b5051919050565b8181038181111562003484576200348462003f39565b606081526000620040f6606083018662004025565b82810360208401526200410a818662004025565b91505060ff83166040830152949350505050565b600073ffffffffffffffffffffffffffffffffffffffff808816835286602084015280861660408401525083606083015260a060808301526200394060a083018462004025565b600082516200417981846020870162003fff565b9190910192915050565b60ff811681146200164257600080fd5b600060208284031215620041a657600080fd5b815162003d068162004183565b60008085851115620041c457600080fd5b83861115620041d257600080fd5b5050820193919092039150565b7fffffffff000000000000000000000000000000000000000000000000000000008135818116916004851015620042205780818660040360031b1b83161692505b505092915050565b600080600080600080600060e0888a0312156200424457600080fd5b8735620042518162003a41565b96506020880135620042638162003a41565b955060408801359450606088013593506080880135620042838162004183565b9699959850939692959460a0840135945060c09093013592915050565b600067ffffffffffffffff821115620042bd57620042bd62003b5f565b50601f017fffffffffffffffffffffffffffffffffffffffffffffffffffffffffffffffe01660200190565b600082601f830112620042fb57600080fd5b8135620043126200430c82620042a0565b62003b8e565b8181528460208386010111156200432857600080fd5b816020850160208301376000918101602001919091529392505050565b6000806000606084860312156200435b57600080fd5b833567ffffffffffffffff808211156200437457600080fd5b6200438287838801620042e9565b945060208601359150808211156200439957600080fd5b50620043a886828701620042e9565b925050604084013562003cdb8162004183565b600060208284031215620043ce57600080fd5b8151801515811462003d0657600080fd5b600060208284031215620043f257600080fd5b815167ffffffffffffffff8111156200440a57600080fd5b8201601f810184136200441c57600080fd5b80516200442d6200430c82620042a0565b8181528560208385010111156200444357600080fd5b620040a882602083016020860162003fff565b60208152600062003d0660208301846200402556fe60806040526040516106f33803806106f383398101604081905261002291610420565b61002e82826000610035565b505061054a565b61003e836100f6565b6040516001600160a01b038416907f1cf3b03a6cf19fa2baba4df148e9dcabedea7f8a5c07840e207e5c089be95d3e90600090a260008251118061007f5750805b156100f1576100ef836001600160a01b0316635c60da1b6040518163ffffffff1660e01b8152600401602060405180830381865afa1580156100c5573d6000803e3d6000fd5b505050506040513d601f19601f820116820180604052508101906100e991906104e0565b8361027a565b505b505050565b6001600160a01b0381163b6101605760405162461bcd60e51b815260206004820152602560248201527f455243313936373a206e657720626561636f6e206973206e6f74206120636f6e6044820152641d1c9858dd60da1b60648201526084015b60405180910390fd5b6101d4816001600160a01b0316635c60da1b6040518163ffffffff1660e01b8152600401602060405180830381865afa1580156101a1573d6000803e3d6000fd5b505050506040513d601f19601f820116820180604052508101906101c591906104e0565b6001600160a01b03163b151590565b6102395760405162461bcd60e51b815260206004820152603060248201527f455243313936373a20626561636f6e20696d706c656d656e746174696f6e206960448201526f1cc81b9bdd08184818dbdb9d1c9858dd60821b6064820152608401610157565b7fa3f0ad74e5423aebfd80d3ef4346578335a9a72aeaee59ff6cb3582b35133d5080546001600160a01b0319166001600160a01b0392909216919091179055565b606061029f83836040518060600160405280602781526020016106cc602791396102a6565b9392505050565b6060600080856001600160a01b0316856040516102c391906104fb565b600060405180830381855af49150503d80600081146102fe576040519150601f19603f3d011682016040523d82523d6000602084013e610303565b606091505b5090925090506103158683838761031f565b9695505050505050565b6060831561038e578251600003610387576001600160a01b0385163b6103875760405162461bcd60e51b815260206004820152601d60248201527f416464726573733a2063616c6c20746f206e6f6e2d636f6e74726163740000006044820152606401610157565b5081610398565b61039883836103a0565b949350505050565b8151156103b05781518083602001fd5b8060405162461bcd60e51b81526004016101579190610517565b80516001600160a01b03811681146103e157600080fd5b919050565b634e487b7160e01b600052604160045260246000fd5b60005b838110156104175781810151838201526020016103ff565b50506000910152565b6000806040838503121561043357600080fd5b61043c836103ca565b60208401519092506001600160401b038082111561045957600080fd5b818501915085601f83011261046d57600080fd5b81518181111561047f5761047f6103e6565b604051601f8201601f19908116603f011681019083821181831017156104a7576104a76103e6565b816040528281528860208487010111156104c057600080fd5b6104d18360208301602088016103fc565b80955050505050509250929050565b6000602082840312156104f257600080fd5b61029f826103ca565b6000825161050d8184602087016103fc565b9190910192915050565b60208152600082518060208401526105368160408501602087016103fc565b601f01601f19169190910160400192915050565b610173806105596000396000f3fe60806040523661001357610011610017565b005b6100115b610027610022610029565b6100dc565b565b60006100697fa3f0ad74e5423aebfd80d3ef4346578335a9a72aeaee59ff6cb3582b35133d505473ffffffffffffffffffffffffffffffffffffffff1690565b73ffffffffffffffffffffffffffffffffffffffff16635c60da1b6040518163ffffffff1660e01b8152600401602060405180830381865afa1580156100b3573d6000803e3d6000fd5b505050506040513d601f19601f820116820180604052508101906100d79190610100565b905090565b3660008037600080366000845af43d6000803e8080156100fb573d6000f35b3d6000fd5b60006020828403121561011257600080fd5b815173ffffffffffffffffffffffffffffffffffffffff8116811461013657600080fd5b939250505056fea26469706673582212208f09a843dea4ba2d675ef8526d536bd96a0b75b7d424c3ee02c3394d8c4cb4df64736f6c63430008130033416464726573733a206c6f772d6c6576656c2064656c65676174652063616c6c206661696c6564a2646970667358221220eed90cb33266c3ef5bcb1ab4424859155be908cfe919f8d9c276105e081f32ee64736f6c63430008130033",
  "linkReferences": {},
  "deployedLinkReferences": {}
}