{
  "_format": "hh-sol-artifact-1",
  "contractName": "TokenBridge",
  "sourceName": "contracts/tokenBridge/TokenBridge.sol",
  "abi": [
    {
      "inputs": [],
      "stateMutability": "nonpayable",
      "type": "constructor"
    },
    {
      "inputs": [
        {
          "internalType": "address",
          "name": "token",
          "type": "address"
        }
      ],
      "name": "AlreadyBridgedToken",
      "type": "error"
    },
    {
      "inputs": [
        {
          "internalType": "address",
          "name": "token",
          "type": "address"
        }
      ],
      "name": "AlreadyBrigedToNativeTokenSet",
      "type": "error"
    },
    {
      "inputs": [],
      "name": "CallerIsNotMessageService",
      "type": "error"
    },
    {
      "inputs": [
        {
          "internalType": "bytes4",
          "name": "permitData",
          "type": "bytes4"
        },
        {
          "internalType": "bytes4",
          "name": "permitSelector",
          "type": "bytes4"
        }
      ],
      "name": "InvalidPermitData",
      "type": "error"
    },
    {
      "inputs": [
        {
          "internalType": "address",
          "name": "token",
          "type": "address"
        }
      ],
      "name": "NotReserved",
      "type": "error"
    },
    {
      "inputs": [
        {
          "internalType": "address",
          "name": "spender",
          "type": "address"
        }
      ],
      "name": "PermitNotAllowingBridge",
      "type": "error"
    },
    {
      "inputs": [
        {
          "internalType": "address",
          "name": "owner",
          "type": "address"
        }
      ],
      "name": "PermitNotFromSender",
      "type": "error"
    },
    {
      "inputs": [
        {
          "internalType": "address",
          "name": "remoteTokenBridge",
          "type": "address"
        }
      ],
      "name": "RemoteTokenBridgeAlreadySet",
      "type": "error"
    },
    {
      "inputs": [
        {
          "internalType": "address",
          "name": "token",
          "type": "address"
        }
      ],
      "name": "ReservedToken",
      "type": "error"
    },
    {
      "inputs": [],
      "name": "SenderNotAuthorized",
      "type": "error"
    },
    {
      "inputs": [
        {
          "internalType": "address",
          "name": "token",
          "type": "address"
        }
      ],
      "name": "StatusAddressNotAllowed",
      "type": "error"
    },
    {
      "inputs": [
        {
          "internalType": "address",
          "name": "token",
          "type": "address"
        }
      ],
      "name": "TokenNativeOnOtherLayer",
      "type": "error"
    },
    {
      "inputs": [
        {
          "internalType": "address",
          "name": "token",
          "type": "address"
        }
      ],
      "name": "TokenNotDeployed",
      "type": "error"
    },
    {
      "inputs": [],
      "name": "ZeroAddressNotAllowed",
      "type": "error"
    },
    {
      "inputs": [
        {
          "internalType": "uint256",
          "name": "amount",
          "type": "uint256"
        }
      ],
      "name": "ZeroAmountNotAllowed",
      "type": "error"
    },
    {
      "anonymous": false,
      "inputs": [
        {
          "indexed": true,
          "internalType": "address",
          "name": "nativeToken",
          "type": "address"
        },
        {
          "indexed": true,
          "internalType": "address",
          "name": "bridgedToken",
          "type": "address"
        },
        {
          "indexed": true,
          "internalType": "uint256",
          "name": "amount",
          "type": "uint256"
        },
        {
          "indexed": false,
          "internalType": "address",
          "name": "recipient",
          "type": "address"
        }
      ],
      "name": "BridgingFinalized",
      "type": "event"
    },
    {
      "anonymous": false,
      "inputs": [
        {
          "indexed": true,
          "internalType": "address",
          "name": "sender",
          "type": "address"
        },
        {
          "indexed": false,
          "internalType": "address",
          "name": "recipient",
          "type": "address"
        },
        {
          "indexed": true,
          "internalType": "address",
          "name": "token",
          "type": "address"
        },
        {
          "indexed": true,
          "internalType": "uint256",
          "name": "amount",
          "type": "uint256"
        }
      ],
      "name": "BridgingInitiated",
      "type": "event"
    },
    {
      "anonymous": false,
      "inputs": [
        {
          "indexed": true,
          "internalType": "address",
          "name": "nativeToken",
          "type": "address"
        },
        {
          "indexed": true,
          "internalType": "address",
          "name": "customContract",
          "type": "address"
        },
        {
          "indexed": true,
          "internalType": "address",
          "name": "setBy",
          "type": "address"
        }
      ],
      "name": "CustomContractSet",
      "type": "event"
    },
    {
      "anonymous": false,
      "inputs": [
        {
          "indexed": false,
          "internalType": "address[]",
          "name": "tokens",
          "type": "address[]"
        },
        {
          "indexed": true,
          "internalType": "address",
          "name": "confirmedBy",
          "type": "address"
        }
      ],
      "name": "DeploymentConfirmed",
      "type": "event"
    },
    {
      "anonymous": false,
      "inputs": [
        {
          "indexed": false,
          "internalType": "uint8",
          "name": "version",
          "type": "uint8"
        }
      ],
      "name": "Initialized",
      "type": "event"
    },
    {
      "anonymous": false,
      "inputs": [
        {
          "indexed": true,
          "internalType": "address",
          "name": "newMessageService",
          "type": "address"
        },
        {
          "indexed": true,
          "internalType": "address",
          "name": "oldMessageService",
          "type": "address"
        },
        {
          "indexed": true,
          "internalType": "address",
          "name": "setBy",
          "type": "address"
        }
      ],
      "name": "MessageServiceUpdated",
      "type": "event"
    },
    {
      "anonymous": false,
      "inputs": [
        {
          "indexed": true,
          "internalType": "address",
          "name": "token",
          "type": "address"
        }
      ],
      "name": "NewToken",
      "type": "event"
    },
    {
      "anonymous": false,
      "inputs": [
        {
          "indexed": true,
          "internalType": "address",
          "name": "bridgedToken",
          "type": "address"
        },
        {
          "indexed": true,
          "internalType": "address",
          "name": "nativeToken",
          "type": "address"
        }
      ],
      "name": "NewTokenDeployed",
      "type": "event"
    },
    {
      "anonymous": false,
      "inputs": [
        {
          "indexed": true,
          "internalType": "address",
          "name": "previousOwner",
          "type": "address"
        },
        {
          "indexed": true,
          "internalType": "address",
          "name": "newOwner",
          "type": "address"
        }
      ],
      "name": "OwnershipTransferStarted",
      "type": "event"
    },
    {
      "anonymous": false,
      "inputs": [
        {
          "indexed": true,
          "internalType": "address",
          "name": "previousOwner",
          "type": "address"
        },
        {
          "indexed": true,
          "internalType": "address",
          "name": "newOwner",
          "type": "address"
        }
      ],
      "name": "OwnershipTransferred",
      "type": "event"
    },
    {
      "anonymous": false,
      "inputs": [
        {
          "indexed": false,
          "internalType": "address",
          "name": "account",
          "type": "address"
        }
      ],
      "name": "Paused",
      "type": "event"
    },
    {
      "anonymous": false,
      "inputs": [
        {
          "indexed": true,
          "internalType": "address",
          "name": "remoteTokenBridge",
          "type": "address"
        },
        {
          "indexed": true,
          "internalType": "address",
          "name": "setBy",
          "type": "address"
        }
      ],
      "name": "RemoteTokenBridgeSet",
      "type": "event"
    },
    {
      "anonymous": false,
      "inputs": [
        {
          "indexed": true,
          "internalType": "address",
          "name": "token",
          "type": "address"
        }
      ],
      "name": "TokenDeployed",
      "type": "event"
    },
    {
      "anonymous": false,
      "inputs": [
        {
          "indexed": true,
          "internalType": "address",
          "name": "token",
          "type": "address"
        }
      ],
      "name": "TokenReserved",
      "type": "event"
    },
    {
      "anonymous": false,
      "inputs": [
        {
          "indexed": false,
          "internalType": "address",
          "name": "account",
          "type": "address"
        }
      ],
      "name": "Unpaused",
      "type": "event"
    },
    {
      "inputs": [],
      "name": "acceptOwnership",
      "outputs": [],
      "stateMutability": "nonpayable",
      "type": "function"
    },
    {
      "inputs": [
        {
          "internalType": "address",
          "name": "_token",
          "type": "address"
        },
        {
          "internalType": "uint256",
          "name": "_amount",
          "type": "uint256"
        },
        {
          "internalType": "address",
          "name": "_recipient",
          "type": "address"
        }
      ],
      "name": "bridgeToken",
      "outputs": [],
      "stateMutability": "payable",
      "type": "function"
    },
    {
      "inputs": [
        {
          "internalType": "address",
          "name": "_token",
          "type": "address"
        },
        {
          "internalType": "uint256",
          "name": "_amount",
          "type": "uint256"
        },
        {
          "internalType": "address",
          "name": "_recipient",
          "type": "address"
        },
        {
          "internalType": "bytes",
          "name": "_permitData",
          "type": "bytes"
        }
      ],
      "name": "bridgeTokenWithPermit",
      "outputs": [],
      "stateMutability": "payable",
      "type": "function"
    },
    {
      "inputs": [
        {
          "internalType": "address",
          "name": "",
          "type": "address"
        }
      ],
      "name": "bridgedToNativeToken",
      "outputs": [
        {
          "internalType": "address",
          "name": "",
          "type": "address"
        }
      ],
      "stateMutability": "view",
      "type": "function"
    },
    {
      "inputs": [
        {
          "internalType": "address",
          "name": "_nativeToken",
          "type": "address"
        },
        {
          "internalType": "uint256",
          "name": "_amount",
          "type": "uint256"
        },
        {
          "internalType": "address",
          "name": "_recipient",
          "type": "address"
        },
        {
          "internalType": "uint256",
          "name": "_chainId",
          "type": "uint256"
        },
        {
          "internalType": "bytes",
          "name": "_tokenMetadata",
          "type": "bytes"
        }
      ],
      "name": "completeBridging",
      "outputs": [],
      "stateMutability": "nonpayable",
      "type": "function"
    },
    {
      "inputs": [
        {
          "internalType": "address[]",
          "name": "_tokens",
          "type": "address[]"
        }
      ],
      "name": "confirmDeployment",
      "outputs": [],
      "stateMutability": "payable",
      "type": "function"
    },
    {
      "inputs": [
        {
          "internalType": "address",
          "name": "_securityCouncil",
          "type": "address"
        },
        {
          "internalType": "address",
          "name": "_messageService",
          "type": "address"
        },
        {
          "internalType": "address",
          "name": "_tokenBeacon",
          "type": "address"
        },
        {
          "internalType": "uint256",
          "name": "_sourceChainId",
          "type": "uint256"
        },
        {
          "internalType": "uint256",
          "name": "_targetChainId",
          "type": "uint256"
        },
        {
          "internalType": "address[]",
          "name": "_reservedTokens",
          "type": "address[]"
        }
      ],
      "name": "initialize",
      "outputs": [],
      "stateMutability": "nonpayable",
      "type": "function"
    },
    {
      "inputs": [],
      "name": "messageService",
      "outputs": [
        {
          "internalType": "contract IMessageService",
          "name": "",
          "type": "address"
        }
      ],
      "stateMutability": "view",
      "type": "function"
    },
    {
      "inputs": [
        {
          "internalType": "uint256",
          "name": "",
          "type": "uint256"
        },
        {
          "internalType": "address",
          "name": "",
          "type": "address"
        }
      ],
      "name": "nativeToBridgedToken",
      "outputs": [
        {
          "internalType": "address",
          "name": "",
          "type": "address"
        }
      ],
      "stateMutability": "view",
      "type": "function"
    },
    {
      "inputs": [],
      "name": "owner",
      "outputs": [
        {
          "internalType": "address",
          "name": "",
          "type": "address"
        }
      ],
      "stateMutability": "view",
      "type": "function"
    },
    {
      "inputs": [],
      "name": "pause",
      "outputs": [],
      "stateMutability": "nonpayable",
      "type": "function"
    },
    {
      "inputs": [],
      "name": "paused",
      "outputs": [
        {
          "internalType": "bool",
          "name": "",
          "type": "bool"
        }
      ],
      "stateMutability": "view",
      "type": "function"
    },
    {
      "inputs": [],
      "name": "pendingOwner",
      "outputs": [
        {
          "internalType": "address",
          "name": "",
          "type": "address"
        }
      ],
      "stateMutability": "view",
      "type": "function"
    },
    {
      "inputs": [],
      "name": "remoteSender",
      "outputs": [
        {
          "internalType": "address",
          "name": "",
          "type": "address"
        }
      ],
      "stateMutability": "view",
      "type": "function"
    },
    {
      "inputs": [
        {
          "internalType": "address",
          "name": "_token",
          "type": "address"
        }
      ],
      "name": "removeReserved",
      "outputs": [],
      "stateMutability": "nonpayable",
      "type": "function"
    },
    {
      "inputs": [],
      "name": "renounceOwnership",
      "outputs": [],
      "stateMutability": "nonpayable",
      "type": "function"
    },
    {
      "inputs": [
        {
          "internalType": "address",
          "name": "_nativeToken",
          "type": "address"
        },
        {
          "internalType": "address",
          "name": "_targetContract",
          "type": "address"
        }
      ],
      "name": "setCustomContract",
      "outputs": [],
      "stateMutability": "nonpayable",
      "type": "function"
    },
    {
      "inputs": [
        {
          "internalType": "address[]",
          "name": "_nativeTokens",
          "type": "address[]"
        }
      ],
      "name": "setDeployed",
      "outputs": [],
      "stateMutability": "nonpayable",
      "type": "function"
    },
    {
      "inputs": [
        {
          "internalType": "address",
          "name": "_messageService",
          "type": "address"
        }
      ],
      "name": "setMessageService",
      "outputs": [],
      "stateMutability": "nonpayable",
      "type": "function"
    },
    {
      "inputs": [
        {
          "internalType": "address",
          "name": "_remoteTokenBridge",
          "type": "address"
        }
      ],
      "name": "setRemoteTokenBridge",
      "outputs": [],
      "stateMutability": "nonpayable",
      "type": "function"
    },
    {
      "inputs": [
        {
          "internalType": "address",
          "name": "_token",
          "type": "address"
        }
      ],
      "name": "setReserved",
      "outputs": [],
      "stateMutability": "nonpayable",
      "type": "function"
    },
    {
      "inputs": [],
      "name": "sourceChainId",
      "outputs": [
        {
          "internalType": "uint256",
          "name": "",
          "type": "uint256"
        }
      ],
      "stateMutability": "view",
      "type": "function"
    },
    {
      "inputs": [],
      "name": "targetChainId",
      "outputs": [
        {
          "internalType": "uint256",
          "name": "",
          "type": "uint256"
        }
      ],
      "stateMutability": "view",
      "type": "function"
    },
    {
      "inputs": [],
      "name": "tokenBeacon",
      "outputs": [
        {
          "internalType": "address",
          "name": "",
          "type": "address"
        }
      ],
      "stateMutability": "view",
      "type": "function"
    },
    {
      "inputs": [
        {
          "internalType": "address",
          "name": "newOwner",
          "type": "address"
        }
      ],
      "name": "transferOwnership",
      "outputs": [],
      "stateMutability": "nonpayable",
      "type": "function"
    },
    {
      "inputs": [],
      "name": "unpause",
      "outputs": [],
      "stateMutability": "nonpayable",
      "type": "function"
    }
  ],
  "bytecode": "0x60806040523480156200001157600080fd5b506200001c62000022565b620000e3565b600054610100900460ff16156200008f5760405162461bcd60e51b815260206004820152602760248201527f496e697469616c697a61626c653a20636f6e747261637420697320696e697469604482015266616c697a696e6760c81b606482015260840160405180910390fd5b60005460ff90811614620000e1576000805460ff191660ff9081179091556040519081527f7f26b83ff96e1f2b6a682f133852f6798a09c465da95921460cefb38474024989060200160405180910390a15b565b614b3b80620000f36000396000f3fe608060405260043610620001c35760003560e01c80638dae45dd11620000f3578063ccf5a77c1162000095578063e30c3978116200006c578063e30c39781462000533578063e4d274511462000560578063edc42a221462000585578063f2fde38b14620005aa57600080fd5b8063ccf5a77c14620004c7578063cdd914c514620004f7578063dfa96efb146200051c57600080fd5b8063b0994f0811620000ca578063b0994f081462000435578063be46096f146200045a578063ca41a247146200047f57600080fd5b80638dae45dd14620003b2578063a676e8ab14620003e1578063a6ef995f146200040657600080fd5b80634bf98dce1162000169578063715018a61162000140578063715018a6146200033d57806379ba509714620003555780638456cb59146200036d5780638da5cb5b146200038557600080fd5b80634bf98dce14620002ea578063522ea81a14620003015780635c975abb146200031857600080fd5b80631754f301116200019e5780631754f30114620002865780632a564f3414620002ad5780633f4ba83a14620002d257600080fd5b80630f6f86ec14620001c8578063146ffb2614620002455780631544298e146200026d575b600080fd5b348015620001d557600080fd5b506200021b620001e736600462003a29565b61010860209081526000928352604080842090915290825290205473ffffffffffffffffffffffffffffffffffffffff1681565b60405173ffffffffffffffffffffffffffffffffffffffff90911681526020015b60405180910390f35b3480156200025257600080fd5b506200025e61010b5481565b6040519081526020016200023c565b3480156200027a57600080fd5b506200025e61010a5481565b3480156200029357600080fd5b50620002ab620002a536600462003a5c565b620005cf565b005b348015620002ba57600080fd5b50620002ab620002cc36600462003b10565b6200090e565b348015620002df57600080fd5b50620002ab62000b97565b620002ab620002fb36600462003b10565b62000bad565b620002ab6200031236600462003bcf565b62000e49565b3480156200032557600080fd5b5060335460ff1660405190151581526020016200023c565b3480156200034a57600080fd5b50620002ab62001540565b3480156200036257600080fd5b50620002ab62001556565b3480156200037a57600080fd5b50620002ab6200160f565b3480156200039257600080fd5b5060655473ffffffffffffffffffffffffffffffffffffffff166200021b565b348015620003bf57600080fd5b5060c9546200021b9073ffffffffffffffffffffffffffffffffffffffff1681565b348015620003ee57600080fd5b50620002ab6200040036600462003c16565b62001623565b3480156200041357600080fd5b5060ca546200021b9073ffffffffffffffffffffffffffffffffffffffff1681565b3480156200044257600080fd5b50620002ab6200045436600462003c3d565b620016ec565b3480156200046757600080fd5b50620002ab6200047936600462003c16565b62001ab7565b3480156200048c57600080fd5b506200021b6200049e36600462003c16565b6101096020526000908152604090205473ffffffffffffffffffffffffffffffffffffffff1681565b348015620004d457600080fd5b50610107546200021b9073ffffffffffffffffffffffffffffffffffffffff1681565b3480156200050457600080fd5b50620002ab6200051636600462003c16565b62001b8a565b620002ab6200052d36600462003d55565b62001d2c565b3480156200054057600080fd5b5060975473ffffffffffffffffffffffffffffffffffffffff166200021b565b3480156200056d57600080fd5b50620002ab6200057f36600462003dd0565b62001def565b3480156200059257600080fd5b50620002ab620005a436600462003c16565b6200215e565b348015620005b757600080fd5b50620002ab620005c936600462003c16565b6200229f565b8173ffffffffffffffffffffffffffffffffffffffff81166200061e576040517f8579befe00000000000000000000000000000000000000000000000000000000815260040160405180910390fd5b8173ffffffffffffffffffffffffffffffffffffffff81166200066d576040517f8579befe00000000000000000000000000000000000000000000000000000000815260040160405180910390fd5b6200067762002352565b61010a5460009081526101086020908152604080832073ffffffffffffffffffffffffffffffffffffffff8089168552925290912054859116151580620006e5575073ffffffffffffffffffffffffffffffffffffffff818116600090815261010960205260409020541615155b156200073a576040517f12f3df0900000000000000000000000000000000000000000000000000000000815273ffffffffffffffffffffffffffffffffffffffff821660048201526024015b60405180910390fd5b73ffffffffffffffffffffffffffffffffffffffff848116600090815261010960205260409020541615620007b4576040517ff8fb7c2700000000000000000000000000000000000000000000000000000000815273ffffffffffffffffffffffffffffffffffffffff8516600482015260240162000731565b73ffffffffffffffffffffffffffffffffffffffff84166102221480620007f2575073ffffffffffffffffffffffffffffffffffffffff8416610333145b8062000815575073ffffffffffffffffffffffffffffffffffffffff8416610111145b1562000866576040517fd8ce8acb00000000000000000000000000000000000000000000000000000000815273ffffffffffffffffffffffffffffffffffffffff8516600482015260240162000731565b61010b5460009081526101086020908152604080832073ffffffffffffffffffffffffffffffffffffffff808a168086529184528285208054918a167fffffffffffffffffffffffff00000000000000000000000000000000000000009283168117909155808652610109909452828520805490911682179055905133937f844cb5c635052898ad92bea4ece14519111765d835105e76aa1f77ad0d0aa81f91a45050505050565b60c95473ffffffffffffffffffffffffffffffffffffffff16331462000960576040517f8c56efb100000000000000000000000000000000000000000000000000000000815260040160405180910390fd5b60ca5460c954604080517f67e404ce000000000000000000000000000000000000000000000000000000008152905173ffffffffffffffffffffffffffffffffffffffff93841693909216916367e404ce916004808201926020929091908290030181865afa158015620009d8573d6000803e3d6000fd5b505050506040513d601f19601f82011682018060405250810190620009fe919062003e54565b73ffffffffffffffffffffffffffffffffffffffff161462000a4c576040517f79d1e58f00000000000000000000000000000000000000000000000000000000815260040160405180910390fd5b6000805b825181101562000b925782818151811062000a6f5762000a6f62003e74565b60200260200101519150610333610108600061010a548152602001908152602001600020600085848151811062000aaa5762000aaa62003e74565b602002602001015173ffffffffffffffffffffffffffffffffffffffff1673ffffffffffffffffffffffffffffffffffffffff16815260200190815260200160002060006101000a81548173ffffffffffffffffffffffffffffffffffffffff021916908373ffffffffffffffffffffffffffffffffffffffff16021790555082818151811062000b3f5762000b3f62003e74565b602002602001015173ffffffffffffffffffffffffffffffffffffffff167f91d24864a084ab70b268a1f865e757ca12006cf298d763b6be697302ef86498c60405160405180910390a260010162000a50565b505050565b62000ba162002352565b62000bab620023d5565b565b60005b815181101562000cd1576000610109600084848151811062000bd65762000bd662003e74565b60209081029190910181015173ffffffffffffffffffffffffffffffffffffffff908116835290820192909252604001600020541690508062000c805782828151811062000c285762000c2862003e74565b60200260200101516040517fa5ea89da00000000000000000000000000000000000000000000000000000000815260040162000731919073ffffffffffffffffffffffffffffffffffffffff91909116815260200190565b8083838151811062000c965762000c9662003e74565b73ffffffffffffffffffffffffffffffffffffffff90921660209283029190910190910152508062000cc88162003ed2565b91505062000bb0565b5060c95460ca5460405173ffffffffffffffffffffffffffffffffffffffff92831692639f3ce55a923492911690829062000d1190879060240162003f0d565b604080517fffffffffffffffffffffffffffffffffffffffffffffffffffffffffffffffe08184030181529181526020820180517bffffffffffffffffffffffffffffffffffffffffffffffffffffffff167f2a564f3400000000000000000000000000000000000000000000000000000000179052517fffffffff0000000000000000000000000000000000000000000000000000000060e087901b16815262000dc29392919060040162003fdb565b6000604051808303818588803b15801562000ddc57600080fd5b505af115801562000df1573d6000803e3d6000fd5b50505050503373ffffffffffffffffffffffffffffffffffffffff167f59eab5b5f813ac9e0c10035dfb55b5e3419eff53c0f7a869fb3c22400ea036d68260405162000e3e919062003f0d565b60405180910390a250565b8273ffffffffffffffffffffffffffffffffffffffff811662000e98576040517f8579befe00000000000000000000000000000000000000000000000000000000815260040160405180910390fd5b8173ffffffffffffffffffffffffffffffffffffffff811662000ee7576040517f8579befe00000000000000000000000000000000000000000000000000000000815260040160405180910390fd5b838060000362000f27576040517f4618044a0000000000000000000000000000000000000000000000000000000081526004810182905260240162000731565b62000f3162002454565b62000f3b620024c3565b61010a5460009081526101086020908152604080832073ffffffffffffffffffffffffffffffffffffffff808b168552925290912054167ffffffffffffffffffffffffffffffffffffffffffffffffffffffffffffffeef810162000fe5576040517f6dad9c7800000000000000000000000000000000000000000000000000000000815273ffffffffffffffffffffffffffffffffffffffff8816600482015260240162000731565b73ffffffffffffffffffffffffffffffffffffffff80881660009081526101096020526040812054909116908060608315620010b2576040517f9dc29fac000000000000000000000000000000000000000000000000000000008152336004820152602481018b905273ffffffffffffffffffffffffffffffffffffffff8c1690639dc29fac90604401600060405180830381600087803b1580156200108a57600080fd5b505af11580156200109f573d6000803e3d6000fd5b5050505083925061010b54915062001374565b6040517f70a0823100000000000000000000000000000000000000000000000000000000815230600482015260009073ffffffffffffffffffffffffffffffffffffffff8d16906370a0823190602401602060405180830381865afa15801562001120573d6000803e3d6000fd5b505050506040513d601f19601f820116820180604052508101906200114691906200401b565b90506200116c73ffffffffffffffffffffffffffffffffffffffff8d1633308e62002538565b6040517f70a08231000000000000000000000000000000000000000000000000000000008152306004820152819073ffffffffffffffffffffffffffffffffffffffff8e16906370a0823190602401602060405180830381865afa158015620011d9573d6000803e3d6000fd5b505050506040513d601f19601f82011682018060405250810190620011ff91906200401b565b6200120b919062004035565b9a508b935073ffffffffffffffffffffffffffffffffffffffff86166200130557610222610108600061010a54815260200190815260200160002060008e73ffffffffffffffffffffffffffffffffffffffff1673ffffffffffffffffffffffffffffffffffffffff16815260200190815260200160002060006101000a81548173ffffffffffffffffffffffffffffffffffffffff021916908373ffffffffffffffffffffffffffffffffffffffff1602179055508b73ffffffffffffffffffffffffffffffffffffffff167f0f53e2a811b6fd2d6cd965fd6c27b44fb924ca39f7a7f321115705c22366d62360405160405180910390a25b73ffffffffffffffffffffffffffffffffffffffff8616610333146200136c57620013308c6200261c565b6200133b8d6200273c565b620013468e62002849565b6040516020016200135a939291906200404b565b60405160208183030381529060405291505b61010a549250505b60c960009054906101000a900473ffffffffffffffffffffffffffffffffffffffff1673ffffffffffffffffffffffffffffffffffffffff16639f3ce55a3460ca60009054906101000a900473ffffffffffffffffffffffffffffffffffffffff1634878f8f8989604051602401620013f295949392919062004088565b604080517fffffffffffffffffffffffffffffffffffffffffffffffffffffffffffffffe08184030181529181526020820180517bffffffffffffffffffffffffffffffffffffffffffffffffffffffff167fe4d2745100000000000000000000000000000000000000000000000000000000179052517fffffffff0000000000000000000000000000000000000000000000000000000060e087901b168152620014a39392919060040162003fdb565b6000604051808303818588803b158015620014bd57600080fd5b505af1158015620014d2573d6000803e3d6000fd5b505060405173ffffffffffffffffffffffffffffffffffffffff8d811682528e94508f1692503391507fde5fcf0a1aebed387067eb25655de732ccfc43fe5b5a3d91d367c26e773fcd1c9060200160405180910390a4505050505062001538600160d555565b505050505050565b6200154a62002352565b62000bab60006200294c565b609754339073ffffffffffffffffffffffffffffffffffffffff16811462001601576040517f08c379a000000000000000000000000000000000000000000000000000000000815260206004820152602960248201527f4f776e61626c6532537465703a2063616c6c6572206973206e6f74207468652060448201527f6e6577206f776e65720000000000000000000000000000000000000000000000606482015260840162000731565b6200160c816200294c565b50565b6200161962002352565b62000bab6200297f565b6200162d62002352565b60ca5473ffffffffffffffffffffffffffffffffffffffff16156200169b5760ca546040517f94fbfd2e00000000000000000000000000000000000000000000000000000000815273ffffffffffffffffffffffffffffffffffffffff909116600482015260240162000731565b620016a681620029dd565b604051339073ffffffffffffffffffffffffffffffffffffffff8316907fb044c1a1a05a729c402def784b4e4cb01612ff03eee6f0beb3eba0f0606260a190600090a350565b8673ffffffffffffffffffffffffffffffffffffffff81166200173b576040517f8579befe00000000000000000000000000000000000000000000000000000000815260040160405180910390fd5b8673ffffffffffffffffffffffffffffffffffffffff81166200178a576040517f8579befe00000000000000000000000000000000000000000000000000000000815260040160405180910390fd5b8673ffffffffffffffffffffffffffffffffffffffff8116620017d9576040517f8579befe00000000000000000000000000000000000000000000000000000000815260040160405180910390fd5b600054610100900460ff1615808015620017fa5750600054600160ff909116105b80620018165750303b15801562001816575060005460ff166001145b620018a4576040517f08c379a000000000000000000000000000000000000000000000000000000000815260206004820152602e60248201527f496e697469616c697a61626c653a20636f6e747261637420697320616c72656160448201527f647920696e697469616c697a6564000000000000000000000000000000000000606482015260840162000731565b600080547fffffffffffffffffffffffffffffffffffffffffffffffffffffffffffffff0016600117905580156200190357600080547fffffffffffffffffffffffffffffffffffffffffffffffffffffffffffff00ff166101001790555b6200190d62002a72565b6200191762002b15565b620019228a62002bb8565b6200192c62002ce6565b61010780547fffffffffffffffffffffffff00000000000000000000000000000000000000001673ffffffffffffffffffffffffffffffffffffffff8b1617905561010a88905561010b87905560005b8581101562001a3a5760008787838181106200199c576200199c62003e74565b9050602002016020810190620019b3919062003c16565b73ffffffffffffffffffffffffffffffffffffffff160362001a01576040517f8579befe00000000000000000000000000000000000000000000000000000000815260040160405180910390fd5b62001a3187878381811062001a1a5762001a1a62003e74565b905060200201602081019062000516919062003c16565b6001016200197c565b5062001a468b6200294c565b801562001aaa57600080547fffffffffffffffffffffffffffffffffffffffffffffffffffffffffffff00ff169055604051600181527f7f26b83ff96e1f2b6a682f133852f6798a09c465da95921460cefb38474024989060200160405180910390a15b5050505050505050505050565b8073ffffffffffffffffffffffffffffffffffffffff811662001b06576040517f8579befe00000000000000000000000000000000000000000000000000000000815260040160405180910390fd5b62001b1062002352565b60c9805473ffffffffffffffffffffffffffffffffffffffff8481167fffffffffffffffffffffffff00000000000000000000000000000000000000008316811790935560405191169133918391907fc96d462e42a71473da49a1d58c1754b9b2d319786692d621dc7f921331c517e990600090a4505050565b8073ffffffffffffffffffffffffffffffffffffffff811662001bd9576040517f8579befe00000000000000000000000000000000000000000000000000000000815260040160405180910390fd5b62001be362002352565b61010a5460009081526101086020908152604080832073ffffffffffffffffffffffffffffffffffffffff808716855292529091205483911615158062001c51575073ffffffffffffffffffffffffffffffffffffffff818116600090815261010960205260409020541615155b1562001ca2576040517f12f3df0900000000000000000000000000000000000000000000000000000000815273ffffffffffffffffffffffffffffffffffffffff8216600482015260240162000731565b61010a5460009081526101086020908152604080832073ffffffffffffffffffffffffffffffffffffffff8716808552925280832080547fffffffffffffffffffffffff0000000000000000000000000000000000000000166101111790555190917f5e023c7a09fa0534ce3199f65fc3e635a5e851c5adc88ebda3b9d332ae07cbe991a2505050565b8473ffffffffffffffffffffffffffffffffffffffff811662001d7b576040517f8579befe00000000000000000000000000000000000000000000000000000000815260040160405180910390fd5b848060000362001dbb576040517f4618044a0000000000000000000000000000000000000000000000000000000081526004810182905260240162000731565b62001dc562002454565b821562001dd95762001dd987858562002d89565b62001de687878762000e49565b50505050505050565b62001df9620024c3565b60c95473ffffffffffffffffffffffffffffffffffffffff16331462001e4b576040517f8c56efb100000000000000000000000000000000000000000000000000000000815260040160405180910390fd5b60ca5460c954604080517f67e404ce000000000000000000000000000000000000000000000000000000008152905173ffffffffffffffffffffffffffffffffffffffff93841693909216916367e404ce916004808201926020929091908290030181865afa15801562001ec3573d6000803e3d6000fd5b505050506040513d601f19601f8201168201806040525081019062001ee9919062003e54565b73ffffffffffffffffffffffffffffffffffffffff161462001f37576040517f79d1e58f00000000000000000000000000000000000000000000000000000000815260040160405180910390fd5b62001f4162002454565b60008381526101086020908152604080832073ffffffffffffffffffffffffffffffffffffffff808b1685529252822054169061022282148062001f9c575073ffffffffffffffffffffffffffffffffffffffff8216610333145b1562001fcb5762001fc573ffffffffffffffffffffffffffffffffffffffff8916878962003080565b620020fe565b508073ffffffffffffffffffffffffffffffffffffffff8116620020735762001ffa88858561010a54620030d8565b73ffffffffffffffffffffffffffffffffffffffff8082166000818152610109602090815260408083208054958f167fffffffffffffffffffffffff0000000000000000000000000000000000000000968716811790915561010b54845261010883528184209084529091529020805490921617905590505b6040517f40c10f1900000000000000000000000000000000000000000000000000000000815273ffffffffffffffffffffffffffffffffffffffff8781166004830152602482018990528216906340c10f1990604401600060405180830381600087803b158015620020e457600080fd5b505af1158015620020f9573d6000803e3d6000fd5b505050505b60405173ffffffffffffffffffffffffffffffffffffffff87811682528891818416918b16907fd28a2d30314c6a2f46b657c15ee4d7ffc33b2817e78f341a260e216cebfbdbef9060200160405180910390a4505062001538600160d555565b8073ffffffffffffffffffffffffffffffffffffffff8116620021ad576040517f8579befe00000000000000000000000000000000000000000000000000000000815260040160405180910390fd5b620021b762002352565b61010a5460009081526101086020908152604080832073ffffffffffffffffffffffffffffffffffffffff8681168552925290912054166101111462002242576040517f82f5d0a500000000000000000000000000000000000000000000000000000000815273ffffffffffffffffffffffffffffffffffffffff8316600482015260240162000731565b5061010a5460009081526101086020908152604080832073ffffffffffffffffffffffffffffffffffffffff90941683529290522080547fffffffffffffffffffffffff0000000000000000000000000000000000000000169055565b620022a962002352565b6097805473ffffffffffffffffffffffffffffffffffffffff83167fffffffffffffffffffffffff000000000000000000000000000000000000000090911681179091556200230d60655473ffffffffffffffffffffffffffffffffffffffff1690565b73ffffffffffffffffffffffffffffffffffffffff167f38d16b8cac22d99fc7c124b9cd0de2d3fa1faef420bfe791d8c362d765e2270060405160405180910390a350565b60655473ffffffffffffffffffffffffffffffffffffffff16331462000bab576040517f08c379a000000000000000000000000000000000000000000000000000000000815260206004820181905260248201527f4f776e61626c653a2063616c6c6572206973206e6f7420746865206f776e6572604482015260640162000731565b620023df620032a3565b603380547fffffffffffffffffffffffffffffffffffffffffffffffffffffffffffffff001690557f5db9ee0a495bf2e6ff9c91a7834c1ba4fdd244a5e8aa4e537bd38aeae4b073aa335b60405173ffffffffffffffffffffffffffffffffffffffff909116815260200160405180910390a1565b60335460ff161562000bab576040517f08c379a000000000000000000000000000000000000000000000000000000000815260206004820152601060248201527f5061757361626c653a2070617573656400000000000000000000000000000000604482015260640162000731565b600260d5540362002531576040517f08c379a000000000000000000000000000000000000000000000000000000000815260206004820152601f60248201527f5265656e7472616e637947756172643a207265656e7472616e742063616c6c00604482015260640162000731565b600260d555565b60405173ffffffffffffffffffffffffffffffffffffffff80851660248301528316604482015260648101829052620026169085907f23b872dd00000000000000000000000000000000000000000000000000000000906084015b604080517fffffffffffffffffffffffffffffffffffffffffffffffffffffffffffffffe08184030181529190526020810180517bffffffffffffffffffffffffffffffffffffffffffffffffffffffff167fffffffff000000000000000000000000000000000000000000000000000000009093169290921790915262003311565b50505050565b60408051600481526024810182526020810180517bffffffffffffffffffffffffffffffffffffffffffffffffffffffff167f06fdde03000000000000000000000000000000000000000000000000000000001790529051606091600091829173ffffffffffffffffffffffffffffffffffffffff861691620026a09190620040cf565b600060405180830381855afa9150503d8060008114620026dd576040519150601f19603f3d011682016040523d82523d6000602084013e620026e2565b606091505b50915091508162002729576040518060400160405280600781526020017f4e4f5f4e414d450000000000000000000000000000000000000000000000000081525062002734565b620027348162003427565b949350505050565b60408051600481526024810182526020810180517bffffffffffffffffffffffffffffffffffffffffffffffffffffffff167f95d89b41000000000000000000000000000000000000000000000000000000001790529051606091600091829173ffffffffffffffffffffffffffffffffffffffff861691620027c09190620040cf565b600060405180830381855afa9150503d8060008114620027fd576040519150601f19603f3d011682016040523d82523d6000602084013e62002802565b606091505b50915091508162002729576040518060400160405280600981526020017f4e4f5f53594d424f4c000000000000000000000000000000000000000000000081525062002734565b60408051600481526024810182526020810180517bffffffffffffffffffffffffffffffffffffffffffffffffffffffff167f313ce5670000000000000000000000000000000000000000000000000000000017905290516000918291829173ffffffffffffffffffffffffffffffffffffffff861691620028cc9190620040cf565b600060405180830381855afa9150503d806000811462002909576040519150601f19603f3d011682016040523d82523d6000602084013e6200290e565b606091505b509150915081801562002922575080516020145b6200292f57601262002734565b80806020019051810190620027349190620040fd565b600160d555565b609780547fffffffffffffffffffffffff00000000000000000000000000000000000000001690556200160c8162003600565b6200298962002454565b603380547fffffffffffffffffffffffffffffffffffffffffffffffffffffffffffffff001660011790557f62e78cea01bee320cd4e420270b5ea74000d11b0c9f74754ebdbfc544b05a2586200242a3390565b73ffffffffffffffffffffffffffffffffffffffff811662002a2b576040517f8579befe00000000000000000000000000000000000000000000000000000000815260040160405180910390fd5b60ca80547fffffffffffffffffffffffff00000000000000000000000000000000000000001673ffffffffffffffffffffffffffffffffffffffff92909216919091179055565b600054610100900460ff1662002b0b576040517f08c379a000000000000000000000000000000000000000000000000000000000815260206004820152602b60248201527f496e697469616c697a61626c653a20636f6e7472616374206973206e6f74206960448201527f6e697469616c697a696e67000000000000000000000000000000000000000000606482015260840162000731565b62000bab62003677565b600054610100900460ff1662002bae576040517f08c379a000000000000000000000000000000000000000000000000000000000815260206004820152602b60248201527f496e697469616c697a61626c653a20636f6e7472616374206973206e6f74206960448201527f6e697469616c697a696e67000000000000000000000000000000000000000000606482015260840162000731565b62000bab6200373a565b600054610100900460ff1662002c51576040517f08c379a000000000000000000000000000000000000000000000000000000000815260206004820152602b60248201527f496e697469616c697a61626c653a20636f6e7472616374206973206e6f74206960448201527f6e697469616c697a696e67000000000000000000000000000000000000000000606482015260840162000731565b73ffffffffffffffffffffffffffffffffffffffff811662002c9f576040517f8579befe00000000000000000000000000000000000000000000000000000000815260040160405180910390fd5b60c980547fffffffffffffffffffffffff00000000000000000000000000000000000000001673ffffffffffffffffffffffffffffffffffffffff92909216919091179055565b600054610100900460ff1662002d7f576040517f08c379a000000000000000000000000000000000000000000000000000000000815260206004820152602b60248201527f496e697469616c697a61626c653a20636f6e7472616374206973206e6f74206960448201527f6e697469616c697a696e67000000000000000000000000000000000000000000606482015260840162000731565b62000bab620037de565b6040518060600160405280603d815260200162004ac9603d913980516020909101207fffffffff000000000000000000000000000000000000000000000000000000001662002ddd6004600084866200411d565b62002de89162004149565b7fffffffff00000000000000000000000000000000000000000000000000000000161462002eac5762002e206004600083856200411d565b62002e2b9162004149565b6040518060600160405280603d815260200162004ac9603d913980516020909101206040517fcf9e29460000000000000000000000000000000000000000000000000000000081527fffffffff0000000000000000000000000000000000000000000000000000000092831660048201529116602482015260440162000731565b600080808080808062002ec3886004818c6200411d565b81019062002ed2919062004192565b96509650965096509650965096503373ffffffffffffffffffffffffffffffffffffffff168773ffffffffffffffffffffffffffffffffffffffff161462002f5f576040517f200688cc00000000000000000000000000000000000000000000000000000000815273ffffffffffffffffffffffffffffffffffffffff8816600482015260240162000731565b73ffffffffffffffffffffffffffffffffffffffff8616301462002fc8576040517f2911594800000000000000000000000000000000000000000000000000000000815273ffffffffffffffffffffffffffffffffffffffff8716600482015260240162000731565b6040517fd505accf000000000000000000000000000000000000000000000000000000008152336004820152306024820152604481018690526064810185905260ff8416608482015260a4810183905260c4810182905273ffffffffffffffffffffffffffffffffffffffff8b169063d505accf9060e401600060405180830381600087803b1580156200305b57600080fd5b505af115801562003070573d6000803e3d6000fd5b5050505050505050505050505050565b60405173ffffffffffffffffffffffffffffffffffffffff831660248201526044810182905262000b929084907fa9059cbb000000000000000000000000000000000000000000000000000000009060640162002593565b60008082866040516020016200310e92919091825273ffffffffffffffffffffffffffffffffffffffff16602082015260400190565b604080517fffffffffffffffffffffffffffffffffffffffffffffffffffffffffffffffe081840301815290829052805160209091012061010754909250600091839173ffffffffffffffffffffffffffffffffffffffff16906200317390620039f8565b73ffffffffffffffffffffffffffffffffffffffff90911681526040602082018190526000908201526060018190604051809103906000f5905080158015620031c0573d6000803e3d6000fd5b5090508060008080620031d6898b018b620042af565b9250925092508373ffffffffffffffffffffffffffffffffffffffff16631624f6c68484846040518463ffffffff1660e01b81526004016200321b939291906200404b565b600060405180830381600087803b1580156200323657600080fd5b505af11580156200324b573d6000803e3d6000fd5b505060405173ffffffffffffffffffffffffffffffffffffffff808f169350871691507fd5d4920bb61e6141c8499d50a7bd617dae2b1818c9d6b995d3f2ba4975e32ea490600090a350919998505050505050505050565b60335460ff1662000bab576040517f08c379a000000000000000000000000000000000000000000000000000000000815260206004820152601460248201527f5061757361626c653a206e6f7420706175736564000000000000000000000000604482015260640162000731565b600062003375826040518060400160405280602081526020017f5361666545524332303a206c6f772d6c6576656c2063616c6c206661696c65648152508573ffffffffffffffffffffffffffffffffffffffff16620038779092919063ffffffff16565b90508051600014806200339957508080602001905181019062003399919062004325565b62000b92576040517f08c379a000000000000000000000000000000000000000000000000000000000815260206004820152602a60248201527f5361666545524332303a204552433230206f7065726174696f6e20646964206e60448201527f6f74207375636365656400000000000000000000000000000000000000000000606482015260840162000731565b606060408251106200344f578180602001905181019062003449919062004349565b92915050565b81516020146200349257505060408051808201909152601281527f4e4f545f56414c49445f454e434f44494e470000000000000000000000000000602082015290565b60005b602081108015620034e05750828181518110620034b657620034b662003e74565b01602001517fff000000000000000000000000000000000000000000000000000000000000001615155b15620034ef5760010162003495565b806000036200353357505060408051808201909152601281527f4e4f545f56414c49445f454e434f44494e4700000000000000000000000000006020820152919050565b60008167ffffffffffffffff81111562003551576200355162003a8f565b6040519080825280601f01601f1916602001820160405280156200357c576020820181803683370190505b50905060005b82811015620035f857848181518110620035a057620035a062003e74565b602001015160f81c60f81b828281518110620035c057620035c062003e74565b60200101907effffffffffffffffffffffffffffffffffffffffffffffffffffffffffffff1916908160001a90535060010162003582565b509392505050565b6065805473ffffffffffffffffffffffffffffffffffffffff8381167fffffffffffffffffffffffff0000000000000000000000000000000000000000831681179093556040519116919082907f8be0079c531659141344cd1fd0a4f28419497f9722a3daafe3b4186f6b6457e090600090a35050565b600054610100900460ff1662003710576040517f08c379a000000000000000000000000000000000000000000000000000000000815260206004820152602b60248201527f496e697469616c697a61626c653a20636f6e7472616374206973206e6f74206960448201527f6e697469616c697a696e67000000000000000000000000000000000000000000606482015260840162000731565b603380547fffffffffffffffffffffffffffffffffffffffffffffffffffffffffffffff00169055565b600054610100900460ff16620037d3576040517f08c379a000000000000000000000000000000000000000000000000000000000815260206004820152602b60248201527f496e697469616c697a61626c653a20636f6e7472616374206973206e6f74206960448201527f6e697469616c697a696e67000000000000000000000000000000000000000000606482015260840162000731565b62000bab336200294c565b600054610100900460ff1662002945576040517f08c379a000000000000000000000000000000000000000000000000000000000815260206004820152602b60248201527f496e697469616c697a61626c653a20636f6e7472616374206973206e6f74206960448201527f6e697469616c697a696e67000000000000000000000000000000000000000000606482015260840162000731565b6060620027348484600085856000808673ffffffffffffffffffffffffffffffffffffffff168587604051620038ae9190620040cf565b60006040518083038185875af1925050503d8060008114620038ed576040519150601f19603f3d011682016040523d82523d6000602084013e620038f2565b606091505b5091509150620039058783838762003910565b979650505050505050565b60608315620039ab578251600003620039a35773ffffffffffffffffffffffffffffffffffffffff85163b620039a3576040517f08c379a000000000000000000000000000000000000000000000000000000000815260206004820152601d60248201527f416464726573733a2063616c6c20746f206e6f6e2d636f6e7472616374000000604482015260640162000731565b508162002734565b620027348383815115620039c25781518083602001fd5b806040517f08c379a0000000000000000000000000000000000000000000000000000000008152600401620007319190620043c0565b6106f380620043d683390190565b73ffffffffffffffffffffffffffffffffffffffff811681146200160c57600080fd5b6000806040838503121562003a3d57600080fd5b82359150602083013562003a518162003a06565b809150509250929050565b6000806040838503121562003a7057600080fd5b823562003a7d8162003a06565b9150602083013562003a518162003a06565b7f4e487b7100000000000000000000000000000000000000000000000000000000600052604160045260246000fd5b604051601f82017fffffffffffffffffffffffffffffffffffffffffffffffffffffffffffffffe016810167ffffffffffffffff8111828210171562003b085762003b0862003a8f565b604052919050565b6000602080838503121562003b2457600080fd5b823567ffffffffffffffff8082111562003b3d57600080fd5b818501915085601f83011262003b5257600080fd5b81358181111562003b675762003b6762003a8f565b8060051b915062003b7a84830162003abe565b818152918301840191848101908884111562003b9557600080fd5b938501935b8385101562003bc3578435925062003bb28362003a06565b828252938501939085019062003b9a565b98975050505050505050565b60008060006060848603121562003be557600080fd5b833562003bf28162003a06565b925060208401359150604084013562003c0b8162003a06565b809150509250925092565b60006020828403121562003c2957600080fd5b813562003c368162003a06565b9392505050565b600080600080600080600060c0888a03121562003c5957600080fd5b873562003c668162003a06565b9650602088013562003c788162003a06565b9550604088013562003c8a8162003a06565b9450606088013593506080880135925060a088013567ffffffffffffffff8082111562003cb657600080fd5b818a0191508a601f83011262003ccb57600080fd5b81358181111562003cdb57600080fd5b8b60208260051b850101111562003cf157600080fd5b60208301945080935050505092959891949750929550565b60008083601f84011262003d1c57600080fd5b50813567ffffffffffffffff81111562003d3557600080fd5b60208301915083602082850101111562003d4e57600080fd5b9250929050565b60008060008060006080868803121562003d6e57600080fd5b853562003d7b8162003a06565b945060208601359350604086013562003d948162003a06565b9250606086013567ffffffffffffffff81111562003db157600080fd5b62003dbf8882890162003d09565b969995985093965092949392505050565b60008060008060008060a0878903121562003dea57600080fd5b863562003df78162003a06565b955060208701359450604087013562003e108162003a06565b935060608701359250608087013567ffffffffffffffff81111562003e3457600080fd5b62003e4289828a0162003d09565b979a9699509497509295939492505050565b60006020828403121562003e6757600080fd5b815162003c368162003a06565b7f4e487b7100000000000000000000000000000000000000000000000000000000600052603260045260246000fd5b7f4e487b7100000000000000000000000000000000000000000000000000000000600052601160045260246000fd5b60007fffffffffffffffffffffffffffffffffffffffffffffffffffffffffffffffff820362003f065762003f0662003ea3565b5060010190565b6020808252825182820181905260009190848201906040850190845b8181101562003f5d57835173ffffffffffffffffffffffffffffffffffffffff168352928401929184019160010162003f29565b50909695505050505050565b60005b8381101562003f8657818101518382015260200162003f6c565b50506000910152565b6000815180845262003fa981602086016020860162003f69565b601f017fffffffffffffffffffffffffffffffffffffffffffffffffffffffffffffffe0169290920160200192915050565b73ffffffffffffffffffffffffffffffffffffffff8416815282602082015260606040820152600062004012606083018462003f8f565b95945050505050565b6000602082840312156200402e57600080fd5b5051919050565b8181038181111562003449576200344962003ea3565b60608152600062004060606083018662003f8f565b828103602084015262004074818662003f8f565b91505060ff83166040830152949350505050565b600073ffffffffffffffffffffffffffffffffffffffff808816835286602084015280861660408401525083606083015260a060808301526200390560a083018462003f8f565b60008251620040e381846020870162003f69565b9190910192915050565b60ff811681146200160c57600080fd5b6000602082840312156200411057600080fd5b815162003c3681620040ed565b600080858511156200412e57600080fd5b838611156200413c57600080fd5b5050820193919092039150565b7fffffffff0000000000000000000000000000000000000000000000000000000081358181169160048510156200418a5780818660040360031b1b83161692505b505092915050565b600080600080600080600060e0888a031215620041ae57600080fd5b8735620041bb8162003a06565b96506020880135620041cd8162003a06565b955060408801359450606088013593506080880135620041ed81620040ed565b9699959850939692959460a0840135945060c09093013592915050565b600067ffffffffffffffff82111562004227576200422762003a8f565b50601f017fffffffffffffffffffffffffffffffffffffffffffffffffffffffffffffffe01660200190565b600082601f8301126200426557600080fd5b81356200427c62004276826200420a565b62003abe565b8181528460208386010111156200429257600080fd5b816020850160208301376000918101602001919091529392505050565b600080600060608486031215620042c557600080fd5b833567ffffffffffffffff80821115620042de57600080fd5b620042ec8783880162004253565b945060208601359150808211156200430357600080fd5b50620043128682870162004253565b925050604084013562003c0b81620040ed565b6000602082840312156200433857600080fd5b8151801515811462003c3657600080fd5b6000602082840312156200435c57600080fd5b815167ffffffffffffffff8111156200437457600080fd5b8201601f810184136200438657600080fd5b80516200439762004276826200420a565b818152856020838501011115620043ad57600080fd5b6200401282602083016020860162003f69565b60208152600062003c36602083018462003f8f56fe60806040526040516106f33803806106f383398101604081905261002291610420565b61002e82826000610035565b505061054a565b61003e836100f6565b6040516001600160a01b038416907f1cf3b03a6cf19fa2baba4df148e9dcabedea7f8a5c07840e207e5c089be95d3e90600090a260008251118061007f5750805b156100f1576100ef836001600160a01b0316635c60da1b6040518163ffffffff1660e01b8152600401602060405180830381865afa1580156100c5573d6000803e3d6000fd5b505050506040513d601f19601f820116820180604052508101906100e991906104e0565b8361027a565b505b505050565b6001600160a01b0381163b6101605760405162461bcd60e51b815260206004820152602560248201527f455243313936373a206e657720626561636f6e206973206e6f74206120636f6e6044820152641d1c9858dd60da1b60648201526084015b60405180910390fd5b6101d4816001600160a01b0316635c60da1b6040518163ffffffff1660e01b8152600401602060405180830381865afa1580156101a1573d6000803e3d6000fd5b505050506040513d601f19601f820116820180604052508101906101c591906104e0565b6001600160a01b03163b151590565b6102395760405162461bcd60e51b815260206004820152603060248201527f455243313936373a20626561636f6e20696d706c656d656e746174696f6e206960448201526f1cc81b9bdd08184818dbdb9d1c9858dd60821b6064820152608401610157565b7fa3f0ad74e5423aebfd80d3ef4346578335a9a72aeaee59ff6cb3582b35133d5080546001600160a01b0319166001600160a01b0392909216919091179055565b606061029f83836040518060600160405280602781526020016106cc602791396102a6565b9392505050565b6060600080856001600160a01b0316856040516102c391906104fb565b600060405180830381855af49150503d80600081146102fe576040519150601f19603f3d011682016040523d82523d6000602084013e610303565b606091505b5090925090506103158683838761031f565b9695505050505050565b6060831561038e578251600003610387576001600160a01b0385163b6103875760405162461bcd60e51b815260206004820152601d60248201527f416464726573733a2063616c6c20746f206e6f6e2d636f6e74726163740000006044820152606401610157565b5081610398565b61039883836103a0565b949350505050565b8151156103b05781518083602001fd5b8060405162461bcd60e51b81526004016101579190610517565b80516001600160a01b03811681146103e157600080fd5b919050565b634e487b7160e01b600052604160045260246000fd5b60005b838110156104175781810151838201526020016103ff565b50506000910152565b6000806040838503121561043357600080fd5b61043c836103ca565b60208401519092506001600160401b038082111561045957600080fd5b818501915085601f83011261046d57600080fd5b81518181111561047f5761047f6103e6565b604051601f8201601f19908116603f011681019083821181831017156104a7576104a76103e6565b816040528281528860208487010111156104c057600080fd5b6104d18360208301602088016103fc565b80955050505050509250929050565b6000602082840312156104f257600080fd5b61029f826103ca565b6000825161050d8184602087016103fc565b9190910192915050565b60208152600082518060208401526105368160408501602087016103fc565b601f01601f19169190910160400192915050565b610173806105596000396000f3fe60806040523661001357610011610017565b005b6100115b610027610022610029565b6100dc565b565b60006100697fa3f0ad74e5423aebfd80d3ef4346578335a9a72aeaee59ff6cb3582b35133d505473ffffffffffffffffffffffffffffffffffffffff1690565b73ffffffffffffffffffffffffffffffffffffffff16635c60da1b6040518163ffffffff1660e01b8152600401602060405180830381865afa1580156100b3573d6000803e3d6000fd5b505050506040513d601f19601f820116820180604052508101906100d79190610100565b905090565b3660008037600080366000845af43d6000803e8080156100fb573d6000f35b3d6000fd5b60006020828403121561011257600080fd5b815173ffffffffffffffffffffffffffffffffffffffff8116811461013657600080fd5b939250505056fea2646970667358221220e8b7138d4c655aee657a03123f8bcf29e09451a8d46c44dff17be0eacab2354064736f6c63430008130033416464726573733a206c6f772d6c6576656c2064656c65676174652063616c6c206661696c65647065726d697428616464726573732c616464726573732c75696e743235362c75696e743235362c75696e74382c627974657333322c6279746573333229a26469706673582212205195637e68d9092c5ae8a9e2c1b05713259d78870bca3adb80e18a17c667467c64736f6c63430008130033",
  "linkReferences": {},
  "deployedLinkReferences": {}
}