{
  "_format": "hh-sol-artifact-1",
  "contractName": "TokenBridge",
  "sourceName": "contracts/tokenBridge/TokenBridge.sol",
  "abi": [
    {
      "inputs": [],
      "stateMutability": "nonpayable",
      "type": "constructor"
    },
    {
      "inputs": [
        {
          "internalType": "address",
          "name": "token",
          "type": "address"
        }
      ],
      "name": "AlreadyBridgedToken",
      "type": "error"
    },
    {
      "inputs": [
        {
          "internalType": "address",
          "name": "token",
          "type": "address"
        }
      ],
      "name": "AlreadyBrigedToNativeTokenSet",
      "type": "error"
    },
    {
      "inputs": [],
      "name": "ArrayLengthsDoNotMatch",
      "type": "error"
    },
    {
      "inputs": [],
      "name": "CallerIsNotMessageService",
      "type": "error"
    },
    {
      "inputs": [
        {
          "internalType": "address",
          "name": "token",
          "type": "address"
        }
      ],
      "name": "DecimalsAreUnknown",
      "type": "error"
    },
    {
      "inputs": [
        {
          "internalType": "bytes4",
          "name": "permitData",
          "type": "bytes4"
        },
        {
          "internalType": "bytes4",
          "name": "permitSelector",
          "type": "bytes4"
        }
      ],
      "name": "InvalidPermitData",
      "type": "error"
    },
    {
      "inputs": [
        {
          "internalType": "enum IPauseManager.PauseType",
          "name": "pauseType",
          "type": "uint8"
        }
      ],
      "name": "IsNotPaused",
      "type": "error"
    },
    {
      "inputs": [
        {
          "internalType": "enum IPauseManager.PauseType",
          "name": "pauseType",
          "type": "uint8"
        }
      ],
      "name": "IsPaused",
      "type": "error"
    },
    {
      "inputs": [
        {
          "internalType": "address",
          "name": "token",
          "type": "address"
        }
      ],
      "name": "NativeToBridgedTokenAlreadySet",
      "type": "error"
    },
    {
      "inputs": [
        {
          "internalType": "address",
          "name": "token",
          "type": "address"
        }
      ],
      "name": "NotReserved",
      "type": "error"
    },
    {
      "inputs": [],
      "name": "PauseTypeNotUsed",
      "type": "error"
    },
    {
      "inputs": [
        {
          "internalType": "address",
          "name": "spender",
          "type": "address"
        }
      ],
      "name": "PermitNotAllowingBridge",
      "type": "error"
    },
    {
      "inputs": [
        {
          "internalType": "address",
          "name": "owner",
          "type": "address"
        }
      ],
      "name": "PermitNotFromSender",
      "type": "error"
    },
    {
      "inputs": [
        {
          "internalType": "address",
          "name": "remoteTokenBridge",
          "type": "address"
        }
      ],
      "name": "RemoteTokenBridgeAlreadySet",
      "type": "error"
    },
    {
      "inputs": [
        {
          "internalType": "address",
          "name": "token",
          "type": "address"
        }
      ],
      "name": "ReservedToken",
      "type": "error"
    },
    {
      "inputs": [],
      "name": "RolesNotDifferent",
      "type": "error"
    },
    {
      "inputs": [],
      "name": "SenderNotAuthorized",
      "type": "error"
    },
    {
      "inputs": [],
      "name": "SourceChainSameAsTargetChain",
      "type": "error"
    },
    {
      "inputs": [
        {
          "internalType": "address",
          "name": "token",
          "type": "address"
        }
      ],
      "name": "StatusAddressNotAllowed",
      "type": "error"
    },
    {
      "inputs": [],
      "name": "TokenListEmpty",
      "type": "error"
    },
    {
      "inputs": [
        {
          "internalType": "address",
          "name": "token",
          "type": "address"
        }
      ],
      "name": "TokenNotDeployed",
      "type": "error"
    },
    {
      "inputs": [],
      "name": "ZeroAddressNotAllowed",
      "type": "error"
    },
    {
      "inputs": [
        {
          "internalType": "uint256",
          "name": "amount",
          "type": "uint256"
        }
      ],
      "name": "ZeroAmountNotAllowed",
      "type": "error"
    },
    {
      "inputs": [],
      "name": "ZeroChainIdNotAllowed",
      "type": "error"
    },
    {
      "inputs": [],
      "name": "ZeroHashNotAllowed",
      "type": "error"
    },
    {
      "anonymous": false,
      "inputs": [
        {
          "indexed": true,
          "internalType": "address",
          "name": "nativeToken",
          "type": "address"
        },
        {
          "indexed": true,
          "internalType": "address",
          "name": "bridgedToken",
          "type": "address"
        },
        {
          "indexed": true,
          "internalType": "uint256",
          "name": "amount",
          "type": "uint256"
        },
        {
          "indexed": false,
          "internalType": "address",
          "name": "recipient",
          "type": "address"
        }
      ],
      "name": "BridgingFinalized",
      "type": "event"
    },
    {
      "anonymous": false,
      "inputs": [
        {
          "indexed": true,
          "internalType": "address",
          "name": "nativeToken",
          "type": "address"
        },
        {
          "indexed": true,
          "internalType": "address",
          "name": "bridgedToken",
          "type": "address"
        },
        {
          "indexed": false,
          "internalType": "uint256",
          "name": "amount",
          "type": "uint256"
        },
        {
          "indexed": true,
          "internalType": "address",
          "name": "recipient",
          "type": "address"
        }
      ],
      "name": "BridgingFinalizedV2",
      "type": "event"
    },
    {
      "anonymous": false,
      "inputs": [
        {
          "indexed": true,
          "internalType": "address",
          "name": "sender",
          "type": "address"
        },
        {
          "indexed": false,
          "internalType": "address",
          "name": "recipient",
          "type": "address"
        },
        {
          "indexed": true,
          "internalType": "address",
          "name": "token",
          "type": "address"
        },
        {
          "indexed": true,
          "internalType": "uint256",
          "name": "amount",
          "type": "uint256"
        }
      ],
      "name": "BridgingInitiated",
      "type": "event"
    },
    {
      "anonymous": false,
      "inputs": [
        {
          "indexed": true,
          "internalType": "address",
          "name": "sender",
          "type": "address"
        },
        {
          "indexed": true,
          "internalType": "address",
          "name": "recipient",
          "type": "address"
        },
        {
          "indexed": true,
          "internalType": "address",
          "name": "token",
          "type": "address"
        },
        {
          "indexed": false,
          "internalType": "uint256",
          "name": "amount",
          "type": "uint256"
        }
      ],
      "name": "BridgingInitiatedV2",
      "type": "event"
    },
    {
      "anonymous": false,
      "inputs": [
        {
          "indexed": true,
          "internalType": "address",
          "name": "nativeToken",
          "type": "address"
        },
        {
          "indexed": true,
          "internalType": "address",
          "name": "customContract",
          "type": "address"
        },
        {
          "indexed": true,
          "internalType": "address",
          "name": "setBy",
          "type": "address"
        }
      ],
      "name": "CustomContractSet",
      "type": "event"
    },
    {
      "anonymous": false,
      "inputs": [
        {
          "indexed": false,
          "internalType": "address[]",
          "name": "tokens",
          "type": "address[]"
        },
        {
          "indexed": true,
          "internalType": "address",
          "name": "confirmedBy",
          "type": "address"
        }
      ],
      "name": "DeploymentConfirmed",
      "type": "event"
    },
    {
      "anonymous": false,
      "inputs": [
        {
          "indexed": false,
          "internalType": "uint8",
          "name": "version",
          "type": "uint8"
        }
      ],
      "name": "Initialized",
      "type": "event"
    },
    {
      "anonymous": false,
      "inputs": [
        {
          "indexed": true,
          "internalType": "address",
          "name": "newMessageService",
          "type": "address"
        },
        {
          "indexed": true,
          "internalType": "address",
          "name": "oldMessageService",
          "type": "address"
        },
        {
          "indexed": true,
          "internalType": "address",
          "name": "setBy",
          "type": "address"
        }
      ],
      "name": "MessageServiceUpdated",
      "type": "event"
    },
    {
      "anonymous": false,
      "inputs": [
        {
          "indexed": true,
          "internalType": "address",
          "name": "token",
          "type": "address"
        }
      ],
      "name": "NewToken",
      "type": "event"
    },
    {
      "anonymous": false,
      "inputs": [
        {
          "indexed": true,
          "internalType": "address",
          "name": "bridgedToken",
          "type": "address"
        },
        {
          "indexed": true,
          "internalType": "address",
          "name": "nativeToken",
          "type": "address"
        }
      ],
      "name": "NewTokenDeployed",
      "type": "event"
    },
    {
      "anonymous": false,
      "inputs": [
        {
          "indexed": true,
          "internalType": "enum IPauseManager.PauseType",
          "name": "pauseType",
          "type": "uint8"
        },
        {
          "indexed": true,
          "internalType": "bytes32",
          "name": "role",
          "type": "bytes32"
        }
      ],
      "name": "PauseTypeRoleSet",
      "type": "event"
    },
    {
      "anonymous": false,
      "inputs": [
        {
          "indexed": true,
          "internalType": "enum IPauseManager.PauseType",
          "name": "pauseType",
          "type": "uint8"
        },
        {
          "indexed": true,
          "internalType": "bytes32",
          "name": "role",
          "type": "bytes32"
        },
        {
          "indexed": true,
          "internalType": "bytes32",
          "name": "previousRole",
          "type": "bytes32"
        }
      ],
      "name": "PauseTypeRoleUpdated",
      "type": "event"
    },
    {
      "anonymous": false,
      "inputs": [
        {
          "indexed": false,
          "internalType": "address",
          "name": "messageSender",
          "type": "address"
        },
        {
          "indexed": true,
          "internalType": "enum IPauseManager.PauseType",
          "name": "pauseType",
          "type": "uint8"
        }
      ],
      "name": "Paused",
      "type": "event"
    },
    {
      "anonymous": false,
      "inputs": [
        {
          "indexed": true,
          "internalType": "address",
          "name": "remoteSender",
          "type": "address"
        },
        {
          "indexed": true,
          "internalType": "address",
          "name": "setter",
          "type": "address"
        }
      ],
      "name": "RemoteSenderSet",
      "type": "event"
    },
    {
      "anonymous": false,
      "inputs": [
        {
          "indexed": true,
          "internalType": "address",
          "name": "remoteTokenBridge",
          "type": "address"
        },
        {
          "indexed": true,
          "internalType": "address",
          "name": "setBy",
          "type": "address"
        }
      ],
      "name": "RemoteTokenBridgeSet",
      "type": "event"
    },
    {
      "anonymous": false,
      "inputs": [
        {
          "indexed": true,
          "internalType": "address",
          "name": "token",
          "type": "address"
        }
      ],
      "name": "ReservationRemoved",
      "type": "event"
    },
    {
      "anonymous": false,
      "inputs": [
        {
          "indexed": true,
          "internalType": "bytes32",
          "name": "role",
          "type": "bytes32"
        },
        {
          "indexed": true,
          "internalType": "bytes32",
          "name": "previousAdminRole",
          "type": "bytes32"
        },
        {
          "indexed": true,
          "internalType": "bytes32",
          "name": "newAdminRole",
          "type": "bytes32"
        }
      ],
      "name": "RoleAdminChanged",
      "type": "event"
    },
    {
      "anonymous": false,
      "inputs": [
        {
          "indexed": true,
          "internalType": "bytes32",
          "name": "role",
          "type": "bytes32"
        },
        {
          "indexed": true,
          "internalType": "address",
          "name": "account",
          "type": "address"
        },
        {
          "indexed": true,
          "internalType": "address",
          "name": "sender",
          "type": "address"
        }
      ],
      "name": "RoleGranted",
      "type": "event"
    },
    {
      "anonymous": false,
      "inputs": [
        {
          "indexed": true,
          "internalType": "bytes32",
          "name": "role",
          "type": "bytes32"
        },
        {
          "indexed": true,
          "internalType": "address",
          "name": "account",
          "type": "address"
        },
        {
          "indexed": true,
          "internalType": "address",
          "name": "sender",
          "type": "address"
        }
      ],
      "name": "RoleRevoked",
      "type": "event"
    },
    {
      "anonymous": false,
      "inputs": [
        {
          "indexed": true,
          "internalType": "address",
          "name": "token",
          "type": "address"
        }
      ],
      "name": "TokenDeployed",
      "type": "event"
    },
    {
      "anonymous": false,
      "inputs": [
        {
          "indexed": true,
          "internalType": "address",
          "name": "token",
          "type": "address"
        }
      ],
      "name": "TokenReserved",
      "type": "event"
    },
    {
      "anonymous": false,
      "inputs": [
        {
          "indexed": true,
          "internalType": "enum IPauseManager.PauseType",
          "name": "unPauseType",
          "type": "uint8"
        },
        {
          "indexed": true,
          "internalType": "bytes32",
          "name": "role",
          "type": "bytes32"
        }
      ],
      "name": "UnPauseTypeRoleSet",
      "type": "event"
    },
    {
      "anonymous": false,
      "inputs": [
        {
          "indexed": true,
          "internalType": "enum IPauseManager.PauseType",
          "name": "unPauseType",
          "type": "uint8"
        },
        {
          "indexed": true,
          "internalType": "bytes32",
          "name": "role",
          "type": "bytes32"
        },
        {
          "indexed": true,
          "internalType": "bytes32",
          "name": "previousRole",
          "type": "bytes32"
        }
      ],
      "name": "UnPauseTypeRoleUpdated",
      "type": "event"
    },
    {
      "anonymous": false,
      "inputs": [
        {
          "indexed": false,
          "internalType": "address",
          "name": "messageSender",
          "type": "address"
        },
        {
          "indexed": true,
          "internalType": "enum IPauseManager.PauseType",
          "name": "pauseType",
          "type": "uint8"
        }
      ],
      "name": "UnPaused",
      "type": "event"
    },
    {
      "inputs": [],
      "name": "CONTRACT_VERSION",
      "outputs": [
        {
          "internalType": "string",
          "name": "",
          "type": "string"
        }
      ],
      "stateMutability": "view",
      "type": "function"
    },
    {
      "inputs": [],
      "name": "DEFAULT_ADMIN_ROLE",
      "outputs": [
        {
          "internalType": "bytes32",
          "name": "",
          "type": "bytes32"
        }
      ],
      "stateMutability": "view",
      "type": "function"
    },
    {
      "inputs": [],
      "name": "PAUSE_ALL_ROLE",
      "outputs": [
        {
          "internalType": "bytes32",
          "name": "",
          "type": "bytes32"
        }
      ],
      "stateMutability": "view",
      "type": "function"
    },
    {
      "inputs": [],
      "name": "PAUSE_COMPLETE_TOKEN_BRIDGING_ROLE",
      "outputs": [
        {
          "internalType": "bytes32",
          "name": "",
          "type": "bytes32"
        }
      ],
      "stateMutability": "view",
      "type": "function"
    },
    {
      "inputs": [],
      "name": "PAUSE_INITIATE_TOKEN_BRIDGING_ROLE",
      "outputs": [
        {
          "internalType": "bytes32",
          "name": "",
          "type": "bytes32"
        }
      ],
      "stateMutability": "view",
      "type": "function"
    },
    {
      "inputs": [],
      "name": "REMOVE_RESERVED_TOKEN_ROLE",
      "outputs": [
        {
          "internalType": "bytes32",
          "name": "",
          "type": "bytes32"
        }
      ],
      "stateMutability": "view",
      "type": "function"
    },
    {
      "inputs": [],
      "name": "SET_CUSTOM_CONTRACT_ROLE",
      "outputs": [
        {
          "internalType": "bytes32",
          "name": "",
          "type": "bytes32"
        }
      ],
      "stateMutability": "view",
      "type": "function"
    },
    {
      "inputs": [],
      "name": "SET_MESSAGE_SERVICE_ROLE",
      "outputs": [
        {
          "internalType": "bytes32",
          "name": "",
          "type": "bytes32"
        }
      ],
      "stateMutability": "view",
      "type": "function"
    },
    {
      "inputs": [],
      "name": "SET_REMOTE_TOKENBRIDGE_ROLE",
      "outputs": [
        {
          "internalType": "bytes32",
          "name": "",
          "type": "bytes32"
        }
      ],
      "stateMutability": "view",
      "type": "function"
    },
    {
      "inputs": [],
      "name": "SET_RESERVED_TOKEN_ROLE",
      "outputs": [
        {
          "internalType": "bytes32",
          "name": "",
          "type": "bytes32"
        }
      ],
      "stateMutability": "view",
      "type": "function"
    },
    {
      "inputs": [],
      "name": "UNPAUSE_ALL_ROLE",
      "outputs": [
        {
          "internalType": "bytes32",
          "name": "",
          "type": "bytes32"
        }
      ],
      "stateMutability": "view",
      "type": "function"
    },
    {
      "inputs": [],
      "name": "UNPAUSE_COMPLETE_TOKEN_BRIDGING_ROLE",
      "outputs": [
        {
          "internalType": "bytes32",
          "name": "",
          "type": "bytes32"
        }
      ],
      "stateMutability": "view",
      "type": "function"
    },
    {
      "inputs": [],
      "name": "UNPAUSE_INITIATE_TOKEN_BRIDGING_ROLE",
      "outputs": [
        {
          "internalType": "bytes32",
          "name": "",
          "type": "bytes32"
        }
      ],
      "stateMutability": "view",
      "type": "function"
    },
    {
      "inputs": [
        {
          "internalType": "address",
          "name": "_token",
          "type": "address"
        },
        {
          "internalType": "uint256",
          "name": "_amount",
          "type": "uint256"
        },
        {
          "internalType": "address",
          "name": "_recipient",
          "type": "address"
        }
      ],
      "name": "bridgeToken",
      "outputs": [],
      "stateMutability": "payable",
      "type": "function"
    },
    {
      "inputs": [
        {
          "internalType": "address",
          "name": "_token",
          "type": "address"
        },
        {
          "internalType": "uint256",
          "name": "_amount",
          "type": "uint256"
        },
        {
          "internalType": "address",
          "name": "_recipient",
          "type": "address"
        },
        {
          "internalType": "bytes",
          "name": "_permitData",
          "type": "bytes"
        }
      ],
      "name": "bridgeTokenWithPermit",
      "outputs": [],
      "stateMutability": "payable",
      "type": "function"
    },
    {
      "inputs": [
        {
          "internalType": "address",
          "name": "bridged",
          "type": "address"
        }
      ],
      "name": "bridgedToNativeToken",
      "outputs": [
        {
          "internalType": "address",
          "name": "native",
          "type": "address"
        }
      ],
      "stateMutability": "view",
      "type": "function"
    },
    {
      "inputs": [
        {
          "internalType": "address",
          "name": "_nativeToken",
          "type": "address"
        },
        {
          "internalType": "uint256",
          "name": "_amount",
          "type": "uint256"
        },
        {
          "internalType": "address",
          "name": "_recipient",
          "type": "address"
        },
        {
          "internalType": "uint256",
          "name": "_chainId",
          "type": "uint256"
        },
        {
          "internalType": "bytes",
          "name": "_tokenMetadata",
          "type": "bytes"
        }
      ],
      "name": "completeBridging",
      "outputs": [],
      "stateMutability": "nonpayable",
      "type": "function"
    },
    {
      "inputs": [
        {
          "internalType": "address[]",
          "name": "_tokens",
          "type": "address[]"
        }
      ],
      "name": "confirmDeployment",
      "outputs": [],
      "stateMutability": "payable",
      "type": "function"
    },
    {
      "inputs": [
        {
          "internalType": "bytes32",
          "name": "role",
          "type": "bytes32"
        }
      ],
      "name": "getRoleAdmin",
      "outputs": [
        {
          "internalType": "bytes32",
          "name": "",
          "type": "bytes32"
        }
      ],
      "stateMutability": "view",
      "type": "function"
    },
    {
      "inputs": [
        {
          "internalType": "bytes32",
          "name": "role",
          "type": "bytes32"
        },
        {
          "internalType": "address",
          "name": "account",
          "type": "address"
        }
      ],
      "name": "grantRole",
      "outputs": [],
      "stateMutability": "nonpayable",
      "type": "function"
    },
    {
      "inputs": [
        {
          "internalType": "bytes32",
          "name": "role",
          "type": "bytes32"
        },
        {
          "internalType": "address",
          "name": "account",
          "type": "address"
        }
      ],
      "name": "hasRole",
      "outputs": [
        {
          "internalType": "bool",
          "name": "",
          "type": "bool"
        }
      ],
      "stateMutability": "view",
      "type": "function"
    },
    {
      "inputs": [
        {
          "components": [
            {
              "internalType": "address",
              "name": "defaultAdmin",
              "type": "address"
            },
            {
              "internalType": "address",
              "name": "messageService",
              "type": "address"
            },
            {
              "internalType": "address",
              "name": "tokenBeacon",
              "type": "address"
            },
            {
              "internalType": "uint256",
              "name": "sourceChainId",
              "type": "uint256"
            },
            {
              "internalType": "uint256",
              "name": "targetChainId",
              "type": "uint256"
            },
            {
              "internalType": "address[]",
              "name": "reservedTokens",
              "type": "address[]"
            },
            {
              "components": [
                {
                  "internalType": "address",
                  "name": "addressWithRole",
                  "type": "address"
                },
                {
                  "internalType": "bytes32",
                  "name": "role",
                  "type": "bytes32"
                }
              ],
              "internalType": "struct IPermissionsManager.RoleAddress[]",
              "name": "roleAddresses",
              "type": "tuple[]"
            },
            {
              "components": [
                {
                  "internalType": "enum IPauseManager.PauseType",
                  "name": "pauseType",
                  "type": "uint8"
                },
                {
                  "internalType": "bytes32",
                  "name": "role",
                  "type": "bytes32"
                }
              ],
              "internalType": "struct IPauseManager.PauseTypeRole[]",
              "name": "pauseTypeRoles",
              "type": "tuple[]"
            },
            {
              "components": [
                {
                  "internalType": "enum IPauseManager.PauseType",
                  "name": "pauseType",
                  "type": "uint8"
                },
                {
                  "internalType": "bytes32",
                  "name": "role",
                  "type": "bytes32"
                }
              ],
              "internalType": "struct IPauseManager.PauseTypeRole[]",
              "name": "unpauseTypeRoles",
              "type": "tuple[]"
            }
          ],
          "internalType": "struct ITokenBridge.InitializationData",
          "name": "_initializationData",
          "type": "tuple"
        }
      ],
      "name": "initialize",
      "outputs": [],
      "stateMutability": "nonpayable",
      "type": "function"
    },
    {
      "inputs": [
        {
          "internalType": "enum IPauseManager.PauseType",
          "name": "_pauseType",
          "type": "uint8"
        }
      ],
      "name": "isPaused",
      "outputs": [
        {
          "internalType": "bool",
          "name": "pauseTypeIsPaused",
          "type": "bool"
        }
      ],
      "stateMutability": "view",
      "type": "function"
    },
    {
      "inputs": [],
      "name": "messageService",
      "outputs": [
        {
          "internalType": "contract IMessageService",
          "name": "",
          "type": "address"
        }
      ],
      "stateMutability": "view",
      "type": "function"
    },
    {
      "inputs": [
        {
          "internalType": "uint256",
          "name": "chainId",
          "type": "uint256"
        },
        {
          "internalType": "address",
          "name": "native",
          "type": "address"
        }
      ],
      "name": "nativeToBridgedToken",
      "outputs": [
        {
          "internalType": "address",
          "name": "bridged",
          "type": "address"
        }
      ],
      "stateMutability": "view",
      "type": "function"
    },
    {
      "inputs": [
        {
          "internalType": "enum IPauseManager.PauseType",
          "name": "_pauseType",
          "type": "uint8"
        }
      ],
      "name": "pauseByType",
      "outputs": [],
      "stateMutability": "nonpayable",
      "type": "function"
    },
    {
      "inputs": [
        {
          "internalType": "bytes32",
          "name": "pauseType",
          "type": "bytes32"
        }
      ],
      "name": "pauseTypeStatuses",
      "outputs": [
        {
          "internalType": "bool",
          "name": "pauseStatus",
          "type": "bool"
        }
      ],
      "stateMutability": "view",
      "type": "function"
    },
    {
      "inputs": [
        {
          "internalType": "address",
          "name": "_defaultAdmin",
          "type": "address"
        },
        {
          "components": [
            {
              "internalType": "address",
              "name": "addressWithRole",
              "type": "address"
            },
            {
              "internalType": "bytes32",
              "name": "role",
              "type": "bytes32"
            }
          ],
          "internalType": "struct IPermissionsManager.RoleAddress[]",
          "name": "_roleAddresses",
          "type": "tuple[]"
        },
        {
          "components": [
            {
              "internalType": "enum IPauseManager.PauseType",
              "name": "pauseType",
              "type": "uint8"
            },
            {
              "internalType": "bytes32",
              "name": "role",
              "type": "bytes32"
            }
          ],
          "internalType": "struct IPauseManager.PauseTypeRole[]",
          "name": "_pauseTypeRoles",
          "type": "tuple[]"
        },
        {
          "components": [
            {
              "internalType": "enum IPauseManager.PauseType",
              "name": "pauseType",
              "type": "uint8"
            },
            {
              "internalType": "bytes32",
              "name": "role",
              "type": "bytes32"
            }
          ],
          "internalType": "struct IPauseManager.PauseTypeRole[]",
          "name": "_unpauseTypeRoles",
          "type": "tuple[]"
        }
      ],
      "name": "reinitializePauseTypesAndPermissions",
      "outputs": [],
      "stateMutability": "nonpayable",
      "type": "function"
    },
    {
      "inputs": [],
      "name": "remoteSender",
      "outputs": [
        {
          "internalType": "address",
          "name": "",
          "type": "address"
        }
      ],
      "stateMutability": "view",
      "type": "function"
    },
    {
      "inputs": [
        {
          "internalType": "address",
          "name": "_token",
          "type": "address"
        }
      ],
      "name": "removeReserved",
      "outputs": [],
      "stateMutability": "nonpayable",
      "type": "function"
    },
    {
      "inputs": [
        {
          "internalType": "bytes32",
          "name": "role",
          "type": "bytes32"
        },
        {
          "internalType": "address",
          "name": "account",
          "type": "address"
        }
      ],
      "name": "renounceRole",
      "outputs": [],
      "stateMutability": "nonpayable",
      "type": "function"
    },
    {
      "inputs": [
        {
          "internalType": "bytes32",
          "name": "role",
          "type": "bytes32"
        },
        {
          "internalType": "address",
          "name": "account",
          "type": "address"
        }
      ],
      "name": "revokeRole",
      "outputs": [],
      "stateMutability": "nonpayable",
      "type": "function"
    },
    {
      "inputs": [
        {
          "internalType": "address",
          "name": "_nativeToken",
          "type": "address"
        },
        {
          "internalType": "address",
          "name": "_targetContract",
          "type": "address"
        }
      ],
      "name": "setCustomContract",
      "outputs": [],
      "stateMutability": "nonpayable",
      "type": "function"
    },
    {
      "inputs": [
        {
          "internalType": "address[]",
          "name": "_nativeTokens",
          "type": "address[]"
        }
      ],
      "name": "setDeployed",
      "outputs": [],
      "stateMutability": "nonpayable",
      "type": "function"
    },
    {
      "inputs": [
        {
          "internalType": "address",
          "name": "_messageService",
          "type": "address"
        }
      ],
      "name": "setMessageService",
      "outputs": [],
      "stateMutability": "nonpayable",
      "type": "function"
    },
    {
      "inputs": [
        {
          "internalType": "address",
          "name": "_remoteTokenBridge",
          "type": "address"
        }
      ],
      "name": "setRemoteTokenBridge",
      "outputs": [],
      "stateMutability": "nonpayable",
      "type": "function"
    },
    {
      "inputs": [
        {
          "internalType": "address",
          "name": "_token",
          "type": "address"
        }
      ],
      "name": "setReserved",
      "outputs": [],
      "stateMutability": "nonpayable",
      "type": "function"
    },
    {
      "inputs": [],
      "name": "sourceChainId",
      "outputs": [
        {
          "internalType": "uint256",
          "name": "",
          "type": "uint256"
        }
      ],
      "stateMutability": "view",
      "type": "function"
    },
    {
      "inputs": [
        {
          "internalType": "bytes4",
          "name": "interfaceId",
          "type": "bytes4"
        }
      ],
      "name": "supportsInterface",
      "outputs": [
        {
          "internalType": "bool",
          "name": "",
          "type": "bool"
        }
      ],
      "stateMutability": "view",
      "type": "function"
    },
    {
      "inputs": [],
      "name": "targetChainId",
      "outputs": [
        {
          "internalType": "uint256",
          "name": "",
          "type": "uint256"
        }
      ],
      "stateMutability": "view",
      "type": "function"
    },
    {
      "inputs": [],
      "name": "tokenBeacon",
      "outputs": [
        {
          "internalType": "address",
          "name": "",
          "type": "address"
        }
      ],
      "stateMutability": "view",
      "type": "function"
    },
    {
      "inputs": [
        {
          "internalType": "enum IPauseManager.PauseType",
          "name": "_pauseType",
          "type": "uint8"
        }
      ],
      "name": "unPauseByType",
      "outputs": [],
      "stateMutability": "nonpayable",
      "type": "function"
    },
    {
      "inputs": [
        {
          "internalType": "enum IPauseManager.PauseType",
          "name": "_pauseType",
          "type": "uint8"
        },
        {
          "internalType": "bytes32",
          "name": "_newRole",
          "type": "bytes32"
        }
      ],
      "name": "updatePauseTypeRole",
      "outputs": [],
      "stateMutability": "nonpayable",
      "type": "function"
    },
    {
      "inputs": [
        {
          "internalType": "enum IPauseManager.PauseType",
          "name": "_pauseType",
          "type": "uint8"
        },
        {
          "internalType": "bytes32",
          "name": "_newRole",
          "type": "bytes32"
        }
      ],
      "name": "updateUnpauseTypeRole",
      "outputs": [],
      "stateMutability": "nonpayable",
      "type": "function"
    }
  ],
  "bytecode": "0x60806040523480156200001157600080fd5b506200001c62000022565b620000e3565b600054610100900460ff16156200008f5760405162461bcd60e51b815260206004820152602760248201527f496e697469616c697a61626c653a20636f6e747261637420697320696e697469604482015266616c697a696e6760c81b606482015260840160405180910390fd5b60005460ff90811614620000e1576000805460ff191660ff9081179091556040519081527f7f26b83ff96e1f2b6a682f133852f6798a09c465da95921460cefb38474024989060200160405180910390a15b565b615af380620000f36000396000f3fe608060405260043610620003235760003560e01c80638dae45dd11620001a3578063ca41a24711620000e7578063d547741f1162000095578063e4d27451116200006c578063e4d274511462000a55578063edc42a221462000a7a578063fe3c50a01462000a9f57600080fd5b8063d547741f14620009f4578063dfa96efb1462000a19578063e196fb5d1462000a3057600080fd5b8063ccf5a77c11620000ca578063ccf5a77c1462000976578063cdd914c51462000999578063cf4a720814620009be57600080fd5b8063ca41a2471462000907578063cc5782f6146200094257600080fd5b8063a6ef995f1162000151578063be46096f1162000128578063be46096f1462000876578063c483d838146200089b578063c986752a14620008d157600080fd5b8063a6ef995f146200080a578063b3232bdf146200082c578063bc61e733146200085157600080fd5b80639ac25d0811620001865780639ac25d081462000798578063a217fddf14620007ce578063a676e8ab14620007e557600080fd5b80638dae45dd146200072c57806391d14854146200074e57600080fd5b80633551237b116200026b578063522ea81a11620002195780635a06a42a11620001f05780635a06a42a146200068a5780636a906b8014620006c057806380efb43a14620006f657600080fd5b8063522ea81a146200061857806352abf32d146200062f5780635626fc25146200065457600080fd5b806338b90333116200024e57806338b9033314620005825780633e9ebfc214620005dc5780634bf98dce146200060157600080fd5b80633551237b146200052757806336568abe146200055d57600080fd5b80631544298e11620002d55780632a564f3411620002ac5780632a564f3414620004a75780632e4c3fff14620004cc5780632f2ff15d146200050257600080fd5b80631544298e14620004355780631754f301146200044e578063248a9ca3146200047357600080fd5b80630f6f86ec116200030a5780630f6f86ec14620003895780631065a39914620003e8578063146ffb26146200040d57600080fd5b806301941d39146200032857806301ffc9a7146200034f575b600080fd5b3480156200033557600080fd5b506200034d6200034736600462004715565b62000ad5565b005b3480156200035c57600080fd5b50620003746200036e366004620047ce565b62000c6c565b60405190151581526020015b60405180910390f35b3480156200039657600080fd5b50620003cf620003a836600462004812565b6101086020908152600092835260408084209091529082529020546001600160a01b031681565b6040516001600160a01b03909116815260200162000380565b348015620003f557600080fd5b506200034d620004073660046200485a565b62000d06565b3480156200041a57600080fd5b506200042661010b5481565b60405190815260200162000380565b3480156200044257600080fd5b506200042661010a5481565b3480156200045b57600080fd5b506200034d6200046d36600462004878565b62000e5f565b3480156200048057600080fd5b506200042662000492366004620048ab565b60009081526097602052604090206001015490565b348015620004b457600080fd5b506200034d620004c6366004620048c5565b6200115a565b348015620004d957600080fd5b50620004267f8a7b208fd13ab36d18025be4f62b53d46aeb2cbe8958d2e13de74c040dddcddd81565b3480156200050f57600080fd5b506200034d6200052136600462004812565b62001379565b3480156200053457600080fd5b50620004267f19bf281d118073c159a713666aba52e0d403520cd01e03f42e0f62a0b3bd4a3581565b3480156200056a57600080fd5b506200034d6200057c36600462004812565b620013a7565b3480156200058f57600080fd5b50620005cd6040518060400160405280600381526020017f312e30000000000000000000000000000000000000000000000000000000000081525081565b60405162000380919062004993565b348015620005e957600080fd5b506200034d620005fb366004620049a8565b62001437565b6200034d6200061236600462004a38565b620015b3565b6200034d6200062936600462004af7565b6200182e565b3480156200063c57600080fd5b506200034d6200064e366004620049a8565b62001ddc565b3480156200066157600080fd5b50620004267f46e34517dc946faf87aabe65eb5b4fa06b974e5c8d72c5df73b9fb6ff7b6d80281565b3480156200069757600080fd5b50620004267f50962b2d10066f5051f78d5ea04a3ab09b9c87dd1002962f0b1e30e66eeb80a581565b348015620006cd57600080fd5b50620004267fd8b4c34c2ec1f3194471108c64ad2beda340c0337ee4ca35592f9ef270f4228b81565b3480156200070357600080fd5b50620004267fbf094fe3c005c553ff0d33c7dff9d1273add12fb3f258b992f8d36224dd35b2481565b3480156200073957600080fd5b5060c954620003cf906001600160a01b031681565b3480156200075b57600080fd5b50620003746200076d36600462004812565b60009182526097602090815260408084206001600160a01b0393909316845291905290205460ff1690565b348015620007a557600080fd5b50620004267f56bdc3c9ec86cb7db110a7699b2ade72f0b8819727d9f7d906b012641505fa7781565b348015620007db57600080fd5b5062000426600081565b348015620007f257600080fd5b506200034d6200080436600462004b3e565b62001f58565b3480156200081757600080fd5b5060ca54620003cf906001600160a01b031681565b3480156200083957600080fd5b506200034d6200084b36600462004b5e565b6200201d565b3480156200085e57600080fd5b5062000374620008703660046200485a565b62002578565b3480156200088357600080fd5b506200034d6200089536600462004b3e565b620025a0565b348015620008a857600080fd5b50620004267feaf25fcc6b7d45bda16c56628df3f435e20319ef53b065c11ee4510083f0ae2d81565b348015620008de57600080fd5b50620004267f550554a677c8e7b73b62db78b0ef06c5f237da4ef30b88196a899ccf591041fe81565b3480156200091457600080fd5b50620003cf6200092636600462004b3e565b610109602052600090815260409020546001600160a01b031681565b3480156200094f57600080fd5b506200037462000961366004620048ab565b60d56020526000908152604090205460ff1681565b3480156200098357600080fd5b5061010754620003cf906001600160a01b031681565b348015620009a657600080fd5b506200034d620009b836600462004b3e565b62002663565b348015620009cb57600080fd5b50620004267f3900d9d72d5177a154375317154fdc0e08377e3134a8a5d21cadccf831cc231c81565b34801562000a0157600080fd5b506200034d62000a1336600462004812565b620027ce565b6200034d62000a2a36600462004be2565b620027f7565b34801562000a3d57600080fd5b506200034d62000a4f3660046200485a565b6200281f565b34801562000a6257600080fd5b506200034d62000a7436600462004c5d565b6200295d565b34801562000a8757600080fd5b506200034d62000a9936600462004b3e565b62002ca0565b34801562000aac57600080fd5b50620004267f77974cc9cb5bafc9bb265be792d93fa46355c05701895b82f6d3b4b448c8ce0081565b600054600290610100900460ff1615801562000af8575060005460ff8083169116105b62000b705760405162461bcd60e51b815260206004820152602e60248201527f496e697469616c697a61626c653a20636f6e747261637420697320616c72656160448201527f647920696e697469616c697a656400000000000000000000000000000000000060648201526084015b60405180910390fd5b600080547fffffffffffffffffffffffffffffffffffffffffffffffffffffffffffff00001660ff8316176101001790556001600160a01b03881662000bc9576040516342bcdf7f60e11b815260040160405180910390fd5b62000bd660008962002ddc565b6000606555600060d55562000bea62002e9e565b62000bf88585858562002f29565b62000c0487876200320f565b600080547fffffffffffffffffffffffffffffffffffffffffffffffffffffffffffff00ff16905560405160ff821681527f7f26b83ff96e1f2b6a682f133852f6798a09c465da95921460cefb38474024989060200160405180910390a15050505050505050565b60007fffffffff0000000000000000000000000000000000000000000000000000000082167f7965db0b00000000000000000000000000000000000000000000000000000000148062000d0057507f01ffc9a7000000000000000000000000000000000000000000000000000000007fffffffff000000000000000000000000000000000000000000000000000000008316145b92915050565b80600081600881111562000d1e5762000d1e62004ce1565b0362000d56576040517f85994c7700000000000000000000000000000000000000000000000000000000815260040160405180910390fd5b60d8600083600881111562000d6f5762000d6f62004ce1565b600881111562000d835762000d8362004ce1565b81526020019081526020016000205462000d9d81620033b1565b62000da88362002578565b62000de357826040517f1865965400000000000000000000000000000000000000000000000000000000815260040162000b67919062004d10565b82600881111562000df85762000df862004ce1565b60d68054600190921b19909116905582600881111562000e1c5762000e1c62004ce1565b7fd071d2b85dec4489435b541d2f0e2570db09b09db9efd8703948d44a433df65a335b6040516001600160a01b03909116815260200160405180910390a2505050565b816001600160a01b03811662000e88576040516342bcdf7f60e11b815260040160405180910390fd5b816001600160a01b03811662000eb1576040516342bcdf7f60e11b815260040160405180910390fd5b7f550554a677c8e7b73b62db78b0ef06c5f237da4ef30b88196a899ccf591041fe62000edd81620033b1565b6001600160a01b038086166000908152610109602052604090205486911615158062000f31575061010a546000908152610108602090815260408083206001600160a01b0385811685529252909120541615155b1562000f75576040517f12f3df090000000000000000000000000000000000000000000000000000000081526001600160a01b038216600482015260240162000b67565b6001600160a01b0385811660009081526101096020526040902054161562000fd5576040517ff8fb7c270000000000000000000000000000000000000000000000000000000081526001600160a01b038616600482015260240162000b67565b6001600160a01b038516610222148062000ff957506001600160a01b038516610333145b806200100f57506001600160a01b038516610111145b1562001053576040517fd8ce8acb0000000000000000000000000000000000000000000000000000000081526001600160a01b038616600482015260240162000b67565b61010b546000818152610108602090815260408083206001600160a01b038b811685529252909120541615620010c1576040517f022bc8410000000000000000000000000000000000000000000000000000000081526001600160a01b038816600482015260240162000b67565b6000818152610108602090815260408083206001600160a01b03808c168086529184528285208054918c167fffffffffffffffffffffffff00000000000000000000000000000000000000009283168117909155808652610109909452828520805490911682179055905133937f844cb5c635052898ad92bea4ece14519111765d835105e76aa1f77ad0d0aa81f91a450505050505050565b60c9546001600160a01b031633146200119f576040517f8c56efb100000000000000000000000000000000000000000000000000000000815260040160405180910390fd5b60ca5460c954604080517f67e404ce00000000000000000000000000000000000000000000000000000000815290516001600160a01b0393841693909216916367e404ce916004808201926020929091908290030181865afa1580156200120a573d6000803e3d6000fd5b505050506040513d601f19601f8201168201806040525081019062001230919062004d52565b6001600160a01b03161462001271576040517f79d1e58f00000000000000000000000000000000000000000000000000000000815260040160405180910390fd5b61010a5460005b82811015620013735760008281526101086020526040812061033391868685818110620012a957620012a962004d72565b9050602002016020810190620012c0919062004b3e565b6001600160a01b039081168252602082019290925260400160002080547fffffffffffffffffffffffff000000000000000000000000000000000000000016929091169190911790558383828181106200131e576200131e62004d72565b905060200201602081019062001335919062004b3e565b6001600160a01b03167f91d24864a084ab70b268a1f865e757ca12006cf298d763b6be697302ef86498c60405160405180910390a260010162001278565b50505050565b6000828152609760205260409020600101546200139681620033b1565b620013a2838362002ddc565b505050565b6001600160a01b0381163314620014275760405162461bcd60e51b815260206004820152602f60248201527f416363657373436f6e74726f6c3a2063616e206f6e6c792072656e6f756e636560448201527f20726f6c657320666f722073656c660000000000000000000000000000000000606482015260840162000b67565b620014338282620033c0565b5050565b8160008160088111156200144f576200144f62004ce1565b0362001487576040517f85994c7700000000000000000000000000000000000000000000000000000000815260040160405180910390fd5b7f56bdc3c9ec86cb7db110a7699b2ade72f0b8819727d9f7d906b012641505fa77620014b381620033b1565b600060d76000866008811115620014ce57620014ce62004ce1565b6008811115620014e257620014e262004ce1565b81526020019081526020016000205490508381036200152d576040517f1b807f5500000000000000000000000000000000000000000000000000000000815260040160405180910390fd5b8360d7600087600881111562001547576200154762004ce1565b60088111156200155b576200155b62004ce1565b8152602081019190915260400160002055808486600881111562001583576200158362004ce1565b6040517f074bfc3728ef1e98bde10bcb5bd8cde59cff190c2bfda5d22f879f865a07bac590600090a45050505050565b80516000819003620015f1576040517f10cbd58300000000000000000000000000000000000000000000000000000000815260040160405180910390fd5b60005b81811015620016ed576000610109600085848151811062001619576200161962004d72565b6020908102919091018101516001600160a01b039081168352908201929092526040016000205416905080620016a9578382815181106200165e576200165e62004d72565b60200260200101516040517fa5ea89da00000000000000000000000000000000000000000000000000000000815260040162000b6791906001600160a01b0391909116815260200190565b80848381518110620016bf57620016bf62004d72565b6001600160a01b03909216602092830291909101909101525080620016e48162004dd0565b915050620015f4565b5060c95460ca546040516001600160a01b0392831692639f3ce55a92349291169082906200172090889060240162004e0b565b60408051601f198184030181529181526020820180517bffffffffffffffffffffffffffffffffffffffffffffffffffffffff167f2a564f3400000000000000000000000000000000000000000000000000000000179052517fffffffff0000000000000000000000000000000000000000000000000000000060e087901b168152620017b39392919060040162004e5a565b6000604051808303818588803b158015620017cd57600080fd5b505af1158015620017e2573d6000803e3d6000fd5b5050505050336001600160a01b03167f59eab5b5f813ac9e0c10035dfb55b5e3419eff53c0f7a869fb3c22400ea036d68360405162001822919062004e0b565b60405180910390a25050565b826001600160a01b03811662001857576040516342bcdf7f60e11b815260040160405180910390fd5b816001600160a01b03811662001880576040516342bcdf7f60e11b815260040160405180910390fd5b8380600003620018c0576040517f4618044a0000000000000000000000000000000000000000000000000000000081526004810182905260240162000b67565b620018ca62003462565b620018d66007620034bd565b61010a546000818152610108602090815260408083206001600160a01b03808c168552925290912054167ffffffffffffffffffffffffffffffffffffffffffffffffffffffffffffffeef810162001966576040517f6dad9c780000000000000000000000000000000000000000000000000000000081526001600160a01b038916600482015260240162000b67565b6001600160a01b0380891660009081526101096020526040812054909116906060821562001a15576040517f9dc29fac000000000000000000000000000000000000000000000000000000008152336004820152602481018b90526001600160a01b038c1690639dc29fac90604401600060405180830381600087803b158015620019f057600080fd5b505af115801562001a05573d6000803e3d6000fd5b5050505061010b54915062001c4f565b6040517f70a082310000000000000000000000000000000000000000000000000000000081523060048201526000906001600160a01b038d16906370a0823190602401602060405180830381865afa15801562001a76573d6000803e3d6000fd5b505050506040513d601f19601f8201168201806040525081019062001a9c919062004e8d565b905062001ab56001600160a01b038d1633308e62003558565b6040517f70a0823100000000000000000000000000000000000000000000000000000000815230600482015281906001600160a01b038e16906370a0823190602401602060405180830381865afa15801562001b15573d6000803e3d6000fd5b505050506040513d601f19601f8201168201806040525081019062001b3b919062004e8d565b62001b47919062004ea7565b9a508b93506001600160a01b03851662001bf057610222610108600088815260200190815260200160002060008e6001600160a01b03166001600160a01b0316815260200190815260200160002060006101000a8154816001600160a01b0302191690836001600160a01b031602179055508b6001600160a01b03167f0f53e2a811b6fd2d6cd965fd6c27b44fb924ca39f7a7f321115705c22366d62360405160405180910390a25b6001600160a01b0385166103331462001c4a5762001c0e8c6200360b565b62001c198d6200371e565b62001c248e6200381e565b60405160200162001c389392919062004ebd565b60405160208183030381529060405291505b859250505b60c960009054906101000a90046001600160a01b03166001600160a01b0316639f3ce55a3460ca60009054906101000a90046001600160a01b031634878f8f898960405160240162001ca695949392919062004efa565b60408051601f198184030181529181526020820180517bffffffffffffffffffffffffffffffffffffffffffffffffffffffff167fe4d2745100000000000000000000000000000000000000000000000000000000179052517fffffffff0000000000000000000000000000000000000000000000000000000060e087901b16815262001d399392919060040162004e5a565b6000604051808303818588803b15801562001d5357600080fd5b505af115801562001d68573d6000803e3d6000fd5b50505050508a6001600160a01b0316896001600160a01b0316336001600160a01b03167f8780a94875b70464f8ac6c28851501d32e7fd4ee574e4b94beb28923a3c42d9c8d60405162001dbd91815260200190565b60405180910390a4505050505062001dd460018055565b505050505050565b81600081600881111562001df45762001df462004ce1565b0362001e2c576040517f85994c7700000000000000000000000000000000000000000000000000000000815260040160405180910390fd5b7fd8b4c34c2ec1f3194471108c64ad2beda340c0337ee4ca35592f9ef270f4228b62001e5881620033b1565b600060d8600086600881111562001e735762001e7362004ce1565b600881111562001e875762001e8762004ce1565b815260200190815260200160002054905083810362001ed2576040517f1b807f5500000000000000000000000000000000000000000000000000000000815260040160405180910390fd5b8360d8600087600881111562001eec5762001eec62004ce1565b600881111562001f005762001f0062004ce1565b8152602081019190915260400160002055808486600881111562001f285762001f2862004ce1565b6040517ff8ef9f1cde7c2c0d3aeb696678f76d7c1c3e13c3b79ea3c5160a2d9eaa821cfd90600090a45050505050565b7fbf094fe3c005c553ff0d33c7dff9d1273add12fb3f258b992f8d36224dd35b2462001f8481620033b1565b60ca546001600160a01b03161562001fd85760ca546040517f94fbfd2e0000000000000000000000000000000000000000000000000000000081526001600160a01b03909116600482015260240162000b67565b62001fe3826200394a565b60405133906001600160a01b038416907fb044c1a1a05a729c402def784b4e4cb01612ff03eee6f0beb3eba0f0606260a190600090a35050565b6200202f604082016020830162004b3e565b6001600160a01b03811662002057576040516342bcdf7f60e11b815260040160405180910390fd5b62002069606083016040840162004b3e565b6001600160a01b03811662002091576040516342bcdf7f60e11b815260040160405180910390fd5b826060013580600003620020d1576040517f488d765100000000000000000000000000000000000000000000000000000000815260040160405180910390fd5b83608001358060000362002111576040517f488d765100000000000000000000000000000000000000000000000000000000815260040160405180910390fd5b600054610100900460ff1615808015620021325750600054600160ff909116105b806200214e5750303b1580156200214e575060005460ff166001145b620021c25760405162461bcd60e51b815260206004820152602e60248201527f496e697469616c697a61626c653a20636f6e747261637420697320616c72656160448201527f647920696e697469616c697a6564000000000000000000000000000000000000606482015260840162000b67565b600080547fffffffffffffffffffffffffffffffffffffffffffffffffffffffffffffff0016600117905580156200222157600080547fffffffffffffffffffffffffffffffffffffffffffffffffffffffffffff00ff166101001790555b6200224a6200223460e088018862004f34565b620022446101008a018a62004f34565b62002f29565b6200226662002260604088016020890162004b3e565b620039d7565b6200227062002e9e565b600062002281602088018862004b3e565b6001600160a01b031603620022a9576040516342bcdf7f60e11b815260040160405180910390fd5b620022c46000620022be602089018962004b3e565b62002ddc565b620022dd620022d760c088018862004f34565b6200320f565b620022ef606087016040880162004b3e565b61010780547fffffffffffffffffffffffff0000000000000000000000000000000000000000166001600160a01b039290921691909117905560808601356060870135036200236a576040517fac867a5500000000000000000000000000000000000000000000000000000000815260040160405180910390fd5b606086013561010a55608086013561010b5560005b6200238e60a088018862004f9f565b90508110156200250c576000620023a960a089018962004f9f565b83818110620023bc57620023bc62004d72565b9050602002016020810190620023d3919062004b3e565b6001600160a01b031603620023fb576040516342bcdf7f60e11b815260040160405180910390fd5b6060870135600090815261010860205260408120610111916200242260a08b018b62004f9f565b8581811062002435576200243562004d72565b90506020020160208101906200244c919062004b3e565b6001600160a01b039081168252602082019290925260400160002080547fffffffffffffffffffffffff00000000000000000000000000000000000000001692909116919091179055620024a460a088018862004f9f565b82818110620024b757620024b762004d72565b9050602002016020810190620024ce919062004b3e565b6001600160a01b03167f5e023c7a09fa0534ce3199f65fc3e635a5e851c5adc88ebda3b9d332ae07cbe960405160405180910390a26001016200237f565b50801562001dd457600080547fffffffffffffffffffffffffffffffffffffffffffffffffffffffffffff00ff169055604051600181527f7f26b83ff96e1f2b6a682f133852f6798a09c465da95921460cefb38474024989060200160405180910390a1505050505050565b60008160088111156200258f576200258f62004ce1565b60d654600190911b16151592915050565b806001600160a01b038116620025c9576040516342bcdf7f60e11b815260040160405180910390fd5b7f77974cc9cb5bafc9bb265be792d93fa46355c05701895b82f6d3b4b448c8ce00620025f581620033b1565b60c980546001600160a01b038581167fffffffffffffffffffffffff00000000000000000000000000000000000000008316811790935560405191169133918391907fc96d462e42a71473da49a1d58c1754b9b2d319786692d621dc7f921331c517e990600090a450505050565b806001600160a01b0381166200268c576040516342bcdf7f60e11b815260040160405180910390fd5b6001600160a01b0380831660009081526101096020526040902054839116151580620026e0575061010a546000908152610108602090815260408083206001600160a01b0385811685529252909120541615155b1562002724576040517f12f3df090000000000000000000000000000000000000000000000000000000081526001600160a01b038216600482015260240162000b67565b7feaf25fcc6b7d45bda16c56628df3f435e20319ef53b065c11ee4510083f0ae2d6200275081620033b1565b61010a546000908152610108602090815260408083206001600160a01b038816808552925280832080547fffffffffffffffffffffffff0000000000000000000000000000000000000000166101111790555190917f5e023c7a09fa0534ce3199f65fc3e635a5e851c5adc88ebda3b9d332ae07cbe991a250505050565b600082815260976020526040902060010154620027eb81620033b1565b620013a28383620033c0565b80156200280b576200280b85838362003ab8565b620028188585856200182e565b5050505050565b80600081600881111562002837576200283762004ce1565b036200286f576040517f85994c7700000000000000000000000000000000000000000000000000000000815260040160405180910390fd5b60d7600083600881111562002888576200288862004ce1565b60088111156200289c576200289c62004ce1565b815260200190815260200160002054620028b681620033b1565b620028c18362002578565b15620028fd57826040517fc0a71b5800000000000000000000000000000000000000000000000000000000815260040162000b67919062004d10565b82600881111562002912576200291262004ce1565b60d68054600190921b909117905582600881111562002935576200293562004ce1565b7f534f879afd40abb4e39f8e1b77a316be4c8e3521d9cf5a3a3db8959d574d45593362000e3f565b6200296762003462565b60c9546001600160a01b03163314620029ac576040517f8c56efb100000000000000000000000000000000000000000000000000000000815260040160405180910390fd5b60ca5460c954604080517f67e404ce00000000000000000000000000000000000000000000000000000000815290516001600160a01b0393841693909216916367e404ce916004808201926020929091908290030181865afa15801562002a17573d6000803e3d6000fd5b505050506040513d601f19601f8201168201806040525081019062002a3d919062004d52565b6001600160a01b03161462002a7e576040517f79d1e58f00000000000000000000000000000000000000000000000000000000815260040160405180910390fd5b600862002a8b81620034bd565b6000848152610108602090815260408083206001600160a01b03808c1685529252822054169061022282148062002acc57506001600160a01b038216610333145b1562002aee5762002ae86001600160a01b038a16888a62003dd4565b62002c3b565b50806001600160a01b03811662002bbd5762002b1089868661010a5462003e1f565b9050886101096000836001600160a01b03166001600160a01b0316815260200190815260200160002060006101000a8154816001600160a01b0302191690836001600160a01b0316021790555080610108600061010b54815260200190815260200160002060008b6001600160a01b03166001600160a01b0316815260200190815260200160002060006101000a8154816001600160a01b0302191690836001600160a01b031602179055505b6040517f40c10f190000000000000000000000000000000000000000000000000000000081526001600160a01b038881166004830152602482018a90528216906340c10f1990604401600060405180830381600087803b15801562002c2157600080fd5b505af115801562002c36573d6000803e3d6000fd5b505050505b866001600160a01b0316816001600160a01b03168a6001600160a01b03167f6ed06519caca659cdefa71015c79a561928d3cf8cc4a3e9739fde9fb5fb38d648b60405162002c8b91815260200190565b60405180910390a450505062001dd460018055565b806001600160a01b03811662002cc9576040516342bcdf7f60e11b815260040160405180910390fd5b7f19bf281d118073c159a713666aba52e0d403520cd01e03f42e0f62a0b3bd4a3562002cf581620033b1565b61010a546000818152610108602090815260408083206001600160a01b038881168552925290912054166101111462002d66576040517f82f5d0a50000000000000000000000000000000000000000000000000000000081526001600160a01b038516600482015260240162000b67565b6000818152610108602090815260408083206001600160a01b038816808552925280832080547fffffffffffffffffffffffff00000000000000000000000000000000000000001690555190917f0145163d8d460d1ab21463758d147fdfe79d4b57c81ca3d1439996104ae6895991a250505050565b60008281526097602090815260408083206001600160a01b038516845290915290205460ff16620014335760008281526097602090815260408083206001600160a01b0385168452909152902080547fffffffffffffffffffffffffffffffffffffffffffffffffffffffffffffff0016600117905562002e5a3390565b6001600160a01b0316816001600160a01b0316837f2f8788117e7eff1d82e926ec794901d17c78024a50270940304540a733656f0d60405160405180910390a45050565b600054610100900460ff1662002f1d5760405162461bcd60e51b815260206004820152602b60248201527f496e697469616c697a61626c653a20636f6e7472616374206973206e6f74206960448201527f6e697469616c697a696e67000000000000000000000000000000000000000000606482015260840162000b67565b62002f2762003f4f565b565b600054610100900460ff1662002fa85760405162461bcd60e51b815260206004820152602b60248201527f496e697469616c697a61626c653a20636f6e7472616374206973206e6f74206960448201527f6e697469616c697a696e67000000000000000000000000000000000000000000606482015260840162000b67565b60005b83811015620030db5784848281811062002fc95762002fc962004d72565b9050604002016020013560d7600087878581811062002fec5762002fec62004d72565b6200300492602060409092020190810191506200485a565b600881111562003018576200301862004ce1565b60088111156200302c576200302c62004ce1565b815260208101919091526040016000205584848281811062003052576200305262004d72565b9050604002016020013585858381811062003071576200307162004d72565b6200308992602060409092020190810191506200485a565b60088111156200309d576200309d62004ce1565b6040517f33aa8fd1ce49e1761bc8d27fd53414bfefc45d690feed0ce55019d7d3aec609190600090a380620030d28162004dd0565b91505062002fab565b5060005b818110156200281857828282818110620030fd57620030fd62004d72565b9050604002016020013560d8600085858581811062003120576200312062004d72565b6200313892602060409092020190810191506200485a565b60088111156200314c576200314c62004ce1565b600881111562003160576200316062004ce1565b815260208101919091526040016000205582828281811062003186576200318662004d72565b90506040020160200135838383818110620031a557620031a562004d72565b620031bd92602060409092020190810191506200485a565b6008811115620031d157620031d162004ce1565b6040517fe7bf4b8dc0c17a52dc9e52323a3ab61cb2079db35f969125b1f8a3d984c6f6c290600090a380620032068162004dd0565b915050620030df565b600054610100900460ff166200328e5760405162461bcd60e51b815260206004820152602b60248201527f496e697469616c697a61626c653a20636f6e7472616374206973206e6f74206960448201527f6e697469616c697a696e67000000000000000000000000000000000000000000606482015260840162000b67565b60005b81811015620013a2576000838383818110620032b157620032b162004d72565b620032c9926020604090920201908101915062004b3e565b6001600160a01b031603620032f1576040516342bcdf7f60e11b815260040160405180910390fd5b82828281811062003306576200330662004d72565b905060400201602001356000801b036200334c576040517f0742d05300000000000000000000000000000000000000000000000000000000815260040160405180910390fd5b6200339c83838381811062003365576200336562004d72565b9050604002016020013584848481811062003384576200338462004d72565b620022be926020604090920201908101915062004b3e565b80620033a88162004dd0565b91505062003291565b620033bd813362003fce565b50565b60008281526097602090815260408083206001600160a01b038516845290915290205460ff1615620014335760008281526097602090815260408083206001600160a01b038516808552925280832080547fffffffffffffffffffffffffffffffffffffffffffffffffffffffffffffff0016905551339285917ff6391f5c32d9c69d2a47ea670b442974b53935d1edc7fd64eb21e047a839171b9190a45050565b600260015403620034b65760405162461bcd60e51b815260206004820152601f60248201527f5265656e7472616e637947756172643a207265656e7472616e742063616c6c00604482015260640162000b67565b6002600155565b60d654816008811115620034d557620034d562004ce1565b6001901b8116156200351757816040517fc0a71b5800000000000000000000000000000000000000000000000000000000815260040162000b67919062004d10565b6002811615620014335760016040517fc0a71b5800000000000000000000000000000000000000000000000000000000815260040162000b67919062004d10565b6040516001600160a01b0380851660248301528316604482015260648101829052620013739085907f23b872dd00000000000000000000000000000000000000000000000000000000906084015b60408051601f198184030181529190526020810180517bffffffffffffffffffffffffffffffffffffffffffffffffffffffff167fffffffff00000000000000000000000000000000000000000000000000000000909316929092179091526200404c565b60408051600481526024810182526020810180517bffffffffffffffffffffffffffffffffffffffffffffffffffffffff167f06fdde0300000000000000000000000000000000000000000000000000000000179052905160609160009182916001600160a01b038616916200368291906200500a565b600060405180830381855afa9150503d8060008114620036bf576040519150601f19603f3d011682016040523d82523d6000602084013e620036c4565b606091505b5091509150816200370b576040518060400160405280600781526020017f4e4f5f4e414d450000000000000000000000000000000000000000000000000081525062003716565b62003716816200413b565b949350505050565b60408051600481526024810182526020810180517bffffffffffffffffffffffffffffffffffffffffffffffffffffffff167f95d89b4100000000000000000000000000000000000000000000000000000000179052905160609160009182916001600160a01b038616916200379591906200500a565b600060405180830381855afa9150503d8060008114620037d2576040519150601f19603f3d011682016040523d82523d6000602084013e620037d7565b606091505b5091509150816200370b576040518060400160405280600981526020017f4e4f5f53594d424f4c000000000000000000000000000000000000000000000081525062003716565b60408051600481526024810182526020810180517bffffffffffffffffffffffffffffffffffffffffffffffffffffffff167f313ce567000000000000000000000000000000000000000000000000000000001790529051600091829182916001600160a01b038616916200389491906200500a565b600060405180830381855afa9150503d8060008114620038d1576040519150601f19603f3d011682016040523d82523d6000602084013e620038d6565b606091505b5091509150818015620038ea575060208151145b1562003906578080602001905181019062003716919062005038565b6040517fb5a2f1c60000000000000000000000000000000000000000000000000000000081526001600160a01b038516600482015260240162000b67565b60018055565b6001600160a01b03811662003972576040516342bcdf7f60e11b815260040160405180910390fd5b60ca80547fffffffffffffffffffffffff0000000000000000000000000000000000000000166001600160a01b0383169081179091556040513391907fe68b208814fdb633b222cd15e73d5a27fb4ef9eef4cae78c623bc27702141d2890600090a350565b600054610100900460ff1662003a565760405162461bcd60e51b815260206004820152602b60248201527f496e697469616c697a61626c653a20636f6e7472616374206973206e6f74206960448201527f6e697469616c697a696e67000000000000000000000000000000000000000000606482015260840162000b67565b6001600160a01b03811662003a7e576040516342bcdf7f60e11b815260040160405180910390fd5b60c980547fffffffffffffffffffffffff0000000000000000000000000000000000000000166001600160a01b0392909216919091179055565b7fd505accf0000000000000000000000000000000000000000000000000000000062003ae960046000848662005058565b62003af49162005084565b7fffffffff00000000000000000000000000000000000000000000000000000000161462003bb55762003b2c60046000838562005058565b62003b379162005084565b6040517fcf9e29460000000000000000000000000000000000000000000000000000000081527fffffffff0000000000000000000000000000000000000000000000000000000090911660048201527fd505accf00000000000000000000000000000000000000000000000000000000602482015260440162000b67565b600080808080808062003bcc886004818c62005058565b81019062003bdb9190620050cd565b9650965096509650965096509650336001600160a01b0316876001600160a01b03161462003c41576040517f200688cc0000000000000000000000000000000000000000000000000000000081526001600160a01b038816600482015260240162000b67565b6001600160a01b038616301462003c90576040517f291159480000000000000000000000000000000000000000000000000000000081526001600160a01b038716600482015260240162000b67565b6040517fdd62ed3e0000000000000000000000000000000000000000000000000000000081526001600160a01b03888116600483015287811660248301528691908c169063dd62ed3e90604401602060405180830381865afa15801562003cfb573d6000803e3d6000fd5b505050506040513d601f19601f8201168201806040525081019062003d21919062004e8d565b101562003dc8576040517fd505accf000000000000000000000000000000000000000000000000000000008152336004820152306024820152604481018690526064810185905260ff8416608482015260a4810183905260c481018290526001600160a01b038b169063d505accf9060e401600060405180830381600087803b15801562003dae57600080fd5b505af115801562003dc3573d6000803e3d6000fd5b505050505b50505050505050505050565b6040516001600160a01b038316602482015260448101829052620013a29084907fa9059cbb0000000000000000000000000000000000000000000000000000000090606401620035a6565b6000818152602085905260408120610107546040516001600160a01b039091169062003e4b90620046a2565b6001600160a01b0390911681526040602082018190526000908201526060018190604051809103906000f590508015801562003e8b573d6000803e3d6000fd5b5090506000808062003ea086880188620051cc565b925092509250836001600160a01b0316631624f6c68484846040518463ffffffff1660e01b815260040162003ed89392919062004ebd565b600060405180830381600087803b15801562003ef357600080fd5b505af115801562003f08573d6000803e3d6000fd5b50506040516001600160a01b03808c169350871691507fd5d4920bb61e6141c8499d50a7bd617dae2b1818c9d6b995d3f2ba4975e32ea490600090a3505050949350505050565b600054610100900460ff16620039445760405162461bcd60e51b815260206004820152602b60248201527f496e697469616c697a61626c653a20636f6e7472616374206973206e6f74206960448201527f6e697469616c697a696e67000000000000000000000000000000000000000000606482015260840162000b67565b60008281526097602090815260408083206001600160a01b038516845290915290205460ff16620014335762004004816200430e565b6200401183602062004321565b6040516020016200402492919062005242565b60408051601f198184030181529082905262461bcd60e51b825262000b679160040162004993565b6000620040a3826040518060400160405280602081526020017f5361666545524332303a206c6f772d6c6576656c2063616c6c206661696c6564815250856001600160a01b03166200456f9092919063ffffffff16565b9050805160001480620040c7575080806020019051810190620040c79190620052c7565b620013a25760405162461bcd60e51b815260206004820152602a60248201527f5361666545524332303a204552433230206f7065726174696f6e20646964206e60448201527f6f74207375636365656400000000000000000000000000000000000000000000606482015260840162000b67565b606060408251106200415d578180602001905181019062000d009190620052eb565b6020825114620041a057505060408051808201909152601281527f4e4f545f56414c49445f454e434f44494e470000000000000000000000000000602082015290565b60005b602081108015620041ee5750828181518110620041c457620041c462004d72565b01602001517fff000000000000000000000000000000000000000000000000000000000000001615155b15620041fd57600101620041a3565b806000036200424157505060408051808201909152601281527f4e4f545f56414c49445f454e434f44494e4700000000000000000000000000006020820152919050565b60008167ffffffffffffffff8111156200425f576200425f620049d5565b6040519080825280601f01601f1916602001820160405280156200428a576020820181803683370190505b50905060005b828110156200430657848181518110620042ae57620042ae62004d72565b602001015160f81c60f81b828281518110620042ce57620042ce62004d72565b60200101907effffffffffffffffffffffffffffffffffffffffffffffffffffffffffffff1916908160001a90535060010162004290565b509392505050565b606062000d006001600160a01b03831660145b606060006200433283600262005362565b6200433f9060026200537c565b67ffffffffffffffff8111156200435a576200435a620049d5565b6040519080825280601f01601f19166020018201604052801562004385576020820181803683370190505b5090507f300000000000000000000000000000000000000000000000000000000000000081600081518110620043bf57620043bf62004d72565b60200101907effffffffffffffffffffffffffffffffffffffffffffffffffffffffffffff1916908160001a9053507f78000000000000000000000000000000000000000000000000000000000000008160018151811062004425576200442562004d72565b60200101907effffffffffffffffffffffffffffffffffffffffffffffffffffffffffffff1916908160001a90535060006200446384600262005362565b620044709060016200537c565b90505b600181111562004517577f303132333435363738396162636465660000000000000000000000000000000085600f1660108110620044b557620044b562004d72565b1a60f81b828281518110620044ce57620044ce62004d72565b60200101907effffffffffffffffffffffffffffffffffffffffffffffffffffffffffffff1916908160001a90535060049490941c936200450f8162005392565b905062004473565b508315620045685760405162461bcd60e51b815260206004820181905260248201527f537472696e67733a20686578206c656e67746820696e73756666696369656e74604482015260640162000b67565b9392505050565b606062003716848460008585600080866001600160a01b031685876040516200459991906200500a565b60006040518083038185875af1925050503d8060008114620045d8576040519150601f19603f3d011682016040523d82523d6000602084013e620045dd565b606091505b5091509150620045f087838387620045fb565b979650505050505050565b606083156200466f57825160000362004667576001600160a01b0385163b620046675760405162461bcd60e51b815260206004820152601d60248201527f416464726573733a2063616c6c20746f206e6f6e2d636f6e7472616374000000604482015260640162000b67565b508162003716565b620037168383815115620046865781518083602001fd5b8060405162461bcd60e51b815260040162000b67919062004993565b6106f380620053cb83390190565b6001600160a01b0381168114620033bd57600080fd5b60008083601f840112620046d957600080fd5b50813567ffffffffffffffff811115620046f257600080fd5b6020830191508360208260061b85010111156200470e57600080fd5b9250929050565b60008060008060008060006080888a0312156200473157600080fd5b87356200473e81620046b0565b9650602088013567ffffffffffffffff808211156200475c57600080fd5b6200476a8b838c01620046c6565b909850965060408a01359150808211156200478457600080fd5b620047928b838c01620046c6565b909650945060608a0135915080821115620047ac57600080fd5b50620047bb8a828b01620046c6565b989b979a50959850939692959293505050565b600060208284031215620047e157600080fd5b81357fffffffff00000000000000000000000000000000000000000000000000000000811681146200456857600080fd5b600080604083850312156200482657600080fd5b8235915060208301356200483a81620046b0565b809150509250929050565b8035600981106200485557600080fd5b919050565b6000602082840312156200486d57600080fd5b620045688262004845565b600080604083850312156200488c57600080fd5b82356200489981620046b0565b915060208301356200483a81620046b0565b600060208284031215620048be57600080fd5b5035919050565b60008060208385031215620048d957600080fd5b823567ffffffffffffffff80821115620048f257600080fd5b818501915085601f8301126200490757600080fd5b8135818111156200491757600080fd5b8660208260051b85010111156200492d57600080fd5b60209290920196919550909350505050565b60005b838110156200495c57818101518382015260200162004942565b50506000910152565b600081518084526200497f8160208601602086016200493f565b601f01601f19169290920160200192915050565b60208152600062004568602083018462004965565b60008060408385031215620049bc57600080fd5b620049c78362004845565b946020939093013593505050565b7f4e487b7100000000000000000000000000000000000000000000000000000000600052604160045260246000fd5b604051601f8201601f1916810167ffffffffffffffff8111828210171562004a305762004a30620049d5565b604052919050565b6000602080838503121562004a4c57600080fd5b823567ffffffffffffffff8082111562004a6557600080fd5b818501915085601f83011262004a7a57600080fd5b81358181111562004a8f5762004a8f620049d5565b8060051b915062004aa284830162004a04565b818152918301840191848101908884111562004abd57600080fd5b938501935b8385101562004aeb578435925062004ada83620046b0565b828252938501939085019062004ac2565b98975050505050505050565b60008060006060848603121562004b0d57600080fd5b833562004b1a81620046b0565b925060208401359150604084013562004b3381620046b0565b809150509250925092565b60006020828403121562004b5157600080fd5b81356200456881620046b0565b60006020828403121562004b7157600080fd5b813567ffffffffffffffff81111562004b8957600080fd5b820161012081850312156200456857600080fd5b60008083601f84011262004bb057600080fd5b50813567ffffffffffffffff81111562004bc957600080fd5b6020830191508360208285010111156200470e57600080fd5b60008060008060006080868803121562004bfb57600080fd5b853562004c0881620046b0565b945060208601359350604086013562004c2181620046b0565b9250606086013567ffffffffffffffff81111562004c3e57600080fd5b62004c4c8882890162004b9d565b969995985093965092949392505050565b60008060008060008060a0878903121562004c7757600080fd5b863562004c8481620046b0565b955060208701359450604087013562004c9d81620046b0565b935060608701359250608087013567ffffffffffffffff81111562004cc157600080fd5b62004ccf89828a0162004b9d565b979a9699509497509295939492505050565b7f4e487b7100000000000000000000000000000000000000000000000000000000600052602160045260246000fd5b602081016009831062004d4c577f4e487b7100000000000000000000000000000000000000000000000000000000600052602160045260246000fd5b91905290565b60006020828403121562004d6557600080fd5b81516200456881620046b0565b7f4e487b7100000000000000000000000000000000000000000000000000000000600052603260045260246000fd5b7f4e487b7100000000000000000000000000000000000000000000000000000000600052601160045260246000fd5b60007fffffffffffffffffffffffffffffffffffffffffffffffffffffffffffffffff820362004e045762004e0462004da1565b5060010190565b6020808252825182820181905260009190848201906040850190845b8181101562004e4e5783516001600160a01b03168352928401929184019160010162004e27565b50909695505050505050565b6001600160a01b038416815282602082015260606040820152600062004e84606083018462004965565b95945050505050565b60006020828403121562004ea057600080fd5b5051919050565b8181038181111562000d005762000d0062004da1565b60608152600062004ed2606083018662004965565b828103602084015262004ee6818662004965565b91505060ff83166040830152949350505050565b60006001600160a01b03808816835286602084015280861660408401525083606083015260a06080830152620045f060a083018462004965565b60008083357fffffffffffffffffffffffffffffffffffffffffffffffffffffffffffffffe184360301811262004f6a57600080fd5b83018035915067ffffffffffffffff82111562004f8657600080fd5b6020019150600681901b36038213156200470e57600080fd5b60008083357fffffffffffffffffffffffffffffffffffffffffffffffffffffffffffffffe184360301811262004fd557600080fd5b83018035915067ffffffffffffffff82111562004ff157600080fd5b6020019150600581901b36038213156200470e57600080fd5b600082516200501e8184602087016200493f565b9190910192915050565b60ff81168114620033bd57600080fd5b6000602082840312156200504b57600080fd5b8151620045688162005028565b600080858511156200506957600080fd5b838611156200507757600080fd5b5050820193919092039150565b7fffffffff000000000000000000000000000000000000000000000000000000008135818116916004851015620050c55780818660040360031b1b83161692505b505092915050565b600080600080600080600060e0888a031215620050e957600080fd5b8735620050f681620046b0565b965060208801356200510881620046b0565b955060408801359450606088013593506080880135620051288162005028565b9699959850939692959460a0840135945060c09093013592915050565b600067ffffffffffffffff821115620051625762005162620049d5565b50601f01601f191660200190565b600082601f8301126200518257600080fd5b813562005199620051938262005145565b62004a04565b818152846020838601011115620051af57600080fd5b816020850160208301376000918101602001919091529392505050565b600080600060608486031215620051e257600080fd5b833567ffffffffffffffff80821115620051fb57600080fd5b620052098783880162005170565b945060208601359150808211156200522057600080fd5b506200522f8682870162005170565b925050604084013562004b338162005028565b7f416363657373436f6e74726f6c3a206163636f756e74200000000000000000008152600083516200527c8160178501602088016200493f565b7f206973206d697373696e6720726f6c65200000000000000000000000000000006017918401918201528351620052bb8160288401602088016200493f565b01602801949350505050565b600060208284031215620052da57600080fd5b815180151581146200456857600080fd5b600060208284031215620052fe57600080fd5b815167ffffffffffffffff8111156200531657600080fd5b8201601f810184136200532857600080fd5b805162005339620051938262005145565b8181528560208385010111156200534f57600080fd5b62004e848260208301602086016200493f565b808202811582820484141762000d005762000d0062004da1565b8082018082111562000d005762000d0062004da1565b600081620053a457620053a462004da1565b507fffffffffffffffffffffffffffffffffffffffffffffffffffffffffffffffff019056fe60806040526040516106f33803806106f383398101604081905261002291610420565b61002e82826000610035565b505061054a565b61003e836100f6565b6040516001600160a01b038416907f1cf3b03a6cf19fa2baba4df148e9dcabedea7f8a5c07840e207e5c089be95d3e90600090a260008251118061007f5750805b156100f1576100ef836001600160a01b0316635c60da1b6040518163ffffffff1660e01b8152600401602060405180830381865afa1580156100c5573d6000803e3d6000fd5b505050506040513d601f19601f820116820180604052508101906100e991906104e0565b8361027a565b505b505050565b6001600160a01b0381163b6101605760405162461bcd60e51b815260206004820152602560248201527f455243313936373a206e657720626561636f6e206973206e6f74206120636f6e6044820152641d1c9858dd60da1b60648201526084015b60405180910390fd5b6101d4816001600160a01b0316635c60da1b6040518163ffffffff1660e01b8152600401602060405180830381865afa1580156101a1573d6000803e3d6000fd5b505050506040513d601f19601f820116820180604052508101906101c591906104e0565b6001600160a01b03163b151590565b6102395760405162461bcd60e51b815260206004820152603060248201527f455243313936373a20626561636f6e20696d706c656d656e746174696f6e206960448201526f1cc81b9bdd08184818dbdb9d1c9858dd60821b6064820152608401610157565b7fa3f0ad74e5423aebfd80d3ef4346578335a9a72aeaee59ff6cb3582b35133d5080546001600160a01b0319166001600160a01b0392909216919091179055565b606061029f83836040518060600160405280602781526020016106cc602791396102a6565b9392505050565b6060600080856001600160a01b0316856040516102c391906104fb565b600060405180830381855af49150503d80600081146102fe576040519150601f19603f3d011682016040523d82523d6000602084013e610303565b606091505b5090925090506103158683838761031f565b9695505050505050565b6060831561038e578251600003610387576001600160a01b0385163b6103875760405162461bcd60e51b815260206004820152601d60248201527f416464726573733a2063616c6c20746f206e6f6e2d636f6e74726163740000006044820152606401610157565b5081610398565b61039883836103a0565b949350505050565b8151156103b05781518083602001fd5b8060405162461bcd60e51b81526004016101579190610517565b80516001600160a01b03811681146103e157600080fd5b919050565b634e487b7160e01b600052604160045260246000fd5b60005b838110156104175781810151838201526020016103ff565b50506000910152565b6000806040838503121561043357600080fd5b61043c836103ca565b60208401519092506001600160401b038082111561045957600080fd5b818501915085601f83011261046d57600080fd5b81518181111561047f5761047f6103e6565b604051601f8201601f19908116603f011681019083821181831017156104a7576104a76103e6565b816040528281528860208487010111156104c057600080fd5b6104d18360208301602088016103fc565b80955050505050509250929050565b6000602082840312156104f257600080fd5b61029f826103ca565b6000825161050d8184602087016103fc565b9190910192915050565b60208152600082518060208401526105368160408501602087016103fc565b601f01601f19169190910160400192915050565b610173806105596000396000f3fe60806040523661001357610011610017565b005b6100115b610027610022610029565b6100dc565b565b60006100697fa3f0ad74e5423aebfd80d3ef4346578335a9a72aeaee59ff6cb3582b35133d505473ffffffffffffffffffffffffffffffffffffffff1690565b73ffffffffffffffffffffffffffffffffffffffff16635c60da1b6040518163ffffffff1660e01b8152600401602060405180830381865afa1580156100b3573d6000803e3d6000fd5b505050506040513d601f19601f820116820180604052508101906100d79190610100565b905090565b3660008037600080366000845af43d6000803e8080156100fb573d6000f35b3d6000fd5b60006020828403121561011257600080fd5b815173ffffffffffffffffffffffffffffffffffffffff8116811461013657600080fd5b939250505056fea2646970667358221220662c40b76fc0d477a291a78deacd27f4cddd7512dea18087244e38acb2fd99dd64736f6c63430008130033416464726573733a206c6f772d6c6576656c2064656c65676174652063616c6c206661696c6564a264697066735822122017127dbd91dad7d7cea4f8ba3f5f77b3fca5fb0083bfdd6b2d059d4213c0e90a64736f6c63430008130033",
  "linkReferences": {},
  "deployedLinkReferences": {}
}