{
  "_format": "hh-sol-artifact-1",
  "contractName": "L1USDCBridge",
  "sourceName": "contracts/L1USDCBridge.sol",
  "abi": [
    {
      "inputs": [
        {
          "internalType": "uint256",
          "name": "amount",
          "type": "uint256"
        },
        {
          "internalType": "uint256",
          "name": "limit",
          "type": "uint256"
        }
      ],
      "name": "AmountTooBig",
      "type": "error"
    },
    {
      "inputs": [
        {
          "internalType": "address",
          "name": "addr",
          "type": "address"
        }
      ],
      "name": "NoBurnCapabilities",
      "type": "error"
    },
    {
      "inputs": [
        {
          "internalType": "address",
          "name": "addr",
          "type": "address"
        },
        {
          "internalType": "address",
          "name": "circleCaller",
          "type": "address"
        }
      ],
      "name": "NotCircleCaller",
      "type": "error"
    },
    {
      "inputs": [
        {
          "internalType": "address",
          "name": "sender",
          "type": "address"
        },
        {
          "internalType": "address",
          "name": "remoteUSDCBridge",
          "type": "address"
        }
      ],
      "name": "NotFromRemoteUSDCBridge",
      "type": "error"
    },
    {
      "inputs": [
        {
          "internalType": "address",
          "name": "addr",
          "type": "address"
        },
        {
          "internalType": "address",
          "name": "messageService",
          "type": "address"
        }
      ],
      "name": "NotMessageService",
      "type": "error"
    },
    {
      "inputs": [
        {
          "internalType": "address",
          "name": "remoteUSDCBridge",
          "type": "address"
        }
      ],
      "name": "RemoteUSDCBridgeAlreadySet",
      "type": "error"
    },
    {
      "inputs": [],
      "name": "RemoteUSDCBridgeNotSet",
      "type": "error"
    },
    {
      "inputs": [
        {
          "internalType": "address",
          "name": "circleCaller",
          "type": "address"
        }
      ],
      "name": "SameCircleCallerAddr",
      "type": "error"
    },
    {
      "inputs": [
        {
          "internalType": "address",
          "name": "messageService",
          "type": "address"
        }
      ],
      "name": "SameMessageServiceAddr",
      "type": "error"
    },
    {
      "inputs": [
        {
          "internalType": "uint256",
          "name": "amount",
          "type": "uint256"
        },
        {
          "internalType": "uint256",
          "name": "balance",
          "type": "uint256"
        }
      ],
      "name": "SenderBalanceTooLow",
      "type": "error"
    },
    {
      "inputs": [
        {
          "internalType": "address",
          "name": "addr",
          "type": "address"
        }
      ],
      "name": "ZeroAddressNotAllowed",
      "type": "error"
    },
    {
      "inputs": [
        {
          "internalType": "uint256",
          "name": "amount",
          "type": "uint256"
        }
      ],
      "name": "ZeroAmountNotAllowed",
      "type": "error"
    },
    {
      "anonymous": false,
      "inputs": [
        {
          "indexed": true,
          "internalType": "address",
          "name": "oldAddress",
          "type": "address"
        },
        {
          "indexed": true,
          "internalType": "address",
          "name": "newAddress",
          "type": "address"
        }
      ],
      "name": "CircleCallerUpdated",
      "type": "event"
    },
    {
      "anonymous": false,
      "inputs": [
        {
          "indexed": false,
          "internalType": "uint8",
          "name": "version",
          "type": "uint8"
        }
      ],
      "name": "Initialized",
      "type": "event"
    },
    {
      "anonymous": false,
      "inputs": [
        {
          "indexed": true,
          "internalType": "address",
          "name": "oldAddress",
          "type": "address"
        },
        {
          "indexed": true,
          "internalType": "address",
          "name": "newAddress",
          "type": "address"
        }
      ],
      "name": "MessageServiceUpdated",
      "type": "event"
    },
    {
      "anonymous": false,
      "inputs": [
        {
          "indexed": true,
          "internalType": "address",
          "name": "previousOwner",
          "type": "address"
        },
        {
          "indexed": true,
          "internalType": "address",
          "name": "newOwner",
          "type": "address"
        }
      ],
      "name": "OwnershipTransferred",
      "type": "event"
    },
    {
      "anonymous": false,
      "inputs": [
        {
          "indexed": false,
          "internalType": "address",
          "name": "account",
          "type": "address"
        }
      ],
      "name": "Paused",
      "type": "event"
    },
    {
      "anonymous": false,
      "inputs": [
        {
          "indexed": true,
          "internalType": "address",
          "name": "newRemoteUSDCBridge",
          "type": "address"
        }
      ],
      "name": "RemoteUSDCBridgeSet",
      "type": "event"
    },
    {
      "anonymous": false,
      "inputs": [
        {
          "indexed": false,
          "internalType": "address",
          "name": "account",
          "type": "address"
        }
      ],
      "name": "Unpaused",
      "type": "event"
    },
    {
      "inputs": [],
      "name": "balance",
      "outputs": [
        {
          "internalType": "uint256",
          "name": "",
          "type": "uint256"
        }
      ],
      "stateMutability": "view",
      "type": "function"
    },
    {
      "inputs": [
        {
          "internalType": "contract IMessageService",
          "name": "newMessageService",
          "type": "address"
        }
      ],
      "name": "changeMessageService",
      "outputs": [],
      "stateMutability": "nonpayable",
      "type": "function"
    },
    {
      "inputs": [
        {
          "internalType": "uint256",
          "name": "amount",
          "type": "uint256"
        }
      ],
      "name": "deposit",
      "outputs": [],
      "stateMutability": "payable",
      "type": "function"
    },
    {
      "inputs": [
        {
          "internalType": "uint256",
          "name": "amount",
          "type": "uint256"
        },
        {
          "internalType": "address",
          "name": "to",
          "type": "address"
        }
      ],
      "name": "depositTo",
      "outputs": [],
      "stateMutability": "payable",
      "type": "function"
    },
    {
      "inputs": [
        {
          "internalType": "contract IMessageService",
          "name": "_messageService",
          "type": "address"
        },
        {
          "internalType": "contract IUSDC",
          "name": "_usdc",
          "type": "address"
        }
      ],
      "name": "initialize",
      "outputs": [],
      "stateMutability": "nonpayable",
      "type": "function"
    },
    {
      "inputs": [],
      "name": "messageBridge",
      "outputs": [
        {
          "internalType": "contract IMessageBridge",
          "name": "",
          "type": "address"
        }
      ],
      "stateMutability": "view",
      "type": "function"
    },
    {
      "inputs": [],
      "name": "messageService",
      "outputs": [
        {
          "internalType": "contract IMessageService",
          "name": "",
          "type": "address"
        }
      ],
      "stateMutability": "view",
      "type": "function"
    },
    {
      "inputs": [],
      "name": "owner",
      "outputs": [
        {
          "internalType": "address",
          "name": "",
          "type": "address"
        }
      ],
      "stateMutability": "view",
      "type": "function"
    },
    {
      "inputs": [],
      "name": "pause",
      "outputs": [],
      "stateMutability": "nonpayable",
      "type": "function"
    },
    {
      "inputs": [],
      "name": "paused",
      "outputs": [
        {
          "internalType": "bool",
          "name": "",
          "type": "bool"
        }
      ],
      "stateMutability": "view",
      "type": "function"
    },
    {
      "inputs": [
        {
          "internalType": "address",
          "name": "recipient",
          "type": "address"
        },
        {
          "internalType": "uint256",
          "name": "amount",
          "type": "uint256"
        }
      ],
      "name": "receiveFromOtherLayer",
      "outputs": [],
      "stateMutability": "nonpayable",
      "type": "function"
    },
    {
      "inputs": [],
      "name": "remoteUSDCBridge",
      "outputs": [
        {
          "internalType": "address",
          "name": "",
          "type": "address"
        }
      ],
      "stateMutability": "view",
      "type": "function"
    },
    {
      "inputs": [],
      "name": "renounceOwnership",
      "outputs": [],
      "stateMutability": "nonpayable",
      "type": "function"
    },
    {
      "inputs": [
        {
          "internalType": "address",
          "name": "to",
          "type": "address"
        },
        {
          "internalType": "uint256",
          "name": "amount",
          "type": "uint256"
        }
      ],
      "name": "rescueTransfer",
      "outputs": [],
      "stateMutability": "nonpayable",
      "type": "function"
    },
    {
      "inputs": [
        {
          "internalType": "address",
          "name": "_remoteUSDCBridge",
          "type": "address"
        }
      ],
      "name": "setRemoteUSDCBridge",
      "outputs": [],
      "stateMutability": "nonpayable",
      "type": "function"
    },
    {
      "inputs": [
        {
          "internalType": "address",
          "name": "newOwner",
          "type": "address"
        }
      ],
      "name": "transferOwnership",
      "outputs": [],
      "stateMutability": "nonpayable",
      "type": "function"
    },
    {
      "inputs": [],
      "name": "unpause",
      "outputs": [],
      "stateMutability": "nonpayable",
      "type": "function"
    },
    {
      "inputs": [],
      "name": "usdc",
      "outputs": [
        {
          "internalType": "contract IUSDC",
          "name": "",
          "type": "address"
        }
      ],
      "stateMutability": "view",
      "type": "function"
    }
  ],
  "bytecode": "0x608060405234801561001057600080fd5b5061001961001e565b6100de565b600054610100900460ff161561008a5760405162461bcd60e51b815260206004820152602760248201527f496e697469616c697a61626c653a20636f6e747261637420697320696e697469604482015266616c697a696e6760c81b606482015260840160405180910390fd5b60005460ff90811610156100dc576000805460ff191660ff9081179091556040519081527f7f26b83ff96e1f2b6a682f133852f6798a09c465da95921460cefb38474024989060200160405180910390a15b565b61155a806100ed6000396000f3fe6080604052600436106101095760003560e01c806370aff70f116100955780638dae45dd116100645780638dae45dd146102a0578063a7052cab146102c0578063b69ef8a8146102e0578063b6b55f2514610304578063f2fde38b1461031757600080fd5b806370aff70f14610245578063715018a6146102585780638456cb591461026d5780638da5cb5b1461028257600080fd5b80633e413bee116100dc5780633e413bee146101ad5780633f4ba83a146101cd578063485cc955146101e25780635c975abb1461020257806366e6a8551461022557600080fd5b8063151fcebe1461010e57806326dfbc2014610130578063278e04cc1461015057806333a42db114610170575b600080fd5b34801561011a57600080fd5b5061012e6101293660046112d0565b610337565b005b34801561013c57600080fd5b5061012e61014b3660046112ed565b610406565b34801561015c57600080fd5b5061012e61016b3660046112d0565b61059b565b34801561017c57600080fd5b50609854610190906001600160a01b031681565b6040516001600160a01b0390911681526020015b60405180910390f35b3480156101b957600080fd5b50609954610190906001600160a01b031681565b3480156101d957600080fd5b5061012e610626565b3480156101ee57600080fd5b5061012e6101fd366004611319565b610638565b34801561020e57600080fd5b5060335460ff1660405190151581526020016101a4565b34801561023157600080fd5b50609754610190906001600160a01b031681565b61012e610253366004611352565b610783565b34801561026457600080fd5b5061012e6108bc565b34801561027957600080fd5b5061012e6108ce565b34801561028e57600080fd5b506065546001600160a01b0316610190565b3480156102ac57600080fd5b50609b54610190906001600160a01b031681565b3480156102cc57600080fd5b5061012e6102db3660046112ed565b6108de565b3480156102ec57600080fd5b506102f6609a5481565b6040519081526020016101a4565b61012e610312366004611377565b6109de565b34801561032357600080fd5b5061012e6103323660046112d0565b610adc565b61033f610b55565b806001600160a01b038116610377576040516302a042e760e11b81526001600160a01b03821660048201526024015b60405180910390fd5b609b546001600160a01b038084169116036103b357609b546040516264dc5760e91b81526001600160a01b03909116600482015260240161036e565b609b80546001600160a01b038481166001600160a01b0319831681179093556040519116919082907f0d6365bdd6ffd3d8fb83691ea1eb4947dd043cceca1a957681a6d2b6050816e290600090a3505050565b609b546001600160a01b0316331461044657609b54604051632fe49e3f60e11b81523360048201526001600160a01b03909116602482015260440161036e565b609754609b54604080516333f2026760e11b815290516001600160a01b0393841693909216916367e404ce916004808201926020929091908290030181865afa158015610497573d6000803e3d6000fd5b505050506040513d601f19601f820116820180604052508101906104bb9190611390565b6001600160a01b03161461056f57609b60009054906101000a90046001600160a01b03166001600160a01b03166367e404ce6040518163ffffffff1660e01b8152600401602060405180830381865afa15801561051c573d6000803e3d6000fd5b505050506040513d601f19601f820116820180604052508101906105409190611390565b60975460405163ba26b8dd60e01b81526001600160a01b0392831660048201529116602482015260440161036e565b609954610586906001600160a01b03168383610baf565b80609a5461059491906113c3565b609a555050565b6105a3610b55565b6097546001600160a01b0316156105dc5760975460405163ead0f3ef60e01b81526001600160a01b03909116600482015260240161036e565b609780546001600160a01b0319166001600160a01b0383169081179091556040517f5303c9046615f202c2c30e2441fabee4ef1a3597170254aa4870a147c5cb7e3490600090a250565b61062e610b55565b610636610c12565b565b600054610100900460ff16158080156106585750600054600160ff909116105b806106725750303b158015610672575060005460ff166001145b6106d55760405162461bcd60e51b815260206004820152602e60248201527f496e697469616c697a61626c653a20636f6e747261637420697320616c72656160448201526d191e481a5b9a5d1a585b1a5e995960921b606482015260840161036e565b6000805460ff1916600117905580156106f8576000805461ff0019166101001790555b610700610c64565b610708610c93565b609b80546001600160a01b038086166001600160a01b0319928316179092556099805492851692909116919091179055801561077e576000805461ff0019169055604051600181527f7f26b83ff96e1f2b6a682f133852f6798a09c465da95921460cefb38474024989060200160405180910390a15b505050565b61078b610cc2565b6097546001600160a01b03166107b457604051631033791960e31b815260040160405180910390fd5b81806000036107d95760405163230c022560e11b81526004810182905260240161036e565b816001600160a01b03811661080c576040516302a042e760e11b81526001600160a01b038216600482015260240161036e565b6099546040516370a0823160e01b815233600482015285916000916001600160a01b03909116906370a0823190602401602060405180830381865afa158015610859573d6000803e3d6000fd5b505050506040513d601f19601f8201168201806040525081019061087d91906113dc565b9050818110156108aa576040516315a9a40960e31b8152600481018390526024810182905260440161036e565b6108b48686610d08565b505050505050565b6108c4610b55565b6106366000610d30565b6108d6610b55565b610636610d82565b6108e6610b55565b816001600160a01b038116610919576040516302a042e760e11b81526001600160a01b038216600482015260240161036e565b609a546099546040516370a0823160e01b8152306004820152600092916001600160a01b0316906370a0823190602401602060405180830381865afa158015610966573d6000803e3d6000fd5b505050506040513d601f19601f8201168201806040525081019061098a91906113dc565b61099491906113c3565b9050808311156109c1576040516328c4086d60e01b8152600481018490526024810182905260440161036e565b6099546109d8906001600160a01b03168585610baf565b50505050565b6109e6610cc2565b6097546001600160a01b0316610a0f57604051631033791960e31b815260040160405180910390fd5b8080600003610a345760405163230c022560e11b81526004810182905260240161036e565b6099546040516370a0823160e01b815233600482015283916000916001600160a01b03909116906370a0823190602401602060405180830381865afa158015610a81573d6000803e3d6000fd5b505050506040513d601f19601f82011682018060405250810190610aa591906113dc565b905081811015610ad2576040516315a9a40960e31b8152600481018390526024810182905260440161036e565b6109d88433610d08565b610ae4610b55565b6001600160a01b038116610b495760405162461bcd60e51b815260206004820152602660248201527f4f776e61626c653a206e6577206f776e657220697320746865207a65726f206160448201526564647265737360d01b606482015260840161036e565b610b5281610d30565b50565b6065546001600160a01b031633146106365760405162461bcd60e51b815260206004820181905260248201527f4f776e61626c653a2063616c6c6572206973206e6f7420746865206f776e6572604482015260640161036e565b6040516001600160a01b03831660248201526044810182905261077e90849063a9059cbb60e01b906064015b60408051601f198184030181529190526020810180516001600160e01b03166001600160e01b031990931692909217909152610dbf565b610c1a610e91565b6033805460ff191690557f5db9ee0a495bf2e6ff9c91a7834c1ba4fdd244a5e8aa4e537bd38aeae4b073aa335b6040516001600160a01b03909116815260200160405180910390a1565b600054610100900460ff16610c8b5760405162461bcd60e51b815260040161036e906113f5565b610636610eda565b600054610100900460ff16610cba5760405162461bcd60e51b815260040161036e906113f5565b610636610f0d565b60335460ff16156106365760405162461bcd60e51b815260206004820152601060248201526f14185d5cd8589b194e881c185d5cd95960821b604482015260640161036e565b6000610d1383610f3d565b905080609a54610d239190611440565b609a5561077e8183611046565b606580546001600160a01b038381166001600160a01b0319831681179093556040519116919082907f8be0079c531659141344cd1fd0a4f28419497f9722a3daafe3b4186f6b6457e090600090a35050565b610d8a610cc2565b6033805460ff191660011790557f62e78cea01bee320cd4e420270b5ea74000d11b0c9f74754ebdbfc544b05a258610c473390565b6000610e14826040518060400160405280602081526020017f5361666545524332303a206c6f772d6c6576656c2063616c6c206661696c6564815250856001600160a01b03166110f39092919063ffffffff16565b80519091501561077e5780806020019051810190610e329190611453565b61077e5760405162461bcd60e51b815260206004820152602a60248201527f5361666545524332303a204552433230206f7065726174696f6e20646964206e6044820152691bdd081cdd58d8d9595960b21b606482015260840161036e565b60335460ff166106365760405162461bcd60e51b815260206004820152601460248201527314185d5cd8589b194e881b9bdd081c185d5cd95960621b604482015260640161036e565b600054610100900460ff16610f015760405162461bcd60e51b815260040161036e906113f5565b6033805460ff19169055565b600054610100900460ff16610f345760405162461bcd60e51b815260040161036e906113f5565b61063633610d30565b6099546040516370a0823160e01b815230600482015260009182916001600160a01b03909116906370a0823190602401602060405180830381865afa158015610f8a573d6000803e3d6000fd5b505050506040513d601f19601f82011682018060405250810190610fae91906113dc565b609954909150610fc9906001600160a01b031633308661110a565b6099546040516370a0823160e01b815230600482015282916001600160a01b0316906370a0823190602401602060405180830381865afa158015611011573d6000803e3d6000fd5b505050506040513d601f19601f8201168201806040525081019061103591906113dc565b61103f91906113c3565b9392505050565b609b54609754604080516001600160a01b038581166024830152604480830188905283518084039091018152606490920183526020820180516001600160e01b0316630136fde160e51b1790529151634f9e72ad60e11b815293821693639f3ce55a9334936110bd939116918491906004016114c5565b6000604051808303818588803b1580156110d657600080fd5b505af11580156110ea573d6000803e3d6000fd5b50505050505050565b60606111028484600085611142565b949350505050565b6040516001600160a01b03808516602483015283166044820152606481018290526109d89085906323b872dd60e01b90608401610bdb565b6060824710156111a35760405162461bcd60e51b815260206004820152602660248201527f416464726573733a20696e73756666696369656e742062616c616e636520666f6044820152651c8818d85b1b60d21b606482015260840161036e565b600080866001600160a01b031685876040516111bf91906114f5565b60006040518083038185875af1925050503d80600081146111fc576040519150601f19603f3d011682016040523d82523d6000602084013e611201565b606091505b50915091506112128783838761121d565b979650505050505050565b6060831561128c578251600003611285576001600160a01b0385163b6112855760405162461bcd60e51b815260206004820152601d60248201527f416464726573733a2063616c6c20746f206e6f6e2d636f6e7472616374000000604482015260640161036e565b5081611102565b61110283838151156112a15781518083602001fd5b8060405162461bcd60e51b815260040161036e9190611511565b6001600160a01b0381168114610b5257600080fd5b6000602082840312156112e257600080fd5b813561103f816112bb565b6000806040838503121561130057600080fd5b823561130b816112bb565b946020939093013593505050565b6000806040838503121561132c57600080fd5b8235611337816112bb565b91506020830135611347816112bb565b809150509250929050565b6000806040838503121561136557600080fd5b823591506020830135611347816112bb565b60006020828403121561138957600080fd5b5035919050565b6000602082840312156113a257600080fd5b815161103f816112bb565b634e487b7160e01b600052601160045260246000fd5b818103818111156113d6576113d66113ad565b92915050565b6000602082840312156113ee57600080fd5b5051919050565b6020808252602b908201527f496e697469616c697a61626c653a20636f6e7472616374206973206e6f74206960408201526a6e697469616c697a696e6760a81b606082015260800190565b808201808211156113d6576113d66113ad565b60006020828403121561146557600080fd5b8151801515811461103f57600080fd5b60005b83811015611490578181015183820152602001611478565b50506000910152565b600081518084526114b1816020860160208601611475565b601f01601f19169290920160200192915050565b60018060a01b03841681528260208201526060604082015260006114ec6060830184611499565b95945050505050565b60008251611507818460208701611475565b9190910192915050565b60208152600061103f602083018461149956fea26469706673582212206f2be27ee4524e8179c69a2cef141800dd240184b4ce504ca8ce6a648021cd2c64736f6c63430008130033",
  "linkReferences": {},
  "deployedLinkReferences": {}
}