{
  "_format": "hh-sol-artifact-1",
  "contractName": "LidoStVaultYieldProviderFactory",
  "sourceName": "contracts/yield/LidoStVaultYieldProviderFactory.sol",
  "abi": [
    {
      "inputs": [
        {
          "internalType": "address",
          "name": "_l1MessageService",
          "type": "address"
        },
        {
          "internalType": "address",
          "name": "_yieldManager",
          "type": "address"
        },
        {
          "internalType": "address",
          "name": "_vaultHub",
          "type": "address"
        },
        {
          "internalType": "address",
          "name": "_vaultFactory",
          "type": "address"
        },
        {
          "internalType": "address",
          "name": "_steth",
          "type": "address"
        },
        {
          "internalType": "address",
          "name": "_validatorContainerProofVerifier",
          "type": "address"
        }
      ],
      "stateMutability": "nonpayable",
      "type": "constructor"
    },
    {
      "inputs": [],
      "name": "ZeroAddressNotAllowed",
      "type": "error"
    },
    {
      "anonymous": false,
      "inputs": [
        {
          "indexed": true,
          "internalType": "address",
          "name": "providerAddress",
          "type": "address"
        }
      ],
      "name": "LidoStVaultYieldProviderCreated",
      "type": "event"
    },
    {
      "anonymous": false,
      "inputs": [
        {
          "indexed": false,
          "internalType": "address",
          "name": "l1MessageService",
          "type": "address"
        },
        {
          "indexed": false,
          "internalType": "address",
          "name": "yieldManager",
          "type": "address"
        },
        {
          "indexed": false,
          "internalType": "address",
          "name": "vaultHub",
          "type": "address"
        },
        {
          "indexed": false,
          "internalType": "address",
          "name": "vaultFactory",
          "type": "address"
        },
        {
          "indexed": false,
          "internalType": "address",
          "name": "steth",
          "type": "address"
        },
        {
          "indexed": false,
          "internalType": "address",
          "name": "_validatorContainerProofVerifier",
          "type": "address"
        }
      ],
      "name": "LidoStVaultYieldProviderFactoryDeployed",
      "type": "event"
    },
    {
      "inputs": [],
      "name": "L1_MESSAGE_SERVICE",
      "outputs": [
        {
          "internalType": "address",
          "name": "",
          "type": "address"
        }
      ],
      "stateMutability": "view",
      "type": "function"
    },
    {
      "inputs": [],
      "name": "STETH",
      "outputs": [
        {
          "internalType": "address",
          "name": "",
          "type": "address"
        }
      ],
      "stateMutability": "view",
      "type": "function"
    },
    {
      "inputs": [],
      "name": "VALIDATOR_CONTAINER_PROOF_VERIFIER",
      "outputs": [
        {
          "internalType": "address",
          "name": "",
          "type": "address"
        }
      ],
      "stateMutability": "view",
      "type": "function"
    },
    {
      "inputs": [],
      "name": "VAULT_FACTORY",
      "outputs": [
        {
          "internalType": "address",
          "name": "",
          "type": "address"
        }
      ],
      "stateMutability": "view",
      "type": "function"
    },
    {
      "inputs": [],
      "name": "VAULT_HUB",
      "outputs": [
        {
          "internalType": "address",
          "name": "",
          "type": "address"
        }
      ],
      "stateMutability": "view",
      "type": "function"
    },
    {
      "inputs": [],
      "name": "YIELD_MANAGER",
      "outputs": [
        {
          "internalType": "address",
          "name": "",
          "type": "address"
        }
      ],
      "stateMutability": "view",
      "type": "function"
    },
    {
      "inputs": [],
      "name": "createLidoStVaultYieldProvider",
      "outputs": [
        {
          "internalType": "address",
          "name": "yieldProviderAddress",
          "type": "address"
        }
      ],
      "stateMutability": "nonpayable",
      "type": "function"
    }
  ],
  "bytecode": "0x610140604052348015610010575f5ffd5b50604051613b2f380380613b2f83398101604081905261002f91610144565b610038866100ff565b610041856100ff565b61004a846100ff565b610053836100ff565b61005c826100ff565b610065816100ff565b6001600160a01b03868116608081815287831660a081815288851660c081815289871660e08190528988166101008190529789166101208190526040805198895260208901969096528786019390935260608701529385019590955283019390935291517f4bb3dcd3042ac2337bbd0784169d9d1f22204b5e98046c5a9e257aab2b1868da929181900390910190a15050505050506101b4565b6001600160a01b038116610126576040516342bcdf7f60e11b815260040160405180910390fd5b50565b80516001600160a01b038116811461013f575f5ffd5b919050565b5f5f5f5f5f5f60c08789031215610159575f5ffd5b61016287610129565b955061017060208801610129565b945061017e60408801610129565b935061018c60608801610129565b925061019a60808801610129565b91506101a860a08801610129565b90509295509295509295565b60805160a05160c05160e051610100516101205161390d6102225f395f8181610121015261024101525f8181610177015261022001525f8181608301526101ff01525f818160d301526101de01525f818160fa01526101bd01525f8181610148015261019c015261390d5ff3fe608060405234801561000f575f5ffd5b506004361061007a575f3560e01c80632ffcc770116100585780632ffcc7701461011c57806369bd096e14610143578063a17dcb7c1461016a578063e00bfe5014610172575f5ffd5b8063103f29071461007e578063196b9e06146100ce578063219ebb9c146100f5575b5f5ffd5b6100a57f000000000000000000000000000000000000000000000000000000000000000081565b60405173ffffffffffffffffffffffffffffffffffffffff909116815260200160405180910390f35b6100a57f000000000000000000000000000000000000000000000000000000000000000081565b6100a57f000000000000000000000000000000000000000000000000000000000000000081565b6100a57f000000000000000000000000000000000000000000000000000000000000000081565b6100a57f000000000000000000000000000000000000000000000000000000000000000081565b6100a5610199565b6100a57f000000000000000000000000000000000000000000000000000000000000000081565b5f7f00000000000000000000000000000000000000000000000000000000000000007f00000000000000000000000000000000000000000000000000000000000000007f00000000000000000000000000000000000000000000000000000000000000007f00000000000000000000000000000000000000000000000000000000000000007f00000000000000000000000000000000000000000000000000000000000000007f000000000000000000000000000000000000000000000000000000000000000060405161026c90610310565b73ffffffffffffffffffffffffffffffffffffffff96871681529486166020860152928516604085015290841660608401528316608083015290911660a082015260c001604051809103905ff0801580156102c9573d5f5f3e3d5ffd5b5060405190915073ffffffffffffffffffffffffffffffffffffffff8216907f4f419efdc389a72f440f10744ac4f20e7170e64e34cb59407ed6b8b1015e2e95905f90a290565b6135ba8061031e8339019056fe610140604052348015610010575f5ffd5b506040516135ba3803806135ba83398101604081905261002f9161014a565b858561003a82610105565b61004381610105565b6001600160a01b039182166080521660a05261005e84610105565b61006783610105565b61007082610105565b61007981610105565b6001600160a01b0384811660c081815285831660e0819052858416610100819052858516610120819052604080518d88168152968c1660208801528601949094526060850191909152608084015260a08301919091527fe283f5e226f8f707624a9da5fa19c9a091062a6760a14b666393f89863a24592910160405180910390a15050505050506101ba565b6001600160a01b03811661012c576040516342bcdf7f60e11b815260040160405180910390fd5b50565b80516001600160a01b0381168114610145575f5ffd5b919050565b5f5f5f5f5f5f60c0878903121561015f575f5ffd5b6101688761012f565b95506101766020880161012f565b94506101846040880161012f565b93506101926060880161012f565b92506101a06080880161012f565b91506101ae60a0880161012f565b90509295509295509295565b60805160a05160c05160e051610100516101205161330a6102b05f395f818161023801528181611fca015261209201525f818161046b0152818161180201528181611d7f015261231801525f8181610182015261117701525f81816101d201528181610a3f01528181610d4d01528181611056015261194701525f8181610205015281816104d30152818161065a015281816107b701528181610949015281816109c201528181610b1c01528181610c0c01528181610c950152818161110f0152818161126101528181611374015281816115390152818161160701528181611a4f0152611b5701525f6102df015261330a5ff3fe60806040526004361061016d575f3560e01c806393c34bc7116100c6578063ccf351bc1161007c578063e00bfe5011610057578063e00bfe501461045a578063e91c46c31461048d578063ef8cf92d146104a8575f5ffd5b8063ccf351bc146103e8578063d6e6df6f14610407578063d787c5591461043b575f5ffd5b8063a8caf012116100ac578063a8caf0121461037e578063c4911bd2146103aa578063cb838fde146103c9575f5ffd5b806393c34bc7146103335780639603fc3414610352575f5ffd5b80633e4903b71161012657806369bd096e1161010157806369bd096e146102ce57806372cdd4d31461030157806374f6941114610320575f5ffd5b80633e4903b71461027b5780635c7bb1631461029c5780636456e114146102bb575f5ffd5b8063219ebb9c11610156578063219ebb9c146101f45780632ffcc770146102275780633a4952a31461025a575f5ffd5b8063103f290714610171578063196b9e06146101c1575b5f5ffd5b34801561017c575f5ffd5b506101a47f000000000000000000000000000000000000000000000000000000000000000081565b6040516001600160a01b0390911681526020015b60405180910390f35b3480156101cc575f5ffd5b506101a47f000000000000000000000000000000000000000000000000000000000000000081565b3480156101ff575f5ffd5b506101a47f000000000000000000000000000000000000000000000000000000000000000081565b348015610232575f5ffd5b506101a47f000000000000000000000000000000000000000000000000000000000000000081565b61026d610268366004612451565b6104c7565b6040519081526020016101b8565b348015610286575f5ffd5b5061029a61029536600461246c565b61064f565b005b3480156102a7575f5ffd5b5061029a6102b63660046124ab565b6107ac565b61029a6102c9366004612657565b61093e565b3480156102d9575f5ffd5b506101a47f000000000000000000000000000000000000000000000000000000000000000081565b34801561030c575f5ffd5b5061029a61031b3660046126b1565b6109b7565b61026d61032e366004612742565b610b10565b34801561033e575f5ffd5b5061029a61034d366004612451565b610c01565b34801561035d575f5ffd5b5061037161036c366004612451565b610c89565b6040516101b8919061281e565b348015610389575f5ffd5b5061039d610398366004612838565b6110e1565b6040516101b89190612882565b3480156103b5575f5ffd5b5061029a6103c4366004612451565b611256565b3480156103d4575f5ffd5b5061029a6103e3366004612657565b611369565b3480156103f3575f5ffd5b5061029a6104023660046124ab565b61152e565b348015610412575f5ffd5b50610426610421366004612451565b6115fa565b604080519283526020830191909152016101b8565b348015610446575f5ffd5b5061029a610455366004612451565b611a44565b348015610465575f5ffd5b506101a47f000000000000000000000000000000000000000000000000000000000000000081565b348015610498575f5ffd5b5061026d670de0b6b3a764000081565b3480156104b3575f5ffd5b5061029a6104c2366004612451565b611b4c565b5f306001600160a01b037f00000000000000000000000000000000000000000000000000000000000000001614610511576040516356adf13560e11b815260040160405180910390fd5b6001600160a01b0382165f9081527fdc1272075efdca0b85fb2d76cbb5f26d954dc18e040d6d0b67071bd5cbd043076020526040902080546301000000900460ff166105d257805f0160049054906101000a90046001600160a01b03166001600160a01b0316632959843a6040518163ffffffff1660e01b8152600401602060405180830381865afa1580156105a9573d5f5f3e3d5ffd5b505050506040513d601f19601f820116820180604052508101906105cd91906128cc565b610648565b806001015f9054906101000a90046001600160a01b03166001600160a01b031663ab2f0e516040518163ffffffff1660e01b8152600401602060405180830381865afa158015610624573d5f5f3e3d5ffd5b505050506040513d601f19601f8201168201806040525081019061064891906128cc565b9392505050565b306001600160a01b037f00000000000000000000000000000000000000000000000000000000000000001614610698576040516356adf13560e11b815260040160405180910390fd5b6001600160a01b0383165f9081527fdc1272075efdca0b85fb2d76cbb5f26d954dc18e040d6d0b67071bd5cbd0430760205260409020805462010000900460ff16806106ec575080546301000000900460ff165b15610723576040517f80e8f53f00000000000000000000000000000000000000000000000000000000815260040160405180910390fd5b80546040517f50d99dd40000000000000000000000000000000000000000000000000000000081526001600160a01b03848116600483015260248201869052640100000000909204909116906350d99dd4906044015b5f604051808303815f87803b158015610790575f5ffd5b505af11580156107a2573d5f5f3e3d5ffd5b5050505050505050565b306001600160a01b037f000000000000000000000000000000000000000000000000000000000000000016146107f5576040516356adf13560e11b815260040160405180910390fd5b6001600160a01b0382165f9081527fdc1272075efdca0b85fb2d76cbb5f26d954dc18e040d6d0b67071bd5cbd04307602052604090208054610100900460ff1615610877575f6040517f69f6516d00000000000000000000000000000000000000000000000000000000815260040161086e91906128e3565b60405180910390fd5b805462010000900460ff1680610895575080546301000000900460ff165b156108ce575f6040517f3c14447500000000000000000000000000000000000000000000000000000000815260040161086e91906128e3565b805464010000000090046001600160a01b03166001600160a01b031663b60d4288836040518263ffffffff1660e01b81526004015f604051808303818588803b158015610919575f5ffd5b505af115801561092b573d5f5f3e3d5ffd5b505050505061093981611bd5565b505050565b306001600160a01b037f00000000000000000000000000000000000000000000000000000000000000001614610987576040516356adf13560e11b815260040160405180910390fd5b5f5f5f8380602001905181019061099e9190612991565b9250925092506109b085848484611eb1565b5050505050565b306001600160a01b037f00000000000000000000000000000000000000000000000000000000000000001614610a00576040516356adf13560e11b815260040160405180910390fd5b80610b0c576001600160a01b0382165f9081527fdc1272075efdca0b85fb2d76cbb5f26d954dc18e040d6d0b67071bd5cbd043076020526040812090507f00000000000000000000000000000000000000000000000000000000000000006001600160a01b031663ffc976c0610a8083600101546001600160a01b031690565b6040517fffffffff0000000000000000000000000000000000000000000000000000000060e084901b1681526001600160a01b039091166004820152602401602060405180830381865afa158015610ada573d5f5f3e3d5ffd5b505050506040513d601f19601f82011682018060405250810190610afe9190612a40565b156109395761093981611bd5565b5050565b5f306001600160a01b037f00000000000000000000000000000000000000000000000000000000000000001614610b5a576040516356adf13560e11b815260040160405180910390fd5b5f80610b6886880188612a5b565b915091505f610b7c8c8c8c8c878b8b611f1e565b6040805160018082528183019092529192505f91906020808301908036833701905050905081815f81518110610bb457610bb4612a9f565b602002602001019067ffffffffffffffff16908167ffffffffffffffff1681525050610be28d858386611eb1565b610bf082633b9aca00612af9565b9d9c50505050505050505050505050565b306001600160a01b037f00000000000000000000000000000000000000000000000000000000000000001614610c4a576040516356adf13560e11b815260040160405180910390fd5b6001600160a01b0381165f9081527fdc1272075efdca0b85fb2d76cbb5f26d954dc18e040d6d0b67071bd5cbd0430760205260409020610b0c816121d1565b5f306001600160a01b037f00000000000000000000000000000000000000000000000000000000000000001614610cd3576040516356adf13560e11b815260040160405180910390fd5b6001600160a01b038281165f9081527fdc1272075efdca0b85fb2d76cbb5f26d954dc18e040d6d0b67071bd5cbd043076020526040812060018101549092166040517fffc976c00000000000000000000000000000000000000000000000000000000081526001600160a01b0380831660048301529192507f00000000000000000000000000000000000000000000000000000000000000009091169063ffc976c090602401602060405180830381865afa158015610d94573d5f5f3e3d5ffd5b505050506040513d601f19601f82011682018060405250810190610db89190612a40565b61101e5781546040517f5251ebf90000000000000000000000000000000000000000000000000000000081523060048201526401000000009091046001600160a01b031690635251ebf9906024015f604051808303815f87803b158015610e1d575f5ffd5b505af1158015610e2f573d5f5f3e3d5ffd5b50505050806001600160a01b03166379ba50976040518163ffffffff1660e01b81526004015f604051808303815f87803b158015610e6b575f5ffd5b505af1158015610e7d573d5f5f3e3d5ffd5b50505050806001600160a01b0316637271518a6040518163ffffffff1660e01b81526004015f604051808303815f87803b158015610eb9575f5ffd5b505af1158015610ecb573d5f5f3e3d5ffd5b505050505f816001600160a01b0316636f9978c96040518163ffffffff1660e01b8152600401602060405180830381865afa158015610f0c573d5f5f3e3d5ffd5b505050506040513d601f19601f82011682018060405250810190610f3091906128cc565b90508015611014576040517ff2c098b70000000000000000000000000000000000000000000000000000000081523060048201526001600160a01b0383169063f2c098b7906024015f604051808303815f87803b158015610f8f575f5ffd5b505af1158015610fa1573d5f5f3e3d5ffd5b50506040517fc8833434000000000000000000000000000000000000000000000000000000008152600481018490526001600160a01b038516925063c883343491506024015f604051808303815f87803b158015610ffd575f5ffd5b505af115801561100f573d5f5f3e3d5ffd5b505050505b60029350506110da565b6040517ff9c8d46b0000000000000000000000000000000000000000000000000000000081526001600160a01b0382811660048301527f0000000000000000000000000000000000000000000000000000000000000000169063f9c8d46b90602401602060405180830381865afa15801561109b573d5f5f3e3d5ffd5b505050506040513d601f19601f820116820180604052508101906110bf9190612a40565b156110cd57600192506110da565b6110d6826121d1565b5f92505b5050919050565b604080516080810182525f808252602082018190529181018290526060810191909152306001600160a01b037f0000000000000000000000000000000000000000000000000000000000000000161461114d576040516356adf13560e11b815260040160405180910390fd5b5f5f5f5f5f5f878060200190518101906111679190612b10565b9550955095509550955095505f5f7f00000000000000000000000000000000000000000000000000000000000000006001600160a01b0316635b0aa953670de0b6b3a76400008a8a8a8a8a8a6040518863ffffffff1660e01b81526004016111d496959493929190612c1d565b604080518083038185885af11580156111ef573d5f5f3e3d5ffd5b50505050506040513d601f19601f820116820180604052508101906112149190612cb6565b60408051608081018252600181526001600160a01b0392831660208201529290911690820152670de0b6b3a764000060608201529a9950505050505050505050565b306001600160a01b037f0000000000000000000000000000000000000000000000000000000000000000161461129f576040516356adf13560e11b815260040160405180910390fd5b6001600160a01b0381165f9081527fdc1272075efdca0b85fb2d76cbb5f26d954dc18e040d6d0b67071bd5cbd0430760205260409020546301000000900460ff1615611317576040517fea11d01100000000000000000000000000000000000000000000000000000000815260040160405180910390fd5b61132081612236565b6001600160a01b031663956311056040518163ffffffff1660e01b81526004015f604051808303815f87803b158015611357575f5ffd5b505af11580156109b0573d5f5f3e3d5ffd5b306001600160a01b037f000000000000000000000000000000000000000000000000000000000000000016146113b2576040516356adf13560e11b815260040160405180910390fd5b80515f036113ec576040517f2678d78400000000000000000000000000000000000000000000000000000000815260040160405180910390fd5b5f818060200190518101906114019190612ce3565b905061140c816122a7565b6001600160a01b0383165f9081527fdc1272075efdca0b85fb2d76cbb5f26d954dc18e040d6d0b67071bd5cbd043076020526040902080546301000000900460ff166114db57805464010000000090046001600160a01b03166040517fe071c0ca0000000000000000000000000000000000000000000000000000000081526001600160a01b038481166004830152919091169063e071c0ca906024015f604051808303815f87803b1580156114c0575f5ffd5b505af11580156114d2573d5f5f3e3d5ffd5b50505050611528565b60018101546040517ff2fde38b0000000000000000000000000000000000000000000000000000000081526001600160a01b0384811660048301529091169063f2fde38b90602401610779565b50505050565b306001600160a01b037f00000000000000000000000000000000000000000000000000000000000000001614611577576040516356adf13560e11b815260040160405180910390fd5b61158082612236565b6040517ff3fef3a3000000000000000000000000000000000000000000000000000000008152306004820152602481018390526001600160a01b03919091169063f3fef3a3906044015f604051808303815f87803b1580156115e0575f5ffd5b505af11580156115f2573d5f5f3e3d5ffd5b505050505050565b5f80306001600160a01b037f00000000000000000000000000000000000000000000000000000000000000001614611645576040516356adf13560e11b815260040160405180910390fd5b6001600160a01b0383165f9081527fdc1272075efdca0b85fb2d76cbb5f26d954dc18e040d6d0b67071bd5cbd043076020526040902080546301000000900460ff16156116c15760016040517f3c14447500000000000000000000000000000000000000000000000000000000815260040161086e91906128e3565b80545f9064010000000090046001600160a01b031690505f816001600160a01b031663d4c3eea06040518163ffffffff1660e01b8152600401602060405180830381865afa158015611715573d5f5f3e3d5ffd5b505050506040513d601f19601f8201168201806040525081019061173991906128cc565b90505f826001600160a01b0316639050b5606040518163ffffffff1660e01b81526004016040805180830381865afa158015611777573d5f5f3e3d5ffd5b505050506040513d601f19601f8201168201806040525081019061179b9190612cfe565b9150505f836001600160a01b0316630e5f5dbd6040518163ffffffff1660e01b8152600401602060405180830381865afa1580156117db573d5f5f3e3d5ffd5b505050506040513d601f19601f820116820180604052508101906117ff91906128cc565b827f00000000000000000000000000000000000000000000000000000000000000006001600160a01b0316630103349c876001600160a01b0316634bc368406040518163ffffffff1660e01b8152600401602060405180830381865afa15801561186b573d5f5f3e3d5ffd5b505050506040513d601f19601f8201168201806040525081019061188f91906128cc565b6040518263ffffffff1660e01b81526004016118ad91815260200190565b602060405180830381865afa1580156118c8573d5f5f3e3d5ffd5b505050506040513d601f19601f820116820180604052508101906118ec91906128cc565b87600201546118fb9190612d20565b6119059190612d20565b61190f9190612d20565b905080831061192c576119228184612d33565b96505f955061193c565b5f96506119398382612d33565b95505b61194585611bd5565b7f00000000000000000000000000000000000000000000000000000000000000006001600160a01b031663d779f38061198887600101546001600160a01b031690565b6040517fffffffff0000000000000000000000000000000000000000000000000000000060e084901b1681526001600160a01b0390911660048201526024015f604051808303815f87803b1580156119de575f5ffd5b505af19250505080156119ef575060015b50836001600160a01b031663ba75b6236040518163ffffffff1660e01b81526004015f604051808303815f87803b158015611a28575f5ffd5b505af1925050508015611a39575060015b505050505050915091565b306001600160a01b037f00000000000000000000000000000000000000000000000000000000000000001614611a8d576040516356adf13560e11b815260040160405180910390fd5b6001600160a01b0381165f9081527fdc1272075efdca0b85fb2d76cbb5f26d954dc18e040d6d0b67071bd5cbd0430760205260408120905061093981611ae383546001600160a01b036401000000009091041690565b6001600160a01b0316634bc368406040518163ffffffff1660e01b8152600401602060405180830381865afa158015611b1e573d5f5f3e3d5ffd5b505050506040513d601f19601f82011682018060405250810190611b4291906128cc565b83600401546122e7565b306001600160a01b037f00000000000000000000000000000000000000000000000000000000000000001614611b95576040516356adf13560e11b815260040160405180910390fd5b611b9e81612236565b6001600160a01b031663bddf300c6040518163ffffffff1660e01b81526004015f604051808303815f87803b158015611357575f5ffd5b80546301000000900460ff1615611be95750565b80546001820154604080517fab2f0e5100000000000000000000000000000000000000000000000000000000815290516401000000009093046001600160a01b03908116939216915f91611cea91849163ab2f0e519160048083019260209291908290030181865afa158015611c61573d5f5f3e3d5ffd5b505050506040513d601f19601f82011682018060405250810190611c8591906128cc565b846001600160a01b031663d4c3eea06040518163ffffffff1660e01b8152600401602060405180830381865afa158015611cc1573d5f5f3e3d5ffd5b505050506040513d601f19601f82011682018060405250810190611ce591906128cc565b61240c565b90505f611dcc846001600160a01b0316634bc368406040518163ffffffff1660e01b8152600401602060405180830381865afa158015611d2c573d5f5f3e3d5ffd5b505050506040513d601f19601f82011682018060405250810190611d5091906128cc565b6040517f19208451000000000000000000000000000000000000000000000000000000008152600481018590527f00000000000000000000000000000000000000000000000000000000000000006001600160a01b031690631920845190602401602060405180830381865afa158015611cc1573d5f5f3e3d5ffd5b90508015611e43576040517f3046bf47000000000000000000000000000000000000000000000000000000008152600481018290526001600160a01b03851690633046bf47906024015f604051808303815f87803b158015611e2c575f5ffd5b505af1158015611e3e573d5f5f3e3d5ffd5b505050505b6115f285856001600160a01b0316634bc368406040518163ffffffff1660e01b8152600401602060405180830381865afa158015611e83573d5f5f3e3d5ffd5b505050506040513d601f19601f82011682018060405250810190611ea791906128cc565b87600401546122e7565b611eba84612236565b6001600160a01b03166313e40efb348585856040518563ffffffff1660e01b8152600401611eea93929190612d92565b5f604051808303818588803b158015611f01575f5ffd5b505af1158015611f13573d5f5f3e3d5ffd5b505050505050505050565b5f6030845114611f5a576040517ff3db486100000000000000000000000000000000000000000000000000000000815260040160405180910390fd5b5f611f6783850185612f74565b90505f611fa68a6001600160a01b03165f9081527fdc1272075efdca0b85fb2d76cbb5f26d954dc18e040d6d0b67071bd5cbd043076020526040902090565b6001015f9054906101000a90046001600160a01b031690505f81600260f81b1790507f00000000000000000000000000000000000000000000000000000000000000006001600160a01b031663c899c2ea846040015189848d8d895f01518a602001516040518863ffffffff1660e01b815260040161202b97969594939291906130da565b5f6040518083038186803b158015612041575f5ffd5b505afa158015612053573d5f5f3e3d5ffd5b5050506060840151845160208601516040517fe69e8af70000000000000000000000000000000000000000000000000000000081526001600160a01b037f000000000000000000000000000000000000000000000000000000000000000016945063e69e8af7936120ca9390928e926004016131a4565b5f6040518083038186803b1580156120e0575f5ffd5b505afa1580156120f2573d5f5f3e3d5ffd5b50505060608401516020015180515f9250825b81811015612182578c67ffffffffffffffff1683828151811061212a5761212a612a9f565b60200260200101515f015167ffffffffffffffff160361217a5782818151811061215657612156612a9f565b60200260200101516020015167ffffffffffffffff16846121779190612d20565b93505b600101612105565b506121bf612194633b9aca008f61329c565b604088015160200151611ce59067ffffffffffffffff166121ba87640773594000612d20565b612425565b9e9d5050505050505050505050505050565b6121da81611bd5565b805464010000000090046001600160a01b03166001600160a01b031663e6c772d46040518163ffffffff1660e01b81526004015f604051808303815f87803b158015612224575f5ffd5b505af1925050508015610b0c57505b50565b6001600160a01b0381165f9081527fdc1272075efdca0b85fb2d76cbb5f26d954dc18e040d6d0b67071bd5cbd043076020526040812080546301000000900460ff1661229457805464010000000090046001600160a01b0316610648565b600101546001600160a01b031692915050565b6001600160a01b038116612233576040517f8579befe00000000000000000000000000000000000000000000000000000000815260040160405180910390fd5b6040517f0103349c000000000000000000000000000000000000000000000000000000008152600481018390525f907f00000000000000000000000000000000000000000000000000000000000000006001600160a01b031690630103349c90602401602060405180830381865afa158015612365573d5f5f3e3d5ffd5b505050506040513d601f19601f8201168201806040525081019061238991906128cc565b90508181101561240557600484018190556001808501547401000000000000000000000000000000000000000090046bffffffffffffffffffffffff169060408051858152602081018590527f2a08b919f6a61e8871b8cd2021acc0b2ae32b50f272d5755349014f05dbce056910160405180910390a3610648565b5092915050565b5f81831061241a578161241c565b825b90505b92915050565b5f818311612433575f61241c565b61241c8284612d33565b6001600160a01b0381168114612233575f5ffd5b5f60208284031215612461575f5ffd5b81356106488161243d565b5f5f5f6060848603121561247e575f5ffd5b83356124898161243d565b92506020840135915060408401356124a08161243d565b809150509250925092565b5f5f604083850312156124bc575f5ffd5b82356124c78161243d565b946020939093013593505050565b7f4e487b71000000000000000000000000000000000000000000000000000000005f52604160045260245ffd5b6040805190810167ffffffffffffffff81118282101715612525576125256124d5565b60405290565b6040516060810167ffffffffffffffff81118282101715612525576125256124d5565b6040516080810167ffffffffffffffff81118282101715612525576125256124d5565b604051601f82017fffffffffffffffffffffffffffffffffffffffffffffffffffffffffffffffe016810167ffffffffffffffff811182821017156125b8576125b86124d5565b604052919050565b5f67ffffffffffffffff8211156125d9576125d96124d5565b50601f017fffffffffffffffffffffffffffffffffffffffffffffffffffffffffffffffe01660200190565b5f82601f830112612614575f5ffd5b8135612627612622826125c0565b612571565b81815284602083860101111561263b575f5ffd5b816020850160208301375f918101602001919091529392505050565b5f5f60408385031215612668575f5ffd5b82356126738161243d565b9150602083013567ffffffffffffffff81111561268e575f5ffd5b61269a85828601612605565b9150509250929050565b8015158114612233575f5ffd5b5f5f604083850312156126c2575f5ffd5b82356126cd8161243d565b915060208301356126dd816126a4565b809150509250929050565b67ffffffffffffffff81168114612233575f5ffd5b5f5f83601f84011261270d575f5ffd5b50813567ffffffffffffffff811115612724575f5ffd5b60208301915083602082850101111561273b575f5ffd5b9250929050565b5f5f5f5f5f5f5f5f60c0898b031215612759575f5ffd5b88356127648161243d565b975060208901359650604089013561277b816126e8565b9550606089013561278b816126e8565b9450608089013567ffffffffffffffff8111156127a6575f5ffd5b6127b28b828c016126fd565b90955093505060a089013567ffffffffffffffff8111156127d1575f5ffd5b6127dd8b828c016126fd565b999c989b5096995094979396929594505050565b7f4e487b71000000000000000000000000000000000000000000000000000000005f52602160045260245ffd5b6020810160038310612832576128326127f1565b91905290565b5f60208284031215612848575f5ffd5b813567ffffffffffffffff81111561285e575f5ffd5b61286a84828501612605565b949350505050565b60028110612233576122336127f1565b8151608082019061289281612872565b808352506001600160a01b0360208401511660208301526001600160a01b0360408401511660408301526060830151606083015292915050565b5f602082840312156128dc575f5ffd5b5051919050565b6020810161283283612872565b5f67ffffffffffffffff821115612909576129096124d5565b5060051b60200190565b5f82601f830112612922575f5ffd5b8151612930612622826128f0565b8082825260208201915060208360051b860101925085831115612951575f5ffd5b602085015b83811015612977578051612969816126e8565b835260209283019201612956565b5095945050505050565b805161298c8161243d565b919050565b5f5f5f606084860312156129a3575f5ffd5b835167ffffffffffffffff8111156129b9575f5ffd5b8401601f810186136129c9575f5ffd5b80516129d7612622826125c0565b8181528760208385010111156129eb575f5ffd5b8160208401602083015e5f60208383010152809550505050602084015167ffffffffffffffff811115612a1c575f5ffd5b612a2886828701612913565b925050612a3760408501612981565b90509250925092565b5f60208284031215612a50575f5ffd5b8151610648816126a4565b5f5f60408385031215612a6c575f5ffd5b823567ffffffffffffffff811115612a82575f5ffd5b612a8e85828601612605565b92505060208301356126dd8161243d565b7f4e487b71000000000000000000000000000000000000000000000000000000005f52603260045260245ffd5b7f4e487b71000000000000000000000000000000000000000000000000000000005f52601160045260245ffd5b808202811582820484141761241f5761241f612acc565b5f5f5f5f5f5f60c08789031215612b25575f5ffd5b8651612b308161243d565b6020880151909650612b418161243d565b6040880151909550612b528161243d565b6060880151608089015160a08a0151929650909450925067ffffffffffffffff811115612b7d575f5ffd5b8701601f81018913612b8d575f5ffd5b8051612b9b612622826128f0565b8082825260208201915060208360061b85010192508b831115612bbc575f5ffd5b6020840193505b82841015612c0c576040848d031215612bda575f5ffd5b612be2612502565b8451612bed8161243d565b8152602085810151818301529083526040909401939190910190612bc3565b809450505050509295509295509295565b5f60c082016001600160a01b03891683526001600160a01b03881660208401526001600160a01b038716604084015285606084015284608084015260c060a084015280845180835260e0850191506020860192505f5b81811015612ca657835180516001600160a01b031684526020908101518185015290930192604090920191600101612c73565b50909a9950505050505050505050565b5f5f60408385031215612cc7575f5ffd5b8251612cd28161243d565b60208401519092506126dd8161243d565b5f60208284031215612cf3575f5ffd5b81516106488161243d565b5f5f60408385031215612d0f575f5ffd5b505080516020909101519092909150565b8082018082111561241f5761241f612acc565b8181038181111561241f5761241f612acc565b5f81518084528060208401602086015e5f6020828601015260207fffffffffffffffffffffffffffffffffffffffffffffffffffffffffffffffe0601f83011685010191505092915050565b606081525f612da46060830186612d46565b82810360208401528085518083526020830191506020870192505f5b81811015612de857835167ffffffffffffffff16835260209384019390920191600101612dc0565b505080925050506001600160a01b0383166040830152949350505050565b5f82601f830112612e15575f5ffd5b8135612e23612622826128f0565b8082825260208201915060208360051b860101925085831115612e44575f5ffd5b602085015b83811015612977578035835260209283019201612e49565b5f60408284031215612e71575f5ffd5b612e79612502565b9050813567ffffffffffffffff811115612e91575f5ffd5b612e9d84828501612e06565b825250602082013567ffffffffffffffff811115612eb9575f5ffd5b8201601f81018413612ec9575f5ffd5b8035612ed7612622826128f0565b80828252602082019150602060608402850101925086831115612ef8575f5ffd5b6020840193505b82841015612f655760608488031215612f16575f5ffd5b612f1e61252b565b8435612f29816126e8565b81526020850135612f39816126e8565b60208201526040850135612f4c816126e8565b6040820152825260609390930192602090910190612eff565b60208501525091949350505050565b5f60208284031215612f84575f5ffd5b813567ffffffffffffffff811115612f9a575f5ffd5b820160808185031215612fab575f5ffd5b612fb361254e565b8135612fbe816126e8565b81526020820135612fce816126e8565b6020820152604082013567ffffffffffffffff811115612fec575f5ffd5b820160808187031215612ffd575f5ffd5b61300561254e565b813567ffffffffffffffff81111561301b575f5ffd5b61302788828501612e06565b8252506020820135613038816126e8565b6020820152604082013561304b816126e8565b60408201526060919091013590613061826126e8565b606081810192909252604083015282013567ffffffffffffffff811115613086575f5ffd5b61309286828501612e61565b606083015250949350505050565b5f8151808452602084019350602083015f5b828110156130d05781518652602095860195909101906001016130b2565b5093949350505050565b60e081525f8851608060e08401526130f66101608401826130a0565b905067ffffffffffffffff60208b01511661010084015267ffffffffffffffff60408b01511661012084015267ffffffffffffffff60608b0151166101408401528281036020840152613149818a612d46565b915050866040830152613168606083018767ffffffffffffffff169052565b67ffffffffffffffff8516608083015267ffffffffffffffff841660a083015267ffffffffffffffff831660c083015298975050505050505050565b608081525f8551604060808401526131bf60c08401826130a0565b6020888101517fffffffffffffffffffffffffffffffffffffffffffffffffffffffffffffff808684030160a0870152805180845290820193505f92909101905b8083101561325857835167ffffffffffffffff815116835267ffffffffffffffff602082015116602084015267ffffffffffffffff604082015116604084015250606082019150602084019350600183019250613200565b5067ffffffffffffffff881660208601529250613273915050565b67ffffffffffffffff8416604083015267ffffffffffffffff8316606083015295945050505050565b5f826132cf577f4e487b71000000000000000000000000000000000000000000000000000000005f52601260045260245ffd5b50049056fea2646970667358221220ceeb76e4e4018e6ef289569b3fa904bfebd905a025278de5da0d385a74827d5564736f6c63430008210033a264697066735822122024635e86a4505ed5d5f6f6b91dc70a19e5ac535c5899674363a8db145835461b64736f6c63430008210033",
  "linkReferences": {},
  "deployedLinkReferences": {},
  "immutableReferences": {
    "25364": [
      {
        "length": 32,
        "start": 328
      },
      {
        "length": 32,
        "start": 412
      }
    ],
    "25367": [
      {
        "length": 32,
        "start": 250
      },
      {
        "length": 32,
        "start": 445
      }
    ],
    "25370": [
      {
        "length": 32,
        "start": 211
      },
      {
        "length": 32,
        "start": 478
      }
    ],
    "25373": [
      {
        "length": 32,
        "start": 131
      },
      {
        "length": 32,
        "start": 511
      }
    ],
    "25376": [
      {
        "length": 32,
        "start": 375
      },
      {
        "length": 32,
        "start": 544
      }
    ],
    "25379": [
      {
        "length": 32,
        "start": 289
      },
      {
        "length": 32,
        "start": 577
      }
    ]
  }
}