{
  "_format": "hh-sol-artifact-1",
  "contractName": "AddressFilter",
  "sourceName": "src/rollup/forcedTransactions/AddressFilter.sol",
  "abi": [
    {
      "inputs": [
        {
          "internalType": "address",
          "name": "_defaultAdmin",
          "type": "address"
        },
        {
          "internalType": "address[]",
          "name": "_initialfilteredAddresses",
          "type": "address[]"
        }
      ],
      "stateMutability": "nonpayable",
      "type": "constructor"
    },
    {
      "inputs": [
        {
          "internalType": "address",
          "name": "filteredAddress",
          "type": "address"
        }
      ],
      "name": "AddressAlreadyFiltered",
      "type": "error"
    },
    {
      "inputs": [],
      "name": "FilteredAddressesEmpty",
      "type": "error"
    },
    {
      "inputs": [],
      "name": "ZeroAddressNotAllowed",
      "type": "error"
    },
    {
      "anonymous": false,
      "inputs": [
        {
          "indexed": false,
          "internalType": "address[]",
          "name": "filteredAddresses",
          "type": "address[]"
        },
        {
          "indexed": false,
          "internalType": "bool",
          "name": "isFiltered",
          "type": "bool"
        }
      ],
      "name": "FilteredStatusesSet",
      "type": "event"
    },
    {
      "anonymous": false,
      "inputs": [
        {
          "indexed": true,
          "internalType": "bytes32",
          "name": "role",
          "type": "bytes32"
        },
        {
          "indexed": true,
          "internalType": "bytes32",
          "name": "previousAdminRole",
          "type": "bytes32"
        },
        {
          "indexed": true,
          "internalType": "bytes32",
          "name": "newAdminRole",
          "type": "bytes32"
        }
      ],
      "name": "RoleAdminChanged",
      "type": "event"
    },
    {
      "anonymous": false,
      "inputs": [
        {
          "indexed": true,
          "internalType": "bytes32",
          "name": "role",
          "type": "bytes32"
        },
        {
          "indexed": true,
          "internalType": "address",
          "name": "account",
          "type": "address"
        },
        {
          "indexed": true,
          "internalType": "address",
          "name": "sender",
          "type": "address"
        }
      ],
      "name": "RoleGranted",
      "type": "event"
    },
    {
      "anonymous": false,
      "inputs": [
        {
          "indexed": true,
          "internalType": "bytes32",
          "name": "role",
          "type": "bytes32"
        },
        {
          "indexed": true,
          "internalType": "address",
          "name": "account",
          "type": "address"
        },
        {
          "indexed": true,
          "internalType": "address",
          "name": "sender",
          "type": "address"
        }
      ],
      "name": "RoleRevoked",
      "type": "event"
    },
    {
      "inputs": [],
      "name": "DEFAULT_ADMIN_ROLE",
      "outputs": [
        {
          "internalType": "bytes32",
          "name": "",
          "type": "bytes32"
        }
      ],
      "stateMutability": "view",
      "type": "function"
    },
    {
      "inputs": [
        {
          "internalType": "address",
          "name": "_addressToCheck",
          "type": "address"
        }
      ],
      "name": "addressIsFiltered",
      "outputs": [
        {
          "internalType": "bool",
          "name": "isFiltered",
          "type": "bool"
        }
      ],
      "stateMutability": "view",
      "type": "function"
    },
    {
      "inputs": [
        {
          "internalType": "bytes32",
          "name": "role",
          "type": "bytes32"
        }
      ],
      "name": "getRoleAdmin",
      "outputs": [
        {
          "internalType": "bytes32",
          "name": "",
          "type": "bytes32"
        }
      ],
      "stateMutability": "view",
      "type": "function"
    },
    {
      "inputs": [
        {
          "internalType": "bytes32",
          "name": "role",
          "type": "bytes32"
        },
        {
          "internalType": "address",
          "name": "account",
          "type": "address"
        }
      ],
      "name": "grantRole",
      "outputs": [],
      "stateMutability": "nonpayable",
      "type": "function"
    },
    {
      "inputs": [
        {
          "internalType": "bytes32",
          "name": "role",
          "type": "bytes32"
        },
        {
          "internalType": "address",
          "name": "account",
          "type": "address"
        }
      ],
      "name": "hasRole",
      "outputs": [
        {
          "internalType": "bool",
          "name": "",
          "type": "bool"
        }
      ],
      "stateMutability": "view",
      "type": "function"
    },
    {
      "inputs": [
        {
          "internalType": "bytes32",
          "name": "role",
          "type": "bytes32"
        },
        {
          "internalType": "address",
          "name": "account",
          "type": "address"
        }
      ],
      "name": "renounceRole",
      "outputs": [],
      "stateMutability": "nonpayable",
      "type": "function"
    },
    {
      "inputs": [
        {
          "internalType": "bytes32",
          "name": "role",
          "type": "bytes32"
        },
        {
          "internalType": "address",
          "name": "account",
          "type": "address"
        }
      ],
      "name": "revokeRole",
      "outputs": [],
      "stateMutability": "nonpayable",
      "type": "function"
    },
    {
      "inputs": [
        {
          "internalType": "address[]",
          "name": "_initialfilteredAddresses",
          "type": "address[]"
        },
        {
          "internalType": "bool",
          "name": "_isFiltered",
          "type": "bool"
        }
      ],
      "name": "setFilteredStatus",
      "outputs": [],
      "stateMutability": "nonpayable",
      "type": "function"
    },
    {
      "inputs": [
        {
          "internalType": "bytes4",
          "name": "interfaceId",
          "type": "bytes4"
        }
      ],
      "name": "supportsInterface",
      "outputs": [
        {
          "internalType": "bool",
          "name": "",
          "type": "bool"
        }
      ],
      "stateMutability": "view",
      "type": "function"
    }
  ],
  "bytecode": "0x608060405234801561000f575f5ffd5b5060405161108938038061108983398101604081905261002e916101d7565b6001600160a01b038216610055576040516342bcdf7f60e11b815260040160405180910390fd5b61005f5f83610071565b61006a81600161010e565b5050610321565b5f828152602081815260408083206001600160a01b038516845290915290205460ff1661010a575f828152602081815260408083206001600160a01b03851684529091529020805460ff191660011790556100c93390565b6001600160a01b0316816001600160a01b0316837f2f8788117e7eff1d82e926ec794901d17c78024a50270940304540a733656f0d60405160405180910390a45b5050565b81515f5b81811015610169578260015f868481518110610130576101306102b5565b6020908102919091018101516001600160a01b031682528101919091526040015f20805460ff1916911515919091179055600101610112565b507f8911b07a903172e66fc833a425762eb210532a5781d16226aa9088905926f7b0838360405161019b9291906102c9565b60405180910390a1505050565b80516001600160a01b03811681146101be575f5ffd5b919050565b634e487b7160e01b5f52604160045260245ffd5b5f5f604083850312156101e8575f5ffd5b6101f1836101a8565b60208401519092506001600160401b0381111561020c575f5ffd5b8301601f8101851361021c575f5ffd5b80516001600160401b03811115610235576102356101c3565b604051600582901b90603f8201601f191681016001600160401b0381118282101715610263576102636101c3565b604052918252602081840181019290810188841115610280575f5ffd5b6020850194505b838510156102a657610298856101a8565b815260209485019401610287565b50809450505050509250929050565b634e487b7160e01b5f52603260045260245ffd5b604080825283519082018190525f9060208501906060840190835b8181101561030b5783516001600160a01b03168352602093840193909201916001016102e4565b5050809250505082151560208301529392505050565b610d5b8061032e5f395ff3fe608060405234801561000f575f5ffd5b506004361061009f575f3560e01c806336568abe1161007257806391d148541161005857806391d148541461016e578063a217fddf146101b1578063d547741f146101b8575f5ffd5b806336568abe146101485780638ab173791461015b575f5ffd5b806301ffc9a7146100a35780631d515083146100cb578063248a9ca3146101035780632f2ff15d14610133575b5f5ffd5b6100b66100b1366004610945565b6101cb565b60405190151581526020015b60405180910390f35b6100b66100d93660046109ac565b73ffffffffffffffffffffffffffffffffffffffff165f9081526001602052604090205460ff1690565b6101256101113660046109c5565b5f9081526020819052604090206001015490565b6040519081526020016100c2565b6101466101413660046109dc565b610263565b005b6101466101563660046109dc565b61028c565b610146610169366004610a42565b610344565b6100b661017c3660046109dc565b5f9182526020828152604080842073ffffffffffffffffffffffffffffffffffffffff93909316845291905290205460ff1690565b6101255f81565b6101466101c63660046109dc565b610392565b5f7fffffffff0000000000000000000000000000000000000000000000000000000082167f7965db0b00000000000000000000000000000000000000000000000000000000148061025d57507f01ffc9a7000000000000000000000000000000000000000000000000000000007fffffffff000000000000000000000000000000000000000000000000000000008316145b92915050565b5f8281526020819052604090206001015461027d816103b6565b61028783836103c3565b505050565b73ffffffffffffffffffffffffffffffffffffffff81163314610336576040517f08c379a000000000000000000000000000000000000000000000000000000000815260206004820152602f60248201527f416363657373436f6e74726f6c3a2063616e206f6e6c792072656e6f756e636560448201527f20726f6c657320666f722073656c66000000000000000000000000000000000060648201526084015b60405180910390fd5b61034082826104b1565b5050565b5f61034e816103b6565b5f835111610388576040517fda5a830200000000000000000000000000000000000000000000000000000000815260040160405180910390fd5b6102878383610566565b5f828152602081905260409020600101546103ac816103b6565b61028783836104b1565b6103c0813361062b565b50565b5f8281526020818152604080832073ffffffffffffffffffffffffffffffffffffffff8516845290915290205460ff16610340575f8281526020818152604080832073ffffffffffffffffffffffffffffffffffffffff85168452909152902080547fffffffffffffffffffffffffffffffffffffffffffffffffffffffffffffff001660011790556104533390565b73ffffffffffffffffffffffffffffffffffffffff168173ffffffffffffffffffffffffffffffffffffffff16837f2f8788117e7eff1d82e926ec794901d17c78024a50270940304540a733656f0d60405160405180910390a45050565b5f8281526020818152604080832073ffffffffffffffffffffffffffffffffffffffff8516845290915290205460ff1615610340575f8281526020818152604080832073ffffffffffffffffffffffffffffffffffffffff8516808552925280832080547fffffffffffffffffffffffffffffffffffffffffffffffffffffffffffffff0016905551339285917ff6391f5c32d9c69d2a47ea670b442974b53935d1edc7fd64eb21e047a839171b9190a45050565b81515f5b818110156105ec578260015f86848151811061058857610588610b34565b60209081029190910181015173ffffffffffffffffffffffffffffffffffffffff1682528101919091526040015f2080547fffffffffffffffffffffffffffffffffffffffffffffffffffffffffffffff001691151591909117905560010161056a565b507f8911b07a903172e66fc833a425762eb210532a5781d16226aa9088905926f7b0838360405161061e929190610b61565b60405180910390a1505050565b5f8281526020818152604080832073ffffffffffffffffffffffffffffffffffffffff8516845290915290205460ff1661034057610668816106e2565b610673836020610701565b604051602001610684929190610bdd565b604080517fffffffffffffffffffffffffffffffffffffffffffffffffffffffffffffffe0818403018152908290527f08c379a000000000000000000000000000000000000000000000000000000000825261032d91600401610c47565b606061025d73ffffffffffffffffffffffffffffffffffffffff831660145b60605f61070f836002610cc7565b61071a906002610cde565b67ffffffffffffffff81111561073257610732610a06565b6040519080825280601f01601f19166020018201604052801561075c576020820181803683370190505b5090507f3000000000000000000000000000000000000000000000000000000000000000815f8151811061079257610792610b34565b60200101907effffffffffffffffffffffffffffffffffffffffffffffffffffffffffffff191690815f1a9053507f7800000000000000000000000000000000000000000000000000000000000000816001815181106107f4576107f4610b34565b60200101907effffffffffffffffffffffffffffffffffffffffffffffffffffffffffffff191690815f1a9053505f61082e846002610cc7565b610839906001610cde565b90505b60018111156108d5577f303132333435363738396162636465660000000000000000000000000000000085600f166010811061087a5761087a610b34565b1a60f81b82828151811061089057610890610b34565b60200101907effffffffffffffffffffffffffffffffffffffffffffffffffffffffffffff191690815f1a90535060049490941c936108ce81610cf1565b905061083c565b50831561093e576040517f08c379a000000000000000000000000000000000000000000000000000000000815260206004820181905260248201527f537472696e67733a20686578206c656e67746820696e73756666696369656e74604482015260640161032d565b9392505050565b5f60208284031215610955575f5ffd5b81357fffffffff000000000000000000000000000000000000000000000000000000008116811461093e575f5ffd5b803573ffffffffffffffffffffffffffffffffffffffff811681146109a7575f5ffd5b919050565b5f602082840312156109bc575f5ffd5b61093e82610984565b5f602082840312156109d5575f5ffd5b5035919050565b5f5f604083850312156109ed575f5ffd5b823591506109fd60208401610984565b90509250929050565b7f4e487b71000000000000000000000000000000000000000000000000000000005f52604160045260245ffd5b803580151581146109a7575f5ffd5b5f5f60408385031215610a53575f5ffd5b823567ffffffffffffffff811115610a69575f5ffd5b8301601f81018513610a79575f5ffd5b803567ffffffffffffffff811115610a9357610a93610a06565b8060051b6040517fffffffffffffffffffffffffffffffffffffffffffffffffffffffffffffffe0603f830116810181811067ffffffffffffffff82111715610ade57610ade610a06565b604052918252602081840181019290810188841115610afb575f5ffd5b6020850194505b83851015610b2157610b1385610984565b815260209485019401610b02565b5094506109fd9250505060208401610a33565b7f4e487b71000000000000000000000000000000000000000000000000000000005f52603260045260245ffd5b604080825283519082018190525f9060208501906060840190835b81811015610bb057835173ffffffffffffffffffffffffffffffffffffffff16835260209384019390920191600101610b7c565b5050809250505082151560208301529392505050565b5f81518060208401855e5f93019283525090919050565b7f416363657373436f6e74726f6c3a206163636f756e742000000000000000000081525f610c0e6017830185610bc6565b7f206973206d697373696e6720726f6c65200000000000000000000000000000008152610c3e6011820185610bc6565b95945050505050565b602081525f82518060208401528060208501604085015e5f6040828501015260407fffffffffffffffffffffffffffffffffffffffffffffffffffffffffffffffe0601f83011684010191505092915050565b7f4e487b71000000000000000000000000000000000000000000000000000000005f52601160045260245ffd5b808202811582820484141761025d5761025d610c9a565b8082018082111561025d5761025d610c9a565b5f81610cff57610cff610c9a565b507fffffffffffffffffffffffffffffffffffffffffffffffffffffffffffffffff019056fea26469706673582212204431b0b18592d20017d7fb8ff456b3c730df8449a466b8307966bea8d2caa2ac64736f6c63430008210033",
  "linkReferences": {},
  "deployedLinkReferences": {}
}