{
  "_format": "hh-sol-artifact-1",
  "contractName": "LineaRollup",
  "sourceName": "src/rollup/LineaRollup.sol",
  "abi": [
    {
      "inputs": [],
      "stateMutability": "nonpayable",
      "type": "constructor"
    },
    {
      "inputs": [
        {
          "internalType": "address",
          "name": "addressNotFiltered",
          "type": "address"
        }
      ],
      "name": "AddressIsNotFiltered",
      "type": "error"
    },
    {
      "inputs": [
        {
          "internalType": "uint256",
          "name": "emptyBlobIndex",
          "type": "uint256"
        }
      ],
      "name": "BlobSubmissionDataEmpty",
      "type": "error"
    },
    {
      "inputs": [],
      "name": "BlobSubmissionDataIsMissing",
      "type": "error"
    },
    {
      "inputs": [
        {
          "internalType": "uint256",
          "name": "bytesLength",
          "type": "uint256"
        }
      ],
      "name": "BytesLengthNotMultipleOfTwo",
      "type": "error"
    },
    {
      "inputs": [],
      "name": "CallerIsNotYieldManager",
      "type": "error"
    },
    {
      "inputs": [],
      "name": "CallerNotLSTWithdrawalRecipient",
      "type": "error"
    },
    {
      "inputs": [
        {
          "internalType": "uint256",
          "name": "index",
          "type": "uint256"
        }
      ],
      "name": "EmptyBlobDataAtIndex",
      "type": "error"
    },
    {
      "inputs": [
        {
          "internalType": "address",
          "name": "recipient",
          "type": "address"
        }
      ],
      "name": "FeePaymentFailed",
      "type": "error"
    },
    {
      "inputs": [],
      "name": "FeeTooLow",
      "type": "error"
    },
    {
      "inputs": [],
      "name": "FinalBlockStateEqualsZeroHash",
      "type": "error"
    },
    {
      "inputs": [
        {
          "internalType": "bytes32",
          "name": "shnarf",
          "type": "bytes32"
        }
      ],
      "name": "FinalShnarfNotSubmitted",
      "type": "error"
    },
    {
      "inputs": [
        {
          "internalType": "bytes32",
          "name": "expected",
          "type": "bytes32"
        },
        {
          "internalType": "bytes32",
          "name": "value",
          "type": "bytes32"
        }
      ],
      "name": "FinalShnarfWrong",
      "type": "error"
    },
    {
      "inputs": [],
      "name": "FinalStateRootHashIsZeroHash",
      "type": "error"
    },
    {
      "inputs": [
        {
          "internalType": "uint256",
          "name": "nextForcedTransactionNumber",
          "type": "uint256"
        }
      ],
      "name": "FinalizationDataMissingForcedTransaction",
      "type": "error"
    },
    {
      "inputs": [
        {
          "internalType": "uint256",
          "name": "l2BlockTimestamp",
          "type": "uint256"
        },
        {
          "internalType": "uint256",
          "name": "currentBlockTimestamp",
          "type": "uint256"
        }
      ],
      "name": "FinalizationInTheFuture",
      "type": "error"
    },
    {
      "inputs": [
        {
          "internalType": "bytes32",
          "name": "expected",
          "type": "bytes32"
        },
        {
          "internalType": "bytes32",
          "name": "value",
          "type": "bytes32"
        }
      ],
      "name": "FinalizationStateIncorrect",
      "type": "error"
    },
    {
      "inputs": [
        {
          "internalType": "uint256",
          "name": "blockNumber",
          "type": "uint256"
        }
      ],
      "name": "ForcedTransactionExistsForBlockOrIsTooLow",
      "type": "error"
    },
    {
      "inputs": [
        {
          "internalType": "uint256",
          "name": "expected",
          "type": "uint256"
        },
        {
          "internalType": "uint256",
          "name": "actual",
          "type": "uint256"
        }
      ],
      "name": "InitializedVersionWrong",
      "type": "error"
    },
    {
      "inputs": [],
      "name": "InvalidMerkleProof",
      "type": "error"
    },
    {
      "inputs": [],
      "name": "InvalidProof",
      "type": "error"
    },
    {
      "inputs": [
        {
          "internalType": "string",
          "name": "errorReason",
          "type": "string"
        }
      ],
      "name": "InvalidProofOrProofVerificationRanOutOfGas",
      "type": "error"
    },
    {
      "inputs": [],
      "name": "InvalidProofType",
      "type": "error"
    },
    {
      "inputs": [
        {
          "internalType": "enum IPauseManager.PauseType",
          "name": "pauseType",
          "type": "uint8"
        }
      ],
      "name": "IsNotPaused",
      "type": "error"
    },
    {
      "inputs": [
        {
          "internalType": "enum IPauseManager.PauseType",
          "name": "pauseType",
          "type": "uint8"
        }
      ],
      "name": "IsPaused",
      "type": "error"
    },
    {
      "inputs": [
        {
          "internalType": "uint256",
          "name": "messageNumber",
          "type": "uint256"
        },
        {
          "internalType": "bytes32",
          "name": "rollingHash",
          "type": "bytes32"
        }
      ],
      "name": "L1RollingHashDoesNotExistOnL1",
      "type": "error"
    },
    {
      "inputs": [
        {
          "internalType": "bytes32",
          "name": "merkleRoot",
          "type": "bytes32"
        }
      ],
      "name": "L2MerkleRootAlreadyAnchored",
      "type": "error"
    },
    {
      "inputs": [],
      "name": "L2MerkleRootDoesNotExist",
      "type": "error"
    },
    {
      "inputs": [],
      "name": "LSTWithdrawalRequiresDeficit",
      "type": "error"
    },
    {
      "inputs": [],
      "name": "LastFinalizationTimeNotLapsed",
      "type": "error"
    },
    {
      "inputs": [
        {
          "internalType": "uint32",
          "name": "leafIndex",
          "type": "uint32"
        },
        {
          "internalType": "uint32",
          "name": "maxAllowedIndex",
          "type": "uint32"
        }
      ],
      "name": "LeafIndexOutOfBounds",
      "type": "error"
    },
    {
      "inputs": [],
      "name": "LimitIsZero",
      "type": "error"
    },
    {
      "inputs": [
        {
          "internalType": "uint256",
          "name": "messageIndex",
          "type": "uint256"
        }
      ],
      "name": "MessageAlreadyClaimed",
      "type": "error"
    },
    {
      "inputs": [
        {
          "internalType": "bytes32",
          "name": "messageHash",
          "type": "bytes32"
        }
      ],
      "name": "MessageDoesNotExistOrHasAlreadyBeenClaimed",
      "type": "error"
    },
    {
      "inputs": [
        {
          "internalType": "address",
          "name": "destination",
          "type": "address"
        }
      ],
      "name": "MessageSendingFailed",
      "type": "error"
    },
    {
      "inputs": [
        {
          "internalType": "bytes32",
          "name": "rollingHash",
          "type": "bytes32"
        }
      ],
      "name": "MissingMessageNumberForRollingHash",
      "type": "error"
    },
    {
      "inputs": [
        {
          "internalType": "uint256",
          "name": "forcedTransactionNumber",
          "type": "uint256"
        }
      ],
      "name": "MissingRollingHashForForcedTransactionNumber",
      "type": "error"
    },
    {
      "inputs": [
        {
          "internalType": "uint256",
          "name": "messageNumber",
          "type": "uint256"
        }
      ],
      "name": "MissingRollingHashForMessageNumber",
      "type": "error"
    },
    {
      "inputs": [],
      "name": "NoEthSent",
      "type": "error"
    },
    {
      "inputs": [],
      "name": "OnlyNonLivenessRecoveryOperator",
      "type": "error"
    },
    {
      "inputs": [
        {
          "internalType": "enum IPauseManager.PauseType",
          "name": "pauseType",
          "type": "uint8"
        }
      ],
      "name": "OnlySecurityCouncilCanUnpauseIndefinitePause",
      "type": "error"
    },
    {
      "inputs": [
        {
          "internalType": "bytes32",
          "name": "shnarf",
          "type": "bytes32"
        }
      ],
      "name": "ParentShnarfNotSubmitted",
      "type": "error"
    },
    {
      "inputs": [
        {
          "internalType": "uint256",
          "name": "expiryEnd",
          "type": "uint256"
        }
      ],
      "name": "PauseNotExpired",
      "type": "error"
    },
    {
      "inputs": [],
      "name": "PauseTypeNotUsed",
      "type": "error"
    },
    {
      "inputs": [
        {
          "internalType": "uint256",
          "name": "cooldownEnd",
          "type": "uint256"
        }
      ],
      "name": "PauseUnavailableDueToCooldown",
      "type": "error"
    },
    {
      "inputs": [],
      "name": "PeriodIsZero",
      "type": "error"
    },
    {
      "inputs": [],
      "name": "PointEvaluationFailed",
      "type": "error"
    },
    {
      "inputs": [
        {
          "internalType": "uint256",
          "name": "fieldElements",
          "type": "uint256"
        },
        {
          "internalType": "uint256",
          "name": "blsCurveModulus",
          "type": "uint256"
        }
      ],
      "name": "PointEvaluationResponseInvalid",
      "type": "error"
    },
    {
      "inputs": [
        {
          "internalType": "uint256",
          "name": "expected",
          "type": "uint256"
        },
        {
          "internalType": "uint256",
          "name": "actual",
          "type": "uint256"
        }
      ],
      "name": "PrecompileReturnDataLengthWrong",
      "type": "error"
    },
    {
      "inputs": [],
      "name": "ProofIsEmpty",
      "type": "error"
    },
    {
      "inputs": [
        {
          "internalType": "uint256",
          "name": "actual",
          "type": "uint256"
        },
        {
          "internalType": "uint256",
          "name": "expected",
          "type": "uint256"
        }
      ],
      "name": "ProofLengthDifferentThanMerkleDepth",
      "type": "error"
    },
    {
      "inputs": [],
      "name": "RateLimitExceeded",
      "type": "error"
    },
    {
      "inputs": [],
      "name": "ReentrantCall",
      "type": "error"
    },
    {
      "inputs": [],
      "name": "RolesNotDifferent",
      "type": "error"
    },
    {
      "inputs": [
        {
          "internalType": "uint8",
          "name": "bits",
          "type": "uint8"
        },
        {
          "internalType": "uint256",
          "name": "value",
          "type": "uint256"
        }
      ],
      "name": "SafeCastOverflowedUintDowncast",
      "type": "error"
    },
    {
      "inputs": [
        {
          "internalType": "bytes32",
          "name": "shnarf",
          "type": "bytes32"
        }
      ],
      "name": "ShnarfAlreadySubmitted",
      "type": "error"
    },
    {
      "inputs": [],
      "name": "ShnarfSubmissionIsZeroHash",
      "type": "error"
    },
    {
      "inputs": [],
      "name": "StartingRootHashDoesNotMatch",
      "type": "error"
    },
    {
      "inputs": [],
      "name": "ValueSentTooLow",
      "type": "error"
    },
    {
      "inputs": [],
      "name": "ZeroAddressNotAllowed",
      "type": "error"
    },
    {
      "inputs": [],
      "name": "ZeroHashNotAllowed",
      "type": "error"
    },
    {
      "inputs": [],
      "name": "ZeroLengthNotAllowed",
      "type": "error"
    },
    {
      "inputs": [],
      "name": "ZeroValueNotAllowed",
      "type": "error"
    },
    {
      "anonymous": false,
      "inputs": [
        {
          "indexed": false,
          "internalType": "address",
          "name": "oldAddressFilter",
          "type": "address"
        },
        {
          "indexed": false,
          "internalType": "address",
          "name": "newAddressFilter",
          "type": "address"
        }
      ],
      "name": "AddressFilterChanged",
      "type": "event"
    },
    {
      "anonymous": false,
      "inputs": [
        {
          "indexed": true,
          "internalType": "address",
          "name": "resettingAddress",
          "type": "address"
        }
      ],
      "name": "AmountUsedInPeriodReset",
      "type": "event"
    },
    {
      "anonymous": false,
      "inputs": [
        {
          "indexed": true,
          "internalType": "uint256",
          "name": "startBlockNumber",
          "type": "uint256"
        },
        {
          "indexed": true,
          "internalType": "uint256",
          "name": "endBlockNumber",
          "type": "uint256"
        },
        {
          "indexed": true,
          "internalType": "bytes32",
          "name": "shnarf",
          "type": "bytes32"
        },
        {
          "indexed": false,
          "internalType": "bytes32",
          "name": "parentStateRootHash",
          "type": "bytes32"
        },
        {
          "indexed": false,
          "internalType": "bytes32",
          "name": "finalStateRootHash",
          "type": "bytes32"
        }
      ],
      "name": "DataFinalizedV3",
      "type": "event"
    },
    {
      "anonymous": false,
      "inputs": [
        {
          "indexed": false,
          "internalType": "bytes32",
          "name": "parentShnarf",
          "type": "bytes32"
        },
        {
          "indexed": true,
          "internalType": "bytes32",
          "name": "shnarf",
          "type": "bytes32"
        },
        {
          "indexed": false,
          "internalType": "bytes32",
          "name": "finalStateRootHash",
          "type": "bytes32"
        }
      ],
      "name": "DataSubmittedV3",
      "type": "event"
    },
    {
      "anonymous": false,
      "inputs": [
        {
          "indexed": true,
          "internalType": "uint256",
          "name": "blockNumber",
          "type": "uint256"
        },
        {
          "indexed": false,
          "internalType": "uint256",
          "name": "timestamp",
          "type": "uint256"
        },
        {
          "indexed": false,
          "internalType": "uint256",
          "name": "messageNumber",
          "type": "uint256"
        },
        {
          "indexed": false,
          "internalType": "uint256",
          "name": "forcedTransactionNumber",
          "type": "uint256"
        }
      ],
      "name": "FinalizedStateUpdated",
      "type": "event"
    },
    {
      "anonymous": false,
      "inputs": [
        {
          "indexed": true,
          "internalType": "uint256",
          "name": "forcedTransactionNumber",
          "type": "uint256"
        },
        {
          "indexed": true,
          "internalType": "address",
          "name": "from",
          "type": "address"
        },
        {
          "indexed": false,
          "internalType": "uint256",
          "name": "blockNumberDeadline",
          "type": "uint256"
        },
        {
          "indexed": false,
          "internalType": "bytes32",
          "name": "forcedTransactionRollingHash",
          "type": "bytes32"
        },
        {
          "indexed": false,
          "internalType": "bytes",
          "name": "rlpEncodedSignedTransaction",
          "type": "bytes"
        }
      ],
      "name": "ForcedTransactionAdded",
      "type": "event"
    },
    {
      "anonymous": false,
      "inputs": [
        {
          "indexed": false,
          "internalType": "uint256",
          "name": "forcedTransactionFeeInWei",
          "type": "uint256"
        }
      ],
      "name": "ForcedTransactionFeeSet",
      "type": "event"
    },
    {
      "anonymous": false,
      "inputs": [
        {
          "indexed": false,
          "internalType": "uint256",
          "name": "amount",
          "type": "uint256"
        }
      ],
      "name": "FundingReceived",
      "type": "event"
    },
    {
      "anonymous": false,
      "inputs": [
        {
          "indexed": false,
          "internalType": "uint8",
          "name": "version",
          "type": "uint8"
        }
      ],
      "name": "Initialized",
      "type": "event"
    },
    {
      "anonymous": false,
      "inputs": [
        {
          "indexed": true,
          "internalType": "bytes32",
          "name": "l2MerkleRoot",
          "type": "bytes32"
        },
        {
          "indexed": true,
          "internalType": "uint256",
          "name": "treeDepth",
          "type": "uint256"
        }
      ],
      "name": "L2MerkleRootAdded",
      "type": "event"
    },
    {
      "anonymous": false,
      "inputs": [
        {
          "indexed": true,
          "internalType": "uint256",
          "name": "l2Block",
          "type": "uint256"
        }
      ],
      "name": "L2MessagingBlockAnchored",
      "type": "event"
    },
    {
      "anonymous": false,
      "inputs": [
        {
          "indexed": true,
          "internalType": "address",
          "name": "amountChangeBy",
          "type": "address"
        },
        {
          "indexed": false,
          "internalType": "uint256",
          "name": "amount",
          "type": "uint256"
        },
        {
          "indexed": false,
          "internalType": "bool",
          "name": "amountUsedLoweredToLimit",
          "type": "bool"
        },
        {
          "indexed": false,
          "internalType": "bool",
          "name": "usedAmountResetToZero",
          "type": "bool"
        }
      ],
      "name": "LimitAmountChanged",
      "type": "event"
    },
    {
      "anonymous": false,
      "inputs": [
        {
          "indexed": true,
          "internalType": "bytes8",
          "name": "initialContractVersion",
          "type": "bytes8"
        },
        {
          "components": [
            {
              "internalType": "bytes32",
              "name": "initialStateRootHash",
              "type": "bytes32"
            },
            {
              "internalType": "uint256",
              "name": "initialL2BlockNumber",
              "type": "uint256"
            },
            {
              "internalType": "uint256",
              "name": "genesisTimestamp",
              "type": "uint256"
            },
            {
              "internalType": "address",
              "name": "defaultVerifier",
              "type": "address"
            },
            {
              "internalType": "uint256",
              "name": "rateLimitPeriodInSeconds",
              "type": "uint256"
            },
            {
              "internalType": "uint256",
              "name": "rateLimitAmountInWei",
              "type": "uint256"
            },
            {
              "components": [
                {
                  "internalType": "address",
                  "name": "addressWithRole",
                  "type": "address"
                },
                {
                  "internalType": "bytes32",
                  "name": "role",
                  "type": "bytes32"
                }
              ],
              "internalType": "struct IPermissionsManager.RoleAddress[]",
              "name": "roleAddresses",
              "type": "tuple[]"
            },
            {
              "components": [
                {
                  "internalType": "enum IPauseManager.PauseType",
                  "name": "pauseType",
                  "type": "uint8"
                },
                {
                  "internalType": "bytes32",
                  "name": "role",
                  "type": "bytes32"
                }
              ],
              "internalType": "struct IPauseManager.PauseTypeRole[]",
              "name": "pauseTypeRoles",
              "type": "tuple[]"
            },
            {
              "components": [
                {
                  "internalType": "enum IPauseManager.PauseType",
                  "name": "pauseType",
                  "type": "uint8"
                },
                {
                  "internalType": "bytes32",
                  "name": "role",
                  "type": "bytes32"
                }
              ],
              "internalType": "struct IPauseManager.PauseTypeRole[]",
              "name": "unpauseTypeRoles",
              "type": "tuple[]"
            },
            {
              "internalType": "address",
              "name": "defaultAdmin",
              "type": "address"
            },
            {
              "internalType": "address",
              "name": "shnarfProvider",
              "type": "address"
            },
            {
              "internalType": "address",
              "name": "addressFilter",
              "type": "address"
            }
          ],
          "indexed": false,
          "internalType": "struct ILineaRollupBase.BaseInitializationData",
          "name": "initializationData",
          "type": "tuple"
        },
        {
          "indexed": false,
          "internalType": "bytes32",
          "name": "genesisShnarf",
          "type": "bytes32"
        }
      ],
      "name": "LineaRollupBaseInitialized",
      "type": "event"
    },
    {
      "anonymous": false,
      "inputs": [
        {
          "indexed": true,
          "internalType": "bytes8",
          "name": "previousVersion",
          "type": "bytes8"
        },
        {
          "indexed": true,
          "internalType": "bytes8",
          "name": "newVersion",
          "type": "bytes8"
        }
      ],
      "name": "LineaRollupVersionChanged",
      "type": "event"
    },
    {
      "anonymous": false,
      "inputs": [
        {
          "indexed": true,
          "internalType": "address",
          "name": "caller",
          "type": "address"
        },
        {
          "indexed": true,
          "internalType": "address",
          "name": "livenessRecoveryOperator",
          "type": "address"
        }
      ],
      "name": "LivenessRecoveryOperatorAddressSet",
      "type": "event"
    },
    {
      "anonymous": false,
      "inputs": [
        {
          "indexed": true,
          "internalType": "address",
          "name": "caller",
          "type": "address"
        },
        {
          "indexed": true,
          "internalType": "address",
          "name": "livenessRecoveryOperator",
          "type": "address"
        }
      ],
      "name": "LivenessRecoveryOperatorRoleGranted",
      "type": "event"
    },
    {
      "anonymous": false,
      "inputs": [
        {
          "indexed": true,
          "internalType": "bytes32",
          "name": "_messageHash",
          "type": "bytes32"
        }
      ],
      "name": "MessageClaimed",
      "type": "event"
    },
    {
      "anonymous": false,
      "inputs": [
        {
          "indexed": true,
          "internalType": "address",
          "name": "_from",
          "type": "address"
        },
        {
          "indexed": true,
          "internalType": "address",
          "name": "_to",
          "type": "address"
        },
        {
          "indexed": false,
          "internalType": "uint256",
          "name": "_fee",
          "type": "uint256"
        },
        {
          "indexed": false,
          "internalType": "uint256",
          "name": "_value",
          "type": "uint256"
        },
        {
          "indexed": false,
          "internalType": "uint256",
          "name": "_nonce",
          "type": "uint256"
        },
        {
          "indexed": false,
          "internalType": "bytes",
          "name": "_calldata",
          "type": "bytes"
        },
        {
          "indexed": true,
          "internalType": "bytes32",
          "name": "_messageHash",
          "type": "bytes32"
        }
      ],
      "name": "MessageSent",
      "type": "event"
    },
    {
      "anonymous": false,
      "inputs": [],
      "name": "NonSecurityCouncilCooldownEndReset",
      "type": "event"
    },
    {
      "anonymous": false,
      "inputs": [
        {
          "indexed": true,
          "internalType": "enum IPauseManager.PauseType",
          "name": "pauseType",
          "type": "uint8"
        },
        {
          "indexed": true,
          "internalType": "bytes32",
          "name": "role",
          "type": "bytes32"
        }
      ],
      "name": "PauseTypeRoleSet",
      "type": "event"
    },
    {
      "anonymous": false,
      "inputs": [
        {
          "indexed": true,
          "internalType": "enum IPauseManager.PauseType",
          "name": "pauseType",
          "type": "uint8"
        },
        {
          "indexed": true,
          "internalType": "bytes32",
          "name": "role",
          "type": "bytes32"
        },
        {
          "indexed": true,
          "internalType": "bytes32",
          "name": "previousRole",
          "type": "bytes32"
        }
      ],
      "name": "PauseTypeRoleUpdated",
      "type": "event"
    },
    {
      "anonymous": false,
      "inputs": [
        {
          "indexed": false,
          "internalType": "address",
          "name": "messageSender",
          "type": "address"
        },
        {
          "indexed": true,
          "internalType": "enum IPauseManager.PauseType",
          "name": "pauseType",
          "type": "uint8"
        }
      ],
      "name": "Paused",
      "type": "event"
    },
    {
      "anonymous": false,
      "inputs": [
        {
          "indexed": false,
          "internalType": "address",
          "name": "messageSender",
          "type": "address"
        },
        {
          "indexed": true,
          "internalType": "enum IPauseManager.PauseType",
          "name": "pauseType",
          "type": "uint8"
        }
      ],
      "name": "PausedIndefinitely",
      "type": "event"
    },
    {
      "anonymous": false,
      "inputs": [
        {
          "indexed": false,
          "internalType": "uint256",
          "name": "periodInSeconds",
          "type": "uint256"
        },
        {
          "indexed": false,
          "internalType": "uint256",
          "name": "limitInWei",
          "type": "uint256"
        },
        {
          "indexed": false,
          "internalType": "uint256",
          "name": "currentPeriodEnd",
          "type": "uint256"
        }
      ],
      "name": "RateLimitInitialized",
      "type": "event"
    },
    {
      "anonymous": false,
      "inputs": [
        {
          "indexed": true,
          "internalType": "bytes32",
          "name": "role",
          "type": "bytes32"
        },
        {
          "indexed": true,
          "internalType": "bytes32",
          "name": "previousAdminRole",
          "type": "bytes32"
        },
        {
          "indexed": true,
          "internalType": "bytes32",
          "name": "newAdminRole",
          "type": "bytes32"
        }
      ],
      "name": "RoleAdminChanged",
      "type": "event"
    },
    {
      "anonymous": false,
      "inputs": [
        {
          "indexed": true,
          "internalType": "bytes32",
          "name": "role",
          "type": "bytes32"
        },
        {
          "indexed": true,
          "internalType": "address",
          "name": "account",
          "type": "address"
        },
        {
          "indexed": true,
          "internalType": "address",
          "name": "sender",
          "type": "address"
        }
      ],
      "name": "RoleGranted",
      "type": "event"
    },
    {
      "anonymous": false,
      "inputs": [
        {
          "indexed": true,
          "internalType": "bytes32",
          "name": "role",
          "type": "bytes32"
        },
        {
          "indexed": true,
          "internalType": "address",
          "name": "account",
          "type": "address"
        },
        {
          "indexed": true,
          "internalType": "address",
          "name": "sender",
          "type": "address"
        }
      ],
      "name": "RoleRevoked",
      "type": "event"
    },
    {
      "anonymous": false,
      "inputs": [
        {
          "indexed": true,
          "internalType": "uint256",
          "name": "messageNumber",
          "type": "uint256"
        },
        {
          "indexed": true,
          "internalType": "bytes32",
          "name": "rollingHash",
          "type": "bytes32"
        },
        {
          "indexed": true,
          "internalType": "bytes32",
          "name": "messageHash",
          "type": "bytes32"
        }
      ],
      "name": "RollingHashUpdated",
      "type": "event"
    },
    {
      "anonymous": false,
      "inputs": [
        {
          "indexed": true,
          "internalType": "enum IPauseManager.PauseType",
          "name": "unPauseType",
          "type": "uint8"
        },
        {
          "indexed": true,
          "internalType": "bytes32",
          "name": "role",
          "type": "bytes32"
        }
      ],
      "name": "UnPauseTypeRoleSet",
      "type": "event"
    },
    {
      "anonymous": false,
      "inputs": [
        {
          "indexed": true,
          "internalType": "enum IPauseManager.PauseType",
          "name": "unPauseType",
          "type": "uint8"
        },
        {
          "indexed": true,
          "internalType": "bytes32",
          "name": "role",
          "type": "bytes32"
        },
        {
          "indexed": true,
          "internalType": "bytes32",
          "name": "previousRole",
          "type": "bytes32"
        }
      ],
      "name": "UnPauseTypeRoleUpdated",
      "type": "event"
    },
    {
      "anonymous": false,
      "inputs": [
        {
          "indexed": false,
          "internalType": "address",
          "name": "messageSender",
          "type": "address"
        },
        {
          "indexed": true,
          "internalType": "enum IPauseManager.PauseType",
          "name": "pauseType",
          "type": "uint8"
        }
      ],
      "name": "UnPaused",
      "type": "event"
    },
    {
      "anonymous": false,
      "inputs": [
        {
          "indexed": true,
          "internalType": "enum IPauseManager.PauseType",
          "name": "pauseType",
          "type": "uint8"
        }
      ],
      "name": "UnPausedDueToExpiry",
      "type": "event"
    },
    {
      "anonymous": false,
      "inputs": [
        {
          "indexed": true,
          "internalType": "address",
          "name": "verifierAddress",
          "type": "address"
        },
        {
          "indexed": true,
          "internalType": "uint256",
          "name": "proofType",
          "type": "uint256"
        },
        {
          "indexed": true,
          "internalType": "address",
          "name": "verifierSetBy",
          "type": "address"
        },
        {
          "indexed": false,
          "internalType": "address",
          "name": "oldVerifierAddress",
          "type": "address"
        }
      ],
      "name": "VerifierAddressChanged",
      "type": "event"
    },
    {
      "anonymous": false,
      "inputs": [
        {
          "indexed": false,
          "internalType": "address",
          "name": "oldYieldManagerAddress",
          "type": "address"
        },
        {
          "indexed": false,
          "internalType": "address",
          "name": "newYieldManagerAddress",
          "type": "address"
        }
      ],
      "name": "YieldManagerChanged",
      "type": "event"
    },
    {
      "inputs": [],
      "name": "CONTRACT_VERSION",
      "outputs": [
        {
          "internalType": "string",
          "name": "contractVersion",
          "type": "string"
        }
      ],
      "stateMutability": "view",
      "type": "function"
    },
    {
      "inputs": [],
      "name": "COOLDOWN_DURATION",
      "outputs": [
        {
          "internalType": "uint256",
          "name": "",
          "type": "uint256"
        }
      ],
      "stateMutability": "view",
      "type": "function"
    },
    {
      "inputs": [],
      "name": "DEFAULT_ADMIN_ROLE",
      "outputs": [
        {
          "internalType": "bytes32",
          "name": "",
          "type": "bytes32"
        }
      ],
      "stateMutability": "view",
      "type": "function"
    },
    {
      "inputs": [],
      "name": "FORCED_TRANSACTION_FEE_SETTER_ROLE",
      "outputs": [
        {
          "internalType": "bytes32",
          "name": "",
          "type": "bytes32"
        }
      ],
      "stateMutability": "view",
      "type": "function"
    },
    {
      "inputs": [],
      "name": "FORCED_TRANSACTION_SENDER_ROLE",
      "outputs": [
        {
          "internalType": "bytes32",
          "name": "",
          "type": "bytes32"
        }
      ],
      "stateMutability": "view",
      "type": "function"
    },
    {
      "inputs": [],
      "name": "INBOX_STATUS_RECEIVED",
      "outputs": [
        {
          "internalType": "uint8",
          "name": "",
          "type": "uint8"
        }
      ],
      "stateMutability": "view",
      "type": "function"
    },
    {
      "inputs": [],
      "name": "INBOX_STATUS_UNKNOWN",
      "outputs": [
        {
          "internalType": "uint8",
          "name": "",
          "type": "uint8"
        }
      ],
      "stateMutability": "view",
      "type": "function"
    },
    {
      "inputs": [],
      "name": "OPERATOR_ROLE",
      "outputs": [
        {
          "internalType": "bytes32",
          "name": "",
          "type": "bytes32"
        }
      ],
      "stateMutability": "view",
      "type": "function"
    },
    {
      "inputs": [],
      "name": "OUTBOX_STATUS_RECEIVED",
      "outputs": [
        {
          "internalType": "uint8",
          "name": "",
          "type": "uint8"
        }
      ],
      "stateMutability": "view",
      "type": "function"
    },
    {
      "inputs": [],
      "name": "OUTBOX_STATUS_SENT",
      "outputs": [
        {
          "internalType": "uint8",
          "name": "",
          "type": "uint8"
        }
      ],
      "stateMutability": "view",
      "type": "function"
    },
    {
      "inputs": [],
      "name": "OUTBOX_STATUS_UNKNOWN",
      "outputs": [
        {
          "internalType": "uint8",
          "name": "",
          "type": "uint8"
        }
      ],
      "stateMutability": "view",
      "type": "function"
    },
    {
      "inputs": [],
      "name": "PAUSE_ALL_ROLE",
      "outputs": [
        {
          "internalType": "bytes32",
          "name": "",
          "type": "bytes32"
        }
      ],
      "stateMutability": "view",
      "type": "function"
    },
    {
      "inputs": [],
      "name": "PAUSE_DURATION",
      "outputs": [
        {
          "internalType": "uint256",
          "name": "",
          "type": "uint256"
        }
      ],
      "stateMutability": "view",
      "type": "function"
    },
    {
      "inputs": [],
      "name": "PAUSE_FINALIZATION_ROLE",
      "outputs": [
        {
          "internalType": "bytes32",
          "name": "",
          "type": "bytes32"
        }
      ],
      "stateMutability": "view",
      "type": "function"
    },
    {
      "inputs": [],
      "name": "PAUSE_L1_L2_ROLE",
      "outputs": [
        {
          "internalType": "bytes32",
          "name": "",
          "type": "bytes32"
        }
      ],
      "stateMutability": "view",
      "type": "function"
    },
    {
      "inputs": [],
      "name": "PAUSE_L2_L1_ROLE",
      "outputs": [
        {
          "internalType": "bytes32",
          "name": "",
          "type": "bytes32"
        }
      ],
      "stateMutability": "view",
      "type": "function"
    },
    {
      "inputs": [],
      "name": "PAUSE_NATIVE_YIELD_STAKING_ROLE",
      "outputs": [
        {
          "internalType": "bytes32",
          "name": "",
          "type": "bytes32"
        }
      ],
      "stateMutability": "view",
      "type": "function"
    },
    {
      "inputs": [],
      "name": "PAUSE_STATE_DATA_SUBMISSION_ROLE",
      "outputs": [
        {
          "internalType": "bytes32",
          "name": "",
          "type": "bytes32"
        }
      ],
      "stateMutability": "view",
      "type": "function"
    },
    {
      "inputs": [],
      "name": "RATE_LIMIT_SETTER_ROLE",
      "outputs": [
        {
          "internalType": "bytes32",
          "name": "",
          "type": "bytes32"
        }
      ],
      "stateMutability": "view",
      "type": "function"
    },
    {
      "inputs": [],
      "name": "SECURITY_COUNCIL_ROLE",
      "outputs": [
        {
          "internalType": "bytes32",
          "name": "",
          "type": "bytes32"
        }
      ],
      "stateMutability": "view",
      "type": "function"
    },
    {
      "inputs": [],
      "name": "SET_ADDRESS_FILTER_ROLE",
      "outputs": [
        {
          "internalType": "bytes32",
          "name": "",
          "type": "bytes32"
        }
      ],
      "stateMutability": "view",
      "type": "function"
    },
    {
      "inputs": [],
      "name": "SET_YIELD_MANAGER_ROLE",
      "outputs": [
        {
          "internalType": "bytes32",
          "name": "",
          "type": "bytes32"
        }
      ],
      "stateMutability": "view",
      "type": "function"
    },
    {
      "inputs": [],
      "name": "UNPAUSE_ALL_ROLE",
      "outputs": [
        {
          "internalType": "bytes32",
          "name": "",
          "type": "bytes32"
        }
      ],
      "stateMutability": "view",
      "type": "function"
    },
    {
      "inputs": [],
      "name": "UNPAUSE_FINALIZATION_ROLE",
      "outputs": [
        {
          "internalType": "bytes32",
          "name": "",
          "type": "bytes32"
        }
      ],
      "stateMutability": "view",
      "type": "function"
    },
    {
      "inputs": [],
      "name": "UNPAUSE_L1_L2_ROLE",
      "outputs": [
        {
          "internalType": "bytes32",
          "name": "",
          "type": "bytes32"
        }
      ],
      "stateMutability": "view",
      "type": "function"
    },
    {
      "inputs": [],
      "name": "UNPAUSE_L2_L1_ROLE",
      "outputs": [
        {
          "internalType": "bytes32",
          "name": "",
          "type": "bytes32"
        }
      ],
      "stateMutability": "view",
      "type": "function"
    },
    {
      "inputs": [],
      "name": "UNPAUSE_NATIVE_YIELD_STAKING_ROLE",
      "outputs": [
        {
          "internalType": "bytes32",
          "name": "",
          "type": "bytes32"
        }
      ],
      "stateMutability": "view",
      "type": "function"
    },
    {
      "inputs": [],
      "name": "UNPAUSE_STATE_DATA_SUBMISSION_ROLE",
      "outputs": [
        {
          "internalType": "bytes32",
          "name": "",
          "type": "bytes32"
        }
      ],
      "stateMutability": "view",
      "type": "function"
    },
    {
      "inputs": [],
      "name": "USED_RATE_LIMIT_RESETTER_ROLE",
      "outputs": [
        {
          "internalType": "bytes32",
          "name": "",
          "type": "bytes32"
        }
      ],
      "stateMutability": "view",
      "type": "function"
    },
    {
      "inputs": [],
      "name": "VERIFIER_SETTER_ROLE",
      "outputs": [
        {
          "internalType": "bytes32",
          "name": "",
          "type": "bytes32"
        }
      ],
      "stateMutability": "view",
      "type": "function"
    },
    {
      "inputs": [],
      "name": "VERIFIER_UNSETTER_ROLE",
      "outputs": [
        {
          "internalType": "bytes32",
          "name": "",
          "type": "bytes32"
        }
      ],
      "stateMutability": "view",
      "type": "function"
    },
    {
      "inputs": [],
      "name": "YIELD_PROVIDER_STAKING_ROLE",
      "outputs": [
        {
          "internalType": "bytes32",
          "name": "",
          "type": "bytes32"
        }
      ],
      "stateMutability": "view",
      "type": "function"
    },
    {
      "inputs": [],
      "name": "addressFilter",
      "outputs": [
        {
          "internalType": "contract IAddressFilter",
          "name": "",
          "type": "address"
        }
      ],
      "stateMutability": "view",
      "type": "function"
    },
    {
      "inputs": [
        {
          "internalType": "bytes32",
          "name": "_shnarf",
          "type": "bytes32"
        }
      ],
      "name": "blobShnarfExists",
      "outputs": [
        {
          "internalType": "uint256",
          "name": "shnarfExists",
          "type": "uint256"
        }
      ],
      "stateMutability": "view",
      "type": "function"
    },
    {
      "inputs": [
        {
          "internalType": "address",
          "name": "_from",
          "type": "address"
        },
        {
          "internalType": "address",
          "name": "_to",
          "type": "address"
        },
        {
          "internalType": "uint256",
          "name": "_fee",
          "type": "uint256"
        },
        {
          "internalType": "uint256",
          "name": "_value",
          "type": "uint256"
        },
        {
          "internalType": "address payable",
          "name": "_feeRecipient",
          "type": "address"
        },
        {
          "internalType": "bytes",
          "name": "_calldata",
          "type": "bytes"
        },
        {
          "internalType": "uint256",
          "name": "_nonce",
          "type": "uint256"
        }
      ],
      "name": "claimMessage",
      "outputs": [],
      "stateMutability": "nonpayable",
      "type": "function"
    },
    {
      "inputs": [
        {
          "components": [
            {
              "internalType": "bytes32[]",
              "name": "proof",
              "type": "bytes32[]"
            },
            {
              "internalType": "uint256",
              "name": "messageNumber",
              "type": "uint256"
            },
            {
              "internalType": "uint32",
              "name": "leafIndex",
              "type": "uint32"
            },
            {
              "internalType": "address",
              "name": "from",
              "type": "address"
            },
            {
              "internalType": "address",
              "name": "to",
              "type": "address"
            },
            {
              "internalType": "uint256",
              "name": "fee",
              "type": "uint256"
            },
            {
              "internalType": "uint256",
              "name": "value",
              "type": "uint256"
            },
            {
              "internalType": "address payable",
              "name": "feeRecipient",
              "type": "address"
            },
            {
              "internalType": "bytes32",
              "name": "merkleRoot",
              "type": "bytes32"
            },
            {
              "internalType": "bytes",
              "name": "data",
              "type": "bytes"
            }
          ],
          "internalType": "struct IL1MessageService.ClaimMessageWithProofParams",
          "name": "_params",
          "type": "tuple"
        }
      ],
      "name": "claimMessageWithProof",
      "outputs": [],
      "stateMutability": "nonpayable",
      "type": "function"
    },
    {
      "inputs": [
        {
          "components": [
            {
              "internalType": "bytes32[]",
              "name": "proof",
              "type": "bytes32[]"
            },
            {
              "internalType": "uint256",
              "name": "messageNumber",
              "type": "uint256"
            },
            {
              "internalType": "uint32",
              "name": "leafIndex",
              "type": "uint32"
            },
            {
              "internalType": "address",
              "name": "from",
              "type": "address"
            },
            {
              "internalType": "address",
              "name": "to",
              "type": "address"
            },
            {
              "internalType": "uint256",
              "name": "fee",
              "type": "uint256"
            },
            {
              "internalType": "uint256",
              "name": "value",
              "type": "uint256"
            },
            {
              "internalType": "address payable",
              "name": "feeRecipient",
              "type": "address"
            },
            {
              "internalType": "bytes32",
              "name": "merkleRoot",
              "type": "bytes32"
            },
            {
              "internalType": "bytes",
              "name": "data",
              "type": "bytes"
            }
          ],
          "internalType": "struct IL1MessageService.ClaimMessageWithProofParams",
          "name": "_params",
          "type": "tuple"
        },
        {
          "internalType": "address",
          "name": "_yieldProvider",
          "type": "address"
        }
      ],
      "name": "claimMessageWithProofAndWithdrawLST",
      "outputs": [],
      "stateMutability": "nonpayable",
      "type": "function"
    },
    {
      "inputs": [],
      "name": "currentFinalizedShnarf",
      "outputs": [
        {
          "internalType": "bytes32",
          "name": "",
          "type": "bytes32"
        }
      ],
      "stateMutability": "view",
      "type": "function"
    },
    {
      "inputs": [],
      "name": "currentFinalizedState",
      "outputs": [
        {
          "internalType": "bytes32",
          "name": "",
          "type": "bytes32"
        }
      ],
      "stateMutability": "view",
      "type": "function"
    },
    {
      "inputs": [],
      "name": "currentL2BlockNumber",
      "outputs": [
        {
          "internalType": "uint256",
          "name": "",
          "type": "uint256"
        }
      ],
      "stateMutability": "view",
      "type": "function"
    },
    {
      "inputs": [],
      "name": "currentPeriodAmountInWei",
      "outputs": [
        {
          "internalType": "uint256",
          "name": "",
          "type": "uint256"
        }
      ],
      "stateMutability": "view",
      "type": "function"
    },
    {
      "inputs": [],
      "name": "currentPeriodEnd",
      "outputs": [
        {
          "internalType": "uint256",
          "name": "",
          "type": "uint256"
        }
      ],
      "stateMutability": "view",
      "type": "function"
    },
    {
      "inputs": [
        {
          "internalType": "bytes",
          "name": "_aggregatedProof",
          "type": "bytes"
        },
        {
          "internalType": "uint256",
          "name": "_proofType",
          "type": "uint256"
        },
        {
          "components": [
            {
              "internalType": "bytes32",
              "name": "parentStateRootHash",
              "type": "bytes32"
            },
            {
              "internalType": "uint256",
              "name": "endBlockNumber",
              "type": "uint256"
            },
            {
              "components": [
                {
                  "internalType": "bytes32",
                  "name": "parentShnarf",
                  "type": "bytes32"
                },
                {
                  "internalType": "bytes32",
                  "name": "snarkHash",
                  "type": "bytes32"
                },
                {
                  "internalType": "bytes32",
                  "name": "finalStateRootHash",
                  "type": "bytes32"
                },
                {
                  "internalType": "bytes32",
                  "name": "dataEvaluationPoint",
                  "type": "bytes32"
                },
                {
                  "internalType": "bytes32",
                  "name": "dataEvaluationClaim",
                  "type": "bytes32"
                }
              ],
              "internalType": "struct ILineaRollupBase.ShnarfData",
              "name": "shnarfData",
              "type": "tuple"
            },
            {
              "internalType": "uint256",
              "name": "lastFinalizedTimestamp",
              "type": "uint256"
            },
            {
              "internalType": "uint256",
              "name": "finalTimestamp",
              "type": "uint256"
            },
            {
              "internalType": "bytes32",
              "name": "lastFinalizedL1RollingHash",
              "type": "bytes32"
            },
            {
              "internalType": "bytes32",
              "name": "l1RollingHash",
              "type": "bytes32"
            },
            {
              "internalType": "uint256",
              "name": "lastFinalizedL1RollingHashMessageNumber",
              "type": "uint256"
            },
            {
              "internalType": "uint256",
              "name": "l1RollingHashMessageNumber",
              "type": "uint256"
            },
            {
              "internalType": "uint256",
              "name": "l2MerkleTreesDepth",
              "type": "uint256"
            },
            {
              "internalType": "uint256",
              "name": "lastFinalizedForcedTransactionNumber",
              "type": "uint256"
            },
            {
              "internalType": "uint256",
              "name": "finalForcedTransactionNumber",
              "type": "uint256"
            },
            {
              "internalType": "bytes32",
              "name": "lastFinalizedForcedTransactionRollingHash",
              "type": "bytes32"
            },
            {
              "internalType": "bytes32[]",
              "name": "l2MerkleRoots",
              "type": "bytes32[]"
            },
            {
              "internalType": "address[]",
              "name": "filteredAddresses",
              "type": "address[]"
            },
            {
              "internalType": "bytes",
              "name": "l2MessagingBlocksOffsets",
              "type": "bytes"
            }
          ],
          "internalType": "struct ILineaRollupBase.FinalizationDataV4",
          "name": "_finalizationData",
          "type": "tuple"
        }
      ],
      "name": "finalizeBlocks",
      "outputs": [],
      "stateMutability": "nonpayable",
      "type": "function"
    },
    {
      "inputs": [],
      "name": "forcedTransactionFeeInWei",
      "outputs": [
        {
          "internalType": "uint256",
          "name": "",
          "type": "uint256"
        }
      ],
      "stateMutability": "view",
      "type": "function"
    },
    {
      "inputs": [
        {
          "internalType": "uint256",
          "name": "forcedTransactionNumber",
          "type": "uint256"
        }
      ],
      "name": "forcedTransactionL2BlockNumbers",
      "outputs": [
        {
          "internalType": "uint256",
          "name": "l2BlockNumber",
          "type": "uint256"
        }
      ],
      "stateMutability": "view",
      "type": "function"
    },
    {
      "inputs": [
        {
          "internalType": "uint256",
          "name": "forcedTransactionNumber",
          "type": "uint256"
        }
      ],
      "name": "forcedTransactionRollingHashes",
      "outputs": [
        {
          "internalType": "bytes32",
          "name": "rollingHash",
          "type": "bytes32"
        }
      ],
      "stateMutability": "view",
      "type": "function"
    },
    {
      "inputs": [],
      "name": "fund",
      "outputs": [],
      "stateMutability": "payable",
      "type": "function"
    },
    {
      "inputs": [],
      "name": "getRequiredForcedTransactionFields",
      "outputs": [
        {
          "internalType": "bytes32",
          "name": "finalizedState",
          "type": "bytes32"
        },
        {
          "internalType": "bytes32",
          "name": "previousForcedTransactionRollingHash",
          "type": "bytes32"
        },
        {
          "internalType": "uint256",
          "name": "previousForcedTransactionBlockDeadline",
          "type": "uint256"
        },
        {
          "internalType": "uint256",
          "name": "currentFinalizedL2BlockNumber",
          "type": "uint256"
        },
        {
          "internalType": "uint256",
          "name": "forcedTransactionFeeAmount",
          "type": "uint256"
        }
      ],
      "stateMutability": "view",
      "type": "function"
    },
    {
      "inputs": [
        {
          "internalType": "bytes32",
          "name": "role",
          "type": "bytes32"
        }
      ],
      "name": "getRoleAdmin",
      "outputs": [
        {
          "internalType": "bytes32",
          "name": "",
          "type": "bytes32"
        }
      ],
      "stateMutability": "view",
      "type": "function"
    },
    {
      "inputs": [
        {
          "internalType": "bytes32",
          "name": "role",
          "type": "bytes32"
        },
        {
          "internalType": "address",
          "name": "account",
          "type": "address"
        }
      ],
      "name": "grantRole",
      "outputs": [],
      "stateMutability": "nonpayable",
      "type": "function"
    },
    {
      "inputs": [
        {
          "internalType": "bytes32",
          "name": "role",
          "type": "bytes32"
        },
        {
          "internalType": "address",
          "name": "account",
          "type": "address"
        }
      ],
      "name": "hasRole",
      "outputs": [
        {
          "internalType": "bool",
          "name": "",
          "type": "bool"
        }
      ],
      "stateMutability": "view",
      "type": "function"
    },
    {
      "inputs": [
        {
          "internalType": "bytes32",
          "name": "messageHash",
          "type": "bytes32"
        }
      ],
      "name": "inboxL2L1MessageStatus",
      "outputs": [
        {
          "internalType": "uint256",
          "name": "messageStatus",
          "type": "uint256"
        }
      ],
      "stateMutability": "view",
      "type": "function"
    },
    {
      "inputs": [
        {
          "components": [
            {
              "internalType": "bytes32",
              "name": "initialStateRootHash",
              "type": "bytes32"
            },
            {
              "internalType": "uint256",
              "name": "initialL2BlockNumber",
              "type": "uint256"
            },
            {
              "internalType": "uint256",
              "name": "genesisTimestamp",
              "type": "uint256"
            },
            {
              "internalType": "address",
              "name": "defaultVerifier",
              "type": "address"
            },
            {
              "internalType": "uint256",
              "name": "rateLimitPeriodInSeconds",
              "type": "uint256"
            },
            {
              "internalType": "uint256",
              "name": "rateLimitAmountInWei",
              "type": "uint256"
            },
            {
              "components": [
                {
                  "internalType": "address",
                  "name": "addressWithRole",
                  "type": "address"
                },
                {
                  "internalType": "bytes32",
                  "name": "role",
                  "type": "bytes32"
                }
              ],
              "internalType": "struct IPermissionsManager.RoleAddress[]",
              "name": "roleAddresses",
              "type": "tuple[]"
            },
            {
              "components": [
                {
                  "internalType": "enum IPauseManager.PauseType",
                  "name": "pauseType",
                  "type": "uint8"
                },
                {
                  "internalType": "bytes32",
                  "name": "role",
                  "type": "bytes32"
                }
              ],
              "internalType": "struct IPauseManager.PauseTypeRole[]",
              "name": "pauseTypeRoles",
              "type": "tuple[]"
            },
            {
              "components": [
                {
                  "internalType": "enum IPauseManager.PauseType",
                  "name": "pauseType",
                  "type": "uint8"
                },
                {
                  "internalType": "bytes32",
                  "name": "role",
                  "type": "bytes32"
                }
              ],
              "internalType": "struct IPauseManager.PauseTypeRole[]",
              "name": "unpauseTypeRoles",
              "type": "tuple[]"
            },
            {
              "internalType": "address",
              "name": "defaultAdmin",
              "type": "address"
            },
            {
              "internalType": "address",
              "name": "shnarfProvider",
              "type": "address"
            },
            {
              "internalType": "address",
              "name": "addressFilter",
              "type": "address"
            }
          ],
          "internalType": "struct ILineaRollupBase.BaseInitializationData",
          "name": "_initializationData",
          "type": "tuple"
        },
        {
          "internalType": "address",
          "name": "_livenessRecoveryOperator",
          "type": "address"
        },
        {
          "internalType": "address",
          "name": "_yieldManager",
          "type": "address"
        }
      ],
      "name": "initialize",
      "outputs": [],
      "stateMutability": "nonpayable",
      "type": "function"
    },
    {
      "inputs": [
        {
          "internalType": "uint256",
          "name": "_messageNumber",
          "type": "uint256"
        }
      ],
      "name": "isMessageClaimed",
      "outputs": [
        {
          "internalType": "bool",
          "name": "isClaimed",
          "type": "bool"
        }
      ],
      "stateMutability": "view",
      "type": "function"
    },
    {
      "inputs": [
        {
          "internalType": "enum IPauseManager.PauseType",
          "name": "_pauseType",
          "type": "uint8"
        }
      ],
      "name": "isPaused",
      "outputs": [
        {
          "internalType": "bool",
          "name": "pauseTypeIsPaused",
          "type": "bool"
        }
      ],
      "stateMutability": "view",
      "type": "function"
    },
    {
      "inputs": [],
      "name": "isWithdrawLSTAllowed",
      "outputs": [
        {
          "internalType": "bool",
          "name": "",
          "type": "bool"
        }
      ],
      "stateMutability": "view",
      "type": "function"
    },
    {
      "inputs": [
        {
          "internalType": "bytes32",
          "name": "merkleRoot",
          "type": "bytes32"
        }
      ],
      "name": "l2MerkleRootsDepths",
      "outputs": [
        {
          "internalType": "uint256",
          "name": "treeDepth",
          "type": "uint256"
        }
      ],
      "stateMutability": "view",
      "type": "function"
    },
    {
      "inputs": [],
      "name": "limitInWei",
      "outputs": [
        {
          "internalType": "uint256",
          "name": "",
          "type": "uint256"
        }
      ],
      "stateMutability": "view",
      "type": "function"
    },
    {
      "inputs": [],
      "name": "livenessRecoveryOperator",
      "outputs": [
        {
          "internalType": "address",
          "name": "",
          "type": "address"
        }
      ],
      "stateMutability": "view",
      "type": "function"
    },
    {
      "inputs": [],
      "name": "nextForcedTransactionNumber",
      "outputs": [
        {
          "internalType": "uint256",
          "name": "",
          "type": "uint256"
        }
      ],
      "stateMutability": "view",
      "type": "function"
    },
    {
      "inputs": [],
      "name": "nextMessageNumber",
      "outputs": [
        {
          "internalType": "uint256",
          "name": "",
          "type": "uint256"
        }
      ],
      "stateMutability": "view",
      "type": "function"
    },
    {
      "inputs": [],
      "name": "nonSecurityCouncilCooldownEnd",
      "outputs": [
        {
          "internalType": "uint256",
          "name": "",
          "type": "uint256"
        }
      ],
      "stateMutability": "view",
      "type": "function"
    },
    {
      "inputs": [
        {
          "internalType": "bytes32",
          "name": "messageHash",
          "type": "bytes32"
        }
      ],
      "name": "outboxL1L2MessageStatus",
      "outputs": [
        {
          "internalType": "uint256",
          "name": "messageStatus",
          "type": "uint256"
        }
      ],
      "stateMutability": "view",
      "type": "function"
    },
    {
      "inputs": [
        {
          "internalType": "enum IPauseManager.PauseType",
          "name": "_pauseType",
          "type": "uint8"
        }
      ],
      "name": "pauseByType",
      "outputs": [],
      "stateMutability": "nonpayable",
      "type": "function"
    },
    {
      "inputs": [
        {
          "internalType": "enum IPauseManager.PauseType",
          "name": "pauseType",
          "type": "uint8"
        }
      ],
      "name": "pauseTypeExpiryTimestamps",
      "outputs": [
        {
          "internalType": "uint256",
          "name": "expiryTimestamp",
          "type": "uint256"
        }
      ],
      "stateMutability": "view",
      "type": "function"
    },
    {
      "inputs": [],
      "name": "periodInSeconds",
      "outputs": [
        {
          "internalType": "uint256",
          "name": "",
          "type": "uint256"
        }
      ],
      "stateMutability": "view",
      "type": "function"
    },
    {
      "inputs": [
        {
          "internalType": "uint256",
          "name": "_forcedTransactionFeeInWei",
          "type": "uint256"
        },
        {
          "internalType": "address",
          "name": "_addressFilter",
          "type": "address"
        }
      ],
      "name": "reinitializeLineaRollupV9",
      "outputs": [],
      "stateMutability": "nonpayable",
      "type": "function"
    },
    {
      "inputs": [
        {
          "internalType": "bytes32",
          "name": "_role",
          "type": "bytes32"
        },
        {
          "internalType": "address",
          "name": "_account",
          "type": "address"
        }
      ],
      "name": "renounceRole",
      "outputs": [],
      "stateMutability": "nonpayable",
      "type": "function"
    },
    {
      "inputs": [
        {
          "internalType": "uint256",
          "name": "_amount",
          "type": "uint256"
        },
        {
          "internalType": "address",
          "name": "_l2YieldRecipient",
          "type": "address"
        }
      ],
      "name": "reportNativeYield",
      "outputs": [],
      "stateMutability": "nonpayable",
      "type": "function"
    },
    {
      "inputs": [],
      "name": "resetAmountUsedInPeriod",
      "outputs": [],
      "stateMutability": "nonpayable",
      "type": "function"
    },
    {
      "inputs": [],
      "name": "resetNonSecurityCouncilCooldownEnd",
      "outputs": [],
      "stateMutability": "nonpayable",
      "type": "function"
    },
    {
      "inputs": [
        {
          "internalType": "uint256",
          "name": "_amount",
          "type": "uint256"
        }
      ],
      "name": "resetRateLimitAmount",
      "outputs": [],
      "stateMutability": "nonpayable",
      "type": "function"
    },
    {
      "inputs": [
        {
          "internalType": "bytes32",
          "name": "role",
          "type": "bytes32"
        },
        {
          "internalType": "address",
          "name": "account",
          "type": "address"
        }
      ],
      "name": "revokeRole",
      "outputs": [],
      "stateMutability": "nonpayable",
      "type": "function"
    },
    {
      "inputs": [
        {
          "internalType": "uint256",
          "name": "messageNumber",
          "type": "uint256"
        }
      ],
      "name": "rollingHashes",
      "outputs": [
        {
          "internalType": "bytes32",
          "name": "rollingHash",
          "type": "bytes32"
        }
      ],
      "stateMutability": "view",
      "type": "function"
    },
    {
      "inputs": [
        {
          "internalType": "address",
          "name": "_to",
          "type": "address"
        },
        {
          "internalType": "uint256",
          "name": "_fee",
          "type": "uint256"
        },
        {
          "internalType": "bytes",
          "name": "_calldata",
          "type": "bytes"
        }
      ],
      "name": "sendMessage",
      "outputs": [],
      "stateMutability": "payable",
      "type": "function"
    },
    {
      "inputs": [],
      "name": "sender",
      "outputs": [
        {
          "internalType": "address",
          "name": "originalSender",
          "type": "address"
        }
      ],
      "stateMutability": "view",
      "type": "function"
    },
    {
      "inputs": [
        {
          "internalType": "address",
          "name": "_addressFilter",
          "type": "address"
        }
      ],
      "name": "setAddressFilter",
      "outputs": [],
      "stateMutability": "nonpayable",
      "type": "function"
    },
    {
      "inputs": [
        {
          "internalType": "uint256",
          "name": "_forcedTransactionFeeInWei",
          "type": "uint256"
        }
      ],
      "name": "setForcedTransactionFee",
      "outputs": [],
      "stateMutability": "nonpayable",
      "type": "function"
    },
    {
      "inputs": [
        {
          "internalType": "uint256",
          "name": "_messageNumber",
          "type": "uint256"
        },
        {
          "internalType": "bytes32",
          "name": "_rollingHash",
          "type": "bytes32"
        },
        {
          "internalType": "uint256",
          "name": "_lastFinalizedForcedTransactionNumber",
          "type": "uint256"
        },
        {
          "internalType": "bytes32",
          "name": "_lastFinalizedForcedTransactionRollingHash",
          "type": "bytes32"
        },
        {
          "internalType": "uint256",
          "name": "_lastFinalizedTimestamp",
          "type": "uint256"
        }
      ],
      "name": "setLivenessRecoveryOperator",
      "outputs": [],
      "stateMutability": "nonpayable",
      "type": "function"
    },
    {
      "inputs": [
        {
          "internalType": "address",
          "name": "_newVerifierAddress",
          "type": "address"
        },
        {
          "internalType": "uint256",
          "name": "_proofType",
          "type": "uint256"
        }
      ],
      "name": "setVerifierAddress",
      "outputs": [],
      "stateMutability": "nonpayable",
      "type": "function"
    },
    {
      "inputs": [
        {
          "internalType": "address",
          "name": "_newYieldManager",
          "type": "address"
        }
      ],
      "name": "setYieldManager",
      "outputs": [],
      "stateMutability": "nonpayable",
      "type": "function"
    },
    {
      "inputs": [],
      "name": "shnarfProvider",
      "outputs": [
        {
          "internalType": "contract IProvideShnarf",
          "name": "",
          "type": "address"
        }
      ],
      "stateMutability": "view",
      "type": "function"
    },
    {
      "inputs": [
        {
          "internalType": "uint256",
          "name": "blockNumber",
          "type": "uint256"
        }
      ],
      "name": "stateRootHashes",
      "outputs": [
        {
          "internalType": "bytes32",
          "name": "stateRootHash",
          "type": "bytes32"
        }
      ],
      "stateMutability": "view",
      "type": "function"
    },
    {
      "inputs": [
        {
          "internalType": "bytes32",
          "name": "_forcedTransactionRollingHash",
          "type": "bytes32"
        },
        {
          "internalType": "address",
          "name": "_from",
          "type": "address"
        },
        {
          "internalType": "uint256",
          "name": "_blockNumberDeadline",
          "type": "uint256"
        },
        {
          "internalType": "bytes",
          "name": "_rlpEncodedSignedTransaction",
          "type": "bytes"
        }
      ],
      "name": "storeForcedTransaction",
      "outputs": [],
      "stateMutability": "payable",
      "type": "function"
    },
    {
      "inputs": [
        {
          "components": [
            {
              "internalType": "uint256",
              "name": "dataEvaluationClaim",
              "type": "uint256"
            },
            {
              "internalType": "bytes",
              "name": "kzgCommitment",
              "type": "bytes"
            },
            {
              "internalType": "bytes",
              "name": "kzgProof",
              "type": "bytes"
            },
            {
              "internalType": "bytes32",
              "name": "finalStateRootHash",
              "type": "bytes32"
            },
            {
              "internalType": "bytes32",
              "name": "snarkHash",
              "type": "bytes32"
            }
          ],
          "internalType": "struct IAcceptEip4844Blobs.BlobSubmission[]",
          "name": "_blobSubmissions",
          "type": "tuple[]"
        },
        {
          "internalType": "bytes32",
          "name": "_parentShnarf",
          "type": "bytes32"
        },
        {
          "internalType": "bytes32",
          "name": "_finalBlobShnarf",
          "type": "bytes32"
        }
      ],
      "name": "submitBlobs",
      "outputs": [],
      "stateMutability": "nonpayable",
      "type": "function"
    },
    {
      "inputs": [
        {
          "internalType": "bytes4",
          "name": "interfaceId",
          "type": "bytes4"
        }
      ],
      "name": "supportsInterface",
      "outputs": [
        {
          "internalType": "bool",
          "name": "",
          "type": "bool"
        }
      ],
      "stateMutability": "view",
      "type": "function"
    },
    {
      "inputs": [],
      "name": "systemMigrationBlock",
      "outputs": [
        {
          "internalType": "uint256",
          "name": "",
          "type": "uint256"
        }
      ],
      "stateMutability": "view",
      "type": "function"
    },
    {
      "inputs": [
        {
          "internalType": "uint256",
          "name": "_amount",
          "type": "uint256"
        }
      ],
      "name": "transferFundsForNativeYield",
      "outputs": [],
      "stateMutability": "nonpayable",
      "type": "function"
    },
    {
      "inputs": [
        {
          "internalType": "enum IPauseManager.PauseType",
          "name": "_pauseType",
          "type": "uint8"
        }
      ],
      "name": "unPauseByExpiredType",
      "outputs": [],
      "stateMutability": "nonpayable",
      "type": "function"
    },
    {
      "inputs": [
        {
          "internalType": "enum IPauseManager.PauseType",
          "name": "_pauseType",
          "type": "uint8"
        }
      ],
      "name": "unPauseByType",
      "outputs": [],
      "stateMutability": "nonpayable",
      "type": "function"
    },
    {
      "inputs": [
        {
          "internalType": "uint256",
          "name": "_proofType",
          "type": "uint256"
        }
      ],
      "name": "unsetVerifierAddress",
      "outputs": [],
      "stateMutability": "nonpayable",
      "type": "function"
    },
    {
      "inputs": [
        {
          "internalType": "enum IPauseManager.PauseType",
          "name": "_pauseType",
          "type": "uint8"
        },
        {
          "internalType": "bytes32",
          "name": "_newRole",
          "type": "bytes32"
        }
      ],
      "name": "updatePauseTypeRole",
      "outputs": [],
      "stateMutability": "nonpayable",
      "type": "function"
    },
    {
      "inputs": [
        {
          "internalType": "enum IPauseManager.PauseType",
          "name": "_pauseType",
          "type": "uint8"
        },
        {
          "internalType": "bytes32",
          "name": "_newRole",
          "type": "bytes32"
        }
      ],
      "name": "updateUnpauseTypeRole",
      "outputs": [],
      "stateMutability": "nonpayable",
      "type": "function"
    },
    {
      "inputs": [
        {
          "internalType": "uint256",
          "name": "proofType",
          "type": "uint256"
        }
      ],
      "name": "verifiers",
      "outputs": [
        {
          "internalType": "address",
          "name": "verifierAddress",
          "type": "address"
        }
      ],
      "stateMutability": "view",
      "type": "function"
    },
    {
      "inputs": [],
      "name": "yieldManager",
      "outputs": [
        {
          "internalType": "address",
          "name": "",
          "type": "address"
        }
      ],
      "stateMutability": "view",
      "type": "function"
    }
  ],
  "bytecode": "0x6080604052348015600e575f5ffd5b506015601f565b601b601f565b60d9565b5f54610100900460ff161560895760405162461bcd60e51b815260206004820152602760248201527f496e697469616c697a61626c653a20636f6e747261637420697320696e697469604482015266616c697a696e6760c81b606482015260840160405180910390fd5b5f5460ff9081161460d7575f805460ff191660ff9081179091556040519081527f7f26b83ff96e1f2b6a682f133852f6798a09c465da95921460cefb38474024989060200160405180910390a15b565b615d5f806100e65f395ff3fe608060405260043610610508575f3560e01c8063755bc62f11610299578063ad422ff011610160578063c2116974116100c9578063d9fe8bdd11610083578063d9fe8bdd14611121578063dd9be3e714611136578063e196fb5d14611155578063e66c2a9314611174578063ee82892014611193578063f5b541a6146111cf575f5ffd5b8063c211697414611047578063c294c91814611066578063cc6f725114611086578063cd9b9e9a146110b9578063d547741f146110cf578063d722bbfc146110ee575f5ffd5b8063b9174ba31161011a578063b9174ba314610f78578063b9fe5cf714610fab578063bc61e73314610fcb578063bf3e750514610fea578063c0729ab11461101d578063c1dc0f0714611032575f5ffd5b8063ad422ff014610ed3578063add9137a14610ee8578063ae15ceae14610f14578063aea4f74514610f47578063b60d428814610f5b578063b837dbe914610f63575f5ffd5b806392dd3f87116102025780639ee8b211116101bc5780639ee8b21114610e105780639f3ce55a14610e2f578063a217fddf14610e42578063a4c4cef714610e55578063a505925f14610e6b578063ac1eff6814610e9e575f5ffd5b806392dd3f8714610d4857806395ba81fa14610d7457806396e6e4b314610d93578063986fcddd14610c0f57806399467a3514610dbe5780639ac25d0814610ddd575f5ffd5b80638c7c363a116102535780638c7c363a14610c625780638de4948714610c81578063914e57eb14610cb457806391d1485414610ce0578063921b278e14610cff578063923fe89414610d15575f5ffd5b8063755bc62f14610ba957806376df1ecc14610bc857806378ea198a14610bdc5780637d1e8c5514610c0f57806380b7af1814610c225780638be745d114610c36575f5ffd5b806348922ab7116103dd5780635ec775b0116103465780636a906b80116103005780636a906b8014610abe5780636b78317214610af15780636e67384314610b105780637174c55914610b4357806373bd07b714610b7657806374ce962c14610b8a575f5ffd5b80635ec775b01461063457806360e83cf314610a0e5780636321315514610a3a5780636463fb2a14610a6d57806367e404ce14610a8c578063695378f514610aa8575f5ffd5b806352e576bb1161039757806352e576bb1461097a5780635334b7e614610990578063557eac73146109af57806358794456146109ce5780635b7eb4bd146108915780635c721a0c146109e3575f5ffd5b806348922ab714610891578063491e0936146108b75780634bb97413146108d6578063516f1a44146108f55780635230eef21461092857806352abf32d1461095b575f5ffd5b80632c3c67d01161047f5780633b12eccb116104395780633b12eccb146107a25780633c0f20fc146107d55780633e9ebfc2146107f55780633fc08b6514610814578063411aa28c1461083f57806342277d701461085e575f5ffd5b80632c3c67d0146106e25780632c70645c146107015780632f2ff15d146107175780632fe352741461073657806336568abe1461075257806338b9033314610771575f5ffd5b80632130d812116104d05780632130d8121461060857806321b4deee14610634578063248a9ca31461064a578063248c612614610678578063289581741461068b5780632acc8df9146106aa575f5ffd5b806301ffc9a71461050c57806303134d1d14610540578063085b1c6f146105815780631065a399146105b4578063198330f8146105d5575b5f5ffd5b348015610517575f5ffd5b5061052b610526366004614eaf565b6111ef565b60405190151581526020015b60405180910390f35b34801561054b575f5ffd5b506105737f1ab87f7458c0e3d07e9881c14ee67f0141703614fd48ea5b15ed987e5f4b030e81565b604051908152602001610537565b34801561058c575f5ffd5b506105737f220bd22ef7c53d75fe3eac0a09e90815a0c5ba4f9e8da8b039542cd3db34725881565b3480156105bf575f5ffd5b506105d36105ce366004614ee9565b611225565b005b3480156105e0575f5ffd5b506105737f76ef52a5344b10ed112c1d48c7c06f51e919518ea6fb005f9b25b359b955e3be81565b348015610613575f5ffd5b50610573610622366004614f02565b5f9081526101be602052604090205490565b34801561063f575f5ffd5b506105736202a30081565b348015610655575f5ffd5b50610573610664366004614f02565b5f9081526065602052604090206001015490565b6105d3610686366004614f7c565b6113de565b348015610696575f5ffd5b506105d36106a5366004614f02565b611542565b3480156106b5575f5ffd5b506101c0546106ca906001600160a01b031681565b6040516001600160a01b039091168152602001610537565b3480156106ed575f5ffd5b506105d36106fc366004614fe0565b6115dd565b34801561070c575f5ffd5b506105736101835481565b348015610722575f5ffd5b506105d3610731366004615017565b6116d0565b348015610741575f5ffd5b50600160a01b5f5c0460ff1661052b565b34801561075d575f5ffd5b506105d361076c366004615017565b6116f9565b34801561077c575f5ffd5b5060408051808201825260038152620382e360ec1b602082015290516105379190615045565b3480156107ad575f5ffd5b506105737fb6cc65f42901ed602aec1619cc1ead29d487cd489094a37615153eaeb991d77081565b3480156107e0575f5ffd5b506101c1546106ca906001600160a01b031681565b348015610800575f5ffd5b506105d361080f36600461507a565b611707565b34801561081f575f5ffd5b5061057361082e366004614f02565b60a56020525f908152604090205481565b34801561084a575f5ffd5b506105d3610859366004615017565b611821565b348015610869575f5ffd5b506105737f012c76ef7f96cd7eb95acbdc250ad5696bbe3fd2fcf0207571939fa40c2e016781565b34801561089c575f5ffd5b506108a5600181565b60405160ff9091168152602001610537565b3480156108c2575f5ffd5b506105d36108d13660046150a2565b611a15565b3480156108e1575f5ffd5b506105d36108f0366004615017565b611c91565b348015610900575f5ffd5b506105737fb63b70db607c764adad98a6745fc4efcea212ebc7b501d5753c57d675f377a6681565b348015610933575f5ffd5b506105737f0cf0d2deb70d7bdac2fa48c4ac99bc558170be0ce5fcb994caefa4bf7b96edf981565b348015610966575f5ffd5b506105d361097536600461507a565b611db7565b348015610985575f5ffd5b506105736101c55481565b34801561099b575f5ffd5b506105d36109aa366004614f02565b611ed1565b3480156109ba575f5ffd5b506105d36109c9366004614f02565b611f59565b3480156109d9575f5ffd5b5061057360995481565b3480156109ee575f5ffd5b506105736109fd366004614f02565b60a66020525f908152604090205481565b348015610a19575f5ffd5b50610573610a28366004614f02565b6101506020525f908152604090205481565b348015610a45575f5ffd5b506105737fe37c272ea30e2bb381ad7cf89ae754b49153250609f36d0cbdad8b64c184bb5c81565b348015610a78575f5ffd5b506105d3610a87366004615142565b612023565b348015610a97575f5ffd5b505f5c6001600160a01b03166106ca565b348015610ab3575f5ffd5b506105736101195481565b348015610ac9575f5ffd5b506105737fd8b4c34c2ec1f3194471108c64ad2beda340c0337ee4ca35592f9ef270f4228b81565b348015610afc575f5ffd5b506105d3610b0b36600461517b565b61219e565b348015610b1b575f5ffd5b506105737f32937fd5162e282df7e9a14a5073a2425321c7966eaf70ed6c838a1006d84c4c81565b348015610b4e575f5ffd5b506105737f4b4665d8754e6ea0608430ef3e91c1b45c72aafe8800e289cd35f38d8536185881565b348015610b81575f5ffd5b506108a5600281565b348015610b95575f5ffd5b506105d3610ba43660046151be565b612338565b348015610bb4575f5ffd5b506105d3610bc33660046151d9565b61236b565b348015610bd3575f5ffd5b506105d36124f0565b348015610be7575f5ffd5b506105737f4df33217c89b6f12af38ba46035cb312b5e88de78d22279286830fe079b642cd81565b348015610c1a575f5ffd5b506108a55f81565b348015610c2d575f5ffd5b506106ca612536565b348015610c41575f5ffd5b50610573610c50366004614f02565b61011a6020525f908152604090205481565b348015610c6d575f5ffd5b506105d3610c7c3660046151be565b612564565b348015610c8c575f5ffd5b506105737fe1fce82838dd7a42cfe783f60dc6233c8aa2c4fc66e77817805e767ec5e349b681565b348015610cbf575f5ffd5b50610573610cce366004614f02565b61014e6020525f908152604090205481565b348015610ceb575f5ffd5b5061052b610cfa366004615017565b612626565b348015610d0a575f5ffd5b506105736101bf5481565b348015610d20575f5ffd5b506105737fcc10d6eec3c757d645e27b3f3001a3ba52f692da0bce25fabf58c6ecaf37645081565b348015610d53575f5ffd5b50610573610d62366004614f02565b6101c36020525f908152604090205481565b348015610d7f575f5ffd5b506105d3610d8e366004614ee9565b612650565b348015610d9e575f5ffd5b50610573610dad366004614ee9565b60de6020525f908152604090205481565b348015610dc9575f5ffd5b506105d3610dd836600461524f565b6127ca565b348015610de8575f5ffd5b506105737f56bdc3c9ec86cb7db110a7699b2ade72f0b8819727d9f7d906b012641505fa7781565b348015610e1b575f5ffd5b5061052b610e2a366004614f02565b6127f8565b6105d3610e3d3660046152ca565b61281b565b348015610e4d575f5ffd5b506105735f81565b348015610e60575f5ffd5b506105736101c25481565b348015610e76575f5ffd5b506105737f21aba2dd4535739d4ca4cddb3c024036bfcc88cfce067cb0847e7ad0f9cfaa5581565b348015610ea9575f5ffd5b506106ca610eb8366004614f02565b61011b6020525f90815260409020546001600160a01b031681565b348015610ede575f5ffd5b5061057360985481565b348015610ef3575f5ffd5b50610573610f02366004614f02565b6101c46020525f908152604090205481565b348015610f1f575f5ffd5b506105737fdaafd36d8da81d5104d4fd21e3ccc58683c62ba08cd23875bcfbc0583a3f49dd81565b348015610f52575f5ffd5b506105d3612839565b6105d3612894565b348015610f6e575f5ffd5b5061057360e45481565b348015610f83575f5ffd5b506105737f430a7f0cb00b5ebbe63cecc96e82cf959a883e7c13a95110854f1fa6b3fbf59881565b348015610fb6575f5ffd5b506105735f516020615d0a5f395f51905f5281565b348015610fd6575f5ffd5b5061052b610fe5366004614ee9565b6128e9565b348015610ff5575f5ffd5b506105737f1185e52d62bfbbea270e57d3d09733d221b53ab7a18bae82bb3c6c74bab16d8281565b348015611028575f5ffd5b50610573609a5481565b34801561103d575f5ffd5b5061057360975481565b348015611052575f5ffd5b506105d3611061366004615321565b61290d565b348015611071575f5ffd5b506101c6546106ca906001600160a01b031681565b348015611091575f5ffd5b506105737fe8cb6172fcf5cbaae022b7c910224a4f0c20d53227e630056efff182155a5abc81565b3480156110c4575f5ffd5b506105736101bd5481565b3480156110da575f5ffd5b506105d36110e9366004615017565b6129e2565b3480156110f9575f5ffd5b506105737f6b5661ddfbd1fbd525c902a513e0f47d9c74f1c1ee8a2d4f1937ad305fb8f41a81565b34801561112c575f5ffd5b5061057360dd5481565b348015611141575f5ffd5b506105d361115036600461533d565b612a06565b348015611160575f5ffd5b506105d361116f366004614ee9565b612b22565b34801561117f575f5ffd5b506105d361118e366004614f02565b612de0565b34801561119e575f5ffd5b506111a7612e71565b604080519586526020860194909452928401919091526060830152608082015260a001610537565b3480156111da575f5ffd5b506105735f516020615cea5f395f51905f5281565b5f6001600160e01b03198216637965db0b60e01b148061121f57506301ffc9a760e01b6001600160e01b03198316145b92915050565b805f81600d811115611239576112396153a1565b03611257576040516385994c7760e01b815260040160405180910390fd5b60dc5f83600d81111561126c5761126c6153a1565b600d81111561127d5761127d6153a1565b81526020019081526020015f205461129481612ec0565b61129d836128e9565b6112c55782604051630619659560e21b81526004016112bc91906153d5565b60405180910390fd5b5f1960de5f85600d8111156112dc576112dc6153a1565b600d8111156112ed576112ed6153a1565b81526020019081526020015f205414801561131c575061131a5f516020615d0a5f395f51905f5233612626565b155b1561133c57826040516323bb853560e21b81526004016112bc91906153d5565b60de5f84600d811115611351576113516153a1565b600d811115611362576113626153a1565b81526020019081526020015f205f905582600d811115611384576113846153a1565b60da8054600190921b19909116905582600d8111156113a5576113a56153a1565b6040513381527fd071d2b85dec4489435b541d2f0e2570db09b09db9efd8703948d44a433df65a906020015b60405180910390a2505050565b7fb63b70db607c764adad98a6745fc4efcea212ebc7b501d5753c57d675f377a6661140881612ec0565b816114265760405163afd51dbf60e01b815260040160405180910390fd5b5f84116114465760405163273e150360e21b815260040160405180910390fd5b6001600160a01b03851661146d576040516342bcdf7f60e11b815260040160405180910390fd5b8561148b57604051630742d05360e01b815260040160405180910390fd5b6101c28054600181019091555f1981015f9081526101c36020526040902054859081116114ce576040516317d6372960e31b81526004016112bc91815260200190565b505f8181526101c4602090815260408083208a90556101c390915290819020869055516001600160a01b0387169082907f8fbc8fbd65675eb32c567d4a559963c7d002c2be67b5b266fb13d85b4375fce5906115319089908c908a908a9061540b565b60405180910390a350505050505050565b7f6b5661ddfbd1fbd525c902a513e0f47d9c74f1c1ee8a2d4f1937ad305fb8f41a61156c81612ec0565b5f82815261011b602090815260408083205490516001600160a01b0390911681523392859290917f4a29db3fc6b42bda201e4b4d69ce8d575eeeba5f153509c0d0a342af0f1bd021910160405180910390a4505f90815261011b6020526040902080546001600160a01b0319169055565b6115ea62f099c082615448565b42101561160a57604051634306cbb160e01b815260040160405180910390fd5b6116178585858585612ecd565b6101bf5414611653576101bf546116318686868686612ecd565b60405163bc5aad1160e01b8152600481019290925260248201526044016112bc565b6101c0546001600160a01b03166116775f516020615cea5f395f51905f5282612626565b6116c8576116925f516020615cea5f395f51905f5282612ef4565b6040516001600160a01b0382169033907f6cfaf6b76ea493a8e88b6b95f7b34cdaae196c4ed737b32e72c5d9e8d0a18518905f90a35b505050505050565b5f828152606560205260409020600101546116ea81612ec0565b6116f48383612ef4565b505050565b6117038282612f79565b5050565b815f81600d81111561171b5761171b6153a1565b03611739576040516385994c7760e01b815260040160405180910390fd5b5f516020615d0a5f395f51905f5261175081612ec0565b5f60db5f86600d811115611766576117666153a1565b600d811115611777576117776153a1565b81526020019081526020015f205490508381036117a757604051631b807f5560e01b815260040160405180910390fd5b8360db5f87600d8111156117bd576117bd6153a1565b600d8111156117ce576117ce6153a1565b815260208101919091526040015f2055808486600d8111156117f2576117f26153a1565b6040517f074bfc3728ef1e98bde10bcb5bd8cde59cff190c2bfda5d22f879f865a07bac5905f90a45050505050565b5f54600990610100900460ff1615801561184157505f5460ff8083169116105b61185d5760405162461bcd60e51b81526004016112bc9061545b565b5f805461ffff191660ff8316176101001790555f195f516020615cca5f395f51905f525c01611893576337ed32e85f526004601cfd5b60015f516020615cca5f395f51905f525d5f83116118c45760405163273e150360e21b815260040160405180910390fd5b6001600160a01b0382166118eb576040516342bcdf7f60e11b815260040160405180910390fd5b6101c58390556101c680546001600160a01b0319166001600160a01b0384161790556040518381527fc4733b619696e38077e1b19371d193f42b20a279e3445c3b2b9f4d58db36bc6b9060200160405180910390a1604080515f81526001600160a01b03841660208201527f70a40b63da92dd99e111281bc23dfb08922b6d1337f71f895cf498eb60ff7a0b910160405180910390a160016101c255604051620382e360ec1b9062372e3160e81b907f2f8492a7a430cf917798dfb60bc5af634f68e6c40287947df0ea6f7ec0669bd8905f90a35f5f516020615cca5f395f51905f525d5f805461ff001916905560405160ff821681527f7f26b83ff96e1f2b6a682f133852f6798a09c465da95921460cefb3847402498906020015b60405180910390a1505050565b60015f516020615cca5f395f51905f525c03611a38576337ed32e85f526004601cfd5b60015f516020615cca5f395f51905f525d85878484875f5a9050611a5c6003612fb3565b8d5f805c6001600160a01b0319166001600160a01b03831617905d505f611a888f8f8f8f8c8f8f613013565b9050611a938161306c565b611aa5611aa08d8f615448565b6130ad565b5f5f8f6001600160a01b03168e8d8d604051611ac29291906154a9565b5f6040518083038185875af1925050503d805f8114611afc576040519150601f19603f3d011682016040523d82523d5f602084013e611b01565b606091505b509150915081611b4557805115611b1b5780518082602001fd5b8f604051635461344360e01b81526004016112bc91906001600160a01b0391909116815260200190565b5f6001600160a01b0319815c16815d5060405183907fa4c827e719e911e8f19393ccdb85b5102f08f0910604d340ba38390b7ff2ab0e905f90a2505086159050611c7157855f849003611c0057853b158015611bfe573a5a611ba961bc7c86615448565b611bb391906154b8565b611bbd91906154cb565b915081881115611bfa576001600160a01b0387166108fc611bde848b6154b8565b6040518115909202915f818181858888f1935050505050611bfe565b8791505b505b5f6001600160a01b03841615611c165783611c18565b335b90505f816001600160a01b03166108fc8490811502906040515f60405180830381858888f19350505050905080611c6d5760405163295f137d60e21b81526001600160a01b03831660048201526024016112bc565b5050505b5050505050505f5f516020615cca5f395f51905f525d5050505050505050565b6002611c9c81612fb3565b611ca4612536565b6001600160a01b0316336001600160a01b031614611cd55760405163a1cfbf5960e01b815260040160405180910390fd5b6001600160a01b038216611cfc576040516342bcdf7f60e11b815260040160405180910390fd5b60e480545f9182611d0c836154e2565b9091555060408051308152602081018690525f918101829052606081018790526080810183905260c060a08201819052810182905260e0902091925050611d53828261310a565b604080515f80825260208201889052818301859052608060608301819052820152905182916001600160a01b0387169133917fe856c2b8bd4eb0027ce32eeaf595c21b0b6b4644b326e5b7bd80a1cf8db72e6c919081900360a00190a45050505050565b815f81600d811115611dcb57611dcb6153a1565b03611de9576040516385994c7760e01b815260040160405180910390fd5b5f516020615d0a5f395f51905f52611e0081612ec0565b5f60dc5f86600d811115611e1657611e166153a1565b600d811115611e2757611e276153a1565b81526020019081526020015f20549050838103611e5757604051631b807f5560e01b815260040160405180910390fd5b8360dc5f87600d811115611e6d57611e6d6153a1565b600d811115611e7e57611e7e6153a1565b815260208101919091526040015f2055808486600d811115611ea257611ea26153a1565b6040517ff8ef9f1cde7c2c0d3aeb696678f76d7c1c3e13c3b79ea3c5160a2d9eaa821cfd905f90a45050505050565b7fdaafd36d8da81d5104d4fd21e3ccc58683c62ba08cd23875bcfbc0583a3f49dd611efb81612ec0565b5f8211611f1b5760405163273e150360e21b815260040160405180910390fd5b6101c58290556040518281527fc4733b619696e38077e1b19371d193f42b20a279e3445c3b2b9f4d58db36bc6b906020015b60405180910390a15050565b7f1185e52d62bfbbea270e57d3d09733d221b53ab7a18bae82bb3c6c74bab16d82611f8381612ec0565b5f5f5f426099541015611fa857609754611f9d9042615448565b609955506001611fba565b609a54851015611fba57849250600191505b60988590558080611fc85750815b15611fd357609a8390555b6040805186815283151560208201528215159181019190915233907fbc3dc0cb5c15c51c81316450d44048838bb478b9809447d01c766a06f3e9f2c8906060015b60405180910390a25050505050565b60015f516020615cca5f395f51905f525c03612046576337ed32e85f526004601cfd5b60015f516020615cca5f395f51905f525d60a0810180359061206b90608084016151be565b6120796101208401846154fa565b61208a610100860160e087016151be565b5f5a905061209787613167565b851561218557855f84900361211457853b158015612112573a5a6120bd61bc7c86615448565b6120c791906154b8565b6120d191906154cb565b91508188111561210e576001600160a01b0387166108fc6120f2848b6154b8565b6040518115909202915f818181858888f1935050505050612112565b8791505b505b5f6001600160a01b0384161561212a578361212c565b335b90505f816001600160a01b03166108fc8490811502906040515f60405180830381858888f193505050509050806121815760405163295f137d60e21b81526001600160a01b03831660048201526024016112bc565b5050505b5050505050505f5f516020615cca5f395f51905f525d50565b60015f516020615cca5f395f51905f525c036121c1576337ed32e85f526004601cfd5b60015f516020615cca5f395f51905f525d478260c00135116121f657604051630316ae7f60e51b815260040160405180910390fd5b61220660a08301608084016151be565b6001600160a01b0316336001600160a01b03161461223757604051630a5c9f3560e01b815260040160405180910390fd5b5f612241836133cd565b9050600160ff60a01b195f805c91909116600160a01b17905d50612263612536565b6001600160a01b0316633e4903b78360c086013561228760a08801608089016151be565b60405160e085901b6001600160e01b03191681526001600160a01b039384166004820152602481019290925290911660448201526064015f604051808303815f87803b1580156122d5575f5ffd5b505af11580156122e7573d5f5f3e3d5ffd5b505f92505050805c60ff60a01b1916815d5060405181907fa4c827e719e911e8f19393ccdb85b5102f08f0910604d340ba38390b7ff2ab0e905f90a2505f5f516020615cca5f395f51905f525d5050565b7f76ef52a5344b10ed112c1d48c7c06f51e919518ea6fb005f9b25b359b955e3be61236281612ec0565b61170382613493565b600661237681612fb3565b5f516020615cea5f395f51905f5261238d81612ec0565b5f8590036123ae57604051637907d79b60e01b815260040160405180910390fd5b610119545f81815261011a60205260409020548435146123e15760405163756a618760e11b815260040160405180910390fd5b6101bd545f86815261011b60205260409020546001600160a01b03168061241b576040516369ed70ab60e01b815260040160405180910390fd5b6101e08601355f8181526101c46020526040902054901580159061243d575080155b156124625760405163765214e960e11b81526101e088013560048201526024016112bc565b6124e46124dc88856124758b8987613542565b8886886001600160a01b031663b02384ad6040518163ffffffff1660e01b8152600401602060405180830381865afa1580156124b3573d5f5f3e3d5ffd5b505050506040513d601f19601f820116820180604052508101906124d7919061553c565b61387b565b838c8c61397c565b50505050505050505050565b5f516020615d0a5f395f51905f5261250781612ec0565b4260dd556040517f201956ebe50475cb4c4f2d1e8375cfcc9c1700ad498e0c8053da490688172787905f90a150565b7f594904a11ae10ad7613c91ac3c92c7c3bba397934d377ce6d3e0aaffbc17df00546001600160a01b031690565b7f012c76ef7f96cd7eb95acbdc250ad5696bbe3fd2fcf0207571939fa40c2e016761258e81612ec0565b6001600160a01b0382166125b5576040516342bcdf7f60e11b815260040160405180910390fd5b6101c6546001600160a01b0390811690831681146116f4576101c680546001600160a01b0319166001600160a01b0385811691821790925560408051928416835260208301919091527f70a40b63da92dd99e111281bc23dfb08922b6d1337f71f895cf498eb60ff7a0b9101611a08565b5f9182526065602090815260408084206001600160a01b0393909316845291905290205460ff1690565b805f81600d811115612664576126646153a1565b03612682576040516385994c7760e01b815260040160405180910390fd5b61268b826128e9565b6126aa5781604051630619659560e21b81526004016112bc91906153d5565b60de5f83600d8111156126bf576126bf6153a1565b600d8111156126d0576126d06153a1565b81526020019081526020015f20544210156127355760de5f83600d8111156126fa576126fa6153a1565b600d81111561270b5761270b6153a1565b81526020019081526020015f205460405163cfd8aa6f60e01b81526004016112bc91815260200190565b60de5f83600d81111561274a5761274a6153a1565b600d81111561275b5761275b6153a1565b81526020019081526020015f205f905581600d81111561277d5761277d6153a1565b60da8054600190921b19909116905581600d81111561279e5761279e6153a1565b6040517f3ddaeb19197ed3b5334f4c1cd5716f663d0f6dce30c52800bd1674da0b88e87a905f90a25050565b600d6127d581612fb3565b5f516020615cea5f395f51905f526127ec81612ec0565b6116c886868686613ae8565b600881901c5f90815261014f6020526040812054600160ff84161b16151561121f565b600261282681612fb3565b61283285858585613c45565b5050505050565b7f0cf0d2deb70d7bdac2fa48c4ac99bc558170be0ce5fcb994caefa4bf7b96edf961286381612ec0565b5f609a81905560405133917fba88c025b0cbb77022c0c487beef24f759f1e4be2f51a205bc427cee19c2eaa691a250565b345f036128b45760405163717e6b7b60e01b815260040160405180910390fd5b6040513481527fe455499c2acd509bdadebaf5a8fd54c083da31dbe98e785f2a72cdff04e32e009060200160405180910390a1565b5f81600d8111156128fc576128fc6153a1565b60da54600190911b16151592915050565b7f32937fd5162e282df7e9a14a5073a2425321c7966eaf70ed6c838a1006d84c4c61293781612ec0565b6001600160a01b03831661295e576040516342bcdf7f60e11b815260040160405180910390fd5b5f82815261011b60209081526040918290205491516001600160a01b03928316815233928592908716917f4a29db3fc6b42bda201e4b4d69ce8d575eeeba5f153509c0d0a342af0f1bd021910160405180910390a4505f90815261011b6020526040902080546001600160a01b0319166001600160a01b0392909216919091179055565b5f828152606560205260409020600101546129fc81612ec0565b6116f48383613d29565b5f80612a135f5460ff1690565b60ff1614612a4d5780612a275f5460ff1690565b604051636fdb2e9360e11b815260ff9283166004820152911660248201526044016112bc565b5f54600990610100900460ff16158015612a6d57505f5460ff8083169116105b612a895760405162461bcd60e51b81526004016112bc9061545b565b5f805461ffff191660ff831617610100178155612aaa818088358180612ecd565b5f8181526101be60205260409020600190559050612ac88682613d8f565b612ad18561402a565b612ada846140c3565b505f805461ff001916905560405160ff821681527f7f26b83ff96e1f2b6a682f133852f6798a09c465da95921460cefb38474024989060200160405180910390a15050505050565b805f81600d811115612b3657612b366153a1565b03612b54576040516385994c7760e01b815260040160405180910390fd5b60db5f83600d811115612b6957612b696153a1565b600d811115612b7a57612b7a6153a1565b81526020019081526020015f2054612b9181612ec0565b5f612ba95f516020615d0a5f395f51905f5233612626565b9050612bb4846128e9565b8015612bbe575080155b80612bfc57505f1960de5f86600d811115612bdb57612bdb6153a1565b600d811115612bec57612bec6153a1565b81526020019081526020015f2054145b15612c1c5783604051631814e36b60e31b81526004016112bc91906153d5565b8015612cc5575f1960de5f86600d811115612c3957612c396153a1565b600d811115612c4a57612c4a6153a1565b815260208101919091526040015f205583600d811115612c6c57612c6c6153a1565b60da8054600190921b909117905583600d811115612c8c57612c8c6153a1565b6040805133815290517f36287ed6be33e8d1abe33ad8d38ab23b67a5126b7140660a8a25920bdc30a1999181900360200190a250505050565b60dd54428111612d1957426202a300018060de5f88600d811115612ceb57612ceb6153a1565b600d811115612cfc57612cfc6153a1565b815260208101919091526040015f20556202a3000160dd55612d7e565b6202a30042820311612d415760405163602102f760e11b8152600481018290526024016112bc565b6202a300810360de5f87600d811115612d5c57612d5c6153a1565b600d811115612d6d57612d6d6153a1565b815260208101919091526040015f20555b84600d811115612d9057612d906153a1565b60da8054600190921b909117905584600d811115612db057612db06153a1565b6040513381527f534f879afd40abb4e39f8e1b77a316be4c8e3521d9cf5a3a3db8959d574d455990602001612014565b6009612deb81612fb3565b7f220bd22ef7c53d75fe3eac0a09e90815a0c5ba4f9e8da8b039542cd3db347258612e1581612ec0565b612e1d612536565b6001600160a01b0316637ab19c10846040518263ffffffff1660e01b81526004015f604051808303818588803b158015612e55575f5ffd5b505af1158015612e67573d5f5f3e3d5ffd5b5050505050505050565b5f5f5f5f5f5f60016101c254612e8791906154b8565b6101bf545f9182526101c460209081526040808420546101c390925290922054610119546101c554929a93995090975095509350915050565b612eca81336140f2565b50565b604080519586526020860194909452928401919091526060830152608082015260a0902090565b612efe8282612626565b611703575f8281526065602090815260408083206001600160a01b03851684529091529020805460ff19166001179055612f353390565b6001600160a01b0316816001600160a01b0316837f2f8788117e7eff1d82e926ec794901d17c78024a50270940304540a733656f0d60405160405180910390a45050565b6101c0546001600160a01b0390811690821603612fa957604051639395197f60e01b815260040160405180910390fd5b611703828261414b565b60da5481600d811115612fc857612fc86153a1565b6001901b811615612fee5781604051631814e36b60e31b81526004016112bc91906153d5565b6002811615611703576001604051631814e36b60e31b81526004016112bc91906153d5565b5f60405188815287602082015286604082015285606082015284608082015260c060a08201528260c0820152602083065f8115613051578160200390505b848660e085013790930160e001902098975050505050505050565b5f81815260a6602052604090205460011461309d5760405163992d87c360e01b8152600481018290526024016112bc565b5f90815260a66020526040812055565b8015612eca574260995410156130d2576097546130ca9042615448565b6099556130e2565b609a546130df9082615448565b90505b6098548111156131055760405163a74c1c5f60e01b815260040160405180910390fd5b609a55565b5f1982015f90815261014e60208181526040808420548452848252808420868552929091528083208290555190918391839186917fea3b023b4c8680d4b4824f0143132c95476359a2bb70a81d6c5a36f6918f63399190a4505050565b6131716003612fb3565b6101008101355f9081526101506020526040812054908190036131a757604051634e68667560e01b815260040160405180910390fd5b6131b18280615553565b905081146131e757806131c48380615553565b604051635e3fd6ad60e01b815260048101939093526024830152506044016112bc565b6131f482602001356141c5565b613209611aa060c084013560a0850135615448565b5f61324f61321d60808501606086016151be565b61322d60a08601608087016151be565b60a086013560c0870135602088013561324a6101208a018a6154fa565b613013565b905061327a8161325f8580615553565b61326f6060880160408901615598565b876101000135614224565b6132975760405163582f497d60e11b815260040160405180910390fd5b6132a760808401606085016151be565b5f805c6001600160a01b0319166001600160a01b03831617905d505f806132d460a08601608087016151be565b6001600160a01b031660c08601356132f06101208801886154fa565b6040516132fe9291906154a9565b5f6040518083038185875af1925050503d805f8114613338576040519150601f19603f3d011682016040523d82523d5f602084013e61333d565b606091505b50915091508161338c578051156133575780518082602001fd5b61336760a08601608087016151be565b604051635461344360e01b81526001600160a01b0390911660048201526024016112bc565b5f6001600160a01b0319815c16815d5060405183907fa4c827e719e911e8f19393ccdb85b5102f08f0910604d340ba38390b7ff2ab0e905f90a25050505050565b5f6133d86003612fb3565b6101008201355f90815261015060205260408120549081900361340e57604051634e68667560e01b815260040160405180910390fd5b6134188380615553565b9050811461342b57806131c48480615553565b61343883602001356141c5565b61344d611aa060c085013560a0860135615448565b61346061321d60808501606086016151be565b91506134708261325f8580615553565b61348d5760405163582f497d60e11b815260040160405180910390fd5b50919050565b61349c81614318565b7feb44f28f73dc4d72ac2ee43ebf59a1e0c84c11c4d614746c0dc99d9071abd8f97f594904a11ae10ad7613c91ac3c92c7c3bba397934d377ce6d3e0aaffbc17df0054604080516001600160a01b03928316815291841660208301520160405180910390a17f594904a11ae10ad7613c91ac3c92c7c3bba397934d377ce6d3e0aaffbc17df0080546001600160a01b0319166001600160a01b0392909216919091179055565b5f61355784610180013585610140013561433f565b61356d613568610240860186615553565b6143c1565b6101bf54806135976101608701356101208801356101c08901356102008a013560e08b0135612ecd565b146135f757604080516101608701358152610120870135602082015260e0870135918101919091526060902081146135f757604080516101608701358152610120870135602082015260e087013591810191909152606090208190611631565b4285610100013510613629576040516305fc0e3760e51b815261010086013560048201524260248201526044016112bc565b608085013561364b5760405163144c241560e11b815260040160405180910390fd5b60016101e0860135015f9081526101c360205260409020548015801590613676575085602001358111155b1561369e57604051632e438ba160e21b815260016101e08801350160048201526024016112bc565b506136c060408601356060870135608088013560a089013560c08a0135612ecd565b6101c1546040516310986c0960e11b8152600481018390529193506001600160a01b031690632130d81290602401602060405180830381865afa158015613709573d5f5f3e3d5ffd5b505050506040513d601f19601f8201168201806040525081019061372d919061553c565b5f0361374f5760405163d35bb1d160e01b8152600481018390526024016112bc565b61376b613760610220870187615553565b876101a001356144da565b61378261377c6102608701876154fa565b866145c7565b6020808601355f81815261011a909252604090912060808701359055610119556101bd8290556137c96101808601356101408701356101e0880135866101008a0135612ecd565b6101bf556040805161010087013581526101808701356020808301919091526101e088013582840152915191870135917f32e016ccc5c33419c35caa94023fdeb75143da613fb2ac738ab736404c09fc5d9181900360600190a2604080518635815260808701356020828101919091526001909601958492908801359187917fa0262dc79e4ccb71ceac8574ae906311ae338aa4a2044fd4ec4b99fad5ab60cb910160405180910390a4509392505050565b5f8061388b610240890189615553565b60405160200161389c9291906155bb565b604051602081830303815290604052805190602001209050604051878152866020820152604060e08a0160408301378560808201526020808a0160a083013760806101208a0160c083013760206102008a016101408301378461016082015260406101c08a0161018083013760206101a08a016101c083013761020081016102208a01358a018035602081026020830184376020029091206101e0830152506102008101939093526102208301525061024090207f30644e72e131a029b85045b68181585d2833e84879b9709143e1f593f0000001900695945050505050565b6040805160018082528183019092525f916020808301908036833701905050905084815f815181106139b0576139b0615610565b6020026020010181815250505f5f856001600160a01b03168585856040516024016139dd93929190615624565b60408051601f198184030181529181526020820180516001600160e01b0316633f27bd4560e11b17905251613a129190615695565b5f604051808303815f865af19150503d805f8114613a4b576040519150601f19603f3d011682016040523d82523d5f602084013e613a50565b606091505b509150915081613ab357805115613a8057602081016001600160e01b0381511663ca389c4460e01b178152815181fd5b60405163328e271160e21b81526020600482015260076024820152662ab735b737bbb760c91b60448201526064016112bc565b5f81806020019051810190613ac891906156a0565b905080612e67576040516309bde33960e01b815260040160405180910390fd5b5f839003613b095760405163b1504a5f60e01b815260040160405180910390fd5b824915613b2c57604051638019aff760e01b8152600481018490526024016112bc565b5f5f613b5d6040518060a001604052805f815260200160608152602001606081526020015f81526020015f81525090565b845f5b87811015613c0b57888882818110613b7a57613b7a615610565b9050602002810190613b8c91906156bf565b613b959061578e565b81499450925083613bbc5760405163c0e41e1d60e01b8152600481018290526024016112bc565b60808301515f8181526020869052604090209550613bea85875f1c865f01518760200151886040015161463b565b613c008382866060015189885f01515f1b612ecd565b925050600101613b60565b50613c1b8686846060015161479d565b808514612e675760405163d3664fb360e01b815260048101869052602481018290526044016112bc565b6001600160a01b038416613c6c576040516342bcdf7f60e11b815260040160405180910390fd5b34831115613c8d5760405163581db49960e11b815260040160405180910390fd5b60e480545f9182613c9d836154e2565b9091555090505f613cae85346154b8565b90505f613cc033888885878a8a613013565b9050613ccc838261310a565b80876001600160a01b0316336001600160a01b03167fe856c2b8bd4eb0027ce32eeaf595c21b0b6b4644b326e5b7bd80a1cf8db72e6c8986888b8b604051613d18959493929190615819565b60405180910390a450505050505050565b613d338282612626565b15611703575f8281526065602090815260408083206001600160a01b0385168085529252808320805460ff1916905551339285917ff6391f5c32d9c69d2a47ea670b442974b53935d1edc7fd64eb21e047a839171b9190a45050565b5f54610100900460ff16613db55760405162461bcd60e51b81526004016112bc90615849565b5f613dc660808401606085016151be565b6001600160a01b031603613ded576040516342bcdf7f60e11b815260040160405180910390fd5b5f613e00610180840161016085016151be565b6001600160a01b031603613e27576040516342bcdf7f60e11b815260040160405180910390fd5b613e4a613e3760e0840184615894565b613e45610100860186615894565b61484d565b613e5c82608001358360a00135614a84565b5f613e6f610140840161012085016151be565b6001600160a01b031603613e96576040516342bcdf7f60e11b815260040160405180910390fd5b613eb15f613eac610140850161012086016151be565b612ef4565b613ec6613ec160c0840184615894565b614ad5565b613ed660808301606084016151be565b7f033d11f27e62ab919708ec716731da80d261a6e4253259b7acde9bf89d28ec1880546001600160a01b0319166001600160a01b03929092169190911790556020828101356101198190555f90815261011a9091526040808220843590556101bd839055613f4d9190819081908190870135612ecd565b6101bf5560016101c2555f613f6a610160840161014085016151be565b90506001600160a01b038116613f7d5750305b6101c180546001600160a01b0319166001600160a01b038316179055613fab610180840161016085016151be565b6101c680546001600160a01b0319166001600160a01b03929092169190911790556040805180820190915260038152620382e360ec1b6020820152613fef906158d9565b6001600160c01b0319167f129e59eb8f5fd549b47c6f64a2a11d3b82e91c584db3af4b27cfe7339ac4716b84846040516113d19291906159ef565b5f54610100900460ff166140505760405162461bcd60e51b81526004016112bc90615849565b6001600160a01b038116614077576040516342bcdf7f60e11b815260040160405180910390fd5b6101c080546001600160a01b0319166001600160a01b03831690811790915560405133907fb341a9e6d33f272cb7b5a20b337763606cbb6c728e7a34cbd3191cdfa0f0cd07905f90a350565b5f54610100900460ff166140e95760405162461bcd60e51b81526004016112bc90615849565b612eca81613493565b6140fc8282612626565b6117035761410981614be1565b614114836020614bf3565b604051602001614125929190615b23565b60408051601f198184030181529082905262461bcd60e51b82526112bc91600401615045565b6001600160a01b03811633146141bb5760405162461bcd60e51b815260206004820152602f60248201527f416363657373436f6e74726f6c3a2063616e206f6e6c792072656e6f756e636560448201526e103937b632b9903337b91039b2b63360891b60648201526084016112bc565b6117038282613d29565b600881901c5f90815261014f6020526040902054600160ff83161b161561420257604051630335a4a960e41b8152600481018290526024016112bc565b600881901c5f90815261014f602052604090208054600160ff84161b17905550565b5f806142456001614236876002615c64565b61424091906154b8565b614d8f565b90508063ffffffff168463ffffffff1611156142845760405163f7ec909760e01b815263ffffffff8086166004830152821660248201526044016112bc565b865f5b8681101561430a57600163ffffffff8716821c811690036142d4576142cd8888838181106142b7576142b7615610565b90506020020135835f9182526020526040902090565b9150614302565b6142ff828989848181106142ea576142ea615610565b905060200201355f9182526020526040902090565b91505b600101614287565b509092149695505050505050565b6001600160a01b038116612eca576040516342bcdf7f60e11b815260040160405180910390fd5b815f0361436857801561170357604051630612b2c960e11b8152600481018290526024016112bc565b8061438957604051630a451e9960e31b8152600481018390526024016112bc565b5f82815261014e60205260409020548114611703576040516301b22cfd60e51b815260048101839052602481018290526044016112bc565b8015611703576101c6546001600160a01b03165f5b828110156144d457816001600160a01b0316631d5150838585848181106143ff576143ff615610565b905060200201602081019061441491906151be565b6040516001600160e01b031960e084901b1681526001600160a01b039091166004820152602401602060405180830381865afa158015614456573d5f5f3e3d5ffd5b505050506040513d601f19601f8201168201806040525081019061447a91906156a0565b84848381811061448c5761448c615610565b90506020020160208101906144a191906151be565b906144cb5760405163ec4f874b60e01b81526001600160a01b0390911660048201526024016112bc565b506001016143d6565b50505050565b5f5b828110156144d4576101505f8585848181106144fa576144fa615610565b9050602002013581526020019081526020015f20545f1461454a5783838281811061452757614527615610565b9050602002013560405163e5d1442560e01b81526004016112bc91815260200190565b816101505f86868581811061456157614561615610565b9050602002013581526020019081526020015f20819055508184848381811061458c5761458c615610565b905060200201357f300e6f978eee6a4b0bba78dd8400dc64fd5652dbfc868a2258e16d0977be222b60405160405180910390a36001016144dc565b6145d2600283615c6f565b156145f357604051630648ebbb60e11b8152600481018390526024016112bc565b5f5f5b83811015612832576040518582013560f01c9250838301907f3c116827db9db3a30c1a25db8b0ee4bab9d2b223560209cfd839601b621c726d905f90a26002016145f6565b7f73eda753299d7d483339d80809a1d80553bda402fffe5bfeffffffff00000001840693505f5f600a6001600160a01b03168787878787604051602001614686959493929190615c8e565b60408051601f19818403018152908290526146a091615695565b5f60405180830381855afa9150503d805f81146146d8576040519150601f19603f3d011682016040523d82523d5f602084013e6146dd565b606091505b5091509150816147005760405163a71194af60e01b815260040160405180910390fd5b604081511461472f5780516040805163f75db38160e01b81526112bc9290600401918252602082015260400190565b602081015160408201516110008214158061476a57507f73eda753299d7d483339d80809a1d80553bda402fffe5bfeffffffff000000018114155b15614792576040516368dcad5f60e01b815260048101839052602481018290526044016112bc565b505050505050505050565b5f8381526101be602052604090205483906147ce576040516331dee59360e21b81526004016112bc91815260200190565b505f8281526101be60205260409020548290156148015760405163734d6f6560e11b81526004016112bc91815260200190565b505f8281526101be602090815260409182902060019055815185815290810183905283917f55f4c645c36aa5cd3f443d6be44d7a7a5df9d2100d7139dfc69d4289ee07231991016113d1565b5f54610100900460ff166148735760405162461bcd60e51b81526004016112bc90615849565b5f5b8381101561497b5784848281811061488f5761488f615610565b9050604002016020013560db5f8787858181106148ae576148ae615610565b6148c49260206040909202019081019150614ee9565b600d8111156148d5576148d56153a1565b600d8111156148e6576148e66153a1565b815260208101919091526040015f205584848281811061490857614908615610565b9050604002016020013585858381811061492457614924615610565b61493a9260206040909202019081019150614ee9565b600d81111561494b5761494b6153a1565b6040517f33aa8fd1ce49e1761bc8d27fd53414bfefc45d690feed0ce55019d7d3aec6091905f90a3600101614875565b505f5b818110156128325782828281811061499857614998615610565b9050604002016020013560dc5f8585858181106149b7576149b7615610565b6149cd9260206040909202019081019150614ee9565b600d8111156149de576149de6153a1565b600d8111156149ef576149ef6153a1565b815260208101919091526040015f2055828282818110614a1157614a11615610565b90506040020160200135838383818110614a2d57614a2d615610565b614a439260206040909202019081019150614ee9565b600d811115614a5457614a546153a1565b6040517fe7bf4b8dc0c17a52dc9e52323a3ab61cb2079db35f969125b1f8a3d984c6f6c2905f90a360010161497e565b5f54610100900460ff16614aaa5760405162461bcd60e51b81526004016112bc90615849565b614ab2614dc3565b614aba614dc3565b614ac2614dc3565b614acc8282614deb565b5050600160e455565b5f54610100900460ff16614afb5760405162461bcd60e51b81526004016112bc90615849565b5f5b818110156116f4575f838383818110614b1857614b18615610565b614b2e92602060409092020190810191506151be565b6001600160a01b031603614b55576040516342bcdf7f60e11b815260040160405180910390fd5b828282818110614b6757614b67615610565b905060400201602001355f5f1b03614b9257604051630742d05360e01b815260040160405180910390fd5b614bd9838383818110614ba757614ba7615610565b90506040020160200135848484818110614bc357614bc3615610565b613eac92602060409092020190810191506151be565b600101614afd565b606061121f6001600160a01b03831660145b60605f614c018360026154cb565b614c0c906002615448565b6001600160401b03811115614c2357614c236155fc565b6040519080825280601f01601f191660200182016040528015614c4d576020820181803683370190505b509050600360fc1b815f81518110614c6757614c67615610565b60200101906001600160f81b03191690815f1a905350600f60fb1b81600181518110614c9557614c95615610565b60200101906001600160f81b03191690815f1a9053505f614cb78460026154cb565b614cc2906001615448565b90505b6001811115614d39576f181899199a1a9b1b9c1cb0b131b232b360811b85600f1660108110614cf657614cf6615610565b1a60f81b828281518110614d0c57614d0c615610565b60200101906001600160f81b03191690815f1a90535060049490941c93614d3281615cb4565b9050614cc5565b508315614d885760405162461bcd60e51b815260206004820181905260248201527f537472696e67733a20686578206c656e67746820696e73756666696369656e7460448201526064016112bc565b9392505050565b5f63ffffffff821115614dbf576040516306dfcc6560e41b815260206004820152602481018390526044016112bc565b5090565b5f54610100900460ff16614de95760405162461bcd60e51b81526004016112bc90615849565b565b5f54610100900460ff16614e115760405162461bcd60e51b81526004016112bc90615849565b815f03614e315760405163b5ed5a3b60e01b815260040160405180910390fd5b805f03614e515760405163d10d72bb60e01b815260040160405180910390fd5b60978290556098819055614e658242615448565b60998190556097546098546040805192835260208301919091528101919091527f8f805c372b66240792580418b7328c0c554ae235f0932475c51b026887fe26a990606001611f4d565b5f60208284031215614ebf575f5ffd5b81356001600160e01b031981168114614d88575f5ffd5b8035600e8110614ee4575f5ffd5b919050565b5f60208284031215614ef9575f5ffd5b614d8882614ed6565b5f60208284031215614f12575f5ffd5b5035919050565b6001600160a01b0381168114612eca575f5ffd5b8035614ee481614f19565b5f5f83601f840112614f48575f5ffd5b5081356001600160401b03811115614f5e575f5ffd5b602083019150836020828501011115614f75575f5ffd5b9250929050565b5f5f5f5f5f60808688031215614f90575f5ffd5b853594506020860135614fa281614f19565b93506040860135925060608601356001600160401b03811115614fc3575f5ffd5b614fcf88828901614f38565b969995985093965092949392505050565b5f5f5f5f5f60a08688031215614ff4575f5ffd5b505083359560208501359550604085013594606081013594506080013592509050565b5f5f60408385031215615028575f5ffd5b82359150602083013561503a81614f19565b809150509250929050565b602081525f82518060208401528060208501604085015e5f604082850101526040601f19601f83011684010191505092915050565b5f5f6040838503121561508b575f5ffd5b61509483614ed6565b946020939093013593505050565b5f5f5f5f5f5f5f5f60e0898b0312156150b9575f5ffd5b88356150c481614f19565b975060208901356150d481614f19565b9650604089013595506060890135945060808901356150f281614f19565b935060a08901356001600160401b0381111561510c575f5ffd5b6151188b828c01614f38565b999c989b50969995989497949560c00135949350505050565b5f610140828403121561348d575f5ffd5b5f60208284031215615152575f5ffd5b81356001600160401b03811115615167575f5ffd5b61517384828501615131565b949350505050565b5f5f6040838503121561518c575f5ffd5b82356001600160401b038111156151a1575f5ffd5b6151ad85828601615131565b925050602083013561503a81614f19565b5f602082840312156151ce575f5ffd5b8135614d8881614f19565b5f5f5f5f606085870312156151ec575f5ffd5b84356001600160401b03811115615201575f5ffd5b61520d87828801614f38565b9095509350506020850135915060408501356001600160401b03811115615232575f5ffd5b85016102808188031215615244575f5ffd5b939692955090935050565b5f5f5f5f60608587031215615262575f5ffd5b84356001600160401b03811115615277575f5ffd5b8501601f81018713615287575f5ffd5b80356001600160401b0381111561529c575f5ffd5b8760208260051b84010111156152b0575f5ffd5b602091820198909750908601359560400135945092505050565b5f5f5f5f606085870312156152dd575f5ffd5b84356152e881614f19565b93506020850135925060408501356001600160401b03811115615309575f5ffd5b61531587828801614f38565b95989497509550505050565b5f5f60408385031215615332575f5ffd5b823561509481614f19565b5f5f5f6060848603121561534f575f5ffd5b83356001600160401b03811115615364575f5ffd5b84016101808187031215615376575f5ffd5b9250602084013561538681614f19565b9150604084013561539681614f19565b809150509250925092565b634e487b7160e01b5f52602160045260245ffd5b600e81106153d157634e487b7160e01b5f52602160045260245ffd5b9052565b6020810161121f82846153b5565b81835281816020850137505f828201602090810191909152601f909101601f19169091010190565b848152836020820152606060408201525f61542a6060830184866153e3565b9695505050505050565b634e487b7160e01b5f52601160045260245ffd5b8082018082111561121f5761121f615434565b6020808252602e908201527f496e697469616c697a61626c653a20636f6e747261637420697320616c72656160408201526d191e481a5b9a5d1a585b1a5e995960921b606082015260800190565b818382375f9101908152919050565b8181038181111561121f5761121f615434565b808202811582820484141761121f5761121f615434565b5f600182016154f3576154f3615434565b5060010190565b5f5f8335601e1984360301811261550f575f5ffd5b8301803591506001600160401b03821115615528575f5ffd5b602001915036819003821315614f75575f5ffd5b5f6020828403121561554c575f5ffd5b5051919050565b5f5f8335601e19843603018112615568575f5ffd5b8301803591506001600160401b03821115615581575f5ffd5b6020019150600581901b3603821315614f75575f5ffd5b5f602082840312156155a8575f5ffd5b813563ffffffff81168114614d88575f5ffd5b5f8184825b858110156155f15781356155d381614f19565b6001600160a01b0316835260209283019291909101906001016155c0565b509095945050505050565b634e487b7160e01b5f52604160045260245ffd5b634e487b7160e01b5f52603260045260245ffd5b604081525f6156376040830185876153e3565b82810360208401528084518083526020830191506020860192505f5b81811015615671578351835260209384019390920191600101615653565b5090979650505050505050565b5f81518060208401855e5f93019283525090919050565b5f614d88828461567e565b5f602082840312156156b0575f5ffd5b81518015158114614d88575f5ffd5b5f8235609e198336030181126156d3575f5ffd5b9190910192915050565b60405160a081016001600160401b03811182821017156156ff576156ff6155fc565b60405290565b5f82601f830112615714575f5ffd5b81356001600160401b0381111561572d5761572d6155fc565b604051601f8201601f19908116603f011681016001600160401b038111828210171561575b5761575b6155fc565b604052818152838201602001851015615772575f5ffd5b816020850160208301375f918101602001919091529392505050565b5f60a0823603121561579e575f5ffd5b6157a66156dd565b8235815260208301356001600160401b038111156157c2575f5ffd5b6157ce36828601615705565b60208301525060408301356001600160401b038111156157ec575f5ffd5b6157f836828601615705565b60408301525060608381013590820152608092830135928101929092525090565b858152846020820152836040820152608060608201525f61583e6080830184866153e3565b979650505050505050565b6020808252602b908201527f496e697469616c697a61626c653a20636f6e7472616374206973206e6f74206960408201526a6e697469616c697a696e6760a81b606082015260800190565b5f5f8335601e198436030181126158a9575f5ffd5b8301803591506001600160401b038211156158c2575f5ffd5b6020019150600681901b3603821315614f75575f5ffd5b805160208201516001600160c01b0319811691906008821015615910576001600160c01b0319600883900360031b81901b82161692505b5050919050565b5f5f8335601e1984360301811261592c575f5ffd5b83016020810192503590506001600160401b0381111561594a575f5ffd5b8060061b3603821315614f75575f5ffd5b8183526020830192505f815f5b848110156159a257813561597b81614f19565b6001600160a01b031686526020828101359087015260409586019590910190600101615968565b5093949350505050565b8183526020830192505f815f5b848110156159a2576159d3866159ce84614ed6565b6153b5565b60208281013590870152604095860195909101906001016159b9565b604080825283358282015260208401356060808401919091529084013560808301525f90615a1e908501614f2d565b6001600160a01b03811660a084015250608084013560c08381019190915260a085013560e0840152615a5290850185615917565b610180610100850152615a6a6101c08501828461595b565b915050615a7a60e0860186615917565b848303603f1901610120860152615a928382846159ac565b92505050615aa4610100860186615917565b848303603f1901610140860152615abc8382846159ac565b92505050615acd6101208601614f2d565b6001600160a01b0316610160840152615ae96101408601614f2d565b6001600160a01b0316610180840152615b056101608601614f2d565b6001600160a01b03166101a084015260209092019290925292915050565b7f416363657373436f6e74726f6c3a206163636f756e742000000000000000000081525f615b54601783018561567e565b7001034b99036b4b9b9b4b733903937b6329607d1b8152615b78601182018561567e565b95945050505050565b6001815b6001841115615bbc57808504811115615ba057615ba0615434565b6001841615615bae57908102905b60019390931c928002615b85565b935093915050565b5f82615bd25750600161121f565b81615bde57505f61121f565b8160018114615bf45760028114615bfe57615c1a565b600191505061121f565b60ff841115615c0f57615c0f615434565b50506001821b61121f565b5060208310610133831016604e8410600b8410161715615c3d575081810a61121f565b615c495f198484615b81565b805f1904821115615c5c57615c5c615434565b029392505050565b5f614d888383615bc4565b5f82615c8957634e487b7160e01b5f52601260045260245ffd5b500690565b8581528460208201528360408201525f61583e615cae606084018661567e565b8461567e565b5f81615cc257615cc2615434565b505f19019056fe084edf88d5959696dcc7aab5c8674a33a1ef78f37dda21b782ed03bddb22ade497667070c54ef182b0f5858b034beac1b6f3089aa2d3188bb1e8929f4fa9b9291453a531db80c85f2d944d498709d84959bc5bf839eefe9acb784571e5a32118a2646970667358221220e49abd54f93b3b9328dfaa3d851420f2be0f00193544e044fe4188e5e5b24a2464736f6c63430008210033",
  "linkReferences": {},
  "deployedLinkReferences": {}
}