{
  "_format": "hh-sol-artifact-1",
  "contractName": "LineaRollup",
  "sourceName": "src/rollup/LineaRollup.sol",
  "abi": [
    {
      "inputs": [],
      "stateMutability": "nonpayable",
      "type": "constructor"
    },
    {
      "inputs": [
        {
          "internalType": "address",
          "name": "addressNotFiltered",
          "type": "address"
        }
      ],
      "name": "AddressIsNotFiltered",
      "type": "error"
    },
    {
      "inputs": [
        {
          "internalType": "uint256",
          "name": "emptyBlobIndex",
          "type": "uint256"
        }
      ],
      "name": "BlobSubmissionDataEmpty",
      "type": "error"
    },
    {
      "inputs": [],
      "name": "BlobSubmissionDataIsMissing",
      "type": "error"
    },
    {
      "inputs": [
        {
          "internalType": "uint256",
          "name": "bytesLength",
          "type": "uint256"
        }
      ],
      "name": "BytesLengthNotMultipleOfTwo",
      "type": "error"
    },
    {
      "inputs": [],
      "name": "CallerIsNotYieldManager",
      "type": "error"
    },
    {
      "inputs": [],
      "name": "CallerNotLSTWithdrawalRecipient",
      "type": "error"
    },
    {
      "inputs": [
        {
          "internalType": "uint256",
          "name": "index",
          "type": "uint256"
        }
      ],
      "name": "EmptyBlobDataAtIndex",
      "type": "error"
    },
    {
      "inputs": [
        {
          "internalType": "address",
          "name": "recipient",
          "type": "address"
        }
      ],
      "name": "FeePaymentFailed",
      "type": "error"
    },
    {
      "inputs": [],
      "name": "FeeTooLow",
      "type": "error"
    },
    {
      "inputs": [],
      "name": "FinalBlockStateEqualsZeroHash",
      "type": "error"
    },
    {
      "inputs": [
        {
          "internalType": "bytes32",
          "name": "shnarf",
          "type": "bytes32"
        }
      ],
      "name": "FinalShnarfNotSubmitted",
      "type": "error"
    },
    {
      "inputs": [
        {
          "internalType": "bytes32",
          "name": "expected",
          "type": "bytes32"
        },
        {
          "internalType": "bytes32",
          "name": "value",
          "type": "bytes32"
        }
      ],
      "name": "FinalShnarfWrong",
      "type": "error"
    },
    {
      "inputs": [],
      "name": "FinalStateRootHashIsZeroHash",
      "type": "error"
    },
    {
      "inputs": [
        {
          "internalType": "uint256",
          "name": "nextForcedTransactionNumber",
          "type": "uint256"
        }
      ],
      "name": "FinalizationDataMissingForcedTransaction",
      "type": "error"
    },
    {
      "inputs": [
        {
          "internalType": "uint256",
          "name": "l2BlockTimestamp",
          "type": "uint256"
        },
        {
          "internalType": "uint256",
          "name": "currentBlockTimestamp",
          "type": "uint256"
        }
      ],
      "name": "FinalizationInTheFuture",
      "type": "error"
    },
    {
      "inputs": [
        {
          "internalType": "bytes32",
          "name": "expected",
          "type": "bytes32"
        },
        {
          "internalType": "bytes32",
          "name": "value",
          "type": "bytes32"
        }
      ],
      "name": "FinalizationStateIncorrect",
      "type": "error"
    },
    {
      "inputs": [
        {
          "internalType": "uint256",
          "name": "blockNumber",
          "type": "uint256"
        }
      ],
      "name": "ForcedTransactionExistsForBlockOrIsTooLow",
      "type": "error"
    },
    {
      "inputs": [
        {
          "internalType": "uint256",
          "name": "expected",
          "type": "uint256"
        },
        {
          "internalType": "uint256",
          "name": "actual",
          "type": "uint256"
        }
      ],
      "name": "InitializedVersionWrong",
      "type": "error"
    },
    {
      "inputs": [],
      "name": "InvalidMerkleProof",
      "type": "error"
    },
    {
      "inputs": [],
      "name": "InvalidProof",
      "type": "error"
    },
    {
      "inputs": [
        {
          "internalType": "string",
          "name": "errorReason",
          "type": "string"
        }
      ],
      "name": "InvalidProofOrProofVerificationRanOutOfGas",
      "type": "error"
    },
    {
      "inputs": [],
      "name": "InvalidProofType",
      "type": "error"
    },
    {
      "inputs": [
        {
          "internalType": "enum IPauseManager.PauseType",
          "name": "pauseType",
          "type": "uint8"
        }
      ],
      "name": "IsNotPaused",
      "type": "error"
    },
    {
      "inputs": [
        {
          "internalType": "enum IPauseManager.PauseType",
          "name": "pauseType",
          "type": "uint8"
        }
      ],
      "name": "IsPaused",
      "type": "error"
    },
    {
      "inputs": [
        {
          "internalType": "uint256",
          "name": "messageNumber",
          "type": "uint256"
        },
        {
          "internalType": "bytes32",
          "name": "rollingHash",
          "type": "bytes32"
        }
      ],
      "name": "L1RollingHashDoesNotExistOnL1",
      "type": "error"
    },
    {
      "inputs": [
        {
          "internalType": "bytes32",
          "name": "merkleRoot",
          "type": "bytes32"
        }
      ],
      "name": "L2MerkleRootAlreadyAnchored",
      "type": "error"
    },
    {
      "inputs": [],
      "name": "L2MerkleRootDoesNotExist",
      "type": "error"
    },
    {
      "inputs": [],
      "name": "LSTWithdrawalRequiresDeficit",
      "type": "error"
    },
    {
      "inputs": [],
      "name": "LastFinalizationTimeNotLapsed",
      "type": "error"
    },
    {
      "inputs": [
        {
          "internalType": "uint32",
          "name": "leafIndex",
          "type": "uint32"
        },
        {
          "internalType": "uint32",
          "name": "maxAllowedIndex",
          "type": "uint32"
        }
      ],
      "name": "LeafIndexOutOfBounds",
      "type": "error"
    },
    {
      "inputs": [],
      "name": "LimitIsZero",
      "type": "error"
    },
    {
      "inputs": [
        {
          "internalType": "uint256",
          "name": "messageIndex",
          "type": "uint256"
        }
      ],
      "name": "MessageAlreadyClaimed",
      "type": "error"
    },
    {
      "inputs": [
        {
          "internalType": "bytes32",
          "name": "messageHash",
          "type": "bytes32"
        }
      ],
      "name": "MessageDoesNotExistOrHasAlreadyBeenClaimed",
      "type": "error"
    },
    {
      "inputs": [
        {
          "internalType": "address",
          "name": "destination",
          "type": "address"
        }
      ],
      "name": "MessageSendingFailed",
      "type": "error"
    },
    {
      "inputs": [
        {
          "internalType": "bytes32",
          "name": "rollingHash",
          "type": "bytes32"
        }
      ],
      "name": "MissingMessageNumberForRollingHash",
      "type": "error"
    },
    {
      "inputs": [
        {
          "internalType": "uint256",
          "name": "forcedTransactionNumber",
          "type": "uint256"
        }
      ],
      "name": "MissingRollingHashForForcedTransactionNumber",
      "type": "error"
    },
    {
      "inputs": [
        {
          "internalType": "uint256",
          "name": "messageNumber",
          "type": "uint256"
        }
      ],
      "name": "MissingRollingHashForMessageNumber",
      "type": "error"
    },
    {
      "inputs": [],
      "name": "NoEthSent",
      "type": "error"
    },
    {
      "inputs": [],
      "name": "OnlyNonLivenessRecoveryOperator",
      "type": "error"
    },
    {
      "inputs": [
        {
          "internalType": "enum IPauseManager.PauseType",
          "name": "pauseType",
          "type": "uint8"
        }
      ],
      "name": "OnlySecurityCouncilCanUnpauseIndefinitePause",
      "type": "error"
    },
    {
      "inputs": [
        {
          "internalType": "bytes32",
          "name": "shnarf",
          "type": "bytes32"
        }
      ],
      "name": "ParentShnarfNotSubmitted",
      "type": "error"
    },
    {
      "inputs": [
        {
          "internalType": "uint256",
          "name": "expiryEnd",
          "type": "uint256"
        }
      ],
      "name": "PauseNotExpired",
      "type": "error"
    },
    {
      "inputs": [],
      "name": "PauseTypeNotUsed",
      "type": "error"
    },
    {
      "inputs": [
        {
          "internalType": "uint256",
          "name": "cooldownEnd",
          "type": "uint256"
        }
      ],
      "name": "PauseUnavailableDueToCooldown",
      "type": "error"
    },
    {
      "inputs": [],
      "name": "PeriodIsZero",
      "type": "error"
    },
    {
      "inputs": [],
      "name": "PointEvaluationFailed",
      "type": "error"
    },
    {
      "inputs": [
        {
          "internalType": "uint256",
          "name": "fieldElements",
          "type": "uint256"
        },
        {
          "internalType": "uint256",
          "name": "blsCurveModulus",
          "type": "uint256"
        }
      ],
      "name": "PointEvaluationResponseInvalid",
      "type": "error"
    },
    {
      "inputs": [
        {
          "internalType": "uint256",
          "name": "expected",
          "type": "uint256"
        },
        {
          "internalType": "uint256",
          "name": "actual",
          "type": "uint256"
        }
      ],
      "name": "PrecompileReturnDataLengthWrong",
      "type": "error"
    },
    {
      "inputs": [],
      "name": "ProofIsEmpty",
      "type": "error"
    },
    {
      "inputs": [
        {
          "internalType": "uint256",
          "name": "actual",
          "type": "uint256"
        },
        {
          "internalType": "uint256",
          "name": "expected",
          "type": "uint256"
        }
      ],
      "name": "ProofLengthDifferentThanMerkleDepth",
      "type": "error"
    },
    {
      "inputs": [],
      "name": "RateLimitExceeded",
      "type": "error"
    },
    {
      "inputs": [],
      "name": "ReentrantCall",
      "type": "error"
    },
    {
      "inputs": [],
      "name": "RolesNotDifferent",
      "type": "error"
    },
    {
      "inputs": [
        {
          "internalType": "uint8",
          "name": "bits",
          "type": "uint8"
        },
        {
          "internalType": "uint256",
          "name": "value",
          "type": "uint256"
        }
      ],
      "name": "SafeCastOverflowedUintDowncast",
      "type": "error"
    },
    {
      "inputs": [
        {
          "internalType": "bytes32",
          "name": "shnarf",
          "type": "bytes32"
        }
      ],
      "name": "ShnarfAlreadySubmitted",
      "type": "error"
    },
    {
      "inputs": [],
      "name": "ShnarfSubmissionIsZeroHash",
      "type": "error"
    },
    {
      "inputs": [],
      "name": "StartingRootHashDoesNotMatch",
      "type": "error"
    },
    {
      "inputs": [],
      "name": "ValueSentTooLow",
      "type": "error"
    },
    {
      "inputs": [],
      "name": "ZeroAddressNotAllowed",
      "type": "error"
    },
    {
      "inputs": [],
      "name": "ZeroHashNotAllowed",
      "type": "error"
    },
    {
      "inputs": [],
      "name": "ZeroLengthNotAllowed",
      "type": "error"
    },
    {
      "inputs": [],
      "name": "ZeroValueNotAllowed",
      "type": "error"
    },
    {
      "anonymous": false,
      "inputs": [
        {
          "indexed": false,
          "internalType": "address",
          "name": "oldAddressFilter",
          "type": "address"
        },
        {
          "indexed": false,
          "internalType": "address",
          "name": "newAddressFilter",
          "type": "address"
        }
      ],
      "name": "AddressFilterChanged",
      "type": "event"
    },
    {
      "anonymous": false,
      "inputs": [
        {
          "indexed": true,
          "internalType": "address",
          "name": "resettingAddress",
          "type": "address"
        }
      ],
      "name": "AmountUsedInPeriodReset",
      "type": "event"
    },
    {
      "anonymous": false,
      "inputs": [
        {
          "indexed": true,
          "internalType": "uint256",
          "name": "startBlockNumber",
          "type": "uint256"
        },
        {
          "indexed": true,
          "internalType": "uint256",
          "name": "endBlockNumber",
          "type": "uint256"
        },
        {
          "indexed": true,
          "internalType": "bytes32",
          "name": "shnarf",
          "type": "bytes32"
        },
        {
          "indexed": false,
          "internalType": "bytes32",
          "name": "parentStateRootHash",
          "type": "bytes32"
        },
        {
          "indexed": false,
          "internalType": "bytes32",
          "name": "finalStateRootHash",
          "type": "bytes32"
        }
      ],
      "name": "DataFinalizedV3",
      "type": "event"
    },
    {
      "anonymous": false,
      "inputs": [
        {
          "indexed": false,
          "internalType": "bytes32",
          "name": "parentShnarf",
          "type": "bytes32"
        },
        {
          "indexed": true,
          "internalType": "bytes32",
          "name": "shnarf",
          "type": "bytes32"
        },
        {
          "indexed": false,
          "internalType": "bytes32",
          "name": "finalStateRootHash",
          "type": "bytes32"
        }
      ],
      "name": "DataSubmittedV3",
      "type": "event"
    },
    {
      "anonymous": false,
      "inputs": [
        {
          "indexed": true,
          "internalType": "uint256",
          "name": "blockNumber",
          "type": "uint256"
        },
        {
          "indexed": false,
          "internalType": "uint256",
          "name": "timestamp",
          "type": "uint256"
        },
        {
          "indexed": false,
          "internalType": "uint256",
          "name": "messageNumber",
          "type": "uint256"
        },
        {
          "indexed": false,
          "internalType": "uint256",
          "name": "forcedTransactionNumber",
          "type": "uint256"
        }
      ],
      "name": "FinalizedStateUpdated",
      "type": "event"
    },
    {
      "anonymous": false,
      "inputs": [
        {
          "indexed": true,
          "internalType": "uint256",
          "name": "forcedTransactionNumber",
          "type": "uint256"
        },
        {
          "indexed": true,
          "internalType": "address",
          "name": "from",
          "type": "address"
        },
        {
          "indexed": false,
          "internalType": "uint256",
          "name": "blockNumberDeadline",
          "type": "uint256"
        },
        {
          "indexed": false,
          "internalType": "bytes32",
          "name": "forcedTransactionRollingHash",
          "type": "bytes32"
        },
        {
          "indexed": false,
          "internalType": "bytes",
          "name": "rlpEncodedSignedTransaction",
          "type": "bytes"
        }
      ],
      "name": "ForcedTransactionAdded",
      "type": "event"
    },
    {
      "anonymous": false,
      "inputs": [
        {
          "indexed": false,
          "internalType": "uint256",
          "name": "forcedTransactionFeeInWei",
          "type": "uint256"
        }
      ],
      "name": "ForcedTransactionFeeSet",
      "type": "event"
    },
    {
      "anonymous": false,
      "inputs": [
        {
          "indexed": false,
          "internalType": "uint256",
          "name": "amount",
          "type": "uint256"
        }
      ],
      "name": "FundingReceived",
      "type": "event"
    },
    {
      "anonymous": false,
      "inputs": [
        {
          "indexed": false,
          "internalType": "uint8",
          "name": "version",
          "type": "uint8"
        }
      ],
      "name": "Initialized",
      "type": "event"
    },
    {
      "anonymous": false,
      "inputs": [
        {
          "indexed": true,
          "internalType": "bytes32",
          "name": "l2MerkleRoot",
          "type": "bytes32"
        },
        {
          "indexed": true,
          "internalType": "uint256",
          "name": "treeDepth",
          "type": "uint256"
        }
      ],
      "name": "L2MerkleRootAdded",
      "type": "event"
    },
    {
      "anonymous": false,
      "inputs": [
        {
          "indexed": true,
          "internalType": "uint256",
          "name": "l2Block",
          "type": "uint256"
        }
      ],
      "name": "L2MessagingBlockAnchored",
      "type": "event"
    },
    {
      "anonymous": false,
      "inputs": [
        {
          "indexed": true,
          "internalType": "address",
          "name": "amountChangeBy",
          "type": "address"
        },
        {
          "indexed": false,
          "internalType": "uint256",
          "name": "amount",
          "type": "uint256"
        },
        {
          "indexed": false,
          "internalType": "bool",
          "name": "amountUsedLoweredToLimit",
          "type": "bool"
        },
        {
          "indexed": false,
          "internalType": "bool",
          "name": "usedAmountResetToZero",
          "type": "bool"
        }
      ],
      "name": "LimitAmountChanged",
      "type": "event"
    },
    {
      "anonymous": false,
      "inputs": [
        {
          "indexed": true,
          "internalType": "bytes8",
          "name": "initialContractVersion",
          "type": "bytes8"
        },
        {
          "components": [
            {
              "internalType": "bytes32",
              "name": "initialStateRootHash",
              "type": "bytes32"
            },
            {
              "internalType": "uint256",
              "name": "initialL2BlockNumber",
              "type": "uint256"
            },
            {
              "internalType": "uint256",
              "name": "genesisTimestamp",
              "type": "uint256"
            },
            {
              "internalType": "address",
              "name": "defaultVerifier",
              "type": "address"
            },
            {
              "internalType": "uint256",
              "name": "rateLimitPeriodInSeconds",
              "type": "uint256"
            },
            {
              "internalType": "uint256",
              "name": "rateLimitAmountInWei",
              "type": "uint256"
            },
            {
              "components": [
                {
                  "internalType": "address",
                  "name": "addressWithRole",
                  "type": "address"
                },
                {
                  "internalType": "bytes32",
                  "name": "role",
                  "type": "bytes32"
                }
              ],
              "internalType": "struct IPermissionsManager.RoleAddress[]",
              "name": "roleAddresses",
              "type": "tuple[]"
            },
            {
              "components": [
                {
                  "internalType": "enum IPauseManager.PauseType",
                  "name": "pauseType",
                  "type": "uint8"
                },
                {
                  "internalType": "bytes32",
                  "name": "role",
                  "type": "bytes32"
                }
              ],
              "internalType": "struct IPauseManager.PauseTypeRole[]",
              "name": "pauseTypeRoles",
              "type": "tuple[]"
            },
            {
              "components": [
                {
                  "internalType": "enum IPauseManager.PauseType",
                  "name": "pauseType",
                  "type": "uint8"
                },
                {
                  "internalType": "bytes32",
                  "name": "role",
                  "type": "bytes32"
                }
              ],
              "internalType": "struct IPauseManager.PauseTypeRole[]",
              "name": "unpauseTypeRoles",
              "type": "tuple[]"
            },
            {
              "internalType": "address",
              "name": "defaultAdmin",
              "type": "address"
            },
            {
              "internalType": "address",
              "name": "shnarfProvider",
              "type": "address"
            },
            {
              "internalType": "address",
              "name": "addressFilter",
              "type": "address"
            }
          ],
          "indexed": false,
          "internalType": "struct ILineaRollupBase.BaseInitializationData",
          "name": "initializationData",
          "type": "tuple"
        },
        {
          "indexed": false,
          "internalType": "bytes32",
          "name": "genesisShnarf",
          "type": "bytes32"
        }
      ],
      "name": "LineaRollupBaseInitialized",
      "type": "event"
    },
    {
      "anonymous": false,
      "inputs": [
        {
          "indexed": true,
          "internalType": "bytes8",
          "name": "previousVersion",
          "type": "bytes8"
        },
        {
          "indexed": true,
          "internalType": "bytes8",
          "name": "newVersion",
          "type": "bytes8"
        }
      ],
      "name": "LineaRollupVersionChanged",
      "type": "event"
    },
    {
      "anonymous": false,
      "inputs": [
        {
          "indexed": true,
          "internalType": "address",
          "name": "caller",
          "type": "address"
        },
        {
          "indexed": true,
          "internalType": "address",
          "name": "livenessRecoveryOperator",
          "type": "address"
        }
      ],
      "name": "LivenessRecoveryOperatorAddressSet",
      "type": "event"
    },
    {
      "anonymous": false,
      "inputs": [
        {
          "indexed": true,
          "internalType": "address",
          "name": "caller",
          "type": "address"
        },
        {
          "indexed": true,
          "internalType": "address",
          "name": "livenessRecoveryOperator",
          "type": "address"
        }
      ],
      "name": "LivenessRecoveryOperatorRoleGranted",
      "type": "event"
    },
    {
      "anonymous": false,
      "inputs": [
        {
          "indexed": true,
          "internalType": "bytes32",
          "name": "_messageHash",
          "type": "bytes32"
        }
      ],
      "name": "MessageClaimed",
      "type": "event"
    },
    {
      "anonymous": false,
      "inputs": [
        {
          "indexed": true,
          "internalType": "address",
          "name": "_from",
          "type": "address"
        },
        {
          "indexed": true,
          "internalType": "address",
          "name": "_to",
          "type": "address"
        },
        {
          "indexed": false,
          "internalType": "uint256",
          "name": "_fee",
          "type": "uint256"
        },
        {
          "indexed": false,
          "internalType": "uint256",
          "name": "_value",
          "type": "uint256"
        },
        {
          "indexed": false,
          "internalType": "uint256",
          "name": "_nonce",
          "type": "uint256"
        },
        {
          "indexed": false,
          "internalType": "bytes",
          "name": "_calldata",
          "type": "bytes"
        },
        {
          "indexed": true,
          "internalType": "bytes32",
          "name": "_messageHash",
          "type": "bytes32"
        }
      ],
      "name": "MessageSent",
      "type": "event"
    },
    {
      "anonymous": false,
      "inputs": [],
      "name": "NonSecurityCouncilCooldownEndReset",
      "type": "event"
    },
    {
      "anonymous": false,
      "inputs": [
        {
          "indexed": true,
          "internalType": "enum IPauseManager.PauseType",
          "name": "pauseType",
          "type": "uint8"
        },
        {
          "indexed": true,
          "internalType": "bytes32",
          "name": "role",
          "type": "bytes32"
        }
      ],
      "name": "PauseTypeRoleSet",
      "type": "event"
    },
    {
      "anonymous": false,
      "inputs": [
        {
          "indexed": true,
          "internalType": "enum IPauseManager.PauseType",
          "name": "pauseType",
          "type": "uint8"
        },
        {
          "indexed": true,
          "internalType": "bytes32",
          "name": "role",
          "type": "bytes32"
        },
        {
          "indexed": true,
          "internalType": "bytes32",
          "name": "previousRole",
          "type": "bytes32"
        }
      ],
      "name": "PauseTypeRoleUpdated",
      "type": "event"
    },
    {
      "anonymous": false,
      "inputs": [
        {
          "indexed": false,
          "internalType": "address",
          "name": "messageSender",
          "type": "address"
        },
        {
          "indexed": true,
          "internalType": "enum IPauseManager.PauseType",
          "name": "pauseType",
          "type": "uint8"
        }
      ],
      "name": "Paused",
      "type": "event"
    },
    {
      "anonymous": false,
      "inputs": [
        {
          "indexed": false,
          "internalType": "address",
          "name": "messageSender",
          "type": "address"
        },
        {
          "indexed": true,
          "internalType": "enum IPauseManager.PauseType",
          "name": "pauseType",
          "type": "uint8"
        }
      ],
      "name": "PausedIndefinitely",
      "type": "event"
    },
    {
      "anonymous": false,
      "inputs": [
        {
          "indexed": false,
          "internalType": "uint256",
          "name": "periodInSeconds",
          "type": "uint256"
        },
        {
          "indexed": false,
          "internalType": "uint256",
          "name": "limitInWei",
          "type": "uint256"
        },
        {
          "indexed": false,
          "internalType": "uint256",
          "name": "currentPeriodEnd",
          "type": "uint256"
        }
      ],
      "name": "RateLimitInitialized",
      "type": "event"
    },
    {
      "anonymous": false,
      "inputs": [
        {
          "indexed": true,
          "internalType": "bytes32",
          "name": "role",
          "type": "bytes32"
        },
        {
          "indexed": true,
          "internalType": "bytes32",
          "name": "previousAdminRole",
          "type": "bytes32"
        },
        {
          "indexed": true,
          "internalType": "bytes32",
          "name": "newAdminRole",
          "type": "bytes32"
        }
      ],
      "name": "RoleAdminChanged",
      "type": "event"
    },
    {
      "anonymous": false,
      "inputs": [
        {
          "indexed": true,
          "internalType": "bytes32",
          "name": "role",
          "type": "bytes32"
        },
        {
          "indexed": true,
          "internalType": "address",
          "name": "account",
          "type": "address"
        },
        {
          "indexed": true,
          "internalType": "address",
          "name": "sender",
          "type": "address"
        }
      ],
      "name": "RoleGranted",
      "type": "event"
    },
    {
      "anonymous": false,
      "inputs": [
        {
          "indexed": true,
          "internalType": "bytes32",
          "name": "role",
          "type": "bytes32"
        },
        {
          "indexed": true,
          "internalType": "address",
          "name": "account",
          "type": "address"
        },
        {
          "indexed": true,
          "internalType": "address",
          "name": "sender",
          "type": "address"
        }
      ],
      "name": "RoleRevoked",
      "type": "event"
    },
    {
      "anonymous": false,
      "inputs": [
        {
          "indexed": true,
          "internalType": "uint256",
          "name": "messageNumber",
          "type": "uint256"
        },
        {
          "indexed": true,
          "internalType": "bytes32",
          "name": "rollingHash",
          "type": "bytes32"
        },
        {
          "indexed": true,
          "internalType": "bytes32",
          "name": "messageHash",
          "type": "bytes32"
        }
      ],
      "name": "RollingHashUpdated",
      "type": "event"
    },
    {
      "anonymous": false,
      "inputs": [
        {
          "indexed": true,
          "internalType": "enum IPauseManager.PauseType",
          "name": "unPauseType",
          "type": "uint8"
        },
        {
          "indexed": true,
          "internalType": "bytes32",
          "name": "role",
          "type": "bytes32"
        }
      ],
      "name": "UnPauseTypeRoleSet",
      "type": "event"
    },
    {
      "anonymous": false,
      "inputs": [
        {
          "indexed": true,
          "internalType": "enum IPauseManager.PauseType",
          "name": "unPauseType",
          "type": "uint8"
        },
        {
          "indexed": true,
          "internalType": "bytes32",
          "name": "role",
          "type": "bytes32"
        },
        {
          "indexed": true,
          "internalType": "bytes32",
          "name": "previousRole",
          "type": "bytes32"
        }
      ],
      "name": "UnPauseTypeRoleUpdated",
      "type": "event"
    },
    {
      "anonymous": false,
      "inputs": [
        {
          "indexed": false,
          "internalType": "address",
          "name": "messageSender",
          "type": "address"
        },
        {
          "indexed": true,
          "internalType": "enum IPauseManager.PauseType",
          "name": "pauseType",
          "type": "uint8"
        }
      ],
      "name": "UnPaused",
      "type": "event"
    },
    {
      "anonymous": false,
      "inputs": [
        {
          "indexed": true,
          "internalType": "enum IPauseManager.PauseType",
          "name": "pauseType",
          "type": "uint8"
        }
      ],
      "name": "UnPausedDueToExpiry",
      "type": "event"
    },
    {
      "anonymous": false,
      "inputs": [
        {
          "indexed": true,
          "internalType": "address",
          "name": "verifierAddress",
          "type": "address"
        },
        {
          "indexed": true,
          "internalType": "uint256",
          "name": "proofType",
          "type": "uint256"
        },
        {
          "indexed": true,
          "internalType": "address",
          "name": "verifierSetBy",
          "type": "address"
        },
        {
          "indexed": false,
          "internalType": "address",
          "name": "oldVerifierAddress",
          "type": "address"
        }
      ],
      "name": "VerifierAddressChanged",
      "type": "event"
    },
    {
      "anonymous": false,
      "inputs": [
        {
          "indexed": false,
          "internalType": "address",
          "name": "oldYieldManagerAddress",
          "type": "address"
        },
        {
          "indexed": false,
          "internalType": "address",
          "name": "newYieldManagerAddress",
          "type": "address"
        }
      ],
      "name": "YieldManagerChanged",
      "type": "event"
    },
    {
      "inputs": [],
      "name": "CONTRACT_VERSION",
      "outputs": [
        {
          "internalType": "string",
          "name": "contractVersion",
          "type": "string"
        }
      ],
      "stateMutability": "view",
      "type": "function"
    },
    {
      "inputs": [],
      "name": "COOLDOWN_DURATION",
      "outputs": [
        {
          "internalType": "uint256",
          "name": "",
          "type": "uint256"
        }
      ],
      "stateMutability": "view",
      "type": "function"
    },
    {
      "inputs": [],
      "name": "DEFAULT_ADMIN_ROLE",
      "outputs": [
        {
          "internalType": "bytes32",
          "name": "",
          "type": "bytes32"
        }
      ],
      "stateMutability": "view",
      "type": "function"
    },
    {
      "inputs": [],
      "name": "FORCED_TRANSACTION_FEE_SETTER_ROLE",
      "outputs": [
        {
          "internalType": "bytes32",
          "name": "",
          "type": "bytes32"
        }
      ],
      "stateMutability": "view",
      "type": "function"
    },
    {
      "inputs": [],
      "name": "FORCED_TRANSACTION_SENDER_ROLE",
      "outputs": [
        {
          "internalType": "bytes32",
          "name": "",
          "type": "bytes32"
        }
      ],
      "stateMutability": "view",
      "type": "function"
    },
    {
      "inputs": [],
      "name": "INBOX_STATUS_RECEIVED",
      "outputs": [
        {
          "internalType": "uint8",
          "name": "",
          "type": "uint8"
        }
      ],
      "stateMutability": "view",
      "type": "function"
    },
    {
      "inputs": [],
      "name": "INBOX_STATUS_UNKNOWN",
      "outputs": [
        {
          "internalType": "uint8",
          "name": "",
          "type": "uint8"
        }
      ],
      "stateMutability": "view",
      "type": "function"
    },
    {
      "inputs": [],
      "name": "OPERATOR_ROLE",
      "outputs": [
        {
          "internalType": "bytes32",
          "name": "",
          "type": "bytes32"
        }
      ],
      "stateMutability": "view",
      "type": "function"
    },
    {
      "inputs": [],
      "name": "OUTBOX_STATUS_RECEIVED",
      "outputs": [
        {
          "internalType": "uint8",
          "name": "",
          "type": "uint8"
        }
      ],
      "stateMutability": "view",
      "type": "function"
    },
    {
      "inputs": [],
      "name": "OUTBOX_STATUS_SENT",
      "outputs": [
        {
          "internalType": "uint8",
          "name": "",
          "type": "uint8"
        }
      ],
      "stateMutability": "view",
      "type": "function"
    },
    {
      "inputs": [],
      "name": "OUTBOX_STATUS_UNKNOWN",
      "outputs": [
        {
          "internalType": "uint8",
          "name": "",
          "type": "uint8"
        }
      ],
      "stateMutability": "view",
      "type": "function"
    },
    {
      "inputs": [],
      "name": "PAUSE_ALL_ROLE",
      "outputs": [
        {
          "internalType": "bytes32",
          "name": "",
          "type": "bytes32"
        }
      ],
      "stateMutability": "view",
      "type": "function"
    },
    {
      "inputs": [],
      "name": "PAUSE_DURATION",
      "outputs": [
        {
          "internalType": "uint256",
          "name": "",
          "type": "uint256"
        }
      ],
      "stateMutability": "view",
      "type": "function"
    },
    {
      "inputs": [],
      "name": "PAUSE_FINALIZATION_ROLE",
      "outputs": [
        {
          "internalType": "bytes32",
          "name": "",
          "type": "bytes32"
        }
      ],
      "stateMutability": "view",
      "type": "function"
    },
    {
      "inputs": [],
      "name": "PAUSE_L1_L2_ROLE",
      "outputs": [
        {
          "internalType": "bytes32",
          "name": "",
          "type": "bytes32"
        }
      ],
      "stateMutability": "view",
      "type": "function"
    },
    {
      "inputs": [],
      "name": "PAUSE_L2_L1_ROLE",
      "outputs": [
        {
          "internalType": "bytes32",
          "name": "",
          "type": "bytes32"
        }
      ],
      "stateMutability": "view",
      "type": "function"
    },
    {
      "inputs": [],
      "name": "PAUSE_NATIVE_YIELD_STAKING_ROLE",
      "outputs": [
        {
          "internalType": "bytes32",
          "name": "",
          "type": "bytes32"
        }
      ],
      "stateMutability": "view",
      "type": "function"
    },
    {
      "inputs": [],
      "name": "PAUSE_STATE_DATA_SUBMISSION_ROLE",
      "outputs": [
        {
          "internalType": "bytes32",
          "name": "",
          "type": "bytes32"
        }
      ],
      "stateMutability": "view",
      "type": "function"
    },
    {
      "inputs": [],
      "name": "RATE_LIMIT_SETTER_ROLE",
      "outputs": [
        {
          "internalType": "bytes32",
          "name": "",
          "type": "bytes32"
        }
      ],
      "stateMutability": "view",
      "type": "function"
    },
    {
      "inputs": [],
      "name": "SECURITY_COUNCIL_ROLE",
      "outputs": [
        {
          "internalType": "bytes32",
          "name": "",
          "type": "bytes32"
        }
      ],
      "stateMutability": "view",
      "type": "function"
    },
    {
      "inputs": [],
      "name": "SET_ADDRESS_FILTER_ROLE",
      "outputs": [
        {
          "internalType": "bytes32",
          "name": "",
          "type": "bytes32"
        }
      ],
      "stateMutability": "view",
      "type": "function"
    },
    {
      "inputs": [],
      "name": "SET_YIELD_MANAGER_ROLE",
      "outputs": [
        {
          "internalType": "bytes32",
          "name": "",
          "type": "bytes32"
        }
      ],
      "stateMutability": "view",
      "type": "function"
    },
    {
      "inputs": [],
      "name": "UNPAUSE_ALL_ROLE",
      "outputs": [
        {
          "internalType": "bytes32",
          "name": "",
          "type": "bytes32"
        }
      ],
      "stateMutability": "view",
      "type": "function"
    },
    {
      "inputs": [],
      "name": "UNPAUSE_FINALIZATION_ROLE",
      "outputs": [
        {
          "internalType": "bytes32",
          "name": "",
          "type": "bytes32"
        }
      ],
      "stateMutability": "view",
      "type": "function"
    },
    {
      "inputs": [],
      "name": "UNPAUSE_L1_L2_ROLE",
      "outputs": [
        {
          "internalType": "bytes32",
          "name": "",
          "type": "bytes32"
        }
      ],
      "stateMutability": "view",
      "type": "function"
    },
    {
      "inputs": [],
      "name": "UNPAUSE_L2_L1_ROLE",
      "outputs": [
        {
          "internalType": "bytes32",
          "name": "",
          "type": "bytes32"
        }
      ],
      "stateMutability": "view",
      "type": "function"
    },
    {
      "inputs": [],
      "name": "UNPAUSE_NATIVE_YIELD_STAKING_ROLE",
      "outputs": [
        {
          "internalType": "bytes32",
          "name": "",
          "type": "bytes32"
        }
      ],
      "stateMutability": "view",
      "type": "function"
    },
    {
      "inputs": [],
      "name": "UNPAUSE_STATE_DATA_SUBMISSION_ROLE",
      "outputs": [
        {
          "internalType": "bytes32",
          "name": "",
          "type": "bytes32"
        }
      ],
      "stateMutability": "view",
      "type": "function"
    },
    {
      "inputs": [],
      "name": "USED_RATE_LIMIT_RESETTER_ROLE",
      "outputs": [
        {
          "internalType": "bytes32",
          "name": "",
          "type": "bytes32"
        }
      ],
      "stateMutability": "view",
      "type": "function"
    },
    {
      "inputs": [],
      "name": "VERIFIER_SETTER_ROLE",
      "outputs": [
        {
          "internalType": "bytes32",
          "name": "",
          "type": "bytes32"
        }
      ],
      "stateMutability": "view",
      "type": "function"
    },
    {
      "inputs": [],
      "name": "VERIFIER_UNSETTER_ROLE",
      "outputs": [
        {
          "internalType": "bytes32",
          "name": "",
          "type": "bytes32"
        }
      ],
      "stateMutability": "view",
      "type": "function"
    },
    {
      "inputs": [],
      "name": "YIELD_PROVIDER_STAKING_ROLE",
      "outputs": [
        {
          "internalType": "bytes32",
          "name": "",
          "type": "bytes32"
        }
      ],
      "stateMutability": "view",
      "type": "function"
    },
    {
      "inputs": [],
      "name": "addressFilter",
      "outputs": [
        {
          "internalType": "contract IAddressFilter",
          "name": "",
          "type": "address"
        }
      ],
      "stateMutability": "view",
      "type": "function"
    },
    {
      "inputs": [
        {
          "internalType": "bytes32",
          "name": "_shnarf",
          "type": "bytes32"
        }
      ],
      "name": "blobShnarfExists",
      "outputs": [
        {
          "internalType": "uint256",
          "name": "shnarfExists",
          "type": "uint256"
        }
      ],
      "stateMutability": "view",
      "type": "function"
    },
    {
      "inputs": [
        {
          "internalType": "address",
          "name": "_from",
          "type": "address"
        },
        {
          "internalType": "address",
          "name": "_to",
          "type": "address"
        },
        {
          "internalType": "uint256",
          "name": "_fee",
          "type": "uint256"
        },
        {
          "internalType": "uint256",
          "name": "_value",
          "type": "uint256"
        },
        {
          "internalType": "address payable",
          "name": "_feeRecipient",
          "type": "address"
        },
        {
          "internalType": "bytes",
          "name": "_calldata",
          "type": "bytes"
        },
        {
          "internalType": "uint256",
          "name": "_nonce",
          "type": "uint256"
        }
      ],
      "name": "claimMessage",
      "outputs": [],
      "stateMutability": "nonpayable",
      "type": "function"
    },
    {
      "inputs": [
        {
          "components": [
            {
              "internalType": "bytes32[]",
              "name": "proof",
              "type": "bytes32[]"
            },
            {
              "internalType": "uint256",
              "name": "messageNumber",
              "type": "uint256"
            },
            {
              "internalType": "uint32",
              "name": "leafIndex",
              "type": "uint32"
            },
            {
              "internalType": "address",
              "name": "from",
              "type": "address"
            },
            {
              "internalType": "address",
              "name": "to",
              "type": "address"
            },
            {
              "internalType": "uint256",
              "name": "fee",
              "type": "uint256"
            },
            {
              "internalType": "uint256",
              "name": "value",
              "type": "uint256"
            },
            {
              "internalType": "address payable",
              "name": "feeRecipient",
              "type": "address"
            },
            {
              "internalType": "bytes32",
              "name": "merkleRoot",
              "type": "bytes32"
            },
            {
              "internalType": "bytes",
              "name": "data",
              "type": "bytes"
            }
          ],
          "internalType": "struct IL1MessageService.ClaimMessageWithProofParams",
          "name": "_params",
          "type": "tuple"
        }
      ],
      "name": "claimMessageWithProof",
      "outputs": [],
      "stateMutability": "nonpayable",
      "type": "function"
    },
    {
      "inputs": [
        {
          "components": [
            {
              "internalType": "bytes32[]",
              "name": "proof",
              "type": "bytes32[]"
            },
            {
              "internalType": "uint256",
              "name": "messageNumber",
              "type": "uint256"
            },
            {
              "internalType": "uint32",
              "name": "leafIndex",
              "type": "uint32"
            },
            {
              "internalType": "address",
              "name": "from",
              "type": "address"
            },
            {
              "internalType": "address",
              "name": "to",
              "type": "address"
            },
            {
              "internalType": "uint256",
              "name": "fee",
              "type": "uint256"
            },
            {
              "internalType": "uint256",
              "name": "value",
              "type": "uint256"
            },
            {
              "internalType": "address payable",
              "name": "feeRecipient",
              "type": "address"
            },
            {
              "internalType": "bytes32",
              "name": "merkleRoot",
              "type": "bytes32"
            },
            {
              "internalType": "bytes",
              "name": "data",
              "type": "bytes"
            }
          ],
          "internalType": "struct IL1MessageService.ClaimMessageWithProofParams",
          "name": "_params",
          "type": "tuple"
        },
        {
          "internalType": "address",
          "name": "_yieldProvider",
          "type": "address"
        }
      ],
      "name": "claimMessageWithProofAndWithdrawLST",
      "outputs": [],
      "stateMutability": "nonpayable",
      "type": "function"
    },
    {
      "inputs": [],
      "name": "currentFinalizedShnarf",
      "outputs": [
        {
          "internalType": "bytes32",
          "name": "",
          "type": "bytes32"
        }
      ],
      "stateMutability": "view",
      "type": "function"
    },
    {
      "inputs": [],
      "name": "currentFinalizedState",
      "outputs": [
        {
          "internalType": "bytes32",
          "name": "",
          "type": "bytes32"
        }
      ],
      "stateMutability": "view",
      "type": "function"
    },
    {
      "inputs": [],
      "name": "currentL2BlockNumber",
      "outputs": [
        {
          "internalType": "uint256",
          "name": "",
          "type": "uint256"
        }
      ],
      "stateMutability": "view",
      "type": "function"
    },
    {
      "inputs": [],
      "name": "currentPeriodAmountInWei",
      "outputs": [
        {
          "internalType": "uint256",
          "name": "",
          "type": "uint256"
        }
      ],
      "stateMutability": "view",
      "type": "function"
    },
    {
      "inputs": [],
      "name": "currentPeriodEnd",
      "outputs": [
        {
          "internalType": "uint256",
          "name": "",
          "type": "uint256"
        }
      ],
      "stateMutability": "view",
      "type": "function"
    },
    {
      "inputs": [
        {
          "internalType": "bytes",
          "name": "_aggregatedProof",
          "type": "bytes"
        },
        {
          "internalType": "uint256",
          "name": "_proofType",
          "type": "uint256"
        },
        {
          "components": [
            {
              "internalType": "bytes32",
              "name": "parentStateRootHash",
              "type": "bytes32"
            },
            {
              "internalType": "uint256",
              "name": "endBlockNumber",
              "type": "uint256"
            },
            {
              "components": [
                {
                  "internalType": "bytes32",
                  "name": "parentShnarf",
                  "type": "bytes32"
                },
                {
                  "internalType": "bytes32",
                  "name": "snarkHash",
                  "type": "bytes32"
                },
                {
                  "internalType": "bytes32",
                  "name": "finalStateRootHash",
                  "type": "bytes32"
                },
                {
                  "internalType": "bytes32",
                  "name": "dataEvaluationPoint",
                  "type": "bytes32"
                },
                {
                  "internalType": "bytes32",
                  "name": "dataEvaluationClaim",
                  "type": "bytes32"
                }
              ],
              "internalType": "struct ILineaRollupBase.ShnarfData",
              "name": "shnarfData",
              "type": "tuple"
            },
            {
              "internalType": "uint256",
              "name": "lastFinalizedTimestamp",
              "type": "uint256"
            },
            {
              "internalType": "uint256",
              "name": "finalTimestamp",
              "type": "uint256"
            },
            {
              "internalType": "bytes32",
              "name": "lastFinalizedL1RollingHash",
              "type": "bytes32"
            },
            {
              "internalType": "bytes32",
              "name": "l1RollingHash",
              "type": "bytes32"
            },
            {
              "internalType": "uint256",
              "name": "lastFinalizedL1RollingHashMessageNumber",
              "type": "uint256"
            },
            {
              "internalType": "uint256",
              "name": "l1RollingHashMessageNumber",
              "type": "uint256"
            },
            {
              "internalType": "uint256",
              "name": "l2MerkleTreesDepth",
              "type": "uint256"
            },
            {
              "internalType": "uint256",
              "name": "lastFinalizedForcedTransactionNumber",
              "type": "uint256"
            },
            {
              "internalType": "uint256",
              "name": "finalForcedTransactionNumber",
              "type": "uint256"
            },
            {
              "internalType": "bytes32",
              "name": "lastFinalizedForcedTransactionRollingHash",
              "type": "bytes32"
            },
            {
              "internalType": "bytes32[]",
              "name": "l2MerkleRoots",
              "type": "bytes32[]"
            },
            {
              "internalType": "address[]",
              "name": "filteredAddresses",
              "type": "address[]"
            },
            {
              "internalType": "bytes",
              "name": "l2MessagingBlocksOffsets",
              "type": "bytes"
            }
          ],
          "internalType": "struct ILineaRollupBase.FinalizationDataV4",
          "name": "_finalizationData",
          "type": "tuple"
        }
      ],
      "name": "finalizeBlocks",
      "outputs": [],
      "stateMutability": "nonpayable",
      "type": "function"
    },
    {
      "inputs": [],
      "name": "forcedTransactionFeeInWei",
      "outputs": [
        {
          "internalType": "uint256",
          "name": "",
          "type": "uint256"
        }
      ],
      "stateMutability": "view",
      "type": "function"
    },
    {
      "inputs": [
        {
          "internalType": "uint256",
          "name": "forcedTransactionNumber",
          "type": "uint256"
        }
      ],
      "name": "forcedTransactionL2BlockNumbers",
      "outputs": [
        {
          "internalType": "uint256",
          "name": "l2BlockNumber",
          "type": "uint256"
        }
      ],
      "stateMutability": "view",
      "type": "function"
    },
    {
      "inputs": [
        {
          "internalType": "uint256",
          "name": "forcedTransactionNumber",
          "type": "uint256"
        }
      ],
      "name": "forcedTransactionRollingHashes",
      "outputs": [
        {
          "internalType": "bytes32",
          "name": "rollingHash",
          "type": "bytes32"
        }
      ],
      "stateMutability": "view",
      "type": "function"
    },
    {
      "inputs": [],
      "name": "fund",
      "outputs": [],
      "stateMutability": "payable",
      "type": "function"
    },
    {
      "inputs": [],
      "name": "getRequiredForcedTransactionFields",
      "outputs": [
        {
          "internalType": "bytes32",
          "name": "finalizedState",
          "type": "bytes32"
        },
        {
          "internalType": "bytes32",
          "name": "previousForcedTransactionRollingHash",
          "type": "bytes32"
        },
        {
          "internalType": "uint256",
          "name": "previousForcedTransactionBlockDeadline",
          "type": "uint256"
        },
        {
          "internalType": "uint256",
          "name": "currentFinalizedL2BlockNumber",
          "type": "uint256"
        },
        {
          "internalType": "uint256",
          "name": "forcedTransactionFeeAmount",
          "type": "uint256"
        }
      ],
      "stateMutability": "view",
      "type": "function"
    },
    {
      "inputs": [
        {
          "internalType": "bytes32",
          "name": "role",
          "type": "bytes32"
        }
      ],
      "name": "getRoleAdmin",
      "outputs": [
        {
          "internalType": "bytes32",
          "name": "",
          "type": "bytes32"
        }
      ],
      "stateMutability": "view",
      "type": "function"
    },
    {
      "inputs": [
        {
          "internalType": "bytes32",
          "name": "role",
          "type": "bytes32"
        },
        {
          "internalType": "address",
          "name": "account",
          "type": "address"
        }
      ],
      "name": "grantRole",
      "outputs": [],
      "stateMutability": "nonpayable",
      "type": "function"
    },
    {
      "inputs": [
        {
          "internalType": "bytes32",
          "name": "role",
          "type": "bytes32"
        },
        {
          "internalType": "address",
          "name": "account",
          "type": "address"
        }
      ],
      "name": "hasRole",
      "outputs": [
        {
          "internalType": "bool",
          "name": "",
          "type": "bool"
        }
      ],
      "stateMutability": "view",
      "type": "function"
    },
    {
      "inputs": [
        {
          "internalType": "bytes32",
          "name": "messageHash",
          "type": "bytes32"
        }
      ],
      "name": "inboxL2L1MessageStatus",
      "outputs": [
        {
          "internalType": "uint256",
          "name": "messageStatus",
          "type": "uint256"
        }
      ],
      "stateMutability": "view",
      "type": "function"
    },
    {
      "inputs": [
        {
          "components": [
            {
              "internalType": "bytes32",
              "name": "initialStateRootHash",
              "type": "bytes32"
            },
            {
              "internalType": "uint256",
              "name": "initialL2BlockNumber",
              "type": "uint256"
            },
            {
              "internalType": "uint256",
              "name": "genesisTimestamp",
              "type": "uint256"
            },
            {
              "internalType": "address",
              "name": "defaultVerifier",
              "type": "address"
            },
            {
              "internalType": "uint256",
              "name": "rateLimitPeriodInSeconds",
              "type": "uint256"
            },
            {
              "internalType": "uint256",
              "name": "rateLimitAmountInWei",
              "type": "uint256"
            },
            {
              "components": [
                {
                  "internalType": "address",
                  "name": "addressWithRole",
                  "type": "address"
                },
                {
                  "internalType": "bytes32",
                  "name": "role",
                  "type": "bytes32"
                }
              ],
              "internalType": "struct IPermissionsManager.RoleAddress[]",
              "name": "roleAddresses",
              "type": "tuple[]"
            },
            {
              "components": [
                {
                  "internalType": "enum IPauseManager.PauseType",
                  "name": "pauseType",
                  "type": "uint8"
                },
                {
                  "internalType": "bytes32",
                  "name": "role",
                  "type": "bytes32"
                }
              ],
              "internalType": "struct IPauseManager.PauseTypeRole[]",
              "name": "pauseTypeRoles",
              "type": "tuple[]"
            },
            {
              "components": [
                {
                  "internalType": "enum IPauseManager.PauseType",
                  "name": "pauseType",
                  "type": "uint8"
                },
                {
                  "internalType": "bytes32",
                  "name": "role",
                  "type": "bytes32"
                }
              ],
              "internalType": "struct IPauseManager.PauseTypeRole[]",
              "name": "unpauseTypeRoles",
              "type": "tuple[]"
            },
            {
              "internalType": "address",
              "name": "defaultAdmin",
              "type": "address"
            },
            {
              "internalType": "address",
              "name": "shnarfProvider",
              "type": "address"
            },
            {
              "internalType": "address",
              "name": "addressFilter",
              "type": "address"
            }
          ],
          "internalType": "struct ILineaRollupBase.BaseInitializationData",
          "name": "_initializationData",
          "type": "tuple"
        },
        {
          "internalType": "address",
          "name": "_livenessRecoveryOperator",
          "type": "address"
        },
        {
          "internalType": "address",
          "name": "_yieldManager",
          "type": "address"
        }
      ],
      "name": "initialize",
      "outputs": [],
      "stateMutability": "nonpayable",
      "type": "function"
    },
    {
      "inputs": [
        {
          "internalType": "uint256",
          "name": "_messageNumber",
          "type": "uint256"
        }
      ],
      "name": "isMessageClaimed",
      "outputs": [
        {
          "internalType": "bool",
          "name": "isClaimed",
          "type": "bool"
        }
      ],
      "stateMutability": "view",
      "type": "function"
    },
    {
      "inputs": [
        {
          "internalType": "enum IPauseManager.PauseType",
          "name": "_pauseType",
          "type": "uint8"
        }
      ],
      "name": "isPaused",
      "outputs": [
        {
          "internalType": "bool",
          "name": "pauseTypeIsPaused",
          "type": "bool"
        }
      ],
      "stateMutability": "view",
      "type": "function"
    },
    {
      "inputs": [],
      "name": "isWithdrawLSTAllowed",
      "outputs": [
        {
          "internalType": "bool",
          "name": "",
          "type": "bool"
        }
      ],
      "stateMutability": "view",
      "type": "function"
    },
    {
      "inputs": [
        {
          "internalType": "bytes32",
          "name": "merkleRoot",
          "type": "bytes32"
        }
      ],
      "name": "l2MerkleRootsDepths",
      "outputs": [
        {
          "internalType": "uint256",
          "name": "treeDepth",
          "type": "uint256"
        }
      ],
      "stateMutability": "view",
      "type": "function"
    },
    {
      "inputs": [],
      "name": "limitInWei",
      "outputs": [
        {
          "internalType": "uint256",
          "name": "",
          "type": "uint256"
        }
      ],
      "stateMutability": "view",
      "type": "function"
    },
    {
      "inputs": [],
      "name": "livenessRecoveryOperator",
      "outputs": [
        {
          "internalType": "address",
          "name": "",
          "type": "address"
        }
      ],
      "stateMutability": "view",
      "type": "function"
    },
    {
      "inputs": [],
      "name": "nextForcedTransactionNumber",
      "outputs": [
        {
          "internalType": "uint256",
          "name": "",
          "type": "uint256"
        }
      ],
      "stateMutability": "view",
      "type": "function"
    },
    {
      "inputs": [],
      "name": "nextMessageNumber",
      "outputs": [
        {
          "internalType": "uint256",
          "name": "",
          "type": "uint256"
        }
      ],
      "stateMutability": "view",
      "type": "function"
    },
    {
      "inputs": [],
      "name": "nonSecurityCouncilCooldownEnd",
      "outputs": [
        {
          "internalType": "uint256",
          "name": "",
          "type": "uint256"
        }
      ],
      "stateMutability": "view",
      "type": "function"
    },
    {
      "inputs": [
        {
          "internalType": "bytes32",
          "name": "messageHash",
          "type": "bytes32"
        }
      ],
      "name": "outboxL1L2MessageStatus",
      "outputs": [
        {
          "internalType": "uint256",
          "name": "messageStatus",
          "type": "uint256"
        }
      ],
      "stateMutability": "view",
      "type": "function"
    },
    {
      "inputs": [
        {
          "internalType": "enum IPauseManager.PauseType",
          "name": "_pauseType",
          "type": "uint8"
        }
      ],
      "name": "pauseByType",
      "outputs": [],
      "stateMutability": "nonpayable",
      "type": "function"
    },
    {
      "inputs": [
        {
          "internalType": "enum IPauseManager.PauseType",
          "name": "pauseType",
          "type": "uint8"
        }
      ],
      "name": "pauseTypeExpiryTimestamps",
      "outputs": [
        {
          "internalType": "uint256",
          "name": "expiryTimestamp",
          "type": "uint256"
        }
      ],
      "stateMutability": "view",
      "type": "function"
    },
    {
      "inputs": [],
      "name": "periodInSeconds",
      "outputs": [
        {
          "internalType": "uint256",
          "name": "",
          "type": "uint256"
        }
      ],
      "stateMutability": "view",
      "type": "function"
    },
    {
      "inputs": [
        {
          "internalType": "uint256",
          "name": "_forcedTransactionFeeInWei",
          "type": "uint256"
        },
        {
          "internalType": "address",
          "name": "_addressFilter",
          "type": "address"
        }
      ],
      "name": "reinitializeLineaRollupV9",
      "outputs": [],
      "stateMutability": "nonpayable",
      "type": "function"
    },
    {
      "inputs": [
        {
          "internalType": "bytes32",
          "name": "_role",
          "type": "bytes32"
        },
        {
          "internalType": "address",
          "name": "_account",
          "type": "address"
        }
      ],
      "name": "renounceRole",
      "outputs": [],
      "stateMutability": "nonpayable",
      "type": "function"
    },
    {
      "inputs": [
        {
          "internalType": "uint256",
          "name": "_amount",
          "type": "uint256"
        },
        {
          "internalType": "address",
          "name": "_l2YieldRecipient",
          "type": "address"
        }
      ],
      "name": "reportNativeYield",
      "outputs": [],
      "stateMutability": "nonpayable",
      "type": "function"
    },
    {
      "inputs": [],
      "name": "resetAmountUsedInPeriod",
      "outputs": [],
      "stateMutability": "nonpayable",
      "type": "function"
    },
    {
      "inputs": [],
      "name": "resetNonSecurityCouncilCooldownEnd",
      "outputs": [],
      "stateMutability": "nonpayable",
      "type": "function"
    },
    {
      "inputs": [
        {
          "internalType": "uint256",
          "name": "_amount",
          "type": "uint256"
        }
      ],
      "name": "resetRateLimitAmount",
      "outputs": [],
      "stateMutability": "nonpayable",
      "type": "function"
    },
    {
      "inputs": [
        {
          "internalType": "bytes32",
          "name": "role",
          "type": "bytes32"
        },
        {
          "internalType": "address",
          "name": "account",
          "type": "address"
        }
      ],
      "name": "revokeRole",
      "outputs": [],
      "stateMutability": "nonpayable",
      "type": "function"
    },
    {
      "inputs": [
        {
          "internalType": "uint256",
          "name": "messageNumber",
          "type": "uint256"
        }
      ],
      "name": "rollingHashes",
      "outputs": [
        {
          "internalType": "bytes32",
          "name": "rollingHash",
          "type": "bytes32"
        }
      ],
      "stateMutability": "view",
      "type": "function"
    },
    {
      "inputs": [
        {
          "internalType": "address",
          "name": "_to",
          "type": "address"
        },
        {
          "internalType": "uint256",
          "name": "_fee",
          "type": "uint256"
        },
        {
          "internalType": "bytes",
          "name": "_calldata",
          "type": "bytes"
        }
      ],
      "name": "sendMessage",
      "outputs": [],
      "stateMutability": "payable",
      "type": "function"
    },
    {
      "inputs": [],
      "name": "sender",
      "outputs": [
        {
          "internalType": "address",
          "name": "originalSender",
          "type": "address"
        }
      ],
      "stateMutability": "view",
      "type": "function"
    },
    {
      "inputs": [
        {
          "internalType": "address",
          "name": "_addressFilter",
          "type": "address"
        }
      ],
      "name": "setAddressFilter",
      "outputs": [],
      "stateMutability": "nonpayable",
      "type": "function"
    },
    {
      "inputs": [
        {
          "internalType": "uint256",
          "name": "_forcedTransactionFeeInWei",
          "type": "uint256"
        }
      ],
      "name": "setForcedTransactionFee",
      "outputs": [],
      "stateMutability": "nonpayable",
      "type": "function"
    },
    {
      "inputs": [
        {
          "internalType": "uint256",
          "name": "_messageNumber",
          "type": "uint256"
        },
        {
          "internalType": "bytes32",
          "name": "_rollingHash",
          "type": "bytes32"
        },
        {
          "internalType": "uint256",
          "name": "_lastFinalizedForcedTransactionNumber",
          "type": "uint256"
        },
        {
          "internalType": "bytes32",
          "name": "_lastFinalizedForcedTransactionRollingHash",
          "type": "bytes32"
        },
        {
          "internalType": "uint256",
          "name": "_lastFinalizedTimestamp",
          "type": "uint256"
        }
      ],
      "name": "setLivenessRecoveryOperator",
      "outputs": [],
      "stateMutability": "nonpayable",
      "type": "function"
    },
    {
      "inputs": [
        {
          "internalType": "address",
          "name": "_newVerifierAddress",
          "type": "address"
        },
        {
          "internalType": "uint256",
          "name": "_proofType",
          "type": "uint256"
        }
      ],
      "name": "setVerifierAddress",
      "outputs": [],
      "stateMutability": "nonpayable",
      "type": "function"
    },
    {
      "inputs": [
        {
          "internalType": "address",
          "name": "_newYieldManager",
          "type": "address"
        }
      ],
      "name": "setYieldManager",
      "outputs": [],
      "stateMutability": "nonpayable",
      "type": "function"
    },
    {
      "inputs": [],
      "name": "shnarfProvider",
      "outputs": [
        {
          "internalType": "contract IProvideShnarf",
          "name": "",
          "type": "address"
        }
      ],
      "stateMutability": "view",
      "type": "function"
    },
    {
      "inputs": [
        {
          "internalType": "uint256",
          "name": "blockNumber",
          "type": "uint256"
        }
      ],
      "name": "stateRootHashes",
      "outputs": [
        {
          "internalType": "bytes32",
          "name": "stateRootHash",
          "type": "bytes32"
        }
      ],
      "stateMutability": "view",
      "type": "function"
    },
    {
      "inputs": [
        {
          "internalType": "bytes32",
          "name": "_forcedTransactionRollingHash",
          "type": "bytes32"
        },
        {
          "internalType": "address",
          "name": "_from",
          "type": "address"
        },
        {
          "internalType": "uint256",
          "name": "_blockNumberDeadline",
          "type": "uint256"
        },
        {
          "internalType": "bytes",
          "name": "_rlpEncodedSignedTransaction",
          "type": "bytes"
        }
      ],
      "name": "storeForcedTransaction",
      "outputs": [],
      "stateMutability": "payable",
      "type": "function"
    },
    {
      "inputs": [
        {
          "components": [
            {
              "internalType": "uint256",
              "name": "dataEvaluationClaim",
              "type": "uint256"
            },
            {
              "internalType": "bytes",
              "name": "kzgCommitment",
              "type": "bytes"
            },
            {
              "internalType": "bytes",
              "name": "kzgProof",
              "type": "bytes"
            },
            {
              "internalType": "bytes32",
              "name": "finalStateRootHash",
              "type": "bytes32"
            },
            {
              "internalType": "bytes32",
              "name": "snarkHash",
              "type": "bytes32"
            }
          ],
          "internalType": "struct IAcceptEip4844Blobs.BlobSubmission[]",
          "name": "_blobSubmissions",
          "type": "tuple[]"
        },
        {
          "internalType": "bytes32",
          "name": "_parentShnarf",
          "type": "bytes32"
        },
        {
          "internalType": "bytes32",
          "name": "_finalBlobShnarf",
          "type": "bytes32"
        }
      ],
      "name": "submitBlobs",
      "outputs": [],
      "stateMutability": "nonpayable",
      "type": "function"
    },
    {
      "inputs": [
        {
          "internalType": "bytes4",
          "name": "interfaceId",
          "type": "bytes4"
        }
      ],
      "name": "supportsInterface",
      "outputs": [
        {
          "internalType": "bool",
          "name": "",
          "type": "bool"
        }
      ],
      "stateMutability": "view",
      "type": "function"
    },
    {
      "inputs": [],
      "name": "systemMigrationBlock",
      "outputs": [
        {
          "internalType": "uint256",
          "name": "",
          "type": "uint256"
        }
      ],
      "stateMutability": "view",
      "type": "function"
    },
    {
      "inputs": [
        {
          "internalType": "uint256",
          "name": "_amount",
          "type": "uint256"
        }
      ],
      "name": "transferFundsForNativeYield",
      "outputs": [],
      "stateMutability": "nonpayable",
      "type": "function"
    },
    {
      "inputs": [
        {
          "internalType": "enum IPauseManager.PauseType",
          "name": "_pauseType",
          "type": "uint8"
        }
      ],
      "name": "unPauseByExpiredType",
      "outputs": [],
      "stateMutability": "nonpayable",
      "type": "function"
    },
    {
      "inputs": [
        {
          "internalType": "enum IPauseManager.PauseType",
          "name": "_pauseType",
          "type": "uint8"
        }
      ],
      "name": "unPauseByType",
      "outputs": [],
      "stateMutability": "nonpayable",
      "type": "function"
    },
    {
      "inputs": [
        {
          "internalType": "uint256",
          "name": "_proofType",
          "type": "uint256"
        }
      ],
      "name": "unsetVerifierAddress",
      "outputs": [],
      "stateMutability": "nonpayable",
      "type": "function"
    },
    {
      "inputs": [
        {
          "internalType": "enum IPauseManager.PauseType",
          "name": "_pauseType",
          "type": "uint8"
        },
        {
          "internalType": "bytes32",
          "name": "_newRole",
          "type": "bytes32"
        }
      ],
      "name": "updatePauseTypeRole",
      "outputs": [],
      "stateMutability": "nonpayable",
      "type": "function"
    },
    {
      "inputs": [
        {
          "internalType": "enum IPauseManager.PauseType",
          "name": "_pauseType",
          "type": "uint8"
        },
        {
          "internalType": "bytes32",
          "name": "_newRole",
          "type": "bytes32"
        }
      ],
      "name": "updateUnpauseTypeRole",
      "outputs": [],
      "stateMutability": "nonpayable",
      "type": "function"
    },
    {
      "inputs": [
        {
          "internalType": "uint256",
          "name": "proofType",
          "type": "uint256"
        }
      ],
      "name": "verifiers",
      "outputs": [
        {
          "internalType": "address",
          "name": "verifierAddress",
          "type": "address"
        }
      ],
      "stateMutability": "view",
      "type": "function"
    },
    {
      "inputs": [],
      "name": "yieldManager",
      "outputs": [
        {
          "internalType": "address",
          "name": "",
          "type": "address"
        }
      ],
      "stateMutability": "view",
      "type": "function"
    }
  ],
  "bytecode": "0x6080604052348015600e575f5ffd5b506015601f565b601b601f565b60d9565b5f54610100900460ff161560895760405162461bcd60e51b815260206004820152602760248201527f496e697469616c697a61626c653a20636f6e747261637420697320696e697469604482015266616c697a696e6760c81b606482015260840160405180910390fd5b5f5460ff9081161460d7575f805460ff191660ff9081179091556040519081527f7f26b83ff96e1f2b6a682f133852f6798a09c465da95921460cefb38474024989060200160405180910390a15b565b61627c806100e65f395ff3fe6080604052600436106105f8575f3560e01c8063755bc62f11610311578063ad422ff01161019c578063c2116974116100e7578063d9fe8bdd11610092578063e66c2a931161006d578063e66c2a93146112c4578063ee828920146112e3578063f5b541a61461131f575f5ffd5b8063d9fe8bdd14611271578063dd9be3e714611286578063e196fb5d146112a5575f5ffd5b8063cd9b9e9a116100c2578063cd9b9e9a14611209578063d547741f1461121f578063d722bbfc1461123e575f5ffd5b8063c211697414611197578063c294c918146111b6578063cc6f7251146111d6575f5ffd5b8063b9174ba311610147578063bf3e750511610122578063bf3e75051461113a578063c0729ab11461116d578063c1dc0f0714611182575f5ffd5b8063b9174ba3146110b5578063b9fe5cf7146110e8578063bc61e7331461111b575f5ffd5b8063aea4f74511610177578063aea4f74514611084578063b60d428814611098578063b837dbe9146110a0575f5ffd5b8063ad422ff014611010578063add9137a14611025578063ae15ceae14611051575f5ffd5b806392dd3f871161025c5780639ee8b21111610207578063a4c4cef7116101e2578063a4c4cef714610f92578063a505925f14610fa8578063ac1eff6814610fdb575f5ffd5b80639ee8b21114610f4d5780639f3ce55a14610f6c578063a217fddf14610f7f575f5ffd5b8063986fcddd11610237578063986fcddd14610cff57806399467a3514610efb5780639ac25d0814610f1a575f5ffd5b806392dd3f8714610e8557806395ba81fa14610eb157806396e6e4b314610ed0575f5ffd5b80638c7c363a116102bc57806391d148541161029757806391d1485414610df8578063921b278e14610e3c578063923fe89414610e52575f5ffd5b80638c7c363a14610d7a5780638de4948714610d99578063914e57eb14610dcc575f5ffd5b80637d1e8c55116102ec5780637d1e8c5514610cff57806380b7af1814610d125780638be745d114610d4e575f5ffd5b8063755bc62f14610c9957806376df1ecc14610cb857806378ea198a14610ccc575f5ffd5b806348922ab7116104915780635ec775b0116103dc5780636a906b80116103875780637174c559116103625780637174c55914610c3357806373bd07b714610c6657806374ce962c14610c7a575f5ffd5b80636a906b8014610bae5780636b78317214610be15780636e67384314610c00575f5ffd5b80636463fb2a116103b75780636463fb2a14610b5d57806367e404ce14610b7c578063695378f514610b98575f5ffd5b80635ec775b01461072457806360e83cf314610afe5780636321315514610b2a575f5ffd5b806352e576bb1161043c57806358794456116104175780635879445614610abe5780635b7eb4bd146109815780635c721a0c14610ad3575f5ffd5b806352e576bb14610a6a5780635334b7e614610a80578063557eac7314610a9f575f5ffd5b8063516f1a441161046c578063516f1a44146109e55780635230eef214610a1857806352abf32d14610a4b575f5ffd5b806348922ab714610981578063491e0936146109a75780634bb97413146109c6575f5ffd5b80632c3c67d0116105515780633b12eccb116104fc5780633fc08b65116104d75780633fc08b6514610904578063411aa28c1461092f57806342277d701461094e575f5ffd5b80633b12eccb146108925780633c0f20fc146108c55780633e9ebfc2146108e5575f5ffd5b80632fe352741161052c5780632fe352741461082657806336568abe1461084257806338b9033314610861575f5ffd5b80632c3c67d0146107d25780632c70645c146107f15780632f2ff15d14610807575f5ffd5b80632130d812116105b1578063248c61261161058c578063248c612614610768578063289581741461077b5780632acc8df91461079a575f5ffd5b80632130d812146106f857806321b4deee14610724578063248a9ca31461073a575f5ffd5b8063085b1c6f116105e1578063085b1c6f146106715780631065a399146106a4578063198330f8146106c5575f5ffd5b806301ffc9a7146105fc57806303134d1d14610630575b5f5ffd5b348015610607575f5ffd5b5061061b610616366004615445565b611352565b60405190151581526020015b60405180910390f35b34801561063b575f5ffd5b506106637f1ab87f7458c0e3d07e9881c14ee67f0141703614fd48ea5b15ed987e5f4b030e81565b604051908152602001610627565b34801561067c575f5ffd5b506106637f220bd22ef7c53d75fe3eac0a09e90815a0c5ba4f9e8da8b039542cd3db34725881565b3480156106af575f5ffd5b506106c36106be36600461547f565b611388565b005b3480156106d0575f5ffd5b506106637f76ef52a5344b10ed112c1d48c7c06f51e919518ea6fb005f9b25b359b955e3be81565b348015610703575f5ffd5b50610663610712366004615498565b5f9081526101be602052604090205490565b34801561072f575f5ffd5b506106636202a30081565b348015610745575f5ffd5b50610663610754366004615498565b5f9081526065602052604090206001015490565b6106c3610776366004615513565b61155b565b348015610786575f5ffd5b506106c3610795366004615498565b6116bf565b3480156107a5575f5ffd5b506101c0546107ba906001600160a01b031681565b6040516001600160a01b039091168152602001610627565b3480156107dd575f5ffd5b506106c36107ec366004615578565b61175a565b3480156107fc575f5ffd5b506106636101835481565b348015610812575f5ffd5b506106c36108213660046155af565b6118ac565b348015610831575f5ffd5b50600160a01b5f5c0460ff1661061b565b34801561084d575f5ffd5b506106c361085c3660046155af565b6118d5565b34801561086c575f5ffd5b5060408051808201825260038152620382e360ec1b6020820152905161062791906155dd565b34801561089d575f5ffd5b506106637fb6cc65f42901ed602aec1619cc1ead29d487cd489094a37615153eaeb991d77081565b3480156108d0575f5ffd5b506101c1546107ba906001600160a01b031681565b3480156108f0575f5ffd5b506106c36108ff366004615612565b6118e3565b34801561090f575f5ffd5b5061066361091e366004615498565b60a56020525f908152604090205481565b34801561093a575f5ffd5b506106c36109493660046155af565b611a10565b348015610959575f5ffd5b506106637f012c76ef7f96cd7eb95acbdc250ad5696bbe3fd2fcf0207571939fa40c2e016781565b34801561098c575f5ffd5b50610995600181565b60405160ff9091168152602001610627565b3480156109b2575f5ffd5b506106c36109c136600461563a565b611c4b565b3480156109d1575f5ffd5b506106c36109e03660046155af565b611ec7565b3480156109f0575f5ffd5b506106637fb63b70db607c764adad98a6745fc4efcea212ebc7b501d5753c57d675f377a6681565b348015610a23575f5ffd5b506106637f0cf0d2deb70d7bdac2fa48c4ac99bc558170be0ce5fcb994caefa4bf7b96edf981565b348015610a56575f5ffd5b506106c3610a65366004615612565b611ffe565b348015610a75575f5ffd5b506106636101c55481565b348015610a8b575f5ffd5b506106c3610a9a366004615498565b61212b565b348015610aaa575f5ffd5b506106c3610ab9366004615498565b6121b3565b348015610ac9575f5ffd5b5061066360995481565b348015610ade575f5ffd5b50610663610aed366004615498565b60a66020525f908152604090205481565b348015610b09575f5ffd5b50610663610b18366004615498565b6101506020525f908152604090205481565b348015610b35575f5ffd5b506106637fe37c272ea30e2bb381ad7cf89ae754b49153250609f36d0cbdad8b64c184bb5c81565b348015610b68575f5ffd5b506106c3610b773660046156db565b61227d565b348015610b87575f5ffd5b505f5c6001600160a01b03166107ba565b348015610ba3575f5ffd5b506106636101195481565b348015610bb9575f5ffd5b506106637fd8b4c34c2ec1f3194471108c64ad2beda340c0337ee4ca35592f9ef270f4228b81565b348015610bec575f5ffd5b506106c3610bfb366004615715565b6123f8565b348015610c0b575f5ffd5b506106637f32937fd5162e282df7e9a14a5073a2425321c7966eaf70ed6c838a1006d84c4c81565b348015610c3e575f5ffd5b506106637f4b4665d8754e6ea0608430ef3e91c1b45c72aafe8800e289cd35f38d8536185881565b348015610c71575f5ffd5b50610995600281565b348015610c85575f5ffd5b506106c3610c94366004615759565b6125ac565b348015610ca4575f5ffd5b506106c3610cb3366004615774565b6125df565b348015610cc3575f5ffd5b506106c3612777565b348015610cd7575f5ffd5b506106637f4df33217c89b6f12af38ba46035cb312b5e88de78d22279286830fe079b642cd81565b348015610d0a575f5ffd5b506109955f81565b348015610d1d575f5ffd5b507f594904a11ae10ad7613c91ac3c92c7c3bba397934d377ce6d3e0aaffbc17df00546001600160a01b03166107ba565b348015610d59575f5ffd5b50610663610d68366004615498565b61011a6020525f908152604090205481565b348015610d85575f5ffd5b506106c3610d94366004615759565b6127d0565b348015610da4575f5ffd5b506106637fe1fce82838dd7a42cfe783f60dc6233c8aa2c4fc66e77817805e767ec5e349b681565b348015610dd7575f5ffd5b50610663610de6366004615498565b61014e6020525f908152604090205481565b348015610e03575f5ffd5b5061061b610e123660046155af565b5f9182526065602090815260408084206001600160a01b0393909316845291905290205460ff1690565b348015610e47575f5ffd5b506106636101bf5481565b348015610e5d575f5ffd5b506106637fcc10d6eec3c757d645e27b3f3001a3ba52f692da0bce25fabf58c6ecaf37645081565b348015610e90575f5ffd5b50610663610e9f366004615498565b6101c36020525f908152604090205481565b348015610ebc575f5ffd5b506106c3610ecb36600461547f565b612892565b348015610edb575f5ffd5b50610663610eea36600461547f565b60de6020525f908152604090205481565b348015610f06575f5ffd5b506106c3610f153660046157ec565b612a0c565b348015610f25575f5ffd5b506106637f56bdc3c9ec86cb7db110a7699b2ade72f0b8819727d9f7d906b012641505fa7781565b348015610f58575f5ffd5b5061061b610f67366004615498565b612a4d565b6106c3610f7a366004615869565b612a70565b348015610f8a575f5ffd5b506106635f81565b348015610f9d575f5ffd5b506106636101c25481565b348015610fb3575f5ffd5b506106637f21aba2dd4535739d4ca4cddb3c024036bfcc88cfce067cb0847e7ad0f9cfaa5581565b348015610fe6575f5ffd5b506107ba610ff5366004615498565b61011b6020525f90815260409020546001600160a01b031681565b34801561101b575f5ffd5b5061066360985481565b348015611030575f5ffd5b5061066361103f366004615498565b6101c46020525f908152604090205481565b34801561105c575f5ffd5b506106637fdaafd36d8da81d5104d4fd21e3ccc58683c62ba08cd23875bcfbc0583a3f49dd81565b34801561108f575f5ffd5b506106c3612a8e565b6106c3612ae9565b3480156110ab575f5ffd5b5061066360e45481565b3480156110c0575f5ffd5b506106637f430a7f0cb00b5ebbe63cecc96e82cf959a883e7c13a95110854f1fa6b3fbf59881565b3480156110f3575f5ffd5b506106637f1453a531db80c85f2d944d498709d84959bc5bf839eefe9acb784571e5a3211881565b348015611126575f5ffd5b5061061b61113536600461547f565b612b3e565b348015611145575f5ffd5b506106637f1185e52d62bfbbea270e57d3d09733d221b53ab7a18bae82bb3c6c74bab16d8281565b348015611178575f5ffd5b50610663609a5481565b34801561118d575f5ffd5b5061066360975481565b3480156111a2575f5ffd5b506106c36111b13660046158c1565b612b62565b3480156111c1575f5ffd5b506101c6546107ba906001600160a01b031681565b3480156111e1575f5ffd5b506106637fe8cb6172fcf5cbaae022b7c910224a4f0c20d53227e630056efff182155a5abc81565b348015611214575f5ffd5b506106636101bd5481565b34801561122a575f5ffd5b506106c36112393660046155af565b612c37565b348015611249575f5ffd5b506106637f6b5661ddfbd1fbd525c902a513e0f47d9c74f1c1ee8a2d4f1937ad305fb8f41a81565b34801561127c575f5ffd5b5061066360dd5481565b348015611291575f5ffd5b506106c36112a03660046158dd565b612c5b565b3480156112b0575f5ffd5b506106c36112bf36600461547f565b612de0565b3480156112cf575f5ffd5b506106c36112de366004615498565b6130b5565b3480156112ee575f5ffd5b506112f7613169565b604080519586526020860194909452928401919091526060830152608082015260a001610627565b34801561132a575f5ffd5b506106637f97667070c54ef182b0f5858b034beac1b6f3089aa2d3188bb1e8929f4fa9b92981565b5f6001600160e01b03198216637965db0b60e01b148061138257506301ffc9a760e01b6001600160e01b03198316145b92915050565b805f81600d81111561139c5761139c615942565b036113ba576040516385994c7760e01b815260040160405180910390fd5b60dc5f83600d8111156113cf576113cf615942565b600d8111156113e0576113e0615942565b81526020019081526020015f20546113f7816131b8565b61140083612b3e565b6114285782604051630619659560e21b815260040161141f9190615976565b60405180910390fd5b5f1960de5f85600d81111561143f5761143f615942565b600d81111561145057611450615942565b81526020019081526020015f20541480156114995750335f9081527f74a8627e7e8109f70747bbdf2c891159d40f925b9c8f09259a497b8c31b3780b602052604090205460ff16155b156114b957826040516323bb853560e21b815260040161141f9190615976565b60de5f84600d8111156114ce576114ce615942565b600d8111156114df576114df615942565b81526020019081526020015f205f905582600d81111561150157611501615942565b60da8054600190921b19909116905582600d81111561152257611522615942565b6040513381527fd071d2b85dec4489435b541d2f0e2570db09b09db9efd8703948d44a433df65a906020015b60405180910390a2505050565b7fb63b70db607c764adad98a6745fc4efcea212ebc7b501d5753c57d675f377a66611585816131b8565b816115a35760405163afd51dbf60e01b815260040160405180910390fd5b5f84116115c35760405163273e150360e21b815260040160405180910390fd5b6001600160a01b0385166115ea576040516342bcdf7f60e11b815260040160405180910390fd5b8561160857604051630742d05360e01b815260040160405180910390fd5b6101c28054600181019091555f1981015f9081526101c360205260409020548590811161164b576040516317d6372960e31b815260040161141f91815260200190565b505f8181526101c4602090815260408083208a90556101c390915290819020869055516001600160a01b0387169082907f8fbc8fbd65675eb32c567d4a559963c7d002c2be67b5b266fb13d85b4375fce5906116ae9089908c908a908a906159ac565b60405180910390a350505050505050565b7f6b5661ddfbd1fbd525c902a513e0f47d9c74f1c1ee8a2d4f1937ad305fb8f41a6116e9816131b8565b5f82815261011b602090815260408083205490516001600160a01b0390911681523392859290917f4a29db3fc6b42bda201e4b4d69ce8d575eeeba5f153509c0d0a342af0f1bd021910160405180910390a4505f90815261011b6020526040902080546001600160a01b0319169055565b61176762f099c0826159e9565b42101561178757604051634306cbb160e01b815260040160405180910390fd5b6040805186815260208101869052908101849052606081018390526080810182905260a090206101bf5414611803576101bf546040805187815260208101879052908101859052606081018490526080810183905260a090205b60405163bc5aad1160e01b81526004810192909252602482015260440161141f565b6101c0546001600160a01b03165f8181527fbdd154b7c599a43e8b8410b62e84571cd69a79e95c9fc5b630a687cb7c97edf9602052604090205460ff166118a45761186e7f97667070c54ef182b0f5858b034beac1b6f3089aa2d3188bb1e8929f4fa9b929826131c5565b6040516001600160a01b0382169033907f6cfaf6b76ea493a8e88b6b95f7b34cdaae196c4ed737b32e72c5d9e8d0a18518905f90a35b505050505050565b5f828152606560205260409020600101546118c6816131b8565b6118d083836131c5565b505050565b6118df8282613265565b5050565b815f81600d8111156118f7576118f7615942565b03611915576040516385994c7760e01b815260040160405180910390fd5b7f1453a531db80c85f2d944d498709d84959bc5bf839eefe9acb784571e5a3211861193f816131b8565b5f60db5f86600d81111561195557611955615942565b600d81111561196657611966615942565b81526020019081526020015f2054905083810361199657604051631b807f5560e01b815260040160405180910390fd5b8360db5f87600d8111156119ac576119ac615942565b600d8111156119bd576119bd615942565b815260208101919091526040015f2055808486600d8111156119e1576119e1615942565b6040517f074bfc3728ef1e98bde10bcb5bd8cde59cff190c2bfda5d22f879f865a07bac5905f90a45050505050565b5f54600990610100900460ff16158015611a3057505f5460ff8083169116105b611a935760405162461bcd60e51b815260206004820152602e60248201527f496e697469616c697a61626c653a20636f6e747261637420697320616c72656160448201526d191e481a5b9a5d1a585b1a5e995960921b606482015260840161141f565b5f805461ffff191660ff8316176101001790555f195f5160206162275f395f51905f525c01611ac9576337ed32e85f526004601cfd5b60015f5160206162275f395f51905f525d5f8311611afa5760405163273e150360e21b815260040160405180910390fd5b6001600160a01b038216611b21576040516342bcdf7f60e11b815260040160405180910390fd5b6101c58390556101c680546001600160a01b0319166001600160a01b0384161790556040518381527fc4733b619696e38077e1b19371d193f42b20a279e3445c3b2b9f4d58db36bc6b9060200160405180910390a1604080515f81526001600160a01b03841660208201527f70a40b63da92dd99e111281bc23dfb08922b6d1337f71f895cf498eb60ff7a0b910160405180910390a160016101c255604051620382e360ec1b9062372e3160e81b907f2f8492a7a430cf917798dfb60bc5af634f68e6c40287947df0ea6f7ec0669bd8905f90a35f5f5160206162275f395f51905f525d5f805461ff001916905560405160ff821681527f7f26b83ff96e1f2b6a682f133852f6798a09c465da95921460cefb3847402498906020015b60405180910390a1505050565b60015f5160206162275f395f51905f525c03611c6e576337ed32e85f526004601cfd5b60015f5160206162275f395f51905f525d85878484875f5a9050611c92600361329f565b8d5f805c6001600160a01b0319166001600160a01b03831617905d505f611cbe8f8f8f8f8c8f8f6132ff565b9050611cc981613358565b611cdb611cd68d8f6159e9565b613399565b5f5f8f6001600160a01b03168e8d8d604051611cf89291906159fc565b5f6040518083038185875af1925050503d805f8114611d32576040519150601f19603f3d011682016040523d82523d5f602084013e611d37565b606091505b509150915081611d7b57805115611d515780518082602001fd5b8f604051635461344360e01b815260040161141f91906001600160a01b0391909116815260200190565b5f6001600160a01b0319815c16815d5060405183907fa4c827e719e911e8f19393ccdb85b5102f08f0910604d340ba38390b7ff2ab0e905f90a2505086159050611ea757855f849003611e3657853b158015611e34573a5a611ddf61bc7c866159e9565b611de99190615a0b565b611df39190615a1e565b915081881115611e30576001600160a01b0387166108fc611e14848b615a0b565b6040518115909202915f818181858888f1935050505050611e34565b8791505b505b5f6001600160a01b03841615611e4c5783611e4e565b335b90505f816001600160a01b03166108fc8490811502906040515f60405180830381858888f19350505050905080611ea35760405163295f137d60e21b81526001600160a01b038316600482015260240161141f565b5050505b5050505050505f5f5160206162275f395f51905f525d5050505050505050565b6002611ed28161329f565b7f594904a11ae10ad7613c91ac3c92c7c3bba397934d377ce6d3e0aaffbc17df00546001600160a01b03163314611f1c5760405163a1cfbf5960e01b815260040160405180910390fd5b6001600160a01b038216611f43576040516342bcdf7f60e11b815260040160405180910390fd5b60e480545f9182611f5383615a35565b9091555060408051308152602081018690525f918101829052606081018790526080810183905260c060a08201819052810182905260e0902091925050611f9a82826133f6565b604080515f80825260208201889052818301859052608060608301819052820152905182916001600160a01b0387169133917fe856c2b8bd4eb0027ce32eeaf595c21b0b6b4644b326e5b7bd80a1cf8db72e6c919081900360a00190a45050505050565b815f81600d81111561201257612012615942565b03612030576040516385994c7760e01b815260040160405180910390fd5b7f1453a531db80c85f2d944d498709d84959bc5bf839eefe9acb784571e5a3211861205a816131b8565b5f60dc5f86600d81111561207057612070615942565b600d81111561208157612081615942565b81526020019081526020015f205490508381036120b157604051631b807f5560e01b815260040160405180910390fd5b8360dc5f87600d8111156120c7576120c7615942565b600d8111156120d8576120d8615942565b815260208101919091526040015f2055808486600d8111156120fc576120fc615942565b6040517ff8ef9f1cde7c2c0d3aeb696678f76d7c1c3e13c3b79ea3c5160a2d9eaa821cfd905f90a45050505050565b7fdaafd36d8da81d5104d4fd21e3ccc58683c62ba08cd23875bcfbc0583a3f49dd612155816131b8565b5f82116121755760405163273e150360e21b815260040160405180910390fd5b6101c58290556040518281527fc4733b619696e38077e1b19371d193f42b20a279e3445c3b2b9f4d58db36bc6b906020015b60405180910390a15050565b7f1185e52d62bfbbea270e57d3d09733d221b53ab7a18bae82bb3c6c74bab16d826121dd816131b8565b5f5f5f426099541015612202576097546121f790426159e9565b609955506001612214565b609a5485101561221457849250600191505b609885905580806122225750815b1561222d57609a8390555b6040805186815283151560208201528215159181019190915233907fbc3dc0cb5c15c51c81316450d44048838bb478b9809447d01c766a06f3e9f2c8906060015b60405180910390a25050505050565b60015f5160206162275f395f51905f525c036122a0576337ed32e85f526004601cfd5b60015f5160206162275f395f51905f525d60a081018035906122c59060808401615759565b6122d3610120840184615a4d565b6122e4610100860160e08701615759565b5f5a90506122f187613453565b85156123df57855f84900361236e57853b15801561236c573a5a61231761bc7c866159e9565b6123219190615a0b565b61232b9190615a1e565b915081881115612368576001600160a01b0387166108fc61234c848b615a0b565b6040518115909202915f818181858888f193505050505061236c565b8791505b505b5f6001600160a01b038416156123845783612386565b335b90505f816001600160a01b03166108fc8490811502906040515f60405180830381858888f193505050509050806123db5760405163295f137d60e21b81526001600160a01b038316600482015260240161141f565b5050505b5050505050505f5f5160206162275f395f51905f525d50565b60015f5160206162275f395f51905f525c0361241b576337ed32e85f526004601cfd5b60015f5160206162275f395f51905f525d478260c001351161245057604051630316ae7f60e51b815260040160405180910390fd5b61246060a0830160808401615759565b6001600160a01b0316336001600160a01b03161461249157604051630a5c9f3560e01b815260040160405180910390fd5b5f61249b836136b9565b9050600160ff60a01b195f805c91909116600160a01b17905d507f594904a11ae10ad7613c91ac3c92c7c3bba397934d377ce6d3e0aaffbc17df00546001600160a01b0316633e4903b78360c08601356124fb60a0880160808901615759565b60405160e085901b6001600160e01b03191681526001600160a01b039384166004820152602481019290925290911660448201526064015f604051808303815f87803b158015612549575f5ffd5b505af115801561255b573d5f5f3e3d5ffd5b505f92505050805c60ff60a01b1916815d5060405181907fa4c827e719e911e8f19393ccdb85b5102f08f0910604d340ba38390b7ff2ab0e905f90a2505f5f5160206162275f395f51905f525d5050565b7f76ef52a5344b10ed112c1d48c7c06f51e919518ea6fb005f9b25b359b955e3be6125d6816131b8565b6118df8261377f565b60066125ea8161329f565b7f97667070c54ef182b0f5858b034beac1b6f3089aa2d3188bb1e8929f4fa9b929612614816131b8565b5f85900361263557604051637907d79b60e01b815260040160405180910390fd5b610119545f81815261011a60205260409020548435146126685760405163756a618760e11b815260040160405180910390fd5b6101bd545f86815261011b60205260409020546001600160a01b0316806126a2576040516369ed70ab60e01b815260040160405180910390fd5b6101e08601355f8181526101c4602052604090205490158015906126c4575080155b156126e95760405163765214e960e11b81526101e0880135600482015260240161141f565b61276b61276388856126fc8b898761382e565b8886886001600160a01b031663b02384ad6040518163ffffffff1660e01b8152600401602060405180830381865afa15801561273a573d5f5f3e3d5ffd5b505050506040513d601f19601f8201168201806040525081019061275e9190615a90565b613bc3565b838c8c613cc4565b50505050505050505050565b7f1453a531db80c85f2d944d498709d84959bc5bf839eefe9acb784571e5a321186127a1816131b8565b4260dd556040517f201956ebe50475cb4c4f2d1e8375cfcc9c1700ad498e0c8053da490688172787905f90a150565b7f012c76ef7f96cd7eb95acbdc250ad5696bbe3fd2fcf0207571939fa40c2e01676127fa816131b8565b6001600160a01b038216612821576040516342bcdf7f60e11b815260040160405180910390fd5b6101c6546001600160a01b0390811690831681146118d0576101c680546001600160a01b0319166001600160a01b0385811691821790925560408051928416835260208301919091527f70a40b63da92dd99e111281bc23dfb08922b6d1337f71f895cf498eb60ff7a0b9101611c3e565b805f81600d8111156128a6576128a6615942565b036128c4576040516385994c7760e01b815260040160405180910390fd5b6128cd82612b3e565b6128ec5781604051630619659560e21b815260040161141f9190615976565b60de5f83600d81111561290157612901615942565b600d81111561291257612912615942565b81526020019081526020015f20544210156129775760de5f83600d81111561293c5761293c615942565b600d81111561294d5761294d615942565b81526020019081526020015f205460405163cfd8aa6f60e01b815260040161141f91815260200190565b60de5f83600d81111561298c5761298c615942565b600d81111561299d5761299d615942565b81526020019081526020015f205f905581600d8111156129bf576129bf615942565b60da8054600190921b19909116905581600d8111156129e0576129e0615942565b6040517f3ddaeb19197ed3b5334f4c1cd5716f663d0f6dce30c52800bd1674da0b88e87a905f90a25050565b600d612a178161329f565b7f97667070c54ef182b0f5858b034beac1b6f3089aa2d3188bb1e8929f4fa9b929612a41816131b8565b6118a486868686613e70565b600881901c5f90815261014f6020526040812054600160ff84161b161515611382565b6002612a7b8161329f565b612a8785858585613fdf565b5050505050565b7f0cf0d2deb70d7bdac2fa48c4ac99bc558170be0ce5fcb994caefa4bf7b96edf9612ab8816131b8565b5f609a81905560405133917fba88c025b0cbb77022c0c487beef24f759f1e4be2f51a205bc427cee19c2eaa691a250565b345f03612b095760405163717e6b7b60e01b815260040160405180910390fd5b6040513481527fe455499c2acd509bdadebaf5a8fd54c083da31dbe98e785f2a72cdff04e32e009060200160405180910390a1565b5f81600d811115612b5157612b51615942565b60da54600190911b16151592915050565b7f32937fd5162e282df7e9a14a5073a2425321c7966eaf70ed6c838a1006d84c4c612b8c816131b8565b6001600160a01b038316612bb3576040516342bcdf7f60e11b815260040160405180910390fd5b5f82815261011b60209081526040918290205491516001600160a01b03928316815233928592908716917f4a29db3fc6b42bda201e4b4d69ce8d575eeeba5f153509c0d0a342af0f1bd021910160405180910390a4505f90815261011b6020526040902080546001600160a01b0319166001600160a01b0392909216919091179055565b5f82815260656020526040902060010154612c51816131b8565b6118d083836140c3565b5f80612c685f5460ff1690565b60ff1614612ca25780612c7c5f5460ff1690565b604051636fdb2e9360e11b815260ff92831660048201529116602482015260440161141f565b5f54600990610100900460ff16158015612cc257505f5460ff8083169116105b612d255760405162461bcd60e51b815260206004820152602e60248201527f496e697469616c697a61626c653a20636f6e747261637420697320616c72656160448201526d191e481a5b9a5d1a585b1a5e995960921b606482015260840161141f565b5f805461ffff191660ff831617610100178155612d68818088358180604080519586526020860194909452928401919091526060830152608082015260a0902090565b5f8181526101be60205260409020600190559050612d868682614144565b612d8f85614432565b612d98846144fc565b505f805461ff001916905560405160ff821681527f7f26b83ff96e1f2b6a682f133852f6798a09c465da95921460cefb38474024989060200160405180910390a15050505050565b805f81600d811115612df457612df4615942565b03612e12576040516385994c7760e01b815260040160405180910390fd5b60db5f83600d811115612e2757612e27615942565b600d811115612e3857612e38615942565b81526020019081526020015f2054612e4f816131b8565b335f9081527f74a8627e7e8109f70747bbdf2c891159d40f925b9c8f09259a497b8c31b3780b602052604090205460ff16612e8984612b3e565b8015612e93575080155b80612ed157505f1960de5f86600d811115612eb057612eb0615942565b600d811115612ec157612ec1615942565b81526020019081526020015f2054145b15612ef15783604051631814e36b60e31b815260040161141f9190615976565b8015612f9a575f1960de5f86600d811115612f0e57612f0e615942565b600d811115612f1f57612f1f615942565b815260208101919091526040015f205583600d811115612f4157612f41615942565b60da8054600190921b909117905583600d811115612f6157612f61615942565b6040805133815290517f36287ed6be33e8d1abe33ad8d38ab23b67a5126b7140660a8a25920bdc30a1999181900360200190a250505050565b60dd54428111612fee57426202a300018060de5f88600d811115612fc057612fc0615942565b600d811115612fd157612fd1615942565b815260208101919091526040015f20556202a3000160dd55613053565b6202a300428203116130165760405163602102f760e11b81526004810182905260240161141f565b6202a300810360de5f87600d81111561303157613031615942565b600d81111561304257613042615942565b815260208101919091526040015f20555b84600d81111561306557613065615942565b60da8054600190921b909117905584600d81111561308557613085615942565b6040513381527f534f879afd40abb4e39f8e1b77a316be4c8e3521d9cf5a3a3db8959d574d45599060200161226e565b60096130c08161329f565b7f220bd22ef7c53d75fe3eac0a09e90815a0c5ba4f9e8da8b039542cd3db3472586130ea816131b8565b7f594904a11ae10ad7613c91ac3c92c7c3bba397934d377ce6d3e0aaffbc17df00546001600160a01b03166001600160a01b0316637ab19c10846040518263ffffffff1660e01b81526004015f604051808303818588803b15801561314d575f5ffd5b505af115801561315f573d5f5f3e3d5ffd5b5050505050505050565b5f5f5f5f5f5f60016101c25461317f9190615a0b565b6101bf545f9182526101c460209081526040808420546101c390925290922054610119546101c554929a93995090975095509350915050565b6131c2813361455c565b50565b5f8281526065602090815260408083206001600160a01b038516845290915290205460ff166118df575f8281526065602090815260408083206001600160a01b03851684529091529020805460ff191660011790556132213390565b6001600160a01b0316816001600160a01b0316837f2f8788117e7eff1d82e926ec794901d17c78024a50270940304540a733656f0d60405160405180910390a45050565b6101c0546001600160a01b039081169082160361329557604051639395197f60e01b815260040160405180910390fd5b6118df82826145d0565b60da5481600d8111156132b4576132b4615942565b6001901b8116156132da5781604051631814e36b60e31b815260040161141f9190615976565b60028116156118df576001604051631814e36b60e31b815260040161141f9190615976565b5f60405188815287602082015286604082015285606082015284608082015260c060a08201528260c0820152602083065f811561333d578160200390505b848660e085013790930160e001902098975050505050505050565b5f81815260a660205260409020546001146133895760405163992d87c360e01b81526004810182905260240161141f565b5f90815260a66020526040812055565b80156131c2574260995410156133be576097546133b690426159e9565b6099556133ce565b609a546133cb90826159e9565b90505b6098548111156133f15760405163a74c1c5f60e01b815260040160405180910390fd5b609a55565b5f1982015f90815261014e60208181526040808420548452848252808420868552929091528083208290555190918391839186917fea3b023b4c8680d4b4824f0143132c95476359a2bb70a81d6c5a36f6918f63399190a4505050565b61345d600361329f565b6101008101355f90815261015060205260408120549081900361349357604051634e68667560e01b815260040160405180910390fd5b61349d8280615aa7565b905081146134d357806134b08380615aa7565b604051635e3fd6ad60e01b8152600481019390935260248301525060440161141f565b6134e08260200135614658565b6134f5611cd660c084013560a08501356159e9565b5f61353b6135096080850160608601615759565b61351960a0860160808701615759565b60a086013560c087013560208801356135366101208a018a615a4d565b6132ff565b90506135668161354b8580615aa7565b61355b6060880160408901615aed565b8761010001356146b7565b6135835760405163582f497d60e11b815260040160405180910390fd5b6135936080840160608501615759565b5f805c6001600160a01b0319166001600160a01b03831617905d505f806135c060a0860160808701615759565b6001600160a01b031660c08601356135dc610120880188615a4d565b6040516135ea9291906159fc565b5f6040518083038185875af1925050503d805f8114613624576040519150601f19603f3d011682016040523d82523d5f602084013e613629565b606091505b509150915081613678578051156136435780518082602001fd5b61365360a0860160808701615759565b604051635461344360e01b81526001600160a01b03909116600482015260240161141f565b5f6001600160a01b0319815c16815d5060405183907fa4c827e719e911e8f19393ccdb85b5102f08f0910604d340ba38390b7ff2ab0e905f90a25050505050565b5f6136c4600361329f565b6101008201355f9081526101506020526040812054908190036136fa57604051634e68667560e01b815260040160405180910390fd5b6137048380615aa7565b9050811461371757806134b08480615aa7565b6137248360200135614658565b613739611cd660c085013560a08601356159e9565b61374c6135096080850160608601615759565b915061375c8261354b8580615aa7565b6137795760405163582f497d60e11b815260040160405180910390fd5b50919050565b613788816147ab565b7feb44f28f73dc4d72ac2ee43ebf59a1e0c84c11c4d614746c0dc99d9071abd8f97f594904a11ae10ad7613c91ac3c92c7c3bba397934d377ce6d3e0aaffbc17df0054604080516001600160a01b03928316815291841660208301520160405180910390a17f594904a11ae10ad7613c91ac3c92c7c3bba397934d377ce6d3e0aaffbc17df0080546001600160a01b0319166001600160a01b0392909216919091179055565b5f6138438461018001358561014001356147d2565b613859613854610240860186615aa7565b614854565b6101bf5460408051610160870135815261012087013560208201526101c087013591810191909152610200860135606082015260e0860135608082015260a0902081146138fb57604080516101608701358152610120870135602082015260e0870135918101919091526060902081146138fb57604080516101608701358152610120870135602082015260e0870135918101919091526060902081906117e1565b428561010001351061392d576040516305fc0e3760e51b8152610100860135600482015242602482015260440161141f565b608085013561394f5760405163144c241560e11b815260040160405180910390fd5b60016101e0860135015f9081526101c36020526040902054801580159061397a575085602001358111155b156139a257604051632e438ba160e21b815260016101e088013501600482015260240161141f565b506139e660408601356060870135608088013560a089013560c08a0135604080519586526020860194909452928401919091526060830152608082015260a0902090565b6101c1546040516310986c0960e11b8152600481018390529193506001600160a01b031690632130d81290602401602060405180830381865afa158015613a2f573d5f5f3e3d5ffd5b505050506040513d601f19601f82011682018060405250810190613a539190615a90565b5f03613a755760405163d35bb1d160e01b81526004810183905260240161141f565b613a91613a86610220870187615aa7565b876101a0013561496d565b613aa8613aa2610260870187615a4d565b86614a5a565b6020808601355f81815261011a909252604090912060808701359055610119556101bd829055613b116101808601356101408701356101e0880135866101008a0135604080519586526020860194909452928401919091526060830152608082015260a0902090565b6101bf556040805161010087013581526101808701356020808301919091526101e088013582840152915191870135917f32e016ccc5c33419c35caa94023fdeb75143da613fb2ac738ab736404c09fc5d9181900360600190a2604080518635815260808701356020828101919091526001909601958492908801359187917fa0262dc79e4ccb71ceac8574ae906311ae338aa4a2044fd4ec4b99fad5ab60cb910160405180910390a4509392505050565b5f80613bd3610240890189615aa7565b604051602001613be4929190615b10565b604051602081830303815290604052805190602001209050604051878152866020820152604060e08a0160408301378560808201526020808a0160a083013760806101208a0160c083013760206102008a016101408301378461016082015260406101c08a0161018083013760206101a08a016101c083013761020081016102208a01358a018035602081026020830184376020029091206101e0830152506102008101939093526102208301525061024090207f30644e72e131a029b85045b68181585d2833e84879b9709143e1f593f0000001900695945050505050565b6040805160018082528183019092525f916020808301908036833701905050905084815f81518110613cf857613cf8615b65565b6020026020010181815250505f5f856001600160a01b0316858585604051602401613d2593929190615b79565b60408051601f198184030181529181526020820180517bffffffffffffffffffffffffffffffffffffffffffffffffffffffff16633f27bd4560e11b17905251613d6f9190615bea565b5f604051808303815f865af19150503d805f8114613da8576040519150601f19603f3d011682016040523d82523d5f602084013e613dad565b606091505b509150915081613e3b57805115613df257602081017bffffffffffffffffffffffffffffffffffffffffffffffffffffffff81511663ca389c4460e01b178152815181fd5b60405163328e271160e21b815260206004820152600760248201527f556e6b6e6f776e00000000000000000000000000000000000000000000000000604482015260640161141f565b5f81806020019051810190613e509190615bf5565b90508061315f576040516309bde33960e01b815260040160405180910390fd5b5f839003613e915760405163b1504a5f60e01b815260040160405180910390fd5b824915613eb457604051638019aff760e01b81526004810184905260240161141f565b5f5f613ee56040518060a001604052805f815260200160608152602001606081526020015f81526020015f81525090565b845f5b87811015613fa557888882818110613f0257613f02615b65565b9050602002810190613f149190615c14565b613f1d90615ce6565b81499450925083613f445760405163c0e41e1d60e01b81526004810182905260240161141f565b60808301515f8181526020869052604090209550613f7285875f1c865f015187602001518860400151614ace565b6060848101518551604080519687526020870194909452928501528301869052608083015260a090912090600101613ee8565b50613fb586868460600151614c30565b80851461315f5760405163d3664fb360e01b8152600481018690526024810182905260440161141f565b6001600160a01b038416614006576040516342bcdf7f60e11b815260040160405180910390fd5b348311156140275760405163581db49960e11b815260040160405180910390fd5b60e480545f918261403783615a35565b9091555090505f6140488534615a0b565b90505f61405a33888885878a8a6132ff565b905061406683826133f6565b80876001600160a01b0316336001600160a01b03167fe856c2b8bd4eb0027ce32eeaf595c21b0b6b4644b326e5b7bd80a1cf8db72e6c8986888b8b6040516140b2959493929190615d73565b60405180910390a450505050505050565b5f8281526065602090815260408083206001600160a01b038516845290915290205460ff16156118df575f8281526065602090815260408083206001600160a01b0385168085529252808320805460ff1916905551339285917ff6391f5c32d9c69d2a47ea670b442974b53935d1edc7fd64eb21e047a839171b9190a45050565b5f54610100900460ff1661419b5760405162461bcd60e51b815260206004820152602b60248201525f5160206162075f395f51905f5260448201526a6e697469616c697a696e6760a81b606482015260840161141f565b5f6141ac6080840160608501615759565b6001600160a01b0316036141d3576040516342bcdf7f60e11b815260040160405180910390fd5b5f6141e661018084016101608501615759565b6001600160a01b03160361420d576040516342bcdf7f60e11b815260040160405180910390fd5b61423061421d60e0840184615da3565b61422b610100860186615da3565b614ce0565b61424282608001358360a00135614f48565b5f61425561014084016101208501615759565b6001600160a01b03160361427c576040516342bcdf7f60e11b815260040160405180910390fd5b6142975f61429261014085016101208601615759565b6131c5565b6142ac6142a760c0840184615da3565b614fca565b6142bc6080830160608401615759565b7f033d11f27e62ab919708ec716731da80d261a6e4253259b7acde9bf89d28ec1880546001600160a01b0319166001600160a01b03929092169190911790556020828101356101198190555f90815261011a82526040808220853590556101bd84905580518281529283018290528281018290526060830191909152830135608082015260a090206101bf5560016101c2555f61436161016084016101408501615759565b90506001600160a01b0381166143745750305b6101c180546001600160a01b0319166001600160a01b0383161790556143a261018084016101608501615759565b6101c680546001600160a01b0319166001600160a01b03929092169190911790556040805180820190915260038152620382e360ec1b60208201526143e690615de9565b77ffffffffffffffffffffffffffffffffffffffffffffffff19167f129e59eb8f5fd549b47c6f64a2a11d3b82e91c584db3af4b27cfe7339ac4716b848460405161154e929190615f20565b5f54610100900460ff166144895760405162461bcd60e51b815260206004820152602b60248201525f5160206162075f395f51905f5260448201526a6e697469616c697a696e6760a81b606482015260840161141f565b6001600160a01b0381166144b0576040516342bcdf7f60e11b815260040160405180910390fd5b6101c080546001600160a01b0319166001600160a01b03831690811790915560405133907fb341a9e6d33f272cb7b5a20b337763606cbb6c728e7a34cbd3191cdfa0f0cd07905f90a350565b5f54610100900460ff166145535760405162461bcd60e51b815260206004820152602b60248201525f5160206162075f395f51905f5260448201526a6e697469616c697a696e6760a81b606482015260840161141f565b6131c28161377f565b5f8281526065602090815260408083206001600160a01b038516845290915290205460ff166118df5761458e81615107565b614599836020615119565b6040516020016145aa929190616054565b60408051601f198184030181529082905262461bcd60e51b825261141f916004016155dd565b6001600160a01b038116331461464e5760405162461bcd60e51b815260206004820152602f60248201527f416363657373436f6e74726f6c3a2063616e206f6e6c792072656e6f756e636560448201527f20726f6c657320666f722073656c660000000000000000000000000000000000606482015260840161141f565b6118df82826140c3565b600881901c5f90815261014f6020526040902054600160ff83161b161561469557604051630335a4a960e41b81526004810182905260240161141f565b600881901c5f90815261014f602052604090208054600160ff84161b17905550565b5f806146d860016146c98760026161a1565b6146d39190615a0b565b6152c3565b90508063ffffffff168463ffffffff1611156147175760405163f7ec909760e01b815263ffffffff80861660048301528216602482015260440161141f565b865f5b8681101561479d57600163ffffffff8716821c811690036147675761476088888381811061474a5761474a615b65565b90506020020135835f9182526020526040902090565b9150614795565b6147928289898481811061477d5761477d615b65565b905060200201355f9182526020526040902090565b91505b60010161471a565b509092149695505050505050565b6001600160a01b0381166131c2576040516342bcdf7f60e11b815260040160405180910390fd5b815f036147fb5780156118df57604051630612b2c960e11b81526004810182905260240161141f565b8061481c57604051630a451e9960e31b81526004810183905260240161141f565b5f82815261014e602052604090205481146118df576040516301b22cfd60e51b8152600481018390526024810182905260440161141f565b80156118df576101c6546001600160a01b03165f5b8281101561496757816001600160a01b0316631d51508385858481811061489257614892615b65565b90506020020160208101906148a79190615759565b6040516001600160e01b031960e084901b1681526001600160a01b039091166004820152602401602060405180830381865afa1580156148e9573d5f5f3e3d5ffd5b505050506040513d601f19601f8201168201806040525081019061490d9190615bf5565b84848381811061491f5761491f615b65565b90506020020160208101906149349190615759565b9061495e5760405163ec4f874b60e01b81526001600160a01b03909116600482015260240161141f565b50600101614869565b50505050565b5f5b82811015614967576101505f85858481811061498d5761498d615b65565b9050602002013581526020019081526020015f20545f146149dd578383828181106149ba576149ba615b65565b9050602002013560405163e5d1442560e01b815260040161141f91815260200190565b816101505f8686858181106149f4576149f4615b65565b9050602002013581526020019081526020015f208190555081848483818110614a1f57614a1f615b65565b905060200201357f300e6f978eee6a4b0bba78dd8400dc64fd5652dbfc868a2258e16d0977be222b60405160405180910390a360010161496f565b614a656002836161ac565b15614a8657604051630648ebbb60e11b81526004810183905260240161141f565b5f5f5b83811015612a87576040518582013560f01c9250838301907f3c116827db9db3a30c1a25db8b0ee4bab9d2b223560209cfd839601b621c726d905f90a2600201614a89565b7f73eda753299d7d483339d80809a1d80553bda402fffe5bfeffffffff00000001840693505f5f600a6001600160a01b03168787878787604051602001614b199594939291906161cb565b60408051601f1981840301815290829052614b3391615bea565b5f60405180830381855afa9150503d805f8114614b6b576040519150601f19603f3d011682016040523d82523d5f602084013e614b70565b606091505b509150915081614b935760405163a71194af60e01b815260040160405180910390fd5b6040815114614bc25780516040805163f75db38160e01b815261141f9290600401918252602082015260400190565b6020810151604082015161100082141580614bfd57507f73eda753299d7d483339d80809a1d80553bda402fffe5bfeffffffff000000018114155b15614c25576040516368dcad5f60e01b8152600481018390526024810182905260440161141f565b505050505050505050565b5f8381526101be60205260409020548390614c61576040516331dee59360e21b815260040161141f91815260200190565b505f8281526101be6020526040902054829015614c945760405163734d6f6560e11b815260040161141f91815260200190565b505f8281526101be602090815260409182902060019055815185815290810183905283917f55f4c645c36aa5cd3f443d6be44d7a7a5df9d2100d7139dfc69d4289ee072319910161154e565b5f54610100900460ff16614d375760405162461bcd60e51b815260206004820152602b60248201525f5160206162075f395f51905f5260448201526a6e697469616c697a696e6760a81b606482015260840161141f565b5f5b83811015614e3f57848482818110614d5357614d53615b65565b9050604002016020013560db5f878785818110614d7257614d72615b65565b614d88926020604090920201908101915061547f565b600d811115614d9957614d99615942565b600d811115614daa57614daa615942565b815260208101919091526040015f2055848482818110614dcc57614dcc615b65565b90506040020160200135858583818110614de857614de8615b65565b614dfe926020604090920201908101915061547f565b600d811115614e0f57614e0f615942565b6040517f33aa8fd1ce49e1761bc8d27fd53414bfefc45d690feed0ce55019d7d3aec6091905f90a3600101614d39565b505f5b81811015612a8757828282818110614e5c57614e5c615b65565b9050604002016020013560dc5f858585818110614e7b57614e7b615b65565b614e91926020604090920201908101915061547f565b600d811115614ea257614ea2615942565b600d811115614eb357614eb3615942565b815260208101919091526040015f2055828282818110614ed557614ed5615b65565b90506040020160200135838383818110614ef157614ef1615b65565b614f07926020604090920201908101915061547f565b600d811115614f1857614f18615942565b6040517fe7bf4b8dc0c17a52dc9e52323a3ab61cb2079db35f969125b1f8a3d984c6f6c2905f90a3600101614e42565b5f54610100900460ff16614f9f5760405162461bcd60e51b815260206004820152602b60248201525f5160206162075f395f51905f5260448201526a6e697469616c697a696e6760a81b606482015260840161141f565b614fa76152f7565b614faf6152f7565b614fb76152f7565b614fc18282615350565b5050600160e455565b5f54610100900460ff166150215760405162461bcd60e51b815260206004820152602b60248201525f5160206162075f395f51905f5260448201526a6e697469616c697a696e6760a81b606482015260840161141f565b5f5b818110156118d0575f83838381811061503e5761503e615b65565b6150549260206040909202019081019150615759565b6001600160a01b03160361507b576040516342bcdf7f60e11b815260040160405180910390fd5b82828281811061508d5761508d615b65565b905060400201602001355f5f1b036150b857604051630742d05360e01b815260040160405180910390fd5b6150ff8383838181106150cd576150cd615b65565b905060400201602001358484848181106150e9576150e9615b65565b6142929260206040909202019081019150615759565b600101615023565b60606113826001600160a01b03831660145b60605f615127836002615a1e565b6151329060026159e9565b67ffffffffffffffff81111561514a5761514a615b51565b6040519080825280601f01601f191660200182016040528015615174576020820181803683370190505b509050600360fc1b815f8151811061518e5761518e615b65565b60200101906001600160f81b03191690815f1a905350600f60fb1b816001815181106151bc576151bc615b65565b60200101906001600160f81b03191690815f1a9053505f6151de846002615a1e565b6151e99060016159e9565b90505b600181111561526d577f303132333435363738396162636465660000000000000000000000000000000085600f166010811061522a5761522a615b65565b1a60f81b82828151811061524057615240615b65565b60200101906001600160f81b03191690815f1a90535060049490941c93615266816161f1565b90506151ec565b5083156152bc5760405162461bcd60e51b815260206004820181905260248201527f537472696e67733a20686578206c656e67746820696e73756666696369656e74604482015260640161141f565b9392505050565b5f63ffffffff8211156152f3576040516306dfcc6560e41b8152602060048201526024810183905260440161141f565b5090565b5f54610100900460ff1661534e5760405162461bcd60e51b815260206004820152602b60248201525f5160206162075f395f51905f5260448201526a6e697469616c697a696e6760a81b606482015260840161141f565b565b5f54610100900460ff166153a75760405162461bcd60e51b815260206004820152602b60248201525f5160206162075f395f51905f5260448201526a6e697469616c697a696e6760a81b606482015260840161141f565b815f036153c75760405163b5ed5a3b60e01b815260040160405180910390fd5b805f036153e75760405163d10d72bb60e01b815260040160405180910390fd5b609782905560988190556153fb82426159e9565b60998190556097546098546040805192835260208301919091528101919091527f8f805c372b66240792580418b7328c0c554ae235f0932475c51b026887fe26a9906060016121a7565b5f60208284031215615455575f5ffd5b81356001600160e01b0319811681146152bc575f5ffd5b8035600e811061547a575f5ffd5b919050565b5f6020828403121561548f575f5ffd5b6152bc8261546c565b5f602082840312156154a8575f5ffd5b5035919050565b6001600160a01b03811681146131c2575f5ffd5b803561547a816154af565b5f5f83601f8401126154de575f5ffd5b50813567ffffffffffffffff8111156154f5575f5ffd5b60208301915083602082850101111561550c575f5ffd5b9250929050565b5f5f5f5f5f60808688031215615527575f5ffd5b853594506020860135615539816154af565b935060408601359250606086013567ffffffffffffffff81111561555b575f5ffd5b615567888289016154ce565b969995985093965092949392505050565b5f5f5f5f5f60a0868803121561558c575f5ffd5b505083359560208501359550604085013594606081013594506080013592509050565b5f5f604083850312156155c0575f5ffd5b8235915060208301356155d2816154af565b809150509250929050565b602081525f82518060208401528060208501604085015e5f604082850101526040601f19601f83011684010191505092915050565b5f5f60408385031215615623575f5ffd5b61562c8361546c565b946020939093013593505050565b5f5f5f5f5f5f5f5f60e0898b031215615651575f5ffd5b883561565c816154af565b9750602089013561566c816154af565b96506040890135955060608901359450608089013561568a816154af565b935060a089013567ffffffffffffffff8111156156a5575f5ffd5b6156b18b828c016154ce565b999c989b50969995989497949560c00135949350505050565b5f6101408284031215613779575f5ffd5b5f602082840312156156eb575f5ffd5b813567ffffffffffffffff811115615701575f5ffd5b61570d848285016156ca565b949350505050565b5f5f60408385031215615726575f5ffd5b823567ffffffffffffffff81111561573c575f5ffd5b615748858286016156ca565b92505060208301356155d2816154af565b5f60208284031215615769575f5ffd5b81356152bc816154af565b5f5f5f5f60608587031215615787575f5ffd5b843567ffffffffffffffff81111561579d575f5ffd5b6157a9878288016154ce565b90955093505060208501359150604085013567ffffffffffffffff8111156157cf575f5ffd5b850161028081880312156157e1575f5ffd5b939692955090935050565b5f5f5f5f606085870312156157ff575f5ffd5b843567ffffffffffffffff811115615815575f5ffd5b8501601f81018713615825575f5ffd5b803567ffffffffffffffff81111561583b575f5ffd5b8760208260051b840101111561584f575f5ffd5b602091820198909750908601359560400135945092505050565b5f5f5f5f6060858703121561587c575f5ffd5b8435615887816154af565b935060208501359250604085013567ffffffffffffffff8111156158a9575f5ffd5b6158b5878288016154ce565b95989497509550505050565b5f5f604083850312156158d2575f5ffd5b823561562c816154af565b5f5f5f606084860312156158ef575f5ffd5b833567ffffffffffffffff811115615905575f5ffd5b84016101808187031215615917575f5ffd5b92506020840135615927816154af565b91506040840135615937816154af565b809150509250925092565b634e487b7160e01b5f52602160045260245ffd5b600e811061597257634e487b7160e01b5f52602160045260245ffd5b9052565b602081016113828284615956565b81835281816020850137505f828201602090810191909152601f909101601f19169091010190565b848152836020820152606060408201525f6159cb606083018486615984565b9695505050505050565b634e487b7160e01b5f52601160045260245ffd5b80820180821115611382576113826159d5565b818382375f9101908152919050565b81810381811115611382576113826159d5565b8082028115828204841417611382576113826159d5565b5f60018201615a4657615a466159d5565b5060010190565b5f5f8335601e19843603018112615a62575f5ffd5b83018035915067ffffffffffffffff821115615a7c575f5ffd5b60200191503681900382131561550c575f5ffd5b5f60208284031215615aa0575f5ffd5b5051919050565b5f5f8335601e19843603018112615abc575f5ffd5b83018035915067ffffffffffffffff821115615ad6575f5ffd5b6020019150600581901b360382131561550c575f5ffd5b5f60208284031215615afd575f5ffd5b813563ffffffff811681146152bc575f5ffd5b5f8184825b85811015615b46578135615b28816154af565b6001600160a01b031683526020928301929190910190600101615b15565b509095945050505050565b634e487b7160e01b5f52604160045260245ffd5b634e487b7160e01b5f52603260045260245ffd5b604081525f615b8c604083018587615984565b82810360208401528084518083526020830191506020860192505f5b81811015615bc6578351835260209384019390920191600101615ba8565b5090979650505050505050565b5f81518060208401855e5f93019283525090919050565b5f6152bc8284615bd3565b5f60208284031215615c05575f5ffd5b815180151581146152bc575f5ffd5b5f8235609e19833603018112615c28575f5ffd5b9190910192915050565b60405160a0810167ffffffffffffffff81118282101715615c5557615c55615b51565b60405290565b5f82601f830112615c6a575f5ffd5b813567ffffffffffffffff811115615c8457615c84615b51565b604051601f8201601f19908116603f0116810167ffffffffffffffff81118282101715615cb357615cb3615b51565b604052818152838201602001851015615cca575f5ffd5b816020850160208301375f918101602001919091529392505050565b5f60a08236031215615cf6575f5ffd5b615cfe615c32565b82358152602083013567ffffffffffffffff811115615d1b575f5ffd5b615d2736828601615c5b565b602083015250604083013567ffffffffffffffff811115615d46575f5ffd5b615d5236828601615c5b565b60408301525060608381013590820152608092830135928101929092525090565b858152846020820152836040820152608060608201525f615d98608083018486615984565b979650505050505050565b5f5f8335601e19843603018112615db8575f5ffd5b83018035915067ffffffffffffffff821115615dd2575f5ffd5b6020019150600681901b360382131561550c575f5ffd5b8051602082015177ffffffffffffffffffffffffffffffffffffffffffffffff19811691906008821015615e405777ffffffffffffffffffffffffffffffffffffffffffffffff19808360080360031b1b82161692505b5050919050565b5f5f8335601e19843603018112615e5c575f5ffd5b830160208101925035905067ffffffffffffffff811115615e7b575f5ffd5b8060061b360382131561550c575f5ffd5b8183526020830192505f815f5b84811015615ed3578135615eac816154af565b6001600160a01b031686526020828101359087015260409586019590910190600101615e99565b5093949350505050565b8183526020830192505f815f5b84811015615ed357615f0486615eff8461546c565b615956565b6020828101359087015260409586019590910190600101615eea565b604080825283358282015260208401356060808401919091529084013560808301525f90615f4f9085016154c3565b6001600160a01b03811660a084015250608084013560c08381019190915260a085013560e0840152615f8390850185615e47565b610180610100850152615f9b6101c085018284615e8c565b915050615fab60e0860186615e47565b848303603f1901610120860152615fc3838284615edd565b92505050615fd5610100860186615e47565b848303603f1901610140860152615fed838284615edd565b92505050615ffe61012086016154c3565b6001600160a01b031661016084015261601a61014086016154c3565b6001600160a01b031661018084015261603661016086016154c3565b6001600160a01b03166101a084015260209092019290925292915050565b7f416363657373436f6e74726f6c3a206163636f756e742000000000000000000081525f6160856017830185615bd3565b7f206973206d697373696e6720726f6c652000000000000000000000000000000081526160b56011820185615bd3565b95945050505050565b6001815b60018411156160f9578085048111156160dd576160dd6159d5565b60018416156160eb57908102905b60019390931c9280026160c2565b935093915050565b5f8261610f57506001611382565b8161611b57505f611382565b8160018114616131576002811461613b57616157565b6001915050611382565b60ff84111561614c5761614c6159d5565b50506001821b611382565b5060208310610133831016604e8410600b841016171561617a575081810a611382565b6161865f1984846160be565b805f1904821115616199576161996159d5565b029392505050565b5f6152bc8383616101565b5f826161c657634e487b7160e01b5f52601260045260245ffd5b500690565b8581528460208201528360408201525f615d986161eb6060840186615bd3565b84615bd3565b5f816161ff576161ff6159d5565b505f19019056fe496e697469616c697a61626c653a20636f6e7472616374206973206e6f742069084edf88d5959696dcc7aab5c8674a33a1ef78f37dda21b782ed03bddb22ade4a26469706673582212205f5cb0c6f6c859f2ba4542d252eadf5cd6fde7d5d2717d1612816d91a834cae664736f6c63430008210033",
  "linkReferences": {},
  "deployedLinkReferences": {}
}